{
	"PRACTICA 6/evm_mejorado.sol": {
		"lab6_mejorado": {
			"abi": [
				{
					"constant": false,
					"inputs": [
						{
							"name": "n",
							"type": "uint256"
						}
					],
					"name": "generate",
					"outputs": [],
					"payable": false,
					"stateMutability": "nonpayable",
					"type": "function"
				},
				{
					"constant": false,
					"inputs": [],
					"name": "computeSum",
					"outputs": [],
					"payable": false,
					"stateMutability": "nonpayable",
					"type": "function"
				}
			],
			"devdoc": {
				"methods": {}
			},
			"evm": {
				"assembly": "    /* \"PRACTICA 6/evm_mejorado.sol\":64:603  contract lab6_mejorado{\r... */\n  mstore(0x40, 0x80)\n    /* \"PRACTICA 6/evm_mejorado.sol\":121:122  0 */\n  0x0\n    /* \"PRACTICA 6/evm_mejorado.sol\":112:122  uint sum=0 */\n  0x1\n  sstore\n    /* \"PRACTICA 6/evm_mejorado.sol\":64:603  contract lab6_mejorado{\r... */\n  callvalue\n    /* \"--CODEGEN--\":8:17   */\n  dup1\n    /* \"--CODEGEN--\":5:7   */\n  iszero\n  tag_1\n  jumpi\n    /* \"--CODEGEN--\":30:31   */\n  0x0\n    /* \"--CODEGEN--\":27:28   */\n  dup1\n    /* \"--CODEGEN--\":20:32   */\n  revert\n    /* \"--CODEGEN--\":5:7   */\ntag_1:\n    /* \"PRACTICA 6/evm_mejorado.sol\":64:603  contract lab6_mejorado{\r... */\n  pop\n  dataSize(sub_0)\n  dup1\n  dataOffset(sub_0)\n  0x0\n  codecopy\n  0x0\n  return\nstop\n\nsub_0: assembly {\n        /* \"PRACTICA 6/evm_mejorado.sol\":64:603  contract lab6_mejorado{\r... */\n      mstore(0x40, 0x80)\n      jumpi(tag_1, lt(calldatasize, 0x4))\n      calldataload(0x0)\n      0x100000000000000000000000000000000000000000000000000000000\n      swap1\n      div\n      0xffffffff\n      and\n      dup1\n      0x4a7dd523\n      eq\n      tag_2\n      jumpi\n      dup1\n      0xc2a970d1\n      eq\n      tag_3\n      jumpi\n    tag_1:\n      0x0\n      dup1\n      revert\n        /* \"PRACTICA 6/evm_mejorado.sol\":138:256  function generate(uint n) external {\r... */\n    tag_2:\n      callvalue\n        /* \"--CODEGEN--\":8:17   */\n      dup1\n        /* \"--CODEGEN--\":5:7   */\n      iszero\n      tag_4\n      jumpi\n        /* \"--CODEGEN--\":30:31   */\n      0x0\n        /* \"--CODEGEN--\":27:28   */\n      dup1\n        /* \"--CODEGEN--\":20:32   */\n      revert\n        /* \"--CODEGEN--\":5:7   */\n    tag_4:\n        /* \"PRACTICA 6/evm_mejorado.sol\":138:256  function generate(uint n) external {\r... */\n      pop\n      tag_5\n      0x4\n      dup1\n      calldatasize\n      sub\n      dup2\n      add\n      swap1\n      dup1\n      dup1\n      calldataload\n      swap1\n      0x20\n      add\n      swap1\n      swap3\n      swap2\n      swap1\n      pop\n      pop\n      pop\n      jump(tag_6)\n    tag_5:\n      stop\n        /* \"PRACTICA 6/evm_mejorado.sol\":262:600  function computeSum() external {\r... */\n    tag_3:\n      callvalue\n        /* \"--CODEGEN--\":8:17   */\n      dup1\n        /* \"--CODEGEN--\":5:7   */\n      iszero\n      tag_7\n      jumpi\n        /* \"--CODEGEN--\":30:31   */\n      0x0\n        /* \"--CODEGEN--\":27:28   */\n      dup1\n        /* \"--CODEGEN--\":20:32   */\n      revert\n        /* \"--CODEGEN--\":5:7   */\n    tag_7:\n        /* \"PRACTICA 6/evm_mejorado.sol\":262:600  function computeSum() external {\r... */\n      pop\n      tag_8\n      jump(tag_9)\n    tag_8:\n      stop\n        /* \"PRACTICA 6/evm_mejorado.sol\":138:256  function generate(uint n) external {\r... */\n    tag_6:\n        /* \"PRACTICA 6/evm_mejorado.sol\":189:195  uint i */\n      0x0\n        /* \"PRACTICA 6/evm_mejorado.sol\":198:199  0 */\n      dup1\n        /* \"PRACTICA 6/evm_mejorado.sol\":189:199  uint i = 0 */\n      swap1\n      pop\n        /* \"PRACTICA 6/evm_mejorado.sol\":184:249  for (uint i = 0; i < n; i++) {\r... */\n    tag_11:\n        /* \"PRACTICA 6/evm_mejorado.sol\":205:206  n */\n      dup2\n        /* \"PRACTICA 6/evm_mejorado.sol\":201:202  i */\n      dup2\n        /* \"PRACTICA 6/evm_mejorado.sol\":201:206  i < n */\n      lt\n        /* \"PRACTICA 6/evm_mejorado.sol\":184:249  for (uint i = 0; i < n; i++) {\r... */\n      iszero\n      tag_12\n      jumpi\n        /* \"PRACTICA 6/evm_mejorado.sol\":224:227  arr */\n      0x0\n        /* \"PRACTICA 6/evm_mejorado.sol\":235:236  i */\n      dup2\n        /* \"PRACTICA 6/evm_mejorado.sol\":233:234  i */\n      dup3\n        /* \"PRACTICA 6/evm_mejorado.sol\":233:236  i*i */\n      mul\n        /* \"PRACTICA 6/evm_mejorado.sol\":224:237  arr.push(i*i) */\n      swap1\n      dup1\n        /* \"--CODEGEN--\":39:40   */\n      0x1\n        /* \"--CODEGEN--\":33:36   */\n      dup2\n        /* \"--CODEGEN--\":27:37   */\n      sload\n        /* \"--CODEGEN--\":23:41   */\n      add\n        /* \"--CODEGEN--\":57:67   */\n      dup1\n        /* \"--CODEGEN--\":52:55   */\n      dup3\n        /* \"--CODEGEN--\":45:68   */\n      sstore\n        /* \"--CODEGEN--\":79:89   */\n      dup1\n        /* \"--CODEGEN--\":72:89   */\n      swap2\n      pop\n        /* \"--CODEGEN--\":0:93   */\n      pop\n        /* \"PRACTICA 6/evm_mejorado.sol\":224:237  arr.push(i*i) */\n      swap1\n      0x1\n      dup3\n      sub\n      swap1\n      0x0\n      mstore\n      keccak256(0x0, 0x20)\n      add\n      0x0\n      swap1\n      swap2\n      swap3\n      swap1\n      swap2\n      swap1\n      swap2\n      pop\n      sstore\n      pop\n        /* \"PRACTICA 6/evm_mejorado.sol\":208:211  i++ */\n      dup1\n      dup1\n      0x1\n      add\n      swap2\n      pop\n      pop\n        /* \"PRACTICA 6/evm_mejorado.sol\":184:249  for (uint i = 0; i < n; i++) {\r... */\n      jump(tag_11)\n    tag_12:\n        /* \"PRACTICA 6/evm_mejorado.sol\":138:256  function generate(uint n) external {\r... */\n      pop\n      pop\n      jump\t// out\n        /* \"PRACTICA 6/evm_mejorado.sol\":262:600  function computeSum() external {\r... */\n    tag_9:\n        /* \"PRACTICA 6/evm_mejorado.sol\":313:332  uint[] memory array */\n      0x60\n        /* \"PRACTICA 6/evm_mejorado.sol\":390:404  uint suma_acum */\n      0x0\n        /* \"PRACTICA 6/evm_mejorado.sol\":417:428  uint length */\n      dup1\n        /* \"PRACTICA 6/evm_mejorado.sol\":475:481  uint i */\n      0x0\n        /* \"PRACTICA 6/evm_mejorado.sol\":346:349  arr */\n      dup1\n        /* \"PRACTICA 6/evm_mejorado.sol\":346:356  arr.length */\n      dup1\n      sload\n      swap1\n      pop\n        /* \"PRACTICA 6/evm_mejorado.sol\":335:357  new uint[](arr.length) */\n      mload(0x40)\n      swap1\n      dup1\n      dup3\n      mstore\n      dup1\n      0x20\n      mul\n      0x20\n      add\n      dup3\n      add\n      0x40\n      mstore\n      dup1\n      iszero\n      tag_16\n      jumpi\n      dup2\n      0x20\n      add\n        /* \"--CODEGEN--\":29:31   */\n      0x20\n        /* \"--CODEGEN--\":21:27   */\n      dup3\n        /* \"--CODEGEN--\":17:32   */\n      mul\n        /* \"--CODEGEN--\":117:121   */\n      dup1\n        /* \"--CODEGEN--\":105:115   */\n      codesize\n        /* \"--CODEGEN--\":97:103   */\n      dup4\n        /* \"--CODEGEN--\":88:122   */\n      codecopy\n        /* \"--CODEGEN--\":148:152   */\n      dup1\n        /* \"--CODEGEN--\":140:146   */\n      dup3\n        /* \"--CODEGEN--\":136:153   */\n      add\n        /* \"--CODEGEN--\":126:153   */\n      swap2\n      pop\n        /* \"--CODEGEN--\":0:157   */\n      pop\n        /* \"PRACTICA 6/evm_mejorado.sol\":335:357  new uint[](arr.length) */\n      swap1\n      pop\n    tag_16:\n      pop\n        /* \"PRACTICA 6/evm_mejorado.sol\":313:357  uint[] memory array = new uint[](arr.length) */\n      swap4\n      pop\n        /* \"PRACTICA 6/evm_mejorado.sol\":376:379  arr */\n      0x0\n        /* \"PRACTICA 6/evm_mejorado.sol\":368:379  array = arr */\n      dup1\n      sload\n      dup1\n      0x20\n      mul\n      0x20\n      add\n      mload(0x40)\n      swap1\n      dup2\n      add\n      0x40\n      mstore\n      dup1\n      swap3\n      swap2\n      swap1\n      dup2\n      dup2\n      mstore\n      0x20\n      add\n      dup3\n      dup1\n      sload\n      dup1\n      iszero\n      tag_17\n      jumpi\n      0x20\n      mul\n      dup3\n      add\n      swap2\n      swap1\n      0x0\n      mstore\n      keccak256(0x0, 0x20)\n      swap1\n    tag_18:\n      dup2\n      sload\n      dup2\n      mstore\n      0x20\n      add\n      swap1\n      0x1\n      add\n      swap1\n      dup1\n      dup4\n      gt\n      tag_18\n      jumpi\n    tag_17:\n      pop\n      pop\n      pop\n      pop\n      pop\n      swap4\n      pop\n        /* \"PRACTICA 6/evm_mejorado.sol\":405:406  0 */\n      0x0\n        /* \"PRACTICA 6/evm_mejorado.sol\":390:406  uint suma_acum=0 */\n      swap3\n      pop\n        /* \"PRACTICA 6/evm_mejorado.sol\":431:434  arr */\n      0x0\n        /* \"PRACTICA 6/evm_mejorado.sol\":431:441  arr.length */\n      dup1\n      sload\n      swap1\n      pop\n        /* \"PRACTICA 6/evm_mejorado.sol\":417:441  uint length = arr.length */\n      swap2\n      pop\n        /* \"PRACTICA 6/evm_mejorado.sol\":484:485  0 */\n      0x0\n        /* \"PRACTICA 6/evm_mejorado.sol\":475:485  uint i = 0 */\n      swap1\n      pop\n        /* \"PRACTICA 6/evm_mejorado.sol\":470:563  for (uint i = 0; i < length; i++) {\r... */\n    tag_19:\n        /* \"PRACTICA 6/evm_mejorado.sol\":491:497  length */\n      dup2\n        /* \"PRACTICA 6/evm_mejorado.sol\":487:488  i */\n      dup2\n        /* \"PRACTICA 6/evm_mejorado.sol\":487:497  i < length */\n      lt\n        /* \"PRACTICA 6/evm_mejorado.sol\":470:563  for (uint i = 0; i < length; i++) {\r... */\n      iszero\n      tag_20\n      jumpi\n        /* \"PRACTICA 6/evm_mejorado.sol\":543:548  array */\n      dup4\n        /* \"PRACTICA 6/evm_mejorado.sol\":549:550  i */\n      dup2\n        /* \"PRACTICA 6/evm_mejorado.sol\":543:551  array[i] */\n      dup2\n      mload\n      dup2\n      lt\n      iszero\n      iszero\n      tag_22\n      jumpi\n      invalid\n    tag_22:\n      swap1\n      0x20\n      add\n      swap1\n      0x20\n      mul\n      add\n      mload\n        /* \"PRACTICA 6/evm_mejorado.sol\":531:540  suma_acum */\n      dup4\n        /* \"PRACTICA 6/evm_mejorado.sol\":531:551  suma_acum + array[i] */\n      add\n        /* \"PRACTICA 6/evm_mejorado.sol\":519:551  suma_acum = suma_acum + array[i] */\n      swap3\n      pop\n        /* \"PRACTICA 6/evm_mejorado.sol\":499:502  i++ */\n      dup1\n      dup1\n      0x1\n      add\n      swap2\n      pop\n      pop\n        /* \"PRACTICA 6/evm_mejorado.sol\":470:563  for (uint i = 0; i < length; i++) {\r... */\n      jump(tag_19)\n    tag_20:\n        /* \"PRACTICA 6/evm_mejorado.sol\":583:592  suma_acum */\n      dup3\n        /* \"PRACTICA 6/evm_mejorado.sol\":577:580  sum */\n      0x1\n        /* \"PRACTICA 6/evm_mejorado.sol\":577:592  sum = suma_acum */\n      dup2\n      swap1\n      sstore\n      pop\n        /* \"PRACTICA 6/evm_mejorado.sol\":262:600  function computeSum() external {\r... */\n      pop\n      pop\n      pop\n      pop\n      jump\t// out\n\n    auxdata: 0xa165627a7a723058200ab15b4bcf3d0dfdf88243215b98d825e223ee18ea28677ff1ec47e387b7c0520029\n}\n",
				"bytecode": {
					"linkReferences": {},
					"object": "6080604052600060015534801561001557600080fd5b506101ed806100256000396000f30060806040526004361061004c576000357c0100000000000000000000000000000000000000000000000000000000900463ffffffff1680634a7dd52314610051578063c2a970d11461007e575b600080fd5b34801561005d57600080fd5b5061007c60048036038101908080359060200190929190505050610095565b005b34801561008a57600080fd5b506100936100e2565b005b60008090505b818110156100de5760008182029080600181540180825580915050906001820390600052602060002001600090919290919091505550808060010191505061009b565b5050565b60606000806000808054905060405190808252806020026020018201604052801561011c5781602001602082028038833980820191505090505b509350600080548060200260200160405190810160405280929190818152602001828054801561016b57602002820191906000526020600020905b815481526020019060010190808311610157575b50505050509350600092506000805490509150600090505b818110156101b457838181518110151561019957fe5b90602001906020020151830192508080600101915050610183565b82600181905550505050505600a165627a7a723058200ab15b4bcf3d0dfdf88243215b98d825e223ee18ea28677ff1ec47e387b7c0520029",
					"opcodes": "PUSH1 0x80 PUSH1 0x40 MSTORE PUSH1 0x0 PUSH1 0x1 SSTORE CALLVALUE DUP1 ISZERO PUSH2 0x15 JUMPI PUSH1 0x0 DUP1 REVERT JUMPDEST POP PUSH2 0x1ED DUP1 PUSH2 0x25 PUSH1 0x0 CODECOPY PUSH1 0x0 RETURN STOP PUSH1 0x80 PUSH1 0x40 MSTORE PUSH1 0x4 CALLDATASIZE LT PUSH2 0x4C JUMPI PUSH1 0x0 CALLDATALOAD PUSH29 0x100000000000000000000000000000000000000000000000000000000 SWAP1 DIV PUSH4 0xFFFFFFFF AND DUP1 PUSH4 0x4A7DD523 EQ PUSH2 0x51 JUMPI DUP1 PUSH4 0xC2A970D1 EQ PUSH2 0x7E JUMPI JUMPDEST PUSH1 0x0 DUP1 REVERT JUMPDEST CALLVALUE DUP1 ISZERO PUSH2 0x5D JUMPI PUSH1 0x0 DUP1 REVERT JUMPDEST POP PUSH2 0x7C PUSH1 0x4 DUP1 CALLDATASIZE SUB DUP2 ADD SWAP1 DUP1 DUP1 CALLDATALOAD SWAP1 PUSH1 0x20 ADD SWAP1 SWAP3 SWAP2 SWAP1 POP POP POP PUSH2 0x95 JUMP JUMPDEST STOP JUMPDEST CALLVALUE DUP1 ISZERO PUSH2 0x8A JUMPI PUSH1 0x0 DUP1 REVERT JUMPDEST POP PUSH2 0x93 PUSH2 0xE2 JUMP JUMPDEST STOP JUMPDEST PUSH1 0x0 DUP1 SWAP1 POP JUMPDEST DUP2 DUP2 LT ISZERO PUSH2 0xDE JUMPI PUSH1 0x0 DUP2 DUP3 MUL SWAP1 DUP1 PUSH1 0x1 DUP2 SLOAD ADD DUP1 DUP3 SSTORE DUP1 SWAP2 POP POP SWAP1 PUSH1 0x1 DUP3 SUB SWAP1 PUSH1 0x0 MSTORE PUSH1 0x20 PUSH1 0x0 KECCAK256 ADD PUSH1 0x0 SWAP1 SWAP2 SWAP3 SWAP1 SWAP2 SWAP1 SWAP2 POP SSTORE POP DUP1 DUP1 PUSH1 0x1 ADD SWAP2 POP POP PUSH2 0x9B JUMP JUMPDEST POP POP JUMP JUMPDEST PUSH1 0x60 PUSH1 0x0 DUP1 PUSH1 0x0 DUP1 DUP1 SLOAD SWAP1 POP PUSH1 0x40 MLOAD SWAP1 DUP1 DUP3 MSTORE DUP1 PUSH1 0x20 MUL PUSH1 0x20 ADD DUP3 ADD PUSH1 0x40 MSTORE DUP1 ISZERO PUSH2 0x11C JUMPI DUP2 PUSH1 0x20 ADD PUSH1 0x20 DUP3 MUL DUP1 CODESIZE DUP4 CODECOPY DUP1 DUP3 ADD SWAP2 POP POP SWAP1 POP JUMPDEST POP SWAP4 POP PUSH1 0x0 DUP1 SLOAD DUP1 PUSH1 0x20 MUL PUSH1 0x20 ADD PUSH1 0x40 MLOAD SWAP1 DUP2 ADD PUSH1 0x40 MSTORE DUP1 SWAP3 SWAP2 SWAP1 DUP2 DUP2 MSTORE PUSH1 0x20 ADD DUP3 DUP1 SLOAD DUP1 ISZERO PUSH2 0x16B JUMPI PUSH1 0x20 MUL DUP3 ADD SWAP2 SWAP1 PUSH1 0x0 MSTORE PUSH1 0x20 PUSH1 0x0 KECCAK256 SWAP1 JUMPDEST DUP2 SLOAD DUP2 MSTORE PUSH1 0x20 ADD SWAP1 PUSH1 0x1 ADD SWAP1 DUP1 DUP4 GT PUSH2 0x157 JUMPI JUMPDEST POP POP POP POP POP SWAP4 POP PUSH1 0x0 SWAP3 POP PUSH1 0x0 DUP1 SLOAD SWAP1 POP SWAP2 POP PUSH1 0x0 SWAP1 POP JUMPDEST DUP2 DUP2 LT ISZERO PUSH2 0x1B4 JUMPI DUP4 DUP2 DUP2 MLOAD DUP2 LT ISZERO ISZERO PUSH2 0x199 JUMPI INVALID JUMPDEST SWAP1 PUSH1 0x20 ADD SWAP1 PUSH1 0x20 MUL ADD MLOAD DUP4 ADD SWAP3 POP DUP1 DUP1 PUSH1 0x1 ADD SWAP2 POP POP PUSH2 0x183 JUMP JUMPDEST DUP3 PUSH1 0x1 DUP2 SWAP1 SSTORE POP POP POP POP POP JUMP STOP LOG1 PUSH6 0x627A7A723058 KECCAK256 EXP 0xb1 JUMPDEST 0x4b 0xcf RETURNDATASIZE 0xd REVERT 0xf8 DUP3 NUMBER 0x21 JUMPDEST SWAP9 0xd8 0x25 0xe2 0x23 0xee XOR 0xea 0x28 PUSH8 0x7FF1EC47E387B7C0 MSTORE STOP 0x29 "
				},
				"gasEstimates": {
					"creation": {
						"codeDepositCost": "98600",
						"executionCost": "5153",
						"totalCost": "103753"
					},
					"external": {
						"computeSum()": "infinite",
						"generate(uint256)": "infinite"
					}
				},
				"methodIdentifiers": {
					"computeSum()": "c2a970d1",
					"generate(uint256)": "4a7dd523"
				}
			},
			"userdoc": {
				"methods": {}
			}
		}
	}
}