{
	"practica3_1.sol": {
		"PiggyArray": {
			"abi": [
				{
					"inputs": [
						{
							"internalType": "string",
							"name": "name",
							"type": "string"
						}
					],
					"name": "addClient",
					"outputs": [],
					"stateMutability": "payable",
					"type": "function"
				},
				{
					"inputs": [],
					"name": "deposit",
					"outputs": [],
					"stateMutability": "payable",
					"type": "function"
				},
				{
					"inputs": [],
					"name": "getBalance",
					"outputs": [
						{
							"internalType": "uint256",
							"name": "",
							"type": "uint256"
						}
					],
					"stateMutability": "view",
					"type": "function"
				},
				{
					"inputs": [
						{
							"internalType": "uint256",
							"name": "amountInWei",
							"type": "uint256"
						}
					],
					"name": "withdraw",
					"outputs": [],
					"stateMutability": "nonpayable",
					"type": "function"
				}
			],
			"devdoc": {
				"kind": "dev",
				"methods": {},
				"version": 1
			},
			"evm": {
				"assembly": "    /* \"practica3_1.sol\":66:1895  contract PiggyArray{... */\n  mstore(0x40, 0x80)\n  callvalue\n  dup1\n  iszero\n  tag_1\n  jumpi\n  0x00\n  dup1\n  revert\ntag_1:\n  pop\n  dataSize(sub_0)\n  dup1\n  dataOffset(sub_0)\n  0x00\n  codecopy\n  0x00\n  return\nstop\n\nsub_0: assembly {\n        /* \"practica3_1.sol\":66:1895  contract PiggyArray{... */\n      mstore(0x40, 0x80)\n      jumpi(tag_1, lt(calldatasize, 0x04))\n      shr(0xe0, calldataload(0x00))\n      dup1\n      0x12065fe0\n      eq\n      tag_2\n      jumpi\n      dup1\n      0x2e1a7d4d\n      eq\n      tag_3\n      jumpi\n      dup1\n      0x79b7f303\n      eq\n      tag_4\n      jumpi\n      dup1\n      0xd0e30db0\n      eq\n      tag_5\n      jumpi\n    tag_1:\n      0x00\n      dup1\n      revert\n        /* \"practica3_1.sol\":1671:1888  function getBalance()external view returns (uint){... */\n    tag_2:\n      callvalue\n      dup1\n      iszero\n      tag_6\n      jumpi\n      0x00\n      dup1\n      revert\n    tag_6:\n      pop\n      tag_7\n      tag_8\n      jump\t// in\n    tag_7:\n      mload(0x40)\n      tag_9\n      swap2\n      swap1\n      tag_10\n      jump\t// in\n    tag_9:\n      mload(0x40)\n      dup1\n      swap2\n      sub\n      swap1\n      return\n        /* \"practica3_1.sol\":1217:1657  function withdraw(uint amountInWei)external{... */\n    tag_3:\n      callvalue\n      dup1\n      iszero\n      tag_11\n      jumpi\n      0x00\n      dup1\n      revert\n    tag_11:\n      pop\n      tag_12\n      0x04\n      dup1\n      calldatasize\n      sub\n      dup2\n      add\n      swap1\n      tag_13\n      swap2\n      swap1\n      tag_14\n      jump\t// in\n    tag_13:\n      tag_15\n      jump\t// in\n    tag_12:\n      stop\n        /* \"practica3_1.sol\":263:671  function addClient(string memory name)external payable{... */\n    tag_4:\n      tag_16\n      0x04\n      dup1\n      calldatasize\n      sub\n      dup2\n      add\n      swap1\n      tag_17\n      swap2\n      swap1\n      tag_18\n      jump\t// in\n    tag_17:\n      tag_19\n      jump\t// in\n    tag_16:\n      stop\n        /* \"practica3_1.sol\":681:904  function deposit() external payable {... */\n    tag_5:\n      tag_20\n      tag_21\n      jump\t// in\n    tag_20:\n      stop\n        /* \"practica3_1.sol\":1671:1888  function getBalance()external view returns (uint){... */\n    tag_8:\n        /* \"practica3_1.sol\":1715:1719  uint */\n      0x00\n        /* \"practica3_1.sol\":1731:1739  uint pos */\n      dup1\n        /* \"practica3_1.sol\":1742:1760  search(msg.sender) */\n      tag_23\n        /* \"practica3_1.sol\":1749:1759  msg.sender */\n      caller\n        /* \"practica3_1.sol\":1742:1748  search */\n      tag_24\n        /* \"practica3_1.sol\":1742:1760  search(msg.sender) */\n      jump\t// in\n    tag_23:\n        /* \"practica3_1.sol\":1731:1760  uint pos = search(msg.sender) */\n      swap1\n      pop\n        /* \"practica3_1.sol\":1789:1797  clientes */\n      0x00\n        /* \"practica3_1.sol\":1789:1804  clientes.length */\n      dup1\n      sload\n      swap1\n      pop\n        /* \"practica3_1.sol\":1783:1786  pos */\n      dup2\n        /* \"practica3_1.sol\":1783:1804  pos < clientes.length */\n      lt\n        /* \"practica3_1.sol\":1775:1840  require(pos < clientes.length, \"No se ha encontrado en el array\") */\n      tag_25\n      jumpi\n      mload(0x40)\n      0x08c379a000000000000000000000000000000000000000000000000000000000\n      dup2\n      mstore\n      0x04\n      add\n      tag_26\n      swap1\n      tag_27\n      jump\t// in\n    tag_26:\n      mload(0x40)\n      dup1\n      swap2\n      sub\n      swap1\n      revert\n    tag_25:\n        /* \"practica3_1.sol\":1858:1866  clientes */\n      0x00\n        /* \"practica3_1.sol\":1867:1870  pos */\n      dup2\n        /* \"practica3_1.sol\":1858:1871  clientes[pos] */\n      dup2\n      sload\n      dup2\n      lt\n      tag_28\n      jumpi\n      tag_29\n      tag_30\n      jump\t// in\n    tag_29:\n    tag_28:\n      swap1\n      0x00\n      mstore\n      keccak256(0x00, 0x20)\n      swap1\n      0x03\n      mul\n      add\n        /* \"practica3_1.sol\":1858:1880  clientes[pos].cantidad */\n      0x02\n      add\n      sload\n        /* \"practica3_1.sol\":1851:1880  return clientes[pos].cantidad */\n      swap2\n      pop\n      pop\n        /* \"practica3_1.sol\":1671:1888  function getBalance()external view returns (uint){... */\n      swap1\n      jump\t// out\n        /* \"practica3_1.sol\":1217:1657  function withdraw(uint amountInWei)external{... */\n    tag_15:\n        /* \"practica3_1.sol\":1275:1283  uint pos */\n      0x00\n        /* \"practica3_1.sol\":1286:1304  search(msg.sender) */\n      tag_33\n        /* \"practica3_1.sol\":1293:1303  msg.sender */\n      caller\n        /* \"practica3_1.sol\":1286:1292  search */\n      tag_24\n        /* \"practica3_1.sol\":1286:1304  search(msg.sender) */\n      jump\t// in\n    tag_33:\n        /* \"practica3_1.sol\":1275:1304  uint pos = search(msg.sender) */\n      swap1\n      pop\n        /* \"practica3_1.sol\":1333:1341  clientes */\n      0x00\n        /* \"practica3_1.sol\":1333:1348  clientes.length */\n      dup1\n      sload\n      swap1\n      pop\n        /* \"practica3_1.sol\":1327:1330  pos */\n      dup2\n        /* \"practica3_1.sol\":1327:1348  pos < clientes.length */\n      lt\n        /* \"practica3_1.sol\":1319:1384  require(pos < clientes.length, \"No se ha encontrado en el array\") */\n      tag_34\n      jumpi\n      mload(0x40)\n      0x08c379a000000000000000000000000000000000000000000000000000000000\n      dup2\n      mstore\n      0x04\n      add\n      tag_35\n      swap1\n      tag_27\n      jump\t// in\n    tag_35:\n      mload(0x40)\n      dup1\n      swap2\n      sub\n      swap1\n      revert\n    tag_34:\n        /* \"practica3_1.sol\":1429:1440  amountInWei */\n      dup2\n        /* \"practica3_1.sol\":1403:1411  clientes */\n      0x00\n        /* \"practica3_1.sol\":1412:1415  pos */\n      dup3\n        /* \"practica3_1.sol\":1403:1416  clientes[pos] */\n      dup2\n      sload\n      dup2\n      lt\n      tag_36\n      jumpi\n      tag_37\n      tag_30\n      jump\t// in\n    tag_37:\n    tag_36:\n      swap1\n      0x00\n      mstore\n      keccak256(0x00, 0x20)\n      swap1\n      0x03\n      mul\n      add\n        /* \"practica3_1.sol\":1403:1425  clientes[pos].cantidad */\n      0x02\n      add\n      sload\n        /* \"practica3_1.sol\":1403:1440  clientes[pos].cantidad >= amountInWei */\n      lt\n      iszero\n        /* \"practica3_1.sol\":1395:1468  require(clientes[pos].cantidad >= amountInWei, \"No hay suficiente saldo\") */\n      tag_39\n      jumpi\n      mload(0x40)\n      0x08c379a000000000000000000000000000000000000000000000000000000000\n      dup2\n      mstore\n      0x04\n      add\n      tag_40\n      swap1\n      tag_41\n      jump\t// in\n    tag_40:\n      mload(0x40)\n      dup1\n      swap2\n      sub\n      swap1\n      revert\n    tag_39:\n        /* \"practica3_1.sol\":1573:1584  amountInWei */\n      dup2\n        /* \"practica3_1.sol\":1547:1555  clientes */\n      0x00\n        /* \"practica3_1.sol\":1556:1559  pos */\n      dup3\n        /* \"practica3_1.sol\":1547:1560  clientes[pos] */\n      dup2\n      sload\n      dup2\n      lt\n      tag_42\n      jumpi\n      tag_43\n      tag_30\n      jump\t// in\n    tag_43:\n    tag_42:\n      swap1\n      0x00\n      mstore\n      keccak256(0x00, 0x20)\n      swap1\n      0x03\n      mul\n      add\n        /* \"practica3_1.sol\":1547:1569  clientes[pos].cantidad */\n      0x02\n      add\n      0x00\n        /* \"practica3_1.sol\":1547:1584  clientes[pos].cantidad -= amountInWei */\n      dup3\n      dup3\n      sload\n      tag_45\n      swap2\n      swap1\n      tag_46\n      jump\t// in\n    tag_45:\n      swap3\n      pop\n      pop\n      dup2\n      swap1\n      sstore\n      pop\n        /* \"practica3_1.sol\":1603:1611  clientes */\n      0x00\n        /* \"practica3_1.sol\":1612:1615  pos */\n      dup2\n        /* \"practica3_1.sol\":1603:1616  clientes[pos] */\n      dup2\n      sload\n      dup2\n      lt\n      tag_47\n      jumpi\n      tag_48\n      tag_30\n      jump\t// in\n    tag_48:\n    tag_47:\n      swap1\n      0x00\n      mstore\n      keccak256(0x00, 0x20)\n      swap1\n      0x03\n      mul\n      add\n        /* \"practica3_1.sol\":1603:1626  clientes[pos].direccion */\n      0x01\n      add\n      0x00\n      swap1\n      sload\n      swap1\n      0x0100\n      exp\n      swap1\n      div\n      0xffffffffffffffffffffffffffffffffffffffff\n      and\n        /* \"practica3_1.sol\":1595:1636  payable(clientes[pos].direccion).transfer */\n      0xffffffffffffffffffffffffffffffffffffffff\n      and\n        /* \"practica3_1.sol\":1595:1649  payable(clientes[pos].direccion).transfer(amountInWei) */\n      0x08fc\n        /* \"practica3_1.sol\":1637:1648  amountInWei */\n      dup4\n        /* \"practica3_1.sol\":1595:1649  payable(clientes[pos].direccion).transfer(amountInWei) */\n      swap1\n      dup2\n      iszero\n      mul\n      swap1\n      mload(0x40)\n      0x00\n      mload(0x40)\n      dup1\n      dup4\n      sub\n      dup2\n      dup6\n      dup9\n      dup9\n      call\n      swap4\n      pop\n      pop\n      pop\n      pop\n      iszero\n      dup1\n      iszero\n      tag_51\n      jumpi\n      returndatasize\n      0x00\n      dup1\n      returndatacopy\n      revert(0x00, returndatasize)\n    tag_51:\n      pop\n        /* \"practica3_1.sol\":1260:1657  {... */\n      pop\n        /* \"practica3_1.sol\":1217:1657  function withdraw(uint amountInWei)external{... */\n      pop\n      jump\t// out\n        /* \"practica3_1.sol\":263:671  function addClient(string memory name)external payable{... */\n    tag_19:\n        /* \"practica3_1.sol\":337:353  Cliente memory c */\n      0x00\n        /* \"practica3_1.sol\":357:392  Cliente(name, msg.sender,msg.value) */\n      mload(0x40)\n      dup1\n      0x60\n      add\n      0x40\n      mstore\n      dup1\n        /* \"practica3_1.sol\":365:369  name */\n      dup4\n        /* \"practica3_1.sol\":357:392  Cliente(name, msg.sender,msg.value) */\n      dup2\n      mstore\n      0x20\n      add\n        /* \"practica3_1.sol\":371:381  msg.sender */\n      caller\n        /* \"practica3_1.sol\":357:392  Cliente(name, msg.sender,msg.value) */\n      0xffffffffffffffffffffffffffffffffffffffff\n      and\n      dup2\n      mstore\n      0x20\n      add\n        /* \"practica3_1.sol\":382:391  msg.value */\n      callvalue\n        /* \"practica3_1.sol\":357:392  Cliente(name, msg.sender,msg.value) */\n      dup2\n      mstore\n      pop\n        /* \"practica3_1.sol\":337:392  Cliente memory c =  Cliente(name, msg.sender,msg.value) */\n      swap1\n      pop\n        /* \"practica3_1.sol\":407:415  uint len */\n      0x00\n        /* \"practica3_1.sol\":424:428  name */\n      dup3\n        /* \"practica3_1.sol\":418:436  bytes(name).length */\n      mload\n        /* \"practica3_1.sol\":407:436  uint len = bytes(name).length */\n      swap1\n      pop\n        /* \"practica3_1.sol\":460:461  0 */\n      0x00\n        /* \"practica3_1.sol\":455:458  len */\n      dup2\n        /* \"practica3_1.sol\":455:461  len >0 */\n      gt\n        /* \"practica3_1.sol\":447:507  require(len >0 , \"La cadena debe ser un numero mayor que 0\") */\n      tag_53\n      jumpi\n      mload(0x40)\n      0x08c379a000000000000000000000000000000000000000000000000000000000\n      dup2\n      mstore\n      0x04\n      add\n      tag_54\n      swap1\n      tag_55\n      jump\t// in\n    tag_54:\n      mload(0x40)\n      dup1\n      swap2\n      sub\n      swap1\n      revert\n    tag_53:\n        /* \"practica3_1.sol\":522:530  uint pos */\n      0x00\n        /* \"practica3_1.sol\":533:551  search(msg.sender) */\n      tag_56\n        /* \"practica3_1.sol\":540:550  msg.sender */\n      caller\n        /* \"practica3_1.sol\":533:539  search */\n      tag_24\n        /* \"practica3_1.sol\":533:551  search(msg.sender) */\n      jump\t// in\n    tag_56:\n        /* \"practica3_1.sol\":522:551  uint pos = search(msg.sender) */\n      swap1\n      pop\n        /* \"practica3_1.sol\":577:585  clientes */\n      0x00\n        /* \"practica3_1.sol\":577:592  clientes.length */\n      dup1\n      sload\n      swap1\n      pop\n        /* \"practica3_1.sol\":570:573  pos */\n      dup2\n        /* \"practica3_1.sol\":570:592  pos == clientes.length */\n      eq\n        /* \"practica3_1.sol\":562:628  require(pos == clientes.length, \"No se ha encontrado en el array\") */\n      tag_57\n      jumpi\n      mload(0x40)\n      0x08c379a000000000000000000000000000000000000000000000000000000000\n      dup2\n      mstore\n      0x04\n      add\n      tag_58\n      swap1\n      tag_27\n      jump\t// in\n    tag_58:\n      mload(0x40)\n      dup1\n      swap2\n      sub\n      swap1\n      revert\n    tag_57:\n        /* \"practica3_1.sol\":647:655  clientes */\n      0x00\n        /* \"practica3_1.sol\":661:662  c */\n      dup4\n        /* \"practica3_1.sol\":647:663  clientes.push(c) */\n      swap1\n      dup1\n      0x01\n      dup2\n      sload\n      add\n      dup1\n      dup3\n      sstore\n      dup1\n      swap2\n      pop\n      pop\n      0x01\n      swap1\n      sub\n      swap1\n      0x00\n      mstore\n      keccak256(0x00, 0x20)\n      swap1\n      0x03\n      mul\n      add\n      0x00\n      swap1\n      swap2\n      swap1\n      swap2\n      swap1\n      swap2\n      pop\n      0x00\n      dup3\n      add\n      mload\n      dup2\n      0x00\n      add\n      swap1\n      dup2\n      tag_60\n      swap2\n      swap1\n      tag_61\n      jump\t// in\n    tag_60:\n      pop\n      0x20\n      dup3\n      add\n      mload\n      dup2\n      0x01\n      add\n      exp(0x0100, 0x00)\n      dup2\n      sload\n      dup2\n      0xffffffffffffffffffffffffffffffffffffffff\n      mul\n      not\n      and\n      swap1\n      dup4\n      0xffffffffffffffffffffffffffffffffffffffff\n      and\n      mul\n      or\n      swap1\n      sstore\n      pop\n      0x40\n      dup3\n      add\n      mload\n      dup2\n      0x02\n      add\n      sstore\n      pop\n      pop\n        /* \"practica3_1.sol\":317:671  {... */\n      pop\n      pop\n      pop\n        /* \"practica3_1.sol\":263:671  function addClient(string memory name)external payable{... */\n      pop\n      jump\t// out\n        /* \"practica3_1.sol\":681:904  function deposit() external payable {... */\n    tag_21:\n        /* \"practica3_1.sol\":737:745  uint pos */\n      0x00\n        /* \"practica3_1.sol\":748:766  search(msg.sender) */\n      tag_63\n        /* \"practica3_1.sol\":755:765  msg.sender */\n      caller\n        /* \"practica3_1.sol\":748:754  search */\n      tag_24\n        /* \"practica3_1.sol\":748:766  search(msg.sender) */\n      jump\t// in\n    tag_63:\n        /* \"practica3_1.sol\":737:766  uint pos = search(msg.sender) */\n      swap1\n      pop\n        /* \"practica3_1.sol\":795:803  clientes */\n      0x00\n        /* \"practica3_1.sol\":795:810  clientes.length */\n      dup1\n      sload\n      swap1\n      pop\n        /* \"practica3_1.sol\":789:792  pos */\n      dup2\n        /* \"practica3_1.sol\":789:810  pos < clientes.length */\n      lt\n        /* \"practica3_1.sol\":781:846  require(pos < clientes.length, \"No se ha encontrado en el array\") */\n      tag_64\n      jumpi\n      mload(0x40)\n      0x08c379a000000000000000000000000000000000000000000000000000000000\n      dup2\n      mstore\n      0x04\n      add\n      tag_65\n      swap1\n      tag_27\n      jump\t// in\n    tag_65:\n      mload(0x40)\n      dup1\n      swap2\n      sub\n      swap1\n      revert\n    tag_64:\n        /* \"practica3_1.sol\":887:896  msg.value */\n      callvalue\n        /* \"practica3_1.sol\":861:869  clientes */\n      0x00\n        /* \"practica3_1.sol\":870:873  pos */\n      dup3\n        /* \"practica3_1.sol\":861:874  clientes[pos] */\n      dup2\n      sload\n      dup2\n      lt\n      tag_66\n      jumpi\n      tag_67\n      tag_30\n      jump\t// in\n    tag_67:\n    tag_66:\n      swap1\n      0x00\n      mstore\n      keccak256(0x00, 0x20)\n      swap1\n      0x03\n      mul\n      add\n        /* \"practica3_1.sol\":861:883  clientes[pos].cantidad */\n      0x02\n      add\n      0x00\n        /* \"practica3_1.sol\":861:896  clientes[pos].cantidad += msg.value */\n      dup3\n      dup3\n      sload\n      tag_69\n      swap2\n      swap1\n      tag_70\n      jump\t// in\n    tag_69:\n      swap3\n      pop\n      pop\n      dup2\n      swap1\n      sstore\n      pop\n        /* \"practica3_1.sol\":717:904  {... */\n      pop\n        /* \"practica3_1.sol\":681:904  function deposit() external payable {... */\n      jump\t// out\n        /* \"practica3_1.sol\":914:1203  function search(address sender) view internal returns (uint){... */\n    tag_24:\n        /* \"practica3_1.sol\":969:973  uint */\n      0x00\n        /* \"practica3_1.sol\":989:997  uint pos */\n      dup1\n        /* \"practica3_1.sol\":1000:1008  clientes */\n      0x00\n        /* \"practica3_1.sol\":1000:1015  clientes.length */\n      dup1\n      sload\n      swap1\n      pop\n        /* \"practica3_1.sol\":989:1015  uint pos = clientes.length */\n      swap1\n      pop\n        /* \"practica3_1.sol\":1034:1040  uint i */\n      0x00\n        /* \"practica3_1.sol\":1030:1171  for(uint i=0; i< clientes.length; i++){... */\n    tag_72:\n        /* \"practica3_1.sol\":1047:1055  clientes */\n      0x00\n        /* \"practica3_1.sol\":1047:1062  clientes.length */\n      dup1\n      sload\n      swap1\n      pop\n        /* \"practica3_1.sol\":1044:1045  i */\n      dup2\n        /* \"practica3_1.sol\":1044:1062  i< clientes.length */\n      lt\n        /* \"practica3_1.sol\":1030:1171  for(uint i=0; i< clientes.length; i++){... */\n      iszero\n      tag_73\n      jumpi\n        /* \"practica3_1.sol\":1096:1104  clientes */\n      0x00\n        /* \"practica3_1.sol\":1105:1106  i */\n      dup2\n        /* \"practica3_1.sol\":1096:1107  clientes[i] */\n      dup2\n      sload\n      dup2\n      lt\n      tag_75\n      jumpi\n      tag_76\n      tag_30\n      jump\t// in\n    tag_76:\n    tag_75:\n      swap1\n      0x00\n      mstore\n      keccak256(0x00, 0x20)\n      swap1\n      0x03\n      mul\n      add\n        /* \"practica3_1.sol\":1096:1117  clientes[i].direccion */\n      0x01\n      add\n      0x00\n      swap1\n      sload\n      swap1\n      0x0100\n      exp\n      swap1\n      div\n      0xffffffffffffffffffffffffffffffffffffffff\n      and\n        /* \"practica3_1.sol\":1086:1117  sender == clientes[i].direccion */\n      0xffffffffffffffffffffffffffffffffffffffff\n      and\n        /* \"practica3_1.sol\":1086:1092  sender */\n      dup5\n        /* \"practica3_1.sol\":1086:1117  sender == clientes[i].direccion */\n      0xffffffffffffffffffffffffffffffffffffffff\n      and\n      sub\n        /* \"practica3_1.sol\":1083:1160  if(sender == clientes[i].direccion){... */\n      tag_78\n      jumpi\n        /* \"practica3_1.sol\":1143:1144  i */\n      dup1\n        /* \"practica3_1.sol\":1137:1144  pos = i */\n      swap2\n      pop\n        /* \"practica3_1.sol\":1083:1160  if(sender == clientes[i].direccion){... */\n    tag_78:\n        /* \"practica3_1.sol\":1064:1067  i++ */\n      dup1\n      dup1\n      0x01\n      add\n      swap2\n      pop\n      pop\n        /* \"practica3_1.sol\":1030:1171  for(uint i=0; i< clientes.length; i++){... */\n      jump(tag_72)\n    tag_73:\n      pop\n        /* \"practica3_1.sol\":1192:1195  pos */\n      dup1\n        /* \"practica3_1.sol\":1185:1195  return pos */\n      swap2\n      pop\n      pop\n        /* \"practica3_1.sol\":914:1203  function search(address sender) view internal returns (uint){... */\n      swap2\n      swap1\n      pop\n      jump\t// out\n        /* \"#utility.yul\":7:84   */\n    tag_79:\n        /* \"#utility.yul\":44:51   */\n      0x00\n        /* \"#utility.yul\":73:78   */\n      dup2\n        /* \"#utility.yul\":62:78   */\n      swap1\n      pop\n        /* \"#utility.yul\":7:84   */\n      swap2\n      swap1\n      pop\n      jump\t// out\n        /* \"#utility.yul\":90:208   */\n    tag_80:\n        /* \"#utility.yul\":177:201   */\n      tag_125\n        /* \"#utility.yul\":195:200   */\n      dup2\n        /* \"#utility.yul\":177:201   */\n      tag_79\n      jump\t// in\n    tag_125:\n        /* \"#utility.yul\":172:175   */\n      dup3\n        /* \"#utility.yul\":165:202   */\n      mstore\n        /* \"#utility.yul\":90:208   */\n      pop\n      pop\n      jump\t// out\n        /* \"#utility.yul\":214:436   */\n    tag_10:\n        /* \"#utility.yul\":307:311   */\n      0x00\n        /* \"#utility.yul\":345:347   */\n      0x20\n        /* \"#utility.yul\":334:343   */\n      dup3\n        /* \"#utility.yul\":330:348   */\n      add\n        /* \"#utility.yul\":322:348   */\n      swap1\n      pop\n        /* \"#utility.yul\":358:429   */\n      tag_127\n        /* \"#utility.yul\":426:427   */\n      0x00\n        /* \"#utility.yul\":415:424   */\n      dup4\n        /* \"#utility.yul\":411:428   */\n      add\n        /* \"#utility.yul\":402:408   */\n      dup5\n        /* \"#utility.yul\":358:429   */\n      tag_80\n      jump\t// in\n    tag_127:\n        /* \"#utility.yul\":214:436   */\n      swap3\n      swap2\n      pop\n      pop\n      jump\t// out\n        /* \"#utility.yul\":442:517   */\n    tag_81:\n        /* \"#utility.yul\":475:481   */\n      0x00\n        /* \"#utility.yul\":508:510   */\n      0x40\n        /* \"#utility.yul\":502:511   */\n      mload\n        /* \"#utility.yul\":492:511   */\n      swap1\n      pop\n        /* \"#utility.yul\":442:517   */\n      swap1\n      jump\t// out\n        /* \"#utility.yul\":523:640   */\n    tag_82:\n        /* \"#utility.yul\":632:633   */\n      0x00\n        /* \"#utility.yul\":629:630   */\n      dup1\n        /* \"#utility.yul\":622:634   */\n      revert\n        /* \"#utility.yul\":646:763   */\n    tag_83:\n        /* \"#utility.yul\":755:756   */\n      0x00\n        /* \"#utility.yul\":752:753   */\n      dup1\n        /* \"#utility.yul\":745:757   */\n      revert\n        /* \"#utility.yul\":769:891   */\n    tag_84:\n        /* \"#utility.yul\":842:866   */\n      tag_132\n        /* \"#utility.yul\":860:865   */\n      dup2\n        /* \"#utility.yul\":842:866   */\n      tag_79\n      jump\t// in\n    tag_132:\n        /* \"#utility.yul\":835:840   */\n      dup2\n        /* \"#utility.yul\":832:867   */\n      eq\n        /* \"#utility.yul\":822:885   */\n      tag_133\n      jumpi\n        /* \"#utility.yul\":881:882   */\n      0x00\n        /* \"#utility.yul\":878:879   */\n      dup1\n        /* \"#utility.yul\":871:883   */\n      revert\n        /* \"#utility.yul\":822:885   */\n    tag_133:\n        /* \"#utility.yul\":769:891   */\n      pop\n      jump\t// out\n        /* \"#utility.yul\":897:1036   */\n    tag_85:\n        /* \"#utility.yul\":943:948   */\n      0x00\n        /* \"#utility.yul\":981:987   */\n      dup2\n        /* \"#utility.yul\":968:988   */\n      calldataload\n        /* \"#utility.yul\":959:988   */\n      swap1\n      pop\n        /* \"#utility.yul\":997:1030   */\n      tag_135\n        /* \"#utility.yul\":1024:1029   */\n      dup2\n        /* \"#utility.yul\":997:1030   */\n      tag_84\n      jump\t// in\n    tag_135:\n        /* \"#utility.yul\":897:1036   */\n      swap3\n      swap2\n      pop\n      pop\n      jump\t// out\n        /* \"#utility.yul\":1042:1371   */\n    tag_14:\n        /* \"#utility.yul\":1101:1107   */\n      0x00\n        /* \"#utility.yul\":1150:1152   */\n      0x20\n        /* \"#utility.yul\":1138:1147   */\n      dup3\n        /* \"#utility.yul\":1129:1136   */\n      dup5\n        /* \"#utility.yul\":1125:1148   */\n      sub\n        /* \"#utility.yul\":1121:1153   */\n      slt\n        /* \"#utility.yul\":1118:1237   */\n      iszero\n      tag_137\n      jumpi\n        /* \"#utility.yul\":1156:1235   */\n      tag_138\n      tag_82\n      jump\t// in\n    tag_138:\n        /* \"#utility.yul\":1118:1237   */\n    tag_137:\n        /* \"#utility.yul\":1276:1277   */\n      0x00\n        /* \"#utility.yul\":1301:1354   */\n      tag_139\n        /* \"#utility.yul\":1346:1353   */\n      dup5\n        /* \"#utility.yul\":1337:1343   */\n      dup3\n        /* \"#utility.yul\":1326:1335   */\n      dup6\n        /* \"#utility.yul\":1322:1344   */\n      add\n        /* \"#utility.yul\":1301:1354   */\n      tag_85\n      jump\t// in\n    tag_139:\n        /* \"#utility.yul\":1291:1354   */\n      swap2\n      pop\n        /* \"#utility.yul\":1247:1364   */\n      pop\n        /* \"#utility.yul\":1042:1371   */\n      swap3\n      swap2\n      pop\n      pop\n      jump\t// out\n        /* \"#utility.yul\":1377:1494   */\n    tag_86:\n        /* \"#utility.yul\":1486:1487   */\n      0x00\n        /* \"#utility.yul\":1483:1484   */\n      dup1\n        /* \"#utility.yul\":1476:1488   */\n      revert\n        /* \"#utility.yul\":1500:1617   */\n    tag_87:\n        /* \"#utility.yul\":1609:1610   */\n      0x00\n        /* \"#utility.yul\":1606:1607   */\n      dup1\n        /* \"#utility.yul\":1599:1611   */\n      revert\n        /* \"#utility.yul\":1623:1725   */\n    tag_88:\n        /* \"#utility.yul\":1664:1670   */\n      0x00\n        /* \"#utility.yul\":1715:1717   */\n      0x1f\n        /* \"#utility.yul\":1711:1718   */\n      not\n        /* \"#utility.yul\":1706:1708   */\n      0x1f\n        /* \"#utility.yul\":1699:1704   */\n      dup4\n        /* \"#utility.yul\":1695:1709   */\n      add\n        /* \"#utility.yul\":1691:1719   */\n      and\n        /* \"#utility.yul\":1681:1719   */\n      swap1\n      pop\n        /* \"#utility.yul\":1623:1725   */\n      swap2\n      swap1\n      pop\n      jump\t// out\n        /* \"#utility.yul\":1731:1911   */\n    tag_89:\n        /* \"#utility.yul\":1779:1856   */\n      0x4e487b7100000000000000000000000000000000000000000000000000000000\n        /* \"#utility.yul\":1776:1777   */\n      0x00\n        /* \"#utility.yul\":1769:1857   */\n      mstore\n        /* \"#utility.yul\":1876:1880   */\n      0x41\n        /* \"#utility.yul\":1873:1874   */\n      0x04\n        /* \"#utility.yul\":1866:1881   */\n      mstore\n        /* \"#utility.yul\":1900:1904   */\n      0x24\n        /* \"#utility.yul\":1897:1898   */\n      0x00\n        /* \"#utility.yul\":1890:1905   */\n      revert\n        /* \"#utility.yul\":1917:2198   */\n    tag_90:\n        /* \"#utility.yul\":2000:2027   */\n      tag_145\n        /* \"#utility.yul\":2022:2026   */\n      dup3\n        /* \"#utility.yul\":2000:2027   */\n      tag_88\n      jump\t// in\n    tag_145:\n        /* \"#utility.yul\":1992:1998   */\n      dup2\n        /* \"#utility.yul\":1988:2028   */\n      add\n        /* \"#utility.yul\":2130:2136   */\n      dup2\n        /* \"#utility.yul\":2118:2128   */\n      dup2\n        /* \"#utility.yul\":2115:2137   */\n      lt\n        /* \"#utility.yul\":2094:2112   */\n      0xffffffffffffffff\n        /* \"#utility.yul\":2082:2092   */\n      dup3\n        /* \"#utility.yul\":2079:2113   */\n      gt\n        /* \"#utility.yul\":2076:2138   */\n      or\n        /* \"#utility.yul\":2073:2161   */\n      iszero\n      tag_146\n      jumpi\n        /* \"#utility.yul\":2141:2159   */\n      tag_147\n      tag_89\n      jump\t// in\n    tag_147:\n        /* \"#utility.yul\":2073:2161   */\n    tag_146:\n        /* \"#utility.yul\":2181:2191   */\n      dup1\n        /* \"#utility.yul\":2177:2179   */\n      0x40\n        /* \"#utility.yul\":2170:2192   */\n      mstore\n        /* \"#utility.yul\":1960:2198   */\n      pop\n        /* \"#utility.yul\":1917:2198   */\n      pop\n      pop\n      jump\t// out\n        /* \"#utility.yul\":2204:2333   */\n    tag_91:\n        /* \"#utility.yul\":2238:2244   */\n      0x00\n        /* \"#utility.yul\":2265:2285   */\n      tag_149\n      tag_81\n      jump\t// in\n    tag_149:\n        /* \"#utility.yul\":2255:2285   */\n      swap1\n      pop\n        /* \"#utility.yul\":2294:2327   */\n      tag_150\n        /* \"#utility.yul\":2322:2326   */\n      dup3\n        /* \"#utility.yul\":2314:2320   */\n      dup3\n        /* \"#utility.yul\":2294:2327   */\n      tag_90\n      jump\t// in\n    tag_150:\n        /* \"#utility.yul\":2204:2333   */\n      swap2\n      swap1\n      pop\n      jump\t// out\n        /* \"#utility.yul\":2339:2647   */\n    tag_92:\n        /* \"#utility.yul\":2401:2405   */\n      0x00\n        /* \"#utility.yul\":2491:2509   */\n      0xffffffffffffffff\n        /* \"#utility.yul\":2483:2489   */\n      dup3\n        /* \"#utility.yul\":2480:2510   */\n      gt\n        /* \"#utility.yul\":2477:2533   */\n      iszero\n      tag_152\n      jumpi\n        /* \"#utility.yul\":2513:2531   */\n      tag_153\n      tag_89\n      jump\t// in\n    tag_153:\n        /* \"#utility.yul\":2477:2533   */\n    tag_152:\n        /* \"#utility.yul\":2551:2580   */\n      tag_154\n        /* \"#utility.yul\":2573:2579   */\n      dup3\n        /* \"#utility.yul\":2551:2580   */\n      tag_88\n      jump\t// in\n    tag_154:\n        /* \"#utility.yul\":2543:2580   */\n      swap1\n      pop\n        /* \"#utility.yul\":2635:2639   */\n      0x20\n        /* \"#utility.yul\":2629:2633   */\n      dup2\n        /* \"#utility.yul\":2625:2640   */\n      add\n        /* \"#utility.yul\":2617:2640   */\n      swap1\n      pop\n        /* \"#utility.yul\":2339:2647   */\n      swap2\n      swap1\n      pop\n      jump\t// out\n        /* \"#utility.yul\":2653:2801   */\n    tag_93:\n        /* \"#utility.yul\":2751:2757   */\n      dup3\n        /* \"#utility.yul\":2746:2749   */\n      dup2\n        /* \"#utility.yul\":2741:2744   */\n      dup4\n        /* \"#utility.yul\":2728:2758   */\n      calldatacopy\n        /* \"#utility.yul\":2792:2793   */\n      0x00\n        /* \"#utility.yul\":2783:2789   */\n      dup4\n        /* \"#utility.yul\":2778:2781   */\n      dup4\n        /* \"#utility.yul\":2774:2790   */\n      add\n        /* \"#utility.yul\":2767:2794   */\n      mstore\n        /* \"#utility.yul\":2653:2801   */\n      pop\n      pop\n      pop\n      jump\t// out\n        /* \"#utility.yul\":2807:3232   */\n    tag_94:\n        /* \"#utility.yul\":2885:2890   */\n      0x00\n        /* \"#utility.yul\":2910:2976   */\n      tag_157\n        /* \"#utility.yul\":2926:2975   */\n      tag_158\n        /* \"#utility.yul\":2968:2974   */\n      dup5\n        /* \"#utility.yul\":2926:2975   */\n      tag_92\n      jump\t// in\n    tag_158:\n        /* \"#utility.yul\":2910:2976   */\n      tag_91\n      jump\t// in\n    tag_157:\n        /* \"#utility.yul\":2901:2976   */\n      swap1\n      pop\n        /* \"#utility.yul\":2999:3005   */\n      dup3\n        /* \"#utility.yul\":2992:2997   */\n      dup2\n        /* \"#utility.yul\":2985:3006   */\n      mstore\n        /* \"#utility.yul\":3037:3041   */\n      0x20\n        /* \"#utility.yul\":3030:3035   */\n      dup2\n        /* \"#utility.yul\":3026:3042   */\n      add\n        /* \"#utility.yul\":3075:3078   */\n      dup5\n        /* \"#utility.yul\":3066:3072   */\n      dup5\n        /* \"#utility.yul\":3061:3064   */\n      dup5\n        /* \"#utility.yul\":3057:3073   */\n      add\n        /* \"#utility.yul\":3054:3079   */\n      gt\n        /* \"#utility.yul\":3051:3163   */\n      iszero\n      tag_159\n      jumpi\n        /* \"#utility.yul\":3082:3161   */\n      tag_160\n      tag_87\n      jump\t// in\n    tag_160:\n        /* \"#utility.yul\":3051:3163   */\n    tag_159:\n        /* \"#utility.yul\":3172:3226   */\n      tag_161\n        /* \"#utility.yul\":3219:3225   */\n      dup5\n        /* \"#utility.yul\":3214:3217   */\n      dup3\n        /* \"#utility.yul\":3209:3212   */\n      dup6\n        /* \"#utility.yul\":3172:3226   */\n      tag_93\n      jump\t// in\n    tag_161:\n        /* \"#utility.yul\":2891:3232   */\n      pop\n        /* \"#utility.yul\":2807:3232   */\n      swap4\n      swap3\n      pop\n      pop\n      pop\n      jump\t// out\n        /* \"#utility.yul\":3252:3592   */\n    tag_95:\n        /* \"#utility.yul\":3308:3313   */\n      0x00\n        /* \"#utility.yul\":3357:3360   */\n      dup3\n        /* \"#utility.yul\":3350:3354   */\n      0x1f\n        /* \"#utility.yul\":3342:3348   */\n      dup4\n        /* \"#utility.yul\":3338:3355   */\n      add\n        /* \"#utility.yul\":3334:3361   */\n      slt\n        /* \"#utility.yul\":3324:3446   */\n      tag_163\n      jumpi\n        /* \"#utility.yul\":3365:3444   */\n      tag_164\n      tag_86\n      jump\t// in\n    tag_164:\n        /* \"#utility.yul\":3324:3446   */\n    tag_163:\n        /* \"#utility.yul\":3482:3488   */\n      dup2\n        /* \"#utility.yul\":3469:3489   */\n      calldataload\n        /* \"#utility.yul\":3507:3586   */\n      tag_165\n        /* \"#utility.yul\":3582:3585   */\n      dup5\n        /* \"#utility.yul\":3574:3580   */\n      dup3\n        /* \"#utility.yul\":3567:3571   */\n      0x20\n        /* \"#utility.yul\":3559:3565   */\n      dup7\n        /* \"#utility.yul\":3555:3572   */\n      add\n        /* \"#utility.yul\":3507:3586   */\n      tag_94\n      jump\t// in\n    tag_165:\n        /* \"#utility.yul\":3498:3586   */\n      swap2\n      pop\n        /* \"#utility.yul\":3314:3592   */\n      pop\n        /* \"#utility.yul\":3252:3592   */\n      swap3\n      swap2\n      pop\n      pop\n      jump\t// out\n        /* \"#utility.yul\":3598:4107   */\n    tag_18:\n        /* \"#utility.yul\":3667:3673   */\n      0x00\n        /* \"#utility.yul\":3716:3718   */\n      0x20\n        /* \"#utility.yul\":3704:3713   */\n      dup3\n        /* \"#utility.yul\":3695:3702   */\n      dup5\n        /* \"#utility.yul\":3691:3714   */\n      sub\n        /* \"#utility.yul\":3687:3719   */\n      slt\n        /* \"#utility.yul\":3684:3803   */\n      iszero\n      tag_167\n      jumpi\n        /* \"#utility.yul\":3722:3801   */\n      tag_168\n      tag_82\n      jump\t// in\n    tag_168:\n        /* \"#utility.yul\":3684:3803   */\n    tag_167:\n        /* \"#utility.yul\":3870:3871   */\n      0x00\n        /* \"#utility.yul\":3859:3868   */\n      dup3\n        /* \"#utility.yul\":3855:3872   */\n      add\n        /* \"#utility.yul\":3842:3873   */\n      calldataload\n        /* \"#utility.yul\":3900:3918   */\n      0xffffffffffffffff\n        /* \"#utility.yul\":3892:3898   */\n      dup2\n        /* \"#utility.yul\":3889:3919   */\n      gt\n        /* \"#utility.yul\":3886:4003   */\n      iszero\n      tag_169\n      jumpi\n        /* \"#utility.yul\":3922:4001   */\n      tag_170\n      tag_83\n      jump\t// in\n    tag_170:\n        /* \"#utility.yul\":3886:4003   */\n    tag_169:\n        /* \"#utility.yul\":4027:4090   */\n      tag_171\n        /* \"#utility.yul\":4082:4089   */\n      dup5\n        /* \"#utility.yul\":4073:4079   */\n      dup3\n        /* \"#utility.yul\":4062:4071   */\n      dup6\n        /* \"#utility.yul\":4058:4080   */\n      add\n        /* \"#utility.yul\":4027:4090   */\n      tag_95\n      jump\t// in\n    tag_171:\n        /* \"#utility.yul\":4017:4090   */\n      swap2\n      pop\n        /* \"#utility.yul\":3813:4100   */\n      pop\n        /* \"#utility.yul\":3598:4107   */\n      swap3\n      swap2\n      pop\n      pop\n      jump\t// out\n        /* \"#utility.yul\":4113:4282   */\n    tag_96:\n        /* \"#utility.yul\":4197:4208   */\n      0x00\n        /* \"#utility.yul\":4231:4237   */\n      dup3\n        /* \"#utility.yul\":4226:4229   */\n      dup3\n        /* \"#utility.yul\":4219:4238   */\n      mstore\n        /* \"#utility.yul\":4271:4275   */\n      0x20\n        /* \"#utility.yul\":4266:4269   */\n      dup3\n        /* \"#utility.yul\":4262:4276   */\n      add\n        /* \"#utility.yul\":4247:4276   */\n      swap1\n      pop\n        /* \"#utility.yul\":4113:4282   */\n      swap3\n      swap2\n      pop\n      pop\n      jump\t// out\n        /* \"#utility.yul\":4288:4469   */\n    tag_97:\n        /* \"#utility.yul\":4428:4461   */\n      0x4e6f20736520686120656e636f6e747261646f20656e20656c20617272617900\n        /* \"#utility.yul\":4424:4425   */\n      0x00\n        /* \"#utility.yul\":4416:4422   */\n      dup3\n        /* \"#utility.yul\":4412:4426   */\n      add\n        /* \"#utility.yul\":4405:4462   */\n      mstore\n        /* \"#utility.yul\":4288:4469   */\n      pop\n      jump\t// out\n        /* \"#utility.yul\":4475:4841   */\n    tag_98:\n        /* \"#utility.yul\":4617:4620   */\n      0x00\n        /* \"#utility.yul\":4638:4705   */\n      tag_175\n        /* \"#utility.yul\":4702:4704   */\n      0x1f\n        /* \"#utility.yul\":4697:4700   */\n      dup4\n        /* \"#utility.yul\":4638:4705   */\n      tag_96\n      jump\t// in\n    tag_175:\n        /* \"#utility.yul\":4631:4705   */\n      swap2\n      pop\n        /* \"#utility.yul\":4714:4807   */\n      tag_176\n        /* \"#utility.yul\":4803:4806   */\n      dup3\n        /* \"#utility.yul\":4714:4807   */\n      tag_97\n      jump\t// in\n    tag_176:\n        /* \"#utility.yul\":4832:4834   */\n      0x20\n        /* \"#utility.yul\":4827:4830   */\n      dup3\n        /* \"#utility.yul\":4823:4835   */\n      add\n        /* \"#utility.yul\":4816:4835   */\n      swap1\n      pop\n        /* \"#utility.yul\":4475:4841   */\n      swap2\n      swap1\n      pop\n      jump\t// out\n        /* \"#utility.yul\":4847:5266   */\n    tag_27:\n        /* \"#utility.yul\":5013:5017   */\n      0x00\n        /* \"#utility.yul\":5051:5053   */\n      0x20\n        /* \"#utility.yul\":5040:5049   */\n      dup3\n        /* \"#utility.yul\":5036:5054   */\n      add\n        /* \"#utility.yul\":5028:5054   */\n      swap1\n      pop\n        /* \"#utility.yul\":5100:5109   */\n      dup2\n        /* \"#utility.yul\":5094:5098   */\n      dup2\n        /* \"#utility.yul\":5090:5110   */\n      sub\n        /* \"#utility.yul\":5086:5087   */\n      0x00\n        /* \"#utility.yul\":5075:5084   */\n      dup4\n        /* \"#utility.yul\":5071:5088   */\n      add\n        /* \"#utility.yul\":5064:5111   */\n      mstore\n        /* \"#utility.yul\":5128:5259   */\n      tag_178\n        /* \"#utility.yul\":5254:5258   */\n      dup2\n        /* \"#utility.yul\":5128:5259   */\n      tag_98\n      jump\t// in\n    tag_178:\n        /* \"#utility.yul\":5120:5259   */\n      swap1\n      pop\n        /* \"#utility.yul\":4847:5266   */\n      swap2\n      swap1\n      pop\n      jump\t// out\n        /* \"#utility.yul\":5272:5452   */\n    tag_30:\n        /* \"#utility.yul\":5320:5397   */\n      0x4e487b7100000000000000000000000000000000000000000000000000000000\n        /* \"#utility.yul\":5317:5318   */\n      0x00\n        /* \"#utility.yul\":5310:5398   */\n      mstore\n        /* \"#utility.yul\":5417:5421   */\n      0x32\n        /* \"#utility.yul\":5414:5415   */\n      0x04\n        /* \"#utility.yul\":5407:5422   */\n      mstore\n        /* \"#utility.yul\":5441:5445   */\n      0x24\n        /* \"#utility.yul\":5438:5439   */\n      0x00\n        /* \"#utility.yul\":5431:5446   */\n      revert\n        /* \"#utility.yul\":5458:5631   */\n    tag_99:\n        /* \"#utility.yul\":5598:5623   */\n      0x4e6f2068617920737566696369656e74652073616c646f000000000000000000\n        /* \"#utility.yul\":5594:5595   */\n      0x00\n        /* \"#utility.yul\":5586:5592   */\n      dup3\n        /* \"#utility.yul\":5582:5596   */\n      add\n        /* \"#utility.yul\":5575:5624   */\n      mstore\n        /* \"#utility.yul\":5458:5631   */\n      pop\n      jump\t// out\n        /* \"#utility.yul\":5637:6003   */\n    tag_100:\n        /* \"#utility.yul\":5779:5782   */\n      0x00\n        /* \"#utility.yul\":5800:5867   */\n      tag_182\n        /* \"#utility.yul\":5864:5866   */\n      0x17\n        /* \"#utility.yul\":5859:5862   */\n      dup4\n        /* \"#utility.yul\":5800:5867   */\n      tag_96\n      jump\t// in\n    tag_182:\n        /* \"#utility.yul\":5793:5867   */\n      swap2\n      pop\n        /* \"#utility.yul\":5876:5969   */\n      tag_183\n        /* \"#utility.yul\":5965:5968   */\n      dup3\n        /* \"#utility.yul\":5876:5969   */\n      tag_99\n      jump\t// in\n    tag_183:\n        /* \"#utility.yul\":5994:5996   */\n      0x20\n        /* \"#utility.yul\":5989:5992   */\n      dup3\n        /* \"#utility.yul\":5985:5997   */\n      add\n        /* \"#utility.yul\":5978:5997   */\n      swap1\n      pop\n        /* \"#utility.yul\":5637:6003   */\n      swap2\n      swap1\n      pop\n      jump\t// out\n        /* \"#utility.yul\":6009:6428   */\n    tag_41:\n        /* \"#utility.yul\":6175:6179   */\n      0x00\n        /* \"#utility.yul\":6213:6215   */\n      0x20\n        /* \"#utility.yul\":6202:6211   */\n      dup3\n        /* \"#utility.yul\":6198:6216   */\n      add\n        /* \"#utility.yul\":6190:6216   */\n      swap1\n      pop\n        /* \"#utility.yul\":6262:6271   */\n      dup2\n        /* \"#utility.yul\":6256:6260   */\n      dup2\n        /* \"#utility.yul\":6252:6272   */\n      sub\n        /* \"#utility.yul\":6248:6249   */\n      0x00\n        /* \"#utility.yul\":6237:6246   */\n      dup4\n        /* \"#utility.yul\":6233:6250   */\n      add\n        /* \"#utility.yul\":6226:6273   */\n      mstore\n        /* \"#utility.yul\":6290:6421   */\n      tag_185\n        /* \"#utility.yul\":6416:6420   */\n      dup2\n        /* \"#utility.yul\":6290:6421   */\n      tag_100\n      jump\t// in\n    tag_185:\n        /* \"#utility.yul\":6282:6421   */\n      swap1\n      pop\n        /* \"#utility.yul\":6009:6428   */\n      swap2\n      swap1\n      pop\n      jump\t// out\n        /* \"#utility.yul\":6434:6614   */\n    tag_101:\n        /* \"#utility.yul\":6482:6559   */\n      0x4e487b7100000000000000000000000000000000000000000000000000000000\n        /* \"#utility.yul\":6479:6480   */\n      0x00\n        /* \"#utility.yul\":6472:6560   */\n      mstore\n        /* \"#utility.yul\":6579:6583   */\n      0x11\n        /* \"#utility.yul\":6576:6577   */\n      0x04\n        /* \"#utility.yul\":6569:6584   */\n      mstore\n        /* \"#utility.yul\":6603:6607   */\n      0x24\n        /* \"#utility.yul\":6600:6601   */\n      0x00\n        /* \"#utility.yul\":6593:6608   */\n      revert\n        /* \"#utility.yul\":6620:6814   */\n    tag_46:\n        /* \"#utility.yul\":6660:6664   */\n      0x00\n        /* \"#utility.yul\":6680:6700   */\n      tag_188\n        /* \"#utility.yul\":6698:6699   */\n      dup3\n        /* \"#utility.yul\":6680:6700   */\n      tag_79\n      jump\t// in\n    tag_188:\n        /* \"#utility.yul\":6675:6700   */\n      swap2\n      pop\n        /* \"#utility.yul\":6714:6734   */\n      tag_189\n        /* \"#utility.yul\":6732:6733   */\n      dup4\n        /* \"#utility.yul\":6714:6734   */\n      tag_79\n      jump\t// in\n    tag_189:\n        /* \"#utility.yul\":6709:6734   */\n      swap3\n      pop\n        /* \"#utility.yul\":6758:6759   */\n      dup3\n        /* \"#utility.yul\":6755:6756   */\n      dup3\n        /* \"#utility.yul\":6751:6760   */\n      sub\n        /* \"#utility.yul\":6743:6760   */\n      swap1\n      pop\n        /* \"#utility.yul\":6782:6783   */\n      dup2\n        /* \"#utility.yul\":6776:6780   */\n      dup2\n        /* \"#utility.yul\":6773:6784   */\n      gt\n        /* \"#utility.yul\":6770:6807   */\n      iszero\n      tag_190\n      jumpi\n        /* \"#utility.yul\":6787:6805   */\n      tag_191\n      tag_101\n      jump\t// in\n    tag_191:\n        /* \"#utility.yul\":6770:6807   */\n    tag_190:\n        /* \"#utility.yul\":6620:6814   */\n      swap3\n      swap2\n      pop\n      pop\n      jump\t// out\n        /* \"#utility.yul\":6820:7047   */\n    tag_102:\n        /* \"#utility.yul\":6960:6994   */\n      0x4c6120636164656e6120646562652073657220756e206e756d65726f206d6179\n        /* \"#utility.yul\":6956:6957   */\n      0x00\n        /* \"#utility.yul\":6948:6954   */\n      dup3\n        /* \"#utility.yul\":6944:6958   */\n      add\n        /* \"#utility.yul\":6937:6995   */\n      mstore\n        /* \"#utility.yul\":7029:7039   */\n      0x6f72207175652030000000000000000000000000000000000000000000000000\n        /* \"#utility.yul\":7024:7026   */\n      0x20\n        /* \"#utility.yul\":7016:7022   */\n      dup3\n        /* \"#utility.yul\":7012:7027   */\n      add\n        /* \"#utility.yul\":7005:7040   */\n      mstore\n        /* \"#utility.yul\":6820:7047   */\n      pop\n      jump\t// out\n        /* \"#utility.yul\":7053:7419   */\n    tag_103:\n        /* \"#utility.yul\":7195:7198   */\n      0x00\n        /* \"#utility.yul\":7216:7283   */\n      tag_194\n        /* \"#utility.yul\":7280:7282   */\n      0x28\n        /* \"#utility.yul\":7275:7278   */\n      dup4\n        /* \"#utility.yul\":7216:7283   */\n      tag_96\n      jump\t// in\n    tag_194:\n        /* \"#utility.yul\":7209:7283   */\n      swap2\n      pop\n        /* \"#utility.yul\":7292:7385   */\n      tag_195\n        /* \"#utility.yul\":7381:7384   */\n      dup3\n        /* \"#utility.yul\":7292:7385   */\n      tag_102\n      jump\t// in\n    tag_195:\n        /* \"#utility.yul\":7410:7412   */\n      0x40\n        /* \"#utility.yul\":7405:7408   */\n      dup3\n        /* \"#utility.yul\":7401:7413   */\n      add\n        /* \"#utility.yul\":7394:7413   */\n      swap1\n      pop\n        /* \"#utility.yul\":7053:7419   */\n      swap2\n      swap1\n      pop\n      jump\t// out\n        /* \"#utility.yul\":7425:7844   */\n    tag_55:\n        /* \"#utility.yul\":7591:7595   */\n      0x00\n        /* \"#utility.yul\":7629:7631   */\n      0x20\n        /* \"#utility.yul\":7618:7627   */\n      dup3\n        /* \"#utility.yul\":7614:7632   */\n      add\n        /* \"#utility.yul\":7606:7632   */\n      swap1\n      pop\n        /* \"#utility.yul\":7678:7687   */\n      dup2\n        /* \"#utility.yul\":7672:7676   */\n      dup2\n        /* \"#utility.yul\":7668:7688   */\n      sub\n        /* \"#utility.yul\":7664:7665   */\n      0x00\n        /* \"#utility.yul\":7653:7662   */\n      dup4\n        /* \"#utility.yul\":7649:7666   */\n      add\n        /* \"#utility.yul\":7642:7689   */\n      mstore\n        /* \"#utility.yul\":7706:7837   */\n      tag_197\n        /* \"#utility.yul\":7832:7836   */\n      dup2\n        /* \"#utility.yul\":7706:7837   */\n      tag_103\n      jump\t// in\n    tag_197:\n        /* \"#utility.yul\":7698:7837   */\n      swap1\n      pop\n        /* \"#utility.yul\":7425:7844   */\n      swap2\n      swap1\n      pop\n      jump\t// out\n        /* \"#utility.yul\":7850:7949   */\n    tag_104:\n        /* \"#utility.yul\":7902:7908   */\n      0x00\n        /* \"#utility.yul\":7936:7941   */\n      dup2\n        /* \"#utility.yul\":7930:7942   */\n      mload\n        /* \"#utility.yul\":7920:7942   */\n      swap1\n      pop\n        /* \"#utility.yul\":7850:7949   */\n      swap2\n      swap1\n      pop\n      jump\t// out\n        /* \"#utility.yul\":7955:8135   */\n    tag_105:\n        /* \"#utility.yul\":8003:8080   */\n      0x4e487b7100000000000000000000000000000000000000000000000000000000\n        /* \"#utility.yul\":8000:8001   */\n      0x00\n        /* \"#utility.yul\":7993:8081   */\n      mstore\n        /* \"#utility.yul\":8100:8104   */\n      0x22\n        /* \"#utility.yul\":8097:8098   */\n      0x04\n        /* \"#utility.yul\":8090:8105   */\n      mstore\n        /* \"#utility.yul\":8124:8128   */\n      0x24\n        /* \"#utility.yul\":8121:8122   */\n      0x00\n        /* \"#utility.yul\":8114:8129   */\n      revert\n        /* \"#utility.yul\":8141:8461   */\n    tag_106:\n        /* \"#utility.yul\":8185:8191   */\n      0x00\n        /* \"#utility.yul\":8222:8223   */\n      0x02\n        /* \"#utility.yul\":8216:8220   */\n      dup3\n        /* \"#utility.yul\":8212:8224   */\n      div\n        /* \"#utility.yul\":8202:8224   */\n      swap1\n      pop\n        /* \"#utility.yul\":8269:8270   */\n      0x01\n        /* \"#utility.yul\":8263:8267   */\n      dup3\n        /* \"#utility.yul\":8259:8271   */\n      and\n        /* \"#utility.yul\":8290:8308   */\n      dup1\n        /* \"#utility.yul\":8280:8361   */\n      tag_201\n      jumpi\n        /* \"#utility.yul\":8346:8350   */\n      0x7f\n        /* \"#utility.yul\":8338:8344   */\n      dup3\n        /* \"#utility.yul\":8334:8351   */\n      and\n        /* \"#utility.yul\":8324:8351   */\n      swap2\n      pop\n        /* \"#utility.yul\":8280:8361   */\n    tag_201:\n        /* \"#utility.yul\":8408:8410   */\n      0x20\n        /* \"#utility.yul\":8400:8406   */\n      dup3\n        /* \"#utility.yul\":8397:8411   */\n      lt\n        /* \"#utility.yul\":8377:8395   */\n      dup2\n        /* \"#utility.yul\":8374:8412   */\n      sub\n        /* \"#utility.yul\":8371:8455   */\n      tag_202\n      jumpi\n        /* \"#utility.yul\":8427:8445   */\n      tag_203\n      tag_105\n      jump\t// in\n    tag_203:\n        /* \"#utility.yul\":8371:8455   */\n    tag_202:\n        /* \"#utility.yul\":8192:8461   */\n      pop\n        /* \"#utility.yul\":8141:8461   */\n      swap2\n      swap1\n      pop\n      jump\t// out\n        /* \"#utility.yul\":8467:8608   */\n    tag_107:\n        /* \"#utility.yul\":8516:8520   */\n      0x00\n        /* \"#utility.yul\":8539:8542   */\n      dup2\n        /* \"#utility.yul\":8531:8542   */\n      swap1\n      pop\n        /* \"#utility.yul\":8562:8565   */\n      dup2\n        /* \"#utility.yul\":8559:8560   */\n      0x00\n        /* \"#utility.yul\":8552:8566   */\n      mstore\n        /* \"#utility.yul\":8596:8600   */\n      0x20\n        /* \"#utility.yul\":8593:8594   */\n      0x00\n        /* \"#utility.yul\":8583:8601   */\n      keccak256\n        /* \"#utility.yul\":8575:8601   */\n      swap1\n      pop\n        /* \"#utility.yul\":8467:8608   */\n      swap2\n      swap1\n      pop\n      jump\t// out\n        /* \"#utility.yul\":8614:8707   */\n    tag_108:\n        /* \"#utility.yul\":8651:8657   */\n      0x00\n        /* \"#utility.yul\":8698:8700   */\n      0x20\n        /* \"#utility.yul\":8693:8695   */\n      0x1f\n        /* \"#utility.yul\":8686:8691   */\n      dup4\n        /* \"#utility.yul\":8682:8696   */\n      add\n        /* \"#utility.yul\":8678:8701   */\n      div\n        /* \"#utility.yul\":8668:8701   */\n      swap1\n      pop\n        /* \"#utility.yul\":8614:8707   */\n      swap2\n      swap1\n      pop\n      jump\t// out\n        /* \"#utility.yul\":8713:8820   */\n    tag_109:\n        /* \"#utility.yul\":8757:8765   */\n      0x00\n        /* \"#utility.yul\":8807:8812   */\n      dup3\n        /* \"#utility.yul\":8801:8805   */\n      dup3\n        /* \"#utility.yul\":8797:8813   */\n      shl\n        /* \"#utility.yul\":8776:8813   */\n      swap1\n      pop\n        /* \"#utility.yul\":8713:8820   */\n      swap3\n      swap2\n      pop\n      pop\n      jump\t// out\n        /* \"#utility.yul\":8826:9219   */\n    tag_110:\n        /* \"#utility.yul\":8895:8901   */\n      0x00\n        /* \"#utility.yul\":8945:8946   */\n      0x08\n        /* \"#utility.yul\":8933:8943   */\n      dup4\n        /* \"#utility.yul\":8929:8947   */\n      mul\n        /* \"#utility.yul\":8968:9065   */\n      tag_208\n        /* \"#utility.yul\":8998:9064   */\n      0xffffffffffffffffffffffffffffffffffffffffffffffffffffffffffffffff\n        /* \"#utility.yul\":8987:8996   */\n      dup3\n        /* \"#utility.yul\":8968:9065   */\n      tag_109\n      jump\t// in\n    tag_208:\n        /* \"#utility.yul\":9086:9125   */\n      tag_209\n        /* \"#utility.yul\":9116:9124   */\n      dup7\n        /* \"#utility.yul\":9105:9114   */\n      dup4\n        /* \"#utility.yul\":9086:9125   */\n      tag_109\n      jump\t// in\n    tag_209:\n        /* \"#utility.yul\":9074:9125   */\n      swap6\n      pop\n        /* \"#utility.yul\":9158:9162   */\n      dup1\n        /* \"#utility.yul\":9154:9163   */\n      not\n        /* \"#utility.yul\":9147:9152   */\n      dup5\n        /* \"#utility.yul\":9143:9164   */\n      and\n        /* \"#utility.yul\":9134:9164   */\n      swap4\n      pop\n        /* \"#utility.yul\":9207:9211   */\n      dup1\n        /* \"#utility.yul\":9197:9205   */\n      dup7\n        /* \"#utility.yul\":9193:9212   */\n      and\n        /* \"#utility.yul\":9186:9191   */\n      dup5\n        /* \"#utility.yul\":9183:9213   */\n      or\n        /* \"#utility.yul\":9173:9213   */\n      swap3\n      pop\n        /* \"#utility.yul\":8902:9219   */\n      pop\n      pop\n        /* \"#utility.yul\":8826:9219   */\n      swap4\n      swap3\n      pop\n      pop\n      pop\n      jump\t// out\n        /* \"#utility.yul\":9225:9285   */\n    tag_111:\n        /* \"#utility.yul\":9253:9256   */\n      0x00\n        /* \"#utility.yul\":9274:9279   */\n      dup2\n        /* \"#utility.yul\":9267:9279   */\n      swap1\n      pop\n        /* \"#utility.yul\":9225:9285   */\n      swap2\n      swap1\n      pop\n      jump\t// out\n        /* \"#utility.yul\":9291:9433   */\n    tag_112:\n        /* \"#utility.yul\":9341:9350   */\n      0x00\n        /* \"#utility.yul\":9374:9427   */\n      tag_212\n        /* \"#utility.yul\":9392:9426   */\n      tag_213\n        /* \"#utility.yul\":9401:9425   */\n      tag_214\n        /* \"#utility.yul\":9419:9424   */\n      dup5\n        /* \"#utility.yul\":9401:9425   */\n      tag_79\n      jump\t// in\n    tag_214:\n        /* \"#utility.yul\":9392:9426   */\n      tag_111\n      jump\t// in\n    tag_213:\n        /* \"#utility.yul\":9374:9427   */\n      tag_79\n      jump\t// in\n    tag_212:\n        /* \"#utility.yul\":9361:9427   */\n      swap1\n      pop\n        /* \"#utility.yul\":9291:9433   */\n      swap2\n      swap1\n      pop\n      jump\t// out\n        /* \"#utility.yul\":9439:9514   */\n    tag_113:\n        /* \"#utility.yul\":9482:9485   */\n      0x00\n        /* \"#utility.yul\":9503:9508   */\n      dup2\n        /* \"#utility.yul\":9496:9508   */\n      swap1\n      pop\n        /* \"#utility.yul\":9439:9514   */\n      swap2\n      swap1\n      pop\n      jump\t// out\n        /* \"#utility.yul\":9520:9789   */\n    tag_114:\n        /* \"#utility.yul\":9630:9669   */\n      tag_217\n        /* \"#utility.yul\":9661:9668   */\n      dup4\n        /* \"#utility.yul\":9630:9669   */\n      tag_112\n      jump\t// in\n    tag_217:\n        /* \"#utility.yul\":9691:9782   */\n      tag_218\n        /* \"#utility.yul\":9740:9781   */\n      tag_219\n        /* \"#utility.yul\":9764:9780   */\n      dup3\n        /* \"#utility.yul\":9740:9781   */\n      tag_113\n      jump\t// in\n    tag_219:\n        /* \"#utility.yul\":9732:9738   */\n      dup5\n        /* \"#utility.yul\":9725:9729   */\n      dup5\n        /* \"#utility.yul\":9719:9730   */\n      sload\n        /* \"#utility.yul\":9691:9782   */\n      tag_110\n      jump\t// in\n    tag_218:\n        /* \"#utility.yul\":9685:9689   */\n      dup3\n        /* \"#utility.yul\":9678:9783   */\n      sstore\n        /* \"#utility.yul\":9596:9789   */\n      pop\n        /* \"#utility.yul\":9520:9789   */\n      pop\n      pop\n      pop\n      jump\t// out\n        /* \"#utility.yul\":9795:9868   */\n    tag_115:\n        /* \"#utility.yul\":9840:9843   */\n      0x00\n        /* \"#utility.yul\":9795:9868   */\n      swap1\n      jump\t// out\n        /* \"#utility.yul\":9874:10063   */\n    tag_116:\n        /* \"#utility.yul\":9951:9983   */\n      tag_222\n      tag_115\n      jump\t// in\n    tag_222:\n        /* \"#utility.yul\":9992:10057   */\n      tag_223\n        /* \"#utility.yul\":10050:10056   */\n      dup2\n        /* \"#utility.yul\":10042:10048   */\n      dup5\n        /* \"#utility.yul\":10036:10040   */\n      dup5\n        /* \"#utility.yul\":9992:10057   */\n      tag_114\n      jump\t// in\n    tag_223:\n        /* \"#utility.yul\":9927:10063   */\n      pop\n        /* \"#utility.yul\":9874:10063   */\n      pop\n      pop\n      jump\t// out\n        /* \"#utility.yul\":10069:10255   */\n    tag_117:\n        /* \"#utility.yul\":10129:10249   */\n    tag_225:\n        /* \"#utility.yul\":10146:10149   */\n      dup2\n        /* \"#utility.yul\":10139:10144   */\n      dup2\n        /* \"#utility.yul\":10136:10150   */\n      lt\n        /* \"#utility.yul\":10129:10249   */\n      iszero\n      tag_227\n      jumpi\n        /* \"#utility.yul\":10200:10239   */\n      tag_228\n        /* \"#utility.yul\":10237:10238   */\n      0x00\n        /* \"#utility.yul\":10230:10235   */\n      dup3\n        /* \"#utility.yul\":10200:10239   */\n      tag_116\n      jump\t// in\n    tag_228:\n        /* \"#utility.yul\":10173:10174   */\n      0x01\n        /* \"#utility.yul\":10166:10171   */\n      dup2\n        /* \"#utility.yul\":10162:10175   */\n      add\n        /* \"#utility.yul\":10153:10175   */\n      swap1\n      pop\n        /* \"#utility.yul\":10129:10249   */\n      jump(tag_225)\n    tag_227:\n        /* \"#utility.yul\":10069:10255   */\n      pop\n      pop\n      jump\t// out\n        /* \"#utility.yul\":10261:10804   */\n    tag_118:\n        /* \"#utility.yul\":10362:10364   */\n      0x1f\n        /* \"#utility.yul\":10357:10360   */\n      dup3\n        /* \"#utility.yul\":10354:10365   */\n      gt\n        /* \"#utility.yul\":10351:10797   */\n      iszero\n      tag_230\n      jumpi\n        /* \"#utility.yul\":10396:10434   */\n      tag_231\n        /* \"#utility.yul\":10428:10433   */\n      dup2\n        /* \"#utility.yul\":10396:10434   */\n      tag_107\n      jump\t// in\n    tag_231:\n        /* \"#utility.yul\":10480:10509   */\n      tag_232\n        /* \"#utility.yul\":10498:10508   */\n      dup5\n        /* \"#utility.yul\":10480:10509   */\n      tag_108\n      jump\t// in\n    tag_232:\n        /* \"#utility.yul\":10470:10478   */\n      dup2\n        /* \"#utility.yul\":10466:10510   */\n      add\n        /* \"#utility.yul\":10663:10665   */\n      0x20\n        /* \"#utility.yul\":10651:10661   */\n      dup6\n        /* \"#utility.yul\":10648:10666   */\n      lt\n        /* \"#utility.yul\":10645:10694   */\n      iszero\n      tag_233\n      jumpi\n        /* \"#utility.yul\":10684:10692   */\n      dup2\n        /* \"#utility.yul\":10669:10692   */\n      swap1\n      pop\n        /* \"#utility.yul\":10645:10694   */\n    tag_233:\n        /* \"#utility.yul\":10707:10787   */\n      tag_234\n        /* \"#utility.yul\":10763:10785   */\n      tag_235\n        /* \"#utility.yul\":10781:10784   */\n      dup6\n        /* \"#utility.yul\":10763:10785   */\n      tag_108\n      jump\t// in\n    tag_235:\n        /* \"#utility.yul\":10753:10761   */\n      dup4\n        /* \"#utility.yul\":10749:10786   */\n      add\n        /* \"#utility.yul\":10736:10747   */\n      dup3\n        /* \"#utility.yul\":10707:10787   */\n      tag_117\n      jump\t// in\n    tag_234:\n        /* \"#utility.yul\":10366:10797   */\n      pop\n      pop\n        /* \"#utility.yul\":10351:10797   */\n    tag_230:\n        /* \"#utility.yul\":10261:10804   */\n      pop\n      pop\n      pop\n      jump\t// out\n        /* \"#utility.yul\":10810:10927   */\n    tag_119:\n        /* \"#utility.yul\":10864:10872   */\n      0x00\n        /* \"#utility.yul\":10914:10919   */\n      dup3\n        /* \"#utility.yul\":10908:10912   */\n      dup3\n        /* \"#utility.yul\":10904:10920   */\n      shr\n        /* \"#utility.yul\":10883:10920   */\n      swap1\n      pop\n        /* \"#utility.yul\":10810:10927   */\n      swap3\n      swap2\n      pop\n      pop\n      jump\t// out\n        /* \"#utility.yul\":10933:11102   */\n    tag_120:\n        /* \"#utility.yul\":10977:10983   */\n      0x00\n        /* \"#utility.yul\":11010:11061   */\n      tag_238\n        /* \"#utility.yul\":11058:11059   */\n      0x00\n        /* \"#utility.yul\":11054:11060   */\n      not\n        /* \"#utility.yul\":11046:11051   */\n      dup5\n        /* \"#utility.yul\":11043:11044   */\n      0x08\n        /* \"#utility.yul\":11039:11052   */\n      mul\n        /* \"#utility.yul\":11010:11061   */\n      tag_119\n      jump\t// in\n    tag_238:\n        /* \"#utility.yul\":11006:11062   */\n      not\n        /* \"#utility.yul\":11091:11095   */\n      dup1\n        /* \"#utility.yul\":11085:11089   */\n      dup4\n        /* \"#utility.yul\":11081:11096   */\n      and\n        /* \"#utility.yul\":11071:11096   */\n      swap2\n      pop\n        /* \"#utility.yul\":10984:11102   */\n      pop\n        /* \"#utility.yul\":10933:11102   */\n      swap3\n      swap2\n      pop\n      pop\n      jump\t// out\n        /* \"#utility.yul\":11107:11402   */\n    tag_121:\n        /* \"#utility.yul\":11183:11187   */\n      0x00\n        /* \"#utility.yul\":11329:11358   */\n      tag_240\n        /* \"#utility.yul\":11354:11357   */\n      dup4\n        /* \"#utility.yul\":11348:11352   */\n      dup4\n        /* \"#utility.yul\":11329:11358   */\n      tag_120\n      jump\t// in\n    tag_240:\n        /* \"#utility.yul\":11321:11358   */\n      swap2\n      pop\n        /* \"#utility.yul\":11391:11394   */\n      dup3\n        /* \"#utility.yul\":11388:11389   */\n      0x02\n        /* \"#utility.yul\":11384:11395   */\n      mul\n        /* \"#utility.yul\":11378:11382   */\n      dup3\n        /* \"#utility.yul\":11375:11396   */\n      or\n        /* \"#utility.yul\":11367:11396   */\n      swap1\n      pop\n        /* \"#utility.yul\":11107:11402   */\n      swap3\n      swap2\n      pop\n      pop\n      jump\t// out\n        /* \"#utility.yul\":11407:12802   */\n    tag_61:\n        /* \"#utility.yul\":11524:11561   */\n      tag_242\n        /* \"#utility.yul\":11557:11560   */\n      dup3\n        /* \"#utility.yul\":11524:11561   */\n      tag_104\n      jump\t// in\n    tag_242:\n        /* \"#utility.yul\":11626:11644   */\n      0xffffffffffffffff\n        /* \"#utility.yul\":11618:11624   */\n      dup2\n        /* \"#utility.yul\":11615:11645   */\n      gt\n        /* \"#utility.yul\":11612:11668   */\n      iszero\n      tag_243\n      jumpi\n        /* \"#utility.yul\":11648:11666   */\n      tag_244\n      tag_89\n      jump\t// in\n    tag_244:\n        /* \"#utility.yul\":11612:11668   */\n    tag_243:\n        /* \"#utility.yul\":11692:11730   */\n      tag_245\n        /* \"#utility.yul\":11724:11728   */\n      dup3\n        /* \"#utility.yul\":11718:11729   */\n      sload\n        /* \"#utility.yul\":11692:11730   */\n      tag_106\n      jump\t// in\n    tag_245:\n        /* \"#utility.yul\":11777:11844   */\n      tag_246\n        /* \"#utility.yul\":11837:11843   */\n      dup3\n        /* \"#utility.yul\":11829:11835   */\n      dup3\n        /* \"#utility.yul\":11823:11827   */\n      dup6\n        /* \"#utility.yul\":11777:11844   */\n      tag_118\n      jump\t// in\n    tag_246:\n        /* \"#utility.yul\":11871:11872   */\n      0x00\n        /* \"#utility.yul\":11895:11899   */\n      0x20\n        /* \"#utility.yul\":11882:11899   */\n      swap1\n      pop\n        /* \"#utility.yul\":11927:11929   */\n      0x1f\n        /* \"#utility.yul\":11919:11925   */\n      dup4\n        /* \"#utility.yul\":11916:11930   */\n      gt\n        /* \"#utility.yul\":11944:11945   */\n      0x01\n        /* \"#utility.yul\":11939:12557   */\n      dup2\n      eq\n      tag_248\n      jumpi\n        /* \"#utility.yul\":12601:12602   */\n      0x00\n        /* \"#utility.yul\":12618:12624   */\n      dup5\n        /* \"#utility.yul\":12615:12692   */\n      iszero\n      tag_249\n      jumpi\n        /* \"#utility.yul\":12667:12676   */\n      dup3\n        /* \"#utility.yul\":12662:12665   */\n      dup8\n        /* \"#utility.yul\":12658:12677   */\n      add\n        /* \"#utility.yul\":12652:12678   */\n      mload\n        /* \"#utility.yul\":12643:12678   */\n      swap1\n      pop\n        /* \"#utility.yul\":12615:12692   */\n    tag_249:\n        /* \"#utility.yul\":12718:12785   */\n      tag_250\n        /* \"#utility.yul\":12778:12784   */\n      dup6\n        /* \"#utility.yul\":12771:12776   */\n      dup3\n        /* \"#utility.yul\":12718:12785   */\n      tag_121\n      jump\t// in\n    tag_250:\n        /* \"#utility.yul\":12712:12716   */\n      dup7\n        /* \"#utility.yul\":12705:12786   */\n      sstore\n        /* \"#utility.yul\":12574:12796   */\n      pop\n        /* \"#utility.yul\":11909:12796   */\n      jump(tag_247)\n        /* \"#utility.yul\":11939:12557   */\n    tag_248:\n        /* \"#utility.yul\":11991:11995   */\n      0x1f\n        /* \"#utility.yul\":11987:11996   */\n      not\n        /* \"#utility.yul\":11979:11985   */\n      dup5\n        /* \"#utility.yul\":11975:11997   */\n      and\n        /* \"#utility.yul\":12025:12062   */\n      tag_251\n        /* \"#utility.yul\":12057:12061   */\n      dup7\n        /* \"#utility.yul\":12025:12062   */\n      tag_107\n      jump\t// in\n    tag_251:\n        /* \"#utility.yul\":12084:12085   */\n      0x00\n        /* \"#utility.yul\":12098:12306   */\n    tag_252:\n        /* \"#utility.yul\":12112:12119   */\n      dup3\n        /* \"#utility.yul\":12109:12110   */\n      dup2\n        /* \"#utility.yul\":12106:12120   */\n      lt\n        /* \"#utility.yul\":12098:12306   */\n      iszero\n      tag_254\n      jumpi\n        /* \"#utility.yul\":12191:12200   */\n      dup5\n        /* \"#utility.yul\":12186:12189   */\n      dup10\n        /* \"#utility.yul\":12182:12201   */\n      add\n        /* \"#utility.yul\":12176:12202   */\n      mload\n        /* \"#utility.yul\":12168:12174   */\n      dup3\n        /* \"#utility.yul\":12161:12203   */\n      sstore\n        /* \"#utility.yul\":12242:12243   */\n      0x01\n        /* \"#utility.yul\":12234:12240   */\n      dup3\n        /* \"#utility.yul\":12230:12244   */\n      add\n        /* \"#utility.yul\":12220:12244   */\n      swap2\n      pop\n        /* \"#utility.yul\":12289:12291   */\n      0x20\n        /* \"#utility.yul\":12278:12287   */\n      dup6\n        /* \"#utility.yul\":12274:12292   */\n      add\n        /* \"#utility.yul\":12261:12292   */\n      swap5\n      pop\n        /* \"#utility.yul\":12135:12139   */\n      0x20\n        /* \"#utility.yul\":12132:12133   */\n      dup2\n        /* \"#utility.yul\":12128:12140   */\n      add\n        /* \"#utility.yul\":12123:12140   */\n      swap1\n      pop\n        /* \"#utility.yul\":12098:12306   */\n      jump(tag_252)\n    tag_254:\n        /* \"#utility.yul\":12334:12340   */\n      dup7\n        /* \"#utility.yul\":12325:12332   */\n      dup4\n        /* \"#utility.yul\":12322:12341   */\n      lt\n        /* \"#utility.yul\":12319:12498   */\n      iszero\n      tag_255\n      jumpi\n        /* \"#utility.yul\":12392:12401   */\n      dup5\n        /* \"#utility.yul\":12387:12390   */\n      dup10\n        /* \"#utility.yul\":12383:12402   */\n      add\n        /* \"#utility.yul\":12377:12403   */\n      mload\n        /* \"#utility.yul\":12435:12483   */\n      tag_256\n        /* \"#utility.yul\":12477:12481   */\n      0x1f\n        /* \"#utility.yul\":12469:12475   */\n      dup10\n        /* \"#utility.yul\":12465:12482   */\n      and\n        /* \"#utility.yul\":12454:12463   */\n      dup3\n        /* \"#utility.yul\":12435:12483   */\n      tag_120\n      jump\t// in\n    tag_256:\n        /* \"#utility.yul\":12427:12433   */\n      dup4\n        /* \"#utility.yul\":12420:12484   */\n      sstore\n        /* \"#utility.yul\":12342:12498   */\n      pop\n        /* \"#utility.yul\":12319:12498   */\n    tag_255:\n        /* \"#utility.yul\":12544:12545   */\n      0x01\n        /* \"#utility.yul\":12540:12541   */\n      0x02\n        /* \"#utility.yul\":12532:12538   */\n      dup9\n        /* \"#utility.yul\":12528:12542   */\n      mul\n        /* \"#utility.yul\":12524:12546   */\n      add\n        /* \"#utility.yul\":12518:12522   */\n      dup9\n        /* \"#utility.yul\":12511:12547   */\n      sstore\n        /* \"#utility.yul\":11946:12557   */\n      pop\n      pop\n      pop\n        /* \"#utility.yul\":11909:12796   */\n    tag_247:\n      pop\n        /* \"#utility.yul\":11499:12802   */\n      pop\n      pop\n      pop\n        /* \"#utility.yul\":11407:12802   */\n      pop\n      pop\n      jump\t// out\n        /* \"#utility.yul\":12808:12999   */\n    tag_70:\n        /* \"#utility.yul\":12848:12851   */\n      0x00\n        /* \"#utility.yul\":12867:12887   */\n      tag_258\n        /* \"#utility.yul\":12885:12886   */\n      dup3\n        /* \"#utility.yul\":12867:12887   */\n      tag_79\n      jump\t// in\n    tag_258:\n        /* \"#utility.yul\":12862:12887   */\n      swap2\n      pop\n        /* \"#utility.yul\":12901:12921   */\n      tag_259\n        /* \"#utility.yul\":12919:12920   */\n      dup4\n        /* \"#utility.yul\":12901:12921   */\n      tag_79\n      jump\t// in\n    tag_259:\n        /* \"#utility.yul\":12896:12921   */\n      swap3\n      pop\n        /* \"#utility.yul\":12944:12945   */\n      dup3\n        /* \"#utility.yul\":12941:12942   */\n      dup3\n        /* \"#utility.yul\":12937:12946   */\n      add\n        /* \"#utility.yul\":12930:12946   */\n      swap1\n      pop\n        /* \"#utility.yul\":12965:12968   */\n      dup1\n        /* \"#utility.yul\":12962:12963   */\n      dup3\n        /* \"#utility.yul\":12959:12969   */\n      gt\n        /* \"#utility.yul\":12956:12992   */\n      iszero\n      tag_260\n      jumpi\n        /* \"#utility.yul\":12972:12990   */\n      tag_261\n      tag_101\n      jump\t// in\n    tag_261:\n        /* \"#utility.yul\":12956:12992   */\n    tag_260:\n        /* \"#utility.yul\":12808:12999   */\n      swap3\n      swap2\n      pop\n      pop\n      jump\t// out\n\n    auxdata: 0xa26469706673582212209cd1898852bfc9f1610b6e1fa255807f4edfcf9c513714ce090596bb67b3a8dd64736f6c634300081a0033\n}\n",
				"bytecode": {
					"linkReferences": {},
					"object": "6080604052348015600e575f80fd5b50610c938061001c5f395ff3fe60806040526004361061003e575f3560e01c806312065fe0146100425780632e1a7d4d1461006c57806379b7f30314610094578063d0e30db0146100b0575b5f80fd5b34801561004d575f80fd5b506100566100ba565b604051610063919061055a565b60405180910390f35b348015610077575f80fd5b50610092600480360381019061008d91906105ae565b610136565b005b6100ae60048036038101906100a99190610715565b6102ae565b005b6100b861040f565b005b5f806100c53361049c565b90505f80549050811061010d576040517f08c379a0000000000000000000000000000000000000000000000000000000008152600401610104906107b6565b60405180910390fd5b5f81815481106101205761011f6107d4565b5b905f5260205f2090600302016002015491505090565b5f6101403361049c565b90505f805490508110610188576040517f08c379a000000000000000000000000000000000000000000000000000000000815260040161017f906107b6565b60405180910390fd5b815f828154811061019c5761019b6107d4565b5b905f5260205f2090600302016002015410156101ed576040517f08c379a00000000000000000000000000000000000000000000000000000000081526004016101e49061084b565b60405180910390fd5b815f8281548110610201576102006107d4565b5b905f5260205f2090600302016002015f82825461021e9190610896565b925050819055505f8181548110610238576102376107d4565b5b905f5260205f2090600302016001015f9054906101000a900473ffffffffffffffffffffffffffffffffffffffff1673ffffffffffffffffffffffffffffffffffffffff166108fc8390811502906040515f60405180830381858888f193505050501580156102a9573d5f803e3d5ffd5b505050565b5f60405180606001604052808381526020013373ffffffffffffffffffffffffffffffffffffffff1681526020013481525090505f825190505f8111610329576040517f08c379a000000000000000000000000000000000000000000000000000000000815260040161032090610939565b60405180910390fd5b5f6103333361049c565b90505f80549050811461037b576040517f08c379a0000000000000000000000000000000000000000000000000000000008152600401610372906107b6565b60405180910390fd5b5f83908060018154018082558091505060019003905f5260205f2090600302015f909190919091505f820151815f0190816103b69190610b5b565b506020820151816001015f6101000a81548173ffffffffffffffffffffffffffffffffffffffff021916908373ffffffffffffffffffffffffffffffffffffffff16021790555060408201518160020155505050505050565b5f6104193361049c565b90505f805490508110610461576040517f08c379a0000000000000000000000000000000000000000000000000000000008152600401610458906107b6565b60405180910390fd5b345f8281548110610475576104746107d4565b5b905f5260205f2090600302016002015f8282546104929190610c2a565b9250508190555050565b5f805f8054905090505f5b5f80549050811015610538575f81815481106104c6576104c56107d4565b5b905f5260205f2090600302016001015f9054906101000a900473ffffffffffffffffffffffffffffffffffffffff1673ffffffffffffffffffffffffffffffffffffffff168473ffffffffffffffffffffffffffffffffffffffff160361052b578091505b80806001019150506104a7565b5080915050919050565b5f819050919050565b61055481610542565b82525050565b5f60208201905061056d5f83018461054b565b92915050565b5f604051905090565b5f80fd5b5f80fd5b61058d81610542565b8114610597575f80fd5b50565b5f813590506105a881610584565b92915050565b5f602082840312156105c3576105c261057c565b5b5f6105d08482850161059a565b91505092915050565b5f80fd5b5f80fd5b5f601f19601f8301169050919050565b7f4e487b71000000000000000000000000000000000000000000000000000000005f52604160045260245ffd5b610627826105e1565b810181811067ffffffffffffffff82111715610646576106456105f1565b5b80604052505050565b5f610658610573565b9050610664828261061e565b919050565b5f67ffffffffffffffff821115610683576106826105f1565b5b61068c826105e1565b9050602081019050919050565b828183375f83830152505050565b5f6106b96106b484610669565b61064f565b9050828152602081018484840111156106d5576106d46105dd565b5b6106e0848285610699565b509392505050565b5f82601f8301126106fc576106fb6105d9565b5b813561070c8482602086016106a7565b91505092915050565b5f6020828403121561072a5761072961057c565b5b5f82013567ffffffffffffffff81111561074757610746610580565b5b610753848285016106e8565b91505092915050565b5f82825260208201905092915050565b7f4e6f20736520686120656e636f6e747261646f20656e20656c206172726179005f82015250565b5f6107a0601f8361075c565b91506107ab8261076c565b602082019050919050565b5f6020820190508181035f8301526107cd81610794565b9050919050565b7f4e487b71000000000000000000000000000000000000000000000000000000005f52603260045260245ffd5b7f4e6f2068617920737566696369656e74652073616c646f0000000000000000005f82015250565b5f61083560178361075c565b915061084082610801565b602082019050919050565b5f6020820190508181035f83015261086281610829565b9050919050565b7f4e487b71000000000000000000000000000000000000000000000000000000005f52601160045260245ffd5b5f6108a082610542565b91506108ab83610542565b92508282039050818111156108c3576108c2610869565b5b92915050565b7f4c6120636164656e6120646562652073657220756e206e756d65726f206d61795f8201527f6f72207175652030000000000000000000000000000000000000000000000000602082015250565b5f61092360288361075c565b915061092e826108c9565b604082019050919050565b5f6020820190508181035f83015261095081610917565b9050919050565b5f81519050919050565b7f4e487b71000000000000000000000000000000000000000000000000000000005f52602260045260245ffd5b5f60028204905060018216806109a557607f821691505b6020821081036109b8576109b7610961565b5b50919050565b5f819050815f5260205f209050919050565b5f6020601f8301049050919050565b5f82821b905092915050565b5f60088302610a1a7fffffffffffffffffffffffffffffffffffffffffffffffffffffffffffffffff826109df565b610a2486836109df565b95508019841693508086168417925050509392505050565b5f819050919050565b5f610a5f610a5a610a5584610542565b610a3c565b610542565b9050919050565b5f819050919050565b610a7883610a45565b610a8c610a8482610a66565b8484546109eb565b825550505050565b5f90565b610aa0610a94565b610aab818484610a6f565b505050565b5b81811015610ace57610ac35f82610a98565b600181019050610ab1565b5050565b601f821115610b1357610ae4816109be565b610aed846109d0565b81016020851015610afc578190505b610b10610b08856109d0565b830182610ab0565b50505b505050565b5f82821c905092915050565b5f610b335f1984600802610b18565b1980831691505092915050565b5f610b4b8383610b24565b9150826002028217905092915050565b610b6482610957565b67ffffffffffffffff811115610b7d57610b7c6105f1565b5b610b87825461098e565b610b92828285610ad2565b5f60209050601f831160018114610bc3575f8415610bb1578287015190505b610bbb8582610b40565b865550610c22565b601f198416610bd1866109be565b5f5b82811015610bf857848901518255600182019150602085019450602081019050610bd3565b86831015610c155784890151610c11601f891682610b24565b8355505b6001600288020188555050505b505050505050565b5f610c3482610542565b9150610c3f83610542565b9250828201905080821115610c5757610c56610869565b5b9291505056fea26469706673582212209cd1898852bfc9f1610b6e1fa255807f4edfcf9c513714ce090596bb67b3a8dd64736f6c634300081a0033",
					"opcodes": "PUSH1 0x80 PUSH1 0x40 MSTORE CALLVALUE DUP1 ISZERO PUSH1 0xE JUMPI PUSH0 DUP1 REVERT JUMPDEST POP PUSH2 0xC93 DUP1 PUSH2 0x1C PUSH0 CODECOPY PUSH0 RETURN INVALID PUSH1 0x80 PUSH1 0x40 MSTORE PUSH1 0x4 CALLDATASIZE LT PUSH2 0x3E JUMPI PUSH0 CALLDATALOAD PUSH1 0xE0 SHR DUP1 PUSH4 0x12065FE0 EQ PUSH2 0x42 JUMPI DUP1 PUSH4 0x2E1A7D4D EQ PUSH2 0x6C JUMPI DUP1 PUSH4 0x79B7F303 EQ PUSH2 0x94 JUMPI DUP1 PUSH4 0xD0E30DB0 EQ PUSH2 0xB0 JUMPI JUMPDEST PUSH0 DUP1 REVERT JUMPDEST CALLVALUE DUP1 ISZERO PUSH2 0x4D JUMPI PUSH0 DUP1 REVERT JUMPDEST POP PUSH2 0x56 PUSH2 0xBA JUMP JUMPDEST PUSH1 0x40 MLOAD PUSH2 0x63 SWAP2 SWAP1 PUSH2 0x55A JUMP JUMPDEST PUSH1 0x40 MLOAD DUP1 SWAP2 SUB SWAP1 RETURN JUMPDEST CALLVALUE DUP1 ISZERO PUSH2 0x77 JUMPI PUSH0 DUP1 REVERT JUMPDEST POP PUSH2 0x92 PUSH1 0x4 DUP1 CALLDATASIZE SUB DUP2 ADD SWAP1 PUSH2 0x8D SWAP2 SWAP1 PUSH2 0x5AE JUMP JUMPDEST PUSH2 0x136 JUMP JUMPDEST STOP JUMPDEST PUSH2 0xAE PUSH1 0x4 DUP1 CALLDATASIZE SUB DUP2 ADD SWAP1 PUSH2 0xA9 SWAP2 SWAP1 PUSH2 0x715 JUMP JUMPDEST PUSH2 0x2AE JUMP JUMPDEST STOP JUMPDEST PUSH2 0xB8 PUSH2 0x40F JUMP JUMPDEST STOP JUMPDEST PUSH0 DUP1 PUSH2 0xC5 CALLER PUSH2 0x49C JUMP JUMPDEST SWAP1 POP PUSH0 DUP1 SLOAD SWAP1 POP DUP2 LT PUSH2 0x10D JUMPI PUSH1 0x40 MLOAD PUSH32 0x8C379A000000000000000000000000000000000000000000000000000000000 DUP2 MSTORE PUSH1 0x4 ADD PUSH2 0x104 SWAP1 PUSH2 0x7B6 JUMP JUMPDEST PUSH1 0x40 MLOAD DUP1 SWAP2 SUB SWAP1 REVERT JUMPDEST PUSH0 DUP2 DUP2 SLOAD DUP2 LT PUSH2 0x120 JUMPI PUSH2 0x11F PUSH2 0x7D4 JUMP JUMPDEST JUMPDEST SWAP1 PUSH0 MSTORE PUSH1 0x20 PUSH0 KECCAK256 SWAP1 PUSH1 0x3 MUL ADD PUSH1 0x2 ADD SLOAD SWAP2 POP POP SWAP1 JUMP JUMPDEST PUSH0 PUSH2 0x140 CALLER PUSH2 0x49C JUMP JUMPDEST SWAP1 POP PUSH0 DUP1 SLOAD SWAP1 POP DUP2 LT PUSH2 0x188 JUMPI PUSH1 0x40 MLOAD PUSH32 0x8C379A000000000000000000000000000000000000000000000000000000000 DUP2 MSTORE PUSH1 0x4 ADD PUSH2 0x17F SWAP1 PUSH2 0x7B6 JUMP JUMPDEST PUSH1 0x40 MLOAD DUP1 SWAP2 SUB SWAP1 REVERT JUMPDEST DUP2 PUSH0 DUP3 DUP2 SLOAD DUP2 LT PUSH2 0x19C JUMPI PUSH2 0x19B PUSH2 0x7D4 JUMP JUMPDEST JUMPDEST SWAP1 PUSH0 MSTORE PUSH1 0x20 PUSH0 KECCAK256 SWAP1 PUSH1 0x3 MUL ADD PUSH1 0x2 ADD SLOAD LT ISZERO PUSH2 0x1ED JUMPI PUSH1 0x40 MLOAD PUSH32 0x8C379A000000000000000000000000000000000000000000000000000000000 DUP2 MSTORE PUSH1 0x4 ADD PUSH2 0x1E4 SWAP1 PUSH2 0x84B JUMP JUMPDEST PUSH1 0x40 MLOAD DUP1 SWAP2 SUB SWAP1 REVERT JUMPDEST DUP2 PUSH0 DUP3 DUP2 SLOAD DUP2 LT PUSH2 0x201 JUMPI PUSH2 0x200 PUSH2 0x7D4 JUMP JUMPDEST JUMPDEST SWAP1 PUSH0 MSTORE PUSH1 0x20 PUSH0 KECCAK256 SWAP1 PUSH1 0x3 MUL ADD PUSH1 0x2 ADD PUSH0 DUP3 DUP3 SLOAD PUSH2 0x21E SWAP2 SWAP1 PUSH2 0x896 JUMP JUMPDEST SWAP3 POP POP DUP2 SWAP1 SSTORE POP PUSH0 DUP2 DUP2 SLOAD DUP2 LT PUSH2 0x238 JUMPI PUSH2 0x237 PUSH2 0x7D4 JUMP JUMPDEST JUMPDEST SWAP1 PUSH0 MSTORE PUSH1 0x20 PUSH0 KECCAK256 SWAP1 PUSH1 0x3 MUL ADD PUSH1 0x1 ADD PUSH0 SWAP1 SLOAD SWAP1 PUSH2 0x100 EXP SWAP1 DIV PUSH20 0xFFFFFFFFFFFFFFFFFFFFFFFFFFFFFFFFFFFFFFFF AND PUSH20 0xFFFFFFFFFFFFFFFFFFFFFFFFFFFFFFFFFFFFFFFF AND PUSH2 0x8FC DUP4 SWAP1 DUP2 ISZERO MUL SWAP1 PUSH1 0x40 MLOAD PUSH0 PUSH1 0x40 MLOAD DUP1 DUP4 SUB DUP2 DUP6 DUP9 DUP9 CALL SWAP4 POP POP POP POP ISZERO DUP1 ISZERO PUSH2 0x2A9 JUMPI RETURNDATASIZE PUSH0 DUP1 RETURNDATACOPY RETURNDATASIZE PUSH0 REVERT JUMPDEST POP POP POP JUMP JUMPDEST PUSH0 PUSH1 0x40 MLOAD DUP1 PUSH1 0x60 ADD PUSH1 0x40 MSTORE DUP1 DUP4 DUP2 MSTORE PUSH1 0x20 ADD CALLER PUSH20 0xFFFFFFFFFFFFFFFFFFFFFFFFFFFFFFFFFFFFFFFF AND DUP2 MSTORE PUSH1 0x20 ADD CALLVALUE DUP2 MSTORE POP SWAP1 POP PUSH0 DUP3 MLOAD SWAP1 POP PUSH0 DUP2 GT PUSH2 0x329 JUMPI PUSH1 0x40 MLOAD PUSH32 0x8C379A000000000000000000000000000000000000000000000000000000000 DUP2 MSTORE PUSH1 0x4 ADD PUSH2 0x320 SWAP1 PUSH2 0x939 JUMP JUMPDEST PUSH1 0x40 MLOAD DUP1 SWAP2 SUB SWAP1 REVERT JUMPDEST PUSH0 PUSH2 0x333 CALLER PUSH2 0x49C JUMP JUMPDEST SWAP1 POP PUSH0 DUP1 SLOAD SWAP1 POP DUP2 EQ PUSH2 0x37B JUMPI PUSH1 0x40 MLOAD PUSH32 0x8C379A000000000000000000000000000000000000000000000000000000000 DUP2 MSTORE PUSH1 0x4 ADD PUSH2 0x372 SWAP1 PUSH2 0x7B6 JUMP JUMPDEST PUSH1 0x40 MLOAD DUP1 SWAP2 SUB SWAP1 REVERT JUMPDEST PUSH0 DUP4 SWAP1 DUP1 PUSH1 0x1 DUP2 SLOAD ADD DUP1 DUP3 SSTORE DUP1 SWAP2 POP POP PUSH1 0x1 SWAP1 SUB SWAP1 PUSH0 MSTORE PUSH1 0x20 PUSH0 KECCAK256 SWAP1 PUSH1 0x3 MUL ADD PUSH0 SWAP1 SWAP2 SWAP1 SWAP2 SWAP1 SWAP2 POP PUSH0 DUP3 ADD MLOAD DUP2 PUSH0 ADD SWAP1 DUP2 PUSH2 0x3B6 SWAP2 SWAP1 PUSH2 0xB5B JUMP JUMPDEST POP PUSH1 0x20 DUP3 ADD MLOAD DUP2 PUSH1 0x1 ADD PUSH0 PUSH2 0x100 EXP DUP2 SLOAD DUP2 PUSH20 0xFFFFFFFFFFFFFFFFFFFFFFFFFFFFFFFFFFFFFFFF MUL NOT AND SWAP1 DUP4 PUSH20 0xFFFFFFFFFFFFFFFFFFFFFFFFFFFFFFFFFFFFFFFF AND MUL OR SWAP1 SSTORE POP PUSH1 0x40 DUP3 ADD MLOAD DUP2 PUSH1 0x2 ADD SSTORE POP POP POP POP POP POP JUMP JUMPDEST PUSH0 PUSH2 0x419 CALLER PUSH2 0x49C JUMP JUMPDEST SWAP1 POP PUSH0 DUP1 SLOAD SWAP1 POP DUP2 LT PUSH2 0x461 JUMPI PUSH1 0x40 MLOAD PUSH32 0x8C379A000000000000000000000000000000000000000000000000000000000 DUP2 MSTORE PUSH1 0x4 ADD PUSH2 0x458 SWAP1 PUSH2 0x7B6 JUMP JUMPDEST PUSH1 0x40 MLOAD DUP1 SWAP2 SUB SWAP1 REVERT JUMPDEST CALLVALUE PUSH0 DUP3 DUP2 SLOAD DUP2 LT PUSH2 0x475 JUMPI PUSH2 0x474 PUSH2 0x7D4 JUMP JUMPDEST JUMPDEST SWAP1 PUSH0 MSTORE PUSH1 0x20 PUSH0 KECCAK256 SWAP1 PUSH1 0x3 MUL ADD PUSH1 0x2 ADD PUSH0 DUP3 DUP3 SLOAD PUSH2 0x492 SWAP2 SWAP1 PUSH2 0xC2A JUMP JUMPDEST SWAP3 POP POP DUP2 SWAP1 SSTORE POP POP JUMP JUMPDEST PUSH0 DUP1 PUSH0 DUP1 SLOAD SWAP1 POP SWAP1 POP PUSH0 JUMPDEST PUSH0 DUP1 SLOAD SWAP1 POP DUP2 LT ISZERO PUSH2 0x538 JUMPI PUSH0 DUP2 DUP2 SLOAD DUP2 LT PUSH2 0x4C6 JUMPI PUSH2 0x4C5 PUSH2 0x7D4 JUMP JUMPDEST JUMPDEST SWAP1 PUSH0 MSTORE PUSH1 0x20 PUSH0 KECCAK256 SWAP1 PUSH1 0x3 MUL ADD PUSH1 0x1 ADD PUSH0 SWAP1 SLOAD SWAP1 PUSH2 0x100 EXP SWAP1 DIV PUSH20 0xFFFFFFFFFFFFFFFFFFFFFFFFFFFFFFFFFFFFFFFF AND PUSH20 0xFFFFFFFFFFFFFFFFFFFFFFFFFFFFFFFFFFFFFFFF AND DUP5 PUSH20 0xFFFFFFFFFFFFFFFFFFFFFFFFFFFFFFFFFFFFFFFF AND SUB PUSH2 0x52B JUMPI DUP1 SWAP2 POP JUMPDEST DUP1 DUP1 PUSH1 0x1 ADD SWAP2 POP POP PUSH2 0x4A7 JUMP JUMPDEST POP DUP1 SWAP2 POP POP SWAP2 SWAP1 POP JUMP JUMPDEST PUSH0 DUP2 SWAP1 POP SWAP2 SWAP1 POP JUMP JUMPDEST PUSH2 0x554 DUP2 PUSH2 0x542 JUMP JUMPDEST DUP3 MSTORE POP POP JUMP JUMPDEST PUSH0 PUSH1 0x20 DUP3 ADD SWAP1 POP PUSH2 0x56D PUSH0 DUP4 ADD DUP5 PUSH2 0x54B JUMP JUMPDEST SWAP3 SWAP2 POP POP JUMP JUMPDEST PUSH0 PUSH1 0x40 MLOAD SWAP1 POP SWAP1 JUMP JUMPDEST PUSH0 DUP1 REVERT JUMPDEST PUSH0 DUP1 REVERT JUMPDEST PUSH2 0x58D DUP2 PUSH2 0x542 JUMP JUMPDEST DUP2 EQ PUSH2 0x597 JUMPI PUSH0 DUP1 REVERT JUMPDEST POP JUMP JUMPDEST PUSH0 DUP2 CALLDATALOAD SWAP1 POP PUSH2 0x5A8 DUP2 PUSH2 0x584 JUMP JUMPDEST SWAP3 SWAP2 POP POP JUMP JUMPDEST PUSH0 PUSH1 0x20 DUP3 DUP5 SUB SLT ISZERO PUSH2 0x5C3 JUMPI PUSH2 0x5C2 PUSH2 0x57C JUMP JUMPDEST JUMPDEST PUSH0 PUSH2 0x5D0 DUP5 DUP3 DUP6 ADD PUSH2 0x59A JUMP JUMPDEST SWAP2 POP POP SWAP3 SWAP2 POP POP JUMP JUMPDEST PUSH0 DUP1 REVERT JUMPDEST PUSH0 DUP1 REVERT JUMPDEST PUSH0 PUSH1 0x1F NOT PUSH1 0x1F DUP4 ADD AND SWAP1 POP SWAP2 SWAP1 POP JUMP JUMPDEST PUSH32 0x4E487B7100000000000000000000000000000000000000000000000000000000 PUSH0 MSTORE PUSH1 0x41 PUSH1 0x4 MSTORE PUSH1 0x24 PUSH0 REVERT JUMPDEST PUSH2 0x627 DUP3 PUSH2 0x5E1 JUMP JUMPDEST DUP2 ADD DUP2 DUP2 LT PUSH8 0xFFFFFFFFFFFFFFFF DUP3 GT OR ISZERO PUSH2 0x646 JUMPI PUSH2 0x645 PUSH2 0x5F1 JUMP JUMPDEST JUMPDEST DUP1 PUSH1 0x40 MSTORE POP POP POP JUMP JUMPDEST PUSH0 PUSH2 0x658 PUSH2 0x573 JUMP JUMPDEST SWAP1 POP PUSH2 0x664 DUP3 DUP3 PUSH2 0x61E JUMP JUMPDEST SWAP2 SWAP1 POP JUMP JUMPDEST PUSH0 PUSH8 0xFFFFFFFFFFFFFFFF DUP3 GT ISZERO PUSH2 0x683 JUMPI PUSH2 0x682 PUSH2 0x5F1 JUMP JUMPDEST JUMPDEST PUSH2 0x68C DUP3 PUSH2 0x5E1 JUMP JUMPDEST SWAP1 POP PUSH1 0x20 DUP2 ADD SWAP1 POP SWAP2 SWAP1 POP JUMP JUMPDEST DUP3 DUP2 DUP4 CALLDATACOPY PUSH0 DUP4 DUP4 ADD MSTORE POP POP POP JUMP JUMPDEST PUSH0 PUSH2 0x6B9 PUSH2 0x6B4 DUP5 PUSH2 0x669 JUMP JUMPDEST PUSH2 0x64F JUMP JUMPDEST SWAP1 POP DUP3 DUP2 MSTORE PUSH1 0x20 DUP2 ADD DUP5 DUP5 DUP5 ADD GT ISZERO PUSH2 0x6D5 JUMPI PUSH2 0x6D4 PUSH2 0x5DD JUMP JUMPDEST JUMPDEST PUSH2 0x6E0 DUP5 DUP3 DUP6 PUSH2 0x699 JUMP JUMPDEST POP SWAP4 SWAP3 POP POP POP JUMP JUMPDEST PUSH0 DUP3 PUSH1 0x1F DUP4 ADD SLT PUSH2 0x6FC JUMPI PUSH2 0x6FB PUSH2 0x5D9 JUMP JUMPDEST JUMPDEST DUP2 CALLDATALOAD PUSH2 0x70C DUP5 DUP3 PUSH1 0x20 DUP7 ADD PUSH2 0x6A7 JUMP JUMPDEST SWAP2 POP POP SWAP3 SWAP2 POP POP JUMP JUMPDEST PUSH0 PUSH1 0x20 DUP3 DUP5 SUB SLT ISZERO PUSH2 0x72A JUMPI PUSH2 0x729 PUSH2 0x57C JUMP JUMPDEST JUMPDEST PUSH0 DUP3 ADD CALLDATALOAD PUSH8 0xFFFFFFFFFFFFFFFF DUP2 GT ISZERO PUSH2 0x747 JUMPI PUSH2 0x746 PUSH2 0x580 JUMP JUMPDEST JUMPDEST PUSH2 0x753 DUP5 DUP3 DUP6 ADD PUSH2 0x6E8 JUMP JUMPDEST SWAP2 POP POP SWAP3 SWAP2 POP POP JUMP JUMPDEST PUSH0 DUP3 DUP3 MSTORE PUSH1 0x20 DUP3 ADD SWAP1 POP SWAP3 SWAP2 POP POP JUMP JUMPDEST PUSH32 0x4E6F20736520686120656E636F6E747261646F20656E20656C20617272617900 PUSH0 DUP3 ADD MSTORE POP JUMP JUMPDEST PUSH0 PUSH2 0x7A0 PUSH1 0x1F DUP4 PUSH2 0x75C JUMP JUMPDEST SWAP2 POP PUSH2 0x7AB DUP3 PUSH2 0x76C JUMP JUMPDEST PUSH1 0x20 DUP3 ADD SWAP1 POP SWAP2 SWAP1 POP JUMP JUMPDEST PUSH0 PUSH1 0x20 DUP3 ADD SWAP1 POP DUP2 DUP2 SUB PUSH0 DUP4 ADD MSTORE PUSH2 0x7CD DUP2 PUSH2 0x794 JUMP JUMPDEST SWAP1 POP SWAP2 SWAP1 POP JUMP JUMPDEST PUSH32 0x4E487B7100000000000000000000000000000000000000000000000000000000 PUSH0 MSTORE PUSH1 0x32 PUSH1 0x4 MSTORE PUSH1 0x24 PUSH0 REVERT JUMPDEST PUSH32 0x4E6F2068617920737566696369656E74652073616C646F000000000000000000 PUSH0 DUP3 ADD MSTORE POP JUMP JUMPDEST PUSH0 PUSH2 0x835 PUSH1 0x17 DUP4 PUSH2 0x75C JUMP JUMPDEST SWAP2 POP PUSH2 0x840 DUP3 PUSH2 0x801 JUMP JUMPDEST PUSH1 0x20 DUP3 ADD SWAP1 POP SWAP2 SWAP1 POP JUMP JUMPDEST PUSH0 PUSH1 0x20 DUP3 ADD SWAP1 POP DUP2 DUP2 SUB PUSH0 DUP4 ADD MSTORE PUSH2 0x862 DUP2 PUSH2 0x829 JUMP JUMPDEST SWAP1 POP SWAP2 SWAP1 POP JUMP JUMPDEST PUSH32 0x4E487B7100000000000000000000000000000000000000000000000000000000 PUSH0 MSTORE PUSH1 0x11 PUSH1 0x4 MSTORE PUSH1 0x24 PUSH0 REVERT JUMPDEST PUSH0 PUSH2 0x8A0 DUP3 PUSH2 0x542 JUMP JUMPDEST SWAP2 POP PUSH2 0x8AB DUP4 PUSH2 0x542 JUMP JUMPDEST SWAP3 POP DUP3 DUP3 SUB SWAP1 POP DUP2 DUP2 GT ISZERO PUSH2 0x8C3 JUMPI PUSH2 0x8C2 PUSH2 0x869 JUMP JUMPDEST JUMPDEST SWAP3 SWAP2 POP POP JUMP JUMPDEST PUSH32 0x4C6120636164656E6120646562652073657220756E206E756D65726F206D6179 PUSH0 DUP3 ADD MSTORE PUSH32 0x6F72207175652030000000000000000000000000000000000000000000000000 PUSH1 0x20 DUP3 ADD MSTORE POP JUMP JUMPDEST PUSH0 PUSH2 0x923 PUSH1 0x28 DUP4 PUSH2 0x75C JUMP JUMPDEST SWAP2 POP PUSH2 0x92E DUP3 PUSH2 0x8C9 JUMP JUMPDEST PUSH1 0x40 DUP3 ADD SWAP1 POP SWAP2 SWAP1 POP JUMP JUMPDEST PUSH0 PUSH1 0x20 DUP3 ADD SWAP1 POP DUP2 DUP2 SUB PUSH0 DUP4 ADD MSTORE PUSH2 0x950 DUP2 PUSH2 0x917 JUMP JUMPDEST SWAP1 POP SWAP2 SWAP1 POP JUMP JUMPDEST PUSH0 DUP2 MLOAD SWAP1 POP SWAP2 SWAP1 POP JUMP JUMPDEST PUSH32 0x4E487B7100000000000000000000000000000000000000000000000000000000 PUSH0 MSTORE PUSH1 0x22 PUSH1 0x4 MSTORE PUSH1 0x24 PUSH0 REVERT JUMPDEST PUSH0 PUSH1 0x2 DUP3 DIV SWAP1 POP PUSH1 0x1 DUP3 AND DUP1 PUSH2 0x9A5 JUMPI PUSH1 0x7F DUP3 AND SWAP2 POP JUMPDEST PUSH1 0x20 DUP3 LT DUP2 SUB PUSH2 0x9B8 JUMPI PUSH2 0x9B7 PUSH2 0x961 JUMP JUMPDEST JUMPDEST POP SWAP2 SWAP1 POP JUMP JUMPDEST PUSH0 DUP2 SWAP1 POP DUP2 PUSH0 MSTORE PUSH1 0x20 PUSH0 KECCAK256 SWAP1 POP SWAP2 SWAP1 POP JUMP JUMPDEST PUSH0 PUSH1 0x20 PUSH1 0x1F DUP4 ADD DIV SWAP1 POP SWAP2 SWAP1 POP JUMP JUMPDEST PUSH0 DUP3 DUP3 SHL SWAP1 POP SWAP3 SWAP2 POP POP JUMP JUMPDEST PUSH0 PUSH1 0x8 DUP4 MUL PUSH2 0xA1A PUSH32 0xFFFFFFFFFFFFFFFFFFFFFFFFFFFFFFFFFFFFFFFFFFFFFFFFFFFFFFFFFFFFFFFF DUP3 PUSH2 0x9DF JUMP JUMPDEST PUSH2 0xA24 DUP7 DUP4 PUSH2 0x9DF JUMP JUMPDEST SWAP6 POP DUP1 NOT DUP5 AND SWAP4 POP DUP1 DUP7 AND DUP5 OR SWAP3 POP POP POP SWAP4 SWAP3 POP POP POP JUMP JUMPDEST PUSH0 DUP2 SWAP1 POP SWAP2 SWAP1 POP JUMP JUMPDEST PUSH0 PUSH2 0xA5F PUSH2 0xA5A PUSH2 0xA55 DUP5 PUSH2 0x542 JUMP JUMPDEST PUSH2 0xA3C JUMP JUMPDEST PUSH2 0x542 JUMP JUMPDEST SWAP1 POP SWAP2 SWAP1 POP JUMP JUMPDEST PUSH0 DUP2 SWAP1 POP SWAP2 SWAP1 POP JUMP JUMPDEST PUSH2 0xA78 DUP4 PUSH2 0xA45 JUMP JUMPDEST PUSH2 0xA8C PUSH2 0xA84 DUP3 PUSH2 0xA66 JUMP JUMPDEST DUP5 DUP5 SLOAD PUSH2 0x9EB JUMP JUMPDEST DUP3 SSTORE POP POP POP POP JUMP JUMPDEST PUSH0 SWAP1 JUMP JUMPDEST PUSH2 0xAA0 PUSH2 0xA94 JUMP JUMPDEST PUSH2 0xAAB DUP2 DUP5 DUP5 PUSH2 0xA6F JUMP JUMPDEST POP POP POP JUMP JUMPDEST JUMPDEST DUP2 DUP2 LT ISZERO PUSH2 0xACE JUMPI PUSH2 0xAC3 PUSH0 DUP3 PUSH2 0xA98 JUMP JUMPDEST PUSH1 0x1 DUP2 ADD SWAP1 POP PUSH2 0xAB1 JUMP JUMPDEST POP POP JUMP JUMPDEST PUSH1 0x1F DUP3 GT ISZERO PUSH2 0xB13 JUMPI PUSH2 0xAE4 DUP2 PUSH2 0x9BE JUMP JUMPDEST PUSH2 0xAED DUP5 PUSH2 0x9D0 JUMP JUMPDEST DUP2 ADD PUSH1 0x20 DUP6 LT ISZERO PUSH2 0xAFC JUMPI DUP2 SWAP1 POP JUMPDEST PUSH2 0xB10 PUSH2 0xB08 DUP6 PUSH2 0x9D0 JUMP JUMPDEST DUP4 ADD DUP3 PUSH2 0xAB0 JUMP JUMPDEST POP POP JUMPDEST POP POP POP JUMP JUMPDEST PUSH0 DUP3 DUP3 SHR SWAP1 POP SWAP3 SWAP2 POP POP JUMP JUMPDEST PUSH0 PUSH2 0xB33 PUSH0 NOT DUP5 PUSH1 0x8 MUL PUSH2 0xB18 JUMP JUMPDEST NOT DUP1 DUP4 AND SWAP2 POP POP SWAP3 SWAP2 POP POP JUMP JUMPDEST PUSH0 PUSH2 0xB4B DUP4 DUP4 PUSH2 0xB24 JUMP JUMPDEST SWAP2 POP DUP3 PUSH1 0x2 MUL DUP3 OR SWAP1 POP SWAP3 SWAP2 POP POP JUMP JUMPDEST PUSH2 0xB64 DUP3 PUSH2 0x957 JUMP JUMPDEST PUSH8 0xFFFFFFFFFFFFFFFF DUP2 GT ISZERO PUSH2 0xB7D JUMPI PUSH2 0xB7C PUSH2 0x5F1 JUMP JUMPDEST JUMPDEST PUSH2 0xB87 DUP3 SLOAD PUSH2 0x98E JUMP JUMPDEST PUSH2 0xB92 DUP3 DUP3 DUP6 PUSH2 0xAD2 JUMP JUMPDEST PUSH0 PUSH1 0x20 SWAP1 POP PUSH1 0x1F DUP4 GT PUSH1 0x1 DUP2 EQ PUSH2 0xBC3 JUMPI PUSH0 DUP5 ISZERO PUSH2 0xBB1 JUMPI DUP3 DUP8 ADD MLOAD SWAP1 POP JUMPDEST PUSH2 0xBBB DUP6 DUP3 PUSH2 0xB40 JUMP JUMPDEST DUP7 SSTORE POP PUSH2 0xC22 JUMP JUMPDEST PUSH1 0x1F NOT DUP5 AND PUSH2 0xBD1 DUP7 PUSH2 0x9BE JUMP JUMPDEST PUSH0 JUMPDEST DUP3 DUP2 LT ISZERO PUSH2 0xBF8 JUMPI DUP5 DUP10 ADD MLOAD DUP3 SSTORE PUSH1 0x1 DUP3 ADD SWAP2 POP PUSH1 0x20 DUP6 ADD SWAP5 POP PUSH1 0x20 DUP2 ADD SWAP1 POP PUSH2 0xBD3 JUMP JUMPDEST DUP7 DUP4 LT ISZERO PUSH2 0xC15 JUMPI DUP5 DUP10 ADD MLOAD PUSH2 0xC11 PUSH1 0x1F DUP10 AND DUP3 PUSH2 0xB24 JUMP JUMPDEST DUP4 SSTORE POP JUMPDEST PUSH1 0x1 PUSH1 0x2 DUP9 MUL ADD DUP9 SSTORE POP POP POP JUMPDEST POP POP POP POP POP POP JUMP JUMPDEST PUSH0 PUSH2 0xC34 DUP3 PUSH2 0x542 JUMP JUMPDEST SWAP2 POP PUSH2 0xC3F DUP4 PUSH2 0x542 JUMP JUMPDEST SWAP3 POP DUP3 DUP3 ADD SWAP1 POP DUP1 DUP3 GT ISZERO PUSH2 0xC57 JUMPI PUSH2 0xC56 PUSH2 0x869 JUMP JUMPDEST JUMPDEST SWAP3 SWAP2 POP POP JUMP INVALID LOG2 PUSH5 0x6970667358 0x22 SLT KECCAK256 SWAP13 0xD1 DUP10 DUP9 MSTORE 0xBF 0xC9 CALL PUSH2 0xB6E 0x1F LOG2 SSTORE DUP1 PUSH32 0x4EDFCF9C513714CE090596BB67B3A8DD64736F6C634300081A00330000000000 "
				},
				"gasEstimates": {
					"creation": {
						"codeDepositCost": "643800",
						"executionCost": "674",
						"totalCost": "644474"
					},
					"external": {
						"addClient(string)": "infinite",
						"deposit()": "infinite",
						"getBalance()": "infinite",
						"withdraw(uint256)": "infinite"
					},
					"internal": {
						"search(address)": "infinite"
					}
				},
				"methodIdentifiers": {
					"addClient(string)": "79b7f303",
					"deposit()": "d0e30db0",
					"getBalance()": "12065fe0",
					"withdraw(uint256)": "2e1a7d4d"
				}
			},
			"storageLayout": {
				"storage": [
					{
						"astId": 12,
						"contract": "practica3_1.sol:PiggyArray",
						"label": "clientes",
						"offset": 0,
						"slot": "0",
						"type": "t_array(t_struct(Cliente)8_storage)dyn_storage"
					}
				],
				"types": {
					"t_address": {
						"encoding": "inplace",
						"label": "address",
						"numberOfBytes": "20"
					},
					"t_array(t_struct(Cliente)8_storage)dyn_storage": {
						"base": "t_struct(Cliente)8_storage",
						"encoding": "dynamic_array",
						"label": "struct PiggyArray.Cliente[]",
						"numberOfBytes": "32"
					},
					"t_string_storage": {
						"encoding": "bytes",
						"label": "string",
						"numberOfBytes": "32"
					},
					"t_struct(Cliente)8_storage": {
						"encoding": "inplace",
						"label": "struct PiggyArray.Cliente",
						"members": [
							{
								"astId": 3,
								"contract": "practica3_1.sol:PiggyArray",
								"label": "nombre",
								"offset": 0,
								"slot": "0",
								"type": "t_string_storage"
							},
							{
								"astId": 5,
								"contract": "practica3_1.sol:PiggyArray",
								"label": "direccion",
								"offset": 0,
								"slot": "1",
								"type": "t_address"
							},
							{
								"astId": 7,
								"contract": "practica3_1.sol:PiggyArray",
								"label": "cantidad",
								"offset": 0,
								"slot": "2",
								"type": "t_uint256"
							}
						],
						"numberOfBytes": "96"
					},
					"t_uint256": {
						"encoding": "inplace",
						"label": "uint256",
						"numberOfBytes": "32"
					}
				}
			},
			"userdoc": {
				"kind": "user",
				"methods": {},
				"version": 1
			}
		}
	}
}