{
	"PRACTICA 4/practica4.sol": {
		"Election": {
			"abi": [
				{
					"inputs": [
						{
							"internalType": "uint256",
							"name": "n_parties",
							"type": "uint256"
						}
					],
					"stateMutability": "nonpayable",
					"type": "constructor"
				},
				{
					"inputs": [
						{
							"internalType": "uint256",
							"name": "regionId_voter",
							"type": "uint256"
						},
						{
							"internalType": "uint256",
							"name": "voted_party",
							"type": "uint256"
						}
					],
					"name": "castVote",
					"outputs": [],
					"stateMutability": "nonpayable",
					"type": "function"
				},
				{
					"inputs": [
						{
							"internalType": "uint256",
							"name": "regionId",
							"type": "uint256"
						},
						{
							"internalType": "address",
							"name": "president",
							"type": "address"
						}
					],
					"name": "createPollingStation",
					"outputs": [
						{
							"internalType": "address",
							"name": "",
							"type": "address"
						}
					],
					"stateMutability": "nonpayable",
					"type": "function"
				},
				{
					"inputs": [],
					"name": "getResults",
					"outputs": [
						{
							"internalType": "uint256[]",
							"name": "",
							"type": "uint256[]"
						}
					],
					"stateMutability": "view",
					"type": "function"
				},
				{
					"inputs": [
						{
							"internalType": "uint256",
							"name": "",
							"type": "uint256"
						}
					],
					"name": "pollingStations",
					"outputs": [
						{
							"internalType": "contract DhondtPollingStation",
							"name": "",
							"type": "address"
						}
					],
					"stateMutability": "view",
					"type": "function"
				}
			],
			"devdoc": {
				"kind": "dev",
				"methods": {},
				"version": 1
			},
			"evm": {
				"assembly": "    /* \"PRACTICA 4/practica4.sol\":2767:5751  contract Election {... */\n  mstore(0x40, 0x80)\n    /* \"PRACTICA 4/practica4.sol\":3635:3798  constructor(uint n_parties){... */\n  callvalue\n  dup1\n  iszero\n  tag_1\n  jumpi\n  0x00\n  dup1\n  revert\ntag_1:\n  pop\n  mload(0x40)\n  sub(codesize, bytecodeSize)\n  dup1\n  bytecodeSize\n  dup4\n  codecopy\n  dup2\n  dup2\n  add\n  0x40\n  mstore\n  dup2\n  add\n  swap1\n  tag_2\n  swap2\n  swap1\n  tag_3\n  jump\t// in\ntag_2:\n    /* \"PRACTICA 4/practica4.sol\":3685:3695  msg.sender */\n  caller\n    /* \"PRACTICA 4/practica4.sol\":3673:3682  authority */\n  0x00\n  dup1\n    /* \"PRACTICA 4/practica4.sol\":3673:3695  authority = msg.sender */\n  0x0100\n  exp\n  dup2\n  sload\n  dup2\n  0xffffffffffffffffffffffffffffffffffffffff\n  mul\n  not\n  and\n  swap1\n  dup4\n  0xffffffffffffffffffffffffffffffffffffffff\n  and\n  mul\n  or\n  swap1\n  sstore\n  pop\n    /* \"PRACTICA 4/practica4.sol\":3720:3729  n_parties */\n  dup1\n    /* \"PRACTICA 4/practica4.sol\":3706:3717  num_parties */\n  0x03\n    /* \"PRACTICA 4/practica4.sol\":3706:3729  num_parties = n_parties */\n  dup2\n  swap1\n  sstore\n  pop\n    /* \"PRACTICA 4/practica4.sol\":3635:3798  constructor(uint n_parties){... */\n  pop\n    /* \"PRACTICA 4/practica4.sol\":2767:5751  contract Election {... */\n  jump(tag_6)\n    /* \"#utility.yul\":88:205   */\ntag_8:\n    /* \"#utility.yul\":197:198   */\n  0x00\n    /* \"#utility.yul\":194:195   */\n  dup1\n    /* \"#utility.yul\":187:199   */\n  revert\n    /* \"#utility.yul\":334:411   */\ntag_10:\n    /* \"#utility.yul\":371:378   */\n  0x00\n    /* \"#utility.yul\":400:405   */\n  dup2\n    /* \"#utility.yul\":389:405   */\n  swap1\n  pop\n    /* \"#utility.yul\":334:411   */\n  swap2\n  swap1\n  pop\n  jump\t// out\n    /* \"#utility.yul\":417:539   */\ntag_11:\n    /* \"#utility.yul\":490:514   */\n  tag_19\n    /* \"#utility.yul\":508:513   */\n  dup2\n    /* \"#utility.yul\":490:514   */\n  tag_10\n  jump\t// in\ntag_19:\n    /* \"#utility.yul\":483:488   */\n  dup2\n    /* \"#utility.yul\":480:515   */\n  eq\n    /* \"#utility.yul\":470:533   */\n  tag_20\n  jumpi\n    /* \"#utility.yul\":529:530   */\n  0x00\n    /* \"#utility.yul\":526:527   */\n  dup1\n    /* \"#utility.yul\":519:531   */\n  revert\n    /* \"#utility.yul\":470:533   */\ntag_20:\n    /* \"#utility.yul\":417:539   */\n  pop\n  jump\t// out\n    /* \"#utility.yul\":545:688   */\ntag_12:\n    /* \"#utility.yul\":602:607   */\n  0x00\n    /* \"#utility.yul\":633:639   */\n  dup2\n    /* \"#utility.yul\":627:640   */\n  mload\n    /* \"#utility.yul\":618:640   */\n  swap1\n  pop\n    /* \"#utility.yul\":649:682   */\n  tag_22\n    /* \"#utility.yul\":676:681   */\n  dup2\n    /* \"#utility.yul\":649:682   */\n  tag_11\n  jump\t// in\ntag_22:\n    /* \"#utility.yul\":545:688   */\n  swap3\n  swap2\n  pop\n  pop\n  jump\t// out\n    /* \"#utility.yul\":694:1045   */\ntag_3:\n    /* \"#utility.yul\":764:770   */\n  0x00\n    /* \"#utility.yul\":813:815   */\n  0x20\n    /* \"#utility.yul\":801:810   */\n  dup3\n    /* \"#utility.yul\":792:799   */\n  dup5\n    /* \"#utility.yul\":788:811   */\n  sub\n    /* \"#utility.yul\":784:816   */\n  slt\n    /* \"#utility.yul\":781:900   */\n  iszero\n  tag_24\n  jumpi\n    /* \"#utility.yul\":819:898   */\n  tag_25\n  tag_8\n  jump\t// in\ntag_25:\n    /* \"#utility.yul\":781:900   */\ntag_24:\n    /* \"#utility.yul\":939:940   */\n  0x00\n    /* \"#utility.yul\":964:1028   */\n  tag_26\n    /* \"#utility.yul\":1020:1027   */\n  dup5\n    /* \"#utility.yul\":1011:1017   */\n  dup3\n    /* \"#utility.yul\":1000:1009   */\n  dup6\n    /* \"#utility.yul\":996:1018   */\n  add\n    /* \"#utility.yul\":964:1028   */\n  tag_12\n  jump\t// in\ntag_26:\n    /* \"#utility.yul\":954:1028   */\n  swap2\n  pop\n    /* \"#utility.yul\":910:1038   */\n  pop\n    /* \"#utility.yul\":694:1045   */\n  swap3\n  swap2\n  pop\n  pop\n  jump\t// out\n    /* \"PRACTICA 4/practica4.sol\":2767:5751  contract Election {... */\ntag_6:\n  dataSize(sub_0)\n  dup1\n  dataOffset(sub_0)\n  0x00\n  codecopy\n  0x00\n  return\nstop\n\nsub_0: assembly {\n        /* \"PRACTICA 4/practica4.sol\":2767:5751  contract Election {... */\n      mstore(0x40, 0x80)\n      callvalue\n      dup1\n      iszero\n      tag_1\n      jumpi\n      0x00\n      dup1\n      revert\n    tag_1:\n      pop\n      jumpi(tag_2, lt(calldatasize, 0x04))\n      shr(0xe0, calldataload(0x00))\n      dup1\n      0x2c0a3f89\n      eq\n      tag_3\n      jumpi\n      dup1\n      0x4717f97c\n      eq\n      tag_4\n      jumpi\n      dup1\n      0xa44fe131\n      eq\n      tag_5\n      jumpi\n      dup1\n      0xfe2442d7\n      eq\n      tag_6\n      jumpi\n    tag_2:\n      0x00\n      dup1\n      revert\n        /* \"PRACTICA 4/practica4.sol\":4134:4482  function castVote(uint regionId_voter, uint voted_party) external validId(regionId_voter){... */\n    tag_3:\n      tag_7\n      0x04\n      dup1\n      calldatasize\n      sub\n      dup2\n      add\n      swap1\n      tag_8\n      swap2\n      swap1\n      tag_9\n      jump\t// in\n    tag_8:\n      tag_10\n      jump\t// in\n    tag_7:\n      stop\n        /* \"PRACTICA 4/practica4.sol\":4491:5741  function getResults() external onlyAuthority view returns (uint [] memory){... */\n    tag_4:\n      tag_11\n      tag_12\n      jump\t// in\n    tag_11:\n      mload(0x40)\n      tag_13\n      swap2\n      swap1\n      tag_14\n      jump\t// in\n    tag_13:\n      mload(0x40)\n      dup1\n      swap2\n      sub\n      swap1\n      return\n        /* \"PRACTICA 4/practica4.sol\":3806:4126  function createPollingStation(uint regionId, address president) external onlyAuthority freshId(regionId) returns (address){... */\n    tag_5:\n      tag_15\n      0x04\n      dup1\n      calldatasize\n      sub\n      dup2\n      add\n      swap1\n      tag_16\n      swap2\n      swap1\n      tag_17\n      jump\t// in\n    tag_16:\n      tag_18\n      jump\t// in\n    tag_15:\n      mload(0x40)\n      tag_19\n      swap2\n      swap1\n      tag_20\n      jump\t// in\n    tag_19:\n      mload(0x40)\n      dup1\n      swap2\n      sub\n      swap1\n      return\n        /* \"PRACTICA 4/practica4.sol\":2989:3050  mapping (uint => DhondtPollingStation) public pollingStations */\n    tag_6:\n      tag_21\n      0x04\n      dup1\n      calldatasize\n      sub\n      dup2\n      add\n      swap1\n      tag_22\n      swap2\n      swap1\n      tag_23\n      jump\t// in\n    tag_22:\n      tag_24\n      jump\t// in\n    tag_21:\n      mload(0x40)\n      tag_25\n      swap2\n      swap1\n      tag_26\n      jump\t// in\n    tag_25:\n      mload(0x40)\n      dup1\n      swap2\n      sub\n      swap1\n      return\n        /* \"PRACTICA 4/practica4.sol\":4134:4482  function castVote(uint regionId_voter, uint voted_party) external validId(regionId_voter){... */\n    tag_10:\n        /* \"PRACTICA 4/practica4.sol\":4208:4222  regionId_voter */\n      dup2\n        /* \"PRACTICA 4/practica4.sol\":3562:3563  0 */\n      0x00\n        /* \"PRACTICA 4/practica4.sol\":3516:3564  address(pollingStations[regionId]) != address(0) */\n      0xffffffffffffffffffffffffffffffffffffffff\n      and\n        /* \"PRACTICA 4/practica4.sol\":3524:3539  pollingStations */\n      0x02\n        /* \"PRACTICA 4/practica4.sol\":3524:3549  pollingStations[regionId] */\n      0x00\n        /* \"PRACTICA 4/practica4.sol\":3540:3548  regionId */\n      dup4\n        /* \"PRACTICA 4/practica4.sol\":3524:3549  pollingStations[regionId] */\n      dup2\n      mstore\n      0x20\n      add\n      swap1\n      dup2\n      mstore\n      0x20\n      add\n      0x00\n      keccak256\n      0x00\n      swap1\n      sload\n      swap1\n      0x0100\n      exp\n      swap1\n      div\n      0xffffffffffffffffffffffffffffffffffffffff\n      and\n        /* \"PRACTICA 4/practica4.sol\":3516:3564  address(pollingStations[regionId]) != address(0) */\n      0xffffffffffffffffffffffffffffffffffffffff\n      and\n      sub\n        /* \"PRACTICA 4/practica4.sol\":3508:3607  require(address(pollingStations[regionId]) != address(0), \"Debe existir una sede para esa region.\") */\n      tag_28\n      jumpi\n      mload(0x40)\n      0x08c379a000000000000000000000000000000000000000000000000000000000\n      dup2\n      mstore\n      0x04\n      add\n      tag_29\n      swap1\n      tag_30\n      jump\t// in\n    tag_29:\n      mload(0x40)\n      dup1\n      swap2\n      sub\n      swap1\n      revert\n    tag_28:\n        /* \"PRACTICA 4/practica4.sol\":4245:4251  voters */\n      0x01\n        /* \"PRACTICA 4/practica4.sol\":4245:4263  voters[msg.sender] */\n      0x00\n        /* \"PRACTICA 4/practica4.sol\":4252:4262  msg.sender */\n      caller\n        /* \"PRACTICA 4/practica4.sol\":4245:4263  voters[msg.sender] */\n      0xffffffffffffffffffffffffffffffffffffffff\n      and\n      0xffffffffffffffffffffffffffffffffffffffff\n      and\n      dup2\n      mstore\n      0x20\n      add\n      swap1\n      dup2\n      mstore\n      0x20\n      add\n      0x00\n      keccak256\n      0x00\n      swap1\n      sload\n      swap1\n      0x0100\n      exp\n      swap1\n      div\n      0xff\n      and\n        /* \"PRACTICA 4/practica4.sol\":4244:4263  !voters[msg.sender] */\n      iszero\n        /* \"PRACTICA 4/practica4.sol\":4236:4312  require(!voters[msg.sender], \"El votante ya ha ejercido su derecho a voto.\") */\n      tag_32\n      jumpi\n      mload(0x40)\n      0x08c379a000000000000000000000000000000000000000000000000000000000\n      dup2\n      mstore\n      0x04\n      add\n      tag_33\n      swap1\n      tag_34\n      jump\t// in\n    tag_33:\n      mload(0x40)\n      dup1\n      swap2\n      sub\n      swap1\n      revert\n    tag_32:\n        /* \"PRACTICA 4/practica4.sol\":4345:4349  true */\n      0x01\n        /* \"PRACTICA 4/practica4.sol\":4325:4331  voters */\n      dup1\n        /* \"PRACTICA 4/practica4.sol\":4325:4343  voters[msg.sender] */\n      0x00\n        /* \"PRACTICA 4/practica4.sol\":4332:4342  msg.sender */\n      caller\n        /* \"PRACTICA 4/practica4.sol\":4325:4343  voters[msg.sender] */\n      0xffffffffffffffffffffffffffffffffffffffff\n      and\n      0xffffffffffffffffffffffffffffffffffffffff\n      and\n      dup2\n      mstore\n      0x20\n      add\n      swap1\n      dup2\n      mstore\n      0x20\n      add\n      0x00\n      keccak256\n      0x00\n        /* \"PRACTICA 4/practica4.sol\":4325:4349  voters[msg.sender]= true */\n      0x0100\n      exp\n      dup2\n      sload\n      dup2\n      0xff\n      mul\n      not\n      and\n      swap1\n      dup4\n      iszero\n      iszero\n      mul\n      or\n      swap1\n      sstore\n      pop\n        /* \"PRACTICA 4/practica4.sol\":4421:4436  pollingStations */\n      0x02\n        /* \"PRACTICA 4/practica4.sol\":4421:4452  pollingStations[regionId_voter] */\n      0x00\n        /* \"PRACTICA 4/practica4.sol\":4437:4451  regionId_voter */\n      dup5\n        /* \"PRACTICA 4/practica4.sol\":4421:4452  pollingStations[regionId_voter] */\n      dup2\n      mstore\n      0x20\n      add\n      swap1\n      dup2\n      mstore\n      0x20\n      add\n      0x00\n      keccak256\n      0x00\n      swap1\n      sload\n      swap1\n      0x0100\n      exp\n      swap1\n      div\n      0xffffffffffffffffffffffffffffffffffffffff\n      and\n        /* \"PRACTICA 4/practica4.sol\":4421:4461  pollingStations[regionId_voter].castVote */\n      0xffffffffffffffffffffffffffffffffffffffff\n      and\n      0x3eb76b9c\n        /* \"PRACTICA 4/practica4.sol\":4462:4473  voted_party */\n      dup4\n        /* \"PRACTICA 4/practica4.sol\":4421:4474  pollingStations[regionId_voter].castVote(voted_party) */\n      mload(0x40)\n      dup3\n      0xffffffff\n      and\n      0xe0\n      shl\n      dup2\n      mstore\n      0x04\n      add\n      tag_35\n      swap2\n      swap1\n      tag_36\n      jump\t// in\n    tag_35:\n      0x00\n      mload(0x40)\n      dup1\n      dup4\n      sub\n      dup2\n      0x00\n      dup8\n      dup1\n      extcodesize\n      iszero\n      dup1\n      iszero\n      tag_37\n      jumpi\n      0x00\n      dup1\n      revert\n    tag_37:\n      pop\n      gas\n      call\n      iszero\n      dup1\n      iszero\n      tag_39\n      jumpi\n      returndatasize\n      0x00\n      dup1\n      returndatacopy\n      revert(0x00, returndatasize)\n    tag_39:\n      pop\n      pop\n      pop\n      pop\n        /* \"PRACTICA 4/practica4.sol\":4134:4482  function castVote(uint regionId_voter, uint voted_party) external validId(regionId_voter){... */\n      pop\n      pop\n      pop\n      jump\t// out\n        /* \"PRACTICA 4/practica4.sol\":4491:5741  function getResults() external onlyAuthority view returns (uint [] memory){... */\n    tag_12:\n        /* \"PRACTICA 4/practica4.sol\":4550:4564  uint [] memory */\n      0x60\n        /* \"PRACTICA 4/practica4.sol\":3204:3213  authority */\n      0x00\n      dup1\n      sload\n      swap1\n      0x0100\n      exp\n      swap1\n      div\n      0xffffffffffffffffffffffffffffffffffffffff\n      and\n        /* \"PRACTICA 4/practica4.sol\":3190:3213  msg.sender == authority */\n      0xffffffffffffffffffffffffffffffffffffffff\n      and\n        /* \"PRACTICA 4/practica4.sol\":3190:3200  msg.sender */\n      caller\n        /* \"PRACTICA 4/practica4.sol\":3190:3213  msg.sender == authority */\n      0xffffffffffffffffffffffffffffffffffffffff\n      and\n      eq\n        /* \"PRACTICA 4/practica4.sol\":3182:3272  require(msg.sender == authority, \"Solo la autoridad puede llegar a ejecutar esta funcion\") */\n      tag_41\n      jumpi\n      mload(0x40)\n      0x08c379a000000000000000000000000000000000000000000000000000000000\n      dup2\n      mstore\n      0x04\n      add\n      tag_42\n      swap1\n      tag_43\n      jump\t// in\n    tag_42:\n      mload(0x40)\n      dup1\n      swap2\n      sub\n      swap1\n      revert\n    tag_41:\n        /* \"PRACTICA 4/practica4.sol\":4641:4662  uint[] memory results */\n      0x00\n        /* \"PRACTICA 4/practica4.sol\":4676:4687  num_parties */\n      sload(0x03)\n        /* \"PRACTICA 4/practica4.sol\":4665:4688  new uint[](num_parties) */\n      0xffffffffffffffff\n      dup2\n      gt\n      iszero\n      tag_45\n      jumpi\n      tag_46\n      tag_47\n      jump\t// in\n    tag_46:\n    tag_45:\n      mload(0x40)\n      swap1\n      dup1\n      dup3\n      mstore\n      dup1\n      0x20\n      mul\n      0x20\n      add\n      dup3\n      add\n      0x40\n      mstore\n      dup1\n      iszero\n      tag_48\n      jumpi\n      dup2\n      0x20\n      add\n      0x20\n      dup3\n      mul\n      dup1\n      calldatasize\n      dup4\n      calldatacopy\n      dup1\n      dup3\n      add\n      swap2\n      pop\n      pop\n      swap1\n      pop\n    tag_48:\n      pop\n        /* \"PRACTICA 4/practica4.sol\":4641:4688  uint[] memory results = new uint[](num_parties) */\n      swap1\n      pop\n        /* \"PRACTICA 4/practica4.sol\":4706:4712  uint i */\n      0x00\n        /* \"PRACTICA 4/practica4.sol\":4701:4790  for (uint i=0; i < num_parties; i++) ... */\n    tag_49:\n        /* \"PRACTICA 4/practica4.sol\":4720:4731  num_parties */\n      sload(0x03)\n        /* \"PRACTICA 4/practica4.sol\":4716:4717  i */\n      dup2\n        /* \"PRACTICA 4/practica4.sol\":4716:4731  i < num_parties */\n      lt\n        /* \"PRACTICA 4/practica4.sol\":4701:4790  for (uint i=0; i < num_parties; i++) ... */\n      iszero\n      tag_50\n      jumpi\n        /* \"PRACTICA 4/practica4.sol\":4774:4775  0 */\n      0x00\n        /* \"PRACTICA 4/practica4.sol\":4763:4770  results */\n      dup3\n        /* \"PRACTICA 4/practica4.sol\":4771:4772  i */\n      dup3\n        /* \"PRACTICA 4/practica4.sol\":4763:4773  results[i] */\n      dup2\n      mload\n      dup2\n      lt\n      tag_52\n      jumpi\n      tag_53\n      tag_54\n      jump\t// in\n    tag_53:\n    tag_52:\n      0x20\n      mul\n      0x20\n      add\n      add\n        /* \"PRACTICA 4/practica4.sol\":4763:4775  results[i]=0 */\n      dup2\n      dup2\n      mstore\n      pop\n      pop\n        /* \"PRACTICA 4/practica4.sol\":4733:4736  i++ */\n      dup1\n      dup1\n      0x01\n      add\n      swap2\n      pop\n      pop\n        /* \"PRACTICA 4/practica4.sol\":4701:4790  for (uint i=0; i < num_parties; i++) ... */\n      jump(tag_49)\n    tag_50:\n      pop\n        /* \"PRACTICA 4/practica4.sol\":4986:4999  uint regionId */\n      0x00\n        /* \"PRACTICA 4/practica4.sol\":4981:5707  for (uint regionId = 0; regionId < 50; regionId++) { // Ejemplo con 50 regiones posibles... */\n    tag_55:\n        /* \"PRACTICA 4/practica4.sol\":5016:5018  50 */\n      0x32\n        /* \"PRACTICA 4/practica4.sol\":5005:5013  regionId */\n      dup2\n        /* \"PRACTICA 4/practica4.sol\":5005:5018  regionId < 50 */\n      lt\n        /* \"PRACTICA 4/practica4.sol\":4981:5707  for (uint regionId = 0; regionId < 50; regionId++) { // Ejemplo con 50 regiones posibles... */\n      iszero\n      tag_56\n      jumpi\n        /* \"PRACTICA 4/practica4.sol\":5133:5134  0 */\n      0x00\n        /* \"PRACTICA 4/practica4.sol\":5087:5135  address(pollingStations[regionId]) != address(0) */\n      0xffffffffffffffffffffffffffffffffffffffff\n      and\n        /* \"PRACTICA 4/practica4.sol\":5095:5110  pollingStations */\n      0x02\n        /* \"PRACTICA 4/practica4.sol\":5095:5120  pollingStations[regionId] */\n      0x00\n        /* \"PRACTICA 4/practica4.sol\":5111:5119  regionId */\n      dup4\n        /* \"PRACTICA 4/practica4.sol\":5095:5120  pollingStations[regionId] */\n      dup2\n      mstore\n      0x20\n      add\n      swap1\n      dup2\n      mstore\n      0x20\n      add\n      0x00\n      keccak256\n      0x00\n      swap1\n      sload\n      swap1\n      0x0100\n      exp\n      swap1\n      div\n      0xffffffffffffffffffffffffffffffffffffffff\n      and\n        /* \"PRACTICA 4/practica4.sol\":5087:5135  address(pollingStations[regionId]) != address(0) */\n      0xffffffffffffffffffffffffffffffffffffffff\n      and\n      eq\n        /* \"PRACTICA 4/practica4.sol\":5083:5696  if (address(pollingStations[regionId]) != address(0)) {... */\n      tag_58\n      jumpi\n        /* \"PRACTICA 4/practica4.sol\":5236:5251  pollingStations */\n      0x02\n        /* \"PRACTICA 4/practica4.sol\":5236:5261  pollingStations[regionId] */\n      0x00\n        /* \"PRACTICA 4/practica4.sol\":5252:5260  regionId */\n      dup3\n        /* \"PRACTICA 4/practica4.sol\":5236:5261  pollingStations[regionId] */\n      dup2\n      mstore\n      0x20\n      add\n      swap1\n      dup2\n      mstore\n      0x20\n      add\n      0x00\n      keccak256\n      0x00\n      swap1\n      sload\n      swap1\n      0x0100\n      exp\n      swap1\n      div\n      0xffffffffffffffffffffffffffffffffffffffff\n      and\n        /* \"PRACTICA 4/practica4.sol\":5236:5276  pollingStations[regionId].votingFinished */\n      0xffffffffffffffffffffffffffffffffffffffff\n      and\n      0x789d9e8a\n        /* \"PRACTICA 4/practica4.sol\":5236:5278  pollingStations[regionId].votingFinished() */\n      mload(0x40)\n      dup2\n      0xffffffff\n      and\n      0xe0\n      shl\n      dup2\n      mstore\n      0x04\n      add\n      0x20\n      mload(0x40)\n      dup1\n      dup4\n      sub\n      dup2\n      dup7\n      gas\n      staticcall\n      iszero\n      dup1\n      iszero\n      tag_60\n      jumpi\n      returndatasize\n      0x00\n      dup1\n      returndatacopy\n      revert(0x00, returndatasize)\n    tag_60:\n      pop\n      pop\n      pop\n      pop\n      mload(0x40)\n      returndatasize\n      not(0x1f)\n      0x1f\n      dup3\n      add\n      and\n      dup3\n      add\n      dup1\n      0x40\n      mstore\n      pop\n      dup2\n      add\n      swap1\n      tag_61\n      swap2\n      swap1\n      tag_62\n      jump\t// in\n    tag_61:\n        /* \"PRACTICA 4/practica4.sol\":5228:5329  require(pollingStations[regionId].votingFinished(),  \"Una o mas sedes no han terminado la votacion.\") */\n      tag_63\n      jumpi\n      mload(0x40)\n      0x08c379a000000000000000000000000000000000000000000000000000000000\n      dup2\n      mstore\n      0x04\n      add\n      tag_64\n      swap1\n      tag_65\n      jump\t// in\n    tag_64:\n      mload(0x40)\n      dup1\n      swap2\n      sub\n      swap1\n      revert\n    tag_63:\n        /* \"PRACTICA 4/practica4.sol\":5420:5447  uint[] memory regionResults */\n      0x00\n        /* \"PRACTICA 4/practica4.sol\":5450:5465  pollingStations */\n      0x02\n        /* \"PRACTICA 4/practica4.sol\":5450:5475  pollingStations[regionId] */\n      0x00\n        /* \"PRACTICA 4/practica4.sol\":5466:5474  regionId */\n      dup4\n        /* \"PRACTICA 4/practica4.sol\":5450:5475  pollingStations[regionId] */\n      dup2\n      mstore\n      0x20\n      add\n      swap1\n      dup2\n      mstore\n      0x20\n      add\n      0x00\n      keccak256\n      0x00\n      swap1\n      sload\n      swap1\n      0x0100\n      exp\n      swap1\n      div\n      0xffffffffffffffffffffffffffffffffffffffff\n      and\n        /* \"PRACTICA 4/practica4.sol\":5450:5486  pollingStations[regionId].getResults */\n      0xffffffffffffffffffffffffffffffffffffffff\n      and\n      0x4717f97c\n        /* \"PRACTICA 4/practica4.sol\":5450:5488  pollingStations[regionId].getResults() */\n      mload(0x40)\n      dup2\n      0xffffffff\n      and\n      0xe0\n      shl\n      dup2\n      mstore\n      0x04\n      add\n      0x00\n      mload(0x40)\n      dup1\n      dup4\n      sub\n      dup2\n      dup7\n      gas\n      staticcall\n      iszero\n      dup1\n      iszero\n      tag_67\n      jumpi\n      returndatasize\n      0x00\n      dup1\n      returndatacopy\n      revert(0x00, returndatasize)\n    tag_67:\n      pop\n      pop\n      pop\n      pop\n      mload(0x40)\n      returndatasize\n      0x00\n      dup3\n      returndatacopy\n      returndatasize\n      not(0x1f)\n      0x1f\n      dup3\n      add\n      and\n      dup3\n      add\n      dup1\n      0x40\n      mstore\n      pop\n      dup2\n      add\n      swap1\n      tag_68\n      swap2\n      swap1\n      tag_69\n      jump\t// in\n    tag_68:\n        /* \"PRACTICA 4/practica4.sol\":5420:5488  uint[] memory regionResults = pollingStations[regionId].getResults() */\n      swap1\n      pop\n        /* \"PRACTICA 4/practica4.sol\":5574:5580  uint i */\n      0x00\n        /* \"PRACTICA 4/practica4.sol\":5569:5681  for (uint i = 0; i < num_parties; i++) {... */\n    tag_70:\n        /* \"PRACTICA 4/practica4.sol\":5590:5601  num_parties */\n      sload(0x03)\n        /* \"PRACTICA 4/practica4.sol\":5586:5587  i */\n      dup2\n        /* \"PRACTICA 4/practica4.sol\":5586:5601  i < num_parties */\n      lt\n        /* \"PRACTICA 4/practica4.sol\":5569:5681  for (uint i = 0; i < num_parties; i++) {... */\n      iszero\n      tag_71\n      jumpi\n        /* \"PRACTICA 4/practica4.sol\":5645:5658  regionResults */\n      dup2\n        /* \"PRACTICA 4/practica4.sol\":5659:5660  i */\n      dup2\n        /* \"PRACTICA 4/practica4.sol\":5645:5661  regionResults[i] */\n      dup2\n      mload\n      dup2\n      lt\n      tag_73\n      jumpi\n      tag_74\n      tag_54\n      jump\t// in\n    tag_74:\n    tag_73:\n      0x20\n      mul\n      0x20\n      add\n      add\n      mload\n        /* \"PRACTICA 4/practica4.sol\":5631:5638  results */\n      dup5\n        /* \"PRACTICA 4/practica4.sol\":5639:5640  i */\n      dup3\n        /* \"PRACTICA 4/practica4.sol\":5631:5641  results[i] */\n      dup2\n      mload\n      dup2\n      lt\n      tag_75\n      jumpi\n      tag_76\n      tag_54\n      jump\t// in\n    tag_76:\n    tag_75:\n      0x20\n      mul\n      0x20\n      add\n      add\n        /* \"PRACTICA 4/practica4.sol\":5631:5661  results[i] += regionResults[i] */\n      dup2\n      dup2\n      mload\n      tag_77\n      swap2\n      swap1\n      tag_78\n      jump\t// in\n    tag_77:\n      swap2\n      pop\n      dup2\n      dup2\n      mstore\n      pop\n      pop\n        /* \"PRACTICA 4/practica4.sol\":5603:5606  i++ */\n      dup1\n      dup1\n      0x01\n      add\n      swap2\n      pop\n      pop\n        /* \"PRACTICA 4/practica4.sol\":5569:5681  for (uint i = 0; i < num_parties; i++) {... */\n      jump(tag_70)\n    tag_71:\n      pop\n        /* \"PRACTICA 4/practica4.sol\":5137:5696  {... */\n      pop\n        /* \"PRACTICA 4/practica4.sol\":5083:5696  if (address(pollingStations[regionId]) != address(0)) {... */\n    tag_58:\n        /* \"PRACTICA 4/practica4.sol\":5020:5030  regionId++ */\n      dup1\n      dup1\n      0x01\n      add\n      swap2\n      pop\n      pop\n        /* \"PRACTICA 4/practica4.sol\":4981:5707  for (uint regionId = 0; regionId < 50; regionId++) { // Ejemplo con 50 regiones posibles... */\n      jump(tag_55)\n    tag_56:\n      pop\n        /* \"PRACTICA 4/practica4.sol\":5726:5733  results */\n      dup1\n        /* \"PRACTICA 4/practica4.sol\":5719:5733  return results */\n      swap2\n      pop\n      pop\n        /* \"PRACTICA 4/practica4.sol\":4491:5741  function getResults() external onlyAuthority view returns (uint [] memory){... */\n      swap1\n      jump\t// out\n        /* \"PRACTICA 4/practica4.sol\":3806:4126  function createPollingStation(uint regionId, address president) external onlyAuthority freshId(regionId) returns (address){... */\n    tag_18:\n        /* \"PRACTICA 4/practica4.sol\":3920:3927  address */\n      0x00\n        /* \"PRACTICA 4/practica4.sol\":3204:3213  authority */\n      dup1\n      0x00\n      swap1\n      sload\n      swap1\n      0x0100\n      exp\n      swap1\n      div\n      0xffffffffffffffffffffffffffffffffffffffff\n      and\n        /* \"PRACTICA 4/practica4.sol\":3190:3213  msg.sender == authority */\n      0xffffffffffffffffffffffffffffffffffffffff\n      and\n        /* \"PRACTICA 4/practica4.sol\":3190:3200  msg.sender */\n      caller\n        /* \"PRACTICA 4/practica4.sol\":3190:3213  msg.sender == authority */\n      0xffffffffffffffffffffffffffffffffffffffff\n      and\n      eq\n        /* \"PRACTICA 4/practica4.sol\":3182:3272  require(msg.sender == authority, \"Solo la autoridad puede llegar a ejecutar esta funcion\") */\n      tag_80\n      jumpi\n      mload(0x40)\n      0x08c379a000000000000000000000000000000000000000000000000000000000\n      dup2\n      mstore\n      0x04\n      add\n      tag_81\n      swap1\n      tag_43\n      jump\t// in\n    tag_81:\n      mload(0x40)\n      dup1\n      swap2\n      sub\n      swap1\n      revert\n    tag_80:\n        /* \"PRACTICA 4/practica4.sol\":3901:3909  regionId */\n      dup3\n        /* \"PRACTICA 4/practica4.sol\":3396:3397  0 */\n      0x00\n        /* \"PRACTICA 4/practica4.sol\":3350:3398  address(pollingStations[regionId]) == address(0) */\n      0xffffffffffffffffffffffffffffffffffffffff\n      and\n        /* \"PRACTICA 4/practica4.sol\":3358:3373  pollingStations */\n      0x02\n        /* \"PRACTICA 4/practica4.sol\":3358:3383  pollingStations[regionId] */\n      0x00\n        /* \"PRACTICA 4/practica4.sol\":3374:3382  regionId */\n      dup4\n        /* \"PRACTICA 4/practica4.sol\":3358:3383  pollingStations[regionId] */\n      dup2\n      mstore\n      0x20\n      add\n      swap1\n      dup2\n      mstore\n      0x20\n      add\n      0x00\n      keccak256\n      0x00\n      swap1\n      sload\n      swap1\n      0x0100\n      exp\n      swap1\n      div\n      0xffffffffffffffffffffffffffffffffffffffff\n      and\n        /* \"PRACTICA 4/practica4.sol\":3350:3398  address(pollingStations[regionId]) == address(0) */\n      0xffffffffffffffffffffffffffffffffffffffff\n      and\n      eq\n        /* \"PRACTICA 4/practica4.sol\":3342:3438  require(address(pollingStations[regionId]) == address(0), \"Ya existe una sede para esa region.\") */\n      tag_83\n      jumpi\n      mload(0x40)\n      0x08c379a000000000000000000000000000000000000000000000000000000000\n      dup2\n      mstore\n      0x04\n      add\n      tag_84\n      swap1\n      tag_85\n      jump\t// in\n    tag_84:\n      mload(0x40)\n      dup1\n      swap2\n      sub\n      swap1\n      revert\n    tag_83:\n        /* \"PRACTICA 4/practica4.sol\":3941:3972  DhondtPollingStation newStation */\n      0x00\n        /* \"PRACTICA 4/practica4.sol\":4000:4009  president */\n      dup4\n        /* \"PRACTICA 4/practica4.sol\":4011:4022  num_parties */\n      sload(0x03)\n        /* \"PRACTICA 4/practica4.sol\":4024:4032  regionId */\n      dup7\n        /* \"PRACTICA 4/practica4.sol\":3975:4033  new DhondtPollingStation(president, num_parties, regionId) */\n      mload(0x40)\n      tag_87\n      swap1\n      tag_88\n      jump\t// in\n    tag_87:\n      tag_89\n      swap4\n      swap3\n      swap2\n      swap1\n      tag_90\n      jump\t// in\n    tag_89:\n      mload(0x40)\n      dup1\n      swap2\n      sub\n      swap1\n      0x00\n      create\n      dup1\n      iszero\n      dup1\n      iszero\n      tag_91\n      jumpi\n      returndatasize\n      0x00\n      dup1\n      returndatacopy\n      revert(0x00, returndatasize)\n    tag_91:\n      pop\n        /* \"PRACTICA 4/practica4.sol\":3941:4033  DhondtPollingStation newStation = new DhondtPollingStation(president, num_parties, regionId) */\n      swap1\n      pop\n        /* \"PRACTICA 4/practica4.sol\":4071:4081  newStation */\n      dup1\n        /* \"PRACTICA 4/practica4.sol\":4044:4059  pollingStations */\n      0x02\n        /* \"PRACTICA 4/practica4.sol\":4044:4069  pollingStations[regionId] */\n      0x00\n        /* \"PRACTICA 4/practica4.sol\":4060:4068  regionId */\n      dup8\n        /* \"PRACTICA 4/practica4.sol\":4044:4069  pollingStations[regionId] */\n      dup2\n      mstore\n      0x20\n      add\n      swap1\n      dup2\n      mstore\n      0x20\n      add\n      0x00\n      keccak256\n      0x00\n        /* \"PRACTICA 4/practica4.sol\":4044:4081  pollingStations[regionId]= newStation */\n      0x0100\n      exp\n      dup2\n      sload\n      dup2\n      0xffffffffffffffffffffffffffffffffffffffff\n      mul\n      not\n      and\n      swap1\n      dup4\n      0xffffffffffffffffffffffffffffffffffffffff\n      and\n      mul\n      or\n      swap1\n      sstore\n      pop\n        /* \"PRACTICA 4/practica4.sol\":4107:4117  newStation */\n      dup1\n        /* \"PRACTICA 4/practica4.sol\":4092:4118  return address(newStation) */\n      swap3\n      pop\n      pop\n        /* \"PRACTICA 4/practica4.sol\":3283:3284  _ */\n      pop\n        /* \"PRACTICA 4/practica4.sol\":3806:4126  function createPollingStation(uint regionId, address president) external onlyAuthority freshId(regionId) returns (address){... */\n      swap3\n      swap2\n      pop\n      pop\n      jump\t// out\n        /* \"PRACTICA 4/practica4.sol\":2989:3050  mapping (uint => DhondtPollingStation) public pollingStations */\n    tag_24:\n      mstore(0x20, 0x02)\n      dup1\n      0x00\n      mstore\n      keccak256(0x00, 0x40)\n      0x00\n      swap2\n      pop\n      sload\n      swap1\n      0x0100\n      exp\n      swap1\n      div\n      0xffffffffffffffffffffffffffffffffffffffff\n      and\n      dup2\n      jump\t// out\n    tag_88:\n      dataSize(sub_0)\n      dup1\n      dataOffset(sub_0)\n      dup4\n      codecopy\n      add\n      swap1\n      jump\t// out\n        /* \"#utility.yul\":7:82   */\n    tag_92:\n        /* \"#utility.yul\":40:46   */\n      0x00\n        /* \"#utility.yul\":73:75   */\n      0x40\n        /* \"#utility.yul\":67:76   */\n      mload\n        /* \"#utility.yul\":57:76   */\n      swap1\n      pop\n        /* \"#utility.yul\":7:82   */\n      swap1\n      jump\t// out\n        /* \"#utility.yul\":88:205   */\n    tag_93:\n        /* \"#utility.yul\":197:198   */\n      0x00\n        /* \"#utility.yul\":194:195   */\n      dup1\n        /* \"#utility.yul\":187:199   */\n      revert\n        /* \"#utility.yul\":211:328   */\n    tag_94:\n        /* \"#utility.yul\":320:321   */\n      0x00\n        /* \"#utility.yul\":317:318   */\n      dup1\n        /* \"#utility.yul\":310:322   */\n      revert\n        /* \"#utility.yul\":334:411   */\n    tag_95:\n        /* \"#utility.yul\":371:378   */\n      0x00\n        /* \"#utility.yul\":400:405   */\n      dup2\n        /* \"#utility.yul\":389:405   */\n      swap1\n      pop\n        /* \"#utility.yul\":334:411   */\n      swap2\n      swap1\n      pop\n      jump\t// out\n        /* \"#utility.yul\":417:539   */\n    tag_96:\n        /* \"#utility.yul\":490:514   */\n      tag_146\n        /* \"#utility.yul\":508:513   */\n      dup2\n        /* \"#utility.yul\":490:514   */\n      tag_95\n      jump\t// in\n    tag_146:\n        /* \"#utility.yul\":483:488   */\n      dup2\n        /* \"#utility.yul\":480:515   */\n      eq\n        /* \"#utility.yul\":470:533   */\n      tag_147\n      jumpi\n        /* \"#utility.yul\":529:530   */\n      0x00\n        /* \"#utility.yul\":526:527   */\n      dup1\n        /* \"#utility.yul\":519:531   */\n      revert\n        /* \"#utility.yul\":470:533   */\n    tag_147:\n        /* \"#utility.yul\":417:539   */\n      pop\n      jump\t// out\n        /* \"#utility.yul\":545:684   */\n    tag_97:\n        /* \"#utility.yul\":591:596   */\n      0x00\n        /* \"#utility.yul\":629:635   */\n      dup2\n        /* \"#utility.yul\":616:636   */\n      calldataload\n        /* \"#utility.yul\":607:636   */\n      swap1\n      pop\n        /* \"#utility.yul\":645:678   */\n      tag_149\n        /* \"#utility.yul\":672:677   */\n      dup2\n        /* \"#utility.yul\":645:678   */\n      tag_96\n      jump\t// in\n    tag_149:\n        /* \"#utility.yul\":545:684   */\n      swap3\n      swap2\n      pop\n      pop\n      jump\t// out\n        /* \"#utility.yul\":690:1164   */\n    tag_9:\n        /* \"#utility.yul\":758:764   */\n      0x00\n        /* \"#utility.yul\":766:772   */\n      dup1\n        /* \"#utility.yul\":815:817   */\n      0x40\n        /* \"#utility.yul\":803:812   */\n      dup4\n        /* \"#utility.yul\":794:801   */\n      dup6\n        /* \"#utility.yul\":790:813   */\n      sub\n        /* \"#utility.yul\":786:818   */\n      slt\n        /* \"#utility.yul\":783:902   */\n      iszero\n      tag_151\n      jumpi\n        /* \"#utility.yul\":821:900   */\n      tag_152\n      tag_93\n      jump\t// in\n    tag_152:\n        /* \"#utility.yul\":783:902   */\n    tag_151:\n        /* \"#utility.yul\":941:942   */\n      0x00\n        /* \"#utility.yul\":966:1019   */\n      tag_153\n        /* \"#utility.yul\":1011:1018   */\n      dup6\n        /* \"#utility.yul\":1002:1008   */\n      dup3\n        /* \"#utility.yul\":991:1000   */\n      dup7\n        /* \"#utility.yul\":987:1009   */\n      add\n        /* \"#utility.yul\":966:1019   */\n      tag_97\n      jump\t// in\n    tag_153:\n        /* \"#utility.yul\":956:1019   */\n      swap3\n      pop\n        /* \"#utility.yul\":912:1029   */\n      pop\n        /* \"#utility.yul\":1068:1070   */\n      0x20\n        /* \"#utility.yul\":1094:1147   */\n      tag_154\n        /* \"#utility.yul\":1139:1146   */\n      dup6\n        /* \"#utility.yul\":1130:1136   */\n      dup3\n        /* \"#utility.yul\":1119:1128   */\n      dup7\n        /* \"#utility.yul\":1115:1137   */\n      add\n        /* \"#utility.yul\":1094:1147   */\n      tag_97\n      jump\t// in\n    tag_154:\n        /* \"#utility.yul\":1084:1147   */\n      swap2\n      pop\n        /* \"#utility.yul\":1039:1157   */\n      pop\n        /* \"#utility.yul\":690:1164   */\n      swap3\n      pop\n      swap3\n      swap1\n      pop\n      jump\t// out\n        /* \"#utility.yul\":1170:1284   */\n    tag_98:\n        /* \"#utility.yul\":1237:1243   */\n      0x00\n        /* \"#utility.yul\":1271:1276   */\n      dup2\n        /* \"#utility.yul\":1265:1277   */\n      mload\n        /* \"#utility.yul\":1255:1277   */\n      swap1\n      pop\n        /* \"#utility.yul\":1170:1284   */\n      swap2\n      swap1\n      pop\n      jump\t// out\n        /* \"#utility.yul\":1290:1474   */\n    tag_99:\n        /* \"#utility.yul\":1389:1400   */\n      0x00\n        /* \"#utility.yul\":1423:1429   */\n      dup3\n        /* \"#utility.yul\":1418:1421   */\n      dup3\n        /* \"#utility.yul\":1411:1430   */\n      mstore\n        /* \"#utility.yul\":1463:1467   */\n      0x20\n        /* \"#utility.yul\":1458:1461   */\n      dup3\n        /* \"#utility.yul\":1454:1468   */\n      add\n        /* \"#utility.yul\":1439:1468   */\n      swap1\n      pop\n        /* \"#utility.yul\":1290:1474   */\n      swap3\n      swap2\n      pop\n      pop\n      jump\t// out\n        /* \"#utility.yul\":1480:1612   */\n    tag_100:\n        /* \"#utility.yul\":1547:1551   */\n      0x00\n        /* \"#utility.yul\":1570:1573   */\n      dup2\n        /* \"#utility.yul\":1562:1573   */\n      swap1\n      pop\n        /* \"#utility.yul\":1600:1604   */\n      0x20\n        /* \"#utility.yul\":1595:1598   */\n      dup3\n        /* \"#utility.yul\":1591:1605   */\n      add\n        /* \"#utility.yul\":1583:1605   */\n      swap1\n      pop\n        /* \"#utility.yul\":1480:1612   */\n      swap2\n      swap1\n      pop\n      jump\t// out\n        /* \"#utility.yul\":1618:1726   */\n    tag_101:\n        /* \"#utility.yul\":1695:1719   */\n      tag_159\n        /* \"#utility.yul\":1713:1718   */\n      dup2\n        /* \"#utility.yul\":1695:1719   */\n      tag_95\n      jump\t// in\n    tag_159:\n        /* \"#utility.yul\":1690:1693   */\n      dup3\n        /* \"#utility.yul\":1683:1720   */\n      mstore\n        /* \"#utility.yul\":1618:1726   */\n      pop\n      pop\n      jump\t// out\n        /* \"#utility.yul\":1732:1911   */\n    tag_102:\n        /* \"#utility.yul\":1801:1811   */\n      0x00\n        /* \"#utility.yul\":1822:1868   */\n      tag_161\n        /* \"#utility.yul\":1864:1867   */\n      dup4\n        /* \"#utility.yul\":1856:1862   */\n      dup4\n        /* \"#utility.yul\":1822:1868   */\n      tag_101\n      jump\t// in\n    tag_161:\n        /* \"#utility.yul\":1900:1904   */\n      0x20\n        /* \"#utility.yul\":1895:1898   */\n      dup4\n        /* \"#utility.yul\":1891:1905   */\n      add\n        /* \"#utility.yul\":1877:1905   */\n      swap1\n      pop\n        /* \"#utility.yul\":1732:1911   */\n      swap3\n      swap2\n      pop\n      pop\n      jump\t// out\n        /* \"#utility.yul\":1917:2030   */\n    tag_103:\n        /* \"#utility.yul\":1987:1991   */\n      0x00\n        /* \"#utility.yul\":2019:2023   */\n      0x20\n        /* \"#utility.yul\":2014:2017   */\n      dup3\n        /* \"#utility.yul\":2010:2024   */\n      add\n        /* \"#utility.yul\":2002:2024   */\n      swap1\n      pop\n        /* \"#utility.yul\":1917:2030   */\n      swap2\n      swap1\n      pop\n      jump\t// out\n        /* \"#utility.yul\":2066:2798   */\n    tag_104:\n        /* \"#utility.yul\":2185:2188   */\n      0x00\n        /* \"#utility.yul\":2214:2268   */\n      tag_164\n        /* \"#utility.yul\":2262:2267   */\n      dup3\n        /* \"#utility.yul\":2214:2268   */\n      tag_98\n      jump\t// in\n    tag_164:\n        /* \"#utility.yul\":2284:2370   */\n      tag_165\n        /* \"#utility.yul\":2363:2369   */\n      dup2\n        /* \"#utility.yul\":2358:2361   */\n      dup6\n        /* \"#utility.yul\":2284:2370   */\n      tag_99\n      jump\t// in\n    tag_165:\n        /* \"#utility.yul\":2277:2370   */\n      swap4\n      pop\n        /* \"#utility.yul\":2394:2450   */\n      tag_166\n        /* \"#utility.yul\":2444:2449   */\n      dup4\n        /* \"#utility.yul\":2394:2450   */\n      tag_100\n      jump\t// in\n    tag_166:\n        /* \"#utility.yul\":2473:2480   */\n      dup1\n        /* \"#utility.yul\":2504:2505   */\n      0x00\n        /* \"#utility.yul\":2489:2773   */\n    tag_167:\n        /* \"#utility.yul\":2514:2520   */\n      dup4\n        /* \"#utility.yul\":2511:2512   */\n      dup2\n        /* \"#utility.yul\":2508:2521   */\n      lt\n        /* \"#utility.yul\":2489:2773   */\n      iszero\n      tag_169\n      jumpi\n        /* \"#utility.yul\":2590:2596   */\n      dup2\n        /* \"#utility.yul\":2584:2597   */\n      mload\n        /* \"#utility.yul\":2617:2680   */\n      tag_170\n        /* \"#utility.yul\":2676:2679   */\n      dup9\n        /* \"#utility.yul\":2661:2674   */\n      dup3\n        /* \"#utility.yul\":2617:2680   */\n      tag_102\n      jump\t// in\n    tag_170:\n        /* \"#utility.yul\":2610:2680   */\n      swap8\n      pop\n        /* \"#utility.yul\":2703:2763   */\n      tag_171\n        /* \"#utility.yul\":2756:2762   */\n      dup4\n        /* \"#utility.yul\":2703:2763   */\n      tag_103\n      jump\t// in\n    tag_171:\n        /* \"#utility.yul\":2693:2763   */\n      swap3\n      pop\n        /* \"#utility.yul\":2549:2773   */\n      pop\n        /* \"#utility.yul\":2536:2537   */\n      0x01\n        /* \"#utility.yul\":2533:2534   */\n      dup2\n        /* \"#utility.yul\":2529:2538   */\n      add\n        /* \"#utility.yul\":2524:2538   */\n      swap1\n      pop\n        /* \"#utility.yul\":2489:2773   */\n      jump(tag_167)\n    tag_169:\n        /* \"#utility.yul\":2493:2507   */\n      pop\n        /* \"#utility.yul\":2789:2792   */\n      dup6\n        /* \"#utility.yul\":2782:2792   */\n      swap4\n      pop\n        /* \"#utility.yul\":2190:2798   */\n      pop\n      pop\n      pop\n        /* \"#utility.yul\":2066:2798   */\n      swap3\n      swap2\n      pop\n      pop\n      jump\t// out\n        /* \"#utility.yul\":2804:3177   */\n    tag_14:\n        /* \"#utility.yul\":2947:2951   */\n      0x00\n        /* \"#utility.yul\":2985:2987   */\n      0x20\n        /* \"#utility.yul\":2974:2983   */\n      dup3\n        /* \"#utility.yul\":2970:2988   */\n      add\n        /* \"#utility.yul\":2962:2988   */\n      swap1\n      pop\n        /* \"#utility.yul\":3034:3043   */\n      dup2\n        /* \"#utility.yul\":3028:3032   */\n      dup2\n        /* \"#utility.yul\":3024:3044   */\n      sub\n        /* \"#utility.yul\":3020:3021   */\n      0x00\n        /* \"#utility.yul\":3009:3018   */\n      dup4\n        /* \"#utility.yul\":3005:3022   */\n      add\n        /* \"#utility.yul\":2998:3045   */\n      mstore\n        /* \"#utility.yul\":3062:3170   */\n      tag_173\n        /* \"#utility.yul\":3165:3169   */\n      dup2\n        /* \"#utility.yul\":3156:3162   */\n      dup5\n        /* \"#utility.yul\":3062:3170   */\n      tag_104\n      jump\t// in\n    tag_173:\n        /* \"#utility.yul\":3054:3170   */\n      swap1\n      pop\n        /* \"#utility.yul\":2804:3177   */\n      swap3\n      swap2\n      pop\n      pop\n      jump\t// out\n        /* \"#utility.yul\":3183:3309   */\n    tag_105:\n        /* \"#utility.yul\":3220:3227   */\n      0x00\n        /* \"#utility.yul\":3260:3302   */\n      0xffffffffffffffffffffffffffffffffffffffff\n        /* \"#utility.yul\":3253:3258   */\n      dup3\n        /* \"#utility.yul\":3249:3303   */\n      and\n        /* \"#utility.yul\":3238:3303   */\n      swap1\n      pop\n        /* \"#utility.yul\":3183:3309   */\n      swap2\n      swap1\n      pop\n      jump\t// out\n        /* \"#utility.yul\":3315:3411   */\n    tag_106:\n        /* \"#utility.yul\":3352:3359   */\n      0x00\n        /* \"#utility.yul\":3381:3405   */\n      tag_176\n        /* \"#utility.yul\":3399:3404   */\n      dup3\n        /* \"#utility.yul\":3381:3405   */\n      tag_105\n      jump\t// in\n    tag_176:\n        /* \"#utility.yul\":3370:3405   */\n      swap1\n      pop\n        /* \"#utility.yul\":3315:3411   */\n      swap2\n      swap1\n      pop\n      jump\t// out\n        /* \"#utility.yul\":3417:3539   */\n    tag_107:\n        /* \"#utility.yul\":3490:3514   */\n      tag_178\n        /* \"#utility.yul\":3508:3513   */\n      dup2\n        /* \"#utility.yul\":3490:3514   */\n      tag_106\n      jump\t// in\n    tag_178:\n        /* \"#utility.yul\":3483:3488   */\n      dup2\n        /* \"#utility.yul\":3480:3515   */\n      eq\n        /* \"#utility.yul\":3470:3533   */\n      tag_179\n      jumpi\n        /* \"#utility.yul\":3529:3530   */\n      0x00\n        /* \"#utility.yul\":3526:3527   */\n      dup1\n        /* \"#utility.yul\":3519:3531   */\n      revert\n        /* \"#utility.yul\":3470:3533   */\n    tag_179:\n        /* \"#utility.yul\":3417:3539   */\n      pop\n      jump\t// out\n        /* \"#utility.yul\":3545:3684   */\n    tag_108:\n        /* \"#utility.yul\":3591:3596   */\n      0x00\n        /* \"#utility.yul\":3629:3635   */\n      dup2\n        /* \"#utility.yul\":3616:3636   */\n      calldataload\n        /* \"#utility.yul\":3607:3636   */\n      swap1\n      pop\n        /* \"#utility.yul\":3645:3678   */\n      tag_181\n        /* \"#utility.yul\":3672:3677   */\n      dup2\n        /* \"#utility.yul\":3645:3678   */\n      tag_107\n      jump\t// in\n    tag_181:\n        /* \"#utility.yul\":3545:3684   */\n      swap3\n      swap2\n      pop\n      pop\n      jump\t// out\n        /* \"#utility.yul\":3690:4164   */\n    tag_17:\n        /* \"#utility.yul\":3758:3764   */\n      0x00\n        /* \"#utility.yul\":3766:3772   */\n      dup1\n        /* \"#utility.yul\":3815:3817   */\n      0x40\n        /* \"#utility.yul\":3803:3812   */\n      dup4\n        /* \"#utility.yul\":3794:3801   */\n      dup6\n        /* \"#utility.yul\":3790:3813   */\n      sub\n        /* \"#utility.yul\":3786:3818   */\n      slt\n        /* \"#utility.yul\":3783:3902   */\n      iszero\n      tag_183\n      jumpi\n        /* \"#utility.yul\":3821:3900   */\n      tag_184\n      tag_93\n      jump\t// in\n    tag_184:\n        /* \"#utility.yul\":3783:3902   */\n    tag_183:\n        /* \"#utility.yul\":3941:3942   */\n      0x00\n        /* \"#utility.yul\":3966:4019   */\n      tag_185\n        /* \"#utility.yul\":4011:4018   */\n      dup6\n        /* \"#utility.yul\":4002:4008   */\n      dup3\n        /* \"#utility.yul\":3991:4000   */\n      dup7\n        /* \"#utility.yul\":3987:4009   */\n      add\n        /* \"#utility.yul\":3966:4019   */\n      tag_97\n      jump\t// in\n    tag_185:\n        /* \"#utility.yul\":3956:4019   */\n      swap3\n      pop\n        /* \"#utility.yul\":3912:4029   */\n      pop\n        /* \"#utility.yul\":4068:4070   */\n      0x20\n        /* \"#utility.yul\":4094:4147   */\n      tag_186\n        /* \"#utility.yul\":4139:4146   */\n      dup6\n        /* \"#utility.yul\":4130:4136   */\n      dup3\n        /* \"#utility.yul\":4119:4128   */\n      dup7\n        /* \"#utility.yul\":4115:4137   */\n      add\n        /* \"#utility.yul\":4094:4147   */\n      tag_108\n      jump\t// in\n    tag_186:\n        /* \"#utility.yul\":4084:4147   */\n      swap2\n      pop\n        /* \"#utility.yul\":4039:4157   */\n      pop\n        /* \"#utility.yul\":3690:4164   */\n      swap3\n      pop\n      swap3\n      swap1\n      pop\n      jump\t// out\n        /* \"#utility.yul\":4170:4288   */\n    tag_109:\n        /* \"#utility.yul\":4257:4281   */\n      tag_188\n        /* \"#utility.yul\":4275:4280   */\n      dup2\n        /* \"#utility.yul\":4257:4281   */\n      tag_106\n      jump\t// in\n    tag_188:\n        /* \"#utility.yul\":4252:4255   */\n      dup3\n        /* \"#utility.yul\":4245:4282   */\n      mstore\n        /* \"#utility.yul\":4170:4288   */\n      pop\n      pop\n      jump\t// out\n        /* \"#utility.yul\":4294:4516   */\n    tag_20:\n        /* \"#utility.yul\":4387:4391   */\n      0x00\n        /* \"#utility.yul\":4425:4427   */\n      0x20\n        /* \"#utility.yul\":4414:4423   */\n      dup3\n        /* \"#utility.yul\":4410:4428   */\n      add\n        /* \"#utility.yul\":4402:4428   */\n      swap1\n      pop\n        /* \"#utility.yul\":4438:4509   */\n      tag_190\n        /* \"#utility.yul\":4506:4507   */\n      0x00\n        /* \"#utility.yul\":4495:4504   */\n      dup4\n        /* \"#utility.yul\":4491:4508   */\n      add\n        /* \"#utility.yul\":4482:4488   */\n      dup5\n        /* \"#utility.yul\":4438:4509   */\n      tag_109\n      jump\t// in\n    tag_190:\n        /* \"#utility.yul\":4294:4516   */\n      swap3\n      swap2\n      pop\n      pop\n      jump\t// out\n        /* \"#utility.yul\":4522:4851   */\n    tag_23:\n        /* \"#utility.yul\":4581:4587   */\n      0x00\n        /* \"#utility.yul\":4630:4632   */\n      0x20\n        /* \"#utility.yul\":4618:4627   */\n      dup3\n        /* \"#utility.yul\":4609:4616   */\n      dup5\n        /* \"#utility.yul\":4605:4628   */\n      sub\n        /* \"#utility.yul\":4601:4633   */\n      slt\n        /* \"#utility.yul\":4598:4717   */\n      iszero\n      tag_192\n      jumpi\n        /* \"#utility.yul\":4636:4715   */\n      tag_193\n      tag_93\n      jump\t// in\n    tag_193:\n        /* \"#utility.yul\":4598:4717   */\n    tag_192:\n        /* \"#utility.yul\":4756:4757   */\n      0x00\n        /* \"#utility.yul\":4781:4834   */\n      tag_194\n        /* \"#utility.yul\":4826:4833   */\n      dup5\n        /* \"#utility.yul\":4817:4823   */\n      dup3\n        /* \"#utility.yul\":4806:4815   */\n      dup6\n        /* \"#utility.yul\":4802:4824   */\n      add\n        /* \"#utility.yul\":4781:4834   */\n      tag_97\n      jump\t// in\n    tag_194:\n        /* \"#utility.yul\":4771:4834   */\n      swap2\n      pop\n        /* \"#utility.yul\":4727:4844   */\n      pop\n        /* \"#utility.yul\":4522:4851   */\n      swap3\n      swap2\n      pop\n      pop\n      jump\t// out\n        /* \"#utility.yul\":4857:4917   */\n    tag_110:\n        /* \"#utility.yul\":4885:4888   */\n      0x00\n        /* \"#utility.yul\":4906:4911   */\n      dup2\n        /* \"#utility.yul\":4899:4911   */\n      swap1\n      pop\n        /* \"#utility.yul\":4857:4917   */\n      swap2\n      swap1\n      pop\n      jump\t// out\n        /* \"#utility.yul\":4923:5065   */\n    tag_111:\n        /* \"#utility.yul\":4973:4982   */\n      0x00\n        /* \"#utility.yul\":5006:5059   */\n      tag_197\n        /* \"#utility.yul\":5024:5058   */\n      tag_198\n        /* \"#utility.yul\":5033:5057   */\n      tag_199\n        /* \"#utility.yul\":5051:5056   */\n      dup5\n        /* \"#utility.yul\":5033:5057   */\n      tag_105\n      jump\t// in\n    tag_199:\n        /* \"#utility.yul\":5024:5058   */\n      tag_110\n      jump\t// in\n    tag_198:\n        /* \"#utility.yul\":5006:5059   */\n      tag_105\n      jump\t// in\n    tag_197:\n        /* \"#utility.yul\":4993:5059   */\n      swap1\n      pop\n        /* \"#utility.yul\":4923:5065   */\n      swap2\n      swap1\n      pop\n      jump\t// out\n        /* \"#utility.yul\":5071:5197   */\n    tag_112:\n        /* \"#utility.yul\":5121:5130   */\n      0x00\n        /* \"#utility.yul\":5154:5191   */\n      tag_201\n        /* \"#utility.yul\":5185:5190   */\n      dup3\n        /* \"#utility.yul\":5154:5191   */\n      tag_111\n      jump\t// in\n    tag_201:\n        /* \"#utility.yul\":5141:5191   */\n      swap1\n      pop\n        /* \"#utility.yul\":5071:5197   */\n      swap2\n      swap1\n      pop\n      jump\t// out\n        /* \"#utility.yul\":5203:5357   */\n    tag_113:\n        /* \"#utility.yul\":5281:5290   */\n      0x00\n        /* \"#utility.yul\":5314:5351   */\n      tag_203\n        /* \"#utility.yul\":5345:5350   */\n      dup3\n        /* \"#utility.yul\":5314:5351   */\n      tag_112\n      jump\t// in\n    tag_203:\n        /* \"#utility.yul\":5301:5351   */\n      swap1\n      pop\n        /* \"#utility.yul\":5203:5357   */\n      swap2\n      swap1\n      pop\n      jump\t// out\n        /* \"#utility.yul\":5363:5550   */\n    tag_114:\n        /* \"#utility.yul\":5478:5543   */\n      tag_205\n        /* \"#utility.yul\":5537:5542   */\n      dup2\n        /* \"#utility.yul\":5478:5543   */\n      tag_113\n      jump\t// in\n    tag_205:\n        /* \"#utility.yul\":5473:5476   */\n      dup3\n        /* \"#utility.yul\":5466:5544   */\n      mstore\n        /* \"#utility.yul\":5363:5550   */\n      pop\n      pop\n      jump\t// out\n        /* \"#utility.yul\":5556:5834   */\n    tag_26:\n        /* \"#utility.yul\":5677:5681   */\n      0x00\n        /* \"#utility.yul\":5715:5717   */\n      0x20\n        /* \"#utility.yul\":5704:5713   */\n      dup3\n        /* \"#utility.yul\":5700:5718   */\n      add\n        /* \"#utility.yul\":5692:5718   */\n      swap1\n      pop\n        /* \"#utility.yul\":5728:5827   */\n      tag_207\n        /* \"#utility.yul\":5824:5825   */\n      0x00\n        /* \"#utility.yul\":5813:5822   */\n      dup4\n        /* \"#utility.yul\":5809:5826   */\n      add\n        /* \"#utility.yul\":5800:5806   */\n      dup5\n        /* \"#utility.yul\":5728:5827   */\n      tag_114\n      jump\t// in\n    tag_207:\n        /* \"#utility.yul\":5556:5834   */\n      swap3\n      swap2\n      pop\n      pop\n      jump\t// out\n        /* \"#utility.yul\":5840:6009   */\n    tag_115:\n        /* \"#utility.yul\":5924:5935   */\n      0x00\n        /* \"#utility.yul\":5958:5964   */\n      dup3\n        /* \"#utility.yul\":5953:5956   */\n      dup3\n        /* \"#utility.yul\":5946:5965   */\n      mstore\n        /* \"#utility.yul\":5998:6002   */\n      0x20\n        /* \"#utility.yul\":5993:5996   */\n      dup3\n        /* \"#utility.yul\":5989:6003   */\n      add\n        /* \"#utility.yul\":5974:6003   */\n      swap1\n      pop\n        /* \"#utility.yul\":5840:6009   */\n      swap3\n      swap2\n      pop\n      pop\n      jump\t// out\n        /* \"#utility.yul\":6015:6240   */\n    tag_116:\n        /* \"#utility.yul\":6155:6189   */\n      0x44656265206578697374697220756e6120736564652070617261206573612072\n        /* \"#utility.yul\":6151:6152   */\n      0x00\n        /* \"#utility.yul\":6143:6149   */\n      dup3\n        /* \"#utility.yul\":6139:6153   */\n      add\n        /* \"#utility.yul\":6132:6190   */\n      mstore\n        /* \"#utility.yul\":6224:6232   */\n      0x6567696f6e2e0000000000000000000000000000000000000000000000000000\n        /* \"#utility.yul\":6219:6221   */\n      0x20\n        /* \"#utility.yul\":6211:6217   */\n      dup3\n        /* \"#utility.yul\":6207:6222   */\n      add\n        /* \"#utility.yul\":6200:6233   */\n      mstore\n        /* \"#utility.yul\":6015:6240   */\n      pop\n      jump\t// out\n        /* \"#utility.yul\":6246:6612   */\n    tag_117:\n        /* \"#utility.yul\":6388:6391   */\n      0x00\n        /* \"#utility.yul\":6409:6476   */\n      tag_211\n        /* \"#utility.yul\":6473:6475   */\n      0x26\n        /* \"#utility.yul\":6468:6471   */\n      dup4\n        /* \"#utility.yul\":6409:6476   */\n      tag_115\n      jump\t// in\n    tag_211:\n        /* \"#utility.yul\":6402:6476   */\n      swap2\n      pop\n        /* \"#utility.yul\":6485:6578   */\n      tag_212\n        /* \"#utility.yul\":6574:6577   */\n      dup3\n        /* \"#utility.yul\":6485:6578   */\n      tag_116\n      jump\t// in\n    tag_212:\n        /* \"#utility.yul\":6603:6605   */\n      0x40\n        /* \"#utility.yul\":6598:6601   */\n      dup3\n        /* \"#utility.yul\":6594:6606   */\n      add\n        /* \"#utility.yul\":6587:6606   */\n      swap1\n      pop\n        /* \"#utility.yul\":6246:6612   */\n      swap2\n      swap1\n      pop\n      jump\t// out\n        /* \"#utility.yul\":6618:7037   */\n    tag_30:\n        /* \"#utility.yul\":6784:6788   */\n      0x00\n        /* \"#utility.yul\":6822:6824   */\n      0x20\n        /* \"#utility.yul\":6811:6820   */\n      dup3\n        /* \"#utility.yul\":6807:6825   */\n      add\n        /* \"#utility.yul\":6799:6825   */\n      swap1\n      pop\n        /* \"#utility.yul\":6871:6880   */\n      dup2\n        /* \"#utility.yul\":6865:6869   */\n      dup2\n        /* \"#utility.yul\":6861:6881   */\n      sub\n        /* \"#utility.yul\":6857:6858   */\n      0x00\n        /* \"#utility.yul\":6846:6855   */\n      dup4\n        /* \"#utility.yul\":6842:6859   */\n      add\n        /* \"#utility.yul\":6835:6882   */\n      mstore\n        /* \"#utility.yul\":6899:7030   */\n      tag_214\n        /* \"#utility.yul\":7025:7029   */\n      dup2\n        /* \"#utility.yul\":6899:7030   */\n      tag_117\n      jump\t// in\n    tag_214:\n        /* \"#utility.yul\":6891:7030   */\n      swap1\n      pop\n        /* \"#utility.yul\":6618:7037   */\n      swap2\n      swap1\n      pop\n      jump\t// out\n        /* \"#utility.yul\":7043:7274   */\n    tag_118:\n        /* \"#utility.yul\":7183:7217   */\n      0x456c20766f74616e746520796120686120656a65726369646f20737520646572\n        /* \"#utility.yul\":7179:7180   */\n      0x00\n        /* \"#utility.yul\":7171:7177   */\n      dup3\n        /* \"#utility.yul\":7167:7181   */\n      add\n        /* \"#utility.yul\":7160:7218   */\n      mstore\n        /* \"#utility.yul\":7252:7266   */\n      0x6563686f206120766f746f2e0000000000000000000000000000000000000000\n        /* \"#utility.yul\":7247:7249   */\n      0x20\n        /* \"#utility.yul\":7239:7245   */\n      dup3\n        /* \"#utility.yul\":7235:7250   */\n      add\n        /* \"#utility.yul\":7228:7267   */\n      mstore\n        /* \"#utility.yul\":7043:7274   */\n      pop\n      jump\t// out\n        /* \"#utility.yul\":7280:7646   */\n    tag_119:\n        /* \"#utility.yul\":7422:7425   */\n      0x00\n        /* \"#utility.yul\":7443:7510   */\n      tag_217\n        /* \"#utility.yul\":7507:7509   */\n      0x2c\n        /* \"#utility.yul\":7502:7505   */\n      dup4\n        /* \"#utility.yul\":7443:7510   */\n      tag_115\n      jump\t// in\n    tag_217:\n        /* \"#utility.yul\":7436:7510   */\n      swap2\n      pop\n        /* \"#utility.yul\":7519:7612   */\n      tag_218\n        /* \"#utility.yul\":7608:7611   */\n      dup3\n        /* \"#utility.yul\":7519:7612   */\n      tag_118\n      jump\t// in\n    tag_218:\n        /* \"#utility.yul\":7637:7639   */\n      0x40\n        /* \"#utility.yul\":7632:7635   */\n      dup3\n        /* \"#utility.yul\":7628:7640   */\n      add\n        /* \"#utility.yul\":7621:7640   */\n      swap1\n      pop\n        /* \"#utility.yul\":7280:7646   */\n      swap2\n      swap1\n      pop\n      jump\t// out\n        /* \"#utility.yul\":7652:8071   */\n    tag_34:\n        /* \"#utility.yul\":7818:7822   */\n      0x00\n        /* \"#utility.yul\":7856:7858   */\n      0x20\n        /* \"#utility.yul\":7845:7854   */\n      dup3\n        /* \"#utility.yul\":7841:7859   */\n      add\n        /* \"#utility.yul\":7833:7859   */\n      swap1\n      pop\n        /* \"#utility.yul\":7905:7914   */\n      dup2\n        /* \"#utility.yul\":7899:7903   */\n      dup2\n        /* \"#utility.yul\":7895:7915   */\n      sub\n        /* \"#utility.yul\":7891:7892   */\n      0x00\n        /* \"#utility.yul\":7880:7889   */\n      dup4\n        /* \"#utility.yul\":7876:7893   */\n      add\n        /* \"#utility.yul\":7869:7916   */\n      mstore\n        /* \"#utility.yul\":7933:8064   */\n      tag_220\n        /* \"#utility.yul\":8059:8063   */\n      dup2\n        /* \"#utility.yul\":7933:8064   */\n      tag_119\n      jump\t// in\n    tag_220:\n        /* \"#utility.yul\":7925:8064   */\n      swap1\n      pop\n        /* \"#utility.yul\":7652:8071   */\n      swap2\n      swap1\n      pop\n      jump\t// out\n        /* \"#utility.yul\":8077:8195   */\n    tag_120:\n        /* \"#utility.yul\":8164:8188   */\n      tag_222\n        /* \"#utility.yul\":8182:8187   */\n      dup2\n        /* \"#utility.yul\":8164:8188   */\n      tag_95\n      jump\t// in\n    tag_222:\n        /* \"#utility.yul\":8159:8162   */\n      dup3\n        /* \"#utility.yul\":8152:8189   */\n      mstore\n        /* \"#utility.yul\":8077:8195   */\n      pop\n      pop\n      jump\t// out\n        /* \"#utility.yul\":8201:8423   */\n    tag_36:\n        /* \"#utility.yul\":8294:8298   */\n      0x00\n        /* \"#utility.yul\":8332:8334   */\n      0x20\n        /* \"#utility.yul\":8321:8330   */\n      dup3\n        /* \"#utility.yul\":8317:8335   */\n      add\n        /* \"#utility.yul\":8309:8335   */\n      swap1\n      pop\n        /* \"#utility.yul\":8345:8416   */\n      tag_224\n        /* \"#utility.yul\":8413:8414   */\n      0x00\n        /* \"#utility.yul\":8402:8411   */\n      dup4\n        /* \"#utility.yul\":8398:8415   */\n      add\n        /* \"#utility.yul\":8389:8395   */\n      dup5\n        /* \"#utility.yul\":8345:8416   */\n      tag_120\n      jump\t// in\n    tag_224:\n        /* \"#utility.yul\":8201:8423   */\n      swap3\n      swap2\n      pop\n      pop\n      jump\t// out\n        /* \"#utility.yul\":8429:8670   */\n    tag_121:\n        /* \"#utility.yul\":8569:8603   */\n      0x536f6c6f206c61206175746f7269646164207075656465206c6c656761722061\n        /* \"#utility.yul\":8565:8566   */\n      0x00\n        /* \"#utility.yul\":8557:8563   */\n      dup3\n        /* \"#utility.yul\":8553:8567   */\n      add\n        /* \"#utility.yul\":8546:8604   */\n      mstore\n        /* \"#utility.yul\":8638:8662   */\n      0x20656a65637574617220657374612066756e63696f6e00000000000000000000\n        /* \"#utility.yul\":8633:8635   */\n      0x20\n        /* \"#utility.yul\":8625:8631   */\n      dup3\n        /* \"#utility.yul\":8621:8636   */\n      add\n        /* \"#utility.yul\":8614:8663   */\n      mstore\n        /* \"#utility.yul\":8429:8670   */\n      pop\n      jump\t// out\n        /* \"#utility.yul\":8676:9042   */\n    tag_122:\n        /* \"#utility.yul\":8818:8821   */\n      0x00\n        /* \"#utility.yul\":8839:8906   */\n      tag_227\n        /* \"#utility.yul\":8903:8905   */\n      0x36\n        /* \"#utility.yul\":8898:8901   */\n      dup4\n        /* \"#utility.yul\":8839:8906   */\n      tag_115\n      jump\t// in\n    tag_227:\n        /* \"#utility.yul\":8832:8906   */\n      swap2\n      pop\n        /* \"#utility.yul\":8915:9008   */\n      tag_228\n        /* \"#utility.yul\":9004:9007   */\n      dup3\n        /* \"#utility.yul\":8915:9008   */\n      tag_121\n      jump\t// in\n    tag_228:\n        /* \"#utility.yul\":9033:9035   */\n      0x40\n        /* \"#utility.yul\":9028:9031   */\n      dup3\n        /* \"#utility.yul\":9024:9036   */\n      add\n        /* \"#utility.yul\":9017:9036   */\n      swap1\n      pop\n        /* \"#utility.yul\":8676:9042   */\n      swap2\n      swap1\n      pop\n      jump\t// out\n        /* \"#utility.yul\":9048:9467   */\n    tag_43:\n        /* \"#utility.yul\":9214:9218   */\n      0x00\n        /* \"#utility.yul\":9252:9254   */\n      0x20\n        /* \"#utility.yul\":9241:9250   */\n      dup3\n        /* \"#utility.yul\":9237:9255   */\n      add\n        /* \"#utility.yul\":9229:9255   */\n      swap1\n      pop\n        /* \"#utility.yul\":9301:9310   */\n      dup2\n        /* \"#utility.yul\":9295:9299   */\n      dup2\n        /* \"#utility.yul\":9291:9311   */\n      sub\n        /* \"#utility.yul\":9287:9288   */\n      0x00\n        /* \"#utility.yul\":9276:9285   */\n      dup4\n        /* \"#utility.yul\":9272:9289   */\n      add\n        /* \"#utility.yul\":9265:9312   */\n      mstore\n        /* \"#utility.yul\":9329:9460   */\n      tag_230\n        /* \"#utility.yul\":9455:9459   */\n      dup2\n        /* \"#utility.yul\":9329:9460   */\n      tag_122\n      jump\t// in\n    tag_230:\n        /* \"#utility.yul\":9321:9460   */\n      swap1\n      pop\n        /* \"#utility.yul\":9048:9467   */\n      swap2\n      swap1\n      pop\n      jump\t// out\n        /* \"#utility.yul\":9473:9653   */\n    tag_47:\n        /* \"#utility.yul\":9521:9598   */\n      0x4e487b7100000000000000000000000000000000000000000000000000000000\n        /* \"#utility.yul\":9518:9519   */\n      0x00\n        /* \"#utility.yul\":9511:9599   */\n      mstore\n        /* \"#utility.yul\":9618:9622   */\n      0x41\n        /* \"#utility.yul\":9615:9616   */\n      0x04\n        /* \"#utility.yul\":9608:9623   */\n      mstore\n        /* \"#utility.yul\":9642:9646   */\n      0x24\n        /* \"#utility.yul\":9639:9640   */\n      0x00\n        /* \"#utility.yul\":9632:9647   */\n      revert\n        /* \"#utility.yul\":9659:9839   */\n    tag_54:\n        /* \"#utility.yul\":9707:9784   */\n      0x4e487b7100000000000000000000000000000000000000000000000000000000\n        /* \"#utility.yul\":9704:9705   */\n      0x00\n        /* \"#utility.yul\":9697:9785   */\n      mstore\n        /* \"#utility.yul\":9804:9808   */\n      0x32\n        /* \"#utility.yul\":9801:9802   */\n      0x04\n        /* \"#utility.yul\":9794:9809   */\n      mstore\n        /* \"#utility.yul\":9828:9832   */\n      0x24\n        /* \"#utility.yul\":9825:9826   */\n      0x00\n        /* \"#utility.yul\":9818:9833   */\n      revert\n        /* \"#utility.yul\":9845:9935   */\n    tag_123:\n        /* \"#utility.yul\":9879:9886   */\n      0x00\n        /* \"#utility.yul\":9922:9927   */\n      dup2\n        /* \"#utility.yul\":9915:9928   */\n      iszero\n        /* \"#utility.yul\":9908:9929   */\n      iszero\n        /* \"#utility.yul\":9897:9929   */\n      swap1\n      pop\n        /* \"#utility.yul\":9845:9935   */\n      swap2\n      swap1\n      pop\n      jump\t// out\n        /* \"#utility.yul\":9941:10057   */\n    tag_124:\n        /* \"#utility.yul\":10011:10032   */\n      tag_235\n        /* \"#utility.yul\":10026:10031   */\n      dup2\n        /* \"#utility.yul\":10011:10032   */\n      tag_123\n      jump\t// in\n    tag_235:\n        /* \"#utility.yul\":10004:10009   */\n      dup2\n        /* \"#utility.yul\":10001:10033   */\n      eq\n        /* \"#utility.yul\":9991:10051   */\n      tag_236\n      jumpi\n        /* \"#utility.yul\":10047:10048   */\n      0x00\n        /* \"#utility.yul\":10044:10045   */\n      dup1\n        /* \"#utility.yul\":10037:10049   */\n      revert\n        /* \"#utility.yul\":9991:10051   */\n    tag_236:\n        /* \"#utility.yul\":9941:10057   */\n      pop\n      jump\t// out\n        /* \"#utility.yul\":10063:10200   */\n    tag_125:\n        /* \"#utility.yul\":10117:10122   */\n      0x00\n        /* \"#utility.yul\":10148:10154   */\n      dup2\n        /* \"#utility.yul\":10142:10155   */\n      mload\n        /* \"#utility.yul\":10133:10155   */\n      swap1\n      pop\n        /* \"#utility.yul\":10164:10194   */\n      tag_238\n        /* \"#utility.yul\":10188:10193   */\n      dup2\n        /* \"#utility.yul\":10164:10194   */\n      tag_124\n      jump\t// in\n    tag_238:\n        /* \"#utility.yul\":10063:10200   */\n      swap3\n      swap2\n      pop\n      pop\n      jump\t// out\n        /* \"#utility.yul\":10206:10551   */\n    tag_62:\n        /* \"#utility.yul\":10273:10279   */\n      0x00\n        /* \"#utility.yul\":10322:10324   */\n      0x20\n        /* \"#utility.yul\":10310:10319   */\n      dup3\n        /* \"#utility.yul\":10301:10308   */\n      dup5\n        /* \"#utility.yul\":10297:10320   */\n      sub\n        /* \"#utility.yul\":10293:10325   */\n      slt\n        /* \"#utility.yul\":10290:10409   */\n      iszero\n      tag_240\n      jumpi\n        /* \"#utility.yul\":10328:10407   */\n      tag_241\n      tag_93\n      jump\t// in\n    tag_241:\n        /* \"#utility.yul\":10290:10409   */\n    tag_240:\n        /* \"#utility.yul\":10448:10449   */\n      0x00\n        /* \"#utility.yul\":10473:10534   */\n      tag_242\n        /* \"#utility.yul\":10526:10533   */\n      dup5\n        /* \"#utility.yul\":10517:10523   */\n      dup3\n        /* \"#utility.yul\":10506:10515   */\n      dup6\n        /* \"#utility.yul\":10502:10524   */\n      add\n        /* \"#utility.yul\":10473:10534   */\n      tag_125\n      jump\t// in\n    tag_242:\n        /* \"#utility.yul\":10463:10534   */\n      swap2\n      pop\n        /* \"#utility.yul\":10419:10544   */\n      pop\n        /* \"#utility.yul\":10206:10551   */\n      swap3\n      swap2\n      pop\n      pop\n      jump\t// out\n        /* \"#utility.yul\":10557:10789   */\n    tag_126:\n        /* \"#utility.yul\":10697:10731   */\n      0x556e61206f206d6173207365646573206e6f2068616e207465726d696e61646f\n        /* \"#utility.yul\":10693:10694   */\n      0x00\n        /* \"#utility.yul\":10685:10691   */\n      dup3\n        /* \"#utility.yul\":10681:10695   */\n      add\n        /* \"#utility.yul\":10674:10732   */\n      mstore\n        /* \"#utility.yul\":10766:10781   */\n      0x206c6120766f746163696f6e2e00000000000000000000000000000000000000\n        /* \"#utility.yul\":10761:10763   */\n      0x20\n        /* \"#utility.yul\":10753:10759   */\n      dup3\n        /* \"#utility.yul\":10749:10764   */\n      add\n        /* \"#utility.yul\":10742:10782   */\n      mstore\n        /* \"#utility.yul\":10557:10789   */\n      pop\n      jump\t// out\n        /* \"#utility.yul\":10795:11161   */\n    tag_127:\n        /* \"#utility.yul\":10937:10940   */\n      0x00\n        /* \"#utility.yul\":10958:11025   */\n      tag_245\n        /* \"#utility.yul\":11022:11024   */\n      0x2d\n        /* \"#utility.yul\":11017:11020   */\n      dup4\n        /* \"#utility.yul\":10958:11025   */\n      tag_115\n      jump\t// in\n    tag_245:\n        /* \"#utility.yul\":10951:11025   */\n      swap2\n      pop\n        /* \"#utility.yul\":11034:11127   */\n      tag_246\n        /* \"#utility.yul\":11123:11126   */\n      dup3\n        /* \"#utility.yul\":11034:11127   */\n      tag_126\n      jump\t// in\n    tag_246:\n        /* \"#utility.yul\":11152:11154   */\n      0x40\n        /* \"#utility.yul\":11147:11150   */\n      dup3\n        /* \"#utility.yul\":11143:11155   */\n      add\n        /* \"#utility.yul\":11136:11155   */\n      swap1\n      pop\n        /* \"#utility.yul\":10795:11161   */\n      swap2\n      swap1\n      pop\n      jump\t// out\n        /* \"#utility.yul\":11167:11586   */\n    tag_65:\n        /* \"#utility.yul\":11333:11337   */\n      0x00\n        /* \"#utility.yul\":11371:11373   */\n      0x20\n        /* \"#utility.yul\":11360:11369   */\n      dup3\n        /* \"#utility.yul\":11356:11374   */\n      add\n        /* \"#utility.yul\":11348:11374   */\n      swap1\n      pop\n        /* \"#utility.yul\":11420:11429   */\n      dup2\n        /* \"#utility.yul\":11414:11418   */\n      dup2\n        /* \"#utility.yul\":11410:11430   */\n      sub\n        /* \"#utility.yul\":11406:11407   */\n      0x00\n        /* \"#utility.yul\":11395:11404   */\n      dup4\n        /* \"#utility.yul\":11391:11408   */\n      add\n        /* \"#utility.yul\":11384:11431   */\n      mstore\n        /* \"#utility.yul\":11448:11579   */\n      tag_248\n        /* \"#utility.yul\":11574:11578   */\n      dup2\n        /* \"#utility.yul\":11448:11579   */\n      tag_127\n      jump\t// in\n    tag_248:\n        /* \"#utility.yul\":11440:11579   */\n      swap1\n      pop\n        /* \"#utility.yul\":11167:11586   */\n      swap2\n      swap1\n      pop\n      jump\t// out\n        /* \"#utility.yul\":11592:11709   */\n    tag_128:\n        /* \"#utility.yul\":11701:11702   */\n      0x00\n        /* \"#utility.yul\":11698:11699   */\n      dup1\n        /* \"#utility.yul\":11691:11703   */\n      revert\n        /* \"#utility.yul\":11715:11817   */\n    tag_129:\n        /* \"#utility.yul\":11756:11762   */\n      0x00\n        /* \"#utility.yul\":11807:11809   */\n      0x1f\n        /* \"#utility.yul\":11803:11810   */\n      not\n        /* \"#utility.yul\":11798:11800   */\n      0x1f\n        /* \"#utility.yul\":11791:11796   */\n      dup4\n        /* \"#utility.yul\":11787:11801   */\n      add\n        /* \"#utility.yul\":11783:11811   */\n      and\n        /* \"#utility.yul\":11773:11811   */\n      swap1\n      pop\n        /* \"#utility.yul\":11715:11817   */\n      swap2\n      swap1\n      pop\n      jump\t// out\n        /* \"#utility.yul\":11823:12104   */\n    tag_130:\n        /* \"#utility.yul\":11906:11933   */\n      tag_252\n        /* \"#utility.yul\":11928:11932   */\n      dup3\n        /* \"#utility.yul\":11906:11933   */\n      tag_129\n      jump\t// in\n    tag_252:\n        /* \"#utility.yul\":11898:11904   */\n      dup2\n        /* \"#utility.yul\":11894:11934   */\n      add\n        /* \"#utility.yul\":12036:12042   */\n      dup2\n        /* \"#utility.yul\":12024:12034   */\n      dup2\n        /* \"#utility.yul\":12021:12043   */\n      lt\n        /* \"#utility.yul\":12000:12018   */\n      0xffffffffffffffff\n        /* \"#utility.yul\":11988:11998   */\n      dup3\n        /* \"#utility.yul\":11985:12019   */\n      gt\n        /* \"#utility.yul\":11982:12044   */\n      or\n        /* \"#utility.yul\":11979:12067   */\n      iszero\n      tag_253\n      jumpi\n        /* \"#utility.yul\":12047:12065   */\n      tag_254\n      tag_47\n      jump\t// in\n    tag_254:\n        /* \"#utility.yul\":11979:12067   */\n    tag_253:\n        /* \"#utility.yul\":12087:12097   */\n      dup1\n        /* \"#utility.yul\":12083:12085   */\n      0x40\n        /* \"#utility.yul\":12076:12098   */\n      mstore\n        /* \"#utility.yul\":11866:12104   */\n      pop\n        /* \"#utility.yul\":11823:12104   */\n      pop\n      pop\n      jump\t// out\n        /* \"#utility.yul\":12110:12239   */\n    tag_131:\n        /* \"#utility.yul\":12144:12150   */\n      0x00\n        /* \"#utility.yul\":12171:12191   */\n      tag_256\n      tag_92\n      jump\t// in\n    tag_256:\n        /* \"#utility.yul\":12161:12191   */\n      swap1\n      pop\n        /* \"#utility.yul\":12200:12233   */\n      tag_257\n        /* \"#utility.yul\":12228:12232   */\n      dup3\n        /* \"#utility.yul\":12220:12226   */\n      dup3\n        /* \"#utility.yul\":12200:12233   */\n      tag_130\n      jump\t// in\n    tag_257:\n        /* \"#utility.yul\":12110:12239   */\n      swap2\n      swap1\n      pop\n      jump\t// out\n        /* \"#utility.yul\":12245:12556   */\n    tag_132:\n        /* \"#utility.yul\":12322:12326   */\n      0x00\n        /* \"#utility.yul\":12412:12430   */\n      0xffffffffffffffff\n        /* \"#utility.yul\":12404:12410   */\n      dup3\n        /* \"#utility.yul\":12401:12431   */\n      gt\n        /* \"#utility.yul\":12398:12454   */\n      iszero\n      tag_259\n      jumpi\n        /* \"#utility.yul\":12434:12452   */\n      tag_260\n      tag_47\n      jump\t// in\n    tag_260:\n        /* \"#utility.yul\":12398:12454   */\n    tag_259:\n        /* \"#utility.yul\":12484:12488   */\n      0x20\n        /* \"#utility.yul\":12476:12482   */\n      dup3\n        /* \"#utility.yul\":12472:12489   */\n      mul\n        /* \"#utility.yul\":12464:12489   */\n      swap1\n      pop\n        /* \"#utility.yul\":12544:12548   */\n      0x20\n        /* \"#utility.yul\":12538:12542   */\n      dup2\n        /* \"#utility.yul\":12534:12549   */\n      add\n        /* \"#utility.yul\":12526:12549   */\n      swap1\n      pop\n        /* \"#utility.yul\":12245:12556   */\n      swap2\n      swap1\n      pop\n      jump\t// out\n        /* \"#utility.yul\":12562:12679   */\n    tag_133:\n        /* \"#utility.yul\":12671:12672   */\n      0x00\n        /* \"#utility.yul\":12668:12669   */\n      dup1\n        /* \"#utility.yul\":12661:12673   */\n      revert\n        /* \"#utility.yul\":12685:12828   */\n    tag_134:\n        /* \"#utility.yul\":12742:12747   */\n      0x00\n        /* \"#utility.yul\":12773:12779   */\n      dup2\n        /* \"#utility.yul\":12767:12780   */\n      mload\n        /* \"#utility.yul\":12758:12780   */\n      swap1\n      pop\n        /* \"#utility.yul\":12789:12822   */\n      tag_263\n        /* \"#utility.yul\":12816:12821   */\n      dup2\n        /* \"#utility.yul\":12789:12822   */\n      tag_96\n      jump\t// in\n    tag_263:\n        /* \"#utility.yul\":12685:12828   */\n      swap3\n      swap2\n      pop\n      pop\n      jump\t// out\n        /* \"#utility.yul\":12851:13583   */\n    tag_135:\n        /* \"#utility.yul\":12958:12963   */\n      0x00\n        /* \"#utility.yul\":12983:13064   */\n      tag_265\n        /* \"#utility.yul\":12999:13063   */\n      tag_266\n        /* \"#utility.yul\":13056:13062   */\n      dup5\n        /* \"#utility.yul\":12999:13063   */\n      tag_132\n      jump\t// in\n    tag_266:\n        /* \"#utility.yul\":12983:13064   */\n      tag_131\n      jump\t// in\n    tag_265:\n        /* \"#utility.yul\":12974:13064   */\n      swap1\n      pop\n        /* \"#utility.yul\":13084:13089   */\n      dup1\n        /* \"#utility.yul\":13113:13119   */\n      dup4\n        /* \"#utility.yul\":13106:13111   */\n      dup3\n        /* \"#utility.yul\":13099:13120   */\n      mstore\n        /* \"#utility.yul\":13147:13151   */\n      0x20\n        /* \"#utility.yul\":13140:13145   */\n      dup3\n        /* \"#utility.yul\":13136:13152   */\n      add\n        /* \"#utility.yul\":13129:13152   */\n      swap1\n      pop\n        /* \"#utility.yul\":13200:13204   */\n      0x20\n        /* \"#utility.yul\":13192:13198   */\n      dup5\n        /* \"#utility.yul\":13188:13205   */\n      mul\n        /* \"#utility.yul\":13180:13186   */\n      dup4\n        /* \"#utility.yul\":13176:13206   */\n      add\n        /* \"#utility.yul\":13229:13232   */\n      dup6\n        /* \"#utility.yul\":13221:13227   */\n      dup2\n        /* \"#utility.yul\":13218:13233   */\n      gt\n        /* \"#utility.yul\":13215:13337   */\n      iszero\n      tag_267\n      jumpi\n        /* \"#utility.yul\":13248:13327   */\n      tag_268\n      tag_133\n      jump\t// in\n    tag_268:\n        /* \"#utility.yul\":13215:13337   */\n    tag_267:\n        /* \"#utility.yul\":13363:13369   */\n      dup4\n        /* \"#utility.yul\":13346:13577   */\n    tag_269:\n        /* \"#utility.yul\":13380:13386   */\n      dup2\n        /* \"#utility.yul\":13375:13378   */\n      dup2\n        /* \"#utility.yul\":13372:13387   */\n      lt\n        /* \"#utility.yul\":13346:13577   */\n      iszero\n      tag_271\n      jumpi\n        /* \"#utility.yul\":13455:13458   */\n      dup1\n        /* \"#utility.yul\":13484:13532   */\n      tag_272\n        /* \"#utility.yul\":13528:13531   */\n      dup9\n        /* \"#utility.yul\":13516:13526   */\n      dup3\n        /* \"#utility.yul\":13484:13532   */\n      tag_134\n      jump\t// in\n    tag_272:\n        /* \"#utility.yul\":13479:13482   */\n      dup5\n        /* \"#utility.yul\":13472:13533   */\n      mstore\n        /* \"#utility.yul\":13562:13566   */\n      0x20\n        /* \"#utility.yul\":13557:13560   */\n      dup5\n        /* \"#utility.yul\":13553:13567   */\n      add\n        /* \"#utility.yul\":13546:13567   */\n      swap4\n      pop\n        /* \"#utility.yul\":13422:13577   */\n      pop\n        /* \"#utility.yul\":13406:13410   */\n      0x20\n        /* \"#utility.yul\":13401:13404   */\n      dup2\n        /* \"#utility.yul\":13397:13411   */\n      add\n        /* \"#utility.yul\":13390:13411   */\n      swap1\n      pop\n        /* \"#utility.yul\":13346:13577   */\n      jump(tag_269)\n    tag_271:\n        /* \"#utility.yul\":13350:13371   */\n      pop\n        /* \"#utility.yul\":12964:13583   */\n      pop\n      pop\n        /* \"#utility.yul\":12851:13583   */\n      swap4\n      swap3\n      pop\n      pop\n      pop\n      jump\t// out\n        /* \"#utility.yul\":13606:13991   */\n    tag_136:\n        /* \"#utility.yul\":13688:13693   */\n      0x00\n        /* \"#utility.yul\":13737:13740   */\n      dup3\n        /* \"#utility.yul\":13730:13734   */\n      0x1f\n        /* \"#utility.yul\":13722:13728   */\n      dup4\n        /* \"#utility.yul\":13718:13735   */\n      add\n        /* \"#utility.yul\":13714:13741   */\n      slt\n        /* \"#utility.yul\":13704:13826   */\n      tag_274\n      jumpi\n        /* \"#utility.yul\":13745:13824   */\n      tag_275\n      tag_128\n      jump\t// in\n    tag_275:\n        /* \"#utility.yul\":13704:13826   */\n    tag_274:\n        /* \"#utility.yul\":13855:13861   */\n      dup2\n        /* \"#utility.yul\":13849:13862   */\n      mload\n        /* \"#utility.yul\":13880:13985   */\n      tag_276\n        /* \"#utility.yul\":13981:13984   */\n      dup5\n        /* \"#utility.yul\":13973:13979   */\n      dup3\n        /* \"#utility.yul\":13966:13970   */\n      0x20\n        /* \"#utility.yul\":13958:13964   */\n      dup7\n        /* \"#utility.yul\":13954:13971   */\n      add\n        /* \"#utility.yul\":13880:13985   */\n      tag_135\n      jump\t// in\n    tag_276:\n        /* \"#utility.yul\":13871:13985   */\n      swap2\n      pop\n        /* \"#utility.yul\":13694:13991   */\n      pop\n        /* \"#utility.yul\":13606:13991   */\n      swap3\n      swap2\n      pop\n      pop\n      jump\t// out\n        /* \"#utility.yul\":13997:14551   */\n    tag_69:\n        /* \"#utility.yul\":14092:14098   */\n      0x00\n        /* \"#utility.yul\":14141:14143   */\n      0x20\n        /* \"#utility.yul\":14129:14138   */\n      dup3\n        /* \"#utility.yul\":14120:14127   */\n      dup5\n        /* \"#utility.yul\":14116:14139   */\n      sub\n        /* \"#utility.yul\":14112:14144   */\n      slt\n        /* \"#utility.yul\":14109:14228   */\n      iszero\n      tag_278\n      jumpi\n        /* \"#utility.yul\":14147:14226   */\n      tag_279\n      tag_93\n      jump\t// in\n    tag_279:\n        /* \"#utility.yul\":14109:14228   */\n    tag_278:\n        /* \"#utility.yul\":14288:14289   */\n      0x00\n        /* \"#utility.yul\":14277:14286   */\n      dup3\n        /* \"#utility.yul\":14273:14290   */\n      add\n        /* \"#utility.yul\":14267:14291   */\n      mload\n        /* \"#utility.yul\":14318:14336   */\n      0xffffffffffffffff\n        /* \"#utility.yul\":14310:14316   */\n      dup2\n        /* \"#utility.yul\":14307:14337   */\n      gt\n        /* \"#utility.yul\":14304:14421   */\n      iszero\n      tag_280\n      jumpi\n        /* \"#utility.yul\":14340:14419   */\n      tag_281\n      tag_94\n      jump\t// in\n    tag_281:\n        /* \"#utility.yul\":14304:14421   */\n    tag_280:\n        /* \"#utility.yul\":14445:14534   */\n      tag_282\n        /* \"#utility.yul\":14526:14533   */\n      dup5\n        /* \"#utility.yul\":14517:14523   */\n      dup3\n        /* \"#utility.yul\":14506:14515   */\n      dup6\n        /* \"#utility.yul\":14502:14524   */\n      add\n        /* \"#utility.yul\":14445:14534   */\n      tag_136\n      jump\t// in\n    tag_282:\n        /* \"#utility.yul\":14435:14534   */\n      swap2\n      pop\n        /* \"#utility.yul\":14238:14544   */\n      pop\n        /* \"#utility.yul\":13997:14551   */\n      swap3\n      swap2\n      pop\n      pop\n      jump\t// out\n        /* \"#utility.yul\":14557:14737   */\n    tag_137:\n        /* \"#utility.yul\":14605:14682   */\n      0x4e487b7100000000000000000000000000000000000000000000000000000000\n        /* \"#utility.yul\":14602:14603   */\n      0x00\n        /* \"#utility.yul\":14595:14683   */\n      mstore\n        /* \"#utility.yul\":14702:14706   */\n      0x11\n        /* \"#utility.yul\":14699:14700   */\n      0x04\n        /* \"#utility.yul\":14692:14707   */\n      mstore\n        /* \"#utility.yul\":14726:14730   */\n      0x24\n        /* \"#utility.yul\":14723:14724   */\n      0x00\n        /* \"#utility.yul\":14716:14731   */\n      revert\n        /* \"#utility.yul\":14743:14934   */\n    tag_78:\n        /* \"#utility.yul\":14783:14786   */\n      0x00\n        /* \"#utility.yul\":14802:14822   */\n      tag_285\n        /* \"#utility.yul\":14820:14821   */\n      dup3\n        /* \"#utility.yul\":14802:14822   */\n      tag_95\n      jump\t// in\n    tag_285:\n        /* \"#utility.yul\":14797:14822   */\n      swap2\n      pop\n        /* \"#utility.yul\":14836:14856   */\n      tag_286\n        /* \"#utility.yul\":14854:14855   */\n      dup4\n        /* \"#utility.yul\":14836:14856   */\n      tag_95\n      jump\t// in\n    tag_286:\n        /* \"#utility.yul\":14831:14856   */\n      swap3\n      pop\n        /* \"#utility.yul\":14879:14880   */\n      dup3\n        /* \"#utility.yul\":14876:14877   */\n      dup3\n        /* \"#utility.yul\":14872:14881   */\n      add\n        /* \"#utility.yul\":14865:14881   */\n      swap1\n      pop\n        /* \"#utility.yul\":14900:14903   */\n      dup1\n        /* \"#utility.yul\":14897:14898   */\n      dup3\n        /* \"#utility.yul\":14894:14904   */\n      gt\n        /* \"#utility.yul\":14891:14927   */\n      iszero\n      tag_287\n      jumpi\n        /* \"#utility.yul\":14907:14925   */\n      tag_288\n      tag_137\n      jump\t// in\n    tag_288:\n        /* \"#utility.yul\":14891:14927   */\n    tag_287:\n        /* \"#utility.yul\":14743:14934   */\n      swap3\n      swap2\n      pop\n      pop\n      jump\t// out\n        /* \"#utility.yul\":14940:15162   */\n    tag_138:\n        /* \"#utility.yul\":15080:15114   */\n      0x59612065786973746520756e6120736564652070617261206573612072656769\n        /* \"#utility.yul\":15076:15077   */\n      0x00\n        /* \"#utility.yul\":15068:15074   */\n      dup3\n        /* \"#utility.yul\":15064:15078   */\n      add\n        /* \"#utility.yul\":15057:15115   */\n      mstore\n        /* \"#utility.yul\":15149:15154   */\n      0x6f6e2e0000000000000000000000000000000000000000000000000000000000\n        /* \"#utility.yul\":15144:15146   */\n      0x20\n        /* \"#utility.yul\":15136:15142   */\n      dup3\n        /* \"#utility.yul\":15132:15147   */\n      add\n        /* \"#utility.yul\":15125:15155   */\n      mstore\n        /* \"#utility.yul\":14940:15162   */\n      pop\n      jump\t// out\n        /* \"#utility.yul\":15168:15534   */\n    tag_139:\n        /* \"#utility.yul\":15310:15313   */\n      0x00\n        /* \"#utility.yul\":15331:15398   */\n      tag_291\n        /* \"#utility.yul\":15395:15397   */\n      0x23\n        /* \"#utility.yul\":15390:15393   */\n      dup4\n        /* \"#utility.yul\":15331:15398   */\n      tag_115\n      jump\t// in\n    tag_291:\n        /* \"#utility.yul\":15324:15398   */\n      swap2\n      pop\n        /* \"#utility.yul\":15407:15500   */\n      tag_292\n        /* \"#utility.yul\":15496:15499   */\n      dup3\n        /* \"#utility.yul\":15407:15500   */\n      tag_138\n      jump\t// in\n    tag_292:\n        /* \"#utility.yul\":15525:15527   */\n      0x40\n        /* \"#utility.yul\":15520:15523   */\n      dup3\n        /* \"#utility.yul\":15516:15528   */\n      add\n        /* \"#utility.yul\":15509:15528   */\n      swap1\n      pop\n        /* \"#utility.yul\":15168:15534   */\n      swap2\n      swap1\n      pop\n      jump\t// out\n        /* \"#utility.yul\":15540:15959   */\n    tag_85:\n        /* \"#utility.yul\":15706:15710   */\n      0x00\n        /* \"#utility.yul\":15744:15746   */\n      0x20\n        /* \"#utility.yul\":15733:15742   */\n      dup3\n        /* \"#utility.yul\":15729:15747   */\n      add\n        /* \"#utility.yul\":15721:15747   */\n      swap1\n      pop\n        /* \"#utility.yul\":15793:15802   */\n      dup2\n        /* \"#utility.yul\":15787:15791   */\n      dup2\n        /* \"#utility.yul\":15783:15803   */\n      sub\n        /* \"#utility.yul\":15779:15780   */\n      0x00\n        /* \"#utility.yul\":15768:15777   */\n      dup4\n        /* \"#utility.yul\":15764:15781   */\n      add\n        /* \"#utility.yul\":15757:15804   */\n      mstore\n        /* \"#utility.yul\":15821:15952   */\n      tag_294\n        /* \"#utility.yul\":15947:15951   */\n      dup2\n        /* \"#utility.yul\":15821:15952   */\n      tag_139\n      jump\t// in\n    tag_294:\n        /* \"#utility.yul\":15813:15952   */\n      swap1\n      pop\n        /* \"#utility.yul\":15540:15959   */\n      swap2\n      swap1\n      pop\n      jump\t// out\n        /* \"#utility.yul\":15965:16407   */\n    tag_90:\n        /* \"#utility.yul\":16114:16118   */\n      0x00\n        /* \"#utility.yul\":16152:16154   */\n      0x60\n        /* \"#utility.yul\":16141:16150   */\n      dup3\n        /* \"#utility.yul\":16137:16155   */\n      add\n        /* \"#utility.yul\":16129:16155   */\n      swap1\n      pop\n        /* \"#utility.yul\":16165:16236   */\n      tag_296\n        /* \"#utility.yul\":16233:16234   */\n      0x00\n        /* \"#utility.yul\":16222:16231   */\n      dup4\n        /* \"#utility.yul\":16218:16235   */\n      add\n        /* \"#utility.yul\":16209:16215   */\n      dup7\n        /* \"#utility.yul\":16165:16236   */\n      tag_109\n      jump\t// in\n    tag_296:\n        /* \"#utility.yul\":16246:16318   */\n      tag_297\n        /* \"#utility.yul\":16314:16316   */\n      0x20\n        /* \"#utility.yul\":16303:16312   */\n      dup4\n        /* \"#utility.yul\":16299:16317   */\n      add\n        /* \"#utility.yul\":16290:16296   */\n      dup6\n        /* \"#utility.yul\":16246:16318   */\n      tag_120\n      jump\t// in\n    tag_297:\n        /* \"#utility.yul\":16328:16400   */\n      tag_298\n        /* \"#utility.yul\":16396:16398   */\n      0x40\n        /* \"#utility.yul\":16385:16394   */\n      dup4\n        /* \"#utility.yul\":16381:16399   */\n      add\n        /* \"#utility.yul\":16372:16378   */\n      dup5\n        /* \"#utility.yul\":16328:16400   */\n      tag_120\n      jump\t// in\n    tag_298:\n        /* \"#utility.yul\":15965:16407   */\n      swap5\n      swap4\n      pop\n      pop\n      pop\n      pop\n      jump\t// out\n    stop\n\n    sub_0: assembly {\n            /* \"PRACTICA 4/practica4.sol\":2199:2761  contract DhondtPollingStation is DhondtElectionRegion, PollingStation{... */\n          mstore(0x40, 0x80)\n            /* \"PRACTICA 4/practica4.sol\":2275:2421  constructor(address president, uint num_partys, uint region_Id)... */\n          callvalue\n          dup1\n          iszero\n          tag_1\n          jumpi\n          0x00\n          dup1\n          revert\n        tag_1:\n          pop\n          mload(0x40)\n          sub(codesize, bytecodeSize)\n          dup1\n          bytecodeSize\n          dup4\n          codecopy\n          dup2\n          dup2\n          add\n          0x40\n          mstore\n          dup2\n          add\n          swap1\n          tag_2\n          swap2\n          swap1\n          tag_3\n          jump\t// in\n        tag_2:\n            /* \"PRACTICA 4/practica4.sol\":2359:2368  president */\n          dup3\n            /* \"PRACTICA 4/practica4.sol\":2396:2406  num_partys */\n          dup3\n            /* \"PRACTICA 4/practica4.sol\":2408:2417  region_Id */\n          dup3\n            /* \"PRACTICA 4/practica4.sol\":313:319  region */\n          dup1\n            /* \"PRACTICA 4/practica4.sol\":302:310  regionId */\n          0x01\n            /* \"PRACTICA 4/practica4.sol\":302:319  regionId = region */\n          dup2\n          swap1\n          sstore\n          pop\n            /* \"PRACTICA 4/practica4.sol\":363:375  num_partidos */\n          dup2\n            /* \"PRACTICA 4/practica4.sol\":352:376  new uint[](num_partidos) */\n          0xffffffffffffffff\n          dup2\n          gt\n          iszero\n          tag_8\n          jumpi\n          tag_9\n          tag_10\n          jump\t// in\n        tag_9:\n        tag_8:\n          mload(0x40)\n          swap1\n          dup1\n          dup3\n          mstore\n          dup1\n          0x20\n          mul\n          0x20\n          add\n          dup3\n          add\n          0x40\n          mstore\n          dup1\n          iszero\n          tag_11\n          jumpi\n          dup2\n          0x20\n          add\n          0x20\n          dup3\n          mul\n          dup1\n          calldatasize\n          dup4\n          calldatacopy\n          dup1\n          dup3\n          add\n          swap2\n          pop\n          pop\n          swap1\n          pop\n        tag_11:\n          pop\n            /* \"PRACTICA 4/practica4.sol\":342:349  results */\n          0x02\n            /* \"PRACTICA 4/practica4.sol\":342:376  results = new uint[](num_partidos) */\n          swap1\n          dup1\n          mload\n          swap1\n          0x20\n          add\n          swap1\n          tag_12\n          swap3\n          swap2\n          swap1\n          tag_13\n          jump\t// in\n        tag_12:\n          pop\n            /* \"PRACTICA 4/practica4.sol\":387:404  savedRegionInfo() */\n          tag_14\n            /* \"PRACTICA 4/practica4.sol\":387:402  savedRegionInfo */\n          shl(0x20, tag_15)\n            /* \"PRACTICA 4/practica4.sol\":387:404  savedRegionInfo() */\n          0x20\n          shr\n          jump\t// in\n        tag_14:\n            /* \"PRACTICA 4/practica4.sol\":248:412  constructor(uint num_partidos, uint region){... */\n          pop\n          pop\n            /* \"PRACTICA 4/practica4.sol\":1477:1482  presi */\n          dup1\n            /* \"PRACTICA 4/practica4.sol\":1465:1474  president */\n          0x03\n          0x02\n            /* \"PRACTICA 4/practica4.sol\":1465:1482  president = presi */\n          0x0100\n          exp\n          dup2\n          sload\n          dup2\n          0xffffffffffffffffffffffffffffffffffffffff\n          mul\n          not\n          and\n          swap1\n          dup4\n          0xffffffffffffffffffffffffffffffffffffffff\n          and\n          mul\n          or\n          swap1\n          sstore\n          pop\n            /* \"PRACTICA 4/practica4.sol\":1509:1514  false */\n          0x00\n            /* \"PRACTICA 4/practica4.sol\":1493:1507  votingFinished */\n          0x03\n          0x00\n            /* \"PRACTICA 4/practica4.sol\":1493:1514  votingFinished= false */\n          0x0100\n          exp\n          dup2\n          sload\n          dup2\n          0xff\n          mul\n          not\n          and\n          swap1\n          dup4\n          iszero\n          iszero\n          mul\n          or\n          swap1\n          sstore\n          pop\n            /* \"PRACTICA 4/practica4.sol\":1538:1543  false */\n          0x00\n            /* \"PRACTICA 4/practica4.sol\":1525:1535  votingOpen */\n          0x03\n          0x01\n            /* \"PRACTICA 4/practica4.sol\":1525:1543  votingOpen = false */\n          0x0100\n          exp\n          dup2\n          sload\n          dup2\n          0xff\n          mul\n          not\n          and\n          swap1\n          dup4\n          iszero\n          iszero\n          mul\n          or\n          swap1\n          sstore\n          pop\n            /* \"PRACTICA 4/practica4.sol\":1428:1551  constructor(address presi){... */\n          pop\n            /* \"PRACTICA 4/practica4.sol\":2275:2421  constructor(address president, uint num_partys, uint region_Id)... */\n          pop\n          pop\n          pop\n            /* \"PRACTICA 4/practica4.sol\":2199:2761  contract DhondtPollingStation is DhondtElectionRegion, PollingStation{... */\n          jump(tag_18)\n            /* \"PRACTICA 4/practica4.sol\":688:987  function savedRegionInfo() private{... */\n        tag_15:\n            /* \"PRACTICA 4/practica4.sol\":743:744  1 */\n          0x01\n            /* \"PRACTICA 4/practica4.sol\":729:736  weights */\n          0x00\n            /* \"PRACTICA 4/practica4.sol\":729:740  weights[28] */\n          dup1\n            /* \"PRACTICA 4/practica4.sol\":737:739  28 */\n          0x1c\n            /* \"PRACTICA 4/practica4.sol\":729:740  weights[28] */\n          dup2\n          mstore\n          0x20\n          add\n          swap1\n          dup2\n          mstore\n          0x20\n          add\n          0x00\n          keccak256\n            /* \"PRACTICA 4/practica4.sol\":729:744  weights[28] = 1 */\n          dup2\n          swap1\n          sstore\n          pop\n            /* \"PRACTICA 4/practica4.sol\":774:775  1 */\n          0x01\n            /* \"PRACTICA 4/practica4.sol\":761:768  weights */\n          0x00\n            /* \"PRACTICA 4/practica4.sol\":761:771  weights[8] */\n          dup1\n            /* \"PRACTICA 4/practica4.sol\":769:770  8 */\n          0x08\n            /* \"PRACTICA 4/practica4.sol\":761:771  weights[8] */\n          dup2\n          mstore\n          0x20\n          add\n          swap1\n          dup2\n          mstore\n          0x20\n          add\n          0x00\n          keccak256\n            /* \"PRACTICA 4/practica4.sol\":761:775  weights[8] = 1 */\n          dup2\n          swap1\n          sstore\n          pop\n            /* \"PRACTICA 4/practica4.sol\":809:810  1 */\n          0x01\n            /* \"PRACTICA 4/practica4.sol\":795:802  weights */\n          0x00\n            /* \"PRACTICA 4/practica4.sol\":795:806  weights[41] */\n          dup1\n            /* \"PRACTICA 4/practica4.sol\":803:805  41 */\n          0x29\n            /* \"PRACTICA 4/practica4.sol\":795:806  weights[41] */\n          dup2\n          mstore\n          0x20\n          add\n          swap1\n          dup2\n          mstore\n          0x20\n          add\n          0x00\n          keccak256\n            /* \"PRACTICA 4/practica4.sol\":795:810  weights[41] = 1 */\n          dup2\n          swap1\n          sstore\n          pop\n            /* \"PRACTICA 4/practica4.sol\":842:843  5 */\n          0x05\n            /* \"PRACTICA 4/practica4.sol\":828:835  weights */\n          0x00\n            /* \"PRACTICA 4/practica4.sol\":828:839  weights[44] */\n          dup1\n            /* \"PRACTICA 4/practica4.sol\":836:838  44 */\n          0x2c\n            /* \"PRACTICA 4/practica4.sol\":828:839  weights[44] */\n          dup2\n          mstore\n          0x20\n          add\n          swap1\n          dup2\n          mstore\n          0x20\n          add\n          0x00\n          keccak256\n            /* \"PRACTICA 4/practica4.sol\":828:843  weights[44] = 5 */\n          dup2\n          swap1\n          sstore\n          pop\n            /* \"PRACTICA 4/practica4.sol\":874:875  5 */\n          0x05\n            /* \"PRACTICA 4/practica4.sol\":860:867  weights */\n          0x00\n            /* \"PRACTICA 4/practica4.sol\":860:871  weights[42] */\n          dup1\n            /* \"PRACTICA 4/practica4.sol\":868:870  42 */\n          0x2a\n            /* \"PRACTICA 4/practica4.sol\":860:871  weights[42] */\n          dup2\n          mstore\n          0x20\n          add\n          swap1\n          dup2\n          mstore\n          0x20\n          add\n          0x00\n          keccak256\n            /* \"PRACTICA 4/practica4.sol\":860:875  weights[42] = 5 */\n          dup2\n          swap1\n          sstore\n          pop\n            /* \"PRACTICA 4/practica4.sol\":905:906  4 */\n          0x04\n            /* \"PRACTICA 4/practica4.sol\":891:898  weights */\n          0x00\n            /* \"PRACTICA 4/practica4.sol\":891:902  weights[49] */\n          dup1\n            /* \"PRACTICA 4/practica4.sol\":899:901  49 */\n          0x31\n            /* \"PRACTICA 4/practica4.sol\":891:902  weights[49] */\n          dup2\n          mstore\n          0x20\n          add\n          swap1\n          dup2\n          mstore\n          0x20\n          add\n          0x00\n          keccak256\n            /* \"PRACTICA 4/practica4.sol\":891:906  weights[49] = 4 */\n          dup2\n          swap1\n          sstore\n          pop\n            /* \"PRACTICA 4/practica4.sol\":936:937  4 */\n          0x04\n            /* \"PRACTICA 4/practica4.sol\":923:930  weights */\n          0x00\n            /* \"PRACTICA 4/practica4.sol\":923:933  weights[9] */\n          dup1\n            /* \"PRACTICA 4/practica4.sol\":931:932  9 */\n          0x09\n            /* \"PRACTICA 4/practica4.sol\":923:933  weights[9] */\n          dup2\n          mstore\n          0x20\n          add\n          swap1\n          dup2\n          mstore\n          0x20\n          add\n          0x00\n          keccak256\n            /* \"PRACTICA 4/practica4.sol\":923:937  weights[9] = 4 */\n          dup2\n          swap1\n          sstore\n          pop\n            /* \"PRACTICA 4/practica4.sol\":968:969  2 */\n          0x02\n            /* \"PRACTICA 4/practica4.sol\":954:961  weights */\n          0x00\n            /* \"PRACTICA 4/practica4.sol\":954:965  weights[29] */\n          dup1\n            /* \"PRACTICA 4/practica4.sol\":962:964  29 */\n          0x1d\n            /* \"PRACTICA 4/practica4.sol\":954:965  weights[29] */\n          dup2\n          mstore\n          0x20\n          add\n          swap1\n          dup2\n          mstore\n          0x20\n          add\n          0x00\n          keccak256\n            /* \"PRACTICA 4/practica4.sol\":954:969  weights[29] = 2 */\n          dup2\n          swap1\n          sstore\n          pop\n            /* \"PRACTICA 4/practica4.sol\":688:987  function savedRegionInfo() private{... */\n          jump\t// out\n            /* \"PRACTICA 4/practica4.sol\":2199:2761  contract DhondtPollingStation is DhondtElectionRegion, PollingStation{... */\n        tag_13:\n          dup3\n          dup1\n          sload\n          dup3\n          dup3\n          sstore\n          swap1\n          0x00\n          mstore\n          keccak256(0x00, 0x20)\n          swap1\n          dup2\n          add\n          swap3\n          dup3\n          iszero\n          tag_20\n          jumpi\n          swap2\n          0x20\n          mul\n          dup3\n          add\n        tag_21:\n          dup3\n          dup2\n          gt\n          iszero\n          tag_22\n          jumpi\n          dup3\n          mload\n          dup3\n          sstore\n          swap2\n          0x20\n          add\n          swap2\n          swap1\n          0x01\n          add\n          swap1\n          jump(tag_21)\n        tag_22:\n        tag_20:\n          pop\n          swap1\n          pop\n          tag_23\n          swap2\n          swap1\n          tag_24\n          jump\t// in\n        tag_23:\n          pop\n          swap1\n          jump\t// out\n        tag_24:\n        tag_25:\n          dup1\n          dup3\n          gt\n          iszero\n          tag_26\n          jumpi\n          0x00\n          dup2\n          0x00\n          swap1\n          sstore\n          pop\n          0x01\n          add\n          jump(tag_25)\n        tag_26:\n          pop\n          swap1\n          jump\t// out\n            /* \"#utility.yul\":88:205   */\n        tag_28:\n            /* \"#utility.yul\":197:198   */\n          0x00\n            /* \"#utility.yul\":194:195   */\n          dup1\n            /* \"#utility.yul\":187:199   */\n          revert\n            /* \"#utility.yul\":334:460   */\n        tag_30:\n            /* \"#utility.yul\":371:378   */\n          0x00\n            /* \"#utility.yul\":411:453   */\n          0xffffffffffffffffffffffffffffffffffffffff\n            /* \"#utility.yul\":404:409   */\n          dup3\n            /* \"#utility.yul\":400:454   */\n          and\n            /* \"#utility.yul\":389:454   */\n          swap1\n          pop\n            /* \"#utility.yul\":334:460   */\n          swap2\n          swap1\n          pop\n          jump\t// out\n            /* \"#utility.yul\":466:562   */\n        tag_31:\n            /* \"#utility.yul\":503:510   */\n          0x00\n            /* \"#utility.yul\":532:556   */\n          tag_43\n            /* \"#utility.yul\":550:555   */\n          dup3\n            /* \"#utility.yul\":532:556   */\n          tag_30\n          jump\t// in\n        tag_43:\n            /* \"#utility.yul\":521:556   */\n          swap1\n          pop\n            /* \"#utility.yul\":466:562   */\n          swap2\n          swap1\n          pop\n          jump\t// out\n            /* \"#utility.yul\":568:690   */\n        tag_32:\n            /* \"#utility.yul\":641:665   */\n          tag_45\n            /* \"#utility.yul\":659:664   */\n          dup2\n            /* \"#utility.yul\":641:665   */\n          tag_31\n          jump\t// in\n        tag_45:\n            /* \"#utility.yul\":634:639   */\n          dup2\n            /* \"#utility.yul\":631:666   */\n          eq\n            /* \"#utility.yul\":621:684   */\n          tag_46\n          jumpi\n            /* \"#utility.yul\":680:681   */\n          0x00\n            /* \"#utility.yul\":677:678   */\n          dup1\n            /* \"#utility.yul\":670:682   */\n          revert\n            /* \"#utility.yul\":621:684   */\n        tag_46:\n            /* \"#utility.yul\":568:690   */\n          pop\n          jump\t// out\n            /* \"#utility.yul\":696:839   */\n        tag_33:\n            /* \"#utility.yul\":753:758   */\n          0x00\n            /* \"#utility.yul\":784:790   */\n          dup2\n            /* \"#utility.yul\":778:791   */\n          mload\n            /* \"#utility.yul\":769:791   */\n          swap1\n          pop\n            /* \"#utility.yul\":800:833   */\n          tag_48\n            /* \"#utility.yul\":827:832   */\n          dup2\n            /* \"#utility.yul\":800:833   */\n          tag_32\n          jump\t// in\n        tag_48:\n            /* \"#utility.yul\":696:839   */\n          swap3\n          swap2\n          pop\n          pop\n          jump\t// out\n            /* \"#utility.yul\":845:922   */\n        tag_34:\n            /* \"#utility.yul\":882:889   */\n          0x00\n            /* \"#utility.yul\":911:916   */\n          dup2\n            /* \"#utility.yul\":900:916   */\n          swap1\n          pop\n            /* \"#utility.yul\":845:922   */\n          swap2\n          swap1\n          pop\n          jump\t// out\n            /* \"#utility.yul\":928:1050   */\n        tag_35:\n            /* \"#utility.yul\":1001:1025   */\n          tag_51\n            /* \"#utility.yul\":1019:1024   */\n          dup2\n            /* \"#utility.yul\":1001:1025   */\n          tag_34\n          jump\t// in\n        tag_51:\n            /* \"#utility.yul\":994:999   */\n          dup2\n            /* \"#utility.yul\":991:1026   */\n          eq\n            /* \"#utility.yul\":981:1044   */\n          tag_52\n          jumpi\n            /* \"#utility.yul\":1040:1041   */\n          0x00\n            /* \"#utility.yul\":1037:1038   */\n          dup1\n            /* \"#utility.yul\":1030:1042   */\n          revert\n            /* \"#utility.yul\":981:1044   */\n        tag_52:\n            /* \"#utility.yul\":928:1050   */\n          pop\n          jump\t// out\n            /* \"#utility.yul\":1056:1199   */\n        tag_36:\n            /* \"#utility.yul\":1113:1118   */\n          0x00\n            /* \"#utility.yul\":1144:1150   */\n          dup2\n            /* \"#utility.yul\":1138:1151   */\n          mload\n            /* \"#utility.yul\":1129:1151   */\n          swap1\n          pop\n            /* \"#utility.yul\":1160:1193   */\n          tag_54\n            /* \"#utility.yul\":1187:1192   */\n          dup2\n            /* \"#utility.yul\":1160:1193   */\n          tag_35\n          jump\t// in\n        tag_54:\n            /* \"#utility.yul\":1056:1199   */\n          swap3\n          swap2\n          pop\n          pop\n          jump\t// out\n            /* \"#utility.yul\":1205:1868   */\n        tag_3:\n            /* \"#utility.yul\":1293:1299   */\n          0x00\n            /* \"#utility.yul\":1301:1307   */\n          dup1\n            /* \"#utility.yul\":1309:1315   */\n          0x00\n            /* \"#utility.yul\":1358:1360   */\n          0x60\n            /* \"#utility.yul\":1346:1355   */\n          dup5\n            /* \"#utility.yul\":1337:1344   */\n          dup7\n            /* \"#utility.yul\":1333:1356   */\n          sub\n            /* \"#utility.yul\":1329:1361   */\n          slt\n            /* \"#utility.yul\":1326:1445   */\n          iszero\n          tag_56\n          jumpi\n            /* \"#utility.yul\":1364:1443   */\n          tag_57\n          tag_28\n          jump\t// in\n        tag_57:\n            /* \"#utility.yul\":1326:1445   */\n        tag_56:\n            /* \"#utility.yul\":1484:1485   */\n          0x00\n            /* \"#utility.yul\":1509:1573   */\n          tag_58\n            /* \"#utility.yul\":1565:1572   */\n          dup7\n            /* \"#utility.yul\":1556:1562   */\n          dup3\n            /* \"#utility.yul\":1545:1554   */\n          dup8\n            /* \"#utility.yul\":1541:1563   */\n          add\n            /* \"#utility.yul\":1509:1573   */\n          tag_33\n          jump\t// in\n        tag_58:\n            /* \"#utility.yul\":1499:1573   */\n          swap4\n          pop\n            /* \"#utility.yul\":1455:1583   */\n          pop\n            /* \"#utility.yul\":1622:1624   */\n          0x20\n            /* \"#utility.yul\":1648:1712   */\n          tag_59\n            /* \"#utility.yul\":1704:1711   */\n          dup7\n            /* \"#utility.yul\":1695:1701   */\n          dup3\n            /* \"#utility.yul\":1684:1693   */\n          dup8\n            /* \"#utility.yul\":1680:1702   */\n          add\n            /* \"#utility.yul\":1648:1712   */\n          tag_36\n          jump\t// in\n        tag_59:\n            /* \"#utility.yul\":1638:1712   */\n          swap3\n          pop\n            /* \"#utility.yul\":1593:1722   */\n          pop\n            /* \"#utility.yul\":1761:1763   */\n          0x40\n            /* \"#utility.yul\":1787:1851   */\n          tag_60\n            /* \"#utility.yul\":1843:1850   */\n          dup7\n            /* \"#utility.yul\":1834:1840   */\n          dup3\n            /* \"#utility.yul\":1823:1832   */\n          dup8\n            /* \"#utility.yul\":1819:1841   */\n          add\n            /* \"#utility.yul\":1787:1851   */\n          tag_36\n          jump\t// in\n        tag_60:\n            /* \"#utility.yul\":1777:1851   */\n          swap2\n          pop\n            /* \"#utility.yul\":1732:1861   */\n          pop\n            /* \"#utility.yul\":1205:1868   */\n          swap3\n          pop\n          swap3\n          pop\n          swap3\n          jump\t// out\n            /* \"#utility.yul\":1874:2054   */\n        tag_10:\n            /* \"#utility.yul\":1922:1999   */\n          0x4e487b7100000000000000000000000000000000000000000000000000000000\n            /* \"#utility.yul\":1919:1920   */\n          0x00\n            /* \"#utility.yul\":1912:2000   */\n          mstore\n            /* \"#utility.yul\":2019:2023   */\n          0x41\n            /* \"#utility.yul\":2016:2017   */\n          0x04\n            /* \"#utility.yul\":2009:2024   */\n          mstore\n            /* \"#utility.yul\":2043:2047   */\n          0x24\n            /* \"#utility.yul\":2040:2041   */\n          0x00\n            /* \"#utility.yul\":2033:2048   */\n          revert\n            /* \"PRACTICA 4/practica4.sol\":2199:2761  contract DhondtPollingStation is DhondtElectionRegion, PollingStation{... */\n        tag_18:\n          dataSize(sub_0)\n          dup1\n          dataOffset(sub_0)\n          0x00\n          codecopy\n          0x00\n          return\n        stop\n\n        sub_0: assembly {\n                /* \"PRACTICA 4/practica4.sol\":2199:2761  contract DhondtPollingStation is DhondtElectionRegion, PollingStation{... */\n              mstore(0x40, 0x80)\n              callvalue\n              dup1\n              iszero\n              tag_1\n              jumpi\n              0x00\n              dup1\n              revert\n            tag_1:\n              pop\n              jumpi(tag_2, lt(calldatasize, 0x04))\n              shr(0xe0, calldataload(0x00))\n              dup1\n              0x3eb76b9c\n              eq\n              tag_3\n              jumpi\n              dup1\n              0x4717f97c\n              eq\n              tag_4\n              jumpi\n              dup1\n              0x789d9e8a\n              eq\n              tag_5\n              jumpi\n              dup1\n              0xaffc0670\n              eq\n              tag_6\n              jumpi\n              dup1\n              0xc631b292\n              eq\n              tag_7\n              jumpi\n            tag_2:\n              0x00\n              dup1\n              revert\n                /* \"PRACTICA 4/practica4.sol\":2432:2534  function castVote(uint party_id)  external override isOpened {... */\n            tag_3:\n              tag_8\n              0x04\n              dup1\n              calldatasize\n              sub\n              dup2\n              add\n              swap1\n              tag_9\n              swap2\n              swap1\n              tag_10\n              jump\t// in\n            tag_9:\n              tag_11\n              jump\t// in\n            tag_8:\n              stop\n                /* \"PRACTICA 4/practica4.sol\":2544:2753  function getResults() external view override returns (uint [] memory){... */\n            tag_4:\n              tag_12\n              tag_13\n              jump\t// in\n            tag_12:\n              mload(0x40)\n              tag_14\n              swap2\n              swap1\n              tag_15\n              jump\t// in\n            tag_14:\n              mload(0x40)\n              dup1\n              swap2\n              sub\n              swap1\n              return\n                /* \"PRACTICA 4/practica4.sol\":1337:1363  bool public votingFinished */\n            tag_5:\n              tag_16\n              tag_17\n              jump\t// in\n            tag_16:\n              mload(0x40)\n              tag_18\n              swap2\n              swap1\n              tag_19\n              jump\t// in\n            tag_18:\n              mload(0x40)\n              dup1\n              swap2\n              sub\n              swap1\n              return\n                /* \"PRACTICA 4/practica4.sol\":1850:1925  function openVoting()external isPresident{... */\n            tag_6:\n              tag_20\n              tag_21\n              jump\t// in\n            tag_20:\n              stop\n                /* \"PRACTICA 4/practica4.sol\":1935:2056  function closeVoting() external isPresident isOpened{... */\n            tag_7:\n              tag_22\n              tag_23\n              jump\t// in\n            tag_22:\n              stop\n                /* \"PRACTICA 4/practica4.sol\":2432:2534  function castVote(uint party_id)  external override isOpened {... */\n            tag_11:\n                /* \"PRACTICA 4/practica4.sol\":1755:1759  true */\n              0x01\n                /* \"PRACTICA 4/practica4.sol\":1742:1759  votingOpen ==true */\n              iszero\n              iszero\n                /* \"PRACTICA 4/practica4.sol\":1742:1752  votingOpen */\n              0x03\n              0x01\n              swap1\n              sload\n              swap1\n              0x0100\n              exp\n              swap1\n              div\n              0xff\n              and\n                /* \"PRACTICA 4/practica4.sol\":1742:1759  votingOpen ==true */\n              iszero\n              iszero\n              eq\n                /* \"PRACTICA 4/practica4.sol\":1734:1820  require(votingOpen ==true, \"La mesa electoral debe estar abierta para poder cerrarla\") */\n              tag_25\n              jumpi\n              mload(0x40)\n              0x08c379a000000000000000000000000000000000000000000000000000000000\n              dup2\n              mstore\n              0x04\n              add\n              tag_26\n              swap1\n              tag_27\n              jump\t// in\n            tag_26:\n              mload(0x40)\n              dup1\n              swap2\n              sub\n              swap1\n              revert\n            tag_25:\n                /* \"PRACTICA 4/practica4.sol\":2504:2526  registerVote(party_id) */\n              tag_29\n                /* \"PRACTICA 4/practica4.sol\":2517:2525  party_id */\n              dup2\n                /* \"PRACTICA 4/practica4.sol\":2504:2516  registerVote */\n              tag_30\n                /* \"PRACTICA 4/practica4.sol\":2504:2526  registerVote(party_id) */\n              jump\t// in\n            tag_29:\n              pop\n                /* \"PRACTICA 4/practica4.sol\":2432:2534  function castVote(uint party_id)  external override isOpened {... */\n              pop\n              jump\t// out\n                /* \"PRACTICA 4/practica4.sol\":2544:2753  function getResults() external view override returns (uint [] memory){... */\n            tag_13:\n                /* \"PRACTICA 4/practica4.sol\":2598:2612  uint [] memory */\n              0x60\n                /* \"PRACTICA 4/practica4.sol\":2653:2657  true */\n              0x01\n                /* \"PRACTICA 4/practica4.sol\":2636:2657  votingFinished ==true */\n              iszero\n              iszero\n                /* \"PRACTICA 4/practica4.sol\":2636:2650  votingFinished */\n              0x03\n              0x00\n              swap1\n              sload\n              swap1\n              0x0100\n              exp\n              swap1\n              div\n              0xff\n              and\n                /* \"PRACTICA 4/practica4.sol\":2636:2657  votingFinished ==true */\n              iszero\n              iszero\n              eq\n                /* \"PRACTICA 4/practica4.sol\":2628:2716  require(votingFinished ==true, \"La votacion no ha terminado aun. Espere a que termine.\") */\n              tag_32\n              jumpi\n              mload(0x40)\n              0x08c379a000000000000000000000000000000000000000000000000000000000\n              dup2\n              mstore\n              0x04\n              add\n              tag_33\n              swap1\n              tag_34\n              jump\t// in\n            tag_33:\n              mload(0x40)\n              dup1\n              swap2\n              sub\n              swap1\n              revert\n            tag_32:\n                /* \"PRACTICA 4/practica4.sol\":2738:2745  results */\n              0x02\n                /* \"PRACTICA 4/practica4.sol\":2731:2745  return results */\n              dup1\n              sload\n              dup1\n              0x20\n              mul\n              0x20\n              add\n              mload(0x40)\n              swap1\n              dup2\n              add\n              0x40\n              mstore\n              dup1\n              swap3\n              swap2\n              swap1\n              dup2\n              dup2\n              mstore\n              0x20\n              add\n              dup3\n              dup1\n              sload\n              dup1\n              iszero\n              tag_35\n              jumpi\n              0x20\n              mul\n              dup3\n              add\n              swap2\n              swap1\n              0x00\n              mstore\n              keccak256(0x00, 0x20)\n              swap1\n            tag_36:\n              dup2\n              sload\n              dup2\n              mstore\n              0x20\n              add\n              swap1\n              0x01\n              add\n              swap1\n              dup1\n              dup4\n              gt\n              tag_36\n              jumpi\n            tag_35:\n              pop\n              pop\n              pop\n              pop\n              pop\n              swap1\n              pop\n                /* \"PRACTICA 4/practica4.sol\":2544:2753  function getResults() external view override returns (uint [] memory){... */\n              swap1\n              jump\t// out\n                /* \"PRACTICA 4/practica4.sol\":1337:1363  bool public votingFinished */\n            tag_17:\n              0x03\n              0x00\n              swap1\n              sload\n              swap1\n              0x0100\n              exp\n              swap1\n              div\n              0xff\n              and\n              dup2\n              jump\t// out\n                /* \"PRACTICA 4/practica4.sol\":1850:1925  function openVoting()external isPresident{... */\n            tag_21:\n                /* \"PRACTICA 4/practica4.sol\":1615:1625  msg.sender */\n              caller\n                /* \"PRACTICA 4/practica4.sol\":1602:1625  president == msg.sender */\n              0xffffffffffffffffffffffffffffffffffffffff\n              and\n                /* \"PRACTICA 4/practica4.sol\":1602:1611  president */\n              0x03\n              0x02\n              swap1\n              sload\n              swap1\n              0x0100\n              exp\n              swap1\n              div\n              0xffffffffffffffffffffffffffffffffffffffff\n              and\n                /* \"PRACTICA 4/practica4.sol\":1602:1625  president == msg.sender */\n              0xffffffffffffffffffffffffffffffffffffffff\n              and\n              eq\n                /* \"PRACTICA 4/practica4.sol\":1594:1678  require(president == msg.sender, \"Esta funcion solo debe ejecutarla el presidente.\") */\n              tag_38\n              jumpi\n              mload(0x40)\n              0x08c379a000000000000000000000000000000000000000000000000000000000\n              dup2\n              mstore\n              0x04\n              add\n              tag_39\n              swap1\n              tag_40\n              jump\t// in\n            tag_39:\n              mload(0x40)\n              dup1\n              swap2\n              sub\n              swap1\n              revert\n            tag_38:\n                /* \"PRACTICA 4/practica4.sol\":1913:1917  true */\n              0x01\n                /* \"PRACTICA 4/practica4.sol\":1902:1912  votingOpen */\n              0x03\n              0x01\n                /* \"PRACTICA 4/practica4.sol\":1902:1917  votingOpen=true */\n              0x0100\n              exp\n              dup2\n              sload\n              dup2\n              0xff\n              mul\n              not\n              and\n              swap1\n              dup4\n              iszero\n              iszero\n              mul\n              or\n              swap1\n              sstore\n              pop\n                /* \"PRACTICA 4/practica4.sol\":1850:1925  function openVoting()external isPresident{... */\n              jump\t// out\n                /* \"PRACTICA 4/practica4.sol\":1935:2056  function closeVoting() external isPresident isOpened{... */\n            tag_23:\n                /* \"PRACTICA 4/practica4.sol\":1615:1625  msg.sender */\n              caller\n                /* \"PRACTICA 4/practica4.sol\":1602:1625  president == msg.sender */\n              0xffffffffffffffffffffffffffffffffffffffff\n              and\n                /* \"PRACTICA 4/practica4.sol\":1602:1611  president */\n              0x03\n              0x02\n              swap1\n              sload\n              swap1\n              0x0100\n              exp\n              swap1\n              div\n              0xffffffffffffffffffffffffffffffffffffffff\n              and\n                /* \"PRACTICA 4/practica4.sol\":1602:1625  president == msg.sender */\n              0xffffffffffffffffffffffffffffffffffffffff\n              and\n              eq\n                /* \"PRACTICA 4/practica4.sol\":1594:1678  require(president == msg.sender, \"Esta funcion solo debe ejecutarla el presidente.\") */\n              tag_43\n              jumpi\n              mload(0x40)\n              0x08c379a000000000000000000000000000000000000000000000000000000000\n              dup2\n              mstore\n              0x04\n              add\n              tag_44\n              swap1\n              tag_40\n              jump\t// in\n            tag_44:\n              mload(0x40)\n              dup1\n              swap2\n              sub\n              swap1\n              revert\n            tag_43:\n                /* \"PRACTICA 4/practica4.sol\":1755:1759  true */\n              0x01\n                /* \"PRACTICA 4/practica4.sol\":1742:1759  votingOpen ==true */\n              iszero\n              iszero\n                /* \"PRACTICA 4/practica4.sol\":1742:1752  votingOpen */\n              0x03\n              0x01\n              swap1\n              sload\n              swap1\n              0x0100\n              exp\n              swap1\n              div\n              0xff\n              and\n                /* \"PRACTICA 4/practica4.sol\":1742:1759  votingOpen ==true */\n              iszero\n              iszero\n              eq\n                /* \"PRACTICA 4/practica4.sol\":1734:1820  require(votingOpen ==true, \"La mesa electoral debe estar abierta para poder cerrarla\") */\n              tag_46\n              jumpi\n              mload(0x40)\n              0x08c379a000000000000000000000000000000000000000000000000000000000\n              dup2\n              mstore\n              0x04\n              add\n              tag_47\n              swap1\n              tag_27\n              jump\t// in\n            tag_47:\n              mload(0x40)\n              dup1\n              swap2\n              sub\n              swap1\n              revert\n            tag_46:\n                /* \"PRACTICA 4/practica4.sol\":2011:2016  false */\n              0x00\n                /* \"PRACTICA 4/practica4.sol\":1998:2008  votingOpen */\n              0x03\n              0x01\n                /* \"PRACTICA 4/practica4.sol\":1998:2016  votingOpen = false */\n              0x0100\n              exp\n              dup2\n              sload\n              dup2\n              0xff\n              mul\n              not\n              and\n              swap1\n              dup4\n              iszero\n              iszero\n              mul\n              or\n              swap1\n              sstore\n              pop\n                /* \"PRACTICA 4/practica4.sol\":2044:2048  true */\n              0x01\n                /* \"PRACTICA 4/practica4.sol\":2027:2041  votingFinished */\n              0x03\n              0x00\n                /* \"PRACTICA 4/practica4.sol\":2027:2048  votingFinished = true */\n              0x0100\n              exp\n              dup2\n              sload\n              dup2\n              0xff\n              mul\n              not\n              and\n              swap1\n              dup4\n              iszero\n              iszero\n              mul\n              or\n              swap1\n              sstore\n              pop\n                /* \"PRACTICA 4/practica4.sol\":1935:2056  function closeVoting() external isPresident isOpened{... */\n              jump\t// out\n                /* \"PRACTICA 4/practica4.sol\":997:1260  function registerVote(uint voted_party) internal   returns  (bool){... */\n            tag_30:\n                /* \"PRACTICA 4/practica4.sol\":1058:1062  bool */\n              0x00\n                /* \"PRACTICA 4/practica4.sol\":1100:1101  0 */\n              dup1\n                /* \"PRACTICA 4/practica4.sol\":1086:1097  voted_party */\n              dup3\n                /* \"PRACTICA 4/practica4.sol\":1086:1101  voted_party > 0 */\n              gt\n                /* \"PRACTICA 4/practica4.sol\":1086:1131  voted_party > 0 &&voted_party <results.length */\n              dup1\n              iszero\n              tag_50\n              jumpi\n              pop\n                /* \"PRACTICA 4/practica4.sol\":1117:1124  results */\n              0x02\n                /* \"PRACTICA 4/practica4.sol\":1117:1131  results.length */\n              dup1\n              sload\n              swap1\n              pop\n                /* \"PRACTICA 4/practica4.sol\":1104:1115  voted_party */\n              dup3\n                /* \"PRACTICA 4/practica4.sol\":1104:1131  voted_party <results.length */\n              lt\n                /* \"PRACTICA 4/practica4.sol\":1086:1131  voted_party > 0 &&voted_party <results.length */\n            tag_50:\n                /* \"PRACTICA 4/practica4.sol\":1083:1226  if(voted_party > 0 &&voted_party <results.length){... */\n              iszero\n              tag_51\n              jumpi\n                /* \"PRACTICA 4/practica4.sol\":1171:1178  weights */\n              0x00\n                /* \"PRACTICA 4/practica4.sol\":1171:1188  weights[regionId] */\n              dup1\n                /* \"PRACTICA 4/practica4.sol\":1179:1187  regionId */\n              sload(0x01)\n                /* \"PRACTICA 4/practica4.sol\":1171:1188  weights[regionId] */\n              dup2\n              mstore\n              0x20\n              add\n              swap1\n              dup2\n              mstore\n              0x20\n              add\n              0x00\n              keccak256\n              sload\n                /* \"PRACTICA 4/practica4.sol\":1147:1154  results */\n              0x02\n                /* \"PRACTICA 4/practica4.sol\":1155:1166  voted_party */\n              dup4\n                /* \"PRACTICA 4/practica4.sol\":1147:1167  results[voted_party] */\n              dup2\n              sload\n              dup2\n              lt\n              tag_52\n              jumpi\n              tag_53\n              tag_54\n              jump\t// in\n            tag_53:\n            tag_52:\n              swap1\n              0x00\n              mstore\n              keccak256(0x00, 0x20)\n              add\n              0x00\n                /* \"PRACTICA 4/practica4.sol\":1147:1188  results[voted_party] += weights[regionId] */\n              dup3\n              dup3\n              sload\n              tag_56\n              swap2\n              swap1\n              tag_57\n              jump\t// in\n            tag_56:\n              swap3\n              pop\n              pop\n              dup2\n              swap1\n              sstore\n              pop\n                /* \"PRACTICA 4/practica4.sol\":1210:1214  true */\n              0x01\n                /* \"PRACTICA 4/practica4.sol\":1203:1214  return true */\n              swap1\n              pop\n              jump(tag_49)\n                /* \"PRACTICA 4/practica4.sol\":1083:1226  if(voted_party > 0 &&voted_party <results.length){... */\n            tag_51:\n                /* \"PRACTICA 4/practica4.sol\":1243:1248  false */\n              0x00\n                /* \"PRACTICA 4/practica4.sol\":1236:1248  return false */\n              swap1\n              pop\n                /* \"PRACTICA 4/practica4.sol\":997:1260  function registerVote(uint voted_party) internal   returns  (bool){... */\n            tag_49:\n              swap2\n              swap1\n              pop\n              jump\t// out\n                /* \"#utility.yul\":88:205   */\n            tag_59:\n                /* \"#utility.yul\":197:198   */\n              0x00\n                /* \"#utility.yul\":194:195   */\n              dup1\n                /* \"#utility.yul\":187:199   */\n              revert\n                /* \"#utility.yul\":334:411   */\n            tag_61:\n                /* \"#utility.yul\":371:378   */\n              0x00\n                /* \"#utility.yul\":400:405   */\n              dup2\n                /* \"#utility.yul\":389:405   */\n              swap1\n              pop\n                /* \"#utility.yul\":334:411   */\n              swap2\n              swap1\n              pop\n              jump\t// out\n                /* \"#utility.yul\":417:539   */\n            tag_62:\n                /* \"#utility.yul\":490:514   */\n              tag_87\n                /* \"#utility.yul\":508:513   */\n              dup2\n                /* \"#utility.yul\":490:514   */\n              tag_61\n              jump\t// in\n            tag_87:\n                /* \"#utility.yul\":483:488   */\n              dup2\n                /* \"#utility.yul\":480:515   */\n              eq\n                /* \"#utility.yul\":470:533   */\n              tag_88\n              jumpi\n                /* \"#utility.yul\":529:530   */\n              0x00\n                /* \"#utility.yul\":526:527   */\n              dup1\n                /* \"#utility.yul\":519:531   */\n              revert\n                /* \"#utility.yul\":470:533   */\n            tag_88:\n                /* \"#utility.yul\":417:539   */\n              pop\n              jump\t// out\n                /* \"#utility.yul\":545:684   */\n            tag_63:\n                /* \"#utility.yul\":591:596   */\n              0x00\n                /* \"#utility.yul\":629:635   */\n              dup2\n                /* \"#utility.yul\":616:636   */\n              calldataload\n                /* \"#utility.yul\":607:636   */\n              swap1\n              pop\n                /* \"#utility.yul\":645:678   */\n              tag_90\n                /* \"#utility.yul\":672:677   */\n              dup2\n                /* \"#utility.yul\":645:678   */\n              tag_62\n              jump\t// in\n            tag_90:\n                /* \"#utility.yul\":545:684   */\n              swap3\n              swap2\n              pop\n              pop\n              jump\t// out\n                /* \"#utility.yul\":690:1019   */\n            tag_10:\n                /* \"#utility.yul\":749:755   */\n              0x00\n                /* \"#utility.yul\":798:800   */\n              0x20\n                /* \"#utility.yul\":786:795   */\n              dup3\n                /* \"#utility.yul\":777:784   */\n              dup5\n                /* \"#utility.yul\":773:796   */\n              sub\n                /* \"#utility.yul\":769:801   */\n              slt\n                /* \"#utility.yul\":766:885   */\n              iszero\n              tag_92\n              jumpi\n                /* \"#utility.yul\":804:883   */\n              tag_93\n              tag_59\n              jump\t// in\n            tag_93:\n                /* \"#utility.yul\":766:885   */\n            tag_92:\n                /* \"#utility.yul\":924:925   */\n              0x00\n                /* \"#utility.yul\":949:1002   */\n              tag_94\n                /* \"#utility.yul\":994:1001   */\n              dup5\n                /* \"#utility.yul\":985:991   */\n              dup3\n                /* \"#utility.yul\":974:983   */\n              dup6\n                /* \"#utility.yul\":970:992   */\n              add\n                /* \"#utility.yul\":949:1002   */\n              tag_63\n              jump\t// in\n            tag_94:\n                /* \"#utility.yul\":939:1002   */\n              swap2\n              pop\n                /* \"#utility.yul\":895:1012   */\n              pop\n                /* \"#utility.yul\":690:1019   */\n              swap3\n              swap2\n              pop\n              pop\n              jump\t// out\n                /* \"#utility.yul\":1025:1139   */\n            tag_64:\n                /* \"#utility.yul\":1092:1098   */\n              0x00\n                /* \"#utility.yul\":1126:1131   */\n              dup2\n                /* \"#utility.yul\":1120:1132   */\n              mload\n                /* \"#utility.yul\":1110:1132   */\n              swap1\n              pop\n                /* \"#utility.yul\":1025:1139   */\n              swap2\n              swap1\n              pop\n              jump\t// out\n                /* \"#utility.yul\":1145:1329   */\n            tag_65:\n                /* \"#utility.yul\":1244:1255   */\n              0x00\n                /* \"#utility.yul\":1278:1284   */\n              dup3\n                /* \"#utility.yul\":1273:1276   */\n              dup3\n                /* \"#utility.yul\":1266:1285   */\n              mstore\n                /* \"#utility.yul\":1318:1322   */\n              0x20\n                /* \"#utility.yul\":1313:1316   */\n              dup3\n                /* \"#utility.yul\":1309:1323   */\n              add\n                /* \"#utility.yul\":1294:1323   */\n              swap1\n              pop\n                /* \"#utility.yul\":1145:1329   */\n              swap3\n              swap2\n              pop\n              pop\n              jump\t// out\n                /* \"#utility.yul\":1335:1467   */\n            tag_66:\n                /* \"#utility.yul\":1402:1406   */\n              0x00\n                /* \"#utility.yul\":1425:1428   */\n              dup2\n                /* \"#utility.yul\":1417:1428   */\n              swap1\n              pop\n                /* \"#utility.yul\":1455:1459   */\n              0x20\n                /* \"#utility.yul\":1450:1453   */\n              dup3\n                /* \"#utility.yul\":1446:1460   */\n              add\n                /* \"#utility.yul\":1438:1460   */\n              swap1\n              pop\n                /* \"#utility.yul\":1335:1467   */\n              swap2\n              swap1\n              pop\n              jump\t// out\n                /* \"#utility.yul\":1473:1581   */\n            tag_67:\n                /* \"#utility.yul\":1550:1574   */\n              tag_99\n                /* \"#utility.yul\":1568:1573   */\n              dup2\n                /* \"#utility.yul\":1550:1574   */\n              tag_61\n              jump\t// in\n            tag_99:\n                /* \"#utility.yul\":1545:1548   */\n              dup3\n                /* \"#utility.yul\":1538:1575   */\n              mstore\n                /* \"#utility.yul\":1473:1581   */\n              pop\n              pop\n              jump\t// out\n                /* \"#utility.yul\":1587:1766   */\n            tag_68:\n                /* \"#utility.yul\":1656:1666   */\n              0x00\n                /* \"#utility.yul\":1677:1723   */\n              tag_101\n                /* \"#utility.yul\":1719:1722   */\n              dup4\n                /* \"#utility.yul\":1711:1717   */\n              dup4\n                /* \"#utility.yul\":1677:1723   */\n              tag_67\n              jump\t// in\n            tag_101:\n                /* \"#utility.yul\":1755:1759   */\n              0x20\n                /* \"#utility.yul\":1750:1753   */\n              dup4\n                /* \"#utility.yul\":1746:1760   */\n              add\n                /* \"#utility.yul\":1732:1760   */\n              swap1\n              pop\n                /* \"#utility.yul\":1587:1766   */\n              swap3\n              swap2\n              pop\n              pop\n              jump\t// out\n                /* \"#utility.yul\":1772:1885   */\n            tag_69:\n                /* \"#utility.yul\":1842:1846   */\n              0x00\n                /* \"#utility.yul\":1874:1878   */\n              0x20\n                /* \"#utility.yul\":1869:1872   */\n              dup3\n                /* \"#utility.yul\":1865:1879   */\n              add\n                /* \"#utility.yul\":1857:1879   */\n              swap1\n              pop\n                /* \"#utility.yul\":1772:1885   */\n              swap2\n              swap1\n              pop\n              jump\t// out\n                /* \"#utility.yul\":1921:2653   */\n            tag_70:\n                /* \"#utility.yul\":2040:2043   */\n              0x00\n                /* \"#utility.yul\":2069:2123   */\n              tag_104\n                /* \"#utility.yul\":2117:2122   */\n              dup3\n                /* \"#utility.yul\":2069:2123   */\n              tag_64\n              jump\t// in\n            tag_104:\n                /* \"#utility.yul\":2139:2225   */\n              tag_105\n                /* \"#utility.yul\":2218:2224   */\n              dup2\n                /* \"#utility.yul\":2213:2216   */\n              dup6\n                /* \"#utility.yul\":2139:2225   */\n              tag_65\n              jump\t// in\n            tag_105:\n                /* \"#utility.yul\":2132:2225   */\n              swap4\n              pop\n                /* \"#utility.yul\":2249:2305   */\n              tag_106\n                /* \"#utility.yul\":2299:2304   */\n              dup4\n                /* \"#utility.yul\":2249:2305   */\n              tag_66\n              jump\t// in\n            tag_106:\n                /* \"#utility.yul\":2328:2335   */\n              dup1\n                /* \"#utility.yul\":2359:2360   */\n              0x00\n                /* \"#utility.yul\":2344:2628   */\n            tag_107:\n                /* \"#utility.yul\":2369:2375   */\n              dup4\n                /* \"#utility.yul\":2366:2367   */\n              dup2\n                /* \"#utility.yul\":2363:2376   */\n              lt\n                /* \"#utility.yul\":2344:2628   */\n              iszero\n              tag_109\n              jumpi\n                /* \"#utility.yul\":2445:2451   */\n              dup2\n                /* \"#utility.yul\":2439:2452   */\n              mload\n                /* \"#utility.yul\":2472:2535   */\n              tag_110\n                /* \"#utility.yul\":2531:2534   */\n              dup9\n                /* \"#utility.yul\":2516:2529   */\n              dup3\n                /* \"#utility.yul\":2472:2535   */\n              tag_68\n              jump\t// in\n            tag_110:\n                /* \"#utility.yul\":2465:2535   */\n              swap8\n              pop\n                /* \"#utility.yul\":2558:2618   */\n              tag_111\n                /* \"#utility.yul\":2611:2617   */\n              dup4\n                /* \"#utility.yul\":2558:2618   */\n              tag_69\n              jump\t// in\n            tag_111:\n                /* \"#utility.yul\":2548:2618   */\n              swap3\n              pop\n                /* \"#utility.yul\":2404:2628   */\n              pop\n                /* \"#utility.yul\":2391:2392   */\n              0x01\n                /* \"#utility.yul\":2388:2389   */\n              dup2\n                /* \"#utility.yul\":2384:2393   */\n              add\n                /* \"#utility.yul\":2379:2393   */\n              swap1\n              pop\n                /* \"#utility.yul\":2344:2628   */\n              jump(tag_107)\n            tag_109:\n                /* \"#utility.yul\":2348:2362   */\n              pop\n                /* \"#utility.yul\":2644:2647   */\n              dup6\n                /* \"#utility.yul\":2637:2647   */\n              swap4\n              pop\n                /* \"#utility.yul\":2045:2653   */\n              pop\n              pop\n              pop\n                /* \"#utility.yul\":1921:2653   */\n              swap3\n              swap2\n              pop\n              pop\n              jump\t// out\n                /* \"#utility.yul\":2659:3032   */\n            tag_15:\n                /* \"#utility.yul\":2802:2806   */\n              0x00\n                /* \"#utility.yul\":2840:2842   */\n              0x20\n                /* \"#utility.yul\":2829:2838   */\n              dup3\n                /* \"#utility.yul\":2825:2843   */\n              add\n                /* \"#utility.yul\":2817:2843   */\n              swap1\n              pop\n                /* \"#utility.yul\":2889:2898   */\n              dup2\n                /* \"#utility.yul\":2883:2887   */\n              dup2\n                /* \"#utility.yul\":2879:2899   */\n              sub\n                /* \"#utility.yul\":2875:2876   */\n              0x00\n                /* \"#utility.yul\":2864:2873   */\n              dup4\n                /* \"#utility.yul\":2860:2877   */\n              add\n                /* \"#utility.yul\":2853:2900   */\n              mstore\n                /* \"#utility.yul\":2917:3025   */\n              tag_113\n                /* \"#utility.yul\":3020:3024   */\n              dup2\n                /* \"#utility.yul\":3011:3017   */\n              dup5\n                /* \"#utility.yul\":2917:3025   */\n              tag_70\n              jump\t// in\n            tag_113:\n                /* \"#utility.yul\":2909:3025   */\n              swap1\n              pop\n                /* \"#utility.yul\":2659:3032   */\n              swap3\n              swap2\n              pop\n              pop\n              jump\t// out\n                /* \"#utility.yul\":3038:3128   */\n            tag_71:\n                /* \"#utility.yul\":3072:3079   */\n              0x00\n                /* \"#utility.yul\":3115:3120   */\n              dup2\n                /* \"#utility.yul\":3108:3121   */\n              iszero\n                /* \"#utility.yul\":3101:3122   */\n              iszero\n                /* \"#utility.yul\":3090:3122   */\n              swap1\n              pop\n                /* \"#utility.yul\":3038:3128   */\n              swap2\n              swap1\n              pop\n              jump\t// out\n                /* \"#utility.yul\":3134:3243   */\n            tag_72:\n                /* \"#utility.yul\":3215:3236   */\n              tag_116\n                /* \"#utility.yul\":3230:3235   */\n              dup2\n                /* \"#utility.yul\":3215:3236   */\n              tag_71\n              jump\t// in\n            tag_116:\n                /* \"#utility.yul\":3210:3213   */\n              dup3\n                /* \"#utility.yul\":3203:3237   */\n              mstore\n                /* \"#utility.yul\":3134:3243   */\n              pop\n              pop\n              jump\t// out\n                /* \"#utility.yul\":3249:3459   */\n            tag_19:\n                /* \"#utility.yul\":3336:3340   */\n              0x00\n                /* \"#utility.yul\":3374:3376   */\n              0x20\n                /* \"#utility.yul\":3363:3372   */\n              dup3\n                /* \"#utility.yul\":3359:3377   */\n              add\n                /* \"#utility.yul\":3351:3377   */\n              swap1\n              pop\n                /* \"#utility.yul\":3387:3452   */\n              tag_118\n                /* \"#utility.yul\":3449:3450   */\n              0x00\n                /* \"#utility.yul\":3438:3447   */\n              dup4\n                /* \"#utility.yul\":3434:3451   */\n              add\n                /* \"#utility.yul\":3425:3431   */\n              dup5\n                /* \"#utility.yul\":3387:3452   */\n              tag_72\n              jump\t// in\n            tag_118:\n                /* \"#utility.yul\":3249:3459   */\n              swap3\n              swap2\n              pop\n              pop\n              jump\t// out\n                /* \"#utility.yul\":3465:3634   */\n            tag_73:\n                /* \"#utility.yul\":3549:3560   */\n              0x00\n                /* \"#utility.yul\":3583:3589   */\n              dup3\n                /* \"#utility.yul\":3578:3581   */\n              dup3\n                /* \"#utility.yul\":3571:3590   */\n              mstore\n                /* \"#utility.yul\":3623:3627   */\n              0x20\n                /* \"#utility.yul\":3618:3621   */\n              dup3\n                /* \"#utility.yul\":3614:3628   */\n              add\n                /* \"#utility.yul\":3599:3628   */\n              swap1\n              pop\n                /* \"#utility.yul\":3465:3634   */\n              swap3\n              swap2\n              pop\n              pop\n              jump\t// out\n                /* \"#utility.yul\":3640:3883   */\n            tag_74:\n                /* \"#utility.yul\":3780:3814   */\n              0x4c61206d65736120656c6563746f72616c206465626520657374617220616269\n                /* \"#utility.yul\":3776:3777   */\n              0x00\n                /* \"#utility.yul\":3768:3774   */\n              dup3\n                /* \"#utility.yul\":3764:3778   */\n              add\n                /* \"#utility.yul\":3757:3815   */\n              mstore\n                /* \"#utility.yul\":3849:3875   */\n              0x65727461207061726120706f646572206365727261726c610000000000000000\n                /* \"#utility.yul\":3844:3846   */\n              0x20\n                /* \"#utility.yul\":3836:3842   */\n              dup3\n                /* \"#utility.yul\":3832:3847   */\n              add\n                /* \"#utility.yul\":3825:3876   */\n              mstore\n                /* \"#utility.yul\":3640:3883   */\n              pop\n              jump\t// out\n                /* \"#utility.yul\":3889:4255   */\n            tag_75:\n                /* \"#utility.yul\":4031:4034   */\n              0x00\n                /* \"#utility.yul\":4052:4119   */\n              tag_122\n                /* \"#utility.yul\":4116:4118   */\n              0x38\n                /* \"#utility.yul\":4111:4114   */\n              dup4\n                /* \"#utility.yul\":4052:4119   */\n              tag_73\n              jump\t// in\n            tag_122:\n                /* \"#utility.yul\":4045:4119   */\n              swap2\n              pop\n                /* \"#utility.yul\":4128:4221   */\n              tag_123\n                /* \"#utility.yul\":4217:4220   */\n              dup3\n                /* \"#utility.yul\":4128:4221   */\n              tag_74\n              jump\t// in\n            tag_123:\n                /* \"#utility.yul\":4246:4248   */\n              0x40\n                /* \"#utility.yul\":4241:4244   */\n              dup3\n                /* \"#utility.yul\":4237:4249   */\n              add\n                /* \"#utility.yul\":4230:4249   */\n              swap1\n              pop\n                /* \"#utility.yul\":3889:4255   */\n              swap2\n              swap1\n              pop\n              jump\t// out\n                /* \"#utility.yul\":4261:4680   */\n            tag_27:\n                /* \"#utility.yul\":4427:4431   */\n              0x00\n                /* \"#utility.yul\":4465:4467   */\n              0x20\n                /* \"#utility.yul\":4454:4463   */\n              dup3\n                /* \"#utility.yul\":4450:4468   */\n              add\n                /* \"#utility.yul\":4442:4468   */\n              swap1\n              pop\n                /* \"#utility.yul\":4514:4523   */\n              dup2\n                /* \"#utility.yul\":4508:4512   */\n              dup2\n                /* \"#utility.yul\":4504:4524   */\n              sub\n                /* \"#utility.yul\":4500:4501   */\n              0x00\n                /* \"#utility.yul\":4489:4498   */\n              dup4\n                /* \"#utility.yul\":4485:4502   */\n              add\n                /* \"#utility.yul\":4478:4525   */\n              mstore\n                /* \"#utility.yul\":4542:4673   */\n              tag_125\n                /* \"#utility.yul\":4668:4672   */\n              dup2\n                /* \"#utility.yul\":4542:4673   */\n              tag_75\n              jump\t// in\n            tag_125:\n                /* \"#utility.yul\":4534:4673   */\n              swap1\n              pop\n                /* \"#utility.yul\":4261:4680   */\n              swap2\n              swap1\n              pop\n              jump\t// out\n                /* \"#utility.yul\":4686:4927   */\n            tag_76:\n                /* \"#utility.yul\":4826:4860   */\n              0x4c6120766f746163696f6e206e6f206861207465726d696e61646f2061756e2e\n                /* \"#utility.yul\":4822:4823   */\n              0x00\n                /* \"#utility.yul\":4814:4820   */\n              dup3\n                /* \"#utility.yul\":4810:4824   */\n              add\n                /* \"#utility.yul\":4803:4861   */\n              mstore\n                /* \"#utility.yul\":4895:4919   */\n              0x20457370657265206120717565207465726d696e652e00000000000000000000\n                /* \"#utility.yul\":4890:4892   */\n              0x20\n                /* \"#utility.yul\":4882:4888   */\n              dup3\n                /* \"#utility.yul\":4878:4893   */\n              add\n                /* \"#utility.yul\":4871:4920   */\n              mstore\n                /* \"#utility.yul\":4686:4927   */\n              pop\n              jump\t// out\n                /* \"#utility.yul\":4933:5299   */\n            tag_77:\n                /* \"#utility.yul\":5075:5078   */\n              0x00\n                /* \"#utility.yul\":5096:5163   */\n              tag_128\n                /* \"#utility.yul\":5160:5162   */\n              0x36\n                /* \"#utility.yul\":5155:5158   */\n              dup4\n                /* \"#utility.yul\":5096:5163   */\n              tag_73\n              jump\t// in\n            tag_128:\n                /* \"#utility.yul\":5089:5163   */\n              swap2\n              pop\n                /* \"#utility.yul\":5172:5265   */\n              tag_129\n                /* \"#utility.yul\":5261:5264   */\n              dup3\n                /* \"#utility.yul\":5172:5265   */\n              tag_76\n              jump\t// in\n            tag_129:\n                /* \"#utility.yul\":5290:5292   */\n              0x40\n                /* \"#utility.yul\":5285:5288   */\n              dup3\n                /* \"#utility.yul\":5281:5293   */\n              add\n                /* \"#utility.yul\":5274:5293   */\n              swap1\n              pop\n                /* \"#utility.yul\":4933:5299   */\n              swap2\n              swap1\n              pop\n              jump\t// out\n                /* \"#utility.yul\":5305:5724   */\n            tag_34:\n                /* \"#utility.yul\":5471:5475   */\n              0x00\n                /* \"#utility.yul\":5509:5511   */\n              0x20\n                /* \"#utility.yul\":5498:5507   */\n              dup3\n                /* \"#utility.yul\":5494:5512   */\n              add\n                /* \"#utility.yul\":5486:5512   */\n              swap1\n              pop\n                /* \"#utility.yul\":5558:5567   */\n              dup2\n                /* \"#utility.yul\":5552:5556   */\n              dup2\n                /* \"#utility.yul\":5548:5568   */\n              sub\n                /* \"#utility.yul\":5544:5545   */\n              0x00\n                /* \"#utility.yul\":5533:5542   */\n              dup4\n                /* \"#utility.yul\":5529:5546   */\n              add\n                /* \"#utility.yul\":5522:5569   */\n              mstore\n                /* \"#utility.yul\":5586:5717   */\n              tag_131\n                /* \"#utility.yul\":5712:5716   */\n              dup2\n                /* \"#utility.yul\":5586:5717   */\n              tag_77\n              jump\t// in\n            tag_131:\n                /* \"#utility.yul\":5578:5717   */\n              swap1\n              pop\n                /* \"#utility.yul\":5305:5724   */\n              swap2\n              swap1\n              pop\n              jump\t// out\n                /* \"#utility.yul\":5730:5965   */\n            tag_78:\n                /* \"#utility.yul\":5870:5904   */\n              0x457374612066756e63696f6e20736f6c6f206465626520656a6563757461726c\n                /* \"#utility.yul\":5866:5867   */\n              0x00\n                /* \"#utility.yul\":5858:5864   */\n              dup3\n                /* \"#utility.yul\":5854:5868   */\n              add\n                /* \"#utility.yul\":5847:5905   */\n              mstore\n                /* \"#utility.yul\":5939:5957   */\n              0x6120656c20707265736964656e74652e00000000000000000000000000000000\n                /* \"#utility.yul\":5934:5936   */\n              0x20\n                /* \"#utility.yul\":5926:5932   */\n              dup3\n                /* \"#utility.yul\":5922:5937   */\n              add\n                /* \"#utility.yul\":5915:5958   */\n              mstore\n                /* \"#utility.yul\":5730:5965   */\n              pop\n              jump\t// out\n                /* \"#utility.yul\":5971:6337   */\n            tag_79:\n                /* \"#utility.yul\":6113:6116   */\n              0x00\n                /* \"#utility.yul\":6134:6201   */\n              tag_134\n                /* \"#utility.yul\":6198:6200   */\n              0x30\n                /* \"#utility.yul\":6193:6196   */\n              dup4\n                /* \"#utility.yul\":6134:6201   */\n              tag_73\n              jump\t// in\n            tag_134:\n                /* \"#utility.yul\":6127:6201   */\n              swap2\n              pop\n                /* \"#utility.yul\":6210:6303   */\n              tag_135\n                /* \"#utility.yul\":6299:6302   */\n              dup3\n                /* \"#utility.yul\":6210:6303   */\n              tag_78\n              jump\t// in\n            tag_135:\n                /* \"#utility.yul\":6328:6330   */\n              0x40\n                /* \"#utility.yul\":6323:6326   */\n              dup3\n                /* \"#utility.yul\":6319:6331   */\n              add\n                /* \"#utility.yul\":6312:6331   */\n              swap1\n              pop\n                /* \"#utility.yul\":5971:6337   */\n              swap2\n              swap1\n              pop\n              jump\t// out\n                /* \"#utility.yul\":6343:6762   */\n            tag_40:\n                /* \"#utility.yul\":6509:6513   */\n              0x00\n                /* \"#utility.yul\":6547:6549   */\n              0x20\n                /* \"#utility.yul\":6536:6545   */\n              dup3\n                /* \"#utility.yul\":6532:6550   */\n              add\n                /* \"#utility.yul\":6524:6550   */\n              swap1\n              pop\n                /* \"#utility.yul\":6596:6605   */\n              dup2\n                /* \"#utility.yul\":6590:6594   */\n              dup2\n                /* \"#utility.yul\":6586:6606   */\n              sub\n                /* \"#utility.yul\":6582:6583   */\n              0x00\n                /* \"#utility.yul\":6571:6580   */\n              dup4\n                /* \"#utility.yul\":6567:6584   */\n              add\n                /* \"#utility.yul\":6560:6607   */\n              mstore\n                /* \"#utility.yul\":6624:6755   */\n              tag_137\n                /* \"#utility.yul\":6750:6754   */\n              dup2\n                /* \"#utility.yul\":6624:6755   */\n              tag_79\n              jump\t// in\n            tag_137:\n                /* \"#utility.yul\":6616:6755   */\n              swap1\n              pop\n                /* \"#utility.yul\":6343:6762   */\n              swap2\n              swap1\n              pop\n              jump\t// out\n                /* \"#utility.yul\":6768:6948   */\n            tag_54:\n                /* \"#utility.yul\":6816:6893   */\n              0x4e487b7100000000000000000000000000000000000000000000000000000000\n                /* \"#utility.yul\":6813:6814   */\n              0x00\n                /* \"#utility.yul\":6806:6894   */\n              mstore\n                /* \"#utility.yul\":6913:6917   */\n              0x32\n                /* \"#utility.yul\":6910:6911   */\n              0x04\n                /* \"#utility.yul\":6903:6918   */\n              mstore\n                /* \"#utility.yul\":6937:6941   */\n              0x24\n                /* \"#utility.yul\":6934:6935   */\n              0x00\n                /* \"#utility.yul\":6927:6942   */\n              revert\n                /* \"#utility.yul\":6954:7134   */\n            tag_80:\n                /* \"#utility.yul\":7002:7079   */\n              0x4e487b7100000000000000000000000000000000000000000000000000000000\n                /* \"#utility.yul\":6999:7000   */\n              0x00\n                /* \"#utility.yul\":6992:7080   */\n              mstore\n                /* \"#utility.yul\":7099:7103   */\n              0x11\n                /* \"#utility.yul\":7096:7097   */\n              0x04\n                /* \"#utility.yul\":7089:7104   */\n              mstore\n                /* \"#utility.yul\":7123:7127   */\n              0x24\n                /* \"#utility.yul\":7120:7121   */\n              0x00\n                /* \"#utility.yul\":7113:7128   */\n              revert\n                /* \"#utility.yul\":7140:7331   */\n            tag_57:\n                /* \"#utility.yul\":7180:7183   */\n              0x00\n                /* \"#utility.yul\":7199:7219   */\n              tag_141\n                /* \"#utility.yul\":7217:7218   */\n              dup3\n                /* \"#utility.yul\":7199:7219   */\n              tag_61\n              jump\t// in\n            tag_141:\n                /* \"#utility.yul\":7194:7219   */\n              swap2\n              pop\n                /* \"#utility.yul\":7233:7253   */\n              tag_142\n                /* \"#utility.yul\":7251:7252   */\n              dup4\n                /* \"#utility.yul\":7233:7253   */\n              tag_61\n              jump\t// in\n            tag_142:\n                /* \"#utility.yul\":7228:7253   */\n              swap3\n              pop\n                /* \"#utility.yul\":7276:7277   */\n              dup3\n                /* \"#utility.yul\":7273:7274   */\n              dup3\n                /* \"#utility.yul\":7269:7278   */\n              add\n                /* \"#utility.yul\":7262:7278   */\n              swap1\n              pop\n                /* \"#utility.yul\":7297:7300   */\n              dup1\n                /* \"#utility.yul\":7294:7295   */\n              dup3\n                /* \"#utility.yul\":7291:7301   */\n              gt\n                /* \"#utility.yul\":7288:7324   */\n              iszero\n              tag_143\n              jumpi\n                /* \"#utility.yul\":7304:7322   */\n              tag_144\n              tag_80\n              jump\t// in\n            tag_144:\n                /* \"#utility.yul\":7288:7324   */\n            tag_143:\n                /* \"#utility.yul\":7140:7331   */\n              swap3\n              swap2\n              pop\n              pop\n              jump\t// out\n\n            auxdata: 0xa26469706673582212207c612cc87ecbe85b32d4da388140e52359e302fbdb75bb2aaeee29677e359da364736f6c634300081a0033\n        }\n    }\n\n    auxdata: 0xa264697066735822122058a1ed64db04f6f96b69ae79e42ae7dc01192d40cb119df03904b9ec5c09d12d64736f6c634300081a0033\n}\n",
				"bytecode": {
					"linkReferences": {},
					"object": "6080604052348015600e575f80fd5b50604051611d7c380380611d7c8339818101604052810190602e919060ab565b335f806101000a81548173ffffffffffffffffffffffffffffffffffffffff021916908373ffffffffffffffffffffffffffffffffffffffff160217905550806003819055505060d1565b5f80fd5b5f819050919050565b608d81607d565b81146096575f80fd5b50565b5f8151905060a5816086565b92915050565b5f6020828403121560bd5760bc6079565b5b5f60c8848285016099565b91505092915050565b611c9e806100de5f395ff3fe608060405234801561000f575f80fd5b506004361061004a575f3560e01c80632c0a3f891461004e5780634717f97c1461006a578063a44fe13114610088578063fe2442d7146100b8575b5f80fd5b610068600480360381019061006391906108c1565b6100e8565b005b610072610300565b60405161007f91906109b6565b60405180910390f35b6100a2600480360381019061009d9190610a30565b61067e565b6040516100af9190610a7d565b60405180910390f35b6100d260048036038101906100cd9190610a96565b610840565b6040516100df9190610b1c565b60405180910390f35b815f73ffffffffffffffffffffffffffffffffffffffff1660025f8381526020019081526020015f205f9054906101000a900473ffffffffffffffffffffffffffffffffffffffff1673ffffffffffffffffffffffffffffffffffffffff1603610187576040517f08c379a000000000000000000000000000000000000000000000000000000000815260040161017e90610bb5565b60405180910390fd5b60015f3373ffffffffffffffffffffffffffffffffffffffff1673ffffffffffffffffffffffffffffffffffffffff1681526020019081526020015f205f9054906101000a900460ff1615610211576040517f08c379a000000000000000000000000000000000000000000000000000000000815260040161020890610c43565b60405180910390fd5b6001805f3373ffffffffffffffffffffffffffffffffffffffff1673ffffffffffffffffffffffffffffffffffffffff1681526020019081526020015f205f6101000a81548160ff02191690831515021790555060025f8481526020019081526020015f205f9054906101000a900473ffffffffffffffffffffffffffffffffffffffff1673ffffffffffffffffffffffffffffffffffffffff16633eb76b9c836040518263ffffffff1660e01b81526004016102ce9190610c70565b5f604051808303815f87803b1580156102e5575f80fd5b505af11580156102f7573d5f803e3d5ffd5b50505050505050565b60605f8054906101000a900473ffffffffffffffffffffffffffffffffffffffff1673ffffffffffffffffffffffffffffffffffffffff163373ffffffffffffffffffffffffffffffffffffffff161461038f576040517f08c379a000000000000000000000000000000000000000000000000000000000815260040161038690610cf9565b60405180910390fd5b5f60035467ffffffffffffffff8111156103ac576103ab610d17565b5b6040519080825280602002602001820160405280156103da5781602001602082028036833780820191505090505b5090505f5b600354811015610416575f8282815181106103fd576103fc610d44565b5b60200260200101818152505080806001019150506103df565b505f5b6032811015610676575f73ffffffffffffffffffffffffffffffffffffffff1660025f8381526020019081526020015f205f9054906101000a900473ffffffffffffffffffffffffffffffffffffffff1673ffffffffffffffffffffffffffffffffffffffff16146106695760025f8281526020019081526020015f205f9054906101000a900473ffffffffffffffffffffffffffffffffffffffff1673ffffffffffffffffffffffffffffffffffffffff1663789d9e8a6040518163ffffffff1660e01b8152600401602060405180830381865afa1580156104fe573d5f803e3d5ffd5b505050506040513d601f19601f820116820180604052508101906105229190610da6565b610561576040517f08c379a000000000000000000000000000000000000000000000000000000000815260040161055890610e41565b60405180910390fd5b5f60025f8381526020019081526020015f205f9054906101000a900473ffffffffffffffffffffffffffffffffffffffff1673ffffffffffffffffffffffffffffffffffffffff16634717f97c6040518163ffffffff1660e01b81526004015f60405180830381865afa1580156105da573d5f803e3d5ffd5b505050506040513d5f823e3d601f19601f820116820180604052508101906106029190610f96565b90505f5b6003548110156106665781818151811061062357610622610d44565b5b602002602001015184828151811061063e5761063d610d44565b5b60200260200101818151610652919061100a565b915081815250508080600101915050610606565b50505b8080600101915050610419565b508091505090565b5f805f9054906101000a900473ffffffffffffffffffffffffffffffffffffffff1673ffffffffffffffffffffffffffffffffffffffff163373ffffffffffffffffffffffffffffffffffffffff161461070d576040517f08c379a000000000000000000000000000000000000000000000000000000000815260040161070490610cf9565b60405180910390fd5b825f73ffffffffffffffffffffffffffffffffffffffff1660025f8381526020019081526020015f205f9054906101000a900473ffffffffffffffffffffffffffffffffffffffff1673ffffffffffffffffffffffffffffffffffffffff16146107ac576040517f08c379a00000000000000000000000000000000000000000000000000000000081526004016107a3906110ad565b60405180910390fd5b5f83600354866040516107be90610870565b6107ca939291906110cb565b604051809103905ff0801580156107e3573d5f803e3d5ffd5b5090508060025f8781526020019081526020015f205f6101000a81548173ffffffffffffffffffffffffffffffffffffffff021916908373ffffffffffffffffffffffffffffffffffffffff160217905550809250505092915050565b6002602052805f5260405f205f915054906101000a900473ffffffffffffffffffffffffffffffffffffffff1681565b610b688061110183390190565b5f604051905090565b5f80fd5b5f80fd5b5f819050919050565b6108a08161088e565b81146108aa575f80fd5b50565b5f813590506108bb81610897565b92915050565b5f80604083850312156108d7576108d6610886565b5b5f6108e4858286016108ad565b92505060206108f5858286016108ad565b9150509250929050565b5f81519050919050565b5f82825260208201905092915050565b5f819050602082019050919050565b6109318161088e565b82525050565b5f6109428383610928565b60208301905092915050565b5f602082019050919050565b5f610964826108ff565b61096e8185610909565b935061097983610919565b805f5b838110156109a95781516109908882610937565b975061099b8361094e565b92505060018101905061097c565b5085935050505092915050565b5f6020820190508181035f8301526109ce818461095a565b905092915050565b5f73ffffffffffffffffffffffffffffffffffffffff82169050919050565b5f6109ff826109d6565b9050919050565b610a0f816109f5565b8114610a19575f80fd5b50565b5f81359050610a2a81610a06565b92915050565b5f8060408385031215610a4657610a45610886565b5b5f610a53858286016108ad565b9250506020610a6485828601610a1c565b9150509250929050565b610a77816109f5565b82525050565b5f602082019050610a905f830184610a6e565b92915050565b5f60208284031215610aab57610aaa610886565b5b5f610ab8848285016108ad565b91505092915050565b5f819050919050565b5f610ae4610adf610ada846109d6565b610ac1565b6109d6565b9050919050565b5f610af582610aca565b9050919050565b5f610b0682610aeb565b9050919050565b610b1681610afc565b82525050565b5f602082019050610b2f5f830184610b0d565b92915050565b5f82825260208201905092915050565b7f44656265206578697374697220756e61207365646520706172612065736120725f8201527f6567696f6e2e0000000000000000000000000000000000000000000000000000602082015250565b5f610b9f602683610b35565b9150610baa82610b45565b604082019050919050565b5f6020820190508181035f830152610bcc81610b93565b9050919050565b7f456c20766f74616e746520796120686120656a65726369646f207375206465725f8201527f6563686f206120766f746f2e0000000000000000000000000000000000000000602082015250565b5f610c2d602c83610b35565b9150610c3882610bd3565b604082019050919050565b5f6020820190508181035f830152610c5a81610c21565b9050919050565b610c6a8161088e565b82525050565b5f602082019050610c835f830184610c61565b92915050565b7f536f6c6f206c61206175746f7269646164207075656465206c6c6567617220615f8201527f20656a65637574617220657374612066756e63696f6e00000000000000000000602082015250565b5f610ce3603683610b35565b9150610cee82610c89565b604082019050919050565b5f6020820190508181035f830152610d1081610cd7565b9050919050565b7f4e487b71000000000000000000000000000000000000000000000000000000005f52604160045260245ffd5b7f4e487b71000000000000000000000000000000000000000000000000000000005f52603260045260245ffd5b5f8115159050919050565b610d8581610d71565b8114610d8f575f80fd5b50565b5f81519050610da081610d7c565b92915050565b5f60208284031215610dbb57610dba610886565b5b5f610dc884828501610d92565b91505092915050565b7f556e61206f206d6173207365646573206e6f2068616e207465726d696e61646f5f8201527f206c6120766f746163696f6e2e00000000000000000000000000000000000000602082015250565b5f610e2b602d83610b35565b9150610e3682610dd1565b604082019050919050565b5f6020820190508181035f830152610e5881610e1f565b9050919050565b5f80fd5b5f601f19601f8301169050919050565b610e7c82610e63565b810181811067ffffffffffffffff82111715610e9b57610e9a610d17565b5b80604052505050565b5f610ead61087d565b9050610eb98282610e73565b919050565b5f67ffffffffffffffff821115610ed857610ed7610d17565b5b602082029050602081019050919050565b5f80fd5b5f81519050610efb81610897565b92915050565b5f610f13610f0e84610ebe565b610ea4565b90508083825260208201905060208402830185811115610f3657610f35610ee9565b5b835b81811015610f5f5780610f4b8882610eed565b845260208401935050602081019050610f38565b5050509392505050565b5f82601f830112610f7d57610f7c610e5f565b5b8151610f8d848260208601610f01565b91505092915050565b5f60208284031215610fab57610faa610886565b5b5f82015167ffffffffffffffff811115610fc857610fc761088a565b5b610fd484828501610f69565b91505092915050565b7f4e487b71000000000000000000000000000000000000000000000000000000005f52601160045260245ffd5b5f6110148261088e565b915061101f8361088e565b925082820190508082111561103757611036610fdd565b5b92915050565b7f59612065786973746520756e61207365646520706172612065736120726567695f8201527f6f6e2e0000000000000000000000000000000000000000000000000000000000602082015250565b5f611097602383610b35565b91506110a28261103d565b604082019050919050565b5f6020820190508181035f8301526110c48161108b565b9050919050565b5f6060820190506110de5f830186610a6e565b6110eb6020830185610c61565b6110f86040830184610c61565b94935050505056fe608060405234801561000f575f80fd5b50604051610b68380380610b68833981810160405281019061003191906102d8565b828282806001819055508167ffffffffffffffff81111561005557610054610328565b5b6040519080825280602002602001820160405280156100835781602001602082028036833780820191505090505b50600290805190602001906100999291906101e1565b506100a861012760201b60201c565b505080600360026101000a81548173ffffffffffffffffffffffffffffffffffffffff021916908373ffffffffffffffffffffffffffffffffffffffff1602179055505f60035f6101000a81548160ff0219169083151502179055505f600360016101000a81548160ff02191690831515021790555050505050610355565b60015f80601c81526020019081526020015f208190555060015f80600881526020019081526020015f208190555060015f80602981526020019081526020015f208190555060055f80602c81526020019081526020015f208190555060055f80602a81526020019081526020015f208190555060045f80603181526020019081526020015f208190555060045f80600981526020019081526020015f208190555060025f80601d81526020019081526020015f2081905550565b828054828255905f5260205f2090810192821561021b579160200282015b8281111561021a5782518255916020019190600101906101ff565b5b509050610228919061022c565b5090565b5b80821115610243575f815f90555060010161022d565b5090565b5f80fd5b5f73ffffffffffffffffffffffffffffffffffffffff82169050919050565b5f6102748261024b565b9050919050565b6102848161026a565b811461028e575f80fd5b50565b5f8151905061029f8161027b565b92915050565b5f819050919050565b6102b7816102a5565b81146102c1575f80fd5b50565b5f815190506102d2816102ae565b92915050565b5f805f606084860312156102ef576102ee610247565b5b5f6102fc86828701610291565b935050602061030d868287016102c4565b925050604061031e868287016102c4565b9150509250925092565b7f4e487b71000000000000000000000000000000000000000000000000000000005f52604160045260245ffd5b610806806103625f395ff3fe608060405234801561000f575f80fd5b5060043610610055575f3560e01c80633eb76b9c146100595780634717f97c14610075578063789d9e8a14610093578063affc0670146100b1578063c631b292146100bb575b5f80fd5b610073600480360381019061006e9190610454565b6100c5565b005b61007d610128565b60405161008a9190610536565b60405180910390f35b61009b6101d3565b6040516100a89190610570565b60405180910390f35b6100b96101e5565b005b6100c3610292565b005b60011515600360019054906101000a900460ff1615151461011b576040517f08c379a000000000000000000000000000000000000000000000000000000000815260040161011290610609565b60405180910390fd5b610124816103ae565b5050565b60606001151560035f9054906101000a900460ff1615151461017f576040517f08c379a000000000000000000000000000000000000000000000000000000000815260040161017690610697565b60405180910390fd5b60028054806020026020016040519081016040528092919081815260200182805480156101c957602002820191905f5260205f20905b8154815260200190600101908083116101b5575b5050505050905090565b60035f9054906101000a900460ff1681565b3373ffffffffffffffffffffffffffffffffffffffff16600360029054906101000a900473ffffffffffffffffffffffffffffffffffffffff1673ffffffffffffffffffffffffffffffffffffffff1614610275576040517f08c379a000000000000000000000000000000000000000000000000000000000815260040161026c90610725565b60405180910390fd5b6001600360016101000a81548160ff021916908315150217905550565b3373ffffffffffffffffffffffffffffffffffffffff16600360029054906101000a900473ffffffffffffffffffffffffffffffffffffffff1673ffffffffffffffffffffffffffffffffffffffff1614610322576040517f08c379a000000000000000000000000000000000000000000000000000000000815260040161031990610725565b60405180910390fd5b60011515600360019054906101000a900460ff16151514610378576040517f08c379a000000000000000000000000000000000000000000000000000000000815260040161036f90610609565b60405180910390fd5b5f600360016101000a81548160ff021916908315150217905550600160035f6101000a81548160ff021916908315150217905550565b5f80821180156103c2575060028054905082105b15610414575f8060015481526020019081526020015f2054600283815481106103ee576103ed610743565b5b905f5260205f20015f828254610404919061079d565b9250508190555060019050610418565b5f90505b919050565b5f80fd5b5f819050919050565b61043381610421565b811461043d575f80fd5b50565b5f8135905061044e8161042a565b92915050565b5f602082840312156104695761046861041d565b5b5f61047684828501610440565b91505092915050565b5f81519050919050565b5f82825260208201905092915050565b5f819050602082019050919050565b6104b181610421565b82525050565b5f6104c283836104a8565b60208301905092915050565b5f602082019050919050565b5f6104e48261047f565b6104ee8185610489565b93506104f983610499565b805f5b8381101561052957815161051088826104b7565b975061051b836104ce565b9250506001810190506104fc565b5085935050505092915050565b5f6020820190508181035f83015261054e81846104da565b905092915050565b5f8115159050919050565b61056a81610556565b82525050565b5f6020820190506105835f830184610561565b92915050565b5f82825260208201905092915050565b7f4c61206d65736120656c6563746f72616c2064656265206573746172206162695f8201527f65727461207061726120706f646572206365727261726c610000000000000000602082015250565b5f6105f3603883610589565b91506105fe82610599565b604082019050919050565b5f6020820190508181035f830152610620816105e7565b9050919050565b7f4c6120766f746163696f6e206e6f206861207465726d696e61646f2061756e2e5f8201527f20457370657265206120717565207465726d696e652e00000000000000000000602082015250565b5f610681603683610589565b915061068c82610627565b604082019050919050565b5f6020820190508181035f8301526106ae81610675565b9050919050565b7f457374612066756e63696f6e20736f6c6f206465626520656a6563757461726c5f8201527f6120656c20707265736964656e74652e00000000000000000000000000000000602082015250565b5f61070f603083610589565b915061071a826106b5565b604082019050919050565b5f6020820190508181035f83015261073c81610703565b9050919050565b7f4e487b71000000000000000000000000000000000000000000000000000000005f52603260045260245ffd5b7f4e487b71000000000000000000000000000000000000000000000000000000005f52601160045260245ffd5b5f6107a782610421565b91506107b283610421565b92508282019050808211156107ca576107c9610770565b5b9291505056fea26469706673582212207c612cc87ecbe85b32d4da388140e52359e302fbdb75bb2aaeee29677e359da364736f6c634300081a0033a264697066735822122058a1ed64db04f6f96b69ae79e42ae7dc01192d40cb119df03904b9ec5c09d12d64736f6c634300081a0033",
					"opcodes": "PUSH1 0x80 PUSH1 0x40 MSTORE CALLVALUE DUP1 ISZERO PUSH1 0xE JUMPI PUSH0 DUP1 REVERT JUMPDEST POP PUSH1 0x40 MLOAD PUSH2 0x1D7C CODESIZE SUB DUP1 PUSH2 0x1D7C DUP4 CODECOPY DUP2 DUP2 ADD PUSH1 0x40 MSTORE DUP2 ADD SWAP1 PUSH1 0x2E SWAP2 SWAP1 PUSH1 0xAB JUMP JUMPDEST CALLER PUSH0 DUP1 PUSH2 0x100 EXP DUP2 SLOAD DUP2 PUSH20 0xFFFFFFFFFFFFFFFFFFFFFFFFFFFFFFFFFFFFFFFF MUL NOT AND SWAP1 DUP4 PUSH20 0xFFFFFFFFFFFFFFFFFFFFFFFFFFFFFFFFFFFFFFFF AND MUL OR SWAP1 SSTORE POP DUP1 PUSH1 0x3 DUP2 SWAP1 SSTORE POP POP PUSH1 0xD1 JUMP JUMPDEST PUSH0 DUP1 REVERT JUMPDEST PUSH0 DUP2 SWAP1 POP SWAP2 SWAP1 POP JUMP JUMPDEST PUSH1 0x8D DUP2 PUSH1 0x7D JUMP JUMPDEST DUP2 EQ PUSH1 0x96 JUMPI PUSH0 DUP1 REVERT JUMPDEST POP JUMP JUMPDEST PUSH0 DUP2 MLOAD SWAP1 POP PUSH1 0xA5 DUP2 PUSH1 0x86 JUMP JUMPDEST SWAP3 SWAP2 POP POP JUMP JUMPDEST PUSH0 PUSH1 0x20 DUP3 DUP5 SUB SLT ISZERO PUSH1 0xBD JUMPI PUSH1 0xBC PUSH1 0x79 JUMP JUMPDEST JUMPDEST PUSH0 PUSH1 0xC8 DUP5 DUP3 DUP6 ADD PUSH1 0x99 JUMP JUMPDEST SWAP2 POP POP SWAP3 SWAP2 POP POP JUMP JUMPDEST PUSH2 0x1C9E DUP1 PUSH2 0xDE PUSH0 CODECOPY PUSH0 RETURN INVALID PUSH1 0x80 PUSH1 0x40 MSTORE CALLVALUE DUP1 ISZERO PUSH2 0xF JUMPI PUSH0 DUP1 REVERT JUMPDEST POP PUSH1 0x4 CALLDATASIZE LT PUSH2 0x4A JUMPI PUSH0 CALLDATALOAD PUSH1 0xE0 SHR DUP1 PUSH4 0x2C0A3F89 EQ PUSH2 0x4E JUMPI DUP1 PUSH4 0x4717F97C EQ PUSH2 0x6A JUMPI DUP1 PUSH4 0xA44FE131 EQ PUSH2 0x88 JUMPI DUP1 PUSH4 0xFE2442D7 EQ PUSH2 0xB8 JUMPI JUMPDEST PUSH0 DUP1 REVERT JUMPDEST PUSH2 0x68 PUSH1 0x4 DUP1 CALLDATASIZE SUB DUP2 ADD SWAP1 PUSH2 0x63 SWAP2 SWAP1 PUSH2 0x8C1 JUMP JUMPDEST PUSH2 0xE8 JUMP JUMPDEST STOP JUMPDEST PUSH2 0x72 PUSH2 0x300 JUMP JUMPDEST PUSH1 0x40 MLOAD PUSH2 0x7F SWAP2 SWAP1 PUSH2 0x9B6 JUMP JUMPDEST PUSH1 0x40 MLOAD DUP1 SWAP2 SUB SWAP1 RETURN JUMPDEST PUSH2 0xA2 PUSH1 0x4 DUP1 CALLDATASIZE SUB DUP2 ADD SWAP1 PUSH2 0x9D SWAP2 SWAP1 PUSH2 0xA30 JUMP JUMPDEST PUSH2 0x67E JUMP JUMPDEST PUSH1 0x40 MLOAD PUSH2 0xAF SWAP2 SWAP1 PUSH2 0xA7D JUMP JUMPDEST PUSH1 0x40 MLOAD DUP1 SWAP2 SUB SWAP1 RETURN JUMPDEST PUSH2 0xD2 PUSH1 0x4 DUP1 CALLDATASIZE SUB DUP2 ADD SWAP1 PUSH2 0xCD SWAP2 SWAP1 PUSH2 0xA96 JUMP JUMPDEST PUSH2 0x840 JUMP JUMPDEST PUSH1 0x40 MLOAD PUSH2 0xDF SWAP2 SWAP1 PUSH2 0xB1C JUMP JUMPDEST PUSH1 0x40 MLOAD DUP1 SWAP2 SUB SWAP1 RETURN JUMPDEST DUP2 PUSH0 PUSH20 0xFFFFFFFFFFFFFFFFFFFFFFFFFFFFFFFFFFFFFFFF AND PUSH1 0x2 PUSH0 DUP4 DUP2 MSTORE PUSH1 0x20 ADD SWAP1 DUP2 MSTORE PUSH1 0x20 ADD PUSH0 KECCAK256 PUSH0 SWAP1 SLOAD SWAP1 PUSH2 0x100 EXP SWAP1 DIV PUSH20 0xFFFFFFFFFFFFFFFFFFFFFFFFFFFFFFFFFFFFFFFF AND PUSH20 0xFFFFFFFFFFFFFFFFFFFFFFFFFFFFFFFFFFFFFFFF AND SUB PUSH2 0x187 JUMPI PUSH1 0x40 MLOAD PUSH32 0x8C379A000000000000000000000000000000000000000000000000000000000 DUP2 MSTORE PUSH1 0x4 ADD PUSH2 0x17E SWAP1 PUSH2 0xBB5 JUMP JUMPDEST PUSH1 0x40 MLOAD DUP1 SWAP2 SUB SWAP1 REVERT JUMPDEST PUSH1 0x1 PUSH0 CALLER PUSH20 0xFFFFFFFFFFFFFFFFFFFFFFFFFFFFFFFFFFFFFFFF AND PUSH20 0xFFFFFFFFFFFFFFFFFFFFFFFFFFFFFFFFFFFFFFFF AND DUP2 MSTORE PUSH1 0x20 ADD SWAP1 DUP2 MSTORE PUSH1 0x20 ADD PUSH0 KECCAK256 PUSH0 SWAP1 SLOAD SWAP1 PUSH2 0x100 EXP SWAP1 DIV PUSH1 0xFF AND ISZERO PUSH2 0x211 JUMPI PUSH1 0x40 MLOAD PUSH32 0x8C379A000000000000000000000000000000000000000000000000000000000 DUP2 MSTORE PUSH1 0x4 ADD PUSH2 0x208 SWAP1 PUSH2 0xC43 JUMP JUMPDEST PUSH1 0x40 MLOAD DUP1 SWAP2 SUB SWAP1 REVERT JUMPDEST PUSH1 0x1 DUP1 PUSH0 CALLER PUSH20 0xFFFFFFFFFFFFFFFFFFFFFFFFFFFFFFFFFFFFFFFF AND PUSH20 0xFFFFFFFFFFFFFFFFFFFFFFFFFFFFFFFFFFFFFFFF AND DUP2 MSTORE PUSH1 0x20 ADD SWAP1 DUP2 MSTORE PUSH1 0x20 ADD PUSH0 KECCAK256 PUSH0 PUSH2 0x100 EXP DUP2 SLOAD DUP2 PUSH1 0xFF MUL NOT AND SWAP1 DUP4 ISZERO ISZERO MUL OR SWAP1 SSTORE POP PUSH1 0x2 PUSH0 DUP5 DUP2 MSTORE PUSH1 0x20 ADD SWAP1 DUP2 MSTORE PUSH1 0x20 ADD PUSH0 KECCAK256 PUSH0 SWAP1 SLOAD SWAP1 PUSH2 0x100 EXP SWAP1 DIV PUSH20 0xFFFFFFFFFFFFFFFFFFFFFFFFFFFFFFFFFFFFFFFF AND PUSH20 0xFFFFFFFFFFFFFFFFFFFFFFFFFFFFFFFFFFFFFFFF AND PUSH4 0x3EB76B9C DUP4 PUSH1 0x40 MLOAD DUP3 PUSH4 0xFFFFFFFF AND PUSH1 0xE0 SHL DUP2 MSTORE PUSH1 0x4 ADD PUSH2 0x2CE SWAP2 SWAP1 PUSH2 0xC70 JUMP JUMPDEST PUSH0 PUSH1 0x40 MLOAD DUP1 DUP4 SUB DUP2 PUSH0 DUP8 DUP1 EXTCODESIZE ISZERO DUP1 ISZERO PUSH2 0x2E5 JUMPI PUSH0 DUP1 REVERT JUMPDEST POP GAS CALL ISZERO DUP1 ISZERO PUSH2 0x2F7 JUMPI RETURNDATASIZE PUSH0 DUP1 RETURNDATACOPY RETURNDATASIZE PUSH0 REVERT JUMPDEST POP POP POP POP POP POP POP JUMP JUMPDEST PUSH1 0x60 PUSH0 DUP1 SLOAD SWAP1 PUSH2 0x100 EXP SWAP1 DIV PUSH20 0xFFFFFFFFFFFFFFFFFFFFFFFFFFFFFFFFFFFFFFFF AND PUSH20 0xFFFFFFFFFFFFFFFFFFFFFFFFFFFFFFFFFFFFFFFF AND CALLER PUSH20 0xFFFFFFFFFFFFFFFFFFFFFFFFFFFFFFFFFFFFFFFF AND EQ PUSH2 0x38F JUMPI PUSH1 0x40 MLOAD PUSH32 0x8C379A000000000000000000000000000000000000000000000000000000000 DUP2 MSTORE PUSH1 0x4 ADD PUSH2 0x386 SWAP1 PUSH2 0xCF9 JUMP JUMPDEST PUSH1 0x40 MLOAD DUP1 SWAP2 SUB SWAP1 REVERT JUMPDEST PUSH0 PUSH1 0x3 SLOAD PUSH8 0xFFFFFFFFFFFFFFFF DUP2 GT ISZERO PUSH2 0x3AC JUMPI PUSH2 0x3AB PUSH2 0xD17 JUMP JUMPDEST JUMPDEST PUSH1 0x40 MLOAD SWAP1 DUP1 DUP3 MSTORE DUP1 PUSH1 0x20 MUL PUSH1 0x20 ADD DUP3 ADD PUSH1 0x40 MSTORE DUP1 ISZERO PUSH2 0x3DA JUMPI DUP2 PUSH1 0x20 ADD PUSH1 0x20 DUP3 MUL DUP1 CALLDATASIZE DUP4 CALLDATACOPY DUP1 DUP3 ADD SWAP2 POP POP SWAP1 POP JUMPDEST POP SWAP1 POP PUSH0 JUMPDEST PUSH1 0x3 SLOAD DUP2 LT ISZERO PUSH2 0x416 JUMPI PUSH0 DUP3 DUP3 DUP2 MLOAD DUP2 LT PUSH2 0x3FD JUMPI PUSH2 0x3FC PUSH2 0xD44 JUMP JUMPDEST JUMPDEST PUSH1 0x20 MUL PUSH1 0x20 ADD ADD DUP2 DUP2 MSTORE POP POP DUP1 DUP1 PUSH1 0x1 ADD SWAP2 POP POP PUSH2 0x3DF JUMP JUMPDEST POP PUSH0 JUMPDEST PUSH1 0x32 DUP2 LT ISZERO PUSH2 0x676 JUMPI PUSH0 PUSH20 0xFFFFFFFFFFFFFFFFFFFFFFFFFFFFFFFFFFFFFFFF AND PUSH1 0x2 PUSH0 DUP4 DUP2 MSTORE PUSH1 0x20 ADD SWAP1 DUP2 MSTORE PUSH1 0x20 ADD PUSH0 KECCAK256 PUSH0 SWAP1 SLOAD SWAP1 PUSH2 0x100 EXP SWAP1 DIV PUSH20 0xFFFFFFFFFFFFFFFFFFFFFFFFFFFFFFFFFFFFFFFF AND PUSH20 0xFFFFFFFFFFFFFFFFFFFFFFFFFFFFFFFFFFFFFFFF AND EQ PUSH2 0x669 JUMPI PUSH1 0x2 PUSH0 DUP3 DUP2 MSTORE PUSH1 0x20 ADD SWAP1 DUP2 MSTORE PUSH1 0x20 ADD PUSH0 KECCAK256 PUSH0 SWAP1 SLOAD SWAP1 PUSH2 0x100 EXP SWAP1 DIV PUSH20 0xFFFFFFFFFFFFFFFFFFFFFFFFFFFFFFFFFFFFFFFF AND PUSH20 0xFFFFFFFFFFFFFFFFFFFFFFFFFFFFFFFFFFFFFFFF AND PUSH4 0x789D9E8A PUSH1 0x40 MLOAD DUP2 PUSH4 0xFFFFFFFF AND PUSH1 0xE0 SHL DUP2 MSTORE PUSH1 0x4 ADD PUSH1 0x20 PUSH1 0x40 MLOAD DUP1 DUP4 SUB DUP2 DUP7 GAS STATICCALL ISZERO DUP1 ISZERO PUSH2 0x4FE JUMPI RETURNDATASIZE PUSH0 DUP1 RETURNDATACOPY RETURNDATASIZE PUSH0 REVERT JUMPDEST POP POP POP POP PUSH1 0x40 MLOAD RETURNDATASIZE PUSH1 0x1F NOT PUSH1 0x1F DUP3 ADD AND DUP3 ADD DUP1 PUSH1 0x40 MSTORE POP DUP2 ADD SWAP1 PUSH2 0x522 SWAP2 SWAP1 PUSH2 0xDA6 JUMP JUMPDEST PUSH2 0x561 JUMPI PUSH1 0x40 MLOAD PUSH32 0x8C379A000000000000000000000000000000000000000000000000000000000 DUP2 MSTORE PUSH1 0x4 ADD PUSH2 0x558 SWAP1 PUSH2 0xE41 JUMP JUMPDEST PUSH1 0x40 MLOAD DUP1 SWAP2 SUB SWAP1 REVERT JUMPDEST PUSH0 PUSH1 0x2 PUSH0 DUP4 DUP2 MSTORE PUSH1 0x20 ADD SWAP1 DUP2 MSTORE PUSH1 0x20 ADD PUSH0 KECCAK256 PUSH0 SWAP1 SLOAD SWAP1 PUSH2 0x100 EXP SWAP1 DIV PUSH20 0xFFFFFFFFFFFFFFFFFFFFFFFFFFFFFFFFFFFFFFFF AND PUSH20 0xFFFFFFFFFFFFFFFFFFFFFFFFFFFFFFFFFFFFFFFF AND PUSH4 0x4717F97C PUSH1 0x40 MLOAD DUP2 PUSH4 0xFFFFFFFF AND PUSH1 0xE0 SHL DUP2 MSTORE PUSH1 0x4 ADD PUSH0 PUSH1 0x40 MLOAD DUP1 DUP4 SUB DUP2 DUP7 GAS STATICCALL ISZERO DUP1 ISZERO PUSH2 0x5DA JUMPI RETURNDATASIZE PUSH0 DUP1 RETURNDATACOPY RETURNDATASIZE PUSH0 REVERT JUMPDEST POP POP POP POP PUSH1 0x40 MLOAD RETURNDATASIZE PUSH0 DUP3 RETURNDATACOPY RETURNDATASIZE PUSH1 0x1F NOT PUSH1 0x1F DUP3 ADD AND DUP3 ADD DUP1 PUSH1 0x40 MSTORE POP DUP2 ADD SWAP1 PUSH2 0x602 SWAP2 SWAP1 PUSH2 0xF96 JUMP JUMPDEST SWAP1 POP PUSH0 JUMPDEST PUSH1 0x3 SLOAD DUP2 LT ISZERO PUSH2 0x666 JUMPI DUP2 DUP2 DUP2 MLOAD DUP2 LT PUSH2 0x623 JUMPI PUSH2 0x622 PUSH2 0xD44 JUMP JUMPDEST JUMPDEST PUSH1 0x20 MUL PUSH1 0x20 ADD ADD MLOAD DUP5 DUP3 DUP2 MLOAD DUP2 LT PUSH2 0x63E JUMPI PUSH2 0x63D PUSH2 0xD44 JUMP JUMPDEST JUMPDEST PUSH1 0x20 MUL PUSH1 0x20 ADD ADD DUP2 DUP2 MLOAD PUSH2 0x652 SWAP2 SWAP1 PUSH2 0x100A JUMP JUMPDEST SWAP2 POP DUP2 DUP2 MSTORE POP POP DUP1 DUP1 PUSH1 0x1 ADD SWAP2 POP POP PUSH2 0x606 JUMP JUMPDEST POP POP JUMPDEST DUP1 DUP1 PUSH1 0x1 ADD SWAP2 POP POP PUSH2 0x419 JUMP JUMPDEST POP DUP1 SWAP2 POP POP SWAP1 JUMP JUMPDEST PUSH0 DUP1 PUSH0 SWAP1 SLOAD SWAP1 PUSH2 0x100 EXP SWAP1 DIV PUSH20 0xFFFFFFFFFFFFFFFFFFFFFFFFFFFFFFFFFFFFFFFF AND PUSH20 0xFFFFFFFFFFFFFFFFFFFFFFFFFFFFFFFFFFFFFFFF AND CALLER PUSH20 0xFFFFFFFFFFFFFFFFFFFFFFFFFFFFFFFFFFFFFFFF AND EQ PUSH2 0x70D JUMPI PUSH1 0x40 MLOAD PUSH32 0x8C379A000000000000000000000000000000000000000000000000000000000 DUP2 MSTORE PUSH1 0x4 ADD PUSH2 0x704 SWAP1 PUSH2 0xCF9 JUMP JUMPDEST PUSH1 0x40 MLOAD DUP1 SWAP2 SUB SWAP1 REVERT JUMPDEST DUP3 PUSH0 PUSH20 0xFFFFFFFFFFFFFFFFFFFFFFFFFFFFFFFFFFFFFFFF AND PUSH1 0x2 PUSH0 DUP4 DUP2 MSTORE PUSH1 0x20 ADD SWAP1 DUP2 MSTORE PUSH1 0x20 ADD PUSH0 KECCAK256 PUSH0 SWAP1 SLOAD SWAP1 PUSH2 0x100 EXP SWAP1 DIV PUSH20 0xFFFFFFFFFFFFFFFFFFFFFFFFFFFFFFFFFFFFFFFF AND PUSH20 0xFFFFFFFFFFFFFFFFFFFFFFFFFFFFFFFFFFFFFFFF AND EQ PUSH2 0x7AC JUMPI PUSH1 0x40 MLOAD PUSH32 0x8C379A000000000000000000000000000000000000000000000000000000000 DUP2 MSTORE PUSH1 0x4 ADD PUSH2 0x7A3 SWAP1 PUSH2 0x10AD JUMP JUMPDEST PUSH1 0x40 MLOAD DUP1 SWAP2 SUB SWAP1 REVERT JUMPDEST PUSH0 DUP4 PUSH1 0x3 SLOAD DUP7 PUSH1 0x40 MLOAD PUSH2 0x7BE SWAP1 PUSH2 0x870 JUMP JUMPDEST PUSH2 0x7CA SWAP4 SWAP3 SWAP2 SWAP1 PUSH2 0x10CB JUMP JUMPDEST PUSH1 0x40 MLOAD DUP1 SWAP2 SUB SWAP1 PUSH0 CREATE DUP1 ISZERO DUP1 ISZERO PUSH2 0x7E3 JUMPI RETURNDATASIZE PUSH0 DUP1 RETURNDATACOPY RETURNDATASIZE PUSH0 REVERT JUMPDEST POP SWAP1 POP DUP1 PUSH1 0x2 PUSH0 DUP8 DUP2 MSTORE PUSH1 0x20 ADD SWAP1 DUP2 MSTORE PUSH1 0x20 ADD PUSH0 KECCAK256 PUSH0 PUSH2 0x100 EXP DUP2 SLOAD DUP2 PUSH20 0xFFFFFFFFFFFFFFFFFFFFFFFFFFFFFFFFFFFFFFFF MUL NOT AND SWAP1 DUP4 PUSH20 0xFFFFFFFFFFFFFFFFFFFFFFFFFFFFFFFFFFFFFFFF AND MUL OR SWAP1 SSTORE POP DUP1 SWAP3 POP POP POP SWAP3 SWAP2 POP POP JUMP JUMPDEST PUSH1 0x2 PUSH1 0x20 MSTORE DUP1 PUSH0 MSTORE PUSH1 0x40 PUSH0 KECCAK256 PUSH0 SWAP2 POP SLOAD SWAP1 PUSH2 0x100 EXP SWAP1 DIV PUSH20 0xFFFFFFFFFFFFFFFFFFFFFFFFFFFFFFFFFFFFFFFF AND DUP2 JUMP JUMPDEST PUSH2 0xB68 DUP1 PUSH2 0x1101 DUP4 CODECOPY ADD SWAP1 JUMP JUMPDEST PUSH0 PUSH1 0x40 MLOAD SWAP1 POP SWAP1 JUMP JUMPDEST PUSH0 DUP1 REVERT JUMPDEST PUSH0 DUP1 REVERT JUMPDEST PUSH0 DUP2 SWAP1 POP SWAP2 SWAP1 POP JUMP JUMPDEST PUSH2 0x8A0 DUP2 PUSH2 0x88E JUMP JUMPDEST DUP2 EQ PUSH2 0x8AA JUMPI PUSH0 DUP1 REVERT JUMPDEST POP JUMP JUMPDEST PUSH0 DUP2 CALLDATALOAD SWAP1 POP PUSH2 0x8BB DUP2 PUSH2 0x897 JUMP JUMPDEST SWAP3 SWAP2 POP POP JUMP JUMPDEST PUSH0 DUP1 PUSH1 0x40 DUP4 DUP6 SUB SLT ISZERO PUSH2 0x8D7 JUMPI PUSH2 0x8D6 PUSH2 0x886 JUMP JUMPDEST JUMPDEST PUSH0 PUSH2 0x8E4 DUP6 DUP3 DUP7 ADD PUSH2 0x8AD JUMP JUMPDEST SWAP3 POP POP PUSH1 0x20 PUSH2 0x8F5 DUP6 DUP3 DUP7 ADD PUSH2 0x8AD JUMP JUMPDEST SWAP2 POP POP SWAP3 POP SWAP3 SWAP1 POP JUMP JUMPDEST PUSH0 DUP2 MLOAD SWAP1 POP SWAP2 SWAP1 POP JUMP JUMPDEST PUSH0 DUP3 DUP3 MSTORE PUSH1 0x20 DUP3 ADD SWAP1 POP SWAP3 SWAP2 POP POP JUMP JUMPDEST PUSH0 DUP2 SWAP1 POP PUSH1 0x20 DUP3 ADD SWAP1 POP SWAP2 SWAP1 POP JUMP JUMPDEST PUSH2 0x931 DUP2 PUSH2 0x88E JUMP JUMPDEST DUP3 MSTORE POP POP JUMP JUMPDEST PUSH0 PUSH2 0x942 DUP4 DUP4 PUSH2 0x928 JUMP JUMPDEST PUSH1 0x20 DUP4 ADD SWAP1 POP SWAP3 SWAP2 POP POP JUMP JUMPDEST PUSH0 PUSH1 0x20 DUP3 ADD SWAP1 POP SWAP2 SWAP1 POP JUMP JUMPDEST PUSH0 PUSH2 0x964 DUP3 PUSH2 0x8FF JUMP JUMPDEST PUSH2 0x96E DUP2 DUP6 PUSH2 0x909 JUMP JUMPDEST SWAP4 POP PUSH2 0x979 DUP4 PUSH2 0x919 JUMP JUMPDEST DUP1 PUSH0 JUMPDEST DUP4 DUP2 LT ISZERO PUSH2 0x9A9 JUMPI DUP2 MLOAD PUSH2 0x990 DUP9 DUP3 PUSH2 0x937 JUMP JUMPDEST SWAP8 POP PUSH2 0x99B DUP4 PUSH2 0x94E JUMP JUMPDEST SWAP3 POP POP PUSH1 0x1 DUP2 ADD SWAP1 POP PUSH2 0x97C JUMP JUMPDEST POP DUP6 SWAP4 POP POP POP POP SWAP3 SWAP2 POP POP JUMP JUMPDEST PUSH0 PUSH1 0x20 DUP3 ADD SWAP1 POP DUP2 DUP2 SUB PUSH0 DUP4 ADD MSTORE PUSH2 0x9CE DUP2 DUP5 PUSH2 0x95A JUMP JUMPDEST SWAP1 POP SWAP3 SWAP2 POP POP JUMP JUMPDEST PUSH0 PUSH20 0xFFFFFFFFFFFFFFFFFFFFFFFFFFFFFFFFFFFFFFFF DUP3 AND SWAP1 POP SWAP2 SWAP1 POP JUMP JUMPDEST PUSH0 PUSH2 0x9FF DUP3 PUSH2 0x9D6 JUMP JUMPDEST SWAP1 POP SWAP2 SWAP1 POP JUMP JUMPDEST PUSH2 0xA0F DUP2 PUSH2 0x9F5 JUMP JUMPDEST DUP2 EQ PUSH2 0xA19 JUMPI PUSH0 DUP1 REVERT JUMPDEST POP JUMP JUMPDEST PUSH0 DUP2 CALLDATALOAD SWAP1 POP PUSH2 0xA2A DUP2 PUSH2 0xA06 JUMP JUMPDEST SWAP3 SWAP2 POP POP JUMP JUMPDEST PUSH0 DUP1 PUSH1 0x40 DUP4 DUP6 SUB SLT ISZERO PUSH2 0xA46 JUMPI PUSH2 0xA45 PUSH2 0x886 JUMP JUMPDEST JUMPDEST PUSH0 PUSH2 0xA53 DUP6 DUP3 DUP7 ADD PUSH2 0x8AD JUMP JUMPDEST SWAP3 POP POP PUSH1 0x20 PUSH2 0xA64 DUP6 DUP3 DUP7 ADD PUSH2 0xA1C JUMP JUMPDEST SWAP2 POP POP SWAP3 POP SWAP3 SWAP1 POP JUMP JUMPDEST PUSH2 0xA77 DUP2 PUSH2 0x9F5 JUMP JUMPDEST DUP3 MSTORE POP POP JUMP JUMPDEST PUSH0 PUSH1 0x20 DUP3 ADD SWAP1 POP PUSH2 0xA90 PUSH0 DUP4 ADD DUP5 PUSH2 0xA6E JUMP JUMPDEST SWAP3 SWAP2 POP POP JUMP JUMPDEST PUSH0 PUSH1 0x20 DUP3 DUP5 SUB SLT ISZERO PUSH2 0xAAB JUMPI PUSH2 0xAAA PUSH2 0x886 JUMP JUMPDEST JUMPDEST PUSH0 PUSH2 0xAB8 DUP5 DUP3 DUP6 ADD PUSH2 0x8AD JUMP JUMPDEST SWAP2 POP POP SWAP3 SWAP2 POP POP JUMP JUMPDEST PUSH0 DUP2 SWAP1 POP SWAP2 SWAP1 POP JUMP JUMPDEST PUSH0 PUSH2 0xAE4 PUSH2 0xADF PUSH2 0xADA DUP5 PUSH2 0x9D6 JUMP JUMPDEST PUSH2 0xAC1 JUMP JUMPDEST PUSH2 0x9D6 JUMP JUMPDEST SWAP1 POP SWAP2 SWAP1 POP JUMP JUMPDEST PUSH0 PUSH2 0xAF5 DUP3 PUSH2 0xACA JUMP JUMPDEST SWAP1 POP SWAP2 SWAP1 POP JUMP JUMPDEST PUSH0 PUSH2 0xB06 DUP3 PUSH2 0xAEB JUMP JUMPDEST SWAP1 POP SWAP2 SWAP1 POP JUMP JUMPDEST PUSH2 0xB16 DUP2 PUSH2 0xAFC JUMP JUMPDEST DUP3 MSTORE POP POP JUMP JUMPDEST PUSH0 PUSH1 0x20 DUP3 ADD SWAP1 POP PUSH2 0xB2F PUSH0 DUP4 ADD DUP5 PUSH2 0xB0D JUMP JUMPDEST SWAP3 SWAP2 POP POP JUMP JUMPDEST PUSH0 DUP3 DUP3 MSTORE PUSH1 0x20 DUP3 ADD SWAP1 POP SWAP3 SWAP2 POP POP JUMP JUMPDEST PUSH32 0x44656265206578697374697220756E6120736564652070617261206573612072 PUSH0 DUP3 ADD MSTORE PUSH32 0x6567696F6E2E0000000000000000000000000000000000000000000000000000 PUSH1 0x20 DUP3 ADD MSTORE POP JUMP JUMPDEST PUSH0 PUSH2 0xB9F PUSH1 0x26 DUP4 PUSH2 0xB35 JUMP JUMPDEST SWAP2 POP PUSH2 0xBAA DUP3 PUSH2 0xB45 JUMP JUMPDEST PUSH1 0x40 DUP3 ADD SWAP1 POP SWAP2 SWAP1 POP JUMP JUMPDEST PUSH0 PUSH1 0x20 DUP3 ADD SWAP1 POP DUP2 DUP2 SUB PUSH0 DUP4 ADD MSTORE PUSH2 0xBCC DUP2 PUSH2 0xB93 JUMP JUMPDEST SWAP1 POP SWAP2 SWAP1 POP JUMP JUMPDEST PUSH32 0x456C20766F74616E746520796120686120656A65726369646F20737520646572 PUSH0 DUP3 ADD MSTORE PUSH32 0x6563686F206120766F746F2E0000000000000000000000000000000000000000 PUSH1 0x20 DUP3 ADD MSTORE POP JUMP JUMPDEST PUSH0 PUSH2 0xC2D PUSH1 0x2C DUP4 PUSH2 0xB35 JUMP JUMPDEST SWAP2 POP PUSH2 0xC38 DUP3 PUSH2 0xBD3 JUMP JUMPDEST PUSH1 0x40 DUP3 ADD SWAP1 POP SWAP2 SWAP1 POP JUMP JUMPDEST PUSH0 PUSH1 0x20 DUP3 ADD SWAP1 POP DUP2 DUP2 SUB PUSH0 DUP4 ADD MSTORE PUSH2 0xC5A DUP2 PUSH2 0xC21 JUMP JUMPDEST SWAP1 POP SWAP2 SWAP1 POP JUMP JUMPDEST PUSH2 0xC6A DUP2 PUSH2 0x88E JUMP JUMPDEST DUP3 MSTORE POP POP JUMP JUMPDEST PUSH0 PUSH1 0x20 DUP3 ADD SWAP1 POP PUSH2 0xC83 PUSH0 DUP4 ADD DUP5 PUSH2 0xC61 JUMP JUMPDEST SWAP3 SWAP2 POP POP JUMP JUMPDEST PUSH32 0x536F6C6F206C61206175746F7269646164207075656465206C6C656761722061 PUSH0 DUP3 ADD MSTORE PUSH32 0x20656A65637574617220657374612066756E63696F6E00000000000000000000 PUSH1 0x20 DUP3 ADD MSTORE POP JUMP JUMPDEST PUSH0 PUSH2 0xCE3 PUSH1 0x36 DUP4 PUSH2 0xB35 JUMP JUMPDEST SWAP2 POP PUSH2 0xCEE DUP3 PUSH2 0xC89 JUMP JUMPDEST PUSH1 0x40 DUP3 ADD SWAP1 POP SWAP2 SWAP1 POP JUMP JUMPDEST PUSH0 PUSH1 0x20 DUP3 ADD SWAP1 POP DUP2 DUP2 SUB PUSH0 DUP4 ADD MSTORE PUSH2 0xD10 DUP2 PUSH2 0xCD7 JUMP JUMPDEST SWAP1 POP SWAP2 SWAP1 POP JUMP JUMPDEST PUSH32 0x4E487B7100000000000000000000000000000000000000000000000000000000 PUSH0 MSTORE PUSH1 0x41 PUSH1 0x4 MSTORE PUSH1 0x24 PUSH0 REVERT JUMPDEST PUSH32 0x4E487B7100000000000000000000000000000000000000000000000000000000 PUSH0 MSTORE PUSH1 0x32 PUSH1 0x4 MSTORE PUSH1 0x24 PUSH0 REVERT JUMPDEST PUSH0 DUP2 ISZERO ISZERO SWAP1 POP SWAP2 SWAP1 POP JUMP JUMPDEST PUSH2 0xD85 DUP2 PUSH2 0xD71 JUMP JUMPDEST DUP2 EQ PUSH2 0xD8F JUMPI PUSH0 DUP1 REVERT JUMPDEST POP JUMP JUMPDEST PUSH0 DUP2 MLOAD SWAP1 POP PUSH2 0xDA0 DUP2 PUSH2 0xD7C JUMP JUMPDEST SWAP3 SWAP2 POP POP JUMP JUMPDEST PUSH0 PUSH1 0x20 DUP3 DUP5 SUB SLT ISZERO PUSH2 0xDBB JUMPI PUSH2 0xDBA PUSH2 0x886 JUMP JUMPDEST JUMPDEST PUSH0 PUSH2 0xDC8 DUP5 DUP3 DUP6 ADD PUSH2 0xD92 JUMP JUMPDEST SWAP2 POP POP SWAP3 SWAP2 POP POP JUMP JUMPDEST PUSH32 0x556E61206F206D6173207365646573206E6F2068616E207465726D696E61646F PUSH0 DUP3 ADD MSTORE PUSH32 0x206C6120766F746163696F6E2E00000000000000000000000000000000000000 PUSH1 0x20 DUP3 ADD MSTORE POP JUMP JUMPDEST PUSH0 PUSH2 0xE2B PUSH1 0x2D DUP4 PUSH2 0xB35 JUMP JUMPDEST SWAP2 POP PUSH2 0xE36 DUP3 PUSH2 0xDD1 JUMP JUMPDEST PUSH1 0x40 DUP3 ADD SWAP1 POP SWAP2 SWAP1 POP JUMP JUMPDEST PUSH0 PUSH1 0x20 DUP3 ADD SWAP1 POP DUP2 DUP2 SUB PUSH0 DUP4 ADD MSTORE PUSH2 0xE58 DUP2 PUSH2 0xE1F JUMP JUMPDEST SWAP1 POP SWAP2 SWAP1 POP JUMP JUMPDEST PUSH0 DUP1 REVERT JUMPDEST PUSH0 PUSH1 0x1F NOT PUSH1 0x1F DUP4 ADD AND SWAP1 POP SWAP2 SWAP1 POP JUMP JUMPDEST PUSH2 0xE7C DUP3 PUSH2 0xE63 JUMP JUMPDEST DUP2 ADD DUP2 DUP2 LT PUSH8 0xFFFFFFFFFFFFFFFF DUP3 GT OR ISZERO PUSH2 0xE9B JUMPI PUSH2 0xE9A PUSH2 0xD17 JUMP JUMPDEST JUMPDEST DUP1 PUSH1 0x40 MSTORE POP POP POP JUMP JUMPDEST PUSH0 PUSH2 0xEAD PUSH2 0x87D JUMP JUMPDEST SWAP1 POP PUSH2 0xEB9 DUP3 DUP3 PUSH2 0xE73 JUMP JUMPDEST SWAP2 SWAP1 POP JUMP JUMPDEST PUSH0 PUSH8 0xFFFFFFFFFFFFFFFF DUP3 GT ISZERO PUSH2 0xED8 JUMPI PUSH2 0xED7 PUSH2 0xD17 JUMP JUMPDEST JUMPDEST PUSH1 0x20 DUP3 MUL SWAP1 POP PUSH1 0x20 DUP2 ADD SWAP1 POP SWAP2 SWAP1 POP JUMP JUMPDEST PUSH0 DUP1 REVERT JUMPDEST PUSH0 DUP2 MLOAD SWAP1 POP PUSH2 0xEFB DUP2 PUSH2 0x897 JUMP JUMPDEST SWAP3 SWAP2 POP POP JUMP JUMPDEST PUSH0 PUSH2 0xF13 PUSH2 0xF0E DUP5 PUSH2 0xEBE JUMP JUMPDEST PUSH2 0xEA4 JUMP JUMPDEST SWAP1 POP DUP1 DUP4 DUP3 MSTORE PUSH1 0x20 DUP3 ADD SWAP1 POP PUSH1 0x20 DUP5 MUL DUP4 ADD DUP6 DUP2 GT ISZERO PUSH2 0xF36 JUMPI PUSH2 0xF35 PUSH2 0xEE9 JUMP JUMPDEST JUMPDEST DUP4 JUMPDEST DUP2 DUP2 LT ISZERO PUSH2 0xF5F JUMPI DUP1 PUSH2 0xF4B DUP9 DUP3 PUSH2 0xEED JUMP JUMPDEST DUP5 MSTORE PUSH1 0x20 DUP5 ADD SWAP4 POP POP PUSH1 0x20 DUP2 ADD SWAP1 POP PUSH2 0xF38 JUMP JUMPDEST POP POP POP SWAP4 SWAP3 POP POP POP JUMP JUMPDEST PUSH0 DUP3 PUSH1 0x1F DUP4 ADD SLT PUSH2 0xF7D JUMPI PUSH2 0xF7C PUSH2 0xE5F JUMP JUMPDEST JUMPDEST DUP2 MLOAD PUSH2 0xF8D DUP5 DUP3 PUSH1 0x20 DUP7 ADD PUSH2 0xF01 JUMP JUMPDEST SWAP2 POP POP SWAP3 SWAP2 POP POP JUMP JUMPDEST PUSH0 PUSH1 0x20 DUP3 DUP5 SUB SLT ISZERO PUSH2 0xFAB JUMPI PUSH2 0xFAA PUSH2 0x886 JUMP JUMPDEST JUMPDEST PUSH0 DUP3 ADD MLOAD PUSH8 0xFFFFFFFFFFFFFFFF DUP2 GT ISZERO PUSH2 0xFC8 JUMPI PUSH2 0xFC7 PUSH2 0x88A JUMP JUMPDEST JUMPDEST PUSH2 0xFD4 DUP5 DUP3 DUP6 ADD PUSH2 0xF69 JUMP JUMPDEST SWAP2 POP POP SWAP3 SWAP2 POP POP JUMP JUMPDEST PUSH32 0x4E487B7100000000000000000000000000000000000000000000000000000000 PUSH0 MSTORE PUSH1 0x11 PUSH1 0x4 MSTORE PUSH1 0x24 PUSH0 REVERT JUMPDEST PUSH0 PUSH2 0x1014 DUP3 PUSH2 0x88E JUMP JUMPDEST SWAP2 POP PUSH2 0x101F DUP4 PUSH2 0x88E JUMP JUMPDEST SWAP3 POP DUP3 DUP3 ADD SWAP1 POP DUP1 DUP3 GT ISZERO PUSH2 0x1037 JUMPI PUSH2 0x1036 PUSH2 0xFDD JUMP JUMPDEST JUMPDEST SWAP3 SWAP2 POP POP JUMP JUMPDEST PUSH32 0x59612065786973746520756E6120736564652070617261206573612072656769 PUSH0 DUP3 ADD MSTORE PUSH32 0x6F6E2E0000000000000000000000000000000000000000000000000000000000 PUSH1 0x20 DUP3 ADD MSTORE POP JUMP JUMPDEST PUSH0 PUSH2 0x1097 PUSH1 0x23 DUP4 PUSH2 0xB35 JUMP JUMPDEST SWAP2 POP PUSH2 0x10A2 DUP3 PUSH2 0x103D JUMP JUMPDEST PUSH1 0x40 DUP3 ADD SWAP1 POP SWAP2 SWAP1 POP JUMP JUMPDEST PUSH0 PUSH1 0x20 DUP3 ADD SWAP1 POP DUP2 DUP2 SUB PUSH0 DUP4 ADD MSTORE PUSH2 0x10C4 DUP2 PUSH2 0x108B JUMP JUMPDEST SWAP1 POP SWAP2 SWAP1 POP JUMP JUMPDEST PUSH0 PUSH1 0x60 DUP3 ADD SWAP1 POP PUSH2 0x10DE PUSH0 DUP4 ADD DUP7 PUSH2 0xA6E JUMP JUMPDEST PUSH2 0x10EB PUSH1 0x20 DUP4 ADD DUP6 PUSH2 0xC61 JUMP JUMPDEST PUSH2 0x10F8 PUSH1 0x40 DUP4 ADD DUP5 PUSH2 0xC61 JUMP JUMPDEST SWAP5 SWAP4 POP POP POP POP JUMP INVALID PUSH1 0x80 PUSH1 0x40 MSTORE CALLVALUE DUP1 ISZERO PUSH2 0xF JUMPI PUSH0 DUP1 REVERT JUMPDEST POP PUSH1 0x40 MLOAD PUSH2 0xB68 CODESIZE SUB DUP1 PUSH2 0xB68 DUP4 CODECOPY DUP2 DUP2 ADD PUSH1 0x40 MSTORE DUP2 ADD SWAP1 PUSH2 0x31 SWAP2 SWAP1 PUSH2 0x2D8 JUMP JUMPDEST DUP3 DUP3 DUP3 DUP1 PUSH1 0x1 DUP2 SWAP1 SSTORE POP DUP2 PUSH8 0xFFFFFFFFFFFFFFFF DUP2 GT ISZERO PUSH2 0x55 JUMPI PUSH2 0x54 PUSH2 0x328 JUMP JUMPDEST JUMPDEST PUSH1 0x40 MLOAD SWAP1 DUP1 DUP3 MSTORE DUP1 PUSH1 0x20 MUL PUSH1 0x20 ADD DUP3 ADD PUSH1 0x40 MSTORE DUP1 ISZERO PUSH2 0x83 JUMPI DUP2 PUSH1 0x20 ADD PUSH1 0x20 DUP3 MUL DUP1 CALLDATASIZE DUP4 CALLDATACOPY DUP1 DUP3 ADD SWAP2 POP POP SWAP1 POP JUMPDEST POP PUSH1 0x2 SWAP1 DUP1 MLOAD SWAP1 PUSH1 0x20 ADD SWAP1 PUSH2 0x99 SWAP3 SWAP2 SWAP1 PUSH2 0x1E1 JUMP JUMPDEST POP PUSH2 0xA8 PUSH2 0x127 PUSH1 0x20 SHL PUSH1 0x20 SHR JUMP JUMPDEST POP POP DUP1 PUSH1 0x3 PUSH1 0x2 PUSH2 0x100 EXP DUP2 SLOAD DUP2 PUSH20 0xFFFFFFFFFFFFFFFFFFFFFFFFFFFFFFFFFFFFFFFF MUL NOT AND SWAP1 DUP4 PUSH20 0xFFFFFFFFFFFFFFFFFFFFFFFFFFFFFFFFFFFFFFFF AND MUL OR SWAP1 SSTORE POP PUSH0 PUSH1 0x3 PUSH0 PUSH2 0x100 EXP DUP2 SLOAD DUP2 PUSH1 0xFF MUL NOT AND SWAP1 DUP4 ISZERO ISZERO MUL OR SWAP1 SSTORE POP PUSH0 PUSH1 0x3 PUSH1 0x1 PUSH2 0x100 EXP DUP2 SLOAD DUP2 PUSH1 0xFF MUL NOT AND SWAP1 DUP4 ISZERO ISZERO MUL OR SWAP1 SSTORE POP POP POP POP POP PUSH2 0x355 JUMP JUMPDEST PUSH1 0x1 PUSH0 DUP1 PUSH1 0x1C DUP2 MSTORE PUSH1 0x20 ADD SWAP1 DUP2 MSTORE PUSH1 0x20 ADD PUSH0 KECCAK256 DUP2 SWAP1 SSTORE POP PUSH1 0x1 PUSH0 DUP1 PUSH1 0x8 DUP2 MSTORE PUSH1 0x20 ADD SWAP1 DUP2 MSTORE PUSH1 0x20 ADD PUSH0 KECCAK256 DUP2 SWAP1 SSTORE POP PUSH1 0x1 PUSH0 DUP1 PUSH1 0x29 DUP2 MSTORE PUSH1 0x20 ADD SWAP1 DUP2 MSTORE PUSH1 0x20 ADD PUSH0 KECCAK256 DUP2 SWAP1 SSTORE POP PUSH1 0x5 PUSH0 DUP1 PUSH1 0x2C DUP2 MSTORE PUSH1 0x20 ADD SWAP1 DUP2 MSTORE PUSH1 0x20 ADD PUSH0 KECCAK256 DUP2 SWAP1 SSTORE POP PUSH1 0x5 PUSH0 DUP1 PUSH1 0x2A DUP2 MSTORE PUSH1 0x20 ADD SWAP1 DUP2 MSTORE PUSH1 0x20 ADD PUSH0 KECCAK256 DUP2 SWAP1 SSTORE POP PUSH1 0x4 PUSH0 DUP1 PUSH1 0x31 DUP2 MSTORE PUSH1 0x20 ADD SWAP1 DUP2 MSTORE PUSH1 0x20 ADD PUSH0 KECCAK256 DUP2 SWAP1 SSTORE POP PUSH1 0x4 PUSH0 DUP1 PUSH1 0x9 DUP2 MSTORE PUSH1 0x20 ADD SWAP1 DUP2 MSTORE PUSH1 0x20 ADD PUSH0 KECCAK256 DUP2 SWAP1 SSTORE POP PUSH1 0x2 PUSH0 DUP1 PUSH1 0x1D DUP2 MSTORE PUSH1 0x20 ADD SWAP1 DUP2 MSTORE PUSH1 0x20 ADD PUSH0 KECCAK256 DUP2 SWAP1 SSTORE POP JUMP JUMPDEST DUP3 DUP1 SLOAD DUP3 DUP3 SSTORE SWAP1 PUSH0 MSTORE PUSH1 0x20 PUSH0 KECCAK256 SWAP1 DUP2 ADD SWAP3 DUP3 ISZERO PUSH2 0x21B JUMPI SWAP2 PUSH1 0x20 MUL DUP3 ADD JUMPDEST DUP3 DUP2 GT ISZERO PUSH2 0x21A JUMPI DUP3 MLOAD DUP3 SSTORE SWAP2 PUSH1 0x20 ADD SWAP2 SWAP1 PUSH1 0x1 ADD SWAP1 PUSH2 0x1FF JUMP JUMPDEST JUMPDEST POP SWAP1 POP PUSH2 0x228 SWAP2 SWAP1 PUSH2 0x22C JUMP JUMPDEST POP SWAP1 JUMP JUMPDEST JUMPDEST DUP1 DUP3 GT ISZERO PUSH2 0x243 JUMPI PUSH0 DUP2 PUSH0 SWAP1 SSTORE POP PUSH1 0x1 ADD PUSH2 0x22D JUMP JUMPDEST POP SWAP1 JUMP JUMPDEST PUSH0 DUP1 REVERT JUMPDEST PUSH0 PUSH20 0xFFFFFFFFFFFFFFFFFFFFFFFFFFFFFFFFFFFFFFFF DUP3 AND SWAP1 POP SWAP2 SWAP1 POP JUMP JUMPDEST PUSH0 PUSH2 0x274 DUP3 PUSH2 0x24B JUMP JUMPDEST SWAP1 POP SWAP2 SWAP1 POP JUMP JUMPDEST PUSH2 0x284 DUP2 PUSH2 0x26A JUMP JUMPDEST DUP2 EQ PUSH2 0x28E JUMPI PUSH0 DUP1 REVERT JUMPDEST POP JUMP JUMPDEST PUSH0 DUP2 MLOAD SWAP1 POP PUSH2 0x29F DUP2 PUSH2 0x27B JUMP JUMPDEST SWAP3 SWAP2 POP POP JUMP JUMPDEST PUSH0 DUP2 SWAP1 POP SWAP2 SWAP1 POP JUMP JUMPDEST PUSH2 0x2B7 DUP2 PUSH2 0x2A5 JUMP JUMPDEST DUP2 EQ PUSH2 0x2C1 JUMPI PUSH0 DUP1 REVERT JUMPDEST POP JUMP JUMPDEST PUSH0 DUP2 MLOAD SWAP1 POP PUSH2 0x2D2 DUP2 PUSH2 0x2AE JUMP JUMPDEST SWAP3 SWAP2 POP POP JUMP JUMPDEST PUSH0 DUP1 PUSH0 PUSH1 0x60 DUP5 DUP7 SUB SLT ISZERO PUSH2 0x2EF JUMPI PUSH2 0x2EE PUSH2 0x247 JUMP JUMPDEST JUMPDEST PUSH0 PUSH2 0x2FC DUP7 DUP3 DUP8 ADD PUSH2 0x291 JUMP JUMPDEST SWAP4 POP POP PUSH1 0x20 PUSH2 0x30D DUP7 DUP3 DUP8 ADD PUSH2 0x2C4 JUMP JUMPDEST SWAP3 POP POP PUSH1 0x40 PUSH2 0x31E DUP7 DUP3 DUP8 ADD PUSH2 0x2C4 JUMP JUMPDEST SWAP2 POP POP SWAP3 POP SWAP3 POP SWAP3 JUMP JUMPDEST PUSH32 0x4E487B7100000000000000000000000000000000000000000000000000000000 PUSH0 MSTORE PUSH1 0x41 PUSH1 0x4 MSTORE PUSH1 0x24 PUSH0 REVERT JUMPDEST PUSH2 0x806 DUP1 PUSH2 0x362 PUSH0 CODECOPY PUSH0 RETURN INVALID PUSH1 0x80 PUSH1 0x40 MSTORE CALLVALUE DUP1 ISZERO PUSH2 0xF JUMPI PUSH0 DUP1 REVERT JUMPDEST POP PUSH1 0x4 CALLDATASIZE LT PUSH2 0x55 JUMPI PUSH0 CALLDATALOAD PUSH1 0xE0 SHR DUP1 PUSH4 0x3EB76B9C EQ PUSH2 0x59 JUMPI DUP1 PUSH4 0x4717F97C EQ PUSH2 0x75 JUMPI DUP1 PUSH4 0x789D9E8A EQ PUSH2 0x93 JUMPI DUP1 PUSH4 0xAFFC0670 EQ PUSH2 0xB1 JUMPI DUP1 PUSH4 0xC631B292 EQ PUSH2 0xBB JUMPI JUMPDEST PUSH0 DUP1 REVERT JUMPDEST PUSH2 0x73 PUSH1 0x4 DUP1 CALLDATASIZE SUB DUP2 ADD SWAP1 PUSH2 0x6E SWAP2 SWAP1 PUSH2 0x454 JUMP JUMPDEST PUSH2 0xC5 JUMP JUMPDEST STOP JUMPDEST PUSH2 0x7D PUSH2 0x128 JUMP JUMPDEST PUSH1 0x40 MLOAD PUSH2 0x8A SWAP2 SWAP1 PUSH2 0x536 JUMP JUMPDEST PUSH1 0x40 MLOAD DUP1 SWAP2 SUB SWAP1 RETURN JUMPDEST PUSH2 0x9B PUSH2 0x1D3 JUMP JUMPDEST PUSH1 0x40 MLOAD PUSH2 0xA8 SWAP2 SWAP1 PUSH2 0x570 JUMP JUMPDEST PUSH1 0x40 MLOAD DUP1 SWAP2 SUB SWAP1 RETURN JUMPDEST PUSH2 0xB9 PUSH2 0x1E5 JUMP JUMPDEST STOP JUMPDEST PUSH2 0xC3 PUSH2 0x292 JUMP JUMPDEST STOP JUMPDEST PUSH1 0x1 ISZERO ISZERO PUSH1 0x3 PUSH1 0x1 SWAP1 SLOAD SWAP1 PUSH2 0x100 EXP SWAP1 DIV PUSH1 0xFF AND ISZERO ISZERO EQ PUSH2 0x11B JUMPI PUSH1 0x40 MLOAD PUSH32 0x8C379A000000000000000000000000000000000000000000000000000000000 DUP2 MSTORE PUSH1 0x4 ADD PUSH2 0x112 SWAP1 PUSH2 0x609 JUMP JUMPDEST PUSH1 0x40 MLOAD DUP1 SWAP2 SUB SWAP1 REVERT JUMPDEST PUSH2 0x124 DUP2 PUSH2 0x3AE JUMP JUMPDEST POP POP JUMP JUMPDEST PUSH1 0x60 PUSH1 0x1 ISZERO ISZERO PUSH1 0x3 PUSH0 SWAP1 SLOAD SWAP1 PUSH2 0x100 EXP SWAP1 DIV PUSH1 0xFF AND ISZERO ISZERO EQ PUSH2 0x17F JUMPI PUSH1 0x40 MLOAD PUSH32 0x8C379A000000000000000000000000000000000000000000000000000000000 DUP2 MSTORE PUSH1 0x4 ADD PUSH2 0x176 SWAP1 PUSH2 0x697 JUMP JUMPDEST PUSH1 0x40 MLOAD DUP1 SWAP2 SUB SWAP1 REVERT JUMPDEST PUSH1 0x2 DUP1 SLOAD DUP1 PUSH1 0x20 MUL PUSH1 0x20 ADD PUSH1 0x40 MLOAD SWAP1 DUP2 ADD PUSH1 0x40 MSTORE DUP1 SWAP3 SWAP2 SWAP1 DUP2 DUP2 MSTORE PUSH1 0x20 ADD DUP3 DUP1 SLOAD DUP1 ISZERO PUSH2 0x1C9 JUMPI PUSH1 0x20 MUL DUP3 ADD SWAP2 SWAP1 PUSH0 MSTORE PUSH1 0x20 PUSH0 KECCAK256 SWAP1 JUMPDEST DUP2 SLOAD DUP2 MSTORE PUSH1 0x20 ADD SWAP1 PUSH1 0x1 ADD SWAP1 DUP1 DUP4 GT PUSH2 0x1B5 JUMPI JUMPDEST POP POP POP POP POP SWAP1 POP SWAP1 JUMP JUMPDEST PUSH1 0x3 PUSH0 SWAP1 SLOAD SWAP1 PUSH2 0x100 EXP SWAP1 DIV PUSH1 0xFF AND DUP2 JUMP JUMPDEST CALLER PUSH20 0xFFFFFFFFFFFFFFFFFFFFFFFFFFFFFFFFFFFFFFFF AND PUSH1 0x3 PUSH1 0x2 SWAP1 SLOAD SWAP1 PUSH2 0x100 EXP SWAP1 DIV PUSH20 0xFFFFFFFFFFFFFFFFFFFFFFFFFFFFFFFFFFFFFFFF AND PUSH20 0xFFFFFFFFFFFFFFFFFFFFFFFFFFFFFFFFFFFFFFFF AND EQ PUSH2 0x275 JUMPI PUSH1 0x40 MLOAD PUSH32 0x8C379A000000000000000000000000000000000000000000000000000000000 DUP2 MSTORE PUSH1 0x4 ADD PUSH2 0x26C SWAP1 PUSH2 0x725 JUMP JUMPDEST PUSH1 0x40 MLOAD DUP1 SWAP2 SUB SWAP1 REVERT JUMPDEST PUSH1 0x1 PUSH1 0x3 PUSH1 0x1 PUSH2 0x100 EXP DUP2 SLOAD DUP2 PUSH1 0xFF MUL NOT AND SWAP1 DUP4 ISZERO ISZERO MUL OR SWAP1 SSTORE POP JUMP JUMPDEST CALLER PUSH20 0xFFFFFFFFFFFFFFFFFFFFFFFFFFFFFFFFFFFFFFFF AND PUSH1 0x3 PUSH1 0x2 SWAP1 SLOAD SWAP1 PUSH2 0x100 EXP SWAP1 DIV PUSH20 0xFFFFFFFFFFFFFFFFFFFFFFFFFFFFFFFFFFFFFFFF AND PUSH20 0xFFFFFFFFFFFFFFFFFFFFFFFFFFFFFFFFFFFFFFFF AND EQ PUSH2 0x322 JUMPI PUSH1 0x40 MLOAD PUSH32 0x8C379A000000000000000000000000000000000000000000000000000000000 DUP2 MSTORE PUSH1 0x4 ADD PUSH2 0x319 SWAP1 PUSH2 0x725 JUMP JUMPDEST PUSH1 0x40 MLOAD DUP1 SWAP2 SUB SWAP1 REVERT JUMPDEST PUSH1 0x1 ISZERO ISZERO PUSH1 0x3 PUSH1 0x1 SWAP1 SLOAD SWAP1 PUSH2 0x100 EXP SWAP1 DIV PUSH1 0xFF AND ISZERO ISZERO EQ PUSH2 0x378 JUMPI PUSH1 0x40 MLOAD PUSH32 0x8C379A000000000000000000000000000000000000000000000000000000000 DUP2 MSTORE PUSH1 0x4 ADD PUSH2 0x36F SWAP1 PUSH2 0x609 JUMP JUMPDEST PUSH1 0x40 MLOAD DUP1 SWAP2 SUB SWAP1 REVERT JUMPDEST PUSH0 PUSH1 0x3 PUSH1 0x1 PUSH2 0x100 EXP DUP2 SLOAD DUP2 PUSH1 0xFF MUL NOT AND SWAP1 DUP4 ISZERO ISZERO MUL OR SWAP1 SSTORE POP PUSH1 0x1 PUSH1 0x3 PUSH0 PUSH2 0x100 EXP DUP2 SLOAD DUP2 PUSH1 0xFF MUL NOT AND SWAP1 DUP4 ISZERO ISZERO MUL OR SWAP1 SSTORE POP JUMP JUMPDEST PUSH0 DUP1 DUP3 GT DUP1 ISZERO PUSH2 0x3C2 JUMPI POP PUSH1 0x2 DUP1 SLOAD SWAP1 POP DUP3 LT JUMPDEST ISZERO PUSH2 0x414 JUMPI PUSH0 DUP1 PUSH1 0x1 SLOAD DUP2 MSTORE PUSH1 0x20 ADD SWAP1 DUP2 MSTORE PUSH1 0x20 ADD PUSH0 KECCAK256 SLOAD PUSH1 0x2 DUP4 DUP2 SLOAD DUP2 LT PUSH2 0x3EE JUMPI PUSH2 0x3ED PUSH2 0x743 JUMP JUMPDEST JUMPDEST SWAP1 PUSH0 MSTORE PUSH1 0x20 PUSH0 KECCAK256 ADD PUSH0 DUP3 DUP3 SLOAD PUSH2 0x404 SWAP2 SWAP1 PUSH2 0x79D JUMP JUMPDEST SWAP3 POP POP DUP2 SWAP1 SSTORE POP PUSH1 0x1 SWAP1 POP PUSH2 0x418 JUMP JUMPDEST PUSH0 SWAP1 POP JUMPDEST SWAP2 SWAP1 POP JUMP JUMPDEST PUSH0 DUP1 REVERT JUMPDEST PUSH0 DUP2 SWAP1 POP SWAP2 SWAP1 POP JUMP JUMPDEST PUSH2 0x433 DUP2 PUSH2 0x421 JUMP JUMPDEST DUP2 EQ PUSH2 0x43D JUMPI PUSH0 DUP1 REVERT JUMPDEST POP JUMP JUMPDEST PUSH0 DUP2 CALLDATALOAD SWAP1 POP PUSH2 0x44E DUP2 PUSH2 0x42A JUMP JUMPDEST SWAP3 SWAP2 POP POP JUMP JUMPDEST PUSH0 PUSH1 0x20 DUP3 DUP5 SUB SLT ISZERO PUSH2 0x469 JUMPI PUSH2 0x468 PUSH2 0x41D JUMP JUMPDEST JUMPDEST PUSH0 PUSH2 0x476 DUP5 DUP3 DUP6 ADD PUSH2 0x440 JUMP JUMPDEST SWAP2 POP POP SWAP3 SWAP2 POP POP JUMP JUMPDEST PUSH0 DUP2 MLOAD SWAP1 POP SWAP2 SWAP1 POP JUMP JUMPDEST PUSH0 DUP3 DUP3 MSTORE PUSH1 0x20 DUP3 ADD SWAP1 POP SWAP3 SWAP2 POP POP JUMP JUMPDEST PUSH0 DUP2 SWAP1 POP PUSH1 0x20 DUP3 ADD SWAP1 POP SWAP2 SWAP1 POP JUMP JUMPDEST PUSH2 0x4B1 DUP2 PUSH2 0x421 JUMP JUMPDEST DUP3 MSTORE POP POP JUMP JUMPDEST PUSH0 PUSH2 0x4C2 DUP4 DUP4 PUSH2 0x4A8 JUMP JUMPDEST PUSH1 0x20 DUP4 ADD SWAP1 POP SWAP3 SWAP2 POP POP JUMP JUMPDEST PUSH0 PUSH1 0x20 DUP3 ADD SWAP1 POP SWAP2 SWAP1 POP JUMP JUMPDEST PUSH0 PUSH2 0x4E4 DUP3 PUSH2 0x47F JUMP JUMPDEST PUSH2 0x4EE DUP2 DUP6 PUSH2 0x489 JUMP JUMPDEST SWAP4 POP PUSH2 0x4F9 DUP4 PUSH2 0x499 JUMP JUMPDEST DUP1 PUSH0 JUMPDEST DUP4 DUP2 LT ISZERO PUSH2 0x529 JUMPI DUP2 MLOAD PUSH2 0x510 DUP9 DUP3 PUSH2 0x4B7 JUMP JUMPDEST SWAP8 POP PUSH2 0x51B DUP4 PUSH2 0x4CE JUMP JUMPDEST SWAP3 POP POP PUSH1 0x1 DUP2 ADD SWAP1 POP PUSH2 0x4FC JUMP JUMPDEST POP DUP6 SWAP4 POP POP POP POP SWAP3 SWAP2 POP POP JUMP JUMPDEST PUSH0 PUSH1 0x20 DUP3 ADD SWAP1 POP DUP2 DUP2 SUB PUSH0 DUP4 ADD MSTORE PUSH2 0x54E DUP2 DUP5 PUSH2 0x4DA JUMP JUMPDEST SWAP1 POP SWAP3 SWAP2 POP POP JUMP JUMPDEST PUSH0 DUP2 ISZERO ISZERO SWAP1 POP SWAP2 SWAP1 POP JUMP JUMPDEST PUSH2 0x56A DUP2 PUSH2 0x556 JUMP JUMPDEST DUP3 MSTORE POP POP JUMP JUMPDEST PUSH0 PUSH1 0x20 DUP3 ADD SWAP1 POP PUSH2 0x583 PUSH0 DUP4 ADD DUP5 PUSH2 0x561 JUMP JUMPDEST SWAP3 SWAP2 POP POP JUMP JUMPDEST PUSH0 DUP3 DUP3 MSTORE PUSH1 0x20 DUP3 ADD SWAP1 POP SWAP3 SWAP2 POP POP JUMP JUMPDEST PUSH32 0x4C61206D65736120656C6563746F72616C206465626520657374617220616269 PUSH0 DUP3 ADD MSTORE PUSH32 0x65727461207061726120706F646572206365727261726C610000000000000000 PUSH1 0x20 DUP3 ADD MSTORE POP JUMP JUMPDEST PUSH0 PUSH2 0x5F3 PUSH1 0x38 DUP4 PUSH2 0x589 JUMP JUMPDEST SWAP2 POP PUSH2 0x5FE DUP3 PUSH2 0x599 JUMP JUMPDEST PUSH1 0x40 DUP3 ADD SWAP1 POP SWAP2 SWAP1 POP JUMP JUMPDEST PUSH0 PUSH1 0x20 DUP3 ADD SWAP1 POP DUP2 DUP2 SUB PUSH0 DUP4 ADD MSTORE PUSH2 0x620 DUP2 PUSH2 0x5E7 JUMP JUMPDEST SWAP1 POP SWAP2 SWAP1 POP JUMP JUMPDEST PUSH32 0x4C6120766F746163696F6E206E6F206861207465726D696E61646F2061756E2E PUSH0 DUP3 ADD MSTORE PUSH32 0x20457370657265206120717565207465726D696E652E00000000000000000000 PUSH1 0x20 DUP3 ADD MSTORE POP JUMP JUMPDEST PUSH0 PUSH2 0x681 PUSH1 0x36 DUP4 PUSH2 0x589 JUMP JUMPDEST SWAP2 POP PUSH2 0x68C DUP3 PUSH2 0x627 JUMP JUMPDEST PUSH1 0x40 DUP3 ADD SWAP1 POP SWAP2 SWAP1 POP JUMP JUMPDEST PUSH0 PUSH1 0x20 DUP3 ADD SWAP1 POP DUP2 DUP2 SUB PUSH0 DUP4 ADD MSTORE PUSH2 0x6AE DUP2 PUSH2 0x675 JUMP JUMPDEST SWAP1 POP SWAP2 SWAP1 POP JUMP JUMPDEST PUSH32 0x457374612066756E63696F6E20736F6C6F206465626520656A6563757461726C PUSH0 DUP3 ADD MSTORE PUSH32 0x6120656C20707265736964656E74652E00000000000000000000000000000000 PUSH1 0x20 DUP3 ADD MSTORE POP JUMP JUMPDEST PUSH0 PUSH2 0x70F PUSH1 0x30 DUP4 PUSH2 0x589 JUMP JUMPDEST SWAP2 POP PUSH2 0x71A DUP3 PUSH2 0x6B5 JUMP JUMPDEST PUSH1 0x40 DUP3 ADD SWAP1 POP SWAP2 SWAP1 POP JUMP JUMPDEST PUSH0 PUSH1 0x20 DUP3 ADD SWAP1 POP DUP2 DUP2 SUB PUSH0 DUP4 ADD MSTORE PUSH2 0x73C DUP2 PUSH2 0x703 JUMP JUMPDEST SWAP1 POP SWAP2 SWAP1 POP JUMP JUMPDEST PUSH32 0x4E487B7100000000000000000000000000000000000000000000000000000000 PUSH0 MSTORE PUSH1 0x32 PUSH1 0x4 MSTORE PUSH1 0x24 PUSH0 REVERT JUMPDEST PUSH32 0x4E487B7100000000000000000000000000000000000000000000000000000000 PUSH0 MSTORE PUSH1 0x11 PUSH1 0x4 MSTORE PUSH1 0x24 PUSH0 REVERT JUMPDEST PUSH0 PUSH2 0x7A7 DUP3 PUSH2 0x421 JUMP JUMPDEST SWAP2 POP PUSH2 0x7B2 DUP4 PUSH2 0x421 JUMP JUMPDEST SWAP3 POP DUP3 DUP3 ADD SWAP1 POP DUP1 DUP3 GT ISZERO PUSH2 0x7CA JUMPI PUSH2 0x7C9 PUSH2 0x770 JUMP JUMPDEST JUMPDEST SWAP3 SWAP2 POP POP JUMP INVALID LOG2 PUSH5 0x6970667358 0x22 SLT KECCAK256 PUSH29 0x612CC87ECBE85B32D4DA388140E52359E302FBDB75BB2AAEEE29677E35 SWAP14 LOG3 PUSH5 0x736F6C6343 STOP ADDMOD BYTE STOP CALLER LOG2 PUSH5 0x6970667358 0x22 SLT KECCAK256 PC LOG1 0xED PUSH5 0xDB04F6F96B PUSH10 0xAE79E42AE7DC01192D40 0xCB GT SWAP14 CREATE CODECOPY DIV 0xB9 0xEC TLOAD MULMOD 0xD1 0x2D PUSH5 0x736F6C6343 STOP ADDMOD BYTE STOP CALLER "
				},
				"gasEstimates": {
					"creation": {
						"codeDepositCost": "1465200",
						"executionCost": "infinite",
						"totalCost": "infinite"
					},
					"external": {
						"castVote(uint256,uint256)": "infinite",
						"createPollingStation(uint256,address)": "infinite",
						"getResults()": "infinite",
						"pollingStations(uint256)": "infinite"
					}
				},
				"methodIdentifiers": {
					"castVote(uint256,uint256)": "2c0a3f89",
					"createPollingStation(uint256,address)": "a44fe131",
					"getResults()": "4717f97c",
					"pollingStations(uint256)": "fe2442d7"
				}
			},
			"storageLayout": {
				"storage": [
					{
						"astId": 276,
						"contract": "PRACTICA 4/practica4.sol:Election",
						"label": "authority",
						"offset": 0,
						"slot": "0",
						"type": "t_address"
					},
					{
						"astId": 280,
						"contract": "PRACTICA 4/practica4.sol:Election",
						"label": "voters",
						"offset": 0,
						"slot": "1",
						"type": "t_mapping(t_address,t_bool)"
					},
					{
						"astId": 285,
						"contract": "PRACTICA 4/practica4.sol:Election",
						"label": "pollingStations",
						"offset": 0,
						"slot": "2",
						"type": "t_mapping(t_uint256,t_contract(DhondtPollingStation)274)"
					},
					{
						"astId": 287,
						"contract": "PRACTICA 4/practica4.sol:Election",
						"label": "num_parties",
						"offset": 0,
						"slot": "3",
						"type": "t_uint256"
					}
				],
				"types": {
					"t_address": {
						"encoding": "inplace",
						"label": "address",
						"numberOfBytes": "20"
					},
					"t_bool": {
						"encoding": "inplace",
						"label": "bool",
						"numberOfBytes": "1"
					},
					"t_contract(DhondtPollingStation)274": {
						"encoding": "inplace",
						"label": "contract DhondtPollingStation",
						"numberOfBytes": "20"
					},
					"t_mapping(t_address,t_bool)": {
						"encoding": "mapping",
						"key": "t_address",
						"label": "mapping(address => bool)",
						"numberOfBytes": "32",
						"value": "t_bool"
					},
					"t_mapping(t_uint256,t_contract(DhondtPollingStation)274)": {
						"encoding": "mapping",
						"key": "t_uint256",
						"label": "mapping(uint256 => contract DhondtPollingStation)",
						"numberOfBytes": "32",
						"value": "t_contract(DhondtPollingStation)274"
					},
					"t_uint256": {
						"encoding": "inplace",
						"label": "uint256",
						"numberOfBytes": "32"
					}
				}
			},
			"userdoc": {
				"kind": "user",
				"methods": {},
				"version": 1
			}
		}
	}
}