{
	"PRACTICA 4/practica4.sol": {
		"DhondtPollingStation": {
			"abi": [
				{
					"inputs": [
						{
							"internalType": "address",
							"name": "president",
							"type": "address"
						},
						{
							"internalType": "uint256",
							"name": "num_partys",
							"type": "uint256"
						},
						{
							"internalType": "uint256",
							"name": "region_Id",
							"type": "uint256"
						}
					],
					"stateMutability": "nonpayable",
					"type": "constructor"
				},
				{
					"inputs": [
						{
							"internalType": "uint256",
							"name": "party_id",
							"type": "uint256"
						}
					],
					"name": "castVote",
					"outputs": [],
					"stateMutability": "nonpayable",
					"type": "function"
				},
				{
					"inputs": [],
					"name": "closeVoting",
					"outputs": [],
					"stateMutability": "nonpayable",
					"type": "function"
				},
				{
					"inputs": [],
					"name": "getResults",
					"outputs": [
						{
							"internalType": "uint256[]",
							"name": "",
							"type": "uint256[]"
						}
					],
					"stateMutability": "view",
					"type": "function"
				},
				{
					"inputs": [],
					"name": "openVoting",
					"outputs": [],
					"stateMutability": "nonpayable",
					"type": "function"
				},
				{
					"inputs": [],
					"name": "votingFinished",
					"outputs": [
						{
							"internalType": "bool",
							"name": "",
							"type": "bool"
						}
					],
					"stateMutability": "view",
					"type": "function"
				}
			],
			"devdoc": {
				"kind": "dev",
				"methods": {},
				"version": 1
			},
			"evm": {
				"assembly": "    /* \"PRACTICA 4/practica4.sol\":2199:2761  contract DhondtPollingStation is DhondtElectionRegion, PollingStation{... */\n  mstore(0x40, 0x80)\n    /* \"PRACTICA 4/practica4.sol\":2275:2421  constructor(address president, uint num_partys, uint region_Id)... */\n  callvalue\n  dup1\n  iszero\n  tag_1\n  jumpi\n  0x00\n  dup1\n  revert\ntag_1:\n  pop\n  mload(0x40)\n  sub(codesize, bytecodeSize)\n  dup1\n  bytecodeSize\n  dup4\n  codecopy\n  dup2\n  dup2\n  add\n  0x40\n  mstore\n  dup2\n  add\n  swap1\n  tag_2\n  swap2\n  swap1\n  tag_3\n  jump\t// in\ntag_2:\n    /* \"PRACTICA 4/practica4.sol\":2359:2368  president */\n  dup3\n    /* \"PRACTICA 4/practica4.sol\":2396:2406  num_partys */\n  dup3\n    /* \"PRACTICA 4/practica4.sol\":2408:2417  region_Id */\n  dup3\n    /* \"PRACTICA 4/practica4.sol\":313:319  region */\n  dup1\n    /* \"PRACTICA 4/practica4.sol\":302:310  regionId */\n  0x01\n    /* \"PRACTICA 4/practica4.sol\":302:319  regionId = region */\n  dup2\n  swap1\n  sstore\n  pop\n    /* \"PRACTICA 4/practica4.sol\":363:375  num_partidos */\n  dup2\n    /* \"PRACTICA 4/practica4.sol\":352:376  new uint[](num_partidos) */\n  0xffffffffffffffff\n  dup2\n  gt\n  iszero\n  tag_8\n  jumpi\n  tag_9\n  tag_10\n  jump\t// in\ntag_9:\ntag_8:\n  mload(0x40)\n  swap1\n  dup1\n  dup3\n  mstore\n  dup1\n  0x20\n  mul\n  0x20\n  add\n  dup3\n  add\n  0x40\n  mstore\n  dup1\n  iszero\n  tag_11\n  jumpi\n  dup2\n  0x20\n  add\n  0x20\n  dup3\n  mul\n  dup1\n  calldatasize\n  dup4\n  calldatacopy\n  dup1\n  dup3\n  add\n  swap2\n  pop\n  pop\n  swap1\n  pop\ntag_11:\n  pop\n    /* \"PRACTICA 4/practica4.sol\":342:349  results */\n  0x02\n    /* \"PRACTICA 4/practica4.sol\":342:376  results = new uint[](num_partidos) */\n  swap1\n  dup1\n  mload\n  swap1\n  0x20\n  add\n  swap1\n  tag_12\n  swap3\n  swap2\n  swap1\n  tag_13\n  jump\t// in\ntag_12:\n  pop\n    /* \"PRACTICA 4/practica4.sol\":387:404  savedRegionInfo() */\n  tag_14\n    /* \"PRACTICA 4/practica4.sol\":387:402  savedRegionInfo */\n  shl(0x20, tag_15)\n    /* \"PRACTICA 4/practica4.sol\":387:404  savedRegionInfo() */\n  0x20\n  shr\n  jump\t// in\ntag_14:\n    /* \"PRACTICA 4/practica4.sol\":248:412  constructor(uint num_partidos, uint region){... */\n  pop\n  pop\n    /* \"PRACTICA 4/practica4.sol\":1477:1482  presi */\n  dup1\n    /* \"PRACTICA 4/practica4.sol\":1465:1474  president */\n  0x03\n  0x02\n    /* \"PRACTICA 4/practica4.sol\":1465:1482  president = presi */\n  0x0100\n  exp\n  dup2\n  sload\n  dup2\n  0xffffffffffffffffffffffffffffffffffffffff\n  mul\n  not\n  and\n  swap1\n  dup4\n  0xffffffffffffffffffffffffffffffffffffffff\n  and\n  mul\n  or\n  swap1\n  sstore\n  pop\n    /* \"PRACTICA 4/practica4.sol\":1509:1514  false */\n  0x00\n    /* \"PRACTICA 4/practica4.sol\":1493:1507  votingFinished */\n  0x03\n  0x00\n    /* \"PRACTICA 4/practica4.sol\":1493:1514  votingFinished= false */\n  0x0100\n  exp\n  dup2\n  sload\n  dup2\n  0xff\n  mul\n  not\n  and\n  swap1\n  dup4\n  iszero\n  iszero\n  mul\n  or\n  swap1\n  sstore\n  pop\n    /* \"PRACTICA 4/practica4.sol\":1538:1543  false */\n  0x00\n    /* \"PRACTICA 4/practica4.sol\":1525:1535  votingOpen */\n  0x03\n  0x01\n    /* \"PRACTICA 4/practica4.sol\":1525:1543  votingOpen = false */\n  0x0100\n  exp\n  dup2\n  sload\n  dup2\n  0xff\n  mul\n  not\n  and\n  swap1\n  dup4\n  iszero\n  iszero\n  mul\n  or\n  swap1\n  sstore\n  pop\n    /* \"PRACTICA 4/practica4.sol\":1428:1551  constructor(address presi){... */\n  pop\n    /* \"PRACTICA 4/practica4.sol\":2275:2421  constructor(address president, uint num_partys, uint region_Id)... */\n  pop\n  pop\n  pop\n    /* \"PRACTICA 4/practica4.sol\":2199:2761  contract DhondtPollingStation is DhondtElectionRegion, PollingStation{... */\n  jump(tag_18)\n    /* \"PRACTICA 4/practica4.sol\":688:987  function savedRegionInfo() private{... */\ntag_15:\n    /* \"PRACTICA 4/practica4.sol\":743:744  1 */\n  0x01\n    /* \"PRACTICA 4/practica4.sol\":729:736  weights */\n  0x00\n    /* \"PRACTICA 4/practica4.sol\":729:740  weights[28] */\n  dup1\n    /* \"PRACTICA 4/practica4.sol\":737:739  28 */\n  0x1c\n    /* \"PRACTICA 4/practica4.sol\":729:740  weights[28] */\n  dup2\n  mstore\n  0x20\n  add\n  swap1\n  dup2\n  mstore\n  0x20\n  add\n  0x00\n  keccak256\n    /* \"PRACTICA 4/practica4.sol\":729:744  weights[28] = 1 */\n  dup2\n  swap1\n  sstore\n  pop\n    /* \"PRACTICA 4/practica4.sol\":774:775  1 */\n  0x01\n    /* \"PRACTICA 4/practica4.sol\":761:768  weights */\n  0x00\n    /* \"PRACTICA 4/practica4.sol\":761:771  weights[8] */\n  dup1\n    /* \"PRACTICA 4/practica4.sol\":769:770  8 */\n  0x08\n    /* \"PRACTICA 4/practica4.sol\":761:771  weights[8] */\n  dup2\n  mstore\n  0x20\n  add\n  swap1\n  dup2\n  mstore\n  0x20\n  add\n  0x00\n  keccak256\n    /* \"PRACTICA 4/practica4.sol\":761:775  weights[8] = 1 */\n  dup2\n  swap1\n  sstore\n  pop\n    /* \"PRACTICA 4/practica4.sol\":809:810  1 */\n  0x01\n    /* \"PRACTICA 4/practica4.sol\":795:802  weights */\n  0x00\n    /* \"PRACTICA 4/practica4.sol\":795:806  weights[41] */\n  dup1\n    /* \"PRACTICA 4/practica4.sol\":803:805  41 */\n  0x29\n    /* \"PRACTICA 4/practica4.sol\":795:806  weights[41] */\n  dup2\n  mstore\n  0x20\n  add\n  swap1\n  dup2\n  mstore\n  0x20\n  add\n  0x00\n  keccak256\n    /* \"PRACTICA 4/practica4.sol\":795:810  weights[41] = 1 */\n  dup2\n  swap1\n  sstore\n  pop\n    /* \"PRACTICA 4/practica4.sol\":842:843  5 */\n  0x05\n    /* \"PRACTICA 4/practica4.sol\":828:835  weights */\n  0x00\n    /* \"PRACTICA 4/practica4.sol\":828:839  weights[44] */\n  dup1\n    /* \"PRACTICA 4/practica4.sol\":836:838  44 */\n  0x2c\n    /* \"PRACTICA 4/practica4.sol\":828:839  weights[44] */\n  dup2\n  mstore\n  0x20\n  add\n  swap1\n  dup2\n  mstore\n  0x20\n  add\n  0x00\n  keccak256\n    /* \"PRACTICA 4/practica4.sol\":828:843  weights[44] = 5 */\n  dup2\n  swap1\n  sstore\n  pop\n    /* \"PRACTICA 4/practica4.sol\":874:875  5 */\n  0x05\n    /* \"PRACTICA 4/practica4.sol\":860:867  weights */\n  0x00\n    /* \"PRACTICA 4/practica4.sol\":860:871  weights[42] */\n  dup1\n    /* \"PRACTICA 4/practica4.sol\":868:870  42 */\n  0x2a\n    /* \"PRACTICA 4/practica4.sol\":860:871  weights[42] */\n  dup2\n  mstore\n  0x20\n  add\n  swap1\n  dup2\n  mstore\n  0x20\n  add\n  0x00\n  keccak256\n    /* \"PRACTICA 4/practica4.sol\":860:875  weights[42] = 5 */\n  dup2\n  swap1\n  sstore\n  pop\n    /* \"PRACTICA 4/practica4.sol\":905:906  4 */\n  0x04\n    /* \"PRACTICA 4/practica4.sol\":891:898  weights */\n  0x00\n    /* \"PRACTICA 4/practica4.sol\":891:902  weights[49] */\n  dup1\n    /* \"PRACTICA 4/practica4.sol\":899:901  49 */\n  0x31\n    /* \"PRACTICA 4/practica4.sol\":891:902  weights[49] */\n  dup2\n  mstore\n  0x20\n  add\n  swap1\n  dup2\n  mstore\n  0x20\n  add\n  0x00\n  keccak256\n    /* \"PRACTICA 4/practica4.sol\":891:906  weights[49] = 4 */\n  dup2\n  swap1\n  sstore\n  pop\n    /* \"PRACTICA 4/practica4.sol\":936:937  4 */\n  0x04\n    /* \"PRACTICA 4/practica4.sol\":923:930  weights */\n  0x00\n    /* \"PRACTICA 4/practica4.sol\":923:933  weights[9] */\n  dup1\n    /* \"PRACTICA 4/practica4.sol\":931:932  9 */\n  0x09\n    /* \"PRACTICA 4/practica4.sol\":923:933  weights[9] */\n  dup2\n  mstore\n  0x20\n  add\n  swap1\n  dup2\n  mstore\n  0x20\n  add\n  0x00\n  keccak256\n    /* \"PRACTICA 4/practica4.sol\":923:937  weights[9] = 4 */\n  dup2\n  swap1\n  sstore\n  pop\n    /* \"PRACTICA 4/practica4.sol\":968:969  2 */\n  0x02\n    /* \"PRACTICA 4/practica4.sol\":954:961  weights */\n  0x00\n    /* \"PRACTICA 4/practica4.sol\":954:965  weights[29] */\n  dup1\n    /* \"PRACTICA 4/practica4.sol\":962:964  29 */\n  0x1d\n    /* \"PRACTICA 4/practica4.sol\":954:965  weights[29] */\n  dup2\n  mstore\n  0x20\n  add\n  swap1\n  dup2\n  mstore\n  0x20\n  add\n  0x00\n  keccak256\n    /* \"PRACTICA 4/practica4.sol\":954:969  weights[29] = 2 */\n  dup2\n  swap1\n  sstore\n  pop\n    /* \"PRACTICA 4/practica4.sol\":688:987  function savedRegionInfo() private{... */\n  jump\t// out\n    /* \"PRACTICA 4/practica4.sol\":2199:2761  contract DhondtPollingStation is DhondtElectionRegion, PollingStation{... */\ntag_13:\n  dup3\n  dup1\n  sload\n  dup3\n  dup3\n  sstore\n  swap1\n  0x00\n  mstore\n  keccak256(0x00, 0x20)\n  swap1\n  dup2\n  add\n  swap3\n  dup3\n  iszero\n  tag_20\n  jumpi\n  swap2\n  0x20\n  mul\n  dup3\n  add\ntag_21:\n  dup3\n  dup2\n  gt\n  iszero\n  tag_22\n  jumpi\n  dup3\n  mload\n  dup3\n  sstore\n  swap2\n  0x20\n  add\n  swap2\n  swap1\n  0x01\n  add\n  swap1\n  jump(tag_21)\ntag_22:\ntag_20:\n  pop\n  swap1\n  pop\n  tag_23\n  swap2\n  swap1\n  tag_24\n  jump\t// in\ntag_23:\n  pop\n  swap1\n  jump\t// out\ntag_24:\ntag_25:\n  dup1\n  dup3\n  gt\n  iszero\n  tag_26\n  jumpi\n  0x00\n  dup2\n  0x00\n  swap1\n  sstore\n  pop\n  0x01\n  add\n  jump(tag_25)\ntag_26:\n  pop\n  swap1\n  jump\t// out\n    /* \"#utility.yul\":88:205   */\ntag_28:\n    /* \"#utility.yul\":197:198   */\n  0x00\n    /* \"#utility.yul\":194:195   */\n  dup1\n    /* \"#utility.yul\":187:199   */\n  revert\n    /* \"#utility.yul\":334:460   */\ntag_30:\n    /* \"#utility.yul\":371:378   */\n  0x00\n    /* \"#utility.yul\":411:453   */\n  0xffffffffffffffffffffffffffffffffffffffff\n    /* \"#utility.yul\":404:409   */\n  dup3\n    /* \"#utility.yul\":400:454   */\n  and\n    /* \"#utility.yul\":389:454   */\n  swap1\n  pop\n    /* \"#utility.yul\":334:460   */\n  swap2\n  swap1\n  pop\n  jump\t// out\n    /* \"#utility.yul\":466:562   */\ntag_31:\n    /* \"#utility.yul\":503:510   */\n  0x00\n    /* \"#utility.yul\":532:556   */\n  tag_43\n    /* \"#utility.yul\":550:555   */\n  dup3\n    /* \"#utility.yul\":532:556   */\n  tag_30\n  jump\t// in\ntag_43:\n    /* \"#utility.yul\":521:556   */\n  swap1\n  pop\n    /* \"#utility.yul\":466:562   */\n  swap2\n  swap1\n  pop\n  jump\t// out\n    /* \"#utility.yul\":568:690   */\ntag_32:\n    /* \"#utility.yul\":641:665   */\n  tag_45\n    /* \"#utility.yul\":659:664   */\n  dup2\n    /* \"#utility.yul\":641:665   */\n  tag_31\n  jump\t// in\ntag_45:\n    /* \"#utility.yul\":634:639   */\n  dup2\n    /* \"#utility.yul\":631:666   */\n  eq\n    /* \"#utility.yul\":621:684   */\n  tag_46\n  jumpi\n    /* \"#utility.yul\":680:681   */\n  0x00\n    /* \"#utility.yul\":677:678   */\n  dup1\n    /* \"#utility.yul\":670:682   */\n  revert\n    /* \"#utility.yul\":621:684   */\ntag_46:\n    /* \"#utility.yul\":568:690   */\n  pop\n  jump\t// out\n    /* \"#utility.yul\":696:839   */\ntag_33:\n    /* \"#utility.yul\":753:758   */\n  0x00\n    /* \"#utility.yul\":784:790   */\n  dup2\n    /* \"#utility.yul\":778:791   */\n  mload\n    /* \"#utility.yul\":769:791   */\n  swap1\n  pop\n    /* \"#utility.yul\":800:833   */\n  tag_48\n    /* \"#utility.yul\":827:832   */\n  dup2\n    /* \"#utility.yul\":800:833   */\n  tag_32\n  jump\t// in\ntag_48:\n    /* \"#utility.yul\":696:839   */\n  swap3\n  swap2\n  pop\n  pop\n  jump\t// out\n    /* \"#utility.yul\":845:922   */\ntag_34:\n    /* \"#utility.yul\":882:889   */\n  0x00\n    /* \"#utility.yul\":911:916   */\n  dup2\n    /* \"#utility.yul\":900:916   */\n  swap1\n  pop\n    /* \"#utility.yul\":845:922   */\n  swap2\n  swap1\n  pop\n  jump\t// out\n    /* \"#utility.yul\":928:1050   */\ntag_35:\n    /* \"#utility.yul\":1001:1025   */\n  tag_51\n    /* \"#utility.yul\":1019:1024   */\n  dup2\n    /* \"#utility.yul\":1001:1025   */\n  tag_34\n  jump\t// in\ntag_51:\n    /* \"#utility.yul\":994:999   */\n  dup2\n    /* \"#utility.yul\":991:1026   */\n  eq\n    /* \"#utility.yul\":981:1044   */\n  tag_52\n  jumpi\n    /* \"#utility.yul\":1040:1041   */\n  0x00\n    /* \"#utility.yul\":1037:1038   */\n  dup1\n    /* \"#utility.yul\":1030:1042   */\n  revert\n    /* \"#utility.yul\":981:1044   */\ntag_52:\n    /* \"#utility.yul\":928:1050   */\n  pop\n  jump\t// out\n    /* \"#utility.yul\":1056:1199   */\ntag_36:\n    /* \"#utility.yul\":1113:1118   */\n  0x00\n    /* \"#utility.yul\":1144:1150   */\n  dup2\n    /* \"#utility.yul\":1138:1151   */\n  mload\n    /* \"#utility.yul\":1129:1151   */\n  swap1\n  pop\n    /* \"#utility.yul\":1160:1193   */\n  tag_54\n    /* \"#utility.yul\":1187:1192   */\n  dup2\n    /* \"#utility.yul\":1160:1193   */\n  tag_35\n  jump\t// in\ntag_54:\n    /* \"#utility.yul\":1056:1199   */\n  swap3\n  swap2\n  pop\n  pop\n  jump\t// out\n    /* \"#utility.yul\":1205:1868   */\ntag_3:\n    /* \"#utility.yul\":1293:1299   */\n  0x00\n    /* \"#utility.yul\":1301:1307   */\n  dup1\n    /* \"#utility.yul\":1309:1315   */\n  0x00\n    /* \"#utility.yul\":1358:1360   */\n  0x60\n    /* \"#utility.yul\":1346:1355   */\n  dup5\n    /* \"#utility.yul\":1337:1344   */\n  dup7\n    /* \"#utility.yul\":1333:1356   */\n  sub\n    /* \"#utility.yul\":1329:1361   */\n  slt\n    /* \"#utility.yul\":1326:1445   */\n  iszero\n  tag_56\n  jumpi\n    /* \"#utility.yul\":1364:1443   */\n  tag_57\n  tag_28\n  jump\t// in\ntag_57:\n    /* \"#utility.yul\":1326:1445   */\ntag_56:\n    /* \"#utility.yul\":1484:1485   */\n  0x00\n    /* \"#utility.yul\":1509:1573   */\n  tag_58\n    /* \"#utility.yul\":1565:1572   */\n  dup7\n    /* \"#utility.yul\":1556:1562   */\n  dup3\n    /* \"#utility.yul\":1545:1554   */\n  dup8\n    /* \"#utility.yul\":1541:1563   */\n  add\n    /* \"#utility.yul\":1509:1573   */\n  tag_33\n  jump\t// in\ntag_58:\n    /* \"#utility.yul\":1499:1573   */\n  swap4\n  pop\n    /* \"#utility.yul\":1455:1583   */\n  pop\n    /* \"#utility.yul\":1622:1624   */\n  0x20\n    /* \"#utility.yul\":1648:1712   */\n  tag_59\n    /* \"#utility.yul\":1704:1711   */\n  dup7\n    /* \"#utility.yul\":1695:1701   */\n  dup3\n    /* \"#utility.yul\":1684:1693   */\n  dup8\n    /* \"#utility.yul\":1680:1702   */\n  add\n    /* \"#utility.yul\":1648:1712   */\n  tag_36\n  jump\t// in\ntag_59:\n    /* \"#utility.yul\":1638:1712   */\n  swap3\n  pop\n    /* \"#utility.yul\":1593:1722   */\n  pop\n    /* \"#utility.yul\":1761:1763   */\n  0x40\n    /* \"#utility.yul\":1787:1851   */\n  tag_60\n    /* \"#utility.yul\":1843:1850   */\n  dup7\n    /* \"#utility.yul\":1834:1840   */\n  dup3\n    /* \"#utility.yul\":1823:1832   */\n  dup8\n    /* \"#utility.yul\":1819:1841   */\n  add\n    /* \"#utility.yul\":1787:1851   */\n  tag_36\n  jump\t// in\ntag_60:\n    /* \"#utility.yul\":1777:1851   */\n  swap2\n  pop\n    /* \"#utility.yul\":1732:1861   */\n  pop\n    /* \"#utility.yul\":1205:1868   */\n  swap3\n  pop\n  swap3\n  pop\n  swap3\n  jump\t// out\n    /* \"#utility.yul\":1874:2054   */\ntag_10:\n    /* \"#utility.yul\":1922:1999   */\n  0x4e487b7100000000000000000000000000000000000000000000000000000000\n    /* \"#utility.yul\":1919:1920   */\n  0x00\n    /* \"#utility.yul\":1912:2000   */\n  mstore\n    /* \"#utility.yul\":2019:2023   */\n  0x41\n    /* \"#utility.yul\":2016:2017   */\n  0x04\n    /* \"#utility.yul\":2009:2024   */\n  mstore\n    /* \"#utility.yul\":2043:2047   */\n  0x24\n    /* \"#utility.yul\":2040:2041   */\n  0x00\n    /* \"#utility.yul\":2033:2048   */\n  revert\n    /* \"PRACTICA 4/practica4.sol\":2199:2761  contract DhondtPollingStation is DhondtElectionRegion, PollingStation{... */\ntag_18:\n  dataSize(sub_0)\n  dup1\n  dataOffset(sub_0)\n  0x00\n  codecopy\n  0x00\n  return\nstop\n\nsub_0: assembly {\n        /* \"PRACTICA 4/practica4.sol\":2199:2761  contract DhondtPollingStation is DhondtElectionRegion, PollingStation{... */\n      mstore(0x40, 0x80)\n      callvalue\n      dup1\n      iszero\n      tag_1\n      jumpi\n      0x00\n      dup1\n      revert\n    tag_1:\n      pop\n      jumpi(tag_2, lt(calldatasize, 0x04))\n      shr(0xe0, calldataload(0x00))\n      dup1\n      0x3eb76b9c\n      eq\n      tag_3\n      jumpi\n      dup1\n      0x4717f97c\n      eq\n      tag_4\n      jumpi\n      dup1\n      0x789d9e8a\n      eq\n      tag_5\n      jumpi\n      dup1\n      0xaffc0670\n      eq\n      tag_6\n      jumpi\n      dup1\n      0xc631b292\n      eq\n      tag_7\n      jumpi\n    tag_2:\n      0x00\n      dup1\n      revert\n        /* \"PRACTICA 4/practica4.sol\":2432:2534  function castVote(uint party_id)  external override isOpened {... */\n    tag_3:\n      tag_8\n      0x04\n      dup1\n      calldatasize\n      sub\n      dup2\n      add\n      swap1\n      tag_9\n      swap2\n      swap1\n      tag_10\n      jump\t// in\n    tag_9:\n      tag_11\n      jump\t// in\n    tag_8:\n      stop\n        /* \"PRACTICA 4/practica4.sol\":2544:2753  function getResults() external view override returns (uint [] memory){... */\n    tag_4:\n      tag_12\n      tag_13\n      jump\t// in\n    tag_12:\n      mload(0x40)\n      tag_14\n      swap2\n      swap1\n      tag_15\n      jump\t// in\n    tag_14:\n      mload(0x40)\n      dup1\n      swap2\n      sub\n      swap1\n      return\n        /* \"PRACTICA 4/practica4.sol\":1337:1363  bool public votingFinished */\n    tag_5:\n      tag_16\n      tag_17\n      jump\t// in\n    tag_16:\n      mload(0x40)\n      tag_18\n      swap2\n      swap1\n      tag_19\n      jump\t// in\n    tag_18:\n      mload(0x40)\n      dup1\n      swap2\n      sub\n      swap1\n      return\n        /* \"PRACTICA 4/practica4.sol\":1850:1925  function openVoting()external isPresident{... */\n    tag_6:\n      tag_20\n      tag_21\n      jump\t// in\n    tag_20:\n      stop\n        /* \"PRACTICA 4/practica4.sol\":1935:2056  function closeVoting() external isPresident isOpened{... */\n    tag_7:\n      tag_22\n      tag_23\n      jump\t// in\n    tag_22:\n      stop\n        /* \"PRACTICA 4/practica4.sol\":2432:2534  function castVote(uint party_id)  external override isOpened {... */\n    tag_11:\n        /* \"PRACTICA 4/practica4.sol\":1755:1759  true */\n      0x01\n        /* \"PRACTICA 4/practica4.sol\":1742:1759  votingOpen ==true */\n      iszero\n      iszero\n        /* \"PRACTICA 4/practica4.sol\":1742:1752  votingOpen */\n      0x03\n      0x01\n      swap1\n      sload\n      swap1\n      0x0100\n      exp\n      swap1\n      div\n      0xff\n      and\n        /* \"PRACTICA 4/practica4.sol\":1742:1759  votingOpen ==true */\n      iszero\n      iszero\n      eq\n        /* \"PRACTICA 4/practica4.sol\":1734:1820  require(votingOpen ==true, \"La mesa electoral debe estar abierta para poder cerrarla\") */\n      tag_25\n      jumpi\n      mload(0x40)\n      0x08c379a000000000000000000000000000000000000000000000000000000000\n      dup2\n      mstore\n      0x04\n      add\n      tag_26\n      swap1\n      tag_27\n      jump\t// in\n    tag_26:\n      mload(0x40)\n      dup1\n      swap2\n      sub\n      swap1\n      revert\n    tag_25:\n        /* \"PRACTICA 4/practica4.sol\":2504:2526  registerVote(party_id) */\n      tag_29\n        /* \"PRACTICA 4/practica4.sol\":2517:2525  party_id */\n      dup2\n        /* \"PRACTICA 4/practica4.sol\":2504:2516  registerVote */\n      tag_30\n        /* \"PRACTICA 4/practica4.sol\":2504:2526  registerVote(party_id) */\n      jump\t// in\n    tag_29:\n      pop\n        /* \"PRACTICA 4/practica4.sol\":2432:2534  function castVote(uint party_id)  external override isOpened {... */\n      pop\n      jump\t// out\n        /* \"PRACTICA 4/practica4.sol\":2544:2753  function getResults() external view override returns (uint [] memory){... */\n    tag_13:\n        /* \"PRACTICA 4/practica4.sol\":2598:2612  uint [] memory */\n      0x60\n        /* \"PRACTICA 4/practica4.sol\":2653:2657  true */\n      0x01\n        /* \"PRACTICA 4/practica4.sol\":2636:2657  votingFinished ==true */\n      iszero\n      iszero\n        /* \"PRACTICA 4/practica4.sol\":2636:2650  votingFinished */\n      0x03\n      0x00\n      swap1\n      sload\n      swap1\n      0x0100\n      exp\n      swap1\n      div\n      0xff\n      and\n        /* \"PRACTICA 4/practica4.sol\":2636:2657  votingFinished ==true */\n      iszero\n      iszero\n      eq\n        /* \"PRACTICA 4/practica4.sol\":2628:2716  require(votingFinished ==true, \"La votacion no ha terminado aun. Espere a que termine.\") */\n      tag_32\n      jumpi\n      mload(0x40)\n      0x08c379a000000000000000000000000000000000000000000000000000000000\n      dup2\n      mstore\n      0x04\n      add\n      tag_33\n      swap1\n      tag_34\n      jump\t// in\n    tag_33:\n      mload(0x40)\n      dup1\n      swap2\n      sub\n      swap1\n      revert\n    tag_32:\n        /* \"PRACTICA 4/practica4.sol\":2738:2745  results */\n      0x02\n        /* \"PRACTICA 4/practica4.sol\":2731:2745  return results */\n      dup1\n      sload\n      dup1\n      0x20\n      mul\n      0x20\n      add\n      mload(0x40)\n      swap1\n      dup2\n      add\n      0x40\n      mstore\n      dup1\n      swap3\n      swap2\n      swap1\n      dup2\n      dup2\n      mstore\n      0x20\n      add\n      dup3\n      dup1\n      sload\n      dup1\n      iszero\n      tag_35\n      jumpi\n      0x20\n      mul\n      dup3\n      add\n      swap2\n      swap1\n      0x00\n      mstore\n      keccak256(0x00, 0x20)\n      swap1\n    tag_36:\n      dup2\n      sload\n      dup2\n      mstore\n      0x20\n      add\n      swap1\n      0x01\n      add\n      swap1\n      dup1\n      dup4\n      gt\n      tag_36\n      jumpi\n    tag_35:\n      pop\n      pop\n      pop\n      pop\n      pop\n      swap1\n      pop\n        /* \"PRACTICA 4/practica4.sol\":2544:2753  function getResults() external view override returns (uint [] memory){... */\n      swap1\n      jump\t// out\n        /* \"PRACTICA 4/practica4.sol\":1337:1363  bool public votingFinished */\n    tag_17:\n      0x03\n      0x00\n      swap1\n      sload\n      swap1\n      0x0100\n      exp\n      swap1\n      div\n      0xff\n      and\n      dup2\n      jump\t// out\n        /* \"PRACTICA 4/practica4.sol\":1850:1925  function openVoting()external isPresident{... */\n    tag_21:\n        /* \"PRACTICA 4/practica4.sol\":1615:1625  msg.sender */\n      caller\n        /* \"PRACTICA 4/practica4.sol\":1602:1625  president == msg.sender */\n      0xffffffffffffffffffffffffffffffffffffffff\n      and\n        /* \"PRACTICA 4/practica4.sol\":1602:1611  president */\n      0x03\n      0x02\n      swap1\n      sload\n      swap1\n      0x0100\n      exp\n      swap1\n      div\n      0xffffffffffffffffffffffffffffffffffffffff\n      and\n        /* \"PRACTICA 4/practica4.sol\":1602:1625  president == msg.sender */\n      0xffffffffffffffffffffffffffffffffffffffff\n      and\n      eq\n        /* \"PRACTICA 4/practica4.sol\":1594:1678  require(president == msg.sender, \"Esta funcion solo debe ejecutarla el presidente.\") */\n      tag_38\n      jumpi\n      mload(0x40)\n      0x08c379a000000000000000000000000000000000000000000000000000000000\n      dup2\n      mstore\n      0x04\n      add\n      tag_39\n      swap1\n      tag_40\n      jump\t// in\n    tag_39:\n      mload(0x40)\n      dup1\n      swap2\n      sub\n      swap1\n      revert\n    tag_38:\n        /* \"PRACTICA 4/practica4.sol\":1913:1917  true */\n      0x01\n        /* \"PRACTICA 4/practica4.sol\":1902:1912  votingOpen */\n      0x03\n      0x01\n        /* \"PRACTICA 4/practica4.sol\":1902:1917  votingOpen=true */\n      0x0100\n      exp\n      dup2\n      sload\n      dup2\n      0xff\n      mul\n      not\n      and\n      swap1\n      dup4\n      iszero\n      iszero\n      mul\n      or\n      swap1\n      sstore\n      pop\n        /* \"PRACTICA 4/practica4.sol\":1850:1925  function openVoting()external isPresident{... */\n      jump\t// out\n        /* \"PRACTICA 4/practica4.sol\":1935:2056  function closeVoting() external isPresident isOpened{... */\n    tag_23:\n        /* \"PRACTICA 4/practica4.sol\":1615:1625  msg.sender */\n      caller\n        /* \"PRACTICA 4/practica4.sol\":1602:1625  president == msg.sender */\n      0xffffffffffffffffffffffffffffffffffffffff\n      and\n        /* \"PRACTICA 4/practica4.sol\":1602:1611  president */\n      0x03\n      0x02\n      swap1\n      sload\n      swap1\n      0x0100\n      exp\n      swap1\n      div\n      0xffffffffffffffffffffffffffffffffffffffff\n      and\n        /* \"PRACTICA 4/practica4.sol\":1602:1625  president == msg.sender */\n      0xffffffffffffffffffffffffffffffffffffffff\n      and\n      eq\n        /* \"PRACTICA 4/practica4.sol\":1594:1678  require(president == msg.sender, \"Esta funcion solo debe ejecutarla el presidente.\") */\n      tag_43\n      jumpi\n      mload(0x40)\n      0x08c379a000000000000000000000000000000000000000000000000000000000\n      dup2\n      mstore\n      0x04\n      add\n      tag_44\n      swap1\n      tag_40\n      jump\t// in\n    tag_44:\n      mload(0x40)\n      dup1\n      swap2\n      sub\n      swap1\n      revert\n    tag_43:\n        /* \"PRACTICA 4/practica4.sol\":1755:1759  true */\n      0x01\n        /* \"PRACTICA 4/practica4.sol\":1742:1759  votingOpen ==true */\n      iszero\n      iszero\n        /* \"PRACTICA 4/practica4.sol\":1742:1752  votingOpen */\n      0x03\n      0x01\n      swap1\n      sload\n      swap1\n      0x0100\n      exp\n      swap1\n      div\n      0xff\n      and\n        /* \"PRACTICA 4/practica4.sol\":1742:1759  votingOpen ==true */\n      iszero\n      iszero\n      eq\n        /* \"PRACTICA 4/practica4.sol\":1734:1820  require(votingOpen ==true, \"La mesa electoral debe estar abierta para poder cerrarla\") */\n      tag_46\n      jumpi\n      mload(0x40)\n      0x08c379a000000000000000000000000000000000000000000000000000000000\n      dup2\n      mstore\n      0x04\n      add\n      tag_47\n      swap1\n      tag_27\n      jump\t// in\n    tag_47:\n      mload(0x40)\n      dup1\n      swap2\n      sub\n      swap1\n      revert\n    tag_46:\n        /* \"PRACTICA 4/practica4.sol\":2011:2016  false */\n      0x00\n        /* \"PRACTICA 4/practica4.sol\":1998:2008  votingOpen */\n      0x03\n      0x01\n        /* \"PRACTICA 4/practica4.sol\":1998:2016  votingOpen = false */\n      0x0100\n      exp\n      dup2\n      sload\n      dup2\n      0xff\n      mul\n      not\n      and\n      swap1\n      dup4\n      iszero\n      iszero\n      mul\n      or\n      swap1\n      sstore\n      pop\n        /* \"PRACTICA 4/practica4.sol\":2044:2048  true */\n      0x01\n        /* \"PRACTICA 4/practica4.sol\":2027:2041  votingFinished */\n      0x03\n      0x00\n        /* \"PRACTICA 4/practica4.sol\":2027:2048  votingFinished = true */\n      0x0100\n      exp\n      dup2\n      sload\n      dup2\n      0xff\n      mul\n      not\n      and\n      swap1\n      dup4\n      iszero\n      iszero\n      mul\n      or\n      swap1\n      sstore\n      pop\n        /* \"PRACTICA 4/practica4.sol\":1935:2056  function closeVoting() external isPresident isOpened{... */\n      jump\t// out\n        /* \"PRACTICA 4/practica4.sol\":997:1260  function registerVote(uint voted_party) internal   returns  (bool){... */\n    tag_30:\n        /* \"PRACTICA 4/practica4.sol\":1058:1062  bool */\n      0x00\n        /* \"PRACTICA 4/practica4.sol\":1100:1101  0 */\n      dup1\n        /* \"PRACTICA 4/practica4.sol\":1086:1097  voted_party */\n      dup3\n        /* \"PRACTICA 4/practica4.sol\":1086:1101  voted_party > 0 */\n      gt\n        /* \"PRACTICA 4/practica4.sol\":1086:1131  voted_party > 0 &&voted_party <results.length */\n      dup1\n      iszero\n      tag_50\n      jumpi\n      pop\n        /* \"PRACTICA 4/practica4.sol\":1117:1124  results */\n      0x02\n        /* \"PRACTICA 4/practica4.sol\":1117:1131  results.length */\n      dup1\n      sload\n      swap1\n      pop\n        /* \"PRACTICA 4/practica4.sol\":1104:1115  voted_party */\n      dup3\n        /* \"PRACTICA 4/practica4.sol\":1104:1131  voted_party <results.length */\n      lt\n        /* \"PRACTICA 4/practica4.sol\":1086:1131  voted_party > 0 &&voted_party <results.length */\n    tag_50:\n        /* \"PRACTICA 4/practica4.sol\":1083:1226  if(voted_party > 0 &&voted_party <results.length){... */\n      iszero\n      tag_51\n      jumpi\n        /* \"PRACTICA 4/practica4.sol\":1171:1178  weights */\n      0x00\n        /* \"PRACTICA 4/practica4.sol\":1171:1188  weights[regionId] */\n      dup1\n        /* \"PRACTICA 4/practica4.sol\":1179:1187  regionId */\n      sload(0x01)\n        /* \"PRACTICA 4/practica4.sol\":1171:1188  weights[regionId] */\n      dup2\n      mstore\n      0x20\n      add\n      swap1\n      dup2\n      mstore\n      0x20\n      add\n      0x00\n      keccak256\n      sload\n        /* \"PRACTICA 4/practica4.sol\":1147:1154  results */\n      0x02\n        /* \"PRACTICA 4/practica4.sol\":1155:1166  voted_party */\n      dup4\n        /* \"PRACTICA 4/practica4.sol\":1147:1167  results[voted_party] */\n      dup2\n      sload\n      dup2\n      lt\n      tag_52\n      jumpi\n      tag_53\n      tag_54\n      jump\t// in\n    tag_53:\n    tag_52:\n      swap1\n      0x00\n      mstore\n      keccak256(0x00, 0x20)\n      add\n      0x00\n        /* \"PRACTICA 4/practica4.sol\":1147:1188  results[voted_party] += weights[regionId] */\n      dup3\n      dup3\n      sload\n      tag_56\n      swap2\n      swap1\n      tag_57\n      jump\t// in\n    tag_56:\n      swap3\n      pop\n      pop\n      dup2\n      swap1\n      sstore\n      pop\n        /* \"PRACTICA 4/practica4.sol\":1210:1214  true */\n      0x01\n        /* \"PRACTICA 4/practica4.sol\":1203:1214  return true */\n      swap1\n      pop\n      jump(tag_49)\n        /* \"PRACTICA 4/practica4.sol\":1083:1226  if(voted_party > 0 &&voted_party <results.length){... */\n    tag_51:\n        /* \"PRACTICA 4/practica4.sol\":1243:1248  false */\n      0x00\n        /* \"PRACTICA 4/practica4.sol\":1236:1248  return false */\n      swap1\n      pop\n        /* \"PRACTICA 4/practica4.sol\":997:1260  function registerVote(uint voted_party) internal   returns  (bool){... */\n    tag_49:\n      swap2\n      swap1\n      pop\n      jump\t// out\n        /* \"#utility.yul\":88:205   */\n    tag_59:\n        /* \"#utility.yul\":197:198   */\n      0x00\n        /* \"#utility.yul\":194:195   */\n      dup1\n        /* \"#utility.yul\":187:199   */\n      revert\n        /* \"#utility.yul\":334:411   */\n    tag_61:\n        /* \"#utility.yul\":371:378   */\n      0x00\n        /* \"#utility.yul\":400:405   */\n      dup2\n        /* \"#utility.yul\":389:405   */\n      swap1\n      pop\n        /* \"#utility.yul\":334:411   */\n      swap2\n      swap1\n      pop\n      jump\t// out\n        /* \"#utility.yul\":417:539   */\n    tag_62:\n        /* \"#utility.yul\":490:514   */\n      tag_87\n        /* \"#utility.yul\":508:513   */\n      dup2\n        /* \"#utility.yul\":490:514   */\n      tag_61\n      jump\t// in\n    tag_87:\n        /* \"#utility.yul\":483:488   */\n      dup2\n        /* \"#utility.yul\":480:515   */\n      eq\n        /* \"#utility.yul\":470:533   */\n      tag_88\n      jumpi\n        /* \"#utility.yul\":529:530   */\n      0x00\n        /* \"#utility.yul\":526:527   */\n      dup1\n        /* \"#utility.yul\":519:531   */\n      revert\n        /* \"#utility.yul\":470:533   */\n    tag_88:\n        /* \"#utility.yul\":417:539   */\n      pop\n      jump\t// out\n        /* \"#utility.yul\":545:684   */\n    tag_63:\n        /* \"#utility.yul\":591:596   */\n      0x00\n        /* \"#utility.yul\":629:635   */\n      dup2\n        /* \"#utility.yul\":616:636   */\n      calldataload\n        /* \"#utility.yul\":607:636   */\n      swap1\n      pop\n        /* \"#utility.yul\":645:678   */\n      tag_90\n        /* \"#utility.yul\":672:677   */\n      dup2\n        /* \"#utility.yul\":645:678   */\n      tag_62\n      jump\t// in\n    tag_90:\n        /* \"#utility.yul\":545:684   */\n      swap3\n      swap2\n      pop\n      pop\n      jump\t// out\n        /* \"#utility.yul\":690:1019   */\n    tag_10:\n        /* \"#utility.yul\":749:755   */\n      0x00\n        /* \"#utility.yul\":798:800   */\n      0x20\n        /* \"#utility.yul\":786:795   */\n      dup3\n        /* \"#utility.yul\":777:784   */\n      dup5\n        /* \"#utility.yul\":773:796   */\n      sub\n        /* \"#utility.yul\":769:801   */\n      slt\n        /* \"#utility.yul\":766:885   */\n      iszero\n      tag_92\n      jumpi\n        /* \"#utility.yul\":804:883   */\n      tag_93\n      tag_59\n      jump\t// in\n    tag_93:\n        /* \"#utility.yul\":766:885   */\n    tag_92:\n        /* \"#utility.yul\":924:925   */\n      0x00\n        /* \"#utility.yul\":949:1002   */\n      tag_94\n        /* \"#utility.yul\":994:1001   */\n      dup5\n        /* \"#utility.yul\":985:991   */\n      dup3\n        /* \"#utility.yul\":974:983   */\n      dup6\n        /* \"#utility.yul\":970:992   */\n      add\n        /* \"#utility.yul\":949:1002   */\n      tag_63\n      jump\t// in\n    tag_94:\n        /* \"#utility.yul\":939:1002   */\n      swap2\n      pop\n        /* \"#utility.yul\":895:1012   */\n      pop\n        /* \"#utility.yul\":690:1019   */\n      swap3\n      swap2\n      pop\n      pop\n      jump\t// out\n        /* \"#utility.yul\":1025:1139   */\n    tag_64:\n        /* \"#utility.yul\":1092:1098   */\n      0x00\n        /* \"#utility.yul\":1126:1131   */\n      dup2\n        /* \"#utility.yul\":1120:1132   */\n      mload\n        /* \"#utility.yul\":1110:1132   */\n      swap1\n      pop\n        /* \"#utility.yul\":1025:1139   */\n      swap2\n      swap1\n      pop\n      jump\t// out\n        /* \"#utility.yul\":1145:1329   */\n    tag_65:\n        /* \"#utility.yul\":1244:1255   */\n      0x00\n        /* \"#utility.yul\":1278:1284   */\n      dup3\n        /* \"#utility.yul\":1273:1276   */\n      dup3\n        /* \"#utility.yul\":1266:1285   */\n      mstore\n        /* \"#utility.yul\":1318:1322   */\n      0x20\n        /* \"#utility.yul\":1313:1316   */\n      dup3\n        /* \"#utility.yul\":1309:1323   */\n      add\n        /* \"#utility.yul\":1294:1323   */\n      swap1\n      pop\n        /* \"#utility.yul\":1145:1329   */\n      swap3\n      swap2\n      pop\n      pop\n      jump\t// out\n        /* \"#utility.yul\":1335:1467   */\n    tag_66:\n        /* \"#utility.yul\":1402:1406   */\n      0x00\n        /* \"#utility.yul\":1425:1428   */\n      dup2\n        /* \"#utility.yul\":1417:1428   */\n      swap1\n      pop\n        /* \"#utility.yul\":1455:1459   */\n      0x20\n        /* \"#utility.yul\":1450:1453   */\n      dup3\n        /* \"#utility.yul\":1446:1460   */\n      add\n        /* \"#utility.yul\":1438:1460   */\n      swap1\n      pop\n        /* \"#utility.yul\":1335:1467   */\n      swap2\n      swap1\n      pop\n      jump\t// out\n        /* \"#utility.yul\":1473:1581   */\n    tag_67:\n        /* \"#utility.yul\":1550:1574   */\n      tag_99\n        /* \"#utility.yul\":1568:1573   */\n      dup2\n        /* \"#utility.yul\":1550:1574   */\n      tag_61\n      jump\t// in\n    tag_99:\n        /* \"#utility.yul\":1545:1548   */\n      dup3\n        /* \"#utility.yul\":1538:1575   */\n      mstore\n        /* \"#utility.yul\":1473:1581   */\n      pop\n      pop\n      jump\t// out\n        /* \"#utility.yul\":1587:1766   */\n    tag_68:\n        /* \"#utility.yul\":1656:1666   */\n      0x00\n        /* \"#utility.yul\":1677:1723   */\n      tag_101\n        /* \"#utility.yul\":1719:1722   */\n      dup4\n        /* \"#utility.yul\":1711:1717   */\n      dup4\n        /* \"#utility.yul\":1677:1723   */\n      tag_67\n      jump\t// in\n    tag_101:\n        /* \"#utility.yul\":1755:1759   */\n      0x20\n        /* \"#utility.yul\":1750:1753   */\n      dup4\n        /* \"#utility.yul\":1746:1760   */\n      add\n        /* \"#utility.yul\":1732:1760   */\n      swap1\n      pop\n        /* \"#utility.yul\":1587:1766   */\n      swap3\n      swap2\n      pop\n      pop\n      jump\t// out\n        /* \"#utility.yul\":1772:1885   */\n    tag_69:\n        /* \"#utility.yul\":1842:1846   */\n      0x00\n        /* \"#utility.yul\":1874:1878   */\n      0x20\n        /* \"#utility.yul\":1869:1872   */\n      dup3\n        /* \"#utility.yul\":1865:1879   */\n      add\n        /* \"#utility.yul\":1857:1879   */\n      swap1\n      pop\n        /* \"#utility.yul\":1772:1885   */\n      swap2\n      swap1\n      pop\n      jump\t// out\n        /* \"#utility.yul\":1921:2653   */\n    tag_70:\n        /* \"#utility.yul\":2040:2043   */\n      0x00\n        /* \"#utility.yul\":2069:2123   */\n      tag_104\n        /* \"#utility.yul\":2117:2122   */\n      dup3\n        /* \"#utility.yul\":2069:2123   */\n      tag_64\n      jump\t// in\n    tag_104:\n        /* \"#utility.yul\":2139:2225   */\n      tag_105\n        /* \"#utility.yul\":2218:2224   */\n      dup2\n        /* \"#utility.yul\":2213:2216   */\n      dup6\n        /* \"#utility.yul\":2139:2225   */\n      tag_65\n      jump\t// in\n    tag_105:\n        /* \"#utility.yul\":2132:2225   */\n      swap4\n      pop\n        /* \"#utility.yul\":2249:2305   */\n      tag_106\n        /* \"#utility.yul\":2299:2304   */\n      dup4\n        /* \"#utility.yul\":2249:2305   */\n      tag_66\n      jump\t// in\n    tag_106:\n        /* \"#utility.yul\":2328:2335   */\n      dup1\n        /* \"#utility.yul\":2359:2360   */\n      0x00\n        /* \"#utility.yul\":2344:2628   */\n    tag_107:\n        /* \"#utility.yul\":2369:2375   */\n      dup4\n        /* \"#utility.yul\":2366:2367   */\n      dup2\n        /* \"#utility.yul\":2363:2376   */\n      lt\n        /* \"#utility.yul\":2344:2628   */\n      iszero\n      tag_109\n      jumpi\n        /* \"#utility.yul\":2445:2451   */\n      dup2\n        /* \"#utility.yul\":2439:2452   */\n      mload\n        /* \"#utility.yul\":2472:2535   */\n      tag_110\n        /* \"#utility.yul\":2531:2534   */\n      dup9\n        /* \"#utility.yul\":2516:2529   */\n      dup3\n        /* \"#utility.yul\":2472:2535   */\n      tag_68\n      jump\t// in\n    tag_110:\n        /* \"#utility.yul\":2465:2535   */\n      swap8\n      pop\n        /* \"#utility.yul\":2558:2618   */\n      tag_111\n        /* \"#utility.yul\":2611:2617   */\n      dup4\n        /* \"#utility.yul\":2558:2618   */\n      tag_69\n      jump\t// in\n    tag_111:\n        /* \"#utility.yul\":2548:2618   */\n      swap3\n      pop\n        /* \"#utility.yul\":2404:2628   */\n      pop\n        /* \"#utility.yul\":2391:2392   */\n      0x01\n        /* \"#utility.yul\":2388:2389   */\n      dup2\n        /* \"#utility.yul\":2384:2393   */\n      add\n        /* \"#utility.yul\":2379:2393   */\n      swap1\n      pop\n        /* \"#utility.yul\":2344:2628   */\n      jump(tag_107)\n    tag_109:\n        /* \"#utility.yul\":2348:2362   */\n      pop\n        /* \"#utility.yul\":2644:2647   */\n      dup6\n        /* \"#utility.yul\":2637:2647   */\n      swap4\n      pop\n        /* \"#utility.yul\":2045:2653   */\n      pop\n      pop\n      pop\n        /* \"#utility.yul\":1921:2653   */\n      swap3\n      swap2\n      pop\n      pop\n      jump\t// out\n        /* \"#utility.yul\":2659:3032   */\n    tag_15:\n        /* \"#utility.yul\":2802:2806   */\n      0x00\n        /* \"#utility.yul\":2840:2842   */\n      0x20\n        /* \"#utility.yul\":2829:2838   */\n      dup3\n        /* \"#utility.yul\":2825:2843   */\n      add\n        /* \"#utility.yul\":2817:2843   */\n      swap1\n      pop\n        /* \"#utility.yul\":2889:2898   */\n      dup2\n        /* \"#utility.yul\":2883:2887   */\n      dup2\n        /* \"#utility.yul\":2879:2899   */\n      sub\n        /* \"#utility.yul\":2875:2876   */\n      0x00\n        /* \"#utility.yul\":2864:2873   */\n      dup4\n        /* \"#utility.yul\":2860:2877   */\n      add\n        /* \"#utility.yul\":2853:2900   */\n      mstore\n        /* \"#utility.yul\":2917:3025   */\n      tag_113\n        /* \"#utility.yul\":3020:3024   */\n      dup2\n        /* \"#utility.yul\":3011:3017   */\n      dup5\n        /* \"#utility.yul\":2917:3025   */\n      tag_70\n      jump\t// in\n    tag_113:\n        /* \"#utility.yul\":2909:3025   */\n      swap1\n      pop\n        /* \"#utility.yul\":2659:3032   */\n      swap3\n      swap2\n      pop\n      pop\n      jump\t// out\n        /* \"#utility.yul\":3038:3128   */\n    tag_71:\n        /* \"#utility.yul\":3072:3079   */\n      0x00\n        /* \"#utility.yul\":3115:3120   */\n      dup2\n        /* \"#utility.yul\":3108:3121   */\n      iszero\n        /* \"#utility.yul\":3101:3122   */\n      iszero\n        /* \"#utility.yul\":3090:3122   */\n      swap1\n      pop\n        /* \"#utility.yul\":3038:3128   */\n      swap2\n      swap1\n      pop\n      jump\t// out\n        /* \"#utility.yul\":3134:3243   */\n    tag_72:\n        /* \"#utility.yul\":3215:3236   */\n      tag_116\n        /* \"#utility.yul\":3230:3235   */\n      dup2\n        /* \"#utility.yul\":3215:3236   */\n      tag_71\n      jump\t// in\n    tag_116:\n        /* \"#utility.yul\":3210:3213   */\n      dup3\n        /* \"#utility.yul\":3203:3237   */\n      mstore\n        /* \"#utility.yul\":3134:3243   */\n      pop\n      pop\n      jump\t// out\n        /* \"#utility.yul\":3249:3459   */\n    tag_19:\n        /* \"#utility.yul\":3336:3340   */\n      0x00\n        /* \"#utility.yul\":3374:3376   */\n      0x20\n        /* \"#utility.yul\":3363:3372   */\n      dup3\n        /* \"#utility.yul\":3359:3377   */\n      add\n        /* \"#utility.yul\":3351:3377   */\n      swap1\n      pop\n        /* \"#utility.yul\":3387:3452   */\n      tag_118\n        /* \"#utility.yul\":3449:3450   */\n      0x00\n        /* \"#utility.yul\":3438:3447   */\n      dup4\n        /* \"#utility.yul\":3434:3451   */\n      add\n        /* \"#utility.yul\":3425:3431   */\n      dup5\n        /* \"#utility.yul\":3387:3452   */\n      tag_72\n      jump\t// in\n    tag_118:\n        /* \"#utility.yul\":3249:3459   */\n      swap3\n      swap2\n      pop\n      pop\n      jump\t// out\n        /* \"#utility.yul\":3465:3634   */\n    tag_73:\n        /* \"#utility.yul\":3549:3560   */\n      0x00\n        /* \"#utility.yul\":3583:3589   */\n      dup3\n        /* \"#utility.yul\":3578:3581   */\n      dup3\n        /* \"#utility.yul\":3571:3590   */\n      mstore\n        /* \"#utility.yul\":3623:3627   */\n      0x20\n        /* \"#utility.yul\":3618:3621   */\n      dup3\n        /* \"#utility.yul\":3614:3628   */\n      add\n        /* \"#utility.yul\":3599:3628   */\n      swap1\n      pop\n        /* \"#utility.yul\":3465:3634   */\n      swap3\n      swap2\n      pop\n      pop\n      jump\t// out\n        /* \"#utility.yul\":3640:3883   */\n    tag_74:\n        /* \"#utility.yul\":3780:3814   */\n      0x4c61206d65736120656c6563746f72616c206465626520657374617220616269\n        /* \"#utility.yul\":3776:3777   */\n      0x00\n        /* \"#utility.yul\":3768:3774   */\n      dup3\n        /* \"#utility.yul\":3764:3778   */\n      add\n        /* \"#utility.yul\":3757:3815   */\n      mstore\n        /* \"#utility.yul\":3849:3875   */\n      0x65727461207061726120706f646572206365727261726c610000000000000000\n        /* \"#utility.yul\":3844:3846   */\n      0x20\n        /* \"#utility.yul\":3836:3842   */\n      dup3\n        /* \"#utility.yul\":3832:3847   */\n      add\n        /* \"#utility.yul\":3825:3876   */\n      mstore\n        /* \"#utility.yul\":3640:3883   */\n      pop\n      jump\t// out\n        /* \"#utility.yul\":3889:4255   */\n    tag_75:\n        /* \"#utility.yul\":4031:4034   */\n      0x00\n        /* \"#utility.yul\":4052:4119   */\n      tag_122\n        /* \"#utility.yul\":4116:4118   */\n      0x38\n        /* \"#utility.yul\":4111:4114   */\n      dup4\n        /* \"#utility.yul\":4052:4119   */\n      tag_73\n      jump\t// in\n    tag_122:\n        /* \"#utility.yul\":4045:4119   */\n      swap2\n      pop\n        /* \"#utility.yul\":4128:4221   */\n      tag_123\n        /* \"#utility.yul\":4217:4220   */\n      dup3\n        /* \"#utility.yul\":4128:4221   */\n      tag_74\n      jump\t// in\n    tag_123:\n        /* \"#utility.yul\":4246:4248   */\n      0x40\n        /* \"#utility.yul\":4241:4244   */\n      dup3\n        /* \"#utility.yul\":4237:4249   */\n      add\n        /* \"#utility.yul\":4230:4249   */\n      swap1\n      pop\n        /* \"#utility.yul\":3889:4255   */\n      swap2\n      swap1\n      pop\n      jump\t// out\n        /* \"#utility.yul\":4261:4680   */\n    tag_27:\n        /* \"#utility.yul\":4427:4431   */\n      0x00\n        /* \"#utility.yul\":4465:4467   */\n      0x20\n        /* \"#utility.yul\":4454:4463   */\n      dup3\n        /* \"#utility.yul\":4450:4468   */\n      add\n        /* \"#utility.yul\":4442:4468   */\n      swap1\n      pop\n        /* \"#utility.yul\":4514:4523   */\n      dup2\n        /* \"#utility.yul\":4508:4512   */\n      dup2\n        /* \"#utility.yul\":4504:4524   */\n      sub\n        /* \"#utility.yul\":4500:4501   */\n      0x00\n        /* \"#utility.yul\":4489:4498   */\n      dup4\n        /* \"#utility.yul\":4485:4502   */\n      add\n        /* \"#utility.yul\":4478:4525   */\n      mstore\n        /* \"#utility.yul\":4542:4673   */\n      tag_125\n        /* \"#utility.yul\":4668:4672   */\n      dup2\n        /* \"#utility.yul\":4542:4673   */\n      tag_75\n      jump\t// in\n    tag_125:\n        /* \"#utility.yul\":4534:4673   */\n      swap1\n      pop\n        /* \"#utility.yul\":4261:4680   */\n      swap2\n      swap1\n      pop\n      jump\t// out\n        /* \"#utility.yul\":4686:4927   */\n    tag_76:\n        /* \"#utility.yul\":4826:4860   */\n      0x4c6120766f746163696f6e206e6f206861207465726d696e61646f2061756e2e\n        /* \"#utility.yul\":4822:4823   */\n      0x00\n        /* \"#utility.yul\":4814:4820   */\n      dup3\n        /* \"#utility.yul\":4810:4824   */\n      add\n        /* \"#utility.yul\":4803:4861   */\n      mstore\n        /* \"#utility.yul\":4895:4919   */\n      0x20457370657265206120717565207465726d696e652e00000000000000000000\n        /* \"#utility.yul\":4890:4892   */\n      0x20\n        /* \"#utility.yul\":4882:4888   */\n      dup3\n        /* \"#utility.yul\":4878:4893   */\n      add\n        /* \"#utility.yul\":4871:4920   */\n      mstore\n        /* \"#utility.yul\":4686:4927   */\n      pop\n      jump\t// out\n        /* \"#utility.yul\":4933:5299   */\n    tag_77:\n        /* \"#utility.yul\":5075:5078   */\n      0x00\n        /* \"#utility.yul\":5096:5163   */\n      tag_128\n        /* \"#utility.yul\":5160:5162   */\n      0x36\n        /* \"#utility.yul\":5155:5158   */\n      dup4\n        /* \"#utility.yul\":5096:5163   */\n      tag_73\n      jump\t// in\n    tag_128:\n        /* \"#utility.yul\":5089:5163   */\n      swap2\n      pop\n        /* \"#utility.yul\":5172:5265   */\n      tag_129\n        /* \"#utility.yul\":5261:5264   */\n      dup3\n        /* \"#utility.yul\":5172:5265   */\n      tag_76\n      jump\t// in\n    tag_129:\n        /* \"#utility.yul\":5290:5292   */\n      0x40\n        /* \"#utility.yul\":5285:5288   */\n      dup3\n        /* \"#utility.yul\":5281:5293   */\n      add\n        /* \"#utility.yul\":5274:5293   */\n      swap1\n      pop\n        /* \"#utility.yul\":4933:5299   */\n      swap2\n      swap1\n      pop\n      jump\t// out\n        /* \"#utility.yul\":5305:5724   */\n    tag_34:\n        /* \"#utility.yul\":5471:5475   */\n      0x00\n        /* \"#utility.yul\":5509:5511   */\n      0x20\n        /* \"#utility.yul\":5498:5507   */\n      dup3\n        /* \"#utility.yul\":5494:5512   */\n      add\n        /* \"#utility.yul\":5486:5512   */\n      swap1\n      pop\n        /* \"#utility.yul\":5558:5567   */\n      dup2\n        /* \"#utility.yul\":5552:5556   */\n      dup2\n        /* \"#utility.yul\":5548:5568   */\n      sub\n        /* \"#utility.yul\":5544:5545   */\n      0x00\n        /* \"#utility.yul\":5533:5542   */\n      dup4\n        /* \"#utility.yul\":5529:5546   */\n      add\n        /* \"#utility.yul\":5522:5569   */\n      mstore\n        /* \"#utility.yul\":5586:5717   */\n      tag_131\n        /* \"#utility.yul\":5712:5716   */\n      dup2\n        /* \"#utility.yul\":5586:5717   */\n      tag_77\n      jump\t// in\n    tag_131:\n        /* \"#utility.yul\":5578:5717   */\n      swap1\n      pop\n        /* \"#utility.yul\":5305:5724   */\n      swap2\n      swap1\n      pop\n      jump\t// out\n        /* \"#utility.yul\":5730:5965   */\n    tag_78:\n        /* \"#utility.yul\":5870:5904   */\n      0x457374612066756e63696f6e20736f6c6f206465626520656a6563757461726c\n        /* \"#utility.yul\":5866:5867   */\n      0x00\n        /* \"#utility.yul\":5858:5864   */\n      dup3\n        /* \"#utility.yul\":5854:5868   */\n      add\n        /* \"#utility.yul\":5847:5905   */\n      mstore\n        /* \"#utility.yul\":5939:5957   */\n      0x6120656c20707265736964656e74652e00000000000000000000000000000000\n        /* \"#utility.yul\":5934:5936   */\n      0x20\n        /* \"#utility.yul\":5926:5932   */\n      dup3\n        /* \"#utility.yul\":5922:5937   */\n      add\n        /* \"#utility.yul\":5915:5958   */\n      mstore\n        /* \"#utility.yul\":5730:5965   */\n      pop\n      jump\t// out\n        /* \"#utility.yul\":5971:6337   */\n    tag_79:\n        /* \"#utility.yul\":6113:6116   */\n      0x00\n        /* \"#utility.yul\":6134:6201   */\n      tag_134\n        /* \"#utility.yul\":6198:6200   */\n      0x30\n        /* \"#utility.yul\":6193:6196   */\n      dup4\n        /* \"#utility.yul\":6134:6201   */\n      tag_73\n      jump\t// in\n    tag_134:\n        /* \"#utility.yul\":6127:6201   */\n      swap2\n      pop\n        /* \"#utility.yul\":6210:6303   */\n      tag_135\n        /* \"#utility.yul\":6299:6302   */\n      dup3\n        /* \"#utility.yul\":6210:6303   */\n      tag_78\n      jump\t// in\n    tag_135:\n        /* \"#utility.yul\":6328:6330   */\n      0x40\n        /* \"#utility.yul\":6323:6326   */\n      dup3\n        /* \"#utility.yul\":6319:6331   */\n      add\n        /* \"#utility.yul\":6312:6331   */\n      swap1\n      pop\n        /* \"#utility.yul\":5971:6337   */\n      swap2\n      swap1\n      pop\n      jump\t// out\n        /* \"#utility.yul\":6343:6762   */\n    tag_40:\n        /* \"#utility.yul\":6509:6513   */\n      0x00\n        /* \"#utility.yul\":6547:6549   */\n      0x20\n        /* \"#utility.yul\":6536:6545   */\n      dup3\n        /* \"#utility.yul\":6532:6550   */\n      add\n        /* \"#utility.yul\":6524:6550   */\n      swap1\n      pop\n        /* \"#utility.yul\":6596:6605   */\n      dup2\n        /* \"#utility.yul\":6590:6594   */\n      dup2\n        /* \"#utility.yul\":6586:6606   */\n      sub\n        /* \"#utility.yul\":6582:6583   */\n      0x00\n        /* \"#utility.yul\":6571:6580   */\n      dup4\n        /* \"#utility.yul\":6567:6584   */\n      add\n        /* \"#utility.yul\":6560:6607   */\n      mstore\n        /* \"#utility.yul\":6624:6755   */\n      tag_137\n        /* \"#utility.yul\":6750:6754   */\n      dup2\n        /* \"#utility.yul\":6624:6755   */\n      tag_79\n      jump\t// in\n    tag_137:\n        /* \"#utility.yul\":6616:6755   */\n      swap1\n      pop\n        /* \"#utility.yul\":6343:6762   */\n      swap2\n      swap1\n      pop\n      jump\t// out\n        /* \"#utility.yul\":6768:6948   */\n    tag_54:\n        /* \"#utility.yul\":6816:6893   */\n      0x4e487b7100000000000000000000000000000000000000000000000000000000\n        /* \"#utility.yul\":6813:6814   */\n      0x00\n        /* \"#utility.yul\":6806:6894   */\n      mstore\n        /* \"#utility.yul\":6913:6917   */\n      0x32\n        /* \"#utility.yul\":6910:6911   */\n      0x04\n        /* \"#utility.yul\":6903:6918   */\n      mstore\n        /* \"#utility.yul\":6937:6941   */\n      0x24\n        /* \"#utility.yul\":6934:6935   */\n      0x00\n        /* \"#utility.yul\":6927:6942   */\n      revert\n        /* \"#utility.yul\":6954:7134   */\n    tag_80:\n        /* \"#utility.yul\":7002:7079   */\n      0x4e487b7100000000000000000000000000000000000000000000000000000000\n        /* \"#utility.yul\":6999:7000   */\n      0x00\n        /* \"#utility.yul\":6992:7080   */\n      mstore\n        /* \"#utility.yul\":7099:7103   */\n      0x11\n        /* \"#utility.yul\":7096:7097   */\n      0x04\n        /* \"#utility.yul\":7089:7104   */\n      mstore\n        /* \"#utility.yul\":7123:7127   */\n      0x24\n        /* \"#utility.yul\":7120:7121   */\n      0x00\n        /* \"#utility.yul\":7113:7128   */\n      revert\n        /* \"#utility.yul\":7140:7331   */\n    tag_57:\n        /* \"#utility.yul\":7180:7183   */\n      0x00\n        /* \"#utility.yul\":7199:7219   */\n      tag_141\n        /* \"#utility.yul\":7217:7218   */\n      dup3\n        /* \"#utility.yul\":7199:7219   */\n      tag_61\n      jump\t// in\n    tag_141:\n        /* \"#utility.yul\":7194:7219   */\n      swap2\n      pop\n        /* \"#utility.yul\":7233:7253   */\n      tag_142\n        /* \"#utility.yul\":7251:7252   */\n      dup4\n        /* \"#utility.yul\":7233:7253   */\n      tag_61\n      jump\t// in\n    tag_142:\n        /* \"#utility.yul\":7228:7253   */\n      swap3\n      pop\n        /* \"#utility.yul\":7276:7277   */\n      dup3\n        /* \"#utility.yul\":7273:7274   */\n      dup3\n        /* \"#utility.yul\":7269:7278   */\n      add\n        /* \"#utility.yul\":7262:7278   */\n      swap1\n      pop\n        /* \"#utility.yul\":7297:7300   */\n      dup1\n        /* \"#utility.yul\":7294:7295   */\n      dup3\n        /* \"#utility.yul\":7291:7301   */\n      gt\n        /* \"#utility.yul\":7288:7324   */\n      iszero\n      tag_143\n      jumpi\n        /* \"#utility.yul\":7304:7322   */\n      tag_144\n      tag_80\n      jump\t// in\n    tag_144:\n        /* \"#utility.yul\":7288:7324   */\n    tag_143:\n        /* \"#utility.yul\":7140:7331   */\n      swap3\n      swap2\n      pop\n      pop\n      jump\t// out\n\n    auxdata: 0xa26469706673582212207c612cc87ecbe85b32d4da388140e52359e302fbdb75bb2aaeee29677e359da364736f6c634300081a0033\n}\n",
				"bytecode": {
					"linkReferences": {},
					"object": "608060405234801561000f575f80fd5b50604051610b68380380610b68833981810160405281019061003191906102d8565b828282806001819055508167ffffffffffffffff81111561005557610054610328565b5b6040519080825280602002602001820160405280156100835781602001602082028036833780820191505090505b50600290805190602001906100999291906101e1565b506100a861012760201b60201c565b505080600360026101000a81548173ffffffffffffffffffffffffffffffffffffffff021916908373ffffffffffffffffffffffffffffffffffffffff1602179055505f60035f6101000a81548160ff0219169083151502179055505f600360016101000a81548160ff02191690831515021790555050505050610355565b60015f80601c81526020019081526020015f208190555060015f80600881526020019081526020015f208190555060015f80602981526020019081526020015f208190555060055f80602c81526020019081526020015f208190555060055f80602a81526020019081526020015f208190555060045f80603181526020019081526020015f208190555060045f80600981526020019081526020015f208190555060025f80601d81526020019081526020015f2081905550565b828054828255905f5260205f2090810192821561021b579160200282015b8281111561021a5782518255916020019190600101906101ff565b5b509050610228919061022c565b5090565b5b80821115610243575f815f90555060010161022d565b5090565b5f80fd5b5f73ffffffffffffffffffffffffffffffffffffffff82169050919050565b5f6102748261024b565b9050919050565b6102848161026a565b811461028e575f80fd5b50565b5f8151905061029f8161027b565b92915050565b5f819050919050565b6102b7816102a5565b81146102c1575f80fd5b50565b5f815190506102d2816102ae565b92915050565b5f805f606084860312156102ef576102ee610247565b5b5f6102fc86828701610291565b935050602061030d868287016102c4565b925050604061031e868287016102c4565b9150509250925092565b7f4e487b71000000000000000000000000000000000000000000000000000000005f52604160045260245ffd5b610806806103625f395ff3fe608060405234801561000f575f80fd5b5060043610610055575f3560e01c80633eb76b9c146100595780634717f97c14610075578063789d9e8a14610093578063affc0670146100b1578063c631b292146100bb575b5f80fd5b610073600480360381019061006e9190610454565b6100c5565b005b61007d610128565b60405161008a9190610536565b60405180910390f35b61009b6101d3565b6040516100a89190610570565b60405180910390f35b6100b96101e5565b005b6100c3610292565b005b60011515600360019054906101000a900460ff1615151461011b576040517f08c379a000000000000000000000000000000000000000000000000000000000815260040161011290610609565b60405180910390fd5b610124816103ae565b5050565b60606001151560035f9054906101000a900460ff1615151461017f576040517f08c379a000000000000000000000000000000000000000000000000000000000815260040161017690610697565b60405180910390fd5b60028054806020026020016040519081016040528092919081815260200182805480156101c957602002820191905f5260205f20905b8154815260200190600101908083116101b5575b5050505050905090565b60035f9054906101000a900460ff1681565b3373ffffffffffffffffffffffffffffffffffffffff16600360029054906101000a900473ffffffffffffffffffffffffffffffffffffffff1673ffffffffffffffffffffffffffffffffffffffff1614610275576040517f08c379a000000000000000000000000000000000000000000000000000000000815260040161026c90610725565b60405180910390fd5b6001600360016101000a81548160ff021916908315150217905550565b3373ffffffffffffffffffffffffffffffffffffffff16600360029054906101000a900473ffffffffffffffffffffffffffffffffffffffff1673ffffffffffffffffffffffffffffffffffffffff1614610322576040517f08c379a000000000000000000000000000000000000000000000000000000000815260040161031990610725565b60405180910390fd5b60011515600360019054906101000a900460ff16151514610378576040517f08c379a000000000000000000000000000000000000000000000000000000000815260040161036f90610609565b60405180910390fd5b5f600360016101000a81548160ff021916908315150217905550600160035f6101000a81548160ff021916908315150217905550565b5f80821180156103c2575060028054905082105b15610414575f8060015481526020019081526020015f2054600283815481106103ee576103ed610743565b5b905f5260205f20015f828254610404919061079d565b9250508190555060019050610418565b5f90505b919050565b5f80fd5b5f819050919050565b61043381610421565b811461043d575f80fd5b50565b5f8135905061044e8161042a565b92915050565b5f602082840312156104695761046861041d565b5b5f61047684828501610440565b91505092915050565b5f81519050919050565b5f82825260208201905092915050565b5f819050602082019050919050565b6104b181610421565b82525050565b5f6104c283836104a8565b60208301905092915050565b5f602082019050919050565b5f6104e48261047f565b6104ee8185610489565b93506104f983610499565b805f5b8381101561052957815161051088826104b7565b975061051b836104ce565b9250506001810190506104fc565b5085935050505092915050565b5f6020820190508181035f83015261054e81846104da565b905092915050565b5f8115159050919050565b61056a81610556565b82525050565b5f6020820190506105835f830184610561565b92915050565b5f82825260208201905092915050565b7f4c61206d65736120656c6563746f72616c2064656265206573746172206162695f8201527f65727461207061726120706f646572206365727261726c610000000000000000602082015250565b5f6105f3603883610589565b91506105fe82610599565b604082019050919050565b5f6020820190508181035f830152610620816105e7565b9050919050565b7f4c6120766f746163696f6e206e6f206861207465726d696e61646f2061756e2e5f8201527f20457370657265206120717565207465726d696e652e00000000000000000000602082015250565b5f610681603683610589565b915061068c82610627565b604082019050919050565b5f6020820190508181035f8301526106ae81610675565b9050919050565b7f457374612066756e63696f6e20736f6c6f206465626520656a6563757461726c5f8201527f6120656c20707265736964656e74652e00000000000000000000000000000000602082015250565b5f61070f603083610589565b915061071a826106b5565b604082019050919050565b5f6020820190508181035f83015261073c81610703565b9050919050565b7f4e487b71000000000000000000000000000000000000000000000000000000005f52603260045260245ffd5b7f4e487b71000000000000000000000000000000000000000000000000000000005f52601160045260245ffd5b5f6107a782610421565b91506107b283610421565b92508282019050808211156107ca576107c9610770565b5b9291505056fea26469706673582212207c612cc87ecbe85b32d4da388140e52359e302fbdb75bb2aaeee29677e359da364736f6c634300081a0033",
					"opcodes": "PUSH1 0x80 PUSH1 0x40 MSTORE CALLVALUE DUP1 ISZERO PUSH2 0xF JUMPI PUSH0 DUP1 REVERT JUMPDEST POP PUSH1 0x40 MLOAD PUSH2 0xB68 CODESIZE SUB DUP1 PUSH2 0xB68 DUP4 CODECOPY DUP2 DUP2 ADD PUSH1 0x40 MSTORE DUP2 ADD SWAP1 PUSH2 0x31 SWAP2 SWAP1 PUSH2 0x2D8 JUMP JUMPDEST DUP3 DUP3 DUP3 DUP1 PUSH1 0x1 DUP2 SWAP1 SSTORE POP DUP2 PUSH8 0xFFFFFFFFFFFFFFFF DUP2 GT ISZERO PUSH2 0x55 JUMPI PUSH2 0x54 PUSH2 0x328 JUMP JUMPDEST JUMPDEST PUSH1 0x40 MLOAD SWAP1 DUP1 DUP3 MSTORE DUP1 PUSH1 0x20 MUL PUSH1 0x20 ADD DUP3 ADD PUSH1 0x40 MSTORE DUP1 ISZERO PUSH2 0x83 JUMPI DUP2 PUSH1 0x20 ADD PUSH1 0x20 DUP3 MUL DUP1 CALLDATASIZE DUP4 CALLDATACOPY DUP1 DUP3 ADD SWAP2 POP POP SWAP1 POP JUMPDEST POP PUSH1 0x2 SWAP1 DUP1 MLOAD SWAP1 PUSH1 0x20 ADD SWAP1 PUSH2 0x99 SWAP3 SWAP2 SWAP1 PUSH2 0x1E1 JUMP JUMPDEST POP PUSH2 0xA8 PUSH2 0x127 PUSH1 0x20 SHL PUSH1 0x20 SHR JUMP JUMPDEST POP POP DUP1 PUSH1 0x3 PUSH1 0x2 PUSH2 0x100 EXP DUP2 SLOAD DUP2 PUSH20 0xFFFFFFFFFFFFFFFFFFFFFFFFFFFFFFFFFFFFFFFF MUL NOT AND SWAP1 DUP4 PUSH20 0xFFFFFFFFFFFFFFFFFFFFFFFFFFFFFFFFFFFFFFFF AND MUL OR SWAP1 SSTORE POP PUSH0 PUSH1 0x3 PUSH0 PUSH2 0x100 EXP DUP2 SLOAD DUP2 PUSH1 0xFF MUL NOT AND SWAP1 DUP4 ISZERO ISZERO MUL OR SWAP1 SSTORE POP PUSH0 PUSH1 0x3 PUSH1 0x1 PUSH2 0x100 EXP DUP2 SLOAD DUP2 PUSH1 0xFF MUL NOT AND SWAP1 DUP4 ISZERO ISZERO MUL OR SWAP1 SSTORE POP POP POP POP POP PUSH2 0x355 JUMP JUMPDEST PUSH1 0x1 PUSH0 DUP1 PUSH1 0x1C DUP2 MSTORE PUSH1 0x20 ADD SWAP1 DUP2 MSTORE PUSH1 0x20 ADD PUSH0 KECCAK256 DUP2 SWAP1 SSTORE POP PUSH1 0x1 PUSH0 DUP1 PUSH1 0x8 DUP2 MSTORE PUSH1 0x20 ADD SWAP1 DUP2 MSTORE PUSH1 0x20 ADD PUSH0 KECCAK256 DUP2 SWAP1 SSTORE POP PUSH1 0x1 PUSH0 DUP1 PUSH1 0x29 DUP2 MSTORE PUSH1 0x20 ADD SWAP1 DUP2 MSTORE PUSH1 0x20 ADD PUSH0 KECCAK256 DUP2 SWAP1 SSTORE POP PUSH1 0x5 PUSH0 DUP1 PUSH1 0x2C DUP2 MSTORE PUSH1 0x20 ADD SWAP1 DUP2 MSTORE PUSH1 0x20 ADD PUSH0 KECCAK256 DUP2 SWAP1 SSTORE POP PUSH1 0x5 PUSH0 DUP1 PUSH1 0x2A DUP2 MSTORE PUSH1 0x20 ADD SWAP1 DUP2 MSTORE PUSH1 0x20 ADD PUSH0 KECCAK256 DUP2 SWAP1 SSTORE POP PUSH1 0x4 PUSH0 DUP1 PUSH1 0x31 DUP2 MSTORE PUSH1 0x20 ADD SWAP1 DUP2 MSTORE PUSH1 0x20 ADD PUSH0 KECCAK256 DUP2 SWAP1 SSTORE POP PUSH1 0x4 PUSH0 DUP1 PUSH1 0x9 DUP2 MSTORE PUSH1 0x20 ADD SWAP1 DUP2 MSTORE PUSH1 0x20 ADD PUSH0 KECCAK256 DUP2 SWAP1 SSTORE POP PUSH1 0x2 PUSH0 DUP1 PUSH1 0x1D DUP2 MSTORE PUSH1 0x20 ADD SWAP1 DUP2 MSTORE PUSH1 0x20 ADD PUSH0 KECCAK256 DUP2 SWAP1 SSTORE POP JUMP JUMPDEST DUP3 DUP1 SLOAD DUP3 DUP3 SSTORE SWAP1 PUSH0 MSTORE PUSH1 0x20 PUSH0 KECCAK256 SWAP1 DUP2 ADD SWAP3 DUP3 ISZERO PUSH2 0x21B JUMPI SWAP2 PUSH1 0x20 MUL DUP3 ADD JUMPDEST DUP3 DUP2 GT ISZERO PUSH2 0x21A JUMPI DUP3 MLOAD DUP3 SSTORE SWAP2 PUSH1 0x20 ADD SWAP2 SWAP1 PUSH1 0x1 ADD SWAP1 PUSH2 0x1FF JUMP JUMPDEST JUMPDEST POP SWAP1 POP PUSH2 0x228 SWAP2 SWAP1 PUSH2 0x22C JUMP JUMPDEST POP SWAP1 JUMP JUMPDEST JUMPDEST DUP1 DUP3 GT ISZERO PUSH2 0x243 JUMPI PUSH0 DUP2 PUSH0 SWAP1 SSTORE POP PUSH1 0x1 ADD PUSH2 0x22D JUMP JUMPDEST POP SWAP1 JUMP JUMPDEST PUSH0 DUP1 REVERT JUMPDEST PUSH0 PUSH20 0xFFFFFFFFFFFFFFFFFFFFFFFFFFFFFFFFFFFFFFFF DUP3 AND SWAP1 POP SWAP2 SWAP1 POP JUMP JUMPDEST PUSH0 PUSH2 0x274 DUP3 PUSH2 0x24B JUMP JUMPDEST SWAP1 POP SWAP2 SWAP1 POP JUMP JUMPDEST PUSH2 0x284 DUP2 PUSH2 0x26A JUMP JUMPDEST DUP2 EQ PUSH2 0x28E JUMPI PUSH0 DUP1 REVERT JUMPDEST POP JUMP JUMPDEST PUSH0 DUP2 MLOAD SWAP1 POP PUSH2 0x29F DUP2 PUSH2 0x27B JUMP JUMPDEST SWAP3 SWAP2 POP POP JUMP JUMPDEST PUSH0 DUP2 SWAP1 POP SWAP2 SWAP1 POP JUMP JUMPDEST PUSH2 0x2B7 DUP2 PUSH2 0x2A5 JUMP JUMPDEST DUP2 EQ PUSH2 0x2C1 JUMPI PUSH0 DUP1 REVERT JUMPDEST POP JUMP JUMPDEST PUSH0 DUP2 MLOAD SWAP1 POP PUSH2 0x2D2 DUP2 PUSH2 0x2AE JUMP JUMPDEST SWAP3 SWAP2 POP POP JUMP JUMPDEST PUSH0 DUP1 PUSH0 PUSH1 0x60 DUP5 DUP7 SUB SLT ISZERO PUSH2 0x2EF JUMPI PUSH2 0x2EE PUSH2 0x247 JUMP JUMPDEST JUMPDEST PUSH0 PUSH2 0x2FC DUP7 DUP3 DUP8 ADD PUSH2 0x291 JUMP JUMPDEST SWAP4 POP POP PUSH1 0x20 PUSH2 0x30D DUP7 DUP3 DUP8 ADD PUSH2 0x2C4 JUMP JUMPDEST SWAP3 POP POP PUSH1 0x40 PUSH2 0x31E DUP7 DUP3 DUP8 ADD PUSH2 0x2C4 JUMP JUMPDEST SWAP2 POP POP SWAP3 POP SWAP3 POP SWAP3 JUMP JUMPDEST PUSH32 0x4E487B7100000000000000000000000000000000000000000000000000000000 PUSH0 MSTORE PUSH1 0x41 PUSH1 0x4 MSTORE PUSH1 0x24 PUSH0 REVERT JUMPDEST PUSH2 0x806 DUP1 PUSH2 0x362 PUSH0 CODECOPY PUSH0 RETURN INVALID PUSH1 0x80 PUSH1 0x40 MSTORE CALLVALUE DUP1 ISZERO PUSH2 0xF JUMPI PUSH0 DUP1 REVERT JUMPDEST POP PUSH1 0x4 CALLDATASIZE LT PUSH2 0x55 JUMPI PUSH0 CALLDATALOAD PUSH1 0xE0 SHR DUP1 PUSH4 0x3EB76B9C EQ PUSH2 0x59 JUMPI DUP1 PUSH4 0x4717F97C EQ PUSH2 0x75 JUMPI DUP1 PUSH4 0x789D9E8A EQ PUSH2 0x93 JUMPI DUP1 PUSH4 0xAFFC0670 EQ PUSH2 0xB1 JUMPI DUP1 PUSH4 0xC631B292 EQ PUSH2 0xBB JUMPI JUMPDEST PUSH0 DUP1 REVERT JUMPDEST PUSH2 0x73 PUSH1 0x4 DUP1 CALLDATASIZE SUB DUP2 ADD SWAP1 PUSH2 0x6E SWAP2 SWAP1 PUSH2 0x454 JUMP JUMPDEST PUSH2 0xC5 JUMP JUMPDEST STOP JUMPDEST PUSH2 0x7D PUSH2 0x128 JUMP JUMPDEST PUSH1 0x40 MLOAD PUSH2 0x8A SWAP2 SWAP1 PUSH2 0x536 JUMP JUMPDEST PUSH1 0x40 MLOAD DUP1 SWAP2 SUB SWAP1 RETURN JUMPDEST PUSH2 0x9B PUSH2 0x1D3 JUMP JUMPDEST PUSH1 0x40 MLOAD PUSH2 0xA8 SWAP2 SWAP1 PUSH2 0x570 JUMP JUMPDEST PUSH1 0x40 MLOAD DUP1 SWAP2 SUB SWAP1 RETURN JUMPDEST PUSH2 0xB9 PUSH2 0x1E5 JUMP JUMPDEST STOP JUMPDEST PUSH2 0xC3 PUSH2 0x292 JUMP JUMPDEST STOP JUMPDEST PUSH1 0x1 ISZERO ISZERO PUSH1 0x3 PUSH1 0x1 SWAP1 SLOAD SWAP1 PUSH2 0x100 EXP SWAP1 DIV PUSH1 0xFF AND ISZERO ISZERO EQ PUSH2 0x11B JUMPI PUSH1 0x40 MLOAD PUSH32 0x8C379A000000000000000000000000000000000000000000000000000000000 DUP2 MSTORE PUSH1 0x4 ADD PUSH2 0x112 SWAP1 PUSH2 0x609 JUMP JUMPDEST PUSH1 0x40 MLOAD DUP1 SWAP2 SUB SWAP1 REVERT JUMPDEST PUSH2 0x124 DUP2 PUSH2 0x3AE JUMP JUMPDEST POP POP JUMP JUMPDEST PUSH1 0x60 PUSH1 0x1 ISZERO ISZERO PUSH1 0x3 PUSH0 SWAP1 SLOAD SWAP1 PUSH2 0x100 EXP SWAP1 DIV PUSH1 0xFF AND ISZERO ISZERO EQ PUSH2 0x17F JUMPI PUSH1 0x40 MLOAD PUSH32 0x8C379A000000000000000000000000000000000000000000000000000000000 DUP2 MSTORE PUSH1 0x4 ADD PUSH2 0x176 SWAP1 PUSH2 0x697 JUMP JUMPDEST PUSH1 0x40 MLOAD DUP1 SWAP2 SUB SWAP1 REVERT JUMPDEST PUSH1 0x2 DUP1 SLOAD DUP1 PUSH1 0x20 MUL PUSH1 0x20 ADD PUSH1 0x40 MLOAD SWAP1 DUP2 ADD PUSH1 0x40 MSTORE DUP1 SWAP3 SWAP2 SWAP1 DUP2 DUP2 MSTORE PUSH1 0x20 ADD DUP3 DUP1 SLOAD DUP1 ISZERO PUSH2 0x1C9 JUMPI PUSH1 0x20 MUL DUP3 ADD SWAP2 SWAP1 PUSH0 MSTORE PUSH1 0x20 PUSH0 KECCAK256 SWAP1 JUMPDEST DUP2 SLOAD DUP2 MSTORE PUSH1 0x20 ADD SWAP1 PUSH1 0x1 ADD SWAP1 DUP1 DUP4 GT PUSH2 0x1B5 JUMPI JUMPDEST POP POP POP POP POP SWAP1 POP SWAP1 JUMP JUMPDEST PUSH1 0x3 PUSH0 SWAP1 SLOAD SWAP1 PUSH2 0x100 EXP SWAP1 DIV PUSH1 0xFF AND DUP2 JUMP JUMPDEST CALLER PUSH20 0xFFFFFFFFFFFFFFFFFFFFFFFFFFFFFFFFFFFFFFFF AND PUSH1 0x3 PUSH1 0x2 SWAP1 SLOAD SWAP1 PUSH2 0x100 EXP SWAP1 DIV PUSH20 0xFFFFFFFFFFFFFFFFFFFFFFFFFFFFFFFFFFFFFFFF AND PUSH20 0xFFFFFFFFFFFFFFFFFFFFFFFFFFFFFFFFFFFFFFFF AND EQ PUSH2 0x275 JUMPI PUSH1 0x40 MLOAD PUSH32 0x8C379A000000000000000000000000000000000000000000000000000000000 DUP2 MSTORE PUSH1 0x4 ADD PUSH2 0x26C SWAP1 PUSH2 0x725 JUMP JUMPDEST PUSH1 0x40 MLOAD DUP1 SWAP2 SUB SWAP1 REVERT JUMPDEST PUSH1 0x1 PUSH1 0x3 PUSH1 0x1 PUSH2 0x100 EXP DUP2 SLOAD DUP2 PUSH1 0xFF MUL NOT AND SWAP1 DUP4 ISZERO ISZERO MUL OR SWAP1 SSTORE POP JUMP JUMPDEST CALLER PUSH20 0xFFFFFFFFFFFFFFFFFFFFFFFFFFFFFFFFFFFFFFFF AND PUSH1 0x3 PUSH1 0x2 SWAP1 SLOAD SWAP1 PUSH2 0x100 EXP SWAP1 DIV PUSH20 0xFFFFFFFFFFFFFFFFFFFFFFFFFFFFFFFFFFFFFFFF AND PUSH20 0xFFFFFFFFFFFFFFFFFFFFFFFFFFFFFFFFFFFFFFFF AND EQ PUSH2 0x322 JUMPI PUSH1 0x40 MLOAD PUSH32 0x8C379A000000000000000000000000000000000000000000000000000000000 DUP2 MSTORE PUSH1 0x4 ADD PUSH2 0x319 SWAP1 PUSH2 0x725 JUMP JUMPDEST PUSH1 0x40 MLOAD DUP1 SWAP2 SUB SWAP1 REVERT JUMPDEST PUSH1 0x1 ISZERO ISZERO PUSH1 0x3 PUSH1 0x1 SWAP1 SLOAD SWAP1 PUSH2 0x100 EXP SWAP1 DIV PUSH1 0xFF AND ISZERO ISZERO EQ PUSH2 0x378 JUMPI PUSH1 0x40 MLOAD PUSH32 0x8C379A000000000000000000000000000000000000000000000000000000000 DUP2 MSTORE PUSH1 0x4 ADD PUSH2 0x36F SWAP1 PUSH2 0x609 JUMP JUMPDEST PUSH1 0x40 MLOAD DUP1 SWAP2 SUB SWAP1 REVERT JUMPDEST PUSH0 PUSH1 0x3 PUSH1 0x1 PUSH2 0x100 EXP DUP2 SLOAD DUP2 PUSH1 0xFF MUL NOT AND SWAP1 DUP4 ISZERO ISZERO MUL OR SWAP1 SSTORE POP PUSH1 0x1 PUSH1 0x3 PUSH0 PUSH2 0x100 EXP DUP2 SLOAD DUP2 PUSH1 0xFF MUL NOT AND SWAP1 DUP4 ISZERO ISZERO MUL OR SWAP1 SSTORE POP JUMP JUMPDEST PUSH0 DUP1 DUP3 GT DUP1 ISZERO PUSH2 0x3C2 JUMPI POP PUSH1 0x2 DUP1 SLOAD SWAP1 POP DUP3 LT JUMPDEST ISZERO PUSH2 0x414 JUMPI PUSH0 DUP1 PUSH1 0x1 SLOAD DUP2 MSTORE PUSH1 0x20 ADD SWAP1 DUP2 MSTORE PUSH1 0x20 ADD PUSH0 KECCAK256 SLOAD PUSH1 0x2 DUP4 DUP2 SLOAD DUP2 LT PUSH2 0x3EE JUMPI PUSH2 0x3ED PUSH2 0x743 JUMP JUMPDEST JUMPDEST SWAP1 PUSH0 MSTORE PUSH1 0x20 PUSH0 KECCAK256 ADD PUSH0 DUP3 DUP3 SLOAD PUSH2 0x404 SWAP2 SWAP1 PUSH2 0x79D JUMP JUMPDEST SWAP3 POP POP DUP2 SWAP1 SSTORE POP PUSH1 0x1 SWAP1 POP PUSH2 0x418 JUMP JUMPDEST PUSH0 SWAP1 POP JUMPDEST SWAP2 SWAP1 POP JUMP JUMPDEST PUSH0 DUP1 REVERT JUMPDEST PUSH0 DUP2 SWAP1 POP SWAP2 SWAP1 POP JUMP JUMPDEST PUSH2 0x433 DUP2 PUSH2 0x421 JUMP JUMPDEST DUP2 EQ PUSH2 0x43D JUMPI PUSH0 DUP1 REVERT JUMPDEST POP JUMP JUMPDEST PUSH0 DUP2 CALLDATALOAD SWAP1 POP PUSH2 0x44E DUP2 PUSH2 0x42A JUMP JUMPDEST SWAP3 SWAP2 POP POP JUMP JUMPDEST PUSH0 PUSH1 0x20 DUP3 DUP5 SUB SLT ISZERO PUSH2 0x469 JUMPI PUSH2 0x468 PUSH2 0x41D JUMP JUMPDEST JUMPDEST PUSH0 PUSH2 0x476 DUP5 DUP3 DUP6 ADD PUSH2 0x440 JUMP JUMPDEST SWAP2 POP POP SWAP3 SWAP2 POP POP JUMP JUMPDEST PUSH0 DUP2 MLOAD SWAP1 POP SWAP2 SWAP1 POP JUMP JUMPDEST PUSH0 DUP3 DUP3 MSTORE PUSH1 0x20 DUP3 ADD SWAP1 POP SWAP3 SWAP2 POP POP JUMP JUMPDEST PUSH0 DUP2 SWAP1 POP PUSH1 0x20 DUP3 ADD SWAP1 POP SWAP2 SWAP1 POP JUMP JUMPDEST PUSH2 0x4B1 DUP2 PUSH2 0x421 JUMP JUMPDEST DUP3 MSTORE POP POP JUMP JUMPDEST PUSH0 PUSH2 0x4C2 DUP4 DUP4 PUSH2 0x4A8 JUMP JUMPDEST PUSH1 0x20 DUP4 ADD SWAP1 POP SWAP3 SWAP2 POP POP JUMP JUMPDEST PUSH0 PUSH1 0x20 DUP3 ADD SWAP1 POP SWAP2 SWAP1 POP JUMP JUMPDEST PUSH0 PUSH2 0x4E4 DUP3 PUSH2 0x47F JUMP JUMPDEST PUSH2 0x4EE DUP2 DUP6 PUSH2 0x489 JUMP JUMPDEST SWAP4 POP PUSH2 0x4F9 DUP4 PUSH2 0x499 JUMP JUMPDEST DUP1 PUSH0 JUMPDEST DUP4 DUP2 LT ISZERO PUSH2 0x529 JUMPI DUP2 MLOAD PUSH2 0x510 DUP9 DUP3 PUSH2 0x4B7 JUMP JUMPDEST SWAP8 POP PUSH2 0x51B DUP4 PUSH2 0x4CE JUMP JUMPDEST SWAP3 POP POP PUSH1 0x1 DUP2 ADD SWAP1 POP PUSH2 0x4FC JUMP JUMPDEST POP DUP6 SWAP4 POP POP POP POP SWAP3 SWAP2 POP POP JUMP JUMPDEST PUSH0 PUSH1 0x20 DUP3 ADD SWAP1 POP DUP2 DUP2 SUB PUSH0 DUP4 ADD MSTORE PUSH2 0x54E DUP2 DUP5 PUSH2 0x4DA JUMP JUMPDEST SWAP1 POP SWAP3 SWAP2 POP POP JUMP JUMPDEST PUSH0 DUP2 ISZERO ISZERO SWAP1 POP SWAP2 SWAP1 POP JUMP JUMPDEST PUSH2 0x56A DUP2 PUSH2 0x556 JUMP JUMPDEST DUP3 MSTORE POP POP JUMP JUMPDEST PUSH0 PUSH1 0x20 DUP3 ADD SWAP1 POP PUSH2 0x583 PUSH0 DUP4 ADD DUP5 PUSH2 0x561 JUMP JUMPDEST SWAP3 SWAP2 POP POP JUMP JUMPDEST PUSH0 DUP3 DUP3 MSTORE PUSH1 0x20 DUP3 ADD SWAP1 POP SWAP3 SWAP2 POP POP JUMP JUMPDEST PUSH32 0x4C61206D65736120656C6563746F72616C206465626520657374617220616269 PUSH0 DUP3 ADD MSTORE PUSH32 0x65727461207061726120706F646572206365727261726C610000000000000000 PUSH1 0x20 DUP3 ADD MSTORE POP JUMP JUMPDEST PUSH0 PUSH2 0x5F3 PUSH1 0x38 DUP4 PUSH2 0x589 JUMP JUMPDEST SWAP2 POP PUSH2 0x5FE DUP3 PUSH2 0x599 JUMP JUMPDEST PUSH1 0x40 DUP3 ADD SWAP1 POP SWAP2 SWAP1 POP JUMP JUMPDEST PUSH0 PUSH1 0x20 DUP3 ADD SWAP1 POP DUP2 DUP2 SUB PUSH0 DUP4 ADD MSTORE PUSH2 0x620 DUP2 PUSH2 0x5E7 JUMP JUMPDEST SWAP1 POP SWAP2 SWAP1 POP JUMP JUMPDEST PUSH32 0x4C6120766F746163696F6E206E6F206861207465726D696E61646F2061756E2E PUSH0 DUP3 ADD MSTORE PUSH32 0x20457370657265206120717565207465726D696E652E00000000000000000000 PUSH1 0x20 DUP3 ADD MSTORE POP JUMP JUMPDEST PUSH0 PUSH2 0x681 PUSH1 0x36 DUP4 PUSH2 0x589 JUMP JUMPDEST SWAP2 POP PUSH2 0x68C DUP3 PUSH2 0x627 JUMP JUMPDEST PUSH1 0x40 DUP3 ADD SWAP1 POP SWAP2 SWAP1 POP JUMP JUMPDEST PUSH0 PUSH1 0x20 DUP3 ADD SWAP1 POP DUP2 DUP2 SUB PUSH0 DUP4 ADD MSTORE PUSH2 0x6AE DUP2 PUSH2 0x675 JUMP JUMPDEST SWAP1 POP SWAP2 SWAP1 POP JUMP JUMPDEST PUSH32 0x457374612066756E63696F6E20736F6C6F206465626520656A6563757461726C PUSH0 DUP3 ADD MSTORE PUSH32 0x6120656C20707265736964656E74652E00000000000000000000000000000000 PUSH1 0x20 DUP3 ADD MSTORE POP JUMP JUMPDEST PUSH0 PUSH2 0x70F PUSH1 0x30 DUP4 PUSH2 0x589 JUMP JUMPDEST SWAP2 POP PUSH2 0x71A DUP3 PUSH2 0x6B5 JUMP JUMPDEST PUSH1 0x40 DUP3 ADD SWAP1 POP SWAP2 SWAP1 POP JUMP JUMPDEST PUSH0 PUSH1 0x20 DUP3 ADD SWAP1 POP DUP2 DUP2 SUB PUSH0 DUP4 ADD MSTORE PUSH2 0x73C DUP2 PUSH2 0x703 JUMP JUMPDEST SWAP1 POP SWAP2 SWAP1 POP JUMP JUMPDEST PUSH32 0x4E487B7100000000000000000000000000000000000000000000000000000000 PUSH0 MSTORE PUSH1 0x32 PUSH1 0x4 MSTORE PUSH1 0x24 PUSH0 REVERT JUMPDEST PUSH32 0x4E487B7100000000000000000000000000000000000000000000000000000000 PUSH0 MSTORE PUSH1 0x11 PUSH1 0x4 MSTORE PUSH1 0x24 PUSH0 REVERT JUMPDEST PUSH0 PUSH2 0x7A7 DUP3 PUSH2 0x421 JUMP JUMPDEST SWAP2 POP PUSH2 0x7B2 DUP4 PUSH2 0x421 JUMP JUMPDEST SWAP3 POP DUP3 DUP3 ADD SWAP1 POP DUP1 DUP3 GT ISZERO PUSH2 0x7CA JUMPI PUSH2 0x7C9 PUSH2 0x770 JUMP JUMPDEST JUMPDEST SWAP3 SWAP2 POP POP JUMP INVALID LOG2 PUSH5 0x6970667358 0x22 SLT KECCAK256 PUSH29 0x612CC87ECBE85B32D4DA388140E52359E302FBDB75BB2AAEEE29677E35 SWAP14 LOG3 PUSH5 0x736F6C6343 STOP ADDMOD BYTE STOP CALLER "
				},
				"gasEstimates": {
					"creation": {
						"codeDepositCost": "410800",
						"executionCost": "infinite",
						"totalCost": "infinite"
					},
					"external": {
						"castVote(uint256)": "infinite",
						"closeVoting()": "53232",
						"getResults()": "infinite",
						"openVoting()": "26724",
						"votingFinished()": "2488"
					}
				},
				"methodIdentifiers": {
					"castVote(uint256)": "3eb76b9c",
					"closeVoting()": "c631b292",
					"getResults()": "4717f97c",
					"openVoting()": "affc0670",
					"votingFinished()": "789d9e8a"
				}
			},
			"storageLayout": {
				"storage": [
					{
						"astId": 5,
						"contract": "PRACTICA 4/practica4.sol:DhondtPollingStation",
						"label": "weights",
						"offset": 0,
						"slot": "0",
						"type": "t_mapping(t_uint256,t_uint256)"
					},
					{
						"astId": 7,
						"contract": "PRACTICA 4/practica4.sol:DhondtPollingStation",
						"label": "regionId",
						"offset": 0,
						"slot": "1",
						"type": "t_uint256"
					},
					{
						"astId": 10,
						"contract": "PRACTICA 4/practica4.sol:DhondtPollingStation",
						"label": "results",
						"offset": 0,
						"slot": "2",
						"type": "t_array(t_uint256)dyn_storage"
					},
					{
						"astId": 139,
						"contract": "PRACTICA 4/practica4.sol:DhondtPollingStation",
						"label": "votingFinished",
						"offset": 0,
						"slot": "3",
						"type": "t_bool"
					},
					{
						"astId": 141,
						"contract": "PRACTICA 4/practica4.sol:DhondtPollingStation",
						"label": "votingOpen",
						"offset": 1,
						"slot": "3",
						"type": "t_bool"
					},
					{
						"astId": 143,
						"contract": "PRACTICA 4/practica4.sol:DhondtPollingStation",
						"label": "president",
						"offset": 2,
						"slot": "3",
						"type": "t_address"
					}
				],
				"types": {
					"t_address": {
						"encoding": "inplace",
						"label": "address",
						"numberOfBytes": "20"
					},
					"t_array(t_uint256)dyn_storage": {
						"base": "t_uint256",
						"encoding": "dynamic_array",
						"label": "uint256[]",
						"numberOfBytes": "32"
					},
					"t_bool": {
						"encoding": "inplace",
						"label": "bool",
						"numberOfBytes": "1"
					},
					"t_mapping(t_uint256,t_uint256)": {
						"encoding": "mapping",
						"key": "t_uint256",
						"label": "mapping(uint256 => uint256)",
						"numberOfBytes": "32",
						"value": "t_uint256"
					},
					"t_uint256": {
						"encoding": "inplace",
						"label": "uint256",
						"numberOfBytes": "32"
					}
				}
			},
			"userdoc": {
				"kind": "user",
				"methods": {},
				"version": 1
			}
		}
	}
}