{
	"data": {
		"bytecode": {
			"linkReferences": {},
			"object": "60806040525f8060146101000a81548160ff021916908315150217905550348015610028575f80fd5b50604051610ef3380380610ef3833981810160405281019061004a91906100e3565b335f806101000a81548173ffffffffffffffffffffffffffffffffffffffff021916908373ffffffffffffffffffffffffffffffffffffffff160217905550805f60156101000a81548160ff021916908360ff1602179055505061010e565b5f80fd5b5f60ff82169050919050565b6100c2816100ad565b81146100cc575f80fd5b50565b5f815190506100dd816100b9565b92915050565b5f602082840312156100f8576100f76100a9565b5b5f610105848285016100cf565b91505092915050565b610dd88061011b5f395ff3fe60806040526004361061007a575f3560e01c80638da5cb5b1161004d5780638da5cb5b146101345780639003adfe1461015e578063c879657214610188578063d0e30db01461019e5761007a565b80632e1a7d4d1461007e5780635e5c06e2146100a657806370a08231146100e2578063853828b61461011e575b5f80fd5b348015610089575f80fd5b506100a4600480360381019061009f9190610822565b6101a8565b005b3480156100b1575f80fd5b506100cc60048036038101906100c791906108a7565b610327565b6040516100d991906108e1565b60405180910390f35b3480156100ed575f80fd5b50610108600480360381019061010391906108a7565b61033c565b60405161011591906108e1565b60405180910390f35b348015610129575f80fd5b50610132610382565b005b34801561013f575f80fd5b50610148610533565b6040516101559190610909565b60405180910390f35b348015610169575f80fd5b50610172610556565b60405161017f91906108e1565b60405180910390f35b348015610193575f80fd5b5061019c61055c565b005b6101a6610701565b005b8060025f3373ffffffffffffffffffffffffffffffffffffffff1673ffffffffffffffffffffffffffffffffffffffff1681526020019081526020015f20541015610228576040517f08c379a000000000000000000000000000000000000000000000000000000000815260040161021f9061097c565b60405180910390fd5b8060025f3373ffffffffffffffffffffffffffffffffffffffff1673ffffffffffffffffffffffffffffffffffffffff1681526020019081526020015f205f82825461027491906109c7565b925050819055505f3373ffffffffffffffffffffffffffffffffffffffff16826040516102a090610a27565b5f6040518083038185875af1925050503d805f81146102da576040519150601f19603f3d011682016040523d82523d5f602084013e6102df565b606091505b5050905080610323576040517f08c379a000000000000000000000000000000000000000000000000000000000815260040161031a90610a85565b60405180910390fd5b5050565b6002602052805f5260405f205f915090505481565b5f60025f8373ffffffffffffffffffffffffffffffffffffffff1673ffffffffffffffffffffffffffffffffffffffff1681526020019081526020015f20549050919050565b5f60149054906101000a900460ff16156103d1576040517f08c379a00000000000000000000000000000000000000000000000000000000081526004016103c890610b13565b60405180910390fd5b5f60025f3373ffffffffffffffffffffffffffffffffffffffff1673ffffffffffffffffffffffffffffffffffffffff1681526020019081526020015f205490505f8111610454576040517f08c379a000000000000000000000000000000000000000000000000000000000815260040161044b9061097c565b60405180910390fd5b60015f60146101000a81548160ff0219169083151502179055505f3373ffffffffffffffffffffffffffffffffffffffff168260405161049390610a27565b5f6040518083038185875af1925050503d805f81146104cd576040519150601f19603f3d011682016040523d82523d5f602084013e6104d2565b606091505b505090505f8060146101000a81548160ff0219169083151502179055508061052f576040517f08c379a000000000000000000000000000000000000000000000000000000000815260040161052690610a85565b60405180910390fd5b5050565b5f8054906101000a900473ffffffffffffffffffffffffffffffffffffffff1681565b60015481565b5f8054906101000a900473ffffffffffffffffffffffffffffffffffffffff1673ffffffffffffffffffffffffffffffffffffffff163373ffffffffffffffffffffffffffffffffffffffff16146105e9576040517f08c379a00000000000000000000000000000000000000000000000000000000081526004016105e090610b7b565b60405180910390fd5b5f6001541161062d576040517f08c379a000000000000000000000000000000000000000000000000000000000815260040161062490610be3565b60405180910390fd5b5f805f9054906101000a900473ffffffffffffffffffffffffffffffffffffffff1673ffffffffffffffffffffffffffffffffffffffff1660015460405161067490610a27565b5f6040518083038185875af1925050503d805f81146106ae576040519150601f19603f3d011682016040523d82523d5f602084013e6106b3565b606091505b50509050806106f7576040517f08c379a00000000000000000000000000000000000000000000000000000000081526004016106ee90610c4b565b60405180910390fd5b5f60018190555050565b6064341015610745576040517f08c379a000000000000000000000000000000000000000000000000000000000815260040161073c90610cb3565b60405180910390fd5b5f6127105f60159054906101000a900460ff1660ff16346107669190610cd1565b6107709190610d3f565b9050803461077e91906109c7565b60025f3373ffffffffffffffffffffffffffffffffffffffff1673ffffffffffffffffffffffffffffffffffffffff1681526020019081526020015f205f8282546107c99190610d6f565b925050819055508060015f8282546107e19190610d6f565b9250508190555050565b5f80fd5b5f819050919050565b610801816107ef565b811461080b575f80fd5b50565b5f8135905061081c816107f8565b92915050565b5f60208284031215610837576108366107eb565b5b5f6108448482850161080e565b91505092915050565b5f73ffffffffffffffffffffffffffffffffffffffff82169050919050565b5f6108768261084d565b9050919050565b6108868161086c565b8114610890575f80fd5b50565b5f813590506108a18161087d565b92915050565b5f602082840312156108bc576108bb6107eb565b5b5f6108c984828501610893565b91505092915050565b6108db816107ef565b82525050565b5f6020820190506108f45f8301846108d2565b92915050565b6109038161086c565b82525050565b5f60208201905061091c5f8301846108fa565b92915050565b5f82825260208201905092915050565b7f496e73756666696369656e742066756e647300000000000000000000000000005f82015250565b5f610966601283610922565b915061097182610932565b602082019050919050565b5f6020820190508181035f8301526109938161095a565b9050919050565b7f4e487b71000000000000000000000000000000000000000000000000000000005f52601160045260245ffd5b5f6109d1826107ef565b91506109dc836107ef565b92508282039050818111156109f4576109f361099a565b5b92915050565b5f81905092915050565b50565b5f610a125f836109fa565b9150610a1d82610a04565b5f82019050919050565b5f610a3182610a07565b9150819050919050565b7f4661696c656420746f2073656e642066756e64730000000000000000000000005f82015250565b5f610a6f601483610922565b9150610a7a82610a3b565b602082019050919050565b5f6020820190508181035f830152610a9c81610a63565b9050919050565b7f4c6164726f6e6375656c6f2c20656c20636f6e747261746f206573746120626c5f8201527f6f71756561646f2e204120726f6261722061206f74726f206c61646f2e000000602082015250565b5f610afd603d83610922565b9150610b0882610aa3565b604082019050919050565b5f6020820190508181035f830152610b2a81610af1565b9050919050565b7f596f7520617265206e6f742074686520636f6e7472616374206f776e657221005f82015250565b5f610b65601f83610922565b9150610b7082610b31565b602082019050919050565b5f6020820190508181035f830152610b9281610b59565b9050919050565b7f4e6f206665657320636f6c6c65637465640000000000000000000000000000005f82015250565b5f610bcd601183610922565b9150610bd882610b99565b602082019050919050565b5f6020820190508181035f830152610bfa81610bc1565b9050919050565b7f4661696c656420746f2073656e642066656573000000000000000000000000005f82015250565b5f610c35601383610922565b9150610c4082610c01565b602082019050919050565b5f6020820190508181035f830152610c6281610c29565b9050919050565b7f496e73756666696369656e74206465706f7369740000000000000000000000005f82015250565b5f610c9d601483610922565b9150610ca882610c69565b602082019050919050565b5f6020820190508181035f830152610cca81610c91565b9050919050565b5f610cdb826107ef565b9150610ce6836107ef565b9250828202610cf4816107ef565b91508282048414831517610d0b57610d0a61099a565b5b5092915050565b7f4e487b71000000000000000000000000000000000000000000000000000000005f52601260045260245ffd5b5f610d49826107ef565b9150610d54836107ef565b925082610d6457610d63610d12565b5b828204905092915050565b5f610d79826107ef565b9150610d84836107ef565b9250828201905080821115610d9c57610d9b61099a565b5b9291505056fea2646970667358221220b3f6318a68ebef0666db595d707c9202d494b7ea771c6b68cdd772bc349b742d64736f6c634300081a0033",
			"opcodes": "PUSH1 0x80 PUSH1 0x40 MSTORE PUSH0 DUP1 PUSH1 0x14 PUSH2 0x100 EXP DUP2 SLOAD DUP2 PUSH1 0xFF MUL NOT AND SWAP1 DUP4 ISZERO ISZERO MUL OR SWAP1 SSTORE POP CALLVALUE DUP1 ISZERO PUSH2 0x28 JUMPI PUSH0 DUP1 REVERT JUMPDEST POP PUSH1 0x40 MLOAD PUSH2 0xEF3 CODESIZE SUB DUP1 PUSH2 0xEF3 DUP4 CODECOPY DUP2 DUP2 ADD PUSH1 0x40 MSTORE DUP2 ADD SWAP1 PUSH2 0x4A SWAP2 SWAP1 PUSH2 0xE3 JUMP JUMPDEST CALLER PUSH0 DUP1 PUSH2 0x100 EXP DUP2 SLOAD DUP2 PUSH20 0xFFFFFFFFFFFFFFFFFFFFFFFFFFFFFFFFFFFFFFFF MUL NOT AND SWAP1 DUP4 PUSH20 0xFFFFFFFFFFFFFFFFFFFFFFFFFFFFFFFFFFFFFFFF AND MUL OR SWAP1 SSTORE POP DUP1 PUSH0 PUSH1 0x15 PUSH2 0x100 EXP DUP2 SLOAD DUP2 PUSH1 0xFF MUL NOT AND SWAP1 DUP4 PUSH1 0xFF AND MUL OR SWAP1 SSTORE POP POP PUSH2 0x10E JUMP JUMPDEST PUSH0 DUP1 REVERT JUMPDEST PUSH0 PUSH1 0xFF DUP3 AND SWAP1 POP SWAP2 SWAP1 POP JUMP JUMPDEST PUSH2 0xC2 DUP2 PUSH2 0xAD JUMP JUMPDEST DUP2 EQ PUSH2 0xCC JUMPI PUSH0 DUP1 REVERT JUMPDEST POP JUMP JUMPDEST PUSH0 DUP2 MLOAD SWAP1 POP PUSH2 0xDD DUP2 PUSH2 0xB9 JUMP JUMPDEST SWAP3 SWAP2 POP POP JUMP JUMPDEST PUSH0 PUSH1 0x20 DUP3 DUP5 SUB SLT ISZERO PUSH2 0xF8 JUMPI PUSH2 0xF7 PUSH2 0xA9 JUMP JUMPDEST JUMPDEST PUSH0 PUSH2 0x105 DUP5 DUP3 DUP6 ADD PUSH2 0xCF JUMP JUMPDEST SWAP2 POP POP SWAP3 SWAP2 POP POP JUMP JUMPDEST PUSH2 0xDD8 DUP1 PUSH2 0x11B PUSH0 CODECOPY PUSH0 RETURN INVALID PUSH1 0x80 PUSH1 0x40 MSTORE PUSH1 0x4 CALLDATASIZE LT PUSH2 0x7A JUMPI PUSH0 CALLDATALOAD PUSH1 0xE0 SHR DUP1 PUSH4 0x8DA5CB5B GT PUSH2 0x4D JUMPI DUP1 PUSH4 0x8DA5CB5B EQ PUSH2 0x134 JUMPI DUP1 PUSH4 0x9003ADFE EQ PUSH2 0x15E JUMPI DUP1 PUSH4 0xC8796572 EQ PUSH2 0x188 JUMPI DUP1 PUSH4 0xD0E30DB0 EQ PUSH2 0x19E JUMPI PUSH2 0x7A JUMP JUMPDEST DUP1 PUSH4 0x2E1A7D4D EQ PUSH2 0x7E JUMPI DUP1 PUSH4 0x5E5C06E2 EQ PUSH2 0xA6 JUMPI DUP1 PUSH4 0x70A08231 EQ PUSH2 0xE2 JUMPI DUP1 PUSH4 0x853828B6 EQ PUSH2 0x11E JUMPI JUMPDEST PUSH0 DUP1 REVERT JUMPDEST CALLVALUE DUP1 ISZERO PUSH2 0x89 JUMPI PUSH0 DUP1 REVERT JUMPDEST POP PUSH2 0xA4 PUSH1 0x4 DUP1 CALLDATASIZE SUB DUP2 ADD SWAP1 PUSH2 0x9F SWAP2 SWAP1 PUSH2 0x822 JUMP JUMPDEST PUSH2 0x1A8 JUMP JUMPDEST STOP JUMPDEST CALLVALUE DUP1 ISZERO PUSH2 0xB1 JUMPI PUSH0 DUP1 REVERT JUMPDEST POP PUSH2 0xCC PUSH1 0x4 DUP1 CALLDATASIZE SUB DUP2 ADD SWAP1 PUSH2 0xC7 SWAP2 SWAP1 PUSH2 0x8A7 JUMP JUMPDEST PUSH2 0x327 JUMP JUMPDEST PUSH1 0x40 MLOAD PUSH2 0xD9 SWAP2 SWAP1 PUSH2 0x8E1 JUMP JUMPDEST PUSH1 0x40 MLOAD DUP1 SWAP2 SUB SWAP1 RETURN JUMPDEST CALLVALUE DUP1 ISZERO PUSH2 0xED JUMPI PUSH0 DUP1 REVERT JUMPDEST POP PUSH2 0x108 PUSH1 0x4 DUP1 CALLDATASIZE SUB DUP2 ADD SWAP1 PUSH2 0x103 SWAP2 SWAP1 PUSH2 0x8A7 JUMP JUMPDEST PUSH2 0x33C JUMP JUMPDEST PUSH1 0x40 MLOAD PUSH2 0x115 SWAP2 SWAP1 PUSH2 0x8E1 JUMP JUMPDEST PUSH1 0x40 MLOAD DUP1 SWAP2 SUB SWAP1 RETURN JUMPDEST CALLVALUE DUP1 ISZERO PUSH2 0x129 JUMPI PUSH0 DUP1 REVERT JUMPDEST POP PUSH2 0x132 PUSH2 0x382 JUMP JUMPDEST STOP JUMPDEST CALLVALUE DUP1 ISZERO PUSH2 0x13F JUMPI PUSH0 DUP1 REVERT JUMPDEST POP PUSH2 0x148 PUSH2 0x533 JUMP JUMPDEST PUSH1 0x40 MLOAD PUSH2 0x155 SWAP2 SWAP1 PUSH2 0x909 JUMP JUMPDEST PUSH1 0x40 MLOAD DUP1 SWAP2 SUB SWAP1 RETURN JUMPDEST CALLVALUE DUP1 ISZERO PUSH2 0x169 JUMPI PUSH0 DUP1 REVERT JUMPDEST POP PUSH2 0x172 PUSH2 0x556 JUMP JUMPDEST PUSH1 0x40 MLOAD PUSH2 0x17F SWAP2 SWAP1 PUSH2 0x8E1 JUMP JUMPDEST PUSH1 0x40 MLOAD DUP1 SWAP2 SUB SWAP1 RETURN JUMPDEST CALLVALUE DUP1 ISZERO PUSH2 0x193 JUMPI PUSH0 DUP1 REVERT JUMPDEST POP PUSH2 0x19C PUSH2 0x55C JUMP JUMPDEST STOP JUMPDEST PUSH2 0x1A6 PUSH2 0x701 JUMP JUMPDEST STOP JUMPDEST DUP1 PUSH1 0x2 PUSH0 CALLER PUSH20 0xFFFFFFFFFFFFFFFFFFFFFFFFFFFFFFFFFFFFFFFF AND PUSH20 0xFFFFFFFFFFFFFFFFFFFFFFFFFFFFFFFFFFFFFFFF AND DUP2 MSTORE PUSH1 0x20 ADD SWAP1 DUP2 MSTORE PUSH1 0x20 ADD PUSH0 KECCAK256 SLOAD LT ISZERO PUSH2 0x228 JUMPI PUSH1 0x40 MLOAD PUSH32 0x8C379A000000000000000000000000000000000000000000000000000000000 DUP2 MSTORE PUSH1 0x4 ADD PUSH2 0x21F SWAP1 PUSH2 0x97C JUMP JUMPDEST PUSH1 0x40 MLOAD DUP1 SWAP2 SUB SWAP1 REVERT JUMPDEST DUP1 PUSH1 0x2 PUSH0 CALLER PUSH20 0xFFFFFFFFFFFFFFFFFFFFFFFFFFFFFFFFFFFFFFFF AND PUSH20 0xFFFFFFFFFFFFFFFFFFFFFFFFFFFFFFFFFFFFFFFF AND DUP2 MSTORE PUSH1 0x20 ADD SWAP1 DUP2 MSTORE PUSH1 0x20 ADD PUSH0 KECCAK256 PUSH0 DUP3 DUP3 SLOAD PUSH2 0x274 SWAP2 SWAP1 PUSH2 0x9C7 JUMP JUMPDEST SWAP3 POP POP DUP2 SWAP1 SSTORE POP PUSH0 CALLER PUSH20 0xFFFFFFFFFFFFFFFFFFFFFFFFFFFFFFFFFFFFFFFF AND DUP3 PUSH1 0x40 MLOAD PUSH2 0x2A0 SWAP1 PUSH2 0xA27 JUMP JUMPDEST PUSH0 PUSH1 0x40 MLOAD DUP1 DUP4 SUB DUP2 DUP6 DUP8 GAS CALL SWAP3 POP POP POP RETURNDATASIZE DUP1 PUSH0 DUP2 EQ PUSH2 0x2DA JUMPI PUSH1 0x40 MLOAD SWAP2 POP PUSH1 0x1F NOT PUSH1 0x3F RETURNDATASIZE ADD AND DUP3 ADD PUSH1 0x40 MSTORE RETURNDATASIZE DUP3 MSTORE RETURNDATASIZE PUSH0 PUSH1 0x20 DUP5 ADD RETURNDATACOPY PUSH2 0x2DF JUMP JUMPDEST PUSH1 0x60 SWAP2 POP JUMPDEST POP POP SWAP1 POP DUP1 PUSH2 0x323 JUMPI PUSH1 0x40 MLOAD PUSH32 0x8C379A000000000000000000000000000000000000000000000000000000000 DUP2 MSTORE PUSH1 0x4 ADD PUSH2 0x31A SWAP1 PUSH2 0xA85 JUMP JUMPDEST PUSH1 0x40 MLOAD DUP1 SWAP2 SUB SWAP1 REVERT JUMPDEST POP POP JUMP JUMPDEST PUSH1 0x2 PUSH1 0x20 MSTORE DUP1 PUSH0 MSTORE PUSH1 0x40 PUSH0 KECCAK256 PUSH0 SWAP2 POP SWAP1 POP SLOAD DUP2 JUMP JUMPDEST PUSH0 PUSH1 0x2 PUSH0 DUP4 PUSH20 0xFFFFFFFFFFFFFFFFFFFFFFFFFFFFFFFFFFFFFFFF AND PUSH20 0xFFFFFFFFFFFFFFFFFFFFFFFFFFFFFFFFFFFFFFFF AND DUP2 MSTORE PUSH1 0x20 ADD SWAP1 DUP2 MSTORE PUSH1 0x20 ADD PUSH0 KECCAK256 SLOAD SWAP1 POP SWAP2 SWAP1 POP JUMP JUMPDEST PUSH0 PUSH1 0x14 SWAP1 SLOAD SWAP1 PUSH2 0x100 EXP SWAP1 DIV PUSH1 0xFF AND ISZERO PUSH2 0x3D1 JUMPI PUSH1 0x40 MLOAD PUSH32 0x8C379A000000000000000000000000000000000000000000000000000000000 DUP2 MSTORE PUSH1 0x4 ADD PUSH2 0x3C8 SWAP1 PUSH2 0xB13 JUMP JUMPDEST PUSH1 0x40 MLOAD DUP1 SWAP2 SUB SWAP1 REVERT JUMPDEST PUSH0 PUSH1 0x2 PUSH0 CALLER PUSH20 0xFFFFFFFFFFFFFFFFFFFFFFFFFFFFFFFFFFFFFFFF AND PUSH20 0xFFFFFFFFFFFFFFFFFFFFFFFFFFFFFFFFFFFFFFFF AND DUP2 MSTORE PUSH1 0x20 ADD SWAP1 DUP2 MSTORE PUSH1 0x20 ADD PUSH0 KECCAK256 SLOAD SWAP1 POP PUSH0 DUP2 GT PUSH2 0x454 JUMPI PUSH1 0x40 MLOAD PUSH32 0x8C379A000000000000000000000000000000000000000000000000000000000 DUP2 MSTORE PUSH1 0x4 ADD PUSH2 0x44B SWAP1 PUSH2 0x97C JUMP JUMPDEST PUSH1 0x40 MLOAD DUP1 SWAP2 SUB SWAP1 REVERT JUMPDEST PUSH1 0x1 PUSH0 PUSH1 0x14 PUSH2 0x100 EXP DUP2 SLOAD DUP2 PUSH1 0xFF MUL NOT AND SWAP1 DUP4 ISZERO ISZERO MUL OR SWAP1 SSTORE POP PUSH0 CALLER PUSH20 0xFFFFFFFFFFFFFFFFFFFFFFFFFFFFFFFFFFFFFFFF AND DUP3 PUSH1 0x40 MLOAD PUSH2 0x493 SWAP1 PUSH2 0xA27 JUMP JUMPDEST PUSH0 PUSH1 0x40 MLOAD DUP1 DUP4 SUB DUP2 DUP6 DUP8 GAS CALL SWAP3 POP POP POP RETURNDATASIZE DUP1 PUSH0 DUP2 EQ PUSH2 0x4CD JUMPI PUSH1 0x40 MLOAD SWAP2 POP PUSH1 0x1F NOT PUSH1 0x3F RETURNDATASIZE ADD AND DUP3 ADD PUSH1 0x40 MSTORE RETURNDATASIZE DUP3 MSTORE RETURNDATASIZE PUSH0 PUSH1 0x20 DUP5 ADD RETURNDATACOPY PUSH2 0x4D2 JUMP JUMPDEST PUSH1 0x60 SWAP2 POP JUMPDEST POP POP SWAP1 POP PUSH0 DUP1 PUSH1 0x14 PUSH2 0x100 EXP DUP2 SLOAD DUP2 PUSH1 0xFF MUL NOT AND SWAP1 DUP4 ISZERO ISZERO MUL OR SWAP1 SSTORE POP DUP1 PUSH2 0x52F JUMPI PUSH1 0x40 MLOAD PUSH32 0x8C379A000000000000000000000000000000000000000000000000000000000 DUP2 MSTORE PUSH1 0x4 ADD PUSH2 0x526 SWAP1 PUSH2 0xA85 JUMP JUMPDEST PUSH1 0x40 MLOAD DUP1 SWAP2 SUB SWAP1 REVERT JUMPDEST POP POP JUMP JUMPDEST PUSH0 DUP1 SLOAD SWAP1 PUSH2 0x100 EXP SWAP1 DIV PUSH20 0xFFFFFFFFFFFFFFFFFFFFFFFFFFFFFFFFFFFFFFFF AND DUP2 JUMP JUMPDEST PUSH1 0x1 SLOAD DUP2 JUMP JUMPDEST PUSH0 DUP1 SLOAD SWAP1 PUSH2 0x100 EXP SWAP1 DIV PUSH20 0xFFFFFFFFFFFFFFFFFFFFFFFFFFFFFFFFFFFFFFFF AND PUSH20 0xFFFFFFFFFFFFFFFFFFFFFFFFFFFFFFFFFFFFFFFF AND CALLER PUSH20 0xFFFFFFFFFFFFFFFFFFFFFFFFFFFFFFFFFFFFFFFF AND EQ PUSH2 0x5E9 JUMPI PUSH1 0x40 MLOAD PUSH32 0x8C379A000000000000000000000000000000000000000000000000000000000 DUP2 MSTORE PUSH1 0x4 ADD PUSH2 0x5E0 SWAP1 PUSH2 0xB7B JUMP JUMPDEST PUSH1 0x40 MLOAD DUP1 SWAP2 SUB SWAP1 REVERT JUMPDEST PUSH0 PUSH1 0x1 SLOAD GT PUSH2 0x62D JUMPI PUSH1 0x40 MLOAD PUSH32 0x8C379A000000000000000000000000000000000000000000000000000000000 DUP2 MSTORE PUSH1 0x4 ADD PUSH2 0x624 SWAP1 PUSH2 0xBE3 JUMP JUMPDEST PUSH1 0x40 MLOAD DUP1 SWAP2 SUB SWAP1 REVERT JUMPDEST PUSH0 DUP1 PUSH0 SWAP1 SLOAD SWAP1 PUSH2 0x100 EXP SWAP1 DIV PUSH20 0xFFFFFFFFFFFFFFFFFFFFFFFFFFFFFFFFFFFFFFFF AND PUSH20 0xFFFFFFFFFFFFFFFFFFFFFFFFFFFFFFFFFFFFFFFF AND PUSH1 0x1 SLOAD PUSH1 0x40 MLOAD PUSH2 0x674 SWAP1 PUSH2 0xA27 JUMP JUMPDEST PUSH0 PUSH1 0x40 MLOAD DUP1 DUP4 SUB DUP2 DUP6 DUP8 GAS CALL SWAP3 POP POP POP RETURNDATASIZE DUP1 PUSH0 DUP2 EQ PUSH2 0x6AE JUMPI PUSH1 0x40 MLOAD SWAP2 POP PUSH1 0x1F NOT PUSH1 0x3F RETURNDATASIZE ADD AND DUP3 ADD PUSH1 0x40 MSTORE RETURNDATASIZE DUP3 MSTORE RETURNDATASIZE PUSH0 PUSH1 0x20 DUP5 ADD RETURNDATACOPY PUSH2 0x6B3 JUMP JUMPDEST PUSH1 0x60 SWAP2 POP JUMPDEST POP POP SWAP1 POP DUP1 PUSH2 0x6F7 JUMPI PUSH1 0x40 MLOAD PUSH32 0x8C379A000000000000000000000000000000000000000000000000000000000 DUP2 MSTORE PUSH1 0x4 ADD PUSH2 0x6EE SWAP1 PUSH2 0xC4B JUMP JUMPDEST PUSH1 0x40 MLOAD DUP1 SWAP2 SUB SWAP1 REVERT JUMPDEST PUSH0 PUSH1 0x1 DUP2 SWAP1 SSTORE POP POP JUMP JUMPDEST PUSH1 0x64 CALLVALUE LT ISZERO PUSH2 0x745 JUMPI PUSH1 0x40 MLOAD PUSH32 0x8C379A000000000000000000000000000000000000000000000000000000000 DUP2 MSTORE PUSH1 0x4 ADD PUSH2 0x73C SWAP1 PUSH2 0xCB3 JUMP JUMPDEST PUSH1 0x40 MLOAD DUP1 SWAP2 SUB SWAP1 REVERT JUMPDEST PUSH0 PUSH2 0x2710 PUSH0 PUSH1 0x15 SWAP1 SLOAD SWAP1 PUSH2 0x100 EXP SWAP1 DIV PUSH1 0xFF AND PUSH1 0xFF AND CALLVALUE PUSH2 0x766 SWAP2 SWAP1 PUSH2 0xCD1 JUMP JUMPDEST PUSH2 0x770 SWAP2 SWAP1 PUSH2 0xD3F JUMP JUMPDEST SWAP1 POP DUP1 CALLVALUE PUSH2 0x77E SWAP2 SWAP1 PUSH2 0x9C7 JUMP JUMPDEST PUSH1 0x2 PUSH0 CALLER PUSH20 0xFFFFFFFFFFFFFFFFFFFFFFFFFFFFFFFFFFFFFFFF AND PUSH20 0xFFFFFFFFFFFFFFFFFFFFFFFFFFFFFFFFFFFFFFFF AND DUP2 MSTORE PUSH1 0x20 ADD SWAP1 DUP2 MSTORE PUSH1 0x20 ADD PUSH0 KECCAK256 PUSH0 DUP3 DUP3 SLOAD PUSH2 0x7C9 SWAP2 SWAP1 PUSH2 0xD6F JUMP JUMPDEST SWAP3 POP POP DUP2 SWAP1 SSTORE POP DUP1 PUSH1 0x1 PUSH0 DUP3 DUP3 SLOAD PUSH2 0x7E1 SWAP2 SWAP1 PUSH2 0xD6F JUMP JUMPDEST SWAP3 POP POP DUP2 SWAP1 SSTORE POP POP JUMP JUMPDEST PUSH0 DUP1 REVERT JUMPDEST PUSH0 DUP2 SWAP1 POP SWAP2 SWAP1 POP JUMP JUMPDEST PUSH2 0x801 DUP2 PUSH2 0x7EF JUMP JUMPDEST DUP2 EQ PUSH2 0x80B JUMPI PUSH0 DUP1 REVERT JUMPDEST POP JUMP JUMPDEST PUSH0 DUP2 CALLDATALOAD SWAP1 POP PUSH2 0x81C DUP2 PUSH2 0x7F8 JUMP JUMPDEST SWAP3 SWAP2 POP POP JUMP JUMPDEST PUSH0 PUSH1 0x20 DUP3 DUP5 SUB SLT ISZERO PUSH2 0x837 JUMPI PUSH2 0x836 PUSH2 0x7EB JUMP JUMPDEST JUMPDEST PUSH0 PUSH2 0x844 DUP5 DUP3 DUP6 ADD PUSH2 0x80E JUMP JUMPDEST SWAP2 POP POP SWAP3 SWAP2 POP POP JUMP JUMPDEST PUSH0 PUSH20 0xFFFFFFFFFFFFFFFFFFFFFFFFFFFFFFFFFFFFFFFF DUP3 AND SWAP1 POP SWAP2 SWAP1 POP JUMP JUMPDEST PUSH0 PUSH2 0x876 DUP3 PUSH2 0x84D JUMP JUMPDEST SWAP1 POP SWAP2 SWAP1 POP JUMP JUMPDEST PUSH2 0x886 DUP2 PUSH2 0x86C JUMP JUMPDEST DUP2 EQ PUSH2 0x890 JUMPI PUSH0 DUP1 REVERT JUMPDEST POP JUMP JUMPDEST PUSH0 DUP2 CALLDATALOAD SWAP1 POP PUSH2 0x8A1 DUP2 PUSH2 0x87D JUMP JUMPDEST SWAP3 SWAP2 POP POP JUMP JUMPDEST PUSH0 PUSH1 0x20 DUP3 DUP5 SUB SLT ISZERO PUSH2 0x8BC JUMPI PUSH2 0x8BB PUSH2 0x7EB JUMP JUMPDEST JUMPDEST PUSH0 PUSH2 0x8C9 DUP5 DUP3 DUP6 ADD PUSH2 0x893 JUMP JUMPDEST SWAP2 POP POP SWAP3 SWAP2 POP POP JUMP JUMPDEST PUSH2 0x8DB DUP2 PUSH2 0x7EF JUMP JUMPDEST DUP3 MSTORE POP POP JUMP JUMPDEST PUSH0 PUSH1 0x20 DUP3 ADD SWAP1 POP PUSH2 0x8F4 PUSH0 DUP4 ADD DUP5 PUSH2 0x8D2 JUMP JUMPDEST SWAP3 SWAP2 POP POP JUMP JUMPDEST PUSH2 0x903 DUP2 PUSH2 0x86C JUMP JUMPDEST DUP3 MSTORE POP POP JUMP JUMPDEST PUSH0 PUSH1 0x20 DUP3 ADD SWAP1 POP PUSH2 0x91C PUSH0 DUP4 ADD DUP5 PUSH2 0x8FA JUMP JUMPDEST SWAP3 SWAP2 POP POP JUMP JUMPDEST PUSH0 DUP3 DUP3 MSTORE PUSH1 0x20 DUP3 ADD SWAP1 POP SWAP3 SWAP2 POP POP JUMP JUMPDEST PUSH32 0x496E73756666696369656E742066756E64730000000000000000000000000000 PUSH0 DUP3 ADD MSTORE POP JUMP JUMPDEST PUSH0 PUSH2 0x966 PUSH1 0x12 DUP4 PUSH2 0x922 JUMP JUMPDEST SWAP2 POP PUSH2 0x971 DUP3 PUSH2 0x932 JUMP JUMPDEST PUSH1 0x20 DUP3 ADD SWAP1 POP SWAP2 SWAP1 POP JUMP JUMPDEST PUSH0 PUSH1 0x20 DUP3 ADD SWAP1 POP DUP2 DUP2 SUB PUSH0 DUP4 ADD MSTORE PUSH2 0x993 DUP2 PUSH2 0x95A JUMP JUMPDEST SWAP1 POP SWAP2 SWAP1 POP JUMP JUMPDEST PUSH32 0x4E487B7100000000000000000000000000000000000000000000000000000000 PUSH0 MSTORE PUSH1 0x11 PUSH1 0x4 MSTORE PUSH1 0x24 PUSH0 REVERT JUMPDEST PUSH0 PUSH2 0x9D1 DUP3 PUSH2 0x7EF JUMP JUMPDEST SWAP2 POP PUSH2 0x9DC DUP4 PUSH2 0x7EF JUMP JUMPDEST SWAP3 POP DUP3 DUP3 SUB SWAP1 POP DUP2 DUP2 GT ISZERO PUSH2 0x9F4 JUMPI PUSH2 0x9F3 PUSH2 0x99A JUMP JUMPDEST JUMPDEST SWAP3 SWAP2 POP POP JUMP JUMPDEST PUSH0 DUP2 SWAP1 POP SWAP3 SWAP2 POP POP JUMP JUMPDEST POP JUMP JUMPDEST PUSH0 PUSH2 0xA12 PUSH0 DUP4 PUSH2 0x9FA JUMP JUMPDEST SWAP2 POP PUSH2 0xA1D DUP3 PUSH2 0xA04 JUMP JUMPDEST PUSH0 DUP3 ADD SWAP1 POP SWAP2 SWAP1 POP JUMP JUMPDEST PUSH0 PUSH2 0xA31 DUP3 PUSH2 0xA07 JUMP JUMPDEST SWAP2 POP DUP2 SWAP1 POP SWAP2 SWAP1 POP JUMP JUMPDEST PUSH32 0x4661696C656420746F2073656E642066756E6473000000000000000000000000 PUSH0 DUP3 ADD MSTORE POP JUMP JUMPDEST PUSH0 PUSH2 0xA6F PUSH1 0x14 DUP4 PUSH2 0x922 JUMP JUMPDEST SWAP2 POP PUSH2 0xA7A DUP3 PUSH2 0xA3B JUMP JUMPDEST PUSH1 0x20 DUP3 ADD SWAP1 POP SWAP2 SWAP1 POP JUMP JUMPDEST PUSH0 PUSH1 0x20 DUP3 ADD SWAP1 POP DUP2 DUP2 SUB PUSH0 DUP4 ADD MSTORE PUSH2 0xA9C DUP2 PUSH2 0xA63 JUMP JUMPDEST SWAP1 POP SWAP2 SWAP1 POP JUMP JUMPDEST PUSH32 0x4C6164726F6E6375656C6F2C20656C20636F6E747261746F206573746120626C PUSH0 DUP3 ADD MSTORE PUSH32 0x6F71756561646F2E204120726F6261722061206F74726F206C61646F2E000000 PUSH1 0x20 DUP3 ADD MSTORE POP JUMP JUMPDEST PUSH0 PUSH2 0xAFD PUSH1 0x3D DUP4 PUSH2 0x922 JUMP JUMPDEST SWAP2 POP PUSH2 0xB08 DUP3 PUSH2 0xAA3 JUMP JUMPDEST PUSH1 0x40 DUP3 ADD SWAP1 POP SWAP2 SWAP1 POP JUMP JUMPDEST PUSH0 PUSH1 0x20 DUP3 ADD SWAP1 POP DUP2 DUP2 SUB PUSH0 DUP4 ADD MSTORE PUSH2 0xB2A DUP2 PUSH2 0xAF1 JUMP JUMPDEST SWAP1 POP SWAP2 SWAP1 POP JUMP JUMPDEST PUSH32 0x596F7520617265206E6F742074686520636F6E7472616374206F776E65722100 PUSH0 DUP3 ADD MSTORE POP JUMP JUMPDEST PUSH0 PUSH2 0xB65 PUSH1 0x1F DUP4 PUSH2 0x922 JUMP JUMPDEST SWAP2 POP PUSH2 0xB70 DUP3 PUSH2 0xB31 JUMP JUMPDEST PUSH1 0x20 DUP3 ADD SWAP1 POP SWAP2 SWAP1 POP JUMP JUMPDEST PUSH0 PUSH1 0x20 DUP3 ADD SWAP1 POP DUP2 DUP2 SUB PUSH0 DUP4 ADD MSTORE PUSH2 0xB92 DUP2 PUSH2 0xB59 JUMP JUMPDEST SWAP1 POP SWAP2 SWAP1 POP JUMP JUMPDEST PUSH32 0x4E6F206665657320636F6C6C6563746564000000000000000000000000000000 PUSH0 DUP3 ADD MSTORE POP JUMP JUMPDEST PUSH0 PUSH2 0xBCD PUSH1 0x11 DUP4 PUSH2 0x922 JUMP JUMPDEST SWAP2 POP PUSH2 0xBD8 DUP3 PUSH2 0xB99 JUMP JUMPDEST PUSH1 0x20 DUP3 ADD SWAP1 POP SWAP2 SWAP1 POP JUMP JUMPDEST PUSH0 PUSH1 0x20 DUP3 ADD SWAP1 POP DUP2 DUP2 SUB PUSH0 DUP4 ADD MSTORE PUSH2 0xBFA DUP2 PUSH2 0xBC1 JUMP JUMPDEST SWAP1 POP SWAP2 SWAP1 POP JUMP JUMPDEST PUSH32 0x4661696C656420746F2073656E64206665657300000000000000000000000000 PUSH0 DUP3 ADD MSTORE POP JUMP JUMPDEST PUSH0 PUSH2 0xC35 PUSH1 0x13 DUP4 PUSH2 0x922 JUMP JUMPDEST SWAP2 POP PUSH2 0xC40 DUP3 PUSH2 0xC01 JUMP JUMPDEST PUSH1 0x20 DUP3 ADD SWAP1 POP SWAP2 SWAP1 POP JUMP JUMPDEST PUSH0 PUSH1 0x20 DUP3 ADD SWAP1 POP DUP2 DUP2 SUB PUSH0 DUP4 ADD MSTORE PUSH2 0xC62 DUP2 PUSH2 0xC29 JUMP JUMPDEST SWAP1 POP SWAP2 SWAP1 POP JUMP JUMPDEST PUSH32 0x496E73756666696369656E74206465706F736974000000000000000000000000 PUSH0 DUP3 ADD MSTORE POP JUMP JUMPDEST PUSH0 PUSH2 0xC9D PUSH1 0x14 DUP4 PUSH2 0x922 JUMP JUMPDEST SWAP2 POP PUSH2 0xCA8 DUP3 PUSH2 0xC69 JUMP JUMPDEST PUSH1 0x20 DUP3 ADD SWAP1 POP SWAP2 SWAP1 POP JUMP JUMPDEST PUSH0 PUSH1 0x20 DUP3 ADD SWAP1 POP DUP2 DUP2 SUB PUSH0 DUP4 ADD MSTORE PUSH2 0xCCA DUP2 PUSH2 0xC91 JUMP JUMPDEST SWAP1 POP SWAP2 SWAP1 POP JUMP JUMPDEST PUSH0 PUSH2 0xCDB DUP3 PUSH2 0x7EF JUMP JUMPDEST SWAP2 POP PUSH2 0xCE6 DUP4 PUSH2 0x7EF JUMP JUMPDEST SWAP3 POP DUP3 DUP3 MUL PUSH2 0xCF4 DUP2 PUSH2 0x7EF JUMP JUMPDEST SWAP2 POP DUP3 DUP3 DIV DUP5 EQ DUP4 ISZERO OR PUSH2 0xD0B JUMPI PUSH2 0xD0A PUSH2 0x99A JUMP JUMPDEST JUMPDEST POP SWAP3 SWAP2 POP POP JUMP JUMPDEST PUSH32 0x4E487B7100000000000000000000000000000000000000000000000000000000 PUSH0 MSTORE PUSH1 0x12 PUSH1 0x4 MSTORE PUSH1 0x24 PUSH0 REVERT JUMPDEST PUSH0 PUSH2 0xD49 DUP3 PUSH2 0x7EF JUMP JUMPDEST SWAP2 POP PUSH2 0xD54 DUP4 PUSH2 0x7EF JUMP JUMPDEST SWAP3 POP DUP3 PUSH2 0xD64 JUMPI PUSH2 0xD63 PUSH2 0xD12 JUMP JUMPDEST JUMPDEST DUP3 DUP3 DIV SWAP1 POP SWAP3 SWAP2 POP POP JUMP JUMPDEST PUSH0 PUSH2 0xD79 DUP3 PUSH2 0x7EF JUMP JUMPDEST SWAP2 POP PUSH2 0xD84 DUP4 PUSH2 0x7EF JUMP JUMPDEST SWAP3 POP DUP3 DUP3 ADD SWAP1 POP DUP1 DUP3 GT ISZERO PUSH2 0xD9C JUMPI PUSH2 0xD9B PUSH2 0x99A JUMP JUMPDEST JUMPDEST SWAP3 SWAP2 POP POP JUMP INVALID LOG2 PUSH5 0x6970667358 0x22 SLT KECCAK256 0xB3 0xF6 BALANCE DUP11 PUSH9 0xEBEF0666DB595D707C SWAP3 MUL 0xD4 SWAP5 0xB7 0xEA PUSH24 0x1C6B68CDD772BC349B742D64736F6C634300081A00330000 "
		},
		"gasEstimates": {
			"creation": {
				"codeDepositCost": "708800",
				"executionCost": "infinite",
				"totalCost": "infinite"
			},
			"external": {
				"accounts(address)": "2825",
				"balanceOf(address)": "2874",
				"collectFees()": "infinite",
				"collectedFees()": "2447",
				"deposit()": "infinite",
				"owner()": "2505",
				"withdraw(uint256)": "infinite",
				"withdrawAll()": "infinite"
			}
		},
		"methodIdentifiers": {
			"accounts(address)": "5e5c06e2",
			"balanceOf(address)": "70a08231",
			"collectFees()": "c8796572",
			"collectedFees()": "9003adfe",
			"deposit()": "d0e30db0",
			"owner()": "8da5cb5b",
			"withdraw(uint256)": "2e1a7d4d",
			"withdrawAll()": "853828b6"
		}
	},
	"abi": [
		{
			"inputs": [
				{
					"internalType": "uint8",
					"name": "_prcFee",
					"type": "uint8"
				}
			],
			"stateMutability": "nonpayable",
			"type": "constructor"
		},
		{
			"inputs": [
				{
					"internalType": "address",
					"name": "",
					"type": "address"
				}
			],
			"name": "accounts",
			"outputs": [
				{
					"internalType": "uint256",
					"name": "",
					"type": "uint256"
				}
			],
			"stateMutability": "view",
			"type": "function"
		},
		{
			"inputs": [
				{
					"internalType": "address",
					"name": "_owner",
					"type": "address"
				}
			],
			"name": "balanceOf",
			"outputs": [
				{
					"internalType": "uint256",
					"name": "",
					"type": "uint256"
				}
			],
			"stateMutability": "view",
			"type": "function"
		},
		{
			"inputs": [],
			"name": "collectFees",
			"outputs": [],
			"stateMutability": "nonpayable",
			"type": "function"
		},
		{
			"inputs": [],
			"name": "collectedFees",
			"outputs": [
				{
					"internalType": "uint256",
					"name": "",
					"type": "uint256"
				}
			],
			"stateMutability": "view",
			"type": "function"
		},
		{
			"inputs": [],
			"name": "deposit",
			"outputs": [],
			"stateMutability": "payable",
			"type": "function"
		},
		{
			"inputs": [],
			"name": "owner",
			"outputs": [
				{
					"internalType": "address",
					"name": "",
					"type": "address"
				}
			],
			"stateMutability": "view",
			"type": "function"
		},
		{
			"inputs": [
				{
					"internalType": "uint256",
					"name": "_amount",
					"type": "uint256"
				}
			],
			"name": "withdraw",
			"outputs": [],
			"stateMutability": "nonpayable",
			"type": "function"
		},
		{
			"inputs": [],
			"name": "withdrawAll",
			"outputs": [],
			"stateMutability": "nonpayable",
			"type": "function"
		}
	]
}