{
	"PRACTICA FINAL/archivo1.sol": {
		"VotingContract": {
			"abi": [
				{
					"inputs": [
						{
							"internalType": "string",
							"name": "name",
							"type": "string"
						},
						{
							"internalType": "string",
							"name": "symbol",
							"type": "string"
						},
						{
							"internalType": "uint256",
							"name": "_tokenPrice",
							"type": "uint256"
						},
						{
							"internalType": "uint256",
							"name": "_maxTokens",
							"type": "uint256"
						}
					],
					"stateMutability": "nonpayable",
					"type": "constructor"
				},
				{
					"inputs": [
						{
							"internalType": "address",
							"name": "spender",
							"type": "address"
						},
						{
							"internalType": "uint256",
							"name": "allowance",
							"type": "uint256"
						},
						{
							"internalType": "uint256",
							"name": "needed",
							"type": "uint256"
						}
					],
					"name": "ERC20InsufficientAllowance",
					"type": "error"
				},
				{
					"inputs": [
						{
							"internalType": "address",
							"name": "sender",
							"type": "address"
						},
						{
							"internalType": "uint256",
							"name": "balance",
							"type": "uint256"
						},
						{
							"internalType": "uint256",
							"name": "needed",
							"type": "uint256"
						}
					],
					"name": "ERC20InsufficientBalance",
					"type": "error"
				},
				{
					"inputs": [
						{
							"internalType": "address",
							"name": "approver",
							"type": "address"
						}
					],
					"name": "ERC20InvalidApprover",
					"type": "error"
				},
				{
					"inputs": [
						{
							"internalType": "address",
							"name": "receiver",
							"type": "address"
						}
					],
					"name": "ERC20InvalidReceiver",
					"type": "error"
				},
				{
					"inputs": [
						{
							"internalType": "address",
							"name": "sender",
							"type": "address"
						}
					],
					"name": "ERC20InvalidSender",
					"type": "error"
				},
				{
					"inputs": [
						{
							"internalType": "address",
							"name": "spender",
							"type": "address"
						}
					],
					"name": "ERC20InvalidSpender",
					"type": "error"
				},
				{
					"anonymous": false,
					"inputs": [
						{
							"indexed": true,
							"internalType": "address",
							"name": "owner",
							"type": "address"
						},
						{
							"indexed": true,
							"internalType": "address",
							"name": "spender",
							"type": "address"
						},
						{
							"indexed": false,
							"internalType": "uint256",
							"name": "value",
							"type": "uint256"
						}
					],
					"name": "Approval",
					"type": "event"
				},
				{
					"anonymous": false,
					"inputs": [
						{
							"indexed": true,
							"internalType": "address",
							"name": "from",
							"type": "address"
						},
						{
							"indexed": true,
							"internalType": "address",
							"name": "to",
							"type": "address"
						},
						{
							"indexed": false,
							"internalType": "uint256",
							"name": "value",
							"type": "uint256"
						}
					],
					"name": "Transfer",
					"type": "event"
				},
				{
					"inputs": [
						{
							"internalType": "address",
							"name": "owner",
							"type": "address"
						},
						{
							"internalType": "address",
							"name": "spender",
							"type": "address"
						}
					],
					"name": "allowance",
					"outputs": [
						{
							"internalType": "uint256",
							"name": "",
							"type": "uint256"
						}
					],
					"stateMutability": "view",
					"type": "function"
				},
				{
					"inputs": [
						{
							"internalType": "address",
							"name": "spender",
							"type": "address"
						},
						{
							"internalType": "uint256",
							"name": "value",
							"type": "uint256"
						}
					],
					"name": "approve",
					"outputs": [
						{
							"internalType": "bool",
							"name": "",
							"type": "bool"
						}
					],
					"stateMutability": "nonpayable",
					"type": "function"
				},
				{
					"inputs": [
						{
							"internalType": "address",
							"name": "account",
							"type": "address"
						}
					],
					"name": "balanceOf",
					"outputs": [
						{
							"internalType": "uint256",
							"name": "",
							"type": "uint256"
						}
					],
					"stateMutability": "view",
					"type": "function"
				},
				{
					"inputs": [
						{
							"internalType": "address",
							"name": "destDir",
							"type": "address"
						},
						{
							"internalType": "uint256",
							"name": "tokensEliminados",
							"type": "uint256"
						}
					],
					"name": "burn",
					"outputs": [],
					"stateMutability": "nonpayable",
					"type": "function"
				},
				{
					"inputs": [],
					"name": "decimals",
					"outputs": [
						{
							"internalType": "uint8",
							"name": "",
							"type": "uint8"
						}
					],
					"stateMutability": "view",
					"type": "function"
				},
				{
					"inputs": [],
					"name": "maxTokens",
					"outputs": [
						{
							"internalType": "uint256",
							"name": "",
							"type": "uint256"
						}
					],
					"stateMutability": "view",
					"type": "function"
				},
				{
					"inputs": [
						{
							"internalType": "address",
							"name": "destDir",
							"type": "address"
						},
						{
							"internalType": "uint256",
							"name": "tokensEmitidos",
							"type": "uint256"
						}
					],
					"name": "mint",
					"outputs": [],
					"stateMutability": "nonpayable",
					"type": "function"
				},
				{
					"inputs": [],
					"name": "mintedTokens",
					"outputs": [
						{
							"internalType": "uint256",
							"name": "",
							"type": "uint256"
						}
					],
					"stateMutability": "view",
					"type": "function"
				},
				{
					"inputs": [],
					"name": "name",
					"outputs": [
						{
							"internalType": "string",
							"name": "",
							"type": "string"
						}
					],
					"stateMutability": "view",
					"type": "function"
				},
				{
					"inputs": [],
					"name": "symbol",
					"outputs": [
						{
							"internalType": "string",
							"name": "",
							"type": "string"
						}
					],
					"stateMutability": "view",
					"type": "function"
				},
				{
					"inputs": [],
					"name": "tokenPrice",
					"outputs": [
						{
							"internalType": "uint256",
							"name": "",
							"type": "uint256"
						}
					],
					"stateMutability": "view",
					"type": "function"
				},
				{
					"inputs": [],
					"name": "totalSupply",
					"outputs": [
						{
							"internalType": "uint256",
							"name": "",
							"type": "uint256"
						}
					],
					"stateMutability": "view",
					"type": "function"
				},
				{
					"inputs": [
						{
							"internalType": "address",
							"name": "to",
							"type": "address"
						},
						{
							"internalType": "uint256",
							"name": "value",
							"type": "uint256"
						}
					],
					"name": "transfer",
					"outputs": [
						{
							"internalType": "bool",
							"name": "",
							"type": "bool"
						}
					],
					"stateMutability": "nonpayable",
					"type": "function"
				},
				{
					"inputs": [
						{
							"internalType": "address",
							"name": "from",
							"type": "address"
						},
						{
							"internalType": "address",
							"name": "to",
							"type": "address"
						},
						{
							"internalType": "uint256",
							"name": "value",
							"type": "uint256"
						}
					],
					"name": "transferFrom",
					"outputs": [
						{
							"internalType": "bool",
							"name": "",
							"type": "bool"
						}
					],
					"stateMutability": "nonpayable",
					"type": "function"
				}
			],
			"devdoc": {
				"errors": {
					"ERC20InsufficientAllowance(address,uint256,uint256)": [
						{
							"details": "Indicates a failure with the `spender`’s `allowance`. Used in transfers.",
							"params": {
								"allowance": "Amount of tokens a `spender` is allowed to operate with.",
								"needed": "Minimum amount required to perform a transfer.",
								"spender": "Address that may be allowed to operate on tokens without being their owner."
							}
						}
					],
					"ERC20InsufficientBalance(address,uint256,uint256)": [
						{
							"details": "Indicates an error related to the current `balance` of a `sender`. Used in transfers.",
							"params": {
								"balance": "Current balance for the interacting account.",
								"needed": "Minimum amount required to perform a transfer.",
								"sender": "Address whose tokens are being transferred."
							}
						}
					],
					"ERC20InvalidApprover(address)": [
						{
							"details": "Indicates a failure with the `approver` of a token to be approved. Used in approvals.",
							"params": {
								"approver": "Address initiating an approval operation."
							}
						}
					],
					"ERC20InvalidReceiver(address)": [
						{
							"details": "Indicates a failure with the token `receiver`. Used in transfers.",
							"params": {
								"receiver": "Address to which tokens are being transferred."
							}
						}
					],
					"ERC20InvalidSender(address)": [
						{
							"details": "Indicates a failure with the token `sender`. Used in transfers.",
							"params": {
								"sender": "Address whose tokens are being transferred."
							}
						}
					],
					"ERC20InvalidSpender(address)": [
						{
							"details": "Indicates a failure with the `spender` to be approved. Used in approvals.",
							"params": {
								"spender": "Address that may be allowed to operate on tokens without being their owner."
							}
						}
					]
				},
				"events": {
					"Approval(address,address,uint256)": {
						"details": "Emitted when the allowance of a `spender` for an `owner` is set by a call to {approve}. `value` is the new allowance."
					},
					"Transfer(address,address,uint256)": {
						"details": "Emitted when `value` tokens are moved from one account (`from`) to another (`to`). Note that `value` may be zero."
					}
				},
				"kind": "dev",
				"methods": {
					"allowance(address,address)": {
						"details": "See {IERC20-allowance}."
					},
					"approve(address,uint256)": {
						"details": "See {IERC20-approve}. NOTE: If `value` is the maximum `uint256`, the allowance is not updated on `transferFrom`. This is semantically equivalent to an infinite approval. Requirements: - `spender` cannot be the zero address."
					},
					"balanceOf(address)": {
						"details": "See {IERC20-balanceOf}."
					},
					"decimals()": {
						"details": "Returns the number of decimals used to get its user representation. For example, if `decimals` equals `2`, a balance of `505` tokens should be displayed to a user as `5.05` (`505 / 10 ** 2`). Tokens usually opt for a value of 18, imitating the relationship between Ether and Wei. This is the default value returned by this function, unless it's overridden. NOTE: This information is only used for _display_ purposes: it in no way affects any of the arithmetic of the contract, including {IERC20-balanceOf} and {IERC20-transfer}."
					},
					"name()": {
						"details": "Returns the name of the token."
					},
					"symbol()": {
						"details": "Returns the symbol of the token, usually a shorter version of the name."
					},
					"totalSupply()": {
						"details": "See {IERC20-totalSupply}."
					},
					"transfer(address,uint256)": {
						"details": "See {IERC20-transfer}. Requirements: - `to` cannot be the zero address. - the caller must have a balance of at least `value`."
					},
					"transferFrom(address,address,uint256)": {
						"details": "See {IERC20-transferFrom}. Skips emitting an {Approval} event indicating an allowance update. This is not required by the ERC. See {xref-ERC20-_approve-address-address-uint256-bool-}[_approve]. NOTE: Does not update the allowance if the current allowance is the maximum `uint256`. Requirements: - `from` and `to` cannot be the zero address. - `from` must have a balance of at least `value`. - the caller must have allowance for ``from``'s tokens of at least `value`."
					}
				},
				"version": 1
			},
			"evm": {
				"assembly": "    /* \"PRACTICA FINAL/archivo1.sol\":631:2503  contract VotingContract is ERC20{... */\n  mstore(0x40, 0xc0)\n    /* \"PRACTICA FINAL/archivo1.sol\":993:1362  constructor(string memory name, string memory symbol, uint256 _tokenPrice, uint256 _maxTokens)ERC20(name,symbol){... */\n  callvalue\n  dup1\n  iszero\n  tag_1\n  jumpi\n  0x00\n  dup1\n  revert\ntag_1:\n  pop\n  mload(0x40)\n  sub(codesize, bytecodeSize)\n  dup1\n  bytecodeSize\n  dup4\n  codecopy\n  dup2\n  dup2\n  add\n  0x40\n  mstore\n  dup2\n  add\n  swap1\n  tag_2\n  swap2\n  swap1\n  tag_3\n  jump\t// in\ntag_2:\n    /* \"PRACTICA FINAL/archivo1.sol\":1093:1097  name */\n  dup4\n    /* \"PRACTICA FINAL/archivo1.sol\":1098:1104  symbol */\n  dup4\n    /* \"https://github.com/OpenZeppelin/openzeppelin-contracts/blob/master/contracts/token/ERC20/ERC20.sol\":1656:1661  name_ */\n  dup2\n    /* \"https://github.com/OpenZeppelin/openzeppelin-contracts/blob/master/contracts/token/ERC20/ERC20.sol\":1648:1653  _name */\n  0x03\n    /* \"https://github.com/OpenZeppelin/openzeppelin-contracts/blob/master/contracts/token/ERC20/ERC20.sol\":1648:1661  _name = name_ */\n  swap1\n  dup2\n  tag_7\n  swap2\n  swap1\n  tag_8\n  jump\t// in\ntag_7:\n  pop\n    /* \"https://github.com/OpenZeppelin/openzeppelin-contracts/blob/master/contracts/token/ERC20/ERC20.sol\":1681:1688  symbol_ */\n  dup1\n    /* \"https://github.com/OpenZeppelin/openzeppelin-contracts/blob/master/contracts/token/ERC20/ERC20.sol\":1671:1678  _symbol */\n  0x04\n    /* \"https://github.com/OpenZeppelin/openzeppelin-contracts/blob/master/contracts/token/ERC20/ERC20.sol\":1671:1688  _symbol = symbol_ */\n  swap1\n  dup2\n  tag_9\n  swap2\n  swap1\n  tag_8\n  jump\t// in\ntag_9:\n  pop\n    /* \"https://github.com/OpenZeppelin/openzeppelin-contracts/blob/master/contracts/token/ERC20/ERC20.sol\":1582:1695  constructor(string memory name_, string memory symbol_) {... */\n  pop\n  pop\n    /* \"PRACTICA FINAL/archivo1.sol\":1137:1138  0 */\n  0x00\n    /* \"PRACTICA FINAL/archivo1.sol\":1124:1135  _tokenPrice */\n  dup3\n    /* \"PRACTICA FINAL/archivo1.sol\":1124:1138  _tokenPrice >0 */\n  gt\n    /* \"PRACTICA FINAL/archivo1.sol\":1116:1180  require(_tokenPrice >0, \"El precio no puede ser menor que cero\") */\n  tag_11\n  jumpi\n  mload(0x40)\n  0x08c379a000000000000000000000000000000000000000000000000000000000\n  dup2\n  mstore\n  0x04\n  add\n  tag_12\n  swap1\n  tag_13\n  jump\t// in\ntag_12:\n  mload(0x40)\n  dup1\n  swap2\n  sub\n  swap1\n  revert\ntag_11:\n    /* \"PRACTICA FINAL/archivo1.sol\":1211:1212  0 */\n  0x00\n    /* \"PRACTICA FINAL/archivo1.sol\":1199:1209  _maxTokens */\n  dup2\n    /* \"PRACTICA FINAL/archivo1.sol\":1199:1212  _maxTokens >0 */\n  gt\n    /* \"PRACTICA FINAL/archivo1.sol\":1191:1264  require(_maxTokens >0 ,\"El maximo de tokens no puede ser menor que cero\") */\n  tag_14\n  jumpi\n  mload(0x40)\n  0x08c379a000000000000000000000000000000000000000000000000000000000\n  dup2\n  mstore\n  0x04\n  add\n  tag_15\n  swap1\n  tag_16\n  jump\t// in\ntag_15:\n  mload(0x40)\n  dup1\n  swap2\n  sub\n  swap1\n  revert\ntag_14:\n    /* \"PRACTICA FINAL/archivo1.sol\":1286:1297  _tokenPrice */\n  dup2\n    /* \"PRACTICA FINAL/archivo1.sol\":1275:1297  tokenPrice=_tokenPrice */\n  0x80\n  dup2\n  dup2\n  mstore\n  pop\n  pop\n    /* \"PRACTICA FINAL/archivo1.sol\":1318:1328  _maxTokens */\n  dup1\n    /* \"PRACTICA FINAL/archivo1.sol\":1308:1328  maxTokens=_maxTokens */\n  0xa0\n  dup2\n  dup2\n  mstore\n  pop\n  pop\n    /* \"PRACTICA FINAL/archivo1.sol\":1353:1354  0 */\n  0x00\n    /* \"PRACTICA FINAL/archivo1.sol\":1340:1352  mintedTokens */\n  0x05\n    /* \"PRACTICA FINAL/archivo1.sol\":1340:1354  mintedTokens=0 */\n  dup2\n  swap1\n  sstore\n  pop\n    /* \"PRACTICA FINAL/archivo1.sol\":993:1362  constructor(string memory name, string memory symbol, uint256 _tokenPrice, uint256 _maxTokens)ERC20(name,symbol){... */\n  pop\n  pop\n  pop\n  pop\n    /* \"PRACTICA FINAL/archivo1.sol\":631:2503  contract VotingContract is ERC20{... */\n  jump(tag_17)\n    /* \"#utility.yul\":7:82   */\ntag_18:\n    /* \"#utility.yul\":40:46   */\n  0x00\n    /* \"#utility.yul\":73:75   */\n  0x40\n    /* \"#utility.yul\":67:76   */\n  mload\n    /* \"#utility.yul\":57:76   */\n  swap1\n  pop\n    /* \"#utility.yul\":7:82   */\n  swap1\n  jump\t// out\n    /* \"#utility.yul\":88:205   */\ntag_19:\n    /* \"#utility.yul\":197:198   */\n  0x00\n    /* \"#utility.yul\":194:195   */\n  dup1\n    /* \"#utility.yul\":187:199   */\n  revert\n    /* \"#utility.yul\":211:328   */\ntag_20:\n    /* \"#utility.yul\":320:321   */\n  0x00\n    /* \"#utility.yul\":317:318   */\n  dup1\n    /* \"#utility.yul\":310:322   */\n  revert\n    /* \"#utility.yul\":334:451   */\ntag_21:\n    /* \"#utility.yul\":443:444   */\n  0x00\n    /* \"#utility.yul\":440:441   */\n  dup1\n    /* \"#utility.yul\":433:445   */\n  revert\n    /* \"#utility.yul\":457:574   */\ntag_22:\n    /* \"#utility.yul\":566:567   */\n  0x00\n    /* \"#utility.yul\":563:564   */\n  dup1\n    /* \"#utility.yul\":556:568   */\n  revert\n    /* \"#utility.yul\":580:682   */\ntag_23:\n    /* \"#utility.yul\":621:627   */\n  0x00\n    /* \"#utility.yul\":672:674   */\n  0x1f\n    /* \"#utility.yul\":668:675   */\n  not\n    /* \"#utility.yul\":663:665   */\n  0x1f\n    /* \"#utility.yul\":656:661   */\n  dup4\n    /* \"#utility.yul\":652:666   */\n  add\n    /* \"#utility.yul\":648:676   */\n  and\n    /* \"#utility.yul\":638:676   */\n  swap1\n  pop\n    /* \"#utility.yul\":580:682   */\n  swap2\n  swap1\n  pop\n  jump\t// out\n    /* \"#utility.yul\":688:868   */\ntag_24:\n    /* \"#utility.yul\":736:813   */\n  0x4e487b7100000000000000000000000000000000000000000000000000000000\n    /* \"#utility.yul\":733:734   */\n  0x00\n    /* \"#utility.yul\":726:814   */\n  mstore\n    /* \"#utility.yul\":833:837   */\n  0x41\n    /* \"#utility.yul\":830:831   */\n  0x04\n    /* \"#utility.yul\":823:838   */\n  mstore\n    /* \"#utility.yul\":857:861   */\n  0x24\n    /* \"#utility.yul\":854:855   */\n  0x00\n    /* \"#utility.yul\":847:862   */\n  revert\n    /* \"#utility.yul\":874:1155   */\ntag_25:\n    /* \"#utility.yul\":957:984   */\n  tag_66\n    /* \"#utility.yul\":979:983   */\n  dup3\n    /* \"#utility.yul\":957:984   */\n  tag_23\n  jump\t// in\ntag_66:\n    /* \"#utility.yul\":949:955   */\n  dup2\n    /* \"#utility.yul\":945:985   */\n  add\n    /* \"#utility.yul\":1087:1093   */\n  dup2\n    /* \"#utility.yul\":1075:1085   */\n  dup2\n    /* \"#utility.yul\":1072:1094   */\n  lt\n    /* \"#utility.yul\":1051:1069   */\n  0xffffffffffffffff\n    /* \"#utility.yul\":1039:1049   */\n  dup3\n    /* \"#utility.yul\":1036:1070   */\n  gt\n    /* \"#utility.yul\":1033:1095   */\n  or\n    /* \"#utility.yul\":1030:1118   */\n  iszero\n  tag_67\n  jumpi\n    /* \"#utility.yul\":1098:1116   */\n  tag_68\n  tag_24\n  jump\t// in\ntag_68:\n    /* \"#utility.yul\":1030:1118   */\ntag_67:\n    /* \"#utility.yul\":1138:1148   */\n  dup1\n    /* \"#utility.yul\":1134:1136   */\n  0x40\n    /* \"#utility.yul\":1127:1149   */\n  mstore\n    /* \"#utility.yul\":917:1155   */\n  pop\n    /* \"#utility.yul\":874:1155   */\n  pop\n  pop\n  jump\t// out\n    /* \"#utility.yul\":1161:1290   */\ntag_26:\n    /* \"#utility.yul\":1195:1201   */\n  0x00\n    /* \"#utility.yul\":1222:1242   */\n  tag_70\n  tag_18\n  jump\t// in\ntag_70:\n    /* \"#utility.yul\":1212:1242   */\n  swap1\n  pop\n    /* \"#utility.yul\":1251:1284   */\n  tag_71\n    /* \"#utility.yul\":1279:1283   */\n  dup3\n    /* \"#utility.yul\":1271:1277   */\n  dup3\n    /* \"#utility.yul\":1251:1284   */\n  tag_25\n  jump\t// in\ntag_71:\n    /* \"#utility.yul\":1161:1290   */\n  swap2\n  swap1\n  pop\n  jump\t// out\n    /* \"#utility.yul\":1296:1604   */\ntag_27:\n    /* \"#utility.yul\":1358:1362   */\n  0x00\n    /* \"#utility.yul\":1448:1466   */\n  0xffffffffffffffff\n    /* \"#utility.yul\":1440:1446   */\n  dup3\n    /* \"#utility.yul\":1437:1467   */\n  gt\n    /* \"#utility.yul\":1434:1490   */\n  iszero\n  tag_73\n  jumpi\n    /* \"#utility.yul\":1470:1488   */\n  tag_74\n  tag_24\n  jump\t// in\ntag_74:\n    /* \"#utility.yul\":1434:1490   */\ntag_73:\n    /* \"#utility.yul\":1508:1537   */\n  tag_75\n    /* \"#utility.yul\":1530:1536   */\n  dup3\n    /* \"#utility.yul\":1508:1537   */\n  tag_23\n  jump\t// in\ntag_75:\n    /* \"#utility.yul\":1500:1537   */\n  swap1\n  pop\n    /* \"#utility.yul\":1592:1596   */\n  0x20\n    /* \"#utility.yul\":1586:1590   */\n  dup2\n    /* \"#utility.yul\":1582:1597   */\n  add\n    /* \"#utility.yul\":1574:1597   */\n  swap1\n  pop\n    /* \"#utility.yul\":1296:1604   */\n  swap2\n  swap1\n  pop\n  jump\t// out\n    /* \"#utility.yul\":1610:1749   */\ntag_28:\n    /* \"#utility.yul\":1699:1705   */\n  dup3\n    /* \"#utility.yul\":1694:1697   */\n  dup2\n    /* \"#utility.yul\":1689:1692   */\n  dup4\n    /* \"#utility.yul\":1683:1706   */\n  mcopy\n    /* \"#utility.yul\":1740:1741   */\n  0x00\n    /* \"#utility.yul\":1731:1737   */\n  dup4\n    /* \"#utility.yul\":1726:1729   */\n  dup4\n    /* \"#utility.yul\":1722:1738   */\n  add\n    /* \"#utility.yul\":1715:1742   */\n  mstore\n    /* \"#utility.yul\":1610:1749   */\n  pop\n  pop\n  pop\n  jump\t// out\n    /* \"#utility.yul\":1755:2189   */\ntag_29:\n    /* \"#utility.yul\":1844:1849   */\n  0x00\n    /* \"#utility.yul\":1869:1935   */\n  tag_78\n    /* \"#utility.yul\":1885:1934   */\n  tag_79\n    /* \"#utility.yul\":1927:1933   */\n  dup5\n    /* \"#utility.yul\":1885:1934   */\n  tag_27\n  jump\t// in\ntag_79:\n    /* \"#utility.yul\":1869:1935   */\n  tag_26\n  jump\t// in\ntag_78:\n    /* \"#utility.yul\":1860:1935   */\n  swap1\n  pop\n    /* \"#utility.yul\":1958:1964   */\n  dup3\n    /* \"#utility.yul\":1951:1956   */\n  dup2\n    /* \"#utility.yul\":1944:1965   */\n  mstore\n    /* \"#utility.yul\":1996:2000   */\n  0x20\n    /* \"#utility.yul\":1989:1994   */\n  dup2\n    /* \"#utility.yul\":1985:2001   */\n  add\n    /* \"#utility.yul\":2034:2037   */\n  dup5\n    /* \"#utility.yul\":2025:2031   */\n  dup5\n    /* \"#utility.yul\":2020:2023   */\n  dup5\n    /* \"#utility.yul\":2016:2032   */\n  add\n    /* \"#utility.yul\":2013:2038   */\n  gt\n    /* \"#utility.yul\":2010:2122   */\n  iszero\n  tag_80\n  jumpi\n    /* \"#utility.yul\":2041:2120   */\n  tag_81\n  tag_22\n  jump\t// in\ntag_81:\n    /* \"#utility.yul\":2010:2122   */\ntag_80:\n    /* \"#utility.yul\":2131:2183   */\n  tag_82\n    /* \"#utility.yul\":2176:2182   */\n  dup5\n    /* \"#utility.yul\":2171:2174   */\n  dup3\n    /* \"#utility.yul\":2166:2169   */\n  dup6\n    /* \"#utility.yul\":2131:2183   */\n  tag_28\n  jump\t// in\ntag_82:\n    /* \"#utility.yul\":1850:2189   */\n  pop\n    /* \"#utility.yul\":1755:2189   */\n  swap4\n  swap3\n  pop\n  pop\n  pop\n  jump\t// out\n    /* \"#utility.yul\":2209:2564   */\ntag_30:\n    /* \"#utility.yul\":2276:2281   */\n  0x00\n    /* \"#utility.yul\":2325:2328   */\n  dup3\n    /* \"#utility.yul\":2318:2322   */\n  0x1f\n    /* \"#utility.yul\":2310:2316   */\n  dup4\n    /* \"#utility.yul\":2306:2323   */\n  add\n    /* \"#utility.yul\":2302:2329   */\n  slt\n    /* \"#utility.yul\":2292:2414   */\n  tag_84\n  jumpi\n    /* \"#utility.yul\":2333:2412   */\n  tag_85\n  tag_21\n  jump\t// in\ntag_85:\n    /* \"#utility.yul\":2292:2414   */\ntag_84:\n    /* \"#utility.yul\":2443:2449   */\n  dup2\n    /* \"#utility.yul\":2437:2450   */\n  mload\n    /* \"#utility.yul\":2468:2558   */\n  tag_86\n    /* \"#utility.yul\":2554:2557   */\n  dup5\n    /* \"#utility.yul\":2546:2552   */\n  dup3\n    /* \"#utility.yul\":2539:2543   */\n  0x20\n    /* \"#utility.yul\":2531:2537   */\n  dup7\n    /* \"#utility.yul\":2527:2544   */\n  add\n    /* \"#utility.yul\":2468:2558   */\n  tag_29\n  jump\t// in\ntag_86:\n    /* \"#utility.yul\":2459:2558   */\n  swap2\n  pop\n    /* \"#utility.yul\":2282:2564   */\n  pop\n    /* \"#utility.yul\":2209:2564   */\n  swap3\n  swap2\n  pop\n  pop\n  jump\t// out\n    /* \"#utility.yul\":2570:2647   */\ntag_31:\n    /* \"#utility.yul\":2607:2614   */\n  0x00\n    /* \"#utility.yul\":2636:2641   */\n  dup2\n    /* \"#utility.yul\":2625:2641   */\n  swap1\n  pop\n    /* \"#utility.yul\":2570:2647   */\n  swap2\n  swap1\n  pop\n  jump\t// out\n    /* \"#utility.yul\":2653:2775   */\ntag_32:\n    /* \"#utility.yul\":2726:2750   */\n  tag_89\n    /* \"#utility.yul\":2744:2749   */\n  dup2\n    /* \"#utility.yul\":2726:2750   */\n  tag_31\n  jump\t// in\ntag_89:\n    /* \"#utility.yul\":2719:2724   */\n  dup2\n    /* \"#utility.yul\":2716:2751   */\n  eq\n    /* \"#utility.yul\":2706:2769   */\n  tag_90\n  jumpi\n    /* \"#utility.yul\":2765:2766   */\n  0x00\n    /* \"#utility.yul\":2762:2763   */\n  dup1\n    /* \"#utility.yul\":2755:2767   */\n  revert\n    /* \"#utility.yul\":2706:2769   */\ntag_90:\n    /* \"#utility.yul\":2653:2775   */\n  pop\n  jump\t// out\n    /* \"#utility.yul\":2781:2924   */\ntag_33:\n    /* \"#utility.yul\":2838:2843   */\n  0x00\n    /* \"#utility.yul\":2869:2875   */\n  dup2\n    /* \"#utility.yul\":2863:2876   */\n  mload\n    /* \"#utility.yul\":2854:2876   */\n  swap1\n  pop\n    /* \"#utility.yul\":2885:2918   */\n  tag_92\n    /* \"#utility.yul\":2912:2917   */\n  dup2\n    /* \"#utility.yul\":2885:2918   */\n  tag_32\n  jump\t// in\ntag_92:\n    /* \"#utility.yul\":2781:2924   */\n  swap3\n  swap2\n  pop\n  pop\n  jump\t// out\n    /* \"#utility.yul\":2930:4096   */\ntag_3:\n    /* \"#utility.yul\":3047:3053   */\n  0x00\n    /* \"#utility.yul\":3055:3061   */\n  dup1\n    /* \"#utility.yul\":3063:3069   */\n  0x00\n    /* \"#utility.yul\":3071:3077   */\n  dup1\n    /* \"#utility.yul\":3120:3123   */\n  0x80\n    /* \"#utility.yul\":3108:3117   */\n  dup6\n    /* \"#utility.yul\":3099:3106   */\n  dup8\n    /* \"#utility.yul\":3095:3118   */\n  sub\n    /* \"#utility.yul\":3091:3124   */\n  slt\n    /* \"#utility.yul\":3088:3208   */\n  iszero\n  tag_94\n  jumpi\n    /* \"#utility.yul\":3127:3206   */\n  tag_95\n  tag_19\n  jump\t// in\ntag_95:\n    /* \"#utility.yul\":3088:3208   */\ntag_94:\n    /* \"#utility.yul\":3268:3269   */\n  0x00\n    /* \"#utility.yul\":3257:3266   */\n  dup6\n    /* \"#utility.yul\":3253:3270   */\n  add\n    /* \"#utility.yul\":3247:3271   */\n  mload\n    /* \"#utility.yul\":3298:3316   */\n  0xffffffffffffffff\n    /* \"#utility.yul\":3290:3296   */\n  dup2\n    /* \"#utility.yul\":3287:3317   */\n  gt\n    /* \"#utility.yul\":3284:3401   */\n  iszero\n  tag_96\n  jumpi\n    /* \"#utility.yul\":3320:3399   */\n  tag_97\n  tag_20\n  jump\t// in\ntag_97:\n    /* \"#utility.yul\":3284:3401   */\ntag_96:\n    /* \"#utility.yul\":3425:3499   */\n  tag_98\n    /* \"#utility.yul\":3491:3498   */\n  dup8\n    /* \"#utility.yul\":3482:3488   */\n  dup3\n    /* \"#utility.yul\":3471:3480   */\n  dup9\n    /* \"#utility.yul\":3467:3489   */\n  add\n    /* \"#utility.yul\":3425:3499   */\n  tag_30\n  jump\t// in\ntag_98:\n    /* \"#utility.yul\":3415:3499   */\n  swap5\n  pop\n    /* \"#utility.yul\":3218:3509   */\n  pop\n    /* \"#utility.yul\":3569:3571   */\n  0x20\n    /* \"#utility.yul\":3558:3567   */\n  dup6\n    /* \"#utility.yul\":3554:3572   */\n  add\n    /* \"#utility.yul\":3548:3573   */\n  mload\n    /* \"#utility.yul\":3600:3618   */\n  0xffffffffffffffff\n    /* \"#utility.yul\":3592:3598   */\n  dup2\n    /* \"#utility.yul\":3589:3619   */\n  gt\n    /* \"#utility.yul\":3586:3703   */\n  iszero\n  tag_99\n  jumpi\n    /* \"#utility.yul\":3622:3701   */\n  tag_100\n  tag_20\n  jump\t// in\ntag_100:\n    /* \"#utility.yul\":3586:3703   */\ntag_99:\n    /* \"#utility.yul\":3727:3801   */\n  tag_101\n    /* \"#utility.yul\":3793:3800   */\n  dup8\n    /* \"#utility.yul\":3784:3790   */\n  dup3\n    /* \"#utility.yul\":3773:3782   */\n  dup9\n    /* \"#utility.yul\":3769:3791   */\n  add\n    /* \"#utility.yul\":3727:3801   */\n  tag_30\n  jump\t// in\ntag_101:\n    /* \"#utility.yul\":3717:3801   */\n  swap4\n  pop\n    /* \"#utility.yul\":3519:3811   */\n  pop\n    /* \"#utility.yul\":3850:3852   */\n  0x40\n    /* \"#utility.yul\":3876:3940   */\n  tag_102\n    /* \"#utility.yul\":3932:3939   */\n  dup8\n    /* \"#utility.yul\":3923:3929   */\n  dup3\n    /* \"#utility.yul\":3912:3921   */\n  dup9\n    /* \"#utility.yul\":3908:3930   */\n  add\n    /* \"#utility.yul\":3876:3940   */\n  tag_33\n  jump\t// in\ntag_102:\n    /* \"#utility.yul\":3866:3940   */\n  swap3\n  pop\n    /* \"#utility.yul\":3821:3950   */\n  pop\n    /* \"#utility.yul\":3989:3991   */\n  0x60\n    /* \"#utility.yul\":4015:4079   */\n  tag_103\n    /* \"#utility.yul\":4071:4078   */\n  dup8\n    /* \"#utility.yul\":4062:4068   */\n  dup3\n    /* \"#utility.yul\":4051:4060   */\n  dup9\n    /* \"#utility.yul\":4047:4069   */\n  add\n    /* \"#utility.yul\":4015:4079   */\n  tag_33\n  jump\t// in\ntag_103:\n    /* \"#utility.yul\":4005:4079   */\n  swap2\n  pop\n    /* \"#utility.yul\":3960:4089   */\n  pop\n    /* \"#utility.yul\":2930:4096   */\n  swap3\n  swap6\n  swap2\n  swap5\n  pop\n  swap3\n  pop\n  jump\t// out\n    /* \"#utility.yul\":4102:4201   */\ntag_34:\n    /* \"#utility.yul\":4154:4160   */\n  0x00\n    /* \"#utility.yul\":4188:4193   */\n  dup2\n    /* \"#utility.yul\":4182:4194   */\n  mload\n    /* \"#utility.yul\":4172:4194   */\n  swap1\n  pop\n    /* \"#utility.yul\":4102:4201   */\n  swap2\n  swap1\n  pop\n  jump\t// out\n    /* \"#utility.yul\":4207:4387   */\ntag_35:\n    /* \"#utility.yul\":4255:4332   */\n  0x4e487b7100000000000000000000000000000000000000000000000000000000\n    /* \"#utility.yul\":4252:4253   */\n  0x00\n    /* \"#utility.yul\":4245:4333   */\n  mstore\n    /* \"#utility.yul\":4352:4356   */\n  0x22\n    /* \"#utility.yul\":4349:4350   */\n  0x04\n    /* \"#utility.yul\":4342:4357   */\n  mstore\n    /* \"#utility.yul\":4376:4380   */\n  0x24\n    /* \"#utility.yul\":4373:4374   */\n  0x00\n    /* \"#utility.yul\":4366:4381   */\n  revert\n    /* \"#utility.yul\":4393:4713   */\ntag_36:\n    /* \"#utility.yul\":4437:4443   */\n  0x00\n    /* \"#utility.yul\":4474:4475   */\n  0x02\n    /* \"#utility.yul\":4468:4472   */\n  dup3\n    /* \"#utility.yul\":4464:4476   */\n  div\n    /* \"#utility.yul\":4454:4476   */\n  swap1\n  pop\n    /* \"#utility.yul\":4521:4522   */\n  0x01\n    /* \"#utility.yul\":4515:4519   */\n  dup3\n    /* \"#utility.yul\":4511:4523   */\n  and\n    /* \"#utility.yul\":4542:4560   */\n  dup1\n    /* \"#utility.yul\":4532:4613   */\n  tag_107\n  jumpi\n    /* \"#utility.yul\":4598:4602   */\n  0x7f\n    /* \"#utility.yul\":4590:4596   */\n  dup3\n    /* \"#utility.yul\":4586:4603   */\n  and\n    /* \"#utility.yul\":4576:4603   */\n  swap2\n  pop\n    /* \"#utility.yul\":4532:4613   */\ntag_107:\n    /* \"#utility.yul\":4660:4662   */\n  0x20\n    /* \"#utility.yul\":4652:4658   */\n  dup3\n    /* \"#utility.yul\":4649:4663   */\n  lt\n    /* \"#utility.yul\":4629:4647   */\n  dup2\n    /* \"#utility.yul\":4626:4664   */\n  sub\n    /* \"#utility.yul\":4623:4707   */\n  tag_108\n  jumpi\n    /* \"#utility.yul\":4679:4697   */\n  tag_109\n  tag_35\n  jump\t// in\ntag_109:\n    /* \"#utility.yul\":4623:4707   */\ntag_108:\n    /* \"#utility.yul\":4444:4713   */\n  pop\n    /* \"#utility.yul\":4393:4713   */\n  swap2\n  swap1\n  pop\n  jump\t// out\n    /* \"#utility.yul\":4719:4860   */\ntag_37:\n    /* \"#utility.yul\":4768:4772   */\n  0x00\n    /* \"#utility.yul\":4791:4794   */\n  dup2\n    /* \"#utility.yul\":4783:4794   */\n  swap1\n  pop\n    /* \"#utility.yul\":4814:4817   */\n  dup2\n    /* \"#utility.yul\":4811:4812   */\n  0x00\n    /* \"#utility.yul\":4804:4818   */\n  mstore\n    /* \"#utility.yul\":4848:4852   */\n  0x20\n    /* \"#utility.yul\":4845:4846   */\n  0x00\n    /* \"#utility.yul\":4835:4853   */\n  keccak256\n    /* \"#utility.yul\":4827:4853   */\n  swap1\n  pop\n    /* \"#utility.yul\":4719:4860   */\n  swap2\n  swap1\n  pop\n  jump\t// out\n    /* \"#utility.yul\":4866:4959   */\ntag_38:\n    /* \"#utility.yul\":4903:4909   */\n  0x00\n    /* \"#utility.yul\":4950:4952   */\n  0x20\n    /* \"#utility.yul\":4945:4947   */\n  0x1f\n    /* \"#utility.yul\":4938:4943   */\n  dup4\n    /* \"#utility.yul\":4934:4948   */\n  add\n    /* \"#utility.yul\":4930:4953   */\n  div\n    /* \"#utility.yul\":4920:4953   */\n  swap1\n  pop\n    /* \"#utility.yul\":4866:4959   */\n  swap2\n  swap1\n  pop\n  jump\t// out\n    /* \"#utility.yul\":4965:5072   */\ntag_39:\n    /* \"#utility.yul\":5009:5017   */\n  0x00\n    /* \"#utility.yul\":5059:5064   */\n  dup3\n    /* \"#utility.yul\":5053:5057   */\n  dup3\n    /* \"#utility.yul\":5049:5065   */\n  shl\n    /* \"#utility.yul\":5028:5065   */\n  swap1\n  pop\n    /* \"#utility.yul\":4965:5072   */\n  swap3\n  swap2\n  pop\n  pop\n  jump\t// out\n    /* \"#utility.yul\":5078:5471   */\ntag_40:\n    /* \"#utility.yul\":5147:5153   */\n  0x00\n    /* \"#utility.yul\":5197:5198   */\n  0x08\n    /* \"#utility.yul\":5185:5195   */\n  dup4\n    /* \"#utility.yul\":5181:5199   */\n  mul\n    /* \"#utility.yul\":5220:5317   */\n  tag_114\n    /* \"#utility.yul\":5250:5316   */\n  0xffffffffffffffffffffffffffffffffffffffffffffffffffffffffffffffff\n    /* \"#utility.yul\":5239:5248   */\n  dup3\n    /* \"#utility.yul\":5220:5317   */\n  tag_39\n  jump\t// in\ntag_114:\n    /* \"#utility.yul\":5338:5377   */\n  tag_115\n    /* \"#utility.yul\":5368:5376   */\n  dup7\n    /* \"#utility.yul\":5357:5366   */\n  dup4\n    /* \"#utility.yul\":5338:5377   */\n  tag_39\n  jump\t// in\ntag_115:\n    /* \"#utility.yul\":5326:5377   */\n  swap6\n  pop\n    /* \"#utility.yul\":5410:5414   */\n  dup1\n    /* \"#utility.yul\":5406:5415   */\n  not\n    /* \"#utility.yul\":5399:5404   */\n  dup5\n    /* \"#utility.yul\":5395:5416   */\n  and\n    /* \"#utility.yul\":5386:5416   */\n  swap4\n  pop\n    /* \"#utility.yul\":5459:5463   */\n  dup1\n    /* \"#utility.yul\":5449:5457   */\n  dup7\n    /* \"#utility.yul\":5445:5464   */\n  and\n    /* \"#utility.yul\":5438:5443   */\n  dup5\n    /* \"#utility.yul\":5435:5465   */\n  or\n    /* \"#utility.yul\":5425:5465   */\n  swap3\n  pop\n    /* \"#utility.yul\":5154:5471   */\n  pop\n  pop\n    /* \"#utility.yul\":5078:5471   */\n  swap4\n  swap3\n  pop\n  pop\n  pop\n  jump\t// out\n    /* \"#utility.yul\":5477:5537   */\ntag_41:\n    /* \"#utility.yul\":5505:5508   */\n  0x00\n    /* \"#utility.yul\":5526:5531   */\n  dup2\n    /* \"#utility.yul\":5519:5531   */\n  swap1\n  pop\n    /* \"#utility.yul\":5477:5537   */\n  swap2\n  swap1\n  pop\n  jump\t// out\n    /* \"#utility.yul\":5543:5685   */\ntag_42:\n    /* \"#utility.yul\":5593:5602   */\n  0x00\n    /* \"#utility.yul\":5626:5679   */\n  tag_118\n    /* \"#utility.yul\":5644:5678   */\n  tag_119\n    /* \"#utility.yul\":5653:5677   */\n  tag_120\n    /* \"#utility.yul\":5671:5676   */\n  dup5\n    /* \"#utility.yul\":5653:5677   */\n  tag_31\n  jump\t// in\ntag_120:\n    /* \"#utility.yul\":5644:5678   */\n  tag_41\n  jump\t// in\ntag_119:\n    /* \"#utility.yul\":5626:5679   */\n  tag_31\n  jump\t// in\ntag_118:\n    /* \"#utility.yul\":5613:5679   */\n  swap1\n  pop\n    /* \"#utility.yul\":5543:5685   */\n  swap2\n  swap1\n  pop\n  jump\t// out\n    /* \"#utility.yul\":5691:5766   */\ntag_43:\n    /* \"#utility.yul\":5734:5737   */\n  0x00\n    /* \"#utility.yul\":5755:5760   */\n  dup2\n    /* \"#utility.yul\":5748:5760   */\n  swap1\n  pop\n    /* \"#utility.yul\":5691:5766   */\n  swap2\n  swap1\n  pop\n  jump\t// out\n    /* \"#utility.yul\":5772:6041   */\ntag_44:\n    /* \"#utility.yul\":5882:5921   */\n  tag_123\n    /* \"#utility.yul\":5913:5920   */\n  dup4\n    /* \"#utility.yul\":5882:5921   */\n  tag_42\n  jump\t// in\ntag_123:\n    /* \"#utility.yul\":5943:6034   */\n  tag_124\n    /* \"#utility.yul\":5992:6033   */\n  tag_125\n    /* \"#utility.yul\":6016:6032   */\n  dup3\n    /* \"#utility.yul\":5992:6033   */\n  tag_43\n  jump\t// in\ntag_125:\n    /* \"#utility.yul\":5984:5990   */\n  dup5\n    /* \"#utility.yul\":5977:5981   */\n  dup5\n    /* \"#utility.yul\":5971:5982   */\n  sload\n    /* \"#utility.yul\":5943:6034   */\n  tag_40\n  jump\t// in\ntag_124:\n    /* \"#utility.yul\":5937:5941   */\n  dup3\n    /* \"#utility.yul\":5930:6035   */\n  sstore\n    /* \"#utility.yul\":5848:6041   */\n  pop\n    /* \"#utility.yul\":5772:6041   */\n  pop\n  pop\n  pop\n  jump\t// out\n    /* \"#utility.yul\":6047:6120   */\ntag_45:\n    /* \"#utility.yul\":6092:6095   */\n  0x00\n    /* \"#utility.yul\":6047:6120   */\n  swap1\n  jump\t// out\n    /* \"#utility.yul\":6126:6315   */\ntag_46:\n    /* \"#utility.yul\":6203:6235   */\n  tag_128\n  tag_45\n  jump\t// in\ntag_128:\n    /* \"#utility.yul\":6244:6309   */\n  tag_129\n    /* \"#utility.yul\":6302:6308   */\n  dup2\n    /* \"#utility.yul\":6294:6300   */\n  dup5\n    /* \"#utility.yul\":6288:6292   */\n  dup5\n    /* \"#utility.yul\":6244:6309   */\n  tag_44\n  jump\t// in\ntag_129:\n    /* \"#utility.yul\":6179:6315   */\n  pop\n    /* \"#utility.yul\":6126:6315   */\n  pop\n  pop\n  jump\t// out\n    /* \"#utility.yul\":6321:6507   */\ntag_47:\n    /* \"#utility.yul\":6381:6501   */\ntag_131:\n    /* \"#utility.yul\":6398:6401   */\n  dup2\n    /* \"#utility.yul\":6391:6396   */\n  dup2\n    /* \"#utility.yul\":6388:6402   */\n  lt\n    /* \"#utility.yul\":6381:6501   */\n  iszero\n  tag_133\n  jumpi\n    /* \"#utility.yul\":6452:6491   */\n  tag_134\n    /* \"#utility.yul\":6489:6490   */\n  0x00\n    /* \"#utility.yul\":6482:6487   */\n  dup3\n    /* \"#utility.yul\":6452:6491   */\n  tag_46\n  jump\t// in\ntag_134:\n    /* \"#utility.yul\":6425:6426   */\n  0x01\n    /* \"#utility.yul\":6418:6423   */\n  dup2\n    /* \"#utility.yul\":6414:6427   */\n  add\n    /* \"#utility.yul\":6405:6427   */\n  swap1\n  pop\n    /* \"#utility.yul\":6381:6501   */\n  jump(tag_131)\ntag_133:\n    /* \"#utility.yul\":6321:6507   */\n  pop\n  pop\n  jump\t// out\n    /* \"#utility.yul\":6513:7056   */\ntag_48:\n    /* \"#utility.yul\":6614:6616   */\n  0x1f\n    /* \"#utility.yul\":6609:6612   */\n  dup3\n    /* \"#utility.yul\":6606:6617   */\n  gt\n    /* \"#utility.yul\":6603:7049   */\n  iszero\n  tag_136\n  jumpi\n    /* \"#utility.yul\":6648:6686   */\n  tag_137\n    /* \"#utility.yul\":6680:6685   */\n  dup2\n    /* \"#utility.yul\":6648:6686   */\n  tag_37\n  jump\t// in\ntag_137:\n    /* \"#utility.yul\":6732:6761   */\n  tag_138\n    /* \"#utility.yul\":6750:6760   */\n  dup5\n    /* \"#utility.yul\":6732:6761   */\n  tag_38\n  jump\t// in\ntag_138:\n    /* \"#utility.yul\":6722:6730   */\n  dup2\n    /* \"#utility.yul\":6718:6762   */\n  add\n    /* \"#utility.yul\":6915:6917   */\n  0x20\n    /* \"#utility.yul\":6903:6913   */\n  dup6\n    /* \"#utility.yul\":6900:6918   */\n  lt\n    /* \"#utility.yul\":6897:6946   */\n  iszero\n  tag_139\n  jumpi\n    /* \"#utility.yul\":6936:6944   */\n  dup2\n    /* \"#utility.yul\":6921:6944   */\n  swap1\n  pop\n    /* \"#utility.yul\":6897:6946   */\ntag_139:\n    /* \"#utility.yul\":6959:7039   */\n  tag_140\n    /* \"#utility.yul\":7015:7037   */\n  tag_141\n    /* \"#utility.yul\":7033:7036   */\n  dup6\n    /* \"#utility.yul\":7015:7037   */\n  tag_38\n  jump\t// in\ntag_141:\n    /* \"#utility.yul\":7005:7013   */\n  dup4\n    /* \"#utility.yul\":7001:7038   */\n  add\n    /* \"#utility.yul\":6988:6999   */\n  dup3\n    /* \"#utility.yul\":6959:7039   */\n  tag_47\n  jump\t// in\ntag_140:\n    /* \"#utility.yul\":6618:7049   */\n  pop\n  pop\n    /* \"#utility.yul\":6603:7049   */\ntag_136:\n    /* \"#utility.yul\":6513:7056   */\n  pop\n  pop\n  pop\n  jump\t// out\n    /* \"#utility.yul\":7062:7179   */\ntag_49:\n    /* \"#utility.yul\":7116:7124   */\n  0x00\n    /* \"#utility.yul\":7166:7171   */\n  dup3\n    /* \"#utility.yul\":7160:7164   */\n  dup3\n    /* \"#utility.yul\":7156:7172   */\n  shr\n    /* \"#utility.yul\":7135:7172   */\n  swap1\n  pop\n    /* \"#utility.yul\":7062:7179   */\n  swap3\n  swap2\n  pop\n  pop\n  jump\t// out\n    /* \"#utility.yul\":7185:7354   */\ntag_50:\n    /* \"#utility.yul\":7229:7235   */\n  0x00\n    /* \"#utility.yul\":7262:7313   */\n  tag_144\n    /* \"#utility.yul\":7310:7311   */\n  0x00\n    /* \"#utility.yul\":7306:7312   */\n  not\n    /* \"#utility.yul\":7298:7303   */\n  dup5\n    /* \"#utility.yul\":7295:7296   */\n  0x08\n    /* \"#utility.yul\":7291:7304   */\n  mul\n    /* \"#utility.yul\":7262:7313   */\n  tag_49\n  jump\t// in\ntag_144:\n    /* \"#utility.yul\":7258:7314   */\n  not\n    /* \"#utility.yul\":7343:7347   */\n  dup1\n    /* \"#utility.yul\":7337:7341   */\n  dup4\n    /* \"#utility.yul\":7333:7348   */\n  and\n    /* \"#utility.yul\":7323:7348   */\n  swap2\n  pop\n    /* \"#utility.yul\":7236:7354   */\n  pop\n    /* \"#utility.yul\":7185:7354   */\n  swap3\n  swap2\n  pop\n  pop\n  jump\t// out\n    /* \"#utility.yul\":7359:7654   */\ntag_51:\n    /* \"#utility.yul\":7435:7439   */\n  0x00\n    /* \"#utility.yul\":7581:7610   */\n  tag_146\n    /* \"#utility.yul\":7606:7609   */\n  dup4\n    /* \"#utility.yul\":7600:7604   */\n  dup4\n    /* \"#utility.yul\":7581:7610   */\n  tag_50\n  jump\t// in\ntag_146:\n    /* \"#utility.yul\":7573:7610   */\n  swap2\n  pop\n    /* \"#utility.yul\":7643:7646   */\n  dup3\n    /* \"#utility.yul\":7640:7641   */\n  0x02\n    /* \"#utility.yul\":7636:7647   */\n  mul\n    /* \"#utility.yul\":7630:7634   */\n  dup3\n    /* \"#utility.yul\":7627:7648   */\n  or\n    /* \"#utility.yul\":7619:7648   */\n  swap1\n  pop\n    /* \"#utility.yul\":7359:7654   */\n  swap3\n  swap2\n  pop\n  pop\n  jump\t// out\n    /* \"#utility.yul\":7659:9054   */\ntag_8:\n    /* \"#utility.yul\":7776:7813   */\n  tag_148\n    /* \"#utility.yul\":7809:7812   */\n  dup3\n    /* \"#utility.yul\":7776:7813   */\n  tag_34\n  jump\t// in\ntag_148:\n    /* \"#utility.yul\":7878:7896   */\n  0xffffffffffffffff\n    /* \"#utility.yul\":7870:7876   */\n  dup2\n    /* \"#utility.yul\":7867:7897   */\n  gt\n    /* \"#utility.yul\":7864:7920   */\n  iszero\n  tag_149\n  jumpi\n    /* \"#utility.yul\":7900:7918   */\n  tag_150\n  tag_24\n  jump\t// in\ntag_150:\n    /* \"#utility.yul\":7864:7920   */\ntag_149:\n    /* \"#utility.yul\":7944:7982   */\n  tag_151\n    /* \"#utility.yul\":7976:7980   */\n  dup3\n    /* \"#utility.yul\":7970:7981   */\n  sload\n    /* \"#utility.yul\":7944:7982   */\n  tag_36\n  jump\t// in\ntag_151:\n    /* \"#utility.yul\":8029:8096   */\n  tag_152\n    /* \"#utility.yul\":8089:8095   */\n  dup3\n    /* \"#utility.yul\":8081:8087   */\n  dup3\n    /* \"#utility.yul\":8075:8079   */\n  dup6\n    /* \"#utility.yul\":8029:8096   */\n  tag_48\n  jump\t// in\ntag_152:\n    /* \"#utility.yul\":8123:8124   */\n  0x00\n    /* \"#utility.yul\":8147:8151   */\n  0x20\n    /* \"#utility.yul\":8134:8151   */\n  swap1\n  pop\n    /* \"#utility.yul\":8179:8181   */\n  0x1f\n    /* \"#utility.yul\":8171:8177   */\n  dup4\n    /* \"#utility.yul\":8168:8182   */\n  gt\n    /* \"#utility.yul\":8196:8197   */\n  0x01\n    /* \"#utility.yul\":8191:8809   */\n  dup2\n  eq\n  tag_154\n  jumpi\n    /* \"#utility.yul\":8853:8854   */\n  0x00\n    /* \"#utility.yul\":8870:8876   */\n  dup5\n    /* \"#utility.yul\":8867:8944   */\n  iszero\n  tag_155\n  jumpi\n    /* \"#utility.yul\":8919:8928   */\n  dup3\n    /* \"#utility.yul\":8914:8917   */\n  dup8\n    /* \"#utility.yul\":8910:8929   */\n  add\n    /* \"#utility.yul\":8904:8930   */\n  mload\n    /* \"#utility.yul\":8895:8930   */\n  swap1\n  pop\n    /* \"#utility.yul\":8867:8944   */\ntag_155:\n    /* \"#utility.yul\":8970:9037   */\n  tag_156\n    /* \"#utility.yul\":9030:9036   */\n  dup6\n    /* \"#utility.yul\":9023:9028   */\n  dup3\n    /* \"#utility.yul\":8970:9037   */\n  tag_51\n  jump\t// in\ntag_156:\n    /* \"#utility.yul\":8964:8968   */\n  dup7\n    /* \"#utility.yul\":8957:9038   */\n  sstore\n    /* \"#utility.yul\":8826:9048   */\n  pop\n    /* \"#utility.yul\":8161:9048   */\n  jump(tag_153)\n    /* \"#utility.yul\":8191:8809   */\ntag_154:\n    /* \"#utility.yul\":8243:8247   */\n  0x1f\n    /* \"#utility.yul\":8239:8248   */\n  not\n    /* \"#utility.yul\":8231:8237   */\n  dup5\n    /* \"#utility.yul\":8227:8249   */\n  and\n    /* \"#utility.yul\":8277:8314   */\n  tag_157\n    /* \"#utility.yul\":8309:8313   */\n  dup7\n    /* \"#utility.yul\":8277:8314   */\n  tag_37\n  jump\t// in\ntag_157:\n    /* \"#utility.yul\":8336:8337   */\n  0x00\n    /* \"#utility.yul\":8350:8558   */\ntag_158:\n    /* \"#utility.yul\":8364:8371   */\n  dup3\n    /* \"#utility.yul\":8361:8362   */\n  dup2\n    /* \"#utility.yul\":8358:8372   */\n  lt\n    /* \"#utility.yul\":8350:8558   */\n  iszero\n  tag_160\n  jumpi\n    /* \"#utility.yul\":8443:8452   */\n  dup5\n    /* \"#utility.yul\":8438:8441   */\n  dup10\n    /* \"#utility.yul\":8434:8453   */\n  add\n    /* \"#utility.yul\":8428:8454   */\n  mload\n    /* \"#utility.yul\":8420:8426   */\n  dup3\n    /* \"#utility.yul\":8413:8455   */\n  sstore\n    /* \"#utility.yul\":8494:8495   */\n  0x01\n    /* \"#utility.yul\":8486:8492   */\n  dup3\n    /* \"#utility.yul\":8482:8496   */\n  add\n    /* \"#utility.yul\":8472:8496   */\n  swap2\n  pop\n    /* \"#utility.yul\":8541:8543   */\n  0x20\n    /* \"#utility.yul\":8530:8539   */\n  dup6\n    /* \"#utility.yul\":8526:8544   */\n  add\n    /* \"#utility.yul\":8513:8544   */\n  swap5\n  pop\n    /* \"#utility.yul\":8387:8391   */\n  0x20\n    /* \"#utility.yul\":8384:8385   */\n  dup2\n    /* \"#utility.yul\":8380:8392   */\n  add\n    /* \"#utility.yul\":8375:8392   */\n  swap1\n  pop\n    /* \"#utility.yul\":8350:8558   */\n  jump(tag_158)\ntag_160:\n    /* \"#utility.yul\":8586:8592   */\n  dup7\n    /* \"#utility.yul\":8577:8584   */\n  dup4\n    /* \"#utility.yul\":8574:8593   */\n  lt\n    /* \"#utility.yul\":8571:8750   */\n  iszero\n  tag_161\n  jumpi\n    /* \"#utility.yul\":8644:8653   */\n  dup5\n    /* \"#utility.yul\":8639:8642   */\n  dup10\n    /* \"#utility.yul\":8635:8654   */\n  add\n    /* \"#utility.yul\":8629:8655   */\n  mload\n    /* \"#utility.yul\":8687:8735   */\n  tag_162\n    /* \"#utility.yul\":8729:8733   */\n  0x1f\n    /* \"#utility.yul\":8721:8727   */\n  dup10\n    /* \"#utility.yul\":8717:8734   */\n  and\n    /* \"#utility.yul\":8706:8715   */\n  dup3\n    /* \"#utility.yul\":8687:8735   */\n  tag_50\n  jump\t// in\ntag_162:\n    /* \"#utility.yul\":8679:8685   */\n  dup4\n    /* \"#utility.yul\":8672:8736   */\n  sstore\n    /* \"#utility.yul\":8594:8750   */\n  pop\n    /* \"#utility.yul\":8571:8750   */\ntag_161:\n    /* \"#utility.yul\":8796:8797   */\n  0x01\n    /* \"#utility.yul\":8792:8793   */\n  0x02\n    /* \"#utility.yul\":8784:8790   */\n  dup9\n    /* \"#utility.yul\":8780:8794   */\n  mul\n    /* \"#utility.yul\":8776:8798   */\n  add\n    /* \"#utility.yul\":8770:8774   */\n  dup9\n    /* \"#utility.yul\":8763:8799   */\n  sstore\n    /* \"#utility.yul\":8198:8809   */\n  pop\n  pop\n  pop\n    /* \"#utility.yul\":8161:9048   */\ntag_153:\n  pop\n    /* \"#utility.yul\":7751:9054   */\n  pop\n  pop\n  pop\n    /* \"#utility.yul\":7659:9054   */\n  pop\n  pop\n  jump\t// out\n    /* \"#utility.yul\":9060:9229   */\ntag_52:\n    /* \"#utility.yul\":9144:9155   */\n  0x00\n    /* \"#utility.yul\":9178:9184   */\n  dup3\n    /* \"#utility.yul\":9173:9176   */\n  dup3\n    /* \"#utility.yul\":9166:9185   */\n  mstore\n    /* \"#utility.yul\":9218:9222   */\n  0x20\n    /* \"#utility.yul\":9213:9216   */\n  dup3\n    /* \"#utility.yul\":9209:9223   */\n  add\n    /* \"#utility.yul\":9194:9223   */\n  swap1\n  pop\n    /* \"#utility.yul\":9060:9229   */\n  swap3\n  swap2\n  pop\n  pop\n  jump\t// out\n    /* \"#utility.yul\":9235:9459   */\ntag_53:\n    /* \"#utility.yul\":9375:9409   */\n  0x456c2070726563696f206e6f20707565646520736572206d656e6f7220717565\n    /* \"#utility.yul\":9371:9372   */\n  0x00\n    /* \"#utility.yul\":9363:9369   */\n  dup3\n    /* \"#utility.yul\":9359:9373   */\n  add\n    /* \"#utility.yul\":9352:9410   */\n  mstore\n    /* \"#utility.yul\":9444:9451   */\n  0x206365726f000000000000000000000000000000000000000000000000000000\n    /* \"#utility.yul\":9439:9441   */\n  0x20\n    /* \"#utility.yul\":9431:9437   */\n  dup3\n    /* \"#utility.yul\":9427:9442   */\n  add\n    /* \"#utility.yul\":9420:9452   */\n  mstore\n    /* \"#utility.yul\":9235:9459   */\n  pop\n  jump\t// out\n    /* \"#utility.yul\":9465:9831   */\ntag_54:\n    /* \"#utility.yul\":9607:9610   */\n  0x00\n    /* \"#utility.yul\":9628:9695   */\n  tag_166\n    /* \"#utility.yul\":9692:9694   */\n  0x25\n    /* \"#utility.yul\":9687:9690   */\n  dup4\n    /* \"#utility.yul\":9628:9695   */\n  tag_52\n  jump\t// in\ntag_166:\n    /* \"#utility.yul\":9621:9695   */\n  swap2\n  pop\n    /* \"#utility.yul\":9704:9797   */\n  tag_167\n    /* \"#utility.yul\":9793:9796   */\n  dup3\n    /* \"#utility.yul\":9704:9797   */\n  tag_53\n  jump\t// in\ntag_167:\n    /* \"#utility.yul\":9822:9824   */\n  0x40\n    /* \"#utility.yul\":9817:9820   */\n  dup3\n    /* \"#utility.yul\":9813:9825   */\n  add\n    /* \"#utility.yul\":9806:9825   */\n  swap1\n  pop\n    /* \"#utility.yul\":9465:9831   */\n  swap2\n  swap1\n  pop\n  jump\t// out\n    /* \"#utility.yul\":9837:10256   */\ntag_13:\n    /* \"#utility.yul\":10003:10007   */\n  0x00\n    /* \"#utility.yul\":10041:10043   */\n  0x20\n    /* \"#utility.yul\":10030:10039   */\n  dup3\n    /* \"#utility.yul\":10026:10044   */\n  add\n    /* \"#utility.yul\":10018:10044   */\n  swap1\n  pop\n    /* \"#utility.yul\":10090:10099   */\n  dup2\n    /* \"#utility.yul\":10084:10088   */\n  dup2\n    /* \"#utility.yul\":10080:10100   */\n  sub\n    /* \"#utility.yul\":10076:10077   */\n  0x00\n    /* \"#utility.yul\":10065:10074   */\n  dup4\n    /* \"#utility.yul\":10061:10078   */\n  add\n    /* \"#utility.yul\":10054:10101   */\n  mstore\n    /* \"#utility.yul\":10118:10249   */\n  tag_169\n    /* \"#utility.yul\":10244:10248   */\n  dup2\n    /* \"#utility.yul\":10118:10249   */\n  tag_54\n  jump\t// in\ntag_169:\n    /* \"#utility.yul\":10110:10249   */\n  swap1\n  pop\n    /* \"#utility.yul\":9837:10256   */\n  swap2\n  swap1\n  pop\n  jump\t// out\n    /* \"#utility.yul\":10262:10496   */\ntag_55:\n    /* \"#utility.yul\":10402:10436   */\n  0x456c206d6178696d6f20646520746f6b656e73206e6f20707565646520736572\n    /* \"#utility.yul\":10398:10399   */\n  0x00\n    /* \"#utility.yul\":10390:10396   */\n  dup3\n    /* \"#utility.yul\":10386:10400   */\n  add\n    /* \"#utility.yul\":10379:10437   */\n  mstore\n    /* \"#utility.yul\":10471:10488   */\n  0x206d656e6f7220717565206365726f0000000000000000000000000000000000\n    /* \"#utility.yul\":10466:10468   */\n  0x20\n    /* \"#utility.yul\":10458:10464   */\n  dup3\n    /* \"#utility.yul\":10454:10469   */\n  add\n    /* \"#utility.yul\":10447:10489   */\n  mstore\n    /* \"#utility.yul\":10262:10496   */\n  pop\n  jump\t// out\n    /* \"#utility.yul\":10502:10868   */\ntag_56:\n    /* \"#utility.yul\":10644:10647   */\n  0x00\n    /* \"#utility.yul\":10665:10732   */\n  tag_172\n    /* \"#utility.yul\":10729:10731   */\n  0x2f\n    /* \"#utility.yul\":10724:10727   */\n  dup4\n    /* \"#utility.yul\":10665:10732   */\n  tag_52\n  jump\t// in\ntag_172:\n    /* \"#utility.yul\":10658:10732   */\n  swap2\n  pop\n    /* \"#utility.yul\":10741:10834   */\n  tag_173\n    /* \"#utility.yul\":10830:10833   */\n  dup3\n    /* \"#utility.yul\":10741:10834   */\n  tag_55\n  jump\t// in\ntag_173:\n    /* \"#utility.yul\":10859:10861   */\n  0x40\n    /* \"#utility.yul\":10854:10857   */\n  dup3\n    /* \"#utility.yul\":10850:10862   */\n  add\n    /* \"#utility.yul\":10843:10862   */\n  swap1\n  pop\n    /* \"#utility.yul\":10502:10868   */\n  swap2\n  swap1\n  pop\n  jump\t// out\n    /* \"#utility.yul\":10874:11293   */\ntag_16:\n    /* \"#utility.yul\":11040:11044   */\n  0x00\n    /* \"#utility.yul\":11078:11080   */\n  0x20\n    /* \"#utility.yul\":11067:11076   */\n  dup3\n    /* \"#utility.yul\":11063:11081   */\n  add\n    /* \"#utility.yul\":11055:11081   */\n  swap1\n  pop\n    /* \"#utility.yul\":11127:11136   */\n  dup2\n    /* \"#utility.yul\":11121:11125   */\n  dup2\n    /* \"#utility.yul\":11117:11137   */\n  sub\n    /* \"#utility.yul\":11113:11114   */\n  0x00\n    /* \"#utility.yul\":11102:11111   */\n  dup4\n    /* \"#utility.yul\":11098:11115   */\n  add\n    /* \"#utility.yul\":11091:11138   */\n  mstore\n    /* \"#utility.yul\":11155:11286   */\n  tag_175\n    /* \"#utility.yul\":11281:11285   */\n  dup2\n    /* \"#utility.yul\":11155:11286   */\n  tag_56\n  jump\t// in\ntag_175:\n    /* \"#utility.yul\":11147:11286   */\n  swap1\n  pop\n    /* \"#utility.yul\":10874:11293   */\n  swap2\n  swap1\n  pop\n  jump\t// out\n    /* \"PRACTICA FINAL/archivo1.sol\":631:2503  contract VotingContract is ERC20{... */\ntag_17:\n  mload(0x80)\n  mload(0xa0)\n  codecopy(0x00, dataOffset(sub_0), dataSize(sub_0))\n  0x00\n  assignImmutable(\"0x8fef2229291b68be841adf029e58b87f39ba144b2d3b0af1760243d0a9bc6a1c\")\n  0x00\n  assignImmutable(\"0x277ab82e5a4641341820a4a2933a62c1de997e42e92548657ae21b3728d580fe\")\n  return(0x00, dataSize(sub_0))\nstop\n\nsub_0: assembly {\n        /* \"PRACTICA FINAL/archivo1.sol\":631:2503  contract VotingContract is ERC20{... */\n      mstore(0x40, 0x80)\n      callvalue\n      dup1\n      iszero\n      tag_1\n      jumpi\n      0x00\n      dup1\n      revert\n    tag_1:\n      pop\n      jumpi(tag_2, lt(calldatasize, 0x04))\n      shr(0xe0, calldataload(0x00))\n      dup1\n      0x7ff9b596\n      gt\n      tag_17\n      jumpi\n      dup1\n      0x9dc29fac\n      gt\n      tag_18\n      jumpi\n      dup1\n      0x9dc29fac\n      eq\n      tag_13\n      jumpi\n      dup1\n      0xa9059cbb\n      eq\n      tag_14\n      jumpi\n      dup1\n      0xdd62ed3e\n      eq\n      tag_15\n      jumpi\n      dup1\n      0xe8315742\n      eq\n      tag_16\n      jumpi\n      jump(tag_2)\n    tag_18:\n      dup1\n      0x7ff9b596\n      eq\n      tag_10\n      jumpi\n      dup1\n      0x8d75fe05\n      eq\n      tag_11\n      jumpi\n      dup1\n      0x95d89b41\n      eq\n      tag_12\n      jumpi\n      jump(tag_2)\n    tag_17:\n      dup1\n      0x23b872dd\n      gt\n      tag_19\n      jumpi\n      dup1\n      0x23b872dd\n      eq\n      tag_6\n      jumpi\n      dup1\n      0x313ce567\n      eq\n      tag_7\n      jumpi\n      dup1\n      0x40c10f19\n      eq\n      tag_8\n      jumpi\n      dup1\n      0x70a08231\n      eq\n      tag_9\n      jumpi\n      jump(tag_2)\n    tag_19:\n      dup1\n      0x06fdde03\n      eq\n      tag_3\n      jumpi\n      dup1\n      0x095ea7b3\n      eq\n      tag_4\n      jumpi\n      dup1\n      0x18160ddd\n      eq\n      tag_5\n      jumpi\n    tag_2:\n      0x00\n      dup1\n      revert\n        /* \"https://github.com/OpenZeppelin/openzeppelin-contracts/blob/master/contracts/token/ERC20/ERC20.sol\":1760:1849  function name() public view virtual returns (string memory) {... */\n    tag_3:\n      tag_20\n      tag_21\n      jump\t// in\n    tag_20:\n      mload(0x40)\n      tag_22\n      swap2\n      swap1\n      tag_23\n      jump\t// in\n    tag_22:\n      mload(0x40)\n      dup1\n      swap2\n      sub\n      swap1\n      return\n        /* \"https://github.com/OpenZeppelin/openzeppelin-contracts/blob/master/contracts/token/ERC20/ERC20.sol\":3979:4165  function approve(address spender, uint256 value) public virtual returns (bool) {... */\n    tag_4:\n      tag_24\n      0x04\n      dup1\n      calldatasize\n      sub\n      dup2\n      add\n      swap1\n      tag_25\n      swap2\n      swap1\n      tag_26\n      jump\t// in\n    tag_25:\n      tag_27\n      jump\t// in\n    tag_24:\n      mload(0x40)\n      tag_28\n      swap2\n      swap1\n      tag_29\n      jump\t// in\n    tag_28:\n      mload(0x40)\n      dup1\n      swap2\n      sub\n      swap1\n      return\n        /* \"https://github.com/OpenZeppelin/openzeppelin-contracts/blob/master/contracts/token/ERC20/ERC20.sol\":2830:2927  function totalSupply() public view virtual returns (uint256) {... */\n    tag_5:\n      tag_30\n      tag_31\n      jump\t// in\n    tag_30:\n      mload(0x40)\n      tag_32\n      swap2\n      swap1\n      tag_33\n      jump\t// in\n    tag_32:\n      mload(0x40)\n      dup1\n      swap2\n      sub\n      swap1\n      return\n        /* \"https://github.com/OpenZeppelin/openzeppelin-contracts/blob/master/contracts/token/ERC20/ERC20.sol\":4757:5001  function transferFrom(address from, address to, uint256 value) public virtual returns (bool) {... */\n    tag_6:\n      tag_34\n      0x04\n      dup1\n      calldatasize\n      sub\n      dup2\n      add\n      swap1\n      tag_35\n      swap2\n      swap1\n      tag_36\n      jump\t// in\n    tag_35:\n      tag_37\n      jump\t// in\n    tag_34:\n      mload(0x40)\n      tag_38\n      swap2\n      swap1\n      tag_29\n      jump\t// in\n    tag_38:\n      mload(0x40)\n      dup1\n      swap2\n      sub\n      swap1\n      return\n        /* \"https://github.com/OpenZeppelin/openzeppelin-contracts/blob/master/contracts/token/ERC20/ERC20.sol\":2688:2770  function decimals() public view virtual returns (uint8) {... */\n    tag_7:\n      tag_39\n      tag_40\n      jump\t// in\n    tag_39:\n      mload(0x40)\n      tag_41\n      swap2\n      swap1\n      tag_42\n      jump\t// in\n    tag_41:\n      mload(0x40)\n      dup1\n      swap2\n      sub\n      swap1\n      return\n        /* \"PRACTICA FINAL/archivo1.sol\":1489:2008  function mint(address destDir, uint256 tokensEmitidos) external  onlyOwner {... */\n    tag_8:\n      tag_43\n      0x04\n      dup1\n      calldatasize\n      sub\n      dup2\n      add\n      swap1\n      tag_44\n      swap2\n      swap1\n      tag_26\n      jump\t// in\n    tag_44:\n      tag_45\n      jump\t// in\n    tag_43:\n      stop\n        /* \"https://github.com/OpenZeppelin/openzeppelin-contracts/blob/master/contracts/token/ERC20/ERC20.sol\":2985:3101  function balanceOf(address account) public view virtual returns (uint256) {... */\n    tag_9:\n      tag_46\n      0x04\n      dup1\n      calldatasize\n      sub\n      dup2\n      add\n      swap1\n      tag_47\n      swap2\n      swap1\n      tag_48\n      jump\t// in\n    tag_47:\n      tag_49\n      jump\t// in\n    tag_46:\n      mload(0x40)\n      tag_50\n      swap2\n      swap1\n      tag_33\n      jump\t// in\n    tag_50:\n      mload(0x40)\n      dup1\n      swap2\n      sub\n      swap1\n      return\n        /* \"PRACTICA FINAL/archivo1.sol\":672:707  uint256 public immutable tokenPrice */\n    tag_10:\n      tag_51\n      tag_52\n      jump\t// in\n    tag_51:\n      mload(0x40)\n      tag_53\n      swap2\n      swap1\n      tag_33\n      jump\t// in\n    tag_53:\n      mload(0x40)\n      dup1\n      swap2\n      sub\n      swap1\n      return\n        /* \"PRACTICA FINAL/archivo1.sol\":894:921  uint256 public mintedTokens */\n    tag_11:\n      tag_54\n      tag_55\n      jump\t// in\n    tag_54:\n      mload(0x40)\n      tag_56\n      swap2\n      swap1\n      tag_33\n      jump\t// in\n    tag_56:\n      mload(0x40)\n      dup1\n      swap2\n      sub\n      swap1\n      return\n        /* \"https://github.com/OpenZeppelin/openzeppelin-contracts/blob/master/contracts/token/ERC20/ERC20.sol\":1962:2055  function symbol() public view virtual returns (string memory) {... */\n    tag_12:\n      tag_57\n      tag_58\n      jump\t// in\n    tag_57:\n      mload(0x40)\n      tag_59\n      swap2\n      swap1\n      tag_23\n      jump\t// in\n    tag_59:\n      mload(0x40)\n      dup1\n      swap2\n      sub\n      swap1\n      return\n        /* \"PRACTICA FINAL/archivo1.sol\":2016:2496  function burn(address destDir, uint256 tokensEliminados) external onlyOwner{... */\n    tag_13:\n      tag_60\n      0x04\n      dup1\n      calldatasize\n      sub\n      dup2\n      add\n      swap1\n      tag_61\n      swap2\n      swap1\n      tag_26\n      jump\t// in\n    tag_61:\n      tag_62\n      jump\t// in\n    tag_60:\n      stop\n        /* \"https://github.com/OpenZeppelin/openzeppelin-contracts/blob/master/contracts/token/ERC20/ERC20.sol\":3296:3474  function transfer(address to, uint256 value) public virtual returns (bool) {... */\n    tag_14:\n      tag_63\n      0x04\n      dup1\n      calldatasize\n      sub\n      dup2\n      add\n      swap1\n      tag_64\n      swap2\n      swap1\n      tag_26\n      jump\t// in\n    tag_64:\n      tag_65\n      jump\t// in\n    tag_63:\n      mload(0x40)\n      tag_66\n      swap2\n      swap1\n      tag_29\n      jump\t// in\n    tag_66:\n      mload(0x40)\n      dup1\n      swap2\n      sub\n      swap1\n      return\n        /* \"https://github.com/OpenZeppelin/openzeppelin-contracts/blob/master/contracts/token/ERC20/ERC20.sol\":3532:3672  function allowance(address owner, address spender) public view virtual returns (uint256) {... */\n    tag_15:\n      tag_67\n      0x04\n      dup1\n      calldatasize\n      sub\n      dup2\n      add\n      swap1\n      tag_68\n      swap2\n      swap1\n      tag_69\n      jump\t// in\n    tag_68:\n      tag_70\n      jump\t// in\n    tag_67:\n      mload(0x40)\n      tag_71\n      swap2\n      swap1\n      tag_33\n      jump\t// in\n    tag_71:\n      mload(0x40)\n      dup1\n      swap2\n      sub\n      swap1\n      return\n        /* \"PRACTICA FINAL/archivo1.sol\":789:823  uint256 public immutable maxTokens */\n    tag_16:\n      tag_72\n      tag_73\n      jump\t// in\n    tag_72:\n      mload(0x40)\n      tag_74\n      swap2\n      swap1\n      tag_33\n      jump\t// in\n    tag_74:\n      mload(0x40)\n      dup1\n      swap2\n      sub\n      swap1\n      return\n        /* \"https://github.com/OpenZeppelin/openzeppelin-contracts/blob/master/contracts/token/ERC20/ERC20.sol\":1760:1849  function name() public view virtual returns (string memory) {... */\n    tag_21:\n        /* \"https://github.com/OpenZeppelin/openzeppelin-contracts/blob/master/contracts/token/ERC20/ERC20.sol\":1805:1818  string memory */\n      0x60\n        /* \"https://github.com/OpenZeppelin/openzeppelin-contracts/blob/master/contracts/token/ERC20/ERC20.sol\":1837:1842  _name */\n      0x03\n        /* \"https://github.com/OpenZeppelin/openzeppelin-contracts/blob/master/contracts/token/ERC20/ERC20.sol\":1830:1842  return _name */\n      dup1\n      sload\n      tag_76\n      swap1\n      tag_77\n      jump\t// in\n    tag_76:\n      dup1\n      0x1f\n      add\n      0x20\n      dup1\n      swap2\n      div\n      mul\n      0x20\n      add\n      mload(0x40)\n      swap1\n      dup2\n      add\n      0x40\n      mstore\n      dup1\n      swap3\n      swap2\n      swap1\n      dup2\n      dup2\n      mstore\n      0x20\n      add\n      dup3\n      dup1\n      sload\n      tag_78\n      swap1\n      tag_77\n      jump\t// in\n    tag_78:\n      dup1\n      iszero\n      tag_79\n      jumpi\n      dup1\n      0x1f\n      lt\n      tag_80\n      jumpi\n      0x0100\n      dup1\n      dup4\n      sload\n      div\n      mul\n      dup4\n      mstore\n      swap2\n      0x20\n      add\n      swap2\n      jump(tag_79)\n    tag_80:\n      dup3\n      add\n      swap2\n      swap1\n      0x00\n      mstore\n      keccak256(0x00, 0x20)\n      swap1\n    tag_81:\n      dup2\n      sload\n      dup2\n      mstore\n      swap1\n      0x01\n      add\n      swap1\n      0x20\n      add\n      dup1\n      dup4\n      gt\n      tag_81\n      jumpi\n      dup3\n      swap1\n      sub\n      0x1f\n      and\n      dup3\n      add\n      swap2\n    tag_79:\n      pop\n      pop\n      pop\n      pop\n      pop\n      swap1\n      pop\n        /* \"https://github.com/OpenZeppelin/openzeppelin-contracts/blob/master/contracts/token/ERC20/ERC20.sol\":1760:1849  function name() public view virtual returns (string memory) {... */\n      swap1\n      jump\t// out\n        /* \"https://github.com/OpenZeppelin/openzeppelin-contracts/blob/master/contracts/token/ERC20/ERC20.sol\":3979:4165  function approve(address spender, uint256 value) public virtual returns (bool) {... */\n    tag_27:\n        /* \"https://github.com/OpenZeppelin/openzeppelin-contracts/blob/master/contracts/token/ERC20/ERC20.sol\":4052:4056  bool */\n      0x00\n        /* \"https://github.com/OpenZeppelin/openzeppelin-contracts/blob/master/contracts/token/ERC20/ERC20.sol\":4068:4081  address owner */\n      dup1\n        /* \"https://github.com/OpenZeppelin/openzeppelin-contracts/blob/master/contracts/token/ERC20/ERC20.sol\":4084:4096  _msgSender() */\n      tag_83\n        /* \"https://github.com/OpenZeppelin/openzeppelin-contracts/blob/master/contracts/token/ERC20/ERC20.sol\":4084:4094  _msgSender */\n      tag_84\n        /* \"https://github.com/OpenZeppelin/openzeppelin-contracts/blob/master/contracts/token/ERC20/ERC20.sol\":4084:4096  _msgSender() */\n      jump\t// in\n    tag_83:\n        /* \"https://github.com/OpenZeppelin/openzeppelin-contracts/blob/master/contracts/token/ERC20/ERC20.sol\":4068:4096  address owner = _msgSender() */\n      swap1\n      pop\n        /* \"https://github.com/OpenZeppelin/openzeppelin-contracts/blob/master/contracts/token/ERC20/ERC20.sol\":4106:4137  _approve(owner, spender, value) */\n      tag_85\n        /* \"https://github.com/OpenZeppelin/openzeppelin-contracts/blob/master/contracts/token/ERC20/ERC20.sol\":4115:4120  owner */\n      dup2\n        /* \"https://github.com/OpenZeppelin/openzeppelin-contracts/blob/master/contracts/token/ERC20/ERC20.sol\":4122:4129  spender */\n      dup6\n        /* \"https://github.com/OpenZeppelin/openzeppelin-contracts/blob/master/contracts/token/ERC20/ERC20.sol\":4131:4136  value */\n      dup6\n        /* \"https://github.com/OpenZeppelin/openzeppelin-contracts/blob/master/contracts/token/ERC20/ERC20.sol\":4106:4114  _approve */\n      tag_86\n        /* \"https://github.com/OpenZeppelin/openzeppelin-contracts/blob/master/contracts/token/ERC20/ERC20.sol\":4106:4137  _approve(owner, spender, value) */\n      jump\t// in\n    tag_85:\n        /* \"https://github.com/OpenZeppelin/openzeppelin-contracts/blob/master/contracts/token/ERC20/ERC20.sol\":4154:4158  true */\n      0x01\n        /* \"https://github.com/OpenZeppelin/openzeppelin-contracts/blob/master/contracts/token/ERC20/ERC20.sol\":4147:4158  return true */\n      swap2\n      pop\n      pop\n        /* \"https://github.com/OpenZeppelin/openzeppelin-contracts/blob/master/contracts/token/ERC20/ERC20.sol\":3979:4165  function approve(address spender, uint256 value) public virtual returns (bool) {... */\n      swap3\n      swap2\n      pop\n      pop\n      jump\t// out\n        /* \"https://github.com/OpenZeppelin/openzeppelin-contracts/blob/master/contracts/token/ERC20/ERC20.sol\":2830:2927  function totalSupply() public view virtual returns (uint256) {... */\n    tag_31:\n        /* \"https://github.com/OpenZeppelin/openzeppelin-contracts/blob/master/contracts/token/ERC20/ERC20.sol\":2882:2889  uint256 */\n      0x00\n        /* \"https://github.com/OpenZeppelin/openzeppelin-contracts/blob/master/contracts/token/ERC20/ERC20.sol\":2908:2920  _totalSupply */\n      sload(0x02)\n        /* \"https://github.com/OpenZeppelin/openzeppelin-contracts/blob/master/contracts/token/ERC20/ERC20.sol\":2901:2920  return _totalSupply */\n      swap1\n      pop\n        /* \"https://github.com/OpenZeppelin/openzeppelin-contracts/blob/master/contracts/token/ERC20/ERC20.sol\":2830:2927  function totalSupply() public view virtual returns (uint256) {... */\n      swap1\n      jump\t// out\n        /* \"https://github.com/OpenZeppelin/openzeppelin-contracts/blob/master/contracts/token/ERC20/ERC20.sol\":4757:5001  function transferFrom(address from, address to, uint256 value) public virtual returns (bool) {... */\n    tag_37:\n        /* \"https://github.com/OpenZeppelin/openzeppelin-contracts/blob/master/contracts/token/ERC20/ERC20.sol\":4844:4848  bool */\n      0x00\n        /* \"https://github.com/OpenZeppelin/openzeppelin-contracts/blob/master/contracts/token/ERC20/ERC20.sol\":4860:4875  address spender */\n      dup1\n        /* \"https://github.com/OpenZeppelin/openzeppelin-contracts/blob/master/contracts/token/ERC20/ERC20.sol\":4878:4890  _msgSender() */\n      tag_89\n        /* \"https://github.com/OpenZeppelin/openzeppelin-contracts/blob/master/contracts/token/ERC20/ERC20.sol\":4878:4888  _msgSender */\n      tag_84\n        /* \"https://github.com/OpenZeppelin/openzeppelin-contracts/blob/master/contracts/token/ERC20/ERC20.sol\":4878:4890  _msgSender() */\n      jump\t// in\n    tag_89:\n        /* \"https://github.com/OpenZeppelin/openzeppelin-contracts/blob/master/contracts/token/ERC20/ERC20.sol\":4860:4890  address spender = _msgSender() */\n      swap1\n      pop\n        /* \"https://github.com/OpenZeppelin/openzeppelin-contracts/blob/master/contracts/token/ERC20/ERC20.sol\":4900:4937  _spendAllowance(from, spender, value) */\n      tag_90\n        /* \"https://github.com/OpenZeppelin/openzeppelin-contracts/blob/master/contracts/token/ERC20/ERC20.sol\":4916:4920  from */\n      dup6\n        /* \"https://github.com/OpenZeppelin/openzeppelin-contracts/blob/master/contracts/token/ERC20/ERC20.sol\":4922:4929  spender */\n      dup3\n        /* \"https://github.com/OpenZeppelin/openzeppelin-contracts/blob/master/contracts/token/ERC20/ERC20.sol\":4931:4936  value */\n      dup6\n        /* \"https://github.com/OpenZeppelin/openzeppelin-contracts/blob/master/contracts/token/ERC20/ERC20.sol\":4900:4915  _spendAllowance */\n      tag_91\n        /* \"https://github.com/OpenZeppelin/openzeppelin-contracts/blob/master/contracts/token/ERC20/ERC20.sol\":4900:4937  _spendAllowance(from, spender, value) */\n      jump\t// in\n    tag_90:\n        /* \"https://github.com/OpenZeppelin/openzeppelin-contracts/blob/master/contracts/token/ERC20/ERC20.sol\":4947:4973  _transfer(from, to, value) */\n      tag_92\n        /* \"https://github.com/OpenZeppelin/openzeppelin-contracts/blob/master/contracts/token/ERC20/ERC20.sol\":4957:4961  from */\n      dup6\n        /* \"https://github.com/OpenZeppelin/openzeppelin-contracts/blob/master/contracts/token/ERC20/ERC20.sol\":4963:4965  to */\n      dup6\n        /* \"https://github.com/OpenZeppelin/openzeppelin-contracts/blob/master/contracts/token/ERC20/ERC20.sol\":4967:4972  value */\n      dup6\n        /* \"https://github.com/OpenZeppelin/openzeppelin-contracts/blob/master/contracts/token/ERC20/ERC20.sol\":4947:4956  _transfer */\n      tag_93\n        /* \"https://github.com/OpenZeppelin/openzeppelin-contracts/blob/master/contracts/token/ERC20/ERC20.sol\":4947:4973  _transfer(from, to, value) */\n      jump\t// in\n    tag_92:\n        /* \"https://github.com/OpenZeppelin/openzeppelin-contracts/blob/master/contracts/token/ERC20/ERC20.sol\":4990:4994  true */\n      0x01\n        /* \"https://github.com/OpenZeppelin/openzeppelin-contracts/blob/master/contracts/token/ERC20/ERC20.sol\":4983:4994  return true */\n      swap2\n      pop\n      pop\n        /* \"https://github.com/OpenZeppelin/openzeppelin-contracts/blob/master/contracts/token/ERC20/ERC20.sol\":4757:5001  function transferFrom(address from, address to, uint256 value) public virtual returns (bool) {... */\n      swap4\n      swap3\n      pop\n      pop\n      pop\n      jump\t// out\n        /* \"https://github.com/OpenZeppelin/openzeppelin-contracts/blob/master/contracts/token/ERC20/ERC20.sol\":2688:2770  function decimals() public view virtual returns (uint8) {... */\n    tag_40:\n        /* \"https://github.com/OpenZeppelin/openzeppelin-contracts/blob/master/contracts/token/ERC20/ERC20.sol\":2737:2742  uint8 */\n      0x00\n        /* \"https://github.com/OpenZeppelin/openzeppelin-contracts/blob/master/contracts/token/ERC20/ERC20.sol\":2761:2763  18 */\n      0x12\n        /* \"https://github.com/OpenZeppelin/openzeppelin-contracts/blob/master/contracts/token/ERC20/ERC20.sol\":2754:2763  return 18 */\n      swap1\n      pop\n        /* \"https://github.com/OpenZeppelin/openzeppelin-contracts/blob/master/contracts/token/ERC20/ERC20.sol\":2688:2770  function decimals() public view virtual returns (uint8) {... */\n      swap1\n      jump\t// out\n        /* \"PRACTICA FINAL/archivo1.sol\":1489:2008  function mint(address destDir, uint256 tokensEmitidos) external  onlyOwner {... */\n    tag_45:\n        /* \"PRACTICA FINAL/archivo1.sol\":1423:1429  _owner */\n      0x06\n      0x00\n      swap1\n      sload\n      swap1\n      0x0100\n      exp\n      swap1\n      div\n      0xffffffffffffffffffffffffffffffffffffffff\n      and\n        /* \"PRACTICA FINAL/archivo1.sol\":1410:1429  msg.sender ==_owner */\n      0xffffffffffffffffffffffffffffffffffffffff\n      and\n        /* \"PRACTICA FINAL/archivo1.sol\":1410:1420  msg.sender */\n      caller\n        /* \"PRACTICA FINAL/archivo1.sol\":1410:1429  msg.sender ==_owner */\n      0xffffffffffffffffffffffffffffffffffffffff\n      and\n      eq\n        /* \"PRACTICA FINAL/archivo1.sol\":1402:1461  require(msg.sender ==_owner , \"Solo puede llamar el owner\") */\n      tag_96\n      jumpi\n      mload(0x40)\n      0x08c379a000000000000000000000000000000000000000000000000000000000\n      dup2\n      mstore\n      0x04\n      add\n      tag_97\n      swap1\n      tag_98\n      jump\t// in\n    tag_97:\n      mload(0x40)\n      dup1\n      swap2\n      sub\n      swap1\n      revert\n    tag_96:\n        /* \"PRACTICA FINAL/archivo1.sol\":1672:1673  0 */\n      0x00\n        /* \"PRACTICA FINAL/archivo1.sol\":1653:1674  destDir != address(0) */\n      0xffffffffffffffffffffffffffffffffffffffff\n      and\n        /* \"PRACTICA FINAL/archivo1.sol\":1653:1660  destDir */\n      dup3\n        /* \"PRACTICA FINAL/archivo1.sol\":1653:1674  destDir != address(0) */\n      0xffffffffffffffffffffffffffffffffffffffff\n      and\n      sub\n        /* \"PRACTICA FINAL/archivo1.sol\":1645:1712  require(destDir != address(0), \"La direccion destino no es valida\") */\n      tag_100\n      jumpi\n      mload(0x40)\n      0x08c379a000000000000000000000000000000000000000000000000000000000\n      dup2\n      mstore\n      0x04\n      add\n      tag_101\n      swap1\n      tag_102\n      jump\t// in\n    tag_101:\n      mload(0x40)\n      dup1\n      swap2\n      sub\n      swap1\n      revert\n    tag_100:\n        /* \"PRACTICA FINAL/archivo1.sol\":1832:1841  maxTokens */\n      immutable(\"0x8fef2229291b68be841adf029e58b87f39ba144b2d3b0af1760243d0a9bc6a1c\")\n        /* \"PRACTICA FINAL/archivo1.sol\":1816:1830  tokensEmitidos */\n      dup2\n        /* \"PRACTICA FINAL/archivo1.sol\":1803:1815  mintedTokens */\n      sload(0x05)\n        /* \"PRACTICA FINAL/archivo1.sol\":1803:1830  mintedTokens+tokensEmitidos */\n      tag_103\n      swap2\n      swap1\n      tag_104\n      jump\t// in\n    tag_103:\n        /* \"PRACTICA FINAL/archivo1.sol\":1803:1841  mintedTokens+tokensEmitidos<=maxTokens */\n      gt\n      iszero\n        /* \"PRACTICA FINAL/archivo1.sol\":1795:1877  require(mintedTokens+tokensEmitidos<=maxTokens, \"No se pueden emitir mas tokens!\") */\n      tag_105\n      jumpi\n      mload(0x40)\n      0x08c379a000000000000000000000000000000000000000000000000000000000\n      dup2\n      mstore\n      0x04\n      add\n      tag_106\n      swap1\n      tag_107\n      jump\t// in\n    tag_106:\n      mload(0x40)\n      dup1\n      swap2\n      sub\n      swap1\n      revert\n    tag_105:\n        /* \"PRACTICA FINAL/archivo1.sol\":1905:1919  tokensEmitidos */\n      dup1\n        /* \"PRACTICA FINAL/archivo1.sol\":1889:1901  mintedTokens */\n      0x05\n      0x00\n        /* \"PRACTICA FINAL/archivo1.sol\":1889:1919  mintedTokens += tokensEmitidos */\n      dup3\n      dup3\n      sload\n      tag_108\n      swap2\n      swap1\n      tag_104\n      jump\t// in\n    tag_108:\n      swap3\n      pop\n      pop\n      dup2\n      swap1\n      sstore\n      pop\n        /* \"PRACTICA FINAL/archivo1.sol\":1970:2000  _mint(destDir, tokensEmitidos) */\n      tag_109\n        /* \"PRACTICA FINAL/archivo1.sol\":1976:1983  destDir */\n      dup3\n        /* \"PRACTICA FINAL/archivo1.sol\":1985:1999  tokensEmitidos */\n      dup3\n        /* \"PRACTICA FINAL/archivo1.sol\":1970:1975  _mint */\n      tag_110\n        /* \"PRACTICA FINAL/archivo1.sol\":1970:2000  _mint(destDir, tokensEmitidos) */\n      jump\t// in\n    tag_109:\n        /* \"PRACTICA FINAL/archivo1.sol\":1489:2008  function mint(address destDir, uint256 tokensEmitidos) external  onlyOwner {... */\n      pop\n      pop\n      jump\t// out\n        /* \"https://github.com/OpenZeppelin/openzeppelin-contracts/blob/master/contracts/token/ERC20/ERC20.sol\":2985:3101  function balanceOf(address account) public view virtual returns (uint256) {... */\n    tag_49:\n        /* \"https://github.com/OpenZeppelin/openzeppelin-contracts/blob/master/contracts/token/ERC20/ERC20.sol\":3050:3057  uint256 */\n      0x00\n        /* \"https://github.com/OpenZeppelin/openzeppelin-contracts/blob/master/contracts/token/ERC20/ERC20.sol\":3076:3085  _balances */\n      dup1\n        /* \"https://github.com/OpenZeppelin/openzeppelin-contracts/blob/master/contracts/token/ERC20/ERC20.sol\":3076:3094  _balances[account] */\n      0x00\n        /* \"https://github.com/OpenZeppelin/openzeppelin-contracts/blob/master/contracts/token/ERC20/ERC20.sol\":3086:3093  account */\n      dup4\n        /* \"https://github.com/OpenZeppelin/openzeppelin-contracts/blob/master/contracts/token/ERC20/ERC20.sol\":3076:3094  _balances[account] */\n      0xffffffffffffffffffffffffffffffffffffffff\n      and\n      0xffffffffffffffffffffffffffffffffffffffff\n      and\n      dup2\n      mstore\n      0x20\n      add\n      swap1\n      dup2\n      mstore\n      0x20\n      add\n      0x00\n      keccak256\n      sload\n        /* \"https://github.com/OpenZeppelin/openzeppelin-contracts/blob/master/contracts/token/ERC20/ERC20.sol\":3069:3094  return _balances[account] */\n      swap1\n      pop\n        /* \"https://github.com/OpenZeppelin/openzeppelin-contracts/blob/master/contracts/token/ERC20/ERC20.sol\":2985:3101  function balanceOf(address account) public view virtual returns (uint256) {... */\n      swap2\n      swap1\n      pop\n      jump\t// out\n        /* \"PRACTICA FINAL/archivo1.sol\":672:707  uint256 public immutable tokenPrice */\n    tag_52:\n      immutable(\"0x277ab82e5a4641341820a4a2933a62c1de997e42e92548657ae21b3728d580fe\")\n      dup2\n      jump\t// out\n        /* \"PRACTICA FINAL/archivo1.sol\":894:921  uint256 public mintedTokens */\n    tag_55:\n      sload(0x05)\n      dup2\n      jump\t// out\n        /* \"https://github.com/OpenZeppelin/openzeppelin-contracts/blob/master/contracts/token/ERC20/ERC20.sol\":1962:2055  function symbol() public view virtual returns (string memory) {... */\n    tag_58:\n        /* \"https://github.com/OpenZeppelin/openzeppelin-contracts/blob/master/contracts/token/ERC20/ERC20.sol\":2009:2022  string memory */\n      0x60\n        /* \"https://github.com/OpenZeppelin/openzeppelin-contracts/blob/master/contracts/token/ERC20/ERC20.sol\":2041:2048  _symbol */\n      0x04\n        /* \"https://github.com/OpenZeppelin/openzeppelin-contracts/blob/master/contracts/token/ERC20/ERC20.sol\":2034:2048  return _symbol */\n      dup1\n      sload\n      tag_113\n      swap1\n      tag_77\n      jump\t// in\n    tag_113:\n      dup1\n      0x1f\n      add\n      0x20\n      dup1\n      swap2\n      div\n      mul\n      0x20\n      add\n      mload(0x40)\n      swap1\n      dup2\n      add\n      0x40\n      mstore\n      dup1\n      swap3\n      swap2\n      swap1\n      dup2\n      dup2\n      mstore\n      0x20\n      add\n      dup3\n      dup1\n      sload\n      tag_114\n      swap1\n      tag_77\n      jump\t// in\n    tag_114:\n      dup1\n      iszero\n      tag_115\n      jumpi\n      dup1\n      0x1f\n      lt\n      tag_116\n      jumpi\n      0x0100\n      dup1\n      dup4\n      sload\n      div\n      mul\n      dup4\n      mstore\n      swap2\n      0x20\n      add\n      swap2\n      jump(tag_115)\n    tag_116:\n      dup3\n      add\n      swap2\n      swap1\n      0x00\n      mstore\n      keccak256(0x00, 0x20)\n      swap1\n    tag_117:\n      dup2\n      sload\n      dup2\n      mstore\n      swap1\n      0x01\n      add\n      swap1\n      0x20\n      add\n      dup1\n      dup4\n      gt\n      tag_117\n      jumpi\n      dup3\n      swap1\n      sub\n      0x1f\n      and\n      dup3\n      add\n      swap2\n    tag_115:\n      pop\n      pop\n      pop\n      pop\n      pop\n      swap1\n      pop\n        /* \"https://github.com/OpenZeppelin/openzeppelin-contracts/blob/master/contracts/token/ERC20/ERC20.sol\":1962:2055  function symbol() public view virtual returns (string memory) {... */\n      swap1\n      jump\t// out\n        /* \"PRACTICA FINAL/archivo1.sol\":2016:2496  function burn(address destDir, uint256 tokensEliminados) external onlyOwner{... */\n    tag_62:\n        /* \"PRACTICA FINAL/archivo1.sol\":1423:1429  _owner */\n      0x06\n      0x00\n      swap1\n      sload\n      swap1\n      0x0100\n      exp\n      swap1\n      div\n      0xffffffffffffffffffffffffffffffffffffffff\n      and\n        /* \"PRACTICA FINAL/archivo1.sol\":1410:1429  msg.sender ==_owner */\n      0xffffffffffffffffffffffffffffffffffffffff\n      and\n        /* \"PRACTICA FINAL/archivo1.sol\":1410:1420  msg.sender */\n      caller\n        /* \"PRACTICA FINAL/archivo1.sol\":1410:1429  msg.sender ==_owner */\n      0xffffffffffffffffffffffffffffffffffffffff\n      and\n      eq\n        /* \"PRACTICA FINAL/archivo1.sol\":1402:1461  require(msg.sender ==_owner , \"Solo puede llamar el owner\") */\n      tag_119\n      jumpi\n      mload(0x40)\n      0x08c379a000000000000000000000000000000000000000000000000000000000\n      dup2\n      mstore\n      0x04\n      add\n      tag_120\n      swap1\n      tag_98\n      jump\t// in\n    tag_120:\n      mload(0x40)\n      dup1\n      swap2\n      sub\n      swap1\n      revert\n    tag_119:\n        /* \"PRACTICA FINAL/archivo1.sol\":2199:2200  0 */\n      0x00\n        /* \"PRACTICA FINAL/archivo1.sol\":2180:2201  destDir != address(0) */\n      0xffffffffffffffffffffffffffffffffffffffff\n      and\n        /* \"PRACTICA FINAL/archivo1.sol\":2180:2187  destDir */\n      dup3\n        /* \"PRACTICA FINAL/archivo1.sol\":2180:2201  destDir != address(0) */\n      0xffffffffffffffffffffffffffffffffffffffff\n      and\n      sub\n        /* \"PRACTICA FINAL/archivo1.sol\":2172:2239  require(destDir != address(0), \"La direccion destino no es valida\") */\n      tag_122\n      jumpi\n      mload(0x40)\n      0x08c379a000000000000000000000000000000000000000000000000000000000\n      dup2\n      mstore\n      0x04\n      add\n      tag_123\n      swap1\n      tag_102\n      jump\t// in\n    tag_123:\n      mload(0x40)\n      dup1\n      swap2\n      sub\n      swap1\n      revert\n    tag_122:\n        /* \"PRACTICA FINAL/archivo1.sol\":2346:2347  0 */\n      0x00\n        /* \"PRACTICA FINAL/archivo1.sol\":2329:2345  tokensEliminados */\n      dup2\n        /* \"PRACTICA FINAL/archivo1.sol\":2329:2347  tokensEliminados>0 */\n      gt\n        /* \"PRACTICA FINAL/archivo1.sol\":2321:2407  require(tokensEliminados>0, \"No se puede eliminar 0 ni un numero negativo de tokens.\") */\n      tag_124\n      jumpi\n      mload(0x40)\n      0x08c379a000000000000000000000000000000000000000000000000000000000\n      dup2\n      mstore\n      0x04\n      add\n      tag_125\n      swap1\n      tag_126\n      jump\t// in\n    tag_125:\n      mload(0x40)\n      dup1\n      swap2\n      sub\n      swap1\n      revert\n    tag_124:\n        /* \"PRACTICA FINAL/archivo1.sol\":2456:2488  _burn(destDir, tokensEliminados) */\n      tag_127\n        /* \"PRACTICA FINAL/archivo1.sol\":2462:2469  destDir */\n      dup3\n        /* \"PRACTICA FINAL/archivo1.sol\":2471:2487  tokensEliminados */\n      dup3\n        /* \"PRACTICA FINAL/archivo1.sol\":2456:2461  _burn */\n      tag_128\n        /* \"PRACTICA FINAL/archivo1.sol\":2456:2488  _burn(destDir, tokensEliminados) */\n      jump\t// in\n    tag_127:\n        /* \"PRACTICA FINAL/archivo1.sol\":2016:2496  function burn(address destDir, uint256 tokensEliminados) external onlyOwner{... */\n      pop\n      pop\n      jump\t// out\n        /* \"https://github.com/OpenZeppelin/openzeppelin-contracts/blob/master/contracts/token/ERC20/ERC20.sol\":3296:3474  function transfer(address to, uint256 value) public virtual returns (bool) {... */\n    tag_65:\n        /* \"https://github.com/OpenZeppelin/openzeppelin-contracts/blob/master/contracts/token/ERC20/ERC20.sol\":3365:3369  bool */\n      0x00\n        /* \"https://github.com/OpenZeppelin/openzeppelin-contracts/blob/master/contracts/token/ERC20/ERC20.sol\":3381:3394  address owner */\n      dup1\n        /* \"https://github.com/OpenZeppelin/openzeppelin-contracts/blob/master/contracts/token/ERC20/ERC20.sol\":3397:3409  _msgSender() */\n      tag_130\n        /* \"https://github.com/OpenZeppelin/openzeppelin-contracts/blob/master/contracts/token/ERC20/ERC20.sol\":3397:3407  _msgSender */\n      tag_84\n        /* \"https://github.com/OpenZeppelin/openzeppelin-contracts/blob/master/contracts/token/ERC20/ERC20.sol\":3397:3409  _msgSender() */\n      jump\t// in\n    tag_130:\n        /* \"https://github.com/OpenZeppelin/openzeppelin-contracts/blob/master/contracts/token/ERC20/ERC20.sol\":3381:3409  address owner = _msgSender() */\n      swap1\n      pop\n        /* \"https://github.com/OpenZeppelin/openzeppelin-contracts/blob/master/contracts/token/ERC20/ERC20.sol\":3419:3446  _transfer(owner, to, value) */\n      tag_131\n        /* \"https://github.com/OpenZeppelin/openzeppelin-contracts/blob/master/contracts/token/ERC20/ERC20.sol\":3429:3434  owner */\n      dup2\n        /* \"https://github.com/OpenZeppelin/openzeppelin-contracts/blob/master/contracts/token/ERC20/ERC20.sol\":3436:3438  to */\n      dup6\n        /* \"https://github.com/OpenZeppelin/openzeppelin-contracts/blob/master/contracts/token/ERC20/ERC20.sol\":3440:3445  value */\n      dup6\n        /* \"https://github.com/OpenZeppelin/openzeppelin-contracts/blob/master/contracts/token/ERC20/ERC20.sol\":3419:3428  _transfer */\n      tag_93\n        /* \"https://github.com/OpenZeppelin/openzeppelin-contracts/blob/master/contracts/token/ERC20/ERC20.sol\":3419:3446  _transfer(owner, to, value) */\n      jump\t// in\n    tag_131:\n        /* \"https://github.com/OpenZeppelin/openzeppelin-contracts/blob/master/contracts/token/ERC20/ERC20.sol\":3463:3467  true */\n      0x01\n        /* \"https://github.com/OpenZeppelin/openzeppelin-contracts/blob/master/contracts/token/ERC20/ERC20.sol\":3456:3467  return true */\n      swap2\n      pop\n      pop\n        /* \"https://github.com/OpenZeppelin/openzeppelin-contracts/blob/master/contracts/token/ERC20/ERC20.sol\":3296:3474  function transfer(address to, uint256 value) public virtual returns (bool) {... */\n      swap3\n      swap2\n      pop\n      pop\n      jump\t// out\n        /* \"https://github.com/OpenZeppelin/openzeppelin-contracts/blob/master/contracts/token/ERC20/ERC20.sol\":3532:3672  function allowance(address owner, address spender) public view virtual returns (uint256) {... */\n    tag_70:\n        /* \"https://github.com/OpenZeppelin/openzeppelin-contracts/blob/master/contracts/token/ERC20/ERC20.sol\":3612:3619  uint256 */\n      0x00\n        /* \"https://github.com/OpenZeppelin/openzeppelin-contracts/blob/master/contracts/token/ERC20/ERC20.sol\":3638:3649  _allowances */\n      0x01\n        /* \"https://github.com/OpenZeppelin/openzeppelin-contracts/blob/master/contracts/token/ERC20/ERC20.sol\":3638:3656  _allowances[owner] */\n      0x00\n        /* \"https://github.com/OpenZeppelin/openzeppelin-contracts/blob/master/contracts/token/ERC20/ERC20.sol\":3650:3655  owner */\n      dup5\n        /* \"https://github.com/OpenZeppelin/openzeppelin-contracts/blob/master/contracts/token/ERC20/ERC20.sol\":3638:3656  _allowances[owner] */\n      0xffffffffffffffffffffffffffffffffffffffff\n      and\n      0xffffffffffffffffffffffffffffffffffffffff\n      and\n      dup2\n      mstore\n      0x20\n      add\n      swap1\n      dup2\n      mstore\n      0x20\n      add\n      0x00\n      keccak256\n        /* \"https://github.com/OpenZeppelin/openzeppelin-contracts/blob/master/contracts/token/ERC20/ERC20.sol\":3638:3665  _allowances[owner][spender] */\n      0x00\n        /* \"https://github.com/OpenZeppelin/openzeppelin-contracts/blob/master/contracts/token/ERC20/ERC20.sol\":3657:3664  spender */\n      dup4\n        /* \"https://github.com/OpenZeppelin/openzeppelin-contracts/blob/master/contracts/token/ERC20/ERC20.sol\":3638:3665  _allowances[owner][spender] */\n      0xffffffffffffffffffffffffffffffffffffffff\n      and\n      0xffffffffffffffffffffffffffffffffffffffff\n      and\n      dup2\n      mstore\n      0x20\n      add\n      swap1\n      dup2\n      mstore\n      0x20\n      add\n      0x00\n      keccak256\n      sload\n        /* \"https://github.com/OpenZeppelin/openzeppelin-contracts/blob/master/contracts/token/ERC20/ERC20.sol\":3631:3665  return _allowances[owner][spender] */\n      swap1\n      pop\n        /* \"https://github.com/OpenZeppelin/openzeppelin-contracts/blob/master/contracts/token/ERC20/ERC20.sol\":3532:3672  function allowance(address owner, address spender) public view virtual returns (uint256) {... */\n      swap3\n      swap2\n      pop\n      pop\n      jump\t// out\n        /* \"PRACTICA FINAL/archivo1.sol\":789:823  uint256 public immutable maxTokens */\n    tag_73:\n      immutable(\"0x8fef2229291b68be841adf029e58b87f39ba144b2d3b0af1760243d0a9bc6a1c\")\n      dup2\n      jump\t// out\n        /* \"https://github.com/OpenZeppelin/openzeppelin-contracts/blob/master/contracts/utils/Context.sol\":656:752  function _msgSender() internal view virtual returns (address) {... */\n    tag_84:\n        /* \"https://github.com/OpenZeppelin/openzeppelin-contracts/blob/master/contracts/utils/Context.sol\":709:716  address */\n      0x00\n        /* \"https://github.com/OpenZeppelin/openzeppelin-contracts/blob/master/contracts/utils/Context.sol\":735:745  msg.sender */\n      caller\n        /* \"https://github.com/OpenZeppelin/openzeppelin-contracts/blob/master/contracts/utils/Context.sol\":728:745  return msg.sender */\n      swap1\n      pop\n        /* \"https://github.com/OpenZeppelin/openzeppelin-contracts/blob/master/contracts/utils/Context.sol\":656:752  function _msgSender() internal view virtual returns (address) {... */\n      swap1\n      jump\t// out\n        /* \"https://github.com/OpenZeppelin/openzeppelin-contracts/blob/master/contracts/token/ERC20/ERC20.sol\":8707:8835  function _approve(address owner, address spender, uint256 value) internal {... */\n    tag_86:\n        /* \"https://github.com/OpenZeppelin/openzeppelin-contracts/blob/master/contracts/token/ERC20/ERC20.sol\":8791:8828  _approve(owner, spender, value, true) */\n      tag_135\n        /* \"https://github.com/OpenZeppelin/openzeppelin-contracts/blob/master/contracts/token/ERC20/ERC20.sol\":8800:8805  owner */\n      dup4\n        /* \"https://github.com/OpenZeppelin/openzeppelin-contracts/blob/master/contracts/token/ERC20/ERC20.sol\":8807:8814  spender */\n      dup4\n        /* \"https://github.com/OpenZeppelin/openzeppelin-contracts/blob/master/contracts/token/ERC20/ERC20.sol\":8816:8821  value */\n      dup4\n        /* \"https://github.com/OpenZeppelin/openzeppelin-contracts/blob/master/contracts/token/ERC20/ERC20.sol\":8823:8827  true */\n      0x01\n        /* \"https://github.com/OpenZeppelin/openzeppelin-contracts/blob/master/contracts/token/ERC20/ERC20.sol\":8791:8799  _approve */\n      tag_136\n        /* \"https://github.com/OpenZeppelin/openzeppelin-contracts/blob/master/contracts/token/ERC20/ERC20.sol\":8791:8828  _approve(owner, spender, value, true) */\n      jump\t// in\n    tag_135:\n        /* \"https://github.com/OpenZeppelin/openzeppelin-contracts/blob/master/contracts/token/ERC20/ERC20.sol\":8707:8835  function _approve(address owner, address spender, uint256 value) internal {... */\n      pop\n      pop\n      pop\n      jump\t// out\n        /* \"https://github.com/OpenZeppelin/openzeppelin-contracts/blob/master/contracts/token/ERC20/ERC20.sol\":10396:10872  function _spendAllowance(address owner, address spender, uint256 value) internal virtual {... */\n    tag_91:\n        /* \"https://github.com/OpenZeppelin/openzeppelin-contracts/blob/master/contracts/token/ERC20/ERC20.sol\":10495:10519  uint256 currentAllowance */\n      0x00\n        /* \"https://github.com/OpenZeppelin/openzeppelin-contracts/blob/master/contracts/token/ERC20/ERC20.sol\":10522:10547  allowance(owner, spender) */\n      tag_138\n        /* \"https://github.com/OpenZeppelin/openzeppelin-contracts/blob/master/contracts/token/ERC20/ERC20.sol\":10532:10537  owner */\n      dup5\n        /* \"https://github.com/OpenZeppelin/openzeppelin-contracts/blob/master/contracts/token/ERC20/ERC20.sol\":10539:10546  spender */\n      dup5\n        /* \"https://github.com/OpenZeppelin/openzeppelin-contracts/blob/master/contracts/token/ERC20/ERC20.sol\":10522:10531  allowance */\n      tag_70\n        /* \"https://github.com/OpenZeppelin/openzeppelin-contracts/blob/master/contracts/token/ERC20/ERC20.sol\":10522:10547  allowance(owner, spender) */\n      jump\t// in\n    tag_138:\n        /* \"https://github.com/OpenZeppelin/openzeppelin-contracts/blob/master/contracts/token/ERC20/ERC20.sol\":10495:10547  uint256 currentAllowance = allowance(owner, spender) */\n      swap1\n      pop\n        /* \"https://github.com/OpenZeppelin/openzeppelin-contracts/blob/master/contracts/token/ERC20/ERC20.sol\":10580:10597  type(uint256).max */\n      0xffffffffffffffffffffffffffffffffffffffffffffffffffffffffffffffff\n        /* \"https://github.com/OpenZeppelin/openzeppelin-contracts/blob/master/contracts/token/ERC20/ERC20.sol\":10561:10577  currentAllowance */\n      dup2\n        /* \"https://github.com/OpenZeppelin/openzeppelin-contracts/blob/master/contracts/token/ERC20/ERC20.sol\":10561:10597  currentAllowance < type(uint256).max */\n      lt\n        /* \"https://github.com/OpenZeppelin/openzeppelin-contracts/blob/master/contracts/token/ERC20/ERC20.sol\":10557:10866  if (currentAllowance < type(uint256).max) {... */\n      iszero\n      tag_139\n      jumpi\n        /* \"https://github.com/OpenZeppelin/openzeppelin-contracts/blob/master/contracts/token/ERC20/ERC20.sol\":10636:10641  value */\n      dup2\n        /* \"https://github.com/OpenZeppelin/openzeppelin-contracts/blob/master/contracts/token/ERC20/ERC20.sol\":10617:10633  currentAllowance */\n      dup2\n        /* \"https://github.com/OpenZeppelin/openzeppelin-contracts/blob/master/contracts/token/ERC20/ERC20.sol\":10617:10641  currentAllowance < value */\n      lt\n        /* \"https://github.com/OpenZeppelin/openzeppelin-contracts/blob/master/contracts/token/ERC20/ERC20.sol\":10613:10743  if (currentAllowance < value) {... */\n      iszero\n      tag_140\n      jumpi\n        /* \"https://github.com/OpenZeppelin/openzeppelin-contracts/blob/master/contracts/token/ERC20/ERC20.sol\":10695:10702  spender */\n      dup3\n        /* \"https://github.com/OpenZeppelin/openzeppelin-contracts/blob/master/contracts/token/ERC20/ERC20.sol\":10704:10720  currentAllowance */\n      dup2\n        /* \"https://github.com/OpenZeppelin/openzeppelin-contracts/blob/master/contracts/token/ERC20/ERC20.sol\":10722:10727  value */\n      dup4\n        /* \"https://github.com/OpenZeppelin/openzeppelin-contracts/blob/master/contracts/token/ERC20/ERC20.sol\":10668:10728  ERC20InsufficientAllowance(spender, currentAllowance, value) */\n      mload(0x40)\n      0xfb8f41b200000000000000000000000000000000000000000000000000000000\n      dup2\n      mstore\n      0x04\n      add\n      tag_141\n      swap4\n      swap3\n      swap2\n      swap1\n      tag_142\n      jump\t// in\n    tag_141:\n      mload(0x40)\n      dup1\n      swap2\n      sub\n      swap1\n      revert\n        /* \"https://github.com/OpenZeppelin/openzeppelin-contracts/blob/master/contracts/token/ERC20/ERC20.sol\":10613:10743  if (currentAllowance < value) {... */\n    tag_140:\n        /* \"https://github.com/OpenZeppelin/openzeppelin-contracts/blob/master/contracts/token/ERC20/ERC20.sol\":10784:10841  _approve(owner, spender, currentAllowance - value, false) */\n      tag_143\n        /* \"https://github.com/OpenZeppelin/openzeppelin-contracts/blob/master/contracts/token/ERC20/ERC20.sol\":10793:10798  owner */\n      dup5\n        /* \"https://github.com/OpenZeppelin/openzeppelin-contracts/blob/master/contracts/token/ERC20/ERC20.sol\":10800:10807  spender */\n      dup5\n        /* \"https://github.com/OpenZeppelin/openzeppelin-contracts/blob/master/contracts/token/ERC20/ERC20.sol\":10828:10833  value */\n      dup5\n        /* \"https://github.com/OpenZeppelin/openzeppelin-contracts/blob/master/contracts/token/ERC20/ERC20.sol\":10809:10825  currentAllowance */\n      dup5\n        /* \"https://github.com/OpenZeppelin/openzeppelin-contracts/blob/master/contracts/token/ERC20/ERC20.sol\":10809:10833  currentAllowance - value */\n      sub\n        /* \"https://github.com/OpenZeppelin/openzeppelin-contracts/blob/master/contracts/token/ERC20/ERC20.sol\":10835:10840  false */\n      0x00\n        /* \"https://github.com/OpenZeppelin/openzeppelin-contracts/blob/master/contracts/token/ERC20/ERC20.sol\":10784:10792  _approve */\n      tag_136\n        /* \"https://github.com/OpenZeppelin/openzeppelin-contracts/blob/master/contracts/token/ERC20/ERC20.sol\":10784:10841  _approve(owner, spender, currentAllowance - value, false) */\n      jump\t// in\n    tag_143:\n        /* \"https://github.com/OpenZeppelin/openzeppelin-contracts/blob/master/contracts/token/ERC20/ERC20.sol\":10557:10866  if (currentAllowance < type(uint256).max) {... */\n    tag_139:\n        /* \"https://github.com/OpenZeppelin/openzeppelin-contracts/blob/master/contracts/token/ERC20/ERC20.sol\":10485:10872  {... */\n      pop\n        /* \"https://github.com/OpenZeppelin/openzeppelin-contracts/blob/master/contracts/token/ERC20/ERC20.sol\":10396:10872  function _spendAllowance(address owner, address spender, uint256 value) internal virtual {... */\n      pop\n      pop\n      pop\n      jump\t// out\n        /* \"https://github.com/OpenZeppelin/openzeppelin-contracts/blob/master/contracts/token/ERC20/ERC20.sol\":5374:5674  function _transfer(address from, address to, uint256 value) internal {... */\n    tag_93:\n        /* \"https://github.com/OpenZeppelin/openzeppelin-contracts/blob/master/contracts/token/ERC20/ERC20.sol\":5473:5474  0 */\n      0x00\n        /* \"https://github.com/OpenZeppelin/openzeppelin-contracts/blob/master/contracts/token/ERC20/ERC20.sol\":5457:5475  from == address(0) */\n      0xffffffffffffffffffffffffffffffffffffffff\n      and\n        /* \"https://github.com/OpenZeppelin/openzeppelin-contracts/blob/master/contracts/token/ERC20/ERC20.sol\":5457:5461  from */\n      dup4\n        /* \"https://github.com/OpenZeppelin/openzeppelin-contracts/blob/master/contracts/token/ERC20/ERC20.sol\":5457:5475  from == address(0) */\n      0xffffffffffffffffffffffffffffffffffffffff\n      and\n      sub\n        /* \"https://github.com/OpenZeppelin/openzeppelin-contracts/blob/master/contracts/token/ERC20/ERC20.sol\":5453:5539  if (from == address(0)) {... */\n      tag_145\n      jumpi\n        /* \"https://github.com/OpenZeppelin/openzeppelin-contracts/blob/master/contracts/token/ERC20/ERC20.sol\":5525:5526  0 */\n      0x00\n        /* \"https://github.com/OpenZeppelin/openzeppelin-contracts/blob/master/contracts/token/ERC20/ERC20.sol\":5498:5528  ERC20InvalidSender(address(0)) */\n      mload(0x40)\n      0x96c6fd1e00000000000000000000000000000000000000000000000000000000\n      dup2\n      mstore\n      0x04\n      add\n      tag_146\n      swap2\n      swap1\n      tag_147\n      jump\t// in\n    tag_146:\n      mload(0x40)\n      dup1\n      swap2\n      sub\n      swap1\n      revert\n        /* \"https://github.com/OpenZeppelin/openzeppelin-contracts/blob/master/contracts/token/ERC20/ERC20.sol\":5453:5539  if (from == address(0)) {... */\n    tag_145:\n        /* \"https://github.com/OpenZeppelin/openzeppelin-contracts/blob/master/contracts/token/ERC20/ERC20.sol\":5566:5567  0 */\n      0x00\n        /* \"https://github.com/OpenZeppelin/openzeppelin-contracts/blob/master/contracts/token/ERC20/ERC20.sol\":5552:5568  to == address(0) */\n      0xffffffffffffffffffffffffffffffffffffffff\n      and\n        /* \"https://github.com/OpenZeppelin/openzeppelin-contracts/blob/master/contracts/token/ERC20/ERC20.sol\":5552:5554  to */\n      dup3\n        /* \"https://github.com/OpenZeppelin/openzeppelin-contracts/blob/master/contracts/token/ERC20/ERC20.sol\":5552:5568  to == address(0) */\n      0xffffffffffffffffffffffffffffffffffffffff\n      and\n      sub\n        /* \"https://github.com/OpenZeppelin/openzeppelin-contracts/blob/master/contracts/token/ERC20/ERC20.sol\":5548:5634  if (to == address(0)) {... */\n      tag_148\n      jumpi\n        /* \"https://github.com/OpenZeppelin/openzeppelin-contracts/blob/master/contracts/token/ERC20/ERC20.sol\":5620:5621  0 */\n      0x00\n        /* \"https://github.com/OpenZeppelin/openzeppelin-contracts/blob/master/contracts/token/ERC20/ERC20.sol\":5591:5623  ERC20InvalidReceiver(address(0)) */\n      mload(0x40)\n      0xec442f0500000000000000000000000000000000000000000000000000000000\n      dup2\n      mstore\n      0x04\n      add\n      tag_149\n      swap2\n      swap1\n      tag_147\n      jump\t// in\n    tag_149:\n      mload(0x40)\n      dup1\n      swap2\n      sub\n      swap1\n      revert\n        /* \"https://github.com/OpenZeppelin/openzeppelin-contracts/blob/master/contracts/token/ERC20/ERC20.sol\":5548:5634  if (to == address(0)) {... */\n    tag_148:\n        /* \"https://github.com/OpenZeppelin/openzeppelin-contracts/blob/master/contracts/token/ERC20/ERC20.sol\":5643:5667  _update(from, to, value) */\n      tag_150\n        /* \"https://github.com/OpenZeppelin/openzeppelin-contracts/blob/master/contracts/token/ERC20/ERC20.sol\":5651:5655  from */\n      dup4\n        /* \"https://github.com/OpenZeppelin/openzeppelin-contracts/blob/master/contracts/token/ERC20/ERC20.sol\":5657:5659  to */\n      dup4\n        /* \"https://github.com/OpenZeppelin/openzeppelin-contracts/blob/master/contracts/token/ERC20/ERC20.sol\":5661:5666  value */\n      dup4\n        /* \"https://github.com/OpenZeppelin/openzeppelin-contracts/blob/master/contracts/token/ERC20/ERC20.sol\":5643:5650  _update */\n      tag_151\n        /* \"https://github.com/OpenZeppelin/openzeppelin-contracts/blob/master/contracts/token/ERC20/ERC20.sol\":5643:5667  _update(from, to, value) */\n      jump\t// in\n    tag_150:\n        /* \"https://github.com/OpenZeppelin/openzeppelin-contracts/blob/master/contracts/token/ERC20/ERC20.sol\":5374:5674  function _transfer(address from, address to, uint256 value) internal {... */\n      pop\n      pop\n      pop\n      jump\t// out\n        /* \"https://github.com/OpenZeppelin/openzeppelin-contracts/blob/master/contracts/token/ERC20/ERC20.sol\":7439:7647  function _mint(address account, uint256 value) internal {... */\n    tag_110:\n        /* \"https://github.com/OpenZeppelin/openzeppelin-contracts/blob/master/contracts/token/ERC20/ERC20.sol\":7528:7529  0 */\n      0x00\n        /* \"https://github.com/OpenZeppelin/openzeppelin-contracts/blob/master/contracts/token/ERC20/ERC20.sol\":7509:7530  account == address(0) */\n      0xffffffffffffffffffffffffffffffffffffffff\n      and\n        /* \"https://github.com/OpenZeppelin/openzeppelin-contracts/blob/master/contracts/token/ERC20/ERC20.sol\":7509:7516  account */\n      dup3\n        /* \"https://github.com/OpenZeppelin/openzeppelin-contracts/blob/master/contracts/token/ERC20/ERC20.sol\":7509:7530  account == address(0) */\n      0xffffffffffffffffffffffffffffffffffffffff\n      and\n      sub\n        /* \"https://github.com/OpenZeppelin/openzeppelin-contracts/blob/master/contracts/token/ERC20/ERC20.sol\":7505:7596  if (account == address(0)) {... */\n      tag_153\n      jumpi\n        /* \"https://github.com/OpenZeppelin/openzeppelin-contracts/blob/master/contracts/token/ERC20/ERC20.sol\":7582:7583  0 */\n      0x00\n        /* \"https://github.com/OpenZeppelin/openzeppelin-contracts/blob/master/contracts/token/ERC20/ERC20.sol\":7553:7585  ERC20InvalidReceiver(address(0)) */\n      mload(0x40)\n      0xec442f0500000000000000000000000000000000000000000000000000000000\n      dup2\n      mstore\n      0x04\n      add\n      tag_154\n      swap2\n      swap1\n      tag_147\n      jump\t// in\n    tag_154:\n      mload(0x40)\n      dup1\n      swap2\n      sub\n      swap1\n      revert\n        /* \"https://github.com/OpenZeppelin/openzeppelin-contracts/blob/master/contracts/token/ERC20/ERC20.sol\":7505:7596  if (account == address(0)) {... */\n    tag_153:\n        /* \"https://github.com/OpenZeppelin/openzeppelin-contracts/blob/master/contracts/token/ERC20/ERC20.sol\":7605:7640  _update(address(0), account, value) */\n      tag_155\n        /* \"https://github.com/OpenZeppelin/openzeppelin-contracts/blob/master/contracts/token/ERC20/ERC20.sol\":7621:7622  0 */\n      0x00\n        /* \"https://github.com/OpenZeppelin/openzeppelin-contracts/blob/master/contracts/token/ERC20/ERC20.sol\":7625:7632  account */\n      dup4\n        /* \"https://github.com/OpenZeppelin/openzeppelin-contracts/blob/master/contracts/token/ERC20/ERC20.sol\":7634:7639  value */\n      dup4\n        /* \"https://github.com/OpenZeppelin/openzeppelin-contracts/blob/master/contracts/token/ERC20/ERC20.sol\":7605:7612  _update */\n      tag_151\n        /* \"https://github.com/OpenZeppelin/openzeppelin-contracts/blob/master/contracts/token/ERC20/ERC20.sol\":7605:7640  _update(address(0), account, value) */\n      jump\t// in\n    tag_155:\n        /* \"https://github.com/OpenZeppelin/openzeppelin-contracts/blob/master/contracts/token/ERC20/ERC20.sol\":7439:7647  function _mint(address account, uint256 value) internal {... */\n      pop\n      pop\n      jump\t// out\n        /* \"https://github.com/OpenZeppelin/openzeppelin-contracts/blob/master/contracts/token/ERC20/ERC20.sol\":7965:8171  function _burn(address account, uint256 value) internal {... */\n    tag_128:\n        /* \"https://github.com/OpenZeppelin/openzeppelin-contracts/blob/master/contracts/token/ERC20/ERC20.sol\":8054:8055  0 */\n      0x00\n        /* \"https://github.com/OpenZeppelin/openzeppelin-contracts/blob/master/contracts/token/ERC20/ERC20.sol\":8035:8056  account == address(0) */\n      0xffffffffffffffffffffffffffffffffffffffff\n      and\n        /* \"https://github.com/OpenZeppelin/openzeppelin-contracts/blob/master/contracts/token/ERC20/ERC20.sol\":8035:8042  account */\n      dup3\n        /* \"https://github.com/OpenZeppelin/openzeppelin-contracts/blob/master/contracts/token/ERC20/ERC20.sol\":8035:8056  account == address(0) */\n      0xffffffffffffffffffffffffffffffffffffffff\n      and\n      sub\n        /* \"https://github.com/OpenZeppelin/openzeppelin-contracts/blob/master/contracts/token/ERC20/ERC20.sol\":8031:8120  if (account == address(0)) {... */\n      tag_157\n      jumpi\n        /* \"https://github.com/OpenZeppelin/openzeppelin-contracts/blob/master/contracts/token/ERC20/ERC20.sol\":8106:8107  0 */\n      0x00\n        /* \"https://github.com/OpenZeppelin/openzeppelin-contracts/blob/master/contracts/token/ERC20/ERC20.sol\":8079:8109  ERC20InvalidSender(address(0)) */\n      mload(0x40)\n      0x96c6fd1e00000000000000000000000000000000000000000000000000000000\n      dup2\n      mstore\n      0x04\n      add\n      tag_158\n      swap2\n      swap1\n      tag_147\n      jump\t// in\n    tag_158:\n      mload(0x40)\n      dup1\n      swap2\n      sub\n      swap1\n      revert\n        /* \"https://github.com/OpenZeppelin/openzeppelin-contracts/blob/master/contracts/token/ERC20/ERC20.sol\":8031:8120  if (account == address(0)) {... */\n    tag_157:\n        /* \"https://github.com/OpenZeppelin/openzeppelin-contracts/blob/master/contracts/token/ERC20/ERC20.sol\":8129:8164  _update(account, address(0), value) */\n      tag_159\n        /* \"https://github.com/OpenZeppelin/openzeppelin-contracts/blob/master/contracts/token/ERC20/ERC20.sol\":8137:8144  account */\n      dup3\n        /* \"https://github.com/OpenZeppelin/openzeppelin-contracts/blob/master/contracts/token/ERC20/ERC20.sol\":8154:8155  0 */\n      0x00\n        /* \"https://github.com/OpenZeppelin/openzeppelin-contracts/blob/master/contracts/token/ERC20/ERC20.sol\":8158:8163  value */\n      dup4\n        /* \"https://github.com/OpenZeppelin/openzeppelin-contracts/blob/master/contracts/token/ERC20/ERC20.sol\":8129:8136  _update */\n      tag_151\n        /* \"https://github.com/OpenZeppelin/openzeppelin-contracts/blob/master/contracts/token/ERC20/ERC20.sol\":8129:8164  _update(account, address(0), value) */\n      jump\t// in\n    tag_159:\n        /* \"https://github.com/OpenZeppelin/openzeppelin-contracts/blob/master/contracts/token/ERC20/ERC20.sol\":7965:8171  function _burn(address account, uint256 value) internal {... */\n      pop\n      pop\n      jump\t// out\n        /* \"https://github.com/OpenZeppelin/openzeppelin-contracts/blob/master/contracts/token/ERC20/ERC20.sol\":9682:10114  function _approve(address owner, address spender, uint256 value, bool emitEvent) internal virtual {... */\n    tag_136:\n        /* \"https://github.com/OpenZeppelin/openzeppelin-contracts/blob/master/contracts/token/ERC20/ERC20.sol\":9811:9812  0 */\n      0x00\n        /* \"https://github.com/OpenZeppelin/openzeppelin-contracts/blob/master/contracts/token/ERC20/ERC20.sol\":9794:9813  owner == address(0) */\n      0xffffffffffffffffffffffffffffffffffffffff\n      and\n        /* \"https://github.com/OpenZeppelin/openzeppelin-contracts/blob/master/contracts/token/ERC20/ERC20.sol\":9794:9799  owner */\n      dup5\n        /* \"https://github.com/OpenZeppelin/openzeppelin-contracts/blob/master/contracts/token/ERC20/ERC20.sol\":9794:9813  owner == address(0) */\n      0xffffffffffffffffffffffffffffffffffffffff\n      and\n      sub\n        /* \"https://github.com/OpenZeppelin/openzeppelin-contracts/blob/master/contracts/token/ERC20/ERC20.sol\":9790:9879  if (owner == address(0)) {... */\n      tag_161\n      jumpi\n        /* \"https://github.com/OpenZeppelin/openzeppelin-contracts/blob/master/contracts/token/ERC20/ERC20.sol\":9865:9866  0 */\n      0x00\n        /* \"https://github.com/OpenZeppelin/openzeppelin-contracts/blob/master/contracts/token/ERC20/ERC20.sol\":9836:9868  ERC20InvalidApprover(address(0)) */\n      mload(0x40)\n      0xe602df0500000000000000000000000000000000000000000000000000000000\n      dup2\n      mstore\n      0x04\n      add\n      tag_162\n      swap2\n      swap1\n      tag_147\n      jump\t// in\n    tag_162:\n      mload(0x40)\n      dup1\n      swap2\n      sub\n      swap1\n      revert\n        /* \"https://github.com/OpenZeppelin/openzeppelin-contracts/blob/master/contracts/token/ERC20/ERC20.sol\":9790:9879  if (owner == address(0)) {... */\n    tag_161:\n        /* \"https://github.com/OpenZeppelin/openzeppelin-contracts/blob/master/contracts/token/ERC20/ERC20.sol\":9911:9912  0 */\n      0x00\n        /* \"https://github.com/OpenZeppelin/openzeppelin-contracts/blob/master/contracts/token/ERC20/ERC20.sol\":9892:9913  spender == address(0) */\n      0xffffffffffffffffffffffffffffffffffffffff\n      and\n        /* \"https://github.com/OpenZeppelin/openzeppelin-contracts/blob/master/contracts/token/ERC20/ERC20.sol\":9892:9899  spender */\n      dup4\n        /* \"https://github.com/OpenZeppelin/openzeppelin-contracts/blob/master/contracts/token/ERC20/ERC20.sol\":9892:9913  spender == address(0) */\n      0xffffffffffffffffffffffffffffffffffffffff\n      and\n      sub\n        /* \"https://github.com/OpenZeppelin/openzeppelin-contracts/blob/master/contracts/token/ERC20/ERC20.sol\":9888:9978  if (spender == address(0)) {... */\n      tag_163\n      jumpi\n        /* \"https://github.com/OpenZeppelin/openzeppelin-contracts/blob/master/contracts/token/ERC20/ERC20.sol\":9964:9965  0 */\n      0x00\n        /* \"https://github.com/OpenZeppelin/openzeppelin-contracts/blob/master/contracts/token/ERC20/ERC20.sol\":9936:9967  ERC20InvalidSpender(address(0)) */\n      mload(0x40)\n      0x94280d6200000000000000000000000000000000000000000000000000000000\n      dup2\n      mstore\n      0x04\n      add\n      tag_164\n      swap2\n      swap1\n      tag_147\n      jump\t// in\n    tag_164:\n      mload(0x40)\n      dup1\n      swap2\n      sub\n      swap1\n      revert\n        /* \"https://github.com/OpenZeppelin/openzeppelin-contracts/blob/master/contracts/token/ERC20/ERC20.sol\":9888:9978  if (spender == address(0)) {... */\n    tag_163:\n        /* \"https://github.com/OpenZeppelin/openzeppelin-contracts/blob/master/contracts/token/ERC20/ERC20.sol\":10017:10022  value */\n      dup2\n        /* \"https://github.com/OpenZeppelin/openzeppelin-contracts/blob/master/contracts/token/ERC20/ERC20.sol\":9987:9998  _allowances */\n      0x01\n        /* \"https://github.com/OpenZeppelin/openzeppelin-contracts/blob/master/contracts/token/ERC20/ERC20.sol\":9987:10005  _allowances[owner] */\n      0x00\n        /* \"https://github.com/OpenZeppelin/openzeppelin-contracts/blob/master/contracts/token/ERC20/ERC20.sol\":9999:10004  owner */\n      dup7\n        /* \"https://github.com/OpenZeppelin/openzeppelin-contracts/blob/master/contracts/token/ERC20/ERC20.sol\":9987:10005  _allowances[owner] */\n      0xffffffffffffffffffffffffffffffffffffffff\n      and\n      0xffffffffffffffffffffffffffffffffffffffff\n      and\n      dup2\n      mstore\n      0x20\n      add\n      swap1\n      dup2\n      mstore\n      0x20\n      add\n      0x00\n      keccak256\n        /* \"https://github.com/OpenZeppelin/openzeppelin-contracts/blob/master/contracts/token/ERC20/ERC20.sol\":9987:10014  _allowances[owner][spender] */\n      0x00\n        /* \"https://github.com/OpenZeppelin/openzeppelin-contracts/blob/master/contracts/token/ERC20/ERC20.sol\":10006:10013  spender */\n      dup6\n        /* \"https://github.com/OpenZeppelin/openzeppelin-contracts/blob/master/contracts/token/ERC20/ERC20.sol\":9987:10014  _allowances[owner][spender] */\n      0xffffffffffffffffffffffffffffffffffffffff\n      and\n      0xffffffffffffffffffffffffffffffffffffffff\n      and\n      dup2\n      mstore\n      0x20\n      add\n      swap1\n      dup2\n      mstore\n      0x20\n      add\n      0x00\n      keccak256\n        /* \"https://github.com/OpenZeppelin/openzeppelin-contracts/blob/master/contracts/token/ERC20/ERC20.sol\":9987:10022  _allowances[owner][spender] = value */\n      dup2\n      swap1\n      sstore\n      pop\n        /* \"https://github.com/OpenZeppelin/openzeppelin-contracts/blob/master/contracts/token/ERC20/ERC20.sol\":10036:10045  emitEvent */\n      dup1\n        /* \"https://github.com/OpenZeppelin/openzeppelin-contracts/blob/master/contracts/token/ERC20/ERC20.sol\":10032:10108  if (emitEvent) {... */\n      iszero\n      tag_165\n      jumpi\n        /* \"https://github.com/OpenZeppelin/openzeppelin-contracts/blob/master/contracts/token/ERC20/ERC20.sol\":10082:10089  spender */\n      dup3\n        /* \"https://github.com/OpenZeppelin/openzeppelin-contracts/blob/master/contracts/token/ERC20/ERC20.sol\":10066:10097  Approval(owner, spender, value) */\n      0xffffffffffffffffffffffffffffffffffffffff\n      and\n        /* \"https://github.com/OpenZeppelin/openzeppelin-contracts/blob/master/contracts/token/ERC20/ERC20.sol\":10075:10080  owner */\n      dup5\n        /* \"https://github.com/OpenZeppelin/openzeppelin-contracts/blob/master/contracts/token/ERC20/ERC20.sol\":10066:10097  Approval(owner, spender, value) */\n      0xffffffffffffffffffffffffffffffffffffffff\n      and\n      0x8c5be1e5ebec7d5bd14f71427d1e84f3dd0314c0f7b2291e5b200ac8c7c3b925\n        /* \"https://github.com/OpenZeppelin/openzeppelin-contracts/blob/master/contracts/token/ERC20/ERC20.sol\":10091:10096  value */\n      dup5\n        /* \"https://github.com/OpenZeppelin/openzeppelin-contracts/blob/master/contracts/token/ERC20/ERC20.sol\":10066:10097  Approval(owner, spender, value) */\n      mload(0x40)\n      tag_166\n      swap2\n      swap1\n      tag_33\n      jump\t// in\n    tag_166:\n      mload(0x40)\n      dup1\n      swap2\n      sub\n      swap1\n      log3\n        /* \"https://github.com/OpenZeppelin/openzeppelin-contracts/blob/master/contracts/token/ERC20/ERC20.sol\":10032:10108  if (emitEvent) {... */\n    tag_165:\n        /* \"https://github.com/OpenZeppelin/openzeppelin-contracts/blob/master/contracts/token/ERC20/ERC20.sol\":9682:10114  function _approve(address owner, address spender, uint256 value, bool emitEvent) internal virtual {... */\n      pop\n      pop\n      pop\n      pop\n      jump\t// out\n        /* \"https://github.com/OpenZeppelin/openzeppelin-contracts/blob/master/contracts/token/ERC20/ERC20.sol\":5989:7096  function _update(address from, address to, uint256 value) internal virtual {... */\n    tag_151:\n        /* \"https://github.com/OpenZeppelin/openzeppelin-contracts/blob/master/contracts/token/ERC20/ERC20.sol\":6094:6095  0 */\n      0x00\n        /* \"https://github.com/OpenZeppelin/openzeppelin-contracts/blob/master/contracts/token/ERC20/ERC20.sol\":6078:6096  from == address(0) */\n      0xffffffffffffffffffffffffffffffffffffffff\n      and\n        /* \"https://github.com/OpenZeppelin/openzeppelin-contracts/blob/master/contracts/token/ERC20/ERC20.sol\":6078:6082  from */\n      dup4\n        /* \"https://github.com/OpenZeppelin/openzeppelin-contracts/blob/master/contracts/token/ERC20/ERC20.sol\":6078:6096  from == address(0) */\n      0xffffffffffffffffffffffffffffffffffffffff\n      and\n      sub\n        /* \"https://github.com/OpenZeppelin/openzeppelin-contracts/blob/master/contracts/token/ERC20/ERC20.sol\":6074:6614  if (from == address(0)) {... */\n      tag_168\n      jumpi\n        /* \"https://github.com/OpenZeppelin/openzeppelin-contracts/blob/master/contracts/token/ERC20/ERC20.sol\":6230:6235  value */\n      dup1\n        /* \"https://github.com/OpenZeppelin/openzeppelin-contracts/blob/master/contracts/token/ERC20/ERC20.sol\":6214:6226  _totalSupply */\n      0x02\n      0x00\n        /* \"https://github.com/OpenZeppelin/openzeppelin-contracts/blob/master/contracts/token/ERC20/ERC20.sol\":6214:6235  _totalSupply += value */\n      dup3\n      dup3\n      sload\n      tag_169\n      swap2\n      swap1\n      tag_104\n      jump\t// in\n    tag_169:\n      swap3\n      pop\n      pop\n      dup2\n      swap1\n      sstore\n      pop\n        /* \"https://github.com/OpenZeppelin/openzeppelin-contracts/blob/master/contracts/token/ERC20/ERC20.sol\":6074:6614  if (from == address(0)) {... */\n      jump(tag_170)\n    tag_168:\n        /* \"https://github.com/OpenZeppelin/openzeppelin-contracts/blob/master/contracts/token/ERC20/ERC20.sol\":6266:6285  uint256 fromBalance */\n      0x00\n        /* \"https://github.com/OpenZeppelin/openzeppelin-contracts/blob/master/contracts/token/ERC20/ERC20.sol\":6288:6297  _balances */\n      dup1\n        /* \"https://github.com/OpenZeppelin/openzeppelin-contracts/blob/master/contracts/token/ERC20/ERC20.sol\":6288:6303  _balances[from] */\n      0x00\n        /* \"https://github.com/OpenZeppelin/openzeppelin-contracts/blob/master/contracts/token/ERC20/ERC20.sol\":6298:6302  from */\n      dup6\n        /* \"https://github.com/OpenZeppelin/openzeppelin-contracts/blob/master/contracts/token/ERC20/ERC20.sol\":6288:6303  _balances[from] */\n      0xffffffffffffffffffffffffffffffffffffffff\n      and\n      0xffffffffffffffffffffffffffffffffffffffff\n      and\n      dup2\n      mstore\n      0x20\n      add\n      swap1\n      dup2\n      mstore\n      0x20\n      add\n      0x00\n      keccak256\n      sload\n        /* \"https://github.com/OpenZeppelin/openzeppelin-contracts/blob/master/contracts/token/ERC20/ERC20.sol\":6266:6303  uint256 fromBalance = _balances[from] */\n      swap1\n      pop\n        /* \"https://github.com/OpenZeppelin/openzeppelin-contracts/blob/master/contracts/token/ERC20/ERC20.sol\":6335:6340  value */\n      dup2\n        /* \"https://github.com/OpenZeppelin/openzeppelin-contracts/blob/master/contracts/token/ERC20/ERC20.sol\":6321:6332  fromBalance */\n      dup2\n        /* \"https://github.com/OpenZeppelin/openzeppelin-contracts/blob/master/contracts/token/ERC20/ERC20.sol\":6321:6340  fromBalance < value */\n      lt\n        /* \"https://github.com/OpenZeppelin/openzeppelin-contracts/blob/master/contracts/token/ERC20/ERC20.sol\":6317:6432  if (fromBalance < value) {... */\n      iszero\n      tag_171\n      jumpi\n        /* \"https://github.com/OpenZeppelin/openzeppelin-contracts/blob/master/contracts/token/ERC20/ERC20.sol\":6392:6396  from */\n      dup4\n        /* \"https://github.com/OpenZeppelin/openzeppelin-contracts/blob/master/contracts/token/ERC20/ERC20.sol\":6398:6409  fromBalance */\n      dup2\n        /* \"https://github.com/OpenZeppelin/openzeppelin-contracts/blob/master/contracts/token/ERC20/ERC20.sol\":6411:6416  value */\n      dup4\n        /* \"https://github.com/OpenZeppelin/openzeppelin-contracts/blob/master/contracts/token/ERC20/ERC20.sol\":6367:6417  ERC20InsufficientBalance(from, fromBalance, value) */\n      mload(0x40)\n      0xe450d38c00000000000000000000000000000000000000000000000000000000\n      dup2\n      mstore\n      0x04\n      add\n      tag_172\n      swap4\n      swap3\n      swap2\n      swap1\n      tag_142\n      jump\t// in\n    tag_172:\n      mload(0x40)\n      dup1\n      swap2\n      sub\n      swap1\n      revert\n        /* \"https://github.com/OpenZeppelin/openzeppelin-contracts/blob/master/contracts/token/ERC20/ERC20.sol\":6317:6432  if (fromBalance < value) {... */\n    tag_171:\n        /* \"https://github.com/OpenZeppelin/openzeppelin-contracts/blob/master/contracts/token/ERC20/ERC20.sol\":6584:6589  value */\n      dup2\n        /* \"https://github.com/OpenZeppelin/openzeppelin-contracts/blob/master/contracts/token/ERC20/ERC20.sol\":6570:6581  fromBalance */\n      dup2\n        /* \"https://github.com/OpenZeppelin/openzeppelin-contracts/blob/master/contracts/token/ERC20/ERC20.sol\":6570:6589  fromBalance - value */\n      sub\n        /* \"https://github.com/OpenZeppelin/openzeppelin-contracts/blob/master/contracts/token/ERC20/ERC20.sol\":6552:6561  _balances */\n      0x00\n        /* \"https://github.com/OpenZeppelin/openzeppelin-contracts/blob/master/contracts/token/ERC20/ERC20.sol\":6552:6567  _balances[from] */\n      dup1\n        /* \"https://github.com/OpenZeppelin/openzeppelin-contracts/blob/master/contracts/token/ERC20/ERC20.sol\":6562:6566  from */\n      dup7\n        /* \"https://github.com/OpenZeppelin/openzeppelin-contracts/blob/master/contracts/token/ERC20/ERC20.sol\":6552:6567  _balances[from] */\n      0xffffffffffffffffffffffffffffffffffffffff\n      and\n      0xffffffffffffffffffffffffffffffffffffffff\n      and\n      dup2\n      mstore\n      0x20\n      add\n      swap1\n      dup2\n      mstore\n      0x20\n      add\n      0x00\n      keccak256\n        /* \"https://github.com/OpenZeppelin/openzeppelin-contracts/blob/master/contracts/token/ERC20/ERC20.sol\":6552:6589  _balances[from] = fromBalance - value */\n      dup2\n      swap1\n      sstore\n      pop\n        /* \"https://github.com/OpenZeppelin/openzeppelin-contracts/blob/master/contracts/token/ERC20/ERC20.sol\":6252:6614  {... */\n      pop\n        /* \"https://github.com/OpenZeppelin/openzeppelin-contracts/blob/master/contracts/token/ERC20/ERC20.sol\":6074:6614  if (from == address(0)) {... */\n    tag_170:\n        /* \"https://github.com/OpenZeppelin/openzeppelin-contracts/blob/master/contracts/token/ERC20/ERC20.sol\":6642:6643  0 */\n      0x00\n        /* \"https://github.com/OpenZeppelin/openzeppelin-contracts/blob/master/contracts/token/ERC20/ERC20.sol\":6628:6644  to == address(0) */\n      0xffffffffffffffffffffffffffffffffffffffff\n      and\n        /* \"https://github.com/OpenZeppelin/openzeppelin-contracts/blob/master/contracts/token/ERC20/ERC20.sol\":6628:6630  to */\n      dup3\n        /* \"https://github.com/OpenZeppelin/openzeppelin-contracts/blob/master/contracts/token/ERC20/ERC20.sol\":6628:6644  to == address(0) */\n      0xffffffffffffffffffffffffffffffffffffffff\n      and\n      sub\n        /* \"https://github.com/OpenZeppelin/openzeppelin-contracts/blob/master/contracts/token/ERC20/ERC20.sol\":6624:7049  if (to == address(0)) {... */\n      tag_173\n      jumpi\n        /* \"https://github.com/OpenZeppelin/openzeppelin-contracts/blob/master/contracts/token/ERC20/ERC20.sol\":6807:6812  value */\n      dup1\n        /* \"https://github.com/OpenZeppelin/openzeppelin-contracts/blob/master/contracts/token/ERC20/ERC20.sol\":6791:6803  _totalSupply */\n      0x02\n      0x00\n        /* \"https://github.com/OpenZeppelin/openzeppelin-contracts/blob/master/contracts/token/ERC20/ERC20.sol\":6791:6812  _totalSupply -= value */\n      dup3\n      dup3\n      sload\n      sub\n      swap3\n      pop\n      pop\n      dup2\n      swap1\n      sstore\n      pop\n        /* \"https://github.com/OpenZeppelin/openzeppelin-contracts/blob/master/contracts/token/ERC20/ERC20.sol\":6624:7049  if (to == address(0)) {... */\n      jump(tag_174)\n    tag_173:\n        /* \"https://github.com/OpenZeppelin/openzeppelin-contracts/blob/master/contracts/token/ERC20/ERC20.sol\":7019:7024  value */\n      dup1\n        /* \"https://github.com/OpenZeppelin/openzeppelin-contracts/blob/master/contracts/token/ERC20/ERC20.sol\":7002:7011  _balances */\n      0x00\n        /* \"https://github.com/OpenZeppelin/openzeppelin-contracts/blob/master/contracts/token/ERC20/ERC20.sol\":7002:7015  _balances[to] */\n      dup1\n        /* \"https://github.com/OpenZeppelin/openzeppelin-contracts/blob/master/contracts/token/ERC20/ERC20.sol\":7012:7014  to */\n      dup5\n        /* \"https://github.com/OpenZeppelin/openzeppelin-contracts/blob/master/contracts/token/ERC20/ERC20.sol\":7002:7015  _balances[to] */\n      0xffffffffffffffffffffffffffffffffffffffff\n      and\n      0xffffffffffffffffffffffffffffffffffffffff\n      and\n      dup2\n      mstore\n      0x20\n      add\n      swap1\n      dup2\n      mstore\n      0x20\n      add\n      0x00\n      keccak256\n      0x00\n        /* \"https://github.com/OpenZeppelin/openzeppelin-contracts/blob/master/contracts/token/ERC20/ERC20.sol\":7002:7024  _balances[to] += value */\n      dup3\n      dup3\n      sload\n      add\n      swap3\n      pop\n      pop\n      dup2\n      swap1\n      sstore\n      pop\n        /* \"https://github.com/OpenZeppelin/openzeppelin-contracts/blob/master/contracts/token/ERC20/ERC20.sol\":6624:7049  if (to == address(0)) {... */\n    tag_174:\n        /* \"https://github.com/OpenZeppelin/openzeppelin-contracts/blob/master/contracts/token/ERC20/ERC20.sol\":7079:7081  to */\n      dup2\n        /* \"https://github.com/OpenZeppelin/openzeppelin-contracts/blob/master/contracts/token/ERC20/ERC20.sol\":7064:7089  Transfer(from, to, value) */\n      0xffffffffffffffffffffffffffffffffffffffff\n      and\n        /* \"https://github.com/OpenZeppelin/openzeppelin-contracts/blob/master/contracts/token/ERC20/ERC20.sol\":7073:7077  from */\n      dup4\n        /* \"https://github.com/OpenZeppelin/openzeppelin-contracts/blob/master/contracts/token/ERC20/ERC20.sol\":7064:7089  Transfer(from, to, value) */\n      0xffffffffffffffffffffffffffffffffffffffff\n      and\n      0xddf252ad1be2c89b69c2b068fc378daa952ba7f163c4a11628f55a4df523b3ef\n        /* \"https://github.com/OpenZeppelin/openzeppelin-contracts/blob/master/contracts/token/ERC20/ERC20.sol\":7083:7088  value */\n      dup4\n        /* \"https://github.com/OpenZeppelin/openzeppelin-contracts/blob/master/contracts/token/ERC20/ERC20.sol\":7064:7089  Transfer(from, to, value) */\n      mload(0x40)\n      tag_175\n      swap2\n      swap1\n      tag_33\n      jump\t// in\n    tag_175:\n      mload(0x40)\n      dup1\n      swap2\n      sub\n      swap1\n      log3\n        /* \"https://github.com/OpenZeppelin/openzeppelin-contracts/blob/master/contracts/token/ERC20/ERC20.sol\":5989:7096  function _update(address from, address to, uint256 value) internal virtual {... */\n      pop\n      pop\n      pop\n      jump\t// out\n        /* \"#utility.yul\":7:106   */\n    tag_176:\n        /* \"#utility.yul\":59:65   */\n      0x00\n        /* \"#utility.yul\":93:98   */\n      dup2\n        /* \"#utility.yul\":87:99   */\n      mload\n        /* \"#utility.yul\":77:99   */\n      swap1\n      pop\n        /* \"#utility.yul\":7:106   */\n      swap2\n      swap1\n      pop\n      jump\t// out\n        /* \"#utility.yul\":112:281   */\n    tag_177:\n        /* \"#utility.yul\":196:207   */\n      0x00\n        /* \"#utility.yul\":230:236   */\n      dup3\n        /* \"#utility.yul\":225:228   */\n      dup3\n        /* \"#utility.yul\":218:237   */\n      mstore\n        /* \"#utility.yul\":270:274   */\n      0x20\n        /* \"#utility.yul\":265:268   */\n      dup3\n        /* \"#utility.yul\":261:275   */\n      add\n        /* \"#utility.yul\":246:275   */\n      swap1\n      pop\n        /* \"#utility.yul\":112:281   */\n      swap3\n      swap2\n      pop\n      pop\n      jump\t// out\n        /* \"#utility.yul\":287:426   */\n    tag_178:\n        /* \"#utility.yul\":376:382   */\n      dup3\n        /* \"#utility.yul\":371:374   */\n      dup2\n        /* \"#utility.yul\":366:369   */\n      dup4\n        /* \"#utility.yul\":360:383   */\n      mcopy\n        /* \"#utility.yul\":417:418   */\n      0x00\n        /* \"#utility.yul\":408:414   */\n      dup4\n        /* \"#utility.yul\":403:406   */\n      dup4\n        /* \"#utility.yul\":399:415   */\n      add\n        /* \"#utility.yul\":392:419   */\n      mstore\n        /* \"#utility.yul\":287:426   */\n      pop\n      pop\n      pop\n      jump\t// out\n        /* \"#utility.yul\":432:534   */\n    tag_179:\n        /* \"#utility.yul\":473:479   */\n      0x00\n        /* \"#utility.yul\":524:526   */\n      0x1f\n        /* \"#utility.yul\":520:527   */\n      not\n        /* \"#utility.yul\":515:517   */\n      0x1f\n        /* \"#utility.yul\":508:513   */\n      dup4\n        /* \"#utility.yul\":504:518   */\n      add\n        /* \"#utility.yul\":500:528   */\n      and\n        /* \"#utility.yul\":490:528   */\n      swap1\n      pop\n        /* \"#utility.yul\":432:534   */\n      swap2\n      swap1\n      pop\n      jump\t// out\n        /* \"#utility.yul\":540:917   */\n    tag_180:\n        /* \"#utility.yul\":628:631   */\n      0x00\n        /* \"#utility.yul\":656:695   */\n      tag_213\n        /* \"#utility.yul\":689:694   */\n      dup3\n        /* \"#utility.yul\":656:695   */\n      tag_176\n      jump\t// in\n    tag_213:\n        /* \"#utility.yul\":711:782   */\n      tag_214\n        /* \"#utility.yul\":775:781   */\n      dup2\n        /* \"#utility.yul\":770:773   */\n      dup6\n        /* \"#utility.yul\":711:782   */\n      tag_177\n      jump\t// in\n    tag_214:\n        /* \"#utility.yul\":704:782   */\n      swap4\n      pop\n        /* \"#utility.yul\":791:856   */\n      tag_215\n        /* \"#utility.yul\":849:855   */\n      dup2\n        /* \"#utility.yul\":844:847   */\n      dup6\n        /* \"#utility.yul\":837:841   */\n      0x20\n        /* \"#utility.yul\":830:835   */\n      dup7\n        /* \"#utility.yul\":826:842   */\n      add\n        /* \"#utility.yul\":791:856   */\n      tag_178\n      jump\t// in\n    tag_215:\n        /* \"#utility.yul\":881:910   */\n      tag_216\n        /* \"#utility.yul\":903:909   */\n      dup2\n        /* \"#utility.yul\":881:910   */\n      tag_179\n      jump\t// in\n    tag_216:\n        /* \"#utility.yul\":876:879   */\n      dup5\n        /* \"#utility.yul\":872:911   */\n      add\n        /* \"#utility.yul\":865:911   */\n      swap2\n      pop\n        /* \"#utility.yul\":632:917   */\n      pop\n        /* \"#utility.yul\":540:917   */\n      swap3\n      swap2\n      pop\n      pop\n      jump\t// out\n        /* \"#utility.yul\":923:1236   */\n    tag_23:\n        /* \"#utility.yul\":1036:1040   */\n      0x00\n        /* \"#utility.yul\":1074:1076   */\n      0x20\n        /* \"#utility.yul\":1063:1072   */\n      dup3\n        /* \"#utility.yul\":1059:1077   */\n      add\n        /* \"#utility.yul\":1051:1077   */\n      swap1\n      pop\n        /* \"#utility.yul\":1123:1132   */\n      dup2\n        /* \"#utility.yul\":1117:1121   */\n      dup2\n        /* \"#utility.yul\":1113:1133   */\n      sub\n        /* \"#utility.yul\":1109:1110   */\n      0x00\n        /* \"#utility.yul\":1098:1107   */\n      dup4\n        /* \"#utility.yul\":1094:1111   */\n      add\n        /* \"#utility.yul\":1087:1134   */\n      mstore\n        /* \"#utility.yul\":1151:1229   */\n      tag_218\n        /* \"#utility.yul\":1224:1228   */\n      dup2\n        /* \"#utility.yul\":1215:1221   */\n      dup5\n        /* \"#utility.yul\":1151:1229   */\n      tag_180\n      jump\t// in\n    tag_218:\n        /* \"#utility.yul\":1143:1229   */\n      swap1\n      pop\n        /* \"#utility.yul\":923:1236   */\n      swap3\n      swap2\n      pop\n      pop\n      jump\t// out\n        /* \"#utility.yul\":1323:1440   */\n    tag_182:\n        /* \"#utility.yul\":1432:1433   */\n      0x00\n        /* \"#utility.yul\":1429:1430   */\n      dup1\n        /* \"#utility.yul\":1422:1434   */\n      revert\n        /* \"#utility.yul\":1569:1695   */\n    tag_184:\n        /* \"#utility.yul\":1606:1613   */\n      0x00\n        /* \"#utility.yul\":1646:1688   */\n      0xffffffffffffffffffffffffffffffffffffffff\n        /* \"#utility.yul\":1639:1644   */\n      dup3\n        /* \"#utility.yul\":1635:1689   */\n      and\n        /* \"#utility.yul\":1624:1689   */\n      swap1\n      pop\n        /* \"#utility.yul\":1569:1695   */\n      swap2\n      swap1\n      pop\n      jump\t// out\n        /* \"#utility.yul\":1701:1797   */\n    tag_185:\n        /* \"#utility.yul\":1738:1745   */\n      0x00\n        /* \"#utility.yul\":1767:1791   */\n      tag_224\n        /* \"#utility.yul\":1785:1790   */\n      dup3\n        /* \"#utility.yul\":1767:1791   */\n      tag_184\n      jump\t// in\n    tag_224:\n        /* \"#utility.yul\":1756:1791   */\n      swap1\n      pop\n        /* \"#utility.yul\":1701:1797   */\n      swap2\n      swap1\n      pop\n      jump\t// out\n        /* \"#utility.yul\":1803:1925   */\n    tag_186:\n        /* \"#utility.yul\":1876:1900   */\n      tag_226\n        /* \"#utility.yul\":1894:1899   */\n      dup2\n        /* \"#utility.yul\":1876:1900   */\n      tag_185\n      jump\t// in\n    tag_226:\n        /* \"#utility.yul\":1869:1874   */\n      dup2\n        /* \"#utility.yul\":1866:1901   */\n      eq\n        /* \"#utility.yul\":1856:1919   */\n      tag_227\n      jumpi\n        /* \"#utility.yul\":1915:1916   */\n      0x00\n        /* \"#utility.yul\":1912:1913   */\n      dup1\n        /* \"#utility.yul\":1905:1917   */\n      revert\n        /* \"#utility.yul\":1856:1919   */\n    tag_227:\n        /* \"#utility.yul\":1803:1925   */\n      pop\n      jump\t// out\n        /* \"#utility.yul\":1931:2070   */\n    tag_187:\n        /* \"#utility.yul\":1977:1982   */\n      0x00\n        /* \"#utility.yul\":2015:2021   */\n      dup2\n        /* \"#utility.yul\":2002:2022   */\n      calldataload\n        /* \"#utility.yul\":1993:2022   */\n      swap1\n      pop\n        /* \"#utility.yul\":2031:2064   */\n      tag_229\n        /* \"#utility.yul\":2058:2063   */\n      dup2\n        /* \"#utility.yul\":2031:2064   */\n      tag_186\n      jump\t// in\n    tag_229:\n        /* \"#utility.yul\":1931:2070   */\n      swap3\n      swap2\n      pop\n      pop\n      jump\t// out\n        /* \"#utility.yul\":2076:2153   */\n    tag_188:\n        /* \"#utility.yul\":2113:2120   */\n      0x00\n        /* \"#utility.yul\":2142:2147   */\n      dup2\n        /* \"#utility.yul\":2131:2147   */\n      swap1\n      pop\n        /* \"#utility.yul\":2076:2153   */\n      swap2\n      swap1\n      pop\n      jump\t// out\n        /* \"#utility.yul\":2159:2281   */\n    tag_189:\n        /* \"#utility.yul\":2232:2256   */\n      tag_232\n        /* \"#utility.yul\":2250:2255   */\n      dup2\n        /* \"#utility.yul\":2232:2256   */\n      tag_188\n      jump\t// in\n    tag_232:\n        /* \"#utility.yul\":2225:2230   */\n      dup2\n        /* \"#utility.yul\":2222:2257   */\n      eq\n        /* \"#utility.yul\":2212:2275   */\n      tag_233\n      jumpi\n        /* \"#utility.yul\":2271:2272   */\n      0x00\n        /* \"#utility.yul\":2268:2269   */\n      dup1\n        /* \"#utility.yul\":2261:2273   */\n      revert\n        /* \"#utility.yul\":2212:2275   */\n    tag_233:\n        /* \"#utility.yul\":2159:2281   */\n      pop\n      jump\t// out\n        /* \"#utility.yul\":2287:2426   */\n    tag_190:\n        /* \"#utility.yul\":2333:2338   */\n      0x00\n        /* \"#utility.yul\":2371:2377   */\n      dup2\n        /* \"#utility.yul\":2358:2378   */\n      calldataload\n        /* \"#utility.yul\":2349:2378   */\n      swap1\n      pop\n        /* \"#utility.yul\":2387:2420   */\n      tag_235\n        /* \"#utility.yul\":2414:2419   */\n      dup2\n        /* \"#utility.yul\":2387:2420   */\n      tag_189\n      jump\t// in\n    tag_235:\n        /* \"#utility.yul\":2287:2426   */\n      swap3\n      swap2\n      pop\n      pop\n      jump\t// out\n        /* \"#utility.yul\":2432:2906   */\n    tag_26:\n        /* \"#utility.yul\":2500:2506   */\n      0x00\n        /* \"#utility.yul\":2508:2514   */\n      dup1\n        /* \"#utility.yul\":2557:2559   */\n      0x40\n        /* \"#utility.yul\":2545:2554   */\n      dup4\n        /* \"#utility.yul\":2536:2543   */\n      dup6\n        /* \"#utility.yul\":2532:2555   */\n      sub\n        /* \"#utility.yul\":2528:2560   */\n      slt\n        /* \"#utility.yul\":2525:2644   */\n      iszero\n      tag_237\n      jumpi\n        /* \"#utility.yul\":2563:2642   */\n      tag_238\n      tag_182\n      jump\t// in\n    tag_238:\n        /* \"#utility.yul\":2525:2644   */\n    tag_237:\n        /* \"#utility.yul\":2683:2684   */\n      0x00\n        /* \"#utility.yul\":2708:2761   */\n      tag_239\n        /* \"#utility.yul\":2753:2760   */\n      dup6\n        /* \"#utility.yul\":2744:2750   */\n      dup3\n        /* \"#utility.yul\":2733:2742   */\n      dup7\n        /* \"#utility.yul\":2729:2751   */\n      add\n        /* \"#utility.yul\":2708:2761   */\n      tag_187\n      jump\t// in\n    tag_239:\n        /* \"#utility.yul\":2698:2761   */\n      swap3\n      pop\n        /* \"#utility.yul\":2654:2771   */\n      pop\n        /* \"#utility.yul\":2810:2812   */\n      0x20\n        /* \"#utility.yul\":2836:2889   */\n      tag_240\n        /* \"#utility.yul\":2881:2888   */\n      dup6\n        /* \"#utility.yul\":2872:2878   */\n      dup3\n        /* \"#utility.yul\":2861:2870   */\n      dup7\n        /* \"#utility.yul\":2857:2879   */\n      add\n        /* \"#utility.yul\":2836:2889   */\n      tag_190\n      jump\t// in\n    tag_240:\n        /* \"#utility.yul\":2826:2889   */\n      swap2\n      pop\n        /* \"#utility.yul\":2781:2899   */\n      pop\n        /* \"#utility.yul\":2432:2906   */\n      swap3\n      pop\n      swap3\n      swap1\n      pop\n      jump\t// out\n        /* \"#utility.yul\":2912:3002   */\n    tag_191:\n        /* \"#utility.yul\":2946:2953   */\n      0x00\n        /* \"#utility.yul\":2989:2994   */\n      dup2\n        /* \"#utility.yul\":2982:2995   */\n      iszero\n        /* \"#utility.yul\":2975:2996   */\n      iszero\n        /* \"#utility.yul\":2964:2996   */\n      swap1\n      pop\n        /* \"#utility.yul\":2912:3002   */\n      swap2\n      swap1\n      pop\n      jump\t// out\n        /* \"#utility.yul\":3008:3117   */\n    tag_192:\n        /* \"#utility.yul\":3089:3110   */\n      tag_243\n        /* \"#utility.yul\":3104:3109   */\n      dup2\n        /* \"#utility.yul\":3089:3110   */\n      tag_191\n      jump\t// in\n    tag_243:\n        /* \"#utility.yul\":3084:3087   */\n      dup3\n        /* \"#utility.yul\":3077:3111   */\n      mstore\n        /* \"#utility.yul\":3008:3117   */\n      pop\n      pop\n      jump\t// out\n        /* \"#utility.yul\":3123:3333   */\n    tag_29:\n        /* \"#utility.yul\":3210:3214   */\n      0x00\n        /* \"#utility.yul\":3248:3250   */\n      0x20\n        /* \"#utility.yul\":3237:3246   */\n      dup3\n        /* \"#utility.yul\":3233:3251   */\n      add\n        /* \"#utility.yul\":3225:3251   */\n      swap1\n      pop\n        /* \"#utility.yul\":3261:3326   */\n      tag_245\n        /* \"#utility.yul\":3323:3324   */\n      0x00\n        /* \"#utility.yul\":3312:3321   */\n      dup4\n        /* \"#utility.yul\":3308:3325   */\n      add\n        /* \"#utility.yul\":3299:3305   */\n      dup5\n        /* \"#utility.yul\":3261:3326   */\n      tag_192\n      jump\t// in\n    tag_245:\n        /* \"#utility.yul\":3123:3333   */\n      swap3\n      swap2\n      pop\n      pop\n      jump\t// out\n        /* \"#utility.yul\":3339:3457   */\n    tag_193:\n        /* \"#utility.yul\":3426:3450   */\n      tag_247\n        /* \"#utility.yul\":3444:3449   */\n      dup2\n        /* \"#utility.yul\":3426:3450   */\n      tag_188\n      jump\t// in\n    tag_247:\n        /* \"#utility.yul\":3421:3424   */\n      dup3\n        /* \"#utility.yul\":3414:3451   */\n      mstore\n        /* \"#utility.yul\":3339:3457   */\n      pop\n      pop\n      jump\t// out\n        /* \"#utility.yul\":3463:3685   */\n    tag_33:\n        /* \"#utility.yul\":3556:3560   */\n      0x00\n        /* \"#utility.yul\":3594:3596   */\n      0x20\n        /* \"#utility.yul\":3583:3592   */\n      dup3\n        /* \"#utility.yul\":3579:3597   */\n      add\n        /* \"#utility.yul\":3571:3597   */\n      swap1\n      pop\n        /* \"#utility.yul\":3607:3678   */\n      tag_249\n        /* \"#utility.yul\":3675:3676   */\n      0x00\n        /* \"#utility.yul\":3664:3673   */\n      dup4\n        /* \"#utility.yul\":3660:3677   */\n      add\n        /* \"#utility.yul\":3651:3657   */\n      dup5\n        /* \"#utility.yul\":3607:3678   */\n      tag_193\n      jump\t// in\n    tag_249:\n        /* \"#utility.yul\":3463:3685   */\n      swap3\n      swap2\n      pop\n      pop\n      jump\t// out\n        /* \"#utility.yul\":3691:4310   */\n    tag_36:\n        /* \"#utility.yul\":3768:3774   */\n      0x00\n        /* \"#utility.yul\":3776:3782   */\n      dup1\n        /* \"#utility.yul\":3784:3790   */\n      0x00\n        /* \"#utility.yul\":3833:3835   */\n      0x60\n        /* \"#utility.yul\":3821:3830   */\n      dup5\n        /* \"#utility.yul\":3812:3819   */\n      dup7\n        /* \"#utility.yul\":3808:3831   */\n      sub\n        /* \"#utility.yul\":3804:3836   */\n      slt\n        /* \"#utility.yul\":3801:3920   */\n      iszero\n      tag_251\n      jumpi\n        /* \"#utility.yul\":3839:3918   */\n      tag_252\n      tag_182\n      jump\t// in\n    tag_252:\n        /* \"#utility.yul\":3801:3920   */\n    tag_251:\n        /* \"#utility.yul\":3959:3960   */\n      0x00\n        /* \"#utility.yul\":3984:4037   */\n      tag_253\n        /* \"#utility.yul\":4029:4036   */\n      dup7\n        /* \"#utility.yul\":4020:4026   */\n      dup3\n        /* \"#utility.yul\":4009:4018   */\n      dup8\n        /* \"#utility.yul\":4005:4027   */\n      add\n        /* \"#utility.yul\":3984:4037   */\n      tag_187\n      jump\t// in\n    tag_253:\n        /* \"#utility.yul\":3974:4037   */\n      swap4\n      pop\n        /* \"#utility.yul\":3930:4047   */\n      pop\n        /* \"#utility.yul\":4086:4088   */\n      0x20\n        /* \"#utility.yul\":4112:4165   */\n      tag_254\n        /* \"#utility.yul\":4157:4164   */\n      dup7\n        /* \"#utility.yul\":4148:4154   */\n      dup3\n        /* \"#utility.yul\":4137:4146   */\n      dup8\n        /* \"#utility.yul\":4133:4155   */\n      add\n        /* \"#utility.yul\":4112:4165   */\n      tag_187\n      jump\t// in\n    tag_254:\n        /* \"#utility.yul\":4102:4165   */\n      swap3\n      pop\n        /* \"#utility.yul\":4057:4175   */\n      pop\n        /* \"#utility.yul\":4214:4216   */\n      0x40\n        /* \"#utility.yul\":4240:4293   */\n      tag_255\n        /* \"#utility.yul\":4285:4292   */\n      dup7\n        /* \"#utility.yul\":4276:4282   */\n      dup3\n        /* \"#utility.yul\":4265:4274   */\n      dup8\n        /* \"#utility.yul\":4261:4283   */\n      add\n        /* \"#utility.yul\":4240:4293   */\n      tag_190\n      jump\t// in\n    tag_255:\n        /* \"#utility.yul\":4230:4293   */\n      swap2\n      pop\n        /* \"#utility.yul\":4185:4303   */\n      pop\n        /* \"#utility.yul\":3691:4310   */\n      swap3\n      pop\n      swap3\n      pop\n      swap3\n      jump\t// out\n        /* \"#utility.yul\":4316:4402   */\n    tag_194:\n        /* \"#utility.yul\":4351:4358   */\n      0x00\n        /* \"#utility.yul\":4391:4395   */\n      0xff\n        /* \"#utility.yul\":4384:4389   */\n      dup3\n        /* \"#utility.yul\":4380:4396   */\n      and\n        /* \"#utility.yul\":4369:4396   */\n      swap1\n      pop\n        /* \"#utility.yul\":4316:4402   */\n      swap2\n      swap1\n      pop\n      jump\t// out\n        /* \"#utility.yul\":4408:4520   */\n    tag_195:\n        /* \"#utility.yul\":4491:4513   */\n      tag_258\n        /* \"#utility.yul\":4507:4512   */\n      dup2\n        /* \"#utility.yul\":4491:4513   */\n      tag_194\n      jump\t// in\n    tag_258:\n        /* \"#utility.yul\":4486:4489   */\n      dup3\n        /* \"#utility.yul\":4479:4514   */\n      mstore\n        /* \"#utility.yul\":4408:4520   */\n      pop\n      pop\n      jump\t// out\n        /* \"#utility.yul\":4526:4740   */\n    tag_42:\n        /* \"#utility.yul\":4615:4619   */\n      0x00\n        /* \"#utility.yul\":4653:4655   */\n      0x20\n        /* \"#utility.yul\":4642:4651   */\n      dup3\n        /* \"#utility.yul\":4638:4656   */\n      add\n        /* \"#utility.yul\":4630:4656   */\n      swap1\n      pop\n        /* \"#utility.yul\":4666:4733   */\n      tag_260\n        /* \"#utility.yul\":4730:4731   */\n      0x00\n        /* \"#utility.yul\":4719:4728   */\n      dup4\n        /* \"#utility.yul\":4715:4732   */\n      add\n        /* \"#utility.yul\":4706:4712   */\n      dup5\n        /* \"#utility.yul\":4666:4733   */\n      tag_195\n      jump\t// in\n    tag_260:\n        /* \"#utility.yul\":4526:4740   */\n      swap3\n      swap2\n      pop\n      pop\n      jump\t// out\n        /* \"#utility.yul\":4746:5075   */\n    tag_48:\n        /* \"#utility.yul\":4805:4811   */\n      0x00\n        /* \"#utility.yul\":4854:4856   */\n      0x20\n        /* \"#utility.yul\":4842:4851   */\n      dup3\n        /* \"#utility.yul\":4833:4840   */\n      dup5\n        /* \"#utility.yul\":4829:4852   */\n      sub\n        /* \"#utility.yul\":4825:4857   */\n      slt\n        /* \"#utility.yul\":4822:4941   */\n      iszero\n      tag_262\n      jumpi\n        /* \"#utility.yul\":4860:4939   */\n      tag_263\n      tag_182\n      jump\t// in\n    tag_263:\n        /* \"#utility.yul\":4822:4941   */\n    tag_262:\n        /* \"#utility.yul\":4980:4981   */\n      0x00\n        /* \"#utility.yul\":5005:5058   */\n      tag_264\n        /* \"#utility.yul\":5050:5057   */\n      dup5\n        /* \"#utility.yul\":5041:5047   */\n      dup3\n        /* \"#utility.yul\":5030:5039   */\n      dup6\n        /* \"#utility.yul\":5026:5048   */\n      add\n        /* \"#utility.yul\":5005:5058   */\n      tag_187\n      jump\t// in\n    tag_264:\n        /* \"#utility.yul\":4995:5058   */\n      swap2\n      pop\n        /* \"#utility.yul\":4951:5068   */\n      pop\n        /* \"#utility.yul\":4746:5075   */\n      swap3\n      swap2\n      pop\n      pop\n      jump\t// out\n        /* \"#utility.yul\":5081:5555   */\n    tag_69:\n        /* \"#utility.yul\":5149:5155   */\n      0x00\n        /* \"#utility.yul\":5157:5163   */\n      dup1\n        /* \"#utility.yul\":5206:5208   */\n      0x40\n        /* \"#utility.yul\":5194:5203   */\n      dup4\n        /* \"#utility.yul\":5185:5192   */\n      dup6\n        /* \"#utility.yul\":5181:5204   */\n      sub\n        /* \"#utility.yul\":5177:5209   */\n      slt\n        /* \"#utility.yul\":5174:5293   */\n      iszero\n      tag_266\n      jumpi\n        /* \"#utility.yul\":5212:5291   */\n      tag_267\n      tag_182\n      jump\t// in\n    tag_267:\n        /* \"#utility.yul\":5174:5293   */\n    tag_266:\n        /* \"#utility.yul\":5332:5333   */\n      0x00\n        /* \"#utility.yul\":5357:5410   */\n      tag_268\n        /* \"#utility.yul\":5402:5409   */\n      dup6\n        /* \"#utility.yul\":5393:5399   */\n      dup3\n        /* \"#utility.yul\":5382:5391   */\n      dup7\n        /* \"#utility.yul\":5378:5400   */\n      add\n        /* \"#utility.yul\":5357:5410   */\n      tag_187\n      jump\t// in\n    tag_268:\n        /* \"#utility.yul\":5347:5410   */\n      swap3\n      pop\n        /* \"#utility.yul\":5303:5420   */\n      pop\n        /* \"#utility.yul\":5459:5461   */\n      0x20\n        /* \"#utility.yul\":5485:5538   */\n      tag_269\n        /* \"#utility.yul\":5530:5537   */\n      dup6\n        /* \"#utility.yul\":5521:5527   */\n      dup3\n        /* \"#utility.yul\":5510:5519   */\n      dup7\n        /* \"#utility.yul\":5506:5528   */\n      add\n        /* \"#utility.yul\":5485:5538   */\n      tag_187\n      jump\t// in\n    tag_269:\n        /* \"#utility.yul\":5475:5538   */\n      swap2\n      pop\n        /* \"#utility.yul\":5430:5548   */\n      pop\n        /* \"#utility.yul\":5081:5555   */\n      swap3\n      pop\n      swap3\n      swap1\n      pop\n      jump\t// out\n        /* \"#utility.yul\":5561:5741   */\n    tag_196:\n        /* \"#utility.yul\":5609:5686   */\n      0x4e487b7100000000000000000000000000000000000000000000000000000000\n        /* \"#utility.yul\":5606:5607   */\n      0x00\n        /* \"#utility.yul\":5599:5687   */\n      mstore\n        /* \"#utility.yul\":5706:5710   */\n      0x22\n        /* \"#utility.yul\":5703:5704   */\n      0x04\n        /* \"#utility.yul\":5696:5711   */\n      mstore\n        /* \"#utility.yul\":5730:5734   */\n      0x24\n        /* \"#utility.yul\":5727:5728   */\n      0x00\n        /* \"#utility.yul\":5720:5735   */\n      revert\n        /* \"#utility.yul\":5747:6067   */\n    tag_77:\n        /* \"#utility.yul\":5791:5797   */\n      0x00\n        /* \"#utility.yul\":5828:5829   */\n      0x02\n        /* \"#utility.yul\":5822:5826   */\n      dup3\n        /* \"#utility.yul\":5818:5830   */\n      div\n        /* \"#utility.yul\":5808:5830   */\n      swap1\n      pop\n        /* \"#utility.yul\":5875:5876   */\n      0x01\n        /* \"#utility.yul\":5869:5873   */\n      dup3\n        /* \"#utility.yul\":5865:5877   */\n      and\n        /* \"#utility.yul\":5896:5914   */\n      dup1\n        /* \"#utility.yul\":5886:5967   */\n      tag_272\n      jumpi\n        /* \"#utility.yul\":5952:5956   */\n      0x7f\n        /* \"#utility.yul\":5944:5950   */\n      dup3\n        /* \"#utility.yul\":5940:5957   */\n      and\n        /* \"#utility.yul\":5930:5957   */\n      swap2\n      pop\n        /* \"#utility.yul\":5886:5967   */\n    tag_272:\n        /* \"#utility.yul\":6014:6016   */\n      0x20\n        /* \"#utility.yul\":6006:6012   */\n      dup3\n        /* \"#utility.yul\":6003:6017   */\n      lt\n        /* \"#utility.yul\":5983:6001   */\n      dup2\n        /* \"#utility.yul\":5980:6018   */\n      sub\n        /* \"#utility.yul\":5977:6061   */\n      tag_273\n      jumpi\n        /* \"#utility.yul\":6033:6051   */\n      tag_274\n      tag_196\n      jump\t// in\n    tag_274:\n        /* \"#utility.yul\":5977:6061   */\n    tag_273:\n        /* \"#utility.yul\":5798:6067   */\n      pop\n        /* \"#utility.yul\":5747:6067   */\n      swap2\n      swap1\n      pop\n      jump\t// out\n        /* \"#utility.yul\":6073:6249   */\n    tag_197:\n        /* \"#utility.yul\":6213:6241   */\n      0x536f6c6f207075656465206c6c616d617220656c206f776e6572000000000000\n        /* \"#utility.yul\":6209:6210   */\n      0x00\n        /* \"#utility.yul\":6201:6207   */\n      dup3\n        /* \"#utility.yul\":6197:6211   */\n      add\n        /* \"#utility.yul\":6190:6242   */\n      mstore\n        /* \"#utility.yul\":6073:6249   */\n      pop\n      jump\t// out\n        /* \"#utility.yul\":6255:6621   */\n    tag_198:\n        /* \"#utility.yul\":6397:6400   */\n      0x00\n        /* \"#utility.yul\":6418:6485   */\n      tag_277\n        /* \"#utility.yul\":6482:6484   */\n      0x1a\n        /* \"#utility.yul\":6477:6480   */\n      dup4\n        /* \"#utility.yul\":6418:6485   */\n      tag_177\n      jump\t// in\n    tag_277:\n        /* \"#utility.yul\":6411:6485   */\n      swap2\n      pop\n        /* \"#utility.yul\":6494:6587   */\n      tag_278\n        /* \"#utility.yul\":6583:6586   */\n      dup3\n        /* \"#utility.yul\":6494:6587   */\n      tag_197\n      jump\t// in\n    tag_278:\n        /* \"#utility.yul\":6612:6614   */\n      0x20\n        /* \"#utility.yul\":6607:6610   */\n      dup3\n        /* \"#utility.yul\":6603:6615   */\n      add\n        /* \"#utility.yul\":6596:6615   */\n      swap1\n      pop\n        /* \"#utility.yul\":6255:6621   */\n      swap2\n      swap1\n      pop\n      jump\t// out\n        /* \"#utility.yul\":6627:7046   */\n    tag_98:\n        /* \"#utility.yul\":6793:6797   */\n      0x00\n        /* \"#utility.yul\":6831:6833   */\n      0x20\n        /* \"#utility.yul\":6820:6829   */\n      dup3\n        /* \"#utility.yul\":6816:6834   */\n      add\n        /* \"#utility.yul\":6808:6834   */\n      swap1\n      pop\n        /* \"#utility.yul\":6880:6889   */\n      dup2\n        /* \"#utility.yul\":6874:6878   */\n      dup2\n        /* \"#utility.yul\":6870:6890   */\n      sub\n        /* \"#utility.yul\":6866:6867   */\n      0x00\n        /* \"#utility.yul\":6855:6864   */\n      dup4\n        /* \"#utility.yul\":6851:6868   */\n      add\n        /* \"#utility.yul\":6844:6891   */\n      mstore\n        /* \"#utility.yul\":6908:7039   */\n      tag_280\n        /* \"#utility.yul\":7034:7038   */\n      dup2\n        /* \"#utility.yul\":6908:7039   */\n      tag_198\n      jump\t// in\n    tag_280:\n        /* \"#utility.yul\":6900:7039   */\n      swap1\n      pop\n        /* \"#utility.yul\":6627:7046   */\n      swap2\n      swap1\n      pop\n      jump\t// out\n        /* \"#utility.yul\":7052:7272   */\n    tag_199:\n        /* \"#utility.yul\":7192:7226   */\n      0x4c6120646972656363696f6e2064657374696e6f206e6f2065732076616c6964\n        /* \"#utility.yul\":7188:7189   */\n      0x00\n        /* \"#utility.yul\":7180:7186   */\n      dup3\n        /* \"#utility.yul\":7176:7190   */\n      add\n        /* \"#utility.yul\":7169:7227   */\n      mstore\n        /* \"#utility.yul\":7261:7264   */\n      0x6100000000000000000000000000000000000000000000000000000000000000\n        /* \"#utility.yul\":7256:7258   */\n      0x20\n        /* \"#utility.yul\":7248:7254   */\n      dup3\n        /* \"#utility.yul\":7244:7259   */\n      add\n        /* \"#utility.yul\":7237:7265   */\n      mstore\n        /* \"#utility.yul\":7052:7272   */\n      pop\n      jump\t// out\n        /* \"#utility.yul\":7278:7644   */\n    tag_200:\n        /* \"#utility.yul\":7420:7423   */\n      0x00\n        /* \"#utility.yul\":7441:7508   */\n      tag_283\n        /* \"#utility.yul\":7505:7507   */\n      0x21\n        /* \"#utility.yul\":7500:7503   */\n      dup4\n        /* \"#utility.yul\":7441:7508   */\n      tag_177\n      jump\t// in\n    tag_283:\n        /* \"#utility.yul\":7434:7508   */\n      swap2\n      pop\n        /* \"#utility.yul\":7517:7610   */\n      tag_284\n        /* \"#utility.yul\":7606:7609   */\n      dup3\n        /* \"#utility.yul\":7517:7610   */\n      tag_199\n      jump\t// in\n    tag_284:\n        /* \"#utility.yul\":7635:7637   */\n      0x40\n        /* \"#utility.yul\":7630:7633   */\n      dup3\n        /* \"#utility.yul\":7626:7638   */\n      add\n        /* \"#utility.yul\":7619:7638   */\n      swap1\n      pop\n        /* \"#utility.yul\":7278:7644   */\n      swap2\n      swap1\n      pop\n      jump\t// out\n        /* \"#utility.yul\":7650:8069   */\n    tag_102:\n        /* \"#utility.yul\":7816:7820   */\n      0x00\n        /* \"#utility.yul\":7854:7856   */\n      0x20\n        /* \"#utility.yul\":7843:7852   */\n      dup3\n        /* \"#utility.yul\":7839:7857   */\n      add\n        /* \"#utility.yul\":7831:7857   */\n      swap1\n      pop\n        /* \"#utility.yul\":7903:7912   */\n      dup2\n        /* \"#utility.yul\":7897:7901   */\n      dup2\n        /* \"#utility.yul\":7893:7913   */\n      sub\n        /* \"#utility.yul\":7889:7890   */\n      0x00\n        /* \"#utility.yul\":7878:7887   */\n      dup4\n        /* \"#utility.yul\":7874:7891   */\n      add\n        /* \"#utility.yul\":7867:7914   */\n      mstore\n        /* \"#utility.yul\":7931:8062   */\n      tag_286\n        /* \"#utility.yul\":8057:8061   */\n      dup2\n        /* \"#utility.yul\":7931:8062   */\n      tag_200\n      jump\t// in\n    tag_286:\n        /* \"#utility.yul\":7923:8062   */\n      swap1\n      pop\n        /* \"#utility.yul\":7650:8069   */\n      swap2\n      swap1\n      pop\n      jump\t// out\n        /* \"#utility.yul\":8075:8255   */\n    tag_201:\n        /* \"#utility.yul\":8123:8200   */\n      0x4e487b7100000000000000000000000000000000000000000000000000000000\n        /* \"#utility.yul\":8120:8121   */\n      0x00\n        /* \"#utility.yul\":8113:8201   */\n      mstore\n        /* \"#utility.yul\":8220:8224   */\n      0x11\n        /* \"#utility.yul\":8217:8218   */\n      0x04\n        /* \"#utility.yul\":8210:8225   */\n      mstore\n        /* \"#utility.yul\":8244:8248   */\n      0x24\n        /* \"#utility.yul\":8241:8242   */\n      0x00\n        /* \"#utility.yul\":8234:8249   */\n      revert\n        /* \"#utility.yul\":8261:8452   */\n    tag_104:\n        /* \"#utility.yul\":8301:8304   */\n      0x00\n        /* \"#utility.yul\":8320:8340   */\n      tag_289\n        /* \"#utility.yul\":8338:8339   */\n      dup3\n        /* \"#utility.yul\":8320:8340   */\n      tag_188\n      jump\t// in\n    tag_289:\n        /* \"#utility.yul\":8315:8340   */\n      swap2\n      pop\n        /* \"#utility.yul\":8354:8374   */\n      tag_290\n        /* \"#utility.yul\":8372:8373   */\n      dup4\n        /* \"#utility.yul\":8354:8374   */\n      tag_188\n      jump\t// in\n    tag_290:\n        /* \"#utility.yul\":8349:8374   */\n      swap3\n      pop\n        /* \"#utility.yul\":8397:8398   */\n      dup3\n        /* \"#utility.yul\":8394:8395   */\n      dup3\n        /* \"#utility.yul\":8390:8399   */\n      add\n        /* \"#utility.yul\":8383:8399   */\n      swap1\n      pop\n        /* \"#utility.yul\":8418:8421   */\n      dup1\n        /* \"#utility.yul\":8415:8416   */\n      dup3\n        /* \"#utility.yul\":8412:8422   */\n      gt\n        /* \"#utility.yul\":8409:8445   */\n      iszero\n      tag_291\n      jumpi\n        /* \"#utility.yul\":8425:8443   */\n      tag_292\n      tag_201\n      jump\t// in\n    tag_292:\n        /* \"#utility.yul\":8409:8445   */\n    tag_291:\n        /* \"#utility.yul\":8261:8452   */\n      swap3\n      swap2\n      pop\n      pop\n      jump\t// out\n        /* \"#utility.yul\":8458:8639   */\n    tag_202:\n        /* \"#utility.yul\":8598:8631   */\n      0x4e6f2073652070756564656e20656d69746972206d617320746f6b656e732100\n        /* \"#utility.yul\":8594:8595   */\n      0x00\n        /* \"#utility.yul\":8586:8592   */\n      dup3\n        /* \"#utility.yul\":8582:8596   */\n      add\n        /* \"#utility.yul\":8575:8632   */\n      mstore\n        /* \"#utility.yul\":8458:8639   */\n      pop\n      jump\t// out\n        /* \"#utility.yul\":8645:9011   */\n    tag_203:\n        /* \"#utility.yul\":8787:8790   */\n      0x00\n        /* \"#utility.yul\":8808:8875   */\n      tag_295\n        /* \"#utility.yul\":8872:8874   */\n      0x1f\n        /* \"#utility.yul\":8867:8870   */\n      dup4\n        /* \"#utility.yul\":8808:8875   */\n      tag_177\n      jump\t// in\n    tag_295:\n        /* \"#utility.yul\":8801:8875   */\n      swap2\n      pop\n        /* \"#utility.yul\":8884:8977   */\n      tag_296\n        /* \"#utility.yul\":8973:8976   */\n      dup3\n        /* \"#utility.yul\":8884:8977   */\n      tag_202\n      jump\t// in\n    tag_296:\n        /* \"#utility.yul\":9002:9004   */\n      0x20\n        /* \"#utility.yul\":8997:9000   */\n      dup3\n        /* \"#utility.yul\":8993:9005   */\n      add\n        /* \"#utility.yul\":8986:9005   */\n      swap1\n      pop\n        /* \"#utility.yul\":8645:9011   */\n      swap2\n      swap1\n      pop\n      jump\t// out\n        /* \"#utility.yul\":9017:9436   */\n    tag_107:\n        /* \"#utility.yul\":9183:9187   */\n      0x00\n        /* \"#utility.yul\":9221:9223   */\n      0x20\n        /* \"#utility.yul\":9210:9219   */\n      dup3\n        /* \"#utility.yul\":9206:9224   */\n      add\n        /* \"#utility.yul\":9198:9224   */\n      swap1\n      pop\n        /* \"#utility.yul\":9270:9279   */\n      dup2\n        /* \"#utility.yul\":9264:9268   */\n      dup2\n        /* \"#utility.yul\":9260:9280   */\n      sub\n        /* \"#utility.yul\":9256:9257   */\n      0x00\n        /* \"#utility.yul\":9245:9254   */\n      dup4\n        /* \"#utility.yul\":9241:9258   */\n      add\n        /* \"#utility.yul\":9234:9281   */\n      mstore\n        /* \"#utility.yul\":9298:9429   */\n      tag_298\n        /* \"#utility.yul\":9424:9428   */\n      dup2\n        /* \"#utility.yul\":9298:9429   */\n      tag_203\n      jump\t// in\n    tag_298:\n        /* \"#utility.yul\":9290:9429   */\n      swap1\n      pop\n        /* \"#utility.yul\":9017:9436   */\n      swap2\n      swap1\n      pop\n      jump\t// out\n        /* \"#utility.yul\":9442:9684   */\n    tag_204:\n        /* \"#utility.yul\":9582:9616   */\n      0x4e6f20736520707565646520656c696d696e61722030206e6920756e206e756d\n        /* \"#utility.yul\":9578:9579   */\n      0x00\n        /* \"#utility.yul\":9570:9576   */\n      dup3\n        /* \"#utility.yul\":9566:9580   */\n      add\n        /* \"#utility.yul\":9559:9617   */\n      mstore\n        /* \"#utility.yul\":9651:9676   */\n      0x65726f206e6567617469766f20646520746f6b656e732e000000000000000000\n        /* \"#utility.yul\":9646:9648   */\n      0x20\n        /* \"#utility.yul\":9638:9644   */\n      dup3\n        /* \"#utility.yul\":9634:9649   */\n      add\n        /* \"#utility.yul\":9627:9677   */\n      mstore\n        /* \"#utility.yul\":9442:9684   */\n      pop\n      jump\t// out\n        /* \"#utility.yul\":9690:10056   */\n    tag_205:\n        /* \"#utility.yul\":9832:9835   */\n      0x00\n        /* \"#utility.yul\":9853:9920   */\n      tag_301\n        /* \"#utility.yul\":9917:9919   */\n      0x37\n        /* \"#utility.yul\":9912:9915   */\n      dup4\n        /* \"#utility.yul\":9853:9920   */\n      tag_177\n      jump\t// in\n    tag_301:\n        /* \"#utility.yul\":9846:9920   */\n      swap2\n      pop\n        /* \"#utility.yul\":9929:10022   */\n      tag_302\n        /* \"#utility.yul\":10018:10021   */\n      dup3\n        /* \"#utility.yul\":9929:10022   */\n      tag_204\n      jump\t// in\n    tag_302:\n        /* \"#utility.yul\":10047:10049   */\n      0x40\n        /* \"#utility.yul\":10042:10045   */\n      dup3\n        /* \"#utility.yul\":10038:10050   */\n      add\n        /* \"#utility.yul\":10031:10050   */\n      swap1\n      pop\n        /* \"#utility.yul\":9690:10056   */\n      swap2\n      swap1\n      pop\n      jump\t// out\n        /* \"#utility.yul\":10062:10481   */\n    tag_126:\n        /* \"#utility.yul\":10228:10232   */\n      0x00\n        /* \"#utility.yul\":10266:10268   */\n      0x20\n        /* \"#utility.yul\":10255:10264   */\n      dup3\n        /* \"#utility.yul\":10251:10269   */\n      add\n        /* \"#utility.yul\":10243:10269   */\n      swap1\n      pop\n        /* \"#utility.yul\":10315:10324   */\n      dup2\n        /* \"#utility.yul\":10309:10313   */\n      dup2\n        /* \"#utility.yul\":10305:10325   */\n      sub\n        /* \"#utility.yul\":10301:10302   */\n      0x00\n        /* \"#utility.yul\":10290:10299   */\n      dup4\n        /* \"#utility.yul\":10286:10303   */\n      add\n        /* \"#utility.yul\":10279:10326   */\n      mstore\n        /* \"#utility.yul\":10343:10474   */\n      tag_304\n        /* \"#utility.yul\":10469:10473   */\n      dup2\n        /* \"#utility.yul\":10343:10474   */\n      tag_205\n      jump\t// in\n    tag_304:\n        /* \"#utility.yul\":10335:10474   */\n      swap1\n      pop\n        /* \"#utility.yul\":10062:10481   */\n      swap2\n      swap1\n      pop\n      jump\t// out\n        /* \"#utility.yul\":10487:10605   */\n    tag_206:\n        /* \"#utility.yul\":10574:10598   */\n      tag_306\n        /* \"#utility.yul\":10592:10597   */\n      dup2\n        /* \"#utility.yul\":10574:10598   */\n      tag_185\n      jump\t// in\n    tag_306:\n        /* \"#utility.yul\":10569:10572   */\n      dup3\n        /* \"#utility.yul\":10562:10599   */\n      mstore\n        /* \"#utility.yul\":10487:10605   */\n      pop\n      pop\n      jump\t// out\n        /* \"#utility.yul\":10611:11053   */\n    tag_142:\n        /* \"#utility.yul\":10760:10764   */\n      0x00\n        /* \"#utility.yul\":10798:10800   */\n      0x60\n        /* \"#utility.yul\":10787:10796   */\n      dup3\n        /* \"#utility.yul\":10783:10801   */\n      add\n        /* \"#utility.yul\":10775:10801   */\n      swap1\n      pop\n        /* \"#utility.yul\":10811:10882   */\n      tag_308\n        /* \"#utility.yul\":10879:10880   */\n      0x00\n        /* \"#utility.yul\":10868:10877   */\n      dup4\n        /* \"#utility.yul\":10864:10881   */\n      add\n        /* \"#utility.yul\":10855:10861   */\n      dup7\n        /* \"#utility.yul\":10811:10882   */\n      tag_206\n      jump\t// in\n    tag_308:\n        /* \"#utility.yul\":10892:10964   */\n      tag_309\n        /* \"#utility.yul\":10960:10962   */\n      0x20\n        /* \"#utility.yul\":10949:10958   */\n      dup4\n        /* \"#utility.yul\":10945:10963   */\n      add\n        /* \"#utility.yul\":10936:10942   */\n      dup6\n        /* \"#utility.yul\":10892:10964   */\n      tag_193\n      jump\t// in\n    tag_309:\n        /* \"#utility.yul\":10974:11046   */\n      tag_310\n        /* \"#utility.yul\":11042:11044   */\n      0x40\n        /* \"#utility.yul\":11031:11040   */\n      dup4\n        /* \"#utility.yul\":11027:11045   */\n      add\n        /* \"#utility.yul\":11018:11024   */\n      dup5\n        /* \"#utility.yul\":10974:11046   */\n      tag_193\n      jump\t// in\n    tag_310:\n        /* \"#utility.yul\":10611:11053   */\n      swap5\n      swap4\n      pop\n      pop\n      pop\n      pop\n      jump\t// out\n        /* \"#utility.yul\":11059:11281   */\n    tag_147:\n        /* \"#utility.yul\":11152:11156   */\n      0x00\n        /* \"#utility.yul\":11190:11192   */\n      0x20\n        /* \"#utility.yul\":11179:11188   */\n      dup3\n        /* \"#utility.yul\":11175:11193   */\n      add\n        /* \"#utility.yul\":11167:11193   */\n      swap1\n      pop\n        /* \"#utility.yul\":11203:11274   */\n      tag_312\n        /* \"#utility.yul\":11271:11272   */\n      0x00\n        /* \"#utility.yul\":11260:11269   */\n      dup4\n        /* \"#utility.yul\":11256:11273   */\n      add\n        /* \"#utility.yul\":11247:11253   */\n      dup5\n        /* \"#utility.yul\":11203:11274   */\n      tag_206\n      jump\t// in\n    tag_312:\n        /* \"#utility.yul\":11059:11281   */\n      swap3\n      swap2\n      pop\n      pop\n      jump\t// out\n\n    auxdata: 0xa2646970667358221220c9b60a211e64a351668d31df5a997bcaa3a836a96d0574b3e70216c896e93e5e64736f6c634300081a0033\n}\n",
				"bytecode": {
					"linkReferences": {},
					"object": "60c060405234801561000f575f80fd5b50604051611c1f380380611c1f83398181016040528101906100319190610279565b838381600390816100429190610519565b5080600490816100529190610519565b5050505f8211610097576040517f08c379a000000000000000000000000000000000000000000000000000000000815260040161008e90610668565b60405180910390fd5b5f81116100d9576040517f08c379a00000000000000000000000000000000000000000000000000000000081526004016100d0906106f6565b60405180910390fd5b81608081815250508060a081815250505f60058190555050505050610714565b5f604051905090565b5f80fd5b5f80fd5b5f80fd5b5f80fd5b5f601f19601f8301169050919050565b7f4e487b71000000000000000000000000000000000000000000000000000000005f52604160045260245ffd5b61015882610112565b810181811067ffffffffffffffff8211171561017757610176610122565b5b80604052505050565b5f6101896100f9565b9050610195828261014f565b919050565b5f67ffffffffffffffff8211156101b4576101b3610122565b5b6101bd82610112565b9050602081019050919050565b8281835e5f83830152505050565b5f6101ea6101e58461019a565b610180565b9050828152602081018484840111156102065761020561010e565b5b6102118482856101ca565b509392505050565b5f82601f83011261022d5761022c61010a565b5b815161023d8482602086016101d8565b91505092915050565b5f819050919050565b61025881610246565b8114610262575f80fd5b50565b5f815190506102738161024f565b92915050565b5f805f806080858703121561029157610290610102565b5b5f85015167ffffffffffffffff8111156102ae576102ad610106565b5b6102ba87828801610219565b945050602085015167ffffffffffffffff8111156102db576102da610106565b5b6102e787828801610219565b93505060406102f887828801610265565b925050606061030987828801610265565b91505092959194509250565b5f81519050919050565b7f4e487b71000000000000000000000000000000000000000000000000000000005f52602260045260245ffd5b5f600282049050600182168061036357607f821691505b6020821081036103765761037561031f565b5b50919050565b5f819050815f5260205f209050919050565b5f6020601f8301049050919050565b5f82821b905092915050565b5f600883026103d87fffffffffffffffffffffffffffffffffffffffffffffffffffffffffffffffff8261039d565b6103e2868361039d565b95508019841693508086168417925050509392505050565b5f819050919050565b5f61041d61041861041384610246565b6103fa565b610246565b9050919050565b5f819050919050565b61043683610403565b61044a61044282610424565b8484546103a9565b825550505050565b5f90565b61045e610452565b61046981848461042d565b505050565b5b8181101561048c576104815f82610456565b60018101905061046f565b5050565b601f8211156104d1576104a28161037c565b6104ab8461038e565b810160208510156104ba578190505b6104ce6104c68561038e565b83018261046e565b50505b505050565b5f82821c905092915050565b5f6104f15f19846008026104d6565b1980831691505092915050565b5f61050983836104e2565b9150826002028217905092915050565b61052282610315565b67ffffffffffffffff81111561053b5761053a610122565b5b610545825461034c565b610550828285610490565b5f60209050601f831160018114610581575f841561056f578287015190505b61057985826104fe565b8655506105e0565b601f19841661058f8661037c565b5f5b828110156105b657848901518255600182019150602085019450602081019050610591565b868310156105d357848901516105cf601f8916826104e2565b8355505b6001600288020188555050505b505050505050565b5f82825260208201905092915050565b7f456c2070726563696f206e6f20707565646520736572206d656e6f72207175655f8201527f206365726f000000000000000000000000000000000000000000000000000000602082015250565b5f6106526025836105e8565b915061065d826105f8565b604082019050919050565b5f6020820190508181035f83015261067f81610646565b9050919050565b7f456c206d6178696d6f20646520746f6b656e73206e6f207075656465207365725f8201527f206d656e6f7220717565206365726f0000000000000000000000000000000000602082015250565b5f6106e0602f836105e8565b91506106eb82610686565b604082019050919050565b5f6020820190508181035f83015261070d816106d4565b9050919050565b60805160a0516114e361073c5f395f81816104d6015261085c01525f6105b101526114e35ff3fe608060405234801561000f575f80fd5b50600436106100e8575f3560e01c80637ff9b5961161008a5780639dc29fac116100645780639dc29fac1461024c578063a9059cbb14610268578063dd62ed3e14610298578063e8315742146102c8576100e8565b80637ff9b596146101f25780638d75fe051461021057806395d89b411461022e576100e8565b806323b872dd116100c657806323b872dd14610158578063313ce5671461018857806340c10f19146101a657806370a08231146101c2576100e8565b806306fdde03146100ec578063095ea7b31461010a57806318160ddd1461013a575b5f80fd5b6100f46102e6565b6040516101019190610f70565b60405180910390f35b610124600480360381019061011f9190611021565b610376565b6040516101319190611079565b60405180910390f35b610142610398565b60405161014f91906110a1565b60405180910390f35b610172600480360381019061016d91906110ba565b6103a1565b60405161017f9190611079565b60405180910390f35b6101906103cf565b60405161019d9190611125565b60405180910390f35b6101c060048036038101906101bb9190611021565b6103d7565b005b6101dc60048036038101906101d7919061113e565b61056a565b6040516101e991906110a1565b60405180910390f35b6101fa6105af565b60405161020791906110a1565b60405180910390f35b6102186105d3565b60405161022591906110a1565b60405180910390f35b6102366105d9565b6040516102439190610f70565b60405180910390f35b61026660048036038101906102619190611021565b610669565b005b610282600480360381019061027d9190611021565b6107b6565b60405161028f9190611079565b60405180910390f35b6102b260048036038101906102ad9190611169565b6107d8565b6040516102bf91906110a1565b60405180910390f35b6102d061085a565b6040516102dd91906110a1565b60405180910390f35b6060600380546102f5906111d4565b80601f0160208091040260200160405190810160405280929190818152602001828054610321906111d4565b801561036c5780601f106103435761010080835404028352916020019161036c565b820191905f5260205f20905b81548152906001019060200180831161034f57829003601f168201915b5050505050905090565b5f8061038061087e565b905061038d818585610885565b600191505092915050565b5f600254905090565b5f806103ab61087e565b90506103b8858285610897565b6103c385858561092a565b60019150509392505050565b5f6012905090565b60065f9054906101000a900473ffffffffffffffffffffffffffffffffffffffff1673ffffffffffffffffffffffffffffffffffffffff163373ffffffffffffffffffffffffffffffffffffffff1614610466576040517f08c379a000000000000000000000000000000000000000000000000000000000815260040161045d9061124e565b60405180910390fd5b5f73ffffffffffffffffffffffffffffffffffffffff168273ffffffffffffffffffffffffffffffffffffffff16036104d4576040517f08c379a00000000000000000000000000000000000000000000000000000000081526004016104cb906112dc565b60405180910390fd5b7f0000000000000000000000000000000000000000000000000000000000000000816005546105039190611327565b1115610544576040517f08c379a000000000000000000000000000000000000000000000000000000000815260040161053b906113a4565b60405180910390fd5b8060055f8282546105559190611327565b925050819055506105668282610a1a565b5050565b5f805f8373ffffffffffffffffffffffffffffffffffffffff1673ffffffffffffffffffffffffffffffffffffffff1681526020019081526020015f20549050919050565b7f000000000000000000000000000000000000000000000000000000000000000081565b60055481565b6060600480546105e8906111d4565b80601f0160208091040260200160405190810160405280929190818152602001828054610614906111d4565b801561065f5780601f106106365761010080835404028352916020019161065f565b820191905f5260205f20905b81548152906001019060200180831161064257829003601f168201915b5050505050905090565b60065f9054906101000a900473ffffffffffffffffffffffffffffffffffffffff1673ffffffffffffffffffffffffffffffffffffffff163373ffffffffffffffffffffffffffffffffffffffff16146106f8576040517f08c379a00000000000000000000000000000000000000000000000000000000081526004016106ef9061124e565b60405180910390fd5b5f73ffffffffffffffffffffffffffffffffffffffff168273ffffffffffffffffffffffffffffffffffffffff1603610766576040517f08c379a000000000000000000000000000000000000000000000000000000000815260040161075d906112dc565b60405180910390fd5b5f81116107a8576040517f08c379a000000000000000000000000000000000000000000000000000000000815260040161079f90611432565b60405180910390fd5b6107b28282610a99565b5050565b5f806107c061087e565b90506107cd81858561092a565b600191505092915050565b5f60015f8473ffffffffffffffffffffffffffffffffffffffff1673ffffffffffffffffffffffffffffffffffffffff1681526020019081526020015f205f8373ffffffffffffffffffffffffffffffffffffffff1673ffffffffffffffffffffffffffffffffffffffff1681526020019081526020015f2054905092915050565b7f000000000000000000000000000000000000000000000000000000000000000081565b5f33905090565b6108928383836001610b18565b505050565b5f6108a284846107d8565b90507fffffffffffffffffffffffffffffffffffffffffffffffffffffffffffffffff8110156109245781811015610915578281836040517ffb8f41b200000000000000000000000000000000000000000000000000000000815260040161090c9392919061145f565b60405180910390fd5b61092384848484035f610b18565b5b50505050565b5f73ffffffffffffffffffffffffffffffffffffffff168373ffffffffffffffffffffffffffffffffffffffff160361099a575f6040517f96c6fd1e0000000000000000000000000000000000000000000000000000000081526004016109919190611494565b60405180910390fd5b5f73ffffffffffffffffffffffffffffffffffffffff168273ffffffffffffffffffffffffffffffffffffffff1603610a0a575f6040517fec442f05000000000000000000000000000000000000000000000000000000008152600401610a019190611494565b60405180910390fd5b610a15838383610ce7565b505050565b5f73ffffffffffffffffffffffffffffffffffffffff168273ffffffffffffffffffffffffffffffffffffffff1603610a8a575f6040517fec442f05000000000000000000000000000000000000000000000000000000008152600401610a819190611494565b60405180910390fd5b610a955f8383610ce7565b5050565b5f73ffffffffffffffffffffffffffffffffffffffff168273ffffffffffffffffffffffffffffffffffffffff1603610b09575f6040517f96c6fd1e000000000000000000000000000000000000000000000000000000008152600401610b009190611494565b60405180910390fd5b610b14825f83610ce7565b5050565b5f73ffffffffffffffffffffffffffffffffffffffff168473ffffffffffffffffffffffffffffffffffffffff1603610b88575f6040517fe602df05000000000000000000000000000000000000000000000000000000008152600401610b7f9190611494565b60405180910390fd5b5f73ffffffffffffffffffffffffffffffffffffffff168373ffffffffffffffffffffffffffffffffffffffff1603610bf8575f6040517f94280d62000000000000000000000000000000000000000000000000000000008152600401610bef9190611494565b60405180910390fd5b8160015f8673ffffffffffffffffffffffffffffffffffffffff1673ffffffffffffffffffffffffffffffffffffffff1681526020019081526020015f205f8573ffffffffffffffffffffffffffffffffffffffff1673ffffffffffffffffffffffffffffffffffffffff1681526020019081526020015f20819055508015610ce1578273ffffffffffffffffffffffffffffffffffffffff168473ffffffffffffffffffffffffffffffffffffffff167f8c5be1e5ebec7d5bd14f71427d1e84f3dd0314c0f7b2291e5b200ac8c7c3b92584604051610cd891906110a1565b60405180910390a35b50505050565b5f73ffffffffffffffffffffffffffffffffffffffff168373ffffffffffffffffffffffffffffffffffffffff1603610d37578060025f828254610d2b9190611327565b92505081905550610e05565b5f805f8573ffffffffffffffffffffffffffffffffffffffff1673ffffffffffffffffffffffffffffffffffffffff1681526020019081526020015f2054905081811015610dc0578381836040517fe450d38c000000000000000000000000000000000000000000000000000000008152600401610db79392919061145f565b60405180910390fd5b8181035f808673ffffffffffffffffffffffffffffffffffffffff1673ffffffffffffffffffffffffffffffffffffffff1681526020019081526020015f2081905550505b5f73ffffffffffffffffffffffffffffffffffffffff168273ffffffffffffffffffffffffffffffffffffffff1603610e4c578060025f8282540392505081905550610e96565b805f808473ffffffffffffffffffffffffffffffffffffffff1673ffffffffffffffffffffffffffffffffffffffff1681526020019081526020015f205f82825401925050819055505b8173ffffffffffffffffffffffffffffffffffffffff168373ffffffffffffffffffffffffffffffffffffffff167fddf252ad1be2c89b69c2b068fc378daa952ba7f163c4a11628f55a4df523b3ef83604051610ef391906110a1565b60405180910390a3505050565b5f81519050919050565b5f82825260208201905092915050565b8281835e5f83830152505050565b5f601f19601f8301169050919050565b5f610f4282610f00565b610f4c8185610f0a565b9350610f5c818560208601610f1a565b610f6581610f28565b840191505092915050565b5f6020820190508181035f830152610f888184610f38565b905092915050565b5f80fd5b5f73ffffffffffffffffffffffffffffffffffffffff82169050919050565b5f610fbd82610f94565b9050919050565b610fcd81610fb3565b8114610fd7575f80fd5b50565b5f81359050610fe881610fc4565b92915050565b5f819050919050565b61100081610fee565b811461100a575f80fd5b50565b5f8135905061101b81610ff7565b92915050565b5f806040838503121561103757611036610f90565b5b5f61104485828601610fda565b92505060206110558582860161100d565b9150509250929050565b5f8115159050919050565b6110738161105f565b82525050565b5f60208201905061108c5f83018461106a565b92915050565b61109b81610fee565b82525050565b5f6020820190506110b45f830184611092565b92915050565b5f805f606084860312156110d1576110d0610f90565b5b5f6110de86828701610fda565b93505060206110ef86828701610fda565b92505060406111008682870161100d565b9150509250925092565b5f60ff82169050919050565b61111f8161110a565b82525050565b5f6020820190506111385f830184611116565b92915050565b5f6020828403121561115357611152610f90565b5b5f61116084828501610fda565b91505092915050565b5f806040838503121561117f5761117e610f90565b5b5f61118c85828601610fda565b925050602061119d85828601610fda565b9150509250929050565b7f4e487b71000000000000000000000000000000000000000000000000000000005f52602260045260245ffd5b5f60028204905060018216806111eb57607f821691505b6020821081036111fe576111fd6111a7565b5b50919050565b7f536f6c6f207075656465206c6c616d617220656c206f776e65720000000000005f82015250565b5f611238601a83610f0a565b915061124382611204565b602082019050919050565b5f6020820190508181035f8301526112658161122c565b9050919050565b7f4c6120646972656363696f6e2064657374696e6f206e6f2065732076616c69645f8201527f6100000000000000000000000000000000000000000000000000000000000000602082015250565b5f6112c6602183610f0a565b91506112d18261126c565b604082019050919050565b5f6020820190508181035f8301526112f3816112ba565b9050919050565b7f4e487b71000000000000000000000000000000000000000000000000000000005f52601160045260245ffd5b5f61133182610fee565b915061133c83610fee565b9250828201905080821115611354576113536112fa565b5b92915050565b7f4e6f2073652070756564656e20656d69746972206d617320746f6b656e7321005f82015250565b5f61138e601f83610f0a565b91506113998261135a565b602082019050919050565b5f6020820190508181035f8301526113bb81611382565b9050919050565b7f4e6f20736520707565646520656c696d696e61722030206e6920756e206e756d5f8201527f65726f206e6567617469766f20646520746f6b656e732e000000000000000000602082015250565b5f61141c603783610f0a565b9150611427826113c2565b604082019050919050565b5f6020820190508181035f83015261144981611410565b9050919050565b61145981610fb3565b82525050565b5f6060820190506114725f830186611450565b61147f6020830185611092565b61148c6040830184611092565b949350505050565b5f6020820190506114a75f830184611450565b9291505056fea2646970667358221220c9b60a211e64a351668d31df5a997bcaa3a836a96d0574b3e70216c896e93e5e64736f6c634300081a0033",
					"opcodes": "PUSH1 0xC0 PUSH1 0x40 MSTORE CALLVALUE DUP1 ISZERO PUSH2 0xF JUMPI PUSH0 DUP1 REVERT JUMPDEST POP PUSH1 0x40 MLOAD PUSH2 0x1C1F CODESIZE SUB DUP1 PUSH2 0x1C1F DUP4 CODECOPY DUP2 DUP2 ADD PUSH1 0x40 MSTORE DUP2 ADD SWAP1 PUSH2 0x31 SWAP2 SWAP1 PUSH2 0x279 JUMP JUMPDEST DUP4 DUP4 DUP2 PUSH1 0x3 SWAP1 DUP2 PUSH2 0x42 SWAP2 SWAP1 PUSH2 0x519 JUMP JUMPDEST POP DUP1 PUSH1 0x4 SWAP1 DUP2 PUSH2 0x52 SWAP2 SWAP1 PUSH2 0x519 JUMP JUMPDEST POP POP POP PUSH0 DUP3 GT PUSH2 0x97 JUMPI PUSH1 0x40 MLOAD PUSH32 0x8C379A000000000000000000000000000000000000000000000000000000000 DUP2 MSTORE PUSH1 0x4 ADD PUSH2 0x8E SWAP1 PUSH2 0x668 JUMP JUMPDEST PUSH1 0x40 MLOAD DUP1 SWAP2 SUB SWAP1 REVERT JUMPDEST PUSH0 DUP2 GT PUSH2 0xD9 JUMPI PUSH1 0x40 MLOAD PUSH32 0x8C379A000000000000000000000000000000000000000000000000000000000 DUP2 MSTORE PUSH1 0x4 ADD PUSH2 0xD0 SWAP1 PUSH2 0x6F6 JUMP JUMPDEST PUSH1 0x40 MLOAD DUP1 SWAP2 SUB SWAP1 REVERT JUMPDEST DUP2 PUSH1 0x80 DUP2 DUP2 MSTORE POP POP DUP1 PUSH1 0xA0 DUP2 DUP2 MSTORE POP POP PUSH0 PUSH1 0x5 DUP2 SWAP1 SSTORE POP POP POP POP POP PUSH2 0x714 JUMP JUMPDEST PUSH0 PUSH1 0x40 MLOAD SWAP1 POP SWAP1 JUMP JUMPDEST PUSH0 DUP1 REVERT JUMPDEST PUSH0 DUP1 REVERT JUMPDEST PUSH0 DUP1 REVERT JUMPDEST PUSH0 DUP1 REVERT JUMPDEST PUSH0 PUSH1 0x1F NOT PUSH1 0x1F DUP4 ADD AND SWAP1 POP SWAP2 SWAP1 POP JUMP JUMPDEST PUSH32 0x4E487B7100000000000000000000000000000000000000000000000000000000 PUSH0 MSTORE PUSH1 0x41 PUSH1 0x4 MSTORE PUSH1 0x24 PUSH0 REVERT JUMPDEST PUSH2 0x158 DUP3 PUSH2 0x112 JUMP JUMPDEST DUP2 ADD DUP2 DUP2 LT PUSH8 0xFFFFFFFFFFFFFFFF DUP3 GT OR ISZERO PUSH2 0x177 JUMPI PUSH2 0x176 PUSH2 0x122 JUMP JUMPDEST JUMPDEST DUP1 PUSH1 0x40 MSTORE POP POP POP JUMP JUMPDEST PUSH0 PUSH2 0x189 PUSH2 0xF9 JUMP JUMPDEST SWAP1 POP PUSH2 0x195 DUP3 DUP3 PUSH2 0x14F JUMP JUMPDEST SWAP2 SWAP1 POP JUMP JUMPDEST PUSH0 PUSH8 0xFFFFFFFFFFFFFFFF DUP3 GT ISZERO PUSH2 0x1B4 JUMPI PUSH2 0x1B3 PUSH2 0x122 JUMP JUMPDEST JUMPDEST PUSH2 0x1BD DUP3 PUSH2 0x112 JUMP JUMPDEST SWAP1 POP PUSH1 0x20 DUP2 ADD SWAP1 POP SWAP2 SWAP1 POP JUMP JUMPDEST DUP3 DUP2 DUP4 MCOPY PUSH0 DUP4 DUP4 ADD MSTORE POP POP POP JUMP JUMPDEST PUSH0 PUSH2 0x1EA PUSH2 0x1E5 DUP5 PUSH2 0x19A JUMP JUMPDEST PUSH2 0x180 JUMP JUMPDEST SWAP1 POP DUP3 DUP2 MSTORE PUSH1 0x20 DUP2 ADD DUP5 DUP5 DUP5 ADD GT ISZERO PUSH2 0x206 JUMPI PUSH2 0x205 PUSH2 0x10E JUMP JUMPDEST JUMPDEST PUSH2 0x211 DUP5 DUP3 DUP6 PUSH2 0x1CA JUMP JUMPDEST POP SWAP4 SWAP3 POP POP POP JUMP JUMPDEST PUSH0 DUP3 PUSH1 0x1F DUP4 ADD SLT PUSH2 0x22D JUMPI PUSH2 0x22C PUSH2 0x10A JUMP JUMPDEST JUMPDEST DUP2 MLOAD PUSH2 0x23D DUP5 DUP3 PUSH1 0x20 DUP7 ADD PUSH2 0x1D8 JUMP JUMPDEST SWAP2 POP POP SWAP3 SWAP2 POP POP JUMP JUMPDEST PUSH0 DUP2 SWAP1 POP SWAP2 SWAP1 POP JUMP JUMPDEST PUSH2 0x258 DUP2 PUSH2 0x246 JUMP JUMPDEST DUP2 EQ PUSH2 0x262 JUMPI PUSH0 DUP1 REVERT JUMPDEST POP JUMP JUMPDEST PUSH0 DUP2 MLOAD SWAP1 POP PUSH2 0x273 DUP2 PUSH2 0x24F JUMP JUMPDEST SWAP3 SWAP2 POP POP JUMP JUMPDEST PUSH0 DUP1 PUSH0 DUP1 PUSH1 0x80 DUP6 DUP8 SUB SLT ISZERO PUSH2 0x291 JUMPI PUSH2 0x290 PUSH2 0x102 JUMP JUMPDEST JUMPDEST PUSH0 DUP6 ADD MLOAD PUSH8 0xFFFFFFFFFFFFFFFF DUP2 GT ISZERO PUSH2 0x2AE JUMPI PUSH2 0x2AD PUSH2 0x106 JUMP JUMPDEST JUMPDEST PUSH2 0x2BA DUP8 DUP3 DUP9 ADD PUSH2 0x219 JUMP JUMPDEST SWAP5 POP POP PUSH1 0x20 DUP6 ADD MLOAD PUSH8 0xFFFFFFFFFFFFFFFF DUP2 GT ISZERO PUSH2 0x2DB JUMPI PUSH2 0x2DA PUSH2 0x106 JUMP JUMPDEST JUMPDEST PUSH2 0x2E7 DUP8 DUP3 DUP9 ADD PUSH2 0x219 JUMP JUMPDEST SWAP4 POP POP PUSH1 0x40 PUSH2 0x2F8 DUP8 DUP3 DUP9 ADD PUSH2 0x265 JUMP JUMPDEST SWAP3 POP POP PUSH1 0x60 PUSH2 0x309 DUP8 DUP3 DUP9 ADD PUSH2 0x265 JUMP JUMPDEST SWAP2 POP POP SWAP3 SWAP6 SWAP2 SWAP5 POP SWAP3 POP JUMP JUMPDEST PUSH0 DUP2 MLOAD SWAP1 POP SWAP2 SWAP1 POP JUMP JUMPDEST PUSH32 0x4E487B7100000000000000000000000000000000000000000000000000000000 PUSH0 MSTORE PUSH1 0x22 PUSH1 0x4 MSTORE PUSH1 0x24 PUSH0 REVERT JUMPDEST PUSH0 PUSH1 0x2 DUP3 DIV SWAP1 POP PUSH1 0x1 DUP3 AND DUP1 PUSH2 0x363 JUMPI PUSH1 0x7F DUP3 AND SWAP2 POP JUMPDEST PUSH1 0x20 DUP3 LT DUP2 SUB PUSH2 0x376 JUMPI PUSH2 0x375 PUSH2 0x31F JUMP JUMPDEST JUMPDEST POP SWAP2 SWAP1 POP JUMP JUMPDEST PUSH0 DUP2 SWAP1 POP DUP2 PUSH0 MSTORE PUSH1 0x20 PUSH0 KECCAK256 SWAP1 POP SWAP2 SWAP1 POP JUMP JUMPDEST PUSH0 PUSH1 0x20 PUSH1 0x1F DUP4 ADD DIV SWAP1 POP SWAP2 SWAP1 POP JUMP JUMPDEST PUSH0 DUP3 DUP3 SHL SWAP1 POP SWAP3 SWAP2 POP POP JUMP JUMPDEST PUSH0 PUSH1 0x8 DUP4 MUL PUSH2 0x3D8 PUSH32 0xFFFFFFFFFFFFFFFFFFFFFFFFFFFFFFFFFFFFFFFFFFFFFFFFFFFFFFFFFFFFFFFF DUP3 PUSH2 0x39D JUMP JUMPDEST PUSH2 0x3E2 DUP7 DUP4 PUSH2 0x39D JUMP JUMPDEST SWAP6 POP DUP1 NOT DUP5 AND SWAP4 POP DUP1 DUP7 AND DUP5 OR SWAP3 POP POP POP SWAP4 SWAP3 POP POP POP JUMP JUMPDEST PUSH0 DUP2 SWAP1 POP SWAP2 SWAP1 POP JUMP JUMPDEST PUSH0 PUSH2 0x41D PUSH2 0x418 PUSH2 0x413 DUP5 PUSH2 0x246 JUMP JUMPDEST PUSH2 0x3FA JUMP JUMPDEST PUSH2 0x246 JUMP JUMPDEST SWAP1 POP SWAP2 SWAP1 POP JUMP JUMPDEST PUSH0 DUP2 SWAP1 POP SWAP2 SWAP1 POP JUMP JUMPDEST PUSH2 0x436 DUP4 PUSH2 0x403 JUMP JUMPDEST PUSH2 0x44A PUSH2 0x442 DUP3 PUSH2 0x424 JUMP JUMPDEST DUP5 DUP5 SLOAD PUSH2 0x3A9 JUMP JUMPDEST DUP3 SSTORE POP POP POP POP JUMP JUMPDEST PUSH0 SWAP1 JUMP JUMPDEST PUSH2 0x45E PUSH2 0x452 JUMP JUMPDEST PUSH2 0x469 DUP2 DUP5 DUP5 PUSH2 0x42D JUMP JUMPDEST POP POP POP JUMP JUMPDEST JUMPDEST DUP2 DUP2 LT ISZERO PUSH2 0x48C JUMPI PUSH2 0x481 PUSH0 DUP3 PUSH2 0x456 JUMP JUMPDEST PUSH1 0x1 DUP2 ADD SWAP1 POP PUSH2 0x46F JUMP JUMPDEST POP POP JUMP JUMPDEST PUSH1 0x1F DUP3 GT ISZERO PUSH2 0x4D1 JUMPI PUSH2 0x4A2 DUP2 PUSH2 0x37C JUMP JUMPDEST PUSH2 0x4AB DUP5 PUSH2 0x38E JUMP JUMPDEST DUP2 ADD PUSH1 0x20 DUP6 LT ISZERO PUSH2 0x4BA JUMPI DUP2 SWAP1 POP JUMPDEST PUSH2 0x4CE PUSH2 0x4C6 DUP6 PUSH2 0x38E JUMP JUMPDEST DUP4 ADD DUP3 PUSH2 0x46E JUMP JUMPDEST POP POP JUMPDEST POP POP POP JUMP JUMPDEST PUSH0 DUP3 DUP3 SHR SWAP1 POP SWAP3 SWAP2 POP POP JUMP JUMPDEST PUSH0 PUSH2 0x4F1 PUSH0 NOT DUP5 PUSH1 0x8 MUL PUSH2 0x4D6 JUMP JUMPDEST NOT DUP1 DUP4 AND SWAP2 POP POP SWAP3 SWAP2 POP POP JUMP JUMPDEST PUSH0 PUSH2 0x509 DUP4 DUP4 PUSH2 0x4E2 JUMP JUMPDEST SWAP2 POP DUP3 PUSH1 0x2 MUL DUP3 OR SWAP1 POP SWAP3 SWAP2 POP POP JUMP JUMPDEST PUSH2 0x522 DUP3 PUSH2 0x315 JUMP JUMPDEST PUSH8 0xFFFFFFFFFFFFFFFF DUP2 GT ISZERO PUSH2 0x53B JUMPI PUSH2 0x53A PUSH2 0x122 JUMP JUMPDEST JUMPDEST PUSH2 0x545 DUP3 SLOAD PUSH2 0x34C JUMP JUMPDEST PUSH2 0x550 DUP3 DUP3 DUP6 PUSH2 0x490 JUMP JUMPDEST PUSH0 PUSH1 0x20 SWAP1 POP PUSH1 0x1F DUP4 GT PUSH1 0x1 DUP2 EQ PUSH2 0x581 JUMPI PUSH0 DUP5 ISZERO PUSH2 0x56F JUMPI DUP3 DUP8 ADD MLOAD SWAP1 POP JUMPDEST PUSH2 0x579 DUP6 DUP3 PUSH2 0x4FE JUMP JUMPDEST DUP7 SSTORE POP PUSH2 0x5E0 JUMP JUMPDEST PUSH1 0x1F NOT DUP5 AND PUSH2 0x58F DUP7 PUSH2 0x37C JUMP JUMPDEST PUSH0 JUMPDEST DUP3 DUP2 LT ISZERO PUSH2 0x5B6 JUMPI DUP5 DUP10 ADD MLOAD DUP3 SSTORE PUSH1 0x1 DUP3 ADD SWAP2 POP PUSH1 0x20 DUP6 ADD SWAP5 POP PUSH1 0x20 DUP2 ADD SWAP1 POP PUSH2 0x591 JUMP JUMPDEST DUP7 DUP4 LT ISZERO PUSH2 0x5D3 JUMPI DUP5 DUP10 ADD MLOAD PUSH2 0x5CF PUSH1 0x1F DUP10 AND DUP3 PUSH2 0x4E2 JUMP JUMPDEST DUP4 SSTORE POP JUMPDEST PUSH1 0x1 PUSH1 0x2 DUP9 MUL ADD DUP9 SSTORE POP POP POP JUMPDEST POP POP POP POP POP POP JUMP JUMPDEST PUSH0 DUP3 DUP3 MSTORE PUSH1 0x20 DUP3 ADD SWAP1 POP SWAP3 SWAP2 POP POP JUMP JUMPDEST PUSH32 0x456C2070726563696F206E6F20707565646520736572206D656E6F7220717565 PUSH0 DUP3 ADD MSTORE PUSH32 0x206365726F000000000000000000000000000000000000000000000000000000 PUSH1 0x20 DUP3 ADD MSTORE POP JUMP JUMPDEST PUSH0 PUSH2 0x652 PUSH1 0x25 DUP4 PUSH2 0x5E8 JUMP JUMPDEST SWAP2 POP PUSH2 0x65D DUP3 PUSH2 0x5F8 JUMP JUMPDEST PUSH1 0x40 DUP3 ADD SWAP1 POP SWAP2 SWAP1 POP JUMP JUMPDEST PUSH0 PUSH1 0x20 DUP3 ADD SWAP1 POP DUP2 DUP2 SUB PUSH0 DUP4 ADD MSTORE PUSH2 0x67F DUP2 PUSH2 0x646 JUMP JUMPDEST SWAP1 POP SWAP2 SWAP1 POP JUMP JUMPDEST PUSH32 0x456C206D6178696D6F20646520746F6B656E73206E6F20707565646520736572 PUSH0 DUP3 ADD MSTORE PUSH32 0x206D656E6F7220717565206365726F0000000000000000000000000000000000 PUSH1 0x20 DUP3 ADD MSTORE POP JUMP JUMPDEST PUSH0 PUSH2 0x6E0 PUSH1 0x2F DUP4 PUSH2 0x5E8 JUMP JUMPDEST SWAP2 POP PUSH2 0x6EB DUP3 PUSH2 0x686 JUMP JUMPDEST PUSH1 0x40 DUP3 ADD SWAP1 POP SWAP2 SWAP1 POP JUMP JUMPDEST PUSH0 PUSH1 0x20 DUP3 ADD SWAP1 POP DUP2 DUP2 SUB PUSH0 DUP4 ADD MSTORE PUSH2 0x70D DUP2 PUSH2 0x6D4 JUMP JUMPDEST SWAP1 POP SWAP2 SWAP1 POP JUMP JUMPDEST PUSH1 0x80 MLOAD PUSH1 0xA0 MLOAD PUSH2 0x14E3 PUSH2 0x73C PUSH0 CODECOPY PUSH0 DUP2 DUP2 PUSH2 0x4D6 ADD MSTORE PUSH2 0x85C ADD MSTORE PUSH0 PUSH2 0x5B1 ADD MSTORE PUSH2 0x14E3 PUSH0 RETURN INVALID PUSH1 0x80 PUSH1 0x40 MSTORE CALLVALUE DUP1 ISZERO PUSH2 0xF JUMPI PUSH0 DUP1 REVERT JUMPDEST POP PUSH1 0x4 CALLDATASIZE LT PUSH2 0xE8 JUMPI PUSH0 CALLDATALOAD PUSH1 0xE0 SHR DUP1 PUSH4 0x7FF9B596 GT PUSH2 0x8A JUMPI DUP1 PUSH4 0x9DC29FAC GT PUSH2 0x64 JUMPI DUP1 PUSH4 0x9DC29FAC EQ PUSH2 0x24C JUMPI DUP1 PUSH4 0xA9059CBB EQ PUSH2 0x268 JUMPI DUP1 PUSH4 0xDD62ED3E EQ PUSH2 0x298 JUMPI DUP1 PUSH4 0xE8315742 EQ PUSH2 0x2C8 JUMPI PUSH2 0xE8 JUMP JUMPDEST DUP1 PUSH4 0x7FF9B596 EQ PUSH2 0x1F2 JUMPI DUP1 PUSH4 0x8D75FE05 EQ PUSH2 0x210 JUMPI DUP1 PUSH4 0x95D89B41 EQ PUSH2 0x22E JUMPI PUSH2 0xE8 JUMP JUMPDEST DUP1 PUSH4 0x23B872DD GT PUSH2 0xC6 JUMPI DUP1 PUSH4 0x23B872DD EQ PUSH2 0x158 JUMPI DUP1 PUSH4 0x313CE567 EQ PUSH2 0x188 JUMPI DUP1 PUSH4 0x40C10F19 EQ PUSH2 0x1A6 JUMPI DUP1 PUSH4 0x70A08231 EQ PUSH2 0x1C2 JUMPI PUSH2 0xE8 JUMP JUMPDEST DUP1 PUSH4 0x6FDDE03 EQ PUSH2 0xEC JUMPI DUP1 PUSH4 0x95EA7B3 EQ PUSH2 0x10A JUMPI DUP1 PUSH4 0x18160DDD EQ PUSH2 0x13A JUMPI JUMPDEST PUSH0 DUP1 REVERT JUMPDEST PUSH2 0xF4 PUSH2 0x2E6 JUMP JUMPDEST PUSH1 0x40 MLOAD PUSH2 0x101 SWAP2 SWAP1 PUSH2 0xF70 JUMP JUMPDEST PUSH1 0x40 MLOAD DUP1 SWAP2 SUB SWAP1 RETURN JUMPDEST PUSH2 0x124 PUSH1 0x4 DUP1 CALLDATASIZE SUB DUP2 ADD SWAP1 PUSH2 0x11F SWAP2 SWAP1 PUSH2 0x1021 JUMP JUMPDEST PUSH2 0x376 JUMP JUMPDEST PUSH1 0x40 MLOAD PUSH2 0x131 SWAP2 SWAP1 PUSH2 0x1079 JUMP JUMPDEST PUSH1 0x40 MLOAD DUP1 SWAP2 SUB SWAP1 RETURN JUMPDEST PUSH2 0x142 PUSH2 0x398 JUMP JUMPDEST PUSH1 0x40 MLOAD PUSH2 0x14F SWAP2 SWAP1 PUSH2 0x10A1 JUMP JUMPDEST PUSH1 0x40 MLOAD DUP1 SWAP2 SUB SWAP1 RETURN JUMPDEST PUSH2 0x172 PUSH1 0x4 DUP1 CALLDATASIZE SUB DUP2 ADD SWAP1 PUSH2 0x16D SWAP2 SWAP1 PUSH2 0x10BA JUMP JUMPDEST PUSH2 0x3A1 JUMP JUMPDEST PUSH1 0x40 MLOAD PUSH2 0x17F SWAP2 SWAP1 PUSH2 0x1079 JUMP JUMPDEST PUSH1 0x40 MLOAD DUP1 SWAP2 SUB SWAP1 RETURN JUMPDEST PUSH2 0x190 PUSH2 0x3CF JUMP JUMPDEST PUSH1 0x40 MLOAD PUSH2 0x19D SWAP2 SWAP1 PUSH2 0x1125 JUMP JUMPDEST PUSH1 0x40 MLOAD DUP1 SWAP2 SUB SWAP1 RETURN JUMPDEST PUSH2 0x1C0 PUSH1 0x4 DUP1 CALLDATASIZE SUB DUP2 ADD SWAP1 PUSH2 0x1BB SWAP2 SWAP1 PUSH2 0x1021 JUMP JUMPDEST PUSH2 0x3D7 JUMP JUMPDEST STOP JUMPDEST PUSH2 0x1DC PUSH1 0x4 DUP1 CALLDATASIZE SUB DUP2 ADD SWAP1 PUSH2 0x1D7 SWAP2 SWAP1 PUSH2 0x113E JUMP JUMPDEST PUSH2 0x56A JUMP JUMPDEST PUSH1 0x40 MLOAD PUSH2 0x1E9 SWAP2 SWAP1 PUSH2 0x10A1 JUMP JUMPDEST PUSH1 0x40 MLOAD DUP1 SWAP2 SUB SWAP1 RETURN JUMPDEST PUSH2 0x1FA PUSH2 0x5AF JUMP JUMPDEST PUSH1 0x40 MLOAD PUSH2 0x207 SWAP2 SWAP1 PUSH2 0x10A1 JUMP JUMPDEST PUSH1 0x40 MLOAD DUP1 SWAP2 SUB SWAP1 RETURN JUMPDEST PUSH2 0x218 PUSH2 0x5D3 JUMP JUMPDEST PUSH1 0x40 MLOAD PUSH2 0x225 SWAP2 SWAP1 PUSH2 0x10A1 JUMP JUMPDEST PUSH1 0x40 MLOAD DUP1 SWAP2 SUB SWAP1 RETURN JUMPDEST PUSH2 0x236 PUSH2 0x5D9 JUMP JUMPDEST PUSH1 0x40 MLOAD PUSH2 0x243 SWAP2 SWAP1 PUSH2 0xF70 JUMP JUMPDEST PUSH1 0x40 MLOAD DUP1 SWAP2 SUB SWAP1 RETURN JUMPDEST PUSH2 0x266 PUSH1 0x4 DUP1 CALLDATASIZE SUB DUP2 ADD SWAP1 PUSH2 0x261 SWAP2 SWAP1 PUSH2 0x1021 JUMP JUMPDEST PUSH2 0x669 JUMP JUMPDEST STOP JUMPDEST PUSH2 0x282 PUSH1 0x4 DUP1 CALLDATASIZE SUB DUP2 ADD SWAP1 PUSH2 0x27D SWAP2 SWAP1 PUSH2 0x1021 JUMP JUMPDEST PUSH2 0x7B6 JUMP JUMPDEST PUSH1 0x40 MLOAD PUSH2 0x28F SWAP2 SWAP1 PUSH2 0x1079 JUMP JUMPDEST PUSH1 0x40 MLOAD DUP1 SWAP2 SUB SWAP1 RETURN JUMPDEST PUSH2 0x2B2 PUSH1 0x4 DUP1 CALLDATASIZE SUB DUP2 ADD SWAP1 PUSH2 0x2AD SWAP2 SWAP1 PUSH2 0x1169 JUMP JUMPDEST PUSH2 0x7D8 JUMP JUMPDEST PUSH1 0x40 MLOAD PUSH2 0x2BF SWAP2 SWAP1 PUSH2 0x10A1 JUMP JUMPDEST PUSH1 0x40 MLOAD DUP1 SWAP2 SUB SWAP1 RETURN JUMPDEST PUSH2 0x2D0 PUSH2 0x85A JUMP JUMPDEST PUSH1 0x40 MLOAD PUSH2 0x2DD SWAP2 SWAP1 PUSH2 0x10A1 JUMP JUMPDEST PUSH1 0x40 MLOAD DUP1 SWAP2 SUB SWAP1 RETURN JUMPDEST PUSH1 0x60 PUSH1 0x3 DUP1 SLOAD PUSH2 0x2F5 SWAP1 PUSH2 0x11D4 JUMP JUMPDEST DUP1 PUSH1 0x1F ADD PUSH1 0x20 DUP1 SWAP2 DIV MUL PUSH1 0x20 ADD PUSH1 0x40 MLOAD SWAP1 DUP2 ADD PUSH1 0x40 MSTORE DUP1 SWAP3 SWAP2 SWAP1 DUP2 DUP2 MSTORE PUSH1 0x20 ADD DUP3 DUP1 SLOAD PUSH2 0x321 SWAP1 PUSH2 0x11D4 JUMP JUMPDEST DUP1 ISZERO PUSH2 0x36C JUMPI DUP1 PUSH1 0x1F LT PUSH2 0x343 JUMPI PUSH2 0x100 DUP1 DUP4 SLOAD DIV MUL DUP4 MSTORE SWAP2 PUSH1 0x20 ADD SWAP2 PUSH2 0x36C JUMP JUMPDEST DUP3 ADD SWAP2 SWAP1 PUSH0 MSTORE PUSH1 0x20 PUSH0 KECCAK256 SWAP1 JUMPDEST DUP2 SLOAD DUP2 MSTORE SWAP1 PUSH1 0x1 ADD SWAP1 PUSH1 0x20 ADD DUP1 DUP4 GT PUSH2 0x34F JUMPI DUP3 SWAP1 SUB PUSH1 0x1F AND DUP3 ADD SWAP2 JUMPDEST POP POP POP POP POP SWAP1 POP SWAP1 JUMP JUMPDEST PUSH0 DUP1 PUSH2 0x380 PUSH2 0x87E JUMP JUMPDEST SWAP1 POP PUSH2 0x38D DUP2 DUP6 DUP6 PUSH2 0x885 JUMP JUMPDEST PUSH1 0x1 SWAP2 POP POP SWAP3 SWAP2 POP POP JUMP JUMPDEST PUSH0 PUSH1 0x2 SLOAD SWAP1 POP SWAP1 JUMP JUMPDEST PUSH0 DUP1 PUSH2 0x3AB PUSH2 0x87E JUMP JUMPDEST SWAP1 POP PUSH2 0x3B8 DUP6 DUP3 DUP6 PUSH2 0x897 JUMP JUMPDEST PUSH2 0x3C3 DUP6 DUP6 DUP6 PUSH2 0x92A JUMP JUMPDEST PUSH1 0x1 SWAP2 POP POP SWAP4 SWAP3 POP POP POP JUMP JUMPDEST PUSH0 PUSH1 0x12 SWAP1 POP SWAP1 JUMP JUMPDEST PUSH1 0x6 PUSH0 SWAP1 SLOAD SWAP1 PUSH2 0x100 EXP SWAP1 DIV PUSH20 0xFFFFFFFFFFFFFFFFFFFFFFFFFFFFFFFFFFFFFFFF AND PUSH20 0xFFFFFFFFFFFFFFFFFFFFFFFFFFFFFFFFFFFFFFFF AND CALLER PUSH20 0xFFFFFFFFFFFFFFFFFFFFFFFFFFFFFFFFFFFFFFFF AND EQ PUSH2 0x466 JUMPI PUSH1 0x40 MLOAD PUSH32 0x8C379A000000000000000000000000000000000000000000000000000000000 DUP2 MSTORE PUSH1 0x4 ADD PUSH2 0x45D SWAP1 PUSH2 0x124E JUMP JUMPDEST PUSH1 0x40 MLOAD DUP1 SWAP2 SUB SWAP1 REVERT JUMPDEST PUSH0 PUSH20 0xFFFFFFFFFFFFFFFFFFFFFFFFFFFFFFFFFFFFFFFF AND DUP3 PUSH20 0xFFFFFFFFFFFFFFFFFFFFFFFFFFFFFFFFFFFFFFFF AND SUB PUSH2 0x4D4 JUMPI PUSH1 0x40 MLOAD PUSH32 0x8C379A000000000000000000000000000000000000000000000000000000000 DUP2 MSTORE PUSH1 0x4 ADD PUSH2 0x4CB SWAP1 PUSH2 0x12DC JUMP JUMPDEST PUSH1 0x40 MLOAD DUP1 SWAP2 SUB SWAP1 REVERT JUMPDEST PUSH32 0x0 DUP2 PUSH1 0x5 SLOAD PUSH2 0x503 SWAP2 SWAP1 PUSH2 0x1327 JUMP JUMPDEST GT ISZERO PUSH2 0x544 JUMPI PUSH1 0x40 MLOAD PUSH32 0x8C379A000000000000000000000000000000000000000000000000000000000 DUP2 MSTORE PUSH1 0x4 ADD PUSH2 0x53B SWAP1 PUSH2 0x13A4 JUMP JUMPDEST PUSH1 0x40 MLOAD DUP1 SWAP2 SUB SWAP1 REVERT JUMPDEST DUP1 PUSH1 0x5 PUSH0 DUP3 DUP3 SLOAD PUSH2 0x555 SWAP2 SWAP1 PUSH2 0x1327 JUMP JUMPDEST SWAP3 POP POP DUP2 SWAP1 SSTORE POP PUSH2 0x566 DUP3 DUP3 PUSH2 0xA1A JUMP JUMPDEST POP POP JUMP JUMPDEST PUSH0 DUP1 PUSH0 DUP4 PUSH20 0xFFFFFFFFFFFFFFFFFFFFFFFFFFFFFFFFFFFFFFFF AND PUSH20 0xFFFFFFFFFFFFFFFFFFFFFFFFFFFFFFFFFFFFFFFF AND DUP2 MSTORE PUSH1 0x20 ADD SWAP1 DUP2 MSTORE PUSH1 0x20 ADD PUSH0 KECCAK256 SLOAD SWAP1 POP SWAP2 SWAP1 POP JUMP JUMPDEST PUSH32 0x0 DUP2 JUMP JUMPDEST PUSH1 0x5 SLOAD DUP2 JUMP JUMPDEST PUSH1 0x60 PUSH1 0x4 DUP1 SLOAD PUSH2 0x5E8 SWAP1 PUSH2 0x11D4 JUMP JUMPDEST DUP1 PUSH1 0x1F ADD PUSH1 0x20 DUP1 SWAP2 DIV MUL PUSH1 0x20 ADD PUSH1 0x40 MLOAD SWAP1 DUP2 ADD PUSH1 0x40 MSTORE DUP1 SWAP3 SWAP2 SWAP1 DUP2 DUP2 MSTORE PUSH1 0x20 ADD DUP3 DUP1 SLOAD PUSH2 0x614 SWAP1 PUSH2 0x11D4 JUMP JUMPDEST DUP1 ISZERO PUSH2 0x65F JUMPI DUP1 PUSH1 0x1F LT PUSH2 0x636 JUMPI PUSH2 0x100 DUP1 DUP4 SLOAD DIV MUL DUP4 MSTORE SWAP2 PUSH1 0x20 ADD SWAP2 PUSH2 0x65F JUMP JUMPDEST DUP3 ADD SWAP2 SWAP1 PUSH0 MSTORE PUSH1 0x20 PUSH0 KECCAK256 SWAP1 JUMPDEST DUP2 SLOAD DUP2 MSTORE SWAP1 PUSH1 0x1 ADD SWAP1 PUSH1 0x20 ADD DUP1 DUP4 GT PUSH2 0x642 JUMPI DUP3 SWAP1 SUB PUSH1 0x1F AND DUP3 ADD SWAP2 JUMPDEST POP POP POP POP POP SWAP1 POP SWAP1 JUMP JUMPDEST PUSH1 0x6 PUSH0 SWAP1 SLOAD SWAP1 PUSH2 0x100 EXP SWAP1 DIV PUSH20 0xFFFFFFFFFFFFFFFFFFFFFFFFFFFFFFFFFFFFFFFF AND PUSH20 0xFFFFFFFFFFFFFFFFFFFFFFFFFFFFFFFFFFFFFFFF AND CALLER PUSH20 0xFFFFFFFFFFFFFFFFFFFFFFFFFFFFFFFFFFFFFFFF AND EQ PUSH2 0x6F8 JUMPI PUSH1 0x40 MLOAD PUSH32 0x8C379A000000000000000000000000000000000000000000000000000000000 DUP2 MSTORE PUSH1 0x4 ADD PUSH2 0x6EF SWAP1 PUSH2 0x124E JUMP JUMPDEST PUSH1 0x40 MLOAD DUP1 SWAP2 SUB SWAP1 REVERT JUMPDEST PUSH0 PUSH20 0xFFFFFFFFFFFFFFFFFFFFFFFFFFFFFFFFFFFFFFFF AND DUP3 PUSH20 0xFFFFFFFFFFFFFFFFFFFFFFFFFFFFFFFFFFFFFFFF AND SUB PUSH2 0x766 JUMPI PUSH1 0x40 MLOAD PUSH32 0x8C379A000000000000000000000000000000000000000000000000000000000 DUP2 MSTORE PUSH1 0x4 ADD PUSH2 0x75D SWAP1 PUSH2 0x12DC JUMP JUMPDEST PUSH1 0x40 MLOAD DUP1 SWAP2 SUB SWAP1 REVERT JUMPDEST PUSH0 DUP2 GT PUSH2 0x7A8 JUMPI PUSH1 0x40 MLOAD PUSH32 0x8C379A000000000000000000000000000000000000000000000000000000000 DUP2 MSTORE PUSH1 0x4 ADD PUSH2 0x79F SWAP1 PUSH2 0x1432 JUMP JUMPDEST PUSH1 0x40 MLOAD DUP1 SWAP2 SUB SWAP1 REVERT JUMPDEST PUSH2 0x7B2 DUP3 DUP3 PUSH2 0xA99 JUMP JUMPDEST POP POP JUMP JUMPDEST PUSH0 DUP1 PUSH2 0x7C0 PUSH2 0x87E JUMP JUMPDEST SWAP1 POP PUSH2 0x7CD DUP2 DUP6 DUP6 PUSH2 0x92A JUMP JUMPDEST PUSH1 0x1 SWAP2 POP POP SWAP3 SWAP2 POP POP JUMP JUMPDEST PUSH0 PUSH1 0x1 PUSH0 DUP5 PUSH20 0xFFFFFFFFFFFFFFFFFFFFFFFFFFFFFFFFFFFFFFFF AND PUSH20 0xFFFFFFFFFFFFFFFFFFFFFFFFFFFFFFFFFFFFFFFF AND DUP2 MSTORE PUSH1 0x20 ADD SWAP1 DUP2 MSTORE PUSH1 0x20 ADD PUSH0 KECCAK256 PUSH0 DUP4 PUSH20 0xFFFFFFFFFFFFFFFFFFFFFFFFFFFFFFFFFFFFFFFF AND PUSH20 0xFFFFFFFFFFFFFFFFFFFFFFFFFFFFFFFFFFFFFFFF AND DUP2 MSTORE PUSH1 0x20 ADD SWAP1 DUP2 MSTORE PUSH1 0x20 ADD PUSH0 KECCAK256 SLOAD SWAP1 POP SWAP3 SWAP2 POP POP JUMP JUMPDEST PUSH32 0x0 DUP2 JUMP JUMPDEST PUSH0 CALLER SWAP1 POP SWAP1 JUMP JUMPDEST PUSH2 0x892 DUP4 DUP4 DUP4 PUSH1 0x1 PUSH2 0xB18 JUMP JUMPDEST POP POP POP JUMP JUMPDEST PUSH0 PUSH2 0x8A2 DUP5 DUP5 PUSH2 0x7D8 JUMP JUMPDEST SWAP1 POP PUSH32 0xFFFFFFFFFFFFFFFFFFFFFFFFFFFFFFFFFFFFFFFFFFFFFFFFFFFFFFFFFFFFFFFF DUP2 LT ISZERO PUSH2 0x924 JUMPI DUP2 DUP2 LT ISZERO PUSH2 0x915 JUMPI DUP3 DUP2 DUP4 PUSH1 0x40 MLOAD PUSH32 0xFB8F41B200000000000000000000000000000000000000000000000000000000 DUP2 MSTORE PUSH1 0x4 ADD PUSH2 0x90C SWAP4 SWAP3 SWAP2 SWAP1 PUSH2 0x145F JUMP JUMPDEST PUSH1 0x40 MLOAD DUP1 SWAP2 SUB SWAP1 REVERT JUMPDEST PUSH2 0x923 DUP5 DUP5 DUP5 DUP5 SUB PUSH0 PUSH2 0xB18 JUMP JUMPDEST JUMPDEST POP POP POP POP JUMP JUMPDEST PUSH0 PUSH20 0xFFFFFFFFFFFFFFFFFFFFFFFFFFFFFFFFFFFFFFFF AND DUP4 PUSH20 0xFFFFFFFFFFFFFFFFFFFFFFFFFFFFFFFFFFFFFFFF AND SUB PUSH2 0x99A JUMPI PUSH0 PUSH1 0x40 MLOAD PUSH32 0x96C6FD1E00000000000000000000000000000000000000000000000000000000 DUP2 MSTORE PUSH1 0x4 ADD PUSH2 0x991 SWAP2 SWAP1 PUSH2 0x1494 JUMP JUMPDEST PUSH1 0x40 MLOAD DUP1 SWAP2 SUB SWAP1 REVERT JUMPDEST PUSH0 PUSH20 0xFFFFFFFFFFFFFFFFFFFFFFFFFFFFFFFFFFFFFFFF AND DUP3 PUSH20 0xFFFFFFFFFFFFFFFFFFFFFFFFFFFFFFFFFFFFFFFF AND SUB PUSH2 0xA0A JUMPI PUSH0 PUSH1 0x40 MLOAD PUSH32 0xEC442F0500000000000000000000000000000000000000000000000000000000 DUP2 MSTORE PUSH1 0x4 ADD PUSH2 0xA01 SWAP2 SWAP1 PUSH2 0x1494 JUMP JUMPDEST PUSH1 0x40 MLOAD DUP1 SWAP2 SUB SWAP1 REVERT JUMPDEST PUSH2 0xA15 DUP4 DUP4 DUP4 PUSH2 0xCE7 JUMP JUMPDEST POP POP POP JUMP JUMPDEST PUSH0 PUSH20 0xFFFFFFFFFFFFFFFFFFFFFFFFFFFFFFFFFFFFFFFF AND DUP3 PUSH20 0xFFFFFFFFFFFFFFFFFFFFFFFFFFFFFFFFFFFFFFFF AND SUB PUSH2 0xA8A JUMPI PUSH0 PUSH1 0x40 MLOAD PUSH32 0xEC442F0500000000000000000000000000000000000000000000000000000000 DUP2 MSTORE PUSH1 0x4 ADD PUSH2 0xA81 SWAP2 SWAP1 PUSH2 0x1494 JUMP JUMPDEST PUSH1 0x40 MLOAD DUP1 SWAP2 SUB SWAP1 REVERT JUMPDEST PUSH2 0xA95 PUSH0 DUP4 DUP4 PUSH2 0xCE7 JUMP JUMPDEST POP POP JUMP JUMPDEST PUSH0 PUSH20 0xFFFFFFFFFFFFFFFFFFFFFFFFFFFFFFFFFFFFFFFF AND DUP3 PUSH20 0xFFFFFFFFFFFFFFFFFFFFFFFFFFFFFFFFFFFFFFFF AND SUB PUSH2 0xB09 JUMPI PUSH0 PUSH1 0x40 MLOAD PUSH32 0x96C6FD1E00000000000000000000000000000000000000000000000000000000 DUP2 MSTORE PUSH1 0x4 ADD PUSH2 0xB00 SWAP2 SWAP1 PUSH2 0x1494 JUMP JUMPDEST PUSH1 0x40 MLOAD DUP1 SWAP2 SUB SWAP1 REVERT JUMPDEST PUSH2 0xB14 DUP3 PUSH0 DUP4 PUSH2 0xCE7 JUMP JUMPDEST POP POP JUMP JUMPDEST PUSH0 PUSH20 0xFFFFFFFFFFFFFFFFFFFFFFFFFFFFFFFFFFFFFFFF AND DUP5 PUSH20 0xFFFFFFFFFFFFFFFFFFFFFFFFFFFFFFFFFFFFFFFF AND SUB PUSH2 0xB88 JUMPI PUSH0 PUSH1 0x40 MLOAD PUSH32 0xE602DF0500000000000000000000000000000000000000000000000000000000 DUP2 MSTORE PUSH1 0x4 ADD PUSH2 0xB7F SWAP2 SWAP1 PUSH2 0x1494 JUMP JUMPDEST PUSH1 0x40 MLOAD DUP1 SWAP2 SUB SWAP1 REVERT JUMPDEST PUSH0 PUSH20 0xFFFFFFFFFFFFFFFFFFFFFFFFFFFFFFFFFFFFFFFF AND DUP4 PUSH20 0xFFFFFFFFFFFFFFFFFFFFFFFFFFFFFFFFFFFFFFFF AND SUB PUSH2 0xBF8 JUMPI PUSH0 PUSH1 0x40 MLOAD PUSH32 0x94280D6200000000000000000000000000000000000000000000000000000000 DUP2 MSTORE PUSH1 0x4 ADD PUSH2 0xBEF SWAP2 SWAP1 PUSH2 0x1494 JUMP JUMPDEST PUSH1 0x40 MLOAD DUP1 SWAP2 SUB SWAP1 REVERT JUMPDEST DUP2 PUSH1 0x1 PUSH0 DUP7 PUSH20 0xFFFFFFFFFFFFFFFFFFFFFFFFFFFFFFFFFFFFFFFF AND PUSH20 0xFFFFFFFFFFFFFFFFFFFFFFFFFFFFFFFFFFFFFFFF AND DUP2 MSTORE PUSH1 0x20 ADD SWAP1 DUP2 MSTORE PUSH1 0x20 ADD PUSH0 KECCAK256 PUSH0 DUP6 PUSH20 0xFFFFFFFFFFFFFFFFFFFFFFFFFFFFFFFFFFFFFFFF AND PUSH20 0xFFFFFFFFFFFFFFFFFFFFFFFFFFFFFFFFFFFFFFFF AND DUP2 MSTORE PUSH1 0x20 ADD SWAP1 DUP2 MSTORE PUSH1 0x20 ADD PUSH0 KECCAK256 DUP2 SWAP1 SSTORE POP DUP1 ISZERO PUSH2 0xCE1 JUMPI DUP3 PUSH20 0xFFFFFFFFFFFFFFFFFFFFFFFFFFFFFFFFFFFFFFFF AND DUP5 PUSH20 0xFFFFFFFFFFFFFFFFFFFFFFFFFFFFFFFFFFFFFFFF AND PUSH32 0x8C5BE1E5EBEC7D5BD14F71427D1E84F3DD0314C0F7B2291E5B200AC8C7C3B925 DUP5 PUSH1 0x40 MLOAD PUSH2 0xCD8 SWAP2 SWAP1 PUSH2 0x10A1 JUMP JUMPDEST PUSH1 0x40 MLOAD DUP1 SWAP2 SUB SWAP1 LOG3 JUMPDEST POP POP POP POP JUMP JUMPDEST PUSH0 PUSH20 0xFFFFFFFFFFFFFFFFFFFFFFFFFFFFFFFFFFFFFFFF AND DUP4 PUSH20 0xFFFFFFFFFFFFFFFFFFFFFFFFFFFFFFFFFFFFFFFF AND SUB PUSH2 0xD37 JUMPI DUP1 PUSH1 0x2 PUSH0 DUP3 DUP3 SLOAD PUSH2 0xD2B SWAP2 SWAP1 PUSH2 0x1327 JUMP JUMPDEST SWAP3 POP POP DUP2 SWAP1 SSTORE POP PUSH2 0xE05 JUMP JUMPDEST PUSH0 DUP1 PUSH0 DUP6 PUSH20 0xFFFFFFFFFFFFFFFFFFFFFFFFFFFFFFFFFFFFFFFF AND PUSH20 0xFFFFFFFFFFFFFFFFFFFFFFFFFFFFFFFFFFFFFFFF AND DUP2 MSTORE PUSH1 0x20 ADD SWAP1 DUP2 MSTORE PUSH1 0x20 ADD PUSH0 KECCAK256 SLOAD SWAP1 POP DUP2 DUP2 LT ISZERO PUSH2 0xDC0 JUMPI DUP4 DUP2 DUP4 PUSH1 0x40 MLOAD PUSH32 0xE450D38C00000000000000000000000000000000000000000000000000000000 DUP2 MSTORE PUSH1 0x4 ADD PUSH2 0xDB7 SWAP4 SWAP3 SWAP2 SWAP1 PUSH2 0x145F JUMP JUMPDEST PUSH1 0x40 MLOAD DUP1 SWAP2 SUB SWAP1 REVERT JUMPDEST DUP2 DUP2 SUB PUSH0 DUP1 DUP7 PUSH20 0xFFFFFFFFFFFFFFFFFFFFFFFFFFFFFFFFFFFFFFFF AND PUSH20 0xFFFFFFFFFFFFFFFFFFFFFFFFFFFFFFFFFFFFFFFF AND DUP2 MSTORE PUSH1 0x20 ADD SWAP1 DUP2 MSTORE PUSH1 0x20 ADD PUSH0 KECCAK256 DUP2 SWAP1 SSTORE POP POP JUMPDEST PUSH0 PUSH20 0xFFFFFFFFFFFFFFFFFFFFFFFFFFFFFFFFFFFFFFFF AND DUP3 PUSH20 0xFFFFFFFFFFFFFFFFFFFFFFFFFFFFFFFFFFFFFFFF AND SUB PUSH2 0xE4C JUMPI DUP1 PUSH1 0x2 PUSH0 DUP3 DUP3 SLOAD SUB SWAP3 POP POP DUP2 SWAP1 SSTORE POP PUSH2 0xE96 JUMP JUMPDEST DUP1 PUSH0 DUP1 DUP5 PUSH20 0xFFFFFFFFFFFFFFFFFFFFFFFFFFFFFFFFFFFFFFFF AND PUSH20 0xFFFFFFFFFFFFFFFFFFFFFFFFFFFFFFFFFFFFFFFF AND DUP2 MSTORE PUSH1 0x20 ADD SWAP1 DUP2 MSTORE PUSH1 0x20 ADD PUSH0 KECCAK256 PUSH0 DUP3 DUP3 SLOAD ADD SWAP3 POP POP DUP2 SWAP1 SSTORE POP JUMPDEST DUP2 PUSH20 0xFFFFFFFFFFFFFFFFFFFFFFFFFFFFFFFFFFFFFFFF AND DUP4 PUSH20 0xFFFFFFFFFFFFFFFFFFFFFFFFFFFFFFFFFFFFFFFF AND PUSH32 0xDDF252AD1BE2C89B69C2B068FC378DAA952BA7F163C4A11628F55A4DF523B3EF DUP4 PUSH1 0x40 MLOAD PUSH2 0xEF3 SWAP2 SWAP1 PUSH2 0x10A1 JUMP JUMPDEST PUSH1 0x40 MLOAD DUP1 SWAP2 SUB SWAP1 LOG3 POP POP POP JUMP JUMPDEST PUSH0 DUP2 MLOAD SWAP1 POP SWAP2 SWAP1 POP JUMP JUMPDEST PUSH0 DUP3 DUP3 MSTORE PUSH1 0x20 DUP3 ADD SWAP1 POP SWAP3 SWAP2 POP POP JUMP JUMPDEST DUP3 DUP2 DUP4 MCOPY PUSH0 DUP4 DUP4 ADD MSTORE POP POP POP JUMP JUMPDEST PUSH0 PUSH1 0x1F NOT PUSH1 0x1F DUP4 ADD AND SWAP1 POP SWAP2 SWAP1 POP JUMP JUMPDEST PUSH0 PUSH2 0xF42 DUP3 PUSH2 0xF00 JUMP JUMPDEST PUSH2 0xF4C DUP2 DUP6 PUSH2 0xF0A JUMP JUMPDEST SWAP4 POP PUSH2 0xF5C DUP2 DUP6 PUSH1 0x20 DUP7 ADD PUSH2 0xF1A JUMP JUMPDEST PUSH2 0xF65 DUP2 PUSH2 0xF28 JUMP JUMPDEST DUP5 ADD SWAP2 POP POP SWAP3 SWAP2 POP POP JUMP JUMPDEST PUSH0 PUSH1 0x20 DUP3 ADD SWAP1 POP DUP2 DUP2 SUB PUSH0 DUP4 ADD MSTORE PUSH2 0xF88 DUP2 DUP5 PUSH2 0xF38 JUMP JUMPDEST SWAP1 POP SWAP3 SWAP2 POP POP JUMP JUMPDEST PUSH0 DUP1 REVERT JUMPDEST PUSH0 PUSH20 0xFFFFFFFFFFFFFFFFFFFFFFFFFFFFFFFFFFFFFFFF DUP3 AND SWAP1 POP SWAP2 SWAP1 POP JUMP JUMPDEST PUSH0 PUSH2 0xFBD DUP3 PUSH2 0xF94 JUMP JUMPDEST SWAP1 POP SWAP2 SWAP1 POP JUMP JUMPDEST PUSH2 0xFCD DUP2 PUSH2 0xFB3 JUMP JUMPDEST DUP2 EQ PUSH2 0xFD7 JUMPI PUSH0 DUP1 REVERT JUMPDEST POP JUMP JUMPDEST PUSH0 DUP2 CALLDATALOAD SWAP1 POP PUSH2 0xFE8 DUP2 PUSH2 0xFC4 JUMP JUMPDEST SWAP3 SWAP2 POP POP JUMP JUMPDEST PUSH0 DUP2 SWAP1 POP SWAP2 SWAP1 POP JUMP JUMPDEST PUSH2 0x1000 DUP2 PUSH2 0xFEE JUMP JUMPDEST DUP2 EQ PUSH2 0x100A JUMPI PUSH0 DUP1 REVERT JUMPDEST POP JUMP JUMPDEST PUSH0 DUP2 CALLDATALOAD SWAP1 POP PUSH2 0x101B DUP2 PUSH2 0xFF7 JUMP JUMPDEST SWAP3 SWAP2 POP POP JUMP JUMPDEST PUSH0 DUP1 PUSH1 0x40 DUP4 DUP6 SUB SLT ISZERO PUSH2 0x1037 JUMPI PUSH2 0x1036 PUSH2 0xF90 JUMP JUMPDEST JUMPDEST PUSH0 PUSH2 0x1044 DUP6 DUP3 DUP7 ADD PUSH2 0xFDA JUMP JUMPDEST SWAP3 POP POP PUSH1 0x20 PUSH2 0x1055 DUP6 DUP3 DUP7 ADD PUSH2 0x100D JUMP JUMPDEST SWAP2 POP POP SWAP3 POP SWAP3 SWAP1 POP JUMP JUMPDEST PUSH0 DUP2 ISZERO ISZERO SWAP1 POP SWAP2 SWAP1 POP JUMP JUMPDEST PUSH2 0x1073 DUP2 PUSH2 0x105F JUMP JUMPDEST DUP3 MSTORE POP POP JUMP JUMPDEST PUSH0 PUSH1 0x20 DUP3 ADD SWAP1 POP PUSH2 0x108C PUSH0 DUP4 ADD DUP5 PUSH2 0x106A JUMP JUMPDEST SWAP3 SWAP2 POP POP JUMP JUMPDEST PUSH2 0x109B DUP2 PUSH2 0xFEE JUMP JUMPDEST DUP3 MSTORE POP POP JUMP JUMPDEST PUSH0 PUSH1 0x20 DUP3 ADD SWAP1 POP PUSH2 0x10B4 PUSH0 DUP4 ADD DUP5 PUSH2 0x1092 JUMP JUMPDEST SWAP3 SWAP2 POP POP JUMP JUMPDEST PUSH0 DUP1 PUSH0 PUSH1 0x60 DUP5 DUP7 SUB SLT ISZERO PUSH2 0x10D1 JUMPI PUSH2 0x10D0 PUSH2 0xF90 JUMP JUMPDEST JUMPDEST PUSH0 PUSH2 0x10DE DUP7 DUP3 DUP8 ADD PUSH2 0xFDA JUMP JUMPDEST SWAP4 POP POP PUSH1 0x20 PUSH2 0x10EF DUP7 DUP3 DUP8 ADD PUSH2 0xFDA JUMP JUMPDEST SWAP3 POP POP PUSH1 0x40 PUSH2 0x1100 DUP7 DUP3 DUP8 ADD PUSH2 0x100D JUMP JUMPDEST SWAP2 POP POP SWAP3 POP SWAP3 POP SWAP3 JUMP JUMPDEST PUSH0 PUSH1 0xFF DUP3 AND SWAP1 POP SWAP2 SWAP1 POP JUMP JUMPDEST PUSH2 0x111F DUP2 PUSH2 0x110A JUMP JUMPDEST DUP3 MSTORE POP POP JUMP JUMPDEST PUSH0 PUSH1 0x20 DUP3 ADD SWAP1 POP PUSH2 0x1138 PUSH0 DUP4 ADD DUP5 PUSH2 0x1116 JUMP JUMPDEST SWAP3 SWAP2 POP POP JUMP JUMPDEST PUSH0 PUSH1 0x20 DUP3 DUP5 SUB SLT ISZERO PUSH2 0x1153 JUMPI PUSH2 0x1152 PUSH2 0xF90 JUMP JUMPDEST JUMPDEST PUSH0 PUSH2 0x1160 DUP5 DUP3 DUP6 ADD PUSH2 0xFDA JUMP JUMPDEST SWAP2 POP POP SWAP3 SWAP2 POP POP JUMP JUMPDEST PUSH0 DUP1 PUSH1 0x40 DUP4 DUP6 SUB SLT ISZERO PUSH2 0x117F JUMPI PUSH2 0x117E PUSH2 0xF90 JUMP JUMPDEST JUMPDEST PUSH0 PUSH2 0x118C DUP6 DUP3 DUP7 ADD PUSH2 0xFDA JUMP JUMPDEST SWAP3 POP POP PUSH1 0x20 PUSH2 0x119D DUP6 DUP3 DUP7 ADD PUSH2 0xFDA JUMP JUMPDEST SWAP2 POP POP SWAP3 POP SWAP3 SWAP1 POP JUMP JUMPDEST PUSH32 0x4E487B7100000000000000000000000000000000000000000000000000000000 PUSH0 MSTORE PUSH1 0x22 PUSH1 0x4 MSTORE PUSH1 0x24 PUSH0 REVERT JUMPDEST PUSH0 PUSH1 0x2 DUP3 DIV SWAP1 POP PUSH1 0x1 DUP3 AND DUP1 PUSH2 0x11EB JUMPI PUSH1 0x7F DUP3 AND SWAP2 POP JUMPDEST PUSH1 0x20 DUP3 LT DUP2 SUB PUSH2 0x11FE JUMPI PUSH2 0x11FD PUSH2 0x11A7 JUMP JUMPDEST JUMPDEST POP SWAP2 SWAP1 POP JUMP JUMPDEST PUSH32 0x536F6C6F207075656465206C6C616D617220656C206F776E6572000000000000 PUSH0 DUP3 ADD MSTORE POP JUMP JUMPDEST PUSH0 PUSH2 0x1238 PUSH1 0x1A DUP4 PUSH2 0xF0A JUMP JUMPDEST SWAP2 POP PUSH2 0x1243 DUP3 PUSH2 0x1204 JUMP JUMPDEST PUSH1 0x20 DUP3 ADD SWAP1 POP SWAP2 SWAP1 POP JUMP JUMPDEST PUSH0 PUSH1 0x20 DUP3 ADD SWAP1 POP DUP2 DUP2 SUB PUSH0 DUP4 ADD MSTORE PUSH2 0x1265 DUP2 PUSH2 0x122C JUMP JUMPDEST SWAP1 POP SWAP2 SWAP1 POP JUMP JUMPDEST PUSH32 0x4C6120646972656363696F6E2064657374696E6F206E6F2065732076616C6964 PUSH0 DUP3 ADD MSTORE PUSH32 0x6100000000000000000000000000000000000000000000000000000000000000 PUSH1 0x20 DUP3 ADD MSTORE POP JUMP JUMPDEST PUSH0 PUSH2 0x12C6 PUSH1 0x21 DUP4 PUSH2 0xF0A JUMP JUMPDEST SWAP2 POP PUSH2 0x12D1 DUP3 PUSH2 0x126C JUMP JUMPDEST PUSH1 0x40 DUP3 ADD SWAP1 POP SWAP2 SWAP1 POP JUMP JUMPDEST PUSH0 PUSH1 0x20 DUP3 ADD SWAP1 POP DUP2 DUP2 SUB PUSH0 DUP4 ADD MSTORE PUSH2 0x12F3 DUP2 PUSH2 0x12BA JUMP JUMPDEST SWAP1 POP SWAP2 SWAP1 POP JUMP JUMPDEST PUSH32 0x4E487B7100000000000000000000000000000000000000000000000000000000 PUSH0 MSTORE PUSH1 0x11 PUSH1 0x4 MSTORE PUSH1 0x24 PUSH0 REVERT JUMPDEST PUSH0 PUSH2 0x1331 DUP3 PUSH2 0xFEE JUMP JUMPDEST SWAP2 POP PUSH2 0x133C DUP4 PUSH2 0xFEE JUMP JUMPDEST SWAP3 POP DUP3 DUP3 ADD SWAP1 POP DUP1 DUP3 GT ISZERO PUSH2 0x1354 JUMPI PUSH2 0x1353 PUSH2 0x12FA JUMP JUMPDEST JUMPDEST SWAP3 SWAP2 POP POP JUMP JUMPDEST PUSH32 0x4E6F2073652070756564656E20656D69746972206D617320746F6B656E732100 PUSH0 DUP3 ADD MSTORE POP JUMP JUMPDEST PUSH0 PUSH2 0x138E PUSH1 0x1F DUP4 PUSH2 0xF0A JUMP JUMPDEST SWAP2 POP PUSH2 0x1399 DUP3 PUSH2 0x135A JUMP JUMPDEST PUSH1 0x20 DUP3 ADD SWAP1 POP SWAP2 SWAP1 POP JUMP JUMPDEST PUSH0 PUSH1 0x20 DUP3 ADD SWAP1 POP DUP2 DUP2 SUB PUSH0 DUP4 ADD MSTORE PUSH2 0x13BB DUP2 PUSH2 0x1382 JUMP JUMPDEST SWAP1 POP SWAP2 SWAP1 POP JUMP JUMPDEST PUSH32 0x4E6F20736520707565646520656C696D696E61722030206E6920756E206E756D PUSH0 DUP3 ADD MSTORE PUSH32 0x65726F206E6567617469766F20646520746F6B656E732E000000000000000000 PUSH1 0x20 DUP3 ADD MSTORE POP JUMP JUMPDEST PUSH0 PUSH2 0x141C PUSH1 0x37 DUP4 PUSH2 0xF0A JUMP JUMPDEST SWAP2 POP PUSH2 0x1427 DUP3 PUSH2 0x13C2 JUMP JUMPDEST PUSH1 0x40 DUP3 ADD SWAP1 POP SWAP2 SWAP1 POP JUMP JUMPDEST PUSH0 PUSH1 0x20 DUP3 ADD SWAP1 POP DUP2 DUP2 SUB PUSH0 DUP4 ADD MSTORE PUSH2 0x1449 DUP2 PUSH2 0x1410 JUMP JUMPDEST SWAP1 POP SWAP2 SWAP1 POP JUMP JUMPDEST PUSH2 0x1459 DUP2 PUSH2 0xFB3 JUMP JUMPDEST DUP3 MSTORE POP POP JUMP JUMPDEST PUSH0 PUSH1 0x60 DUP3 ADD SWAP1 POP PUSH2 0x1472 PUSH0 DUP4 ADD DUP7 PUSH2 0x1450 JUMP JUMPDEST PUSH2 0x147F PUSH1 0x20 DUP4 ADD DUP6 PUSH2 0x1092 JUMP JUMPDEST PUSH2 0x148C PUSH1 0x40 DUP4 ADD DUP5 PUSH2 0x1092 JUMP JUMPDEST SWAP5 SWAP4 POP POP POP POP JUMP JUMPDEST PUSH0 PUSH1 0x20 DUP3 ADD SWAP1 POP PUSH2 0x14A7 PUSH0 DUP4 ADD DUP5 PUSH2 0x1450 JUMP JUMPDEST SWAP3 SWAP2 POP POP JUMP INVALID LOG2 PUSH5 0x6970667358 0x22 SLT KECCAK256 0xC9 0xB6 EXP 0x21 0x1E PUSH5 0xA351668D31 0xDF GAS SWAP10 PUSH28 0xCAA3A836A96D0574B3E70216C896E93E5E64736F6C634300081A0033 "
				},
				"gasEstimates": {
					"creation": {
						"codeDepositCost": "1069400",
						"executionCost": "infinite",
						"totalCost": "infinite"
					},
					"external": {
						"allowance(address,address)": "infinite",
						"approve(address,uint256)": "infinite",
						"balanceOf(address)": "2918",
						"burn(address,uint256)": "infinite",
						"decimals()": "383",
						"maxTokens()": "infinite",
						"mint(address,uint256)": "infinite",
						"mintedTokens()": "2470",
						"name()": "infinite",
						"symbol()": "infinite",
						"tokenPrice()": "infinite",
						"totalSupply()": "2500",
						"transfer(address,uint256)": "infinite",
						"transferFrom(address,address,uint256)": "infinite"
					}
				},
				"methodIdentifiers": {
					"allowance(address,address)": "dd62ed3e",
					"approve(address,uint256)": "095ea7b3",
					"balanceOf(address)": "70a08231",
					"burn(address,uint256)": "9dc29fac",
					"decimals()": "313ce567",
					"maxTokens()": "e8315742",
					"mint(address,uint256)": "40c10f19",
					"mintedTokens()": "8d75fe05",
					"name()": "06fdde03",
					"symbol()": "95d89b41",
					"tokenPrice()": "7ff9b596",
					"totalSupply()": "18160ddd",
					"transfer(address,uint256)": "a9059cbb",
					"transferFrom(address,address,uint256)": "23b872dd"
				}
			},
			"storageLayout": {
				"storage": [
					{
						"astId": 572,
						"contract": "PRACTICA FINAL/archivo1.sol:VotingContract",
						"label": "_balances",
						"offset": 0,
						"slot": "0",
						"type": "t_mapping(t_address,t_uint256)"
					},
					{
						"astId": 578,
						"contract": "PRACTICA FINAL/archivo1.sol:VotingContract",
						"label": "_allowances",
						"offset": 0,
						"slot": "1",
						"type": "t_mapping(t_address,t_mapping(t_address,t_uint256))"
					},
					{
						"astId": 580,
						"contract": "PRACTICA FINAL/archivo1.sol:VotingContract",
						"label": "_totalSupply",
						"offset": 0,
						"slot": "2",
						"type": "t_uint256"
					},
					{
						"astId": 582,
						"contract": "PRACTICA FINAL/archivo1.sol:VotingContract",
						"label": "_name",
						"offset": 0,
						"slot": "3",
						"type": "t_string_storage"
					},
					{
						"astId": 584,
						"contract": "PRACTICA FINAL/archivo1.sol:VotingContract",
						"label": "_symbol",
						"offset": 0,
						"slot": "4",
						"type": "t_string_storage"
					},
					{
						"astId": 20,
						"contract": "PRACTICA FINAL/archivo1.sol:VotingContract",
						"label": "mintedTokens",
						"offset": 0,
						"slot": "5",
						"type": "t_uint256"
					},
					{
						"astId": 22,
						"contract": "PRACTICA FINAL/archivo1.sol:VotingContract",
						"label": "_owner",
						"offset": 0,
						"slot": "6",
						"type": "t_address"
					}
				],
				"types": {
					"t_address": {
						"encoding": "inplace",
						"label": "address",
						"numberOfBytes": "20"
					},
					"t_mapping(t_address,t_mapping(t_address,t_uint256))": {
						"encoding": "mapping",
						"key": "t_address",
						"label": "mapping(address => mapping(address => uint256))",
						"numberOfBytes": "32",
						"value": "t_mapping(t_address,t_uint256)"
					},
					"t_mapping(t_address,t_uint256)": {
						"encoding": "mapping",
						"key": "t_address",
						"label": "mapping(address => uint256)",
						"numberOfBytes": "32",
						"value": "t_uint256"
					},
					"t_string_storage": {
						"encoding": "bytes",
						"label": "string",
						"numberOfBytes": "32"
					},
					"t_uint256": {
						"encoding": "inplace",
						"label": "uint256",
						"numberOfBytes": "32"
					}
				}
			},
			"userdoc": {
				"kind": "user",
				"methods": {},
				"version": 1
			}
		}
	}
}