{
	"PRACTICA FINAL/ExecutableProposal.sol": {
		"ExecutableProposal": {
			"abi": [
				{
					"inputs": [
						{
							"internalType": "uint256",
							"name": "_proposalId",
							"type": "uint256"
						},
						{
							"internalType": "uint256",
							"name": "_numVotes",
							"type": "uint256"
						},
						{
							"internalType": "uint256",
							"name": "_numTokens",
							"type": "uint256"
						}
					],
					"name": "executeProposal",
					"outputs": [],
					"stateMutability": "payable",
					"type": "function"
				},
				{
					"inputs": [],
					"name": "numTokens",
					"outputs": [
						{
							"internalType": "uint256",
							"name": "",
							"type": "uint256"
						}
					],
					"stateMutability": "view",
					"type": "function"
				},
				{
					"inputs": [],
					"name": "numVotes",
					"outputs": [
						{
							"internalType": "uint256",
							"name": "",
							"type": "uint256"
						}
					],
					"stateMutability": "view",
					"type": "function"
				},
				{
					"inputs": [],
					"name": "proposalId",
					"outputs": [
						{
							"internalType": "uint256",
							"name": "",
							"type": "uint256"
						}
					],
					"stateMutability": "view",
					"type": "function"
				},
				{
					"inputs": [],
					"name": "receivedFunds",
					"outputs": [
						{
							"internalType": "uint256",
							"name": "",
							"type": "uint256"
						}
					],
					"stateMutability": "view",
					"type": "function"
				},
				{
					"stateMutability": "payable",
					"type": "receive"
				}
			],
			"devdoc": {
				"kind": "dev",
				"methods": {},
				"version": 1
			},
			"evm": {
				"assembly": "    /* \"PRACTICA FINAL/ExecutableProposal.sol\":207:689  contract ExecutableProposal is IExecutableProposal {... */\n  mstore(0x40, 0x80)\n  callvalue\n  dup1\n  iszero\n  tag_1\n  jumpi\n  0x00\n  dup1\n  revert\ntag_1:\n  pop\n  dataSize(sub_0)\n  dup1\n  dataOffset(sub_0)\n  0x00\n  codecopy\n  0x00\n  return\nstop\n\nsub_0: assembly {\n        /* \"PRACTICA FINAL/ExecutableProposal.sol\":207:689  contract ExecutableProposal is IExecutableProposal {... */\n      mstore(0x40, 0x80)\n      jumpi(tag_1, lt(calldatasize, 0x04))\n      shr(0xe0, calldataload(0x00))\n      dup1\n      0x2dfca445\n      eq\n      tag_3\n      jumpi\n      dup1\n      0x8e499bcf\n      eq\n      tag_4\n      jumpi\n      dup1\n      0x986cc311\n      eq\n      tag_5\n      jumpi\n      dup1\n      0xa3bef4d7\n      eq\n      tag_6\n      jumpi\n      dup1\n      0xab96cc4c\n      eq\n      tag_7\n      jumpi\n      jump(tag_2)\n    tag_1:\n      jumpi(tag_2, calldatasize)\n      stop\n    tag_2:\n      0x00\n      dup1\n      revert\n        /* \"PRACTICA FINAL/ExecutableProposal.sol\":265:290  uint256 public proposalId */\n    tag_3:\n      callvalue\n      dup1\n      iszero\n      tag_10\n      jumpi\n      0x00\n      dup1\n      revert\n    tag_10:\n      pop\n      tag_11\n      tag_12\n      jump\t// in\n    tag_11:\n      mload(0x40)\n      tag_13\n      swap2\n      swap1\n      tag_14\n      jump\t// in\n    tag_13:\n      mload(0x40)\n      dup1\n      swap2\n      sub\n      swap1\n      return\n        /* \"PRACTICA FINAL/ExecutableProposal.sol\":327:351  uint256 public numTokens */\n    tag_4:\n      callvalue\n      dup1\n      iszero\n      tag_15\n      jumpi\n      0x00\n      dup1\n      revert\n    tag_15:\n      pop\n      tag_16\n      tag_17\n      jump\t// in\n    tag_16:\n      mload(0x40)\n      tag_18\n      swap2\n      swap1\n      tag_14\n      jump\t// in\n    tag_18:\n      mload(0x40)\n      dup1\n      swap2\n      sub\n      swap1\n      return\n        /* \"PRACTICA FINAL/ExecutableProposal.sol\":395:649  function executeProposal(uint256 _proposalId, uint256 _numVotes, uint256 _numTokens) external payable override {... */\n    tag_5:\n      tag_19\n      0x04\n      dup1\n      calldatasize\n      sub\n      dup2\n      add\n      swap1\n      tag_20\n      swap2\n      swap1\n      tag_21\n      jump\t// in\n    tag_20:\n      tag_22\n      jump\t// in\n    tag_19:\n      stop\n        /* \"PRACTICA FINAL/ExecutableProposal.sol\":297:320  uint256 public numVotes */\n    tag_6:\n      callvalue\n      dup1\n      iszero\n      tag_23\n      jumpi\n      0x00\n      dup1\n      revert\n    tag_23:\n      pop\n      tag_24\n      tag_25\n      jump\t// in\n    tag_24:\n      mload(0x40)\n      tag_26\n      swap2\n      swap1\n      tag_14\n      jump\t// in\n    tag_26:\n      mload(0x40)\n      dup1\n      swap2\n      sub\n      swap1\n      return\n        /* \"PRACTICA FINAL/ExecutableProposal.sol\":358:386  uint256 public receivedFunds */\n    tag_7:\n      callvalue\n      dup1\n      iszero\n      tag_27\n      jumpi\n      0x00\n      dup1\n      revert\n    tag_27:\n      pop\n      tag_28\n      tag_29\n      jump\t// in\n    tag_28:\n      mload(0x40)\n      tag_30\n      swap2\n      swap1\n      tag_14\n      jump\t// in\n    tag_30:\n      mload(0x40)\n      dup1\n      swap2\n      sub\n      swap1\n      return\n        /* \"PRACTICA FINAL/ExecutableProposal.sol\":265:290  uint256 public proposalId */\n    tag_12:\n      sload(0x00)\n      dup2\n      jump\t// out\n        /* \"PRACTICA FINAL/ExecutableProposal.sol\":327:351  uint256 public numTokens */\n    tag_17:\n      sload(0x02)\n      dup2\n      jump\t// out\n        /* \"PRACTICA FINAL/ExecutableProposal.sol\":395:649  function executeProposal(uint256 _proposalId, uint256 _numVotes, uint256 _numTokens) external payable override {... */\n    tag_22:\n        /* \"PRACTICA FINAL/ExecutableProposal.sol\":530:541  _proposalId */\n      dup3\n        /* \"PRACTICA FINAL/ExecutableProposal.sol\":517:527  proposalId */\n      0x00\n        /* \"PRACTICA FINAL/ExecutableProposal.sol\":517:541  proposalId = _proposalId */\n      dup2\n      swap1\n      sstore\n      pop\n        /* \"PRACTICA FINAL/ExecutableProposal.sol\":563:572  _numVotes */\n      dup2\n        /* \"PRACTICA FINAL/ExecutableProposal.sol\":552:560  numVotes */\n      0x01\n        /* \"PRACTICA FINAL/ExecutableProposal.sol\":552:572  numVotes = _numVotes */\n      dup2\n      swap1\n      sstore\n      pop\n        /* \"PRACTICA FINAL/ExecutableProposal.sol\":595:605  _numTokens */\n      dup1\n        /* \"PRACTICA FINAL/ExecutableProposal.sol\":583:592  numTokens */\n      0x02\n        /* \"PRACTICA FINAL/ExecutableProposal.sol\":583:605  numTokens = _numTokens */\n      dup2\n      swap1\n      sstore\n      pop\n        /* \"PRACTICA FINAL/ExecutableProposal.sol\":632:641  msg.value */\n      callvalue\n        /* \"PRACTICA FINAL/ExecutableProposal.sol\":616:629  receivedFunds */\n      0x03\n        /* \"PRACTICA FINAL/ExecutableProposal.sol\":616:641  receivedFunds = msg.value */\n      dup2\n      swap1\n      sstore\n      pop\n        /* \"PRACTICA FINAL/ExecutableProposal.sol\":395:649  function executeProposal(uint256 _proposalId, uint256 _numVotes, uint256 _numTokens) external payable override {... */\n      pop\n      pop\n      pop\n      jump\t// out\n        /* \"PRACTICA FINAL/ExecutableProposal.sol\":297:320  uint256 public numVotes */\n    tag_25:\n      sload(0x01)\n      dup2\n      jump\t// out\n        /* \"PRACTICA FINAL/ExecutableProposal.sol\":358:386  uint256 public receivedFunds */\n    tag_29:\n      sload(0x03)\n      dup2\n      jump\t// out\n        /* \"#utility.yul\":7:84   */\n    tag_32:\n        /* \"#utility.yul\":44:51   */\n      0x00\n        /* \"#utility.yul\":73:78   */\n      dup2\n        /* \"#utility.yul\":62:78   */\n      swap1\n      pop\n        /* \"#utility.yul\":7:84   */\n      swap2\n      swap1\n      pop\n      jump\t// out\n        /* \"#utility.yul\":90:208   */\n    tag_33:\n        /* \"#utility.yul\":177:201   */\n      tag_42\n        /* \"#utility.yul\":195:200   */\n      dup2\n        /* \"#utility.yul\":177:201   */\n      tag_32\n      jump\t// in\n    tag_42:\n        /* \"#utility.yul\":172:175   */\n      dup3\n        /* \"#utility.yul\":165:202   */\n      mstore\n        /* \"#utility.yul\":90:208   */\n      pop\n      pop\n      jump\t// out\n        /* \"#utility.yul\":214:436   */\n    tag_14:\n        /* \"#utility.yul\":307:311   */\n      0x00\n        /* \"#utility.yul\":345:347   */\n      0x20\n        /* \"#utility.yul\":334:343   */\n      dup3\n        /* \"#utility.yul\":330:348   */\n      add\n        /* \"#utility.yul\":322:348   */\n      swap1\n      pop\n        /* \"#utility.yul\":358:429   */\n      tag_44\n        /* \"#utility.yul\":426:427   */\n      0x00\n        /* \"#utility.yul\":415:424   */\n      dup4\n        /* \"#utility.yul\":411:428   */\n      add\n        /* \"#utility.yul\":402:408   */\n      dup5\n        /* \"#utility.yul\":358:429   */\n      tag_33\n      jump\t// in\n    tag_44:\n        /* \"#utility.yul\":214:436   */\n      swap3\n      swap2\n      pop\n      pop\n      jump\t// out\n        /* \"#utility.yul\":523:640   */\n    tag_35:\n        /* \"#utility.yul\":632:633   */\n      0x00\n        /* \"#utility.yul\":629:630   */\n      dup1\n        /* \"#utility.yul\":622:634   */\n      revert\n        /* \"#utility.yul\":769:891   */\n    tag_37:\n        /* \"#utility.yul\":842:866   */\n      tag_49\n        /* \"#utility.yul\":860:865   */\n      dup2\n        /* \"#utility.yul\":842:866   */\n      tag_32\n      jump\t// in\n    tag_49:\n        /* \"#utility.yul\":835:840   */\n      dup2\n        /* \"#utility.yul\":832:867   */\n      eq\n        /* \"#utility.yul\":822:885   */\n      tag_50\n      jumpi\n        /* \"#utility.yul\":881:882   */\n      0x00\n        /* \"#utility.yul\":878:879   */\n      dup1\n        /* \"#utility.yul\":871:883   */\n      revert\n        /* \"#utility.yul\":822:885   */\n    tag_50:\n        /* \"#utility.yul\":769:891   */\n      pop\n      jump\t// out\n        /* \"#utility.yul\":897:1036   */\n    tag_38:\n        /* \"#utility.yul\":943:948   */\n      0x00\n        /* \"#utility.yul\":981:987   */\n      dup2\n        /* \"#utility.yul\":968:988   */\n      calldataload\n        /* \"#utility.yul\":959:988   */\n      swap1\n      pop\n        /* \"#utility.yul\":997:1030   */\n      tag_52\n        /* \"#utility.yul\":1024:1029   */\n      dup2\n        /* \"#utility.yul\":997:1030   */\n      tag_37\n      jump\t// in\n    tag_52:\n        /* \"#utility.yul\":897:1036   */\n      swap3\n      swap2\n      pop\n      pop\n      jump\t// out\n        /* \"#utility.yul\":1042:1661   */\n    tag_21:\n        /* \"#utility.yul\":1119:1125   */\n      0x00\n        /* \"#utility.yul\":1127:1133   */\n      dup1\n        /* \"#utility.yul\":1135:1141   */\n      0x00\n        /* \"#utility.yul\":1184:1186   */\n      0x60\n        /* \"#utility.yul\":1172:1181   */\n      dup5\n        /* \"#utility.yul\":1163:1170   */\n      dup7\n        /* \"#utility.yul\":1159:1182   */\n      sub\n        /* \"#utility.yul\":1155:1187   */\n      slt\n        /* \"#utility.yul\":1152:1271   */\n      iszero\n      tag_54\n      jumpi\n        /* \"#utility.yul\":1190:1269   */\n      tag_55\n      tag_35\n      jump\t// in\n    tag_55:\n        /* \"#utility.yul\":1152:1271   */\n    tag_54:\n        /* \"#utility.yul\":1310:1311   */\n      0x00\n        /* \"#utility.yul\":1335:1388   */\n      tag_56\n        /* \"#utility.yul\":1380:1387   */\n      dup7\n        /* \"#utility.yul\":1371:1377   */\n      dup3\n        /* \"#utility.yul\":1360:1369   */\n      dup8\n        /* \"#utility.yul\":1356:1378   */\n      add\n        /* \"#utility.yul\":1335:1388   */\n      tag_38\n      jump\t// in\n    tag_56:\n        /* \"#utility.yul\":1325:1388   */\n      swap4\n      pop\n        /* \"#utility.yul\":1281:1398   */\n      pop\n        /* \"#utility.yul\":1437:1439   */\n      0x20\n        /* \"#utility.yul\":1463:1516   */\n      tag_57\n        /* \"#utility.yul\":1508:1515   */\n      dup7\n        /* \"#utility.yul\":1499:1505   */\n      dup3\n        /* \"#utility.yul\":1488:1497   */\n      dup8\n        /* \"#utility.yul\":1484:1506   */\n      add\n        /* \"#utility.yul\":1463:1516   */\n      tag_38\n      jump\t// in\n    tag_57:\n        /* \"#utility.yul\":1453:1516   */\n      swap3\n      pop\n        /* \"#utility.yul\":1408:1526   */\n      pop\n        /* \"#utility.yul\":1565:1567   */\n      0x40\n        /* \"#utility.yul\":1591:1644   */\n      tag_58\n        /* \"#utility.yul\":1636:1643   */\n      dup7\n        /* \"#utility.yul\":1627:1633   */\n      dup3\n        /* \"#utility.yul\":1616:1625   */\n      dup8\n        /* \"#utility.yul\":1612:1634   */\n      add\n        /* \"#utility.yul\":1591:1644   */\n      tag_38\n      jump\t// in\n    tag_58:\n        /* \"#utility.yul\":1581:1644   */\n      swap2\n      pop\n        /* \"#utility.yul\":1536:1654   */\n      pop\n        /* \"#utility.yul\":1042:1661   */\n      swap3\n      pop\n      swap3\n      pop\n      swap3\n      jump\t// out\n\n    auxdata: 0xa264697066735822122047d0845ccfa1ba25d9de231ff284d909e6dac82848cbce4853d814e01e0dbd9464736f6c634300081a0033\n}\n",
				"bytecode": {
					"linkReferences": {},
					"object": "6080604052348015600e575f80fd5b506102388061001c5f395ff3fe60806040526004361061004d575f3560e01c80632dfca445146100585780638e499bcf14610082578063986cc311146100ac578063a3bef4d7146100c8578063ab96cc4c146100f257610054565b3661005457005b5f80fd5b348015610063575f80fd5b5061006c61011c565b604051610079919061016b565b60405180910390f35b34801561008d575f80fd5b50610096610121565b6040516100a3919061016b565b60405180910390f35b6100c660048036038101906100c191906101b2565b610127565b005b3480156100d3575f80fd5b506100dc610147565b6040516100e9919061016b565b60405180910390f35b3480156100fd575f80fd5b5061010661014d565b604051610113919061016b565b60405180910390f35b5f5481565b60025481565b825f81905550816001819055508060028190555034600381905550505050565b60015481565b60035481565b5f819050919050565b61016581610153565b82525050565b5f60208201905061017e5f83018461015c565b92915050565b5f80fd5b61019181610153565b811461019b575f80fd5b50565b5f813590506101ac81610188565b92915050565b5f805f606084860312156101c9576101c8610184565b5b5f6101d68682870161019e565b93505060206101e78682870161019e565b92505060406101f88682870161019e565b915050925092509256fea264697066735822122047d0845ccfa1ba25d9de231ff284d909e6dac82848cbce4853d814e01e0dbd9464736f6c634300081a0033",
					"opcodes": "PUSH1 0x80 PUSH1 0x40 MSTORE CALLVALUE DUP1 ISZERO PUSH1 0xE JUMPI PUSH0 DUP1 REVERT JUMPDEST POP PUSH2 0x238 DUP1 PUSH2 0x1C PUSH0 CODECOPY PUSH0 RETURN INVALID PUSH1 0x80 PUSH1 0x40 MSTORE PUSH1 0x4 CALLDATASIZE LT PUSH2 0x4D JUMPI PUSH0 CALLDATALOAD PUSH1 0xE0 SHR DUP1 PUSH4 0x2DFCA445 EQ PUSH2 0x58 JUMPI DUP1 PUSH4 0x8E499BCF EQ PUSH2 0x82 JUMPI DUP1 PUSH4 0x986CC311 EQ PUSH2 0xAC JUMPI DUP1 PUSH4 0xA3BEF4D7 EQ PUSH2 0xC8 JUMPI DUP1 PUSH4 0xAB96CC4C EQ PUSH2 0xF2 JUMPI PUSH2 0x54 JUMP JUMPDEST CALLDATASIZE PUSH2 0x54 JUMPI STOP JUMPDEST PUSH0 DUP1 REVERT JUMPDEST CALLVALUE DUP1 ISZERO PUSH2 0x63 JUMPI PUSH0 DUP1 REVERT JUMPDEST POP PUSH2 0x6C PUSH2 0x11C JUMP JUMPDEST PUSH1 0x40 MLOAD PUSH2 0x79 SWAP2 SWAP1 PUSH2 0x16B JUMP JUMPDEST PUSH1 0x40 MLOAD DUP1 SWAP2 SUB SWAP1 RETURN JUMPDEST CALLVALUE DUP1 ISZERO PUSH2 0x8D JUMPI PUSH0 DUP1 REVERT JUMPDEST POP PUSH2 0x96 PUSH2 0x121 JUMP JUMPDEST PUSH1 0x40 MLOAD PUSH2 0xA3 SWAP2 SWAP1 PUSH2 0x16B JUMP JUMPDEST PUSH1 0x40 MLOAD DUP1 SWAP2 SUB SWAP1 RETURN JUMPDEST PUSH2 0xC6 PUSH1 0x4 DUP1 CALLDATASIZE SUB DUP2 ADD SWAP1 PUSH2 0xC1 SWAP2 SWAP1 PUSH2 0x1B2 JUMP JUMPDEST PUSH2 0x127 JUMP JUMPDEST STOP JUMPDEST CALLVALUE DUP1 ISZERO PUSH2 0xD3 JUMPI PUSH0 DUP1 REVERT JUMPDEST POP PUSH2 0xDC PUSH2 0x147 JUMP JUMPDEST PUSH1 0x40 MLOAD PUSH2 0xE9 SWAP2 SWAP1 PUSH2 0x16B JUMP JUMPDEST PUSH1 0x40 MLOAD DUP1 SWAP2 SUB SWAP1 RETURN JUMPDEST CALLVALUE DUP1 ISZERO PUSH2 0xFD JUMPI PUSH0 DUP1 REVERT JUMPDEST POP PUSH2 0x106 PUSH2 0x14D JUMP JUMPDEST PUSH1 0x40 MLOAD PUSH2 0x113 SWAP2 SWAP1 PUSH2 0x16B JUMP JUMPDEST PUSH1 0x40 MLOAD DUP1 SWAP2 SUB SWAP1 RETURN JUMPDEST PUSH0 SLOAD DUP2 JUMP JUMPDEST PUSH1 0x2 SLOAD DUP2 JUMP JUMPDEST DUP3 PUSH0 DUP2 SWAP1 SSTORE POP DUP2 PUSH1 0x1 DUP2 SWAP1 SSTORE POP DUP1 PUSH1 0x2 DUP2 SWAP1 SSTORE POP CALLVALUE PUSH1 0x3 DUP2 SWAP1 SSTORE POP POP POP POP JUMP JUMPDEST PUSH1 0x1 SLOAD DUP2 JUMP JUMPDEST PUSH1 0x3 SLOAD DUP2 JUMP JUMPDEST PUSH0 DUP2 SWAP1 POP SWAP2 SWAP1 POP JUMP JUMPDEST PUSH2 0x165 DUP2 PUSH2 0x153 JUMP JUMPDEST DUP3 MSTORE POP POP JUMP JUMPDEST PUSH0 PUSH1 0x20 DUP3 ADD SWAP1 POP PUSH2 0x17E PUSH0 DUP4 ADD DUP5 PUSH2 0x15C JUMP JUMPDEST SWAP3 SWAP2 POP POP JUMP JUMPDEST PUSH0 DUP1 REVERT JUMPDEST PUSH2 0x191 DUP2 PUSH2 0x153 JUMP JUMPDEST DUP2 EQ PUSH2 0x19B JUMPI PUSH0 DUP1 REVERT JUMPDEST POP JUMP JUMPDEST PUSH0 DUP2 CALLDATALOAD SWAP1 POP PUSH2 0x1AC DUP2 PUSH2 0x188 JUMP JUMPDEST SWAP3 SWAP2 POP POP JUMP JUMPDEST PUSH0 DUP1 PUSH0 PUSH1 0x60 DUP5 DUP7 SUB SLT ISZERO PUSH2 0x1C9 JUMPI PUSH2 0x1C8 PUSH2 0x184 JUMP JUMPDEST JUMPDEST PUSH0 PUSH2 0x1D6 DUP7 DUP3 DUP8 ADD PUSH2 0x19E JUMP JUMPDEST SWAP4 POP POP PUSH1 0x20 PUSH2 0x1E7 DUP7 DUP3 DUP8 ADD PUSH2 0x19E JUMP JUMPDEST SWAP3 POP POP PUSH1 0x40 PUSH2 0x1F8 DUP7 DUP3 DUP8 ADD PUSH2 0x19E JUMP JUMPDEST SWAP2 POP POP SWAP3 POP SWAP3 POP SWAP3 JUMP INVALID LOG2 PUSH5 0x6970667358 0x22 SLT KECCAK256 SELFBALANCE 0xD0 DUP5 TLOAD 0xCF LOG1 0xBA 0x25 0xD9 0xDE 0x23 0x1F CALLCODE DUP5 0xD9 MULMOD 0xE6 0xDA 0xC8 0x28 BASEFEE 0xCB 0xCE BASEFEE MSTORE8 0xD8 EQ 0xE0 0x1E 0xD 0xBD SWAP5 PUSH5 0x736F6C6343 STOP ADDMOD BYTE STOP CALLER "
				},
				"gasEstimates": {
					"creation": {
						"codeDepositCost": "113600",
						"executionCost": "157",
						"totalCost": "113757"
					},
					"external": {
						"executeProposal(uint256,uint256,uint256)": "infinite",
						"numTokens()": "2425",
						"numVotes()": "2469",
						"proposalId()": "2402",
						"receivedFunds()": "2491"
					}
				},
				"methodIdentifiers": {
					"executeProposal(uint256,uint256,uint256)": "986cc311",
					"numTokens()": "8e499bcf",
					"numVotes()": "a3bef4d7",
					"proposalId()": "2dfca445",
					"receivedFunds()": "ab96cc4c"
				}
			},
			"storageLayout": {
				"storage": [
					{
						"astId": 15,
						"contract": "PRACTICA FINAL/ExecutableProposal.sol:ExecutableProposal",
						"label": "proposalId",
						"offset": 0,
						"slot": "0",
						"type": "t_uint256"
					},
					{
						"astId": 17,
						"contract": "PRACTICA FINAL/ExecutableProposal.sol:ExecutableProposal",
						"label": "numVotes",
						"offset": 0,
						"slot": "1",
						"type": "t_uint256"
					},
					{
						"astId": 19,
						"contract": "PRACTICA FINAL/ExecutableProposal.sol:ExecutableProposal",
						"label": "numTokens",
						"offset": 0,
						"slot": "2",
						"type": "t_uint256"
					},
					{
						"astId": 21,
						"contract": "PRACTICA FINAL/ExecutableProposal.sol:ExecutableProposal",
						"label": "receivedFunds",
						"offset": 0,
						"slot": "3",
						"type": "t_uint256"
					}
				],
				"types": {
					"t_uint256": {
						"encoding": "inplace",
						"label": "uint256",
						"numberOfBytes": "32"
					}
				}
			},
			"userdoc": {
				"kind": "user",
				"methods": {},
				"version": 1
			}
		}
	}
}