{
	"PRACTICA FINAL/archivo1.sol": {
		"QuadraticVoting": {
			"abi": [
				{
					"inputs": [],
					"stateMutability": "nonpayable",
					"type": "constructor"
				},
				{
					"inputs": [],
					"name": "addParticipant",
					"outputs": [],
					"stateMutability": "payable",
					"type": "function"
				},
				{
					"inputs": [
						{
							"internalType": "string",
							"name": "title",
							"type": "string"
						},
						{
							"internalType": "string",
							"name": "description",
							"type": "string"
						},
						{
							"internalType": "uint256",
							"name": "budget",
							"type": "uint256"
						},
						{
							"internalType": "address",
							"name": "contr",
							"type": "address"
						}
					],
					"name": "addProposal",
					"outputs": [
						{
							"internalType": "uint256",
							"name": "",
							"type": "uint256"
						}
					],
					"stateMutability": "nonpayable",
					"type": "function"
				},
				{
					"inputs": [],
					"name": "approve",
					"outputs": [],
					"stateMutability": "view",
					"type": "function"
				},
				{
					"inputs": [],
					"name": "buyTokens",
					"outputs": [],
					"stateMutability": "view",
					"type": "function"
				},
				{
					"inputs": [
						{
							"internalType": "uint256",
							"name": "idProposal",
							"type": "uint256"
						}
					],
					"name": "cancelProposal",
					"outputs": [],
					"stateMutability": "nonpayable",
					"type": "function"
				},
				{
					"inputs": [],
					"name": "closeVoting",
					"outputs": [],
					"stateMutability": "nonpayable",
					"type": "function"
				},
				{
					"inputs": [],
					"name": "getApprovedProposals",
					"outputs": [
						{
							"internalType": "uint256[]",
							"name": "approvedIdentifiers",
							"type": "uint256[]"
						}
					],
					"stateMutability": "view",
					"type": "function"
				},
				{
					"inputs": [],
					"name": "getERC20",
					"outputs": [
						{
							"internalType": "address",
							"name": "",
							"type": "address"
						}
					],
					"stateMutability": "nonpayable",
					"type": "function"
				},
				{
					"inputs": [],
					"name": "getPendingProposals",
					"outputs": [
						{
							"internalType": "uint256[]",
							"name": "pendingIdentifiers",
							"type": "uint256[]"
						}
					],
					"stateMutability": "view",
					"type": "function"
				},
				{
					"inputs": [
						{
							"internalType": "uint256",
							"name": "idProposal",
							"type": "uint256"
						}
					],
					"name": "getProposalInfo",
					"outputs": [
						{
							"components": [
								{
									"internalType": "string",
									"name": "_title",
									"type": "string"
								},
								{
									"internalType": "string",
									"name": "_description",
									"type": "string"
								},
								{
									"internalType": "uint256",
									"name": "_participants",
									"type": "uint256"
								},
								{
									"internalType": "uint256",
									"name": "_budget",
									"type": "uint256"
								},
								{
									"internalType": "uint256",
									"name": "_votes",
									"type": "uint256"
								},
								{
									"internalType": "uint256",
									"name": "_umbral",
									"type": "uint256"
								},
								{
									"internalType": "address",
									"name": "_contractProposal",
									"type": "address"
								}
							],
							"internalType": "struct QuadraticVoting.Proposal",
							"name": "p",
							"type": "tuple"
						}
					],
					"stateMutability": "view",
					"type": "function"
				},
				{
					"inputs": [],
					"name": "openVoting",
					"outputs": [],
					"stateMutability": "nonpayable",
					"type": "function"
				},
				{
					"inputs": [
						{
							"internalType": "uint256",
							"name": "",
							"type": "uint256"
						}
					],
					"name": "proposals",
					"outputs": [
						{
							"internalType": "string",
							"name": "_title",
							"type": "string"
						},
						{
							"internalType": "string",
							"name": "_description",
							"type": "string"
						},
						{
							"internalType": "uint256",
							"name": "_participants",
							"type": "uint256"
						},
						{
							"internalType": "uint256",
							"name": "_budget",
							"type": "uint256"
						},
						{
							"internalType": "uint256",
							"name": "_votes",
							"type": "uint256"
						},
						{
							"internalType": "uint256",
							"name": "_umbral",
							"type": "uint256"
						},
						{
							"internalType": "address",
							"name": "_contractProposal",
							"type": "address"
						}
					],
					"stateMutability": "view",
					"type": "function"
				},
				{
					"inputs": [],
					"name": "removeParticipant",
					"outputs": [],
					"stateMutability": "nonpayable",
					"type": "function"
				},
				{
					"inputs": [],
					"name": "sellTokens",
					"outputs": [],
					"stateMutability": "view",
					"type": "function"
				},
				{
					"inputs": [
						{
							"internalType": "uint256",
							"name": "idProposal",
							"type": "uint256"
						},
						{
							"internalType": "uint256",
							"name": "voteAmount",
							"type": "uint256"
						}
					],
					"name": "stake",
					"outputs": [],
					"stateMutability": "nonpayable",
					"type": "function"
				},
				{
					"inputs": [
						{
							"internalType": "uint256",
							"name": "voteAmount",
							"type": "uint256"
						},
						{
							"internalType": "uint256",
							"name": "idProposal",
							"type": "uint256"
						}
					],
					"name": "withdrawFromProposal",
					"outputs": [],
					"stateMutability": "nonpayable",
					"type": "function"
				}
			],
			"devdoc": {
				"kind": "dev",
				"methods": {},
				"version": 1
			},
			"evm": {
				"assembly": "    /* \"PRACTICA FINAL/archivo1.sol\":408:5419  contract QuadraticVoting{ //Contrato para la votación cuadrática.... */\n  mstore(0x40, 0x80)\n    /* \"PRACTICA FINAL/archivo1.sol\":1623:1751  constructor() {... */\n  callvalue\n  dup1\n  iszero\n  tag_1\n  jumpi\n  0x00\n  dup1\n  revert\ntag_1:\n  pop\n    /* \"PRACTICA FINAL/archivo1.sol\":1657:1667  msg.sender */\n  caller\n    /* \"PRACTICA FINAL/archivo1.sol\":1648:1654  _owner */\n  0x02\n  0x00\n    /* \"PRACTICA FINAL/archivo1.sol\":1648:1667  _owner = msg.sender */\n  0x0100\n  exp\n  dup2\n  sload\n  dup2\n  0xffffffffffffffffffffffffffffffffffffffff\n  mul\n  not\n  and\n  swap1\n  dup4\n  0xffffffffffffffffffffffffffffffffffffffff\n  and\n  mul\n  or\n  swap1\n  sstore\n  pop\n    /* \"PRACTICA FINAL/archivo1.sol\":1691:1696  false */\n  0x00\n    /* \"PRACTICA FINAL/archivo1.sol\":1679:1688  _isOpened */\n  0x05\n  0x00\n    /* \"PRACTICA FINAL/archivo1.sol\":1679:1696  _isOpened = false */\n  0x0100\n  exp\n  dup2\n  sload\n  dup2\n  0xff\n  mul\n  not\n  and\n  swap1\n  dup4\n  iszero\n  iszero\n  mul\n  or\n  swap1\n  sstore\n  pop\n    /* \"PRACTICA FINAL/archivo1.sol\":1718:1719  0 */\n  0x00\n    /* \"PRACTICA FINAL/archivo1.sol\":1707:1717  proposalId */\n  0x04\n    /* \"PRACTICA FINAL/archivo1.sol\":1707:1719  proposalId=0 */\n  dup2\n  swap1\n  sstore\n  pop\n    /* \"PRACTICA FINAL/archivo1.sol\":408:5419  contract QuadraticVoting{ //Contrato para la votación cuadrática.... */\n  dataSize(sub_0)\n  dup1\n  dataOffset(sub_0)\n  0x00\n  codecopy\n  0x00\n  return\nstop\n\nsub_0: assembly {\n        /* \"PRACTICA FINAL/archivo1.sol\":408:5419  contract QuadraticVoting{ //Contrato para la votación cuadrática.... */\n      mstore(0x40, 0x80)\n      jumpi(tag_1, lt(calldatasize, 0x04))\n      shr(0xe0, calldataload(0x00))\n      dup1\n      0x9ab3f7a6\n      gt\n      tag_18\n      jumpi\n      dup1\n      0xc631b292\n      gt\n      tag_19\n      jumpi\n      dup1\n      0xc631b292\n      eq\n      tag_14\n      jumpi\n      dup1\n      0xd0febe4c\n      eq\n      tag_15\n      jumpi\n      dup1\n      0xe0a8f6f5\n      eq\n      tag_16\n      jumpi\n      dup1\n      0xfffefd91\n      eq\n      tag_17\n      jumpi\n      jump(tag_1)\n    tag_19:\n      dup1\n      0x9ab3f7a6\n      eq\n      tag_10\n      jumpi\n      dup1\n      0xa80db6fc\n      eq\n      tag_11\n      jumpi\n      dup1\n      0xaffc0670\n      eq\n      tag_12\n      jumpi\n      dup1\n      0xbc903cb8\n      eq\n      tag_13\n      jumpi\n      jump(tag_1)\n    tag_18:\n      dup1\n      0x4ece90a8\n      gt\n      tag_20\n      jumpi\n      dup1\n      0x4ece90a8\n      eq\n      tag_6\n      jumpi\n      dup1\n      0x649c649c\n      eq\n      tag_7\n      jumpi\n      dup1\n      0x7b0472f0\n      eq\n      tag_8\n      jumpi\n      dup1\n      0x9904e174\n      eq\n      tag_9\n      jumpi\n      jump(tag_1)\n    tag_20:\n      dup1\n      0x013cf08b\n      eq\n      tag_2\n      jumpi\n      dup1\n      0x12424e3f\n      eq\n      tag_3\n      jumpi\n      dup1\n      0x3ac0feac\n      eq\n      tag_4\n      jumpi\n      dup1\n      0x3d571e97\n      eq\n      tag_5\n      jumpi\n    tag_1:\n      0x00\n      dup1\n      revert\n        /* \"PRACTICA FINAL/archivo1.sol\":1053:1096  mapping (uint => Proposal) public proposals */\n    tag_2:\n      callvalue\n      dup1\n      iszero\n      tag_21\n      jumpi\n      0x00\n      dup1\n      revert\n    tag_21:\n      pop\n      tag_22\n      0x04\n      dup1\n      calldatasize\n      sub\n      dup2\n      add\n      swap1\n      tag_23\n      swap2\n      swap1\n      tag_24\n      jump\t// in\n    tag_23:\n      tag_25\n      jump\t// in\n    tag_22:\n      mload(0x40)\n      tag_26\n      swap8\n      swap7\n      swap6\n      swap5\n      swap4\n      swap3\n      swap2\n      swap1\n      tag_27\n      jump\t// in\n    tag_26:\n      mload(0x40)\n      dup1\n      swap2\n      sub\n      swap1\n      return\n        /* \"PRACTICA FINAL/archivo1.sol\":4962:5006  function approve () external view {... */\n    tag_3:\n      callvalue\n      dup1\n      iszero\n      tag_28\n      jumpi\n      0x00\n      dup1\n      revert\n    tag_28:\n      pop\n      tag_29\n      tag_30\n      jump\t// in\n    tag_29:\n      stop\n        /* \"PRACTICA FINAL/archivo1.sol\":4192:4313  function getApprovedProposals() external view onlyAfterOpen returns (uint[] memory approvedIdentifiers){... */\n    tag_4:\n      callvalue\n      dup1\n      iszero\n      tag_31\n      jumpi\n      0x00\n      dup1\n      revert\n    tag_31:\n      pop\n      tag_32\n      tag_33\n      jump\t// in\n    tag_32:\n      mload(0x40)\n      tag_34\n      swap2\n      swap1\n      tag_35\n      jump\t// in\n    tag_34:\n      mload(0x40)\n      dup1\n      swap2\n      sub\n      swap1\n      return\n        /* \"PRACTICA FINAL/archivo1.sol\":2503:2633  function removeParticipant() public {... */\n    tag_5:\n      callvalue\n      dup1\n      iszero\n      tag_36\n      jumpi\n      0x00\n      dup1\n      revert\n    tag_36:\n      pop\n      tag_37\n      tag_38\n      jump\t// in\n    tag_37:\n      stop\n        /* \"PRACTICA FINAL/archivo1.sol\":3766:3825  function getERC20() external returns (address) {... */\n    tag_6:\n      callvalue\n      dup1\n      iszero\n      tag_39\n      jumpi\n      0x00\n      dup1\n      revert\n    tag_39:\n      pop\n      tag_40\n      tag_41\n      jump\t// in\n    tag_40:\n      mload(0x40)\n      tag_42\n      swap2\n      swap1\n      tag_43\n      jump\t// in\n    tag_42:\n      mload(0x40)\n      dup1\n      swap2\n      sub\n      swap1\n      return\n        /* \"PRACTICA FINAL/archivo1.sol\":5014:5194  function withdrawFromProposal (uint voteAmount, uint idProposal) public {... */\n    tag_7:\n      callvalue\n      dup1\n      iszero\n      tag_44\n      jumpi\n      0x00\n      dup1\n      revert\n    tag_44:\n      pop\n      tag_45\n      0x04\n      dup1\n      calldatasize\n      sub\n      dup2\n      add\n      swap1\n      tag_46\n      swap2\n      swap1\n      tag_47\n      jump\t// in\n    tag_46:\n      tag_48\n      jump\t// in\n    tag_45:\n      stop\n        /* \"PRACTICA FINAL/archivo1.sol\":4628:4725  function stake (uint idProposal, uint voteAmount) external onlyAfterOpen {... */\n    tag_8:\n      callvalue\n      dup1\n      iszero\n      tag_49\n      jumpi\n      0x00\n      dup1\n      revert\n    tag_49:\n      pop\n      tag_50\n      0x04\n      dup1\n      calldatasize\n      sub\n      dup2\n      add\n      swap1\n      tag_51\n      swap2\n      swap1\n      tag_47\n      jump\t// in\n    tag_51:\n      tag_52\n      jump\t// in\n    tag_50:\n      stop\n        /* \"PRACTICA FINAL/archivo1.sol\":3419:3758  function sellTokens () view public {... */\n    tag_9:\n      callvalue\n      dup1\n      iszero\n      tag_53\n      jumpi\n      0x00\n      dup1\n      revert\n    tag_53:\n      pop\n      tag_54\n      tag_55\n      jump\t// in\n    tag_54:\n      stop\n        /* \"PRACTICA FINAL/archivo1.sol\":2641:2995  function addProposal (string calldata title, string calldata description, uint  budget, address contr) public onlyAfterOpen  returns (uint) {... */\n    tag_10:\n      callvalue\n      dup1\n      iszero\n      tag_56\n      jumpi\n      0x00\n      dup1\n      revert\n    tag_56:\n      pop\n      tag_57\n      0x04\n      dup1\n      calldatasize\n      sub\n      dup2\n      add\n      swap1\n      tag_58\n      swap2\n      swap1\n      tag_59\n      jump\t// in\n    tag_58:\n      tag_60\n      jump\t// in\n    tag_57:\n      mload(0x40)\n      tag_61\n      swap2\n      swap1\n      tag_62\n      jump\t// in\n    tag_61:\n      mload(0x40)\n      dup1\n      swap2\n      sub\n      swap1\n      return\n        /* \"PRACTICA FINAL/archivo1.sol\":3960:4075  function getPendingProposals() external view onlyAfterOpen returns (uint[] memory pendingIdentifiers){... */\n    tag_11:\n      callvalue\n      dup1\n      iszero\n      tag_63\n      jumpi\n      0x00\n      dup1\n      revert\n    tag_63:\n      pop\n      tag_64\n      tag_65\n      jump\t// in\n    tag_64:\n      mload(0x40)\n      tag_66\n      swap2\n      swap1\n      tag_35\n      jump\t// in\n    tag_66:\n      mload(0x40)\n      dup1\n      swap2\n      sub\n      swap1\n      return\n        /* \"PRACTICA FINAL/archivo1.sol\":1997:2124  function openVoting () external onlyOwner {... */\n    tag_12:\n      callvalue\n      dup1\n      iszero\n      tag_67\n      jumpi\n      0x00\n      dup1\n      revert\n    tag_67:\n      pop\n      tag_68\n      tag_69\n      jump\t// in\n    tag_68:\n      stop\n        /* \"PRACTICA FINAL/archivo1.sol\":4323:4527  function getProposalInfo (uint idProposal) external view onlyAfterOpen returns (Proposal memory p){... */\n    tag_13:\n      callvalue\n      dup1\n      iszero\n      tag_70\n      jumpi\n      0x00\n      dup1\n      revert\n    tag_70:\n      pop\n      tag_71\n      0x04\n      dup1\n      calldatasize\n      sub\n      dup2\n      add\n      swap1\n      tag_72\n      swap2\n      swap1\n      tag_24\n      jump\t// in\n    tag_72:\n      tag_73\n      jump\t// in\n    tag_71:\n      mload(0x40)\n      tag_74\n      swap2\n      swap1\n      tag_75\n      jump\t// in\n    tag_74:\n      mload(0x40)\n      dup1\n      swap2\n      sub\n      swap1\n      return\n        /* \"PRACTICA FINAL/archivo1.sol\":5330:5410  function closeVoting () external onlyOwner {... */\n    tag_14:\n      callvalue\n      dup1\n      iszero\n      tag_76\n      jumpi\n      0x00\n      dup1\n      revert\n    tag_76:\n      pop\n      tag_77\n      tag_78\n      jump\t// in\n    tag_77:\n      stop\n        /* \"PRACTICA FINAL/archivo1.sol\":3148:3411  function buyTokens() view public{... */\n    tag_15:\n      callvalue\n      dup1\n      iszero\n      tag_79\n      jumpi\n      0x00\n      dup1\n      revert\n    tag_79:\n      pop\n      tag_80\n      tag_81\n      jump\t// in\n    tag_80:\n      stop\n        /* \"PRACTICA FINAL/archivo1.sol\":3003:3076  function cancelProposal (uint idProposal) public onlyAfterOpen {... */\n    tag_16:\n      callvalue\n      dup1\n      iszero\n      tag_82\n      jumpi\n      0x00\n      dup1\n      revert\n    tag_82:\n      pop\n      tag_83\n      0x04\n      dup1\n      calldatasize\n      sub\n      dup2\n      add\n      swap1\n      tag_84\n      swap2\n      swap1\n      tag_24\n      jump\t// in\n    tag_84:\n      tag_85\n      jump\t// in\n    tag_83:\n      stop\n        /* \"PRACTICA FINAL/archivo1.sol\":2132:2495  function addParticipant () public payable{... */\n    tag_17:\n      tag_86\n      tag_87\n      jump\t// in\n    tag_86:\n      stop\n        /* \"PRACTICA FINAL/archivo1.sol\":1053:1096  mapping (uint => Proposal) public proposals */\n    tag_25:\n      mstore(0x20, 0x06)\n      dup1\n      0x00\n      mstore\n      keccak256(0x00, 0x40)\n      0x00\n      swap2\n      pop\n      swap1\n      pop\n      dup1\n      0x00\n      add\n      dup1\n      sload\n      tag_88\n      swap1\n      tag_89\n      jump\t// in\n    tag_88:\n      dup1\n      0x1f\n      add\n      0x20\n      dup1\n      swap2\n      div\n      mul\n      0x20\n      add\n      mload(0x40)\n      swap1\n      dup2\n      add\n      0x40\n      mstore\n      dup1\n      swap3\n      swap2\n      swap1\n      dup2\n      dup2\n      mstore\n      0x20\n      add\n      dup3\n      dup1\n      sload\n      tag_90\n      swap1\n      tag_89\n      jump\t// in\n    tag_90:\n      dup1\n      iszero\n      tag_91\n      jumpi\n      dup1\n      0x1f\n      lt\n      tag_92\n      jumpi\n      0x0100\n      dup1\n      dup4\n      sload\n      div\n      mul\n      dup4\n      mstore\n      swap2\n      0x20\n      add\n      swap2\n      jump(tag_91)\n    tag_92:\n      dup3\n      add\n      swap2\n      swap1\n      0x00\n      mstore\n      keccak256(0x00, 0x20)\n      swap1\n    tag_93:\n      dup2\n      sload\n      dup2\n      mstore\n      swap1\n      0x01\n      add\n      swap1\n      0x20\n      add\n      dup1\n      dup4\n      gt\n      tag_93\n      jumpi\n      dup3\n      swap1\n      sub\n      0x1f\n      and\n      dup3\n      add\n      swap2\n    tag_91:\n      pop\n      pop\n      pop\n      pop\n      pop\n      swap1\n      dup1\n      0x01\n      add\n      dup1\n      sload\n      tag_94\n      swap1\n      tag_89\n      jump\t// in\n    tag_94:\n      dup1\n      0x1f\n      add\n      0x20\n      dup1\n      swap2\n      div\n      mul\n      0x20\n      add\n      mload(0x40)\n      swap1\n      dup2\n      add\n      0x40\n      mstore\n      dup1\n      swap3\n      swap2\n      swap1\n      dup2\n      dup2\n      mstore\n      0x20\n      add\n      dup3\n      dup1\n      sload\n      tag_95\n      swap1\n      tag_89\n      jump\t// in\n    tag_95:\n      dup1\n      iszero\n      tag_96\n      jumpi\n      dup1\n      0x1f\n      lt\n      tag_97\n      jumpi\n      0x0100\n      dup1\n      dup4\n      sload\n      div\n      mul\n      dup4\n      mstore\n      swap2\n      0x20\n      add\n      swap2\n      jump(tag_96)\n    tag_97:\n      dup3\n      add\n      swap2\n      swap1\n      0x00\n      mstore\n      keccak256(0x00, 0x20)\n      swap1\n    tag_98:\n      dup2\n      sload\n      dup2\n      mstore\n      swap1\n      0x01\n      add\n      swap1\n      0x20\n      add\n      dup1\n      dup4\n      gt\n      tag_98\n      jumpi\n      dup3\n      swap1\n      sub\n      0x1f\n      and\n      dup3\n      add\n      swap2\n    tag_96:\n      pop\n      pop\n      pop\n      pop\n      pop\n      swap1\n      dup1\n      0x02\n      add\n      sload\n      swap1\n      dup1\n      0x03\n      add\n      sload\n      swap1\n      dup1\n      0x04\n      add\n      sload\n      swap1\n      dup1\n      0x05\n      add\n      sload\n      swap1\n      dup1\n      0x06\n      add\n      0x00\n      swap1\n      sload\n      swap1\n      0x0100\n      exp\n      swap1\n      div\n      0xffffffffffffffffffffffffffffffffffffffff\n      and\n      swap1\n      pop\n      dup8\n      jump\t// out\n        /* \"PRACTICA FINAL/archivo1.sol\":4962:5006  function approve () external view {... */\n    tag_30:\n      jump\t// out\n        /* \"PRACTICA FINAL/archivo1.sol\":4192:4313  function getApprovedProposals() external view onlyAfterOpen returns (uint[] memory approvedIdentifiers){... */\n    tag_33:\n        /* \"PRACTICA FINAL/archivo1.sol\":4261:4294  uint[] memory approvedIdentifiers */\n      0x60\n        /* \"PRACTICA FINAL/archivo1.sol\":1935:1944  _isOpened */\n      0x05\n      0x00\n      swap1\n      sload\n      swap1\n      0x0100\n      exp\n      swap1\n      div\n      0xff\n      and\n        /* \"PRACTICA FINAL/archivo1.sol\":1927:1969  require(_isOpened, \"Voting is not opened\") */\n      tag_101\n      jumpi\n      mload(0x40)\n      0x08c379a000000000000000000000000000000000000000000000000000000000\n      dup2\n      mstore\n      0x04\n      add\n      tag_102\n      swap1\n      tag_103\n      jump\t// in\n    tag_102:\n      mload(0x40)\n      dup1\n      swap2\n      sub\n      swap1\n      revert\n    tag_101:\n        /* \"PRACTICA FINAL/archivo1.sol\":4192:4313  function getApprovedProposals() external view onlyAfterOpen returns (uint[] memory approvedIdentifiers){... */\n      swap1\n      jump\t// out\n        /* \"PRACTICA FINAL/archivo1.sol\":2503:2633  function removeParticipant() public {... */\n    tag_38:\n        /* \"PRACTICA FINAL/archivo1.sol\":2598:2611  addressTokens */\n      0x03\n        /* \"PRACTICA FINAL/archivo1.sol\":2598:2623  addressTokens[msg.sender] */\n      0x00\n        /* \"PRACTICA FINAL/archivo1.sol\":2612:2622  msg.sender */\n      caller\n        /* \"PRACTICA FINAL/archivo1.sol\":2598:2623  addressTokens[msg.sender] */\n      0xffffffffffffffffffffffffffffffffffffffff\n      and\n      0xffffffffffffffffffffffffffffffffffffffff\n      and\n      dup2\n      mstore\n      0x20\n      add\n      swap1\n      dup2\n      mstore\n      0x20\n      add\n      0x00\n      keccak256\n        /* \"PRACTICA FINAL/archivo1.sol\":2591:2623  delete addressTokens[msg.sender] */\n      0x00\n      swap1\n      sstore\n        /* \"PRACTICA FINAL/archivo1.sol\":2503:2633  function removeParticipant() public {... */\n      jump\t// out\n        /* \"PRACTICA FINAL/archivo1.sol\":3766:3825  function getERC20() external returns (address) {... */\n    tag_41:\n        /* \"PRACTICA FINAL/archivo1.sol\":3804:3811  address */\n      0x00\n        /* \"PRACTICA FINAL/archivo1.sol\":3766:3825  function getERC20() external returns (address) {... */\n      swap1\n      jump\t// out\n        /* \"PRACTICA FINAL/archivo1.sol\":5014:5194  function withdrawFromProposal (uint voteAmount, uint idProposal) public {... */\n    tag_48:\n      pop\n      pop\n      jump\t// out\n        /* \"PRACTICA FINAL/archivo1.sol\":4628:4725  function stake (uint idProposal, uint voteAmount) external onlyAfterOpen {... */\n    tag_52:\n        /* \"PRACTICA FINAL/archivo1.sol\":1935:1944  _isOpened */\n      0x05\n      0x00\n      swap1\n      sload\n      swap1\n      0x0100\n      exp\n      swap1\n      div\n      0xff\n      and\n        /* \"PRACTICA FINAL/archivo1.sol\":1927:1969  require(_isOpened, \"Voting is not opened\") */\n      tag_109\n      jumpi\n      mload(0x40)\n      0x08c379a000000000000000000000000000000000000000000000000000000000\n      dup2\n      mstore\n      0x04\n      add\n      tag_110\n      swap1\n      tag_103\n      jump\t// in\n    tag_110:\n      mload(0x40)\n      dup1\n      swap2\n      sub\n      swap1\n      revert\n    tag_109:\n        /* \"PRACTICA FINAL/archivo1.sol\":4628:4725  function stake (uint idProposal, uint voteAmount) external onlyAfterOpen {... */\n      pop\n      pop\n      jump\t// out\n        /* \"PRACTICA FINAL/archivo1.sol\":3419:3758  function sellTokens () view public {... */\n    tag_55:\n        /* \"PRACTICA FINAL/archivo1.sol\":3566:3567  0 */\n      0x00\n        /* \"PRACTICA FINAL/archivo1.sol\":3538:3551  addressTokens */\n      0x03\n        /* \"PRACTICA FINAL/archivo1.sol\":3538:3563  addressTokens[msg.sender] */\n      0x00\n        /* \"PRACTICA FINAL/archivo1.sol\":3552:3562  msg.sender */\n      caller\n        /* \"PRACTICA FINAL/archivo1.sol\":3538:3563  addressTokens[msg.sender] */\n      0xffffffffffffffffffffffffffffffffffffffff\n      and\n      0xffffffffffffffffffffffffffffffffffffffff\n      and\n      dup2\n      mstore\n      0x20\n      add\n      swap1\n      dup2\n      mstore\n      0x20\n      add\n      0x00\n      keccak256\n      sload\n        /* \"PRACTICA FINAL/archivo1.sol\":3538:3567  addressTokens[msg.sender]!= 0 */\n      sub\n        /* \"PRACTICA FINAL/archivo1.sol\":3530:3568  require(addressTokens[msg.sender]!= 0) */\n      tag_113\n      jumpi\n      0x00\n      dup1\n      revert\n    tag_113:\n        /* \"PRACTICA FINAL/archivo1.sol\":3419:3758  function sellTokens () view public {... */\n      jump\t// out\n        /* \"PRACTICA FINAL/archivo1.sol\":2641:2995  function addProposal (string calldata title, string calldata description, uint  budget, address contr) public onlyAfterOpen  returns (uint) {... */\n    tag_60:\n        /* \"PRACTICA FINAL/archivo1.sol\":2775:2779  uint */\n      0x00\n        /* \"PRACTICA FINAL/archivo1.sol\":1935:1944  _isOpened */\n      0x05\n      0x00\n      swap1\n      sload\n      swap1\n      0x0100\n      exp\n      swap1\n      div\n      0xff\n      and\n        /* \"PRACTICA FINAL/archivo1.sol\":1927:1969  require(_isOpened, \"Voting is not opened\") */\n      tag_115\n      jumpi\n      mload(0x40)\n      0x08c379a000000000000000000000000000000000000000000000000000000000\n      dup2\n      mstore\n      0x04\n      add\n      tag_116\n      swap1\n      tag_103\n      jump\t// in\n    tag_116:\n      mload(0x40)\n      dup1\n      swap2\n      sub\n      swap1\n      revert\n    tag_115:\n        /* \"PRACTICA FINAL/archivo1.sol\":2794:2811  Proposal memory p */\n      0x00\n        /* \"PRACTICA FINAL/archivo1.sol\":2814:2864  Proposal(title, description, 0, budget,0,0, contr) */\n      mload(0x40)\n      dup1\n      0xe0\n      add\n      0x40\n      mstore\n      dup1\n        /* \"PRACTICA FINAL/archivo1.sol\":2823:2828  title */\n      dup10\n      dup10\n        /* \"PRACTICA FINAL/archivo1.sol\":2814:2864  Proposal(title, description, 0, budget,0,0, contr) */\n      dup1\n      dup1\n      0x1f\n      add\n      0x20\n      dup1\n      swap2\n      div\n      mul\n      0x20\n      add\n      mload(0x40)\n      swap1\n      dup2\n      add\n      0x40\n      mstore\n      dup1\n      swap4\n      swap3\n      swap2\n      swap1\n      dup2\n      dup2\n      mstore\n      0x20\n      add\n      dup4\n      dup4\n      dup1\n      dup3\n      dup5\n      calldatacopy\n      0x00\n      dup2\n      dup5\n      add\n      mstore\n      not(0x1f)\n      0x1f\n      dup3\n      add\n      and\n      swap1\n      pop\n      dup1\n      dup4\n      add\n      swap3\n      pop\n      pop\n      pop\n      pop\n      pop\n      pop\n      pop\n      dup2\n      mstore\n      0x20\n      add\n        /* \"PRACTICA FINAL/archivo1.sol\":2830:2841  description */\n      dup8\n      dup8\n        /* \"PRACTICA FINAL/archivo1.sol\":2814:2864  Proposal(title, description, 0, budget,0,0, contr) */\n      dup1\n      dup1\n      0x1f\n      add\n      0x20\n      dup1\n      swap2\n      div\n      mul\n      0x20\n      add\n      mload(0x40)\n      swap1\n      dup2\n      add\n      0x40\n      mstore\n      dup1\n      swap4\n      swap3\n      swap2\n      swap1\n      dup2\n      dup2\n      mstore\n      0x20\n      add\n      dup4\n      dup4\n      dup1\n      dup3\n      dup5\n      calldatacopy\n      0x00\n      dup2\n      dup5\n      add\n      mstore\n      not(0x1f)\n      0x1f\n      dup3\n      add\n      and\n      swap1\n      pop\n      dup1\n      dup4\n      add\n      swap3\n      pop\n      pop\n      pop\n      pop\n      pop\n      pop\n      pop\n      dup2\n      mstore\n      0x20\n      add\n        /* \"PRACTICA FINAL/archivo1.sol\":2843:2844  0 */\n      0x00\n        /* \"PRACTICA FINAL/archivo1.sol\":2814:2864  Proposal(title, description, 0, budget,0,0, contr) */\n      dup2\n      mstore\n      0x20\n      add\n        /* \"PRACTICA FINAL/archivo1.sol\":2846:2852  budget */\n      dup6\n        /* \"PRACTICA FINAL/archivo1.sol\":2814:2864  Proposal(title, description, 0, budget,0,0, contr) */\n      dup2\n      mstore\n      0x20\n      add\n        /* \"PRACTICA FINAL/archivo1.sol\":2853:2854  0 */\n      0x00\n        /* \"PRACTICA FINAL/archivo1.sol\":2814:2864  Proposal(title, description, 0, budget,0,0, contr) */\n      dup2\n      mstore\n      0x20\n      add\n        /* \"PRACTICA FINAL/archivo1.sol\":2855:2856  0 */\n      0x00\n        /* \"PRACTICA FINAL/archivo1.sol\":2814:2864  Proposal(title, description, 0, budget,0,0, contr) */\n      dup2\n      mstore\n      0x20\n      add\n        /* \"PRACTICA FINAL/archivo1.sol\":2858:2863  contr */\n      dup5\n        /* \"PRACTICA FINAL/archivo1.sol\":2814:2864  Proposal(title, description, 0, budget,0,0, contr) */\n      0xffffffffffffffffffffffffffffffffffffffff\n      and\n      dup2\n      mstore\n      pop\n        /* \"PRACTICA FINAL/archivo1.sol\":2794:2864  Proposal memory p = Proposal(title, description, 0, budget,0,0, contr) */\n      swap1\n      pop\n        /* \"PRACTICA FINAL/archivo1.sol\":2875:2885  proposalId */\n      0x04\n      0x00\n        /* \"PRACTICA FINAL/archivo1.sol\":2875:2887  proposalId++ */\n      dup2\n      sload\n      dup1\n      swap3\n      swap2\n      swap1\n      tag_118\n      swap1\n      tag_119\n      jump\t// in\n    tag_118:\n      swap2\n      swap1\n      pop\n      sstore\n      pop\n        /* \"PRACTICA FINAL/archivo1.sol\":2922:2923  p */\n      dup1\n        /* \"PRACTICA FINAL/archivo1.sol\":2898:2907  proposals */\n      0x06\n        /* \"PRACTICA FINAL/archivo1.sol\":2898:2919  proposals[proposalId] */\n      0x00\n        /* \"PRACTICA FINAL/archivo1.sol\":2908:2918  proposalId */\n      sload(0x04)\n        /* \"PRACTICA FINAL/archivo1.sol\":2898:2919  proposals[proposalId] */\n      dup2\n      mstore\n      0x20\n      add\n      swap1\n      dup2\n      mstore\n      0x20\n      add\n      0x00\n      keccak256\n        /* \"PRACTICA FINAL/archivo1.sol\":2898:2923  proposals[proposalId] = p */\n      0x00\n      dup3\n      add\n      mload\n      dup2\n      0x00\n      add\n      swap1\n      dup2\n      tag_120\n      swap2\n      swap1\n      tag_121\n      jump\t// in\n    tag_120:\n      pop\n      0x20\n      dup3\n      add\n      mload\n      dup2\n      0x01\n      add\n      swap1\n      dup2\n      tag_122\n      swap2\n      swap1\n      tag_121\n      jump\t// in\n    tag_122:\n      pop\n      0x40\n      dup3\n      add\n      mload\n      dup2\n      0x02\n      add\n      sstore\n      0x60\n      dup3\n      add\n      mload\n      dup2\n      0x03\n      add\n      sstore\n      0x80\n      dup3\n      add\n      mload\n      dup2\n      0x04\n      add\n      sstore\n      0xa0\n      dup3\n      add\n      mload\n      dup2\n      0x05\n      add\n      sstore\n      0xc0\n      dup3\n      add\n      mload\n      dup2\n      0x06\n      add\n      exp(0x0100, 0x00)\n      dup2\n      sload\n      dup2\n      0xffffffffffffffffffffffffffffffffffffffff\n      mul\n      not\n      and\n      swap1\n      dup4\n      0xffffffffffffffffffffffffffffffffffffffff\n      and\n      mul\n      or\n      swap1\n      sstore\n      pop\n      swap1\n      pop\n      pop\n        /* \"PRACTICA FINAL/archivo1.sol\":2977:2987  proposalId */\n      sload(0x04)\n        /* \"PRACTICA FINAL/archivo1.sol\":2970:2987  return proposalId */\n      swap2\n      pop\n      pop\n        /* \"PRACTICA FINAL/archivo1.sol\":2641:2995  function addProposal (string calldata title, string calldata description, uint  budget, address contr) public onlyAfterOpen  returns (uint) {... */\n      swap7\n      swap6\n      pop\n      pop\n      pop\n      pop\n      pop\n      pop\n      jump\t// out\n        /* \"PRACTICA FINAL/archivo1.sol\":3960:4075  function getPendingProposals() external view onlyAfterOpen returns (uint[] memory pendingIdentifiers){... */\n    tag_65:\n        /* \"PRACTICA FINAL/archivo1.sol\":4028:4060  uint[] memory pendingIdentifiers */\n      0x60\n        /* \"PRACTICA FINAL/archivo1.sol\":1935:1944  _isOpened */\n      0x05\n      0x00\n      swap1\n      sload\n      swap1\n      0x0100\n      exp\n      swap1\n      div\n      0xff\n      and\n        /* \"PRACTICA FINAL/archivo1.sol\":1927:1969  require(_isOpened, \"Voting is not opened\") */\n      tag_124\n      jumpi\n      mload(0x40)\n      0x08c379a000000000000000000000000000000000000000000000000000000000\n      dup2\n      mstore\n      0x04\n      add\n      tag_125\n      swap1\n      tag_103\n      jump\t// in\n    tag_125:\n      mload(0x40)\n      dup1\n      swap2\n      sub\n      swap1\n      revert\n    tag_124:\n        /* \"PRACTICA FINAL/archivo1.sol\":3960:4075  function getPendingProposals() external view onlyAfterOpen returns (uint[] memory pendingIdentifiers){... */\n      swap1\n      jump\t// out\n        /* \"PRACTICA FINAL/archivo1.sol\":1997:2124  function openVoting () external onlyOwner {... */\n    tag_69:\n        /* \"PRACTICA FINAL/archivo1.sol\":1843:1849  _owner */\n      0x02\n      0x00\n      swap1\n      sload\n      swap1\n      0x0100\n      exp\n      swap1\n      div\n      0xffffffffffffffffffffffffffffffffffffffff\n      and\n        /* \"PRACTICA FINAL/archivo1.sol\":1829:1849  msg.sender == _owner */\n      0xffffffffffffffffffffffffffffffffffffffff\n      and\n        /* \"PRACTICA FINAL/archivo1.sol\":1829:1839  msg.sender */\n      caller\n        /* \"PRACTICA FINAL/archivo1.sol\":1829:1849  msg.sender == _owner */\n      0xffffffffffffffffffffffffffffffffffffffff\n      and\n      eq\n        /* \"PRACTICA FINAL/archivo1.sol\":1821:1863  require(msg.sender == _owner, \"Not owner\") */\n      tag_128\n      jumpi\n      mload(0x40)\n      0x08c379a000000000000000000000000000000000000000000000000000000000\n      dup2\n      mstore\n      0x04\n      add\n      tag_129\n      swap1\n      tag_130\n      jump\t// in\n    tag_129:\n      mload(0x40)\n      dup1\n      swap2\n      sub\n      swap1\n      revert\n    tag_128:\n        /* \"PRACTICA FINAL/archivo1.sol\":2112:2116  true */\n      0x01\n        /* \"PRACTICA FINAL/archivo1.sol\":2102:2111  _isOpened */\n      0x05\n      0x00\n        /* \"PRACTICA FINAL/archivo1.sol\":2102:2116  _isOpened=true */\n      0x0100\n      exp\n      dup2\n      sload\n      dup2\n      0xff\n      mul\n      not\n      and\n      swap1\n      dup4\n      iszero\n      iszero\n      mul\n      or\n      swap1\n      sstore\n      pop\n        /* \"PRACTICA FINAL/archivo1.sol\":1997:2124  function openVoting () external onlyOwner {... */\n      jump\t// out\n        /* \"PRACTICA FINAL/archivo1.sol\":4323:4527  function getProposalInfo (uint idProposal) external view onlyAfterOpen returns (Proposal memory p){... */\n    tag_73:\n        /* \"PRACTICA FINAL/archivo1.sol\":4403:4420  Proposal memory p */\n      tag_132\n      tag_133\n      jump\t// in\n    tag_132:\n        /* \"PRACTICA FINAL/archivo1.sol\":1935:1944  _isOpened */\n      0x05\n      0x00\n      swap1\n      sload\n      swap1\n      0x0100\n      exp\n      swap1\n      div\n      0xff\n      and\n        /* \"PRACTICA FINAL/archivo1.sol\":1927:1969  require(_isOpened, \"Voting is not opened\") */\n      tag_135\n      jumpi\n      mload(0x40)\n      0x08c379a000000000000000000000000000000000000000000000000000000000\n      dup2\n      mstore\n      0x04\n      add\n      tag_136\n      swap1\n      tag_103\n      jump\t// in\n    tag_136:\n      mload(0x40)\n      dup1\n      swap2\n      sub\n      swap1\n      revert\n    tag_135:\n        /* \"PRACTICA FINAL/archivo1.sol\":4441:4450  proposals */\n      0x06\n        /* \"PRACTICA FINAL/archivo1.sol\":4441:4462  proposals[idProposal] */\n      0x00\n        /* \"PRACTICA FINAL/archivo1.sol\":4451:4461  idProposal */\n      dup4\n        /* \"PRACTICA FINAL/archivo1.sol\":4441:4462  proposals[idProposal] */\n      dup2\n      mstore\n      0x20\n      add\n      swap1\n      dup2\n      mstore\n      0x20\n      add\n      0x00\n      keccak256\n        /* \"PRACTICA FINAL/archivo1.sol\":4434:4462  return proposals[idProposal] */\n      mload(0x40)\n      dup1\n      0xe0\n      add\n      0x40\n      mstore\n      swap1\n      dup2\n      0x00\n      dup3\n      add\n      dup1\n      sload\n      tag_138\n      swap1\n      tag_89\n      jump\t// in\n    tag_138:\n      dup1\n      0x1f\n      add\n      0x20\n      dup1\n      swap2\n      div\n      mul\n      0x20\n      add\n      mload(0x40)\n      swap1\n      dup2\n      add\n      0x40\n      mstore\n      dup1\n      swap3\n      swap2\n      swap1\n      dup2\n      dup2\n      mstore\n      0x20\n      add\n      dup3\n      dup1\n      sload\n      tag_139\n      swap1\n      tag_89\n      jump\t// in\n    tag_139:\n      dup1\n      iszero\n      tag_140\n      jumpi\n      dup1\n      0x1f\n      lt\n      tag_141\n      jumpi\n      0x0100\n      dup1\n      dup4\n      sload\n      div\n      mul\n      dup4\n      mstore\n      swap2\n      0x20\n      add\n      swap2\n      jump(tag_140)\n    tag_141:\n      dup3\n      add\n      swap2\n      swap1\n      0x00\n      mstore\n      keccak256(0x00, 0x20)\n      swap1\n    tag_142:\n      dup2\n      sload\n      dup2\n      mstore\n      swap1\n      0x01\n      add\n      swap1\n      0x20\n      add\n      dup1\n      dup4\n      gt\n      tag_142\n      jumpi\n      dup3\n      swap1\n      sub\n      0x1f\n      and\n      dup3\n      add\n      swap2\n    tag_140:\n      pop\n      pop\n      pop\n      pop\n      pop\n      dup2\n      mstore\n      0x20\n      add\n      0x01\n      dup3\n      add\n      dup1\n      sload\n      tag_143\n      swap1\n      tag_89\n      jump\t// in\n    tag_143:\n      dup1\n      0x1f\n      add\n      0x20\n      dup1\n      swap2\n      div\n      mul\n      0x20\n      add\n      mload(0x40)\n      swap1\n      dup2\n      add\n      0x40\n      mstore\n      dup1\n      swap3\n      swap2\n      swap1\n      dup2\n      dup2\n      mstore\n      0x20\n      add\n      dup3\n      dup1\n      sload\n      tag_144\n      swap1\n      tag_89\n      jump\t// in\n    tag_144:\n      dup1\n      iszero\n      tag_145\n      jumpi\n      dup1\n      0x1f\n      lt\n      tag_146\n      jumpi\n      0x0100\n      dup1\n      dup4\n      sload\n      div\n      mul\n      dup4\n      mstore\n      swap2\n      0x20\n      add\n      swap2\n      jump(tag_145)\n    tag_146:\n      dup3\n      add\n      swap2\n      swap1\n      0x00\n      mstore\n      keccak256(0x00, 0x20)\n      swap1\n    tag_147:\n      dup2\n      sload\n      dup2\n      mstore\n      swap1\n      0x01\n      add\n      swap1\n      0x20\n      add\n      dup1\n      dup4\n      gt\n      tag_147\n      jumpi\n      dup3\n      swap1\n      sub\n      0x1f\n      and\n      dup3\n      add\n      swap2\n    tag_145:\n      pop\n      pop\n      pop\n      pop\n      pop\n      dup2\n      mstore\n      0x20\n      add\n      0x02\n      dup3\n      add\n      sload\n      dup2\n      mstore\n      0x20\n      add\n      0x03\n      dup3\n      add\n      sload\n      dup2\n      mstore\n      0x20\n      add\n      0x04\n      dup3\n      add\n      sload\n      dup2\n      mstore\n      0x20\n      add\n      0x05\n      dup3\n      add\n      sload\n      dup2\n      mstore\n      0x20\n      add\n      0x06\n      dup3\n      add\n      0x00\n      swap1\n      sload\n      swap1\n      0x0100\n      exp\n      swap1\n      div\n      0xffffffffffffffffffffffffffffffffffffffff\n      and\n      0xffffffffffffffffffffffffffffffffffffffff\n      and\n      0xffffffffffffffffffffffffffffffffffffffff\n      and\n      dup2\n      mstore\n      pop\n      pop\n      swap1\n      pop\n        /* \"PRACTICA FINAL/archivo1.sol\":4323:4527  function getProposalInfo (uint idProposal) external view onlyAfterOpen returns (Proposal memory p){... */\n      swap2\n      swap1\n      pop\n      jump\t// out\n        /* \"PRACTICA FINAL/archivo1.sol\":5330:5410  function closeVoting () external onlyOwner {... */\n    tag_78:\n        /* \"PRACTICA FINAL/archivo1.sol\":1843:1849  _owner */\n      0x02\n      0x00\n      swap1\n      sload\n      swap1\n      0x0100\n      exp\n      swap1\n      div\n      0xffffffffffffffffffffffffffffffffffffffff\n      and\n        /* \"PRACTICA FINAL/archivo1.sol\":1829:1849  msg.sender == _owner */\n      0xffffffffffffffffffffffffffffffffffffffff\n      and\n        /* \"PRACTICA FINAL/archivo1.sol\":1829:1839  msg.sender */\n      caller\n        /* \"PRACTICA FINAL/archivo1.sol\":1829:1849  msg.sender == _owner */\n      0xffffffffffffffffffffffffffffffffffffffff\n      and\n      eq\n        /* \"PRACTICA FINAL/archivo1.sol\":1821:1863  require(msg.sender == _owner, \"Not owner\") */\n      tag_149\n      jumpi\n      mload(0x40)\n      0x08c379a000000000000000000000000000000000000000000000000000000000\n      dup2\n      mstore\n      0x04\n      add\n      tag_150\n      swap1\n      tag_130\n      jump\t// in\n    tag_150:\n      mload(0x40)\n      dup1\n      swap2\n      sub\n      swap1\n      revert\n    tag_149:\n        /* \"PRACTICA FINAL/archivo1.sol\":5397:5402  false */\n      0x00\n        /* \"PRACTICA FINAL/archivo1.sol\":5386:5395  _isOpened */\n      0x05\n      0x00\n        /* \"PRACTICA FINAL/archivo1.sol\":5386:5402  _isOpened =false */\n      0x0100\n      exp\n      dup2\n      sload\n      dup2\n      0xff\n      mul\n      not\n      and\n      swap1\n      dup4\n      iszero\n      iszero\n      mul\n      or\n      swap1\n      sstore\n      pop\n        /* \"PRACTICA FINAL/archivo1.sol\":5330:5410  function closeVoting () external onlyOwner {... */\n      jump\t// out\n        /* \"PRACTICA FINAL/archivo1.sol\":3148:3411  function buyTokens() view public{... */\n    tag_81:\n        /* \"PRACTICA FINAL/archivo1.sol\":3297:3298  0 */\n      0x00\n        /* \"PRACTICA FINAL/archivo1.sol\":3268:3281  addressTokens */\n      0x03\n        /* \"PRACTICA FINAL/archivo1.sol\":3268:3293  addressTokens[msg.sender] */\n      0x00\n        /* \"PRACTICA FINAL/archivo1.sol\":3282:3292  msg.sender */\n      caller\n        /* \"PRACTICA FINAL/archivo1.sol\":3268:3293  addressTokens[msg.sender] */\n      0xffffffffffffffffffffffffffffffffffffffff\n      and\n      0xffffffffffffffffffffffffffffffffffffffff\n      and\n      dup2\n      mstore\n      0x20\n      add\n      swap1\n      dup2\n      mstore\n      0x20\n      add\n      0x00\n      keccak256\n      sload\n        /* \"PRACTICA FINAL/archivo1.sol\":3268:3298  addressTokens[msg.sender] != 0 */\n      sub\n        /* \"PRACTICA FINAL/archivo1.sol\":3260:3352  require(addressTokens[msg.sender] != 0, \"Este participante no esta inscrito en la votacion\") */\n      tag_153\n      jumpi\n      mload(0x40)\n      0x08c379a000000000000000000000000000000000000000000000000000000000\n      dup2\n      mstore\n      0x04\n      add\n      tag_154\n      swap1\n      tag_155\n      jump\t// in\n    tag_154:\n      mload(0x40)\n      dup1\n      swap2\n      sub\n      swap1\n      revert\n    tag_153:\n        /* \"PRACTICA FINAL/archivo1.sol\":3148:3411  function buyTokens() view public{... */\n      jump\t// out\n        /* \"PRACTICA FINAL/archivo1.sol\":3003:3076  function cancelProposal (uint idProposal) public onlyAfterOpen {... */\n    tag_85:\n        /* \"PRACTICA FINAL/archivo1.sol\":1935:1944  _isOpened */\n      0x05\n      0x00\n      swap1\n      sload\n      swap1\n      0x0100\n      exp\n      swap1\n      div\n      0xff\n      and\n        /* \"PRACTICA FINAL/archivo1.sol\":1927:1969  require(_isOpened, \"Voting is not opened\") */\n      tag_157\n      jumpi\n      mload(0x40)\n      0x08c379a000000000000000000000000000000000000000000000000000000000\n      dup2\n      mstore\n      0x04\n      add\n      tag_158\n      swap1\n      tag_103\n      jump\t// in\n    tag_158:\n      mload(0x40)\n      dup1\n      swap2\n      sub\n      swap1\n      revert\n    tag_157:\n        /* \"PRACTICA FINAL/archivo1.sol\":3003:3076  function cancelProposal (uint idProposal) public onlyAfterOpen {... */\n      pop\n      jump\t// out\n        /* \"PRACTICA FINAL/archivo1.sol\":2132:2495  function addParticipant () public payable{... */\n    tag_87:\n        /* \"PRACTICA FINAL/archivo1.sol\":2319:2328  tokenCost */\n      sload(0x00)\n        /* \"PRACTICA FINAL/archivo1.sol\":2306:2315  msg.value */\n      callvalue\n        /* \"PRACTICA FINAL/archivo1.sol\":2306:2328  msg.value >= tokenCost */\n      lt\n      iszero\n        /* \"PRACTICA FINAL/archivo1.sol\":2298:2351  require(msg.value >= tokenCost, \"No suficient funds\") */\n      tag_161\n      jumpi\n      mload(0x40)\n      0x08c379a000000000000000000000000000000000000000000000000000000000\n      dup2\n      mstore\n      0x04\n      add\n      tag_162\n      swap1\n      tag_163\n      jump\t// in\n    tag_162:\n      mload(0x40)\n      dup1\n      swap2\n      sub\n      swap1\n      revert\n    tag_161:\n        /* \"PRACTICA FINAL/archivo1.sol\":2478:2487  tokenCost */\n      sload(0x00)\n        /* \"PRACTICA FINAL/archivo1.sol\":2468:2477  msg.value */\n      callvalue\n        /* \"PRACTICA FINAL/archivo1.sol\":2468:2487  msg.value/tokenCost */\n      tag_164\n      swap2\n      swap1\n      tag_165\n      jump\t// in\n    tag_164:\n        /* \"PRACTICA FINAL/archivo1.sol\":2440:2453  addressTokens */\n      0x03\n        /* \"PRACTICA FINAL/archivo1.sol\":2440:2465  addressTokens[msg.sender] */\n      0x00\n        /* \"PRACTICA FINAL/archivo1.sol\":2454:2464  msg.sender */\n      caller\n        /* \"PRACTICA FINAL/archivo1.sol\":2440:2465  addressTokens[msg.sender] */\n      0xffffffffffffffffffffffffffffffffffffffff\n      and\n      0xffffffffffffffffffffffffffffffffffffffff\n      and\n      dup2\n      mstore\n      0x20\n      add\n      swap1\n      dup2\n      mstore\n      0x20\n      add\n      0x00\n      keccak256\n        /* \"PRACTICA FINAL/archivo1.sol\":2440:2487  addressTokens[msg.sender] = msg.value/tokenCost */\n      dup2\n      swap1\n      sstore\n      pop\n        /* \"PRACTICA FINAL/archivo1.sol\":2132:2495  function addParticipant () public payable{... */\n      jump\t// out\n    tag_133:\n      mload(0x40)\n      dup1\n      0xe0\n      add\n      0x40\n      mstore\n      dup1\n      0x60\n      dup2\n      mstore\n      0x20\n      add\n      0x60\n      dup2\n      mstore\n      0x20\n      add\n      0x00\n      dup2\n      mstore\n      0x20\n      add\n      0x00\n      dup2\n      mstore\n      0x20\n      add\n      0x00\n      dup2\n      mstore\n      0x20\n      add\n      0x00\n      dup2\n      mstore\n      0x20\n      add\n      and(0xffffffffffffffffffffffffffffffffffffffff, 0x00)\n      dup2\n      mstore\n      pop\n      swap1\n      jump\t// out\n        /* \"#utility.yul\":88:205   */\n    tag_167:\n        /* \"#utility.yul\":197:198   */\n      0x00\n        /* \"#utility.yul\":194:195   */\n      dup1\n        /* \"#utility.yul\":187:199   */\n      revert\n        /* \"#utility.yul\":211:328   */\n    tag_168:\n        /* \"#utility.yul\":320:321   */\n      0x00\n        /* \"#utility.yul\":317:318   */\n      dup1\n        /* \"#utility.yul\":310:322   */\n      revert\n        /* \"#utility.yul\":334:411   */\n    tag_169:\n        /* \"#utility.yul\":371:378   */\n      0x00\n        /* \"#utility.yul\":400:405   */\n      dup2\n        /* \"#utility.yul\":389:405   */\n      swap1\n      pop\n        /* \"#utility.yul\":334:411   */\n      swap2\n      swap1\n      pop\n      jump\t// out\n        /* \"#utility.yul\":417:539   */\n    tag_170:\n        /* \"#utility.yul\":490:514   */\n      tag_231\n        /* \"#utility.yul\":508:513   */\n      dup2\n        /* \"#utility.yul\":490:514   */\n      tag_169\n      jump\t// in\n    tag_231:\n        /* \"#utility.yul\":483:488   */\n      dup2\n        /* \"#utility.yul\":480:515   */\n      eq\n        /* \"#utility.yul\":470:533   */\n      tag_232\n      jumpi\n        /* \"#utility.yul\":529:530   */\n      0x00\n        /* \"#utility.yul\":526:527   */\n      dup1\n        /* \"#utility.yul\":519:531   */\n      revert\n        /* \"#utility.yul\":470:533   */\n    tag_232:\n        /* \"#utility.yul\":417:539   */\n      pop\n      jump\t// out\n        /* \"#utility.yul\":545:684   */\n    tag_171:\n        /* \"#utility.yul\":591:596   */\n      0x00\n        /* \"#utility.yul\":629:635   */\n      dup2\n        /* \"#utility.yul\":616:636   */\n      calldataload\n        /* \"#utility.yul\":607:636   */\n      swap1\n      pop\n        /* \"#utility.yul\":645:678   */\n      tag_234\n        /* \"#utility.yul\":672:677   */\n      dup2\n        /* \"#utility.yul\":645:678   */\n      tag_170\n      jump\t// in\n    tag_234:\n        /* \"#utility.yul\":545:684   */\n      swap3\n      swap2\n      pop\n      pop\n      jump\t// out\n        /* \"#utility.yul\":690:1019   */\n    tag_24:\n        /* \"#utility.yul\":749:755   */\n      0x00\n        /* \"#utility.yul\":798:800   */\n      0x20\n        /* \"#utility.yul\":786:795   */\n      dup3\n        /* \"#utility.yul\":777:784   */\n      dup5\n        /* \"#utility.yul\":773:796   */\n      sub\n        /* \"#utility.yul\":769:801   */\n      slt\n        /* \"#utility.yul\":766:885   */\n      iszero\n      tag_236\n      jumpi\n        /* \"#utility.yul\":804:883   */\n      tag_237\n      tag_167\n      jump\t// in\n    tag_237:\n        /* \"#utility.yul\":766:885   */\n    tag_236:\n        /* \"#utility.yul\":924:925   */\n      0x00\n        /* \"#utility.yul\":949:1002   */\n      tag_238\n        /* \"#utility.yul\":994:1001   */\n      dup5\n        /* \"#utility.yul\":985:991   */\n      dup3\n        /* \"#utility.yul\":974:983   */\n      dup6\n        /* \"#utility.yul\":970:992   */\n      add\n        /* \"#utility.yul\":949:1002   */\n      tag_171\n      jump\t// in\n    tag_238:\n        /* \"#utility.yul\":939:1002   */\n      swap2\n      pop\n        /* \"#utility.yul\":895:1012   */\n      pop\n        /* \"#utility.yul\":690:1019   */\n      swap3\n      swap2\n      pop\n      pop\n      jump\t// out\n        /* \"#utility.yul\":1025:1124   */\n    tag_172:\n        /* \"#utility.yul\":1077:1083   */\n      0x00\n        /* \"#utility.yul\":1111:1116   */\n      dup2\n        /* \"#utility.yul\":1105:1117   */\n      mload\n        /* \"#utility.yul\":1095:1117   */\n      swap1\n      pop\n        /* \"#utility.yul\":1025:1124   */\n      swap2\n      swap1\n      pop\n      jump\t// out\n        /* \"#utility.yul\":1130:1299   */\n    tag_173:\n        /* \"#utility.yul\":1214:1225   */\n      0x00\n        /* \"#utility.yul\":1248:1254   */\n      dup3\n        /* \"#utility.yul\":1243:1246   */\n      dup3\n        /* \"#utility.yul\":1236:1255   */\n      mstore\n        /* \"#utility.yul\":1288:1292   */\n      0x20\n        /* \"#utility.yul\":1283:1286   */\n      dup3\n        /* \"#utility.yul\":1279:1293   */\n      add\n        /* \"#utility.yul\":1264:1293   */\n      swap1\n      pop\n        /* \"#utility.yul\":1130:1299   */\n      swap3\n      swap2\n      pop\n      pop\n      jump\t// out\n        /* \"#utility.yul\":1305:1444   */\n    tag_174:\n        /* \"#utility.yul\":1394:1400   */\n      dup3\n        /* \"#utility.yul\":1389:1392   */\n      dup2\n        /* \"#utility.yul\":1384:1387   */\n      dup4\n        /* \"#utility.yul\":1378:1401   */\n      mcopy\n        /* \"#utility.yul\":1435:1436   */\n      0x00\n        /* \"#utility.yul\":1426:1432   */\n      dup4\n        /* \"#utility.yul\":1421:1424   */\n      dup4\n        /* \"#utility.yul\":1417:1433   */\n      add\n        /* \"#utility.yul\":1410:1437   */\n      mstore\n        /* \"#utility.yul\":1305:1444   */\n      pop\n      pop\n      pop\n      jump\t// out\n        /* \"#utility.yul\":1450:1552   */\n    tag_175:\n        /* \"#utility.yul\":1491:1497   */\n      0x00\n        /* \"#utility.yul\":1542:1544   */\n      0x1f\n        /* \"#utility.yul\":1538:1545   */\n      not\n        /* \"#utility.yul\":1533:1535   */\n      0x1f\n        /* \"#utility.yul\":1526:1531   */\n      dup4\n        /* \"#utility.yul\":1522:1536   */\n      add\n        /* \"#utility.yul\":1518:1546   */\n      and\n        /* \"#utility.yul\":1508:1546   */\n      swap1\n      pop\n        /* \"#utility.yul\":1450:1552   */\n      swap2\n      swap1\n      pop\n      jump\t// out\n        /* \"#utility.yul\":1558:1935   */\n    tag_176:\n        /* \"#utility.yul\":1646:1649   */\n      0x00\n        /* \"#utility.yul\":1674:1713   */\n      tag_244\n        /* \"#utility.yul\":1707:1712   */\n      dup3\n        /* \"#utility.yul\":1674:1713   */\n      tag_172\n      jump\t// in\n    tag_244:\n        /* \"#utility.yul\":1729:1800   */\n      tag_245\n        /* \"#utility.yul\":1793:1799   */\n      dup2\n        /* \"#utility.yul\":1788:1791   */\n      dup6\n        /* \"#utility.yul\":1729:1800   */\n      tag_173\n      jump\t// in\n    tag_245:\n        /* \"#utility.yul\":1722:1800   */\n      swap4\n      pop\n        /* \"#utility.yul\":1809:1874   */\n      tag_246\n        /* \"#utility.yul\":1867:1873   */\n      dup2\n        /* \"#utility.yul\":1862:1865   */\n      dup6\n        /* \"#utility.yul\":1855:1859   */\n      0x20\n        /* \"#utility.yul\":1848:1853   */\n      dup7\n        /* \"#utility.yul\":1844:1860   */\n      add\n        /* \"#utility.yul\":1809:1874   */\n      tag_174\n      jump\t// in\n    tag_246:\n        /* \"#utility.yul\":1899:1928   */\n      tag_247\n        /* \"#utility.yul\":1921:1927   */\n      dup2\n        /* \"#utility.yul\":1899:1928   */\n      tag_175\n      jump\t// in\n    tag_247:\n        /* \"#utility.yul\":1894:1897   */\n      dup5\n        /* \"#utility.yul\":1890:1929   */\n      add\n        /* \"#utility.yul\":1883:1929   */\n      swap2\n      pop\n        /* \"#utility.yul\":1650:1935   */\n      pop\n        /* \"#utility.yul\":1558:1935   */\n      swap3\n      swap2\n      pop\n      pop\n      jump\t// out\n        /* \"#utility.yul\":1941:2059   */\n    tag_177:\n        /* \"#utility.yul\":2028:2052   */\n      tag_249\n        /* \"#utility.yul\":2046:2051   */\n      dup2\n        /* \"#utility.yul\":2028:2052   */\n      tag_169\n      jump\t// in\n    tag_249:\n        /* \"#utility.yul\":2023:2026   */\n      dup3\n        /* \"#utility.yul\":2016:2053   */\n      mstore\n        /* \"#utility.yul\":1941:2059   */\n      pop\n      pop\n      jump\t// out\n        /* \"#utility.yul\":2065:2191   */\n    tag_178:\n        /* \"#utility.yul\":2102:2109   */\n      0x00\n        /* \"#utility.yul\":2142:2184   */\n      0xffffffffffffffffffffffffffffffffffffffff\n        /* \"#utility.yul\":2135:2140   */\n      dup3\n        /* \"#utility.yul\":2131:2185   */\n      and\n        /* \"#utility.yul\":2120:2185   */\n      swap1\n      pop\n        /* \"#utility.yul\":2065:2191   */\n      swap2\n      swap1\n      pop\n      jump\t// out\n        /* \"#utility.yul\":2197:2293   */\n    tag_179:\n        /* \"#utility.yul\":2234:2241   */\n      0x00\n        /* \"#utility.yul\":2263:2287   */\n      tag_252\n        /* \"#utility.yul\":2281:2286   */\n      dup3\n        /* \"#utility.yul\":2263:2287   */\n      tag_178\n      jump\t// in\n    tag_252:\n        /* \"#utility.yul\":2252:2287   */\n      swap1\n      pop\n        /* \"#utility.yul\":2197:2293   */\n      swap2\n      swap1\n      pop\n      jump\t// out\n        /* \"#utility.yul\":2299:2417   */\n    tag_180:\n        /* \"#utility.yul\":2386:2410   */\n      tag_254\n        /* \"#utility.yul\":2404:2409   */\n      dup2\n        /* \"#utility.yul\":2386:2410   */\n      tag_179\n      jump\t// in\n    tag_254:\n        /* \"#utility.yul\":2381:2384   */\n      dup3\n        /* \"#utility.yul\":2374:2411   */\n      mstore\n        /* \"#utility.yul\":2299:2417   */\n      pop\n      pop\n      jump\t// out\n        /* \"#utility.yul\":2423:3491   */\n    tag_27:\n        /* \"#utility.yul\":2724:2728   */\n      0x00\n        /* \"#utility.yul\":2762:2765   */\n      0xe0\n        /* \"#utility.yul\":2751:2760   */\n      dup3\n        /* \"#utility.yul\":2747:2766   */\n      add\n        /* \"#utility.yul\":2739:2766   */\n      swap1\n      pop\n        /* \"#utility.yul\":2812:2821   */\n      dup2\n        /* \"#utility.yul\":2806:2810   */\n      dup2\n        /* \"#utility.yul\":2802:2822   */\n      sub\n        /* \"#utility.yul\":2798:2799   */\n      0x00\n        /* \"#utility.yul\":2787:2796   */\n      dup4\n        /* \"#utility.yul\":2783:2800   */\n      add\n        /* \"#utility.yul\":2776:2823   */\n      mstore\n        /* \"#utility.yul\":2840:2918   */\n      tag_256\n        /* \"#utility.yul\":2913:2917   */\n      dup2\n        /* \"#utility.yul\":2904:2910   */\n      dup11\n        /* \"#utility.yul\":2840:2918   */\n      tag_176\n      jump\t// in\n    tag_256:\n        /* \"#utility.yul\":2832:2918   */\n      swap1\n      pop\n        /* \"#utility.yul\":2965:2974   */\n      dup2\n        /* \"#utility.yul\":2959:2963   */\n      dup2\n        /* \"#utility.yul\":2955:2975   */\n      sub\n        /* \"#utility.yul\":2950:2952   */\n      0x20\n        /* \"#utility.yul\":2939:2948   */\n      dup4\n        /* \"#utility.yul\":2935:2953   */\n      add\n        /* \"#utility.yul\":2928:2976   */\n      mstore\n        /* \"#utility.yul\":2993:3071   */\n      tag_257\n        /* \"#utility.yul\":3066:3070   */\n      dup2\n        /* \"#utility.yul\":3057:3063   */\n      dup10\n        /* \"#utility.yul\":2993:3071   */\n      tag_176\n      jump\t// in\n    tag_257:\n        /* \"#utility.yul\":2985:3071   */\n      swap1\n      pop\n        /* \"#utility.yul\":3081:3153   */\n      tag_258\n        /* \"#utility.yul\":3149:3151   */\n      0x40\n        /* \"#utility.yul\":3138:3147   */\n      dup4\n        /* \"#utility.yul\":3134:3152   */\n      add\n        /* \"#utility.yul\":3125:3131   */\n      dup9\n        /* \"#utility.yul\":3081:3153   */\n      tag_177\n      jump\t// in\n    tag_258:\n        /* \"#utility.yul\":3163:3235   */\n      tag_259\n        /* \"#utility.yul\":3231:3233   */\n      0x60\n        /* \"#utility.yul\":3220:3229   */\n      dup4\n        /* \"#utility.yul\":3216:3234   */\n      add\n        /* \"#utility.yul\":3207:3213   */\n      dup8\n        /* \"#utility.yul\":3163:3235   */\n      tag_177\n      jump\t// in\n    tag_259:\n        /* \"#utility.yul\":3245:3318   */\n      tag_260\n        /* \"#utility.yul\":3313:3316   */\n      0x80\n        /* \"#utility.yul\":3302:3311   */\n      dup4\n        /* \"#utility.yul\":3298:3317   */\n      add\n        /* \"#utility.yul\":3289:3295   */\n      dup7\n        /* \"#utility.yul\":3245:3318   */\n      tag_177\n      jump\t// in\n    tag_260:\n        /* \"#utility.yul\":3328:3401   */\n      tag_261\n        /* \"#utility.yul\":3396:3399   */\n      0xa0\n        /* \"#utility.yul\":3385:3394   */\n      dup4\n        /* \"#utility.yul\":3381:3400   */\n      add\n        /* \"#utility.yul\":3372:3378   */\n      dup6\n        /* \"#utility.yul\":3328:3401   */\n      tag_177\n      jump\t// in\n    tag_261:\n        /* \"#utility.yul\":3411:3484   */\n      tag_262\n        /* \"#utility.yul\":3479:3482   */\n      0xc0\n        /* \"#utility.yul\":3468:3477   */\n      dup4\n        /* \"#utility.yul\":3464:3483   */\n      add\n        /* \"#utility.yul\":3455:3461   */\n      dup5\n        /* \"#utility.yul\":3411:3484   */\n      tag_180\n      jump\t// in\n    tag_262:\n        /* \"#utility.yul\":2423:3491   */\n      swap9\n      swap8\n      pop\n      pop\n      pop\n      pop\n      pop\n      pop\n      pop\n      pop\n      jump\t// out\n        /* \"#utility.yul\":3497:3611   */\n    tag_181:\n        /* \"#utility.yul\":3564:3570   */\n      0x00\n        /* \"#utility.yul\":3598:3603   */\n      dup2\n        /* \"#utility.yul\":3592:3604   */\n      mload\n        /* \"#utility.yul\":3582:3604   */\n      swap1\n      pop\n        /* \"#utility.yul\":3497:3611   */\n      swap2\n      swap1\n      pop\n      jump\t// out\n        /* \"#utility.yul\":3617:3801   */\n    tag_182:\n        /* \"#utility.yul\":3716:3727   */\n      0x00\n        /* \"#utility.yul\":3750:3756   */\n      dup3\n        /* \"#utility.yul\":3745:3748   */\n      dup3\n        /* \"#utility.yul\":3738:3757   */\n      mstore\n        /* \"#utility.yul\":3790:3794   */\n      0x20\n        /* \"#utility.yul\":3785:3788   */\n      dup3\n        /* \"#utility.yul\":3781:3795   */\n      add\n        /* \"#utility.yul\":3766:3795   */\n      swap1\n      pop\n        /* \"#utility.yul\":3617:3801   */\n      swap3\n      swap2\n      pop\n      pop\n      jump\t// out\n        /* \"#utility.yul\":3807:3939   */\n    tag_183:\n        /* \"#utility.yul\":3874:3878   */\n      0x00\n        /* \"#utility.yul\":3897:3900   */\n      dup2\n        /* \"#utility.yul\":3889:3900   */\n      swap1\n      pop\n        /* \"#utility.yul\":3927:3931   */\n      0x20\n        /* \"#utility.yul\":3922:3925   */\n      dup3\n        /* \"#utility.yul\":3918:3932   */\n      add\n        /* \"#utility.yul\":3910:3932   */\n      swap1\n      pop\n        /* \"#utility.yul\":3807:3939   */\n      swap2\n      swap1\n      pop\n      jump\t// out\n        /* \"#utility.yul\":3945:4053   */\n    tag_184:\n        /* \"#utility.yul\":4022:4046   */\n      tag_267\n        /* \"#utility.yul\":4040:4045   */\n      dup2\n        /* \"#utility.yul\":4022:4046   */\n      tag_169\n      jump\t// in\n    tag_267:\n        /* \"#utility.yul\":4017:4020   */\n      dup3\n        /* \"#utility.yul\":4010:4047   */\n      mstore\n        /* \"#utility.yul\":3945:4053   */\n      pop\n      pop\n      jump\t// out\n        /* \"#utility.yul\":4059:4238   */\n    tag_185:\n        /* \"#utility.yul\":4128:4138   */\n      0x00\n        /* \"#utility.yul\":4149:4195   */\n      tag_269\n        /* \"#utility.yul\":4191:4194   */\n      dup4\n        /* \"#utility.yul\":4183:4189   */\n      dup4\n        /* \"#utility.yul\":4149:4195   */\n      tag_184\n      jump\t// in\n    tag_269:\n        /* \"#utility.yul\":4227:4231   */\n      0x20\n        /* \"#utility.yul\":4222:4225   */\n      dup4\n        /* \"#utility.yul\":4218:4232   */\n      add\n        /* \"#utility.yul\":4204:4232   */\n      swap1\n      pop\n        /* \"#utility.yul\":4059:4238   */\n      swap3\n      swap2\n      pop\n      pop\n      jump\t// out\n        /* \"#utility.yul\":4244:4357   */\n    tag_186:\n        /* \"#utility.yul\":4314:4318   */\n      0x00\n        /* \"#utility.yul\":4346:4350   */\n      0x20\n        /* \"#utility.yul\":4341:4344   */\n      dup3\n        /* \"#utility.yul\":4337:4351   */\n      add\n        /* \"#utility.yul\":4329:4351   */\n      swap1\n      pop\n        /* \"#utility.yul\":4244:4357   */\n      swap2\n      swap1\n      pop\n      jump\t// out\n        /* \"#utility.yul\":4393:5125   */\n    tag_187:\n        /* \"#utility.yul\":4512:4515   */\n      0x00\n        /* \"#utility.yul\":4541:4595   */\n      tag_272\n        /* \"#utility.yul\":4589:4594   */\n      dup3\n        /* \"#utility.yul\":4541:4595   */\n      tag_181\n      jump\t// in\n    tag_272:\n        /* \"#utility.yul\":4611:4697   */\n      tag_273\n        /* \"#utility.yul\":4690:4696   */\n      dup2\n        /* \"#utility.yul\":4685:4688   */\n      dup6\n        /* \"#utility.yul\":4611:4697   */\n      tag_182\n      jump\t// in\n    tag_273:\n        /* \"#utility.yul\":4604:4697   */\n      swap4\n      pop\n        /* \"#utility.yul\":4721:4777   */\n      tag_274\n        /* \"#utility.yul\":4771:4776   */\n      dup4\n        /* \"#utility.yul\":4721:4777   */\n      tag_183\n      jump\t// in\n    tag_274:\n        /* \"#utility.yul\":4800:4807   */\n      dup1\n        /* \"#utility.yul\":4831:4832   */\n      0x00\n        /* \"#utility.yul\":4816:5100   */\n    tag_275:\n        /* \"#utility.yul\":4841:4847   */\n      dup4\n        /* \"#utility.yul\":4838:4839   */\n      dup2\n        /* \"#utility.yul\":4835:4848   */\n      lt\n        /* \"#utility.yul\":4816:5100   */\n      iszero\n      tag_277\n      jumpi\n        /* \"#utility.yul\":4917:4923   */\n      dup2\n        /* \"#utility.yul\":4911:4924   */\n      mload\n        /* \"#utility.yul\":4944:5007   */\n      tag_278\n        /* \"#utility.yul\":5003:5006   */\n      dup9\n        /* \"#utility.yul\":4988:5001   */\n      dup3\n        /* \"#utility.yul\":4944:5007   */\n      tag_185\n      jump\t// in\n    tag_278:\n        /* \"#utility.yul\":4937:5007   */\n      swap8\n      pop\n        /* \"#utility.yul\":5030:5090   */\n      tag_279\n        /* \"#utility.yul\":5083:5089   */\n      dup4\n        /* \"#utility.yul\":5030:5090   */\n      tag_186\n      jump\t// in\n    tag_279:\n        /* \"#utility.yul\":5020:5090   */\n      swap3\n      pop\n        /* \"#utility.yul\":4876:5100   */\n      pop\n        /* \"#utility.yul\":4863:4864   */\n      0x01\n        /* \"#utility.yul\":4860:4861   */\n      dup2\n        /* \"#utility.yul\":4856:4865   */\n      add\n        /* \"#utility.yul\":4851:4865   */\n      swap1\n      pop\n        /* \"#utility.yul\":4816:5100   */\n      jump(tag_275)\n    tag_277:\n        /* \"#utility.yul\":4820:4834   */\n      pop\n        /* \"#utility.yul\":5116:5119   */\n      dup6\n        /* \"#utility.yul\":5109:5119   */\n      swap4\n      pop\n        /* \"#utility.yul\":4517:5125   */\n      pop\n      pop\n      pop\n        /* \"#utility.yul\":4393:5125   */\n      swap3\n      swap2\n      pop\n      pop\n      jump\t// out\n        /* \"#utility.yul\":5131:5504   */\n    tag_35:\n        /* \"#utility.yul\":5274:5278   */\n      0x00\n        /* \"#utility.yul\":5312:5314   */\n      0x20\n        /* \"#utility.yul\":5301:5310   */\n      dup3\n        /* \"#utility.yul\":5297:5315   */\n      add\n        /* \"#utility.yul\":5289:5315   */\n      swap1\n      pop\n        /* \"#utility.yul\":5361:5370   */\n      dup2\n        /* \"#utility.yul\":5355:5359   */\n      dup2\n        /* \"#utility.yul\":5351:5371   */\n      sub\n        /* \"#utility.yul\":5347:5348   */\n      0x00\n        /* \"#utility.yul\":5336:5345   */\n      dup4\n        /* \"#utility.yul\":5332:5349   */\n      add\n        /* \"#utility.yul\":5325:5372   */\n      mstore\n        /* \"#utility.yul\":5389:5497   */\n      tag_281\n        /* \"#utility.yul\":5492:5496   */\n      dup2\n        /* \"#utility.yul\":5483:5489   */\n      dup5\n        /* \"#utility.yul\":5389:5497   */\n      tag_187\n      jump\t// in\n    tag_281:\n        /* \"#utility.yul\":5381:5497   */\n      swap1\n      pop\n        /* \"#utility.yul\":5131:5504   */\n      swap3\n      swap2\n      pop\n      pop\n      jump\t// out\n        /* \"#utility.yul\":5510:5732   */\n    tag_43:\n        /* \"#utility.yul\":5603:5607   */\n      0x00\n        /* \"#utility.yul\":5641:5643   */\n      0x20\n        /* \"#utility.yul\":5630:5639   */\n      dup3\n        /* \"#utility.yul\":5626:5644   */\n      add\n        /* \"#utility.yul\":5618:5644   */\n      swap1\n      pop\n        /* \"#utility.yul\":5654:5725   */\n      tag_283\n        /* \"#utility.yul\":5722:5723   */\n      0x00\n        /* \"#utility.yul\":5711:5720   */\n      dup4\n        /* \"#utility.yul\":5707:5724   */\n      add\n        /* \"#utility.yul\":5698:5704   */\n      dup5\n        /* \"#utility.yul\":5654:5725   */\n      tag_180\n      jump\t// in\n    tag_283:\n        /* \"#utility.yul\":5510:5732   */\n      swap3\n      swap2\n      pop\n      pop\n      jump\t// out\n        /* \"#utility.yul\":5738:6212   */\n    tag_47:\n        /* \"#utility.yul\":5806:5812   */\n      0x00\n        /* \"#utility.yul\":5814:5820   */\n      dup1\n        /* \"#utility.yul\":5863:5865   */\n      0x40\n        /* \"#utility.yul\":5851:5860   */\n      dup4\n        /* \"#utility.yul\":5842:5849   */\n      dup6\n        /* \"#utility.yul\":5838:5861   */\n      sub\n        /* \"#utility.yul\":5834:5866   */\n      slt\n        /* \"#utility.yul\":5831:5950   */\n      iszero\n      tag_285\n      jumpi\n        /* \"#utility.yul\":5869:5948   */\n      tag_286\n      tag_167\n      jump\t// in\n    tag_286:\n        /* \"#utility.yul\":5831:5950   */\n    tag_285:\n        /* \"#utility.yul\":5989:5990   */\n      0x00\n        /* \"#utility.yul\":6014:6067   */\n      tag_287\n        /* \"#utility.yul\":6059:6066   */\n      dup6\n        /* \"#utility.yul\":6050:6056   */\n      dup3\n        /* \"#utility.yul\":6039:6048   */\n      dup7\n        /* \"#utility.yul\":6035:6057   */\n      add\n        /* \"#utility.yul\":6014:6067   */\n      tag_171\n      jump\t// in\n    tag_287:\n        /* \"#utility.yul\":6004:6067   */\n      swap3\n      pop\n        /* \"#utility.yul\":5960:6077   */\n      pop\n        /* \"#utility.yul\":6116:6118   */\n      0x20\n        /* \"#utility.yul\":6142:6195   */\n      tag_288\n        /* \"#utility.yul\":6187:6194   */\n      dup6\n        /* \"#utility.yul\":6178:6184   */\n      dup3\n        /* \"#utility.yul\":6167:6176   */\n      dup7\n        /* \"#utility.yul\":6163:6185   */\n      add\n        /* \"#utility.yul\":6142:6195   */\n      tag_171\n      jump\t// in\n    tag_288:\n        /* \"#utility.yul\":6132:6195   */\n      swap2\n      pop\n        /* \"#utility.yul\":6087:6205   */\n      pop\n        /* \"#utility.yul\":5738:6212   */\n      swap3\n      pop\n      swap3\n      swap1\n      pop\n      jump\t// out\n        /* \"#utility.yul\":6218:6335   */\n    tag_188:\n        /* \"#utility.yul\":6327:6328   */\n      0x00\n        /* \"#utility.yul\":6324:6325   */\n      dup1\n        /* \"#utility.yul\":6317:6329   */\n      revert\n        /* \"#utility.yul\":6341:6458   */\n    tag_189:\n        /* \"#utility.yul\":6450:6451   */\n      0x00\n        /* \"#utility.yul\":6447:6448   */\n      dup1\n        /* \"#utility.yul\":6440:6452   */\n      revert\n        /* \"#utility.yul\":6464:6581   */\n    tag_190:\n        /* \"#utility.yul\":6573:6574   */\n      0x00\n        /* \"#utility.yul\":6570:6571   */\n      dup1\n        /* \"#utility.yul\":6563:6575   */\n      revert\n        /* \"#utility.yul\":6601:7154   */\n    tag_191:\n        /* \"#utility.yul\":6659:6667   */\n      0x00\n        /* \"#utility.yul\":6669:6675   */\n      dup1\n        /* \"#utility.yul\":6719:6722   */\n      dup4\n        /* \"#utility.yul\":6712:6716   */\n      0x1f\n        /* \"#utility.yul\":6704:6710   */\n      dup5\n        /* \"#utility.yul\":6700:6717   */\n      add\n        /* \"#utility.yul\":6696:6723   */\n      slt\n        /* \"#utility.yul\":6686:6808   */\n      tag_293\n      jumpi\n        /* \"#utility.yul\":6727:6806   */\n      tag_294\n      tag_188\n      jump\t// in\n    tag_294:\n        /* \"#utility.yul\":6686:6808   */\n    tag_293:\n        /* \"#utility.yul\":6840:6846   */\n      dup3\n        /* \"#utility.yul\":6827:6847   */\n      calldataload\n        /* \"#utility.yul\":6817:6847   */\n      swap1\n      pop\n        /* \"#utility.yul\":6870:6888   */\n      0xffffffffffffffff\n        /* \"#utility.yul\":6862:6868   */\n      dup2\n        /* \"#utility.yul\":6859:6889   */\n      gt\n        /* \"#utility.yul\":6856:6973   */\n      iszero\n      tag_295\n      jumpi\n        /* \"#utility.yul\":6892:6971   */\n      tag_296\n      tag_189\n      jump\t// in\n    tag_296:\n        /* \"#utility.yul\":6856:6973   */\n    tag_295:\n        /* \"#utility.yul\":7006:7010   */\n      0x20\n        /* \"#utility.yul\":6998:7004   */\n      dup4\n        /* \"#utility.yul\":6994:7011   */\n      add\n        /* \"#utility.yul\":6982:7011   */\n      swap2\n      pop\n        /* \"#utility.yul\":7060:7063   */\n      dup4\n        /* \"#utility.yul\":7052:7056   */\n      0x01\n        /* \"#utility.yul\":7044:7050   */\n      dup3\n        /* \"#utility.yul\":7040:7057   */\n      mul\n        /* \"#utility.yul\":7030:7038   */\n      dup4\n        /* \"#utility.yul\":7026:7058   */\n      add\n        /* \"#utility.yul\":7023:7064   */\n      gt\n        /* \"#utility.yul\":7020:7148   */\n      iszero\n      tag_297\n      jumpi\n        /* \"#utility.yul\":7067:7146   */\n      tag_298\n      tag_190\n      jump\t// in\n    tag_298:\n        /* \"#utility.yul\":7020:7148   */\n    tag_297:\n        /* \"#utility.yul\":6601:7154   */\n      swap3\n      pop\n      swap3\n      swap1\n      pop\n      jump\t// out\n        /* \"#utility.yul\":7160:7282   */\n    tag_192:\n        /* \"#utility.yul\":7233:7257   */\n      tag_300\n        /* \"#utility.yul\":7251:7256   */\n      dup2\n        /* \"#utility.yul\":7233:7257   */\n      tag_179\n      jump\t// in\n    tag_300:\n        /* \"#utility.yul\":7226:7231   */\n      dup2\n        /* \"#utility.yul\":7223:7258   */\n      eq\n        /* \"#utility.yul\":7213:7276   */\n      tag_301\n      jumpi\n        /* \"#utility.yul\":7272:7273   */\n      0x00\n        /* \"#utility.yul\":7269:7270   */\n      dup1\n        /* \"#utility.yul\":7262:7274   */\n      revert\n        /* \"#utility.yul\":7213:7276   */\n    tag_301:\n        /* \"#utility.yul\":7160:7282   */\n      pop\n      jump\t// out\n        /* \"#utility.yul\":7288:7427   */\n    tag_193:\n        /* \"#utility.yul\":7334:7339   */\n      0x00\n        /* \"#utility.yul\":7372:7378   */\n      dup2\n        /* \"#utility.yul\":7359:7379   */\n      calldataload\n        /* \"#utility.yul\":7350:7379   */\n      swap1\n      pop\n        /* \"#utility.yul\":7388:7421   */\n      tag_303\n        /* \"#utility.yul\":7415:7420   */\n      dup2\n        /* \"#utility.yul\":7388:7421   */\n      tag_192\n      jump\t// in\n    tag_303:\n        /* \"#utility.yul\":7288:7427   */\n      swap3\n      swap2\n      pop\n      pop\n      jump\t// out\n        /* \"#utility.yul\":7433:8598   */\n    tag_59:\n        /* \"#utility.yul\":7543:7549   */\n      0x00\n        /* \"#utility.yul\":7551:7557   */\n      dup1\n        /* \"#utility.yul\":7559:7565   */\n      0x00\n        /* \"#utility.yul\":7567:7573   */\n      dup1\n        /* \"#utility.yul\":7575:7581   */\n      0x00\n        /* \"#utility.yul\":7583:7589   */\n      dup1\n        /* \"#utility.yul\":7632:7635   */\n      0x80\n        /* \"#utility.yul\":7620:7629   */\n      dup8\n        /* \"#utility.yul\":7611:7618   */\n      dup10\n        /* \"#utility.yul\":7607:7630   */\n      sub\n        /* \"#utility.yul\":7603:7636   */\n      slt\n        /* \"#utility.yul\":7600:7720   */\n      iszero\n      tag_305\n      jumpi\n        /* \"#utility.yul\":7639:7718   */\n      tag_306\n      tag_167\n      jump\t// in\n    tag_306:\n        /* \"#utility.yul\":7600:7720   */\n    tag_305:\n        /* \"#utility.yul\":7787:7788   */\n      0x00\n        /* \"#utility.yul\":7776:7785   */\n      dup8\n        /* \"#utility.yul\":7772:7789   */\n      add\n        /* \"#utility.yul\":7759:7790   */\n      calldataload\n        /* \"#utility.yul\":7817:7835   */\n      0xffffffffffffffff\n        /* \"#utility.yul\":7809:7815   */\n      dup2\n        /* \"#utility.yul\":7806:7836   */\n      gt\n        /* \"#utility.yul\":7803:7920   */\n      iszero\n      tag_307\n      jumpi\n        /* \"#utility.yul\":7839:7918   */\n      tag_308\n      tag_168\n      jump\t// in\n    tag_308:\n        /* \"#utility.yul\":7803:7920   */\n    tag_307:\n        /* \"#utility.yul\":7952:8017   */\n      tag_309\n        /* \"#utility.yul\":8009:8016   */\n      dup10\n        /* \"#utility.yul\":8000:8006   */\n      dup3\n        /* \"#utility.yul\":7989:7998   */\n      dup11\n        /* \"#utility.yul\":7985:8007   */\n      add\n        /* \"#utility.yul\":7952:8017   */\n      tag_191\n      jump\t// in\n    tag_309:\n        /* \"#utility.yul\":7934:8017   */\n      swap7\n      pop\n      swap7\n      pop\n        /* \"#utility.yul\":7730:8027   */\n      pop\n        /* \"#utility.yul\":8094:8096   */\n      0x20\n        /* \"#utility.yul\":8083:8092   */\n      dup8\n        /* \"#utility.yul\":8079:8097   */\n      add\n        /* \"#utility.yul\":8066:8098   */\n      calldataload\n        /* \"#utility.yul\":8125:8143   */\n      0xffffffffffffffff\n        /* \"#utility.yul\":8117:8123   */\n      dup2\n        /* \"#utility.yul\":8114:8144   */\n      gt\n        /* \"#utility.yul\":8111:8228   */\n      iszero\n      tag_310\n      jumpi\n        /* \"#utility.yul\":8147:8226   */\n      tag_311\n      tag_168\n      jump\t// in\n    tag_311:\n        /* \"#utility.yul\":8111:8228   */\n    tag_310:\n        /* \"#utility.yul\":8260:8325   */\n      tag_312\n        /* \"#utility.yul\":8317:8324   */\n      dup10\n        /* \"#utility.yul\":8308:8314   */\n      dup3\n        /* \"#utility.yul\":8297:8306   */\n      dup11\n        /* \"#utility.yul\":8293:8315   */\n      add\n        /* \"#utility.yul\":8260:8325   */\n      tag_191\n      jump\t// in\n    tag_312:\n        /* \"#utility.yul\":8242:8325   */\n      swap5\n      pop\n      swap5\n      pop\n        /* \"#utility.yul\":8037:8335   */\n      pop\n        /* \"#utility.yul\":8374:8376   */\n      0x40\n        /* \"#utility.yul\":8400:8453   */\n      tag_313\n        /* \"#utility.yul\":8445:8452   */\n      dup10\n        /* \"#utility.yul\":8436:8442   */\n      dup3\n        /* \"#utility.yul\":8425:8434   */\n      dup11\n        /* \"#utility.yul\":8421:8443   */\n      add\n        /* \"#utility.yul\":8400:8453   */\n      tag_171\n      jump\t// in\n    tag_313:\n        /* \"#utility.yul\":8390:8453   */\n      swap3\n      pop\n        /* \"#utility.yul\":8345:8463   */\n      pop\n        /* \"#utility.yul\":8502:8504   */\n      0x60\n        /* \"#utility.yul\":8528:8581   */\n      tag_314\n        /* \"#utility.yul\":8573:8580   */\n      dup10\n        /* \"#utility.yul\":8564:8570   */\n      dup3\n        /* \"#utility.yul\":8553:8562   */\n      dup11\n        /* \"#utility.yul\":8549:8571   */\n      add\n        /* \"#utility.yul\":8528:8581   */\n      tag_193\n      jump\t// in\n    tag_314:\n        /* \"#utility.yul\":8518:8581   */\n      swap2\n      pop\n        /* \"#utility.yul\":8473:8591   */\n      pop\n        /* \"#utility.yul\":7433:8598   */\n      swap3\n      swap6\n      pop\n      swap3\n      swap6\n      pop\n      swap3\n      swap6\n      jump\t// out\n        /* \"#utility.yul\":8604:8826   */\n    tag_62:\n        /* \"#utility.yul\":8697:8701   */\n      0x00\n        /* \"#utility.yul\":8735:8737   */\n      0x20\n        /* \"#utility.yul\":8724:8733   */\n      dup3\n        /* \"#utility.yul\":8720:8738   */\n      add\n        /* \"#utility.yul\":8712:8738   */\n      swap1\n      pop\n        /* \"#utility.yul\":8748:8819   */\n      tag_316\n        /* \"#utility.yul\":8816:8817   */\n      0x00\n        /* \"#utility.yul\":8805:8814   */\n      dup4\n        /* \"#utility.yul\":8801:8818   */\n      add\n        /* \"#utility.yul\":8792:8798   */\n      dup5\n        /* \"#utility.yul\":8748:8819   */\n      tag_177\n      jump\t// in\n    tag_316:\n        /* \"#utility.yul\":8604:8826   */\n      swap3\n      swap2\n      pop\n      pop\n      jump\t// out\n        /* \"#utility.yul\":8832:8991   */\n    tag_194:\n        /* \"#utility.yul\":8906:8917   */\n      0x00\n        /* \"#utility.yul\":8940:8946   */\n      dup3\n        /* \"#utility.yul\":8935:8938   */\n      dup3\n        /* \"#utility.yul\":8928:8947   */\n      mstore\n        /* \"#utility.yul\":8980:8984   */\n      0x20\n        /* \"#utility.yul\":8975:8978   */\n      dup3\n        /* \"#utility.yul\":8971:8985   */\n      add\n        /* \"#utility.yul\":8956:8985   */\n      swap1\n      pop\n        /* \"#utility.yul\":8832:8991   */\n      swap3\n      swap2\n      pop\n      pop\n      jump\t// out\n        /* \"#utility.yul\":8997:9354   */\n    tag_195:\n        /* \"#utility.yul\":9075:9078   */\n      0x00\n        /* \"#utility.yul\":9103:9142   */\n      tag_319\n        /* \"#utility.yul\":9136:9141   */\n      dup3\n        /* \"#utility.yul\":9103:9142   */\n      tag_172\n      jump\t// in\n    tag_319:\n        /* \"#utility.yul\":9158:9219   */\n      tag_320\n        /* \"#utility.yul\":9212:9218   */\n      dup2\n        /* \"#utility.yul\":9207:9210   */\n      dup6\n        /* \"#utility.yul\":9158:9219   */\n      tag_194\n      jump\t// in\n    tag_320:\n        /* \"#utility.yul\":9151:9219   */\n      swap4\n      pop\n        /* \"#utility.yul\":9228:9293   */\n      tag_321\n        /* \"#utility.yul\":9286:9292   */\n      dup2\n        /* \"#utility.yul\":9281:9284   */\n      dup6\n        /* \"#utility.yul\":9274:9278   */\n      0x20\n        /* \"#utility.yul\":9267:9272   */\n      dup7\n        /* \"#utility.yul\":9263:9279   */\n      add\n        /* \"#utility.yul\":9228:9293   */\n      tag_174\n      jump\t// in\n    tag_321:\n        /* \"#utility.yul\":9318:9347   */\n      tag_322\n        /* \"#utility.yul\":9340:9346   */\n      dup2\n        /* \"#utility.yul\":9318:9347   */\n      tag_175\n      jump\t// in\n    tag_322:\n        /* \"#utility.yul\":9313:9316   */\n      dup5\n        /* \"#utility.yul\":9309:9348   */\n      add\n        /* \"#utility.yul\":9302:9348   */\n      swap2\n      pop\n        /* \"#utility.yul\":9079:9354   */\n      pop\n        /* \"#utility.yul\":8997:9354   */\n      swap3\n      swap2\n      pop\n      pop\n      jump\t// out\n        /* \"#utility.yul\":9360:9468   */\n    tag_196:\n        /* \"#utility.yul\":9437:9461   */\n      tag_324\n        /* \"#utility.yul\":9455:9460   */\n      dup2\n        /* \"#utility.yul\":9437:9461   */\n      tag_179\n      jump\t// in\n    tag_324:\n        /* \"#utility.yul\":9432:9435   */\n      dup3\n        /* \"#utility.yul\":9425:9462   */\n      mstore\n        /* \"#utility.yul\":9360:9468   */\n      pop\n      pop\n      jump\t// out\n        /* \"#utility.yul\":9548:11133   */\n    tag_197:\n        /* \"#utility.yul\":9665:9668   */\n      0x00\n        /* \"#utility.yul\":9701:9705   */\n      0xe0\n        /* \"#utility.yul\":9696:9699   */\n      dup4\n        /* \"#utility.yul\":9692:9706   */\n      add\n        /* \"#utility.yul\":9790:9794   */\n      0x00\n        /* \"#utility.yul\":9783:9788   */\n      dup4\n        /* \"#utility.yul\":9779:9795   */\n      add\n        /* \"#utility.yul\":9773:9796   */\n      mload\n        /* \"#utility.yul\":9843:9846   */\n      dup5\n        /* \"#utility.yul\":9837:9841   */\n      dup3\n        /* \"#utility.yul\":9833:9847   */\n      sub\n        /* \"#utility.yul\":9826:9830   */\n      0x00\n        /* \"#utility.yul\":9821:9824   */\n      dup7\n        /* \"#utility.yul\":9817:9831   */\n      add\n        /* \"#utility.yul\":9810:9848   */\n      mstore\n        /* \"#utility.yul\":9869:9942   */\n      tag_326\n        /* \"#utility.yul\":9937:9941   */\n      dup3\n        /* \"#utility.yul\":9923:9935   */\n      dup3\n        /* \"#utility.yul\":9869:9942   */\n      tag_195\n      jump\t// in\n    tag_326:\n        /* \"#utility.yul\":9861:9942   */\n      swap2\n      pop\n        /* \"#utility.yul\":9716:9953   */\n      pop\n        /* \"#utility.yul\":10043:10047   */\n      0x20\n        /* \"#utility.yul\":10036:10041   */\n      dup4\n        /* \"#utility.yul\":10032:10048   */\n      add\n        /* \"#utility.yul\":10026:10049   */\n      mload\n        /* \"#utility.yul\":10096:10099   */\n      dup5\n        /* \"#utility.yul\":10090:10094   */\n      dup3\n        /* \"#utility.yul\":10086:10100   */\n      sub\n        /* \"#utility.yul\":10079:10083   */\n      0x20\n        /* \"#utility.yul\":10074:10077   */\n      dup7\n        /* \"#utility.yul\":10070:10084   */\n      add\n        /* \"#utility.yul\":10063:10101   */\n      mstore\n        /* \"#utility.yul\":10122:10195   */\n      tag_327\n        /* \"#utility.yul\":10190:10194   */\n      dup3\n        /* \"#utility.yul\":10176:10188   */\n      dup3\n        /* \"#utility.yul\":10122:10195   */\n      tag_195\n      jump\t// in\n    tag_327:\n        /* \"#utility.yul\":10114:10195   */\n      swap2\n      pop\n        /* \"#utility.yul\":9963:10206   */\n      pop\n        /* \"#utility.yul\":10297:10301   */\n      0x40\n        /* \"#utility.yul\":10290:10295   */\n      dup4\n        /* \"#utility.yul\":10286:10302   */\n      add\n        /* \"#utility.yul\":10280:10303   */\n      mload\n        /* \"#utility.yul\":10316:10379   */\n      tag_328\n        /* \"#utility.yul\":10373:10377   */\n      0x40\n        /* \"#utility.yul\":10368:10371   */\n      dup7\n        /* \"#utility.yul\":10364:10378   */\n      add\n        /* \"#utility.yul\":10350:10362   */\n      dup3\n        /* \"#utility.yul\":10316:10379   */\n      tag_184\n      jump\t// in\n    tag_328:\n        /* \"#utility.yul\":10216:10389   */\n      pop\n        /* \"#utility.yul\":10474:10478   */\n      0x60\n        /* \"#utility.yul\":10467:10472   */\n      dup4\n        /* \"#utility.yul\":10463:10479   */\n      add\n        /* \"#utility.yul\":10457:10480   */\n      mload\n        /* \"#utility.yul\":10493:10556   */\n      tag_329\n        /* \"#utility.yul\":10550:10554   */\n      0x60\n        /* \"#utility.yul\":10545:10548   */\n      dup7\n        /* \"#utility.yul\":10541:10555   */\n      add\n        /* \"#utility.yul\":10527:10539   */\n      dup3\n        /* \"#utility.yul\":10493:10556   */\n      tag_184\n      jump\t// in\n    tag_329:\n        /* \"#utility.yul\":10399:10566   */\n      pop\n        /* \"#utility.yul\":10650:10654   */\n      0x80\n        /* \"#utility.yul\":10643:10648   */\n      dup4\n        /* \"#utility.yul\":10639:10655   */\n      add\n        /* \"#utility.yul\":10633:10656   */\n      mload\n        /* \"#utility.yul\":10669:10732   */\n      tag_330\n        /* \"#utility.yul\":10726:10730   */\n      0x80\n        /* \"#utility.yul\":10721:10724   */\n      dup7\n        /* \"#utility.yul\":10717:10731   */\n      add\n        /* \"#utility.yul\":10703:10715   */\n      dup3\n        /* \"#utility.yul\":10669:10732   */\n      tag_184\n      jump\t// in\n    tag_330:\n        /* \"#utility.yul\":10576:10742   */\n      pop\n        /* \"#utility.yul\":10827:10831   */\n      0xa0\n        /* \"#utility.yul\":10820:10825   */\n      dup4\n        /* \"#utility.yul\":10816:10832   */\n      add\n        /* \"#utility.yul\":10810:10833   */\n      mload\n        /* \"#utility.yul\":10846:10909   */\n      tag_331\n        /* \"#utility.yul\":10903:10907   */\n      0xa0\n        /* \"#utility.yul\":10898:10901   */\n      dup7\n        /* \"#utility.yul\":10894:10908   */\n      add\n        /* \"#utility.yul\":10880:10892   */\n      dup3\n        /* \"#utility.yul\":10846:10909   */\n      tag_184\n      jump\t// in\n    tag_331:\n        /* \"#utility.yul\":10752:10919   */\n      pop\n        /* \"#utility.yul\":11014:11018   */\n      0xc0\n        /* \"#utility.yul\":11007:11012   */\n      dup4\n        /* \"#utility.yul\":11003:11019   */\n      add\n        /* \"#utility.yul\":10997:11020   */\n      mload\n        /* \"#utility.yul\":11033:11096   */\n      tag_332\n        /* \"#utility.yul\":11090:11094   */\n      0xc0\n        /* \"#utility.yul\":11085:11088   */\n      dup7\n        /* \"#utility.yul\":11081:11095   */\n      add\n        /* \"#utility.yul\":11067:11079   */\n      dup3\n        /* \"#utility.yul\":11033:11096   */\n      tag_196\n      jump\t// in\n    tag_332:\n        /* \"#utility.yul\":10929:11106   */\n      pop\n        /* \"#utility.yul\":11123:11127   */\n      dup1\n        /* \"#utility.yul\":11116:11127   */\n      swap2\n      pop\n        /* \"#utility.yul\":9670:11133   */\n      pop\n        /* \"#utility.yul\":9548:11133   */\n      swap3\n      swap2\n      pop\n      pop\n      jump\t// out\n        /* \"#utility.yul\":11139:11508   */\n    tag_75:\n        /* \"#utility.yul\":11280:11284   */\n      0x00\n        /* \"#utility.yul\":11318:11320   */\n      0x20\n        /* \"#utility.yul\":11307:11316   */\n      dup3\n        /* \"#utility.yul\":11303:11321   */\n      add\n        /* \"#utility.yul\":11295:11321   */\n      swap1\n      pop\n        /* \"#utility.yul\":11367:11376   */\n      dup2\n        /* \"#utility.yul\":11361:11365   */\n      dup2\n        /* \"#utility.yul\":11357:11377   */\n      sub\n        /* \"#utility.yul\":11353:11354   */\n      0x00\n        /* \"#utility.yul\":11342:11351   */\n      dup4\n        /* \"#utility.yul\":11338:11355   */\n      add\n        /* \"#utility.yul\":11331:11378   */\n      mstore\n        /* \"#utility.yul\":11395:11501   */\n      tag_334\n        /* \"#utility.yul\":11496:11500   */\n      dup2\n        /* \"#utility.yul\":11487:11493   */\n      dup5\n        /* \"#utility.yul\":11395:11501   */\n      tag_197\n      jump\t// in\n    tag_334:\n        /* \"#utility.yul\":11387:11501   */\n      swap1\n      pop\n        /* \"#utility.yul\":11139:11508   */\n      swap3\n      swap2\n      pop\n      pop\n      jump\t// out\n        /* \"#utility.yul\":11514:11694   */\n    tag_198:\n        /* \"#utility.yul\":11562:11639   */\n      0x4e487b7100000000000000000000000000000000000000000000000000000000\n        /* \"#utility.yul\":11559:11560   */\n      0x00\n        /* \"#utility.yul\":11552:11640   */\n      mstore\n        /* \"#utility.yul\":11659:11663   */\n      0x22\n        /* \"#utility.yul\":11656:11657   */\n      0x04\n        /* \"#utility.yul\":11649:11664   */\n      mstore\n        /* \"#utility.yul\":11683:11687   */\n      0x24\n        /* \"#utility.yul\":11680:11681   */\n      0x00\n        /* \"#utility.yul\":11673:11688   */\n      revert\n        /* \"#utility.yul\":11700:12020   */\n    tag_89:\n        /* \"#utility.yul\":11744:11750   */\n      0x00\n        /* \"#utility.yul\":11781:11782   */\n      0x02\n        /* \"#utility.yul\":11775:11779   */\n      dup3\n        /* \"#utility.yul\":11771:11783   */\n      div\n        /* \"#utility.yul\":11761:11783   */\n      swap1\n      pop\n        /* \"#utility.yul\":11828:11829   */\n      0x01\n        /* \"#utility.yul\":11822:11826   */\n      dup3\n        /* \"#utility.yul\":11818:11830   */\n      and\n        /* \"#utility.yul\":11849:11867   */\n      dup1\n        /* \"#utility.yul\":11839:11920   */\n      tag_337\n      jumpi\n        /* \"#utility.yul\":11905:11909   */\n      0x7f\n        /* \"#utility.yul\":11897:11903   */\n      dup3\n        /* \"#utility.yul\":11893:11910   */\n      and\n        /* \"#utility.yul\":11883:11910   */\n      swap2\n      pop\n        /* \"#utility.yul\":11839:11920   */\n    tag_337:\n        /* \"#utility.yul\":11967:11969   */\n      0x20\n        /* \"#utility.yul\":11959:11965   */\n      dup3\n        /* \"#utility.yul\":11956:11970   */\n      lt\n        /* \"#utility.yul\":11936:11954   */\n      dup2\n        /* \"#utility.yul\":11933:11971   */\n      sub\n        /* \"#utility.yul\":11930:12014   */\n      tag_338\n      jumpi\n        /* \"#utility.yul\":11986:12004   */\n      tag_339\n      tag_198\n      jump\t// in\n    tag_339:\n        /* \"#utility.yul\":11930:12014   */\n    tag_338:\n        /* \"#utility.yul\":11751:12020   */\n      pop\n        /* \"#utility.yul\":11700:12020   */\n      swap2\n      swap1\n      pop\n      jump\t// out\n        /* \"#utility.yul\":12026:12196   */\n    tag_199:\n        /* \"#utility.yul\":12166:12188   */\n      0x566f74696e67206973206e6f74206f70656e6564000000000000000000000000\n        /* \"#utility.yul\":12162:12163   */\n      0x00\n        /* \"#utility.yul\":12154:12160   */\n      dup3\n        /* \"#utility.yul\":12150:12164   */\n      add\n        /* \"#utility.yul\":12143:12189   */\n      mstore\n        /* \"#utility.yul\":12026:12196   */\n      pop\n      jump\t// out\n        /* \"#utility.yul\":12202:12568   */\n    tag_200:\n        /* \"#utility.yul\":12344:12347   */\n      0x00\n        /* \"#utility.yul\":12365:12432   */\n      tag_342\n        /* \"#utility.yul\":12429:12431   */\n      0x14\n        /* \"#utility.yul\":12424:12427   */\n      dup4\n        /* \"#utility.yul\":12365:12432   */\n      tag_173\n      jump\t// in\n    tag_342:\n        /* \"#utility.yul\":12358:12432   */\n      swap2\n      pop\n        /* \"#utility.yul\":12441:12534   */\n      tag_343\n        /* \"#utility.yul\":12530:12533   */\n      dup3\n        /* \"#utility.yul\":12441:12534   */\n      tag_199\n      jump\t// in\n    tag_343:\n        /* \"#utility.yul\":12559:12561   */\n      0x20\n        /* \"#utility.yul\":12554:12557   */\n      dup3\n        /* \"#utility.yul\":12550:12562   */\n      add\n        /* \"#utility.yul\":12543:12562   */\n      swap1\n      pop\n        /* \"#utility.yul\":12202:12568   */\n      swap2\n      swap1\n      pop\n      jump\t// out\n        /* \"#utility.yul\":12574:12993   */\n    tag_103:\n        /* \"#utility.yul\":12740:12744   */\n      0x00\n        /* \"#utility.yul\":12778:12780   */\n      0x20\n        /* \"#utility.yul\":12767:12776   */\n      dup3\n        /* \"#utility.yul\":12763:12781   */\n      add\n        /* \"#utility.yul\":12755:12781   */\n      swap1\n      pop\n        /* \"#utility.yul\":12827:12836   */\n      dup2\n        /* \"#utility.yul\":12821:12825   */\n      dup2\n        /* \"#utility.yul\":12817:12837   */\n      sub\n        /* \"#utility.yul\":12813:12814   */\n      0x00\n        /* \"#utility.yul\":12802:12811   */\n      dup4\n        /* \"#utility.yul\":12798:12815   */\n      add\n        /* \"#utility.yul\":12791:12838   */\n      mstore\n        /* \"#utility.yul\":12855:12986   */\n      tag_345\n        /* \"#utility.yul\":12981:12985   */\n      dup2\n        /* \"#utility.yul\":12855:12986   */\n      tag_200\n      jump\t// in\n    tag_345:\n        /* \"#utility.yul\":12847:12986   */\n      swap1\n      pop\n        /* \"#utility.yul\":12574:12993   */\n      swap2\n      swap1\n      pop\n      jump\t// out\n        /* \"#utility.yul\":12999:13179   */\n    tag_201:\n        /* \"#utility.yul\":13047:13124   */\n      0x4e487b7100000000000000000000000000000000000000000000000000000000\n        /* \"#utility.yul\":13044:13045   */\n      0x00\n        /* \"#utility.yul\":13037:13125   */\n      mstore\n        /* \"#utility.yul\":13144:13148   */\n      0x11\n        /* \"#utility.yul\":13141:13142   */\n      0x04\n        /* \"#utility.yul\":13134:13149   */\n      mstore\n        /* \"#utility.yul\":13168:13172   */\n      0x24\n        /* \"#utility.yul\":13165:13166   */\n      0x00\n        /* \"#utility.yul\":13158:13173   */\n      revert\n        /* \"#utility.yul\":13185:13418   */\n    tag_119:\n        /* \"#utility.yul\":13224:13227   */\n      0x00\n        /* \"#utility.yul\":13247:13271   */\n      tag_348\n        /* \"#utility.yul\":13265:13270   */\n      dup3\n        /* \"#utility.yul\":13247:13271   */\n      tag_169\n      jump\t// in\n    tag_348:\n        /* \"#utility.yul\":13238:13271   */\n      swap2\n      pop\n        /* \"#utility.yul\":13293:13359   */\n      0xffffffffffffffffffffffffffffffffffffffffffffffffffffffffffffffff\n        /* \"#utility.yul\":13286:13291   */\n      dup3\n        /* \"#utility.yul\":13283:13360   */\n      sub\n        /* \"#utility.yul\":13280:13383   */\n      tag_349\n      jumpi\n        /* \"#utility.yul\":13363:13381   */\n      tag_350\n      tag_201\n      jump\t// in\n    tag_350:\n        /* \"#utility.yul\":13280:13383   */\n    tag_349:\n        /* \"#utility.yul\":13410:13411   */\n      0x01\n        /* \"#utility.yul\":13403:13408   */\n      dup3\n        /* \"#utility.yul\":13399:13412   */\n      add\n        /* \"#utility.yul\":13392:13412   */\n      swap1\n      pop\n        /* \"#utility.yul\":13185:13418   */\n      swap2\n      swap1\n      pop\n      jump\t// out\n        /* \"#utility.yul\":13424:13604   */\n    tag_202:\n        /* \"#utility.yul\":13472:13549   */\n      0x4e487b7100000000000000000000000000000000000000000000000000000000\n        /* \"#utility.yul\":13469:13470   */\n      0x00\n        /* \"#utility.yul\":13462:13550   */\n      mstore\n        /* \"#utility.yul\":13569:13573   */\n      0x41\n        /* \"#utility.yul\":13566:13567   */\n      0x04\n        /* \"#utility.yul\":13559:13574   */\n      mstore\n        /* \"#utility.yul\":13593:13597   */\n      0x24\n        /* \"#utility.yul\":13590:13591   */\n      0x00\n        /* \"#utility.yul\":13583:13598   */\n      revert\n        /* \"#utility.yul\":13610:13751   */\n    tag_203:\n        /* \"#utility.yul\":13659:13663   */\n      0x00\n        /* \"#utility.yul\":13682:13685   */\n      dup2\n        /* \"#utility.yul\":13674:13685   */\n      swap1\n      pop\n        /* \"#utility.yul\":13705:13708   */\n      dup2\n        /* \"#utility.yul\":13702:13703   */\n      0x00\n        /* \"#utility.yul\":13695:13709   */\n      mstore\n        /* \"#utility.yul\":13739:13743   */\n      0x20\n        /* \"#utility.yul\":13736:13737   */\n      0x00\n        /* \"#utility.yul\":13726:13744   */\n      keccak256\n        /* \"#utility.yul\":13718:13744   */\n      swap1\n      pop\n        /* \"#utility.yul\":13610:13751   */\n      swap2\n      swap1\n      pop\n      jump\t// out\n        /* \"#utility.yul\":13757:13850   */\n    tag_204:\n        /* \"#utility.yul\":13794:13800   */\n      0x00\n        /* \"#utility.yul\":13841:13843   */\n      0x20\n        /* \"#utility.yul\":13836:13838   */\n      0x1f\n        /* \"#utility.yul\":13829:13834   */\n      dup4\n        /* \"#utility.yul\":13825:13839   */\n      add\n        /* \"#utility.yul\":13821:13844   */\n      div\n        /* \"#utility.yul\":13811:13844   */\n      swap1\n      pop\n        /* \"#utility.yul\":13757:13850   */\n      swap2\n      swap1\n      pop\n      jump\t// out\n        /* \"#utility.yul\":13856:13963   */\n    tag_205:\n        /* \"#utility.yul\":13900:13908   */\n      0x00\n        /* \"#utility.yul\":13950:13955   */\n      dup3\n        /* \"#utility.yul\":13944:13948   */\n      dup3\n        /* \"#utility.yul\":13940:13956   */\n      shl\n        /* \"#utility.yul\":13919:13956   */\n      swap1\n      pop\n        /* \"#utility.yul\":13856:13963   */\n      swap3\n      swap2\n      pop\n      pop\n      jump\t// out\n        /* \"#utility.yul\":13969:14362   */\n    tag_206:\n        /* \"#utility.yul\":14038:14044   */\n      0x00\n        /* \"#utility.yul\":14088:14089   */\n      0x08\n        /* \"#utility.yul\":14076:14086   */\n      dup4\n        /* \"#utility.yul\":14072:14090   */\n      mul\n        /* \"#utility.yul\":14111:14208   */\n      tag_356\n        /* \"#utility.yul\":14141:14207   */\n      0xffffffffffffffffffffffffffffffffffffffffffffffffffffffffffffffff\n        /* \"#utility.yul\":14130:14139   */\n      dup3\n        /* \"#utility.yul\":14111:14208   */\n      tag_205\n      jump\t// in\n    tag_356:\n        /* \"#utility.yul\":14229:14268   */\n      tag_357\n        /* \"#utility.yul\":14259:14267   */\n      dup7\n        /* \"#utility.yul\":14248:14257   */\n      dup4\n        /* \"#utility.yul\":14229:14268   */\n      tag_205\n      jump\t// in\n    tag_357:\n        /* \"#utility.yul\":14217:14268   */\n      swap6\n      pop\n        /* \"#utility.yul\":14301:14305   */\n      dup1\n        /* \"#utility.yul\":14297:14306   */\n      not\n        /* \"#utility.yul\":14290:14295   */\n      dup5\n        /* \"#utility.yul\":14286:14307   */\n      and\n        /* \"#utility.yul\":14277:14307   */\n      swap4\n      pop\n        /* \"#utility.yul\":14350:14354   */\n      dup1\n        /* \"#utility.yul\":14340:14348   */\n      dup7\n        /* \"#utility.yul\":14336:14355   */\n      and\n        /* \"#utility.yul\":14329:14334   */\n      dup5\n        /* \"#utility.yul\":14326:14356   */\n      or\n        /* \"#utility.yul\":14316:14356   */\n      swap3\n      pop\n        /* \"#utility.yul\":14045:14362   */\n      pop\n      pop\n        /* \"#utility.yul\":13969:14362   */\n      swap4\n      swap3\n      pop\n      pop\n      pop\n      jump\t// out\n        /* \"#utility.yul\":14368:14428   */\n    tag_207:\n        /* \"#utility.yul\":14396:14399   */\n      0x00\n        /* \"#utility.yul\":14417:14422   */\n      dup2\n        /* \"#utility.yul\":14410:14422   */\n      swap1\n      pop\n        /* \"#utility.yul\":14368:14428   */\n      swap2\n      swap1\n      pop\n      jump\t// out\n        /* \"#utility.yul\":14434:14576   */\n    tag_208:\n        /* \"#utility.yul\":14484:14493   */\n      0x00\n        /* \"#utility.yul\":14517:14570   */\n      tag_360\n        /* \"#utility.yul\":14535:14569   */\n      tag_361\n        /* \"#utility.yul\":14544:14568   */\n      tag_362\n        /* \"#utility.yul\":14562:14567   */\n      dup5\n        /* \"#utility.yul\":14544:14568   */\n      tag_169\n      jump\t// in\n    tag_362:\n        /* \"#utility.yul\":14535:14569   */\n      tag_207\n      jump\t// in\n    tag_361:\n        /* \"#utility.yul\":14517:14570   */\n      tag_169\n      jump\t// in\n    tag_360:\n        /* \"#utility.yul\":14504:14570   */\n      swap1\n      pop\n        /* \"#utility.yul\":14434:14576   */\n      swap2\n      swap1\n      pop\n      jump\t// out\n        /* \"#utility.yul\":14582:14657   */\n    tag_209:\n        /* \"#utility.yul\":14625:14628   */\n      0x00\n        /* \"#utility.yul\":14646:14651   */\n      dup2\n        /* \"#utility.yul\":14639:14651   */\n      swap1\n      pop\n        /* \"#utility.yul\":14582:14657   */\n      swap2\n      swap1\n      pop\n      jump\t// out\n        /* \"#utility.yul\":14663:14932   */\n    tag_210:\n        /* \"#utility.yul\":14773:14812   */\n      tag_365\n        /* \"#utility.yul\":14804:14811   */\n      dup4\n        /* \"#utility.yul\":14773:14812   */\n      tag_208\n      jump\t// in\n    tag_365:\n        /* \"#utility.yul\":14834:14925   */\n      tag_366\n        /* \"#utility.yul\":14883:14924   */\n      tag_367\n        /* \"#utility.yul\":14907:14923   */\n      dup3\n        /* \"#utility.yul\":14883:14924   */\n      tag_209\n      jump\t// in\n    tag_367:\n        /* \"#utility.yul\":14875:14881   */\n      dup5\n        /* \"#utility.yul\":14868:14872   */\n      dup5\n        /* \"#utility.yul\":14862:14873   */\n      sload\n        /* \"#utility.yul\":14834:14925   */\n      tag_206\n      jump\t// in\n    tag_366:\n        /* \"#utility.yul\":14828:14832   */\n      dup3\n        /* \"#utility.yul\":14821:14926   */\n      sstore\n        /* \"#utility.yul\":14739:14932   */\n      pop\n        /* \"#utility.yul\":14663:14932   */\n      pop\n      pop\n      pop\n      jump\t// out\n        /* \"#utility.yul\":14938:15011   */\n    tag_211:\n        /* \"#utility.yul\":14983:14986   */\n      0x00\n        /* \"#utility.yul\":14938:15011   */\n      swap1\n      jump\t// out\n        /* \"#utility.yul\":15017:15206   */\n    tag_212:\n        /* \"#utility.yul\":15094:15126   */\n      tag_370\n      tag_211\n      jump\t// in\n    tag_370:\n        /* \"#utility.yul\":15135:15200   */\n      tag_371\n        /* \"#utility.yul\":15193:15199   */\n      dup2\n        /* \"#utility.yul\":15185:15191   */\n      dup5\n        /* \"#utility.yul\":15179:15183   */\n      dup5\n        /* \"#utility.yul\":15135:15200   */\n      tag_210\n      jump\t// in\n    tag_371:\n        /* \"#utility.yul\":15070:15206   */\n      pop\n        /* \"#utility.yul\":15017:15206   */\n      pop\n      pop\n      jump\t// out\n        /* \"#utility.yul\":15212:15398   */\n    tag_213:\n        /* \"#utility.yul\":15272:15392   */\n    tag_373:\n        /* \"#utility.yul\":15289:15292   */\n      dup2\n        /* \"#utility.yul\":15282:15287   */\n      dup2\n        /* \"#utility.yul\":15279:15293   */\n      lt\n        /* \"#utility.yul\":15272:15392   */\n      iszero\n      tag_375\n      jumpi\n        /* \"#utility.yul\":15343:15382   */\n      tag_376\n        /* \"#utility.yul\":15380:15381   */\n      0x00\n        /* \"#utility.yul\":15373:15378   */\n      dup3\n        /* \"#utility.yul\":15343:15382   */\n      tag_212\n      jump\t// in\n    tag_376:\n        /* \"#utility.yul\":15316:15317   */\n      0x01\n        /* \"#utility.yul\":15309:15314   */\n      dup2\n        /* \"#utility.yul\":15305:15318   */\n      add\n        /* \"#utility.yul\":15296:15318   */\n      swap1\n      pop\n        /* \"#utility.yul\":15272:15392   */\n      jump(tag_373)\n    tag_375:\n        /* \"#utility.yul\":15212:15398   */\n      pop\n      pop\n      jump\t// out\n        /* \"#utility.yul\":15404:15947   */\n    tag_214:\n        /* \"#utility.yul\":15505:15507   */\n      0x1f\n        /* \"#utility.yul\":15500:15503   */\n      dup3\n        /* \"#utility.yul\":15497:15508   */\n      gt\n        /* \"#utility.yul\":15494:15940   */\n      iszero\n      tag_378\n      jumpi\n        /* \"#utility.yul\":15539:15577   */\n      tag_379\n        /* \"#utility.yul\":15571:15576   */\n      dup2\n        /* \"#utility.yul\":15539:15577   */\n      tag_203\n      jump\t// in\n    tag_379:\n        /* \"#utility.yul\":15623:15652   */\n      tag_380\n        /* \"#utility.yul\":15641:15651   */\n      dup5\n        /* \"#utility.yul\":15623:15652   */\n      tag_204\n      jump\t// in\n    tag_380:\n        /* \"#utility.yul\":15613:15621   */\n      dup2\n        /* \"#utility.yul\":15609:15653   */\n      add\n        /* \"#utility.yul\":15806:15808   */\n      0x20\n        /* \"#utility.yul\":15794:15804   */\n      dup6\n        /* \"#utility.yul\":15791:15809   */\n      lt\n        /* \"#utility.yul\":15788:15837   */\n      iszero\n      tag_381\n      jumpi\n        /* \"#utility.yul\":15827:15835   */\n      dup2\n        /* \"#utility.yul\":15812:15835   */\n      swap1\n      pop\n        /* \"#utility.yul\":15788:15837   */\n    tag_381:\n        /* \"#utility.yul\":15850:15930   */\n      tag_382\n        /* \"#utility.yul\":15906:15928   */\n      tag_383\n        /* \"#utility.yul\":15924:15927   */\n      dup6\n        /* \"#utility.yul\":15906:15928   */\n      tag_204\n      jump\t// in\n    tag_383:\n        /* \"#utility.yul\":15896:15904   */\n      dup4\n        /* \"#utility.yul\":15892:15929   */\n      add\n        /* \"#utility.yul\":15879:15890   */\n      dup3\n        /* \"#utility.yul\":15850:15930   */\n      tag_213\n      jump\t// in\n    tag_382:\n        /* \"#utility.yul\":15509:15940   */\n      pop\n      pop\n        /* \"#utility.yul\":15494:15940   */\n    tag_378:\n        /* \"#utility.yul\":15404:15947   */\n      pop\n      pop\n      pop\n      jump\t// out\n        /* \"#utility.yul\":15953:16070   */\n    tag_215:\n        /* \"#utility.yul\":16007:16015   */\n      0x00\n        /* \"#utility.yul\":16057:16062   */\n      dup3\n        /* \"#utility.yul\":16051:16055   */\n      dup3\n        /* \"#utility.yul\":16047:16063   */\n      shr\n        /* \"#utility.yul\":16026:16063   */\n      swap1\n      pop\n        /* \"#utility.yul\":15953:16070   */\n      swap3\n      swap2\n      pop\n      pop\n      jump\t// out\n        /* \"#utility.yul\":16076:16245   */\n    tag_216:\n        /* \"#utility.yul\":16120:16126   */\n      0x00\n        /* \"#utility.yul\":16153:16204   */\n      tag_386\n        /* \"#utility.yul\":16201:16202   */\n      0x00\n        /* \"#utility.yul\":16197:16203   */\n      not\n        /* \"#utility.yul\":16189:16194   */\n      dup5\n        /* \"#utility.yul\":16186:16187   */\n      0x08\n        /* \"#utility.yul\":16182:16195   */\n      mul\n        /* \"#utility.yul\":16153:16204   */\n      tag_215\n      jump\t// in\n    tag_386:\n        /* \"#utility.yul\":16149:16205   */\n      not\n        /* \"#utility.yul\":16234:16238   */\n      dup1\n        /* \"#utility.yul\":16228:16232   */\n      dup4\n        /* \"#utility.yul\":16224:16239   */\n      and\n        /* \"#utility.yul\":16214:16239   */\n      swap2\n      pop\n        /* \"#utility.yul\":16127:16245   */\n      pop\n        /* \"#utility.yul\":16076:16245   */\n      swap3\n      swap2\n      pop\n      pop\n      jump\t// out\n        /* \"#utility.yul\":16250:16545   */\n    tag_217:\n        /* \"#utility.yul\":16326:16330   */\n      0x00\n        /* \"#utility.yul\":16472:16501   */\n      tag_388\n        /* \"#utility.yul\":16497:16500   */\n      dup4\n        /* \"#utility.yul\":16491:16495   */\n      dup4\n        /* \"#utility.yul\":16472:16501   */\n      tag_216\n      jump\t// in\n    tag_388:\n        /* \"#utility.yul\":16464:16501   */\n      swap2\n      pop\n        /* \"#utility.yul\":16534:16537   */\n      dup3\n        /* \"#utility.yul\":16531:16532   */\n      0x02\n        /* \"#utility.yul\":16527:16538   */\n      mul\n        /* \"#utility.yul\":16521:16525   */\n      dup3\n        /* \"#utility.yul\":16518:16539   */\n      or\n        /* \"#utility.yul\":16510:16539   */\n      swap1\n      pop\n        /* \"#utility.yul\":16250:16545   */\n      swap3\n      swap2\n      pop\n      pop\n      jump\t// out\n        /* \"#utility.yul\":16550:17945   */\n    tag_121:\n        /* \"#utility.yul\":16667:16704   */\n      tag_390\n        /* \"#utility.yul\":16700:16703   */\n      dup3\n        /* \"#utility.yul\":16667:16704   */\n      tag_172\n      jump\t// in\n    tag_390:\n        /* \"#utility.yul\":16769:16787   */\n      0xffffffffffffffff\n        /* \"#utility.yul\":16761:16767   */\n      dup2\n        /* \"#utility.yul\":16758:16788   */\n      gt\n        /* \"#utility.yul\":16755:16811   */\n      iszero\n      tag_391\n      jumpi\n        /* \"#utility.yul\":16791:16809   */\n      tag_392\n      tag_202\n      jump\t// in\n    tag_392:\n        /* \"#utility.yul\":16755:16811   */\n    tag_391:\n        /* \"#utility.yul\":16835:16873   */\n      tag_393\n        /* \"#utility.yul\":16867:16871   */\n      dup3\n        /* \"#utility.yul\":16861:16872   */\n      sload\n        /* \"#utility.yul\":16835:16873   */\n      tag_89\n      jump\t// in\n    tag_393:\n        /* \"#utility.yul\":16920:16987   */\n      tag_394\n        /* \"#utility.yul\":16980:16986   */\n      dup3\n        /* \"#utility.yul\":16972:16978   */\n      dup3\n        /* \"#utility.yul\":16966:16970   */\n      dup6\n        /* \"#utility.yul\":16920:16987   */\n      tag_214\n      jump\t// in\n    tag_394:\n        /* \"#utility.yul\":17014:17015   */\n      0x00\n        /* \"#utility.yul\":17038:17042   */\n      0x20\n        /* \"#utility.yul\":17025:17042   */\n      swap1\n      pop\n        /* \"#utility.yul\":17070:17072   */\n      0x1f\n        /* \"#utility.yul\":17062:17068   */\n      dup4\n        /* \"#utility.yul\":17059:17073   */\n      gt\n        /* \"#utility.yul\":17087:17088   */\n      0x01\n        /* \"#utility.yul\":17082:17700   */\n      dup2\n      eq\n      tag_396\n      jumpi\n        /* \"#utility.yul\":17744:17745   */\n      0x00\n        /* \"#utility.yul\":17761:17767   */\n      dup5\n        /* \"#utility.yul\":17758:17835   */\n      iszero\n      tag_397\n      jumpi\n        /* \"#utility.yul\":17810:17819   */\n      dup3\n        /* \"#utility.yul\":17805:17808   */\n      dup8\n        /* \"#utility.yul\":17801:17820   */\n      add\n        /* \"#utility.yul\":17795:17821   */\n      mload\n        /* \"#utility.yul\":17786:17821   */\n      swap1\n      pop\n        /* \"#utility.yul\":17758:17835   */\n    tag_397:\n        /* \"#utility.yul\":17861:17928   */\n      tag_398\n        /* \"#utility.yul\":17921:17927   */\n      dup6\n        /* \"#utility.yul\":17914:17919   */\n      dup3\n        /* \"#utility.yul\":17861:17928   */\n      tag_217\n      jump\t// in\n    tag_398:\n        /* \"#utility.yul\":17855:17859   */\n      dup7\n        /* \"#utility.yul\":17848:17929   */\n      sstore\n        /* \"#utility.yul\":17717:17939   */\n      pop\n        /* \"#utility.yul\":17052:17939   */\n      jump(tag_395)\n        /* \"#utility.yul\":17082:17700   */\n    tag_396:\n        /* \"#utility.yul\":17134:17138   */\n      0x1f\n        /* \"#utility.yul\":17130:17139   */\n      not\n        /* \"#utility.yul\":17122:17128   */\n      dup5\n        /* \"#utility.yul\":17118:17140   */\n      and\n        /* \"#utility.yul\":17168:17205   */\n      tag_399\n        /* \"#utility.yul\":17200:17204   */\n      dup7\n        /* \"#utility.yul\":17168:17205   */\n      tag_203\n      jump\t// in\n    tag_399:\n        /* \"#utility.yul\":17227:17228   */\n      0x00\n        /* \"#utility.yul\":17241:17449   */\n    tag_400:\n        /* \"#utility.yul\":17255:17262   */\n      dup3\n        /* \"#utility.yul\":17252:17253   */\n      dup2\n        /* \"#utility.yul\":17249:17263   */\n      lt\n        /* \"#utility.yul\":17241:17449   */\n      iszero\n      tag_402\n      jumpi\n        /* \"#utility.yul\":17334:17343   */\n      dup5\n        /* \"#utility.yul\":17329:17332   */\n      dup10\n        /* \"#utility.yul\":17325:17344   */\n      add\n        /* \"#utility.yul\":17319:17345   */\n      mload\n        /* \"#utility.yul\":17311:17317   */\n      dup3\n        /* \"#utility.yul\":17304:17346   */\n      sstore\n        /* \"#utility.yul\":17385:17386   */\n      0x01\n        /* \"#utility.yul\":17377:17383   */\n      dup3\n        /* \"#utility.yul\":17373:17387   */\n      add\n        /* \"#utility.yul\":17363:17387   */\n      swap2\n      pop\n        /* \"#utility.yul\":17432:17434   */\n      0x20\n        /* \"#utility.yul\":17421:17430   */\n      dup6\n        /* \"#utility.yul\":17417:17435   */\n      add\n        /* \"#utility.yul\":17404:17435   */\n      swap5\n      pop\n        /* \"#utility.yul\":17278:17282   */\n      0x20\n        /* \"#utility.yul\":17275:17276   */\n      dup2\n        /* \"#utility.yul\":17271:17283   */\n      add\n        /* \"#utility.yul\":17266:17283   */\n      swap1\n      pop\n        /* \"#utility.yul\":17241:17449   */\n      jump(tag_400)\n    tag_402:\n        /* \"#utility.yul\":17477:17483   */\n      dup7\n        /* \"#utility.yul\":17468:17475   */\n      dup4\n        /* \"#utility.yul\":17465:17484   */\n      lt\n        /* \"#utility.yul\":17462:17641   */\n      iszero\n      tag_403\n      jumpi\n        /* \"#utility.yul\":17535:17544   */\n      dup5\n        /* \"#utility.yul\":17530:17533   */\n      dup10\n        /* \"#utility.yul\":17526:17545   */\n      add\n        /* \"#utility.yul\":17520:17546   */\n      mload\n        /* \"#utility.yul\":17578:17626   */\n      tag_404\n        /* \"#utility.yul\":17620:17624   */\n      0x1f\n        /* \"#utility.yul\":17612:17618   */\n      dup10\n        /* \"#utility.yul\":17608:17625   */\n      and\n        /* \"#utility.yul\":17597:17606   */\n      dup3\n        /* \"#utility.yul\":17578:17626   */\n      tag_216\n      jump\t// in\n    tag_404:\n        /* \"#utility.yul\":17570:17576   */\n      dup4\n        /* \"#utility.yul\":17563:17627   */\n      sstore\n        /* \"#utility.yul\":17485:17641   */\n      pop\n        /* \"#utility.yul\":17462:17641   */\n    tag_403:\n        /* \"#utility.yul\":17687:17688   */\n      0x01\n        /* \"#utility.yul\":17683:17684   */\n      0x02\n        /* \"#utility.yul\":17675:17681   */\n      dup9\n        /* \"#utility.yul\":17671:17685   */\n      mul\n        /* \"#utility.yul\":17667:17689   */\n      add\n        /* \"#utility.yul\":17661:17665   */\n      dup9\n        /* \"#utility.yul\":17654:17690   */\n      sstore\n        /* \"#utility.yul\":17089:17700   */\n      pop\n      pop\n      pop\n        /* \"#utility.yul\":17052:17939   */\n    tag_395:\n      pop\n        /* \"#utility.yul\":16642:17945   */\n      pop\n      pop\n      pop\n        /* \"#utility.yul\":16550:17945   */\n      pop\n      pop\n      jump\t// out\n        /* \"#utility.yul\":17951:18110   */\n    tag_218:\n        /* \"#utility.yul\":18091:18102   */\n      0x4e6f74206f776e65720000000000000000000000000000000000000000000000\n        /* \"#utility.yul\":18087:18088   */\n      0x00\n        /* \"#utility.yul\":18079:18085   */\n      dup3\n        /* \"#utility.yul\":18075:18089   */\n      add\n        /* \"#utility.yul\":18068:18103   */\n      mstore\n        /* \"#utility.yul\":17951:18110   */\n      pop\n      jump\t// out\n        /* \"#utility.yul\":18116:18481   */\n    tag_219:\n        /* \"#utility.yul\":18258:18261   */\n      0x00\n        /* \"#utility.yul\":18279:18345   */\n      tag_407\n        /* \"#utility.yul\":18343:18344   */\n      0x09\n        /* \"#utility.yul\":18338:18341   */\n      dup4\n        /* \"#utility.yul\":18279:18345   */\n      tag_173\n      jump\t// in\n    tag_407:\n        /* \"#utility.yul\":18272:18345   */\n      swap2\n      pop\n        /* \"#utility.yul\":18354:18447   */\n      tag_408\n        /* \"#utility.yul\":18443:18446   */\n      dup3\n        /* \"#utility.yul\":18354:18447   */\n      tag_218\n      jump\t// in\n    tag_408:\n        /* \"#utility.yul\":18472:18474   */\n      0x20\n        /* \"#utility.yul\":18467:18470   */\n      dup3\n        /* \"#utility.yul\":18463:18475   */\n      add\n        /* \"#utility.yul\":18456:18475   */\n      swap1\n      pop\n        /* \"#utility.yul\":18116:18481   */\n      swap2\n      swap1\n      pop\n      jump\t// out\n        /* \"#utility.yul\":18487:18906   */\n    tag_130:\n        /* \"#utility.yul\":18653:18657   */\n      0x00\n        /* \"#utility.yul\":18691:18693   */\n      0x20\n        /* \"#utility.yul\":18680:18689   */\n      dup3\n        /* \"#utility.yul\":18676:18694   */\n      add\n        /* \"#utility.yul\":18668:18694   */\n      swap1\n      pop\n        /* \"#utility.yul\":18740:18749   */\n      dup2\n        /* \"#utility.yul\":18734:18738   */\n      dup2\n        /* \"#utility.yul\":18730:18750   */\n      sub\n        /* \"#utility.yul\":18726:18727   */\n      0x00\n        /* \"#utility.yul\":18715:18724   */\n      dup4\n        /* \"#utility.yul\":18711:18728   */\n      add\n        /* \"#utility.yul\":18704:18751   */\n      mstore\n        /* \"#utility.yul\":18768:18899   */\n      tag_410\n        /* \"#utility.yul\":18894:18898   */\n      dup2\n        /* \"#utility.yul\":18768:18899   */\n      tag_219\n      jump\t// in\n    tag_410:\n        /* \"#utility.yul\":18760:18899   */\n      swap1\n      pop\n        /* \"#utility.yul\":18487:18906   */\n      swap2\n      swap1\n      pop\n      jump\t// out\n        /* \"#utility.yul\":18912:19148   */\n    tag_220:\n        /* \"#utility.yul\":19052:19086   */\n      0x45737465207061727469636970616e7465206e6f206573746120696e73637269\n        /* \"#utility.yul\":19048:19049   */\n      0x00\n        /* \"#utility.yul\":19040:19046   */\n      dup3\n        /* \"#utility.yul\":19036:19050   */\n      add\n        /* \"#utility.yul\":19029:19087   */\n      mstore\n        /* \"#utility.yul\":19121:19140   */\n      0x746f20656e206c6120766f746163696f6e000000000000000000000000000000\n        /* \"#utility.yul\":19116:19118   */\n      0x20\n        /* \"#utility.yul\":19108:19114   */\n      dup3\n        /* \"#utility.yul\":19104:19119   */\n      add\n        /* \"#utility.yul\":19097:19141   */\n      mstore\n        /* \"#utility.yul\":18912:19148   */\n      pop\n      jump\t// out\n        /* \"#utility.yul\":19154:19520   */\n    tag_221:\n        /* \"#utility.yul\":19296:19299   */\n      0x00\n        /* \"#utility.yul\":19317:19384   */\n      tag_413\n        /* \"#utility.yul\":19381:19383   */\n      0x31\n        /* \"#utility.yul\":19376:19379   */\n      dup4\n        /* \"#utility.yul\":19317:19384   */\n      tag_173\n      jump\t// in\n    tag_413:\n        /* \"#utility.yul\":19310:19384   */\n      swap2\n      pop\n        /* \"#utility.yul\":19393:19486   */\n      tag_414\n        /* \"#utility.yul\":19482:19485   */\n      dup3\n        /* \"#utility.yul\":19393:19486   */\n      tag_220\n      jump\t// in\n    tag_414:\n        /* \"#utility.yul\":19511:19513   */\n      0x40\n        /* \"#utility.yul\":19506:19509   */\n      dup3\n        /* \"#utility.yul\":19502:19514   */\n      add\n        /* \"#utility.yul\":19495:19514   */\n      swap1\n      pop\n        /* \"#utility.yul\":19154:19520   */\n      swap2\n      swap1\n      pop\n      jump\t// out\n        /* \"#utility.yul\":19526:19945   */\n    tag_155:\n        /* \"#utility.yul\":19692:19696   */\n      0x00\n        /* \"#utility.yul\":19730:19732   */\n      0x20\n        /* \"#utility.yul\":19719:19728   */\n      dup3\n        /* \"#utility.yul\":19715:19733   */\n      add\n        /* \"#utility.yul\":19707:19733   */\n      swap1\n      pop\n        /* \"#utility.yul\":19779:19788   */\n      dup2\n        /* \"#utility.yul\":19773:19777   */\n      dup2\n        /* \"#utility.yul\":19769:19789   */\n      sub\n        /* \"#utility.yul\":19765:19766   */\n      0x00\n        /* \"#utility.yul\":19754:19763   */\n      dup4\n        /* \"#utility.yul\":19750:19767   */\n      add\n        /* \"#utility.yul\":19743:19790   */\n      mstore\n        /* \"#utility.yul\":19807:19938   */\n      tag_416\n        /* \"#utility.yul\":19933:19937   */\n      dup2\n        /* \"#utility.yul\":19807:19938   */\n      tag_221\n      jump\t// in\n    tag_416:\n        /* \"#utility.yul\":19799:19938   */\n      swap1\n      pop\n        /* \"#utility.yul\":19526:19945   */\n      swap2\n      swap1\n      pop\n      jump\t// out\n        /* \"#utility.yul\":19951:20119   */\n    tag_222:\n        /* \"#utility.yul\":20091:20111   */\n      0x4e6f20737566696369656e742066756e64730000000000000000000000000000\n        /* \"#utility.yul\":20087:20088   */\n      0x00\n        /* \"#utility.yul\":20079:20085   */\n      dup3\n        /* \"#utility.yul\":20075:20089   */\n      add\n        /* \"#utility.yul\":20068:20112   */\n      mstore\n        /* \"#utility.yul\":19951:20119   */\n      pop\n      jump\t// out\n        /* \"#utility.yul\":20125:20491   */\n    tag_223:\n        /* \"#utility.yul\":20267:20270   */\n      0x00\n        /* \"#utility.yul\":20288:20355   */\n      tag_419\n        /* \"#utility.yul\":20352:20354   */\n      0x12\n        /* \"#utility.yul\":20347:20350   */\n      dup4\n        /* \"#utility.yul\":20288:20355   */\n      tag_173\n      jump\t// in\n    tag_419:\n        /* \"#utility.yul\":20281:20355   */\n      swap2\n      pop\n        /* \"#utility.yul\":20364:20457   */\n      tag_420\n        /* \"#utility.yul\":20453:20456   */\n      dup3\n        /* \"#utility.yul\":20364:20457   */\n      tag_222\n      jump\t// in\n    tag_420:\n        /* \"#utility.yul\":20482:20484   */\n      0x20\n        /* \"#utility.yul\":20477:20480   */\n      dup3\n        /* \"#utility.yul\":20473:20485   */\n      add\n        /* \"#utility.yul\":20466:20485   */\n      swap1\n      pop\n        /* \"#utility.yul\":20125:20491   */\n      swap2\n      swap1\n      pop\n      jump\t// out\n        /* \"#utility.yul\":20497:20916   */\n    tag_163:\n        /* \"#utility.yul\":20663:20667   */\n      0x00\n        /* \"#utility.yul\":20701:20703   */\n      0x20\n        /* \"#utility.yul\":20690:20699   */\n      dup3\n        /* \"#utility.yul\":20686:20704   */\n      add\n        /* \"#utility.yul\":20678:20704   */\n      swap1\n      pop\n        /* \"#utility.yul\":20750:20759   */\n      dup2\n        /* \"#utility.yul\":20744:20748   */\n      dup2\n        /* \"#utility.yul\":20740:20760   */\n      sub\n        /* \"#utility.yul\":20736:20737   */\n      0x00\n        /* \"#utility.yul\":20725:20734   */\n      dup4\n        /* \"#utility.yul\":20721:20738   */\n      add\n        /* \"#utility.yul\":20714:20761   */\n      mstore\n        /* \"#utility.yul\":20778:20909   */\n      tag_422\n        /* \"#utility.yul\":20904:20908   */\n      dup2\n        /* \"#utility.yul\":20778:20909   */\n      tag_223\n      jump\t// in\n    tag_422:\n        /* \"#utility.yul\":20770:20909   */\n      swap1\n      pop\n        /* \"#utility.yul\":20497:20916   */\n      swap2\n      swap1\n      pop\n      jump\t// out\n        /* \"#utility.yul\":20922:21102   */\n    tag_224:\n        /* \"#utility.yul\":20970:21047   */\n      0x4e487b7100000000000000000000000000000000000000000000000000000000\n        /* \"#utility.yul\":20967:20968   */\n      0x00\n        /* \"#utility.yul\":20960:21048   */\n      mstore\n        /* \"#utility.yul\":21067:21071   */\n      0x12\n        /* \"#utility.yul\":21064:21065   */\n      0x04\n        /* \"#utility.yul\":21057:21072   */\n      mstore\n        /* \"#utility.yul\":21091:21095   */\n      0x24\n        /* \"#utility.yul\":21088:21089   */\n      0x00\n        /* \"#utility.yul\":21081:21096   */\n      revert\n        /* \"#utility.yul\":21108:21293   */\n    tag_165:\n        /* \"#utility.yul\":21148:21149   */\n      0x00\n        /* \"#utility.yul\":21165:21185   */\n      tag_425\n        /* \"#utility.yul\":21183:21184   */\n      dup3\n        /* \"#utility.yul\":21165:21185   */\n      tag_169\n      jump\t// in\n    tag_425:\n        /* \"#utility.yul\":21160:21185   */\n      swap2\n      pop\n        /* \"#utility.yul\":21199:21219   */\n      tag_426\n        /* \"#utility.yul\":21217:21218   */\n      dup4\n        /* \"#utility.yul\":21199:21219   */\n      tag_169\n      jump\t// in\n    tag_426:\n        /* \"#utility.yul\":21194:21219   */\n      swap3\n      pop\n        /* \"#utility.yul\":21238:21239   */\n      dup3\n        /* \"#utility.yul\":21228:21263   */\n      tag_427\n      jumpi\n        /* \"#utility.yul\":21243:21261   */\n      tag_428\n      tag_224\n      jump\t// in\n    tag_428:\n        /* \"#utility.yul\":21228:21263   */\n    tag_427:\n        /* \"#utility.yul\":21285:21286   */\n      dup3\n        /* \"#utility.yul\":21282:21283   */\n      dup3\n        /* \"#utility.yul\":21278:21287   */\n      div\n        /* \"#utility.yul\":21273:21287   */\n      swap1\n      pop\n        /* \"#utility.yul\":21108:21293   */\n      swap3\n      swap2\n      pop\n      pop\n      jump\t// out\n\n    auxdata: 0xa26469706673582212201a0277cbec245eb6810a1fe8080a09d17b7573d430214fc7f2d853bb3caa13d364736f6c634300081a0033\n}\n",
				"bytecode": {
					"linkReferences": {},
					"object": "6080604052348015600e575f80fd5b503360025f6101000a81548173ffffffffffffffffffffffffffffffffffffffff021916908373ffffffffffffffffffffffffffffffffffffffff1602179055505f60055f6101000a81548160ff0219169083151502179055505f60048190555061182e8061007c5f395ff3fe6080604052600436106100f2575f3560e01c80639ab3f7a611610089578063c631b29211610058578063c631b292146102d6578063d0febe4c146102ec578063e0a8f6f514610302578063fffefd911461032a576100f2565b80639ab3f7a61461021e578063a80db6fc1461025a578063affc067014610284578063bc903cb81461029a576100f2565b80634ece90a8116100c55780634ece90a81461018e578063649c649c146101b85780637b0472f0146101e05780639904e17414610208576100f2565b8063013cf08b146100f657806312424e3f146101385780633ac0feac1461014e5780633d571e9714610178575b5f80fd5b348015610101575f80fd5b5061011c60048036038101906101179190610d7b565b610334565b60405161012f9796959493929190610e64565b60405180910390f35b348015610143575f80fd5b5061014c61049d565b005b348015610159575f80fd5b5061016261049f565b60405161016f9190610f96565b60405180910390f35b348015610183575f80fd5b5061018c6104f2565b005b348015610199575f80fd5b506101a2610534565b6040516101af9190610fb6565b60405180910390f35b3480156101c3575f80fd5b506101de60048036038101906101d99190610fcf565b610538565b005b3480156101eb575f80fd5b5061020660048036038101906102019190610fcf565b61053c565b005b348015610213575f80fd5b5061021c61058e565b005b348015610229575f80fd5b50610244600480360381019061023f9190611098565b6105d8565b604051610251919061113b565b60405180910390f35b348015610265575f80fd5b5061026e6107cf565b60405161027b9190610f96565b60405180910390f35b34801561028f575f80fd5b50610298610822565b005b3480156102a5575f80fd5b506102c060048036038101906102bb9190610d7b565b6108cd565b6040516102cd919061124b565b60405180910390f35b3480156102e1575f80fd5b506102ea610ae2565b005b3480156102f7575f80fd5b50610300610b8c565b005b34801561030d575f80fd5b5061032860048036038101906103239190610d7b565b610c0d565b005b610332610c5e565b005b6006602052805f5260405f205f91509050805f01805461035390611298565b80601f016020809104026020016040519081016040528092919081815260200182805461037f90611298565b80156103ca5780601f106103a1576101008083540402835291602001916103ca565b820191905f5260205f20905b8154815290600101906020018083116103ad57829003601f168201915b5050505050908060010180546103df90611298565b80601f016020809104026020016040519081016040528092919081815260200182805461040b90611298565b80156104565780601f1061042d57610100808354040283529160200191610456565b820191905f5260205f20905b81548152906001019060200180831161043957829003601f168201915b505050505090806002015490806003015490806004015490806005015490806006015f9054906101000a900473ffffffffffffffffffffffffffffffffffffffff16905087565b565b606060055f9054906101000a900460ff166104ef576040517f08c379a00000000000000000000000000000000000000000000000000000000081526004016104e690611312565b60405180910390fd5b90565b60035f3373ffffffffffffffffffffffffffffffffffffffff1673ffffffffffffffffffffffffffffffffffffffff1681526020019081526020015f205f9055565b5f90565b5050565b60055f9054906101000a900460ff1661058a576040517f08c379a000000000000000000000000000000000000000000000000000000000815260040161058190611312565b60405180910390fd5b5050565b5f60035f3373ffffffffffffffffffffffffffffffffffffffff1673ffffffffffffffffffffffffffffffffffffffff1681526020019081526020015f2054036105d6575f80fd5b565b5f60055f9054906101000a900460ff16610627576040517f08c379a000000000000000000000000000000000000000000000000000000000815260040161061e90611312565b60405180910390fd5b5f6040518060e0016040528089898080601f0160208091040260200160405190810160405280939291908181526020018383808284375f81840152601f19601f82011690508083019250505050505050815260200187878080601f0160208091040260200160405190810160405280939291908181526020018383808284375f81840152601f19601f8201169050808301925050505050505081526020015f81526020018581526020015f81526020015f81526020018473ffffffffffffffffffffffffffffffffffffffff16815250905060045f81548092919061070b9061135d565b91905055508060065f60045481526020019081526020015f205f820151815f019081610737919061156e565b50602082015181600101908161074d919061156e565b5060408201518160020155606082015181600301556080820151816004015560a0820151816005015560c0820151816006015f6101000a81548173ffffffffffffffffffffffffffffffffffffffff021916908373ffffffffffffffffffffffffffffffffffffffff1602179055509050506004549150509695505050505050565b606060055f9054906101000a900460ff1661081f576040517f08c379a000000000000000000000000000000000000000000000000000000000815260040161081690611312565b60405180910390fd5b90565b60025f9054906101000a900473ffffffffffffffffffffffffffffffffffffffff1673ffffffffffffffffffffffffffffffffffffffff163373ffffffffffffffffffffffffffffffffffffffff16146108b1576040517f08c379a00000000000000000000000000000000000000000000000000000000081526004016108a890611687565b60405180910390fd5b600160055f6101000a81548160ff021916908315150217905550565b6108d5610cf2565b60055f9054906101000a900460ff16610923576040517f08c379a000000000000000000000000000000000000000000000000000000000815260040161091a90611312565b60405180910390fd5b60065f8381526020019081526020015f206040518060e00160405290815f8201805461094e90611298565b80601f016020809104026020016040519081016040528092919081815260200182805461097a90611298565b80156109c55780601f1061099c576101008083540402835291602001916109c5565b820191905f5260205f20905b8154815290600101906020018083116109a857829003601f168201915b505050505081526020016001820180546109de90611298565b80601f0160208091040260200160405190810160405280929190818152602001828054610a0a90611298565b8015610a555780601f10610a2c57610100808354040283529160200191610a55565b820191905f5260205f20905b815481529060010190602001808311610a3857829003601f168201915b5050505050815260200160028201548152602001600382015481526020016004820154815260200160058201548152602001600682015f9054906101000a900473ffffffffffffffffffffffffffffffffffffffff1673ffffffffffffffffffffffffffffffffffffffff1673ffffffffffffffffffffffffffffffffffffffff16815250509050919050565b60025f9054906101000a900473ffffffffffffffffffffffffffffffffffffffff1673ffffffffffffffffffffffffffffffffffffffff163373ffffffffffffffffffffffffffffffffffffffff1614610b71576040517f08c379a0000000000000000000000000000000000000000000000000000000008152600401610b6890611687565b60405180910390fd5b5f60055f6101000a81548160ff021916908315150217905550565b5f60035f3373ffffffffffffffffffffffffffffffffffffffff1673ffffffffffffffffffffffffffffffffffffffff1681526020019081526020015f205403610c0b576040517f08c379a0000000000000000000000000000000000000000000000000000000008152600401610c0290611715565b60405180910390fd5b565b60055f9054906101000a900460ff16610c5b576040517f08c379a0000000000000000000000000000000000000000000000000000000008152600401610c5290611312565b60405180910390fd5b50565b5f54341015610ca2576040517f08c379a0000000000000000000000000000000000000000000000000000000008152600401610c999061177d565b60405180910390fd5b5f5434610caf91906117c8565b60035f3373ffffffffffffffffffffffffffffffffffffffff1673ffffffffffffffffffffffffffffffffffffffff1681526020019081526020015f2081905550565b6040518060e0016040528060608152602001606081526020015f81526020015f81526020015f81526020015f81526020015f73ffffffffffffffffffffffffffffffffffffffff1681525090565b5f80fd5b5f80fd5b5f819050919050565b610d5a81610d48565b8114610d64575f80fd5b50565b5f81359050610d7581610d51565b92915050565b5f60208284031215610d9057610d8f610d40565b5b5f610d9d84828501610d67565b91505092915050565b5f81519050919050565b5f82825260208201905092915050565b8281835e5f83830152505050565b5f601f19601f8301169050919050565b5f610de882610da6565b610df28185610db0565b9350610e02818560208601610dc0565b610e0b81610dce565b840191505092915050565b610e1f81610d48565b82525050565b5f73ffffffffffffffffffffffffffffffffffffffff82169050919050565b5f610e4e82610e25565b9050919050565b610e5e81610e44565b82525050565b5f60e0820190508181035f830152610e7c818a610dde565b90508181036020830152610e908189610dde565b9050610e9f6040830188610e16565b610eac6060830187610e16565b610eb96080830186610e16565b610ec660a0830185610e16565b610ed360c0830184610e55565b98975050505050505050565b5f81519050919050565b5f82825260208201905092915050565b5f819050602082019050919050565b610f1181610d48565b82525050565b5f610f228383610f08565b60208301905092915050565b5f602082019050919050565b5f610f4482610edf565b610f4e8185610ee9565b9350610f5983610ef9565b805f5b83811015610f89578151610f708882610f17565b9750610f7b83610f2e565b925050600181019050610f5c565b5085935050505092915050565b5f6020820190508181035f830152610fae8184610f3a565b905092915050565b5f602082019050610fc95f830184610e55565b92915050565b5f8060408385031215610fe557610fe4610d40565b5b5f610ff285828601610d67565b925050602061100385828601610d67565b9150509250929050565b5f80fd5b5f80fd5b5f80fd5b5f8083601f84011261102e5761102d61100d565b5b8235905067ffffffffffffffff81111561104b5761104a611011565b5b60208301915083600182028301111561106757611066611015565b5b9250929050565b61107781610e44565b8114611081575f80fd5b50565b5f813590506110928161106e565b92915050565b5f805f805f80608087890312156110b2576110b1610d40565b5b5f87013567ffffffffffffffff8111156110cf576110ce610d44565b5b6110db89828a01611019565b9650965050602087013567ffffffffffffffff8111156110fe576110fd610d44565b5b61110a89828a01611019565b9450945050604061111d89828a01610d67565b925050606061112e89828a01611084565b9150509295509295509295565b5f60208201905061114e5f830184610e16565b92915050565b5f82825260208201905092915050565b5f61116e82610da6565b6111788185611154565b9350611188818560208601610dc0565b61119181610dce565b840191505092915050565b6111a581610e44565b82525050565b5f60e083015f8301518482035f8601526111c58282611164565b915050602083015184820360208601526111df8282611164565b91505060408301516111f46040860182610f08565b5060608301516112076060860182610f08565b50608083015161121a6080860182610f08565b5060a083015161122d60a0860182610f08565b5060c083015161124060c086018261119c565b508091505092915050565b5f6020820190508181035f83015261126381846111ab565b905092915050565b7f4e487b71000000000000000000000000000000000000000000000000000000005f52602260045260245ffd5b5f60028204905060018216806112af57607f821691505b6020821081036112c2576112c161126b565b5b50919050565b7f566f74696e67206973206e6f74206f70656e65640000000000000000000000005f82015250565b5f6112fc601483610db0565b9150611307826112c8565b602082019050919050565b5f6020820190508181035f830152611329816112f0565b9050919050565b7f4e487b71000000000000000000000000000000000000000000000000000000005f52601160045260245ffd5b5f61136782610d48565b91507fffffffffffffffffffffffffffffffffffffffffffffffffffffffffffffffff820361139957611398611330565b5b600182019050919050565b7f4e487b71000000000000000000000000000000000000000000000000000000005f52604160045260245ffd5b5f819050815f5260205f209050919050565b5f6020601f8301049050919050565b5f82821b905092915050565b5f6008830261142d7fffffffffffffffffffffffffffffffffffffffffffffffffffffffffffffffff826113f2565b61143786836113f2565b95508019841693508086168417925050509392505050565b5f819050919050565b5f61147261146d61146884610d48565b61144f565b610d48565b9050919050565b5f819050919050565b61148b83611458565b61149f61149782611479565b8484546113fe565b825550505050565b5f90565b6114b36114a7565b6114be818484611482565b505050565b5b818110156114e1576114d65f826114ab565b6001810190506114c4565b5050565b601f821115611526576114f7816113d1565b611500846113e3565b8101602085101561150f578190505b61152361151b856113e3565b8301826114c3565b50505b505050565b5f82821c905092915050565b5f6115465f198460080261152b565b1980831691505092915050565b5f61155e8383611537565b9150826002028217905092915050565b61157782610da6565b67ffffffffffffffff8111156115905761158f6113a4565b5b61159a8254611298565b6115a58282856114e5565b5f60209050601f8311600181146115d6575f84156115c4578287015190505b6115ce8582611553565b865550611635565b601f1984166115e4866113d1565b5f5b8281101561160b578489015182556001820191506020850194506020810190506115e6565b868310156116285784890151611624601f891682611537565b8355505b6001600288020188555050505b505050505050565b7f4e6f74206f776e657200000000000000000000000000000000000000000000005f82015250565b5f611671600983610db0565b915061167c8261163d565b602082019050919050565b5f6020820190508181035f83015261169e81611665565b9050919050565b7f45737465207061727469636970616e7465206e6f206573746120696e736372695f8201527f746f20656e206c6120766f746163696f6e000000000000000000000000000000602082015250565b5f6116ff603183610db0565b915061170a826116a5565b604082019050919050565b5f6020820190508181035f83015261172c816116f3565b9050919050565b7f4e6f20737566696369656e742066756e647300000000000000000000000000005f82015250565b5f611767601283610db0565b915061177282611733565b602082019050919050565b5f6020820190508181035f8301526117948161175b565b9050919050565b7f4e487b71000000000000000000000000000000000000000000000000000000005f52601260045260245ffd5b5f6117d282610d48565b91506117dd83610d48565b9250826117ed576117ec61179b565b5b82820490509291505056fea26469706673582212201a0277cbec245eb6810a1fe8080a09d17b7573d430214fc7f2d853bb3caa13d364736f6c634300081a0033",
					"opcodes": "PUSH1 0x80 PUSH1 0x40 MSTORE CALLVALUE DUP1 ISZERO PUSH1 0xE JUMPI PUSH0 DUP1 REVERT JUMPDEST POP CALLER PUSH1 0x2 PUSH0 PUSH2 0x100 EXP DUP2 SLOAD DUP2 PUSH20 0xFFFFFFFFFFFFFFFFFFFFFFFFFFFFFFFFFFFFFFFF MUL NOT AND SWAP1 DUP4 PUSH20 0xFFFFFFFFFFFFFFFFFFFFFFFFFFFFFFFFFFFFFFFF AND MUL OR SWAP1 SSTORE POP PUSH0 PUSH1 0x5 PUSH0 PUSH2 0x100 EXP DUP2 SLOAD DUP2 PUSH1 0xFF MUL NOT AND SWAP1 DUP4 ISZERO ISZERO MUL OR SWAP1 SSTORE POP PUSH0 PUSH1 0x4 DUP2 SWAP1 SSTORE POP PUSH2 0x182E DUP1 PUSH2 0x7C PUSH0 CODECOPY PUSH0 RETURN INVALID PUSH1 0x80 PUSH1 0x40 MSTORE PUSH1 0x4 CALLDATASIZE LT PUSH2 0xF2 JUMPI PUSH0 CALLDATALOAD PUSH1 0xE0 SHR DUP1 PUSH4 0x9AB3F7A6 GT PUSH2 0x89 JUMPI DUP1 PUSH4 0xC631B292 GT PUSH2 0x58 JUMPI DUP1 PUSH4 0xC631B292 EQ PUSH2 0x2D6 JUMPI DUP1 PUSH4 0xD0FEBE4C EQ PUSH2 0x2EC JUMPI DUP1 PUSH4 0xE0A8F6F5 EQ PUSH2 0x302 JUMPI DUP1 PUSH4 0xFFFEFD91 EQ PUSH2 0x32A JUMPI PUSH2 0xF2 JUMP JUMPDEST DUP1 PUSH4 0x9AB3F7A6 EQ PUSH2 0x21E JUMPI DUP1 PUSH4 0xA80DB6FC EQ PUSH2 0x25A JUMPI DUP1 PUSH4 0xAFFC0670 EQ PUSH2 0x284 JUMPI DUP1 PUSH4 0xBC903CB8 EQ PUSH2 0x29A JUMPI PUSH2 0xF2 JUMP JUMPDEST DUP1 PUSH4 0x4ECE90A8 GT PUSH2 0xC5 JUMPI DUP1 PUSH4 0x4ECE90A8 EQ PUSH2 0x18E JUMPI DUP1 PUSH4 0x649C649C EQ PUSH2 0x1B8 JUMPI DUP1 PUSH4 0x7B0472F0 EQ PUSH2 0x1E0 JUMPI DUP1 PUSH4 0x9904E174 EQ PUSH2 0x208 JUMPI PUSH2 0xF2 JUMP JUMPDEST DUP1 PUSH4 0x13CF08B EQ PUSH2 0xF6 JUMPI DUP1 PUSH4 0x12424E3F EQ PUSH2 0x138 JUMPI DUP1 PUSH4 0x3AC0FEAC EQ PUSH2 0x14E JUMPI DUP1 PUSH4 0x3D571E97 EQ PUSH2 0x178 JUMPI JUMPDEST PUSH0 DUP1 REVERT JUMPDEST CALLVALUE DUP1 ISZERO PUSH2 0x101 JUMPI PUSH0 DUP1 REVERT JUMPDEST POP PUSH2 0x11C PUSH1 0x4 DUP1 CALLDATASIZE SUB DUP2 ADD SWAP1 PUSH2 0x117 SWAP2 SWAP1 PUSH2 0xD7B JUMP JUMPDEST PUSH2 0x334 JUMP JUMPDEST PUSH1 0x40 MLOAD PUSH2 0x12F SWAP8 SWAP7 SWAP6 SWAP5 SWAP4 SWAP3 SWAP2 SWAP1 PUSH2 0xE64 JUMP JUMPDEST PUSH1 0x40 MLOAD DUP1 SWAP2 SUB SWAP1 RETURN JUMPDEST CALLVALUE DUP1 ISZERO PUSH2 0x143 JUMPI PUSH0 DUP1 REVERT JUMPDEST POP PUSH2 0x14C PUSH2 0x49D JUMP JUMPDEST STOP JUMPDEST CALLVALUE DUP1 ISZERO PUSH2 0x159 JUMPI PUSH0 DUP1 REVERT JUMPDEST POP PUSH2 0x162 PUSH2 0x49F JUMP JUMPDEST PUSH1 0x40 MLOAD PUSH2 0x16F SWAP2 SWAP1 PUSH2 0xF96 JUMP JUMPDEST PUSH1 0x40 MLOAD DUP1 SWAP2 SUB SWAP1 RETURN JUMPDEST CALLVALUE DUP1 ISZERO PUSH2 0x183 JUMPI PUSH0 DUP1 REVERT JUMPDEST POP PUSH2 0x18C PUSH2 0x4F2 JUMP JUMPDEST STOP JUMPDEST CALLVALUE DUP1 ISZERO PUSH2 0x199 JUMPI PUSH0 DUP1 REVERT JUMPDEST POP PUSH2 0x1A2 PUSH2 0x534 JUMP JUMPDEST PUSH1 0x40 MLOAD PUSH2 0x1AF SWAP2 SWAP1 PUSH2 0xFB6 JUMP JUMPDEST PUSH1 0x40 MLOAD DUP1 SWAP2 SUB SWAP1 RETURN JUMPDEST CALLVALUE DUP1 ISZERO PUSH2 0x1C3 JUMPI PUSH0 DUP1 REVERT JUMPDEST POP PUSH2 0x1DE PUSH1 0x4 DUP1 CALLDATASIZE SUB DUP2 ADD SWAP1 PUSH2 0x1D9 SWAP2 SWAP1 PUSH2 0xFCF JUMP JUMPDEST PUSH2 0x538 JUMP JUMPDEST STOP JUMPDEST CALLVALUE DUP1 ISZERO PUSH2 0x1EB JUMPI PUSH0 DUP1 REVERT JUMPDEST POP PUSH2 0x206 PUSH1 0x4 DUP1 CALLDATASIZE SUB DUP2 ADD SWAP1 PUSH2 0x201 SWAP2 SWAP1 PUSH2 0xFCF JUMP JUMPDEST PUSH2 0x53C JUMP JUMPDEST STOP JUMPDEST CALLVALUE DUP1 ISZERO PUSH2 0x213 JUMPI PUSH0 DUP1 REVERT JUMPDEST POP PUSH2 0x21C PUSH2 0x58E JUMP JUMPDEST STOP JUMPDEST CALLVALUE DUP1 ISZERO PUSH2 0x229 JUMPI PUSH0 DUP1 REVERT JUMPDEST POP PUSH2 0x244 PUSH1 0x4 DUP1 CALLDATASIZE SUB DUP2 ADD SWAP1 PUSH2 0x23F SWAP2 SWAP1 PUSH2 0x1098 JUMP JUMPDEST PUSH2 0x5D8 JUMP JUMPDEST PUSH1 0x40 MLOAD PUSH2 0x251 SWAP2 SWAP1 PUSH2 0x113B JUMP JUMPDEST PUSH1 0x40 MLOAD DUP1 SWAP2 SUB SWAP1 RETURN JUMPDEST CALLVALUE DUP1 ISZERO PUSH2 0x265 JUMPI PUSH0 DUP1 REVERT JUMPDEST POP PUSH2 0x26E PUSH2 0x7CF JUMP JUMPDEST PUSH1 0x40 MLOAD PUSH2 0x27B SWAP2 SWAP1 PUSH2 0xF96 JUMP JUMPDEST PUSH1 0x40 MLOAD DUP1 SWAP2 SUB SWAP1 RETURN JUMPDEST CALLVALUE DUP1 ISZERO PUSH2 0x28F JUMPI PUSH0 DUP1 REVERT JUMPDEST POP PUSH2 0x298 PUSH2 0x822 JUMP JUMPDEST STOP JUMPDEST CALLVALUE DUP1 ISZERO PUSH2 0x2A5 JUMPI PUSH0 DUP1 REVERT JUMPDEST POP PUSH2 0x2C0 PUSH1 0x4 DUP1 CALLDATASIZE SUB DUP2 ADD SWAP1 PUSH2 0x2BB SWAP2 SWAP1 PUSH2 0xD7B JUMP JUMPDEST PUSH2 0x8CD JUMP JUMPDEST PUSH1 0x40 MLOAD PUSH2 0x2CD SWAP2 SWAP1 PUSH2 0x124B JUMP JUMPDEST PUSH1 0x40 MLOAD DUP1 SWAP2 SUB SWAP1 RETURN JUMPDEST CALLVALUE DUP1 ISZERO PUSH2 0x2E1 JUMPI PUSH0 DUP1 REVERT JUMPDEST POP PUSH2 0x2EA PUSH2 0xAE2 JUMP JUMPDEST STOP JUMPDEST CALLVALUE DUP1 ISZERO PUSH2 0x2F7 JUMPI PUSH0 DUP1 REVERT JUMPDEST POP PUSH2 0x300 PUSH2 0xB8C JUMP JUMPDEST STOP JUMPDEST CALLVALUE DUP1 ISZERO PUSH2 0x30D JUMPI PUSH0 DUP1 REVERT JUMPDEST POP PUSH2 0x328 PUSH1 0x4 DUP1 CALLDATASIZE SUB DUP2 ADD SWAP1 PUSH2 0x323 SWAP2 SWAP1 PUSH2 0xD7B JUMP JUMPDEST PUSH2 0xC0D JUMP JUMPDEST STOP JUMPDEST PUSH2 0x332 PUSH2 0xC5E JUMP JUMPDEST STOP JUMPDEST PUSH1 0x6 PUSH1 0x20 MSTORE DUP1 PUSH0 MSTORE PUSH1 0x40 PUSH0 KECCAK256 PUSH0 SWAP2 POP SWAP1 POP DUP1 PUSH0 ADD DUP1 SLOAD PUSH2 0x353 SWAP1 PUSH2 0x1298 JUMP JUMPDEST DUP1 PUSH1 0x1F ADD PUSH1 0x20 DUP1 SWAP2 DIV MUL PUSH1 0x20 ADD PUSH1 0x40 MLOAD SWAP1 DUP2 ADD PUSH1 0x40 MSTORE DUP1 SWAP3 SWAP2 SWAP1 DUP2 DUP2 MSTORE PUSH1 0x20 ADD DUP3 DUP1 SLOAD PUSH2 0x37F SWAP1 PUSH2 0x1298 JUMP JUMPDEST DUP1 ISZERO PUSH2 0x3CA JUMPI DUP1 PUSH1 0x1F LT PUSH2 0x3A1 JUMPI PUSH2 0x100 DUP1 DUP4 SLOAD DIV MUL DUP4 MSTORE SWAP2 PUSH1 0x20 ADD SWAP2 PUSH2 0x3CA JUMP JUMPDEST DUP3 ADD SWAP2 SWAP1 PUSH0 MSTORE PUSH1 0x20 PUSH0 KECCAK256 SWAP1 JUMPDEST DUP2 SLOAD DUP2 MSTORE SWAP1 PUSH1 0x1 ADD SWAP1 PUSH1 0x20 ADD DUP1 DUP4 GT PUSH2 0x3AD JUMPI DUP3 SWAP1 SUB PUSH1 0x1F AND DUP3 ADD SWAP2 JUMPDEST POP POP POP POP POP SWAP1 DUP1 PUSH1 0x1 ADD DUP1 SLOAD PUSH2 0x3DF SWAP1 PUSH2 0x1298 JUMP JUMPDEST DUP1 PUSH1 0x1F ADD PUSH1 0x20 DUP1 SWAP2 DIV MUL PUSH1 0x20 ADD PUSH1 0x40 MLOAD SWAP1 DUP2 ADD PUSH1 0x40 MSTORE DUP1 SWAP3 SWAP2 SWAP1 DUP2 DUP2 MSTORE PUSH1 0x20 ADD DUP3 DUP1 SLOAD PUSH2 0x40B SWAP1 PUSH2 0x1298 JUMP JUMPDEST DUP1 ISZERO PUSH2 0x456 JUMPI DUP1 PUSH1 0x1F LT PUSH2 0x42D JUMPI PUSH2 0x100 DUP1 DUP4 SLOAD DIV MUL DUP4 MSTORE SWAP2 PUSH1 0x20 ADD SWAP2 PUSH2 0x456 JUMP JUMPDEST DUP3 ADD SWAP2 SWAP1 PUSH0 MSTORE PUSH1 0x20 PUSH0 KECCAK256 SWAP1 JUMPDEST DUP2 SLOAD DUP2 MSTORE SWAP1 PUSH1 0x1 ADD SWAP1 PUSH1 0x20 ADD DUP1 DUP4 GT PUSH2 0x439 JUMPI DUP3 SWAP1 SUB PUSH1 0x1F AND DUP3 ADD SWAP2 JUMPDEST POP POP POP POP POP SWAP1 DUP1 PUSH1 0x2 ADD SLOAD SWAP1 DUP1 PUSH1 0x3 ADD SLOAD SWAP1 DUP1 PUSH1 0x4 ADD SLOAD SWAP1 DUP1 PUSH1 0x5 ADD SLOAD SWAP1 DUP1 PUSH1 0x6 ADD PUSH0 SWAP1 SLOAD SWAP1 PUSH2 0x100 EXP SWAP1 DIV PUSH20 0xFFFFFFFFFFFFFFFFFFFFFFFFFFFFFFFFFFFFFFFF AND SWAP1 POP DUP8 JUMP JUMPDEST JUMP JUMPDEST PUSH1 0x60 PUSH1 0x5 PUSH0 SWAP1 SLOAD SWAP1 PUSH2 0x100 EXP SWAP1 DIV PUSH1 0xFF AND PUSH2 0x4EF JUMPI PUSH1 0x40 MLOAD PUSH32 0x8C379A000000000000000000000000000000000000000000000000000000000 DUP2 MSTORE PUSH1 0x4 ADD PUSH2 0x4E6 SWAP1 PUSH2 0x1312 JUMP JUMPDEST PUSH1 0x40 MLOAD DUP1 SWAP2 SUB SWAP1 REVERT JUMPDEST SWAP1 JUMP JUMPDEST PUSH1 0x3 PUSH0 CALLER PUSH20 0xFFFFFFFFFFFFFFFFFFFFFFFFFFFFFFFFFFFFFFFF AND PUSH20 0xFFFFFFFFFFFFFFFFFFFFFFFFFFFFFFFFFFFFFFFF AND DUP2 MSTORE PUSH1 0x20 ADD SWAP1 DUP2 MSTORE PUSH1 0x20 ADD PUSH0 KECCAK256 PUSH0 SWAP1 SSTORE JUMP JUMPDEST PUSH0 SWAP1 JUMP JUMPDEST POP POP JUMP JUMPDEST PUSH1 0x5 PUSH0 SWAP1 SLOAD SWAP1 PUSH2 0x100 EXP SWAP1 DIV PUSH1 0xFF AND PUSH2 0x58A JUMPI PUSH1 0x40 MLOAD PUSH32 0x8C379A000000000000000000000000000000000000000000000000000000000 DUP2 MSTORE PUSH1 0x4 ADD PUSH2 0x581 SWAP1 PUSH2 0x1312 JUMP JUMPDEST PUSH1 0x40 MLOAD DUP1 SWAP2 SUB SWAP1 REVERT JUMPDEST POP POP JUMP JUMPDEST PUSH0 PUSH1 0x3 PUSH0 CALLER PUSH20 0xFFFFFFFFFFFFFFFFFFFFFFFFFFFFFFFFFFFFFFFF AND PUSH20 0xFFFFFFFFFFFFFFFFFFFFFFFFFFFFFFFFFFFFFFFF AND DUP2 MSTORE PUSH1 0x20 ADD SWAP1 DUP2 MSTORE PUSH1 0x20 ADD PUSH0 KECCAK256 SLOAD SUB PUSH2 0x5D6 JUMPI PUSH0 DUP1 REVERT JUMPDEST JUMP JUMPDEST PUSH0 PUSH1 0x5 PUSH0 SWAP1 SLOAD SWAP1 PUSH2 0x100 EXP SWAP1 DIV PUSH1 0xFF AND PUSH2 0x627 JUMPI PUSH1 0x40 MLOAD PUSH32 0x8C379A000000000000000000000000000000000000000000000000000000000 DUP2 MSTORE PUSH1 0x4 ADD PUSH2 0x61E SWAP1 PUSH2 0x1312 JUMP JUMPDEST PUSH1 0x40 MLOAD DUP1 SWAP2 SUB SWAP1 REVERT JUMPDEST PUSH0 PUSH1 0x40 MLOAD DUP1 PUSH1 0xE0 ADD PUSH1 0x40 MSTORE DUP1 DUP10 DUP10 DUP1 DUP1 PUSH1 0x1F ADD PUSH1 0x20 DUP1 SWAP2 DIV MUL PUSH1 0x20 ADD PUSH1 0x40 MLOAD SWAP1 DUP2 ADD PUSH1 0x40 MSTORE DUP1 SWAP4 SWAP3 SWAP2 SWAP1 DUP2 DUP2 MSTORE PUSH1 0x20 ADD DUP4 DUP4 DUP1 DUP3 DUP5 CALLDATACOPY PUSH0 DUP2 DUP5 ADD MSTORE PUSH1 0x1F NOT PUSH1 0x1F DUP3 ADD AND SWAP1 POP DUP1 DUP4 ADD SWAP3 POP POP POP POP POP POP POP DUP2 MSTORE PUSH1 0x20 ADD DUP8 DUP8 DUP1 DUP1 PUSH1 0x1F ADD PUSH1 0x20 DUP1 SWAP2 DIV MUL PUSH1 0x20 ADD PUSH1 0x40 MLOAD SWAP1 DUP2 ADD PUSH1 0x40 MSTORE DUP1 SWAP4 SWAP3 SWAP2 SWAP1 DUP2 DUP2 MSTORE PUSH1 0x20 ADD DUP4 DUP4 DUP1 DUP3 DUP5 CALLDATACOPY PUSH0 DUP2 DUP5 ADD MSTORE PUSH1 0x1F NOT PUSH1 0x1F DUP3 ADD AND SWAP1 POP DUP1 DUP4 ADD SWAP3 POP POP POP POP POP POP POP DUP2 MSTORE PUSH1 0x20 ADD PUSH0 DUP2 MSTORE PUSH1 0x20 ADD DUP6 DUP2 MSTORE PUSH1 0x20 ADD PUSH0 DUP2 MSTORE PUSH1 0x20 ADD PUSH0 DUP2 MSTORE PUSH1 0x20 ADD DUP5 PUSH20 0xFFFFFFFFFFFFFFFFFFFFFFFFFFFFFFFFFFFFFFFF AND DUP2 MSTORE POP SWAP1 POP PUSH1 0x4 PUSH0 DUP2 SLOAD DUP1 SWAP3 SWAP2 SWAP1 PUSH2 0x70B SWAP1 PUSH2 0x135D JUMP JUMPDEST SWAP2 SWAP1 POP SSTORE POP DUP1 PUSH1 0x6 PUSH0 PUSH1 0x4 SLOAD DUP2 MSTORE PUSH1 0x20 ADD SWAP1 DUP2 MSTORE PUSH1 0x20 ADD PUSH0 KECCAK256 PUSH0 DUP3 ADD MLOAD DUP2 PUSH0 ADD SWAP1 DUP2 PUSH2 0x737 SWAP2 SWAP1 PUSH2 0x156E JUMP JUMPDEST POP PUSH1 0x20 DUP3 ADD MLOAD DUP2 PUSH1 0x1 ADD SWAP1 DUP2 PUSH2 0x74D SWAP2 SWAP1 PUSH2 0x156E JUMP JUMPDEST POP PUSH1 0x40 DUP3 ADD MLOAD DUP2 PUSH1 0x2 ADD SSTORE PUSH1 0x60 DUP3 ADD MLOAD DUP2 PUSH1 0x3 ADD SSTORE PUSH1 0x80 DUP3 ADD MLOAD DUP2 PUSH1 0x4 ADD SSTORE PUSH1 0xA0 DUP3 ADD MLOAD DUP2 PUSH1 0x5 ADD SSTORE PUSH1 0xC0 DUP3 ADD MLOAD DUP2 PUSH1 0x6 ADD PUSH0 PUSH2 0x100 EXP DUP2 SLOAD DUP2 PUSH20 0xFFFFFFFFFFFFFFFFFFFFFFFFFFFFFFFFFFFFFFFF MUL NOT AND SWAP1 DUP4 PUSH20 0xFFFFFFFFFFFFFFFFFFFFFFFFFFFFFFFFFFFFFFFF AND MUL OR SWAP1 SSTORE POP SWAP1 POP POP PUSH1 0x4 SLOAD SWAP2 POP POP SWAP7 SWAP6 POP POP POP POP POP POP JUMP JUMPDEST PUSH1 0x60 PUSH1 0x5 PUSH0 SWAP1 SLOAD SWAP1 PUSH2 0x100 EXP SWAP1 DIV PUSH1 0xFF AND PUSH2 0x81F JUMPI PUSH1 0x40 MLOAD PUSH32 0x8C379A000000000000000000000000000000000000000000000000000000000 DUP2 MSTORE PUSH1 0x4 ADD PUSH2 0x816 SWAP1 PUSH2 0x1312 JUMP JUMPDEST PUSH1 0x40 MLOAD DUP1 SWAP2 SUB SWAP1 REVERT JUMPDEST SWAP1 JUMP JUMPDEST PUSH1 0x2 PUSH0 SWAP1 SLOAD SWAP1 PUSH2 0x100 EXP SWAP1 DIV PUSH20 0xFFFFFFFFFFFFFFFFFFFFFFFFFFFFFFFFFFFFFFFF AND PUSH20 0xFFFFFFFFFFFFFFFFFFFFFFFFFFFFFFFFFFFFFFFF AND CALLER PUSH20 0xFFFFFFFFFFFFFFFFFFFFFFFFFFFFFFFFFFFFFFFF AND EQ PUSH2 0x8B1 JUMPI PUSH1 0x40 MLOAD PUSH32 0x8C379A000000000000000000000000000000000000000000000000000000000 DUP2 MSTORE PUSH1 0x4 ADD PUSH2 0x8A8 SWAP1 PUSH2 0x1687 JUMP JUMPDEST PUSH1 0x40 MLOAD DUP1 SWAP2 SUB SWAP1 REVERT JUMPDEST PUSH1 0x1 PUSH1 0x5 PUSH0 PUSH2 0x100 EXP DUP2 SLOAD DUP2 PUSH1 0xFF MUL NOT AND SWAP1 DUP4 ISZERO ISZERO MUL OR SWAP1 SSTORE POP JUMP JUMPDEST PUSH2 0x8D5 PUSH2 0xCF2 JUMP JUMPDEST PUSH1 0x5 PUSH0 SWAP1 SLOAD SWAP1 PUSH2 0x100 EXP SWAP1 DIV PUSH1 0xFF AND PUSH2 0x923 JUMPI PUSH1 0x40 MLOAD PUSH32 0x8C379A000000000000000000000000000000000000000000000000000000000 DUP2 MSTORE PUSH1 0x4 ADD PUSH2 0x91A SWAP1 PUSH2 0x1312 JUMP JUMPDEST PUSH1 0x40 MLOAD DUP1 SWAP2 SUB SWAP1 REVERT JUMPDEST PUSH1 0x6 PUSH0 DUP4 DUP2 MSTORE PUSH1 0x20 ADD SWAP1 DUP2 MSTORE PUSH1 0x20 ADD PUSH0 KECCAK256 PUSH1 0x40 MLOAD DUP1 PUSH1 0xE0 ADD PUSH1 0x40 MSTORE SWAP1 DUP2 PUSH0 DUP3 ADD DUP1 SLOAD PUSH2 0x94E SWAP1 PUSH2 0x1298 JUMP JUMPDEST DUP1 PUSH1 0x1F ADD PUSH1 0x20 DUP1 SWAP2 DIV MUL PUSH1 0x20 ADD PUSH1 0x40 MLOAD SWAP1 DUP2 ADD PUSH1 0x40 MSTORE DUP1 SWAP3 SWAP2 SWAP1 DUP2 DUP2 MSTORE PUSH1 0x20 ADD DUP3 DUP1 SLOAD PUSH2 0x97A SWAP1 PUSH2 0x1298 JUMP JUMPDEST DUP1 ISZERO PUSH2 0x9C5 JUMPI DUP1 PUSH1 0x1F LT PUSH2 0x99C JUMPI PUSH2 0x100 DUP1 DUP4 SLOAD DIV MUL DUP4 MSTORE SWAP2 PUSH1 0x20 ADD SWAP2 PUSH2 0x9C5 JUMP JUMPDEST DUP3 ADD SWAP2 SWAP1 PUSH0 MSTORE PUSH1 0x20 PUSH0 KECCAK256 SWAP1 JUMPDEST DUP2 SLOAD DUP2 MSTORE SWAP1 PUSH1 0x1 ADD SWAP1 PUSH1 0x20 ADD DUP1 DUP4 GT PUSH2 0x9A8 JUMPI DUP3 SWAP1 SUB PUSH1 0x1F AND DUP3 ADD SWAP2 JUMPDEST POP POP POP POP POP DUP2 MSTORE PUSH1 0x20 ADD PUSH1 0x1 DUP3 ADD DUP1 SLOAD PUSH2 0x9DE SWAP1 PUSH2 0x1298 JUMP JUMPDEST DUP1 PUSH1 0x1F ADD PUSH1 0x20 DUP1 SWAP2 DIV MUL PUSH1 0x20 ADD PUSH1 0x40 MLOAD SWAP1 DUP2 ADD PUSH1 0x40 MSTORE DUP1 SWAP3 SWAP2 SWAP1 DUP2 DUP2 MSTORE PUSH1 0x20 ADD DUP3 DUP1 SLOAD PUSH2 0xA0A SWAP1 PUSH2 0x1298 JUMP JUMPDEST DUP1 ISZERO PUSH2 0xA55 JUMPI DUP1 PUSH1 0x1F LT PUSH2 0xA2C JUMPI PUSH2 0x100 DUP1 DUP4 SLOAD DIV MUL DUP4 MSTORE SWAP2 PUSH1 0x20 ADD SWAP2 PUSH2 0xA55 JUMP JUMPDEST DUP3 ADD SWAP2 SWAP1 PUSH0 MSTORE PUSH1 0x20 PUSH0 KECCAK256 SWAP1 JUMPDEST DUP2 SLOAD DUP2 MSTORE SWAP1 PUSH1 0x1 ADD SWAP1 PUSH1 0x20 ADD DUP1 DUP4 GT PUSH2 0xA38 JUMPI DUP3 SWAP1 SUB PUSH1 0x1F AND DUP3 ADD SWAP2 JUMPDEST POP POP POP POP POP DUP2 MSTORE PUSH1 0x20 ADD PUSH1 0x2 DUP3 ADD SLOAD DUP2 MSTORE PUSH1 0x20 ADD PUSH1 0x3 DUP3 ADD SLOAD DUP2 MSTORE PUSH1 0x20 ADD PUSH1 0x4 DUP3 ADD SLOAD DUP2 MSTORE PUSH1 0x20 ADD PUSH1 0x5 DUP3 ADD SLOAD DUP2 MSTORE PUSH1 0x20 ADD PUSH1 0x6 DUP3 ADD PUSH0 SWAP1 SLOAD SWAP1 PUSH2 0x100 EXP SWAP1 DIV PUSH20 0xFFFFFFFFFFFFFFFFFFFFFFFFFFFFFFFFFFFFFFFF AND PUSH20 0xFFFFFFFFFFFFFFFFFFFFFFFFFFFFFFFFFFFFFFFF AND PUSH20 0xFFFFFFFFFFFFFFFFFFFFFFFFFFFFFFFFFFFFFFFF AND DUP2 MSTORE POP POP SWAP1 POP SWAP2 SWAP1 POP JUMP JUMPDEST PUSH1 0x2 PUSH0 SWAP1 SLOAD SWAP1 PUSH2 0x100 EXP SWAP1 DIV PUSH20 0xFFFFFFFFFFFFFFFFFFFFFFFFFFFFFFFFFFFFFFFF AND PUSH20 0xFFFFFFFFFFFFFFFFFFFFFFFFFFFFFFFFFFFFFFFF AND CALLER PUSH20 0xFFFFFFFFFFFFFFFFFFFFFFFFFFFFFFFFFFFFFFFF AND EQ PUSH2 0xB71 JUMPI PUSH1 0x40 MLOAD PUSH32 0x8C379A000000000000000000000000000000000000000000000000000000000 DUP2 MSTORE PUSH1 0x4 ADD PUSH2 0xB68 SWAP1 PUSH2 0x1687 JUMP JUMPDEST PUSH1 0x40 MLOAD DUP1 SWAP2 SUB SWAP1 REVERT JUMPDEST PUSH0 PUSH1 0x5 PUSH0 PUSH2 0x100 EXP DUP2 SLOAD DUP2 PUSH1 0xFF MUL NOT AND SWAP1 DUP4 ISZERO ISZERO MUL OR SWAP1 SSTORE POP JUMP JUMPDEST PUSH0 PUSH1 0x3 PUSH0 CALLER PUSH20 0xFFFFFFFFFFFFFFFFFFFFFFFFFFFFFFFFFFFFFFFF AND PUSH20 0xFFFFFFFFFFFFFFFFFFFFFFFFFFFFFFFFFFFFFFFF AND DUP2 MSTORE PUSH1 0x20 ADD SWAP1 DUP2 MSTORE PUSH1 0x20 ADD PUSH0 KECCAK256 SLOAD SUB PUSH2 0xC0B JUMPI PUSH1 0x40 MLOAD PUSH32 0x8C379A000000000000000000000000000000000000000000000000000000000 DUP2 MSTORE PUSH1 0x4 ADD PUSH2 0xC02 SWAP1 PUSH2 0x1715 JUMP JUMPDEST PUSH1 0x40 MLOAD DUP1 SWAP2 SUB SWAP1 REVERT JUMPDEST JUMP JUMPDEST PUSH1 0x5 PUSH0 SWAP1 SLOAD SWAP1 PUSH2 0x100 EXP SWAP1 DIV PUSH1 0xFF AND PUSH2 0xC5B JUMPI PUSH1 0x40 MLOAD PUSH32 0x8C379A000000000000000000000000000000000000000000000000000000000 DUP2 MSTORE PUSH1 0x4 ADD PUSH2 0xC52 SWAP1 PUSH2 0x1312 JUMP JUMPDEST PUSH1 0x40 MLOAD DUP1 SWAP2 SUB SWAP1 REVERT JUMPDEST POP JUMP JUMPDEST PUSH0 SLOAD CALLVALUE LT ISZERO PUSH2 0xCA2 JUMPI PUSH1 0x40 MLOAD PUSH32 0x8C379A000000000000000000000000000000000000000000000000000000000 DUP2 MSTORE PUSH1 0x4 ADD PUSH2 0xC99 SWAP1 PUSH2 0x177D JUMP JUMPDEST PUSH1 0x40 MLOAD DUP1 SWAP2 SUB SWAP1 REVERT JUMPDEST PUSH0 SLOAD CALLVALUE PUSH2 0xCAF SWAP2 SWAP1 PUSH2 0x17C8 JUMP JUMPDEST PUSH1 0x3 PUSH0 CALLER PUSH20 0xFFFFFFFFFFFFFFFFFFFFFFFFFFFFFFFFFFFFFFFF AND PUSH20 0xFFFFFFFFFFFFFFFFFFFFFFFFFFFFFFFFFFFFFFFF AND DUP2 MSTORE PUSH1 0x20 ADD SWAP1 DUP2 MSTORE PUSH1 0x20 ADD PUSH0 KECCAK256 DUP2 SWAP1 SSTORE POP JUMP JUMPDEST PUSH1 0x40 MLOAD DUP1 PUSH1 0xE0 ADD PUSH1 0x40 MSTORE DUP1 PUSH1 0x60 DUP2 MSTORE PUSH1 0x20 ADD PUSH1 0x60 DUP2 MSTORE PUSH1 0x20 ADD PUSH0 DUP2 MSTORE PUSH1 0x20 ADD PUSH0 DUP2 MSTORE PUSH1 0x20 ADD PUSH0 DUP2 MSTORE PUSH1 0x20 ADD PUSH0 DUP2 MSTORE PUSH1 0x20 ADD PUSH0 PUSH20 0xFFFFFFFFFFFFFFFFFFFFFFFFFFFFFFFFFFFFFFFF AND DUP2 MSTORE POP SWAP1 JUMP JUMPDEST PUSH0 DUP1 REVERT JUMPDEST PUSH0 DUP1 REVERT JUMPDEST PUSH0 DUP2 SWAP1 POP SWAP2 SWAP1 POP JUMP JUMPDEST PUSH2 0xD5A DUP2 PUSH2 0xD48 JUMP JUMPDEST DUP2 EQ PUSH2 0xD64 JUMPI PUSH0 DUP1 REVERT JUMPDEST POP JUMP JUMPDEST PUSH0 DUP2 CALLDATALOAD SWAP1 POP PUSH2 0xD75 DUP2 PUSH2 0xD51 JUMP JUMPDEST SWAP3 SWAP2 POP POP JUMP JUMPDEST PUSH0 PUSH1 0x20 DUP3 DUP5 SUB SLT ISZERO PUSH2 0xD90 JUMPI PUSH2 0xD8F PUSH2 0xD40 JUMP JUMPDEST JUMPDEST PUSH0 PUSH2 0xD9D DUP5 DUP3 DUP6 ADD PUSH2 0xD67 JUMP JUMPDEST SWAP2 POP POP SWAP3 SWAP2 POP POP JUMP JUMPDEST PUSH0 DUP2 MLOAD SWAP1 POP SWAP2 SWAP1 POP JUMP JUMPDEST PUSH0 DUP3 DUP3 MSTORE PUSH1 0x20 DUP3 ADD SWAP1 POP SWAP3 SWAP2 POP POP JUMP JUMPDEST DUP3 DUP2 DUP4 MCOPY PUSH0 DUP4 DUP4 ADD MSTORE POP POP POP JUMP JUMPDEST PUSH0 PUSH1 0x1F NOT PUSH1 0x1F DUP4 ADD AND SWAP1 POP SWAP2 SWAP1 POP JUMP JUMPDEST PUSH0 PUSH2 0xDE8 DUP3 PUSH2 0xDA6 JUMP JUMPDEST PUSH2 0xDF2 DUP2 DUP6 PUSH2 0xDB0 JUMP JUMPDEST SWAP4 POP PUSH2 0xE02 DUP2 DUP6 PUSH1 0x20 DUP7 ADD PUSH2 0xDC0 JUMP JUMPDEST PUSH2 0xE0B DUP2 PUSH2 0xDCE JUMP JUMPDEST DUP5 ADD SWAP2 POP POP SWAP3 SWAP2 POP POP JUMP JUMPDEST PUSH2 0xE1F DUP2 PUSH2 0xD48 JUMP JUMPDEST DUP3 MSTORE POP POP JUMP JUMPDEST PUSH0 PUSH20 0xFFFFFFFFFFFFFFFFFFFFFFFFFFFFFFFFFFFFFFFF DUP3 AND SWAP1 POP SWAP2 SWAP1 POP JUMP JUMPDEST PUSH0 PUSH2 0xE4E DUP3 PUSH2 0xE25 JUMP JUMPDEST SWAP1 POP SWAP2 SWAP1 POP JUMP JUMPDEST PUSH2 0xE5E DUP2 PUSH2 0xE44 JUMP JUMPDEST DUP3 MSTORE POP POP JUMP JUMPDEST PUSH0 PUSH1 0xE0 DUP3 ADD SWAP1 POP DUP2 DUP2 SUB PUSH0 DUP4 ADD MSTORE PUSH2 0xE7C DUP2 DUP11 PUSH2 0xDDE JUMP JUMPDEST SWAP1 POP DUP2 DUP2 SUB PUSH1 0x20 DUP4 ADD MSTORE PUSH2 0xE90 DUP2 DUP10 PUSH2 0xDDE JUMP JUMPDEST SWAP1 POP PUSH2 0xE9F PUSH1 0x40 DUP4 ADD DUP9 PUSH2 0xE16 JUMP JUMPDEST PUSH2 0xEAC PUSH1 0x60 DUP4 ADD DUP8 PUSH2 0xE16 JUMP JUMPDEST PUSH2 0xEB9 PUSH1 0x80 DUP4 ADD DUP7 PUSH2 0xE16 JUMP JUMPDEST PUSH2 0xEC6 PUSH1 0xA0 DUP4 ADD DUP6 PUSH2 0xE16 JUMP JUMPDEST PUSH2 0xED3 PUSH1 0xC0 DUP4 ADD DUP5 PUSH2 0xE55 JUMP JUMPDEST SWAP9 SWAP8 POP POP POP POP POP POP POP POP JUMP JUMPDEST PUSH0 DUP2 MLOAD SWAP1 POP SWAP2 SWAP1 POP JUMP JUMPDEST PUSH0 DUP3 DUP3 MSTORE PUSH1 0x20 DUP3 ADD SWAP1 POP SWAP3 SWAP2 POP POP JUMP JUMPDEST PUSH0 DUP2 SWAP1 POP PUSH1 0x20 DUP3 ADD SWAP1 POP SWAP2 SWAP1 POP JUMP JUMPDEST PUSH2 0xF11 DUP2 PUSH2 0xD48 JUMP JUMPDEST DUP3 MSTORE POP POP JUMP JUMPDEST PUSH0 PUSH2 0xF22 DUP4 DUP4 PUSH2 0xF08 JUMP JUMPDEST PUSH1 0x20 DUP4 ADD SWAP1 POP SWAP3 SWAP2 POP POP JUMP JUMPDEST PUSH0 PUSH1 0x20 DUP3 ADD SWAP1 POP SWAP2 SWAP1 POP JUMP JUMPDEST PUSH0 PUSH2 0xF44 DUP3 PUSH2 0xEDF JUMP JUMPDEST PUSH2 0xF4E DUP2 DUP6 PUSH2 0xEE9 JUMP JUMPDEST SWAP4 POP PUSH2 0xF59 DUP4 PUSH2 0xEF9 JUMP JUMPDEST DUP1 PUSH0 JUMPDEST DUP4 DUP2 LT ISZERO PUSH2 0xF89 JUMPI DUP2 MLOAD PUSH2 0xF70 DUP9 DUP3 PUSH2 0xF17 JUMP JUMPDEST SWAP8 POP PUSH2 0xF7B DUP4 PUSH2 0xF2E JUMP JUMPDEST SWAP3 POP POP PUSH1 0x1 DUP2 ADD SWAP1 POP PUSH2 0xF5C JUMP JUMPDEST POP DUP6 SWAP4 POP POP POP POP SWAP3 SWAP2 POP POP JUMP JUMPDEST PUSH0 PUSH1 0x20 DUP3 ADD SWAP1 POP DUP2 DUP2 SUB PUSH0 DUP4 ADD MSTORE PUSH2 0xFAE DUP2 DUP5 PUSH2 0xF3A JUMP JUMPDEST SWAP1 POP SWAP3 SWAP2 POP POP JUMP JUMPDEST PUSH0 PUSH1 0x20 DUP3 ADD SWAP1 POP PUSH2 0xFC9 PUSH0 DUP4 ADD DUP5 PUSH2 0xE55 JUMP JUMPDEST SWAP3 SWAP2 POP POP JUMP JUMPDEST PUSH0 DUP1 PUSH1 0x40 DUP4 DUP6 SUB SLT ISZERO PUSH2 0xFE5 JUMPI PUSH2 0xFE4 PUSH2 0xD40 JUMP JUMPDEST JUMPDEST PUSH0 PUSH2 0xFF2 DUP6 DUP3 DUP7 ADD PUSH2 0xD67 JUMP JUMPDEST SWAP3 POP POP PUSH1 0x20 PUSH2 0x1003 DUP6 DUP3 DUP7 ADD PUSH2 0xD67 JUMP JUMPDEST SWAP2 POP POP SWAP3 POP SWAP3 SWAP1 POP JUMP JUMPDEST PUSH0 DUP1 REVERT JUMPDEST PUSH0 DUP1 REVERT JUMPDEST PUSH0 DUP1 REVERT JUMPDEST PUSH0 DUP1 DUP4 PUSH1 0x1F DUP5 ADD SLT PUSH2 0x102E JUMPI PUSH2 0x102D PUSH2 0x100D JUMP JUMPDEST JUMPDEST DUP3 CALLDATALOAD SWAP1 POP PUSH8 0xFFFFFFFFFFFFFFFF DUP2 GT ISZERO PUSH2 0x104B JUMPI PUSH2 0x104A PUSH2 0x1011 JUMP JUMPDEST JUMPDEST PUSH1 0x20 DUP4 ADD SWAP2 POP DUP4 PUSH1 0x1 DUP3 MUL DUP4 ADD GT ISZERO PUSH2 0x1067 JUMPI PUSH2 0x1066 PUSH2 0x1015 JUMP JUMPDEST JUMPDEST SWAP3 POP SWAP3 SWAP1 POP JUMP JUMPDEST PUSH2 0x1077 DUP2 PUSH2 0xE44 JUMP JUMPDEST DUP2 EQ PUSH2 0x1081 JUMPI PUSH0 DUP1 REVERT JUMPDEST POP JUMP JUMPDEST PUSH0 DUP2 CALLDATALOAD SWAP1 POP PUSH2 0x1092 DUP2 PUSH2 0x106E JUMP JUMPDEST SWAP3 SWAP2 POP POP JUMP JUMPDEST PUSH0 DUP1 PUSH0 DUP1 PUSH0 DUP1 PUSH1 0x80 DUP8 DUP10 SUB SLT ISZERO PUSH2 0x10B2 JUMPI PUSH2 0x10B1 PUSH2 0xD40 JUMP JUMPDEST JUMPDEST PUSH0 DUP8 ADD CALLDATALOAD PUSH8 0xFFFFFFFFFFFFFFFF DUP2 GT ISZERO PUSH2 0x10CF JUMPI PUSH2 0x10CE PUSH2 0xD44 JUMP JUMPDEST JUMPDEST PUSH2 0x10DB DUP10 DUP3 DUP11 ADD PUSH2 0x1019 JUMP JUMPDEST SWAP7 POP SWAP7 POP POP PUSH1 0x20 DUP8 ADD CALLDATALOAD PUSH8 0xFFFFFFFFFFFFFFFF DUP2 GT ISZERO PUSH2 0x10FE JUMPI PUSH2 0x10FD PUSH2 0xD44 JUMP JUMPDEST JUMPDEST PUSH2 0x110A DUP10 DUP3 DUP11 ADD PUSH2 0x1019 JUMP JUMPDEST SWAP5 POP SWAP5 POP POP PUSH1 0x40 PUSH2 0x111D DUP10 DUP3 DUP11 ADD PUSH2 0xD67 JUMP JUMPDEST SWAP3 POP POP PUSH1 0x60 PUSH2 0x112E DUP10 DUP3 DUP11 ADD PUSH2 0x1084 JUMP JUMPDEST SWAP2 POP POP SWAP3 SWAP6 POP SWAP3 SWAP6 POP SWAP3 SWAP6 JUMP JUMPDEST PUSH0 PUSH1 0x20 DUP3 ADD SWAP1 POP PUSH2 0x114E PUSH0 DUP4 ADD DUP5 PUSH2 0xE16 JUMP JUMPDEST SWAP3 SWAP2 POP POP JUMP JUMPDEST PUSH0 DUP3 DUP3 MSTORE PUSH1 0x20 DUP3 ADD SWAP1 POP SWAP3 SWAP2 POP POP JUMP JUMPDEST PUSH0 PUSH2 0x116E DUP3 PUSH2 0xDA6 JUMP JUMPDEST PUSH2 0x1178 DUP2 DUP6 PUSH2 0x1154 JUMP JUMPDEST SWAP4 POP PUSH2 0x1188 DUP2 DUP6 PUSH1 0x20 DUP7 ADD PUSH2 0xDC0 JUMP JUMPDEST PUSH2 0x1191 DUP2 PUSH2 0xDCE JUMP JUMPDEST DUP5 ADD SWAP2 POP POP SWAP3 SWAP2 POP POP JUMP JUMPDEST PUSH2 0x11A5 DUP2 PUSH2 0xE44 JUMP JUMPDEST DUP3 MSTORE POP POP JUMP JUMPDEST PUSH0 PUSH1 0xE0 DUP4 ADD PUSH0 DUP4 ADD MLOAD DUP5 DUP3 SUB PUSH0 DUP7 ADD MSTORE PUSH2 0x11C5 DUP3 DUP3 PUSH2 0x1164 JUMP JUMPDEST SWAP2 POP POP PUSH1 0x20 DUP4 ADD MLOAD DUP5 DUP3 SUB PUSH1 0x20 DUP7 ADD MSTORE PUSH2 0x11DF DUP3 DUP3 PUSH2 0x1164 JUMP JUMPDEST SWAP2 POP POP PUSH1 0x40 DUP4 ADD MLOAD PUSH2 0x11F4 PUSH1 0x40 DUP7 ADD DUP3 PUSH2 0xF08 JUMP JUMPDEST POP PUSH1 0x60 DUP4 ADD MLOAD PUSH2 0x1207 PUSH1 0x60 DUP7 ADD DUP3 PUSH2 0xF08 JUMP JUMPDEST POP PUSH1 0x80 DUP4 ADD MLOAD PUSH2 0x121A PUSH1 0x80 DUP7 ADD DUP3 PUSH2 0xF08 JUMP JUMPDEST POP PUSH1 0xA0 DUP4 ADD MLOAD PUSH2 0x122D PUSH1 0xA0 DUP7 ADD DUP3 PUSH2 0xF08 JUMP JUMPDEST POP PUSH1 0xC0 DUP4 ADD MLOAD PUSH2 0x1240 PUSH1 0xC0 DUP7 ADD DUP3 PUSH2 0x119C JUMP JUMPDEST POP DUP1 SWAP2 POP POP SWAP3 SWAP2 POP POP JUMP JUMPDEST PUSH0 PUSH1 0x20 DUP3 ADD SWAP1 POP DUP2 DUP2 SUB PUSH0 DUP4 ADD MSTORE PUSH2 0x1263 DUP2 DUP5 PUSH2 0x11AB JUMP JUMPDEST SWAP1 POP SWAP3 SWAP2 POP POP JUMP JUMPDEST PUSH32 0x4E487B7100000000000000000000000000000000000000000000000000000000 PUSH0 MSTORE PUSH1 0x22 PUSH1 0x4 MSTORE PUSH1 0x24 PUSH0 REVERT JUMPDEST PUSH0 PUSH1 0x2 DUP3 DIV SWAP1 POP PUSH1 0x1 DUP3 AND DUP1 PUSH2 0x12AF JUMPI PUSH1 0x7F DUP3 AND SWAP2 POP JUMPDEST PUSH1 0x20 DUP3 LT DUP2 SUB PUSH2 0x12C2 JUMPI PUSH2 0x12C1 PUSH2 0x126B JUMP JUMPDEST JUMPDEST POP SWAP2 SWAP1 POP JUMP JUMPDEST PUSH32 0x566F74696E67206973206E6F74206F70656E6564000000000000000000000000 PUSH0 DUP3 ADD MSTORE POP JUMP JUMPDEST PUSH0 PUSH2 0x12FC PUSH1 0x14 DUP4 PUSH2 0xDB0 JUMP JUMPDEST SWAP2 POP PUSH2 0x1307 DUP3 PUSH2 0x12C8 JUMP JUMPDEST PUSH1 0x20 DUP3 ADD SWAP1 POP SWAP2 SWAP1 POP JUMP JUMPDEST PUSH0 PUSH1 0x20 DUP3 ADD SWAP1 POP DUP2 DUP2 SUB PUSH0 DUP4 ADD MSTORE PUSH2 0x1329 DUP2 PUSH2 0x12F0 JUMP JUMPDEST SWAP1 POP SWAP2 SWAP1 POP JUMP JUMPDEST PUSH32 0x4E487B7100000000000000000000000000000000000000000000000000000000 PUSH0 MSTORE PUSH1 0x11 PUSH1 0x4 MSTORE PUSH1 0x24 PUSH0 REVERT JUMPDEST PUSH0 PUSH2 0x1367 DUP3 PUSH2 0xD48 JUMP JUMPDEST SWAP2 POP PUSH32 0xFFFFFFFFFFFFFFFFFFFFFFFFFFFFFFFFFFFFFFFFFFFFFFFFFFFFFFFFFFFFFFFF DUP3 SUB PUSH2 0x1399 JUMPI PUSH2 0x1398 PUSH2 0x1330 JUMP JUMPDEST JUMPDEST PUSH1 0x1 DUP3 ADD SWAP1 POP SWAP2 SWAP1 POP JUMP JUMPDEST PUSH32 0x4E487B7100000000000000000000000000000000000000000000000000000000 PUSH0 MSTORE PUSH1 0x41 PUSH1 0x4 MSTORE PUSH1 0x24 PUSH0 REVERT JUMPDEST PUSH0 DUP2 SWAP1 POP DUP2 PUSH0 MSTORE PUSH1 0x20 PUSH0 KECCAK256 SWAP1 POP SWAP2 SWAP1 POP JUMP JUMPDEST PUSH0 PUSH1 0x20 PUSH1 0x1F DUP4 ADD DIV SWAP1 POP SWAP2 SWAP1 POP JUMP JUMPDEST PUSH0 DUP3 DUP3 SHL SWAP1 POP SWAP3 SWAP2 POP POP JUMP JUMPDEST PUSH0 PUSH1 0x8 DUP4 MUL PUSH2 0x142D PUSH32 0xFFFFFFFFFFFFFFFFFFFFFFFFFFFFFFFFFFFFFFFFFFFFFFFFFFFFFFFFFFFFFFFF DUP3 PUSH2 0x13F2 JUMP JUMPDEST PUSH2 0x1437 DUP7 DUP4 PUSH2 0x13F2 JUMP JUMPDEST SWAP6 POP DUP1 NOT DUP5 AND SWAP4 POP DUP1 DUP7 AND DUP5 OR SWAP3 POP POP POP SWAP4 SWAP3 POP POP POP JUMP JUMPDEST PUSH0 DUP2 SWAP1 POP SWAP2 SWAP1 POP JUMP JUMPDEST PUSH0 PUSH2 0x1472 PUSH2 0x146D PUSH2 0x1468 DUP5 PUSH2 0xD48 JUMP JUMPDEST PUSH2 0x144F JUMP JUMPDEST PUSH2 0xD48 JUMP JUMPDEST SWAP1 POP SWAP2 SWAP1 POP JUMP JUMPDEST PUSH0 DUP2 SWAP1 POP SWAP2 SWAP1 POP JUMP JUMPDEST PUSH2 0x148B DUP4 PUSH2 0x1458 JUMP JUMPDEST PUSH2 0x149F PUSH2 0x1497 DUP3 PUSH2 0x1479 JUMP JUMPDEST DUP5 DUP5 SLOAD PUSH2 0x13FE JUMP JUMPDEST DUP3 SSTORE POP POP POP POP JUMP JUMPDEST PUSH0 SWAP1 JUMP JUMPDEST PUSH2 0x14B3 PUSH2 0x14A7 JUMP JUMPDEST PUSH2 0x14BE DUP2 DUP5 DUP5 PUSH2 0x1482 JUMP JUMPDEST POP POP POP JUMP JUMPDEST JUMPDEST DUP2 DUP2 LT ISZERO PUSH2 0x14E1 JUMPI PUSH2 0x14D6 PUSH0 DUP3 PUSH2 0x14AB JUMP JUMPDEST PUSH1 0x1 DUP2 ADD SWAP1 POP PUSH2 0x14C4 JUMP JUMPDEST POP POP JUMP JUMPDEST PUSH1 0x1F DUP3 GT ISZERO PUSH2 0x1526 JUMPI PUSH2 0x14F7 DUP2 PUSH2 0x13D1 JUMP JUMPDEST PUSH2 0x1500 DUP5 PUSH2 0x13E3 JUMP JUMPDEST DUP2 ADD PUSH1 0x20 DUP6 LT ISZERO PUSH2 0x150F JUMPI DUP2 SWAP1 POP JUMPDEST PUSH2 0x1523 PUSH2 0x151B DUP6 PUSH2 0x13E3 JUMP JUMPDEST DUP4 ADD DUP3 PUSH2 0x14C3 JUMP JUMPDEST POP POP JUMPDEST POP POP POP JUMP JUMPDEST PUSH0 DUP3 DUP3 SHR SWAP1 POP SWAP3 SWAP2 POP POP JUMP JUMPDEST PUSH0 PUSH2 0x1546 PUSH0 NOT DUP5 PUSH1 0x8 MUL PUSH2 0x152B JUMP JUMPDEST NOT DUP1 DUP4 AND SWAP2 POP POP SWAP3 SWAP2 POP POP JUMP JUMPDEST PUSH0 PUSH2 0x155E DUP4 DUP4 PUSH2 0x1537 JUMP JUMPDEST SWAP2 POP DUP3 PUSH1 0x2 MUL DUP3 OR SWAP1 POP SWAP3 SWAP2 POP POP JUMP JUMPDEST PUSH2 0x1577 DUP3 PUSH2 0xDA6 JUMP JUMPDEST PUSH8 0xFFFFFFFFFFFFFFFF DUP2 GT ISZERO PUSH2 0x1590 JUMPI PUSH2 0x158F PUSH2 0x13A4 JUMP JUMPDEST JUMPDEST PUSH2 0x159A DUP3 SLOAD PUSH2 0x1298 JUMP JUMPDEST PUSH2 0x15A5 DUP3 DUP3 DUP6 PUSH2 0x14E5 JUMP JUMPDEST PUSH0 PUSH1 0x20 SWAP1 POP PUSH1 0x1F DUP4 GT PUSH1 0x1 DUP2 EQ PUSH2 0x15D6 JUMPI PUSH0 DUP5 ISZERO PUSH2 0x15C4 JUMPI DUP3 DUP8 ADD MLOAD SWAP1 POP JUMPDEST PUSH2 0x15CE DUP6 DUP3 PUSH2 0x1553 JUMP JUMPDEST DUP7 SSTORE POP PUSH2 0x1635 JUMP JUMPDEST PUSH1 0x1F NOT DUP5 AND PUSH2 0x15E4 DUP7 PUSH2 0x13D1 JUMP JUMPDEST PUSH0 JUMPDEST DUP3 DUP2 LT ISZERO PUSH2 0x160B JUMPI DUP5 DUP10 ADD MLOAD DUP3 SSTORE PUSH1 0x1 DUP3 ADD SWAP2 POP PUSH1 0x20 DUP6 ADD SWAP5 POP PUSH1 0x20 DUP2 ADD SWAP1 POP PUSH2 0x15E6 JUMP JUMPDEST DUP7 DUP4 LT ISZERO PUSH2 0x1628 JUMPI DUP5 DUP10 ADD MLOAD PUSH2 0x1624 PUSH1 0x1F DUP10 AND DUP3 PUSH2 0x1537 JUMP JUMPDEST DUP4 SSTORE POP JUMPDEST PUSH1 0x1 PUSH1 0x2 DUP9 MUL ADD DUP9 SSTORE POP POP POP JUMPDEST POP POP POP POP POP POP JUMP JUMPDEST PUSH32 0x4E6F74206F776E65720000000000000000000000000000000000000000000000 PUSH0 DUP3 ADD MSTORE POP JUMP JUMPDEST PUSH0 PUSH2 0x1671 PUSH1 0x9 DUP4 PUSH2 0xDB0 JUMP JUMPDEST SWAP2 POP PUSH2 0x167C DUP3 PUSH2 0x163D JUMP JUMPDEST PUSH1 0x20 DUP3 ADD SWAP1 POP SWAP2 SWAP1 POP JUMP JUMPDEST PUSH0 PUSH1 0x20 DUP3 ADD SWAP1 POP DUP2 DUP2 SUB PUSH0 DUP4 ADD MSTORE PUSH2 0x169E DUP2 PUSH2 0x1665 JUMP JUMPDEST SWAP1 POP SWAP2 SWAP1 POP JUMP JUMPDEST PUSH32 0x45737465207061727469636970616E7465206E6F206573746120696E73637269 PUSH0 DUP3 ADD MSTORE PUSH32 0x746F20656E206C6120766F746163696F6E000000000000000000000000000000 PUSH1 0x20 DUP3 ADD MSTORE POP JUMP JUMPDEST PUSH0 PUSH2 0x16FF PUSH1 0x31 DUP4 PUSH2 0xDB0 JUMP JUMPDEST SWAP2 POP PUSH2 0x170A DUP3 PUSH2 0x16A5 JUMP JUMPDEST PUSH1 0x40 DUP3 ADD SWAP1 POP SWAP2 SWAP1 POP JUMP JUMPDEST PUSH0 PUSH1 0x20 DUP3 ADD SWAP1 POP DUP2 DUP2 SUB PUSH0 DUP4 ADD MSTORE PUSH2 0x172C DUP2 PUSH2 0x16F3 JUMP JUMPDEST SWAP1 POP SWAP2 SWAP1 POP JUMP JUMPDEST PUSH32 0x4E6F20737566696369656E742066756E64730000000000000000000000000000 PUSH0 DUP3 ADD MSTORE POP JUMP JUMPDEST PUSH0 PUSH2 0x1767 PUSH1 0x12 DUP4 PUSH2 0xDB0 JUMP JUMPDEST SWAP2 POP PUSH2 0x1772 DUP3 PUSH2 0x1733 JUMP JUMPDEST PUSH1 0x20 DUP3 ADD SWAP1 POP SWAP2 SWAP1 POP JUMP JUMPDEST PUSH0 PUSH1 0x20 DUP3 ADD SWAP1 POP DUP2 DUP2 SUB PUSH0 DUP4 ADD MSTORE PUSH2 0x1794 DUP2 PUSH2 0x175B JUMP JUMPDEST SWAP1 POP SWAP2 SWAP1 POP JUMP JUMPDEST PUSH32 0x4E487B7100000000000000000000000000000000000000000000000000000000 PUSH0 MSTORE PUSH1 0x12 PUSH1 0x4 MSTORE PUSH1 0x24 PUSH0 REVERT JUMPDEST PUSH0 PUSH2 0x17D2 DUP3 PUSH2 0xD48 JUMP JUMPDEST SWAP2 POP PUSH2 0x17DD DUP4 PUSH2 0xD48 JUMP JUMPDEST SWAP3 POP DUP3 PUSH2 0x17ED JUMPI PUSH2 0x17EC PUSH2 0x179B JUMP JUMPDEST JUMPDEST DUP3 DUP3 DIV SWAP1 POP SWAP3 SWAP2 POP POP JUMP INVALID LOG2 PUSH5 0x6970667358 0x22 SLT KECCAK256 BYTE MUL PUSH24 0xCBEC245EB6810A1FE8080A09D17B7573D430214FC7F2D853 0xBB EXTCODECOPY 0xAA SGT 0xD3 PUSH5 0x736F6C6343 STOP ADDMOD BYTE STOP CALLER "
				},
				"gasEstimates": {
					"creation": {
						"codeDepositCost": "1238000",
						"executionCost": "54829",
						"totalCost": "1292829"
					},
					"external": {
						"addParticipant()": "infinite",
						"addProposal(string,string,uint256,address)": "infinite",
						"approve()": "189",
						"buyTokens()": "2698",
						"cancelProposal(uint256)": "2901",
						"closeVoting()": "26599",
						"getApprovedProposals()": "infinite",
						"getERC20()": "395",
						"getPendingProposals()": "infinite",
						"getProposalInfo(uint256)": "infinite",
						"openVoting()": "26645",
						"proposals(uint256)": "infinite",
						"removeParticipant()": "5328",
						"sellTokens()": "2441",
						"stake(uint256,uint256)": "infinite",
						"withdrawFromProposal(uint256,uint256)": "infinite"
					},
					"internal": {
						"_checkAndExecuteProposal()": "infinite"
					}
				},
				"methodIdentifiers": {
					"addParticipant()": "fffefd91",
					"addProposal(string,string,uint256,address)": "9ab3f7a6",
					"approve()": "12424e3f",
					"buyTokens()": "d0febe4c",
					"cancelProposal(uint256)": "e0a8f6f5",
					"closeVoting()": "c631b292",
					"getApprovedProposals()": "3ac0feac",
					"getERC20()": "4ece90a8",
					"getPendingProposals()": "a80db6fc",
					"getProposalInfo(uint256)": "bc903cb8",
					"openVoting()": "affc0670",
					"proposals(uint256)": "013cf08b",
					"removeParticipant()": "3d571e97",
					"sellTokens()": "9904e174",
					"stake(uint256,uint256)": "7b0472f0",
					"withdrawFromProposal(uint256,uint256)": "649c649c"
				}
			},
			"storageLayout": {
				"storage": [
					{
						"astId": 14,
						"contract": "PRACTICA FINAL/archivo1.sol:QuadraticVoting",
						"label": "tokenCost",
						"offset": 0,
						"slot": "0",
						"type": "t_uint256"
					},
					{
						"astId": 16,
						"contract": "PRACTICA FINAL/archivo1.sol:QuadraticVoting",
						"label": "numTokens",
						"offset": 0,
						"slot": "1",
						"type": "t_uint256"
					},
					{
						"astId": 18,
						"contract": "PRACTICA FINAL/archivo1.sol:QuadraticVoting",
						"label": "_owner",
						"offset": 0,
						"slot": "2",
						"type": "t_address"
					},
					{
						"astId": 22,
						"contract": "PRACTICA FINAL/archivo1.sol:QuadraticVoting",
						"label": "addressTokens",
						"offset": 0,
						"slot": "3",
						"type": "t_mapping(t_address,t_uint256)"
					},
					{
						"astId": 24,
						"contract": "PRACTICA FINAL/archivo1.sol:QuadraticVoting",
						"label": "proposalId",
						"offset": 0,
						"slot": "4",
						"type": "t_uint256"
					},
					{
						"astId": 26,
						"contract": "PRACTICA FINAL/archivo1.sol:QuadraticVoting",
						"label": "_isOpened",
						"offset": 0,
						"slot": "5",
						"type": "t_bool"
					},
					{
						"astId": 31,
						"contract": "PRACTICA FINAL/archivo1.sol:QuadraticVoting",
						"label": "proposals",
						"offset": 0,
						"slot": "6",
						"type": "t_mapping(t_uint256,t_struct(Proposal)46_storage)"
					}
				],
				"types": {
					"t_address": {
						"encoding": "inplace",
						"label": "address",
						"numberOfBytes": "20"
					},
					"t_bool": {
						"encoding": "inplace",
						"label": "bool",
						"numberOfBytes": "1"
					},
					"t_mapping(t_address,t_uint256)": {
						"encoding": "mapping",
						"key": "t_address",
						"label": "mapping(address => uint256)",
						"numberOfBytes": "32",
						"value": "t_uint256"
					},
					"t_mapping(t_uint256,t_struct(Proposal)46_storage)": {
						"encoding": "mapping",
						"key": "t_uint256",
						"label": "mapping(uint256 => struct QuadraticVoting.Proposal)",
						"numberOfBytes": "32",
						"value": "t_struct(Proposal)46_storage"
					},
					"t_string_storage": {
						"encoding": "bytes",
						"label": "string",
						"numberOfBytes": "32"
					},
					"t_struct(Proposal)46_storage": {
						"encoding": "inplace",
						"label": "struct QuadraticVoting.Proposal",
						"members": [
							{
								"astId": 33,
								"contract": "PRACTICA FINAL/archivo1.sol:QuadraticVoting",
								"label": "_title",
								"offset": 0,
								"slot": "0",
								"type": "t_string_storage"
							},
							{
								"astId": 35,
								"contract": "PRACTICA FINAL/archivo1.sol:QuadraticVoting",
								"label": "_description",
								"offset": 0,
								"slot": "1",
								"type": "t_string_storage"
							},
							{
								"astId": 37,
								"contract": "PRACTICA FINAL/archivo1.sol:QuadraticVoting",
								"label": "_participants",
								"offset": 0,
								"slot": "2",
								"type": "t_uint256"
							},
							{
								"astId": 39,
								"contract": "PRACTICA FINAL/archivo1.sol:QuadraticVoting",
								"label": "_budget",
								"offset": 0,
								"slot": "3",
								"type": "t_uint256"
							},
							{
								"astId": 41,
								"contract": "PRACTICA FINAL/archivo1.sol:QuadraticVoting",
								"label": "_votes",
								"offset": 0,
								"slot": "4",
								"type": "t_uint256"
							},
							{
								"astId": 43,
								"contract": "PRACTICA FINAL/archivo1.sol:QuadraticVoting",
								"label": "_umbral",
								"offset": 0,
								"slot": "5",
								"type": "t_uint256"
							},
							{
								"astId": 45,
								"contract": "PRACTICA FINAL/archivo1.sol:QuadraticVoting",
								"label": "_contractProposal",
								"offset": 0,
								"slot": "6",
								"type": "t_address"
							}
						],
						"numberOfBytes": "224"
					},
					"t_uint256": {
						"encoding": "inplace",
						"label": "uint256",
						"numberOfBytes": "32"
					}
				}
			},
			"userdoc": {
				"kind": "user",
				"methods": {},
				"version": 1
			}
		}
	}
}