{
	"data": {
		"bytecode": {
			"linkReferences": {},
			"object": "6080604052348015600e575f80fd5b506102388061001c5f395ff3fe60806040526004361061004d575f3560e01c80632dfca445146100585780638e499bcf14610082578063986cc311146100ac578063a3bef4d7146100c8578063ab96cc4c146100f257610054565b3661005457005b5f80fd5b348015610063575f80fd5b5061006c61011c565b604051610079919061016b565b60405180910390f35b34801561008d575f80fd5b50610096610121565b6040516100a3919061016b565b60405180910390f35b6100c660048036038101906100c191906101b2565b610127565b005b3480156100d3575f80fd5b506100dc610147565b6040516100e9919061016b565b60405180910390f35b3480156100fd575f80fd5b5061010661014d565b604051610113919061016b565b60405180910390f35b5f5481565b60025481565b825f81905550816001819055508060028190555034600381905550505050565b60015481565b60035481565b5f819050919050565b61016581610153565b82525050565b5f60208201905061017e5f83018461015c565b92915050565b5f80fd5b61019181610153565b811461019b575f80fd5b50565b5f813590506101ac81610188565b92915050565b5f805f606084860312156101c9576101c8610184565b5b5f6101d68682870161019e565b93505060206101e78682870161019e565b92505060406101f88682870161019e565b915050925092509256fea264697066735822122023ed21a3d6226815eb78aaa91440201823bb70559071dee247a52db05402220364736f6c634300081a0033",
			"opcodes": "PUSH1 0x80 PUSH1 0x40 MSTORE CALLVALUE DUP1 ISZERO PUSH1 0xE JUMPI PUSH0 DUP1 REVERT JUMPDEST POP PUSH2 0x238 DUP1 PUSH2 0x1C PUSH0 CODECOPY PUSH0 RETURN INVALID PUSH1 0x80 PUSH1 0x40 MSTORE PUSH1 0x4 CALLDATASIZE LT PUSH2 0x4D JUMPI PUSH0 CALLDATALOAD PUSH1 0xE0 SHR DUP1 PUSH4 0x2DFCA445 EQ PUSH2 0x58 JUMPI DUP1 PUSH4 0x8E499BCF EQ PUSH2 0x82 JUMPI DUP1 PUSH4 0x986CC311 EQ PUSH2 0xAC JUMPI DUP1 PUSH4 0xA3BEF4D7 EQ PUSH2 0xC8 JUMPI DUP1 PUSH4 0xAB96CC4C EQ PUSH2 0xF2 JUMPI PUSH2 0x54 JUMP JUMPDEST CALLDATASIZE PUSH2 0x54 JUMPI STOP JUMPDEST PUSH0 DUP1 REVERT JUMPDEST CALLVALUE DUP1 ISZERO PUSH2 0x63 JUMPI PUSH0 DUP1 REVERT JUMPDEST POP PUSH2 0x6C PUSH2 0x11C JUMP JUMPDEST PUSH1 0x40 MLOAD PUSH2 0x79 SWAP2 SWAP1 PUSH2 0x16B JUMP JUMPDEST PUSH1 0x40 MLOAD DUP1 SWAP2 SUB SWAP1 RETURN JUMPDEST CALLVALUE DUP1 ISZERO PUSH2 0x8D JUMPI PUSH0 DUP1 REVERT JUMPDEST POP PUSH2 0x96 PUSH2 0x121 JUMP JUMPDEST PUSH1 0x40 MLOAD PUSH2 0xA3 SWAP2 SWAP1 PUSH2 0x16B JUMP JUMPDEST PUSH1 0x40 MLOAD DUP1 SWAP2 SUB SWAP1 RETURN JUMPDEST PUSH2 0xC6 PUSH1 0x4 DUP1 CALLDATASIZE SUB DUP2 ADD SWAP1 PUSH2 0xC1 SWAP2 SWAP1 PUSH2 0x1B2 JUMP JUMPDEST PUSH2 0x127 JUMP JUMPDEST STOP JUMPDEST CALLVALUE DUP1 ISZERO PUSH2 0xD3 JUMPI PUSH0 DUP1 REVERT JUMPDEST POP PUSH2 0xDC PUSH2 0x147 JUMP JUMPDEST PUSH1 0x40 MLOAD PUSH2 0xE9 SWAP2 SWAP1 PUSH2 0x16B JUMP JUMPDEST PUSH1 0x40 MLOAD DUP1 SWAP2 SUB SWAP1 RETURN JUMPDEST CALLVALUE DUP1 ISZERO PUSH2 0xFD JUMPI PUSH0 DUP1 REVERT JUMPDEST POP PUSH2 0x106 PUSH2 0x14D JUMP JUMPDEST PUSH1 0x40 MLOAD PUSH2 0x113 SWAP2 SWAP1 PUSH2 0x16B JUMP JUMPDEST PUSH1 0x40 MLOAD DUP1 SWAP2 SUB SWAP1 RETURN JUMPDEST PUSH0 SLOAD DUP2 JUMP JUMPDEST PUSH1 0x2 SLOAD DUP2 JUMP JUMPDEST DUP3 PUSH0 DUP2 SWAP1 SSTORE POP DUP2 PUSH1 0x1 DUP2 SWAP1 SSTORE POP DUP1 PUSH1 0x2 DUP2 SWAP1 SSTORE POP CALLVALUE PUSH1 0x3 DUP2 SWAP1 SSTORE POP POP POP POP JUMP JUMPDEST PUSH1 0x1 SLOAD DUP2 JUMP JUMPDEST PUSH1 0x3 SLOAD DUP2 JUMP JUMPDEST PUSH0 DUP2 SWAP1 POP SWAP2 SWAP1 POP JUMP JUMPDEST PUSH2 0x165 DUP2 PUSH2 0x153 JUMP JUMPDEST DUP3 MSTORE POP POP JUMP JUMPDEST PUSH0 PUSH1 0x20 DUP3 ADD SWAP1 POP PUSH2 0x17E PUSH0 DUP4 ADD DUP5 PUSH2 0x15C JUMP JUMPDEST SWAP3 SWAP2 POP POP JUMP JUMPDEST PUSH0 DUP1 REVERT JUMPDEST PUSH2 0x191 DUP2 PUSH2 0x153 JUMP JUMPDEST DUP2 EQ PUSH2 0x19B JUMPI PUSH0 DUP1 REVERT JUMPDEST POP JUMP JUMPDEST PUSH0 DUP2 CALLDATALOAD SWAP1 POP PUSH2 0x1AC DUP2 PUSH2 0x188 JUMP JUMPDEST SWAP3 SWAP2 POP POP JUMP JUMPDEST PUSH0 DUP1 PUSH0 PUSH1 0x60 DUP5 DUP7 SUB SLT ISZERO PUSH2 0x1C9 JUMPI PUSH2 0x1C8 PUSH2 0x184 JUMP JUMPDEST JUMPDEST PUSH0 PUSH2 0x1D6 DUP7 DUP3 DUP8 ADD PUSH2 0x19E JUMP JUMPDEST SWAP4 POP POP PUSH1 0x20 PUSH2 0x1E7 DUP7 DUP3 DUP8 ADD PUSH2 0x19E JUMP JUMPDEST SWAP3 POP POP PUSH1 0x40 PUSH2 0x1F8 DUP7 DUP3 DUP8 ADD PUSH2 0x19E JUMP JUMPDEST SWAP2 POP POP SWAP3 POP SWAP3 POP SWAP3 JUMP INVALID LOG2 PUSH5 0x6970667358 0x22 SLT KECCAK256 0x23 0xED 0x21 LOG3 0xD6 0x22 PUSH9 0x15EB78AAA914402018 0x23 0xBB PUSH17 0x559071DEE247A52DB05402220364736F6C PUSH4 0x4300081A STOP CALLER "
		},
		"gasEstimates": {
			"creation": {
				"codeDepositCost": "113600",
				"executionCost": "157",
				"totalCost": "113757"
			},
			"external": {
				"executeProposal(uint256,uint256,uint256)": "infinite",
				"numTokens()": "2425",
				"numVotes()": "2469",
				"proposalId()": "2402",
				"receivedFunds()": "2491"
			}
		},
		"methodIdentifiers": {
			"executeProposal(uint256,uint256,uint256)": "986cc311",
			"numTokens()": "8e499bcf",
			"numVotes()": "a3bef4d7",
			"proposalId()": "2dfca445",
			"receivedFunds()": "ab96cc4c"
		}
	},
	"abi": [
		{
			"inputs": [
				{
					"internalType": "uint256",
					"name": "_proposalId",
					"type": "uint256"
				},
				{
					"internalType": "uint256",
					"name": "_numVotes",
					"type": "uint256"
				},
				{
					"internalType": "uint256",
					"name": "_numTokens",
					"type": "uint256"
				}
			],
			"name": "executeProposal",
			"outputs": [],
			"stateMutability": "payable",
			"type": "function"
		},
		{
			"inputs": [],
			"name": "numTokens",
			"outputs": [
				{
					"internalType": "uint256",
					"name": "",
					"type": "uint256"
				}
			],
			"stateMutability": "view",
			"type": "function"
		},
		{
			"inputs": [],
			"name": "numVotes",
			"outputs": [
				{
					"internalType": "uint256",
					"name": "",
					"type": "uint256"
				}
			],
			"stateMutability": "view",
			"type": "function"
		},
		{
			"inputs": [],
			"name": "proposalId",
			"outputs": [
				{
					"internalType": "uint256",
					"name": "",
					"type": "uint256"
				}
			],
			"stateMutability": "view",
			"type": "function"
		},
		{
			"inputs": [],
			"name": "receivedFunds",
			"outputs": [
				{
					"internalType": "uint256",
					"name": "",
					"type": "uint256"
				}
			],
			"stateMutability": "view",
			"type": "function"
		},
		{
			"stateMutability": "payable",
			"type": "receive"
		}
	]
}