{
	"data": {
		"bytecode": {
			"linkReferences": {},
			"object": "60a060405234801561000f575f80fd5b506040516183f13803806183f1833981810160405281019061003191906101d3565b5f8211610073576040517f08c379a000000000000000000000000000000000000000000000000000000000815260040161006a90610291565b60405180910390fd5b5f81116100b5576040517f08c379a00000000000000000000000000000000000000000000000000000000081526004016100ac9061031f565b60405180910390fd5b3373ffffffffffffffffffffffffffffffffffffffff1660808173ffffffffffffffffffffffffffffffffffffffff16815250505f60025f6101000a81548160ff02191690831515021790555081816040516101109061018f565b61011b9291906103e0565b604051809103905ff080158015610134573d5f803e3d5ffd5b505f806101000a81548173ffffffffffffffffffffffffffffffffffffffff021916908373ffffffffffffffffffffffffffffffffffffffff1602179055505f600a819055505f600b819055505f600181905550505061042d565b611d1b806166d683390190565b5f80fd5b5f819050919050565b6101b2816101a0565b81146101bc575f80fd5b50565b5f815190506101cd816101a9565b92915050565b5f80604083850312156101e9576101e861019c565b5b5f6101f6858286016101bf565b9250506020610207858286016101bf565b9150509250929050565b5f82825260208201905092915050565b7f456c2070726563696f206465206c6f7320746f6b656e732064656265207365725f8201527f206d61796f7220717565206365726f0000000000000000000000000000000000602082015250565b5f61027b602f83610211565b915061028682610221565b604082019050919050565b5f6020820190508181035f8301526102a88161026f565b9050919050565b7f456c206d6178696d6f206e756d65726f20646520746f6b656e73206120656d695f8201527f746972206465626520736572206d61796f7220717565206365726f0000000000602082015250565b5f610309603b83610211565b9150610314826102af565b604082019050919050565b5f6020820190508181035f830152610336816102fd565b9050919050565b7f44414f20566f746520546f6b656e0000000000000000000000000000000000005f82015250565b5f610371600e83610211565b915061037c8261033d565b602082019050919050565b7f44565400000000000000000000000000000000000000000000000000000000005f82015250565b5f6103bb600383610211565b91506103c682610387565b602082019050919050565b6103da816101a0565b82525050565b5f6080820190508181035f8301526103f781610365565b9050818103602083015261040a816103af565b905061041960408301856103d1565b61042660608301846103d1565b9392505050565b60805161627c61045a5f395f8181611d5501528181611e97015281816122820152612cc9015261627c5ff3fe6080604052600436106100fd575f3560e01c8063affc067011610094578063c631b29211610063578063c631b29214610300578063d0febe4c14610316578063da52a95f14610320578063e0a8f6f51461034a578063fffefd9114610372576100fd565b8063affc067014610266578063b2bdfa7b14610270578063bc903cb81461029a578063c1fc006a146102d6576100fd565b8063649c649c116100d0578063649c649c146101b25780636c11bcd3146101da5780637b0472f0146102025780639ab3f7a61461022a576100fd565b8063013cf08b146101015780633d571e9714610148578063400e39491461015e5780634ece90a814610188575b5f80fd5b34801561010c575f80fd5b506101276004803603810190610122919061429b565b61037c565b60405161013f9c9b9a9998979695949392919061439e565b60405180910390f35b348015610153575f80fd5b5061015c610549565b005b348015610169575f80fd5b5061017261063f565b60405161017f9190614464565b60405180910390f35b348015610193575f80fd5b5061019c610645565b6040516101a9919061447d565b60405180910390f35b3480156101bd575f80fd5b506101d860048036038101906101d39190614496565b61066c565b005b3480156101e5575f80fd5b5061020060048036038101906101fb919061429b565b610eaa565b005b34801561020d575f80fd5b5061022860048036038101906102239190614496565b611260565b005b348015610235575f80fd5b50610250600480360381019061024b919061455f565b61195a565b60405161025d9190614464565b60405180910390f35b61026e611d53565b005b34801561027b575f80fd5b50610284611e95565b604051610291919061447d565b60405180910390f35b3480156102a5575f80fd5b506102c060048036038101906102bb919061429b565b611eb9565b6040516102cd9190614843565b60405180910390f35b3480156102e1575f80fd5b506102ea61225d565b6040516102f791906148be565b60405180910390f35b34801561030b575f80fd5b50610314612280565b005b61031e612ed7565b005b34801561032b575f80fd5b50610334613196565b6040516103419190614464565b60405180910390f35b348015610355575f80fd5b50610370600480360381019061036b919061429b565b61319c565b005b61037a613701565b005b6009602052805f5260405f205f91509050805f0154908060010180546103a190614904565b80601f01602080910402602001604051908101604052809291908181526020018280546103cd90614904565b80156104185780601f106103ef57610100808354040283529160200191610418565b820191905f5260205f20905b8154815290600101906020018083116103fb57829003601f168201915b50505050509080600201805461042d90614904565b80601f016020809104026020016040519081016040528092919081815260200182805461045990614904565b80156104a45780601f1061047b576101008083540402835291602001916104a4565b820191905f5260205f20905b81548152906001019060200180831161048757829003601f168201915b505050505090806003015490806004015490806005015490806006015f9054906101000a900473ffffffffffffffffffffffffffffffffffffffff1690806007015f9054906101000a900473ffffffffffffffffffffffffffffffffffffffff16908060070160149054906101000a900460ff16908060070160159054906101000a900460ff16908060070160169054906101000a900460ff1690806008015490508c565b60085f3373ffffffffffffffffffffffffffffffffffffffff1673ffffffffffffffffffffffffffffffffffffffff1681526020019081526020015f205f9054906101000a900460ff166105d2576040517f08c379a00000000000000000000000000000000000000000000000000000000081526004016105c9906149a4565b60405180910390fd5b5f60085f3373ffffffffffffffffffffffffffffffffffffffff1673ffffffffffffffffffffffffffffffffffffffff1681526020019081526020015f205f6101000a81548160ff02191690831515021790555060075f815480929190610638906149ef565b9190505550565b600a5481565b5f805f9054906101000a900473ffffffffffffffffffffffffffffffffffffffff16905090565b60025f9054906101000a900460ff166106ba576040517f08c379a00000000000000000000000000000000000000000000000000000000081526004016106b190614a86565b60405180910390fd5b80600a5481106106ff576040517f08c379a00000000000000000000000000000000000000000000000000000000081526004016106f690614b14565b60405180910390fd5b60085f3373ffffffffffffffffffffffffffffffffffffffff1673ffffffffffffffffffffffffffffffffffffffff1681526020019081526020015f205f9054906101000a900460ff16610788576040517f08c379a000000000000000000000000000000000000000000000000000000000815260040161077f906149a4565b60405180910390fd5b8160095f8281526020019081526020015f2060070160169054906101000a900460ff16156107eb576040517f08c379a00000000000000000000000000000000000000000000000000000000081526004016107e290614ba2565b60405180910390fd5b8260095f8281526020019081526020015f2060070160159054906101000a900460ff161561084e576040517f08c379a000000000000000000000000000000000000000000000000000000000815260040161084590614c56565b60405180910390fd5b5f8511610890576040517f08c379a000000000000000000000000000000000000000000000000000000000815260040161088790614ce4565b60405180910390fd5b8460035f8681526020019081526020015f205f3373ffffffffffffffffffffffffffffffffffffffff1673ffffffffffffffffffffffffffffffffffffffff1681526020019081526020015f2054101561091f576040517f08c379a000000000000000000000000000000000000000000000000000000000815260040161091690614d72565b60405180910390fd5b5f60035f8681526020019081526020015f205f3373ffffffffffffffffffffffffffffffffffffffff1673ffffffffffffffffffffffffffffffffffffffff1681526020019081526020015f205490505f868261097c9190614d90565b90505f818261098b9190614dc3565b83846109979190614dc3565b6109a19190614d90565b9050805f8054906101000a900473ffffffffffffffffffffffffffffffffffffffff1673ffffffffffffffffffffffffffffffffffffffff166370a08231306040518263ffffffff1660e01b81526004016109fc919061447d565b602060405180830381865afa158015610a17573d5f803e3d5ffd5b505050506040513d601f19601f82011682018060405250810190610a3b9190614e18565b1015610a7c576040517f08c379a0000000000000000000000000000000000000000000000000000000008152600401610a7390614eb3565b60405180910390fd5b5f805f9054906101000a900473ffffffffffffffffffffffffffffffffffffffff1673ffffffffffffffffffffffffffffffffffffffff1663a9059cbb33846040518363ffffffff1660e01b8152600401610ad8929190614ed1565b6020604051808303815f875af1158015610af4573d5f803e3d5ffd5b505050506040513d601f19601f82011682018060405250810190610b189190614f22565b905080610b5a576040517f08c379a0000000000000000000000000000000000000000000000000000000008152600401610b5190614fbd565b60405180910390fd5b8260035f8a81526020019081526020015f205f3373ffffffffffffffffffffffffffffffffffffffff1673ffffffffffffffffffffffffffffffffffffffff1681526020019081526020015f20819055508860095f8a81526020019081526020015f206004015f828254610bce9190614d90565b925050819055508160095f8a81526020019081526020015f206008015f828254610bf89190614d90565b925050819055505f8303610e9f575f60045f8a81526020019081526020015f205f3373ffffffffffffffffffffffffffffffffffffffff1673ffffffffffffffffffffffffffffffffffffffff1681526020019081526020015f205490505f600160095f8c81526020019081526020015f2060090180549050610c7b9190614d90565b9050808214610d94575f60095f8c81526020019081526020015f206009018281548110610cab57610caa614fdb565b5b905f5260205f20015f9054906101000a900473ffffffffffffffffffffffffffffffffffffffff1690508060095f8d81526020019081526020015f206009018481548110610cfc57610cfb614fdb565b5b905f5260205f20015f6101000a81548173ffffffffffffffffffffffffffffffffffffffff021916908373ffffffffffffffffffffffffffffffffffffffff1602179055508260045f8d81526020019081526020015f205f8373ffffffffffffffffffffffffffffffffffffffff1673ffffffffffffffffffffffffffffffffffffffff1681526020019081526020015f2081905550505b60095f8b81526020019081526020015f20600901805480610db857610db7615008565b5b600190038181905f5260205f20015f6101000a81549073ffffffffffffffffffffffffffffffffffffffff021916905590555f60055f8c81526020019081526020015f205f3373ffffffffffffffffffffffffffffffffffffffff1673ffffffffffffffffffffffffffffffffffffffff1681526020019081526020015f205f6101000a81548160ff02191690831515021790555060045f8b81526020019081526020015f205f3373ffffffffffffffffffffffffffffffffffffffff1673ffffffffffffffffffffffffffffffffffffffff1681526020019081526020015f205f905550505b505050505050505050565b60085f3373ffffffffffffffffffffffffffffffffffffffff1673ffffffffffffffffffffffffffffffffffffffff1681526020019081526020015f205f9054906101000a900460ff16610f33576040517f08c379a0000000000000000000000000000000000000000000000000000000008152600401610f2a906149a4565b60405180910390fd5b5f8111610f75576040517f08c379a0000000000000000000000000000000000000000000000000000000008152600401610f6c906150a5565b60405180910390fd5b805f8054906101000a900473ffffffffffffffffffffffffffffffffffffffff1673ffffffffffffffffffffffffffffffffffffffff166370a08231336040518263ffffffff1660e01b8152600401610fce919061447d565b602060405180830381865afa158015610fe9573d5f803e3d5ffd5b505050506040513d601f19601f8201168201806040525081019061100d9190614e18565b101561104e576040517f08c379a000000000000000000000000000000000000000000000000000000000815260040161104590615133565b60405180910390fd5b5f805f9054906101000a900473ffffffffffffffffffffffffffffffffffffffff1673ffffffffffffffffffffffffffffffffffffffff16634b94f50e6040518163ffffffff1660e01b8152600401602060405180830381865afa1580156110b8573d5f803e3d5ffd5b505050506040513d601f19601f820116820180604052508101906110dc9190614e18565b826110e79190614dc3565b90508047101561112c576040517f08c379a0000000000000000000000000000000000000000000000000000000008152600401611123906151c1565b60405180910390fd5b5f8054906101000a900473ffffffffffffffffffffffffffffffffffffffff1673ffffffffffffffffffffffffffffffffffffffff16639dc29fac33846040518363ffffffff1660e01b8152600401611186929190614ed1565b5f604051808303815f87803b15801561119d575f80fd5b505af11580156111af573d5f803e3d5ffd5b505050505f3373ffffffffffffffffffffffffffffffffffffffff16826040516111d89061520c565b5f6040518083038185875af1925050503d805f8114611212576040519150601f19603f3d011682016040523d82523d5f602084013e611217565b606091505b505090508061125b576040517f08c379a000000000000000000000000000000000000000000000000000000000815260040161125290615290565b60405180910390fd5b505050565b60025f9054906101000a900460ff166112ae576040517f08c379a00000000000000000000000000000000000000000000000000000000081526004016112a590614a86565b60405180910390fd5b81600a5481106112f3576040517f08c379a00000000000000000000000000000000000000000000000000000000081526004016112ea90614b14565b60405180910390fd5b60085f3373ffffffffffffffffffffffffffffffffffffffff1673ffffffffffffffffffffffffffffffffffffffff1681526020019081526020015f205f9054906101000a900460ff1661137c576040517f08c379a0000000000000000000000000000000000000000000000000000000008152600401611373906149a4565b60405180910390fd5b8260095f8281526020019081526020015f2060070160169054906101000a900460ff16156113df576040517f08c379a00000000000000000000000000000000000000000000000000000000081526004016113d690614ba2565b60405180910390fd5b8360095f8281526020019081526020015f2060070160159054906101000a900460ff1615611442576040517f08c379a000000000000000000000000000000000000000000000000000000000815260040161143990614c56565b60405180910390fd5b5f8411611484576040517f08c379a000000000000000000000000000000000000000000000000000000000815260040161147b9061531e565b60405180910390fd5b5f60035f8781526020019081526020015f205f3373ffffffffffffffffffffffffffffffffffffffff1673ffffffffffffffffffffffffffffffffffffffff1681526020019081526020015f205490505f85826114e1919061533c565b90505f82836114f09190614dc3565b82836114fc9190614dc3565b6115069190614d90565b9050805f8054906101000a900473ffffffffffffffffffffffffffffffffffffffff1673ffffffffffffffffffffffffffffffffffffffff1663dd62ed3e33306040518363ffffffff1660e01b815260040161156392919061536f565b602060405180830381865afa15801561157e573d5f803e3d5ffd5b505050506040513d601f19601f820116820180604052508101906115a29190614e18565b10156115e3576040517f08c379a00000000000000000000000000000000000000000000000000000000081526004016115da90615406565b60405180910390fd5b5f805f9054906101000a900473ffffffffffffffffffffffffffffffffffffffff1673ffffffffffffffffffffffffffffffffffffffff166323b872dd3330856040518463ffffffff1660e01b815260040161164193929190615424565b6020604051808303815f875af115801561165d573d5f803e3d5ffd5b505050506040513d601f19601f820116820180604052508101906116819190614f22565b9050806116c3576040517f08c379a00000000000000000000000000000000000000000000000000000000081526004016116ba90614fbd565b60405180910390fd5b5f84036118155760095f8a81526020019081526020015f2060090133908060018154018082558091505060019003905f5260205f20015f9091909190916101000a81548173ffffffffffffffffffffffffffffffffffffffff021916908373ffffffffffffffffffffffffffffffffffffffff160217905550600160095f8b81526020019081526020015f20600901805490506117609190614d90565b60045f8b81526020019081526020015f205f3373ffffffffffffffffffffffffffffffffffffffff1673ffffffffffffffffffffffffffffffffffffffff1681526020019081526020015f2081905550600160055f8b81526020019081526020015f205f3373ffffffffffffffffffffffffffffffffffffffff1673ffffffffffffffffffffffffffffffffffffffff1681526020019081526020015f205f6101000a81548160ff0219169083151502179055505b8260035f8b81526020019081526020015f205f3373ffffffffffffffffffffffffffffffffffffffff1673ffffffffffffffffffffffffffffffffffffffff1681526020019081526020015f20819055508760095f8b81526020019081526020015f206004015f828254611889919061533c565b925050819055508160095f8b81526020019081526020015f206008015f8282546118b3919061533c565b9250508190555060095f8a81526020019081526020015f2060070160149054906101000a900460ff1661194f5760095f8a81526020019081526020015f205060095f8a81526020019081526020015f206005015460095f8b81526020019081526020015f206004015411801561193f575060095f8a81526020019081526020015f206003015460015410155b1561194e5761194d89613a2e565b5b5b505050505050505050565b5f60025f9054906101000a900460ff166119a9576040517f08c379a00000000000000000000000000000000000000000000000000000000081526004016119a090614a86565b60405180910390fd5b60085f3373ffffffffffffffffffffffffffffffffffffffff1673ffffffffffffffffffffffffffffffffffffffff1681526020019081526020015f205f9054906101000a900460ff16611a32576040517f08c379a0000000000000000000000000000000000000000000000000000000008152600401611a29906149a4565b60405180910390fd5b5f73ffffffffffffffffffffffffffffffffffffffff168273ffffffffffffffffffffffffffffffffffffffff1603611aa0576040517f08c379a0000000000000000000000000000000000000000000000000000000008152600401611a97906154c9565b60405180910390fd5b5f8787905011611ae5576040517f08c379a0000000000000000000000000000000000000000000000000000000008152600401611adc90615557565b60405180910390fd5b5f8585905011611b2a576040517f08c379a0000000000000000000000000000000000000000000000000000000008152600401611b21906155e5565b60405180910390fd5b5f600a549050600a5f815480929190611b4290615603565b91905055505f60095f8381526020019081526020015f20905081815f01819055508888826001019182611b76929190615815565b508686826002019182611b8a929190615815565b5084816003018190555083816006015f6101000a81548173ffffffffffffffffffffffffffffffffffffffff021916908373ffffffffffffffffffffffffffffffffffffffff16021790555033816007015f6101000a81548173ffffffffffffffffffffffffffffffffffffffff021916908373ffffffffffffffffffffffffffffffffffffffff1602179055505f851115611cb6575f8160070160146101000a81548160ff021916908315150217905550600b5f815480929190611c4e90615603565b9190505550600c82908060018154018082558091505060019003905f5260205f20015f90919091909150556001600c80549050611c8b9190614d90565b60065f8481526020019081526020015f2081905550611ca982614098565b8160050181905550611cfa565b60018160070160146101000a81548160ff021916908315150217905550600e82908060018154018082558091505060019003905f5260205f20015f90919091909150555b5f81600401819055505f81600801819055505f8160070160156101000a81548160ff0219169083151502179055505f8160070160166101000a81548160ff02191690831515021790555081925050509695505050505050565b7f000000000000000000000000000000000000000000000000000000000000000073ffffffffffffffffffffffffffffffffffffffff163373ffffffffffffffffffffffffffffffffffffffff1614611de1576040517f08c379a0000000000000000000000000000000000000000000000000000000008152600401611dd890615952565b60405180910390fd5b60025f9054906101000a900460ff1615611e30576040517f08c379a0000000000000000000000000000000000000000000000000000000008152600401611e27906159e0565b60405180910390fd5b5f3411611e72576040517f08c379a0000000000000000000000000000000000000000000000000000000008152600401611e6990615a6e565b60405180910390fd5b34600181905550600160025f6101000a81548160ff021916908315150217905550565b7f000000000000000000000000000000000000000000000000000000000000000081565b611ec161414c565b60025f9054906101000a900460ff16611f0f576040517f08c379a0000000000000000000000000000000000000000000000000000000008152600401611f0690614a86565b60405180910390fd5b81600a548110611f54576040517f08c379a0000000000000000000000000000000000000000000000000000000008152600401611f4b90614b14565b60405180910390fd5b611f5c61414c565b83815f01818152505060095f8581526020019081526020015f206003015481606001818152505060095f8581526020019081526020015f206006015f9054906101000a900473ffffffffffffffffffffffffffffffffffffffff168160c0019073ffffffffffffffffffffffffffffffffffffffff16908173ffffffffffffffffffffffffffffffffffffffff168152505060095f8581526020019081526020015f206007015f9054906101000a900473ffffffffffffffffffffffffffffffffffffffff168160e0019073ffffffffffffffffffffffffffffffffffffffff16908173ffffffffffffffffffffffffffffffffffffffff168152505060095f8581526020019081526020015f20600201805461207890614904565b80601f01602080910402602001604051908101604052809291908181526020018280546120a490614904565b80156120ef5780601f106120c6576101008083540402835291602001916120ef565b820191905f5260205f20905b8154815290600101906020018083116120d257829003601f168201915b5050505050816040018190525060095f8581526020019081526020015f2060070160159054906101000a900460ff168161012001901515908115158152505060095f8581526020019081526020015f2060070160169054906101000a900460ff168161014001901515908115158152505060095f8581526020019081526020015f2060070160149054906101000a900460ff168161010001901515908115158152505060095f8581526020019081526020015f2060010180546121b190614904565b80601f01602080910402602001604051908101604052809291908181526020018280546121dd90614904565b80156122285780601f106121ff57610100808354040283529160200191612228565b820191905f5260205f20905b81548152906001019060200180831161220b57829003601f168201915b5050505050816020018190525060095f8581526020019081526020015f20600501548160a00181815250508092505050919050565b5f8054906101000a900473ffffffffffffffffffffffffffffffffffffffff1681565b7f000000000000000000000000000000000000000000000000000000000000000073ffffffffffffffffffffffffffffffffffffffff163373ffffffffffffffffffffffffffffffffffffffff161461230e576040517f08c379a000000000000000000000000000000000000000000000000000000000815260040161230590615952565b60405180910390fd5b60025f9054906101000a900460ff1661235c576040517f08c379a000000000000000000000000000000000000000000000000000000000815260040161235390614a86565b60405180910390fd5b5f5b600c8054905081101561277e575f600c82815481106123805761237f614fdb565b5b905f5260205f2001549050600160095f8381526020019081526020015f2060070160166101000a81548160ff021916908315150217905550600b5f8154809291906123ca906149ef565b91905055505f5b60095f8381526020019081526020015f206009018054905081101561271e575f60095f8481526020019081526020015f20600901828154811061241757612416614fdb565b5b905f5260205f20015f9054906101000a900473ffffffffffffffffffffffffffffffffffffffff1690505f60035f8581526020019081526020015f205f8373ffffffffffffffffffffffffffffffffffffffff1673ffffffffffffffffffffffffffffffffffffffff1681526020019081526020015f205490505f811115612602575f81826124a69190614dc3565b90505f60035f8781526020019081526020015f205f8573ffffffffffffffffffffffffffffffffffffffff1673ffffffffffffffffffffffffffffffffffffffff1681526020019081526020015f20819055505f60055f8781526020019081526020015f205f8573ffffffffffffffffffffffffffffffffffffffff1673ffffffffffffffffffffffffffffffffffffffff1681526020019081526020015f205f6101000a81548160ff0219169083151502179055505f811115612600575f8054906101000a900473ffffffffffffffffffffffffffffffffffffffff1673ffffffffffffffffffffffffffffffffffffffff1663a9059cbb84836040518363ffffffff1660e01b81526004016125be929190614ed1565b6020604051808303815f875af11580156125da573d5f803e3d5ffd5b505050506040513d601f19601f820116820180604052508101906125fe9190614f22565b505b505b60035f8581526020019081526020015f205f8373ffffffffffffffffffffffffffffffffffffffff1673ffffffffffffffffffffffffffffffffffffffff1681526020019081526020015f205f905560045f8581526020019081526020015f205f8373ffffffffffffffffffffffffffffffffffffffff1673ffffffffffffffffffffffffffffffffffffffff1681526020019081526020015f205f905560055f8581526020019081526020015f205f8373ffffffffffffffffffffffffffffffffffffffff1673ffffffffffffffffffffffffffffffffffffffff1681526020019081526020015f205f6101000a81549060ff021916905560065f8581526020019081526020015f205f9055505080806001019150506123d1565b505f60095f8381526020019081526020015f20600401819055505f60095f8381526020019081526020015f206008018190555060095f8281526020019081526020015f206009015f61277091906141dc565b50808060010191505061235e565b505f5b600e80549050811015612cae575f600e82815481106127a3576127a2614fdb565b5b905f5260205f20015490505f60095f8381526020019081526020015f2090508060070160169054906101000a900460ff161580156127f057508060070160159054906101000a900460ff16155b15612c9f575f73ffffffffffffffffffffffffffffffffffffffff16816006015f9054906101000a900473ffffffffffffffffffffffffffffffffffffffff1673ffffffffffffffffffffffffffffffffffffffff1614612961575f816006015f9054906101000a900473ffffffffffffffffffffffffffffffffffffffff1673ffffffffffffffffffffffffffffffffffffffff165f620186a09063986cc31160e01b86866004015487600801546040516024016128b193929190615a8c565b604051602081830303815290604052907bffffffffffffffffffffffffffffffffffffffffffffffffffffffff19166020820180517bffffffffffffffffffffffffffffffffffffffffffffffffffffffff838183161783525050505060405161291b9190615afb565b5f60405180830381858888f193505050503d805f8114612956576040519150601f19603f3d011682016040523d82523d5f602084013e61295b565b606091505b50509050505b5f5b8160090180549050811015612c7c575f82600901828154811061298957612988614fdb565b5b905f5260205f20015f9054906101000a900473ffffffffffffffffffffffffffffffffffffffff1690505f60035f8681526020019081526020015f205f8373ffffffffffffffffffffffffffffffffffffffff1673ffffffffffffffffffffffffffffffffffffffff1681526020019081526020015f205490505f811115612b74575f8182612a189190614dc3565b90505f60035f8881526020019081526020015f205f8573ffffffffffffffffffffffffffffffffffffffff1673ffffffffffffffffffffffffffffffffffffffff1681526020019081526020015f20819055505f60055f8881526020019081526020015f205f8573ffffffffffffffffffffffffffffffffffffffff1673ffffffffffffffffffffffffffffffffffffffff1681526020019081526020015f205f6101000a81548160ff0219169083151502179055505f811115612b72575f8054906101000a900473ffffffffffffffffffffffffffffffffffffffff1673ffffffffffffffffffffffffffffffffffffffff1663a9059cbb84836040518363ffffffff1660e01b8152600401612b30929190614ed1565b6020604051808303815f875af1158015612b4c573d5f803e3d5ffd5b505050506040513d601f19601f82011682018060405250810190612b709190614f22565b505b505b60035f8681526020019081526020015f205f8373ffffffffffffffffffffffffffffffffffffffff1673ffffffffffffffffffffffffffffffffffffffff1681526020019081526020015f205f905560045f8681526020019081526020015f205f8373ffffffffffffffffffffffffffffffffffffffff1673ffffffffffffffffffffffffffffffffffffffff1681526020019081526020015f205f905560055f8681526020019081526020015f205f8373ffffffffffffffffffffffffffffffffffffffff1673ffffffffffffffffffffffffffffffffffffffff1681526020019081526020015f205f6101000a81549060ff021916905550508080600101915050612963565b505f81600401819055505f8160080181905550806009015f612c9e91906141dc565b5b50508080600101915050612781565b505f6001541115612d91575f60015490505f6001819055505f7f000000000000000000000000000000000000000000000000000000000000000073ffffffffffffffffffffffffffffffffffffffff1682604051612d0b9061520c565b5f6040518083038185875af1925050503d805f8114612d45576040519150601f19603f3d011682016040523d82523d5f602084013e612d4a565b606091505b5050905080612d8e576040517f08c379a0000000000000000000000000000000000000000000000000000000008152600401612d8590615b81565b60405180910390fd5b50505b5f60025f6101000a81548160ff0219169083151502179055505f67ffffffffffffffff811115612dc457612dc3615654565b5b604051908082528060200260200182016040528015612df25781602001602082028036833780820191505090505b50600e9080519060200190612e089291906141fa565b505f67ffffffffffffffff811115612e2357612e22615654565b5b604051908082528060200260200182016040528015612e515781602001602082028036833780820191505090505b50600c9080519060200190612e679291906141fa565b505f67ffffffffffffffff811115612e8257612e81615654565b5b604051908082528060200260200182016040528015612eb05781602001602082028036833780820191505090505b50600d9080519060200190612ec69291906141fa565b505f600a819055505f600b81905550565b60085f3373ffffffffffffffffffffffffffffffffffffffff1673ffffffffffffffffffffffffffffffffffffffff1681526020019081526020015f205f9054906101000a900460ff16612f60576040517f08c379a0000000000000000000000000000000000000000000000000000000008152600401612f57906149a4565b60405180910390fd5b5f8054906101000a900473ffffffffffffffffffffffffffffffffffffffff1673ffffffffffffffffffffffffffffffffffffffff16634b94f50e6040518163ffffffff1660e01b8152600401602060405180830381865afa158015612fc8573d5f803e3d5ffd5b505050506040513d601f19601f82011682018060405250810190612fec9190614e18565b34101561302e576040517f08c379a000000000000000000000000000000000000000000000000000000000815260040161302590615c35565b60405180910390fd5b5f805f9054906101000a900473ffffffffffffffffffffffffffffffffffffffff1673ffffffffffffffffffffffffffffffffffffffff16634b94f50e6040518163ffffffff1660e01b8152600401602060405180830381865afa158015613098573d5f803e3d5ffd5b505050506040513d601f19601f820116820180604052508101906130bc9190614e18565b346130c79190615c80565b90506001811161310c576040517f08c379a000000000000000000000000000000000000000000000000000000000815260040161310390615d20565b60405180910390fd5b5f8054906101000a900473ffffffffffffffffffffffffffffffffffffffff1673ffffffffffffffffffffffffffffffffffffffff166340c10f1933836040518363ffffffff1660e01b8152600401613166929190614ed1565b5f604051808303815f87803b15801561317d575f80fd5b505af115801561318f573d5f803e3d5ffd5b5050505050565b600b5481565b60025f9054906101000a900460ff166131ea576040517f08c379a00000000000000000000000000000000000000000000000000000000081526004016131e190614a86565b60405180910390fd5b80600a54811061322f576040517f08c379a000000000000000000000000000000000000000000000000000000000815260040161322690614b14565b60405180910390fd5b8160095f8281526020019081526020015f2060070160169054906101000a900460ff1615613292576040517f08c379a000000000000000000000000000000000000000000000000000000000815260040161328990614ba2565b60405180910390fd5b8260095f8281526020019081526020015f2060070160159054906101000a900460ff16156132f5576040517f08c379a00000000000000000000000000000000000000000000000000000000081526004016132ec90614c56565b60405180910390fd5b60095f8581526020019081526020015f206007015f9054906101000a900473ffffffffffffffffffffffffffffffffffffffff1673ffffffffffffffffffffffffffffffffffffffff163373ffffffffffffffffffffffffffffffffffffffff1614613396576040517f08c379a000000000000000000000000000000000000000000000000000000000815260040161338d90615dd4565b60405180910390fd5b600160095f8681526020019081526020015f2060070160166101000a81548160ff02191690831515021790555060095f8581526020019081526020015f2060070160149054906101000a900460ff166134c657600b5f8154809291906133fb906149ef565b91905055505f60065f8681526020019081526020015f205490505f6001600c805490506134289190614d90565b905080821461348a575f600c828154811061344657613445614fdb565b5b905f5260205f200154905080600c848154811061346657613465614fdb565b5b905f5260205f2001819055508260065f8381526020019081526020015f2081905550505b600c80548061349c5761349b615008565b5b600190038181905f5260205f20015f9055905560065f8781526020019081526020015f205f905550505b5f5b60095f8681526020019081526020015f20600901805490508110156136a9575f60095f8781526020019081526020015f20600901828154811061350e5761350d614fdb565b5b905f5260205f20015f9054906101000a900473ffffffffffffffffffffffffffffffffffffffff1690505f60035f8881526020019081526020015f205f8373ffffffffffffffffffffffffffffffffffffffff1673ffffffffffffffffffffffffffffffffffffffff1681526020019081526020015f205490505f8111156135a1575f818261359d9190614dc3565b9050505b60035f8881526020019081526020015f205f8373ffffffffffffffffffffffffffffffffffffffff1673ffffffffffffffffffffffffffffffffffffffff1681526020019081526020015f205f905560045f8881526020019081526020015f205f8373ffffffffffffffffffffffffffffffffffffffff1673ffffffffffffffffffffffffffffffffffffffff1681526020019081526020015f205f905560055f8881526020019081526020015f205f8373ffffffffffffffffffffffffffffffffffffffff1673ffffffffffffffffffffffffffffffffffffffff1681526020019081526020015f205f6101000a81549060ff0219169055505080806001019150506134c8565b505f60095f8681526020019081526020015f20600401819055505f60095f8681526020019081526020015f206008018190555060095f8581526020019081526020015f206009015f6136fb91906141dc565b50505050565b5f8054906101000a900473ffffffffffffffffffffffffffffffffffffffff1673ffffffffffffffffffffffffffffffffffffffff16634b94f50e6040518163ffffffff1660e01b8152600401602060405180830381865afa158015613769573d5f803e3d5ffd5b505050506040513d601f19601f8201168201806040525081019061378d9190614e18565b3410156137cf576040517f08c379a00000000000000000000000000000000000000000000000000000000081526004016137c690615eae565b60405180910390fd5b60085f3373ffffffffffffffffffffffffffffffffffffffff1673ffffffffffffffffffffffffffffffffffffffff1681526020019081526020015f205f9054906101000a900460ff1615613859576040517f08c379a000000000000000000000000000000000000000000000000000000000815260040161385090615f3c565b60405180910390fd5b5f805f9054906101000a900473ffffffffffffffffffffffffffffffffffffffff1673ffffffffffffffffffffffffffffffffffffffff16634b94f50e6040518163ffffffff1660e01b8152600401602060405180830381865afa1580156138c3573d5f803e3d5ffd5b505050506040513d601f19601f820116820180604052508101906138e79190614e18565b346138f29190615c80565b90506001811015613938576040517f08c379a000000000000000000000000000000000000000000000000000000000815260040161392f90615fca565b60405180910390fd5b600160085f3373ffffffffffffffffffffffffffffffffffffffff1673ffffffffffffffffffffffffffffffffffffffff1681526020019081526020015f205f6101000a81548160ff02191690831515021790555060075f81548092919061399f90615603565b91905055505f8054906101000a900473ffffffffffffffffffffffffffffffffffffffff1673ffffffffffffffffffffffffffffffffffffffff166340c10f1933836040518363ffffffff1660e01b81526004016139fe929190614ed1565b5f604051808303815f87803b158015613a15575f80fd5b505af1158015613a27573d5f803e3d5ffd5b5050505050565b60025f9054906101000a900460ff16613a7c576040517f08c379a0000000000000000000000000000000000000000000000000000000008152600401613a7390614a86565b60405180910390fd5b80600a548110613ac1576040517f08c379a0000000000000000000000000000000000000000000000000000000008152600401613ab890614b14565b60405180910390fd5b8160095f8281526020019081526020015f2060070160169054906101000a900460ff1615613b24576040517f08c379a0000000000000000000000000000000000000000000000000000000008152600401613b1b90614ba2565b60405180910390fd5b8260095f8281526020019081526020015f2060070160159054906101000a900460ff1615613b87576040517f08c379a0000000000000000000000000000000000000000000000000000000008152600401613b7e90614c56565b60405180910390fd5b60095f8581526020019081526020015f2060070160149054906101000a900460ff1615613be9576040517f08c379a0000000000000000000000000000000000000000000000000000000008152600401613be090616058565b60405180910390fd5b5f73ffffffffffffffffffffffffffffffffffffffff1660095f8681526020019081526020015f206006015f9054906101000a900473ffffffffffffffffffffffffffffffffffffffff1673ffffffffffffffffffffffffffffffffffffffff1603613c8a576040517f08c379a0000000000000000000000000000000000000000000000000000000008152600401613c81906160e6565b60405180910390fd5b60095f8581526020019081526020015f206003015460015411613ce2576040517f08c379a0000000000000000000000000000000000000000000000000000000008152600401613cd99061619a565b60405180910390fd5b600160095f8681526020019081526020015f2060070160156101000a81548160ff021916908315150217905550600b5f815480929190613d21906149ef565b91905055505f60065f8681526020019081526020015f205490505f600c805490509050808214613da4575f600c8281548110613d6057613d5f614fdb565b5b905f5260205f200154905080600c8481548110613d8057613d7f614fdb565b5b905f5260205f2001819055508260065f8381526020019081526020015f2081905550505b600c805480613db657613db5615008565b5b600190038181905f5260205f20015f9055905560065f8781526020019081526020015f205f9055600d86908060018154018082558091505060019003905f5260205f20015f90919091909150555f805f9054906101000a900473ffffffffffffffffffffffffffffffffffffffff1673ffffffffffffffffffffffffffffffffffffffff16634b94f50e6040518163ffffffff1660e01b8152600401602060405180830381865afa158015613e6d573d5f803e3d5ffd5b505050506040513d601f19601f82011682018060405250810190613e919190614e18565b60095f8981526020019081526020015f2060080154613eb09190614dc3565b90508060015f828254613ec3919061533c565b9250508190555060095f8881526020019081526020015f206003015460015f828254613eef9190614d90565b925050819055505f60095f8981526020019081526020015f206006015f9054906101000a900473ffffffffffffffffffffffffffffffffffffffff1673ffffffffffffffffffffffffffffffffffffffff1660095f8a81526020019081526020015f2060030154620186a09063986cc31160e01b8b60095f8e81526020019081526020015f206004015460095f8f81526020019081526020015f2060080154604051602401613fa093929190615a8c565b604051602081830303815290604052907bffffffffffffffffffffffffffffffffffffffffffffffffffffffff19166020820180517bffffffffffffffffffffffffffffffffffffffffffffffffffffffff838183161783525050505060405161400a9190615afb565b5f60405180830381858888f193505050503d805f8114614045576040519150601f19603f3d011682016040523d82523d5f602084013e61404a565b606091505b505090508061408e576040517f08c379a000000000000000000000000000000000000000000000000000000000815260040161408590616228565b60405180910390fd5b5050505050505050565b5f80600154036140ca577fffffffffffffffffffffffffffffffffffffffffffffffffffffffffffffffff9050614147565b5f670de0b6b3a7640000600754600154670de0b6b3a764000060095f8881526020019081526020015f20600301546141029190614dc3565b61410c9190615c80565b6702c68af0bb14000061411f919061533c565b6141299190614dc3565b6141339190615c80565b9050600b5481614143919061533c565b9150505b919050565b604051806101a001604052805f815260200160608152602001606081526020015f81526020015f81526020015f81526020015f73ffffffffffffffffffffffffffffffffffffffff1681526020015f73ffffffffffffffffffffffffffffffffffffffff1681526020015f151581526020015f151581526020015f151581526020015f8152602001606081525090565b5080545f8255905f5260205f20908101906141f79190614245565b50565b828054828255905f5260205f20908101928215614234579160200282015b82811115614233578251825591602001919060010190614218565b5b5090506142419190614245565b5090565b5b8082111561425c575f815f905550600101614246565b5090565b5f80fd5b5f80fd5b5f819050919050565b61427a81614268565b8114614284575f80fd5b50565b5f8135905061429581614271565b92915050565b5f602082840312156142b0576142af614260565b5b5f6142bd84828501614287565b91505092915050565b6142cf81614268565b82525050565b5f81519050919050565b5f82825260208201905092915050565b8281835e5f83830152505050565b5f601f19601f8301169050919050565b5f614317826142d5565b61432181856142df565b93506143318185602086016142ef565b61433a816142fd565b840191505092915050565b5f73ffffffffffffffffffffffffffffffffffffffff82169050919050565b5f61436e82614345565b9050919050565b61437e81614364565b82525050565b5f8115159050919050565b61439881614384565b82525050565b5f610180820190506143b25f83018f6142c6565b81810360208301526143c4818e61430d565b905081810360408301526143d8818d61430d565b90506143e7606083018c6142c6565b6143f4608083018b6142c6565b61440160a083018a6142c6565b61440e60c0830189614375565b61441b60e0830188614375565b61442961010083018761438f565b61443761012083018661438f565b61444561014083018561438f565b6144536101608301846142c6565b9d9c50505050505050505050505050565b5f6020820190506144775f8301846142c6565b92915050565b5f6020820190506144905f830184614375565b92915050565b5f80604083850312156144ac576144ab614260565b5b5f6144b985828601614287565b92505060206144ca85828601614287565b9150509250929050565b5f80fd5b5f80fd5b5f80fd5b5f8083601f8401126144f5576144f46144d4565b5b8235905067ffffffffffffffff811115614512576145116144d8565b5b60208301915083600182028301111561452e5761452d6144dc565b5b9250929050565b61453e81614364565b8114614548575f80fd5b50565b5f8135905061455981614535565b92915050565b5f805f805f806080878903121561457957614578614260565b5b5f87013567ffffffffffffffff81111561459657614595614264565b5b6145a289828a016144e0565b9650965050602087013567ffffffffffffffff8111156145c5576145c4614264565b5b6145d189828a016144e0565b945094505060406145e489828a01614287565b92505060606145f589828a0161454b565b9150509295509295509295565b61460b81614268565b82525050565b5f82825260208201905092915050565b5f61462b826142d5565b6146358185614611565b93506146458185602086016142ef565b61464e816142fd565b840191505092915050565b61466281614364565b82525050565b61467181614384565b82525050565b5f81519050919050565b5f82825260208201905092915050565b5f819050602082019050919050565b5f6146ab8383614659565b60208301905092915050565b5f602082019050919050565b5f6146cd82614677565b6146d78185614681565b93506146e283614691565b805f5b838110156147125781516146f988826146a0565b9750614704836146b7565b9250506001810190506146e5565b5085935050505092915050565b5f6101a083015f8301516147355f860182614602565b506020830151848203602086015261474d8282614621565b915050604083015184820360408601526147678282614621565b915050606083015161477c6060860182614602565b50608083015161478f6080860182614602565b5060a08301516147a260a0860182614602565b5060c08301516147b560c0860182614659565b5060e08301516147c860e0860182614659565b506101008301516147dd610100860182614668565b506101208301516147f2610120860182614668565b50610140830151614807610140860182614668565b5061016083015161481c610160860182614602565b5061018083015184820361018086015261483682826146c3565b9150508091505092915050565b5f6020820190508181035f83015261485b818461471f565b905092915050565b5f819050919050565b5f61488661488161487c84614345565b614863565b614345565b9050919050565b5f6148978261486c565b9050919050565b5f6148a88261488d565b9050919050565b6148b88161489e565b82525050565b5f6020820190506148d15f8301846148af565b92915050565b7f4e487b71000000000000000000000000000000000000000000000000000000005f52602260045260245ffd5b5f600282049050600182168061491b57607f821691505b60208210810361492e5761492d6148d7565b5b50919050565b7f4465626573206861626572746520696e73637269746f20636f6d6f20706172745f8201527f69636970616e746520616e746572696f726d656e74652e000000000000000000602082015250565b5f61498e6037836142df565b915061499982614934565b604082019050919050565b5f6020820190508181035f8301526149bb81614982565b9050919050565b7f4e487b71000000000000000000000000000000000000000000000000000000005f52601160045260245ffd5b5f6149f982614268565b91505f8203614a0b57614a0a6149c2565b5b600182039050919050565b7f4c6120766f746163696f6e207469656e652071756520657374617220616269655f8201527f7274610000000000000000000000000000000000000000000000000000000000602082015250565b5f614a706023836142df565b9150614a7b82614a16565b604082019050919050565b5f6020820190508181035f830152614a9d81614a64565b9050919050565b7f4c612070726f7075657374612071756520657374617320706173616e646f206e5f8201527f6f20657869737465000000000000000000000000000000000000000000000000602082015250565b5f614afe6028836142df565b9150614b0982614aa4565b604082019050919050565b5f6020820190508181035f830152614b2b81614af2565b9050919050565b7f4e6f20736520707565646520656a656375746172207369206c612070726f70755f8201527f65737461207961206861207369646f2063616e63656c61646100000000000000602082015250565b5f614b8c6039836142df565b9150614b9782614b32565b604082019050919050565b5f6020820190508181035f830152614bb981614b80565b9050919050565b7f4c612070726f707565737461207961206861207369646f206170726f626164615f8201527f2079206e6f2070756564657320656a656375746172206c612066756e63696f6e60208201527f2e00000000000000000000000000000000000000000000000000000000000000604082015250565b5f614c406041836142df565b9150614c4b82614bc0565b606082019050919050565b5f6020820190508181035f830152614c6d81614c34565b9050919050565b7f4e65636573697461732064656a617220756e20766f746f20706f72206c6f206d5f8201527f656e6f732e000000000000000000000000000000000000000000000000000000602082015250565b5f614cce6025836142df565b9150614cd982614c74565b604082019050919050565b5f6020820190508181035f830152614cfb81614cc2565b9050919050565b7f457374617320696e74656e74616e646f2072657469726172206d617320766f745f8201527f6f73206465206c6f732071756520686173207265616c697a61646f0000000000602082015250565b5f614d5c603b836142df565b9150614d6782614d02565b604082019050919050565b5f6020820190508181035f830152614d8981614d50565b9050919050565b5f614d9a82614268565b9150614da583614268565b9250828203905081811115614dbd57614dbc6149c2565b5b92915050565b5f614dcd82614268565b9150614dd883614268565b9250828202614de681614268565b91508282048414831517614dfd57614dfc6149c2565b5b5092915050565b5f81519050614e1281614271565b92915050565b5f60208284031215614e2d57614e2c614260565b5b5f614e3a84828501614e04565b91505092915050565b7f4e6f2074656e656d6f7320737566696369656e74657320746f6b656e732070615f8201527f726120726574697261726c6f7300000000000000000000000000000000000000602082015250565b5f614e9d602d836142df565b9150614ea882614e43565b604082019050919050565b5f6020820190508181035f830152614eca81614e91565b9050919050565b5f604082019050614ee45f830185614375565b614ef160208301846142c6565b9392505050565b614f0181614384565b8114614f0b575f80fd5b50565b5f81519050614f1c81614ef8565b92915050565b5f60208284031215614f3757614f36614260565b5b5f614f4484828501614f0e565b91505092915050565b7f4c61207472616e73666572656e63696120646520546f6b656e732068612066615f8201527f6c6c61646f000000000000000000000000000000000000000000000000000000602082015250565b5f614fa76025836142df565b9150614fb282614f4d565b604082019050919050565b5f6020820190508181035f830152614fd481614f9b565b9050919050565b7f4e487b71000000000000000000000000000000000000000000000000000000005f52603260045260245ffd5b7f4e487b71000000000000000000000000000000000000000000000000000000005f52603160045260245ffd5b7f4e6f207075656465732076656e64657220756e612063616e746964616420696e5f8201527f666572696f722061203120746f6b656e2e000000000000000000000000000000602082015250565b5f61508f6031836142df565b915061509a82615035565b604082019050919050565b5f6020820190508181035f8301526150bc81615083565b9050919050565b7f4e6f207075656465732076656e646572206d617320746f6b656e73206465206c5f8201527f6f732071756520706f7365657300000000000000000000000000000000000000602082015250565b5f61511d602d836142df565b9150615128826150c3565b604082019050919050565b5f6020820190508181035f83015261514a81615111565b9050919050565b7f456c20636f6e747261746f206e6f207469656e65207265637572736f732070615f8201527f7261206465766f6c766572746520656c2045746865722e000000000000000000602082015250565b5f6151ab6037836142df565b91506151b682615151565b604082019050919050565b5f6020820190508181035f8301526151d88161519f565b9050919050565b5f81905092915050565b50565b5f6151f75f836151df565b9150615202826151e9565b5f82019050919050565b5f615216826151ec565b9150819050919050565b7f4c61207472616e73666572656e63696120646520457468657220616c207061725f8201527f7469636970616e74652068612066616c6c61646f2e0000000000000000000000602082015250565b5f61527a6035836142df565b915061528582615220565b604082019050919050565b5f6020820190508181035f8301526152a78161526e565b9050919050565b7f4e6f20707565646573206465706f7369746172206d656e6f73206465203120765f8201527f6f746f2e20436f6d6f20766173206120766f7461722073696e20766f7461723f602082015250565b5f6153086040836142df565b9150615313826152ae565b604082019050919050565b5f6020820190508181035f830152615335816152fc565b9050919050565b5f61534682614268565b915061535183614268565b9250828201905080821115615369576153686149c2565b5b92915050565b5f6040820190506153825f830185614375565b61538f6020830184614375565b9392505050565b7f4e6f207469656e657320737566696369656e74657320746f6b656e73207061725f8201527f6120766f74617200000000000000000000000000000000000000000000000000602082015250565b5f6153f06027836142df565b91506153fb82615396565b604082019050919050565b5f6020820190508181035f83015261541d816153e4565b9050919050565b5f6060820190506154375f830186614375565b6154446020830185614375565b61545160408301846142c6565b949350505050565b7f4c6120646972656363696f6e2064656c20636f6e747261746f206e6f206573205f8201527f76616c6964610000000000000000000000000000000000000000000000000000602082015250565b5f6154b36026836142df565b91506154be82615459565b604082019050919050565b5f6020820190508181035f8301526154e0816154a7565b9050919050565b7f456c20746974756c6f206465206c612070726f707565737461206e6f207075655f8201527f64652073657220766163696f0000000000000000000000000000000000000000602082015250565b5f615541602c836142df565b915061554c826154e7565b604082019050919050565b5f6020820190508181035f83015261556e81615535565b9050919050565b7f4c61206465736372697063696f6e206465206c612070726f707565737461206e5f8201527f6f20707565646520736572207661636961000000000000000000000000000000602082015250565b5f6155cf6031836142df565b91506155da82615575565b604082019050919050565b5f6020820190508181035f8301526155fc816155c3565b9050919050565b5f61560d82614268565b91507fffffffffffffffffffffffffffffffffffffffffffffffffffffffffffffffff820361563f5761563e6149c2565b5b600182019050919050565b5f82905092915050565b7f4e487b71000000000000000000000000000000000000000000000000000000005f52604160045260245ffd5b5f819050815f5260205f209050919050565b5f6020601f8301049050919050565b5f82821b905092915050565b5f600883026156dd7fffffffffffffffffffffffffffffffffffffffffffffffffffffffffffffffff826156a2565b6156e786836156a2565b95508019841693508086168417925050509392505050565b5f61571961571461570f84614268565b614863565b614268565b9050919050565b5f819050919050565b615732836156ff565b61574661573e82615720565b8484546156ae565b825550505050565b5f90565b61575a61574e565b615765818484615729565b505050565b5b818110156157885761577d5f82615752565b60018101905061576b565b5050565b601f8211156157cd5761579e81615681565b6157a784615693565b810160208510156157b6578190505b6157ca6157c285615693565b83018261576a565b50505b505050565b5f82821c905092915050565b5f6157ed5f19846008026157d2565b1980831691505092915050565b5f61580583836157de565b9150826002028217905092915050565b61581f838361564a565b67ffffffffffffffff81111561583857615837615654565b5b6158428254614904565b61584d82828561578c565b5f601f83116001811461587a575f8415615868578287013590505b61587285826157fa565b8655506158d9565b601f19841661588886615681565b5f5b828110156158af5784890135825560018201915060208501945060208101905061588a565b868310156158cc57848901356158c8601f8916826157de565b8355505b6001600288020188555050505b50505050505050565b7f44656265732073657220656c206f776e65722064656c20636f6e747261746f205f8201527f7061726120706f646572206861636572206573746f2e00000000000000000000602082015250565b5f61593c6036836142df565b9150615947826158e2565b604082019050919050565b5f6020820190508181035f83015261596981615930565b9050919050565b7f4c6120766f746163696f6e207961206573746120616269657274612c206e6f205f8201527f70756564657320766f6c76657220612061627269726c61000000000000000000602082015250565b5f6159ca6037836142df565b91506159d582615970565b604082019050919050565b5f6020820190508181035f8301526159f7816159be565b9050919050565b7f456c20707265737570756573746f20696e696369616c206465626520736572205f8201527f6d61796f7220717565206365726f000000000000000000000000000000000000602082015250565b5f615a58602e836142df565b9150615a63826159fe565b604082019050919050565b5f6020820190508181035f830152615a8581615a4c565b9050919050565b5f606082019050615a9f5f8301866142c6565b615aac60208301856142c6565b615ab960408301846142c6565b949350505050565b5f81519050919050565b5f615ad582615ac1565b615adf81856151df565b9350615aef8185602086016142ef565b80840191505092915050565b5f615b068284615acb565b915081905092915050565b7f4c61207472616e73666572656e6369612064656c20707265737570756573746f5f8201527f2068612066616c6c61646f2e0000000000000000000000000000000000000000602082015250565b5f615b6b602c836142df565b9150615b7682615b11565b604082019050919050565b5f6020820190508181035f830152615b9881615b5f565b9050919050565b7f446562657320656e7669617220656c204574686572206e656365736172696f205f8201527f7061726120706f64657220636f6d7072617220616c206d656e6f7320756e207460208201527f6f6b656e2e000000000000000000000000000000000000000000000000000000604082015250565b5f615c1f6045836142df565b9150615c2a82615b9f565b606082019050919050565b5f6020820190508181035f830152615c4c81615c13565b9050919050565b7f4e487b71000000000000000000000000000000000000000000000000000000005f52601260045260245ffd5b5f615c8a82614268565b9150615c9583614268565b925082615ca557615ca4615c53565b5b828204905092915050565b7f446562657320706f64657220636f6d7072617220616c206d656e6f7320756e205f8201527f546f6b656e000000000000000000000000000000000000000000000000000000602082015250565b5f615d0a6025836142df565b9150615d1582615cb0565b604082019050919050565b5f6020820190508181035f830152615d3781615cfe565b9050919050565b7f4e6f207075656465732063616e63656c6172206c612070726f707565737461205f8201527f7369206e6f206572657320656c2063726561646f72206465206c61206d69736d60208201527f6100000000000000000000000000000000000000000000000000000000000000604082015250565b5f615dbe6041836142df565b9150615dc982615d3e565b606082019050919050565b5f6020820190508181035f830152615deb81615db2565b9050919050565b7f4e6f2065737461732061706f7274616e646f20737566696369656e74652045745f8201527f68657220636f6d6f207061726120636f6d7072617220746f6b656e732e204e6560208201527f6365736974617320706f64657220636f6d70726172203120616c206d656e6f7360408201527f2e00000000000000000000000000000000000000000000000000000000000000606082015250565b5f615e986061836142df565b9150615ea382615df2565b608082019050919050565b5f6020820190508181035f830152615ec581615e8c565b9050919050565b7f5061727469636970616e74652079612065737461207265676973747261646f2e5f8201527f204e6f20707565646573207265676973747261727465206f7472612076657a00602082015250565b5f615f26603f836142df565b9150615f3182615ecc565b604082019050919050565b5f6020820190508181035f830152615f5381615f1a565b9050919050565b7f4e656365736974617320706f64657220636f6d7072617220616c206d656e6f735f8201527f20756e20746f6b656e0000000000000000000000000000000000000000000000602082015250565b5f615fb46029836142df565b9150615fbf82615f5a565b604082019050919050565b5f6020820190508181035f830152615fe181615fa8565b9050919050565b7f4c612070726f7075657374612064656265207365722064652066696e616e63695f8201527f6163696f6e000000000000000000000000000000000000000000000000000000602082015250565b5f6160426025836142df565b915061604d82615fe8565b604082019050919050565b5f6020820190508181035f83015261606f81616036565b9050919050565b7f4c612070726f707565737461206e6f207469656e6520636f6e747261746f20645f8201527f6520766f746163696f6e2061736f636961646f00000000000000000000000000602082015250565b5f6160d06033836142df565b91506160db82616076565b604082019050919050565b5f6020820190508181035f8301526160fd816160c4565b9050919050565b7f456c20707265737570756573746f20746f74616c2064656c20636f6e747261745f8201527f6f206465626520736572207375706572696f7220616c2064656d616e6461646f60208201527f20656e206c612070726f70756573746100000000000000000000000000000000604082015250565b5f6161846050836142df565b915061618f82616104565b606082019050919050565b5f6020820190508181035f8301526161b181616178565b9050919050565b7f4c6120656a65637563696f6e206465206c612070726f707565737461206861205f8201527f66616c6c61646f00000000000000000000000000000000000000000000000000602082015250565b5f6162126027836142df565b915061621d826161b8565b604082019050919050565b5f6020820190508181035f83015261623f81616206565b905091905056fea26469706673582212204fb39ce321277fadcc5863d894caf16873b3d789a26434dd3fc7ed8b54f995c364736f6c634300081a003360c060405234801561000f575f80fd5b50604051611d1b380380611d1b83398181016040528101906100319190610279565b838381600390816100429190610519565b5080600490816100529190610519565b5050505f8211610097576040517f08c379a000000000000000000000000000000000000000000000000000000000815260040161008e90610668565b60405180910390fd5b5f81116100d9576040517f08c379a00000000000000000000000000000000000000000000000000000000081526004016100d0906106f6565b60405180910390fd5b81608081815250508060a081815250505f60058190555050505050610714565b5f604051905090565b5f80fd5b5f80fd5b5f80fd5b5f80fd5b5f601f19601f8301169050919050565b7f4e487b71000000000000000000000000000000000000000000000000000000005f52604160045260245ffd5b61015882610112565b810181811067ffffffffffffffff8211171561017757610176610122565b5b80604052505050565b5f6101896100f9565b9050610195828261014f565b919050565b5f67ffffffffffffffff8211156101b4576101b3610122565b5b6101bd82610112565b9050602081019050919050565b8281835e5f83830152505050565b5f6101ea6101e58461019a565b610180565b9050828152602081018484840111156102065761020561010e565b5b6102118482856101ca565b509392505050565b5f82601f83011261022d5761022c61010a565b5b815161023d8482602086016101d8565b91505092915050565b5f819050919050565b61025881610246565b8114610262575f80fd5b50565b5f815190506102738161024f565b92915050565b5f805f806080858703121561029157610290610102565b5b5f85015167ffffffffffffffff8111156102ae576102ad610106565b5b6102ba87828801610219565b945050602085015167ffffffffffffffff8111156102db576102da610106565b5b6102e787828801610219565b93505060406102f887828801610265565b925050606061030987828801610265565b91505092959194509250565b5f81519050919050565b7f4e487b71000000000000000000000000000000000000000000000000000000005f52602260045260245ffd5b5f600282049050600182168061036357607f821691505b6020821081036103765761037561031f565b5b50919050565b5f819050815f5260205f209050919050565b5f6020601f8301049050919050565b5f82821b905092915050565b5f600883026103d87fffffffffffffffffffffffffffffffffffffffffffffffffffffffffffffffff8261039d565b6103e2868361039d565b95508019841693508086168417925050509392505050565b5f819050919050565b5f61041d61041861041384610246565b6103fa565b610246565b9050919050565b5f819050919050565b61043683610403565b61044a61044282610424565b8484546103a9565b825550505050565b5f90565b61045e610452565b61046981848461042d565b505050565b5b8181101561048c576104815f82610456565b60018101905061046f565b5050565b601f8211156104d1576104a28161037c565b6104ab8461038e565b810160208510156104ba578190505b6104ce6104c68561038e565b83018261046e565b50505b505050565b5f82821c905092915050565b5f6104f15f19846008026104d6565b1980831691505092915050565b5f61050983836104e2565b9150826002028217905092915050565b61052282610315565b67ffffffffffffffff81111561053b5761053a610122565b5b610545825461034c565b610550828285610490565b5f60209050601f831160018114610581575f841561056f578287015190505b61057985826104fe565b8655506105e0565b601f19841661058f8661037c565b5f5b828110156105b657848901518255600182019150602085019450602081019050610591565b868310156105d357848901516105cf601f8916826104e2565b8355505b6001600288020188555050505b505050505050565b5f82825260208201905092915050565b7f456c2070726563696f206e6f20707565646520736572206d656e6f72207175655f8201527f206365726f000000000000000000000000000000000000000000000000000000602082015250565b5f6106526025836105e8565b915061065d826105f8565b604082019050919050565b5f6020820190508181035f83015261067f81610646565b9050919050565b7f456c206d6178696d6f20646520746f6b656e73206e6f207075656465207365725f8201527f206d656e6f7220717565206365726f0000000000000000000000000000000000602082015250565b5f6106e0602f836105e8565b91506106eb82610686565b604082019050919050565b5f6020820190508181035f83015261070d816106d4565b9050919050565b60805160a0516115d161074a5f395f81816105510152818161060f015261094a01525f81816105e8015261067a01526115d15ff3fe608060405234801561000f575f80fd5b5060043610610109575f3560e01c806370a08231116100a05780639dc29fac1161006f5780639dc29fac146102a9578063a9059cbb146102c5578063b2bdfa7b146102f5578063dd62ed3e14610313578063e83157421461034357610109565b806370a082311461021f5780637ff9b5961461024f5780638d75fe051461026d57806395d89b411461028b57610109565b8063313ce567116100dc578063313ce567146101a957806340c10f19146101c75780634b94f50e146101e35780636abcded11461020157610109565b806306fdde031461010d578063095ea7b31461012b57806318160ddd1461015b57806323b872dd14610179575b5f80fd5b610115610361565b604051610122919061105e565b60405180910390f35b6101456004803603810190610140919061110f565b6103f1565b6040516101529190611167565b60405180910390f35b610163610413565b604051610170919061118f565b60405180910390f35b610193600480360381019061018e91906111a8565b61041c565b6040516101a09190611167565b60405180910390f35b6101b161044a565b6040516101be9190611213565b60405180910390f35b6101e160048036038101906101dc919061110f565b610452565b005b6101eb6105e5565b6040516101f8919061118f565b60405180910390f35b61020961060c565b604051610216919061118f565b60405180910390f35b6102396004803603810190610234919061122c565b610633565b604051610246919061118f565b60405180910390f35b610257610678565b604051610264919061118f565b60405180910390f35b61027561069c565b604051610282919061118f565b60405180910390f35b6102936106a2565b6040516102a0919061105e565b60405180910390f35b6102c360048036038101906102be919061110f565b610732565b005b6102df60048036038101906102da919061110f565b61087f565b6040516102ec9190611167565b60405180910390f35b6102fd6108a1565b60405161030a9190611266565b60405180910390f35b61032d6004803603810190610328919061127f565b6108c6565b60405161033a919061118f565b60405180910390f35b61034b610948565b604051610358919061118f565b60405180910390f35b606060038054610370906112ea565b80601f016020809104026020016040519081016040528092919081815260200182805461039c906112ea565b80156103e75780601f106103be576101008083540402835291602001916103e7565b820191905f5260205f20905b8154815290600101906020018083116103ca57829003601f168201915b5050505050905090565b5f806103fb61096c565b9050610408818585610973565b600191505092915050565b5f600254905090565b5f8061042661096c565b9050610433858285610985565b61043e858585610a18565b60019150509392505050565b5f6012905090565b60065f9054906101000a900473ffffffffffffffffffffffffffffffffffffffff1673ffffffffffffffffffffffffffffffffffffffff163373ffffffffffffffffffffffffffffffffffffffff16146104e1576040517f08c379a00000000000000000000000000000000000000000000000000000000081526004016104d890611364565b60405180910390fd5b5f73ffffffffffffffffffffffffffffffffffffffff168273ffffffffffffffffffffffffffffffffffffffff160361054f576040517f08c379a0000000000000000000000000000000000000000000000000000000008152600401610546906113f2565b60405180910390fd5b7f00000000000000000000000000000000000000000000000000000000000000008160055461057e919061143d565b11156105bf576040517f08c379a00000000000000000000000000000000000000000000000000000000081526004016105b6906114ba565b60405180910390fd5b8060055f8282546105d0919061143d565b925050819055506105e18282610b08565b5050565b5f7f0000000000000000000000000000000000000000000000000000000000000000905090565b5f7f0000000000000000000000000000000000000000000000000000000000000000905090565b5f805f8373ffffffffffffffffffffffffffffffffffffffff1673ffffffffffffffffffffffffffffffffffffffff1681526020019081526020015f20549050919050565b7f000000000000000000000000000000000000000000000000000000000000000081565b60055481565b6060600480546106b1906112ea565b80601f01602080910402602001604051908101604052809291908181526020018280546106dd906112ea565b80156107285780601f106106ff57610100808354040283529160200191610728565b820191905f5260205f20905b81548152906001019060200180831161070b57829003601f168201915b5050505050905090565b60065f9054906101000a900473ffffffffffffffffffffffffffffffffffffffff1673ffffffffffffffffffffffffffffffffffffffff163373ffffffffffffffffffffffffffffffffffffffff16146107c1576040517f08c379a00000000000000000000000000000000000000000000000000000000081526004016107b890611364565b60405180910390fd5b5f73ffffffffffffffffffffffffffffffffffffffff168273ffffffffffffffffffffffffffffffffffffffff160361082f576040517f08c379a0000000000000000000000000000000000000000000000000000000008152600401610826906113f2565b60405180910390fd5b5f8111610871576040517f08c379a000000000000000000000000000000000000000000000000000000000815260040161086890611548565b60405180910390fd5b61087b8282610b87565b5050565b5f8061088961096c565b9050610896818585610a18565b600191505092915050565b60065f9054906101000a900473ffffffffffffffffffffffffffffffffffffffff1681565b5f60015f8473ffffffffffffffffffffffffffffffffffffffff1673ffffffffffffffffffffffffffffffffffffffff1681526020019081526020015f205f8373ffffffffffffffffffffffffffffffffffffffff1673ffffffffffffffffffffffffffffffffffffffff1681526020019081526020015f2054905092915050565b7f000000000000000000000000000000000000000000000000000000000000000081565b5f33905090565b6109808383836001610c06565b505050565b5f61099084846108c6565b90507fffffffffffffffffffffffffffffffffffffffffffffffffffffffffffffffff811015610a125781811015610a03578281836040517ffb8f41b20000000000000000000000000000000000000000000000000000000081526004016109fa93929190611566565b60405180910390fd5b610a1184848484035f610c06565b5b50505050565b5f73ffffffffffffffffffffffffffffffffffffffff168373ffffffffffffffffffffffffffffffffffffffff1603610a88575f6040517f96c6fd1e000000000000000000000000000000000000000000000000000000008152600401610a7f9190611266565b60405180910390fd5b5f73ffffffffffffffffffffffffffffffffffffffff168273ffffffffffffffffffffffffffffffffffffffff1603610af8575f6040517fec442f05000000000000000000000000000000000000000000000000000000008152600401610aef9190611266565b60405180910390fd5b610b03838383610dd5565b505050565b5f73ffffffffffffffffffffffffffffffffffffffff168273ffffffffffffffffffffffffffffffffffffffff1603610b78575f6040517fec442f05000000000000000000000000000000000000000000000000000000008152600401610b6f9190611266565b60405180910390fd5b610b835f8383610dd5565b5050565b5f73ffffffffffffffffffffffffffffffffffffffff168273ffffffffffffffffffffffffffffffffffffffff1603610bf7575f6040517f96c6fd1e000000000000000000000000000000000000000000000000000000008152600401610bee9190611266565b60405180910390fd5b610c02825f83610dd5565b5050565b5f73ffffffffffffffffffffffffffffffffffffffff168473ffffffffffffffffffffffffffffffffffffffff1603610c76575f6040517fe602df05000000000000000000000000000000000000000000000000000000008152600401610c6d9190611266565b60405180910390fd5b5f73ffffffffffffffffffffffffffffffffffffffff168373ffffffffffffffffffffffffffffffffffffffff1603610ce6575f6040517f94280d62000000000000000000000000000000000000000000000000000000008152600401610cdd9190611266565b60405180910390fd5b8160015f8673ffffffffffffffffffffffffffffffffffffffff1673ffffffffffffffffffffffffffffffffffffffff1681526020019081526020015f205f8573ffffffffffffffffffffffffffffffffffffffff1673ffffffffffffffffffffffffffffffffffffffff1681526020019081526020015f20819055508015610dcf578273ffffffffffffffffffffffffffffffffffffffff168473ffffffffffffffffffffffffffffffffffffffff167f8c5be1e5ebec7d5bd14f71427d1e84f3dd0314c0f7b2291e5b200ac8c7c3b92584604051610dc6919061118f565b60405180910390a35b50505050565b5f73ffffffffffffffffffffffffffffffffffffffff168373ffffffffffffffffffffffffffffffffffffffff1603610e25578060025f828254610e19919061143d565b92505081905550610ef3565b5f805f8573ffffffffffffffffffffffffffffffffffffffff1673ffffffffffffffffffffffffffffffffffffffff1681526020019081526020015f2054905081811015610eae578381836040517fe450d38c000000000000000000000000000000000000000000000000000000008152600401610ea593929190611566565b60405180910390fd5b8181035f808673ffffffffffffffffffffffffffffffffffffffff1673ffffffffffffffffffffffffffffffffffffffff1681526020019081526020015f2081905550505b5f73ffffffffffffffffffffffffffffffffffffffff168273ffffffffffffffffffffffffffffffffffffffff1603610f3a578060025f8282540392505081905550610f84565b805f808473ffffffffffffffffffffffffffffffffffffffff1673ffffffffffffffffffffffffffffffffffffffff1681526020019081526020015f205f82825401925050819055505b8173ffffffffffffffffffffffffffffffffffffffff168373ffffffffffffffffffffffffffffffffffffffff167fddf252ad1be2c89b69c2b068fc378daa952ba7f163c4a11628f55a4df523b3ef83604051610fe1919061118f565b60405180910390a3505050565b5f81519050919050565b5f82825260208201905092915050565b8281835e5f83830152505050565b5f601f19601f8301169050919050565b5f61103082610fee565b61103a8185610ff8565b935061104a818560208601611008565b61105381611016565b840191505092915050565b5f6020820190508181035f8301526110768184611026565b905092915050565b5f80fd5b5f73ffffffffffffffffffffffffffffffffffffffff82169050919050565b5f6110ab82611082565b9050919050565b6110bb816110a1565b81146110c5575f80fd5b50565b5f813590506110d6816110b2565b92915050565b5f819050919050565b6110ee816110dc565b81146110f8575f80fd5b50565b5f81359050611109816110e5565b92915050565b5f80604083850312156111255761112461107e565b5b5f611132858286016110c8565b9250506020611143858286016110fb565b9150509250929050565b5f8115159050919050565b6111618161114d565b82525050565b5f60208201905061117a5f830184611158565b92915050565b611189816110dc565b82525050565b5f6020820190506111a25f830184611180565b92915050565b5f805f606084860312156111bf576111be61107e565b5b5f6111cc868287016110c8565b93505060206111dd868287016110c8565b92505060406111ee868287016110fb565b9150509250925092565b5f60ff82169050919050565b61120d816111f8565b82525050565b5f6020820190506112265f830184611204565b92915050565b5f602082840312156112415761124061107e565b5b5f61124e848285016110c8565b91505092915050565b611260816110a1565b82525050565b5f6020820190506112795f830184611257565b92915050565b5f80604083850312156112955761129461107e565b5b5f6112a2858286016110c8565b92505060206112b3858286016110c8565b9150509250929050565b7f4e487b71000000000000000000000000000000000000000000000000000000005f52602260045260245ffd5b5f600282049050600182168061130157607f821691505b602082108103611314576113136112bd565b5b50919050565b7f536f6c6f207075656465206c6c616d617220656c206f776e65720000000000005f82015250565b5f61134e601a83610ff8565b91506113598261131a565b602082019050919050565b5f6020820190508181035f83015261137b81611342565b9050919050565b7f4c6120646972656363696f6e2064657374696e6f206e6f2065732076616c69645f8201527f6100000000000000000000000000000000000000000000000000000000000000602082015250565b5f6113dc602183610ff8565b91506113e782611382565b604082019050919050565b5f6020820190508181035f830152611409816113d0565b9050919050565b7f4e487b71000000000000000000000000000000000000000000000000000000005f52601160045260245ffd5b5f611447826110dc565b9150611452836110dc565b925082820190508082111561146a57611469611410565b5b92915050565b7f4e6f2073652070756564656e20656d69746972206d617320746f6b656e7321005f82015250565b5f6114a4601f83610ff8565b91506114af82611470565b602082019050919050565b5f6020820190508181035f8301526114d181611498565b9050919050565b7f4e6f20736520707565646520656c696d696e61722030206e6920756e206e756d5f8201527f65726f206e6567617469766f20646520746f6b656e732e000000000000000000602082015250565b5f611532603783610ff8565b915061153d826114d8565b604082019050919050565b5f6020820190508181035f83015261155f81611526565b9050919050565b5f6060820190506115795f830186611257565b6115866020830185611180565b6115936040830184611180565b94935050505056fea2646970667358221220a5100fdb2fe0b781a8a2393e4c49dd5e96895a8ac7c3ea23ac23d796d2a2805664736f6c634300081a0033",
			"opcodes": "PUSH1 0xA0 PUSH1 0x40 MSTORE CALLVALUE DUP1 ISZERO PUSH2 0xF JUMPI PUSH0 DUP1 REVERT JUMPDEST POP PUSH1 0x40 MLOAD PUSH2 0x83F1 CODESIZE SUB DUP1 PUSH2 0x83F1 DUP4 CODECOPY DUP2 DUP2 ADD PUSH1 0x40 MSTORE DUP2 ADD SWAP1 PUSH2 0x31 SWAP2 SWAP1 PUSH2 0x1D3 JUMP JUMPDEST PUSH0 DUP3 GT PUSH2 0x73 JUMPI PUSH1 0x40 MLOAD PUSH32 0x8C379A000000000000000000000000000000000000000000000000000000000 DUP2 MSTORE PUSH1 0x4 ADD PUSH2 0x6A SWAP1 PUSH2 0x291 JUMP JUMPDEST PUSH1 0x40 MLOAD DUP1 SWAP2 SUB SWAP1 REVERT JUMPDEST PUSH0 DUP2 GT PUSH2 0xB5 JUMPI PUSH1 0x40 MLOAD PUSH32 0x8C379A000000000000000000000000000000000000000000000000000000000 DUP2 MSTORE PUSH1 0x4 ADD PUSH2 0xAC SWAP1 PUSH2 0x31F JUMP JUMPDEST PUSH1 0x40 MLOAD DUP1 SWAP2 SUB SWAP1 REVERT JUMPDEST CALLER PUSH20 0xFFFFFFFFFFFFFFFFFFFFFFFFFFFFFFFFFFFFFFFF AND PUSH1 0x80 DUP2 PUSH20 0xFFFFFFFFFFFFFFFFFFFFFFFFFFFFFFFFFFFFFFFF AND DUP2 MSTORE POP POP PUSH0 PUSH1 0x2 PUSH0 PUSH2 0x100 EXP DUP2 SLOAD DUP2 PUSH1 0xFF MUL NOT AND SWAP1 DUP4 ISZERO ISZERO MUL OR SWAP1 SSTORE POP DUP2 DUP2 PUSH1 0x40 MLOAD PUSH2 0x110 SWAP1 PUSH2 0x18F JUMP JUMPDEST PUSH2 0x11B SWAP3 SWAP2 SWAP1 PUSH2 0x3E0 JUMP JUMPDEST PUSH1 0x40 MLOAD DUP1 SWAP2 SUB SWAP1 PUSH0 CREATE DUP1 ISZERO DUP1 ISZERO PUSH2 0x134 JUMPI RETURNDATASIZE PUSH0 DUP1 RETURNDATACOPY RETURNDATASIZE PUSH0 REVERT JUMPDEST POP PUSH0 DUP1 PUSH2 0x100 EXP DUP2 SLOAD DUP2 PUSH20 0xFFFFFFFFFFFFFFFFFFFFFFFFFFFFFFFFFFFFFFFF MUL NOT AND SWAP1 DUP4 PUSH20 0xFFFFFFFFFFFFFFFFFFFFFFFFFFFFFFFFFFFFFFFF AND MUL OR SWAP1 SSTORE POP PUSH0 PUSH1 0xA DUP2 SWAP1 SSTORE POP PUSH0 PUSH1 0xB DUP2 SWAP1 SSTORE POP PUSH0 PUSH1 0x1 DUP2 SWAP1 SSTORE POP POP POP PUSH2 0x42D JUMP JUMPDEST PUSH2 0x1D1B DUP1 PUSH2 0x66D6 DUP4 CODECOPY ADD SWAP1 JUMP JUMPDEST PUSH0 DUP1 REVERT JUMPDEST PUSH0 DUP2 SWAP1 POP SWAP2 SWAP1 POP JUMP JUMPDEST PUSH2 0x1B2 DUP2 PUSH2 0x1A0 JUMP JUMPDEST DUP2 EQ PUSH2 0x1BC JUMPI PUSH0 DUP1 REVERT JUMPDEST POP JUMP JUMPDEST PUSH0 DUP2 MLOAD SWAP1 POP PUSH2 0x1CD DUP2 PUSH2 0x1A9 JUMP JUMPDEST SWAP3 SWAP2 POP POP JUMP JUMPDEST PUSH0 DUP1 PUSH1 0x40 DUP4 DUP6 SUB SLT ISZERO PUSH2 0x1E9 JUMPI PUSH2 0x1E8 PUSH2 0x19C JUMP JUMPDEST JUMPDEST PUSH0 PUSH2 0x1F6 DUP6 DUP3 DUP7 ADD PUSH2 0x1BF JUMP JUMPDEST SWAP3 POP POP PUSH1 0x20 PUSH2 0x207 DUP6 DUP3 DUP7 ADD PUSH2 0x1BF JUMP JUMPDEST SWAP2 POP POP SWAP3 POP SWAP3 SWAP1 POP JUMP JUMPDEST PUSH0 DUP3 DUP3 MSTORE PUSH1 0x20 DUP3 ADD SWAP1 POP SWAP3 SWAP2 POP POP JUMP JUMPDEST PUSH32 0x456C2070726563696F206465206C6F7320746F6B656E73206465626520736572 PUSH0 DUP3 ADD MSTORE PUSH32 0x206D61796F7220717565206365726F0000000000000000000000000000000000 PUSH1 0x20 DUP3 ADD MSTORE POP JUMP JUMPDEST PUSH0 PUSH2 0x27B PUSH1 0x2F DUP4 PUSH2 0x211 JUMP JUMPDEST SWAP2 POP PUSH2 0x286 DUP3 PUSH2 0x221 JUMP JUMPDEST PUSH1 0x40 DUP3 ADD SWAP1 POP SWAP2 SWAP1 POP JUMP JUMPDEST PUSH0 PUSH1 0x20 DUP3 ADD SWAP1 POP DUP2 DUP2 SUB PUSH0 DUP4 ADD MSTORE PUSH2 0x2A8 DUP2 PUSH2 0x26F JUMP JUMPDEST SWAP1 POP SWAP2 SWAP1 POP JUMP JUMPDEST PUSH32 0x456C206D6178696D6F206E756D65726F20646520746F6B656E73206120656D69 PUSH0 DUP3 ADD MSTORE PUSH32 0x746972206465626520736572206D61796F7220717565206365726F0000000000 PUSH1 0x20 DUP3 ADD MSTORE POP JUMP JUMPDEST PUSH0 PUSH2 0x309 PUSH1 0x3B DUP4 PUSH2 0x211 JUMP JUMPDEST SWAP2 POP PUSH2 0x314 DUP3 PUSH2 0x2AF JUMP JUMPDEST PUSH1 0x40 DUP3 ADD SWAP1 POP SWAP2 SWAP1 POP JUMP JUMPDEST PUSH0 PUSH1 0x20 DUP3 ADD SWAP1 POP DUP2 DUP2 SUB PUSH0 DUP4 ADD MSTORE PUSH2 0x336 DUP2 PUSH2 0x2FD JUMP JUMPDEST SWAP1 POP SWAP2 SWAP1 POP JUMP JUMPDEST PUSH32 0x44414F20566F746520546F6B656E000000000000000000000000000000000000 PUSH0 DUP3 ADD MSTORE POP JUMP JUMPDEST PUSH0 PUSH2 0x371 PUSH1 0xE DUP4 PUSH2 0x211 JUMP JUMPDEST SWAP2 POP PUSH2 0x37C DUP3 PUSH2 0x33D JUMP JUMPDEST PUSH1 0x20 DUP3 ADD SWAP1 POP SWAP2 SWAP1 POP JUMP JUMPDEST PUSH32 0x4456540000000000000000000000000000000000000000000000000000000000 PUSH0 DUP3 ADD MSTORE POP JUMP JUMPDEST PUSH0 PUSH2 0x3BB PUSH1 0x3 DUP4 PUSH2 0x211 JUMP JUMPDEST SWAP2 POP PUSH2 0x3C6 DUP3 PUSH2 0x387 JUMP JUMPDEST PUSH1 0x20 DUP3 ADD SWAP1 POP SWAP2 SWAP1 POP JUMP JUMPDEST PUSH2 0x3DA DUP2 PUSH2 0x1A0 JUMP JUMPDEST DUP3 MSTORE POP POP JUMP JUMPDEST PUSH0 PUSH1 0x80 DUP3 ADD SWAP1 POP DUP2 DUP2 SUB PUSH0 DUP4 ADD MSTORE PUSH2 0x3F7 DUP2 PUSH2 0x365 JUMP JUMPDEST SWAP1 POP DUP2 DUP2 SUB PUSH1 0x20 DUP4 ADD MSTORE PUSH2 0x40A DUP2 PUSH2 0x3AF JUMP JUMPDEST SWAP1 POP PUSH2 0x419 PUSH1 0x40 DUP4 ADD DUP6 PUSH2 0x3D1 JUMP JUMPDEST PUSH2 0x426 PUSH1 0x60 DUP4 ADD DUP5 PUSH2 0x3D1 JUMP JUMPDEST SWAP4 SWAP3 POP POP POP JUMP JUMPDEST PUSH1 0x80 MLOAD PUSH2 0x627C PUSH2 0x45A PUSH0 CODECOPY PUSH0 DUP2 DUP2 PUSH2 0x1D55 ADD MSTORE DUP2 DUP2 PUSH2 0x1E97 ADD MSTORE DUP2 DUP2 PUSH2 0x2282 ADD MSTORE PUSH2 0x2CC9 ADD MSTORE PUSH2 0x627C PUSH0 RETURN INVALID PUSH1 0x80 PUSH1 0x40 MSTORE PUSH1 0x4 CALLDATASIZE LT PUSH2 0xFD JUMPI PUSH0 CALLDATALOAD PUSH1 0xE0 SHR DUP1 PUSH4 0xAFFC0670 GT PUSH2 0x94 JUMPI DUP1 PUSH4 0xC631B292 GT PUSH2 0x63 JUMPI DUP1 PUSH4 0xC631B292 EQ PUSH2 0x300 JUMPI DUP1 PUSH4 0xD0FEBE4C EQ PUSH2 0x316 JUMPI DUP1 PUSH4 0xDA52A95F EQ PUSH2 0x320 JUMPI DUP1 PUSH4 0xE0A8F6F5 EQ PUSH2 0x34A JUMPI DUP1 PUSH4 0xFFFEFD91 EQ PUSH2 0x372 JUMPI PUSH2 0xFD JUMP JUMPDEST DUP1 PUSH4 0xAFFC0670 EQ PUSH2 0x266 JUMPI DUP1 PUSH4 0xB2BDFA7B EQ PUSH2 0x270 JUMPI DUP1 PUSH4 0xBC903CB8 EQ PUSH2 0x29A JUMPI DUP1 PUSH4 0xC1FC006A EQ PUSH2 0x2D6 JUMPI PUSH2 0xFD JUMP JUMPDEST DUP1 PUSH4 0x649C649C GT PUSH2 0xD0 JUMPI DUP1 PUSH4 0x649C649C EQ PUSH2 0x1B2 JUMPI DUP1 PUSH4 0x6C11BCD3 EQ PUSH2 0x1DA JUMPI DUP1 PUSH4 0x7B0472F0 EQ PUSH2 0x202 JUMPI DUP1 PUSH4 0x9AB3F7A6 EQ PUSH2 0x22A JUMPI PUSH2 0xFD JUMP JUMPDEST DUP1 PUSH4 0x13CF08B EQ PUSH2 0x101 JUMPI DUP1 PUSH4 0x3D571E97 EQ PUSH2 0x148 JUMPI DUP1 PUSH4 0x400E3949 EQ PUSH2 0x15E JUMPI DUP1 PUSH4 0x4ECE90A8 EQ PUSH2 0x188 JUMPI JUMPDEST PUSH0 DUP1 REVERT JUMPDEST CALLVALUE DUP1 ISZERO PUSH2 0x10C JUMPI PUSH0 DUP1 REVERT JUMPDEST POP PUSH2 0x127 PUSH1 0x4 DUP1 CALLDATASIZE SUB DUP2 ADD SWAP1 PUSH2 0x122 SWAP2 SWAP1 PUSH2 0x429B JUMP JUMPDEST PUSH2 0x37C JUMP JUMPDEST PUSH1 0x40 MLOAD PUSH2 0x13F SWAP13 SWAP12 SWAP11 SWAP10 SWAP9 SWAP8 SWAP7 SWAP6 SWAP5 SWAP4 SWAP3 SWAP2 SWAP1 PUSH2 0x439E JUMP JUMPDEST PUSH1 0x40 MLOAD DUP1 SWAP2 SUB SWAP1 RETURN JUMPDEST CALLVALUE DUP1 ISZERO PUSH2 0x153 JUMPI PUSH0 DUP1 REVERT JUMPDEST POP PUSH2 0x15C PUSH2 0x549 JUMP JUMPDEST STOP JUMPDEST CALLVALUE DUP1 ISZERO PUSH2 0x169 JUMPI PUSH0 DUP1 REVERT JUMPDEST POP PUSH2 0x172 PUSH2 0x63F JUMP JUMPDEST PUSH1 0x40 MLOAD PUSH2 0x17F SWAP2 SWAP1 PUSH2 0x4464 JUMP JUMPDEST PUSH1 0x40 MLOAD DUP1 SWAP2 SUB SWAP1 RETURN JUMPDEST CALLVALUE DUP1 ISZERO PUSH2 0x193 JUMPI PUSH0 DUP1 REVERT JUMPDEST POP PUSH2 0x19C PUSH2 0x645 JUMP JUMPDEST PUSH1 0x40 MLOAD PUSH2 0x1A9 SWAP2 SWAP1 PUSH2 0x447D JUMP JUMPDEST PUSH1 0x40 MLOAD DUP1 SWAP2 SUB SWAP1 RETURN JUMPDEST CALLVALUE DUP1 ISZERO PUSH2 0x1BD JUMPI PUSH0 DUP1 REVERT JUMPDEST POP PUSH2 0x1D8 PUSH1 0x4 DUP1 CALLDATASIZE SUB DUP2 ADD SWAP1 PUSH2 0x1D3 SWAP2 SWAP1 PUSH2 0x4496 JUMP JUMPDEST PUSH2 0x66C JUMP JUMPDEST STOP JUMPDEST CALLVALUE DUP1 ISZERO PUSH2 0x1E5 JUMPI PUSH0 DUP1 REVERT JUMPDEST POP PUSH2 0x200 PUSH1 0x4 DUP1 CALLDATASIZE SUB DUP2 ADD SWAP1 PUSH2 0x1FB SWAP2 SWAP1 PUSH2 0x429B JUMP JUMPDEST PUSH2 0xEAA JUMP JUMPDEST STOP JUMPDEST CALLVALUE DUP1 ISZERO PUSH2 0x20D JUMPI PUSH0 DUP1 REVERT JUMPDEST POP PUSH2 0x228 PUSH1 0x4 DUP1 CALLDATASIZE SUB DUP2 ADD SWAP1 PUSH2 0x223 SWAP2 SWAP1 PUSH2 0x4496 JUMP JUMPDEST PUSH2 0x1260 JUMP JUMPDEST STOP JUMPDEST CALLVALUE DUP1 ISZERO PUSH2 0x235 JUMPI PUSH0 DUP1 REVERT JUMPDEST POP PUSH2 0x250 PUSH1 0x4 DUP1 CALLDATASIZE SUB DUP2 ADD SWAP1 PUSH2 0x24B SWAP2 SWAP1 PUSH2 0x455F JUMP JUMPDEST PUSH2 0x195A JUMP JUMPDEST PUSH1 0x40 MLOAD PUSH2 0x25D SWAP2 SWAP1 PUSH2 0x4464 JUMP JUMPDEST PUSH1 0x40 MLOAD DUP1 SWAP2 SUB SWAP1 RETURN JUMPDEST PUSH2 0x26E PUSH2 0x1D53 JUMP JUMPDEST STOP JUMPDEST CALLVALUE DUP1 ISZERO PUSH2 0x27B JUMPI PUSH0 DUP1 REVERT JUMPDEST POP PUSH2 0x284 PUSH2 0x1E95 JUMP JUMPDEST PUSH1 0x40 MLOAD PUSH2 0x291 SWAP2 SWAP1 PUSH2 0x447D JUMP JUMPDEST PUSH1 0x40 MLOAD DUP1 SWAP2 SUB SWAP1 RETURN JUMPDEST CALLVALUE DUP1 ISZERO PUSH2 0x2A5 JUMPI PUSH0 DUP1 REVERT JUMPDEST POP PUSH2 0x2C0 PUSH1 0x4 DUP1 CALLDATASIZE SUB DUP2 ADD SWAP1 PUSH2 0x2BB SWAP2 SWAP1 PUSH2 0x429B JUMP JUMPDEST PUSH2 0x1EB9 JUMP JUMPDEST PUSH1 0x40 MLOAD PUSH2 0x2CD SWAP2 SWAP1 PUSH2 0x4843 JUMP JUMPDEST PUSH1 0x40 MLOAD DUP1 SWAP2 SUB SWAP1 RETURN JUMPDEST CALLVALUE DUP1 ISZERO PUSH2 0x2E1 JUMPI PUSH0 DUP1 REVERT JUMPDEST POP PUSH2 0x2EA PUSH2 0x225D JUMP JUMPDEST PUSH1 0x40 MLOAD PUSH2 0x2F7 SWAP2 SWAP1 PUSH2 0x48BE JUMP JUMPDEST PUSH1 0x40 MLOAD DUP1 SWAP2 SUB SWAP1 RETURN JUMPDEST CALLVALUE DUP1 ISZERO PUSH2 0x30B JUMPI PUSH0 DUP1 REVERT JUMPDEST POP PUSH2 0x314 PUSH2 0x2280 JUMP JUMPDEST STOP JUMPDEST PUSH2 0x31E PUSH2 0x2ED7 JUMP JUMPDEST STOP JUMPDEST CALLVALUE DUP1 ISZERO PUSH2 0x32B JUMPI PUSH0 DUP1 REVERT JUMPDEST POP PUSH2 0x334 PUSH2 0x3196 JUMP JUMPDEST PUSH1 0x40 MLOAD PUSH2 0x341 SWAP2 SWAP1 PUSH2 0x4464 JUMP JUMPDEST PUSH1 0x40 MLOAD DUP1 SWAP2 SUB SWAP1 RETURN JUMPDEST CALLVALUE DUP1 ISZERO PUSH2 0x355 JUMPI PUSH0 DUP1 REVERT JUMPDEST POP PUSH2 0x370 PUSH1 0x4 DUP1 CALLDATASIZE SUB DUP2 ADD SWAP1 PUSH2 0x36B SWAP2 SWAP1 PUSH2 0x429B JUMP JUMPDEST PUSH2 0x319C JUMP JUMPDEST STOP JUMPDEST PUSH2 0x37A PUSH2 0x3701 JUMP JUMPDEST STOP JUMPDEST PUSH1 0x9 PUSH1 0x20 MSTORE DUP1 PUSH0 MSTORE PUSH1 0x40 PUSH0 KECCAK256 PUSH0 SWAP2 POP SWAP1 POP DUP1 PUSH0 ADD SLOAD SWAP1 DUP1 PUSH1 0x1 ADD DUP1 SLOAD PUSH2 0x3A1 SWAP1 PUSH2 0x4904 JUMP JUMPDEST DUP1 PUSH1 0x1F ADD PUSH1 0x20 DUP1 SWAP2 DIV MUL PUSH1 0x20 ADD PUSH1 0x40 MLOAD SWAP1 DUP2 ADD PUSH1 0x40 MSTORE DUP1 SWAP3 SWAP2 SWAP1 DUP2 DUP2 MSTORE PUSH1 0x20 ADD DUP3 DUP1 SLOAD PUSH2 0x3CD SWAP1 PUSH2 0x4904 JUMP JUMPDEST DUP1 ISZERO PUSH2 0x418 JUMPI DUP1 PUSH1 0x1F LT PUSH2 0x3EF JUMPI PUSH2 0x100 DUP1 DUP4 SLOAD DIV MUL DUP4 MSTORE SWAP2 PUSH1 0x20 ADD SWAP2 PUSH2 0x418 JUMP JUMPDEST DUP3 ADD SWAP2 SWAP1 PUSH0 MSTORE PUSH1 0x20 PUSH0 KECCAK256 SWAP1 JUMPDEST DUP2 SLOAD DUP2 MSTORE SWAP1 PUSH1 0x1 ADD SWAP1 PUSH1 0x20 ADD DUP1 DUP4 GT PUSH2 0x3FB JUMPI DUP3 SWAP1 SUB PUSH1 0x1F AND DUP3 ADD SWAP2 JUMPDEST POP POP POP POP POP SWAP1 DUP1 PUSH1 0x2 ADD DUP1 SLOAD PUSH2 0x42D SWAP1 PUSH2 0x4904 JUMP JUMPDEST DUP1 PUSH1 0x1F ADD PUSH1 0x20 DUP1 SWAP2 DIV MUL PUSH1 0x20 ADD PUSH1 0x40 MLOAD SWAP1 DUP2 ADD PUSH1 0x40 MSTORE DUP1 SWAP3 SWAP2 SWAP1 DUP2 DUP2 MSTORE PUSH1 0x20 ADD DUP3 DUP1 SLOAD PUSH2 0x459 SWAP1 PUSH2 0x4904 JUMP JUMPDEST DUP1 ISZERO PUSH2 0x4A4 JUMPI DUP1 PUSH1 0x1F LT PUSH2 0x47B JUMPI PUSH2 0x100 DUP1 DUP4 SLOAD DIV MUL DUP4 MSTORE SWAP2 PUSH1 0x20 ADD SWAP2 PUSH2 0x4A4 JUMP JUMPDEST DUP3 ADD SWAP2 SWAP1 PUSH0 MSTORE PUSH1 0x20 PUSH0 KECCAK256 SWAP1 JUMPDEST DUP2 SLOAD DUP2 MSTORE SWAP1 PUSH1 0x1 ADD SWAP1 PUSH1 0x20 ADD DUP1 DUP4 GT PUSH2 0x487 JUMPI DUP3 SWAP1 SUB PUSH1 0x1F AND DUP3 ADD SWAP2 JUMPDEST POP POP POP POP POP SWAP1 DUP1 PUSH1 0x3 ADD SLOAD SWAP1 DUP1 PUSH1 0x4 ADD SLOAD SWAP1 DUP1 PUSH1 0x5 ADD SLOAD SWAP1 DUP1 PUSH1 0x6 ADD PUSH0 SWAP1 SLOAD SWAP1 PUSH2 0x100 EXP SWAP1 DIV PUSH20 0xFFFFFFFFFFFFFFFFFFFFFFFFFFFFFFFFFFFFFFFF AND SWAP1 DUP1 PUSH1 0x7 ADD PUSH0 SWAP1 SLOAD SWAP1 PUSH2 0x100 EXP SWAP1 DIV PUSH20 0xFFFFFFFFFFFFFFFFFFFFFFFFFFFFFFFFFFFFFFFF AND SWAP1 DUP1 PUSH1 0x7 ADD PUSH1 0x14 SWAP1 SLOAD SWAP1 PUSH2 0x100 EXP SWAP1 DIV PUSH1 0xFF AND SWAP1 DUP1 PUSH1 0x7 ADD PUSH1 0x15 SWAP1 SLOAD SWAP1 PUSH2 0x100 EXP SWAP1 DIV PUSH1 0xFF AND SWAP1 DUP1 PUSH1 0x7 ADD PUSH1 0x16 SWAP1 SLOAD SWAP1 PUSH2 0x100 EXP SWAP1 DIV PUSH1 0xFF AND SWAP1 DUP1 PUSH1 0x8 ADD SLOAD SWAP1 POP DUP13 JUMP JUMPDEST PUSH1 0x8 PUSH0 CALLER PUSH20 0xFFFFFFFFFFFFFFFFFFFFFFFFFFFFFFFFFFFFFFFF AND PUSH20 0xFFFFFFFFFFFFFFFFFFFFFFFFFFFFFFFFFFFFFFFF AND DUP2 MSTORE PUSH1 0x20 ADD SWAP1 DUP2 MSTORE PUSH1 0x20 ADD PUSH0 KECCAK256 PUSH0 SWAP1 SLOAD SWAP1 PUSH2 0x100 EXP SWAP1 DIV PUSH1 0xFF AND PUSH2 0x5D2 JUMPI PUSH1 0x40 MLOAD PUSH32 0x8C379A000000000000000000000000000000000000000000000000000000000 DUP2 MSTORE PUSH1 0x4 ADD PUSH2 0x5C9 SWAP1 PUSH2 0x49A4 JUMP JUMPDEST PUSH1 0x40 MLOAD DUP1 SWAP2 SUB SWAP1 REVERT JUMPDEST PUSH0 PUSH1 0x8 PUSH0 CALLER PUSH20 0xFFFFFFFFFFFFFFFFFFFFFFFFFFFFFFFFFFFFFFFF AND PUSH20 0xFFFFFFFFFFFFFFFFFFFFFFFFFFFFFFFFFFFFFFFF AND DUP2 MSTORE PUSH1 0x20 ADD SWAP1 DUP2 MSTORE PUSH1 0x20 ADD PUSH0 KECCAK256 PUSH0 PUSH2 0x100 EXP DUP2 SLOAD DUP2 PUSH1 0xFF MUL NOT AND SWAP1 DUP4 ISZERO ISZERO MUL OR SWAP1 SSTORE POP PUSH1 0x7 PUSH0 DUP2 SLOAD DUP1 SWAP3 SWAP2 SWAP1 PUSH2 0x638 SWAP1 PUSH2 0x49EF JUMP JUMPDEST SWAP2 SWAP1 POP SSTORE POP JUMP JUMPDEST PUSH1 0xA SLOAD DUP2 JUMP JUMPDEST PUSH0 DUP1 PUSH0 SWAP1 SLOAD SWAP1 PUSH2 0x100 EXP SWAP1 DIV PUSH20 0xFFFFFFFFFFFFFFFFFFFFFFFFFFFFFFFFFFFFFFFF AND SWAP1 POP SWAP1 JUMP JUMPDEST PUSH1 0x2 PUSH0 SWAP1 SLOAD SWAP1 PUSH2 0x100 EXP SWAP1 DIV PUSH1 0xFF AND PUSH2 0x6BA JUMPI PUSH1 0x40 MLOAD PUSH32 0x8C379A000000000000000000000000000000000000000000000000000000000 DUP2 MSTORE PUSH1 0x4 ADD PUSH2 0x6B1 SWAP1 PUSH2 0x4A86 JUMP JUMPDEST PUSH1 0x40 MLOAD DUP1 SWAP2 SUB SWAP1 REVERT JUMPDEST DUP1 PUSH1 0xA SLOAD DUP2 LT PUSH2 0x6FF JUMPI PUSH1 0x40 MLOAD PUSH32 0x8C379A000000000000000000000000000000000000000000000000000000000 DUP2 MSTORE PUSH1 0x4 ADD PUSH2 0x6F6 SWAP1 PUSH2 0x4B14 JUMP JUMPDEST PUSH1 0x40 MLOAD DUP1 SWAP2 SUB SWAP1 REVERT JUMPDEST PUSH1 0x8 PUSH0 CALLER PUSH20 0xFFFFFFFFFFFFFFFFFFFFFFFFFFFFFFFFFFFFFFFF AND PUSH20 0xFFFFFFFFFFFFFFFFFFFFFFFFFFFFFFFFFFFFFFFF AND DUP2 MSTORE PUSH1 0x20 ADD SWAP1 DUP2 MSTORE PUSH1 0x20 ADD PUSH0 KECCAK256 PUSH0 SWAP1 SLOAD SWAP1 PUSH2 0x100 EXP SWAP1 DIV PUSH1 0xFF AND PUSH2 0x788 JUMPI PUSH1 0x40 MLOAD PUSH32 0x8C379A000000000000000000000000000000000000000000000000000000000 DUP2 MSTORE PUSH1 0x4 ADD PUSH2 0x77F SWAP1 PUSH2 0x49A4 JUMP JUMPDEST PUSH1 0x40 MLOAD DUP1 SWAP2 SUB SWAP1 REVERT JUMPDEST DUP2 PUSH1 0x9 PUSH0 DUP3 DUP2 MSTORE PUSH1 0x20 ADD SWAP1 DUP2 MSTORE PUSH1 0x20 ADD PUSH0 KECCAK256 PUSH1 0x7 ADD PUSH1 0x16 SWAP1 SLOAD SWAP1 PUSH2 0x100 EXP SWAP1 DIV PUSH1 0xFF AND ISZERO PUSH2 0x7EB JUMPI PUSH1 0x40 MLOAD PUSH32 0x8C379A000000000000000000000000000000000000000000000000000000000 DUP2 MSTORE PUSH1 0x4 ADD PUSH2 0x7E2 SWAP1 PUSH2 0x4BA2 JUMP JUMPDEST PUSH1 0x40 MLOAD DUP1 SWAP2 SUB SWAP1 REVERT JUMPDEST DUP3 PUSH1 0x9 PUSH0 DUP3 DUP2 MSTORE PUSH1 0x20 ADD SWAP1 DUP2 MSTORE PUSH1 0x20 ADD PUSH0 KECCAK256 PUSH1 0x7 ADD PUSH1 0x15 SWAP1 SLOAD SWAP1 PUSH2 0x100 EXP SWAP1 DIV PUSH1 0xFF AND ISZERO PUSH2 0x84E JUMPI PUSH1 0x40 MLOAD PUSH32 0x8C379A000000000000000000000000000000000000000000000000000000000 DUP2 MSTORE PUSH1 0x4 ADD PUSH2 0x845 SWAP1 PUSH2 0x4C56 JUMP JUMPDEST PUSH1 0x40 MLOAD DUP1 SWAP2 SUB SWAP1 REVERT JUMPDEST PUSH0 DUP6 GT PUSH2 0x890 JUMPI PUSH1 0x40 MLOAD PUSH32 0x8C379A000000000000000000000000000000000000000000000000000000000 DUP2 MSTORE PUSH1 0x4 ADD PUSH2 0x887 SWAP1 PUSH2 0x4CE4 JUMP JUMPDEST PUSH1 0x40 MLOAD DUP1 SWAP2 SUB SWAP1 REVERT JUMPDEST DUP5 PUSH1 0x3 PUSH0 DUP7 DUP2 MSTORE PUSH1 0x20 ADD SWAP1 DUP2 MSTORE PUSH1 0x20 ADD PUSH0 KECCAK256 PUSH0 CALLER PUSH20 0xFFFFFFFFFFFFFFFFFFFFFFFFFFFFFFFFFFFFFFFF AND PUSH20 0xFFFFFFFFFFFFFFFFFFFFFFFFFFFFFFFFFFFFFFFF AND DUP2 MSTORE PUSH1 0x20 ADD SWAP1 DUP2 MSTORE PUSH1 0x20 ADD PUSH0 KECCAK256 SLOAD LT ISZERO PUSH2 0x91F JUMPI PUSH1 0x40 MLOAD PUSH32 0x8C379A000000000000000000000000000000000000000000000000000000000 DUP2 MSTORE PUSH1 0x4 ADD PUSH2 0x916 SWAP1 PUSH2 0x4D72 JUMP JUMPDEST PUSH1 0x40 MLOAD DUP1 SWAP2 SUB SWAP1 REVERT JUMPDEST PUSH0 PUSH1 0x3 PUSH0 DUP7 DUP2 MSTORE PUSH1 0x20 ADD SWAP1 DUP2 MSTORE PUSH1 0x20 ADD PUSH0 KECCAK256 PUSH0 CALLER PUSH20 0xFFFFFFFFFFFFFFFFFFFFFFFFFFFFFFFFFFFFFFFF AND PUSH20 0xFFFFFFFFFFFFFFFFFFFFFFFFFFFFFFFFFFFFFFFF AND DUP2 MSTORE PUSH1 0x20 ADD SWAP1 DUP2 MSTORE PUSH1 0x20 ADD PUSH0 KECCAK256 SLOAD SWAP1 POP PUSH0 DUP7 DUP3 PUSH2 0x97C SWAP2 SWAP1 PUSH2 0x4D90 JUMP JUMPDEST SWAP1 POP PUSH0 DUP2 DUP3 PUSH2 0x98B SWAP2 SWAP1 PUSH2 0x4DC3 JUMP JUMPDEST DUP4 DUP5 PUSH2 0x997 SWAP2 SWAP1 PUSH2 0x4DC3 JUMP JUMPDEST PUSH2 0x9A1 SWAP2 SWAP1 PUSH2 0x4D90 JUMP JUMPDEST SWAP1 POP DUP1 PUSH0 DUP1 SLOAD SWAP1 PUSH2 0x100 EXP SWAP1 DIV PUSH20 0xFFFFFFFFFFFFFFFFFFFFFFFFFFFFFFFFFFFFFFFF AND PUSH20 0xFFFFFFFFFFFFFFFFFFFFFFFFFFFFFFFFFFFFFFFF AND PUSH4 0x70A08231 ADDRESS PUSH1 0x40 MLOAD DUP3 PUSH4 0xFFFFFFFF AND PUSH1 0xE0 SHL DUP2 MSTORE PUSH1 0x4 ADD PUSH2 0x9FC SWAP2 SWAP1 PUSH2 0x447D JUMP JUMPDEST PUSH1 0x20 PUSH1 0x40 MLOAD DUP1 DUP4 SUB DUP2 DUP7 GAS STATICCALL ISZERO DUP1 ISZERO PUSH2 0xA17 JUMPI RETURNDATASIZE PUSH0 DUP1 RETURNDATACOPY RETURNDATASIZE PUSH0 REVERT JUMPDEST POP POP POP POP PUSH1 0x40 MLOAD RETURNDATASIZE PUSH1 0x1F NOT PUSH1 0x1F DUP3 ADD AND DUP3 ADD DUP1 PUSH1 0x40 MSTORE POP DUP2 ADD SWAP1 PUSH2 0xA3B SWAP2 SWAP1 PUSH2 0x4E18 JUMP JUMPDEST LT ISZERO PUSH2 0xA7C JUMPI PUSH1 0x40 MLOAD PUSH32 0x8C379A000000000000000000000000000000000000000000000000000000000 DUP2 MSTORE PUSH1 0x4 ADD PUSH2 0xA73 SWAP1 PUSH2 0x4EB3 JUMP JUMPDEST PUSH1 0x40 MLOAD DUP1 SWAP2 SUB SWAP1 REVERT JUMPDEST PUSH0 DUP1 PUSH0 SWAP1 SLOAD SWAP1 PUSH2 0x100 EXP SWAP1 DIV PUSH20 0xFFFFFFFFFFFFFFFFFFFFFFFFFFFFFFFFFFFFFFFF AND PUSH20 0xFFFFFFFFFFFFFFFFFFFFFFFFFFFFFFFFFFFFFFFF AND PUSH4 0xA9059CBB CALLER DUP5 PUSH1 0x40 MLOAD DUP4 PUSH4 0xFFFFFFFF AND PUSH1 0xE0 SHL DUP2 MSTORE PUSH1 0x4 ADD PUSH2 0xAD8 SWAP3 SWAP2 SWAP1 PUSH2 0x4ED1 JUMP JUMPDEST PUSH1 0x20 PUSH1 0x40 MLOAD DUP1 DUP4 SUB DUP2 PUSH0 DUP8 GAS CALL ISZERO DUP1 ISZERO PUSH2 0xAF4 JUMPI RETURNDATASIZE PUSH0 DUP1 RETURNDATACOPY RETURNDATASIZE PUSH0 REVERT JUMPDEST POP POP POP POP PUSH1 0x40 MLOAD RETURNDATASIZE PUSH1 0x1F NOT PUSH1 0x1F DUP3 ADD AND DUP3 ADD DUP1 PUSH1 0x40 MSTORE POP DUP2 ADD SWAP1 PUSH2 0xB18 SWAP2 SWAP1 PUSH2 0x4F22 JUMP JUMPDEST SWAP1 POP DUP1 PUSH2 0xB5A JUMPI PUSH1 0x40 MLOAD PUSH32 0x8C379A000000000000000000000000000000000000000000000000000000000 DUP2 MSTORE PUSH1 0x4 ADD PUSH2 0xB51 SWAP1 PUSH2 0x4FBD JUMP JUMPDEST PUSH1 0x40 MLOAD DUP1 SWAP2 SUB SWAP1 REVERT JUMPDEST DUP3 PUSH1 0x3 PUSH0 DUP11 DUP2 MSTORE PUSH1 0x20 ADD SWAP1 DUP2 MSTORE PUSH1 0x20 ADD PUSH0 KECCAK256 PUSH0 CALLER PUSH20 0xFFFFFFFFFFFFFFFFFFFFFFFFFFFFFFFFFFFFFFFF AND PUSH20 0xFFFFFFFFFFFFFFFFFFFFFFFFFFFFFFFFFFFFFFFF AND DUP2 MSTORE PUSH1 0x20 ADD SWAP1 DUP2 MSTORE PUSH1 0x20 ADD PUSH0 KECCAK256 DUP2 SWAP1 SSTORE POP DUP9 PUSH1 0x9 PUSH0 DUP11 DUP2 MSTORE PUSH1 0x20 ADD SWAP1 DUP2 MSTORE PUSH1 0x20 ADD PUSH0 KECCAK256 PUSH1 0x4 ADD PUSH0 DUP3 DUP3 SLOAD PUSH2 0xBCE SWAP2 SWAP1 PUSH2 0x4D90 JUMP JUMPDEST SWAP3 POP POP DUP2 SWAP1 SSTORE POP DUP2 PUSH1 0x9 PUSH0 DUP11 DUP2 MSTORE PUSH1 0x20 ADD SWAP1 DUP2 MSTORE PUSH1 0x20 ADD PUSH0 KECCAK256 PUSH1 0x8 ADD PUSH0 DUP3 DUP3 SLOAD PUSH2 0xBF8 SWAP2 SWAP1 PUSH2 0x4D90 JUMP JUMPDEST SWAP3 POP POP DUP2 SWAP1 SSTORE POP PUSH0 DUP4 SUB PUSH2 0xE9F JUMPI PUSH0 PUSH1 0x4 PUSH0 DUP11 DUP2 MSTORE PUSH1 0x20 ADD SWAP1 DUP2 MSTORE PUSH1 0x20 ADD PUSH0 KECCAK256 PUSH0 CALLER PUSH20 0xFFFFFFFFFFFFFFFFFFFFFFFFFFFFFFFFFFFFFFFF AND PUSH20 0xFFFFFFFFFFFFFFFFFFFFFFFFFFFFFFFFFFFFFFFF AND DUP2 MSTORE PUSH1 0x20 ADD SWAP1 DUP2 MSTORE PUSH1 0x20 ADD PUSH0 KECCAK256 SLOAD SWAP1 POP PUSH0 PUSH1 0x1 PUSH1 0x9 PUSH0 DUP13 DUP2 MSTORE PUSH1 0x20 ADD SWAP1 DUP2 MSTORE PUSH1 0x20 ADD PUSH0 KECCAK256 PUSH1 0x9 ADD DUP1 SLOAD SWAP1 POP PUSH2 0xC7B SWAP2 SWAP1 PUSH2 0x4D90 JUMP JUMPDEST SWAP1 POP DUP1 DUP3 EQ PUSH2 0xD94 JUMPI PUSH0 PUSH1 0x9 PUSH0 DUP13 DUP2 MSTORE PUSH1 0x20 ADD SWAP1 DUP2 MSTORE PUSH1 0x20 ADD PUSH0 KECCAK256 PUSH1 0x9 ADD DUP3 DUP2 SLOAD DUP2 LT PUSH2 0xCAB JUMPI PUSH2 0xCAA PUSH2 0x4FDB JUMP JUMPDEST JUMPDEST SWAP1 PUSH0 MSTORE PUSH1 0x20 PUSH0 KECCAK256 ADD PUSH0 SWAP1 SLOAD SWAP1 PUSH2 0x100 EXP SWAP1 DIV PUSH20 0xFFFFFFFFFFFFFFFFFFFFFFFFFFFFFFFFFFFFFFFF AND SWAP1 POP DUP1 PUSH1 0x9 PUSH0 DUP14 DUP2 MSTORE PUSH1 0x20 ADD SWAP1 DUP2 MSTORE PUSH1 0x20 ADD PUSH0 KECCAK256 PUSH1 0x9 ADD DUP5 DUP2 SLOAD DUP2 LT PUSH2 0xCFC JUMPI PUSH2 0xCFB PUSH2 0x4FDB JUMP JUMPDEST JUMPDEST SWAP1 PUSH0 MSTORE PUSH1 0x20 PUSH0 KECCAK256 ADD PUSH0 PUSH2 0x100 EXP DUP2 SLOAD DUP2 PUSH20 0xFFFFFFFFFFFFFFFFFFFFFFFFFFFFFFFFFFFFFFFF MUL NOT AND SWAP1 DUP4 PUSH20 0xFFFFFFFFFFFFFFFFFFFFFFFFFFFFFFFFFFFFFFFF AND MUL OR SWAP1 SSTORE POP DUP3 PUSH1 0x4 PUSH0 DUP14 DUP2 MSTORE PUSH1 0x20 ADD SWAP1 DUP2 MSTORE PUSH1 0x20 ADD PUSH0 KECCAK256 PUSH0 DUP4 PUSH20 0xFFFFFFFFFFFFFFFFFFFFFFFFFFFFFFFFFFFFFFFF AND PUSH20 0xFFFFFFFFFFFFFFFFFFFFFFFFFFFFFFFFFFFFFFFF AND DUP2 MSTORE PUSH1 0x20 ADD SWAP1 DUP2 MSTORE PUSH1 0x20 ADD PUSH0 KECCAK256 DUP2 SWAP1 SSTORE POP POP JUMPDEST PUSH1 0x9 PUSH0 DUP12 DUP2 MSTORE PUSH1 0x20 ADD SWAP1 DUP2 MSTORE PUSH1 0x20 ADD PUSH0 KECCAK256 PUSH1 0x9 ADD DUP1 SLOAD DUP1 PUSH2 0xDB8 JUMPI PUSH2 0xDB7 PUSH2 0x5008 JUMP JUMPDEST JUMPDEST PUSH1 0x1 SWAP1 SUB DUP2 DUP2 SWAP1 PUSH0 MSTORE PUSH1 0x20 PUSH0 KECCAK256 ADD PUSH0 PUSH2 0x100 EXP DUP2 SLOAD SWAP1 PUSH20 0xFFFFFFFFFFFFFFFFFFFFFFFFFFFFFFFFFFFFFFFF MUL NOT AND SWAP1 SSTORE SWAP1 SSTORE PUSH0 PUSH1 0x5 PUSH0 DUP13 DUP2 MSTORE PUSH1 0x20 ADD SWAP1 DUP2 MSTORE PUSH1 0x20 ADD PUSH0 KECCAK256 PUSH0 CALLER PUSH20 0xFFFFFFFFFFFFFFFFFFFFFFFFFFFFFFFFFFFFFFFF AND PUSH20 0xFFFFFFFFFFFFFFFFFFFFFFFFFFFFFFFFFFFFFFFF AND DUP2 MSTORE PUSH1 0x20 ADD SWAP1 DUP2 MSTORE PUSH1 0x20 ADD PUSH0 KECCAK256 PUSH0 PUSH2 0x100 EXP DUP2 SLOAD DUP2 PUSH1 0xFF MUL NOT AND SWAP1 DUP4 ISZERO ISZERO MUL OR SWAP1 SSTORE POP PUSH1 0x4 PUSH0 DUP12 DUP2 MSTORE PUSH1 0x20 ADD SWAP1 DUP2 MSTORE PUSH1 0x20 ADD PUSH0 KECCAK256 PUSH0 CALLER PUSH20 0xFFFFFFFFFFFFFFFFFFFFFFFFFFFFFFFFFFFFFFFF AND PUSH20 0xFFFFFFFFFFFFFFFFFFFFFFFFFFFFFFFFFFFFFFFF AND DUP2 MSTORE PUSH1 0x20 ADD SWAP1 DUP2 MSTORE PUSH1 0x20 ADD PUSH0 KECCAK256 PUSH0 SWAP1 SSTORE POP POP JUMPDEST POP POP POP POP POP POP POP POP POP JUMP JUMPDEST PUSH1 0x8 PUSH0 CALLER PUSH20 0xFFFFFFFFFFFFFFFFFFFFFFFFFFFFFFFFFFFFFFFF AND PUSH20 0xFFFFFFFFFFFFFFFFFFFFFFFFFFFFFFFFFFFFFFFF AND DUP2 MSTORE PUSH1 0x20 ADD SWAP1 DUP2 MSTORE PUSH1 0x20 ADD PUSH0 KECCAK256 PUSH0 SWAP1 SLOAD SWAP1 PUSH2 0x100 EXP SWAP1 DIV PUSH1 0xFF AND PUSH2 0xF33 JUMPI PUSH1 0x40 MLOAD PUSH32 0x8C379A000000000000000000000000000000000000000000000000000000000 DUP2 MSTORE PUSH1 0x4 ADD PUSH2 0xF2A SWAP1 PUSH2 0x49A4 JUMP JUMPDEST PUSH1 0x40 MLOAD DUP1 SWAP2 SUB SWAP1 REVERT JUMPDEST PUSH0 DUP2 GT PUSH2 0xF75 JUMPI PUSH1 0x40 MLOAD PUSH32 0x8C379A000000000000000000000000000000000000000000000000000000000 DUP2 MSTORE PUSH1 0x4 ADD PUSH2 0xF6C SWAP1 PUSH2 0x50A5 JUMP JUMPDEST PUSH1 0x40 MLOAD DUP1 SWAP2 SUB SWAP1 REVERT JUMPDEST DUP1 PUSH0 DUP1 SLOAD SWAP1 PUSH2 0x100 EXP SWAP1 DIV PUSH20 0xFFFFFFFFFFFFFFFFFFFFFFFFFFFFFFFFFFFFFFFF AND PUSH20 0xFFFFFFFFFFFFFFFFFFFFFFFFFFFFFFFFFFFFFFFF AND PUSH4 0x70A08231 CALLER PUSH1 0x40 MLOAD DUP3 PUSH4 0xFFFFFFFF AND PUSH1 0xE0 SHL DUP2 MSTORE PUSH1 0x4 ADD PUSH2 0xFCE SWAP2 SWAP1 PUSH2 0x447D JUMP JUMPDEST PUSH1 0x20 PUSH1 0x40 MLOAD DUP1 DUP4 SUB DUP2 DUP7 GAS STATICCALL ISZERO DUP1 ISZERO PUSH2 0xFE9 JUMPI RETURNDATASIZE PUSH0 DUP1 RETURNDATACOPY RETURNDATASIZE PUSH0 REVERT JUMPDEST POP POP POP POP PUSH1 0x40 MLOAD RETURNDATASIZE PUSH1 0x1F NOT PUSH1 0x1F DUP3 ADD AND DUP3 ADD DUP1 PUSH1 0x40 MSTORE POP DUP2 ADD SWAP1 PUSH2 0x100D SWAP2 SWAP1 PUSH2 0x4E18 JUMP JUMPDEST LT ISZERO PUSH2 0x104E JUMPI PUSH1 0x40 MLOAD PUSH32 0x8C379A000000000000000000000000000000000000000000000000000000000 DUP2 MSTORE PUSH1 0x4 ADD PUSH2 0x1045 SWAP1 PUSH2 0x5133 JUMP JUMPDEST PUSH1 0x40 MLOAD DUP1 SWAP2 SUB SWAP1 REVERT JUMPDEST PUSH0 DUP1 PUSH0 SWAP1 SLOAD SWAP1 PUSH2 0x100 EXP SWAP1 DIV PUSH20 0xFFFFFFFFFFFFFFFFFFFFFFFFFFFFFFFFFFFFFFFF AND PUSH20 0xFFFFFFFFFFFFFFFFFFFFFFFFFFFFFFFFFFFFFFFF AND PUSH4 0x4B94F50E PUSH1 0x40 MLOAD DUP2 PUSH4 0xFFFFFFFF AND PUSH1 0xE0 SHL DUP2 MSTORE PUSH1 0x4 ADD PUSH1 0x20 PUSH1 0x40 MLOAD DUP1 DUP4 SUB DUP2 DUP7 GAS STATICCALL ISZERO DUP1 ISZERO PUSH2 0x10B8 JUMPI RETURNDATASIZE PUSH0 DUP1 RETURNDATACOPY RETURNDATASIZE PUSH0 REVERT JUMPDEST POP POP POP POP PUSH1 0x40 MLOAD RETURNDATASIZE PUSH1 0x1F NOT PUSH1 0x1F DUP3 ADD AND DUP3 ADD DUP1 PUSH1 0x40 MSTORE POP DUP2 ADD SWAP1 PUSH2 0x10DC SWAP2 SWAP1 PUSH2 0x4E18 JUMP JUMPDEST DUP3 PUSH2 0x10E7 SWAP2 SWAP1 PUSH2 0x4DC3 JUMP JUMPDEST SWAP1 POP DUP1 SELFBALANCE LT ISZERO PUSH2 0x112C JUMPI PUSH1 0x40 MLOAD PUSH32 0x8C379A000000000000000000000000000000000000000000000000000000000 DUP2 MSTORE PUSH1 0x4 ADD PUSH2 0x1123 SWAP1 PUSH2 0x51C1 JUMP JUMPDEST PUSH1 0x40 MLOAD DUP1 SWAP2 SUB SWAP1 REVERT JUMPDEST PUSH0 DUP1 SLOAD SWAP1 PUSH2 0x100 EXP SWAP1 DIV PUSH20 0xFFFFFFFFFFFFFFFFFFFFFFFFFFFFFFFFFFFFFFFF AND PUSH20 0xFFFFFFFFFFFFFFFFFFFFFFFFFFFFFFFFFFFFFFFF AND PUSH4 0x9DC29FAC CALLER DUP5 PUSH1 0x40 MLOAD DUP4 PUSH4 0xFFFFFFFF AND PUSH1 0xE0 SHL DUP2 MSTORE PUSH1 0x4 ADD PUSH2 0x1186 SWAP3 SWAP2 SWAP1 PUSH2 0x4ED1 JUMP JUMPDEST PUSH0 PUSH1 0x40 MLOAD DUP1 DUP4 SUB DUP2 PUSH0 DUP8 DUP1 EXTCODESIZE ISZERO DUP1 ISZERO PUSH2 0x119D JUMPI PUSH0 DUP1 REVERT JUMPDEST POP GAS CALL ISZERO DUP1 ISZERO PUSH2 0x11AF JUMPI RETURNDATASIZE PUSH0 DUP1 RETURNDATACOPY RETURNDATASIZE PUSH0 REVERT JUMPDEST POP POP POP POP PUSH0 CALLER PUSH20 0xFFFFFFFFFFFFFFFFFFFFFFFFFFFFFFFFFFFFFFFF AND DUP3 PUSH1 0x40 MLOAD PUSH2 0x11D8 SWAP1 PUSH2 0x520C JUMP JUMPDEST PUSH0 PUSH1 0x40 MLOAD DUP1 DUP4 SUB DUP2 DUP6 DUP8 GAS CALL SWAP3 POP POP POP RETURNDATASIZE DUP1 PUSH0 DUP2 EQ PUSH2 0x1212 JUMPI PUSH1 0x40 MLOAD SWAP2 POP PUSH1 0x1F NOT PUSH1 0x3F RETURNDATASIZE ADD AND DUP3 ADD PUSH1 0x40 MSTORE RETURNDATASIZE DUP3 MSTORE RETURNDATASIZE PUSH0 PUSH1 0x20 DUP5 ADD RETURNDATACOPY PUSH2 0x1217 JUMP JUMPDEST PUSH1 0x60 SWAP2 POP JUMPDEST POP POP SWAP1 POP DUP1 PUSH2 0x125B JUMPI PUSH1 0x40 MLOAD PUSH32 0x8C379A000000000000000000000000000000000000000000000000000000000 DUP2 MSTORE PUSH1 0x4 ADD PUSH2 0x1252 SWAP1 PUSH2 0x5290 JUMP JUMPDEST PUSH1 0x40 MLOAD DUP1 SWAP2 SUB SWAP1 REVERT JUMPDEST POP POP POP JUMP JUMPDEST PUSH1 0x2 PUSH0 SWAP1 SLOAD SWAP1 PUSH2 0x100 EXP SWAP1 DIV PUSH1 0xFF AND PUSH2 0x12AE JUMPI PUSH1 0x40 MLOAD PUSH32 0x8C379A000000000000000000000000000000000000000000000000000000000 DUP2 MSTORE PUSH1 0x4 ADD PUSH2 0x12A5 SWAP1 PUSH2 0x4A86 JUMP JUMPDEST PUSH1 0x40 MLOAD DUP1 SWAP2 SUB SWAP1 REVERT JUMPDEST DUP2 PUSH1 0xA SLOAD DUP2 LT PUSH2 0x12F3 JUMPI PUSH1 0x40 MLOAD PUSH32 0x8C379A000000000000000000000000000000000000000000000000000000000 DUP2 MSTORE PUSH1 0x4 ADD PUSH2 0x12EA SWAP1 PUSH2 0x4B14 JUMP JUMPDEST PUSH1 0x40 MLOAD DUP1 SWAP2 SUB SWAP1 REVERT JUMPDEST PUSH1 0x8 PUSH0 CALLER PUSH20 0xFFFFFFFFFFFFFFFFFFFFFFFFFFFFFFFFFFFFFFFF AND PUSH20 0xFFFFFFFFFFFFFFFFFFFFFFFFFFFFFFFFFFFFFFFF AND DUP2 MSTORE PUSH1 0x20 ADD SWAP1 DUP2 MSTORE PUSH1 0x20 ADD PUSH0 KECCAK256 PUSH0 SWAP1 SLOAD SWAP1 PUSH2 0x100 EXP SWAP1 DIV PUSH1 0xFF AND PUSH2 0x137C JUMPI PUSH1 0x40 MLOAD PUSH32 0x8C379A000000000000000000000000000000000000000000000000000000000 DUP2 MSTORE PUSH1 0x4 ADD PUSH2 0x1373 SWAP1 PUSH2 0x49A4 JUMP JUMPDEST PUSH1 0x40 MLOAD DUP1 SWAP2 SUB SWAP1 REVERT JUMPDEST DUP3 PUSH1 0x9 PUSH0 DUP3 DUP2 MSTORE PUSH1 0x20 ADD SWAP1 DUP2 MSTORE PUSH1 0x20 ADD PUSH0 KECCAK256 PUSH1 0x7 ADD PUSH1 0x16 SWAP1 SLOAD SWAP1 PUSH2 0x100 EXP SWAP1 DIV PUSH1 0xFF AND ISZERO PUSH2 0x13DF JUMPI PUSH1 0x40 MLOAD PUSH32 0x8C379A000000000000000000000000000000000000000000000000000000000 DUP2 MSTORE PUSH1 0x4 ADD PUSH2 0x13D6 SWAP1 PUSH2 0x4BA2 JUMP JUMPDEST PUSH1 0x40 MLOAD DUP1 SWAP2 SUB SWAP1 REVERT JUMPDEST DUP4 PUSH1 0x9 PUSH0 DUP3 DUP2 MSTORE PUSH1 0x20 ADD SWAP1 DUP2 MSTORE PUSH1 0x20 ADD PUSH0 KECCAK256 PUSH1 0x7 ADD PUSH1 0x15 SWAP1 SLOAD SWAP1 PUSH2 0x100 EXP SWAP1 DIV PUSH1 0xFF AND ISZERO PUSH2 0x1442 JUMPI PUSH1 0x40 MLOAD PUSH32 0x8C379A000000000000000000000000000000000000000000000000000000000 DUP2 MSTORE PUSH1 0x4 ADD PUSH2 0x1439 SWAP1 PUSH2 0x4C56 JUMP JUMPDEST PUSH1 0x40 MLOAD DUP1 SWAP2 SUB SWAP1 REVERT JUMPDEST PUSH0 DUP5 GT PUSH2 0x1484 JUMPI PUSH1 0x40 MLOAD PUSH32 0x8C379A000000000000000000000000000000000000000000000000000000000 DUP2 MSTORE PUSH1 0x4 ADD PUSH2 0x147B SWAP1 PUSH2 0x531E JUMP JUMPDEST PUSH1 0x40 MLOAD DUP1 SWAP2 SUB SWAP1 REVERT JUMPDEST PUSH0 PUSH1 0x3 PUSH0 DUP8 DUP2 MSTORE PUSH1 0x20 ADD SWAP1 DUP2 MSTORE PUSH1 0x20 ADD PUSH0 KECCAK256 PUSH0 CALLER PUSH20 0xFFFFFFFFFFFFFFFFFFFFFFFFFFFFFFFFFFFFFFFF AND PUSH20 0xFFFFFFFFFFFFFFFFFFFFFFFFFFFFFFFFFFFFFFFF AND DUP2 MSTORE PUSH1 0x20 ADD SWAP1 DUP2 MSTORE PUSH1 0x20 ADD PUSH0 KECCAK256 SLOAD SWAP1 POP PUSH0 DUP6 DUP3 PUSH2 0x14E1 SWAP2 SWAP1 PUSH2 0x533C JUMP JUMPDEST SWAP1 POP PUSH0 DUP3 DUP4 PUSH2 0x14F0 SWAP2 SWAP1 PUSH2 0x4DC3 JUMP JUMPDEST DUP3 DUP4 PUSH2 0x14FC SWAP2 SWAP1 PUSH2 0x4DC3 JUMP JUMPDEST PUSH2 0x1506 SWAP2 SWAP1 PUSH2 0x4D90 JUMP JUMPDEST SWAP1 POP DUP1 PUSH0 DUP1 SLOAD SWAP1 PUSH2 0x100 EXP SWAP1 DIV PUSH20 0xFFFFFFFFFFFFFFFFFFFFFFFFFFFFFFFFFFFFFFFF AND PUSH20 0xFFFFFFFFFFFFFFFFFFFFFFFFFFFFFFFFFFFFFFFF AND PUSH4 0xDD62ED3E CALLER ADDRESS PUSH1 0x40 MLOAD DUP4 PUSH4 0xFFFFFFFF AND PUSH1 0xE0 SHL DUP2 MSTORE PUSH1 0x4 ADD PUSH2 0x1563 SWAP3 SWAP2 SWAP1 PUSH2 0x536F JUMP JUMPDEST PUSH1 0x20 PUSH1 0x40 MLOAD DUP1 DUP4 SUB DUP2 DUP7 GAS STATICCALL ISZERO DUP1 ISZERO PUSH2 0x157E JUMPI RETURNDATASIZE PUSH0 DUP1 RETURNDATACOPY RETURNDATASIZE PUSH0 REVERT JUMPDEST POP POP POP POP PUSH1 0x40 MLOAD RETURNDATASIZE PUSH1 0x1F NOT PUSH1 0x1F DUP3 ADD AND DUP3 ADD DUP1 PUSH1 0x40 MSTORE POP DUP2 ADD SWAP1 PUSH2 0x15A2 SWAP2 SWAP1 PUSH2 0x4E18 JUMP JUMPDEST LT ISZERO PUSH2 0x15E3 JUMPI PUSH1 0x40 MLOAD PUSH32 0x8C379A000000000000000000000000000000000000000000000000000000000 DUP2 MSTORE PUSH1 0x4 ADD PUSH2 0x15DA SWAP1 PUSH2 0x5406 JUMP JUMPDEST PUSH1 0x40 MLOAD DUP1 SWAP2 SUB SWAP1 REVERT JUMPDEST PUSH0 DUP1 PUSH0 SWAP1 SLOAD SWAP1 PUSH2 0x100 EXP SWAP1 DIV PUSH20 0xFFFFFFFFFFFFFFFFFFFFFFFFFFFFFFFFFFFFFFFF AND PUSH20 0xFFFFFFFFFFFFFFFFFFFFFFFFFFFFFFFFFFFFFFFF AND PUSH4 0x23B872DD CALLER ADDRESS DUP6 PUSH1 0x40 MLOAD DUP5 PUSH4 0xFFFFFFFF AND PUSH1 0xE0 SHL DUP2 MSTORE PUSH1 0x4 ADD PUSH2 0x1641 SWAP4 SWAP3 SWAP2 SWAP1 PUSH2 0x5424 JUMP JUMPDEST PUSH1 0x20 PUSH1 0x40 MLOAD DUP1 DUP4 SUB DUP2 PUSH0 DUP8 GAS CALL ISZERO DUP1 ISZERO PUSH2 0x165D JUMPI RETURNDATASIZE PUSH0 DUP1 RETURNDATACOPY RETURNDATASIZE PUSH0 REVERT JUMPDEST POP POP POP POP PUSH1 0x40 MLOAD RETURNDATASIZE PUSH1 0x1F NOT PUSH1 0x1F DUP3 ADD AND DUP3 ADD DUP1 PUSH1 0x40 MSTORE POP DUP2 ADD SWAP1 PUSH2 0x1681 SWAP2 SWAP1 PUSH2 0x4F22 JUMP JUMPDEST SWAP1 POP DUP1 PUSH2 0x16C3 JUMPI PUSH1 0x40 MLOAD PUSH32 0x8C379A000000000000000000000000000000000000000000000000000000000 DUP2 MSTORE PUSH1 0x4 ADD PUSH2 0x16BA SWAP1 PUSH2 0x4FBD JUMP JUMPDEST PUSH1 0x40 MLOAD DUP1 SWAP2 SUB SWAP1 REVERT JUMPDEST PUSH0 DUP5 SUB PUSH2 0x1815 JUMPI PUSH1 0x9 PUSH0 DUP11 DUP2 MSTORE PUSH1 0x20 ADD SWAP1 DUP2 MSTORE PUSH1 0x20 ADD PUSH0 KECCAK256 PUSH1 0x9 ADD CALLER SWAP1 DUP1 PUSH1 0x1 DUP2 SLOAD ADD DUP1 DUP3 SSTORE DUP1 SWAP2 POP POP PUSH1 0x1 SWAP1 SUB SWAP1 PUSH0 MSTORE PUSH1 0x20 PUSH0 KECCAK256 ADD PUSH0 SWAP1 SWAP2 SWAP1 SWAP2 SWAP1 SWAP2 PUSH2 0x100 EXP DUP2 SLOAD DUP2 PUSH20 0xFFFFFFFFFFFFFFFFFFFFFFFFFFFFFFFFFFFFFFFF MUL NOT AND SWAP1 DUP4 PUSH20 0xFFFFFFFFFFFFFFFFFFFFFFFFFFFFFFFFFFFFFFFF AND MUL OR SWAP1 SSTORE POP PUSH1 0x1 PUSH1 0x9 PUSH0 DUP12 DUP2 MSTORE PUSH1 0x20 ADD SWAP1 DUP2 MSTORE PUSH1 0x20 ADD PUSH0 KECCAK256 PUSH1 0x9 ADD DUP1 SLOAD SWAP1 POP PUSH2 0x1760 SWAP2 SWAP1 PUSH2 0x4D90 JUMP JUMPDEST PUSH1 0x4 PUSH0 DUP12 DUP2 MSTORE PUSH1 0x20 ADD SWAP1 DUP2 MSTORE PUSH1 0x20 ADD PUSH0 KECCAK256 PUSH0 CALLER PUSH20 0xFFFFFFFFFFFFFFFFFFFFFFFFFFFFFFFFFFFFFFFF AND PUSH20 0xFFFFFFFFFFFFFFFFFFFFFFFFFFFFFFFFFFFFFFFF AND DUP2 MSTORE PUSH1 0x20 ADD SWAP1 DUP2 MSTORE PUSH1 0x20 ADD PUSH0 KECCAK256 DUP2 SWAP1 SSTORE POP PUSH1 0x1 PUSH1 0x5 PUSH0 DUP12 DUP2 MSTORE PUSH1 0x20 ADD SWAP1 DUP2 MSTORE PUSH1 0x20 ADD PUSH0 KECCAK256 PUSH0 CALLER PUSH20 0xFFFFFFFFFFFFFFFFFFFFFFFFFFFFFFFFFFFFFFFF AND PUSH20 0xFFFFFFFFFFFFFFFFFFFFFFFFFFFFFFFFFFFFFFFF AND DUP2 MSTORE PUSH1 0x20 ADD SWAP1 DUP2 MSTORE PUSH1 0x20 ADD PUSH0 KECCAK256 PUSH0 PUSH2 0x100 EXP DUP2 SLOAD DUP2 PUSH1 0xFF MUL NOT AND SWAP1 DUP4 ISZERO ISZERO MUL OR SWAP1 SSTORE POP JUMPDEST DUP3 PUSH1 0x3 PUSH0 DUP12 DUP2 MSTORE PUSH1 0x20 ADD SWAP1 DUP2 MSTORE PUSH1 0x20 ADD PUSH0 KECCAK256 PUSH0 CALLER PUSH20 0xFFFFFFFFFFFFFFFFFFFFFFFFFFFFFFFFFFFFFFFF AND PUSH20 0xFFFFFFFFFFFFFFFFFFFFFFFFFFFFFFFFFFFFFFFF AND DUP2 MSTORE PUSH1 0x20 ADD SWAP1 DUP2 MSTORE PUSH1 0x20 ADD PUSH0 KECCAK256 DUP2 SWAP1 SSTORE POP DUP8 PUSH1 0x9 PUSH0 DUP12 DUP2 MSTORE PUSH1 0x20 ADD SWAP1 DUP2 MSTORE PUSH1 0x20 ADD PUSH0 KECCAK256 PUSH1 0x4 ADD PUSH0 DUP3 DUP3 SLOAD PUSH2 0x1889 SWAP2 SWAP1 PUSH2 0x533C JUMP JUMPDEST SWAP3 POP POP DUP2 SWAP1 SSTORE POP DUP2 PUSH1 0x9 PUSH0 DUP12 DUP2 MSTORE PUSH1 0x20 ADD SWAP1 DUP2 MSTORE PUSH1 0x20 ADD PUSH0 KECCAK256 PUSH1 0x8 ADD PUSH0 DUP3 DUP3 SLOAD PUSH2 0x18B3 SWAP2 SWAP1 PUSH2 0x533C JUMP JUMPDEST SWAP3 POP POP DUP2 SWAP1 SSTORE POP PUSH1 0x9 PUSH0 DUP11 DUP2 MSTORE PUSH1 0x20 ADD SWAP1 DUP2 MSTORE PUSH1 0x20 ADD PUSH0 KECCAK256 PUSH1 0x7 ADD PUSH1 0x14 SWAP1 SLOAD SWAP1 PUSH2 0x100 EXP SWAP1 DIV PUSH1 0xFF AND PUSH2 0x194F JUMPI PUSH1 0x9 PUSH0 DUP11 DUP2 MSTORE PUSH1 0x20 ADD SWAP1 DUP2 MSTORE PUSH1 0x20 ADD PUSH0 KECCAK256 POP PUSH1 0x9 PUSH0 DUP11 DUP2 MSTORE PUSH1 0x20 ADD SWAP1 DUP2 MSTORE PUSH1 0x20 ADD PUSH0 KECCAK256 PUSH1 0x5 ADD SLOAD PUSH1 0x9 PUSH0 DUP12 DUP2 MSTORE PUSH1 0x20 ADD SWAP1 DUP2 MSTORE PUSH1 0x20 ADD PUSH0 KECCAK256 PUSH1 0x4 ADD SLOAD GT DUP1 ISZERO PUSH2 0x193F JUMPI POP PUSH1 0x9 PUSH0 DUP11 DUP2 MSTORE PUSH1 0x20 ADD SWAP1 DUP2 MSTORE PUSH1 0x20 ADD PUSH0 KECCAK256 PUSH1 0x3 ADD SLOAD PUSH1 0x1 SLOAD LT ISZERO JUMPDEST ISZERO PUSH2 0x194E JUMPI PUSH2 0x194D DUP10 PUSH2 0x3A2E JUMP JUMPDEST JUMPDEST JUMPDEST POP POP POP POP POP POP POP POP POP JUMP JUMPDEST PUSH0 PUSH1 0x2 PUSH0 SWAP1 SLOAD SWAP1 PUSH2 0x100 EXP SWAP1 DIV PUSH1 0xFF AND PUSH2 0x19A9 JUMPI PUSH1 0x40 MLOAD PUSH32 0x8C379A000000000000000000000000000000000000000000000000000000000 DUP2 MSTORE PUSH1 0x4 ADD PUSH2 0x19A0 SWAP1 PUSH2 0x4A86 JUMP JUMPDEST PUSH1 0x40 MLOAD DUP1 SWAP2 SUB SWAP1 REVERT JUMPDEST PUSH1 0x8 PUSH0 CALLER PUSH20 0xFFFFFFFFFFFFFFFFFFFFFFFFFFFFFFFFFFFFFFFF AND PUSH20 0xFFFFFFFFFFFFFFFFFFFFFFFFFFFFFFFFFFFFFFFF AND DUP2 MSTORE PUSH1 0x20 ADD SWAP1 DUP2 MSTORE PUSH1 0x20 ADD PUSH0 KECCAK256 PUSH0 SWAP1 SLOAD SWAP1 PUSH2 0x100 EXP SWAP1 DIV PUSH1 0xFF AND PUSH2 0x1A32 JUMPI PUSH1 0x40 MLOAD PUSH32 0x8C379A000000000000000000000000000000000000000000000000000000000 DUP2 MSTORE PUSH1 0x4 ADD PUSH2 0x1A29 SWAP1 PUSH2 0x49A4 JUMP JUMPDEST PUSH1 0x40 MLOAD DUP1 SWAP2 SUB SWAP1 REVERT JUMPDEST PUSH0 PUSH20 0xFFFFFFFFFFFFFFFFFFFFFFFFFFFFFFFFFFFFFFFF AND DUP3 PUSH20 0xFFFFFFFFFFFFFFFFFFFFFFFFFFFFFFFFFFFFFFFF AND SUB PUSH2 0x1AA0 JUMPI PUSH1 0x40 MLOAD PUSH32 0x8C379A000000000000000000000000000000000000000000000000000000000 DUP2 MSTORE PUSH1 0x4 ADD PUSH2 0x1A97 SWAP1 PUSH2 0x54C9 JUMP JUMPDEST PUSH1 0x40 MLOAD DUP1 SWAP2 SUB SWAP1 REVERT JUMPDEST PUSH0 DUP8 DUP8 SWAP1 POP GT PUSH2 0x1AE5 JUMPI PUSH1 0x40 MLOAD PUSH32 0x8C379A000000000000000000000000000000000000000000000000000000000 DUP2 MSTORE PUSH1 0x4 ADD PUSH2 0x1ADC SWAP1 PUSH2 0x5557 JUMP JUMPDEST PUSH1 0x40 MLOAD DUP1 SWAP2 SUB SWAP1 REVERT JUMPDEST PUSH0 DUP6 DUP6 SWAP1 POP GT PUSH2 0x1B2A JUMPI PUSH1 0x40 MLOAD PUSH32 0x8C379A000000000000000000000000000000000000000000000000000000000 DUP2 MSTORE PUSH1 0x4 ADD PUSH2 0x1B21 SWAP1 PUSH2 0x55E5 JUMP JUMPDEST PUSH1 0x40 MLOAD DUP1 SWAP2 SUB SWAP1 REVERT JUMPDEST PUSH0 PUSH1 0xA SLOAD SWAP1 POP PUSH1 0xA PUSH0 DUP2 SLOAD DUP1 SWAP3 SWAP2 SWAP1 PUSH2 0x1B42 SWAP1 PUSH2 0x5603 JUMP JUMPDEST SWAP2 SWAP1 POP SSTORE POP PUSH0 PUSH1 0x9 PUSH0 DUP4 DUP2 MSTORE PUSH1 0x20 ADD SWAP1 DUP2 MSTORE PUSH1 0x20 ADD PUSH0 KECCAK256 SWAP1 POP DUP2 DUP2 PUSH0 ADD DUP2 SWAP1 SSTORE POP DUP9 DUP9 DUP3 PUSH1 0x1 ADD SWAP2 DUP3 PUSH2 0x1B76 SWAP3 SWAP2 SWAP1 PUSH2 0x5815 JUMP JUMPDEST POP DUP7 DUP7 DUP3 PUSH1 0x2 ADD SWAP2 DUP3 PUSH2 0x1B8A SWAP3 SWAP2 SWAP1 PUSH2 0x5815 JUMP JUMPDEST POP DUP5 DUP2 PUSH1 0x3 ADD DUP2 SWAP1 SSTORE POP DUP4 DUP2 PUSH1 0x6 ADD PUSH0 PUSH2 0x100 EXP DUP2 SLOAD DUP2 PUSH20 0xFFFFFFFFFFFFFFFFFFFFFFFFFFFFFFFFFFFFFFFF MUL NOT AND SWAP1 DUP4 PUSH20 0xFFFFFFFFFFFFFFFFFFFFFFFFFFFFFFFFFFFFFFFF AND MUL OR SWAP1 SSTORE POP CALLER DUP2 PUSH1 0x7 ADD PUSH0 PUSH2 0x100 EXP DUP2 SLOAD DUP2 PUSH20 0xFFFFFFFFFFFFFFFFFFFFFFFFFFFFFFFFFFFFFFFF MUL NOT AND SWAP1 DUP4 PUSH20 0xFFFFFFFFFFFFFFFFFFFFFFFFFFFFFFFFFFFFFFFF AND MUL OR SWAP1 SSTORE POP PUSH0 DUP6 GT ISZERO PUSH2 0x1CB6 JUMPI PUSH0 DUP2 PUSH1 0x7 ADD PUSH1 0x14 PUSH2 0x100 EXP DUP2 SLOAD DUP2 PUSH1 0xFF MUL NOT AND SWAP1 DUP4 ISZERO ISZERO MUL OR SWAP1 SSTORE POP PUSH1 0xB PUSH0 DUP2 SLOAD DUP1 SWAP3 SWAP2 SWAP1 PUSH2 0x1C4E SWAP1 PUSH2 0x5603 JUMP JUMPDEST SWAP2 SWAP1 POP SSTORE POP PUSH1 0xC DUP3 SWAP1 DUP1 PUSH1 0x1 DUP2 SLOAD ADD DUP1 DUP3 SSTORE DUP1 SWAP2 POP POP PUSH1 0x1 SWAP1 SUB SWAP1 PUSH0 MSTORE PUSH1 0x20 PUSH0 KECCAK256 ADD PUSH0 SWAP1 SWAP2 SWAP1 SWAP2 SWAP1 SWAP2 POP SSTORE PUSH1 0x1 PUSH1 0xC DUP1 SLOAD SWAP1 POP PUSH2 0x1C8B SWAP2 SWAP1 PUSH2 0x4D90 JUMP JUMPDEST PUSH1 0x6 PUSH0 DUP5 DUP2 MSTORE PUSH1 0x20 ADD SWAP1 DUP2 MSTORE PUSH1 0x20 ADD PUSH0 KECCAK256 DUP2 SWAP1 SSTORE POP PUSH2 0x1CA9 DUP3 PUSH2 0x4098 JUMP JUMPDEST DUP2 PUSH1 0x5 ADD DUP2 SWAP1 SSTORE POP PUSH2 0x1CFA JUMP JUMPDEST PUSH1 0x1 DUP2 PUSH1 0x7 ADD PUSH1 0x14 PUSH2 0x100 EXP DUP2 SLOAD DUP2 PUSH1 0xFF MUL NOT AND SWAP1 DUP4 ISZERO ISZERO MUL OR SWAP1 SSTORE POP PUSH1 0xE DUP3 SWAP1 DUP1 PUSH1 0x1 DUP2 SLOAD ADD DUP1 DUP3 SSTORE DUP1 SWAP2 POP POP PUSH1 0x1 SWAP1 SUB SWAP1 PUSH0 MSTORE PUSH1 0x20 PUSH0 KECCAK256 ADD PUSH0 SWAP1 SWAP2 SWAP1 SWAP2 SWAP1 SWAP2 POP SSTORE JUMPDEST PUSH0 DUP2 PUSH1 0x4 ADD DUP2 SWAP1 SSTORE POP PUSH0 DUP2 PUSH1 0x8 ADD DUP2 SWAP1 SSTORE POP PUSH0 DUP2 PUSH1 0x7 ADD PUSH1 0x15 PUSH2 0x100 EXP DUP2 SLOAD DUP2 PUSH1 0xFF MUL NOT AND SWAP1 DUP4 ISZERO ISZERO MUL OR SWAP1 SSTORE POP PUSH0 DUP2 PUSH1 0x7 ADD PUSH1 0x16 PUSH2 0x100 EXP DUP2 SLOAD DUP2 PUSH1 0xFF MUL NOT AND SWAP1 DUP4 ISZERO ISZERO MUL OR SWAP1 SSTORE POP DUP2 SWAP3 POP POP POP SWAP7 SWAP6 POP POP POP POP POP POP JUMP JUMPDEST PUSH32 0x0 PUSH20 0xFFFFFFFFFFFFFFFFFFFFFFFFFFFFFFFFFFFFFFFF AND CALLER PUSH20 0xFFFFFFFFFFFFFFFFFFFFFFFFFFFFFFFFFFFFFFFF AND EQ PUSH2 0x1DE1 JUMPI PUSH1 0x40 MLOAD PUSH32 0x8C379A000000000000000000000000000000000000000000000000000000000 DUP2 MSTORE PUSH1 0x4 ADD PUSH2 0x1DD8 SWAP1 PUSH2 0x5952 JUMP JUMPDEST PUSH1 0x40 MLOAD DUP1 SWAP2 SUB SWAP1 REVERT JUMPDEST PUSH1 0x2 PUSH0 SWAP1 SLOAD SWAP1 PUSH2 0x100 EXP SWAP1 DIV PUSH1 0xFF AND ISZERO PUSH2 0x1E30 JUMPI PUSH1 0x40 MLOAD PUSH32 0x8C379A000000000000000000000000000000000000000000000000000000000 DUP2 MSTORE PUSH1 0x4 ADD PUSH2 0x1E27 SWAP1 PUSH2 0x59E0 JUMP JUMPDEST PUSH1 0x40 MLOAD DUP1 SWAP2 SUB SWAP1 REVERT JUMPDEST PUSH0 CALLVALUE GT PUSH2 0x1E72 JUMPI PUSH1 0x40 MLOAD PUSH32 0x8C379A000000000000000000000000000000000000000000000000000000000 DUP2 MSTORE PUSH1 0x4 ADD PUSH2 0x1E69 SWAP1 PUSH2 0x5A6E JUMP JUMPDEST PUSH1 0x40 MLOAD DUP1 SWAP2 SUB SWAP1 REVERT JUMPDEST CALLVALUE PUSH1 0x1 DUP2 SWAP1 SSTORE POP PUSH1 0x1 PUSH1 0x2 PUSH0 PUSH2 0x100 EXP DUP2 SLOAD DUP2 PUSH1 0xFF MUL NOT AND SWAP1 DUP4 ISZERO ISZERO MUL OR SWAP1 SSTORE POP JUMP JUMPDEST PUSH32 0x0 DUP2 JUMP JUMPDEST PUSH2 0x1EC1 PUSH2 0x414C JUMP JUMPDEST PUSH1 0x2 PUSH0 SWAP1 SLOAD SWAP1 PUSH2 0x100 EXP SWAP1 DIV PUSH1 0xFF AND PUSH2 0x1F0F JUMPI PUSH1 0x40 MLOAD PUSH32 0x8C379A000000000000000000000000000000000000000000000000000000000 DUP2 MSTORE PUSH1 0x4 ADD PUSH2 0x1F06 SWAP1 PUSH2 0x4A86 JUMP JUMPDEST PUSH1 0x40 MLOAD DUP1 SWAP2 SUB SWAP1 REVERT JUMPDEST DUP2 PUSH1 0xA SLOAD DUP2 LT PUSH2 0x1F54 JUMPI PUSH1 0x40 MLOAD PUSH32 0x8C379A000000000000000000000000000000000000000000000000000000000 DUP2 MSTORE PUSH1 0x4 ADD PUSH2 0x1F4B SWAP1 PUSH2 0x4B14 JUMP JUMPDEST PUSH1 0x40 MLOAD DUP1 SWAP2 SUB SWAP1 REVERT JUMPDEST PUSH2 0x1F5C PUSH2 0x414C JUMP JUMPDEST DUP4 DUP2 PUSH0 ADD DUP2 DUP2 MSTORE POP POP PUSH1 0x9 PUSH0 DUP6 DUP2 MSTORE PUSH1 0x20 ADD SWAP1 DUP2 MSTORE PUSH1 0x20 ADD PUSH0 KECCAK256 PUSH1 0x3 ADD SLOAD DUP2 PUSH1 0x60 ADD DUP2 DUP2 MSTORE POP POP PUSH1 0x9 PUSH0 DUP6 DUP2 MSTORE PUSH1 0x20 ADD SWAP1 DUP2 MSTORE PUSH1 0x20 ADD PUSH0 KECCAK256 PUSH1 0x6 ADD PUSH0 SWAP1 SLOAD SWAP1 PUSH2 0x100 EXP SWAP1 DIV PUSH20 0xFFFFFFFFFFFFFFFFFFFFFFFFFFFFFFFFFFFFFFFF AND DUP2 PUSH1 0xC0 ADD SWAP1 PUSH20 0xFFFFFFFFFFFFFFFFFFFFFFFFFFFFFFFFFFFFFFFF AND SWAP1 DUP2 PUSH20 0xFFFFFFFFFFFFFFFFFFFFFFFFFFFFFFFFFFFFFFFF AND DUP2 MSTORE POP POP PUSH1 0x9 PUSH0 DUP6 DUP2 MSTORE PUSH1 0x20 ADD SWAP1 DUP2 MSTORE PUSH1 0x20 ADD PUSH0 KECCAK256 PUSH1 0x7 ADD PUSH0 SWAP1 SLOAD SWAP1 PUSH2 0x100 EXP SWAP1 DIV PUSH20 0xFFFFFFFFFFFFFFFFFFFFFFFFFFFFFFFFFFFFFFFF AND DUP2 PUSH1 0xE0 ADD SWAP1 PUSH20 0xFFFFFFFFFFFFFFFFFFFFFFFFFFFFFFFFFFFFFFFF AND SWAP1 DUP2 PUSH20 0xFFFFFFFFFFFFFFFFFFFFFFFFFFFFFFFFFFFFFFFF AND DUP2 MSTORE POP POP PUSH1 0x9 PUSH0 DUP6 DUP2 MSTORE PUSH1 0x20 ADD SWAP1 DUP2 MSTORE PUSH1 0x20 ADD PUSH0 KECCAK256 PUSH1 0x2 ADD DUP1 SLOAD PUSH2 0x2078 SWAP1 PUSH2 0x4904 JUMP JUMPDEST DUP1 PUSH1 0x1F ADD PUSH1 0x20 DUP1 SWAP2 DIV MUL PUSH1 0x20 ADD PUSH1 0x40 MLOAD SWAP1 DUP2 ADD PUSH1 0x40 MSTORE DUP1 SWAP3 SWAP2 SWAP1 DUP2 DUP2 MSTORE PUSH1 0x20 ADD DUP3 DUP1 SLOAD PUSH2 0x20A4 SWAP1 PUSH2 0x4904 JUMP JUMPDEST DUP1 ISZERO PUSH2 0x20EF JUMPI DUP1 PUSH1 0x1F LT PUSH2 0x20C6 JUMPI PUSH2 0x100 DUP1 DUP4 SLOAD DIV MUL DUP4 MSTORE SWAP2 PUSH1 0x20 ADD SWAP2 PUSH2 0x20EF JUMP JUMPDEST DUP3 ADD SWAP2 SWAP1 PUSH0 MSTORE PUSH1 0x20 PUSH0 KECCAK256 SWAP1 JUMPDEST DUP2 SLOAD DUP2 MSTORE SWAP1 PUSH1 0x1 ADD SWAP1 PUSH1 0x20 ADD DUP1 DUP4 GT PUSH2 0x20D2 JUMPI DUP3 SWAP1 SUB PUSH1 0x1F AND DUP3 ADD SWAP2 JUMPDEST POP POP POP POP POP DUP2 PUSH1 0x40 ADD DUP2 SWAP1 MSTORE POP PUSH1 0x9 PUSH0 DUP6 DUP2 MSTORE PUSH1 0x20 ADD SWAP1 DUP2 MSTORE PUSH1 0x20 ADD PUSH0 KECCAK256 PUSH1 0x7 ADD PUSH1 0x15 SWAP1 SLOAD SWAP1 PUSH2 0x100 EXP SWAP1 DIV PUSH1 0xFF AND DUP2 PUSH2 0x120 ADD SWAP1 ISZERO ISZERO SWAP1 DUP2 ISZERO ISZERO DUP2 MSTORE POP POP PUSH1 0x9 PUSH0 DUP6 DUP2 MSTORE PUSH1 0x20 ADD SWAP1 DUP2 MSTORE PUSH1 0x20 ADD PUSH0 KECCAK256 PUSH1 0x7 ADD PUSH1 0x16 SWAP1 SLOAD SWAP1 PUSH2 0x100 EXP SWAP1 DIV PUSH1 0xFF AND DUP2 PUSH2 0x140 ADD SWAP1 ISZERO ISZERO SWAP1 DUP2 ISZERO ISZERO DUP2 MSTORE POP POP PUSH1 0x9 PUSH0 DUP6 DUP2 MSTORE PUSH1 0x20 ADD SWAP1 DUP2 MSTORE PUSH1 0x20 ADD PUSH0 KECCAK256 PUSH1 0x7 ADD PUSH1 0x14 SWAP1 SLOAD SWAP1 PUSH2 0x100 EXP SWAP1 DIV PUSH1 0xFF AND DUP2 PUSH2 0x100 ADD SWAP1 ISZERO ISZERO SWAP1 DUP2 ISZERO ISZERO DUP2 MSTORE POP POP PUSH1 0x9 PUSH0 DUP6 DUP2 MSTORE PUSH1 0x20 ADD SWAP1 DUP2 MSTORE PUSH1 0x20 ADD PUSH0 KECCAK256 PUSH1 0x1 ADD DUP1 SLOAD PUSH2 0x21B1 SWAP1 PUSH2 0x4904 JUMP JUMPDEST DUP1 PUSH1 0x1F ADD PUSH1 0x20 DUP1 SWAP2 DIV MUL PUSH1 0x20 ADD PUSH1 0x40 MLOAD SWAP1 DUP2 ADD PUSH1 0x40 MSTORE DUP1 SWAP3 SWAP2 SWAP1 DUP2 DUP2 MSTORE PUSH1 0x20 ADD DUP3 DUP1 SLOAD PUSH2 0x21DD SWAP1 PUSH2 0x4904 JUMP JUMPDEST DUP1 ISZERO PUSH2 0x2228 JUMPI DUP1 PUSH1 0x1F LT PUSH2 0x21FF JUMPI PUSH2 0x100 DUP1 DUP4 SLOAD DIV MUL DUP4 MSTORE SWAP2 PUSH1 0x20 ADD SWAP2 PUSH2 0x2228 JUMP JUMPDEST DUP3 ADD SWAP2 SWAP1 PUSH0 MSTORE PUSH1 0x20 PUSH0 KECCAK256 SWAP1 JUMPDEST DUP2 SLOAD DUP2 MSTORE SWAP1 PUSH1 0x1 ADD SWAP1 PUSH1 0x20 ADD DUP1 DUP4 GT PUSH2 0x220B JUMPI DUP3 SWAP1 SUB PUSH1 0x1F AND DUP3 ADD SWAP2 JUMPDEST POP POP POP POP POP DUP2 PUSH1 0x20 ADD DUP2 SWAP1 MSTORE POP PUSH1 0x9 PUSH0 DUP6 DUP2 MSTORE PUSH1 0x20 ADD SWAP1 DUP2 MSTORE PUSH1 0x20 ADD PUSH0 KECCAK256 PUSH1 0x5 ADD SLOAD DUP2 PUSH1 0xA0 ADD DUP2 DUP2 MSTORE POP POP DUP1 SWAP3 POP POP POP SWAP2 SWAP1 POP JUMP JUMPDEST PUSH0 DUP1 SLOAD SWAP1 PUSH2 0x100 EXP SWAP1 DIV PUSH20 0xFFFFFFFFFFFFFFFFFFFFFFFFFFFFFFFFFFFFFFFF AND DUP2 JUMP JUMPDEST PUSH32 0x0 PUSH20 0xFFFFFFFFFFFFFFFFFFFFFFFFFFFFFFFFFFFFFFFF AND CALLER PUSH20 0xFFFFFFFFFFFFFFFFFFFFFFFFFFFFFFFFFFFFFFFF AND EQ PUSH2 0x230E JUMPI PUSH1 0x40 MLOAD PUSH32 0x8C379A000000000000000000000000000000000000000000000000000000000 DUP2 MSTORE PUSH1 0x4 ADD PUSH2 0x2305 SWAP1 PUSH2 0x5952 JUMP JUMPDEST PUSH1 0x40 MLOAD DUP1 SWAP2 SUB SWAP1 REVERT JUMPDEST PUSH1 0x2 PUSH0 SWAP1 SLOAD SWAP1 PUSH2 0x100 EXP SWAP1 DIV PUSH1 0xFF AND PUSH2 0x235C JUMPI PUSH1 0x40 MLOAD PUSH32 0x8C379A000000000000000000000000000000000000000000000000000000000 DUP2 MSTORE PUSH1 0x4 ADD PUSH2 0x2353 SWAP1 PUSH2 0x4A86 JUMP JUMPDEST PUSH1 0x40 MLOAD DUP1 SWAP2 SUB SWAP1 REVERT JUMPDEST PUSH0 JUMPDEST PUSH1 0xC DUP1 SLOAD SWAP1 POP DUP2 LT ISZERO PUSH2 0x277E JUMPI PUSH0 PUSH1 0xC DUP3 DUP2 SLOAD DUP2 LT PUSH2 0x2380 JUMPI PUSH2 0x237F PUSH2 0x4FDB JUMP JUMPDEST JUMPDEST SWAP1 PUSH0 MSTORE PUSH1 0x20 PUSH0 KECCAK256 ADD SLOAD SWAP1 POP PUSH1 0x1 PUSH1 0x9 PUSH0 DUP4 DUP2 MSTORE PUSH1 0x20 ADD SWAP1 DUP2 MSTORE PUSH1 0x20 ADD PUSH0 KECCAK256 PUSH1 0x7 ADD PUSH1 0x16 PUSH2 0x100 EXP DUP2 SLOAD DUP2 PUSH1 0xFF MUL NOT AND SWAP1 DUP4 ISZERO ISZERO MUL OR SWAP1 SSTORE POP PUSH1 0xB PUSH0 DUP2 SLOAD DUP1 SWAP3 SWAP2 SWAP1 PUSH2 0x23CA SWAP1 PUSH2 0x49EF JUMP JUMPDEST SWAP2 SWAP1 POP SSTORE POP PUSH0 JUMPDEST PUSH1 0x9 PUSH0 DUP4 DUP2 MSTORE PUSH1 0x20 ADD SWAP1 DUP2 MSTORE PUSH1 0x20 ADD PUSH0 KECCAK256 PUSH1 0x9 ADD DUP1 SLOAD SWAP1 POP DUP2 LT ISZERO PUSH2 0x271E JUMPI PUSH0 PUSH1 0x9 PUSH0 DUP5 DUP2 MSTORE PUSH1 0x20 ADD SWAP1 DUP2 MSTORE PUSH1 0x20 ADD PUSH0 KECCAK256 PUSH1 0x9 ADD DUP3 DUP2 SLOAD DUP2 LT PUSH2 0x2417 JUMPI PUSH2 0x2416 PUSH2 0x4FDB JUMP JUMPDEST JUMPDEST SWAP1 PUSH0 MSTORE PUSH1 0x20 PUSH0 KECCAK256 ADD PUSH0 SWAP1 SLOAD SWAP1 PUSH2 0x100 EXP SWAP1 DIV PUSH20 0xFFFFFFFFFFFFFFFFFFFFFFFFFFFFFFFFFFFFFFFF AND SWAP1 POP PUSH0 PUSH1 0x3 PUSH0 DUP6 DUP2 MSTORE PUSH1 0x20 ADD SWAP1 DUP2 MSTORE PUSH1 0x20 ADD PUSH0 KECCAK256 PUSH0 DUP4 PUSH20 0xFFFFFFFFFFFFFFFFFFFFFFFFFFFFFFFFFFFFFFFF AND PUSH20 0xFFFFFFFFFFFFFFFFFFFFFFFFFFFFFFFFFFFFFFFF AND DUP2 MSTORE PUSH1 0x20 ADD SWAP1 DUP2 MSTORE PUSH1 0x20 ADD PUSH0 KECCAK256 SLOAD SWAP1 POP PUSH0 DUP2 GT ISZERO PUSH2 0x2602 JUMPI PUSH0 DUP2 DUP3 PUSH2 0x24A6 SWAP2 SWAP1 PUSH2 0x4DC3 JUMP JUMPDEST SWAP1 POP PUSH0 PUSH1 0x3 PUSH0 DUP8 DUP2 MSTORE PUSH1 0x20 ADD SWAP1 DUP2 MSTORE PUSH1 0x20 ADD PUSH0 KECCAK256 PUSH0 DUP6 PUSH20 0xFFFFFFFFFFFFFFFFFFFFFFFFFFFFFFFFFFFFFFFF AND PUSH20 0xFFFFFFFFFFFFFFFFFFFFFFFFFFFFFFFFFFFFFFFF AND DUP2 MSTORE PUSH1 0x20 ADD SWAP1 DUP2 MSTORE PUSH1 0x20 ADD PUSH0 KECCAK256 DUP2 SWAP1 SSTORE POP PUSH0 PUSH1 0x5 PUSH0 DUP8 DUP2 MSTORE PUSH1 0x20 ADD SWAP1 DUP2 MSTORE PUSH1 0x20 ADD PUSH0 KECCAK256 PUSH0 DUP6 PUSH20 0xFFFFFFFFFFFFFFFFFFFFFFFFFFFFFFFFFFFFFFFF AND PUSH20 0xFFFFFFFFFFFFFFFFFFFFFFFFFFFFFFFFFFFFFFFF AND DUP2 MSTORE PUSH1 0x20 ADD SWAP1 DUP2 MSTORE PUSH1 0x20 ADD PUSH0 KECCAK256 PUSH0 PUSH2 0x100 EXP DUP2 SLOAD DUP2 PUSH1 0xFF MUL NOT AND SWAP1 DUP4 ISZERO ISZERO MUL OR SWAP1 SSTORE POP PUSH0 DUP2 GT ISZERO PUSH2 0x2600 JUMPI PUSH0 DUP1 SLOAD SWAP1 PUSH2 0x100 EXP SWAP1 DIV PUSH20 0xFFFFFFFFFFFFFFFFFFFFFFFFFFFFFFFFFFFFFFFF AND PUSH20 0xFFFFFFFFFFFFFFFFFFFFFFFFFFFFFFFFFFFFFFFF AND PUSH4 0xA9059CBB DUP5 DUP4 PUSH1 0x40 MLOAD DUP4 PUSH4 0xFFFFFFFF AND PUSH1 0xE0 SHL DUP2 MSTORE PUSH1 0x4 ADD PUSH2 0x25BE SWAP3 SWAP2 SWAP1 PUSH2 0x4ED1 JUMP JUMPDEST PUSH1 0x20 PUSH1 0x40 MLOAD DUP1 DUP4 SUB DUP2 PUSH0 DUP8 GAS CALL ISZERO DUP1 ISZERO PUSH2 0x25DA JUMPI RETURNDATASIZE PUSH0 DUP1 RETURNDATACOPY RETURNDATASIZE PUSH0 REVERT JUMPDEST POP POP POP POP PUSH1 0x40 MLOAD RETURNDATASIZE PUSH1 0x1F NOT PUSH1 0x1F DUP3 ADD AND DUP3 ADD DUP1 PUSH1 0x40 MSTORE POP DUP2 ADD SWAP1 PUSH2 0x25FE SWAP2 SWAP1 PUSH2 0x4F22 JUMP JUMPDEST POP JUMPDEST POP JUMPDEST PUSH1 0x3 PUSH0 DUP6 DUP2 MSTORE PUSH1 0x20 ADD SWAP1 DUP2 MSTORE PUSH1 0x20 ADD PUSH0 KECCAK256 PUSH0 DUP4 PUSH20 0xFFFFFFFFFFFFFFFFFFFFFFFFFFFFFFFFFFFFFFFF AND PUSH20 0xFFFFFFFFFFFFFFFFFFFFFFFFFFFFFFFFFFFFFFFF AND DUP2 MSTORE PUSH1 0x20 ADD SWAP1 DUP2 MSTORE PUSH1 0x20 ADD PUSH0 KECCAK256 PUSH0 SWAP1 SSTORE PUSH1 0x4 PUSH0 DUP6 DUP2 MSTORE PUSH1 0x20 ADD SWAP1 DUP2 MSTORE PUSH1 0x20 ADD PUSH0 KECCAK256 PUSH0 DUP4 PUSH20 0xFFFFFFFFFFFFFFFFFFFFFFFFFFFFFFFFFFFFFFFF AND PUSH20 0xFFFFFFFFFFFFFFFFFFFFFFFFFFFFFFFFFFFFFFFF AND DUP2 MSTORE PUSH1 0x20 ADD SWAP1 DUP2 MSTORE PUSH1 0x20 ADD PUSH0 KECCAK256 PUSH0 SWAP1 SSTORE PUSH1 0x5 PUSH0 DUP6 DUP2 MSTORE PUSH1 0x20 ADD SWAP1 DUP2 MSTORE PUSH1 0x20 ADD PUSH0 KECCAK256 PUSH0 DUP4 PUSH20 0xFFFFFFFFFFFFFFFFFFFFFFFFFFFFFFFFFFFFFFFF AND PUSH20 0xFFFFFFFFFFFFFFFFFFFFFFFFFFFFFFFFFFFFFFFF AND DUP2 MSTORE PUSH1 0x20 ADD SWAP1 DUP2 MSTORE PUSH1 0x20 ADD PUSH0 KECCAK256 PUSH0 PUSH2 0x100 EXP DUP2 SLOAD SWAP1 PUSH1 0xFF MUL NOT AND SWAP1 SSTORE PUSH1 0x6 PUSH0 DUP6 DUP2 MSTORE PUSH1 0x20 ADD SWAP1 DUP2 MSTORE PUSH1 0x20 ADD PUSH0 KECCAK256 PUSH0 SWAP1 SSTORE POP POP DUP1 DUP1 PUSH1 0x1 ADD SWAP2 POP POP PUSH2 0x23D1 JUMP JUMPDEST POP PUSH0 PUSH1 0x9 PUSH0 DUP4 DUP2 MSTORE PUSH1 0x20 ADD SWAP1 DUP2 MSTORE PUSH1 0x20 ADD PUSH0 KECCAK256 PUSH1 0x4 ADD DUP2 SWAP1 SSTORE POP PUSH0 PUSH1 0x9 PUSH0 DUP4 DUP2 MSTORE PUSH1 0x20 ADD SWAP1 DUP2 MSTORE PUSH1 0x20 ADD PUSH0 KECCAK256 PUSH1 0x8 ADD DUP2 SWAP1 SSTORE POP PUSH1 0x9 PUSH0 DUP3 DUP2 MSTORE PUSH1 0x20 ADD SWAP1 DUP2 MSTORE PUSH1 0x20 ADD PUSH0 KECCAK256 PUSH1 0x9 ADD PUSH0 PUSH2 0x2770 SWAP2 SWAP1 PUSH2 0x41DC JUMP JUMPDEST POP DUP1 DUP1 PUSH1 0x1 ADD SWAP2 POP POP PUSH2 0x235E JUMP JUMPDEST POP PUSH0 JUMPDEST PUSH1 0xE DUP1 SLOAD SWAP1 POP DUP2 LT ISZERO PUSH2 0x2CAE JUMPI PUSH0 PUSH1 0xE DUP3 DUP2 SLOAD DUP2 LT PUSH2 0x27A3 JUMPI PUSH2 0x27A2 PUSH2 0x4FDB JUMP JUMPDEST JUMPDEST SWAP1 PUSH0 MSTORE PUSH1 0x20 PUSH0 KECCAK256 ADD SLOAD SWAP1 POP PUSH0 PUSH1 0x9 PUSH0 DUP4 DUP2 MSTORE PUSH1 0x20 ADD SWAP1 DUP2 MSTORE PUSH1 0x20 ADD PUSH0 KECCAK256 SWAP1 POP DUP1 PUSH1 0x7 ADD PUSH1 0x16 SWAP1 SLOAD SWAP1 PUSH2 0x100 EXP SWAP1 DIV PUSH1 0xFF AND ISZERO DUP1 ISZERO PUSH2 0x27F0 JUMPI POP DUP1 PUSH1 0x7 ADD PUSH1 0x15 SWAP1 SLOAD SWAP1 PUSH2 0x100 EXP SWAP1 DIV PUSH1 0xFF AND ISZERO JUMPDEST ISZERO PUSH2 0x2C9F JUMPI PUSH0 PUSH20 0xFFFFFFFFFFFFFFFFFFFFFFFFFFFFFFFFFFFFFFFF AND DUP2 PUSH1 0x6 ADD PUSH0 SWAP1 SLOAD SWAP1 PUSH2 0x100 EXP SWAP1 DIV PUSH20 0xFFFFFFFFFFFFFFFFFFFFFFFFFFFFFFFFFFFFFFFF AND PUSH20 0xFFFFFFFFFFFFFFFFFFFFFFFFFFFFFFFFFFFFFFFF AND EQ PUSH2 0x2961 JUMPI PUSH0 DUP2 PUSH1 0x6 ADD PUSH0 SWAP1 SLOAD SWAP1 PUSH2 0x100 EXP SWAP1 DIV PUSH20 0xFFFFFFFFFFFFFFFFFFFFFFFFFFFFFFFFFFFFFFFF AND PUSH20 0xFFFFFFFFFFFFFFFFFFFFFFFFFFFFFFFFFFFFFFFF AND PUSH0 PUSH3 0x186A0 SWAP1 PUSH4 0x986CC311 PUSH1 0xE0 SHL DUP7 DUP7 PUSH1 0x4 ADD SLOAD DUP8 PUSH1 0x8 ADD SLOAD PUSH1 0x40 MLOAD PUSH1 0x24 ADD PUSH2 0x28B1 SWAP4 SWAP3 SWAP2 SWAP1 PUSH2 0x5A8C JUMP JUMPDEST PUSH1 0x40 MLOAD PUSH1 0x20 DUP2 DUP4 SUB SUB DUP2 MSTORE SWAP1 PUSH1 0x40 MSTORE SWAP1 PUSH28 0xFFFFFFFFFFFFFFFFFFFFFFFFFFFFFFFFFFFFFFFFFFFFFFFFFFFFFFFF NOT AND PUSH1 0x20 DUP3 ADD DUP1 MLOAD PUSH28 0xFFFFFFFFFFFFFFFFFFFFFFFFFFFFFFFFFFFFFFFFFFFFFFFFFFFFFFFF DUP4 DUP2 DUP4 AND OR DUP4 MSTORE POP POP POP POP PUSH1 0x40 MLOAD PUSH2 0x291B SWAP2 SWAP1 PUSH2 0x5AFB JUMP JUMPDEST PUSH0 PUSH1 0x40 MLOAD DUP1 DUP4 SUB DUP2 DUP6 DUP9 DUP9 CALL SWAP4 POP POP POP POP RETURNDATASIZE DUP1 PUSH0 DUP2 EQ PUSH2 0x2956 JUMPI PUSH1 0x40 MLOAD SWAP2 POP PUSH1 0x1F NOT PUSH1 0x3F RETURNDATASIZE ADD AND DUP3 ADD PUSH1 0x40 MSTORE RETURNDATASIZE DUP3 MSTORE RETURNDATASIZE PUSH0 PUSH1 0x20 DUP5 ADD RETURNDATACOPY PUSH2 0x295B JUMP JUMPDEST PUSH1 0x60 SWAP2 POP JUMPDEST POP POP SWAP1 POP POP JUMPDEST PUSH0 JUMPDEST DUP2 PUSH1 0x9 ADD DUP1 SLOAD SWAP1 POP DUP2 LT ISZERO PUSH2 0x2C7C JUMPI PUSH0 DUP3 PUSH1 0x9 ADD DUP3 DUP2 SLOAD DUP2 LT PUSH2 0x2989 JUMPI PUSH2 0x2988 PUSH2 0x4FDB JUMP JUMPDEST JUMPDEST SWAP1 PUSH0 MSTORE PUSH1 0x20 PUSH0 KECCAK256 ADD PUSH0 SWAP1 SLOAD SWAP1 PUSH2 0x100 EXP SWAP1 DIV PUSH20 0xFFFFFFFFFFFFFFFFFFFFFFFFFFFFFFFFFFFFFFFF AND SWAP1 POP PUSH0 PUSH1 0x3 PUSH0 DUP7 DUP2 MSTORE PUSH1 0x20 ADD SWAP1 DUP2 MSTORE PUSH1 0x20 ADD PUSH0 KECCAK256 PUSH0 DUP4 PUSH20 0xFFFFFFFFFFFFFFFFFFFFFFFFFFFFFFFFFFFFFFFF AND PUSH20 0xFFFFFFFFFFFFFFFFFFFFFFFFFFFFFFFFFFFFFFFF AND DUP2 MSTORE PUSH1 0x20 ADD SWAP1 DUP2 MSTORE PUSH1 0x20 ADD PUSH0 KECCAK256 SLOAD SWAP1 POP PUSH0 DUP2 GT ISZERO PUSH2 0x2B74 JUMPI PUSH0 DUP2 DUP3 PUSH2 0x2A18 SWAP2 SWAP1 PUSH2 0x4DC3 JUMP JUMPDEST SWAP1 POP PUSH0 PUSH1 0x3 PUSH0 DUP9 DUP2 MSTORE PUSH1 0x20 ADD SWAP1 DUP2 MSTORE PUSH1 0x20 ADD PUSH0 KECCAK256 PUSH0 DUP6 PUSH20 0xFFFFFFFFFFFFFFFFFFFFFFFFFFFFFFFFFFFFFFFF AND PUSH20 0xFFFFFFFFFFFFFFFFFFFFFFFFFFFFFFFFFFFFFFFF AND DUP2 MSTORE PUSH1 0x20 ADD SWAP1 DUP2 MSTORE PUSH1 0x20 ADD PUSH0 KECCAK256 DUP2 SWAP1 SSTORE POP PUSH0 PUSH1 0x5 PUSH0 DUP9 DUP2 MSTORE PUSH1 0x20 ADD SWAP1 DUP2 MSTORE PUSH1 0x20 ADD PUSH0 KECCAK256 PUSH0 DUP6 PUSH20 0xFFFFFFFFFFFFFFFFFFFFFFFFFFFFFFFFFFFFFFFF AND PUSH20 0xFFFFFFFFFFFFFFFFFFFFFFFFFFFFFFFFFFFFFFFF AND DUP2 MSTORE PUSH1 0x20 ADD SWAP1 DUP2 MSTORE PUSH1 0x20 ADD PUSH0 KECCAK256 PUSH0 PUSH2 0x100 EXP DUP2 SLOAD DUP2 PUSH1 0xFF MUL NOT AND SWAP1 DUP4 ISZERO ISZERO MUL OR SWAP1 SSTORE POP PUSH0 DUP2 GT ISZERO PUSH2 0x2B72 JUMPI PUSH0 DUP1 SLOAD SWAP1 PUSH2 0x100 EXP SWAP1 DIV PUSH20 0xFFFFFFFFFFFFFFFFFFFFFFFFFFFFFFFFFFFFFFFF AND PUSH20 0xFFFFFFFFFFFFFFFFFFFFFFFFFFFFFFFFFFFFFFFF AND PUSH4 0xA9059CBB DUP5 DUP4 PUSH1 0x40 MLOAD DUP4 PUSH4 0xFFFFFFFF AND PUSH1 0xE0 SHL DUP2 MSTORE PUSH1 0x4 ADD PUSH2 0x2B30 SWAP3 SWAP2 SWAP1 PUSH2 0x4ED1 JUMP JUMPDEST PUSH1 0x20 PUSH1 0x40 MLOAD DUP1 DUP4 SUB DUP2 PUSH0 DUP8 GAS CALL ISZERO DUP1 ISZERO PUSH2 0x2B4C JUMPI RETURNDATASIZE PUSH0 DUP1 RETURNDATACOPY RETURNDATASIZE PUSH0 REVERT JUMPDEST POP POP POP POP PUSH1 0x40 MLOAD RETURNDATASIZE PUSH1 0x1F NOT PUSH1 0x1F DUP3 ADD AND DUP3 ADD DUP1 PUSH1 0x40 MSTORE POP DUP2 ADD SWAP1 PUSH2 0x2B70 SWAP2 SWAP1 PUSH2 0x4F22 JUMP JUMPDEST POP JUMPDEST POP JUMPDEST PUSH1 0x3 PUSH0 DUP7 DUP2 MSTORE PUSH1 0x20 ADD SWAP1 DUP2 MSTORE PUSH1 0x20 ADD PUSH0 KECCAK256 PUSH0 DUP4 PUSH20 0xFFFFFFFFFFFFFFFFFFFFFFFFFFFFFFFFFFFFFFFF AND PUSH20 0xFFFFFFFFFFFFFFFFFFFFFFFFFFFFFFFFFFFFFFFF AND DUP2 MSTORE PUSH1 0x20 ADD SWAP1 DUP2 MSTORE PUSH1 0x20 ADD PUSH0 KECCAK256 PUSH0 SWAP1 SSTORE PUSH1 0x4 PUSH0 DUP7 DUP2 MSTORE PUSH1 0x20 ADD SWAP1 DUP2 MSTORE PUSH1 0x20 ADD PUSH0 KECCAK256 PUSH0 DUP4 PUSH20 0xFFFFFFFFFFFFFFFFFFFFFFFFFFFFFFFFFFFFFFFF AND PUSH20 0xFFFFFFFFFFFFFFFFFFFFFFFFFFFFFFFFFFFFFFFF AND DUP2 MSTORE PUSH1 0x20 ADD SWAP1 DUP2 MSTORE PUSH1 0x20 ADD PUSH0 KECCAK256 PUSH0 SWAP1 SSTORE PUSH1 0x5 PUSH0 DUP7 DUP2 MSTORE PUSH1 0x20 ADD SWAP1 DUP2 MSTORE PUSH1 0x20 ADD PUSH0 KECCAK256 PUSH0 DUP4 PUSH20 0xFFFFFFFFFFFFFFFFFFFFFFFFFFFFFFFFFFFFFFFF AND PUSH20 0xFFFFFFFFFFFFFFFFFFFFFFFFFFFFFFFFFFFFFFFF AND DUP2 MSTORE PUSH1 0x20 ADD SWAP1 DUP2 MSTORE PUSH1 0x20 ADD PUSH0 KECCAK256 PUSH0 PUSH2 0x100 EXP DUP2 SLOAD SWAP1 PUSH1 0xFF MUL NOT AND SWAP1 SSTORE POP POP DUP1 DUP1 PUSH1 0x1 ADD SWAP2 POP POP PUSH2 0x2963 JUMP JUMPDEST POP PUSH0 DUP2 PUSH1 0x4 ADD DUP2 SWAP1 SSTORE POP PUSH0 DUP2 PUSH1 0x8 ADD DUP2 SWAP1 SSTORE POP DUP1 PUSH1 0x9 ADD PUSH0 PUSH2 0x2C9E SWAP2 SWAP1 PUSH2 0x41DC JUMP JUMPDEST JUMPDEST POP POP DUP1 DUP1 PUSH1 0x1 ADD SWAP2 POP POP PUSH2 0x2781 JUMP JUMPDEST POP PUSH0 PUSH1 0x1 SLOAD GT ISZERO PUSH2 0x2D91 JUMPI PUSH0 PUSH1 0x1 SLOAD SWAP1 POP PUSH0 PUSH1 0x1 DUP2 SWAP1 SSTORE POP PUSH0 PUSH32 0x0 PUSH20 0xFFFFFFFFFFFFFFFFFFFFFFFFFFFFFFFFFFFFFFFF AND DUP3 PUSH1 0x40 MLOAD PUSH2 0x2D0B SWAP1 PUSH2 0x520C JUMP JUMPDEST PUSH0 PUSH1 0x40 MLOAD DUP1 DUP4 SUB DUP2 DUP6 DUP8 GAS CALL SWAP3 POP POP POP RETURNDATASIZE DUP1 PUSH0 DUP2 EQ PUSH2 0x2D45 JUMPI PUSH1 0x40 MLOAD SWAP2 POP PUSH1 0x1F NOT PUSH1 0x3F RETURNDATASIZE ADD AND DUP3 ADD PUSH1 0x40 MSTORE RETURNDATASIZE DUP3 MSTORE RETURNDATASIZE PUSH0 PUSH1 0x20 DUP5 ADD RETURNDATACOPY PUSH2 0x2D4A JUMP JUMPDEST PUSH1 0x60 SWAP2 POP JUMPDEST POP POP SWAP1 POP DUP1 PUSH2 0x2D8E JUMPI PUSH1 0x40 MLOAD PUSH32 0x8C379A000000000000000000000000000000000000000000000000000000000 DUP2 MSTORE PUSH1 0x4 ADD PUSH2 0x2D85 SWAP1 PUSH2 0x5B81 JUMP JUMPDEST PUSH1 0x40 MLOAD DUP1 SWAP2 SUB SWAP1 REVERT JUMPDEST POP POP JUMPDEST PUSH0 PUSH1 0x2 PUSH0 PUSH2 0x100 EXP DUP2 SLOAD DUP2 PUSH1 0xFF MUL NOT AND SWAP1 DUP4 ISZERO ISZERO MUL OR SWAP1 SSTORE POP PUSH0 PUSH8 0xFFFFFFFFFFFFFFFF DUP2 GT ISZERO PUSH2 0x2DC4 JUMPI PUSH2 0x2DC3 PUSH2 0x5654 JUMP JUMPDEST JUMPDEST PUSH1 0x40 MLOAD SWAP1 DUP1 DUP3 MSTORE DUP1 PUSH1 0x20 MUL PUSH1 0x20 ADD DUP3 ADD PUSH1 0x40 MSTORE DUP1 ISZERO PUSH2 0x2DF2 JUMPI DUP2 PUSH1 0x20 ADD PUSH1 0x20 DUP3 MUL DUP1 CALLDATASIZE DUP4 CALLDATACOPY DUP1 DUP3 ADD SWAP2 POP POP SWAP1 POP JUMPDEST POP PUSH1 0xE SWAP1 DUP1 MLOAD SWAP1 PUSH1 0x20 ADD SWAP1 PUSH2 0x2E08 SWAP3 SWAP2 SWAP1 PUSH2 0x41FA JUMP JUMPDEST POP PUSH0 PUSH8 0xFFFFFFFFFFFFFFFF DUP2 GT ISZERO PUSH2 0x2E23 JUMPI PUSH2 0x2E22 PUSH2 0x5654 JUMP JUMPDEST JUMPDEST PUSH1 0x40 MLOAD SWAP1 DUP1 DUP3 MSTORE DUP1 PUSH1 0x20 MUL PUSH1 0x20 ADD DUP3 ADD PUSH1 0x40 MSTORE DUP1 ISZERO PUSH2 0x2E51 JUMPI DUP2 PUSH1 0x20 ADD PUSH1 0x20 DUP3 MUL DUP1 CALLDATASIZE DUP4 CALLDATACOPY DUP1 DUP3 ADD SWAP2 POP POP SWAP1 POP JUMPDEST POP PUSH1 0xC SWAP1 DUP1 MLOAD SWAP1 PUSH1 0x20 ADD SWAP1 PUSH2 0x2E67 SWAP3 SWAP2 SWAP1 PUSH2 0x41FA JUMP JUMPDEST POP PUSH0 PUSH8 0xFFFFFFFFFFFFFFFF DUP2 GT ISZERO PUSH2 0x2E82 JUMPI PUSH2 0x2E81 PUSH2 0x5654 JUMP JUMPDEST JUMPDEST PUSH1 0x40 MLOAD SWAP1 DUP1 DUP3 MSTORE DUP1 PUSH1 0x20 MUL PUSH1 0x20 ADD DUP3 ADD PUSH1 0x40 MSTORE DUP1 ISZERO PUSH2 0x2EB0 JUMPI DUP2 PUSH1 0x20 ADD PUSH1 0x20 DUP3 MUL DUP1 CALLDATASIZE DUP4 CALLDATACOPY DUP1 DUP3 ADD SWAP2 POP POP SWAP1 POP JUMPDEST POP PUSH1 0xD SWAP1 DUP1 MLOAD SWAP1 PUSH1 0x20 ADD SWAP1 PUSH2 0x2EC6 SWAP3 SWAP2 SWAP1 PUSH2 0x41FA JUMP JUMPDEST POP PUSH0 PUSH1 0xA DUP2 SWAP1 SSTORE POP PUSH0 PUSH1 0xB DUP2 SWAP1 SSTORE POP JUMP JUMPDEST PUSH1 0x8 PUSH0 CALLER PUSH20 0xFFFFFFFFFFFFFFFFFFFFFFFFFFFFFFFFFFFFFFFF AND PUSH20 0xFFFFFFFFFFFFFFFFFFFFFFFFFFFFFFFFFFFFFFFF AND DUP2 MSTORE PUSH1 0x20 ADD SWAP1 DUP2 MSTORE PUSH1 0x20 ADD PUSH0 KECCAK256 PUSH0 SWAP1 SLOAD SWAP1 PUSH2 0x100 EXP SWAP1 DIV PUSH1 0xFF AND PUSH2 0x2F60 JUMPI PUSH1 0x40 MLOAD PUSH32 0x8C379A000000000000000000000000000000000000000000000000000000000 DUP2 MSTORE PUSH1 0x4 ADD PUSH2 0x2F57 SWAP1 PUSH2 0x49A4 JUMP JUMPDEST PUSH1 0x40 MLOAD DUP1 SWAP2 SUB SWAP1 REVERT JUMPDEST PUSH0 DUP1 SLOAD SWAP1 PUSH2 0x100 EXP SWAP1 DIV PUSH20 0xFFFFFFFFFFFFFFFFFFFFFFFFFFFFFFFFFFFFFFFF AND PUSH20 0xFFFFFFFFFFFFFFFFFFFFFFFFFFFFFFFFFFFFFFFF AND PUSH4 0x4B94F50E PUSH1 0x40 MLOAD DUP2 PUSH4 0xFFFFFFFF AND PUSH1 0xE0 SHL DUP2 MSTORE PUSH1 0x4 ADD PUSH1 0x20 PUSH1 0x40 MLOAD DUP1 DUP4 SUB DUP2 DUP7 GAS STATICCALL ISZERO DUP1 ISZERO PUSH2 0x2FC8 JUMPI RETURNDATASIZE PUSH0 DUP1 RETURNDATACOPY RETURNDATASIZE PUSH0 REVERT JUMPDEST POP POP POP POP PUSH1 0x40 MLOAD RETURNDATASIZE PUSH1 0x1F NOT PUSH1 0x1F DUP3 ADD AND DUP3 ADD DUP1 PUSH1 0x40 MSTORE POP DUP2 ADD SWAP1 PUSH2 0x2FEC SWAP2 SWAP1 PUSH2 0x4E18 JUMP JUMPDEST CALLVALUE LT ISZERO PUSH2 0x302E JUMPI PUSH1 0x40 MLOAD PUSH32 0x8C379A000000000000000000000000000000000000000000000000000000000 DUP2 MSTORE PUSH1 0x4 ADD PUSH2 0x3025 SWAP1 PUSH2 0x5C35 JUMP JUMPDEST PUSH1 0x40 MLOAD DUP1 SWAP2 SUB SWAP1 REVERT JUMPDEST PUSH0 DUP1 PUSH0 SWAP1 SLOAD SWAP1 PUSH2 0x100 EXP SWAP1 DIV PUSH20 0xFFFFFFFFFFFFFFFFFFFFFFFFFFFFFFFFFFFFFFFF AND PUSH20 0xFFFFFFFFFFFFFFFFFFFFFFFFFFFFFFFFFFFFFFFF AND PUSH4 0x4B94F50E PUSH1 0x40 MLOAD DUP2 PUSH4 0xFFFFFFFF AND PUSH1 0xE0 SHL DUP2 MSTORE PUSH1 0x4 ADD PUSH1 0x20 PUSH1 0x40 MLOAD DUP1 DUP4 SUB DUP2 DUP7 GAS STATICCALL ISZERO DUP1 ISZERO PUSH2 0x3098 JUMPI RETURNDATASIZE PUSH0 DUP1 RETURNDATACOPY RETURNDATASIZE PUSH0 REVERT JUMPDEST POP POP POP POP PUSH1 0x40 MLOAD RETURNDATASIZE PUSH1 0x1F NOT PUSH1 0x1F DUP3 ADD AND DUP3 ADD DUP1 PUSH1 0x40 MSTORE POP DUP2 ADD SWAP1 PUSH2 0x30BC SWAP2 SWAP1 PUSH2 0x4E18 JUMP JUMPDEST CALLVALUE PUSH2 0x30C7 SWAP2 SWAP1 PUSH2 0x5C80 JUMP JUMPDEST SWAP1 POP PUSH1 0x1 DUP2 GT PUSH2 0x310C JUMPI PUSH1 0x40 MLOAD PUSH32 0x8C379A000000000000000000000000000000000000000000000000000000000 DUP2 MSTORE PUSH1 0x4 ADD PUSH2 0x3103 SWAP1 PUSH2 0x5D20 JUMP JUMPDEST PUSH1 0x40 MLOAD DUP1 SWAP2 SUB SWAP1 REVERT JUMPDEST PUSH0 DUP1 SLOAD SWAP1 PUSH2 0x100 EXP SWAP1 DIV PUSH20 0xFFFFFFFFFFFFFFFFFFFFFFFFFFFFFFFFFFFFFFFF AND PUSH20 0xFFFFFFFFFFFFFFFFFFFFFFFFFFFFFFFFFFFFFFFF AND PUSH4 0x40C10F19 CALLER DUP4 PUSH1 0x40 MLOAD DUP4 PUSH4 0xFFFFFFFF AND PUSH1 0xE0 SHL DUP2 MSTORE PUSH1 0x4 ADD PUSH2 0x3166 SWAP3 SWAP2 SWAP1 PUSH2 0x4ED1 JUMP JUMPDEST PUSH0 PUSH1 0x40 MLOAD DUP1 DUP4 SUB DUP2 PUSH0 DUP8 DUP1 EXTCODESIZE ISZERO DUP1 ISZERO PUSH2 0x317D JUMPI PUSH0 DUP1 REVERT JUMPDEST POP GAS CALL ISZERO DUP1 ISZERO PUSH2 0x318F JUMPI RETURNDATASIZE PUSH0 DUP1 RETURNDATACOPY RETURNDATASIZE PUSH0 REVERT JUMPDEST POP POP POP POP POP JUMP JUMPDEST PUSH1 0xB SLOAD DUP2 JUMP JUMPDEST PUSH1 0x2 PUSH0 SWAP1 SLOAD SWAP1 PUSH2 0x100 EXP SWAP1 DIV PUSH1 0xFF AND PUSH2 0x31EA JUMPI PUSH1 0x40 MLOAD PUSH32 0x8C379A000000000000000000000000000000000000000000000000000000000 DUP2 MSTORE PUSH1 0x4 ADD PUSH2 0x31E1 SWAP1 PUSH2 0x4A86 JUMP JUMPDEST PUSH1 0x40 MLOAD DUP1 SWAP2 SUB SWAP1 REVERT JUMPDEST DUP1 PUSH1 0xA SLOAD DUP2 LT PUSH2 0x322F JUMPI PUSH1 0x40 MLOAD PUSH32 0x8C379A000000000000000000000000000000000000000000000000000000000 DUP2 MSTORE PUSH1 0x4 ADD PUSH2 0x3226 SWAP1 PUSH2 0x4B14 JUMP JUMPDEST PUSH1 0x40 MLOAD DUP1 SWAP2 SUB SWAP1 REVERT JUMPDEST DUP2 PUSH1 0x9 PUSH0 DUP3 DUP2 MSTORE PUSH1 0x20 ADD SWAP1 DUP2 MSTORE PUSH1 0x20 ADD PUSH0 KECCAK256 PUSH1 0x7 ADD PUSH1 0x16 SWAP1 SLOAD SWAP1 PUSH2 0x100 EXP SWAP1 DIV PUSH1 0xFF AND ISZERO PUSH2 0x3292 JUMPI PUSH1 0x40 MLOAD PUSH32 0x8C379A000000000000000000000000000000000000000000000000000000000 DUP2 MSTORE PUSH1 0x4 ADD PUSH2 0x3289 SWAP1 PUSH2 0x4BA2 JUMP JUMPDEST PUSH1 0x40 MLOAD DUP1 SWAP2 SUB SWAP1 REVERT JUMPDEST DUP3 PUSH1 0x9 PUSH0 DUP3 DUP2 MSTORE PUSH1 0x20 ADD SWAP1 DUP2 MSTORE PUSH1 0x20 ADD PUSH0 KECCAK256 PUSH1 0x7 ADD PUSH1 0x15 SWAP1 SLOAD SWAP1 PUSH2 0x100 EXP SWAP1 DIV PUSH1 0xFF AND ISZERO PUSH2 0x32F5 JUMPI PUSH1 0x40 MLOAD PUSH32 0x8C379A000000000000000000000000000000000000000000000000000000000 DUP2 MSTORE PUSH1 0x4 ADD PUSH2 0x32EC SWAP1 PUSH2 0x4C56 JUMP JUMPDEST PUSH1 0x40 MLOAD DUP1 SWAP2 SUB SWAP1 REVERT JUMPDEST PUSH1 0x9 PUSH0 DUP6 DUP2 MSTORE PUSH1 0x20 ADD SWAP1 DUP2 MSTORE PUSH1 0x20 ADD PUSH0 KECCAK256 PUSH1 0x7 ADD PUSH0 SWAP1 SLOAD SWAP1 PUSH2 0x100 EXP SWAP1 DIV PUSH20 0xFFFFFFFFFFFFFFFFFFFFFFFFFFFFFFFFFFFFFFFF AND PUSH20 0xFFFFFFFFFFFFFFFFFFFFFFFFFFFFFFFFFFFFFFFF AND CALLER PUSH20 0xFFFFFFFFFFFFFFFFFFFFFFFFFFFFFFFFFFFFFFFF AND EQ PUSH2 0x3396 JUMPI PUSH1 0x40 MLOAD PUSH32 0x8C379A000000000000000000000000000000000000000000000000000000000 DUP2 MSTORE PUSH1 0x4 ADD PUSH2 0x338D SWAP1 PUSH2 0x5DD4 JUMP JUMPDEST PUSH1 0x40 MLOAD DUP1 SWAP2 SUB SWAP1 REVERT JUMPDEST PUSH1 0x1 PUSH1 0x9 PUSH0 DUP7 DUP2 MSTORE PUSH1 0x20 ADD SWAP1 DUP2 MSTORE PUSH1 0x20 ADD PUSH0 KECCAK256 PUSH1 0x7 ADD PUSH1 0x16 PUSH2 0x100 EXP DUP2 SLOAD DUP2 PUSH1 0xFF MUL NOT AND SWAP1 DUP4 ISZERO ISZERO MUL OR SWAP1 SSTORE POP PUSH1 0x9 PUSH0 DUP6 DUP2 MSTORE PUSH1 0x20 ADD SWAP1 DUP2 MSTORE PUSH1 0x20 ADD PUSH0 KECCAK256 PUSH1 0x7 ADD PUSH1 0x14 SWAP1 SLOAD SWAP1 PUSH2 0x100 EXP SWAP1 DIV PUSH1 0xFF AND PUSH2 0x34C6 JUMPI PUSH1 0xB PUSH0 DUP2 SLOAD DUP1 SWAP3 SWAP2 SWAP1 PUSH2 0x33FB SWAP1 PUSH2 0x49EF JUMP JUMPDEST SWAP2 SWAP1 POP SSTORE POP PUSH0 PUSH1 0x6 PUSH0 DUP7 DUP2 MSTORE PUSH1 0x20 ADD SWAP1 DUP2 MSTORE PUSH1 0x20 ADD PUSH0 KECCAK256 SLOAD SWAP1 POP PUSH0 PUSH1 0x1 PUSH1 0xC DUP1 SLOAD SWAP1 POP PUSH2 0x3428 SWAP2 SWAP1 PUSH2 0x4D90 JUMP JUMPDEST SWAP1 POP DUP1 DUP3 EQ PUSH2 0x348A JUMPI PUSH0 PUSH1 0xC DUP3 DUP2 SLOAD DUP2 LT PUSH2 0x3446 JUMPI PUSH2 0x3445 PUSH2 0x4FDB JUMP JUMPDEST JUMPDEST SWAP1 PUSH0 MSTORE PUSH1 0x20 PUSH0 KECCAK256 ADD SLOAD SWAP1 POP DUP1 PUSH1 0xC DUP5 DUP2 SLOAD DUP2 LT PUSH2 0x3466 JUMPI PUSH2 0x3465 PUSH2 0x4FDB JUMP JUMPDEST JUMPDEST SWAP1 PUSH0 MSTORE PUSH1 0x20 PUSH0 KECCAK256 ADD DUP2 SWAP1 SSTORE POP DUP3 PUSH1 0x6 PUSH0 DUP4 DUP2 MSTORE PUSH1 0x20 ADD SWAP1 DUP2 MSTORE PUSH1 0x20 ADD PUSH0 KECCAK256 DUP2 SWAP1 SSTORE POP POP JUMPDEST PUSH1 0xC DUP1 SLOAD DUP1 PUSH2 0x349C JUMPI PUSH2 0x349B PUSH2 0x5008 JUMP JUMPDEST JUMPDEST PUSH1 0x1 SWAP1 SUB DUP2 DUP2 SWAP1 PUSH0 MSTORE PUSH1 0x20 PUSH0 KECCAK256 ADD PUSH0 SWAP1 SSTORE SWAP1 SSTORE PUSH1 0x6 PUSH0 DUP8 DUP2 MSTORE PUSH1 0x20 ADD SWAP1 DUP2 MSTORE PUSH1 0x20 ADD PUSH0 KECCAK256 PUSH0 SWAP1 SSTORE POP POP JUMPDEST PUSH0 JUMPDEST PUSH1 0x9 PUSH0 DUP7 DUP2 MSTORE PUSH1 0x20 ADD SWAP1 DUP2 MSTORE PUSH1 0x20 ADD PUSH0 KECCAK256 PUSH1 0x9 ADD DUP1 SLOAD SWAP1 POP DUP2 LT ISZERO PUSH2 0x36A9 JUMPI PUSH0 PUSH1 0x9 PUSH0 DUP8 DUP2 MSTORE PUSH1 0x20 ADD SWAP1 DUP2 MSTORE PUSH1 0x20 ADD PUSH0 KECCAK256 PUSH1 0x9 ADD DUP3 DUP2 SLOAD DUP2 LT PUSH2 0x350E JUMPI PUSH2 0x350D PUSH2 0x4FDB JUMP JUMPDEST JUMPDEST SWAP1 PUSH0 MSTORE PUSH1 0x20 PUSH0 KECCAK256 ADD PUSH0 SWAP1 SLOAD SWAP1 PUSH2 0x100 EXP SWAP1 DIV PUSH20 0xFFFFFFFFFFFFFFFFFFFFFFFFFFFFFFFFFFFFFFFF AND SWAP1 POP PUSH0 PUSH1 0x3 PUSH0 DUP9 DUP2 MSTORE PUSH1 0x20 ADD SWAP1 DUP2 MSTORE PUSH1 0x20 ADD PUSH0 KECCAK256 PUSH0 DUP4 PUSH20 0xFFFFFFFFFFFFFFFFFFFFFFFFFFFFFFFFFFFFFFFF AND PUSH20 0xFFFFFFFFFFFFFFFFFFFFFFFFFFFFFFFFFFFFFFFF AND DUP2 MSTORE PUSH1 0x20 ADD SWAP1 DUP2 MSTORE PUSH1 0x20 ADD PUSH0 KECCAK256 SLOAD SWAP1 POP PUSH0 DUP2 GT ISZERO PUSH2 0x35A1 JUMPI PUSH0 DUP2 DUP3 PUSH2 0x359D SWAP2 SWAP1 PUSH2 0x4DC3 JUMP JUMPDEST SWAP1 POP POP JUMPDEST PUSH1 0x3 PUSH0 DUP9 DUP2 MSTORE PUSH1 0x20 ADD SWAP1 DUP2 MSTORE PUSH1 0x20 ADD PUSH0 KECCAK256 PUSH0 DUP4 PUSH20 0xFFFFFFFFFFFFFFFFFFFFFFFFFFFFFFFFFFFFFFFF AND PUSH20 0xFFFFFFFFFFFFFFFFFFFFFFFFFFFFFFFFFFFFFFFF AND DUP2 MSTORE PUSH1 0x20 ADD SWAP1 DUP2 MSTORE PUSH1 0x20 ADD PUSH0 KECCAK256 PUSH0 SWAP1 SSTORE PUSH1 0x4 PUSH0 DUP9 DUP2 MSTORE PUSH1 0x20 ADD SWAP1 DUP2 MSTORE PUSH1 0x20 ADD PUSH0 KECCAK256 PUSH0 DUP4 PUSH20 0xFFFFFFFFFFFFFFFFFFFFFFFFFFFFFFFFFFFFFFFF AND PUSH20 0xFFFFFFFFFFFFFFFFFFFFFFFFFFFFFFFFFFFFFFFF AND DUP2 MSTORE PUSH1 0x20 ADD SWAP1 DUP2 MSTORE PUSH1 0x20 ADD PUSH0 KECCAK256 PUSH0 SWAP1 SSTORE PUSH1 0x5 PUSH0 DUP9 DUP2 MSTORE PUSH1 0x20 ADD SWAP1 DUP2 MSTORE PUSH1 0x20 ADD PUSH0 KECCAK256 PUSH0 DUP4 PUSH20 0xFFFFFFFFFFFFFFFFFFFFFFFFFFFFFFFFFFFFFFFF AND PUSH20 0xFFFFFFFFFFFFFFFFFFFFFFFFFFFFFFFFFFFFFFFF AND DUP2 MSTORE PUSH1 0x20 ADD SWAP1 DUP2 MSTORE PUSH1 0x20 ADD PUSH0 KECCAK256 PUSH0 PUSH2 0x100 EXP DUP2 SLOAD SWAP1 PUSH1 0xFF MUL NOT AND SWAP1 SSTORE POP POP DUP1 DUP1 PUSH1 0x1 ADD SWAP2 POP POP PUSH2 0x34C8 JUMP JUMPDEST POP PUSH0 PUSH1 0x9 PUSH0 DUP7 DUP2 MSTORE PUSH1 0x20 ADD SWAP1 DUP2 MSTORE PUSH1 0x20 ADD PUSH0 KECCAK256 PUSH1 0x4 ADD DUP2 SWAP1 SSTORE POP PUSH0 PUSH1 0x9 PUSH0 DUP7 DUP2 MSTORE PUSH1 0x20 ADD SWAP1 DUP2 MSTORE PUSH1 0x20 ADD PUSH0 KECCAK256 PUSH1 0x8 ADD DUP2 SWAP1 SSTORE POP PUSH1 0x9 PUSH0 DUP6 DUP2 MSTORE PUSH1 0x20 ADD SWAP1 DUP2 MSTORE PUSH1 0x20 ADD PUSH0 KECCAK256 PUSH1 0x9 ADD PUSH0 PUSH2 0x36FB SWAP2 SWAP1 PUSH2 0x41DC JUMP JUMPDEST POP POP POP POP JUMP JUMPDEST PUSH0 DUP1 SLOAD SWAP1 PUSH2 0x100 EXP SWAP1 DIV PUSH20 0xFFFFFFFFFFFFFFFFFFFFFFFFFFFFFFFFFFFFFFFF AND PUSH20 0xFFFFFFFFFFFFFFFFFFFFFFFFFFFFFFFFFFFFFFFF AND PUSH4 0x4B94F50E PUSH1 0x40 MLOAD DUP2 PUSH4 0xFFFFFFFF AND PUSH1 0xE0 SHL DUP2 MSTORE PUSH1 0x4 ADD PUSH1 0x20 PUSH1 0x40 MLOAD DUP1 DUP4 SUB DUP2 DUP7 GAS STATICCALL ISZERO DUP1 ISZERO PUSH2 0x3769 JUMPI RETURNDATASIZE PUSH0 DUP1 RETURNDATACOPY RETURNDATASIZE PUSH0 REVERT JUMPDEST POP POP POP POP PUSH1 0x40 MLOAD RETURNDATASIZE PUSH1 0x1F NOT PUSH1 0x1F DUP3 ADD AND DUP3 ADD DUP1 PUSH1 0x40 MSTORE POP DUP2 ADD SWAP1 PUSH2 0x378D SWAP2 SWAP1 PUSH2 0x4E18 JUMP JUMPDEST CALLVALUE LT ISZERO PUSH2 0x37CF JUMPI PUSH1 0x40 MLOAD PUSH32 0x8C379A000000000000000000000000000000000000000000000000000000000 DUP2 MSTORE PUSH1 0x4 ADD PUSH2 0x37C6 SWAP1 PUSH2 0x5EAE JUMP JUMPDEST PUSH1 0x40 MLOAD DUP1 SWAP2 SUB SWAP1 REVERT JUMPDEST PUSH1 0x8 PUSH0 CALLER PUSH20 0xFFFFFFFFFFFFFFFFFFFFFFFFFFFFFFFFFFFFFFFF AND PUSH20 0xFFFFFFFFFFFFFFFFFFFFFFFFFFFFFFFFFFFFFFFF AND DUP2 MSTORE PUSH1 0x20 ADD SWAP1 DUP2 MSTORE PUSH1 0x20 ADD PUSH0 KECCAK256 PUSH0 SWAP1 SLOAD SWAP1 PUSH2 0x100 EXP SWAP1 DIV PUSH1 0xFF AND ISZERO PUSH2 0x3859 JUMPI PUSH1 0x40 MLOAD PUSH32 0x8C379A000000000000000000000000000000000000000000000000000000000 DUP2 MSTORE PUSH1 0x4 ADD PUSH2 0x3850 SWAP1 PUSH2 0x5F3C JUMP JUMPDEST PUSH1 0x40 MLOAD DUP1 SWAP2 SUB SWAP1 REVERT JUMPDEST PUSH0 DUP1 PUSH0 SWAP1 SLOAD SWAP1 PUSH2 0x100 EXP SWAP1 DIV PUSH20 0xFFFFFFFFFFFFFFFFFFFFFFFFFFFFFFFFFFFFFFFF AND PUSH20 0xFFFFFFFFFFFFFFFFFFFFFFFFFFFFFFFFFFFFFFFF AND PUSH4 0x4B94F50E PUSH1 0x40 MLOAD DUP2 PUSH4 0xFFFFFFFF AND PUSH1 0xE0 SHL DUP2 MSTORE PUSH1 0x4 ADD PUSH1 0x20 PUSH1 0x40 MLOAD DUP1 DUP4 SUB DUP2 DUP7 GAS STATICCALL ISZERO DUP1 ISZERO PUSH2 0x38C3 JUMPI RETURNDATASIZE PUSH0 DUP1 RETURNDATACOPY RETURNDATASIZE PUSH0 REVERT JUMPDEST POP POP POP POP PUSH1 0x40 MLOAD RETURNDATASIZE PUSH1 0x1F NOT PUSH1 0x1F DUP3 ADD AND DUP3 ADD DUP1 PUSH1 0x40 MSTORE POP DUP2 ADD SWAP1 PUSH2 0x38E7 SWAP2 SWAP1 PUSH2 0x4E18 JUMP JUMPDEST CALLVALUE PUSH2 0x38F2 SWAP2 SWAP1 PUSH2 0x5C80 JUMP JUMPDEST SWAP1 POP PUSH1 0x1 DUP2 LT ISZERO PUSH2 0x3938 JUMPI PUSH1 0x40 MLOAD PUSH32 0x8C379A000000000000000000000000000000000000000000000000000000000 DUP2 MSTORE PUSH1 0x4 ADD PUSH2 0x392F SWAP1 PUSH2 0x5FCA JUMP JUMPDEST PUSH1 0x40 MLOAD DUP1 SWAP2 SUB SWAP1 REVERT JUMPDEST PUSH1 0x1 PUSH1 0x8 PUSH0 CALLER PUSH20 0xFFFFFFFFFFFFFFFFFFFFFFFFFFFFFFFFFFFFFFFF AND PUSH20 0xFFFFFFFFFFFFFFFFFFFFFFFFFFFFFFFFFFFFFFFF AND DUP2 MSTORE PUSH1 0x20 ADD SWAP1 DUP2 MSTORE PUSH1 0x20 ADD PUSH0 KECCAK256 PUSH0 PUSH2 0x100 EXP DUP2 SLOAD DUP2 PUSH1 0xFF MUL NOT AND SWAP1 DUP4 ISZERO ISZERO MUL OR SWAP1 SSTORE POP PUSH1 0x7 PUSH0 DUP2 SLOAD DUP1 SWAP3 SWAP2 SWAP1 PUSH2 0x399F SWAP1 PUSH2 0x5603 JUMP JUMPDEST SWAP2 SWAP1 POP SSTORE POP PUSH0 DUP1 SLOAD SWAP1 PUSH2 0x100 EXP SWAP1 DIV PUSH20 0xFFFFFFFFFFFFFFFFFFFFFFFFFFFFFFFFFFFFFFFF AND PUSH20 0xFFFFFFFFFFFFFFFFFFFFFFFFFFFFFFFFFFFFFFFF AND PUSH4 0x40C10F19 CALLER DUP4 PUSH1 0x40 MLOAD DUP4 PUSH4 0xFFFFFFFF AND PUSH1 0xE0 SHL DUP2 MSTORE PUSH1 0x4 ADD PUSH2 0x39FE SWAP3 SWAP2 SWAP1 PUSH2 0x4ED1 JUMP JUMPDEST PUSH0 PUSH1 0x40 MLOAD DUP1 DUP4 SUB DUP2 PUSH0 DUP8 DUP1 EXTCODESIZE ISZERO DUP1 ISZERO PUSH2 0x3A15 JUMPI PUSH0 DUP1 REVERT JUMPDEST POP GAS CALL ISZERO DUP1 ISZERO PUSH2 0x3A27 JUMPI RETURNDATASIZE PUSH0 DUP1 RETURNDATACOPY RETURNDATASIZE PUSH0 REVERT JUMPDEST POP POP POP POP POP JUMP JUMPDEST PUSH1 0x2 PUSH0 SWAP1 SLOAD SWAP1 PUSH2 0x100 EXP SWAP1 DIV PUSH1 0xFF AND PUSH2 0x3A7C JUMPI PUSH1 0x40 MLOAD PUSH32 0x8C379A000000000000000000000000000000000000000000000000000000000 DUP2 MSTORE PUSH1 0x4 ADD PUSH2 0x3A73 SWAP1 PUSH2 0x4A86 JUMP JUMPDEST PUSH1 0x40 MLOAD DUP1 SWAP2 SUB SWAP1 REVERT JUMPDEST DUP1 PUSH1 0xA SLOAD DUP2 LT PUSH2 0x3AC1 JUMPI PUSH1 0x40 MLOAD PUSH32 0x8C379A000000000000000000000000000000000000000000000000000000000 DUP2 MSTORE PUSH1 0x4 ADD PUSH2 0x3AB8 SWAP1 PUSH2 0x4B14 JUMP JUMPDEST PUSH1 0x40 MLOAD DUP1 SWAP2 SUB SWAP1 REVERT JUMPDEST DUP2 PUSH1 0x9 PUSH0 DUP3 DUP2 MSTORE PUSH1 0x20 ADD SWAP1 DUP2 MSTORE PUSH1 0x20 ADD PUSH0 KECCAK256 PUSH1 0x7 ADD PUSH1 0x16 SWAP1 SLOAD SWAP1 PUSH2 0x100 EXP SWAP1 DIV PUSH1 0xFF AND ISZERO PUSH2 0x3B24 JUMPI PUSH1 0x40 MLOAD PUSH32 0x8C379A000000000000000000000000000000000000000000000000000000000 DUP2 MSTORE PUSH1 0x4 ADD PUSH2 0x3B1B SWAP1 PUSH2 0x4BA2 JUMP JUMPDEST PUSH1 0x40 MLOAD DUP1 SWAP2 SUB SWAP1 REVERT JUMPDEST DUP3 PUSH1 0x9 PUSH0 DUP3 DUP2 MSTORE PUSH1 0x20 ADD SWAP1 DUP2 MSTORE PUSH1 0x20 ADD PUSH0 KECCAK256 PUSH1 0x7 ADD PUSH1 0x15 SWAP1 SLOAD SWAP1 PUSH2 0x100 EXP SWAP1 DIV PUSH1 0xFF AND ISZERO PUSH2 0x3B87 JUMPI PUSH1 0x40 MLOAD PUSH32 0x8C379A000000000000000000000000000000000000000000000000000000000 DUP2 MSTORE PUSH1 0x4 ADD PUSH2 0x3B7E SWAP1 PUSH2 0x4C56 JUMP JUMPDEST PUSH1 0x40 MLOAD DUP1 SWAP2 SUB SWAP1 REVERT JUMPDEST PUSH1 0x9 PUSH0 DUP6 DUP2 MSTORE PUSH1 0x20 ADD SWAP1 DUP2 MSTORE PUSH1 0x20 ADD PUSH0 KECCAK256 PUSH1 0x7 ADD PUSH1 0x14 SWAP1 SLOAD SWAP1 PUSH2 0x100 EXP SWAP1 DIV PUSH1 0xFF AND ISZERO PUSH2 0x3BE9 JUMPI PUSH1 0x40 MLOAD PUSH32 0x8C379A000000000000000000000000000000000000000000000000000000000 DUP2 MSTORE PUSH1 0x4 ADD PUSH2 0x3BE0 SWAP1 PUSH2 0x6058 JUMP JUMPDEST PUSH1 0x40 MLOAD DUP1 SWAP2 SUB SWAP1 REVERT JUMPDEST PUSH0 PUSH20 0xFFFFFFFFFFFFFFFFFFFFFFFFFFFFFFFFFFFFFFFF AND PUSH1 0x9 PUSH0 DUP7 DUP2 MSTORE PUSH1 0x20 ADD SWAP1 DUP2 MSTORE PUSH1 0x20 ADD PUSH0 KECCAK256 PUSH1 0x6 ADD PUSH0 SWAP1 SLOAD SWAP1 PUSH2 0x100 EXP SWAP1 DIV PUSH20 0xFFFFFFFFFFFFFFFFFFFFFFFFFFFFFFFFFFFFFFFF AND PUSH20 0xFFFFFFFFFFFFFFFFFFFFFFFFFFFFFFFFFFFFFFFF AND SUB PUSH2 0x3C8A JUMPI PUSH1 0x40 MLOAD PUSH32 0x8C379A000000000000000000000000000000000000000000000000000000000 DUP2 MSTORE PUSH1 0x4 ADD PUSH2 0x3C81 SWAP1 PUSH2 0x60E6 JUMP JUMPDEST PUSH1 0x40 MLOAD DUP1 SWAP2 SUB SWAP1 REVERT JUMPDEST PUSH1 0x9 PUSH0 DUP6 DUP2 MSTORE PUSH1 0x20 ADD SWAP1 DUP2 MSTORE PUSH1 0x20 ADD PUSH0 KECCAK256 PUSH1 0x3 ADD SLOAD PUSH1 0x1 SLOAD GT PUSH2 0x3CE2 JUMPI PUSH1 0x40 MLOAD PUSH32 0x8C379A000000000000000000000000000000000000000000000000000000000 DUP2 MSTORE PUSH1 0x4 ADD PUSH2 0x3CD9 SWAP1 PUSH2 0x619A JUMP JUMPDEST PUSH1 0x40 MLOAD DUP1 SWAP2 SUB SWAP1 REVERT JUMPDEST PUSH1 0x1 PUSH1 0x9 PUSH0 DUP7 DUP2 MSTORE PUSH1 0x20 ADD SWAP1 DUP2 MSTORE PUSH1 0x20 ADD PUSH0 KECCAK256 PUSH1 0x7 ADD PUSH1 0x15 PUSH2 0x100 EXP DUP2 SLOAD DUP2 PUSH1 0xFF MUL NOT AND SWAP1 DUP4 ISZERO ISZERO MUL OR SWAP1 SSTORE POP PUSH1 0xB PUSH0 DUP2 SLOAD DUP1 SWAP3 SWAP2 SWAP1 PUSH2 0x3D21 SWAP1 PUSH2 0x49EF JUMP JUMPDEST SWAP2 SWAP1 POP SSTORE POP PUSH0 PUSH1 0x6 PUSH0 DUP7 DUP2 MSTORE PUSH1 0x20 ADD SWAP1 DUP2 MSTORE PUSH1 0x20 ADD PUSH0 KECCAK256 SLOAD SWAP1 POP PUSH0 PUSH1 0xC DUP1 SLOAD SWAP1 POP SWAP1 POP DUP1 DUP3 EQ PUSH2 0x3DA4 JUMPI PUSH0 PUSH1 0xC DUP3 DUP2 SLOAD DUP2 LT PUSH2 0x3D60 JUMPI PUSH2 0x3D5F PUSH2 0x4FDB JUMP JUMPDEST JUMPDEST SWAP1 PUSH0 MSTORE PUSH1 0x20 PUSH0 KECCAK256 ADD SLOAD SWAP1 POP DUP1 PUSH1 0xC DUP5 DUP2 SLOAD DUP2 LT PUSH2 0x3D80 JUMPI PUSH2 0x3D7F PUSH2 0x4FDB JUMP JUMPDEST JUMPDEST SWAP1 PUSH0 MSTORE PUSH1 0x20 PUSH0 KECCAK256 ADD DUP2 SWAP1 SSTORE POP DUP3 PUSH1 0x6 PUSH0 DUP4 DUP2 MSTORE PUSH1 0x20 ADD SWAP1 DUP2 MSTORE PUSH1 0x20 ADD PUSH0 KECCAK256 DUP2 SWAP1 SSTORE POP POP JUMPDEST PUSH1 0xC DUP1 SLOAD DUP1 PUSH2 0x3DB6 JUMPI PUSH2 0x3DB5 PUSH2 0x5008 JUMP JUMPDEST JUMPDEST PUSH1 0x1 SWAP1 SUB DUP2 DUP2 SWAP1 PUSH0 MSTORE PUSH1 0x20 PUSH0 KECCAK256 ADD PUSH0 SWAP1 SSTORE SWAP1 SSTORE PUSH1 0x6 PUSH0 DUP8 DUP2 MSTORE PUSH1 0x20 ADD SWAP1 DUP2 MSTORE PUSH1 0x20 ADD PUSH0 KECCAK256 PUSH0 SWAP1 SSTORE PUSH1 0xD DUP7 SWAP1 DUP1 PUSH1 0x1 DUP2 SLOAD ADD DUP1 DUP3 SSTORE DUP1 SWAP2 POP POP PUSH1 0x1 SWAP1 SUB SWAP1 PUSH0 MSTORE PUSH1 0x20 PUSH0 KECCAK256 ADD PUSH0 SWAP1 SWAP2 SWAP1 SWAP2 SWAP1 SWAP2 POP SSTORE PUSH0 DUP1 PUSH0 SWAP1 SLOAD SWAP1 PUSH2 0x100 EXP SWAP1 DIV PUSH20 0xFFFFFFFFFFFFFFFFFFFFFFFFFFFFFFFFFFFFFFFF AND PUSH20 0xFFFFFFFFFFFFFFFFFFFFFFFFFFFFFFFFFFFFFFFF AND PUSH4 0x4B94F50E PUSH1 0x40 MLOAD DUP2 PUSH4 0xFFFFFFFF AND PUSH1 0xE0 SHL DUP2 MSTORE PUSH1 0x4 ADD PUSH1 0x20 PUSH1 0x40 MLOAD DUP1 DUP4 SUB DUP2 DUP7 GAS STATICCALL ISZERO DUP1 ISZERO PUSH2 0x3E6D JUMPI RETURNDATASIZE PUSH0 DUP1 RETURNDATACOPY RETURNDATASIZE PUSH0 REVERT JUMPDEST POP POP POP POP PUSH1 0x40 MLOAD RETURNDATASIZE PUSH1 0x1F NOT PUSH1 0x1F DUP3 ADD AND DUP3 ADD DUP1 PUSH1 0x40 MSTORE POP DUP2 ADD SWAP1 PUSH2 0x3E91 SWAP2 SWAP1 PUSH2 0x4E18 JUMP JUMPDEST PUSH1 0x9 PUSH0 DUP10 DUP2 MSTORE PUSH1 0x20 ADD SWAP1 DUP2 MSTORE PUSH1 0x20 ADD PUSH0 KECCAK256 PUSH1 0x8 ADD SLOAD PUSH2 0x3EB0 SWAP2 SWAP1 PUSH2 0x4DC3 JUMP JUMPDEST SWAP1 POP DUP1 PUSH1 0x1 PUSH0 DUP3 DUP3 SLOAD PUSH2 0x3EC3 SWAP2 SWAP1 PUSH2 0x533C JUMP JUMPDEST SWAP3 POP POP DUP2 SWAP1 SSTORE POP PUSH1 0x9 PUSH0 DUP9 DUP2 MSTORE PUSH1 0x20 ADD SWAP1 DUP2 MSTORE PUSH1 0x20 ADD PUSH0 KECCAK256 PUSH1 0x3 ADD SLOAD PUSH1 0x1 PUSH0 DUP3 DUP3 SLOAD PUSH2 0x3EEF SWAP2 SWAP1 PUSH2 0x4D90 JUMP JUMPDEST SWAP3 POP POP DUP2 SWAP1 SSTORE POP PUSH0 PUSH1 0x9 PUSH0 DUP10 DUP2 MSTORE PUSH1 0x20 ADD SWAP1 DUP2 MSTORE PUSH1 0x20 ADD PUSH0 KECCAK256 PUSH1 0x6 ADD PUSH0 SWAP1 SLOAD SWAP1 PUSH2 0x100 EXP SWAP1 DIV PUSH20 0xFFFFFFFFFFFFFFFFFFFFFFFFFFFFFFFFFFFFFFFF AND PUSH20 0xFFFFFFFFFFFFFFFFFFFFFFFFFFFFFFFFFFFFFFFF AND PUSH1 0x9 PUSH0 DUP11 DUP2 MSTORE PUSH1 0x20 ADD SWAP1 DUP2 MSTORE PUSH1 0x20 ADD PUSH0 KECCAK256 PUSH1 0x3 ADD SLOAD PUSH3 0x186A0 SWAP1 PUSH4 0x986CC311 PUSH1 0xE0 SHL DUP12 PUSH1 0x9 PUSH0 DUP15 DUP2 MSTORE PUSH1 0x20 ADD SWAP1 DUP2 MSTORE PUSH1 0x20 ADD PUSH0 KECCAK256 PUSH1 0x4 ADD SLOAD PUSH1 0x9 PUSH0 DUP16 DUP2 MSTORE PUSH1 0x20 ADD SWAP1 DUP2 MSTORE PUSH1 0x20 ADD PUSH0 KECCAK256 PUSH1 0x8 ADD SLOAD PUSH1 0x40 MLOAD PUSH1 0x24 ADD PUSH2 0x3FA0 SWAP4 SWAP3 SWAP2 SWAP1 PUSH2 0x5A8C JUMP JUMPDEST PUSH1 0x40 MLOAD PUSH1 0x20 DUP2 DUP4 SUB SUB DUP2 MSTORE SWAP1 PUSH1 0x40 MSTORE SWAP1 PUSH28 0xFFFFFFFFFFFFFFFFFFFFFFFFFFFFFFFFFFFFFFFFFFFFFFFFFFFFFFFF NOT AND PUSH1 0x20 DUP3 ADD DUP1 MLOAD PUSH28 0xFFFFFFFFFFFFFFFFFFFFFFFFFFFFFFFFFFFFFFFFFFFFFFFFFFFFFFFF DUP4 DUP2 DUP4 AND OR DUP4 MSTORE POP POP POP POP PUSH1 0x40 MLOAD PUSH2 0x400A SWAP2 SWAP1 PUSH2 0x5AFB JUMP JUMPDEST PUSH0 PUSH1 0x40 MLOAD DUP1 DUP4 SUB DUP2 DUP6 DUP9 DUP9 CALL SWAP4 POP POP POP POP RETURNDATASIZE DUP1 PUSH0 DUP2 EQ PUSH2 0x4045 JUMPI PUSH1 0x40 MLOAD SWAP2 POP PUSH1 0x1F NOT PUSH1 0x3F RETURNDATASIZE ADD AND DUP3 ADD PUSH1 0x40 MSTORE RETURNDATASIZE DUP3 MSTORE RETURNDATASIZE PUSH0 PUSH1 0x20 DUP5 ADD RETURNDATACOPY PUSH2 0x404A JUMP JUMPDEST PUSH1 0x60 SWAP2 POP JUMPDEST POP POP SWAP1 POP DUP1 PUSH2 0x408E JUMPI PUSH1 0x40 MLOAD PUSH32 0x8C379A000000000000000000000000000000000000000000000000000000000 DUP2 MSTORE PUSH1 0x4 ADD PUSH2 0x4085 SWAP1 PUSH2 0x6228 JUMP JUMPDEST PUSH1 0x40 MLOAD DUP1 SWAP2 SUB SWAP1 REVERT JUMPDEST POP POP POP POP POP POP POP POP JUMP JUMPDEST PUSH0 DUP1 PUSH1 0x1 SLOAD SUB PUSH2 0x40CA JUMPI PUSH32 0xFFFFFFFFFFFFFFFFFFFFFFFFFFFFFFFFFFFFFFFFFFFFFFFFFFFFFFFFFFFFFFFF SWAP1 POP PUSH2 0x4147 JUMP JUMPDEST PUSH0 PUSH8 0xDE0B6B3A7640000 PUSH1 0x7 SLOAD PUSH1 0x1 SLOAD PUSH8 0xDE0B6B3A7640000 PUSH1 0x9 PUSH0 DUP9 DUP2 MSTORE PUSH1 0x20 ADD SWAP1 DUP2 MSTORE PUSH1 0x20 ADD PUSH0 KECCAK256 PUSH1 0x3 ADD SLOAD PUSH2 0x4102 SWAP2 SWAP1 PUSH2 0x4DC3 JUMP JUMPDEST PUSH2 0x410C SWAP2 SWAP1 PUSH2 0x5C80 JUMP JUMPDEST PUSH8 0x2C68AF0BB140000 PUSH2 0x411F SWAP2 SWAP1 PUSH2 0x533C JUMP JUMPDEST PUSH2 0x4129 SWAP2 SWAP1 PUSH2 0x4DC3 JUMP JUMPDEST PUSH2 0x4133 SWAP2 SWAP1 PUSH2 0x5C80 JUMP JUMPDEST SWAP1 POP PUSH1 0xB SLOAD DUP2 PUSH2 0x4143 SWAP2 SWAP1 PUSH2 0x533C JUMP JUMPDEST SWAP2 POP POP JUMPDEST SWAP2 SWAP1 POP JUMP JUMPDEST PUSH1 0x40 MLOAD DUP1 PUSH2 0x1A0 ADD PUSH1 0x40 MSTORE DUP1 PUSH0 DUP2 MSTORE PUSH1 0x20 ADD PUSH1 0x60 DUP2 MSTORE PUSH1 0x20 ADD PUSH1 0x60 DUP2 MSTORE PUSH1 0x20 ADD PUSH0 DUP2 MSTORE PUSH1 0x20 ADD PUSH0 DUP2 MSTORE PUSH1 0x20 ADD PUSH0 DUP2 MSTORE PUSH1 0x20 ADD PUSH0 PUSH20 0xFFFFFFFFFFFFFFFFFFFFFFFFFFFFFFFFFFFFFFFF AND DUP2 MSTORE PUSH1 0x20 ADD PUSH0 PUSH20 0xFFFFFFFFFFFFFFFFFFFFFFFFFFFFFFFFFFFFFFFF AND DUP2 MSTORE PUSH1 0x20 ADD PUSH0 ISZERO ISZERO DUP2 MSTORE PUSH1 0x20 ADD PUSH0 ISZERO ISZERO DUP2 MSTORE PUSH1 0x20 ADD PUSH0 ISZERO ISZERO DUP2 MSTORE PUSH1 0x20 ADD PUSH0 DUP2 MSTORE PUSH1 0x20 ADD PUSH1 0x60 DUP2 MSTORE POP SWAP1 JUMP JUMPDEST POP DUP1 SLOAD PUSH0 DUP3 SSTORE SWAP1 PUSH0 MSTORE PUSH1 0x20 PUSH0 KECCAK256 SWAP1 DUP2 ADD SWAP1 PUSH2 0x41F7 SWAP2 SWAP1 PUSH2 0x4245 JUMP JUMPDEST POP JUMP JUMPDEST DUP3 DUP1 SLOAD DUP3 DUP3 SSTORE SWAP1 PUSH0 MSTORE PUSH1 0x20 PUSH0 KECCAK256 SWAP1 DUP2 ADD SWAP3 DUP3 ISZERO PUSH2 0x4234 JUMPI SWAP2 PUSH1 0x20 MUL DUP3 ADD JUMPDEST DUP3 DUP2 GT ISZERO PUSH2 0x4233 JUMPI DUP3 MLOAD DUP3 SSTORE SWAP2 PUSH1 0x20 ADD SWAP2 SWAP1 PUSH1 0x1 ADD SWAP1 PUSH2 0x4218 JUMP JUMPDEST JUMPDEST POP SWAP1 POP PUSH2 0x4241 SWAP2 SWAP1 PUSH2 0x4245 JUMP JUMPDEST POP SWAP1 JUMP JUMPDEST JUMPDEST DUP1 DUP3 GT ISZERO PUSH2 0x425C JUMPI PUSH0 DUP2 PUSH0 SWAP1 SSTORE POP PUSH1 0x1 ADD PUSH2 0x4246 JUMP JUMPDEST POP SWAP1 JUMP JUMPDEST PUSH0 DUP1 REVERT JUMPDEST PUSH0 DUP1 REVERT JUMPDEST PUSH0 DUP2 SWAP1 POP SWAP2 SWAP1 POP JUMP JUMPDEST PUSH2 0x427A DUP2 PUSH2 0x4268 JUMP JUMPDEST DUP2 EQ PUSH2 0x4284 JUMPI PUSH0 DUP1 REVERT JUMPDEST POP JUMP JUMPDEST PUSH0 DUP2 CALLDATALOAD SWAP1 POP PUSH2 0x4295 DUP2 PUSH2 0x4271 JUMP JUMPDEST SWAP3 SWAP2 POP POP JUMP JUMPDEST PUSH0 PUSH1 0x20 DUP3 DUP5 SUB SLT ISZERO PUSH2 0x42B0 JUMPI PUSH2 0x42AF PUSH2 0x4260 JUMP JUMPDEST JUMPDEST PUSH0 PUSH2 0x42BD DUP5 DUP3 DUP6 ADD PUSH2 0x4287 JUMP JUMPDEST SWAP2 POP POP SWAP3 SWAP2 POP POP JUMP JUMPDEST PUSH2 0x42CF DUP2 PUSH2 0x4268 JUMP JUMPDEST DUP3 MSTORE POP POP JUMP JUMPDEST PUSH0 DUP2 MLOAD SWAP1 POP SWAP2 SWAP1 POP JUMP JUMPDEST PUSH0 DUP3 DUP3 MSTORE PUSH1 0x20 DUP3 ADD SWAP1 POP SWAP3 SWAP2 POP POP JUMP JUMPDEST DUP3 DUP2 DUP4 MCOPY PUSH0 DUP4 DUP4 ADD MSTORE POP POP POP JUMP JUMPDEST PUSH0 PUSH1 0x1F NOT PUSH1 0x1F DUP4 ADD AND SWAP1 POP SWAP2 SWAP1 POP JUMP JUMPDEST PUSH0 PUSH2 0x4317 DUP3 PUSH2 0x42D5 JUMP JUMPDEST PUSH2 0x4321 DUP2 DUP6 PUSH2 0x42DF JUMP JUMPDEST SWAP4 POP PUSH2 0x4331 DUP2 DUP6 PUSH1 0x20 DUP7 ADD PUSH2 0x42EF JUMP JUMPDEST PUSH2 0x433A DUP2 PUSH2 0x42FD JUMP JUMPDEST DUP5 ADD SWAP2 POP POP SWAP3 SWAP2 POP POP JUMP JUMPDEST PUSH0 PUSH20 0xFFFFFFFFFFFFFFFFFFFFFFFFFFFFFFFFFFFFFFFF DUP3 AND SWAP1 POP SWAP2 SWAP1 POP JUMP JUMPDEST PUSH0 PUSH2 0x436E DUP3 PUSH2 0x4345 JUMP JUMPDEST SWAP1 POP SWAP2 SWAP1 POP JUMP JUMPDEST PUSH2 0x437E DUP2 PUSH2 0x4364 JUMP JUMPDEST DUP3 MSTORE POP POP JUMP JUMPDEST PUSH0 DUP2 ISZERO ISZERO SWAP1 POP SWAP2 SWAP1 POP JUMP JUMPDEST PUSH2 0x4398 DUP2 PUSH2 0x4384 JUMP JUMPDEST DUP3 MSTORE POP POP JUMP JUMPDEST PUSH0 PUSH2 0x180 DUP3 ADD SWAP1 POP PUSH2 0x43B2 PUSH0 DUP4 ADD DUP16 PUSH2 0x42C6 JUMP JUMPDEST DUP2 DUP2 SUB PUSH1 0x20 DUP4 ADD MSTORE PUSH2 0x43C4 DUP2 DUP15 PUSH2 0x430D JUMP JUMPDEST SWAP1 POP DUP2 DUP2 SUB PUSH1 0x40 DUP4 ADD MSTORE PUSH2 0x43D8 DUP2 DUP14 PUSH2 0x430D JUMP JUMPDEST SWAP1 POP PUSH2 0x43E7 PUSH1 0x60 DUP4 ADD DUP13 PUSH2 0x42C6 JUMP JUMPDEST PUSH2 0x43F4 PUSH1 0x80 DUP4 ADD DUP12 PUSH2 0x42C6 JUMP JUMPDEST PUSH2 0x4401 PUSH1 0xA0 DUP4 ADD DUP11 PUSH2 0x42C6 JUMP JUMPDEST PUSH2 0x440E PUSH1 0xC0 DUP4 ADD DUP10 PUSH2 0x4375 JUMP JUMPDEST PUSH2 0x441B PUSH1 0xE0 DUP4 ADD DUP9 PUSH2 0x4375 JUMP JUMPDEST PUSH2 0x4429 PUSH2 0x100 DUP4 ADD DUP8 PUSH2 0x438F JUMP JUMPDEST PUSH2 0x4437 PUSH2 0x120 DUP4 ADD DUP7 PUSH2 0x438F JUMP JUMPDEST PUSH2 0x4445 PUSH2 0x140 DUP4 ADD DUP6 PUSH2 0x438F JUMP JUMPDEST PUSH2 0x4453 PUSH2 0x160 DUP4 ADD DUP5 PUSH2 0x42C6 JUMP JUMPDEST SWAP14 SWAP13 POP POP POP POP POP POP POP POP POP POP POP POP POP JUMP JUMPDEST PUSH0 PUSH1 0x20 DUP3 ADD SWAP1 POP PUSH2 0x4477 PUSH0 DUP4 ADD DUP5 PUSH2 0x42C6 JUMP JUMPDEST SWAP3 SWAP2 POP POP JUMP JUMPDEST PUSH0 PUSH1 0x20 DUP3 ADD SWAP1 POP PUSH2 0x4490 PUSH0 DUP4 ADD DUP5 PUSH2 0x4375 JUMP JUMPDEST SWAP3 SWAP2 POP POP JUMP JUMPDEST PUSH0 DUP1 PUSH1 0x40 DUP4 DUP6 SUB SLT ISZERO PUSH2 0x44AC JUMPI PUSH2 0x44AB PUSH2 0x4260 JUMP JUMPDEST JUMPDEST PUSH0 PUSH2 0x44B9 DUP6 DUP3 DUP7 ADD PUSH2 0x4287 JUMP JUMPDEST SWAP3 POP POP PUSH1 0x20 PUSH2 0x44CA DUP6 DUP3 DUP7 ADD PUSH2 0x4287 JUMP JUMPDEST SWAP2 POP POP SWAP3 POP SWAP3 SWAP1 POP JUMP JUMPDEST PUSH0 DUP1 REVERT JUMPDEST PUSH0 DUP1 REVERT JUMPDEST PUSH0 DUP1 REVERT JUMPDEST PUSH0 DUP1 DUP4 PUSH1 0x1F DUP5 ADD SLT PUSH2 0x44F5 JUMPI PUSH2 0x44F4 PUSH2 0x44D4 JUMP JUMPDEST JUMPDEST DUP3 CALLDATALOAD SWAP1 POP PUSH8 0xFFFFFFFFFFFFFFFF DUP2 GT ISZERO PUSH2 0x4512 JUMPI PUSH2 0x4511 PUSH2 0x44D8 JUMP JUMPDEST JUMPDEST PUSH1 0x20 DUP4 ADD SWAP2 POP DUP4 PUSH1 0x1 DUP3 MUL DUP4 ADD GT ISZERO PUSH2 0x452E JUMPI PUSH2 0x452D PUSH2 0x44DC JUMP JUMPDEST JUMPDEST SWAP3 POP SWAP3 SWAP1 POP JUMP JUMPDEST PUSH2 0x453E DUP2 PUSH2 0x4364 JUMP JUMPDEST DUP2 EQ PUSH2 0x4548 JUMPI PUSH0 DUP1 REVERT JUMPDEST POP JUMP JUMPDEST PUSH0 DUP2 CALLDATALOAD SWAP1 POP PUSH2 0x4559 DUP2 PUSH2 0x4535 JUMP JUMPDEST SWAP3 SWAP2 POP POP JUMP JUMPDEST PUSH0 DUP1 PUSH0 DUP1 PUSH0 DUP1 PUSH1 0x80 DUP8 DUP10 SUB SLT ISZERO PUSH2 0x4579 JUMPI PUSH2 0x4578 PUSH2 0x4260 JUMP JUMPDEST JUMPDEST PUSH0 DUP8 ADD CALLDATALOAD PUSH8 0xFFFFFFFFFFFFFFFF DUP2 GT ISZERO PUSH2 0x4596 JUMPI PUSH2 0x4595 PUSH2 0x4264 JUMP JUMPDEST JUMPDEST PUSH2 0x45A2 DUP10 DUP3 DUP11 ADD PUSH2 0x44E0 JUMP JUMPDEST SWAP7 POP SWAP7 POP POP PUSH1 0x20 DUP8 ADD CALLDATALOAD PUSH8 0xFFFFFFFFFFFFFFFF DUP2 GT ISZERO PUSH2 0x45C5 JUMPI PUSH2 0x45C4 PUSH2 0x4264 JUMP JUMPDEST JUMPDEST PUSH2 0x45D1 DUP10 DUP3 DUP11 ADD PUSH2 0x44E0 JUMP JUMPDEST SWAP5 POP SWAP5 POP POP PUSH1 0x40 PUSH2 0x45E4 DUP10 DUP3 DUP11 ADD PUSH2 0x4287 JUMP JUMPDEST SWAP3 POP POP PUSH1 0x60 PUSH2 0x45F5 DUP10 DUP3 DUP11 ADD PUSH2 0x454B JUMP JUMPDEST SWAP2 POP POP SWAP3 SWAP6 POP SWAP3 SWAP6 POP SWAP3 SWAP6 JUMP JUMPDEST PUSH2 0x460B DUP2 PUSH2 0x4268 JUMP JUMPDEST DUP3 MSTORE POP POP JUMP JUMPDEST PUSH0 DUP3 DUP3 MSTORE PUSH1 0x20 DUP3 ADD SWAP1 POP SWAP3 SWAP2 POP POP JUMP JUMPDEST PUSH0 PUSH2 0x462B DUP3 PUSH2 0x42D5 JUMP JUMPDEST PUSH2 0x4635 DUP2 DUP6 PUSH2 0x4611 JUMP JUMPDEST SWAP4 POP PUSH2 0x4645 DUP2 DUP6 PUSH1 0x20 DUP7 ADD PUSH2 0x42EF JUMP JUMPDEST PUSH2 0x464E DUP2 PUSH2 0x42FD JUMP JUMPDEST DUP5 ADD SWAP2 POP POP SWAP3 SWAP2 POP POP JUMP JUMPDEST PUSH2 0x4662 DUP2 PUSH2 0x4364 JUMP JUMPDEST DUP3 MSTORE POP POP JUMP JUMPDEST PUSH2 0x4671 DUP2 PUSH2 0x4384 JUMP JUMPDEST DUP3 MSTORE POP POP JUMP JUMPDEST PUSH0 DUP2 MLOAD SWAP1 POP SWAP2 SWAP1 POP JUMP JUMPDEST PUSH0 DUP3 DUP3 MSTORE PUSH1 0x20 DUP3 ADD SWAP1 POP SWAP3 SWAP2 POP POP JUMP JUMPDEST PUSH0 DUP2 SWAP1 POP PUSH1 0x20 DUP3 ADD SWAP1 POP SWAP2 SWAP1 POP JUMP JUMPDEST PUSH0 PUSH2 0x46AB DUP4 DUP4 PUSH2 0x4659 JUMP JUMPDEST PUSH1 0x20 DUP4 ADD SWAP1 POP SWAP3 SWAP2 POP POP JUMP JUMPDEST PUSH0 PUSH1 0x20 DUP3 ADD SWAP1 POP SWAP2 SWAP1 POP JUMP JUMPDEST PUSH0 PUSH2 0x46CD DUP3 PUSH2 0x4677 JUMP JUMPDEST PUSH2 0x46D7 DUP2 DUP6 PUSH2 0x4681 JUMP JUMPDEST SWAP4 POP PUSH2 0x46E2 DUP4 PUSH2 0x4691 JUMP JUMPDEST DUP1 PUSH0 JUMPDEST DUP4 DUP2 LT ISZERO PUSH2 0x4712 JUMPI DUP2 MLOAD PUSH2 0x46F9 DUP9 DUP3 PUSH2 0x46A0 JUMP JUMPDEST SWAP8 POP PUSH2 0x4704 DUP4 PUSH2 0x46B7 JUMP JUMPDEST SWAP3 POP POP PUSH1 0x1 DUP2 ADD SWAP1 POP PUSH2 0x46E5 JUMP JUMPDEST POP DUP6 SWAP4 POP POP POP POP SWAP3 SWAP2 POP POP JUMP JUMPDEST PUSH0 PUSH2 0x1A0 DUP4 ADD PUSH0 DUP4 ADD MLOAD PUSH2 0x4735 PUSH0 DUP7 ADD DUP3 PUSH2 0x4602 JUMP JUMPDEST POP PUSH1 0x20 DUP4 ADD MLOAD DUP5 DUP3 SUB PUSH1 0x20 DUP7 ADD MSTORE PUSH2 0x474D DUP3 DUP3 PUSH2 0x4621 JUMP JUMPDEST SWAP2 POP POP PUSH1 0x40 DUP4 ADD MLOAD DUP5 DUP3 SUB PUSH1 0x40 DUP7 ADD MSTORE PUSH2 0x4767 DUP3 DUP3 PUSH2 0x4621 JUMP JUMPDEST SWAP2 POP POP PUSH1 0x60 DUP4 ADD MLOAD PUSH2 0x477C PUSH1 0x60 DUP7 ADD DUP3 PUSH2 0x4602 JUMP JUMPDEST POP PUSH1 0x80 DUP4 ADD MLOAD PUSH2 0x478F PUSH1 0x80 DUP7 ADD DUP3 PUSH2 0x4602 JUMP JUMPDEST POP PUSH1 0xA0 DUP4 ADD MLOAD PUSH2 0x47A2 PUSH1 0xA0 DUP7 ADD DUP3 PUSH2 0x4602 JUMP JUMPDEST POP PUSH1 0xC0 DUP4 ADD MLOAD PUSH2 0x47B5 PUSH1 0xC0 DUP7 ADD DUP3 PUSH2 0x4659 JUMP JUMPDEST POP PUSH1 0xE0 DUP4 ADD MLOAD PUSH2 0x47C8 PUSH1 0xE0 DUP7 ADD DUP3 PUSH2 0x4659 JUMP JUMPDEST POP PUSH2 0x100 DUP4 ADD MLOAD PUSH2 0x47DD PUSH2 0x100 DUP7 ADD DUP3 PUSH2 0x4668 JUMP JUMPDEST POP PUSH2 0x120 DUP4 ADD MLOAD PUSH2 0x47F2 PUSH2 0x120 DUP7 ADD DUP3 PUSH2 0x4668 JUMP JUMPDEST POP PUSH2 0x140 DUP4 ADD MLOAD PUSH2 0x4807 PUSH2 0x140 DUP7 ADD DUP3 PUSH2 0x4668 JUMP JUMPDEST POP PUSH2 0x160 DUP4 ADD MLOAD PUSH2 0x481C PUSH2 0x160 DUP7 ADD DUP3 PUSH2 0x4602 JUMP JUMPDEST POP PUSH2 0x180 DUP4 ADD MLOAD DUP5 DUP3 SUB PUSH2 0x180 DUP7 ADD MSTORE PUSH2 0x4836 DUP3 DUP3 PUSH2 0x46C3 JUMP JUMPDEST SWAP2 POP POP DUP1 SWAP2 POP POP SWAP3 SWAP2 POP POP JUMP JUMPDEST PUSH0 PUSH1 0x20 DUP3 ADD SWAP1 POP DUP2 DUP2 SUB PUSH0 DUP4 ADD MSTORE PUSH2 0x485B DUP2 DUP5 PUSH2 0x471F JUMP JUMPDEST SWAP1 POP SWAP3 SWAP2 POP POP JUMP JUMPDEST PUSH0 DUP2 SWAP1 POP SWAP2 SWAP1 POP JUMP JUMPDEST PUSH0 PUSH2 0x4886 PUSH2 0x4881 PUSH2 0x487C DUP5 PUSH2 0x4345 JUMP JUMPDEST PUSH2 0x4863 JUMP JUMPDEST PUSH2 0x4345 JUMP JUMPDEST SWAP1 POP SWAP2 SWAP1 POP JUMP JUMPDEST PUSH0 PUSH2 0x4897 DUP3 PUSH2 0x486C JUMP JUMPDEST SWAP1 POP SWAP2 SWAP1 POP JUMP JUMPDEST PUSH0 PUSH2 0x48A8 DUP3 PUSH2 0x488D JUMP JUMPDEST SWAP1 POP SWAP2 SWAP1 POP JUMP JUMPDEST PUSH2 0x48B8 DUP2 PUSH2 0x489E JUMP JUMPDEST DUP3 MSTORE POP POP JUMP JUMPDEST PUSH0 PUSH1 0x20 DUP3 ADD SWAP1 POP PUSH2 0x48D1 PUSH0 DUP4 ADD DUP5 PUSH2 0x48AF JUMP JUMPDEST SWAP3 SWAP2 POP POP JUMP JUMPDEST PUSH32 0x4E487B7100000000000000000000000000000000000000000000000000000000 PUSH0 MSTORE PUSH1 0x22 PUSH1 0x4 MSTORE PUSH1 0x24 PUSH0 REVERT JUMPDEST PUSH0 PUSH1 0x2 DUP3 DIV SWAP1 POP PUSH1 0x1 DUP3 AND DUP1 PUSH2 0x491B JUMPI PUSH1 0x7F DUP3 AND SWAP2 POP JUMPDEST PUSH1 0x20 DUP3 LT DUP2 SUB PUSH2 0x492E JUMPI PUSH2 0x492D PUSH2 0x48D7 JUMP JUMPDEST JUMPDEST POP SWAP2 SWAP1 POP JUMP JUMPDEST PUSH32 0x4465626573206861626572746520696E73637269746F20636F6D6F2070617274 PUSH0 DUP3 ADD MSTORE PUSH32 0x69636970616E746520616E746572696F726D656E74652E000000000000000000 PUSH1 0x20 DUP3 ADD MSTORE POP JUMP JUMPDEST PUSH0 PUSH2 0x498E PUSH1 0x37 DUP4 PUSH2 0x42DF JUMP JUMPDEST SWAP2 POP PUSH2 0x4999 DUP3 PUSH2 0x4934 JUMP JUMPDEST PUSH1 0x40 DUP3 ADD SWAP1 POP SWAP2 SWAP1 POP JUMP JUMPDEST PUSH0 PUSH1 0x20 DUP3 ADD SWAP1 POP DUP2 DUP2 SUB PUSH0 DUP4 ADD MSTORE PUSH2 0x49BB DUP2 PUSH2 0x4982 JUMP JUMPDEST SWAP1 POP SWAP2 SWAP1 POP JUMP JUMPDEST PUSH32 0x4E487B7100000000000000000000000000000000000000000000000000000000 PUSH0 MSTORE PUSH1 0x11 PUSH1 0x4 MSTORE PUSH1 0x24 PUSH0 REVERT JUMPDEST PUSH0 PUSH2 0x49F9 DUP3 PUSH2 0x4268 JUMP JUMPDEST SWAP2 POP PUSH0 DUP3 SUB PUSH2 0x4A0B JUMPI PUSH2 0x4A0A PUSH2 0x49C2 JUMP JUMPDEST JUMPDEST PUSH1 0x1 DUP3 SUB SWAP1 POP SWAP2 SWAP1 POP JUMP JUMPDEST PUSH32 0x4C6120766F746163696F6E207469656E65207175652065737461722061626965 PUSH0 DUP3 ADD MSTORE PUSH32 0x7274610000000000000000000000000000000000000000000000000000000000 PUSH1 0x20 DUP3 ADD MSTORE POP JUMP JUMPDEST PUSH0 PUSH2 0x4A70 PUSH1 0x23 DUP4 PUSH2 0x42DF JUMP JUMPDEST SWAP2 POP PUSH2 0x4A7B DUP3 PUSH2 0x4A16 JUMP JUMPDEST PUSH1 0x40 DUP3 ADD SWAP1 POP SWAP2 SWAP1 POP JUMP JUMPDEST PUSH0 PUSH1 0x20 DUP3 ADD SWAP1 POP DUP2 DUP2 SUB PUSH0 DUP4 ADD MSTORE PUSH2 0x4A9D DUP2 PUSH2 0x4A64 JUMP JUMPDEST SWAP1 POP SWAP2 SWAP1 POP JUMP JUMPDEST PUSH32 0x4C612070726F7075657374612071756520657374617320706173616E646F206E PUSH0 DUP3 ADD MSTORE PUSH32 0x6F20657869737465000000000000000000000000000000000000000000000000 PUSH1 0x20 DUP3 ADD MSTORE POP JUMP JUMPDEST PUSH0 PUSH2 0x4AFE PUSH1 0x28 DUP4 PUSH2 0x42DF JUMP JUMPDEST SWAP2 POP PUSH2 0x4B09 DUP3 PUSH2 0x4AA4 JUMP JUMPDEST PUSH1 0x40 DUP3 ADD SWAP1 POP SWAP2 SWAP1 POP JUMP JUMPDEST PUSH0 PUSH1 0x20 DUP3 ADD SWAP1 POP DUP2 DUP2 SUB PUSH0 DUP4 ADD MSTORE PUSH2 0x4B2B DUP2 PUSH2 0x4AF2 JUMP JUMPDEST SWAP1 POP SWAP2 SWAP1 POP JUMP JUMPDEST PUSH32 0x4E6F20736520707565646520656A656375746172207369206C612070726F7075 PUSH0 DUP3 ADD MSTORE PUSH32 0x65737461207961206861207369646F2063616E63656C61646100000000000000 PUSH1 0x20 DUP3 ADD MSTORE POP JUMP JUMPDEST PUSH0 PUSH2 0x4B8C PUSH1 0x39 DUP4 PUSH2 0x42DF JUMP JUMPDEST SWAP2 POP PUSH2 0x4B97 DUP3 PUSH2 0x4B32 JUMP JUMPDEST PUSH1 0x40 DUP3 ADD SWAP1 POP SWAP2 SWAP1 POP JUMP JUMPDEST PUSH0 PUSH1 0x20 DUP3 ADD SWAP1 POP DUP2 DUP2 SUB PUSH0 DUP4 ADD MSTORE PUSH2 0x4BB9 DUP2 PUSH2 0x4B80 JUMP JUMPDEST SWAP1 POP SWAP2 SWAP1 POP JUMP JUMPDEST PUSH32 0x4C612070726F707565737461207961206861207369646F206170726F62616461 PUSH0 DUP3 ADD MSTORE PUSH32 0x2079206E6F2070756564657320656A656375746172206C612066756E63696F6E PUSH1 0x20 DUP3 ADD MSTORE PUSH32 0x2E00000000000000000000000000000000000000000000000000000000000000 PUSH1 0x40 DUP3 ADD MSTORE POP JUMP JUMPDEST PUSH0 PUSH2 0x4C40 PUSH1 0x41 DUP4 PUSH2 0x42DF JUMP JUMPDEST SWAP2 POP PUSH2 0x4C4B DUP3 PUSH2 0x4BC0 JUMP JUMPDEST PUSH1 0x60 DUP3 ADD SWAP1 POP SWAP2 SWAP1 POP JUMP JUMPDEST PUSH0 PUSH1 0x20 DUP3 ADD SWAP1 POP DUP2 DUP2 SUB PUSH0 DUP4 ADD MSTORE PUSH2 0x4C6D DUP2 PUSH2 0x4C34 JUMP JUMPDEST SWAP1 POP SWAP2 SWAP1 POP JUMP JUMPDEST PUSH32 0x4E65636573697461732064656A617220756E20766F746F20706F72206C6F206D PUSH0 DUP3 ADD MSTORE PUSH32 0x656E6F732E000000000000000000000000000000000000000000000000000000 PUSH1 0x20 DUP3 ADD MSTORE POP JUMP JUMPDEST PUSH0 PUSH2 0x4CCE PUSH1 0x25 DUP4 PUSH2 0x42DF JUMP JUMPDEST SWAP2 POP PUSH2 0x4CD9 DUP3 PUSH2 0x4C74 JUMP JUMPDEST PUSH1 0x40 DUP3 ADD SWAP1 POP SWAP2 SWAP1 POP JUMP JUMPDEST PUSH0 PUSH1 0x20 DUP3 ADD SWAP1 POP DUP2 DUP2 SUB PUSH0 DUP4 ADD MSTORE PUSH2 0x4CFB DUP2 PUSH2 0x4CC2 JUMP JUMPDEST SWAP1 POP SWAP2 SWAP1 POP JUMP JUMPDEST PUSH32 0x457374617320696E74656E74616E646F2072657469726172206D617320766F74 PUSH0 DUP3 ADD MSTORE PUSH32 0x6F73206465206C6F732071756520686173207265616C697A61646F0000000000 PUSH1 0x20 DUP3 ADD MSTORE POP JUMP JUMPDEST PUSH0 PUSH2 0x4D5C PUSH1 0x3B DUP4 PUSH2 0x42DF JUMP JUMPDEST SWAP2 POP PUSH2 0x4D67 DUP3 PUSH2 0x4D02 JUMP JUMPDEST PUSH1 0x40 DUP3 ADD SWAP1 POP SWAP2 SWAP1 POP JUMP JUMPDEST PUSH0 PUSH1 0x20 DUP3 ADD SWAP1 POP DUP2 DUP2 SUB PUSH0 DUP4 ADD MSTORE PUSH2 0x4D89 DUP2 PUSH2 0x4D50 JUMP JUMPDEST SWAP1 POP SWAP2 SWAP1 POP JUMP JUMPDEST PUSH0 PUSH2 0x4D9A DUP3 PUSH2 0x4268 JUMP JUMPDEST SWAP2 POP PUSH2 0x4DA5 DUP4 PUSH2 0x4268 JUMP JUMPDEST SWAP3 POP DUP3 DUP3 SUB SWAP1 POP DUP2 DUP2 GT ISZERO PUSH2 0x4DBD JUMPI PUSH2 0x4DBC PUSH2 0x49C2 JUMP JUMPDEST JUMPDEST SWAP3 SWAP2 POP POP JUMP JUMPDEST PUSH0 PUSH2 0x4DCD DUP3 PUSH2 0x4268 JUMP JUMPDEST SWAP2 POP PUSH2 0x4DD8 DUP4 PUSH2 0x4268 JUMP JUMPDEST SWAP3 POP DUP3 DUP3 MUL PUSH2 0x4DE6 DUP2 PUSH2 0x4268 JUMP JUMPDEST SWAP2 POP DUP3 DUP3 DIV DUP5 EQ DUP4 ISZERO OR PUSH2 0x4DFD JUMPI PUSH2 0x4DFC PUSH2 0x49C2 JUMP JUMPDEST JUMPDEST POP SWAP3 SWAP2 POP POP JUMP JUMPDEST PUSH0 DUP2 MLOAD SWAP1 POP PUSH2 0x4E12 DUP2 PUSH2 0x4271 JUMP JUMPDEST SWAP3 SWAP2 POP POP JUMP JUMPDEST PUSH0 PUSH1 0x20 DUP3 DUP5 SUB SLT ISZERO PUSH2 0x4E2D JUMPI PUSH2 0x4E2C PUSH2 0x4260 JUMP JUMPDEST JUMPDEST PUSH0 PUSH2 0x4E3A DUP5 DUP3 DUP6 ADD PUSH2 0x4E04 JUMP JUMPDEST SWAP2 POP POP SWAP3 SWAP2 POP POP JUMP JUMPDEST PUSH32 0x4E6F2074656E656D6F7320737566696369656E74657320746F6B656E73207061 PUSH0 DUP3 ADD MSTORE PUSH32 0x726120726574697261726C6F7300000000000000000000000000000000000000 PUSH1 0x20 DUP3 ADD MSTORE POP JUMP JUMPDEST PUSH0 PUSH2 0x4E9D PUSH1 0x2D DUP4 PUSH2 0x42DF JUMP JUMPDEST SWAP2 POP PUSH2 0x4EA8 DUP3 PUSH2 0x4E43 JUMP JUMPDEST PUSH1 0x40 DUP3 ADD SWAP1 POP SWAP2 SWAP1 POP JUMP JUMPDEST PUSH0 PUSH1 0x20 DUP3 ADD SWAP1 POP DUP2 DUP2 SUB PUSH0 DUP4 ADD MSTORE PUSH2 0x4ECA DUP2 PUSH2 0x4E91 JUMP JUMPDEST SWAP1 POP SWAP2 SWAP1 POP JUMP JUMPDEST PUSH0 PUSH1 0x40 DUP3 ADD SWAP1 POP PUSH2 0x4EE4 PUSH0 DUP4 ADD DUP6 PUSH2 0x4375 JUMP JUMPDEST PUSH2 0x4EF1 PUSH1 0x20 DUP4 ADD DUP5 PUSH2 0x42C6 JUMP JUMPDEST SWAP4 SWAP3 POP POP POP JUMP JUMPDEST PUSH2 0x4F01 DUP2 PUSH2 0x4384 JUMP JUMPDEST DUP2 EQ PUSH2 0x4F0B JUMPI PUSH0 DUP1 REVERT JUMPDEST POP JUMP JUMPDEST PUSH0 DUP2 MLOAD SWAP1 POP PUSH2 0x4F1C DUP2 PUSH2 0x4EF8 JUMP JUMPDEST SWAP3 SWAP2 POP POP JUMP JUMPDEST PUSH0 PUSH1 0x20 DUP3 DUP5 SUB SLT ISZERO PUSH2 0x4F37 JUMPI PUSH2 0x4F36 PUSH2 0x4260 JUMP JUMPDEST JUMPDEST PUSH0 PUSH2 0x4F44 DUP5 DUP3 DUP6 ADD PUSH2 0x4F0E JUMP JUMPDEST SWAP2 POP POP SWAP3 SWAP2 POP POP JUMP JUMPDEST PUSH32 0x4C61207472616E73666572656E63696120646520546F6B656E73206861206661 PUSH0 DUP3 ADD MSTORE PUSH32 0x6C6C61646F000000000000000000000000000000000000000000000000000000 PUSH1 0x20 DUP3 ADD MSTORE POP JUMP JUMPDEST PUSH0 PUSH2 0x4FA7 PUSH1 0x25 DUP4 PUSH2 0x42DF JUMP JUMPDEST SWAP2 POP PUSH2 0x4FB2 DUP3 PUSH2 0x4F4D JUMP JUMPDEST PUSH1 0x40 DUP3 ADD SWAP1 POP SWAP2 SWAP1 POP JUMP JUMPDEST PUSH0 PUSH1 0x20 DUP3 ADD SWAP1 POP DUP2 DUP2 SUB PUSH0 DUP4 ADD MSTORE PUSH2 0x4FD4 DUP2 PUSH2 0x4F9B JUMP JUMPDEST SWAP1 POP SWAP2 SWAP1 POP JUMP JUMPDEST PUSH32 0x4E487B7100000000000000000000000000000000000000000000000000000000 PUSH0 MSTORE PUSH1 0x32 PUSH1 0x4 MSTORE PUSH1 0x24 PUSH0 REVERT JUMPDEST PUSH32 0x4E487B7100000000000000000000000000000000000000000000000000000000 PUSH0 MSTORE PUSH1 0x31 PUSH1 0x4 MSTORE PUSH1 0x24 PUSH0 REVERT JUMPDEST PUSH32 0x4E6F207075656465732076656E64657220756E612063616E746964616420696E PUSH0 DUP3 ADD MSTORE PUSH32 0x666572696F722061203120746F6B656E2E000000000000000000000000000000 PUSH1 0x20 DUP3 ADD MSTORE POP JUMP JUMPDEST PUSH0 PUSH2 0x508F PUSH1 0x31 DUP4 PUSH2 0x42DF JUMP JUMPDEST SWAP2 POP PUSH2 0x509A DUP3 PUSH2 0x5035 JUMP JUMPDEST PUSH1 0x40 DUP3 ADD SWAP1 POP SWAP2 SWAP1 POP JUMP JUMPDEST PUSH0 PUSH1 0x20 DUP3 ADD SWAP1 POP DUP2 DUP2 SUB PUSH0 DUP4 ADD MSTORE PUSH2 0x50BC DUP2 PUSH2 0x5083 JUMP JUMPDEST SWAP1 POP SWAP2 SWAP1 POP JUMP JUMPDEST PUSH32 0x4E6F207075656465732076656E646572206D617320746F6B656E73206465206C PUSH0 DUP3 ADD MSTORE PUSH32 0x6F732071756520706F7365657300000000000000000000000000000000000000 PUSH1 0x20 DUP3 ADD MSTORE POP JUMP JUMPDEST PUSH0 PUSH2 0x511D PUSH1 0x2D DUP4 PUSH2 0x42DF JUMP JUMPDEST SWAP2 POP PUSH2 0x5128 DUP3 PUSH2 0x50C3 JUMP JUMPDEST PUSH1 0x40 DUP3 ADD SWAP1 POP SWAP2 SWAP1 POP JUMP JUMPDEST PUSH0 PUSH1 0x20 DUP3 ADD SWAP1 POP DUP2 DUP2 SUB PUSH0 DUP4 ADD MSTORE PUSH2 0x514A DUP2 PUSH2 0x5111 JUMP JUMPDEST SWAP1 POP SWAP2 SWAP1 POP JUMP JUMPDEST PUSH32 0x456C20636F6E747261746F206E6F207469656E65207265637572736F73207061 PUSH0 DUP3 ADD MSTORE PUSH32 0x7261206465766F6C766572746520656C2045746865722E000000000000000000 PUSH1 0x20 DUP3 ADD MSTORE POP JUMP JUMPDEST PUSH0 PUSH2 0x51AB PUSH1 0x37 DUP4 PUSH2 0x42DF JUMP JUMPDEST SWAP2 POP PUSH2 0x51B6 DUP3 PUSH2 0x5151 JUMP JUMPDEST PUSH1 0x40 DUP3 ADD SWAP1 POP SWAP2 SWAP1 POP JUMP JUMPDEST PUSH0 PUSH1 0x20 DUP3 ADD SWAP1 POP DUP2 DUP2 SUB PUSH0 DUP4 ADD MSTORE PUSH2 0x51D8 DUP2 PUSH2 0x519F JUMP JUMPDEST SWAP1 POP SWAP2 SWAP1 POP JUMP JUMPDEST PUSH0 DUP2 SWAP1 POP SWAP3 SWAP2 POP POP JUMP JUMPDEST POP JUMP JUMPDEST PUSH0 PUSH2 0x51F7 PUSH0 DUP4 PUSH2 0x51DF JUMP JUMPDEST SWAP2 POP PUSH2 0x5202 DUP3 PUSH2 0x51E9 JUMP JUMPDEST PUSH0 DUP3 ADD SWAP1 POP SWAP2 SWAP1 POP JUMP JUMPDEST PUSH0 PUSH2 0x5216 DUP3 PUSH2 0x51EC JUMP JUMPDEST SWAP2 POP DUP2 SWAP1 POP SWAP2 SWAP1 POP JUMP JUMPDEST PUSH32 0x4C61207472616E73666572656E63696120646520457468657220616C20706172 PUSH0 DUP3 ADD MSTORE PUSH32 0x7469636970616E74652068612066616C6C61646F2E0000000000000000000000 PUSH1 0x20 DUP3 ADD MSTORE POP JUMP JUMPDEST PUSH0 PUSH2 0x527A PUSH1 0x35 DUP4 PUSH2 0x42DF JUMP JUMPDEST SWAP2 POP PUSH2 0x5285 DUP3 PUSH2 0x5220 JUMP JUMPDEST PUSH1 0x40 DUP3 ADD SWAP1 POP SWAP2 SWAP1 POP JUMP JUMPDEST PUSH0 PUSH1 0x20 DUP3 ADD SWAP1 POP DUP2 DUP2 SUB PUSH0 DUP4 ADD MSTORE PUSH2 0x52A7 DUP2 PUSH2 0x526E JUMP JUMPDEST SWAP1 POP SWAP2 SWAP1 POP JUMP JUMPDEST PUSH32 0x4E6F20707565646573206465706F7369746172206D656E6F7320646520312076 PUSH0 DUP3 ADD MSTORE PUSH32 0x6F746F2E20436F6D6F20766173206120766F7461722073696E20766F7461723F PUSH1 0x20 DUP3 ADD MSTORE POP JUMP JUMPDEST PUSH0 PUSH2 0x5308 PUSH1 0x40 DUP4 PUSH2 0x42DF JUMP JUMPDEST SWAP2 POP PUSH2 0x5313 DUP3 PUSH2 0x52AE JUMP JUMPDEST PUSH1 0x40 DUP3 ADD SWAP1 POP SWAP2 SWAP1 POP JUMP JUMPDEST PUSH0 PUSH1 0x20 DUP3 ADD SWAP1 POP DUP2 DUP2 SUB PUSH0 DUP4 ADD MSTORE PUSH2 0x5335 DUP2 PUSH2 0x52FC JUMP JUMPDEST SWAP1 POP SWAP2 SWAP1 POP JUMP JUMPDEST PUSH0 PUSH2 0x5346 DUP3 PUSH2 0x4268 JUMP JUMPDEST SWAP2 POP PUSH2 0x5351 DUP4 PUSH2 0x4268 JUMP JUMPDEST SWAP3 POP DUP3 DUP3 ADD SWAP1 POP DUP1 DUP3 GT ISZERO PUSH2 0x5369 JUMPI PUSH2 0x5368 PUSH2 0x49C2 JUMP JUMPDEST JUMPDEST SWAP3 SWAP2 POP POP JUMP JUMPDEST PUSH0 PUSH1 0x40 DUP3 ADD SWAP1 POP PUSH2 0x5382 PUSH0 DUP4 ADD DUP6 PUSH2 0x4375 JUMP JUMPDEST PUSH2 0x538F PUSH1 0x20 DUP4 ADD DUP5 PUSH2 0x4375 JUMP JUMPDEST SWAP4 SWAP3 POP POP POP JUMP JUMPDEST PUSH32 0x4E6F207469656E657320737566696369656E74657320746F6B656E7320706172 PUSH0 DUP3 ADD MSTORE PUSH32 0x6120766F74617200000000000000000000000000000000000000000000000000 PUSH1 0x20 DUP3 ADD MSTORE POP JUMP JUMPDEST PUSH0 PUSH2 0x53F0 PUSH1 0x27 DUP4 PUSH2 0x42DF JUMP JUMPDEST SWAP2 POP PUSH2 0x53FB DUP3 PUSH2 0x5396 JUMP JUMPDEST PUSH1 0x40 DUP3 ADD SWAP1 POP SWAP2 SWAP1 POP JUMP JUMPDEST PUSH0 PUSH1 0x20 DUP3 ADD SWAP1 POP DUP2 DUP2 SUB PUSH0 DUP4 ADD MSTORE PUSH2 0x541D DUP2 PUSH2 0x53E4 JUMP JUMPDEST SWAP1 POP SWAP2 SWAP1 POP JUMP JUMPDEST PUSH0 PUSH1 0x60 DUP3 ADD SWAP1 POP PUSH2 0x5437 PUSH0 DUP4 ADD DUP7 PUSH2 0x4375 JUMP JUMPDEST PUSH2 0x5444 PUSH1 0x20 DUP4 ADD DUP6 PUSH2 0x4375 JUMP JUMPDEST PUSH2 0x5451 PUSH1 0x40 DUP4 ADD DUP5 PUSH2 0x42C6 JUMP JUMPDEST SWAP5 SWAP4 POP POP POP POP JUMP JUMPDEST PUSH32 0x4C6120646972656363696F6E2064656C20636F6E747261746F206E6F20657320 PUSH0 DUP3 ADD MSTORE PUSH32 0x76616C6964610000000000000000000000000000000000000000000000000000 PUSH1 0x20 DUP3 ADD MSTORE POP JUMP JUMPDEST PUSH0 PUSH2 0x54B3 PUSH1 0x26 DUP4 PUSH2 0x42DF JUMP JUMPDEST SWAP2 POP PUSH2 0x54BE DUP3 PUSH2 0x5459 JUMP JUMPDEST PUSH1 0x40 DUP3 ADD SWAP1 POP SWAP2 SWAP1 POP JUMP JUMPDEST PUSH0 PUSH1 0x20 DUP3 ADD SWAP1 POP DUP2 DUP2 SUB PUSH0 DUP4 ADD MSTORE PUSH2 0x54E0 DUP2 PUSH2 0x54A7 JUMP JUMPDEST SWAP1 POP SWAP2 SWAP1 POP JUMP JUMPDEST PUSH32 0x456C20746974756C6F206465206C612070726F707565737461206E6F20707565 PUSH0 DUP3 ADD MSTORE PUSH32 0x64652073657220766163696F0000000000000000000000000000000000000000 PUSH1 0x20 DUP3 ADD MSTORE POP JUMP JUMPDEST PUSH0 PUSH2 0x5541 PUSH1 0x2C DUP4 PUSH2 0x42DF JUMP JUMPDEST SWAP2 POP PUSH2 0x554C DUP3 PUSH2 0x54E7 JUMP JUMPDEST PUSH1 0x40 DUP3 ADD SWAP1 POP SWAP2 SWAP1 POP JUMP JUMPDEST PUSH0 PUSH1 0x20 DUP3 ADD SWAP1 POP DUP2 DUP2 SUB PUSH0 DUP4 ADD MSTORE PUSH2 0x556E DUP2 PUSH2 0x5535 JUMP JUMPDEST SWAP1 POP SWAP2 SWAP1 POP JUMP JUMPDEST PUSH32 0x4C61206465736372697063696F6E206465206C612070726F707565737461206E PUSH0 DUP3 ADD MSTORE PUSH32 0x6F20707565646520736572207661636961000000000000000000000000000000 PUSH1 0x20 DUP3 ADD MSTORE POP JUMP JUMPDEST PUSH0 PUSH2 0x55CF PUSH1 0x31 DUP4 PUSH2 0x42DF JUMP JUMPDEST SWAP2 POP PUSH2 0x55DA DUP3 PUSH2 0x5575 JUMP JUMPDEST PUSH1 0x40 DUP3 ADD SWAP1 POP SWAP2 SWAP1 POP JUMP JUMPDEST PUSH0 PUSH1 0x20 DUP3 ADD SWAP1 POP DUP2 DUP2 SUB PUSH0 DUP4 ADD MSTORE PUSH2 0x55FC DUP2 PUSH2 0x55C3 JUMP JUMPDEST SWAP1 POP SWAP2 SWAP1 POP JUMP JUMPDEST PUSH0 PUSH2 0x560D DUP3 PUSH2 0x4268 JUMP JUMPDEST SWAP2 POP PUSH32 0xFFFFFFFFFFFFFFFFFFFFFFFFFFFFFFFFFFFFFFFFFFFFFFFFFFFFFFFFFFFFFFFF DUP3 SUB PUSH2 0x563F JUMPI PUSH2 0x563E PUSH2 0x49C2 JUMP JUMPDEST JUMPDEST PUSH1 0x1 DUP3 ADD SWAP1 POP SWAP2 SWAP1 POP JUMP JUMPDEST PUSH0 DUP3 SWAP1 POP SWAP3 SWAP2 POP POP JUMP JUMPDEST PUSH32 0x4E487B7100000000000000000000000000000000000000000000000000000000 PUSH0 MSTORE PUSH1 0x41 PUSH1 0x4 MSTORE PUSH1 0x24 PUSH0 REVERT JUMPDEST PUSH0 DUP2 SWAP1 POP DUP2 PUSH0 MSTORE PUSH1 0x20 PUSH0 KECCAK256 SWAP1 POP SWAP2 SWAP1 POP JUMP JUMPDEST PUSH0 PUSH1 0x20 PUSH1 0x1F DUP4 ADD DIV SWAP1 POP SWAP2 SWAP1 POP JUMP JUMPDEST PUSH0 DUP3 DUP3 SHL SWAP1 POP SWAP3 SWAP2 POP POP JUMP JUMPDEST PUSH0 PUSH1 0x8 DUP4 MUL PUSH2 0x56DD PUSH32 0xFFFFFFFFFFFFFFFFFFFFFFFFFFFFFFFFFFFFFFFFFFFFFFFFFFFFFFFFFFFFFFFF DUP3 PUSH2 0x56A2 JUMP JUMPDEST PUSH2 0x56E7 DUP7 DUP4 PUSH2 0x56A2 JUMP JUMPDEST SWAP6 POP DUP1 NOT DUP5 AND SWAP4 POP DUP1 DUP7 AND DUP5 OR SWAP3 POP POP POP SWAP4 SWAP3 POP POP POP JUMP JUMPDEST PUSH0 PUSH2 0x5719 PUSH2 0x5714 PUSH2 0x570F DUP5 PUSH2 0x4268 JUMP JUMPDEST PUSH2 0x4863 JUMP JUMPDEST PUSH2 0x4268 JUMP JUMPDEST SWAP1 POP SWAP2 SWAP1 POP JUMP JUMPDEST PUSH0 DUP2 SWAP1 POP SWAP2 SWAP1 POP JUMP JUMPDEST PUSH2 0x5732 DUP4 PUSH2 0x56FF JUMP JUMPDEST PUSH2 0x5746 PUSH2 0x573E DUP3 PUSH2 0x5720 JUMP JUMPDEST DUP5 DUP5 SLOAD PUSH2 0x56AE JUMP JUMPDEST DUP3 SSTORE POP POP POP POP JUMP JUMPDEST PUSH0 SWAP1 JUMP JUMPDEST PUSH2 0x575A PUSH2 0x574E JUMP JUMPDEST PUSH2 0x5765 DUP2 DUP5 DUP5 PUSH2 0x5729 JUMP JUMPDEST POP POP POP JUMP JUMPDEST JUMPDEST DUP2 DUP2 LT ISZERO PUSH2 0x5788 JUMPI PUSH2 0x577D PUSH0 DUP3 PUSH2 0x5752 JUMP JUMPDEST PUSH1 0x1 DUP2 ADD SWAP1 POP PUSH2 0x576B JUMP JUMPDEST POP POP JUMP JUMPDEST PUSH1 0x1F DUP3 GT ISZERO PUSH2 0x57CD JUMPI PUSH2 0x579E DUP2 PUSH2 0x5681 JUMP JUMPDEST PUSH2 0x57A7 DUP5 PUSH2 0x5693 JUMP JUMPDEST DUP2 ADD PUSH1 0x20 DUP6 LT ISZERO PUSH2 0x57B6 JUMPI DUP2 SWAP1 POP JUMPDEST PUSH2 0x57CA PUSH2 0x57C2 DUP6 PUSH2 0x5693 JUMP JUMPDEST DUP4 ADD DUP3 PUSH2 0x576A JUMP JUMPDEST POP POP JUMPDEST POP POP POP JUMP JUMPDEST PUSH0 DUP3 DUP3 SHR SWAP1 POP SWAP3 SWAP2 POP POP JUMP JUMPDEST PUSH0 PUSH2 0x57ED PUSH0 NOT DUP5 PUSH1 0x8 MUL PUSH2 0x57D2 JUMP JUMPDEST NOT DUP1 DUP4 AND SWAP2 POP POP SWAP3 SWAP2 POP POP JUMP JUMPDEST PUSH0 PUSH2 0x5805 DUP4 DUP4 PUSH2 0x57DE JUMP JUMPDEST SWAP2 POP DUP3 PUSH1 0x2 MUL DUP3 OR SWAP1 POP SWAP3 SWAP2 POP POP JUMP JUMPDEST PUSH2 0x581F DUP4 DUP4 PUSH2 0x564A JUMP JUMPDEST PUSH8 0xFFFFFFFFFFFFFFFF DUP2 GT ISZERO PUSH2 0x5838 JUMPI PUSH2 0x5837 PUSH2 0x5654 JUMP JUMPDEST JUMPDEST PUSH2 0x5842 DUP3 SLOAD PUSH2 0x4904 JUMP JUMPDEST PUSH2 0x584D DUP3 DUP3 DUP6 PUSH2 0x578C JUMP JUMPDEST PUSH0 PUSH1 0x1F DUP4 GT PUSH1 0x1 DUP2 EQ PUSH2 0x587A JUMPI PUSH0 DUP5 ISZERO PUSH2 0x5868 JUMPI DUP3 DUP8 ADD CALLDATALOAD SWAP1 POP JUMPDEST PUSH2 0x5872 DUP6 DUP3 PUSH2 0x57FA JUMP JUMPDEST DUP7 SSTORE POP PUSH2 0x58D9 JUMP JUMPDEST PUSH1 0x1F NOT DUP5 AND PUSH2 0x5888 DUP7 PUSH2 0x5681 JUMP JUMPDEST PUSH0 JUMPDEST DUP3 DUP2 LT ISZERO PUSH2 0x58AF JUMPI DUP5 DUP10 ADD CALLDATALOAD DUP3 SSTORE PUSH1 0x1 DUP3 ADD SWAP2 POP PUSH1 0x20 DUP6 ADD SWAP5 POP PUSH1 0x20 DUP2 ADD SWAP1 POP PUSH2 0x588A JUMP JUMPDEST DUP7 DUP4 LT ISZERO PUSH2 0x58CC JUMPI DUP5 DUP10 ADD CALLDATALOAD PUSH2 0x58C8 PUSH1 0x1F DUP10 AND DUP3 PUSH2 0x57DE JUMP JUMPDEST DUP4 SSTORE POP JUMPDEST PUSH1 0x1 PUSH1 0x2 DUP9 MUL ADD DUP9 SSTORE POP POP POP JUMPDEST POP POP POP POP POP POP POP JUMP JUMPDEST PUSH32 0x44656265732073657220656C206F776E65722064656C20636F6E747261746F20 PUSH0 DUP3 ADD MSTORE PUSH32 0x7061726120706F646572206861636572206573746F2E00000000000000000000 PUSH1 0x20 DUP3 ADD MSTORE POP JUMP JUMPDEST PUSH0 PUSH2 0x593C PUSH1 0x36 DUP4 PUSH2 0x42DF JUMP JUMPDEST SWAP2 POP PUSH2 0x5947 DUP3 PUSH2 0x58E2 JUMP JUMPDEST PUSH1 0x40 DUP3 ADD SWAP1 POP SWAP2 SWAP1 POP JUMP JUMPDEST PUSH0 PUSH1 0x20 DUP3 ADD SWAP1 POP DUP2 DUP2 SUB PUSH0 DUP4 ADD MSTORE PUSH2 0x5969 DUP2 PUSH2 0x5930 JUMP JUMPDEST SWAP1 POP SWAP2 SWAP1 POP JUMP JUMPDEST PUSH32 0x4C6120766F746163696F6E207961206573746120616269657274612C206E6F20 PUSH0 DUP3 ADD MSTORE PUSH32 0x70756564657320766F6C76657220612061627269726C61000000000000000000 PUSH1 0x20 DUP3 ADD MSTORE POP JUMP JUMPDEST PUSH0 PUSH2 0x59CA PUSH1 0x37 DUP4 PUSH2 0x42DF JUMP JUMPDEST SWAP2 POP PUSH2 0x59D5 DUP3 PUSH2 0x5970 JUMP JUMPDEST PUSH1 0x40 DUP3 ADD SWAP1 POP SWAP2 SWAP1 POP JUMP JUMPDEST PUSH0 PUSH1 0x20 DUP3 ADD SWAP1 POP DUP2 DUP2 SUB PUSH0 DUP4 ADD MSTORE PUSH2 0x59F7 DUP2 PUSH2 0x59BE JUMP JUMPDEST SWAP1 POP SWAP2 SWAP1 POP JUMP JUMPDEST PUSH32 0x456C20707265737570756573746F20696E696369616C20646562652073657220 PUSH0 DUP3 ADD MSTORE PUSH32 0x6D61796F7220717565206365726F000000000000000000000000000000000000 PUSH1 0x20 DUP3 ADD MSTORE POP JUMP JUMPDEST PUSH0 PUSH2 0x5A58 PUSH1 0x2E DUP4 PUSH2 0x42DF JUMP JUMPDEST SWAP2 POP PUSH2 0x5A63 DUP3 PUSH2 0x59FE JUMP JUMPDEST PUSH1 0x40 DUP3 ADD SWAP1 POP SWAP2 SWAP1 POP JUMP JUMPDEST PUSH0 PUSH1 0x20 DUP3 ADD SWAP1 POP DUP2 DUP2 SUB PUSH0 DUP4 ADD MSTORE PUSH2 0x5A85 DUP2 PUSH2 0x5A4C JUMP JUMPDEST SWAP1 POP SWAP2 SWAP1 POP JUMP JUMPDEST PUSH0 PUSH1 0x60 DUP3 ADD SWAP1 POP PUSH2 0x5A9F PUSH0 DUP4 ADD DUP7 PUSH2 0x42C6 JUMP JUMPDEST PUSH2 0x5AAC PUSH1 0x20 DUP4 ADD DUP6 PUSH2 0x42C6 JUMP JUMPDEST PUSH2 0x5AB9 PUSH1 0x40 DUP4 ADD DUP5 PUSH2 0x42C6 JUMP JUMPDEST SWAP5 SWAP4 POP POP POP POP JUMP JUMPDEST PUSH0 DUP2 MLOAD SWAP1 POP SWAP2 SWAP1 POP JUMP JUMPDEST PUSH0 PUSH2 0x5AD5 DUP3 PUSH2 0x5AC1 JUMP JUMPDEST PUSH2 0x5ADF DUP2 DUP6 PUSH2 0x51DF JUMP JUMPDEST SWAP4 POP PUSH2 0x5AEF DUP2 DUP6 PUSH1 0x20 DUP7 ADD PUSH2 0x42EF JUMP JUMPDEST DUP1 DUP5 ADD SWAP2 POP POP SWAP3 SWAP2 POP POP JUMP JUMPDEST PUSH0 PUSH2 0x5B06 DUP3 DUP5 PUSH2 0x5ACB JUMP JUMPDEST SWAP2 POP DUP2 SWAP1 POP SWAP3 SWAP2 POP POP JUMP JUMPDEST PUSH32 0x4C61207472616E73666572656E6369612064656C20707265737570756573746F PUSH0 DUP3 ADD MSTORE PUSH32 0x2068612066616C6C61646F2E0000000000000000000000000000000000000000 PUSH1 0x20 DUP3 ADD MSTORE POP JUMP JUMPDEST PUSH0 PUSH2 0x5B6B PUSH1 0x2C DUP4 PUSH2 0x42DF JUMP JUMPDEST SWAP2 POP PUSH2 0x5B76 DUP3 PUSH2 0x5B11 JUMP JUMPDEST PUSH1 0x40 DUP3 ADD SWAP1 POP SWAP2 SWAP1 POP JUMP JUMPDEST PUSH0 PUSH1 0x20 DUP3 ADD SWAP1 POP DUP2 DUP2 SUB PUSH0 DUP4 ADD MSTORE PUSH2 0x5B98 DUP2 PUSH2 0x5B5F JUMP JUMPDEST SWAP1 POP SWAP2 SWAP1 POP JUMP JUMPDEST PUSH32 0x446562657320656E7669617220656C204574686572206E656365736172696F20 PUSH0 DUP3 ADD MSTORE PUSH32 0x7061726120706F64657220636F6D7072617220616C206D656E6F7320756E2074 PUSH1 0x20 DUP3 ADD MSTORE PUSH32 0x6F6B656E2E000000000000000000000000000000000000000000000000000000 PUSH1 0x40 DUP3 ADD MSTORE POP JUMP JUMPDEST PUSH0 PUSH2 0x5C1F PUSH1 0x45 DUP4 PUSH2 0x42DF JUMP JUMPDEST SWAP2 POP PUSH2 0x5C2A DUP3 PUSH2 0x5B9F JUMP JUMPDEST PUSH1 0x60 DUP3 ADD SWAP1 POP SWAP2 SWAP1 POP JUMP JUMPDEST PUSH0 PUSH1 0x20 DUP3 ADD SWAP1 POP DUP2 DUP2 SUB PUSH0 DUP4 ADD MSTORE PUSH2 0x5C4C DUP2 PUSH2 0x5C13 JUMP JUMPDEST SWAP1 POP SWAP2 SWAP1 POP JUMP JUMPDEST PUSH32 0x4E487B7100000000000000000000000000000000000000000000000000000000 PUSH0 MSTORE PUSH1 0x12 PUSH1 0x4 MSTORE PUSH1 0x24 PUSH0 REVERT JUMPDEST PUSH0 PUSH2 0x5C8A DUP3 PUSH2 0x4268 JUMP JUMPDEST SWAP2 POP PUSH2 0x5C95 DUP4 PUSH2 0x4268 JUMP JUMPDEST SWAP3 POP DUP3 PUSH2 0x5CA5 JUMPI PUSH2 0x5CA4 PUSH2 0x5C53 JUMP JUMPDEST JUMPDEST DUP3 DUP3 DIV SWAP1 POP SWAP3 SWAP2 POP POP JUMP JUMPDEST PUSH32 0x446562657320706F64657220636F6D7072617220616C206D656E6F7320756E20 PUSH0 DUP3 ADD MSTORE PUSH32 0x546F6B656E000000000000000000000000000000000000000000000000000000 PUSH1 0x20 DUP3 ADD MSTORE POP JUMP JUMPDEST PUSH0 PUSH2 0x5D0A PUSH1 0x25 DUP4 PUSH2 0x42DF JUMP JUMPDEST SWAP2 POP PUSH2 0x5D15 DUP3 PUSH2 0x5CB0 JUMP JUMPDEST PUSH1 0x40 DUP3 ADD SWAP1 POP SWAP2 SWAP1 POP JUMP JUMPDEST PUSH0 PUSH1 0x20 DUP3 ADD SWAP1 POP DUP2 DUP2 SUB PUSH0 DUP4 ADD MSTORE PUSH2 0x5D37 DUP2 PUSH2 0x5CFE JUMP JUMPDEST SWAP1 POP SWAP2 SWAP1 POP JUMP JUMPDEST PUSH32 0x4E6F207075656465732063616E63656C6172206C612070726F70756573746120 PUSH0 DUP3 ADD MSTORE PUSH32 0x7369206E6F206572657320656C2063726561646F72206465206C61206D69736D PUSH1 0x20 DUP3 ADD MSTORE PUSH32 0x6100000000000000000000000000000000000000000000000000000000000000 PUSH1 0x40 DUP3 ADD MSTORE POP JUMP JUMPDEST PUSH0 PUSH2 0x5DBE PUSH1 0x41 DUP4 PUSH2 0x42DF JUMP JUMPDEST SWAP2 POP PUSH2 0x5DC9 DUP3 PUSH2 0x5D3E JUMP JUMPDEST PUSH1 0x60 DUP3 ADD SWAP1 POP SWAP2 SWAP1 POP JUMP JUMPDEST PUSH0 PUSH1 0x20 DUP3 ADD SWAP1 POP DUP2 DUP2 SUB PUSH0 DUP4 ADD MSTORE PUSH2 0x5DEB DUP2 PUSH2 0x5DB2 JUMP JUMPDEST SWAP1 POP SWAP2 SWAP1 POP JUMP JUMPDEST PUSH32 0x4E6F2065737461732061706F7274616E646F20737566696369656E7465204574 PUSH0 DUP3 ADD MSTORE PUSH32 0x68657220636F6D6F207061726120636F6D7072617220746F6B656E732E204E65 PUSH1 0x20 DUP3 ADD MSTORE PUSH32 0x6365736974617320706F64657220636F6D70726172203120616C206D656E6F73 PUSH1 0x40 DUP3 ADD MSTORE PUSH32 0x2E00000000000000000000000000000000000000000000000000000000000000 PUSH1 0x60 DUP3 ADD MSTORE POP JUMP JUMPDEST PUSH0 PUSH2 0x5E98 PUSH1 0x61 DUP4 PUSH2 0x42DF JUMP JUMPDEST SWAP2 POP PUSH2 0x5EA3 DUP3 PUSH2 0x5DF2 JUMP JUMPDEST PUSH1 0x80 DUP3 ADD SWAP1 POP SWAP2 SWAP1 POP JUMP JUMPDEST PUSH0 PUSH1 0x20 DUP3 ADD SWAP1 POP DUP2 DUP2 SUB PUSH0 DUP4 ADD MSTORE PUSH2 0x5EC5 DUP2 PUSH2 0x5E8C JUMP JUMPDEST SWAP1 POP SWAP2 SWAP1 POP JUMP JUMPDEST PUSH32 0x5061727469636970616E74652079612065737461207265676973747261646F2E PUSH0 DUP3 ADD MSTORE PUSH32 0x204E6F20707565646573207265676973747261727465206F7472612076657A00 PUSH1 0x20 DUP3 ADD MSTORE POP JUMP JUMPDEST PUSH0 PUSH2 0x5F26 PUSH1 0x3F DUP4 PUSH2 0x42DF JUMP JUMPDEST SWAP2 POP PUSH2 0x5F31 DUP3 PUSH2 0x5ECC JUMP JUMPDEST PUSH1 0x40 DUP3 ADD SWAP1 POP SWAP2 SWAP1 POP JUMP JUMPDEST PUSH0 PUSH1 0x20 DUP3 ADD SWAP1 POP DUP2 DUP2 SUB PUSH0 DUP4 ADD MSTORE PUSH2 0x5F53 DUP2 PUSH2 0x5F1A JUMP JUMPDEST SWAP1 POP SWAP2 SWAP1 POP JUMP JUMPDEST PUSH32 0x4E656365736974617320706F64657220636F6D7072617220616C206D656E6F73 PUSH0 DUP3 ADD MSTORE PUSH32 0x20756E20746F6B656E0000000000000000000000000000000000000000000000 PUSH1 0x20 DUP3 ADD MSTORE POP JUMP JUMPDEST PUSH0 PUSH2 0x5FB4 PUSH1 0x29 DUP4 PUSH2 0x42DF JUMP JUMPDEST SWAP2 POP PUSH2 0x5FBF DUP3 PUSH2 0x5F5A JUMP JUMPDEST PUSH1 0x40 DUP3 ADD SWAP1 POP SWAP2 SWAP1 POP JUMP JUMPDEST PUSH0 PUSH1 0x20 DUP3 ADD SWAP1 POP DUP2 DUP2 SUB PUSH0 DUP4 ADD MSTORE PUSH2 0x5FE1 DUP2 PUSH2 0x5FA8 JUMP JUMPDEST SWAP1 POP SWAP2 SWAP1 POP JUMP JUMPDEST PUSH32 0x4C612070726F7075657374612064656265207365722064652066696E616E6369 PUSH0 DUP3 ADD MSTORE PUSH32 0x6163696F6E000000000000000000000000000000000000000000000000000000 PUSH1 0x20 DUP3 ADD MSTORE POP JUMP JUMPDEST PUSH0 PUSH2 0x6042 PUSH1 0x25 DUP4 PUSH2 0x42DF JUMP JUMPDEST SWAP2 POP PUSH2 0x604D DUP3 PUSH2 0x5FE8 JUMP JUMPDEST PUSH1 0x40 DUP3 ADD SWAP1 POP SWAP2 SWAP1 POP JUMP JUMPDEST PUSH0 PUSH1 0x20 DUP3 ADD SWAP1 POP DUP2 DUP2 SUB PUSH0 DUP4 ADD MSTORE PUSH2 0x606F DUP2 PUSH2 0x6036 JUMP JUMPDEST SWAP1 POP SWAP2 SWAP1 POP JUMP JUMPDEST PUSH32 0x4C612070726F707565737461206E6F207469656E6520636F6E747261746F2064 PUSH0 DUP3 ADD MSTORE PUSH32 0x6520766F746163696F6E2061736F636961646F00000000000000000000000000 PUSH1 0x20 DUP3 ADD MSTORE POP JUMP JUMPDEST PUSH0 PUSH2 0x60D0 PUSH1 0x33 DUP4 PUSH2 0x42DF JUMP JUMPDEST SWAP2 POP PUSH2 0x60DB DUP3 PUSH2 0x6076 JUMP JUMPDEST PUSH1 0x40 DUP3 ADD SWAP1 POP SWAP2 SWAP1 POP JUMP JUMPDEST PUSH0 PUSH1 0x20 DUP3 ADD SWAP1 POP DUP2 DUP2 SUB PUSH0 DUP4 ADD MSTORE PUSH2 0x60FD DUP2 PUSH2 0x60C4 JUMP JUMPDEST SWAP1 POP SWAP2 SWAP1 POP JUMP JUMPDEST PUSH32 0x456C20707265737570756573746F20746F74616C2064656C20636F6E74726174 PUSH0 DUP3 ADD MSTORE PUSH32 0x6F206465626520736572207375706572696F7220616C2064656D616E6461646F PUSH1 0x20 DUP3 ADD MSTORE PUSH32 0x20656E206C612070726F70756573746100000000000000000000000000000000 PUSH1 0x40 DUP3 ADD MSTORE POP JUMP JUMPDEST PUSH0 PUSH2 0x6184 PUSH1 0x50 DUP4 PUSH2 0x42DF JUMP JUMPDEST SWAP2 POP PUSH2 0x618F DUP3 PUSH2 0x6104 JUMP JUMPDEST PUSH1 0x60 DUP3 ADD SWAP1 POP SWAP2 SWAP1 POP JUMP JUMPDEST PUSH0 PUSH1 0x20 DUP3 ADD SWAP1 POP DUP2 DUP2 SUB PUSH0 DUP4 ADD MSTORE PUSH2 0x61B1 DUP2 PUSH2 0x6178 JUMP JUMPDEST SWAP1 POP SWAP2 SWAP1 POP JUMP JUMPDEST PUSH32 0x4C6120656A65637563696F6E206465206C612070726F70756573746120686120 PUSH0 DUP3 ADD MSTORE PUSH32 0x66616C6C61646F00000000000000000000000000000000000000000000000000 PUSH1 0x20 DUP3 ADD MSTORE POP JUMP JUMPDEST PUSH0 PUSH2 0x6212 PUSH1 0x27 DUP4 PUSH2 0x42DF JUMP JUMPDEST SWAP2 POP PUSH2 0x621D DUP3 PUSH2 0x61B8 JUMP JUMPDEST PUSH1 0x40 DUP3 ADD SWAP1 POP SWAP2 SWAP1 POP JUMP JUMPDEST PUSH0 PUSH1 0x20 DUP3 ADD SWAP1 POP DUP2 DUP2 SUB PUSH0 DUP4 ADD MSTORE PUSH2 0x623F DUP2 PUSH2 0x6206 JUMP JUMPDEST SWAP1 POP SWAP2 SWAP1 POP JUMP INVALID LOG2 PUSH5 0x6970667358 0x22 SLT KECCAK256 0x4F 0xB3 SWAP13 0xE3 0x21 0x27 PUSH32 0xADCC5863D894CAF16873B3D789A26434DD3FC7ED8B54F995C364736F6C634300 ADDMOD BYTE STOP CALLER PUSH1 0xC0 PUSH1 0x40 MSTORE CALLVALUE DUP1 ISZERO PUSH2 0xF JUMPI PUSH0 DUP1 REVERT JUMPDEST POP PUSH1 0x40 MLOAD PUSH2 0x1D1B CODESIZE SUB DUP1 PUSH2 0x1D1B DUP4 CODECOPY DUP2 DUP2 ADD PUSH1 0x40 MSTORE DUP2 ADD SWAP1 PUSH2 0x31 SWAP2 SWAP1 PUSH2 0x279 JUMP JUMPDEST DUP4 DUP4 DUP2 PUSH1 0x3 SWAP1 DUP2 PUSH2 0x42 SWAP2 SWAP1 PUSH2 0x519 JUMP JUMPDEST POP DUP1 PUSH1 0x4 SWAP1 DUP2 PUSH2 0x52 SWAP2 SWAP1 PUSH2 0x519 JUMP JUMPDEST POP POP POP PUSH0 DUP3 GT PUSH2 0x97 JUMPI PUSH1 0x40 MLOAD PUSH32 0x8C379A000000000000000000000000000000000000000000000000000000000 DUP2 MSTORE PUSH1 0x4 ADD PUSH2 0x8E SWAP1 PUSH2 0x668 JUMP JUMPDEST PUSH1 0x40 MLOAD DUP1 SWAP2 SUB SWAP1 REVERT JUMPDEST PUSH0 DUP2 GT PUSH2 0xD9 JUMPI PUSH1 0x40 MLOAD PUSH32 0x8C379A000000000000000000000000000000000000000000000000000000000 DUP2 MSTORE PUSH1 0x4 ADD PUSH2 0xD0 SWAP1 PUSH2 0x6F6 JUMP JUMPDEST PUSH1 0x40 MLOAD DUP1 SWAP2 SUB SWAP1 REVERT JUMPDEST DUP2 PUSH1 0x80 DUP2 DUP2 MSTORE POP POP DUP1 PUSH1 0xA0 DUP2 DUP2 MSTORE POP POP PUSH0 PUSH1 0x5 DUP2 SWAP1 SSTORE POP POP POP POP POP PUSH2 0x714 JUMP JUMPDEST PUSH0 PUSH1 0x40 MLOAD SWAP1 POP SWAP1 JUMP JUMPDEST PUSH0 DUP1 REVERT JUMPDEST PUSH0 DUP1 REVERT JUMPDEST PUSH0 DUP1 REVERT JUMPDEST PUSH0 DUP1 REVERT JUMPDEST PUSH0 PUSH1 0x1F NOT PUSH1 0x1F DUP4 ADD AND SWAP1 POP SWAP2 SWAP1 POP JUMP JUMPDEST PUSH32 0x4E487B7100000000000000000000000000000000000000000000000000000000 PUSH0 MSTORE PUSH1 0x41 PUSH1 0x4 MSTORE PUSH1 0x24 PUSH0 REVERT JUMPDEST PUSH2 0x158 DUP3 PUSH2 0x112 JUMP JUMPDEST DUP2 ADD DUP2 DUP2 LT PUSH8 0xFFFFFFFFFFFFFFFF DUP3 GT OR ISZERO PUSH2 0x177 JUMPI PUSH2 0x176 PUSH2 0x122 JUMP JUMPDEST JUMPDEST DUP1 PUSH1 0x40 MSTORE POP POP POP JUMP JUMPDEST PUSH0 PUSH2 0x189 PUSH2 0xF9 JUMP JUMPDEST SWAP1 POP PUSH2 0x195 DUP3 DUP3 PUSH2 0x14F JUMP JUMPDEST SWAP2 SWAP1 POP JUMP JUMPDEST PUSH0 PUSH8 0xFFFFFFFFFFFFFFFF DUP3 GT ISZERO PUSH2 0x1B4 JUMPI PUSH2 0x1B3 PUSH2 0x122 JUMP JUMPDEST JUMPDEST PUSH2 0x1BD DUP3 PUSH2 0x112 JUMP JUMPDEST SWAP1 POP PUSH1 0x20 DUP2 ADD SWAP1 POP SWAP2 SWAP1 POP JUMP JUMPDEST DUP3 DUP2 DUP4 MCOPY PUSH0 DUP4 DUP4 ADD MSTORE POP POP POP JUMP JUMPDEST PUSH0 PUSH2 0x1EA PUSH2 0x1E5 DUP5 PUSH2 0x19A JUMP JUMPDEST PUSH2 0x180 JUMP JUMPDEST SWAP1 POP DUP3 DUP2 MSTORE PUSH1 0x20 DUP2 ADD DUP5 DUP5 DUP5 ADD GT ISZERO PUSH2 0x206 JUMPI PUSH2 0x205 PUSH2 0x10E JUMP JUMPDEST JUMPDEST PUSH2 0x211 DUP5 DUP3 DUP6 PUSH2 0x1CA JUMP JUMPDEST POP SWAP4 SWAP3 POP POP POP JUMP JUMPDEST PUSH0 DUP3 PUSH1 0x1F DUP4 ADD SLT PUSH2 0x22D JUMPI PUSH2 0x22C PUSH2 0x10A JUMP JUMPDEST JUMPDEST DUP2 MLOAD PUSH2 0x23D DUP5 DUP3 PUSH1 0x20 DUP7 ADD PUSH2 0x1D8 JUMP JUMPDEST SWAP2 POP POP SWAP3 SWAP2 POP POP JUMP JUMPDEST PUSH0 DUP2 SWAP1 POP SWAP2 SWAP1 POP JUMP JUMPDEST PUSH2 0x258 DUP2 PUSH2 0x246 JUMP JUMPDEST DUP2 EQ PUSH2 0x262 JUMPI PUSH0 DUP1 REVERT JUMPDEST POP JUMP JUMPDEST PUSH0 DUP2 MLOAD SWAP1 POP PUSH2 0x273 DUP2 PUSH2 0x24F JUMP JUMPDEST SWAP3 SWAP2 POP POP JUMP JUMPDEST PUSH0 DUP1 PUSH0 DUP1 PUSH1 0x80 DUP6 DUP8 SUB SLT ISZERO PUSH2 0x291 JUMPI PUSH2 0x290 PUSH2 0x102 JUMP JUMPDEST JUMPDEST PUSH0 DUP6 ADD MLOAD PUSH8 0xFFFFFFFFFFFFFFFF DUP2 GT ISZERO PUSH2 0x2AE JUMPI PUSH2 0x2AD PUSH2 0x106 JUMP JUMPDEST JUMPDEST PUSH2 0x2BA DUP8 DUP3 DUP9 ADD PUSH2 0x219 JUMP JUMPDEST SWAP5 POP POP PUSH1 0x20 DUP6 ADD MLOAD PUSH8 0xFFFFFFFFFFFFFFFF DUP2 GT ISZERO PUSH2 0x2DB JUMPI PUSH2 0x2DA PUSH2 0x106 JUMP JUMPDEST JUMPDEST PUSH2 0x2E7 DUP8 DUP3 DUP9 ADD PUSH2 0x219 JUMP JUMPDEST SWAP4 POP POP PUSH1 0x40 PUSH2 0x2F8 DUP8 DUP3 DUP9 ADD PUSH2 0x265 JUMP JUMPDEST SWAP3 POP POP PUSH1 0x60 PUSH2 0x309 DUP8 DUP3 DUP9 ADD PUSH2 0x265 JUMP JUMPDEST SWAP2 POP POP SWAP3 SWAP6 SWAP2 SWAP5 POP SWAP3 POP JUMP JUMPDEST PUSH0 DUP2 MLOAD SWAP1 POP SWAP2 SWAP1 POP JUMP JUMPDEST PUSH32 0x4E487B7100000000000000000000000000000000000000000000000000000000 PUSH0 MSTORE PUSH1 0x22 PUSH1 0x4 MSTORE PUSH1 0x24 PUSH0 REVERT JUMPDEST PUSH0 PUSH1 0x2 DUP3 DIV SWAP1 POP PUSH1 0x1 DUP3 AND DUP1 PUSH2 0x363 JUMPI PUSH1 0x7F DUP3 AND SWAP2 POP JUMPDEST PUSH1 0x20 DUP3 LT DUP2 SUB PUSH2 0x376 JUMPI PUSH2 0x375 PUSH2 0x31F JUMP JUMPDEST JUMPDEST POP SWAP2 SWAP1 POP JUMP JUMPDEST PUSH0 DUP2 SWAP1 POP DUP2 PUSH0 MSTORE PUSH1 0x20 PUSH0 KECCAK256 SWAP1 POP SWAP2 SWAP1 POP JUMP JUMPDEST PUSH0 PUSH1 0x20 PUSH1 0x1F DUP4 ADD DIV SWAP1 POP SWAP2 SWAP1 POP JUMP JUMPDEST PUSH0 DUP3 DUP3 SHL SWAP1 POP SWAP3 SWAP2 POP POP JUMP JUMPDEST PUSH0 PUSH1 0x8 DUP4 MUL PUSH2 0x3D8 PUSH32 0xFFFFFFFFFFFFFFFFFFFFFFFFFFFFFFFFFFFFFFFFFFFFFFFFFFFFFFFFFFFFFFFF DUP3 PUSH2 0x39D JUMP JUMPDEST PUSH2 0x3E2 DUP7 DUP4 PUSH2 0x39D JUMP JUMPDEST SWAP6 POP DUP1 NOT DUP5 AND SWAP4 POP DUP1 DUP7 AND DUP5 OR SWAP3 POP POP POP SWAP4 SWAP3 POP POP POP JUMP JUMPDEST PUSH0 DUP2 SWAP1 POP SWAP2 SWAP1 POP JUMP JUMPDEST PUSH0 PUSH2 0x41D PUSH2 0x418 PUSH2 0x413 DUP5 PUSH2 0x246 JUMP JUMPDEST PUSH2 0x3FA JUMP JUMPDEST PUSH2 0x246 JUMP JUMPDEST SWAP1 POP SWAP2 SWAP1 POP JUMP JUMPDEST PUSH0 DUP2 SWAP1 POP SWAP2 SWAP1 POP JUMP JUMPDEST PUSH2 0x436 DUP4 PUSH2 0x403 JUMP JUMPDEST PUSH2 0x44A PUSH2 0x442 DUP3 PUSH2 0x424 JUMP JUMPDEST DUP5 DUP5 SLOAD PUSH2 0x3A9 JUMP JUMPDEST DUP3 SSTORE POP POP POP POP JUMP JUMPDEST PUSH0 SWAP1 JUMP JUMPDEST PUSH2 0x45E PUSH2 0x452 JUMP JUMPDEST PUSH2 0x469 DUP2 DUP5 DUP5 PUSH2 0x42D JUMP JUMPDEST POP POP POP JUMP JUMPDEST JUMPDEST DUP2 DUP2 LT ISZERO PUSH2 0x48C JUMPI PUSH2 0x481 PUSH0 DUP3 PUSH2 0x456 JUMP JUMPDEST PUSH1 0x1 DUP2 ADD SWAP1 POP PUSH2 0x46F JUMP JUMPDEST POP POP JUMP JUMPDEST PUSH1 0x1F DUP3 GT ISZERO PUSH2 0x4D1 JUMPI PUSH2 0x4A2 DUP2 PUSH2 0x37C JUMP JUMPDEST PUSH2 0x4AB DUP5 PUSH2 0x38E JUMP JUMPDEST DUP2 ADD PUSH1 0x20 DUP6 LT ISZERO PUSH2 0x4BA JUMPI DUP2 SWAP1 POP JUMPDEST PUSH2 0x4CE PUSH2 0x4C6 DUP6 PUSH2 0x38E JUMP JUMPDEST DUP4 ADD DUP3 PUSH2 0x46E JUMP JUMPDEST POP POP JUMPDEST POP POP POP JUMP JUMPDEST PUSH0 DUP3 DUP3 SHR SWAP1 POP SWAP3 SWAP2 POP POP JUMP JUMPDEST PUSH0 PUSH2 0x4F1 PUSH0 NOT DUP5 PUSH1 0x8 MUL PUSH2 0x4D6 JUMP JUMPDEST NOT DUP1 DUP4 AND SWAP2 POP POP SWAP3 SWAP2 POP POP JUMP JUMPDEST PUSH0 PUSH2 0x509 DUP4 DUP4 PUSH2 0x4E2 JUMP JUMPDEST SWAP2 POP DUP3 PUSH1 0x2 MUL DUP3 OR SWAP1 POP SWAP3 SWAP2 POP POP JUMP JUMPDEST PUSH2 0x522 DUP3 PUSH2 0x315 JUMP JUMPDEST PUSH8 0xFFFFFFFFFFFFFFFF DUP2 GT ISZERO PUSH2 0x53B JUMPI PUSH2 0x53A PUSH2 0x122 JUMP JUMPDEST JUMPDEST PUSH2 0x545 DUP3 SLOAD PUSH2 0x34C JUMP JUMPDEST PUSH2 0x550 DUP3 DUP3 DUP6 PUSH2 0x490 JUMP JUMPDEST PUSH0 PUSH1 0x20 SWAP1 POP PUSH1 0x1F DUP4 GT PUSH1 0x1 DUP2 EQ PUSH2 0x581 JUMPI PUSH0 DUP5 ISZERO PUSH2 0x56F JUMPI DUP3 DUP8 ADD MLOAD SWAP1 POP JUMPDEST PUSH2 0x579 DUP6 DUP3 PUSH2 0x4FE JUMP JUMPDEST DUP7 SSTORE POP PUSH2 0x5E0 JUMP JUMPDEST PUSH1 0x1F NOT DUP5 AND PUSH2 0x58F DUP7 PUSH2 0x37C JUMP JUMPDEST PUSH0 JUMPDEST DUP3 DUP2 LT ISZERO PUSH2 0x5B6 JUMPI DUP5 DUP10 ADD MLOAD DUP3 SSTORE PUSH1 0x1 DUP3 ADD SWAP2 POP PUSH1 0x20 DUP6 ADD SWAP5 POP PUSH1 0x20 DUP2 ADD SWAP1 POP PUSH2 0x591 JUMP JUMPDEST DUP7 DUP4 LT ISZERO PUSH2 0x5D3 JUMPI DUP5 DUP10 ADD MLOAD PUSH2 0x5CF PUSH1 0x1F DUP10 AND DUP3 PUSH2 0x4E2 JUMP JUMPDEST DUP4 SSTORE POP JUMPDEST PUSH1 0x1 PUSH1 0x2 DUP9 MUL ADD DUP9 SSTORE POP POP POP JUMPDEST POP POP POP POP POP POP JUMP JUMPDEST PUSH0 DUP3 DUP3 MSTORE PUSH1 0x20 DUP3 ADD SWAP1 POP SWAP3 SWAP2 POP POP JUMP JUMPDEST PUSH32 0x456C2070726563696F206E6F20707565646520736572206D656E6F7220717565 PUSH0 DUP3 ADD MSTORE PUSH32 0x206365726F000000000000000000000000000000000000000000000000000000 PUSH1 0x20 DUP3 ADD MSTORE POP JUMP JUMPDEST PUSH0 PUSH2 0x652 PUSH1 0x25 DUP4 PUSH2 0x5E8 JUMP JUMPDEST SWAP2 POP PUSH2 0x65D DUP3 PUSH2 0x5F8 JUMP JUMPDEST PUSH1 0x40 DUP3 ADD SWAP1 POP SWAP2 SWAP1 POP JUMP JUMPDEST PUSH0 PUSH1 0x20 DUP3 ADD SWAP1 POP DUP2 DUP2 SUB PUSH0 DUP4 ADD MSTORE PUSH2 0x67F DUP2 PUSH2 0x646 JUMP JUMPDEST SWAP1 POP SWAP2 SWAP1 POP JUMP JUMPDEST PUSH32 0x456C206D6178696D6F20646520746F6B656E73206E6F20707565646520736572 PUSH0 DUP3 ADD MSTORE PUSH32 0x206D656E6F7220717565206365726F0000000000000000000000000000000000 PUSH1 0x20 DUP3 ADD MSTORE POP JUMP JUMPDEST PUSH0 PUSH2 0x6E0 PUSH1 0x2F DUP4 PUSH2 0x5E8 JUMP JUMPDEST SWAP2 POP PUSH2 0x6EB DUP3 PUSH2 0x686 JUMP JUMPDEST PUSH1 0x40 DUP3 ADD SWAP1 POP SWAP2 SWAP1 POP JUMP JUMPDEST PUSH0 PUSH1 0x20 DUP3 ADD SWAP1 POP DUP2 DUP2 SUB PUSH0 DUP4 ADD MSTORE PUSH2 0x70D DUP2 PUSH2 0x6D4 JUMP JUMPDEST SWAP1 POP SWAP2 SWAP1 POP JUMP JUMPDEST PUSH1 0x80 MLOAD PUSH1 0xA0 MLOAD PUSH2 0x15D1 PUSH2 0x74A PUSH0 CODECOPY PUSH0 DUP2 DUP2 PUSH2 0x551 ADD MSTORE DUP2 DUP2 PUSH2 0x60F ADD MSTORE PUSH2 0x94A ADD MSTORE PUSH0 DUP2 DUP2 PUSH2 0x5E8 ADD MSTORE PUSH2 0x67A ADD MSTORE PUSH2 0x15D1 PUSH0 RETURN INVALID PUSH1 0x80 PUSH1 0x40 MSTORE CALLVALUE DUP1 ISZERO PUSH2 0xF JUMPI PUSH0 DUP1 REVERT JUMPDEST POP PUSH1 0x4 CALLDATASIZE LT PUSH2 0x109 JUMPI PUSH0 CALLDATALOAD PUSH1 0xE0 SHR DUP1 PUSH4 0x70A08231 GT PUSH2 0xA0 JUMPI DUP1 PUSH4 0x9DC29FAC GT PUSH2 0x6F JUMPI DUP1 PUSH4 0x9DC29FAC EQ PUSH2 0x2A9 JUMPI DUP1 PUSH4 0xA9059CBB EQ PUSH2 0x2C5 JUMPI DUP1 PUSH4 0xB2BDFA7B EQ PUSH2 0x2F5 JUMPI DUP1 PUSH4 0xDD62ED3E EQ PUSH2 0x313 JUMPI DUP1 PUSH4 0xE8315742 EQ PUSH2 0x343 JUMPI PUSH2 0x109 JUMP JUMPDEST DUP1 PUSH4 0x70A08231 EQ PUSH2 0x21F JUMPI DUP1 PUSH4 0x7FF9B596 EQ PUSH2 0x24F JUMPI DUP1 PUSH4 0x8D75FE05 EQ PUSH2 0x26D JUMPI DUP1 PUSH4 0x95D89B41 EQ PUSH2 0x28B JUMPI PUSH2 0x109 JUMP JUMPDEST DUP1 PUSH4 0x313CE567 GT PUSH2 0xDC JUMPI DUP1 PUSH4 0x313CE567 EQ PUSH2 0x1A9 JUMPI DUP1 PUSH4 0x40C10F19 EQ PUSH2 0x1C7 JUMPI DUP1 PUSH4 0x4B94F50E EQ PUSH2 0x1E3 JUMPI DUP1 PUSH4 0x6ABCDED1 EQ PUSH2 0x201 JUMPI PUSH2 0x109 JUMP JUMPDEST DUP1 PUSH4 0x6FDDE03 EQ PUSH2 0x10D JUMPI DUP1 PUSH4 0x95EA7B3 EQ PUSH2 0x12B JUMPI DUP1 PUSH4 0x18160DDD EQ PUSH2 0x15B JUMPI DUP1 PUSH4 0x23B872DD EQ PUSH2 0x179 JUMPI JUMPDEST PUSH0 DUP1 REVERT JUMPDEST PUSH2 0x115 PUSH2 0x361 JUMP JUMPDEST PUSH1 0x40 MLOAD PUSH2 0x122 SWAP2 SWAP1 PUSH2 0x105E JUMP JUMPDEST PUSH1 0x40 MLOAD DUP1 SWAP2 SUB SWAP1 RETURN JUMPDEST PUSH2 0x145 PUSH1 0x4 DUP1 CALLDATASIZE SUB DUP2 ADD SWAP1 PUSH2 0x140 SWAP2 SWAP1 PUSH2 0x110F JUMP JUMPDEST PUSH2 0x3F1 JUMP JUMPDEST PUSH1 0x40 MLOAD PUSH2 0x152 SWAP2 SWAP1 PUSH2 0x1167 JUMP JUMPDEST PUSH1 0x40 MLOAD DUP1 SWAP2 SUB SWAP1 RETURN JUMPDEST PUSH2 0x163 PUSH2 0x413 JUMP JUMPDEST PUSH1 0x40 MLOAD PUSH2 0x170 SWAP2 SWAP1 PUSH2 0x118F JUMP JUMPDEST PUSH1 0x40 MLOAD DUP1 SWAP2 SUB SWAP1 RETURN JUMPDEST PUSH2 0x193 PUSH1 0x4 DUP1 CALLDATASIZE SUB DUP2 ADD SWAP1 PUSH2 0x18E SWAP2 SWAP1 PUSH2 0x11A8 JUMP JUMPDEST PUSH2 0x41C JUMP JUMPDEST PUSH1 0x40 MLOAD PUSH2 0x1A0 SWAP2 SWAP1 PUSH2 0x1167 JUMP JUMPDEST PUSH1 0x40 MLOAD DUP1 SWAP2 SUB SWAP1 RETURN JUMPDEST PUSH2 0x1B1 PUSH2 0x44A JUMP JUMPDEST PUSH1 0x40 MLOAD PUSH2 0x1BE SWAP2 SWAP1 PUSH2 0x1213 JUMP JUMPDEST PUSH1 0x40 MLOAD DUP1 SWAP2 SUB SWAP1 RETURN JUMPDEST PUSH2 0x1E1 PUSH1 0x4 DUP1 CALLDATASIZE SUB DUP2 ADD SWAP1 PUSH2 0x1DC SWAP2 SWAP1 PUSH2 0x110F JUMP JUMPDEST PUSH2 0x452 JUMP JUMPDEST STOP JUMPDEST PUSH2 0x1EB PUSH2 0x5E5 JUMP JUMPDEST PUSH1 0x40 MLOAD PUSH2 0x1F8 SWAP2 SWAP1 PUSH2 0x118F JUMP JUMPDEST PUSH1 0x40 MLOAD DUP1 SWAP2 SUB SWAP1 RETURN JUMPDEST PUSH2 0x209 PUSH2 0x60C JUMP JUMPDEST PUSH1 0x40 MLOAD PUSH2 0x216 SWAP2 SWAP1 PUSH2 0x118F JUMP JUMPDEST PUSH1 0x40 MLOAD DUP1 SWAP2 SUB SWAP1 RETURN JUMPDEST PUSH2 0x239 PUSH1 0x4 DUP1 CALLDATASIZE SUB DUP2 ADD SWAP1 PUSH2 0x234 SWAP2 SWAP1 PUSH2 0x122C JUMP JUMPDEST PUSH2 0x633 JUMP JUMPDEST PUSH1 0x40 MLOAD PUSH2 0x246 SWAP2 SWAP1 PUSH2 0x118F JUMP JUMPDEST PUSH1 0x40 MLOAD DUP1 SWAP2 SUB SWAP1 RETURN JUMPDEST PUSH2 0x257 PUSH2 0x678 JUMP JUMPDEST PUSH1 0x40 MLOAD PUSH2 0x264 SWAP2 SWAP1 PUSH2 0x118F JUMP JUMPDEST PUSH1 0x40 MLOAD DUP1 SWAP2 SUB SWAP1 RETURN JUMPDEST PUSH2 0x275 PUSH2 0x69C JUMP JUMPDEST PUSH1 0x40 MLOAD PUSH2 0x282 SWAP2 SWAP1 PUSH2 0x118F JUMP JUMPDEST PUSH1 0x40 MLOAD DUP1 SWAP2 SUB SWAP1 RETURN JUMPDEST PUSH2 0x293 PUSH2 0x6A2 JUMP JUMPDEST PUSH1 0x40 MLOAD PUSH2 0x2A0 SWAP2 SWAP1 PUSH2 0x105E JUMP JUMPDEST PUSH1 0x40 MLOAD DUP1 SWAP2 SUB SWAP1 RETURN JUMPDEST PUSH2 0x2C3 PUSH1 0x4 DUP1 CALLDATASIZE SUB DUP2 ADD SWAP1 PUSH2 0x2BE SWAP2 SWAP1 PUSH2 0x110F JUMP JUMPDEST PUSH2 0x732 JUMP JUMPDEST STOP JUMPDEST PUSH2 0x2DF PUSH1 0x4 DUP1 CALLDATASIZE SUB DUP2 ADD SWAP1 PUSH2 0x2DA SWAP2 SWAP1 PUSH2 0x110F JUMP JUMPDEST PUSH2 0x87F JUMP JUMPDEST PUSH1 0x40 MLOAD PUSH2 0x2EC SWAP2 SWAP1 PUSH2 0x1167 JUMP JUMPDEST PUSH1 0x40 MLOAD DUP1 SWAP2 SUB SWAP1 RETURN JUMPDEST PUSH2 0x2FD PUSH2 0x8A1 JUMP JUMPDEST PUSH1 0x40 MLOAD PUSH2 0x30A SWAP2 SWAP1 PUSH2 0x1266 JUMP JUMPDEST PUSH1 0x40 MLOAD DUP1 SWAP2 SUB SWAP1 RETURN JUMPDEST PUSH2 0x32D PUSH1 0x4 DUP1 CALLDATASIZE SUB DUP2 ADD SWAP1 PUSH2 0x328 SWAP2 SWAP1 PUSH2 0x127F JUMP JUMPDEST PUSH2 0x8C6 JUMP JUMPDEST PUSH1 0x40 MLOAD PUSH2 0x33A SWAP2 SWAP1 PUSH2 0x118F JUMP JUMPDEST PUSH1 0x40 MLOAD DUP1 SWAP2 SUB SWAP1 RETURN JUMPDEST PUSH2 0x34B PUSH2 0x948 JUMP JUMPDEST PUSH1 0x40 MLOAD PUSH2 0x358 SWAP2 SWAP1 PUSH2 0x118F JUMP JUMPDEST PUSH1 0x40 MLOAD DUP1 SWAP2 SUB SWAP1 RETURN JUMPDEST PUSH1 0x60 PUSH1 0x3 DUP1 SLOAD PUSH2 0x370 SWAP1 PUSH2 0x12EA JUMP JUMPDEST DUP1 PUSH1 0x1F ADD PUSH1 0x20 DUP1 SWAP2 DIV MUL PUSH1 0x20 ADD PUSH1 0x40 MLOAD SWAP1 DUP2 ADD PUSH1 0x40 MSTORE DUP1 SWAP3 SWAP2 SWAP1 DUP2 DUP2 MSTORE PUSH1 0x20 ADD DUP3 DUP1 SLOAD PUSH2 0x39C SWAP1 PUSH2 0x12EA JUMP JUMPDEST DUP1 ISZERO PUSH2 0x3E7 JUMPI DUP1 PUSH1 0x1F LT PUSH2 0x3BE JUMPI PUSH2 0x100 DUP1 DUP4 SLOAD DIV MUL DUP4 MSTORE SWAP2 PUSH1 0x20 ADD SWAP2 PUSH2 0x3E7 JUMP JUMPDEST DUP3 ADD SWAP2 SWAP1 PUSH0 MSTORE PUSH1 0x20 PUSH0 KECCAK256 SWAP1 JUMPDEST DUP2 SLOAD DUP2 MSTORE SWAP1 PUSH1 0x1 ADD SWAP1 PUSH1 0x20 ADD DUP1 DUP4 GT PUSH2 0x3CA JUMPI DUP3 SWAP1 SUB PUSH1 0x1F AND DUP3 ADD SWAP2 JUMPDEST POP POP POP POP POP SWAP1 POP SWAP1 JUMP JUMPDEST PUSH0 DUP1 PUSH2 0x3FB PUSH2 0x96C JUMP JUMPDEST SWAP1 POP PUSH2 0x408 DUP2 DUP6 DUP6 PUSH2 0x973 JUMP JUMPDEST PUSH1 0x1 SWAP2 POP POP SWAP3 SWAP2 POP POP JUMP JUMPDEST PUSH0 PUSH1 0x2 SLOAD SWAP1 POP SWAP1 JUMP JUMPDEST PUSH0 DUP1 PUSH2 0x426 PUSH2 0x96C JUMP JUMPDEST SWAP1 POP PUSH2 0x433 DUP6 DUP3 DUP6 PUSH2 0x985 JUMP JUMPDEST PUSH2 0x43E DUP6 DUP6 DUP6 PUSH2 0xA18 JUMP JUMPDEST PUSH1 0x1 SWAP2 POP POP SWAP4 SWAP3 POP POP POP JUMP JUMPDEST PUSH0 PUSH1 0x12 SWAP1 POP SWAP1 JUMP JUMPDEST PUSH1 0x6 PUSH0 SWAP1 SLOAD SWAP1 PUSH2 0x100 EXP SWAP1 DIV PUSH20 0xFFFFFFFFFFFFFFFFFFFFFFFFFFFFFFFFFFFFFFFF AND PUSH20 0xFFFFFFFFFFFFFFFFFFFFFFFFFFFFFFFFFFFFFFFF AND CALLER PUSH20 0xFFFFFFFFFFFFFFFFFFFFFFFFFFFFFFFFFFFFFFFF AND EQ PUSH2 0x4E1 JUMPI PUSH1 0x40 MLOAD PUSH32 0x8C379A000000000000000000000000000000000000000000000000000000000 DUP2 MSTORE PUSH1 0x4 ADD PUSH2 0x4D8 SWAP1 PUSH2 0x1364 JUMP JUMPDEST PUSH1 0x40 MLOAD DUP1 SWAP2 SUB SWAP1 REVERT JUMPDEST PUSH0 PUSH20 0xFFFFFFFFFFFFFFFFFFFFFFFFFFFFFFFFFFFFFFFF AND DUP3 PUSH20 0xFFFFFFFFFFFFFFFFFFFFFFFFFFFFFFFFFFFFFFFF AND SUB PUSH2 0x54F JUMPI PUSH1 0x40 MLOAD PUSH32 0x8C379A000000000000000000000000000000000000000000000000000000000 DUP2 MSTORE PUSH1 0x4 ADD PUSH2 0x546 SWAP1 PUSH2 0x13F2 JUMP JUMPDEST PUSH1 0x40 MLOAD DUP1 SWAP2 SUB SWAP1 REVERT JUMPDEST PUSH32 0x0 DUP2 PUSH1 0x5 SLOAD PUSH2 0x57E SWAP2 SWAP1 PUSH2 0x143D JUMP JUMPDEST GT ISZERO PUSH2 0x5BF JUMPI PUSH1 0x40 MLOAD PUSH32 0x8C379A000000000000000000000000000000000000000000000000000000000 DUP2 MSTORE PUSH1 0x4 ADD PUSH2 0x5B6 SWAP1 PUSH2 0x14BA JUMP JUMPDEST PUSH1 0x40 MLOAD DUP1 SWAP2 SUB SWAP1 REVERT JUMPDEST DUP1 PUSH1 0x5 PUSH0 DUP3 DUP3 SLOAD PUSH2 0x5D0 SWAP2 SWAP1 PUSH2 0x143D JUMP JUMPDEST SWAP3 POP POP DUP2 SWAP1 SSTORE POP PUSH2 0x5E1 DUP3 DUP3 PUSH2 0xB08 JUMP JUMPDEST POP POP JUMP JUMPDEST PUSH0 PUSH32 0x0 SWAP1 POP SWAP1 JUMP JUMPDEST PUSH0 PUSH32 0x0 SWAP1 POP SWAP1 JUMP JUMPDEST PUSH0 DUP1 PUSH0 DUP4 PUSH20 0xFFFFFFFFFFFFFFFFFFFFFFFFFFFFFFFFFFFFFFFF AND PUSH20 0xFFFFFFFFFFFFFFFFFFFFFFFFFFFFFFFFFFFFFFFF AND DUP2 MSTORE PUSH1 0x20 ADD SWAP1 DUP2 MSTORE PUSH1 0x20 ADD PUSH0 KECCAK256 SLOAD SWAP1 POP SWAP2 SWAP1 POP JUMP JUMPDEST PUSH32 0x0 DUP2 JUMP JUMPDEST PUSH1 0x5 SLOAD DUP2 JUMP JUMPDEST PUSH1 0x60 PUSH1 0x4 DUP1 SLOAD PUSH2 0x6B1 SWAP1 PUSH2 0x12EA JUMP JUMPDEST DUP1 PUSH1 0x1F ADD PUSH1 0x20 DUP1 SWAP2 DIV MUL PUSH1 0x20 ADD PUSH1 0x40 MLOAD SWAP1 DUP2 ADD PUSH1 0x40 MSTORE DUP1 SWAP3 SWAP2 SWAP1 DUP2 DUP2 MSTORE PUSH1 0x20 ADD DUP3 DUP1 SLOAD PUSH2 0x6DD SWAP1 PUSH2 0x12EA JUMP JUMPDEST DUP1 ISZERO PUSH2 0x728 JUMPI DUP1 PUSH1 0x1F LT PUSH2 0x6FF JUMPI PUSH2 0x100 DUP1 DUP4 SLOAD DIV MUL DUP4 MSTORE SWAP2 PUSH1 0x20 ADD SWAP2 PUSH2 0x728 JUMP JUMPDEST DUP3 ADD SWAP2 SWAP1 PUSH0 MSTORE PUSH1 0x20 PUSH0 KECCAK256 SWAP1 JUMPDEST DUP2 SLOAD DUP2 MSTORE SWAP1 PUSH1 0x1 ADD SWAP1 PUSH1 0x20 ADD DUP1 DUP4 GT PUSH2 0x70B JUMPI DUP3 SWAP1 SUB PUSH1 0x1F AND DUP3 ADD SWAP2 JUMPDEST POP POP POP POP POP SWAP1 POP SWAP1 JUMP JUMPDEST PUSH1 0x6 PUSH0 SWAP1 SLOAD SWAP1 PUSH2 0x100 EXP SWAP1 DIV PUSH20 0xFFFFFFFFFFFFFFFFFFFFFFFFFFFFFFFFFFFFFFFF AND PUSH20 0xFFFFFFFFFFFFFFFFFFFFFFFFFFFFFFFFFFFFFFFF AND CALLER PUSH20 0xFFFFFFFFFFFFFFFFFFFFFFFFFFFFFFFFFFFFFFFF AND EQ PUSH2 0x7C1 JUMPI PUSH1 0x40 MLOAD PUSH32 0x8C379A000000000000000000000000000000000000000000000000000000000 DUP2 MSTORE PUSH1 0x4 ADD PUSH2 0x7B8 SWAP1 PUSH2 0x1364 JUMP JUMPDEST PUSH1 0x40 MLOAD DUP1 SWAP2 SUB SWAP1 REVERT JUMPDEST PUSH0 PUSH20 0xFFFFFFFFFFFFFFFFFFFFFFFFFFFFFFFFFFFFFFFF AND DUP3 PUSH20 0xFFFFFFFFFFFFFFFFFFFFFFFFFFFFFFFFFFFFFFFF AND SUB PUSH2 0x82F JUMPI PUSH1 0x40 MLOAD PUSH32 0x8C379A000000000000000000000000000000000000000000000000000000000 DUP2 MSTORE PUSH1 0x4 ADD PUSH2 0x826 SWAP1 PUSH2 0x13F2 JUMP JUMPDEST PUSH1 0x40 MLOAD DUP1 SWAP2 SUB SWAP1 REVERT JUMPDEST PUSH0 DUP2 GT PUSH2 0x871 JUMPI PUSH1 0x40 MLOAD PUSH32 0x8C379A000000000000000000000000000000000000000000000000000000000 DUP2 MSTORE PUSH1 0x4 ADD PUSH2 0x868 SWAP1 PUSH2 0x1548 JUMP JUMPDEST PUSH1 0x40 MLOAD DUP1 SWAP2 SUB SWAP1 REVERT JUMPDEST PUSH2 0x87B DUP3 DUP3 PUSH2 0xB87 JUMP JUMPDEST POP POP JUMP JUMPDEST PUSH0 DUP1 PUSH2 0x889 PUSH2 0x96C JUMP JUMPDEST SWAP1 POP PUSH2 0x896 DUP2 DUP6 DUP6 PUSH2 0xA18 JUMP JUMPDEST PUSH1 0x1 SWAP2 POP POP SWAP3 SWAP2 POP POP JUMP JUMPDEST PUSH1 0x6 PUSH0 SWAP1 SLOAD SWAP1 PUSH2 0x100 EXP SWAP1 DIV PUSH20 0xFFFFFFFFFFFFFFFFFFFFFFFFFFFFFFFFFFFFFFFF AND DUP2 JUMP JUMPDEST PUSH0 PUSH1 0x1 PUSH0 DUP5 PUSH20 0xFFFFFFFFFFFFFFFFFFFFFFFFFFFFFFFFFFFFFFFF AND PUSH20 0xFFFFFFFFFFFFFFFFFFFFFFFFFFFFFFFFFFFFFFFF AND DUP2 MSTORE PUSH1 0x20 ADD SWAP1 DUP2 MSTORE PUSH1 0x20 ADD PUSH0 KECCAK256 PUSH0 DUP4 PUSH20 0xFFFFFFFFFFFFFFFFFFFFFFFFFFFFFFFFFFFFFFFF AND PUSH20 0xFFFFFFFFFFFFFFFFFFFFFFFFFFFFFFFFFFFFFFFF AND DUP2 MSTORE PUSH1 0x20 ADD SWAP1 DUP2 MSTORE PUSH1 0x20 ADD PUSH0 KECCAK256 SLOAD SWAP1 POP SWAP3 SWAP2 POP POP JUMP JUMPDEST PUSH32 0x0 DUP2 JUMP JUMPDEST PUSH0 CALLER SWAP1 POP SWAP1 JUMP JUMPDEST PUSH2 0x980 DUP4 DUP4 DUP4 PUSH1 0x1 PUSH2 0xC06 JUMP JUMPDEST POP POP POP JUMP JUMPDEST PUSH0 PUSH2 0x990 DUP5 DUP5 PUSH2 0x8C6 JUMP JUMPDEST SWAP1 POP PUSH32 0xFFFFFFFFFFFFFFFFFFFFFFFFFFFFFFFFFFFFFFFFFFFFFFFFFFFFFFFFFFFFFFFF DUP2 LT ISZERO PUSH2 0xA12 JUMPI DUP2 DUP2 LT ISZERO PUSH2 0xA03 JUMPI DUP3 DUP2 DUP4 PUSH1 0x40 MLOAD PUSH32 0xFB8F41B200000000000000000000000000000000000000000000000000000000 DUP2 MSTORE PUSH1 0x4 ADD PUSH2 0x9FA SWAP4 SWAP3 SWAP2 SWAP1 PUSH2 0x1566 JUMP JUMPDEST PUSH1 0x40 MLOAD DUP1 SWAP2 SUB SWAP1 REVERT JUMPDEST PUSH2 0xA11 DUP5 DUP5 DUP5 DUP5 SUB PUSH0 PUSH2 0xC06 JUMP JUMPDEST JUMPDEST POP POP POP POP JUMP JUMPDEST PUSH0 PUSH20 0xFFFFFFFFFFFFFFFFFFFFFFFFFFFFFFFFFFFFFFFF AND DUP4 PUSH20 0xFFFFFFFFFFFFFFFFFFFFFFFFFFFFFFFFFFFFFFFF AND SUB PUSH2 0xA88 JUMPI PUSH0 PUSH1 0x40 MLOAD PUSH32 0x96C6FD1E00000000000000000000000000000000000000000000000000000000 DUP2 MSTORE PUSH1 0x4 ADD PUSH2 0xA7F SWAP2 SWAP1 PUSH2 0x1266 JUMP JUMPDEST PUSH1 0x40 MLOAD DUP1 SWAP2 SUB SWAP1 REVERT JUMPDEST PUSH0 PUSH20 0xFFFFFFFFFFFFFFFFFFFFFFFFFFFFFFFFFFFFFFFF AND DUP3 PUSH20 0xFFFFFFFFFFFFFFFFFFFFFFFFFFFFFFFFFFFFFFFF AND SUB PUSH2 0xAF8 JUMPI PUSH0 PUSH1 0x40 MLOAD PUSH32 0xEC442F0500000000000000000000000000000000000000000000000000000000 DUP2 MSTORE PUSH1 0x4 ADD PUSH2 0xAEF SWAP2 SWAP1 PUSH2 0x1266 JUMP JUMPDEST PUSH1 0x40 MLOAD DUP1 SWAP2 SUB SWAP1 REVERT JUMPDEST PUSH2 0xB03 DUP4 DUP4 DUP4 PUSH2 0xDD5 JUMP JUMPDEST POP POP POP JUMP JUMPDEST PUSH0 PUSH20 0xFFFFFFFFFFFFFFFFFFFFFFFFFFFFFFFFFFFFFFFF AND DUP3 PUSH20 0xFFFFFFFFFFFFFFFFFFFFFFFFFFFFFFFFFFFFFFFF AND SUB PUSH2 0xB78 JUMPI PUSH0 PUSH1 0x40 MLOAD PUSH32 0xEC442F0500000000000000000000000000000000000000000000000000000000 DUP2 MSTORE PUSH1 0x4 ADD PUSH2 0xB6F SWAP2 SWAP1 PUSH2 0x1266 JUMP JUMPDEST PUSH1 0x40 MLOAD DUP1 SWAP2 SUB SWAP1 REVERT JUMPDEST PUSH2 0xB83 PUSH0 DUP4 DUP4 PUSH2 0xDD5 JUMP JUMPDEST POP POP JUMP JUMPDEST PUSH0 PUSH20 0xFFFFFFFFFFFFFFFFFFFFFFFFFFFFFFFFFFFFFFFF AND DUP3 PUSH20 0xFFFFFFFFFFFFFFFFFFFFFFFFFFFFFFFFFFFFFFFF AND SUB PUSH2 0xBF7 JUMPI PUSH0 PUSH1 0x40 MLOAD PUSH32 0x96C6FD1E00000000000000000000000000000000000000000000000000000000 DUP2 MSTORE PUSH1 0x4 ADD PUSH2 0xBEE SWAP2 SWAP1 PUSH2 0x1266 JUMP JUMPDEST PUSH1 0x40 MLOAD DUP1 SWAP2 SUB SWAP1 REVERT JUMPDEST PUSH2 0xC02 DUP3 PUSH0 DUP4 PUSH2 0xDD5 JUMP JUMPDEST POP POP JUMP JUMPDEST PUSH0 PUSH20 0xFFFFFFFFFFFFFFFFFFFFFFFFFFFFFFFFFFFFFFFF AND DUP5 PUSH20 0xFFFFFFFFFFFFFFFFFFFFFFFFFFFFFFFFFFFFFFFF AND SUB PUSH2 0xC76 JUMPI PUSH0 PUSH1 0x40 MLOAD PUSH32 0xE602DF0500000000000000000000000000000000000000000000000000000000 DUP2 MSTORE PUSH1 0x4 ADD PUSH2 0xC6D SWAP2 SWAP1 PUSH2 0x1266 JUMP JUMPDEST PUSH1 0x40 MLOAD DUP1 SWAP2 SUB SWAP1 REVERT JUMPDEST PUSH0 PUSH20 0xFFFFFFFFFFFFFFFFFFFFFFFFFFFFFFFFFFFFFFFF AND DUP4 PUSH20 0xFFFFFFFFFFFFFFFFFFFFFFFFFFFFFFFFFFFFFFFF AND SUB PUSH2 0xCE6 JUMPI PUSH0 PUSH1 0x40 MLOAD PUSH32 0x94280D6200000000000000000000000000000000000000000000000000000000 DUP2 MSTORE PUSH1 0x4 ADD PUSH2 0xCDD SWAP2 SWAP1 PUSH2 0x1266 JUMP JUMPDEST PUSH1 0x40 MLOAD DUP1 SWAP2 SUB SWAP1 REVERT JUMPDEST DUP2 PUSH1 0x1 PUSH0 DUP7 PUSH20 0xFFFFFFFFFFFFFFFFFFFFFFFFFFFFFFFFFFFFFFFF AND PUSH20 0xFFFFFFFFFFFFFFFFFFFFFFFFFFFFFFFFFFFFFFFF AND DUP2 MSTORE PUSH1 0x20 ADD SWAP1 DUP2 MSTORE PUSH1 0x20 ADD PUSH0 KECCAK256 PUSH0 DUP6 PUSH20 0xFFFFFFFFFFFFFFFFFFFFFFFFFFFFFFFFFFFFFFFF AND PUSH20 0xFFFFFFFFFFFFFFFFFFFFFFFFFFFFFFFFFFFFFFFF AND DUP2 MSTORE PUSH1 0x20 ADD SWAP1 DUP2 MSTORE PUSH1 0x20 ADD PUSH0 KECCAK256 DUP2 SWAP1 SSTORE POP DUP1 ISZERO PUSH2 0xDCF JUMPI DUP3 PUSH20 0xFFFFFFFFFFFFFFFFFFFFFFFFFFFFFFFFFFFFFFFF AND DUP5 PUSH20 0xFFFFFFFFFFFFFFFFFFFFFFFFFFFFFFFFFFFFFFFF AND PUSH32 0x8C5BE1E5EBEC7D5BD14F71427D1E84F3DD0314C0F7B2291E5B200AC8C7C3B925 DUP5 PUSH1 0x40 MLOAD PUSH2 0xDC6 SWAP2 SWAP1 PUSH2 0x118F JUMP JUMPDEST PUSH1 0x40 MLOAD DUP1 SWAP2 SUB SWAP1 LOG3 JUMPDEST POP POP POP POP JUMP JUMPDEST PUSH0 PUSH20 0xFFFFFFFFFFFFFFFFFFFFFFFFFFFFFFFFFFFFFFFF AND DUP4 PUSH20 0xFFFFFFFFFFFFFFFFFFFFFFFFFFFFFFFFFFFFFFFF AND SUB PUSH2 0xE25 JUMPI DUP1 PUSH1 0x2 PUSH0 DUP3 DUP3 SLOAD PUSH2 0xE19 SWAP2 SWAP1 PUSH2 0x143D JUMP JUMPDEST SWAP3 POP POP DUP2 SWAP1 SSTORE POP PUSH2 0xEF3 JUMP JUMPDEST PUSH0 DUP1 PUSH0 DUP6 PUSH20 0xFFFFFFFFFFFFFFFFFFFFFFFFFFFFFFFFFFFFFFFF AND PUSH20 0xFFFFFFFFFFFFFFFFFFFFFFFFFFFFFFFFFFFFFFFF AND DUP2 MSTORE PUSH1 0x20 ADD SWAP1 DUP2 MSTORE PUSH1 0x20 ADD PUSH0 KECCAK256 SLOAD SWAP1 POP DUP2 DUP2 LT ISZERO PUSH2 0xEAE JUMPI DUP4 DUP2 DUP4 PUSH1 0x40 MLOAD PUSH32 0xE450D38C00000000000000000000000000000000000000000000000000000000 DUP2 MSTORE PUSH1 0x4 ADD PUSH2 0xEA5 SWAP4 SWAP3 SWAP2 SWAP1 PUSH2 0x1566 JUMP JUMPDEST PUSH1 0x40 MLOAD DUP1 SWAP2 SUB SWAP1 REVERT JUMPDEST DUP2 DUP2 SUB PUSH0 DUP1 DUP7 PUSH20 0xFFFFFFFFFFFFFFFFFFFFFFFFFFFFFFFFFFFFFFFF AND PUSH20 0xFFFFFFFFFFFFFFFFFFFFFFFFFFFFFFFFFFFFFFFF AND DUP2 MSTORE PUSH1 0x20 ADD SWAP1 DUP2 MSTORE PUSH1 0x20 ADD PUSH0 KECCAK256 DUP2 SWAP1 SSTORE POP POP JUMPDEST PUSH0 PUSH20 0xFFFFFFFFFFFFFFFFFFFFFFFFFFFFFFFFFFFFFFFF AND DUP3 PUSH20 0xFFFFFFFFFFFFFFFFFFFFFFFFFFFFFFFFFFFFFFFF AND SUB PUSH2 0xF3A JUMPI DUP1 PUSH1 0x2 PUSH0 DUP3 DUP3 SLOAD SUB SWAP3 POP POP DUP2 SWAP1 SSTORE POP PUSH2 0xF84 JUMP JUMPDEST DUP1 PUSH0 DUP1 DUP5 PUSH20 0xFFFFFFFFFFFFFFFFFFFFFFFFFFFFFFFFFFFFFFFF AND PUSH20 0xFFFFFFFFFFFFFFFFFFFFFFFFFFFFFFFFFFFFFFFF AND DUP2 MSTORE PUSH1 0x20 ADD SWAP1 DUP2 MSTORE PUSH1 0x20 ADD PUSH0 KECCAK256 PUSH0 DUP3 DUP3 SLOAD ADD SWAP3 POP POP DUP2 SWAP1 SSTORE POP JUMPDEST DUP2 PUSH20 0xFFFFFFFFFFFFFFFFFFFFFFFFFFFFFFFFFFFFFFFF AND DUP4 PUSH20 0xFFFFFFFFFFFFFFFFFFFFFFFFFFFFFFFFFFFFFFFF AND PUSH32 0xDDF252AD1BE2C89B69C2B068FC378DAA952BA7F163C4A11628F55A4DF523B3EF DUP4 PUSH1 0x40 MLOAD PUSH2 0xFE1 SWAP2 SWAP1 PUSH2 0x118F JUMP JUMPDEST PUSH1 0x40 MLOAD DUP1 SWAP2 SUB SWAP1 LOG3 POP POP POP JUMP JUMPDEST PUSH0 DUP2 MLOAD SWAP1 POP SWAP2 SWAP1 POP JUMP JUMPDEST PUSH0 DUP3 DUP3 MSTORE PUSH1 0x20 DUP3 ADD SWAP1 POP SWAP3 SWAP2 POP POP JUMP JUMPDEST DUP3 DUP2 DUP4 MCOPY PUSH0 DUP4 DUP4 ADD MSTORE POP POP POP JUMP JUMPDEST PUSH0 PUSH1 0x1F NOT PUSH1 0x1F DUP4 ADD AND SWAP1 POP SWAP2 SWAP1 POP JUMP JUMPDEST PUSH0 PUSH2 0x1030 DUP3 PUSH2 0xFEE JUMP JUMPDEST PUSH2 0x103A DUP2 DUP6 PUSH2 0xFF8 JUMP JUMPDEST SWAP4 POP PUSH2 0x104A DUP2 DUP6 PUSH1 0x20 DUP7 ADD PUSH2 0x1008 JUMP JUMPDEST PUSH2 0x1053 DUP2 PUSH2 0x1016 JUMP JUMPDEST DUP5 ADD SWAP2 POP POP SWAP3 SWAP2 POP POP JUMP JUMPDEST PUSH0 PUSH1 0x20 DUP3 ADD SWAP1 POP DUP2 DUP2 SUB PUSH0 DUP4 ADD MSTORE PUSH2 0x1076 DUP2 DUP5 PUSH2 0x1026 JUMP JUMPDEST SWAP1 POP SWAP3 SWAP2 POP POP JUMP JUMPDEST PUSH0 DUP1 REVERT JUMPDEST PUSH0 PUSH20 0xFFFFFFFFFFFFFFFFFFFFFFFFFFFFFFFFFFFFFFFF DUP3 AND SWAP1 POP SWAP2 SWAP1 POP JUMP JUMPDEST PUSH0 PUSH2 0x10AB DUP3 PUSH2 0x1082 JUMP JUMPDEST SWAP1 POP SWAP2 SWAP1 POP JUMP JUMPDEST PUSH2 0x10BB DUP2 PUSH2 0x10A1 JUMP JUMPDEST DUP2 EQ PUSH2 0x10C5 JUMPI PUSH0 DUP1 REVERT JUMPDEST POP JUMP JUMPDEST PUSH0 DUP2 CALLDATALOAD SWAP1 POP PUSH2 0x10D6 DUP2 PUSH2 0x10B2 JUMP JUMPDEST SWAP3 SWAP2 POP POP JUMP JUMPDEST PUSH0 DUP2 SWAP1 POP SWAP2 SWAP1 POP JUMP JUMPDEST PUSH2 0x10EE DUP2 PUSH2 0x10DC JUMP JUMPDEST DUP2 EQ PUSH2 0x10F8 JUMPI PUSH0 DUP1 REVERT JUMPDEST POP JUMP JUMPDEST PUSH0 DUP2 CALLDATALOAD SWAP1 POP PUSH2 0x1109 DUP2 PUSH2 0x10E5 JUMP JUMPDEST SWAP3 SWAP2 POP POP JUMP JUMPDEST PUSH0 DUP1 PUSH1 0x40 DUP4 DUP6 SUB SLT ISZERO PUSH2 0x1125 JUMPI PUSH2 0x1124 PUSH2 0x107E JUMP JUMPDEST JUMPDEST PUSH0 PUSH2 0x1132 DUP6 DUP3 DUP7 ADD PUSH2 0x10C8 JUMP JUMPDEST SWAP3 POP POP PUSH1 0x20 PUSH2 0x1143 DUP6 DUP3 DUP7 ADD PUSH2 0x10FB JUMP JUMPDEST SWAP2 POP POP SWAP3 POP SWAP3 SWAP1 POP JUMP JUMPDEST PUSH0 DUP2 ISZERO ISZERO SWAP1 POP SWAP2 SWAP1 POP JUMP JUMPDEST PUSH2 0x1161 DUP2 PUSH2 0x114D JUMP JUMPDEST DUP3 MSTORE POP POP JUMP JUMPDEST PUSH0 PUSH1 0x20 DUP3 ADD SWAP1 POP PUSH2 0x117A PUSH0 DUP4 ADD DUP5 PUSH2 0x1158 JUMP JUMPDEST SWAP3 SWAP2 POP POP JUMP JUMPDEST PUSH2 0x1189 DUP2 PUSH2 0x10DC JUMP JUMPDEST DUP3 MSTORE POP POP JUMP JUMPDEST PUSH0 PUSH1 0x20 DUP3 ADD SWAP1 POP PUSH2 0x11A2 PUSH0 DUP4 ADD DUP5 PUSH2 0x1180 JUMP JUMPDEST SWAP3 SWAP2 POP POP JUMP JUMPDEST PUSH0 DUP1 PUSH0 PUSH1 0x60 DUP5 DUP7 SUB SLT ISZERO PUSH2 0x11BF JUMPI PUSH2 0x11BE PUSH2 0x107E JUMP JUMPDEST JUMPDEST PUSH0 PUSH2 0x11CC DUP7 DUP3 DUP8 ADD PUSH2 0x10C8 JUMP JUMPDEST SWAP4 POP POP PUSH1 0x20 PUSH2 0x11DD DUP7 DUP3 DUP8 ADD PUSH2 0x10C8 JUMP JUMPDEST SWAP3 POP POP PUSH1 0x40 PUSH2 0x11EE DUP7 DUP3 DUP8 ADD PUSH2 0x10FB JUMP JUMPDEST SWAP2 POP POP SWAP3 POP SWAP3 POP SWAP3 JUMP JUMPDEST PUSH0 PUSH1 0xFF DUP3 AND SWAP1 POP SWAP2 SWAP1 POP JUMP JUMPDEST PUSH2 0x120D DUP2 PUSH2 0x11F8 JUMP JUMPDEST DUP3 MSTORE POP POP JUMP JUMPDEST PUSH0 PUSH1 0x20 DUP3 ADD SWAP1 POP PUSH2 0x1226 PUSH0 DUP4 ADD DUP5 PUSH2 0x1204 JUMP JUMPDEST SWAP3 SWAP2 POP POP JUMP JUMPDEST PUSH0 PUSH1 0x20 DUP3 DUP5 SUB SLT ISZERO PUSH2 0x1241 JUMPI PUSH2 0x1240 PUSH2 0x107E JUMP JUMPDEST JUMPDEST PUSH0 PUSH2 0x124E DUP5 DUP3 DUP6 ADD PUSH2 0x10C8 JUMP JUMPDEST SWAP2 POP POP SWAP3 SWAP2 POP POP JUMP JUMPDEST PUSH2 0x1260 DUP2 PUSH2 0x10A1 JUMP JUMPDEST DUP3 MSTORE POP POP JUMP JUMPDEST PUSH0 PUSH1 0x20 DUP3 ADD SWAP1 POP PUSH2 0x1279 PUSH0 DUP4 ADD DUP5 PUSH2 0x1257 JUMP JUMPDEST SWAP3 SWAP2 POP POP JUMP JUMPDEST PUSH0 DUP1 PUSH1 0x40 DUP4 DUP6 SUB SLT ISZERO PUSH2 0x1295 JUMPI PUSH2 0x1294 PUSH2 0x107E JUMP JUMPDEST JUMPDEST PUSH0 PUSH2 0x12A2 DUP6 DUP3 DUP7 ADD PUSH2 0x10C8 JUMP JUMPDEST SWAP3 POP POP PUSH1 0x20 PUSH2 0x12B3 DUP6 DUP3 DUP7 ADD PUSH2 0x10C8 JUMP JUMPDEST SWAP2 POP POP SWAP3 POP SWAP3 SWAP1 POP JUMP JUMPDEST PUSH32 0x4E487B7100000000000000000000000000000000000000000000000000000000 PUSH0 MSTORE PUSH1 0x22 PUSH1 0x4 MSTORE PUSH1 0x24 PUSH0 REVERT JUMPDEST PUSH0 PUSH1 0x2 DUP3 DIV SWAP1 POP PUSH1 0x1 DUP3 AND DUP1 PUSH2 0x1301 JUMPI PUSH1 0x7F DUP3 AND SWAP2 POP JUMPDEST PUSH1 0x20 DUP3 LT DUP2 SUB PUSH2 0x1314 JUMPI PUSH2 0x1313 PUSH2 0x12BD JUMP JUMPDEST JUMPDEST POP SWAP2 SWAP1 POP JUMP JUMPDEST PUSH32 0x536F6C6F207075656465206C6C616D617220656C206F776E6572000000000000 PUSH0 DUP3 ADD MSTORE POP JUMP JUMPDEST PUSH0 PUSH2 0x134E PUSH1 0x1A DUP4 PUSH2 0xFF8 JUMP JUMPDEST SWAP2 POP PUSH2 0x1359 DUP3 PUSH2 0x131A JUMP JUMPDEST PUSH1 0x20 DUP3 ADD SWAP1 POP SWAP2 SWAP1 POP JUMP JUMPDEST PUSH0 PUSH1 0x20 DUP3 ADD SWAP1 POP DUP2 DUP2 SUB PUSH0 DUP4 ADD MSTORE PUSH2 0x137B DUP2 PUSH2 0x1342 JUMP JUMPDEST SWAP1 POP SWAP2 SWAP1 POP JUMP JUMPDEST PUSH32 0x4C6120646972656363696F6E2064657374696E6F206E6F2065732076616C6964 PUSH0 DUP3 ADD MSTORE PUSH32 0x6100000000000000000000000000000000000000000000000000000000000000 PUSH1 0x20 DUP3 ADD MSTORE POP JUMP JUMPDEST PUSH0 PUSH2 0x13DC PUSH1 0x21 DUP4 PUSH2 0xFF8 JUMP JUMPDEST SWAP2 POP PUSH2 0x13E7 DUP3 PUSH2 0x1382 JUMP JUMPDEST PUSH1 0x40 DUP3 ADD SWAP1 POP SWAP2 SWAP1 POP JUMP JUMPDEST PUSH0 PUSH1 0x20 DUP3 ADD SWAP1 POP DUP2 DUP2 SUB PUSH0 DUP4 ADD MSTORE PUSH2 0x1409 DUP2 PUSH2 0x13D0 JUMP JUMPDEST SWAP1 POP SWAP2 SWAP1 POP JUMP JUMPDEST PUSH32 0x4E487B7100000000000000000000000000000000000000000000000000000000 PUSH0 MSTORE PUSH1 0x11 PUSH1 0x4 MSTORE PUSH1 0x24 PUSH0 REVERT JUMPDEST PUSH0 PUSH2 0x1447 DUP3 PUSH2 0x10DC JUMP JUMPDEST SWAP2 POP PUSH2 0x1452 DUP4 PUSH2 0x10DC JUMP JUMPDEST SWAP3 POP DUP3 DUP3 ADD SWAP1 POP DUP1 DUP3 GT ISZERO PUSH2 0x146A JUMPI PUSH2 0x1469 PUSH2 0x1410 JUMP JUMPDEST JUMPDEST SWAP3 SWAP2 POP POP JUMP JUMPDEST PUSH32 0x4E6F2073652070756564656E20656D69746972206D617320746F6B656E732100 PUSH0 DUP3 ADD MSTORE POP JUMP JUMPDEST PUSH0 PUSH2 0x14A4 PUSH1 0x1F DUP4 PUSH2 0xFF8 JUMP JUMPDEST SWAP2 POP PUSH2 0x14AF DUP3 PUSH2 0x1470 JUMP JUMPDEST PUSH1 0x20 DUP3 ADD SWAP1 POP SWAP2 SWAP1 POP JUMP JUMPDEST PUSH0 PUSH1 0x20 DUP3 ADD SWAP1 POP DUP2 DUP2 SUB PUSH0 DUP4 ADD MSTORE PUSH2 0x14D1 DUP2 PUSH2 0x1498 JUMP JUMPDEST SWAP1 POP SWAP2 SWAP1 POP JUMP JUMPDEST PUSH32 0x4E6F20736520707565646520656C696D696E61722030206E6920756E206E756D PUSH0 DUP3 ADD MSTORE PUSH32 0x65726F206E6567617469766F20646520746F6B656E732E000000000000000000 PUSH1 0x20 DUP3 ADD MSTORE POP JUMP JUMPDEST PUSH0 PUSH2 0x1532 PUSH1 0x37 DUP4 PUSH2 0xFF8 JUMP JUMPDEST SWAP2 POP PUSH2 0x153D DUP3 PUSH2 0x14D8 JUMP JUMPDEST PUSH1 0x40 DUP3 ADD SWAP1 POP SWAP2 SWAP1 POP JUMP JUMPDEST PUSH0 PUSH1 0x20 DUP3 ADD SWAP1 POP DUP2 DUP2 SUB PUSH0 DUP4 ADD MSTORE PUSH2 0x155F DUP2 PUSH2 0x1526 JUMP JUMPDEST SWAP1 POP SWAP2 SWAP1 POP JUMP JUMPDEST PUSH0 PUSH1 0x60 DUP3 ADD SWAP1 POP PUSH2 0x1579 PUSH0 DUP4 ADD DUP7 PUSH2 0x1257 JUMP JUMPDEST PUSH2 0x1586 PUSH1 0x20 DUP4 ADD DUP6 PUSH2 0x1180 JUMP JUMPDEST PUSH2 0x1593 PUSH1 0x40 DUP4 ADD DUP5 PUSH2 0x1180 JUMP JUMPDEST SWAP5 SWAP4 POP POP POP POP JUMP INVALID LOG2 PUSH5 0x6970667358 0x22 SLT KECCAK256 0xA5 LT 0xF 0xDB 0x2F 0xE0 0xB7 DUP2 0xA8 LOG2 CODECOPY RETURNDATACOPY 0x4C BLOBHASH 0xDD MCOPY SWAP7 DUP10 GAS DUP11 0xC7 0xC3 0xEA 0x23 0xAC 0x23 0xD7 SWAP7 0xD2 LOG2 DUP1 JUMP PUSH5 0x736F6C6343 STOP ADDMOD BYTE STOP CALLER "
		},
		"gasEstimates": {
			"creation": {
				"codeDepositCost": "5042400",
				"executionCost": "infinite",
				"totalCost": "infinite"
			},
			"external": {
				"_owner()": "infinite",
				"addParticipant()": "infinite",
				"addProposal(string,string,uint256,address)": "infinite",
				"buyTokens()": "infinite",
				"cancelProposal(uint256)": "infinite",
				"closeVoting()": "infinite",
				"getERC20()": "2605",
				"getProposalInfo(uint256)": "infinite",
				"numPendingProposals()": "2491",
				"numProposals()": "2493",
				"openVoting()": "infinite",
				"proposals(uint256)": "infinite",
				"removeParticipant()": "51133",
				"sellTokens(uint256)": "infinite",
				"stake(uint256,uint256)": "infinite",
				"votingContract()": "infinite",
				"withdrawFromProposal(uint256,uint256)": "infinite"
			},
			"internal": {
				"_checkAndExecuteProposal(uint256)": "infinite",
				"calculateThresold(uint256)": "infinite",
				"getApprovedProposals()": "infinite",
				"getPendingProposals()": "infinite",
				"getSignalingProposals()": "infinite"
			}
		},
		"methodIdentifiers": {
			"_owner()": "b2bdfa7b",
			"addParticipant()": "fffefd91",
			"addProposal(string,string,uint256,address)": "9ab3f7a6",
			"buyTokens()": "d0febe4c",
			"cancelProposal(uint256)": "e0a8f6f5",
			"closeVoting()": "c631b292",
			"getERC20()": "4ece90a8",
			"getProposalInfo(uint256)": "bc903cb8",
			"numPendingProposals()": "da52a95f",
			"numProposals()": "400e3949",
			"openVoting()": "affc0670",
			"proposals(uint256)": "013cf08b",
			"removeParticipant()": "3d571e97",
			"sellTokens(uint256)": "6c11bcd3",
			"stake(uint256,uint256)": "7b0472f0",
			"votingContract()": "c1fc006a",
			"withdrawFromProposal(uint256,uint256)": "649c649c"
		}
	},
	"abi": [
		{
			"inputs": [
				{
					"internalType": "uint256",
					"name": "_tokenPrice",
					"type": "uint256"
				},
				{
					"internalType": "uint256",
					"name": "_maxTokens",
					"type": "uint256"
				}
			],
			"stateMutability": "nonpayable",
			"type": "constructor"
		},
		{
			"inputs": [],
			"name": "_owner",
			"outputs": [
				{
					"internalType": "address",
					"name": "",
					"type": "address"
				}
			],
			"stateMutability": "view",
			"type": "function"
		},
		{
			"inputs": [],
			"name": "addParticipant",
			"outputs": [],
			"stateMutability": "payable",
			"type": "function"
		},
		{
			"inputs": [
				{
					"internalType": "string",
					"name": "title",
					"type": "string"
				},
				{
					"internalType": "string",
					"name": "description",
					"type": "string"
				},
				{
					"internalType": "uint256",
					"name": "budget",
					"type": "uint256"
				},
				{
					"internalType": "address",
					"name": "proposalContract",
					"type": "address"
				}
			],
			"name": "addProposal",
			"outputs": [
				{
					"internalType": "uint256",
					"name": "",
					"type": "uint256"
				}
			],
			"stateMutability": "nonpayable",
			"type": "function"
		},
		{
			"inputs": [],
			"name": "buyTokens",
			"outputs": [],
			"stateMutability": "payable",
			"type": "function"
		},
		{
			"inputs": [
				{
					"internalType": "uint256",
					"name": "idProposal",
					"type": "uint256"
				}
			],
			"name": "cancelProposal",
			"outputs": [],
			"stateMutability": "nonpayable",
			"type": "function"
		},
		{
			"inputs": [],
			"name": "closeVoting",
			"outputs": [],
			"stateMutability": "nonpayable",
			"type": "function"
		},
		{
			"inputs": [],
			"name": "getERC20",
			"outputs": [
				{
					"internalType": "address",
					"name": "",
					"type": "address"
				}
			],
			"stateMutability": "view",
			"type": "function"
		},
		{
			"inputs": [
				{
					"internalType": "uint256",
					"name": "idProposal",
					"type": "uint256"
				}
			],
			"name": "getProposalInfo",
			"outputs": [
				{
					"components": [
						{
							"internalType": "uint256",
							"name": "id",
							"type": "uint256"
						},
						{
							"internalType": "string",
							"name": "_title",
							"type": "string"
						},
						{
							"internalType": "string",
							"name": "_description",
							"type": "string"
						},
						{
							"internalType": "uint256",
							"name": "_budget",
							"type": "uint256"
						},
						{
							"internalType": "uint256",
							"name": "_votes",
							"type": "uint256"
						},
						{
							"internalType": "uint256",
							"name": "_umbral",
							"type": "uint256"
						},
						{
							"internalType": "address",
							"name": "_contractProposal",
							"type": "address"
						},
						{
							"internalType": "address",
							"name": "_creator",
							"type": "address"
						},
						{
							"internalType": "bool",
							"name": "_isSignaling",
							"type": "bool"
						},
						{
							"internalType": "bool",
							"name": "_isApproved",
							"type": "bool"
						},
						{
							"internalType": "bool",
							"name": "_isCanceled",
							"type": "bool"
						},
						{
							"internalType": "uint256",
							"name": "_numTokens",
							"type": "uint256"
						},
						{
							"internalType": "address[]",
							"name": "_voters",
							"type": "address[]"
						}
					],
					"internalType": "struct QuadraticVoting.Proposal",
					"name": "",
					"type": "tuple"
				}
			],
			"stateMutability": "view",
			"type": "function"
		},
		{
			"inputs": [],
			"name": "numPendingProposals",
			"outputs": [
				{
					"internalType": "uint256",
					"name": "",
					"type": "uint256"
				}
			],
			"stateMutability": "view",
			"type": "function"
		},
		{
			"inputs": [],
			"name": "numProposals",
			"outputs": [
				{
					"internalType": "uint256",
					"name": "",
					"type": "uint256"
				}
			],
			"stateMutability": "view",
			"type": "function"
		},
		{
			"inputs": [],
			"name": "openVoting",
			"outputs": [],
			"stateMutability": "payable",
			"type": "function"
		},
		{
			"inputs": [
				{
					"internalType": "uint256",
					"name": "",
					"type": "uint256"
				}
			],
			"name": "proposals",
			"outputs": [
				{
					"internalType": "uint256",
					"name": "id",
					"type": "uint256"
				},
				{
					"internalType": "string",
					"name": "_title",
					"type": "string"
				},
				{
					"internalType": "string",
					"name": "_description",
					"type": "string"
				},
				{
					"internalType": "uint256",
					"name": "_budget",
					"type": "uint256"
				},
				{
					"internalType": "uint256",
					"name": "_votes",
					"type": "uint256"
				},
				{
					"internalType": "uint256",
					"name": "_umbral",
					"type": "uint256"
				},
				{
					"internalType": "address",
					"name": "_contractProposal",
					"type": "address"
				},
				{
					"internalType": "address",
					"name": "_creator",
					"type": "address"
				},
				{
					"internalType": "bool",
					"name": "_isSignaling",
					"type": "bool"
				},
				{
					"internalType": "bool",
					"name": "_isApproved",
					"type": "bool"
				},
				{
					"internalType": "bool",
					"name": "_isCanceled",
					"type": "bool"
				},
				{
					"internalType": "uint256",
					"name": "_numTokens",
					"type": "uint256"
				}
			],
			"stateMutability": "view",
			"type": "function"
		},
		{
			"inputs": [],
			"name": "removeParticipant",
			"outputs": [],
			"stateMutability": "nonpayable",
			"type": "function"
		},
		{
			"inputs": [
				{
					"internalType": "uint256",
					"name": "tokensToReturn",
					"type": "uint256"
				}
			],
			"name": "sellTokens",
			"outputs": [],
			"stateMutability": "nonpayable",
			"type": "function"
		},
		{
			"inputs": [
				{
					"internalType": "uint256",
					"name": "idProposal",
					"type": "uint256"
				},
				{
					"internalType": "uint256",
					"name": "voteAmount",
					"type": "uint256"
				}
			],
			"name": "stake",
			"outputs": [],
			"stateMutability": "nonpayable",
			"type": "function"
		},
		{
			"inputs": [],
			"name": "votingContract",
			"outputs": [
				{
					"internalType": "contract VotingContract",
					"name": "",
					"type": "address"
				}
			],
			"stateMutability": "view",
			"type": "function"
		},
		{
			"inputs": [
				{
					"internalType": "uint256",
					"name": "voteAmount",
					"type": "uint256"
				},
				{
					"internalType": "uint256",
					"name": "idProposal",
					"type": "uint256"
				}
			],
			"name": "withdrawFromProposal",
			"outputs": [],
			"stateMutability": "nonpayable",
			"type": "function"
		}
	]
}