{
	"data": {
		"bytecode": {
			"linkReferences": {},
			"object": "60a060405234801561000f575f80fd5b506040516147aa3803806147aa83398101604081905261002e916101d6565b5f821161009a5760405162461bcd60e51b815260206004820152602f60248201527f456c2070726563696f206465206c6f7320746f6b656e7320646562652073657260448201526e206d61796f7220717565206365726f60881b60648201526084015b60405180910390fd5b5f811161010f5760405162461bcd60e51b815260206004820152603b60248201527f456c206d6178696d6f206e756d65726f20646520746f6b656e73206120656d6960448201527f746972206465626520736572206d61796f7220717565206365726f00000000006064820152608401610091565b336080526002805460ff191690556040518290829061012d906101c9565b6080808252600e908201526d2220a7902b37ba32902a37b5b2b760911b60a082015260c0602082018190526003908201526211159560ea1b60e08201526040810192909252606082015261010001604051809103905ff080158015610194573d5f803e3d5ffd5b505f80546001600160a01b0319166001600160a01b0392909216919091178155600a819055600b819055600155506101f89050565b610e708061393a83390190565b5f80604083850312156101e7575f80fd5b505080516020909101519092909150565b6080516137156102255f395f8181610213015281816114bf015281816118460152611d1501526137155ff3fe6080604052600436106100dc575f3560e01c8063affc067011610083578063affc0670146101fa578063b2bdfa7b14610202578063bc903cb814610235578063c1fc006a14610261578063c631b2921461027f578063d0febe4c14610293578063da52a95f1461029b578063e0a8f6f5146102b0578063fffefd91146102cf575f80fd5b8063013cf08b146100e05780633d571e9714610120578063400e3949146101365780634ece90a814610159578063649c649c1461017e5780636c11bcd31461019d5780637b0472f0146101bc5780639ab3f7a6146101db575b5f80fd5b3480156100eb575f80fd5b506100ff6100fa366004612f55565b6102d7565b6040516101179c9b9a99989796959493929190612f9a565b60405180910390f35b34801561012b575f80fd5b5061013461045c565b005b348015610141575f80fd5b5061014b600a5481565b604051908152602001610117565b348015610164575f80fd5b505f546001600160a01b03165b6040516101179190613029565b348015610189575f80fd5b5061013461019836600461303d565b6104be565b3480156101a8575f80fd5b506101346101b7366004612f55565b610984565b3480156101c7575f80fd5b506101346101d636600461303d565b610cf3565b3480156101e6575f80fd5b5061014b6101f53660046130a2565b611191565b6101346114b4565b34801561020d575f80fd5b506101717f000000000000000000000000000000000000000000000000000000000000000081565b348015610240575f80fd5b5061025461024f366004612f55565b611612565b604051610117919061317b565b34801561026c575f80fd5b505f54610171906001600160a01b031681565b34801561028a575f80fd5b5061013461183b565b610134611e48565b3480156102a6575f80fd5b5061014b600b5481565b3480156102bb575f80fd5b506101346102ca366004612f55565b6120aa565b61013461243e565b60096020525f9081526040902080546001820180549192916102f890613273565b80601f016020809104026020016040519081016040528092919081815260200182805461032490613273565b801561036f5780601f106103465761010080835404028352916020019161036f565b820191905f5260205f20905b81548152906001019060200180831161035257829003601f168201915b50505050509080600201805461038490613273565b80601f01602080910402602001604051908101604052809291908181526020018280546103b090613273565b80156103fb5780601f106103d2576101008083540402835291602001916103fb565b820191905f5260205f20905b8154815290600101906020018083116103de57829003601f168201915b50505060038401546004850154600586015460068701546007880154600890980154969793969295509093506001600160a01b03908116929081169160ff600160a01b8304811692600160a81b8104821692600160b01b909104909116908c565b335f9081526008602052604090205460ff166104935760405162461bcd60e51b815260040161048a906132a5565b60405180910390fd5b335f908152600860205260408120805460ff1916905560078054916104b783613310565b9190505550565b60025460ff166104e05760405162461bcd60e51b815260040161048a90613325565b80600a5481106105025760405162461bcd60e51b815260040161048a90613368565b335f9081526008602052604090205460ff166105305760405162461bcd60e51b815260040161048a906132a5565b5f828152600960205260409020600701548290600160b01b900460ff161561056a5760405162461bcd60e51b815260040161048a906133b0565b5f838152600960205260409020600701548390600160a81b900460ff16156105a45760405162461bcd60e51b815260040161048a90613409565b5f85116106015760405162461bcd60e51b815260206004820152602560248201527f4e65636573697461732064656a617220756e20766f746f20706f72206c6f206d60448201526432b737b99760d91b606482015260840161048a565b5f84815260036020908152604080832033845290915290205485111561068f5760405162461bcd60e51b815260206004820152603b60248201527f457374617320696e74656e74616e646f2072657469726172206d617320766f7460448201527f6f73206465206c6f732071756520686173207265616c697a61646f0000000000606482015260840161048a565b5f848152600360209081526040808320338452909152812054906106b38783613470565b90505f6106c08280613489565b6106ca8480613489565b6106d49190613470565b5f546040516370a0823160e01b815291925082916001600160a01b03909116906370a0823190610708903090600401613029565b602060405180830381865afa158015610723573d5f803e3d5ffd5b505050506040513d601f19601f8201168201806040525081019061074791906134a0565b10156107ab5760405162461bcd60e51b815260206004820152602d60248201527f4e6f2074656e656d6f7320737566696369656e74657320746f6b656e7320706160448201526c726120726574697261726c6f7360981b606482015260840161048a565b6107b533826126aa565b5f87815260036020908152604080832033845282528083208590558983526009909152812060040180548a92906107ed908490613470565b90915550505f8781526009602052604081206008018054839290610812908490613470565b90915550505f82900361097a575f8781526004602090815260408083203384528252808320548a84526009928390529083209091015490919061085790600190613470565b9050808214610902575f898152600960208190526040822001805483908110610882576108826134b7565b5f9182526020808320909101548c835260099182905260409092200180546001600160a01b0390921692508291859081106108bf576108bf6134b7565b5f91825260208083209190910180546001600160a01b0319166001600160a01b039485161790558c82526004815260408083209490931682529290925290208290555b5f89815260096020819052604090912001805480610922576109226134cb565b5f828152602080822083015f1990810180546001600160a01b03191690559092019092558a825260058152604080832033808552908352818420805460ff191690558c84526004835281842090845290915281205550505b5050505050505050565b335f9081526008602052604090205460ff166109b25760405162461bcd60e51b815260040161048a906132a5565b5f8111610a1b5760405162461bcd60e51b815260206004820152603160248201527f4e6f207075656465732076656e64657220756e612063616e746964616420696e6044820152703332b934b7b910309018903a37b5b2b71760791b606482015260840161048a565b5f546040516370a0823160e01b815282916001600160a01b0316906370a0823190610a4a903390600401613029565b602060405180830381865afa158015610a65573d5f803e3d5ffd5b505050506040513d601f19601f82011682018060405250810190610a8991906134a0565b1015610aed5760405162461bcd60e51b815260206004820152602d60248201527f4e6f207075656465732076656e646572206d617320746f6b656e73206465206c60448201526c6f732071756520706f7365657360981b606482015260840161048a565b5f805f9054906101000a90046001600160a01b03166001600160a01b0316634b94f50e6040518163ffffffff1660e01b8152600401602060405180830381865afa158015610b3d573d5f803e3d5ffd5b505050506040513d601f19601f82011682018060405250810190610b6191906134a0565b610b6b9083613489565b905080471015610bdd5760405162461bcd60e51b815260206004820152603760248201527f456c20636f6e747261746f206e6f207469656e65207265637572736f732070616044820152763930903232bb37b63b32b93a329032b61022ba3432b91760491b606482015260840161048a565b5f54604051632770a7eb60e21b81526001600160a01b0390911690639dc29fac90610c0e90339086906004016134df565b5f604051808303815f87803b158015610c25575f80fd5b505af1158015610c37573d5f803e3d5ffd5b50506040515f925033915083908381818185875af1925050503d805f8114610c7a576040519150601f19603f3d011682016040523d82523d5f602084013e610c7f565b606091505b5050905080610cee5760405162461bcd60e51b815260206004820152603560248201527f4c61207472616e73666572656e63696120646520457468657220616c207061726044820152743a34b1b4b830b73a32903430903330b63630b2379760591b606482015260840161048a565b505050565b60025460ff16610d155760405162461bcd60e51b815260040161048a90613325565b81600a548110610d375760405162461bcd60e51b815260040161048a90613368565b335f9081526008602052604090205460ff16610d655760405162461bcd60e51b815260040161048a906132a5565b5f838152600960205260409020600701548390600160b01b900460ff1615610d9f5760405162461bcd60e51b815260040161048a906133b0565b5f848152600960205260409020600701548490600160a81b900460ff1615610dd95760405162461bcd60e51b815260040161048a90613409565b5f8411610e50576040805162461bcd60e51b81526020600482015260248101919091527f4e6f20707565646573206465706f7369746172206d656e6f732064652031207660448201527f6f746f2e20436f6d6f20766173206120766f7461722073696e20766f7461723f606482015260840161048a565b5f85815260036020908152604080832033845290915281205490610e7486836134f8565b90505f610e818380613489565b610e8b8380613489565b610e959190613470565b5f54604051636eb1769f60e11b815233600482015230602482015291925082916001600160a01b039091169063dd62ed3e90604401602060405180830381865afa158015610ee5573d5f803e3d5ffd5b505050506040513d601f19601f82011682018060405250810190610f0991906134a0565b1015610f675760405162461bcd60e51b815260206004820152602760248201527f4e6f207469656e657320737566696369656e74657320746f6b656e732070617260448201526630903b37ba30b960c91b606482015260840161048a565b5f80546040516323b872dd60e01b8152336004820152306024820152604481018490526001600160a01b03909116906323b872dd906064016020604051808303815f875af1158015610fbb573d5f803e3d5ffd5b505050506040513d601f19601f82011682018060405250810190610fdf919061350b565b90508061103c5760405162461bcd60e51b815260206004820152602560248201527f4c61207472616e73666572656e63696120646520546f6b656e732068612066616044820152646c6c61646f60d81b606482015260840161048a565b835f036110c0575f89815260096020818152604083209091018054600181810183558285529284200180546001600160a01b03191633179055918b905290546110859190613470565b5f8a815260046020908152604080832033808552908352818420949094558c83526005825280832093835292905220805460ff191660011790555b5f89815260036020908152604080832033845282528083208690558b83526009909152812060040180548a92906110f89084906134f8565b90915550505f898152600960205260408120600801805484929061111d9084906134f8565b90915550505f89815260096020526040902060070154600160a01b900460ff16611186575f898152600960205260409020600581015460049091015411801561117857505f8981526009602052604090206003015460015410155b156111865761118689612856565b505050505050505050565b6002545f9060ff166111b55760405162461bcd60e51b815260040161048a90613325565b335f9081526008602052604090205460ff166111e35760405162461bcd60e51b815260040161048a906132a5565b6001600160a01b0382166112485760405162461bcd60e51b815260206004820152602660248201527f4c6120646972656363696f6e2064656c20636f6e747261746f206e6f2065732060448201526576616c69646160d01b606482015260840161048a565b856112aa5760405162461bcd60e51b815260206004820152602c60248201527f456c20746974756c6f206465206c612070726f707565737461206e6f2070756560448201526b64652073657220766163696f60a01b606482015260840161048a565b836113115760405162461bcd60e51b815260206004820152603160248201527f4c61206465736372697063696f6e206465206c612070726f707565737461206e6044820152706f2070756564652073657220766163696160781b606482015260840161048a565b600a80549081905f6113228361352a565b90915550505f81815260096020526040902081815560018101611346898b8361359a565b506002810161135687898361359a565b50600381018590556006810180546001600160a01b0386166001600160a01b0319918216179091556007820180549091163317905584156114175760078101805460ff60a01b19169055600b8054905f6113af8361352a565b9091555050600c8054600181810183555f8390527fdf6966c971051c3d54ec59162606531493a51404a002842f56009d7e5cf4a8c790910184905590546113f69190613470565b5f8381526006602052604090205561140d82612ddc565b6005820155611461565b60078101805460ff60a01b1916600160a01b179055600e80546001810182555f919091527fbb7b4a454dc3493923482f07822329ed19e8244eff582cc204f8554c3620c3fd018290555b5f600482018190556008820181905560078201805461ffff60a81b1916905560405183917f9a863892f20a6b9c6cec64d611b5864be6373191ce2cacc3b05a299bce3bf80e91a250979650505050505050565b336001600160a01b037f000000000000000000000000000000000000000000000000000000000000000016146114fc5760405162461bcd60e51b815260040161048a90613654565b60025460ff161561156f5760405162461bcd60e51b815260206004820152603760248201527f4c6120766f746163696f6e207961206573746120616269657274612c206e6f2060448201527670756564657320766f6c76657220612061627269726c6160481b606482015260840161048a565b5f34116115d55760405162461bcd60e51b815260206004820152602e60248201527f456c20707265737570756573746f20696e696369616c2064656265207365722060448201526d6d61796f7220717565206365726f60901b606482015260840161048a565b3460019081556002805460ff191690911790556040517f8089789a86616a2428e26766961eaaa205ab084aac14a9cb98704e59af2b89e6905f90a1565b61161a612e64565b60025460ff1661163c5760405162461bcd60e51b815260040161048a90613325565b81600a54811061165e5760405162461bcd60e51b815260040161048a90613368565b611666612e64565b8381525f84815260096020818152604083206003810154606086015260068101546001600160a01b0390811660c087015260078201541660e0860152928790525260020180546116b590613273565b80601f01602080910402602001604051908101604052809291908181526020018280546116e190613273565b801561172c5780601f106117035761010080835404028352916020019161172c565b820191905f5260205f20905b81548152906001019060200180831161170f57829003601f168201915b50505050604080840192909252505f85815260096020818152928220600781015460ff600160a81b820481161515610120880152600160b01b820481161515610140880152600160a01b90910416151561010086015291879052909152600101805461179790613273565b80601f01602080910402602001604051908101604052809291908181526020018280546117c390613273565b801561180e5780601f106117e55761010080835404028352916020019161180e565b820191905f5260205f20905b8154815290600101906020018083116117f157829003601f168201915b50505050602080840192909252505f8581526009909152604090206005015460a082015291505b50919050565b336001600160a01b037f000000000000000000000000000000000000000000000000000000000000000016146118835760405162461bcd60e51b815260040161048a90613654565b60025460ff166118a55760405162461bcd60e51b815260040161048a90613325565b5f5b600c54811015611a7a575f600c82815481106118c5576118c56134b7565b5f918252602080832090910154808352600990915260408220600701805460ff60b01b1916600160b01b179055600b8054919350909161190483613310565b91905055505f5b5f8281526009602081905260409091200154811015611a47575f828152600960208190526040822001805483908110611946576119466134b7565b5f9182526020808320909101548583526003825260408084206001600160a01b039092168085529190925291205490915080156119dc575f6119888280613489565b5f8681526003602090815260408083206001600160a01b038816808552908352818420849055898452600583528184209084529091529020805460ff19169055905080156119da576119da83826126aa565b505b505f8381526003602090815260408083206001600160a01b0390941680845293825280832083905585835260048252808320848452825280832083905585835260058252808320938352928152828220805460ff19169055848252600690529081205560010161190b565b505f81815260096020819052604082206004810183905560088101839055611a7192910190612eda565b506001016118a7565b505f5b600e54811015611cf3575f600e8281548110611a9b57611a9b6134b7565b5f9182526020808320909101548083526009909152604090912060078101549192509060ff600160b01b90910416158015611ae257506007810154600160a81b900460ff16155b15611ce95760068101546001600160a01b031615611bb3576006810154600482015460088301546040805160248101879052604481019390935260648084019290925280518084039092018252608490920182526020810180516001600160e01b031663986cc31160e01b17905290515f926001600160a01b031691620186a0918491611b6e916136aa565b5f60405180830381858888f193505050503d805f8114611ba9576040519150601f19603f3d011682016040523d82523d5f602084013e611bae565b606091505b505050505b5f5b6009820154811015611ccb575f826009018281548110611bd757611bd76134b7565b5f9182526020808320909101548683526003825260408084206001600160a01b03909216808552919092529120549091508015611c6d575f611c198280613489565b5f8781526003602090815260408083206001600160a01b0388168085529083528184208490558a8452600583528184209084529091529020805460ff1916905590508015611c6b57611c6b83826126aa565b505b505f8481526003602090815260408083206001600160a01b039094168084529382528083208390558683526004825280832084845282528083208390558683526005825280832093835292905220805460ff19169055600101611bb5565b505f6004820181905560088201819055611ce9906009830190612eda565b5050600101611a7d565b5060015415611ddc57600180545f918290556040519091906001600160a01b037f0000000000000000000000000000000000000000000000000000000000000000169083908381818185875af1925050503d805f8114611d6e576040519150601f19603f3d011682016040523d82523d5f602084013e611d73565b606091505b5050905080611dd95760405162461bcd60e51b815260206004820152602c60248201527f4c61207472616e73666572656e6369612064656c20707265737570756573746f60448201526b103430903330b63630b2379760a11b606482015260840161048a565b50505b6002805460ff19169055604080515f8152602081019182905251611e0291600e91612ef8565b50604080515f8152602081019182905251611e1f91600c91612ef8565b50604080515f8152602081019182905251611e3c91600d91612ef8565b505f600a819055600b55565b335f9081526008602052604090205460ff16611e765760405162461bcd60e51b815260040161048a906132a5565b5f8054906101000a90046001600160a01b03166001600160a01b0316634b94f50e6040518163ffffffff1660e01b8152600401602060405180830381865afa158015611ec4573d5f803e3d5ffd5b505050506040513d601f19601f82011682018060405250810190611ee891906134a0565b341015611f6b5760405162461bcd60e51b815260206004820152604560248201527f446562657320656e7669617220656c204574686572206e656365736172696f2060448201527f7061726120706f64657220636f6d7072617220616c206d656e6f7320756e207460648201526437b5b2b71760d91b608482015260a40161048a565b5f805f9054906101000a90046001600160a01b03166001600160a01b0316634b94f50e6040518163ffffffff1660e01b8152600401602060405180830381865afa158015611fbb573d5f803e3d5ffd5b505050506040513d601f19601f82011682018060405250810190611fdf91906134a0565b611fe990346136c0565b9050600181116120495760405162461bcd60e51b815260206004820152602560248201527f446562657320706f64657220636f6d7072617220616c206d656e6f7320756e206044820152642a37b5b2b760d91b606482015260840161048a565b5f546040516340c10f1960e01b81526001600160a01b03909116906340c10f199061207a90339085906004016134df565b5f604051808303815f87803b158015612091575f80fd5b505af11580156120a3573d5f803e3d5ffd5b5050505050565b60025460ff166120cc5760405162461bcd60e51b815260040161048a90613325565b80600a5481106120ee5760405162461bcd60e51b815260040161048a90613368565b5f828152600960205260409020600701548290600160b01b900460ff16156121285760405162461bcd60e51b815260040161048a906133b0565b5f838152600960205260409020600701548390600160a81b900460ff16156121625760405162461bcd60e51b815260040161048a90613409565b5f848152600960205260409020600701546001600160a01b031633146121fa5760405162461bcd60e51b815260206004820152604160248201527f4e6f207075656465732063616e63656c6172206c612070726f7075657374612060448201527f7369206e6f206572657320656c2063726561646f72206465206c61206d69736d6064820152606160f81b608482015260a40161048a565b5f848152600960205260409020600701805460ff60b01b1916600160b01b1790819055600160a01b900460ff166122f357600b8054905f61223a83613310565b90915550505f84815260066020526040812054600c5490919061225f90600190613470565b90508082146122ba575f600c828154811061227c5761227c6134b7565b905f5260205f200154905080600c848154811061229b5761229b6134b7565b5f91825260208083209091019290925591825260069052604090208290555b600c8054806122cb576122cb6134cb565b5f828152602080822083015f1990810183905590920190925587825260069052604081205550505b5f5b5f85815260096020819052604090912001548110156123e4575f858152600960208190526040822001805483908110612330576123306134b7565b5f9182526020808320909101548883526003825260408084206001600160a01b03909216808552919092529120549091508015612386575f6123728280613489565b905080156123845761238483826126aa565b505b505f8681526003602090815260408083206001600160a01b039094168084529382528083208390558883526004825280832084845282528083208390558883526005825280832093835292905220805460ff191690556001016122f5565b505f8481526009602081905260408220600481018390556008810183905561240e92910190612eda565b60405184907f789cf55be980739dad1d0699b93b58e806b51c9d96619bfa8fe0a28abaa7b30c905f90a250505050565b5f8054906101000a90046001600160a01b03166001600160a01b0316634b94f50e6040518163ffffffff1660e01b8152600401602060405180830381865afa15801561248c573d5f803e3d5ffd5b505050506040513d601f19601f820116820180604052508101906124b091906134a0565b34101561250b5760405162461bcd60e51b815260206004820152602360248201527f4e6f2065737461732061706f7274616e646f20737566696369656e74652045746044820152623432b960e91b606482015260840161048a565b335f9081526008602052604090205460ff161561256a5760405162461bcd60e51b815260206004820152601c60248201527f5061727469636970616e746520796120657374612061637469766f2e00000000604482015260640161048a565b5f805f9054906101000a90046001600160a01b03166001600160a01b0316634b94f50e6040518163ffffffff1660e01b8152600401602060405180830381865afa1580156125ba573d5f803e3d5ffd5b505050506040513d601f19601f820116820180604052508101906125de91906134a0565b6125e890346136c0565b9050600181101561264d5760405162461bcd60e51b815260206004820152602960248201527f4e656365736974617320706f64657220636f6d7072617220616c206d656e6f73604482015268103ab7103a37b5b2b760b91b606482015260840161048a565b335f908152600860205260408120805460ff1916600117905560078054916126748361352a565b90915550505f546040516340c10f1960e01b81526001600160a01b03909116906340c10f199061207a90339085906004016134df565b5f81116126f95760405162461bcd60e51b815260206004820181905260248201527f4465626573207472616e6665726972206d617320746f6b656e73207175652030604482015260640161048a565b6001600160a01b0382166127495760405162461bcd60e51b815260206004820152601760248201527622b61030b2323932b9b9903232b1329032bc34b9ba34b960491b604482015260640161048a565b5f80546040516001600160a01b0390911690620186a09063a9059cbb60e01b9061277990879087906024016134df565b60408051601f198184030181529181526020820180516001600160e01b03166001600160e01b03199094169390931790925290516127b791906136aa565b5f604051808303815f8787f1925050503d805f81146127f1576040519150601f19603f3d011682016040523d82523d5f602084013e6127f6565b606091505b5050905080610cee5760405162461bcd60e51b815260206004820152602660248201527f4c61207472616e73666572656e63696120646520746f6b656e73206861206661604482015265363630b2379760d11b606482015260840161048a565b60025460ff166128785760405162461bcd60e51b815260040161048a90613325565b80600a54811061289a5760405162461bcd60e51b815260040161048a90613368565b5f828152600960205260409020600701548290600160b01b900460ff16156128d45760405162461bcd60e51b815260040161048a906133b0565b5f838152600960205260409020600701548390600160a81b900460ff161561290e5760405162461bcd60e51b815260040161048a90613409565b5f84815260096020526040902060070154600160a01b900460ff16156129845760405162461bcd60e51b815260206004820152602560248201527f4c612070726f7075657374612064656265207365722064652066696e616e636960448201526430b1b4b7b760d91b606482015260840161048a565b5f848152600960205260409020600601546001600160a01b0316612a065760405162461bcd60e51b815260206004820152603360248201527f4c612070726f707565737461206e6f207469656e6520636f6e747261746f20646044820152726520766f746163696f6e2061736f636961646f60681b606482015260840161048a565b5f8481526009602052604090206003015460015411612aa65760405162461bcd60e51b815260206004820152605060248201527f456c20707265737570756573746f20746f74616c2064656c20636f6e7472617460448201527f6f206465626520736572207375706572696f7220616c2064656d616e6461646f60648201526f20656e206c612070726f70756573746160801b608482015260a40161048a565b5f848152600960205260408120600701805460ff60a81b1916600160a81b179055600b805491612ad583613310565b90915550505f84815260066020526040812054600c54909190612afa90600190613470565b9050808214612b55575f600c8281548110612b1757612b176134b7565b905f5260205f200154905080600c8481548110612b3657612b366134b7565b5f91825260208083209091019290925591825260069052604090208290555b600c805480612b6657612b666134cb565b5f828152602080822083015f19908101839055909201909255878252600681526040808320839055600d80546001810182559084527fd7b6990105719101dabeb77144f2a3385c8033acd3af97e9423a695e81ad1eb501899055825481516325ca7a8760e11b815291516001600160a01b0390911692634b94f50e92600480820193918290030181865afa158015612c00573d5f803e3d5ffd5b505050506040513d601f19601f82011682018060405250810190612c2491906134a0565b5f88815260096020526040902060080154612c3f9190613489565b90508060015f828254612c5291906134f8565b90915550505f878152600960205260408120600301546001805491929091612c7b908490613470565b90915550505f8781526009602090815260408083206006810154600382015460048301546008909301548451602481018f90526044810194909452606480850191909152845180850390910181526084909301845293820180516001600160e01b031663986cc31160e01b17905291516001600160a01b0390921692620186a0929091612d07916136aa565b5f60405180830381858888f193505050503d805f8114612d42576040519150601f19603f3d011682016040523d82523d5f602084013e612d47565b606091505b5050905080612da85760405162461bcd60e51b815260206004820152602760248201527f4c6120656a65637563696f6e206465206c612070726f7075657374612068612060448201526666616c6c61646f60c81b606482015260840161048a565b60405188907f28ec9e38ba73636ceb2f6c1574136f83bd46284a3c74734b711bf45e12f8d929905f90a25050505050505050565b5f6001545f03612dee57505f19919050565b6007546001545f848152600960205260408120600301549092670de0b6b3a7640000929091612e1d9084613489565b612e2791906136c0565b612e39906702c68af0bb1400006134f8565b612e439190613489565b612e4d91906136c0565b9050600b5481612e5d91906134f8565b9392505050565b604051806101a001604052805f815260200160608152602001606081526020015f81526020015f81526020015f81526020015f6001600160a01b031681526020015f6001600160a01b031681526020015f151581526020015f151581526020015f151581526020015f8152602001606081525090565b5080545f8255905f5260205f2090810190612ef59190612f41565b50565b828054828255905f5260205f20908101928215612f31579160200282015b82811115612f31578251825591602001919060010190612f16565b50612f3d929150612f41565b5090565b5b80821115612f3d575f8155600101612f42565b5f60208284031215612f65575f80fd5b5035919050565b5f81518084528060208401602086015e5f602082860101526020601f19601f83011685010191505092915050565b8c815261018060208201525f612fb461018083018e612f6c565b8281036040840152612fc6818e612f6c565b606084018d9052608084018c905260a084018b90526001600160a01b038a811660c0860152891660e0850152871515610100850152861515610120850152915061300d9050565b92151561014082015261016001529a9950505050505050505050565b6001600160a01b0391909116815260200190565b5f806040838503121561304e575f80fd5b50508035926020909101359150565b5f8083601f84011261306d575f80fd5b50813567ffffffffffffffff811115613084575f80fd5b60208301915083602082850101111561309b575f80fd5b9250929050565b5f805f805f80608087890312156130b7575f80fd5b863567ffffffffffffffff8111156130cd575f80fd5b6130d989828a0161305d565b909750955050602087013567ffffffffffffffff8111156130f8575f80fd5b61310489828a0161305d565b9095509350506040870135915060608701356001600160a01b038116811461312a575f80fd5b809150509295509295509295565b5f8151808452602084019350602083015f5b828110156131715781516001600160a01b031686526020958601959091019060010161314a565b5093949350505050565b60208152815160208201525f60208301516101a060408401526131a26101c0840182612f6c565b90506040840151601f198483030160608501526131bf8282612f6c565b91505060608401516080840152608084015160a084015260a084015160c084015260c08401516131fa60e08501826001600160a01b03169052565b5060e08401516001600160a01b03811661010085015250610100840151801515610120850152506101208401518015156101408501525061014084015180151561016085015250610160840151610180840152610180840151601f19848303016101a085015261326a8282613138565b95945050505050565b600181811c9082168061328757607f821691505b60208210810361183557634e487b7160e01b5f52602260045260245ffd5b60208082526037908201527f4465626573206861626572746520696e73637269746f20636f6d6f207061727460408201527634b1b4b830b73a329030b73a32b934b7b936b2b73a329760491b606082015260800190565b634e487b7160e01b5f52601160045260245ffd5b5f8161331e5761331e6132fc565b505f190190565b60208082526023908201527f4c6120766f746163696f6e207469656e6520717565206573746172206162696560408201526272746160e81b606082015260800190565b60208082526028908201527f4c612070726f7075657374612071756520657374617320706173616e646f206e6040820152676f2065786973746560c01b606082015260800190565b60208082526039908201527f4e6f20736520707565646520656a656375746172207369206c612070726f707560408201527865737461207961206861207369646f2063616e63656c61646160381b606082015260800190565b60208082526041908201527f4c612070726f707565737461207961206861207369646f206170726f6261646160408201527f2079206e6f2070756564657320656a656375746172206c612066756e63696f6e6060820152601760f91b608082015260a00190565b81810381811115613483576134836132fc565b92915050565b8082028115828204841417613483576134836132fc565b5f602082840312156134b0575f80fd5b5051919050565b634e487b7160e01b5f52603260045260245ffd5b634e487b7160e01b5f52603160045260245ffd5b6001600160a01b03929092168252602082015260400190565b80820180821115613483576134836132fc565b5f6020828403121561351b575f80fd5b81518015158114612e5d575f80fd5b5f6001820161353b5761353b6132fc565b5060010190565b634e487b7160e01b5f52604160045260245ffd5b601f821115610cee57805f5260205f20601f840160051c8101602085101561357b5750805b601f840160051c820191505b818110156120a3575f8155600101613587565b67ffffffffffffffff8311156135b2576135b2613542565b6135c6836135c08354613273565b83613556565b5f601f8411600181146135f7575f85156135e05750838201355b5f19600387901b1c1916600186901b1783556120a3565b5f83815260208120601f198716915b828110156136265786850135825560209485019460019092019101613606565b5086821015613642575f1960f88860031b161c19848701351681555b505060018560011b0183555050505050565b60208082526036908201527f44656265732073657220656c206f776e65722064656c20636f6e747261746f206040820152753830b930903837b232b9103430b1b2b91032b9ba379760511b606082015260800190565b5f82518060208501845e5f920191825250919050565b5f826136da57634e487b7160e01b5f52601260045260245ffd5b50049056fea26469706673582212209f9a521a727fdeb61033a1ec3cf2fc3cb6711a6838ab9a68ccbe7cd5f5ed758064736f6c634300081a003360c060405234801561000f575f80fd5b50604051610e70380380610e7083398101604081905261002e916101c6565b8383600361003c83826102be565b50600461004982826102be565b5050505f82116100ae5760405162461bcd60e51b815260206004820152602560248201527f456c2070726563696f206e6f20707565646520736572206d656e6f7220717565604482015264206365726f60d81b60648201526084015b60405180910390fd5b5f81116101155760405162461bcd60e51b815260206004820152602f60248201527f456c206d6178696d6f20646520746f6b656e73206e6f2070756564652073657260448201526e206d656e6f7220717565206365726f60881b60648201526084016100a5565b60809190915260a05250505f600555610378565b634e487b7160e01b5f52604160045260245ffd5b5f82601f83011261014c575f80fd5b81516001600160401b0381111561016557610165610129565b604051601f8201601f19908116603f011681016001600160401b038111828210171561019357610193610129565b6040528181528382016020018510156101aa575f80fd5b8160208501602083015e5f918101602001919091529392505050565b5f805f80608085870312156101d9575f80fd5b84516001600160401b038111156101ee575f80fd5b6101fa8782880161013d565b602087015190955090506001600160401b03811115610217575f80fd5b6102238782880161013d565b604087015160609097015195989097509350505050565b600181811c9082168061024e57607f821691505b60208210810361026c57634e487b7160e01b5f52602260045260245ffd5b50919050565b601f8211156102b957805f5260205f20601f840160051c810160208510156102975750805b601f840160051c820191505b818110156102b6575f81556001016102a3565b50505b505050565b81516001600160401b038111156102d7576102d7610129565b6102eb816102e5845461023a565b84610272565b6020601f82116001811461031d575f83156103065750848201515b5f19600385901b1c1916600184901b1784556102b6565b5f84815260208120601f198516915b8281101561034c578785015182556020948501946001909201910161032c565b508482101561036957868401515f19600387901b60f8161c191681555b50505050600190811b01905550565b60805160a051610ac26103ae5f395f818161019e0152818161028001526103c901525f818161017801526101ef0152610ac25ff3fe608060405234801561000f575f80fd5b50600436106100e8575f3560e01c806370a082311161008f57806370a08231146101c25780637ff9b596146101ea5780638d75fe051461021157806395d89b411461021a5780639dc29fac14610222578063a9059cbb14610235578063b2bdfa7b14610248578063dd62ed3e14610268578063e83157421461027b575f80fd5b806306fdde03146100ec578063095ea7b31461010a57806318160ddd1461012d57806323b872dd1461013f578063313ce5671461015257806340c10f19146101615780634b94f50e146101765780636abcded11461019c575b5f80fd5b6100f46102a2565b6040516101019190610885565b60405180910390f35b61011d6101183660046108d5565b610332565b6040519015158152602001610101565b6002545b604051908152602001610101565b61011d61014d3660046108fd565b61034b565b60405160128152602001610101565b61017461016f3660046108d5565b61036e565b005b7f0000000000000000000000000000000000000000000000000000000000000000610131565b7f0000000000000000000000000000000000000000000000000000000000000000610131565b6101316101d0366004610937565b6001600160a01b03165f9081526020819052604090205490565b6101317f000000000000000000000000000000000000000000000000000000000000000081565b61013160055481565b6100f4610469565b6101746102303660046108d5565b610478565b61011d6102433660046108d5565b610541565b60065461025b906001600160a01b031681565b6040516101019190610957565b61013161027636600461096b565b61054e565b6101317f000000000000000000000000000000000000000000000000000000000000000081565b6060600380546102b19061099c565b80601f01602080910402602001604051908101604052809291908181526020018280546102dd9061099c565b80156103285780601f106102ff57610100808354040283529160200191610328565b820191905f5260205f20905b81548152906001019060200180831161030b57829003601f168201915b5050505050905090565b5f3361033f818585610578565b60019150505b92915050565b5f3361035885828561058a565b6103638585856105db565b506001949350505050565b6006546001600160a01b031633146103a15760405162461bcd60e51b8152600401610398906109d4565b60405180910390fd5b6001600160a01b0382166103c75760405162461bcd60e51b815260040161039890610a0b565b7f0000000000000000000000000000000000000000000000000000000000000000816005546103f69190610a4c565b11156104445760405162461bcd60e51b815260206004820152601f60248201527f4e6f2073652070756564656e20656d69746972206d617320746f6b656e7321006044820152606401610398565b8060055f8282546104559190610a4c565b9091555061046590508282610638565b5050565b6060600480546102b19061099c565b6006546001600160a01b031633146104a25760405162461bcd60e51b8152600401610398906109d4565b6001600160a01b0382166104c85760405162461bcd60e51b815260040161039890610a0b565b5f81116105375760405162461bcd60e51b815260206004820152603760248201527f4e6f20736520707565646520656c696d696e61722030206e6920756e206e756d60448201527632b937903732b3b0ba34bb37903232903a37b5b2b7399760491b6064820152608401610398565b610465828261066c565b5f3361033f8185856105db565b6001600160a01b039182165f90815260016020908152604080832093909416825291909152205490565b61058583838360016106a0565b505050565b5f610595848461054e565b90505f198110156105d557818110156105c757828183604051637dc7a0d960e11b815260040161039893929190610a6b565b6105d584848484035f6106a0565b50505050565b6001600160a01b038316610604575f604051634b637e8f60e11b81526004016103989190610957565b6001600160a01b03821661062d575f60405163ec442f0560e01b81526004016103989190610957565b610585838383610772565b6001600160a01b038216610661575f60405163ec442f0560e01b81526004016103989190610957565b6104655f8383610772565b6001600160a01b038216610695575f604051634b637e8f60e11b81526004016103989190610957565b610465825f83610772565b6001600160a01b0384166106c9575f60405163e602df0560e01b81526004016103989190610957565b6001600160a01b0383166106f2575f604051634a1406b160e11b81526004016103989190610957565b6001600160a01b038085165f90815260016020908152604080832093871683529290522082905580156105d557826001600160a01b0316846001600160a01b03167f8c5be1e5ebec7d5bd14f71427d1e84f3dd0314c0f7b2291e5b200ac8c7c3b9258460405161076491815260200190565b60405180910390a350505050565b6001600160a01b03831661079c578060025f8282546107919190610a4c565b909155506107f99050565b6001600160a01b0383165f90815260208190526040902054818110156107db5783818360405163391434e360e21b815260040161039893929190610a6b565b6001600160a01b0384165f9081526020819052604090209082900390555b6001600160a01b03821661081557600280548290039055610833565b6001600160a01b0382165f9081526020819052604090208054820190555b816001600160a01b0316836001600160a01b03167fddf252ad1be2c89b69c2b068fc378daa952ba7f163c4a11628f55a4df523b3ef8360405161087891815260200190565b60405180910390a3505050565b602081525f82518060208401528060208501604085015e5f604082850101526040601f19601f83011684010191505092915050565b80356001600160a01b03811681146108d0575f80fd5b919050565b5f80604083850312156108e6575f80fd5b6108ef836108ba565b946020939093013593505050565b5f805f6060848603121561090f575f80fd5b610918846108ba565b9250610926602085016108ba565b929592945050506040919091013590565b5f60208284031215610947575f80fd5b610950826108ba565b9392505050565b6001600160a01b0391909116815260200190565b5f806040838503121561097c575f80fd5b610985836108ba565b9150610993602084016108ba565b90509250929050565b600181811c908216806109b057607f821691505b6020821081036109ce57634e487b7160e01b5f52602260045260245ffd5b50919050565b6020808252601a908201527f536f6c6f207075656465206c6c616d617220656c206f776e6572000000000000604082015260600190565b60208082526021908201527f4c6120646972656363696f6e2064657374696e6f206e6f2065732076616c69646040820152606160f81b606082015260800190565b8082018082111561034557634e487b7160e01b5f52601160045260245ffd5b6001600160a01b03939093168352602083019190915260408201526060019056fea2646970667358221220df1778cdfd356823a83ada8e335b09f46a78c7c9cfc565f9f06da7776534276f64736f6c634300081a0033",
			"opcodes": "PUSH1 0xA0 PUSH1 0x40 MSTORE CALLVALUE DUP1 ISZERO PUSH2 0xF JUMPI PUSH0 DUP1 REVERT JUMPDEST POP PUSH1 0x40 MLOAD PUSH2 0x47AA CODESIZE SUB DUP1 PUSH2 0x47AA DUP4 CODECOPY DUP2 ADD PUSH1 0x40 DUP2 SWAP1 MSTORE PUSH2 0x2E SWAP2 PUSH2 0x1D6 JUMP JUMPDEST PUSH0 DUP3 GT PUSH2 0x9A JUMPI PUSH1 0x40 MLOAD PUSH3 0x461BCD PUSH1 0xE5 SHL DUP2 MSTORE PUSH1 0x20 PUSH1 0x4 DUP3 ADD MSTORE PUSH1 0x2F PUSH1 0x24 DUP3 ADD MSTORE PUSH32 0x456C2070726563696F206465206C6F7320746F6B656E73206465626520736572 PUSH1 0x44 DUP3 ADD MSTORE PUSH15 0x206D61796F7220717565206365726F PUSH1 0x88 SHL PUSH1 0x64 DUP3 ADD MSTORE PUSH1 0x84 ADD JUMPDEST PUSH1 0x40 MLOAD DUP1 SWAP2 SUB SWAP1 REVERT JUMPDEST PUSH0 DUP2 GT PUSH2 0x10F JUMPI PUSH1 0x40 MLOAD PUSH3 0x461BCD PUSH1 0xE5 SHL DUP2 MSTORE PUSH1 0x20 PUSH1 0x4 DUP3 ADD MSTORE PUSH1 0x3B PUSH1 0x24 DUP3 ADD MSTORE PUSH32 0x456C206D6178696D6F206E756D65726F20646520746F6B656E73206120656D69 PUSH1 0x44 DUP3 ADD MSTORE PUSH32 0x746972206465626520736572206D61796F7220717565206365726F0000000000 PUSH1 0x64 DUP3 ADD MSTORE PUSH1 0x84 ADD PUSH2 0x91 JUMP JUMPDEST CALLER PUSH1 0x80 MSTORE PUSH1 0x2 DUP1 SLOAD PUSH1 0xFF NOT AND SWAP1 SSTORE PUSH1 0x40 MLOAD DUP3 SWAP1 DUP3 SWAP1 PUSH2 0x12D SWAP1 PUSH2 0x1C9 JUMP JUMPDEST PUSH1 0x80 DUP1 DUP3 MSTORE PUSH1 0xE SWAP1 DUP3 ADD MSTORE PUSH14 0x2220A7902B37BA32902A37B5B2B7 PUSH1 0x91 SHL PUSH1 0xA0 DUP3 ADD MSTORE PUSH1 0xC0 PUSH1 0x20 DUP3 ADD DUP2 SWAP1 MSTORE PUSH1 0x3 SWAP1 DUP3 ADD MSTORE PUSH3 0x111595 PUSH1 0xEA SHL PUSH1 0xE0 DUP3 ADD MSTORE PUSH1 0x40 DUP2 ADD SWAP3 SWAP1 SWAP3 MSTORE PUSH1 0x60 DUP3 ADD MSTORE PUSH2 0x100 ADD PUSH1 0x40 MLOAD DUP1 SWAP2 SUB SWAP1 PUSH0 CREATE DUP1 ISZERO DUP1 ISZERO PUSH2 0x194 JUMPI RETURNDATASIZE PUSH0 DUP1 RETURNDATACOPY RETURNDATASIZE PUSH0 REVERT JUMPDEST POP PUSH0 DUP1 SLOAD PUSH1 0x1 PUSH1 0x1 PUSH1 0xA0 SHL SUB NOT AND PUSH1 0x1 PUSH1 0x1 PUSH1 0xA0 SHL SUB SWAP3 SWAP1 SWAP3 AND SWAP2 SWAP1 SWAP2 OR DUP2 SSTORE PUSH1 0xA DUP2 SWAP1 SSTORE PUSH1 0xB DUP2 SWAP1 SSTORE PUSH1 0x1 SSTORE POP PUSH2 0x1F8 SWAP1 POP JUMP JUMPDEST PUSH2 0xE70 DUP1 PUSH2 0x393A DUP4 CODECOPY ADD SWAP1 JUMP JUMPDEST PUSH0 DUP1 PUSH1 0x40 DUP4 DUP6 SUB SLT ISZERO PUSH2 0x1E7 JUMPI PUSH0 DUP1 REVERT JUMPDEST POP POP DUP1 MLOAD PUSH1 0x20 SWAP1 SWAP2 ADD MLOAD SWAP1 SWAP3 SWAP1 SWAP2 POP JUMP JUMPDEST PUSH1 0x80 MLOAD PUSH2 0x3715 PUSH2 0x225 PUSH0 CODECOPY PUSH0 DUP2 DUP2 PUSH2 0x213 ADD MSTORE DUP2 DUP2 PUSH2 0x14BF ADD MSTORE DUP2 DUP2 PUSH2 0x1846 ADD MSTORE PUSH2 0x1D15 ADD MSTORE PUSH2 0x3715 PUSH0 RETURN INVALID PUSH1 0x80 PUSH1 0x40 MSTORE PUSH1 0x4 CALLDATASIZE LT PUSH2 0xDC JUMPI PUSH0 CALLDATALOAD PUSH1 0xE0 SHR DUP1 PUSH4 0xAFFC0670 GT PUSH2 0x83 JUMPI DUP1 PUSH4 0xAFFC0670 EQ PUSH2 0x1FA JUMPI DUP1 PUSH4 0xB2BDFA7B EQ PUSH2 0x202 JUMPI DUP1 PUSH4 0xBC903CB8 EQ PUSH2 0x235 JUMPI DUP1 PUSH4 0xC1FC006A EQ PUSH2 0x261 JUMPI DUP1 PUSH4 0xC631B292 EQ PUSH2 0x27F JUMPI DUP1 PUSH4 0xD0FEBE4C EQ PUSH2 0x293 JUMPI DUP1 PUSH4 0xDA52A95F EQ PUSH2 0x29B JUMPI DUP1 PUSH4 0xE0A8F6F5 EQ PUSH2 0x2B0 JUMPI DUP1 PUSH4 0xFFFEFD91 EQ PUSH2 0x2CF JUMPI PUSH0 DUP1 REVERT JUMPDEST DUP1 PUSH4 0x13CF08B EQ PUSH2 0xE0 JUMPI DUP1 PUSH4 0x3D571E97 EQ PUSH2 0x120 JUMPI DUP1 PUSH4 0x400E3949 EQ PUSH2 0x136 JUMPI DUP1 PUSH4 0x4ECE90A8 EQ PUSH2 0x159 JUMPI DUP1 PUSH4 0x649C649C EQ PUSH2 0x17E JUMPI DUP1 PUSH4 0x6C11BCD3 EQ PUSH2 0x19D JUMPI DUP1 PUSH4 0x7B0472F0 EQ PUSH2 0x1BC JUMPI DUP1 PUSH4 0x9AB3F7A6 EQ PUSH2 0x1DB JUMPI JUMPDEST PUSH0 DUP1 REVERT JUMPDEST CALLVALUE DUP1 ISZERO PUSH2 0xEB JUMPI PUSH0 DUP1 REVERT JUMPDEST POP PUSH2 0xFF PUSH2 0xFA CALLDATASIZE PUSH1 0x4 PUSH2 0x2F55 JUMP JUMPDEST PUSH2 0x2D7 JUMP JUMPDEST PUSH1 0x40 MLOAD PUSH2 0x117 SWAP13 SWAP12 SWAP11 SWAP10 SWAP9 SWAP8 SWAP7 SWAP6 SWAP5 SWAP4 SWAP3 SWAP2 SWAP1 PUSH2 0x2F9A JUMP JUMPDEST PUSH1 0x40 MLOAD DUP1 SWAP2 SUB SWAP1 RETURN JUMPDEST CALLVALUE DUP1 ISZERO PUSH2 0x12B JUMPI PUSH0 DUP1 REVERT JUMPDEST POP PUSH2 0x134 PUSH2 0x45C JUMP JUMPDEST STOP JUMPDEST CALLVALUE DUP1 ISZERO PUSH2 0x141 JUMPI PUSH0 DUP1 REVERT JUMPDEST POP PUSH2 0x14B PUSH1 0xA SLOAD DUP2 JUMP JUMPDEST PUSH1 0x40 MLOAD SWAP1 DUP2 MSTORE PUSH1 0x20 ADD PUSH2 0x117 JUMP JUMPDEST CALLVALUE DUP1 ISZERO PUSH2 0x164 JUMPI PUSH0 DUP1 REVERT JUMPDEST POP PUSH0 SLOAD PUSH1 0x1 PUSH1 0x1 PUSH1 0xA0 SHL SUB AND JUMPDEST PUSH1 0x40 MLOAD PUSH2 0x117 SWAP2 SWAP1 PUSH2 0x3029 JUMP JUMPDEST CALLVALUE DUP1 ISZERO PUSH2 0x189 JUMPI PUSH0 DUP1 REVERT JUMPDEST POP PUSH2 0x134 PUSH2 0x198 CALLDATASIZE PUSH1 0x4 PUSH2 0x303D JUMP JUMPDEST PUSH2 0x4BE JUMP JUMPDEST CALLVALUE DUP1 ISZERO PUSH2 0x1A8 JUMPI PUSH0 DUP1 REVERT JUMPDEST POP PUSH2 0x134 PUSH2 0x1B7 CALLDATASIZE PUSH1 0x4 PUSH2 0x2F55 JUMP JUMPDEST PUSH2 0x984 JUMP JUMPDEST CALLVALUE DUP1 ISZERO PUSH2 0x1C7 JUMPI PUSH0 DUP1 REVERT JUMPDEST POP PUSH2 0x134 PUSH2 0x1D6 CALLDATASIZE PUSH1 0x4 PUSH2 0x303D JUMP JUMPDEST PUSH2 0xCF3 JUMP JUMPDEST CALLVALUE DUP1 ISZERO PUSH2 0x1E6 JUMPI PUSH0 DUP1 REVERT JUMPDEST POP PUSH2 0x14B PUSH2 0x1F5 CALLDATASIZE PUSH1 0x4 PUSH2 0x30A2 JUMP JUMPDEST PUSH2 0x1191 JUMP JUMPDEST PUSH2 0x134 PUSH2 0x14B4 JUMP JUMPDEST CALLVALUE DUP1 ISZERO PUSH2 0x20D JUMPI PUSH0 DUP1 REVERT JUMPDEST POP PUSH2 0x171 PUSH32 0x0 DUP2 JUMP JUMPDEST CALLVALUE DUP1 ISZERO PUSH2 0x240 JUMPI PUSH0 DUP1 REVERT JUMPDEST POP PUSH2 0x254 PUSH2 0x24F CALLDATASIZE PUSH1 0x4 PUSH2 0x2F55 JUMP JUMPDEST PUSH2 0x1612 JUMP JUMPDEST PUSH1 0x40 MLOAD PUSH2 0x117 SWAP2 SWAP1 PUSH2 0x317B JUMP JUMPDEST CALLVALUE DUP1 ISZERO PUSH2 0x26C JUMPI PUSH0 DUP1 REVERT JUMPDEST POP PUSH0 SLOAD PUSH2 0x171 SWAP1 PUSH1 0x1 PUSH1 0x1 PUSH1 0xA0 SHL SUB AND DUP2 JUMP JUMPDEST CALLVALUE DUP1 ISZERO PUSH2 0x28A JUMPI PUSH0 DUP1 REVERT JUMPDEST POP PUSH2 0x134 PUSH2 0x183B JUMP JUMPDEST PUSH2 0x134 PUSH2 0x1E48 JUMP JUMPDEST CALLVALUE DUP1 ISZERO PUSH2 0x2A6 JUMPI PUSH0 DUP1 REVERT JUMPDEST POP PUSH2 0x14B PUSH1 0xB SLOAD DUP2 JUMP JUMPDEST CALLVALUE DUP1 ISZERO PUSH2 0x2BB JUMPI PUSH0 DUP1 REVERT JUMPDEST POP PUSH2 0x134 PUSH2 0x2CA CALLDATASIZE PUSH1 0x4 PUSH2 0x2F55 JUMP JUMPDEST PUSH2 0x20AA JUMP JUMPDEST PUSH2 0x134 PUSH2 0x243E JUMP JUMPDEST PUSH1 0x9 PUSH1 0x20 MSTORE PUSH0 SWAP1 DUP2 MSTORE PUSH1 0x40 SWAP1 KECCAK256 DUP1 SLOAD PUSH1 0x1 DUP3 ADD DUP1 SLOAD SWAP2 SWAP3 SWAP2 PUSH2 0x2F8 SWAP1 PUSH2 0x3273 JUMP JUMPDEST DUP1 PUSH1 0x1F ADD PUSH1 0x20 DUP1 SWAP2 DIV MUL PUSH1 0x20 ADD PUSH1 0x40 MLOAD SWAP1 DUP2 ADD PUSH1 0x40 MSTORE DUP1 SWAP3 SWAP2 SWAP1 DUP2 DUP2 MSTORE PUSH1 0x20 ADD DUP3 DUP1 SLOAD PUSH2 0x324 SWAP1 PUSH2 0x3273 JUMP JUMPDEST DUP1 ISZERO PUSH2 0x36F JUMPI DUP1 PUSH1 0x1F LT PUSH2 0x346 JUMPI PUSH2 0x100 DUP1 DUP4 SLOAD DIV MUL DUP4 MSTORE SWAP2 PUSH1 0x20 ADD SWAP2 PUSH2 0x36F JUMP JUMPDEST DUP3 ADD SWAP2 SWAP1 PUSH0 MSTORE PUSH1 0x20 PUSH0 KECCAK256 SWAP1 JUMPDEST DUP2 SLOAD DUP2 MSTORE SWAP1 PUSH1 0x1 ADD SWAP1 PUSH1 0x20 ADD DUP1 DUP4 GT PUSH2 0x352 JUMPI DUP3 SWAP1 SUB PUSH1 0x1F AND DUP3 ADD SWAP2 JUMPDEST POP POP POP POP POP SWAP1 DUP1 PUSH1 0x2 ADD DUP1 SLOAD PUSH2 0x384 SWAP1 PUSH2 0x3273 JUMP JUMPDEST DUP1 PUSH1 0x1F ADD PUSH1 0x20 DUP1 SWAP2 DIV MUL PUSH1 0x20 ADD PUSH1 0x40 MLOAD SWAP1 DUP2 ADD PUSH1 0x40 MSTORE DUP1 SWAP3 SWAP2 SWAP1 DUP2 DUP2 MSTORE PUSH1 0x20 ADD DUP3 DUP1 SLOAD PUSH2 0x3B0 SWAP1 PUSH2 0x3273 JUMP JUMPDEST DUP1 ISZERO PUSH2 0x3FB JUMPI DUP1 PUSH1 0x1F LT PUSH2 0x3D2 JUMPI PUSH2 0x100 DUP1 DUP4 SLOAD DIV MUL DUP4 MSTORE SWAP2 PUSH1 0x20 ADD SWAP2 PUSH2 0x3FB JUMP JUMPDEST DUP3 ADD SWAP2 SWAP1 PUSH0 MSTORE PUSH1 0x20 PUSH0 KECCAK256 SWAP1 JUMPDEST DUP2 SLOAD DUP2 MSTORE SWAP1 PUSH1 0x1 ADD SWAP1 PUSH1 0x20 ADD DUP1 DUP4 GT PUSH2 0x3DE JUMPI DUP3 SWAP1 SUB PUSH1 0x1F AND DUP3 ADD SWAP2 JUMPDEST POP POP POP PUSH1 0x3 DUP5 ADD SLOAD PUSH1 0x4 DUP6 ADD SLOAD PUSH1 0x5 DUP7 ADD SLOAD PUSH1 0x6 DUP8 ADD SLOAD PUSH1 0x7 DUP9 ADD SLOAD PUSH1 0x8 SWAP1 SWAP9 ADD SLOAD SWAP7 SWAP8 SWAP4 SWAP7 SWAP3 SWAP6 POP SWAP1 SWAP4 POP PUSH1 0x1 PUSH1 0x1 PUSH1 0xA0 SHL SUB SWAP1 DUP2 AND SWAP3 SWAP1 DUP2 AND SWAP2 PUSH1 0xFF PUSH1 0x1 PUSH1 0xA0 SHL DUP4 DIV DUP2 AND SWAP3 PUSH1 0x1 PUSH1 0xA8 SHL DUP2 DIV DUP3 AND SWAP3 PUSH1 0x1 PUSH1 0xB0 SHL SWAP1 SWAP2 DIV SWAP1 SWAP2 AND SWAP1 DUP13 JUMP JUMPDEST CALLER PUSH0 SWAP1 DUP2 MSTORE PUSH1 0x8 PUSH1 0x20 MSTORE PUSH1 0x40 SWAP1 KECCAK256 SLOAD PUSH1 0xFF AND PUSH2 0x493 JUMPI PUSH1 0x40 MLOAD PUSH3 0x461BCD PUSH1 0xE5 SHL DUP2 MSTORE PUSH1 0x4 ADD PUSH2 0x48A SWAP1 PUSH2 0x32A5 JUMP JUMPDEST PUSH1 0x40 MLOAD DUP1 SWAP2 SUB SWAP1 REVERT JUMPDEST CALLER PUSH0 SWAP1 DUP2 MSTORE PUSH1 0x8 PUSH1 0x20 MSTORE PUSH1 0x40 DUP2 KECCAK256 DUP1 SLOAD PUSH1 0xFF NOT AND SWAP1 SSTORE PUSH1 0x7 DUP1 SLOAD SWAP2 PUSH2 0x4B7 DUP4 PUSH2 0x3310 JUMP JUMPDEST SWAP2 SWAP1 POP SSTORE POP JUMP JUMPDEST PUSH1 0x2 SLOAD PUSH1 0xFF AND PUSH2 0x4E0 JUMPI PUSH1 0x40 MLOAD PUSH3 0x461BCD PUSH1 0xE5 SHL DUP2 MSTORE PUSH1 0x4 ADD PUSH2 0x48A SWAP1 PUSH2 0x3325 JUMP JUMPDEST DUP1 PUSH1 0xA SLOAD DUP2 LT PUSH2 0x502 JUMPI PUSH1 0x40 MLOAD PUSH3 0x461BCD PUSH1 0xE5 SHL DUP2 MSTORE PUSH1 0x4 ADD PUSH2 0x48A SWAP1 PUSH2 0x3368 JUMP JUMPDEST CALLER PUSH0 SWAP1 DUP2 MSTORE PUSH1 0x8 PUSH1 0x20 MSTORE PUSH1 0x40 SWAP1 KECCAK256 SLOAD PUSH1 0xFF AND PUSH2 0x530 JUMPI PUSH1 0x40 MLOAD PUSH3 0x461BCD PUSH1 0xE5 SHL DUP2 MSTORE PUSH1 0x4 ADD PUSH2 0x48A SWAP1 PUSH2 0x32A5 JUMP JUMPDEST PUSH0 DUP3 DUP2 MSTORE PUSH1 0x9 PUSH1 0x20 MSTORE PUSH1 0x40 SWAP1 KECCAK256 PUSH1 0x7 ADD SLOAD DUP3 SWAP1 PUSH1 0x1 PUSH1 0xB0 SHL SWAP1 DIV PUSH1 0xFF AND ISZERO PUSH2 0x56A JUMPI PUSH1 0x40 MLOAD PUSH3 0x461BCD PUSH1 0xE5 SHL DUP2 MSTORE PUSH1 0x4 ADD PUSH2 0x48A SWAP1 PUSH2 0x33B0 JUMP JUMPDEST PUSH0 DUP4 DUP2 MSTORE PUSH1 0x9 PUSH1 0x20 MSTORE PUSH1 0x40 SWAP1 KECCAK256 PUSH1 0x7 ADD SLOAD DUP4 SWAP1 PUSH1 0x1 PUSH1 0xA8 SHL SWAP1 DIV PUSH1 0xFF AND ISZERO PUSH2 0x5A4 JUMPI PUSH1 0x40 MLOAD PUSH3 0x461BCD PUSH1 0xE5 SHL DUP2 MSTORE PUSH1 0x4 ADD PUSH2 0x48A SWAP1 PUSH2 0x3409 JUMP JUMPDEST PUSH0 DUP6 GT PUSH2 0x601 JUMPI PUSH1 0x40 MLOAD PUSH3 0x461BCD PUSH1 0xE5 SHL DUP2 MSTORE PUSH1 0x20 PUSH1 0x4 DUP3 ADD MSTORE PUSH1 0x25 PUSH1 0x24 DUP3 ADD MSTORE PUSH32 0x4E65636573697461732064656A617220756E20766F746F20706F72206C6F206D PUSH1 0x44 DUP3 ADD MSTORE PUSH5 0x32B737B997 PUSH1 0xD9 SHL PUSH1 0x64 DUP3 ADD MSTORE PUSH1 0x84 ADD PUSH2 0x48A JUMP JUMPDEST PUSH0 DUP5 DUP2 MSTORE PUSH1 0x3 PUSH1 0x20 SWAP1 DUP2 MSTORE PUSH1 0x40 DUP1 DUP4 KECCAK256 CALLER DUP5 MSTORE SWAP1 SWAP2 MSTORE SWAP1 KECCAK256 SLOAD DUP6 GT ISZERO PUSH2 0x68F JUMPI PUSH1 0x40 MLOAD PUSH3 0x461BCD PUSH1 0xE5 SHL DUP2 MSTORE PUSH1 0x20 PUSH1 0x4 DUP3 ADD MSTORE PUSH1 0x3B PUSH1 0x24 DUP3 ADD MSTORE PUSH32 0x457374617320696E74656E74616E646F2072657469726172206D617320766F74 PUSH1 0x44 DUP3 ADD MSTORE PUSH32 0x6F73206465206C6F732071756520686173207265616C697A61646F0000000000 PUSH1 0x64 DUP3 ADD MSTORE PUSH1 0x84 ADD PUSH2 0x48A JUMP JUMPDEST PUSH0 DUP5 DUP2 MSTORE PUSH1 0x3 PUSH1 0x20 SWAP1 DUP2 MSTORE PUSH1 0x40 DUP1 DUP4 KECCAK256 CALLER DUP5 MSTORE SWAP1 SWAP2 MSTORE DUP2 KECCAK256 SLOAD SWAP1 PUSH2 0x6B3 DUP8 DUP4 PUSH2 0x3470 JUMP JUMPDEST SWAP1 POP PUSH0 PUSH2 0x6C0 DUP3 DUP1 PUSH2 0x3489 JUMP JUMPDEST PUSH2 0x6CA DUP5 DUP1 PUSH2 0x3489 JUMP JUMPDEST PUSH2 0x6D4 SWAP2 SWAP1 PUSH2 0x3470 JUMP JUMPDEST PUSH0 SLOAD PUSH1 0x40 MLOAD PUSH4 0x70A08231 PUSH1 0xE0 SHL DUP2 MSTORE SWAP2 SWAP3 POP DUP3 SWAP2 PUSH1 0x1 PUSH1 0x1 PUSH1 0xA0 SHL SUB SWAP1 SWAP2 AND SWAP1 PUSH4 0x70A08231 SWAP1 PUSH2 0x708 SWAP1 ADDRESS SWAP1 PUSH1 0x4 ADD PUSH2 0x3029 JUMP JUMPDEST PUSH1 0x20 PUSH1 0x40 MLOAD DUP1 DUP4 SUB DUP2 DUP7 GAS STATICCALL ISZERO DUP1 ISZERO PUSH2 0x723 JUMPI RETURNDATASIZE PUSH0 DUP1 RETURNDATACOPY RETURNDATASIZE PUSH0 REVERT JUMPDEST POP POP POP POP PUSH1 0x40 MLOAD RETURNDATASIZE PUSH1 0x1F NOT PUSH1 0x1F DUP3 ADD AND DUP3 ADD DUP1 PUSH1 0x40 MSTORE POP DUP2 ADD SWAP1 PUSH2 0x747 SWAP2 SWAP1 PUSH2 0x34A0 JUMP JUMPDEST LT ISZERO PUSH2 0x7AB JUMPI PUSH1 0x40 MLOAD PUSH3 0x461BCD PUSH1 0xE5 SHL DUP2 MSTORE PUSH1 0x20 PUSH1 0x4 DUP3 ADD MSTORE PUSH1 0x2D PUSH1 0x24 DUP3 ADD MSTORE PUSH32 0x4E6F2074656E656D6F7320737566696369656E74657320746F6B656E73207061 PUSH1 0x44 DUP3 ADD MSTORE PUSH13 0x726120726574697261726C6F73 PUSH1 0x98 SHL PUSH1 0x64 DUP3 ADD MSTORE PUSH1 0x84 ADD PUSH2 0x48A JUMP JUMPDEST PUSH2 0x7B5 CALLER DUP3 PUSH2 0x26AA JUMP JUMPDEST PUSH0 DUP8 DUP2 MSTORE PUSH1 0x3 PUSH1 0x20 SWAP1 DUP2 MSTORE PUSH1 0x40 DUP1 DUP4 KECCAK256 CALLER DUP5 MSTORE DUP3 MSTORE DUP1 DUP4 KECCAK256 DUP6 SWAP1 SSTORE DUP10 DUP4 MSTORE PUSH1 0x9 SWAP1 SWAP2 MSTORE DUP2 KECCAK256 PUSH1 0x4 ADD DUP1 SLOAD DUP11 SWAP3 SWAP1 PUSH2 0x7ED SWAP1 DUP5 SWAP1 PUSH2 0x3470 JUMP JUMPDEST SWAP1 SWAP2 SSTORE POP POP PUSH0 DUP8 DUP2 MSTORE PUSH1 0x9 PUSH1 0x20 MSTORE PUSH1 0x40 DUP2 KECCAK256 PUSH1 0x8 ADD DUP1 SLOAD DUP4 SWAP3 SWAP1 PUSH2 0x812 SWAP1 DUP5 SWAP1 PUSH2 0x3470 JUMP JUMPDEST SWAP1 SWAP2 SSTORE POP POP PUSH0 DUP3 SWAP1 SUB PUSH2 0x97A JUMPI PUSH0 DUP8 DUP2 MSTORE PUSH1 0x4 PUSH1 0x20 SWAP1 DUP2 MSTORE PUSH1 0x40 DUP1 DUP4 KECCAK256 CALLER DUP5 MSTORE DUP3 MSTORE DUP1 DUP4 KECCAK256 SLOAD DUP11 DUP5 MSTORE PUSH1 0x9 SWAP3 DUP4 SWAP1 MSTORE SWAP1 DUP4 KECCAK256 SWAP1 SWAP2 ADD SLOAD SWAP1 SWAP2 SWAP1 PUSH2 0x857 SWAP1 PUSH1 0x1 SWAP1 PUSH2 0x3470 JUMP JUMPDEST SWAP1 POP DUP1 DUP3 EQ PUSH2 0x902 JUMPI PUSH0 DUP10 DUP2 MSTORE PUSH1 0x9 PUSH1 0x20 DUP2 SWAP1 MSTORE PUSH1 0x40 DUP3 KECCAK256 ADD DUP1 SLOAD DUP4 SWAP1 DUP2 LT PUSH2 0x882 JUMPI PUSH2 0x882 PUSH2 0x34B7 JUMP JUMPDEST PUSH0 SWAP2 DUP3 MSTORE PUSH1 0x20 DUP1 DUP4 KECCAK256 SWAP1 SWAP2 ADD SLOAD DUP13 DUP4 MSTORE PUSH1 0x9 SWAP2 DUP3 SWAP1 MSTORE PUSH1 0x40 SWAP1 SWAP3 KECCAK256 ADD DUP1 SLOAD PUSH1 0x1 PUSH1 0x1 PUSH1 0xA0 SHL SUB SWAP1 SWAP3 AND SWAP3 POP DUP3 SWAP2 DUP6 SWAP1 DUP2 LT PUSH2 0x8BF JUMPI PUSH2 0x8BF PUSH2 0x34B7 JUMP JUMPDEST PUSH0 SWAP2 DUP3 MSTORE PUSH1 0x20 DUP1 DUP4 KECCAK256 SWAP2 SWAP1 SWAP2 ADD DUP1 SLOAD PUSH1 0x1 PUSH1 0x1 PUSH1 0xA0 SHL SUB NOT AND PUSH1 0x1 PUSH1 0x1 PUSH1 0xA0 SHL SUB SWAP5 DUP6 AND OR SWAP1 SSTORE DUP13 DUP3 MSTORE PUSH1 0x4 DUP2 MSTORE PUSH1 0x40 DUP1 DUP4 KECCAK256 SWAP5 SWAP1 SWAP4 AND DUP3 MSTORE SWAP3 SWAP1 SWAP3 MSTORE SWAP1 KECCAK256 DUP3 SWAP1 SSTORE JUMPDEST PUSH0 DUP10 DUP2 MSTORE PUSH1 0x9 PUSH1 0x20 DUP2 SWAP1 MSTORE PUSH1 0x40 SWAP1 SWAP2 KECCAK256 ADD DUP1 SLOAD DUP1 PUSH2 0x922 JUMPI PUSH2 0x922 PUSH2 0x34CB JUMP JUMPDEST PUSH0 DUP3 DUP2 MSTORE PUSH1 0x20 DUP1 DUP3 KECCAK256 DUP4 ADD PUSH0 NOT SWAP1 DUP2 ADD DUP1 SLOAD PUSH1 0x1 PUSH1 0x1 PUSH1 0xA0 SHL SUB NOT AND SWAP1 SSTORE SWAP1 SWAP3 ADD SWAP1 SWAP3 SSTORE DUP11 DUP3 MSTORE PUSH1 0x5 DUP2 MSTORE PUSH1 0x40 DUP1 DUP4 KECCAK256 CALLER DUP1 DUP6 MSTORE SWAP1 DUP4 MSTORE DUP2 DUP5 KECCAK256 DUP1 SLOAD PUSH1 0xFF NOT AND SWAP1 SSTORE DUP13 DUP5 MSTORE PUSH1 0x4 DUP4 MSTORE DUP2 DUP5 KECCAK256 SWAP1 DUP5 MSTORE SWAP1 SWAP2 MSTORE DUP2 KECCAK256 SSTORE POP POP JUMPDEST POP POP POP POP POP POP POP POP JUMP JUMPDEST CALLER PUSH0 SWAP1 DUP2 MSTORE PUSH1 0x8 PUSH1 0x20 MSTORE PUSH1 0x40 SWAP1 KECCAK256 SLOAD PUSH1 0xFF AND PUSH2 0x9B2 JUMPI PUSH1 0x40 MLOAD PUSH3 0x461BCD PUSH1 0xE5 SHL DUP2 MSTORE PUSH1 0x4 ADD PUSH2 0x48A SWAP1 PUSH2 0x32A5 JUMP JUMPDEST PUSH0 DUP2 GT PUSH2 0xA1B JUMPI PUSH1 0x40 MLOAD PUSH3 0x461BCD PUSH1 0xE5 SHL DUP2 MSTORE PUSH1 0x20 PUSH1 0x4 DUP3 ADD MSTORE PUSH1 0x31 PUSH1 0x24 DUP3 ADD MSTORE PUSH32 0x4E6F207075656465732076656E64657220756E612063616E746964616420696E PUSH1 0x44 DUP3 ADD MSTORE PUSH17 0x3332B934B7B910309018903A37B5B2B717 PUSH1 0x79 SHL PUSH1 0x64 DUP3 ADD MSTORE PUSH1 0x84 ADD PUSH2 0x48A JUMP JUMPDEST PUSH0 SLOAD PUSH1 0x40 MLOAD PUSH4 0x70A08231 PUSH1 0xE0 SHL DUP2 MSTORE DUP3 SWAP2 PUSH1 0x1 PUSH1 0x1 PUSH1 0xA0 SHL SUB AND SWAP1 PUSH4 0x70A08231 SWAP1 PUSH2 0xA4A SWAP1 CALLER SWAP1 PUSH1 0x4 ADD PUSH2 0x3029 JUMP JUMPDEST PUSH1 0x20 PUSH1 0x40 MLOAD DUP1 DUP4 SUB DUP2 DUP7 GAS STATICCALL ISZERO DUP1 ISZERO PUSH2 0xA65 JUMPI RETURNDATASIZE PUSH0 DUP1 RETURNDATACOPY RETURNDATASIZE PUSH0 REVERT JUMPDEST POP POP POP POP PUSH1 0x40 MLOAD RETURNDATASIZE PUSH1 0x1F NOT PUSH1 0x1F DUP3 ADD AND DUP3 ADD DUP1 PUSH1 0x40 MSTORE POP DUP2 ADD SWAP1 PUSH2 0xA89 SWAP2 SWAP1 PUSH2 0x34A0 JUMP JUMPDEST LT ISZERO PUSH2 0xAED JUMPI PUSH1 0x40 MLOAD PUSH3 0x461BCD PUSH1 0xE5 SHL DUP2 MSTORE PUSH1 0x20 PUSH1 0x4 DUP3 ADD MSTORE PUSH1 0x2D PUSH1 0x24 DUP3 ADD MSTORE PUSH32 0x4E6F207075656465732076656E646572206D617320746F6B656E73206465206C PUSH1 0x44 DUP3 ADD MSTORE PUSH13 0x6F732071756520706F73656573 PUSH1 0x98 SHL PUSH1 0x64 DUP3 ADD MSTORE PUSH1 0x84 ADD PUSH2 0x48A JUMP JUMPDEST PUSH0 DUP1 PUSH0 SWAP1 SLOAD SWAP1 PUSH2 0x100 EXP SWAP1 DIV PUSH1 0x1 PUSH1 0x1 PUSH1 0xA0 SHL SUB AND PUSH1 0x1 PUSH1 0x1 PUSH1 0xA0 SHL SUB AND PUSH4 0x4B94F50E PUSH1 0x40 MLOAD DUP2 PUSH4 0xFFFFFFFF AND PUSH1 0xE0 SHL DUP2 MSTORE PUSH1 0x4 ADD PUSH1 0x20 PUSH1 0x40 MLOAD DUP1 DUP4 SUB DUP2 DUP7 GAS STATICCALL ISZERO DUP1 ISZERO PUSH2 0xB3D JUMPI RETURNDATASIZE PUSH0 DUP1 RETURNDATACOPY RETURNDATASIZE PUSH0 REVERT JUMPDEST POP POP POP POP PUSH1 0x40 MLOAD RETURNDATASIZE PUSH1 0x1F NOT PUSH1 0x1F DUP3 ADD AND DUP3 ADD DUP1 PUSH1 0x40 MSTORE POP DUP2 ADD SWAP1 PUSH2 0xB61 SWAP2 SWAP1 PUSH2 0x34A0 JUMP JUMPDEST PUSH2 0xB6B SWAP1 DUP4 PUSH2 0x3489 JUMP JUMPDEST SWAP1 POP DUP1 SELFBALANCE LT ISZERO PUSH2 0xBDD JUMPI PUSH1 0x40 MLOAD PUSH3 0x461BCD PUSH1 0xE5 SHL DUP2 MSTORE PUSH1 0x20 PUSH1 0x4 DUP3 ADD MSTORE PUSH1 0x37 PUSH1 0x24 DUP3 ADD MSTORE PUSH32 0x456C20636F6E747261746F206E6F207469656E65207265637572736F73207061 PUSH1 0x44 DUP3 ADD MSTORE PUSH23 0x3930903232BB37B63B32B93A329032B61022BA3432B917 PUSH1 0x49 SHL PUSH1 0x64 DUP3 ADD MSTORE PUSH1 0x84 ADD PUSH2 0x48A JUMP JUMPDEST PUSH0 SLOAD PUSH1 0x40 MLOAD PUSH4 0x2770A7EB PUSH1 0xE2 SHL DUP2 MSTORE PUSH1 0x1 PUSH1 0x1 PUSH1 0xA0 SHL SUB SWAP1 SWAP2 AND SWAP1 PUSH4 0x9DC29FAC SWAP1 PUSH2 0xC0E SWAP1 CALLER SWAP1 DUP7 SWAP1 PUSH1 0x4 ADD PUSH2 0x34DF JUMP JUMPDEST PUSH0 PUSH1 0x40 MLOAD DUP1 DUP4 SUB DUP2 PUSH0 DUP8 DUP1 EXTCODESIZE ISZERO DUP1 ISZERO PUSH2 0xC25 JUMPI PUSH0 DUP1 REVERT JUMPDEST POP GAS CALL ISZERO DUP1 ISZERO PUSH2 0xC37 JUMPI RETURNDATASIZE PUSH0 DUP1 RETURNDATACOPY RETURNDATASIZE PUSH0 REVERT JUMPDEST POP POP PUSH1 0x40 MLOAD PUSH0 SWAP3 POP CALLER SWAP2 POP DUP4 SWAP1 DUP4 DUP2 DUP2 DUP2 DUP6 DUP8 GAS CALL SWAP3 POP POP POP RETURNDATASIZE DUP1 PUSH0 DUP2 EQ PUSH2 0xC7A JUMPI PUSH1 0x40 MLOAD SWAP2 POP PUSH1 0x1F NOT PUSH1 0x3F RETURNDATASIZE ADD AND DUP3 ADD PUSH1 0x40 MSTORE RETURNDATASIZE DUP3 MSTORE RETURNDATASIZE PUSH0 PUSH1 0x20 DUP5 ADD RETURNDATACOPY PUSH2 0xC7F JUMP JUMPDEST PUSH1 0x60 SWAP2 POP JUMPDEST POP POP SWAP1 POP DUP1 PUSH2 0xCEE JUMPI PUSH1 0x40 MLOAD PUSH3 0x461BCD PUSH1 0xE5 SHL DUP2 MSTORE PUSH1 0x20 PUSH1 0x4 DUP3 ADD MSTORE PUSH1 0x35 PUSH1 0x24 DUP3 ADD MSTORE PUSH32 0x4C61207472616E73666572656E63696120646520457468657220616C20706172 PUSH1 0x44 DUP3 ADD MSTORE PUSH21 0x3A34B1B4B830B73A32903430903330B63630B23797 PUSH1 0x59 SHL PUSH1 0x64 DUP3 ADD MSTORE PUSH1 0x84 ADD PUSH2 0x48A JUMP JUMPDEST POP POP POP JUMP JUMPDEST PUSH1 0x2 SLOAD PUSH1 0xFF AND PUSH2 0xD15 JUMPI PUSH1 0x40 MLOAD PUSH3 0x461BCD PUSH1 0xE5 SHL DUP2 MSTORE PUSH1 0x4 ADD PUSH2 0x48A SWAP1 PUSH2 0x3325 JUMP JUMPDEST DUP2 PUSH1 0xA SLOAD DUP2 LT PUSH2 0xD37 JUMPI PUSH1 0x40 MLOAD PUSH3 0x461BCD PUSH1 0xE5 SHL DUP2 MSTORE PUSH1 0x4 ADD PUSH2 0x48A SWAP1 PUSH2 0x3368 JUMP JUMPDEST CALLER PUSH0 SWAP1 DUP2 MSTORE PUSH1 0x8 PUSH1 0x20 MSTORE PUSH1 0x40 SWAP1 KECCAK256 SLOAD PUSH1 0xFF AND PUSH2 0xD65 JUMPI PUSH1 0x40 MLOAD PUSH3 0x461BCD PUSH1 0xE5 SHL DUP2 MSTORE PUSH1 0x4 ADD PUSH2 0x48A SWAP1 PUSH2 0x32A5 JUMP JUMPDEST PUSH0 DUP4 DUP2 MSTORE PUSH1 0x9 PUSH1 0x20 MSTORE PUSH1 0x40 SWAP1 KECCAK256 PUSH1 0x7 ADD SLOAD DUP4 SWAP1 PUSH1 0x1 PUSH1 0xB0 SHL SWAP1 DIV PUSH1 0xFF AND ISZERO PUSH2 0xD9F JUMPI PUSH1 0x40 MLOAD PUSH3 0x461BCD PUSH1 0xE5 SHL DUP2 MSTORE PUSH1 0x4 ADD PUSH2 0x48A SWAP1 PUSH2 0x33B0 JUMP JUMPDEST PUSH0 DUP5 DUP2 MSTORE PUSH1 0x9 PUSH1 0x20 MSTORE PUSH1 0x40 SWAP1 KECCAK256 PUSH1 0x7 ADD SLOAD DUP5 SWAP1 PUSH1 0x1 PUSH1 0xA8 SHL SWAP1 DIV PUSH1 0xFF AND ISZERO PUSH2 0xDD9 JUMPI PUSH1 0x40 MLOAD PUSH3 0x461BCD PUSH1 0xE5 SHL DUP2 MSTORE PUSH1 0x4 ADD PUSH2 0x48A SWAP1 PUSH2 0x3409 JUMP JUMPDEST PUSH0 DUP5 GT PUSH2 0xE50 JUMPI PUSH1 0x40 DUP1 MLOAD PUSH3 0x461BCD PUSH1 0xE5 SHL DUP2 MSTORE PUSH1 0x20 PUSH1 0x4 DUP3 ADD MSTORE PUSH1 0x24 DUP2 ADD SWAP2 SWAP1 SWAP2 MSTORE PUSH32 0x4E6F20707565646573206465706F7369746172206D656E6F7320646520312076 PUSH1 0x44 DUP3 ADD MSTORE PUSH32 0x6F746F2E20436F6D6F20766173206120766F7461722073696E20766F7461723F PUSH1 0x64 DUP3 ADD MSTORE PUSH1 0x84 ADD PUSH2 0x48A JUMP JUMPDEST PUSH0 DUP6 DUP2 MSTORE PUSH1 0x3 PUSH1 0x20 SWAP1 DUP2 MSTORE PUSH1 0x40 DUP1 DUP4 KECCAK256 CALLER DUP5 MSTORE SWAP1 SWAP2 MSTORE DUP2 KECCAK256 SLOAD SWAP1 PUSH2 0xE74 DUP7 DUP4 PUSH2 0x34F8 JUMP JUMPDEST SWAP1 POP PUSH0 PUSH2 0xE81 DUP4 DUP1 PUSH2 0x3489 JUMP JUMPDEST PUSH2 0xE8B DUP4 DUP1 PUSH2 0x3489 JUMP JUMPDEST PUSH2 0xE95 SWAP2 SWAP1 PUSH2 0x3470 JUMP JUMPDEST PUSH0 SLOAD PUSH1 0x40 MLOAD PUSH4 0x6EB1769F PUSH1 0xE1 SHL DUP2 MSTORE CALLER PUSH1 0x4 DUP3 ADD MSTORE ADDRESS PUSH1 0x24 DUP3 ADD MSTORE SWAP2 SWAP3 POP DUP3 SWAP2 PUSH1 0x1 PUSH1 0x1 PUSH1 0xA0 SHL SUB SWAP1 SWAP2 AND SWAP1 PUSH4 0xDD62ED3E SWAP1 PUSH1 0x44 ADD PUSH1 0x20 PUSH1 0x40 MLOAD DUP1 DUP4 SUB DUP2 DUP7 GAS STATICCALL ISZERO DUP1 ISZERO PUSH2 0xEE5 JUMPI RETURNDATASIZE PUSH0 DUP1 RETURNDATACOPY RETURNDATASIZE PUSH0 REVERT JUMPDEST POP POP POP POP PUSH1 0x40 MLOAD RETURNDATASIZE PUSH1 0x1F NOT PUSH1 0x1F DUP3 ADD AND DUP3 ADD DUP1 PUSH1 0x40 MSTORE POP DUP2 ADD SWAP1 PUSH2 0xF09 SWAP2 SWAP1 PUSH2 0x34A0 JUMP JUMPDEST LT ISZERO PUSH2 0xF67 JUMPI PUSH1 0x40 MLOAD PUSH3 0x461BCD PUSH1 0xE5 SHL DUP2 MSTORE PUSH1 0x20 PUSH1 0x4 DUP3 ADD MSTORE PUSH1 0x27 PUSH1 0x24 DUP3 ADD MSTORE PUSH32 0x4E6F207469656E657320737566696369656E74657320746F6B656E7320706172 PUSH1 0x44 DUP3 ADD MSTORE PUSH7 0x30903B37BA30B9 PUSH1 0xC9 SHL PUSH1 0x64 DUP3 ADD MSTORE PUSH1 0x84 ADD PUSH2 0x48A JUMP JUMPDEST PUSH0 DUP1 SLOAD PUSH1 0x40 MLOAD PUSH4 0x23B872DD PUSH1 0xE0 SHL DUP2 MSTORE CALLER PUSH1 0x4 DUP3 ADD MSTORE ADDRESS PUSH1 0x24 DUP3 ADD MSTORE PUSH1 0x44 DUP2 ADD DUP5 SWAP1 MSTORE PUSH1 0x1 PUSH1 0x1 PUSH1 0xA0 SHL SUB SWAP1 SWAP2 AND SWAP1 PUSH4 0x23B872DD SWAP1 PUSH1 0x64 ADD PUSH1 0x20 PUSH1 0x40 MLOAD DUP1 DUP4 SUB DUP2 PUSH0 DUP8 GAS CALL ISZERO DUP1 ISZERO PUSH2 0xFBB JUMPI RETURNDATASIZE PUSH0 DUP1 RETURNDATACOPY RETURNDATASIZE PUSH0 REVERT JUMPDEST POP POP POP POP PUSH1 0x40 MLOAD RETURNDATASIZE PUSH1 0x1F NOT PUSH1 0x1F DUP3 ADD AND DUP3 ADD DUP1 PUSH1 0x40 MSTORE POP DUP2 ADD SWAP1 PUSH2 0xFDF SWAP2 SWAP1 PUSH2 0x350B JUMP JUMPDEST SWAP1 POP DUP1 PUSH2 0x103C JUMPI PUSH1 0x40 MLOAD PUSH3 0x461BCD PUSH1 0xE5 SHL DUP2 MSTORE PUSH1 0x20 PUSH1 0x4 DUP3 ADD MSTORE PUSH1 0x25 PUSH1 0x24 DUP3 ADD MSTORE PUSH32 0x4C61207472616E73666572656E63696120646520546F6B656E73206861206661 PUSH1 0x44 DUP3 ADD MSTORE PUSH5 0x6C6C61646F PUSH1 0xD8 SHL PUSH1 0x64 DUP3 ADD MSTORE PUSH1 0x84 ADD PUSH2 0x48A JUMP JUMPDEST DUP4 PUSH0 SUB PUSH2 0x10C0 JUMPI PUSH0 DUP10 DUP2 MSTORE PUSH1 0x9 PUSH1 0x20 DUP2 DUP2 MSTORE PUSH1 0x40 DUP4 KECCAK256 SWAP1 SWAP2 ADD DUP1 SLOAD PUSH1 0x1 DUP2 DUP2 ADD DUP4 SSTORE DUP3 DUP6 MSTORE SWAP3 DUP5 KECCAK256 ADD DUP1 SLOAD PUSH1 0x1 PUSH1 0x1 PUSH1 0xA0 SHL SUB NOT AND CALLER OR SWAP1 SSTORE SWAP2 DUP12 SWAP1 MSTORE SWAP1 SLOAD PUSH2 0x1085 SWAP2 SWAP1 PUSH2 0x3470 JUMP JUMPDEST PUSH0 DUP11 DUP2 MSTORE PUSH1 0x4 PUSH1 0x20 SWAP1 DUP2 MSTORE PUSH1 0x40 DUP1 DUP4 KECCAK256 CALLER DUP1 DUP6 MSTORE SWAP1 DUP4 MSTORE DUP2 DUP5 KECCAK256 SWAP5 SWAP1 SWAP5 SSTORE DUP13 DUP4 MSTORE PUSH1 0x5 DUP3 MSTORE DUP1 DUP4 KECCAK256 SWAP4 DUP4 MSTORE SWAP3 SWAP1 MSTORE KECCAK256 DUP1 SLOAD PUSH1 0xFF NOT AND PUSH1 0x1 OR SWAP1 SSTORE JUMPDEST PUSH0 DUP10 DUP2 MSTORE PUSH1 0x3 PUSH1 0x20 SWAP1 DUP2 MSTORE PUSH1 0x40 DUP1 DUP4 KECCAK256 CALLER DUP5 MSTORE DUP3 MSTORE DUP1 DUP4 KECCAK256 DUP7 SWAP1 SSTORE DUP12 DUP4 MSTORE PUSH1 0x9 SWAP1 SWAP2 MSTORE DUP2 KECCAK256 PUSH1 0x4 ADD DUP1 SLOAD DUP11 SWAP3 SWAP1 PUSH2 0x10F8 SWAP1 DUP5 SWAP1 PUSH2 0x34F8 JUMP JUMPDEST SWAP1 SWAP2 SSTORE POP POP PUSH0 DUP10 DUP2 MSTORE PUSH1 0x9 PUSH1 0x20 MSTORE PUSH1 0x40 DUP2 KECCAK256 PUSH1 0x8 ADD DUP1 SLOAD DUP5 SWAP3 SWAP1 PUSH2 0x111D SWAP1 DUP5 SWAP1 PUSH2 0x34F8 JUMP JUMPDEST SWAP1 SWAP2 SSTORE POP POP PUSH0 DUP10 DUP2 MSTORE PUSH1 0x9 PUSH1 0x20 MSTORE PUSH1 0x40 SWAP1 KECCAK256 PUSH1 0x7 ADD SLOAD PUSH1 0x1 PUSH1 0xA0 SHL SWAP1 DIV PUSH1 0xFF AND PUSH2 0x1186 JUMPI PUSH0 DUP10 DUP2 MSTORE PUSH1 0x9 PUSH1 0x20 MSTORE PUSH1 0x40 SWAP1 KECCAK256 PUSH1 0x5 DUP2 ADD SLOAD PUSH1 0x4 SWAP1 SWAP2 ADD SLOAD GT DUP1 ISZERO PUSH2 0x1178 JUMPI POP PUSH0 DUP10 DUP2 MSTORE PUSH1 0x9 PUSH1 0x20 MSTORE PUSH1 0x40 SWAP1 KECCAK256 PUSH1 0x3 ADD SLOAD PUSH1 0x1 SLOAD LT ISZERO JUMPDEST ISZERO PUSH2 0x1186 JUMPI PUSH2 0x1186 DUP10 PUSH2 0x2856 JUMP JUMPDEST POP POP POP POP POP POP POP POP POP JUMP JUMPDEST PUSH1 0x2 SLOAD PUSH0 SWAP1 PUSH1 0xFF AND PUSH2 0x11B5 JUMPI PUSH1 0x40 MLOAD PUSH3 0x461BCD PUSH1 0xE5 SHL DUP2 MSTORE PUSH1 0x4 ADD PUSH2 0x48A SWAP1 PUSH2 0x3325 JUMP JUMPDEST CALLER PUSH0 SWAP1 DUP2 MSTORE PUSH1 0x8 PUSH1 0x20 MSTORE PUSH1 0x40 SWAP1 KECCAK256 SLOAD PUSH1 0xFF AND PUSH2 0x11E3 JUMPI PUSH1 0x40 MLOAD PUSH3 0x461BCD PUSH1 0xE5 SHL DUP2 MSTORE PUSH1 0x4 ADD PUSH2 0x48A SWAP1 PUSH2 0x32A5 JUMP JUMPDEST PUSH1 0x1 PUSH1 0x1 PUSH1 0xA0 SHL SUB DUP3 AND PUSH2 0x1248 JUMPI PUSH1 0x40 MLOAD PUSH3 0x461BCD PUSH1 0xE5 SHL DUP2 MSTORE PUSH1 0x20 PUSH1 0x4 DUP3 ADD MSTORE PUSH1 0x26 PUSH1 0x24 DUP3 ADD MSTORE PUSH32 0x4C6120646972656363696F6E2064656C20636F6E747261746F206E6F20657320 PUSH1 0x44 DUP3 ADD MSTORE PUSH6 0x76616C696461 PUSH1 0xD0 SHL PUSH1 0x64 DUP3 ADD MSTORE PUSH1 0x84 ADD PUSH2 0x48A JUMP JUMPDEST DUP6 PUSH2 0x12AA JUMPI PUSH1 0x40 MLOAD PUSH3 0x461BCD PUSH1 0xE5 SHL DUP2 MSTORE PUSH1 0x20 PUSH1 0x4 DUP3 ADD MSTORE PUSH1 0x2C PUSH1 0x24 DUP3 ADD MSTORE PUSH32 0x456C20746974756C6F206465206C612070726F707565737461206E6F20707565 PUSH1 0x44 DUP3 ADD MSTORE PUSH12 0x64652073657220766163696F PUSH1 0xA0 SHL PUSH1 0x64 DUP3 ADD MSTORE PUSH1 0x84 ADD PUSH2 0x48A JUMP JUMPDEST DUP4 PUSH2 0x1311 JUMPI PUSH1 0x40 MLOAD PUSH3 0x461BCD PUSH1 0xE5 SHL DUP2 MSTORE PUSH1 0x20 PUSH1 0x4 DUP3 ADD MSTORE PUSH1 0x31 PUSH1 0x24 DUP3 ADD MSTORE PUSH32 0x4C61206465736372697063696F6E206465206C612070726F707565737461206E PUSH1 0x44 DUP3 ADD MSTORE PUSH17 0x6F20707565646520736572207661636961 PUSH1 0x78 SHL PUSH1 0x64 DUP3 ADD MSTORE PUSH1 0x84 ADD PUSH2 0x48A JUMP JUMPDEST PUSH1 0xA DUP1 SLOAD SWAP1 DUP2 SWAP1 PUSH0 PUSH2 0x1322 DUP4 PUSH2 0x352A JUMP JUMPDEST SWAP1 SWAP2 SSTORE POP POP PUSH0 DUP2 DUP2 MSTORE PUSH1 0x9 PUSH1 0x20 MSTORE PUSH1 0x40 SWAP1 KECCAK256 DUP2 DUP2 SSTORE PUSH1 0x1 DUP2 ADD PUSH2 0x1346 DUP10 DUP12 DUP4 PUSH2 0x359A JUMP JUMPDEST POP PUSH1 0x2 DUP2 ADD PUSH2 0x1356 DUP8 DUP10 DUP4 PUSH2 0x359A JUMP JUMPDEST POP PUSH1 0x3 DUP2 ADD DUP6 SWAP1 SSTORE PUSH1 0x6 DUP2 ADD DUP1 SLOAD PUSH1 0x1 PUSH1 0x1 PUSH1 0xA0 SHL SUB DUP7 AND PUSH1 0x1 PUSH1 0x1 PUSH1 0xA0 SHL SUB NOT SWAP2 DUP3 AND OR SWAP1 SWAP2 SSTORE PUSH1 0x7 DUP3 ADD DUP1 SLOAD SWAP1 SWAP2 AND CALLER OR SWAP1 SSTORE DUP5 ISZERO PUSH2 0x1417 JUMPI PUSH1 0x7 DUP2 ADD DUP1 SLOAD PUSH1 0xFF PUSH1 0xA0 SHL NOT AND SWAP1 SSTORE PUSH1 0xB DUP1 SLOAD SWAP1 PUSH0 PUSH2 0x13AF DUP4 PUSH2 0x352A JUMP JUMPDEST SWAP1 SWAP2 SSTORE POP POP PUSH1 0xC DUP1 SLOAD PUSH1 0x1 DUP2 DUP2 ADD DUP4 SSTORE PUSH0 DUP4 SWAP1 MSTORE PUSH32 0xDF6966C971051C3D54EC59162606531493A51404A002842F56009D7E5CF4A8C7 SWAP1 SWAP2 ADD DUP5 SWAP1 SSTORE SWAP1 SLOAD PUSH2 0x13F6 SWAP2 SWAP1 PUSH2 0x3470 JUMP JUMPDEST PUSH0 DUP4 DUP2 MSTORE PUSH1 0x6 PUSH1 0x20 MSTORE PUSH1 0x40 SWAP1 KECCAK256 SSTORE PUSH2 0x140D DUP3 PUSH2 0x2DDC JUMP JUMPDEST PUSH1 0x5 DUP3 ADD SSTORE PUSH2 0x1461 JUMP JUMPDEST PUSH1 0x7 DUP2 ADD DUP1 SLOAD PUSH1 0xFF PUSH1 0xA0 SHL NOT AND PUSH1 0x1 PUSH1 0xA0 SHL OR SWAP1 SSTORE PUSH1 0xE DUP1 SLOAD PUSH1 0x1 DUP2 ADD DUP3 SSTORE PUSH0 SWAP2 SWAP1 SWAP2 MSTORE PUSH32 0xBB7B4A454DC3493923482F07822329ED19E8244EFF582CC204F8554C3620C3FD ADD DUP3 SWAP1 SSTORE JUMPDEST PUSH0 PUSH1 0x4 DUP3 ADD DUP2 SWAP1 SSTORE PUSH1 0x8 DUP3 ADD DUP2 SWAP1 SSTORE PUSH1 0x7 DUP3 ADD DUP1 SLOAD PUSH2 0xFFFF PUSH1 0xA8 SHL NOT AND SWAP1 SSTORE PUSH1 0x40 MLOAD DUP4 SWAP2 PUSH32 0x9A863892F20A6B9C6CEC64D611B5864BE6373191CE2CACC3B05A299BCE3BF80E SWAP2 LOG2 POP SWAP8 SWAP7 POP POP POP POP POP POP POP JUMP JUMPDEST CALLER PUSH1 0x1 PUSH1 0x1 PUSH1 0xA0 SHL SUB PUSH32 0x0 AND EQ PUSH2 0x14FC JUMPI PUSH1 0x40 MLOAD PUSH3 0x461BCD PUSH1 0xE5 SHL DUP2 MSTORE PUSH1 0x4 ADD PUSH2 0x48A SWAP1 PUSH2 0x3654 JUMP JUMPDEST PUSH1 0x2 SLOAD PUSH1 0xFF AND ISZERO PUSH2 0x156F JUMPI PUSH1 0x40 MLOAD PUSH3 0x461BCD PUSH1 0xE5 SHL DUP2 MSTORE PUSH1 0x20 PUSH1 0x4 DUP3 ADD MSTORE PUSH1 0x37 PUSH1 0x24 DUP3 ADD MSTORE PUSH32 0x4C6120766F746163696F6E207961206573746120616269657274612C206E6F20 PUSH1 0x44 DUP3 ADD MSTORE PUSH23 0x70756564657320766F6C76657220612061627269726C61 PUSH1 0x48 SHL PUSH1 0x64 DUP3 ADD MSTORE PUSH1 0x84 ADD PUSH2 0x48A JUMP JUMPDEST PUSH0 CALLVALUE GT PUSH2 0x15D5 JUMPI PUSH1 0x40 MLOAD PUSH3 0x461BCD PUSH1 0xE5 SHL DUP2 MSTORE PUSH1 0x20 PUSH1 0x4 DUP3 ADD MSTORE PUSH1 0x2E PUSH1 0x24 DUP3 ADD MSTORE PUSH32 0x456C20707265737570756573746F20696E696369616C20646562652073657220 PUSH1 0x44 DUP3 ADD MSTORE PUSH14 0x6D61796F7220717565206365726F PUSH1 0x90 SHL PUSH1 0x64 DUP3 ADD MSTORE PUSH1 0x84 ADD PUSH2 0x48A JUMP JUMPDEST CALLVALUE PUSH1 0x1 SWAP1 DUP2 SSTORE PUSH1 0x2 DUP1 SLOAD PUSH1 0xFF NOT AND SWAP1 SWAP2 OR SWAP1 SSTORE PUSH1 0x40 MLOAD PUSH32 0x8089789A86616A2428E26766961EAAA205AB084AAC14A9CB98704E59AF2B89E6 SWAP1 PUSH0 SWAP1 LOG1 JUMP JUMPDEST PUSH2 0x161A PUSH2 0x2E64 JUMP JUMPDEST PUSH1 0x2 SLOAD PUSH1 0xFF AND PUSH2 0x163C JUMPI PUSH1 0x40 MLOAD PUSH3 0x461BCD PUSH1 0xE5 SHL DUP2 MSTORE PUSH1 0x4 ADD PUSH2 0x48A SWAP1 PUSH2 0x3325 JUMP JUMPDEST DUP2 PUSH1 0xA SLOAD DUP2 LT PUSH2 0x165E JUMPI PUSH1 0x40 MLOAD PUSH3 0x461BCD PUSH1 0xE5 SHL DUP2 MSTORE PUSH1 0x4 ADD PUSH2 0x48A SWAP1 PUSH2 0x3368 JUMP JUMPDEST PUSH2 0x1666 PUSH2 0x2E64 JUMP JUMPDEST DUP4 DUP2 MSTORE PUSH0 DUP5 DUP2 MSTORE PUSH1 0x9 PUSH1 0x20 DUP2 DUP2 MSTORE PUSH1 0x40 DUP4 KECCAK256 PUSH1 0x3 DUP2 ADD SLOAD PUSH1 0x60 DUP7 ADD MSTORE PUSH1 0x6 DUP2 ADD SLOAD PUSH1 0x1 PUSH1 0x1 PUSH1 0xA0 SHL SUB SWAP1 DUP2 AND PUSH1 0xC0 DUP8 ADD MSTORE PUSH1 0x7 DUP3 ADD SLOAD AND PUSH1 0xE0 DUP7 ADD MSTORE SWAP3 DUP8 SWAP1 MSTORE MSTORE PUSH1 0x2 ADD DUP1 SLOAD PUSH2 0x16B5 SWAP1 PUSH2 0x3273 JUMP JUMPDEST DUP1 PUSH1 0x1F ADD PUSH1 0x20 DUP1 SWAP2 DIV MUL PUSH1 0x20 ADD PUSH1 0x40 MLOAD SWAP1 DUP2 ADD PUSH1 0x40 MSTORE DUP1 SWAP3 SWAP2 SWAP1 DUP2 DUP2 MSTORE PUSH1 0x20 ADD DUP3 DUP1 SLOAD PUSH2 0x16E1 SWAP1 PUSH2 0x3273 JUMP JUMPDEST DUP1 ISZERO PUSH2 0x172C JUMPI DUP1 PUSH1 0x1F LT PUSH2 0x1703 JUMPI PUSH2 0x100 DUP1 DUP4 SLOAD DIV MUL DUP4 MSTORE SWAP2 PUSH1 0x20 ADD SWAP2 PUSH2 0x172C JUMP JUMPDEST DUP3 ADD SWAP2 SWAP1 PUSH0 MSTORE PUSH1 0x20 PUSH0 KECCAK256 SWAP1 JUMPDEST DUP2 SLOAD DUP2 MSTORE SWAP1 PUSH1 0x1 ADD SWAP1 PUSH1 0x20 ADD DUP1 DUP4 GT PUSH2 0x170F JUMPI DUP3 SWAP1 SUB PUSH1 0x1F AND DUP3 ADD SWAP2 JUMPDEST POP POP POP POP PUSH1 0x40 DUP1 DUP5 ADD SWAP3 SWAP1 SWAP3 MSTORE POP PUSH0 DUP6 DUP2 MSTORE PUSH1 0x9 PUSH1 0x20 DUP2 DUP2 MSTORE SWAP3 DUP3 KECCAK256 PUSH1 0x7 DUP2 ADD SLOAD PUSH1 0xFF PUSH1 0x1 PUSH1 0xA8 SHL DUP3 DIV DUP2 AND ISZERO ISZERO PUSH2 0x120 DUP9 ADD MSTORE PUSH1 0x1 PUSH1 0xB0 SHL DUP3 DIV DUP2 AND ISZERO ISZERO PUSH2 0x140 DUP9 ADD MSTORE PUSH1 0x1 PUSH1 0xA0 SHL SWAP1 SWAP2 DIV AND ISZERO ISZERO PUSH2 0x100 DUP7 ADD MSTORE SWAP2 DUP8 SWAP1 MSTORE SWAP1 SWAP2 MSTORE PUSH1 0x1 ADD DUP1 SLOAD PUSH2 0x1797 SWAP1 PUSH2 0x3273 JUMP JUMPDEST DUP1 PUSH1 0x1F ADD PUSH1 0x20 DUP1 SWAP2 DIV MUL PUSH1 0x20 ADD PUSH1 0x40 MLOAD SWAP1 DUP2 ADD PUSH1 0x40 MSTORE DUP1 SWAP3 SWAP2 SWAP1 DUP2 DUP2 MSTORE PUSH1 0x20 ADD DUP3 DUP1 SLOAD PUSH2 0x17C3 SWAP1 PUSH2 0x3273 JUMP JUMPDEST DUP1 ISZERO PUSH2 0x180E JUMPI DUP1 PUSH1 0x1F LT PUSH2 0x17E5 JUMPI PUSH2 0x100 DUP1 DUP4 SLOAD DIV MUL DUP4 MSTORE SWAP2 PUSH1 0x20 ADD SWAP2 PUSH2 0x180E JUMP JUMPDEST DUP3 ADD SWAP2 SWAP1 PUSH0 MSTORE PUSH1 0x20 PUSH0 KECCAK256 SWAP1 JUMPDEST DUP2 SLOAD DUP2 MSTORE SWAP1 PUSH1 0x1 ADD SWAP1 PUSH1 0x20 ADD DUP1 DUP4 GT PUSH2 0x17F1 JUMPI DUP3 SWAP1 SUB PUSH1 0x1F AND DUP3 ADD SWAP2 JUMPDEST POP POP POP POP PUSH1 0x20 DUP1 DUP5 ADD SWAP3 SWAP1 SWAP3 MSTORE POP PUSH0 DUP6 DUP2 MSTORE PUSH1 0x9 SWAP1 SWAP2 MSTORE PUSH1 0x40 SWAP1 KECCAK256 PUSH1 0x5 ADD SLOAD PUSH1 0xA0 DUP3 ADD MSTORE SWAP2 POP JUMPDEST POP SWAP2 SWAP1 POP JUMP JUMPDEST CALLER PUSH1 0x1 PUSH1 0x1 PUSH1 0xA0 SHL SUB PUSH32 0x0 AND EQ PUSH2 0x1883 JUMPI PUSH1 0x40 MLOAD PUSH3 0x461BCD PUSH1 0xE5 SHL DUP2 MSTORE PUSH1 0x4 ADD PUSH2 0x48A SWAP1 PUSH2 0x3654 JUMP JUMPDEST PUSH1 0x2 SLOAD PUSH1 0xFF AND PUSH2 0x18A5 JUMPI PUSH1 0x40 MLOAD PUSH3 0x461BCD PUSH1 0xE5 SHL DUP2 MSTORE PUSH1 0x4 ADD PUSH2 0x48A SWAP1 PUSH2 0x3325 JUMP JUMPDEST PUSH0 JUMPDEST PUSH1 0xC SLOAD DUP2 LT ISZERO PUSH2 0x1A7A JUMPI PUSH0 PUSH1 0xC DUP3 DUP2 SLOAD DUP2 LT PUSH2 0x18C5 JUMPI PUSH2 0x18C5 PUSH2 0x34B7 JUMP JUMPDEST PUSH0 SWAP2 DUP3 MSTORE PUSH1 0x20 DUP1 DUP4 KECCAK256 SWAP1 SWAP2 ADD SLOAD DUP1 DUP4 MSTORE PUSH1 0x9 SWAP1 SWAP2 MSTORE PUSH1 0x40 DUP3 KECCAK256 PUSH1 0x7 ADD DUP1 SLOAD PUSH1 0xFF PUSH1 0xB0 SHL NOT AND PUSH1 0x1 PUSH1 0xB0 SHL OR SWAP1 SSTORE PUSH1 0xB DUP1 SLOAD SWAP2 SWAP4 POP SWAP1 SWAP2 PUSH2 0x1904 DUP4 PUSH2 0x3310 JUMP JUMPDEST SWAP2 SWAP1 POP SSTORE POP PUSH0 JUMPDEST PUSH0 DUP3 DUP2 MSTORE PUSH1 0x9 PUSH1 0x20 DUP2 SWAP1 MSTORE PUSH1 0x40 SWAP1 SWAP2 KECCAK256 ADD SLOAD DUP2 LT ISZERO PUSH2 0x1A47 JUMPI PUSH0 DUP3 DUP2 MSTORE PUSH1 0x9 PUSH1 0x20 DUP2 SWAP1 MSTORE PUSH1 0x40 DUP3 KECCAK256 ADD DUP1 SLOAD DUP4 SWAP1 DUP2 LT PUSH2 0x1946 JUMPI PUSH2 0x1946 PUSH2 0x34B7 JUMP JUMPDEST PUSH0 SWAP2 DUP3 MSTORE PUSH1 0x20 DUP1 DUP4 KECCAK256 SWAP1 SWAP2 ADD SLOAD DUP6 DUP4 MSTORE PUSH1 0x3 DUP3 MSTORE PUSH1 0x40 DUP1 DUP5 KECCAK256 PUSH1 0x1 PUSH1 0x1 PUSH1 0xA0 SHL SUB SWAP1 SWAP3 AND DUP1 DUP6 MSTORE SWAP2 SWAP1 SWAP3 MSTORE SWAP2 KECCAK256 SLOAD SWAP1 SWAP2 POP DUP1 ISZERO PUSH2 0x19DC JUMPI PUSH0 PUSH2 0x1988 DUP3 DUP1 PUSH2 0x3489 JUMP JUMPDEST PUSH0 DUP7 DUP2 MSTORE PUSH1 0x3 PUSH1 0x20 SWAP1 DUP2 MSTORE PUSH1 0x40 DUP1 DUP4 KECCAK256 PUSH1 0x1 PUSH1 0x1 PUSH1 0xA0 SHL SUB DUP9 AND DUP1 DUP6 MSTORE SWAP1 DUP4 MSTORE DUP2 DUP5 KECCAK256 DUP5 SWAP1 SSTORE DUP10 DUP5 MSTORE PUSH1 0x5 DUP4 MSTORE DUP2 DUP5 KECCAK256 SWAP1 DUP5 MSTORE SWAP1 SWAP2 MSTORE SWAP1 KECCAK256 DUP1 SLOAD PUSH1 0xFF NOT AND SWAP1 SSTORE SWAP1 POP DUP1 ISZERO PUSH2 0x19DA JUMPI PUSH2 0x19DA DUP4 DUP3 PUSH2 0x26AA JUMP JUMPDEST POP JUMPDEST POP PUSH0 DUP4 DUP2 MSTORE PUSH1 0x3 PUSH1 0x20 SWAP1 DUP2 MSTORE PUSH1 0x40 DUP1 DUP4 KECCAK256 PUSH1 0x1 PUSH1 0x1 PUSH1 0xA0 SHL SUB SWAP1 SWAP5 AND DUP1 DUP5 MSTORE SWAP4 DUP3 MSTORE DUP1 DUP4 KECCAK256 DUP4 SWAP1 SSTORE DUP6 DUP4 MSTORE PUSH1 0x4 DUP3 MSTORE DUP1 DUP4 KECCAK256 DUP5 DUP5 MSTORE DUP3 MSTORE DUP1 DUP4 KECCAK256 DUP4 SWAP1 SSTORE DUP6 DUP4 MSTORE PUSH1 0x5 DUP3 MSTORE DUP1 DUP4 KECCAK256 SWAP4 DUP4 MSTORE SWAP3 DUP2 MSTORE DUP3 DUP3 KECCAK256 DUP1 SLOAD PUSH1 0xFF NOT AND SWAP1 SSTORE DUP5 DUP3 MSTORE PUSH1 0x6 SWAP1 MSTORE SWAP1 DUP2 KECCAK256 SSTORE PUSH1 0x1 ADD PUSH2 0x190B JUMP JUMPDEST POP PUSH0 DUP2 DUP2 MSTORE PUSH1 0x9 PUSH1 0x20 DUP2 SWAP1 MSTORE PUSH1 0x40 DUP3 KECCAK256 PUSH1 0x4 DUP2 ADD DUP4 SWAP1 SSTORE PUSH1 0x8 DUP2 ADD DUP4 SWAP1 SSTORE PUSH2 0x1A71 SWAP3 SWAP2 ADD SWAP1 PUSH2 0x2EDA JUMP JUMPDEST POP PUSH1 0x1 ADD PUSH2 0x18A7 JUMP JUMPDEST POP PUSH0 JUMPDEST PUSH1 0xE SLOAD DUP2 LT ISZERO PUSH2 0x1CF3 JUMPI PUSH0 PUSH1 0xE DUP3 DUP2 SLOAD DUP2 LT PUSH2 0x1A9B JUMPI PUSH2 0x1A9B PUSH2 0x34B7 JUMP JUMPDEST PUSH0 SWAP2 DUP3 MSTORE PUSH1 0x20 DUP1 DUP4 KECCAK256 SWAP1 SWAP2 ADD SLOAD DUP1 DUP4 MSTORE PUSH1 0x9 SWAP1 SWAP2 MSTORE PUSH1 0x40 SWAP1 SWAP2 KECCAK256 PUSH1 0x7 DUP2 ADD SLOAD SWAP2 SWAP3 POP SWAP1 PUSH1 0xFF PUSH1 0x1 PUSH1 0xB0 SHL SWAP1 SWAP2 DIV AND ISZERO DUP1 ISZERO PUSH2 0x1AE2 JUMPI POP PUSH1 0x7 DUP2 ADD SLOAD PUSH1 0x1 PUSH1 0xA8 SHL SWAP1 DIV PUSH1 0xFF AND ISZERO JUMPDEST ISZERO PUSH2 0x1CE9 JUMPI PUSH1 0x6 DUP2 ADD SLOAD PUSH1 0x1 PUSH1 0x1 PUSH1 0xA0 SHL SUB AND ISZERO PUSH2 0x1BB3 JUMPI PUSH1 0x6 DUP2 ADD SLOAD PUSH1 0x4 DUP3 ADD SLOAD PUSH1 0x8 DUP4 ADD SLOAD PUSH1 0x40 DUP1 MLOAD PUSH1 0x24 DUP2 ADD DUP8 SWAP1 MSTORE PUSH1 0x44 DUP2 ADD SWAP4 SWAP1 SWAP4 MSTORE PUSH1 0x64 DUP1 DUP5 ADD SWAP3 SWAP1 SWAP3 MSTORE DUP1 MLOAD DUP1 DUP5 SUB SWAP1 SWAP3 ADD DUP3 MSTORE PUSH1 0x84 SWAP1 SWAP3 ADD DUP3 MSTORE PUSH1 0x20 DUP2 ADD DUP1 MLOAD PUSH1 0x1 PUSH1 0x1 PUSH1 0xE0 SHL SUB AND PUSH4 0x986CC311 PUSH1 0xE0 SHL OR SWAP1 MSTORE SWAP1 MLOAD PUSH0 SWAP3 PUSH1 0x1 PUSH1 0x1 PUSH1 0xA0 SHL SUB AND SWAP2 PUSH3 0x186A0 SWAP2 DUP5 SWAP2 PUSH2 0x1B6E SWAP2 PUSH2 0x36AA JUMP JUMPDEST PUSH0 PUSH1 0x40 MLOAD DUP1 DUP4 SUB DUP2 DUP6 DUP9 DUP9 CALL SWAP4 POP POP POP POP RETURNDATASIZE DUP1 PUSH0 DUP2 EQ PUSH2 0x1BA9 JUMPI PUSH1 0x40 MLOAD SWAP2 POP PUSH1 0x1F NOT PUSH1 0x3F RETURNDATASIZE ADD AND DUP3 ADD PUSH1 0x40 MSTORE RETURNDATASIZE DUP3 MSTORE RETURNDATASIZE PUSH0 PUSH1 0x20 DUP5 ADD RETURNDATACOPY PUSH2 0x1BAE JUMP JUMPDEST PUSH1 0x60 SWAP2 POP JUMPDEST POP POP POP POP JUMPDEST PUSH0 JUMPDEST PUSH1 0x9 DUP3 ADD SLOAD DUP2 LT ISZERO PUSH2 0x1CCB JUMPI PUSH0 DUP3 PUSH1 0x9 ADD DUP3 DUP2 SLOAD DUP2 LT PUSH2 0x1BD7 JUMPI PUSH2 0x1BD7 PUSH2 0x34B7 JUMP JUMPDEST PUSH0 SWAP2 DUP3 MSTORE PUSH1 0x20 DUP1 DUP4 KECCAK256 SWAP1 SWAP2 ADD SLOAD DUP7 DUP4 MSTORE PUSH1 0x3 DUP3 MSTORE PUSH1 0x40 DUP1 DUP5 KECCAK256 PUSH1 0x1 PUSH1 0x1 PUSH1 0xA0 SHL SUB SWAP1 SWAP3 AND DUP1 DUP6 MSTORE SWAP2 SWAP1 SWAP3 MSTORE SWAP2 KECCAK256 SLOAD SWAP1 SWAP2 POP DUP1 ISZERO PUSH2 0x1C6D JUMPI PUSH0 PUSH2 0x1C19 DUP3 DUP1 PUSH2 0x3489 JUMP JUMPDEST PUSH0 DUP8 DUP2 MSTORE PUSH1 0x3 PUSH1 0x20 SWAP1 DUP2 MSTORE PUSH1 0x40 DUP1 DUP4 KECCAK256 PUSH1 0x1 PUSH1 0x1 PUSH1 0xA0 SHL SUB DUP9 AND DUP1 DUP6 MSTORE SWAP1 DUP4 MSTORE DUP2 DUP5 KECCAK256 DUP5 SWAP1 SSTORE DUP11 DUP5 MSTORE PUSH1 0x5 DUP4 MSTORE DUP2 DUP5 KECCAK256 SWAP1 DUP5 MSTORE SWAP1 SWAP2 MSTORE SWAP1 KECCAK256 DUP1 SLOAD PUSH1 0xFF NOT AND SWAP1 SSTORE SWAP1 POP DUP1 ISZERO PUSH2 0x1C6B JUMPI PUSH2 0x1C6B DUP4 DUP3 PUSH2 0x26AA JUMP JUMPDEST POP JUMPDEST POP PUSH0 DUP5 DUP2 MSTORE PUSH1 0x3 PUSH1 0x20 SWAP1 DUP2 MSTORE PUSH1 0x40 DUP1 DUP4 KECCAK256 PUSH1 0x1 PUSH1 0x1 PUSH1 0xA0 SHL SUB SWAP1 SWAP5 AND DUP1 DUP5 MSTORE SWAP4 DUP3 MSTORE DUP1 DUP4 KECCAK256 DUP4 SWAP1 SSTORE DUP7 DUP4 MSTORE PUSH1 0x4 DUP3 MSTORE DUP1 DUP4 KECCAK256 DUP5 DUP5 MSTORE DUP3 MSTORE DUP1 DUP4 KECCAK256 DUP4 SWAP1 SSTORE DUP7 DUP4 MSTORE PUSH1 0x5 DUP3 MSTORE DUP1 DUP4 KECCAK256 SWAP4 DUP4 MSTORE SWAP3 SWAP1 MSTORE KECCAK256 DUP1 SLOAD PUSH1 0xFF NOT AND SWAP1 SSTORE PUSH1 0x1 ADD PUSH2 0x1BB5 JUMP JUMPDEST POP PUSH0 PUSH1 0x4 DUP3 ADD DUP2 SWAP1 SSTORE PUSH1 0x8 DUP3 ADD DUP2 SWAP1 SSTORE PUSH2 0x1CE9 SWAP1 PUSH1 0x9 DUP4 ADD SWAP1 PUSH2 0x2EDA JUMP JUMPDEST POP POP PUSH1 0x1 ADD PUSH2 0x1A7D JUMP JUMPDEST POP PUSH1 0x1 SLOAD ISZERO PUSH2 0x1DDC JUMPI PUSH1 0x1 DUP1 SLOAD PUSH0 SWAP2 DUP3 SWAP1 SSTORE PUSH1 0x40 MLOAD SWAP1 SWAP2 SWAP1 PUSH1 0x1 PUSH1 0x1 PUSH1 0xA0 SHL SUB PUSH32 0x0 AND SWAP1 DUP4 SWAP1 DUP4 DUP2 DUP2 DUP2 DUP6 DUP8 GAS CALL SWAP3 POP POP POP RETURNDATASIZE DUP1 PUSH0 DUP2 EQ PUSH2 0x1D6E JUMPI PUSH1 0x40 MLOAD SWAP2 POP PUSH1 0x1F NOT PUSH1 0x3F RETURNDATASIZE ADD AND DUP3 ADD PUSH1 0x40 MSTORE RETURNDATASIZE DUP3 MSTORE RETURNDATASIZE PUSH0 PUSH1 0x20 DUP5 ADD RETURNDATACOPY PUSH2 0x1D73 JUMP JUMPDEST PUSH1 0x60 SWAP2 POP JUMPDEST POP POP SWAP1 POP DUP1 PUSH2 0x1DD9 JUMPI PUSH1 0x40 MLOAD PUSH3 0x461BCD PUSH1 0xE5 SHL DUP2 MSTORE PUSH1 0x20 PUSH1 0x4 DUP3 ADD MSTORE PUSH1 0x2C PUSH1 0x24 DUP3 ADD MSTORE PUSH32 0x4C61207472616E73666572656E6369612064656C20707265737570756573746F PUSH1 0x44 DUP3 ADD MSTORE PUSH12 0x103430903330B63630B23797 PUSH1 0xA1 SHL PUSH1 0x64 DUP3 ADD MSTORE PUSH1 0x84 ADD PUSH2 0x48A JUMP JUMPDEST POP POP JUMPDEST PUSH1 0x2 DUP1 SLOAD PUSH1 0xFF NOT AND SWAP1 SSTORE PUSH1 0x40 DUP1 MLOAD PUSH0 DUP2 MSTORE PUSH1 0x20 DUP2 ADD SWAP2 DUP3 SWAP1 MSTORE MLOAD PUSH2 0x1E02 SWAP2 PUSH1 0xE SWAP2 PUSH2 0x2EF8 JUMP JUMPDEST POP PUSH1 0x40 DUP1 MLOAD PUSH0 DUP2 MSTORE PUSH1 0x20 DUP2 ADD SWAP2 DUP3 SWAP1 MSTORE MLOAD PUSH2 0x1E1F SWAP2 PUSH1 0xC SWAP2 PUSH2 0x2EF8 JUMP JUMPDEST POP PUSH1 0x40 DUP1 MLOAD PUSH0 DUP2 MSTORE PUSH1 0x20 DUP2 ADD SWAP2 DUP3 SWAP1 MSTORE MLOAD PUSH2 0x1E3C SWAP2 PUSH1 0xD SWAP2 PUSH2 0x2EF8 JUMP JUMPDEST POP PUSH0 PUSH1 0xA DUP2 SWAP1 SSTORE PUSH1 0xB SSTORE JUMP JUMPDEST CALLER PUSH0 SWAP1 DUP2 MSTORE PUSH1 0x8 PUSH1 0x20 MSTORE PUSH1 0x40 SWAP1 KECCAK256 SLOAD PUSH1 0xFF AND PUSH2 0x1E76 JUMPI PUSH1 0x40 MLOAD PUSH3 0x461BCD PUSH1 0xE5 SHL DUP2 MSTORE PUSH1 0x4 ADD PUSH2 0x48A SWAP1 PUSH2 0x32A5 JUMP JUMPDEST PUSH0 DUP1 SLOAD SWAP1 PUSH2 0x100 EXP SWAP1 DIV PUSH1 0x1 PUSH1 0x1 PUSH1 0xA0 SHL SUB AND PUSH1 0x1 PUSH1 0x1 PUSH1 0xA0 SHL SUB AND PUSH4 0x4B94F50E PUSH1 0x40 MLOAD DUP2 PUSH4 0xFFFFFFFF AND PUSH1 0xE0 SHL DUP2 MSTORE PUSH1 0x4 ADD PUSH1 0x20 PUSH1 0x40 MLOAD DUP1 DUP4 SUB DUP2 DUP7 GAS STATICCALL ISZERO DUP1 ISZERO PUSH2 0x1EC4 JUMPI RETURNDATASIZE PUSH0 DUP1 RETURNDATACOPY RETURNDATASIZE PUSH0 REVERT JUMPDEST POP POP POP POP PUSH1 0x40 MLOAD RETURNDATASIZE PUSH1 0x1F NOT PUSH1 0x1F DUP3 ADD AND DUP3 ADD DUP1 PUSH1 0x40 MSTORE POP DUP2 ADD SWAP1 PUSH2 0x1EE8 SWAP2 SWAP1 PUSH2 0x34A0 JUMP JUMPDEST CALLVALUE LT ISZERO PUSH2 0x1F6B JUMPI PUSH1 0x40 MLOAD PUSH3 0x461BCD PUSH1 0xE5 SHL DUP2 MSTORE PUSH1 0x20 PUSH1 0x4 DUP3 ADD MSTORE PUSH1 0x45 PUSH1 0x24 DUP3 ADD MSTORE PUSH32 0x446562657320656E7669617220656C204574686572206E656365736172696F20 PUSH1 0x44 DUP3 ADD MSTORE PUSH32 0x7061726120706F64657220636F6D7072617220616C206D656E6F7320756E2074 PUSH1 0x64 DUP3 ADD MSTORE PUSH5 0x37B5B2B717 PUSH1 0xD9 SHL PUSH1 0x84 DUP3 ADD MSTORE PUSH1 0xA4 ADD PUSH2 0x48A JUMP JUMPDEST PUSH0 DUP1 PUSH0 SWAP1 SLOAD SWAP1 PUSH2 0x100 EXP SWAP1 DIV PUSH1 0x1 PUSH1 0x1 PUSH1 0xA0 SHL SUB AND PUSH1 0x1 PUSH1 0x1 PUSH1 0xA0 SHL SUB AND PUSH4 0x4B94F50E PUSH1 0x40 MLOAD DUP2 PUSH4 0xFFFFFFFF AND PUSH1 0xE0 SHL DUP2 MSTORE PUSH1 0x4 ADD PUSH1 0x20 PUSH1 0x40 MLOAD DUP1 DUP4 SUB DUP2 DUP7 GAS STATICCALL ISZERO DUP1 ISZERO PUSH2 0x1FBB JUMPI RETURNDATASIZE PUSH0 DUP1 RETURNDATACOPY RETURNDATASIZE PUSH0 REVERT JUMPDEST POP POP POP POP PUSH1 0x40 MLOAD RETURNDATASIZE PUSH1 0x1F NOT PUSH1 0x1F DUP3 ADD AND DUP3 ADD DUP1 PUSH1 0x40 MSTORE POP DUP2 ADD SWAP1 PUSH2 0x1FDF SWAP2 SWAP1 PUSH2 0x34A0 JUMP JUMPDEST PUSH2 0x1FE9 SWAP1 CALLVALUE PUSH2 0x36C0 JUMP JUMPDEST SWAP1 POP PUSH1 0x1 DUP2 GT PUSH2 0x2049 JUMPI PUSH1 0x40 MLOAD PUSH3 0x461BCD PUSH1 0xE5 SHL DUP2 MSTORE PUSH1 0x20 PUSH1 0x4 DUP3 ADD MSTORE PUSH1 0x25 PUSH1 0x24 DUP3 ADD MSTORE PUSH32 0x446562657320706F64657220636F6D7072617220616C206D656E6F7320756E20 PUSH1 0x44 DUP3 ADD MSTORE PUSH5 0x2A37B5B2B7 PUSH1 0xD9 SHL PUSH1 0x64 DUP3 ADD MSTORE PUSH1 0x84 ADD PUSH2 0x48A JUMP JUMPDEST PUSH0 SLOAD PUSH1 0x40 MLOAD PUSH4 0x40C10F19 PUSH1 0xE0 SHL DUP2 MSTORE PUSH1 0x1 PUSH1 0x1 PUSH1 0xA0 SHL SUB SWAP1 SWAP2 AND SWAP1 PUSH4 0x40C10F19 SWAP1 PUSH2 0x207A SWAP1 CALLER SWAP1 DUP6 SWAP1 PUSH1 0x4 ADD PUSH2 0x34DF JUMP JUMPDEST PUSH0 PUSH1 0x40 MLOAD DUP1 DUP4 SUB DUP2 PUSH0 DUP8 DUP1 EXTCODESIZE ISZERO DUP1 ISZERO PUSH2 0x2091 JUMPI PUSH0 DUP1 REVERT JUMPDEST POP GAS CALL ISZERO DUP1 ISZERO PUSH2 0x20A3 JUMPI RETURNDATASIZE PUSH0 DUP1 RETURNDATACOPY RETURNDATASIZE PUSH0 REVERT JUMPDEST POP POP POP POP POP JUMP JUMPDEST PUSH1 0x2 SLOAD PUSH1 0xFF AND PUSH2 0x20CC JUMPI PUSH1 0x40 MLOAD PUSH3 0x461BCD PUSH1 0xE5 SHL DUP2 MSTORE PUSH1 0x4 ADD PUSH2 0x48A SWAP1 PUSH2 0x3325 JUMP JUMPDEST DUP1 PUSH1 0xA SLOAD DUP2 LT PUSH2 0x20EE JUMPI PUSH1 0x40 MLOAD PUSH3 0x461BCD PUSH1 0xE5 SHL DUP2 MSTORE PUSH1 0x4 ADD PUSH2 0x48A SWAP1 PUSH2 0x3368 JUMP JUMPDEST PUSH0 DUP3 DUP2 MSTORE PUSH1 0x9 PUSH1 0x20 MSTORE PUSH1 0x40 SWAP1 KECCAK256 PUSH1 0x7 ADD SLOAD DUP3 SWAP1 PUSH1 0x1 PUSH1 0xB0 SHL SWAP1 DIV PUSH1 0xFF AND ISZERO PUSH2 0x2128 JUMPI PUSH1 0x40 MLOAD PUSH3 0x461BCD PUSH1 0xE5 SHL DUP2 MSTORE PUSH1 0x4 ADD PUSH2 0x48A SWAP1 PUSH2 0x33B0 JUMP JUMPDEST PUSH0 DUP4 DUP2 MSTORE PUSH1 0x9 PUSH1 0x20 MSTORE PUSH1 0x40 SWAP1 KECCAK256 PUSH1 0x7 ADD SLOAD DUP4 SWAP1 PUSH1 0x1 PUSH1 0xA8 SHL SWAP1 DIV PUSH1 0xFF AND ISZERO PUSH2 0x2162 JUMPI PUSH1 0x40 MLOAD PUSH3 0x461BCD PUSH1 0xE5 SHL DUP2 MSTORE PUSH1 0x4 ADD PUSH2 0x48A SWAP1 PUSH2 0x3409 JUMP JUMPDEST PUSH0 DUP5 DUP2 MSTORE PUSH1 0x9 PUSH1 0x20 MSTORE PUSH1 0x40 SWAP1 KECCAK256 PUSH1 0x7 ADD SLOAD PUSH1 0x1 PUSH1 0x1 PUSH1 0xA0 SHL SUB AND CALLER EQ PUSH2 0x21FA JUMPI PUSH1 0x40 MLOAD PUSH3 0x461BCD PUSH1 0xE5 SHL DUP2 MSTORE PUSH1 0x20 PUSH1 0x4 DUP3 ADD MSTORE PUSH1 0x41 PUSH1 0x24 DUP3 ADD MSTORE PUSH32 0x4E6F207075656465732063616E63656C6172206C612070726F70756573746120 PUSH1 0x44 DUP3 ADD MSTORE PUSH32 0x7369206E6F206572657320656C2063726561646F72206465206C61206D69736D PUSH1 0x64 DUP3 ADD MSTORE PUSH1 0x61 PUSH1 0xF8 SHL PUSH1 0x84 DUP3 ADD MSTORE PUSH1 0xA4 ADD PUSH2 0x48A JUMP JUMPDEST PUSH0 DUP5 DUP2 MSTORE PUSH1 0x9 PUSH1 0x20 MSTORE PUSH1 0x40 SWAP1 KECCAK256 PUSH1 0x7 ADD DUP1 SLOAD PUSH1 0xFF PUSH1 0xB0 SHL NOT AND PUSH1 0x1 PUSH1 0xB0 SHL OR SWAP1 DUP2 SWAP1 SSTORE PUSH1 0x1 PUSH1 0xA0 SHL SWAP1 DIV PUSH1 0xFF AND PUSH2 0x22F3 JUMPI PUSH1 0xB DUP1 SLOAD SWAP1 PUSH0 PUSH2 0x223A DUP4 PUSH2 0x3310 JUMP JUMPDEST SWAP1 SWAP2 SSTORE POP POP PUSH0 DUP5 DUP2 MSTORE PUSH1 0x6 PUSH1 0x20 MSTORE PUSH1 0x40 DUP2 KECCAK256 SLOAD PUSH1 0xC SLOAD SWAP1 SWAP2 SWAP1 PUSH2 0x225F SWAP1 PUSH1 0x1 SWAP1 PUSH2 0x3470 JUMP JUMPDEST SWAP1 POP DUP1 DUP3 EQ PUSH2 0x22BA JUMPI PUSH0 PUSH1 0xC DUP3 DUP2 SLOAD DUP2 LT PUSH2 0x227C JUMPI PUSH2 0x227C PUSH2 0x34B7 JUMP JUMPDEST SWAP1 PUSH0 MSTORE PUSH1 0x20 PUSH0 KECCAK256 ADD SLOAD SWAP1 POP DUP1 PUSH1 0xC DUP5 DUP2 SLOAD DUP2 LT PUSH2 0x229B JUMPI PUSH2 0x229B PUSH2 0x34B7 JUMP JUMPDEST PUSH0 SWAP2 DUP3 MSTORE PUSH1 0x20 DUP1 DUP4 KECCAK256 SWAP1 SWAP2 ADD SWAP3 SWAP1 SWAP3 SSTORE SWAP2 DUP3 MSTORE PUSH1 0x6 SWAP1 MSTORE PUSH1 0x40 SWAP1 KECCAK256 DUP3 SWAP1 SSTORE JUMPDEST PUSH1 0xC DUP1 SLOAD DUP1 PUSH2 0x22CB JUMPI PUSH2 0x22CB PUSH2 0x34CB JUMP JUMPDEST PUSH0 DUP3 DUP2 MSTORE PUSH1 0x20 DUP1 DUP3 KECCAK256 DUP4 ADD PUSH0 NOT SWAP1 DUP2 ADD DUP4 SWAP1 SSTORE SWAP1 SWAP3 ADD SWAP1 SWAP3 SSTORE DUP8 DUP3 MSTORE PUSH1 0x6 SWAP1 MSTORE PUSH1 0x40 DUP2 KECCAK256 SSTORE POP POP JUMPDEST PUSH0 JUMPDEST PUSH0 DUP6 DUP2 MSTORE PUSH1 0x9 PUSH1 0x20 DUP2 SWAP1 MSTORE PUSH1 0x40 SWAP1 SWAP2 KECCAK256 ADD SLOAD DUP2 LT ISZERO PUSH2 0x23E4 JUMPI PUSH0 DUP6 DUP2 MSTORE PUSH1 0x9 PUSH1 0x20 DUP2 SWAP1 MSTORE PUSH1 0x40 DUP3 KECCAK256 ADD DUP1 SLOAD DUP4 SWAP1 DUP2 LT PUSH2 0x2330 JUMPI PUSH2 0x2330 PUSH2 0x34B7 JUMP JUMPDEST PUSH0 SWAP2 DUP3 MSTORE PUSH1 0x20 DUP1 DUP4 KECCAK256 SWAP1 SWAP2 ADD SLOAD DUP9 DUP4 MSTORE PUSH1 0x3 DUP3 MSTORE PUSH1 0x40 DUP1 DUP5 KECCAK256 PUSH1 0x1 PUSH1 0x1 PUSH1 0xA0 SHL SUB SWAP1 SWAP3 AND DUP1 DUP6 MSTORE SWAP2 SWAP1 SWAP3 MSTORE SWAP2 KECCAK256 SLOAD SWAP1 SWAP2 POP DUP1 ISZERO PUSH2 0x2386 JUMPI PUSH0 PUSH2 0x2372 DUP3 DUP1 PUSH2 0x3489 JUMP JUMPDEST SWAP1 POP DUP1 ISZERO PUSH2 0x2384 JUMPI PUSH2 0x2384 DUP4 DUP3 PUSH2 0x26AA JUMP JUMPDEST POP JUMPDEST POP PUSH0 DUP7 DUP2 MSTORE PUSH1 0x3 PUSH1 0x20 SWAP1 DUP2 MSTORE PUSH1 0x40 DUP1 DUP4 KECCAK256 PUSH1 0x1 PUSH1 0x1 PUSH1 0xA0 SHL SUB SWAP1 SWAP5 AND DUP1 DUP5 MSTORE SWAP4 DUP3 MSTORE DUP1 DUP4 KECCAK256 DUP4 SWAP1 SSTORE DUP9 DUP4 MSTORE PUSH1 0x4 DUP3 MSTORE DUP1 DUP4 KECCAK256 DUP5 DUP5 MSTORE DUP3 MSTORE DUP1 DUP4 KECCAK256 DUP4 SWAP1 SSTORE DUP9 DUP4 MSTORE PUSH1 0x5 DUP3 MSTORE DUP1 DUP4 KECCAK256 SWAP4 DUP4 MSTORE SWAP3 SWAP1 MSTORE KECCAK256 DUP1 SLOAD PUSH1 0xFF NOT AND SWAP1 SSTORE PUSH1 0x1 ADD PUSH2 0x22F5 JUMP JUMPDEST POP PUSH0 DUP5 DUP2 MSTORE PUSH1 0x9 PUSH1 0x20 DUP2 SWAP1 MSTORE PUSH1 0x40 DUP3 KECCAK256 PUSH1 0x4 DUP2 ADD DUP4 SWAP1 SSTORE PUSH1 0x8 DUP2 ADD DUP4 SWAP1 SSTORE PUSH2 0x240E SWAP3 SWAP2 ADD SWAP1 PUSH2 0x2EDA JUMP JUMPDEST PUSH1 0x40 MLOAD DUP5 SWAP1 PUSH32 0x789CF55BE980739DAD1D0699B93B58E806B51C9D96619BFA8FE0A28ABAA7B30C SWAP1 PUSH0 SWAP1 LOG2 POP POP POP POP JUMP JUMPDEST PUSH0 DUP1 SLOAD SWAP1 PUSH2 0x100 EXP SWAP1 DIV PUSH1 0x1 PUSH1 0x1 PUSH1 0xA0 SHL SUB AND PUSH1 0x1 PUSH1 0x1 PUSH1 0xA0 SHL SUB AND PUSH4 0x4B94F50E PUSH1 0x40 MLOAD DUP2 PUSH4 0xFFFFFFFF AND PUSH1 0xE0 SHL DUP2 MSTORE PUSH1 0x4 ADD PUSH1 0x20 PUSH1 0x40 MLOAD DUP1 DUP4 SUB DUP2 DUP7 GAS STATICCALL ISZERO DUP1 ISZERO PUSH2 0x248C JUMPI RETURNDATASIZE PUSH0 DUP1 RETURNDATACOPY RETURNDATASIZE PUSH0 REVERT JUMPDEST POP POP POP POP PUSH1 0x40 MLOAD RETURNDATASIZE PUSH1 0x1F NOT PUSH1 0x1F DUP3 ADD AND DUP3 ADD DUP1 PUSH1 0x40 MSTORE POP DUP2 ADD SWAP1 PUSH2 0x24B0 SWAP2 SWAP1 PUSH2 0x34A0 JUMP JUMPDEST CALLVALUE LT ISZERO PUSH2 0x250B JUMPI PUSH1 0x40 MLOAD PUSH3 0x461BCD PUSH1 0xE5 SHL DUP2 MSTORE PUSH1 0x20 PUSH1 0x4 DUP3 ADD MSTORE PUSH1 0x23 PUSH1 0x24 DUP3 ADD MSTORE PUSH32 0x4E6F2065737461732061706F7274616E646F20737566696369656E7465204574 PUSH1 0x44 DUP3 ADD MSTORE PUSH3 0x3432B9 PUSH1 0xE9 SHL PUSH1 0x64 DUP3 ADD MSTORE PUSH1 0x84 ADD PUSH2 0x48A JUMP JUMPDEST CALLER PUSH0 SWAP1 DUP2 MSTORE PUSH1 0x8 PUSH1 0x20 MSTORE PUSH1 0x40 SWAP1 KECCAK256 SLOAD PUSH1 0xFF AND ISZERO PUSH2 0x256A JUMPI PUSH1 0x40 MLOAD PUSH3 0x461BCD PUSH1 0xE5 SHL DUP2 MSTORE PUSH1 0x20 PUSH1 0x4 DUP3 ADD MSTORE PUSH1 0x1C PUSH1 0x24 DUP3 ADD MSTORE PUSH32 0x5061727469636970616E746520796120657374612061637469766F2E00000000 PUSH1 0x44 DUP3 ADD MSTORE PUSH1 0x64 ADD PUSH2 0x48A JUMP JUMPDEST PUSH0 DUP1 PUSH0 SWAP1 SLOAD SWAP1 PUSH2 0x100 EXP SWAP1 DIV PUSH1 0x1 PUSH1 0x1 PUSH1 0xA0 SHL SUB AND PUSH1 0x1 PUSH1 0x1 PUSH1 0xA0 SHL SUB AND PUSH4 0x4B94F50E PUSH1 0x40 MLOAD DUP2 PUSH4 0xFFFFFFFF AND PUSH1 0xE0 SHL DUP2 MSTORE PUSH1 0x4 ADD PUSH1 0x20 PUSH1 0x40 MLOAD DUP1 DUP4 SUB DUP2 DUP7 GAS STATICCALL ISZERO DUP1 ISZERO PUSH2 0x25BA JUMPI RETURNDATASIZE PUSH0 DUP1 RETURNDATACOPY RETURNDATASIZE PUSH0 REVERT JUMPDEST POP POP POP POP PUSH1 0x40 MLOAD RETURNDATASIZE PUSH1 0x1F NOT PUSH1 0x1F DUP3 ADD AND DUP3 ADD DUP1 PUSH1 0x40 MSTORE POP DUP2 ADD SWAP1 PUSH2 0x25DE SWAP2 SWAP1 PUSH2 0x34A0 JUMP JUMPDEST PUSH2 0x25E8 SWAP1 CALLVALUE PUSH2 0x36C0 JUMP JUMPDEST SWAP1 POP PUSH1 0x1 DUP2 LT ISZERO PUSH2 0x264D JUMPI PUSH1 0x40 MLOAD PUSH3 0x461BCD PUSH1 0xE5 SHL DUP2 MSTORE PUSH1 0x20 PUSH1 0x4 DUP3 ADD MSTORE PUSH1 0x29 PUSH1 0x24 DUP3 ADD MSTORE PUSH32 0x4E656365736974617320706F64657220636F6D7072617220616C206D656E6F73 PUSH1 0x44 DUP3 ADD MSTORE PUSH9 0x103AB7103A37B5B2B7 PUSH1 0xB9 SHL PUSH1 0x64 DUP3 ADD MSTORE PUSH1 0x84 ADD PUSH2 0x48A JUMP JUMPDEST CALLER PUSH0 SWAP1 DUP2 MSTORE PUSH1 0x8 PUSH1 0x20 MSTORE PUSH1 0x40 DUP2 KECCAK256 DUP1 SLOAD PUSH1 0xFF NOT AND PUSH1 0x1 OR SWAP1 SSTORE PUSH1 0x7 DUP1 SLOAD SWAP2 PUSH2 0x2674 DUP4 PUSH2 0x352A JUMP JUMPDEST SWAP1 SWAP2 SSTORE POP POP PUSH0 SLOAD PUSH1 0x40 MLOAD PUSH4 0x40C10F19 PUSH1 0xE0 SHL DUP2 MSTORE PUSH1 0x1 PUSH1 0x1 PUSH1 0xA0 SHL SUB SWAP1 SWAP2 AND SWAP1 PUSH4 0x40C10F19 SWAP1 PUSH2 0x207A SWAP1 CALLER SWAP1 DUP6 SWAP1 PUSH1 0x4 ADD PUSH2 0x34DF JUMP JUMPDEST PUSH0 DUP2 GT PUSH2 0x26F9 JUMPI PUSH1 0x40 MLOAD PUSH3 0x461BCD PUSH1 0xE5 SHL DUP2 MSTORE PUSH1 0x20 PUSH1 0x4 DUP3 ADD DUP2 SWAP1 MSTORE PUSH1 0x24 DUP3 ADD MSTORE PUSH32 0x4465626573207472616E6665726972206D617320746F6B656E73207175652030 PUSH1 0x44 DUP3 ADD MSTORE PUSH1 0x64 ADD PUSH2 0x48A JUMP JUMPDEST PUSH1 0x1 PUSH1 0x1 PUSH1 0xA0 SHL SUB DUP3 AND PUSH2 0x2749 JUMPI PUSH1 0x40 MLOAD PUSH3 0x461BCD PUSH1 0xE5 SHL DUP2 MSTORE PUSH1 0x20 PUSH1 0x4 DUP3 ADD MSTORE PUSH1 0x17 PUSH1 0x24 DUP3 ADD MSTORE PUSH23 0x22B61030B2323932B9B9903232B1329032BC34B9BA34B9 PUSH1 0x49 SHL PUSH1 0x44 DUP3 ADD MSTORE PUSH1 0x64 ADD PUSH2 0x48A JUMP JUMPDEST PUSH0 DUP1 SLOAD PUSH1 0x40 MLOAD PUSH1 0x1 PUSH1 0x1 PUSH1 0xA0 SHL SUB SWAP1 SWAP2 AND SWAP1 PUSH3 0x186A0 SWAP1 PUSH4 0xA9059CBB PUSH1 0xE0 SHL SWAP1 PUSH2 0x2779 SWAP1 DUP8 SWAP1 DUP8 SWAP1 PUSH1 0x24 ADD PUSH2 0x34DF JUMP JUMPDEST PUSH1 0x40 DUP1 MLOAD PUSH1 0x1F NOT DUP2 DUP5 SUB ADD DUP2 MSTORE SWAP2 DUP2 MSTORE PUSH1 0x20 DUP3 ADD DUP1 MLOAD PUSH1 0x1 PUSH1 0x1 PUSH1 0xE0 SHL SUB AND PUSH1 0x1 PUSH1 0x1 PUSH1 0xE0 SHL SUB NOT SWAP1 SWAP5 AND SWAP4 SWAP1 SWAP4 OR SWAP1 SWAP3 MSTORE SWAP1 MLOAD PUSH2 0x27B7 SWAP2 SWAP1 PUSH2 0x36AA JUMP JUMPDEST PUSH0 PUSH1 0x40 MLOAD DUP1 DUP4 SUB DUP2 PUSH0 DUP8 DUP8 CALL SWAP3 POP POP POP RETURNDATASIZE DUP1 PUSH0 DUP2 EQ PUSH2 0x27F1 JUMPI PUSH1 0x40 MLOAD SWAP2 POP PUSH1 0x1F NOT PUSH1 0x3F RETURNDATASIZE ADD AND DUP3 ADD PUSH1 0x40 MSTORE RETURNDATASIZE DUP3 MSTORE RETURNDATASIZE PUSH0 PUSH1 0x20 DUP5 ADD RETURNDATACOPY PUSH2 0x27F6 JUMP JUMPDEST PUSH1 0x60 SWAP2 POP JUMPDEST POP POP SWAP1 POP DUP1 PUSH2 0xCEE JUMPI PUSH1 0x40 MLOAD PUSH3 0x461BCD PUSH1 0xE5 SHL DUP2 MSTORE PUSH1 0x20 PUSH1 0x4 DUP3 ADD MSTORE PUSH1 0x26 PUSH1 0x24 DUP3 ADD MSTORE PUSH32 0x4C61207472616E73666572656E63696120646520746F6B656E73206861206661 PUSH1 0x44 DUP3 ADD MSTORE PUSH6 0x363630B23797 PUSH1 0xD1 SHL PUSH1 0x64 DUP3 ADD MSTORE PUSH1 0x84 ADD PUSH2 0x48A JUMP JUMPDEST PUSH1 0x2 SLOAD PUSH1 0xFF AND PUSH2 0x2878 JUMPI PUSH1 0x40 MLOAD PUSH3 0x461BCD PUSH1 0xE5 SHL DUP2 MSTORE PUSH1 0x4 ADD PUSH2 0x48A SWAP1 PUSH2 0x3325 JUMP JUMPDEST DUP1 PUSH1 0xA SLOAD DUP2 LT PUSH2 0x289A JUMPI PUSH1 0x40 MLOAD PUSH3 0x461BCD PUSH1 0xE5 SHL DUP2 MSTORE PUSH1 0x4 ADD PUSH2 0x48A SWAP1 PUSH2 0x3368 JUMP JUMPDEST PUSH0 DUP3 DUP2 MSTORE PUSH1 0x9 PUSH1 0x20 MSTORE PUSH1 0x40 SWAP1 KECCAK256 PUSH1 0x7 ADD SLOAD DUP3 SWAP1 PUSH1 0x1 PUSH1 0xB0 SHL SWAP1 DIV PUSH1 0xFF AND ISZERO PUSH2 0x28D4 JUMPI PUSH1 0x40 MLOAD PUSH3 0x461BCD PUSH1 0xE5 SHL DUP2 MSTORE PUSH1 0x4 ADD PUSH2 0x48A SWAP1 PUSH2 0x33B0 JUMP JUMPDEST PUSH0 DUP4 DUP2 MSTORE PUSH1 0x9 PUSH1 0x20 MSTORE PUSH1 0x40 SWAP1 KECCAK256 PUSH1 0x7 ADD SLOAD DUP4 SWAP1 PUSH1 0x1 PUSH1 0xA8 SHL SWAP1 DIV PUSH1 0xFF AND ISZERO PUSH2 0x290E JUMPI PUSH1 0x40 MLOAD PUSH3 0x461BCD PUSH1 0xE5 SHL DUP2 MSTORE PUSH1 0x4 ADD PUSH2 0x48A SWAP1 PUSH2 0x3409 JUMP JUMPDEST PUSH0 DUP5 DUP2 MSTORE PUSH1 0x9 PUSH1 0x20 MSTORE PUSH1 0x40 SWAP1 KECCAK256 PUSH1 0x7 ADD SLOAD PUSH1 0x1 PUSH1 0xA0 SHL SWAP1 DIV PUSH1 0xFF AND ISZERO PUSH2 0x2984 JUMPI PUSH1 0x40 MLOAD PUSH3 0x461BCD PUSH1 0xE5 SHL DUP2 MSTORE PUSH1 0x20 PUSH1 0x4 DUP3 ADD MSTORE PUSH1 0x25 PUSH1 0x24 DUP3 ADD MSTORE PUSH32 0x4C612070726F7075657374612064656265207365722064652066696E616E6369 PUSH1 0x44 DUP3 ADD MSTORE PUSH5 0x30B1B4B7B7 PUSH1 0xD9 SHL PUSH1 0x64 DUP3 ADD MSTORE PUSH1 0x84 ADD PUSH2 0x48A JUMP JUMPDEST PUSH0 DUP5 DUP2 MSTORE PUSH1 0x9 PUSH1 0x20 MSTORE PUSH1 0x40 SWAP1 KECCAK256 PUSH1 0x6 ADD SLOAD PUSH1 0x1 PUSH1 0x1 PUSH1 0xA0 SHL SUB AND PUSH2 0x2A06 JUMPI PUSH1 0x40 MLOAD PUSH3 0x461BCD PUSH1 0xE5 SHL DUP2 MSTORE PUSH1 0x20 PUSH1 0x4 DUP3 ADD MSTORE PUSH1 0x33 PUSH1 0x24 DUP3 ADD MSTORE PUSH32 0x4C612070726F707565737461206E6F207469656E6520636F6E747261746F2064 PUSH1 0x44 DUP3 ADD MSTORE PUSH19 0x6520766F746163696F6E2061736F636961646F PUSH1 0x68 SHL PUSH1 0x64 DUP3 ADD MSTORE PUSH1 0x84 ADD PUSH2 0x48A JUMP JUMPDEST PUSH0 DUP5 DUP2 MSTORE PUSH1 0x9 PUSH1 0x20 MSTORE PUSH1 0x40 SWAP1 KECCAK256 PUSH1 0x3 ADD SLOAD PUSH1 0x1 SLOAD GT PUSH2 0x2AA6 JUMPI PUSH1 0x40 MLOAD PUSH3 0x461BCD PUSH1 0xE5 SHL DUP2 MSTORE PUSH1 0x20 PUSH1 0x4 DUP3 ADD MSTORE PUSH1 0x50 PUSH1 0x24 DUP3 ADD MSTORE PUSH32 0x456C20707265737570756573746F20746F74616C2064656C20636F6E74726174 PUSH1 0x44 DUP3 ADD MSTORE PUSH32 0x6F206465626520736572207375706572696F7220616C2064656D616E6461646F PUSH1 0x64 DUP3 ADD MSTORE PUSH16 0x20656E206C612070726F707565737461 PUSH1 0x80 SHL PUSH1 0x84 DUP3 ADD MSTORE PUSH1 0xA4 ADD PUSH2 0x48A JUMP JUMPDEST PUSH0 DUP5 DUP2 MSTORE PUSH1 0x9 PUSH1 0x20 MSTORE PUSH1 0x40 DUP2 KECCAK256 PUSH1 0x7 ADD DUP1 SLOAD PUSH1 0xFF PUSH1 0xA8 SHL NOT AND PUSH1 0x1 PUSH1 0xA8 SHL OR SWAP1 SSTORE PUSH1 0xB DUP1 SLOAD SWAP2 PUSH2 0x2AD5 DUP4 PUSH2 0x3310 JUMP JUMPDEST SWAP1 SWAP2 SSTORE POP POP PUSH0 DUP5 DUP2 MSTORE PUSH1 0x6 PUSH1 0x20 MSTORE PUSH1 0x40 DUP2 KECCAK256 SLOAD PUSH1 0xC SLOAD SWAP1 SWAP2 SWAP1 PUSH2 0x2AFA SWAP1 PUSH1 0x1 SWAP1 PUSH2 0x3470 JUMP JUMPDEST SWAP1 POP DUP1 DUP3 EQ PUSH2 0x2B55 JUMPI PUSH0 PUSH1 0xC DUP3 DUP2 SLOAD DUP2 LT PUSH2 0x2B17 JUMPI PUSH2 0x2B17 PUSH2 0x34B7 JUMP JUMPDEST SWAP1 PUSH0 MSTORE PUSH1 0x20 PUSH0 KECCAK256 ADD SLOAD SWAP1 POP DUP1 PUSH1 0xC DUP5 DUP2 SLOAD DUP2 LT PUSH2 0x2B36 JUMPI PUSH2 0x2B36 PUSH2 0x34B7 JUMP JUMPDEST PUSH0 SWAP2 DUP3 MSTORE PUSH1 0x20 DUP1 DUP4 KECCAK256 SWAP1 SWAP2 ADD SWAP3 SWAP1 SWAP3 SSTORE SWAP2 DUP3 MSTORE PUSH1 0x6 SWAP1 MSTORE PUSH1 0x40 SWAP1 KECCAK256 DUP3 SWAP1 SSTORE JUMPDEST PUSH1 0xC DUP1 SLOAD DUP1 PUSH2 0x2B66 JUMPI PUSH2 0x2B66 PUSH2 0x34CB JUMP JUMPDEST PUSH0 DUP3 DUP2 MSTORE PUSH1 0x20 DUP1 DUP3 KECCAK256 DUP4 ADD PUSH0 NOT SWAP1 DUP2 ADD DUP4 SWAP1 SSTORE SWAP1 SWAP3 ADD SWAP1 SWAP3 SSTORE DUP8 DUP3 MSTORE PUSH1 0x6 DUP2 MSTORE PUSH1 0x40 DUP1 DUP4 KECCAK256 DUP4 SWAP1 SSTORE PUSH1 0xD DUP1 SLOAD PUSH1 0x1 DUP2 ADD DUP3 SSTORE SWAP1 DUP5 MSTORE PUSH32 0xD7B6990105719101DABEB77144F2A3385C8033ACD3AF97E9423A695E81AD1EB5 ADD DUP10 SWAP1 SSTORE DUP3 SLOAD DUP2 MLOAD PUSH4 0x25CA7A87 PUSH1 0xE1 SHL DUP2 MSTORE SWAP2 MLOAD PUSH1 0x1 PUSH1 0x1 PUSH1 0xA0 SHL SUB SWAP1 SWAP2 AND SWAP3 PUSH4 0x4B94F50E SWAP3 PUSH1 0x4 DUP1 DUP3 ADD SWAP4 SWAP2 DUP3 SWAP1 SUB ADD DUP2 DUP7 GAS STATICCALL ISZERO DUP1 ISZERO PUSH2 0x2C00 JUMPI RETURNDATASIZE PUSH0 DUP1 RETURNDATACOPY RETURNDATASIZE PUSH0 REVERT JUMPDEST POP POP POP POP PUSH1 0x40 MLOAD RETURNDATASIZE PUSH1 0x1F NOT PUSH1 0x1F DUP3 ADD AND DUP3 ADD DUP1 PUSH1 0x40 MSTORE POP DUP2 ADD SWAP1 PUSH2 0x2C24 SWAP2 SWAP1 PUSH2 0x34A0 JUMP JUMPDEST PUSH0 DUP9 DUP2 MSTORE PUSH1 0x9 PUSH1 0x20 MSTORE PUSH1 0x40 SWAP1 KECCAK256 PUSH1 0x8 ADD SLOAD PUSH2 0x2C3F SWAP2 SWAP1 PUSH2 0x3489 JUMP JUMPDEST SWAP1 POP DUP1 PUSH1 0x1 PUSH0 DUP3 DUP3 SLOAD PUSH2 0x2C52 SWAP2 SWAP1 PUSH2 0x34F8 JUMP JUMPDEST SWAP1 SWAP2 SSTORE POP POP PUSH0 DUP8 DUP2 MSTORE PUSH1 0x9 PUSH1 0x20 MSTORE PUSH1 0x40 DUP2 KECCAK256 PUSH1 0x3 ADD SLOAD PUSH1 0x1 DUP1 SLOAD SWAP2 SWAP3 SWAP1 SWAP2 PUSH2 0x2C7B SWAP1 DUP5 SWAP1 PUSH2 0x3470 JUMP JUMPDEST SWAP1 SWAP2 SSTORE POP POP PUSH0 DUP8 DUP2 MSTORE PUSH1 0x9 PUSH1 0x20 SWAP1 DUP2 MSTORE PUSH1 0x40 DUP1 DUP4 KECCAK256 PUSH1 0x6 DUP2 ADD SLOAD PUSH1 0x3 DUP3 ADD SLOAD PUSH1 0x4 DUP4 ADD SLOAD PUSH1 0x8 SWAP1 SWAP4 ADD SLOAD DUP5 MLOAD PUSH1 0x24 DUP2 ADD DUP16 SWAP1 MSTORE PUSH1 0x44 DUP2 ADD SWAP5 SWAP1 SWAP5 MSTORE PUSH1 0x64 DUP1 DUP6 ADD SWAP2 SWAP1 SWAP2 MSTORE DUP5 MLOAD DUP1 DUP6 SUB SWAP1 SWAP2 ADD DUP2 MSTORE PUSH1 0x84 SWAP1 SWAP4 ADD DUP5 MSTORE SWAP4 DUP3 ADD DUP1 MLOAD PUSH1 0x1 PUSH1 0x1 PUSH1 0xE0 SHL SUB AND PUSH4 0x986CC311 PUSH1 0xE0 SHL OR SWAP1 MSTORE SWAP2 MLOAD PUSH1 0x1 PUSH1 0x1 PUSH1 0xA0 SHL SUB SWAP1 SWAP3 AND SWAP3 PUSH3 0x186A0 SWAP3 SWAP1 SWAP2 PUSH2 0x2D07 SWAP2 PUSH2 0x36AA JUMP JUMPDEST PUSH0 PUSH1 0x40 MLOAD DUP1 DUP4 SUB DUP2 DUP6 DUP9 DUP9 CALL SWAP4 POP POP POP POP RETURNDATASIZE DUP1 PUSH0 DUP2 EQ PUSH2 0x2D42 JUMPI PUSH1 0x40 MLOAD SWAP2 POP PUSH1 0x1F NOT PUSH1 0x3F RETURNDATASIZE ADD AND DUP3 ADD PUSH1 0x40 MSTORE RETURNDATASIZE DUP3 MSTORE RETURNDATASIZE PUSH0 PUSH1 0x20 DUP5 ADD RETURNDATACOPY PUSH2 0x2D47 JUMP JUMPDEST PUSH1 0x60 SWAP2 POP JUMPDEST POP POP SWAP1 POP DUP1 PUSH2 0x2DA8 JUMPI PUSH1 0x40 MLOAD PUSH3 0x461BCD PUSH1 0xE5 SHL DUP2 MSTORE PUSH1 0x20 PUSH1 0x4 DUP3 ADD MSTORE PUSH1 0x27 PUSH1 0x24 DUP3 ADD MSTORE PUSH32 0x4C6120656A65637563696F6E206465206C612070726F70756573746120686120 PUSH1 0x44 DUP3 ADD MSTORE PUSH7 0x66616C6C61646F PUSH1 0xC8 SHL PUSH1 0x64 DUP3 ADD MSTORE PUSH1 0x84 ADD PUSH2 0x48A JUMP JUMPDEST PUSH1 0x40 MLOAD DUP9 SWAP1 PUSH32 0x28EC9E38BA73636CEB2F6C1574136F83BD46284A3C74734B711BF45E12F8D929 SWAP1 PUSH0 SWAP1 LOG2 POP POP POP POP POP POP POP POP JUMP JUMPDEST PUSH0 PUSH1 0x1 SLOAD PUSH0 SUB PUSH2 0x2DEE JUMPI POP PUSH0 NOT SWAP2 SWAP1 POP JUMP JUMPDEST PUSH1 0x7 SLOAD PUSH1 0x1 SLOAD PUSH0 DUP5 DUP2 MSTORE PUSH1 0x9 PUSH1 0x20 MSTORE PUSH1 0x40 DUP2 KECCAK256 PUSH1 0x3 ADD SLOAD SWAP1 SWAP3 PUSH8 0xDE0B6B3A7640000 SWAP3 SWAP1 SWAP2 PUSH2 0x2E1D SWAP1 DUP5 PUSH2 0x3489 JUMP JUMPDEST PUSH2 0x2E27 SWAP2 SWAP1 PUSH2 0x36C0 JUMP JUMPDEST PUSH2 0x2E39 SWAP1 PUSH8 0x2C68AF0BB140000 PUSH2 0x34F8 JUMP JUMPDEST PUSH2 0x2E43 SWAP2 SWAP1 PUSH2 0x3489 JUMP JUMPDEST PUSH2 0x2E4D SWAP2 SWAP1 PUSH2 0x36C0 JUMP JUMPDEST SWAP1 POP PUSH1 0xB SLOAD DUP2 PUSH2 0x2E5D SWAP2 SWAP1 PUSH2 0x34F8 JUMP JUMPDEST SWAP4 SWAP3 POP POP POP JUMP JUMPDEST PUSH1 0x40 MLOAD DUP1 PUSH2 0x1A0 ADD PUSH1 0x40 MSTORE DUP1 PUSH0 DUP2 MSTORE PUSH1 0x20 ADD PUSH1 0x60 DUP2 MSTORE PUSH1 0x20 ADD PUSH1 0x60 DUP2 MSTORE PUSH1 0x20 ADD PUSH0 DUP2 MSTORE PUSH1 0x20 ADD PUSH0 DUP2 MSTORE PUSH1 0x20 ADD PUSH0 DUP2 MSTORE PUSH1 0x20 ADD PUSH0 PUSH1 0x1 PUSH1 0x1 PUSH1 0xA0 SHL SUB AND DUP2 MSTORE PUSH1 0x20 ADD PUSH0 PUSH1 0x1 PUSH1 0x1 PUSH1 0xA0 SHL SUB AND DUP2 MSTORE PUSH1 0x20 ADD PUSH0 ISZERO ISZERO DUP2 MSTORE PUSH1 0x20 ADD PUSH0 ISZERO ISZERO DUP2 MSTORE PUSH1 0x20 ADD PUSH0 ISZERO ISZERO DUP2 MSTORE PUSH1 0x20 ADD PUSH0 DUP2 MSTORE PUSH1 0x20 ADD PUSH1 0x60 DUP2 MSTORE POP SWAP1 JUMP JUMPDEST POP DUP1 SLOAD PUSH0 DUP3 SSTORE SWAP1 PUSH0 MSTORE PUSH1 0x20 PUSH0 KECCAK256 SWAP1 DUP2 ADD SWAP1 PUSH2 0x2EF5 SWAP2 SWAP1 PUSH2 0x2F41 JUMP JUMPDEST POP JUMP JUMPDEST DUP3 DUP1 SLOAD DUP3 DUP3 SSTORE SWAP1 PUSH0 MSTORE PUSH1 0x20 PUSH0 KECCAK256 SWAP1 DUP2 ADD SWAP3 DUP3 ISZERO PUSH2 0x2F31 JUMPI SWAP2 PUSH1 0x20 MUL DUP3 ADD JUMPDEST DUP3 DUP2 GT ISZERO PUSH2 0x2F31 JUMPI DUP3 MLOAD DUP3 SSTORE SWAP2 PUSH1 0x20 ADD SWAP2 SWAP1 PUSH1 0x1 ADD SWAP1 PUSH2 0x2F16 JUMP JUMPDEST POP PUSH2 0x2F3D SWAP3 SWAP2 POP PUSH2 0x2F41 JUMP JUMPDEST POP SWAP1 JUMP JUMPDEST JUMPDEST DUP1 DUP3 GT ISZERO PUSH2 0x2F3D JUMPI PUSH0 DUP2 SSTORE PUSH1 0x1 ADD PUSH2 0x2F42 JUMP JUMPDEST PUSH0 PUSH1 0x20 DUP3 DUP5 SUB SLT ISZERO PUSH2 0x2F65 JUMPI PUSH0 DUP1 REVERT JUMPDEST POP CALLDATALOAD SWAP2 SWAP1 POP JUMP JUMPDEST PUSH0 DUP2 MLOAD DUP1 DUP5 MSTORE DUP1 PUSH1 0x20 DUP5 ADD PUSH1 0x20 DUP7 ADD MCOPY PUSH0 PUSH1 0x20 DUP3 DUP7 ADD ADD MSTORE PUSH1 0x20 PUSH1 0x1F NOT PUSH1 0x1F DUP4 ADD AND DUP6 ADD ADD SWAP2 POP POP SWAP3 SWAP2 POP POP JUMP JUMPDEST DUP13 DUP2 MSTORE PUSH2 0x180 PUSH1 0x20 DUP3 ADD MSTORE PUSH0 PUSH2 0x2FB4 PUSH2 0x180 DUP4 ADD DUP15 PUSH2 0x2F6C JUMP JUMPDEST DUP3 DUP2 SUB PUSH1 0x40 DUP5 ADD MSTORE PUSH2 0x2FC6 DUP2 DUP15 PUSH2 0x2F6C JUMP JUMPDEST PUSH1 0x60 DUP5 ADD DUP14 SWAP1 MSTORE PUSH1 0x80 DUP5 ADD DUP13 SWAP1 MSTORE PUSH1 0xA0 DUP5 ADD DUP12 SWAP1 MSTORE PUSH1 0x1 PUSH1 0x1 PUSH1 0xA0 SHL SUB DUP11 DUP2 AND PUSH1 0xC0 DUP7 ADD MSTORE DUP10 AND PUSH1 0xE0 DUP6 ADD MSTORE DUP8 ISZERO ISZERO PUSH2 0x100 DUP6 ADD MSTORE DUP7 ISZERO ISZERO PUSH2 0x120 DUP6 ADD MSTORE SWAP2 POP PUSH2 0x300D SWAP1 POP JUMP JUMPDEST SWAP3 ISZERO ISZERO PUSH2 0x140 DUP3 ADD MSTORE PUSH2 0x160 ADD MSTORE SWAP11 SWAP10 POP POP POP POP POP POP POP POP POP POP JUMP JUMPDEST PUSH1 0x1 PUSH1 0x1 PUSH1 0xA0 SHL SUB SWAP2 SWAP1 SWAP2 AND DUP2 MSTORE PUSH1 0x20 ADD SWAP1 JUMP JUMPDEST PUSH0 DUP1 PUSH1 0x40 DUP4 DUP6 SUB SLT ISZERO PUSH2 0x304E JUMPI PUSH0 DUP1 REVERT JUMPDEST POP POP DUP1 CALLDATALOAD SWAP3 PUSH1 0x20 SWAP1 SWAP2 ADD CALLDATALOAD SWAP2 POP JUMP JUMPDEST PUSH0 DUP1 DUP4 PUSH1 0x1F DUP5 ADD SLT PUSH2 0x306D JUMPI PUSH0 DUP1 REVERT JUMPDEST POP DUP2 CALLDATALOAD PUSH8 0xFFFFFFFFFFFFFFFF DUP2 GT ISZERO PUSH2 0x3084 JUMPI PUSH0 DUP1 REVERT JUMPDEST PUSH1 0x20 DUP4 ADD SWAP2 POP DUP4 PUSH1 0x20 DUP3 DUP6 ADD ADD GT ISZERO PUSH2 0x309B JUMPI PUSH0 DUP1 REVERT JUMPDEST SWAP3 POP SWAP3 SWAP1 POP JUMP JUMPDEST PUSH0 DUP1 PUSH0 DUP1 PUSH0 DUP1 PUSH1 0x80 DUP8 DUP10 SUB SLT ISZERO PUSH2 0x30B7 JUMPI PUSH0 DUP1 REVERT JUMPDEST DUP7 CALLDATALOAD PUSH8 0xFFFFFFFFFFFFFFFF DUP2 GT ISZERO PUSH2 0x30CD JUMPI PUSH0 DUP1 REVERT JUMPDEST PUSH2 0x30D9 DUP10 DUP3 DUP11 ADD PUSH2 0x305D JUMP JUMPDEST SWAP1 SWAP8 POP SWAP6 POP POP PUSH1 0x20 DUP8 ADD CALLDATALOAD PUSH8 0xFFFFFFFFFFFFFFFF DUP2 GT ISZERO PUSH2 0x30F8 JUMPI PUSH0 DUP1 REVERT JUMPDEST PUSH2 0x3104 DUP10 DUP3 DUP11 ADD PUSH2 0x305D JUMP JUMPDEST SWAP1 SWAP6 POP SWAP4 POP POP PUSH1 0x40 DUP8 ADD CALLDATALOAD SWAP2 POP PUSH1 0x60 DUP8 ADD CALLDATALOAD PUSH1 0x1 PUSH1 0x1 PUSH1 0xA0 SHL SUB DUP2 AND DUP2 EQ PUSH2 0x312A JUMPI PUSH0 DUP1 REVERT JUMPDEST DUP1 SWAP2 POP POP SWAP3 SWAP6 POP SWAP3 SWAP6 POP SWAP3 SWAP6 JUMP JUMPDEST PUSH0 DUP2 MLOAD DUP1 DUP5 MSTORE PUSH1 0x20 DUP5 ADD SWAP4 POP PUSH1 0x20 DUP4 ADD PUSH0 JUMPDEST DUP3 DUP2 LT ISZERO PUSH2 0x3171 JUMPI DUP2 MLOAD PUSH1 0x1 PUSH1 0x1 PUSH1 0xA0 SHL SUB AND DUP7 MSTORE PUSH1 0x20 SWAP6 DUP7 ADD SWAP6 SWAP1 SWAP2 ADD SWAP1 PUSH1 0x1 ADD PUSH2 0x314A JUMP JUMPDEST POP SWAP4 SWAP5 SWAP4 POP POP POP POP JUMP JUMPDEST PUSH1 0x20 DUP2 MSTORE DUP2 MLOAD PUSH1 0x20 DUP3 ADD MSTORE PUSH0 PUSH1 0x20 DUP4 ADD MLOAD PUSH2 0x1A0 PUSH1 0x40 DUP5 ADD MSTORE PUSH2 0x31A2 PUSH2 0x1C0 DUP5 ADD DUP3 PUSH2 0x2F6C JUMP JUMPDEST SWAP1 POP PUSH1 0x40 DUP5 ADD MLOAD PUSH1 0x1F NOT DUP5 DUP4 SUB ADD PUSH1 0x60 DUP6 ADD MSTORE PUSH2 0x31BF DUP3 DUP3 PUSH2 0x2F6C JUMP JUMPDEST SWAP2 POP POP PUSH1 0x60 DUP5 ADD MLOAD PUSH1 0x80 DUP5 ADD MSTORE PUSH1 0x80 DUP5 ADD MLOAD PUSH1 0xA0 DUP5 ADD MSTORE PUSH1 0xA0 DUP5 ADD MLOAD PUSH1 0xC0 DUP5 ADD MSTORE PUSH1 0xC0 DUP5 ADD MLOAD PUSH2 0x31FA PUSH1 0xE0 DUP6 ADD DUP3 PUSH1 0x1 PUSH1 0x1 PUSH1 0xA0 SHL SUB AND SWAP1 MSTORE JUMP JUMPDEST POP PUSH1 0xE0 DUP5 ADD MLOAD PUSH1 0x1 PUSH1 0x1 PUSH1 0xA0 SHL SUB DUP2 AND PUSH2 0x100 DUP6 ADD MSTORE POP PUSH2 0x100 DUP5 ADD MLOAD DUP1 ISZERO ISZERO PUSH2 0x120 DUP6 ADD MSTORE POP PUSH2 0x120 DUP5 ADD MLOAD DUP1 ISZERO ISZERO PUSH2 0x140 DUP6 ADD MSTORE POP PUSH2 0x140 DUP5 ADD MLOAD DUP1 ISZERO ISZERO PUSH2 0x160 DUP6 ADD MSTORE POP PUSH2 0x160 DUP5 ADD MLOAD PUSH2 0x180 DUP5 ADD MSTORE PUSH2 0x180 DUP5 ADD MLOAD PUSH1 0x1F NOT DUP5 DUP4 SUB ADD PUSH2 0x1A0 DUP6 ADD MSTORE PUSH2 0x326A DUP3 DUP3 PUSH2 0x3138 JUMP JUMPDEST SWAP6 SWAP5 POP POP POP POP POP JUMP JUMPDEST PUSH1 0x1 DUP2 DUP2 SHR SWAP1 DUP3 AND DUP1 PUSH2 0x3287 JUMPI PUSH1 0x7F DUP3 AND SWAP2 POP JUMPDEST PUSH1 0x20 DUP3 LT DUP2 SUB PUSH2 0x1835 JUMPI PUSH4 0x4E487B71 PUSH1 0xE0 SHL PUSH0 MSTORE PUSH1 0x22 PUSH1 0x4 MSTORE PUSH1 0x24 PUSH0 REVERT JUMPDEST PUSH1 0x20 DUP1 DUP3 MSTORE PUSH1 0x37 SWAP1 DUP3 ADD MSTORE PUSH32 0x4465626573206861626572746520696E73637269746F20636F6D6F2070617274 PUSH1 0x40 DUP3 ADD MSTORE PUSH23 0x34B1B4B830B73A329030B73A32B934B7B936B2B73A3297 PUSH1 0x49 SHL PUSH1 0x60 DUP3 ADD MSTORE PUSH1 0x80 ADD SWAP1 JUMP JUMPDEST PUSH4 0x4E487B71 PUSH1 0xE0 SHL PUSH0 MSTORE PUSH1 0x11 PUSH1 0x4 MSTORE PUSH1 0x24 PUSH0 REVERT JUMPDEST PUSH0 DUP2 PUSH2 0x331E JUMPI PUSH2 0x331E PUSH2 0x32FC JUMP JUMPDEST POP PUSH0 NOT ADD SWAP1 JUMP JUMPDEST PUSH1 0x20 DUP1 DUP3 MSTORE PUSH1 0x23 SWAP1 DUP3 ADD MSTORE PUSH32 0x4C6120766F746163696F6E207469656E65207175652065737461722061626965 PUSH1 0x40 DUP3 ADD MSTORE PUSH3 0x727461 PUSH1 0xE8 SHL PUSH1 0x60 DUP3 ADD MSTORE PUSH1 0x80 ADD SWAP1 JUMP JUMPDEST PUSH1 0x20 DUP1 DUP3 MSTORE PUSH1 0x28 SWAP1 DUP3 ADD MSTORE PUSH32 0x4C612070726F7075657374612071756520657374617320706173616E646F206E PUSH1 0x40 DUP3 ADD MSTORE PUSH8 0x6F20657869737465 PUSH1 0xC0 SHL PUSH1 0x60 DUP3 ADD MSTORE PUSH1 0x80 ADD SWAP1 JUMP JUMPDEST PUSH1 0x20 DUP1 DUP3 MSTORE PUSH1 0x39 SWAP1 DUP3 ADD MSTORE PUSH32 0x4E6F20736520707565646520656A656375746172207369206C612070726F7075 PUSH1 0x40 DUP3 ADD MSTORE PUSH25 0x65737461207961206861207369646F2063616E63656C616461 PUSH1 0x38 SHL PUSH1 0x60 DUP3 ADD MSTORE PUSH1 0x80 ADD SWAP1 JUMP JUMPDEST PUSH1 0x20 DUP1 DUP3 MSTORE PUSH1 0x41 SWAP1 DUP3 ADD MSTORE PUSH32 0x4C612070726F707565737461207961206861207369646F206170726F62616461 PUSH1 0x40 DUP3 ADD MSTORE PUSH32 0x2079206E6F2070756564657320656A656375746172206C612066756E63696F6E PUSH1 0x60 DUP3 ADD MSTORE PUSH1 0x17 PUSH1 0xF9 SHL PUSH1 0x80 DUP3 ADD MSTORE PUSH1 0xA0 ADD SWAP1 JUMP JUMPDEST DUP2 DUP2 SUB DUP2 DUP2 GT ISZERO PUSH2 0x3483 JUMPI PUSH2 0x3483 PUSH2 0x32FC JUMP JUMPDEST SWAP3 SWAP2 POP POP JUMP JUMPDEST DUP1 DUP3 MUL DUP2 ISZERO DUP3 DUP3 DIV DUP5 EQ OR PUSH2 0x3483 JUMPI PUSH2 0x3483 PUSH2 0x32FC JUMP JUMPDEST PUSH0 PUSH1 0x20 DUP3 DUP5 SUB SLT ISZERO PUSH2 0x34B0 JUMPI PUSH0 DUP1 REVERT JUMPDEST POP MLOAD SWAP2 SWAP1 POP JUMP JUMPDEST PUSH4 0x4E487B71 PUSH1 0xE0 SHL PUSH0 MSTORE PUSH1 0x32 PUSH1 0x4 MSTORE PUSH1 0x24 PUSH0 REVERT JUMPDEST PUSH4 0x4E487B71 PUSH1 0xE0 SHL PUSH0 MSTORE PUSH1 0x31 PUSH1 0x4 MSTORE PUSH1 0x24 PUSH0 REVERT JUMPDEST PUSH1 0x1 PUSH1 0x1 PUSH1 0xA0 SHL SUB SWAP3 SWAP1 SWAP3 AND DUP3 MSTORE PUSH1 0x20 DUP3 ADD MSTORE PUSH1 0x40 ADD SWAP1 JUMP JUMPDEST DUP1 DUP3 ADD DUP1 DUP3 GT ISZERO PUSH2 0x3483 JUMPI PUSH2 0x3483 PUSH2 0x32FC JUMP JUMPDEST PUSH0 PUSH1 0x20 DUP3 DUP5 SUB SLT ISZERO PUSH2 0x351B JUMPI PUSH0 DUP1 REVERT JUMPDEST DUP2 MLOAD DUP1 ISZERO ISZERO DUP2 EQ PUSH2 0x2E5D JUMPI PUSH0 DUP1 REVERT JUMPDEST PUSH0 PUSH1 0x1 DUP3 ADD PUSH2 0x353B JUMPI PUSH2 0x353B PUSH2 0x32FC JUMP JUMPDEST POP PUSH1 0x1 ADD SWAP1 JUMP JUMPDEST PUSH4 0x4E487B71 PUSH1 0xE0 SHL PUSH0 MSTORE PUSH1 0x41 PUSH1 0x4 MSTORE PUSH1 0x24 PUSH0 REVERT JUMPDEST PUSH1 0x1F DUP3 GT ISZERO PUSH2 0xCEE JUMPI DUP1 PUSH0 MSTORE PUSH1 0x20 PUSH0 KECCAK256 PUSH1 0x1F DUP5 ADD PUSH1 0x5 SHR DUP2 ADD PUSH1 0x20 DUP6 LT ISZERO PUSH2 0x357B JUMPI POP DUP1 JUMPDEST PUSH1 0x1F DUP5 ADD PUSH1 0x5 SHR DUP3 ADD SWAP2 POP JUMPDEST DUP2 DUP2 LT ISZERO PUSH2 0x20A3 JUMPI PUSH0 DUP2 SSTORE PUSH1 0x1 ADD PUSH2 0x3587 JUMP JUMPDEST PUSH8 0xFFFFFFFFFFFFFFFF DUP4 GT ISZERO PUSH2 0x35B2 JUMPI PUSH2 0x35B2 PUSH2 0x3542 JUMP JUMPDEST PUSH2 0x35C6 DUP4 PUSH2 0x35C0 DUP4 SLOAD PUSH2 0x3273 JUMP JUMPDEST DUP4 PUSH2 0x3556 JUMP JUMPDEST PUSH0 PUSH1 0x1F DUP5 GT PUSH1 0x1 DUP2 EQ PUSH2 0x35F7 JUMPI PUSH0 DUP6 ISZERO PUSH2 0x35E0 JUMPI POP DUP4 DUP3 ADD CALLDATALOAD JUMPDEST PUSH0 NOT PUSH1 0x3 DUP8 SWAP1 SHL SHR NOT AND PUSH1 0x1 DUP7 SWAP1 SHL OR DUP4 SSTORE PUSH2 0x20A3 JUMP JUMPDEST PUSH0 DUP4 DUP2 MSTORE PUSH1 0x20 DUP2 KECCAK256 PUSH1 0x1F NOT DUP8 AND SWAP2 JUMPDEST DUP3 DUP2 LT ISZERO PUSH2 0x3626 JUMPI DUP7 DUP6 ADD CALLDATALOAD DUP3 SSTORE PUSH1 0x20 SWAP5 DUP6 ADD SWAP5 PUSH1 0x1 SWAP1 SWAP3 ADD SWAP2 ADD PUSH2 0x3606 JUMP JUMPDEST POP DUP7 DUP3 LT ISZERO PUSH2 0x3642 JUMPI PUSH0 NOT PUSH1 0xF8 DUP9 PUSH1 0x3 SHL AND SHR NOT DUP5 DUP8 ADD CALLDATALOAD AND DUP2 SSTORE JUMPDEST POP POP PUSH1 0x1 DUP6 PUSH1 0x1 SHL ADD DUP4 SSTORE POP POP POP POP POP JUMP JUMPDEST PUSH1 0x20 DUP1 DUP3 MSTORE PUSH1 0x36 SWAP1 DUP3 ADD MSTORE PUSH32 0x44656265732073657220656C206F776E65722064656C20636F6E747261746F20 PUSH1 0x40 DUP3 ADD MSTORE PUSH22 0x3830B930903837B232B9103430B1B2B91032B9BA3797 PUSH1 0x51 SHL PUSH1 0x60 DUP3 ADD MSTORE PUSH1 0x80 ADD SWAP1 JUMP JUMPDEST PUSH0 DUP3 MLOAD DUP1 PUSH1 0x20 DUP6 ADD DUP5 MCOPY PUSH0 SWAP3 ADD SWAP2 DUP3 MSTORE POP SWAP2 SWAP1 POP JUMP JUMPDEST PUSH0 DUP3 PUSH2 0x36DA JUMPI PUSH4 0x4E487B71 PUSH1 0xE0 SHL PUSH0 MSTORE PUSH1 0x12 PUSH1 0x4 MSTORE PUSH1 0x24 PUSH0 REVERT JUMPDEST POP DIV SWAP1 JUMP INVALID LOG2 PUSH5 0x6970667358 0x22 SLT KECCAK256 SWAP16 SWAP11 MSTORE BYTE PUSH19 0x7FDEB61033A1EC3CF2FC3CB6711A6838AB9A68 0xCC 0xBE PUSH29 0xD5F5ED758064736F6C634300081A003360C060405234801561000F575F DUP1 REVERT JUMPDEST POP PUSH1 0x40 MLOAD PUSH2 0xE70 CODESIZE SUB DUP1 PUSH2 0xE70 DUP4 CODECOPY DUP2 ADD PUSH1 0x40 DUP2 SWAP1 MSTORE PUSH2 0x2E SWAP2 PUSH2 0x1C6 JUMP JUMPDEST DUP4 DUP4 PUSH1 0x3 PUSH2 0x3C DUP4 DUP3 PUSH2 0x2BE JUMP JUMPDEST POP PUSH1 0x4 PUSH2 0x49 DUP3 DUP3 PUSH2 0x2BE JUMP JUMPDEST POP POP POP PUSH0 DUP3 GT PUSH2 0xAE JUMPI PUSH1 0x40 MLOAD PUSH3 0x461BCD PUSH1 0xE5 SHL DUP2 MSTORE PUSH1 0x20 PUSH1 0x4 DUP3 ADD MSTORE PUSH1 0x25 PUSH1 0x24 DUP3 ADD MSTORE PUSH32 0x456C2070726563696F206E6F20707565646520736572206D656E6F7220717565 PUSH1 0x44 DUP3 ADD MSTORE PUSH5 0x206365726F PUSH1 0xD8 SHL PUSH1 0x64 DUP3 ADD MSTORE PUSH1 0x84 ADD JUMPDEST PUSH1 0x40 MLOAD DUP1 SWAP2 SUB SWAP1 REVERT JUMPDEST PUSH0 DUP2 GT PUSH2 0x115 JUMPI PUSH1 0x40 MLOAD PUSH3 0x461BCD PUSH1 0xE5 SHL DUP2 MSTORE PUSH1 0x20 PUSH1 0x4 DUP3 ADD MSTORE PUSH1 0x2F PUSH1 0x24 DUP3 ADD MSTORE PUSH32 0x456C206D6178696D6F20646520746F6B656E73206E6F20707565646520736572 PUSH1 0x44 DUP3 ADD MSTORE PUSH15 0x206D656E6F7220717565206365726F PUSH1 0x88 SHL PUSH1 0x64 DUP3 ADD MSTORE PUSH1 0x84 ADD PUSH2 0xA5 JUMP JUMPDEST PUSH1 0x80 SWAP2 SWAP1 SWAP2 MSTORE PUSH1 0xA0 MSTORE POP POP PUSH0 PUSH1 0x5 SSTORE PUSH2 0x378 JUMP JUMPDEST PUSH4 0x4E487B71 PUSH1 0xE0 SHL PUSH0 MSTORE PUSH1 0x41 PUSH1 0x4 MSTORE PUSH1 0x24 PUSH0 REVERT JUMPDEST PUSH0 DUP3 PUSH1 0x1F DUP4 ADD SLT PUSH2 0x14C JUMPI PUSH0 DUP1 REVERT JUMPDEST DUP2 MLOAD PUSH1 0x1 PUSH1 0x1 PUSH1 0x40 SHL SUB DUP2 GT ISZERO PUSH2 0x165 JUMPI PUSH2 0x165 PUSH2 0x129 JUMP JUMPDEST PUSH1 0x40 MLOAD PUSH1 0x1F DUP3 ADD PUSH1 0x1F NOT SWAP1 DUP2 AND PUSH1 0x3F ADD AND DUP2 ADD PUSH1 0x1 PUSH1 0x1 PUSH1 0x40 SHL SUB DUP2 GT DUP3 DUP3 LT OR ISZERO PUSH2 0x193 JUMPI PUSH2 0x193 PUSH2 0x129 JUMP JUMPDEST PUSH1 0x40 MSTORE DUP2 DUP2 MSTORE DUP4 DUP3 ADD PUSH1 0x20 ADD DUP6 LT ISZERO PUSH2 0x1AA JUMPI PUSH0 DUP1 REVERT JUMPDEST DUP2 PUSH1 0x20 DUP6 ADD PUSH1 0x20 DUP4 ADD MCOPY PUSH0 SWAP2 DUP2 ADD PUSH1 0x20 ADD SWAP2 SWAP1 SWAP2 MSTORE SWAP4 SWAP3 POP POP POP JUMP JUMPDEST PUSH0 DUP1 PUSH0 DUP1 PUSH1 0x80 DUP6 DUP8 SUB SLT ISZERO PUSH2 0x1D9 JUMPI PUSH0 DUP1 REVERT JUMPDEST DUP5 MLOAD PUSH1 0x1 PUSH1 0x1 PUSH1 0x40 SHL SUB DUP2 GT ISZERO PUSH2 0x1EE JUMPI PUSH0 DUP1 REVERT JUMPDEST PUSH2 0x1FA DUP8 DUP3 DUP9 ADD PUSH2 0x13D JUMP JUMPDEST PUSH1 0x20 DUP8 ADD MLOAD SWAP1 SWAP6 POP SWAP1 POP PUSH1 0x1 PUSH1 0x1 PUSH1 0x40 SHL SUB DUP2 GT ISZERO PUSH2 0x217 JUMPI PUSH0 DUP1 REVERT JUMPDEST PUSH2 0x223 DUP8 DUP3 DUP9 ADD PUSH2 0x13D JUMP JUMPDEST PUSH1 0x40 DUP8 ADD MLOAD PUSH1 0x60 SWAP1 SWAP8 ADD MLOAD SWAP6 SWAP9 SWAP1 SWAP8 POP SWAP4 POP POP POP POP JUMP JUMPDEST PUSH1 0x1 DUP2 DUP2 SHR SWAP1 DUP3 AND DUP1 PUSH2 0x24E JUMPI PUSH1 0x7F DUP3 AND SWAP2 POP JUMPDEST PUSH1 0x20 DUP3 LT DUP2 SUB PUSH2 0x26C JUMPI PUSH4 0x4E487B71 PUSH1 0xE0 SHL PUSH0 MSTORE PUSH1 0x22 PUSH1 0x4 MSTORE PUSH1 0x24 PUSH0 REVERT JUMPDEST POP SWAP2 SWAP1 POP JUMP JUMPDEST PUSH1 0x1F DUP3 GT ISZERO PUSH2 0x2B9 JUMPI DUP1 PUSH0 MSTORE PUSH1 0x20 PUSH0 KECCAK256 PUSH1 0x1F DUP5 ADD PUSH1 0x5 SHR DUP2 ADD PUSH1 0x20 DUP6 LT ISZERO PUSH2 0x297 JUMPI POP DUP1 JUMPDEST PUSH1 0x1F DUP5 ADD PUSH1 0x5 SHR DUP3 ADD SWAP2 POP JUMPDEST DUP2 DUP2 LT ISZERO PUSH2 0x2B6 JUMPI PUSH0 DUP2 SSTORE PUSH1 0x1 ADD PUSH2 0x2A3 JUMP JUMPDEST POP POP JUMPDEST POP POP POP JUMP JUMPDEST DUP2 MLOAD PUSH1 0x1 PUSH1 0x1 PUSH1 0x40 SHL SUB DUP2 GT ISZERO PUSH2 0x2D7 JUMPI PUSH2 0x2D7 PUSH2 0x129 JUMP JUMPDEST PUSH2 0x2EB DUP2 PUSH2 0x2E5 DUP5 SLOAD PUSH2 0x23A JUMP JUMPDEST DUP5 PUSH2 0x272 JUMP JUMPDEST PUSH1 0x20 PUSH1 0x1F DUP3 GT PUSH1 0x1 DUP2 EQ PUSH2 0x31D JUMPI PUSH0 DUP4 ISZERO PUSH2 0x306 JUMPI POP DUP5 DUP3 ADD MLOAD JUMPDEST PUSH0 NOT PUSH1 0x3 DUP6 SWAP1 SHL SHR NOT AND PUSH1 0x1 DUP5 SWAP1 SHL OR DUP5 SSTORE PUSH2 0x2B6 JUMP JUMPDEST PUSH0 DUP5 DUP2 MSTORE PUSH1 0x20 DUP2 KECCAK256 PUSH1 0x1F NOT DUP6 AND SWAP2 JUMPDEST DUP3 DUP2 LT ISZERO PUSH2 0x34C JUMPI DUP8 DUP6 ADD MLOAD DUP3 SSTORE PUSH1 0x20 SWAP5 DUP6 ADD SWAP5 PUSH1 0x1 SWAP1 SWAP3 ADD SWAP2 ADD PUSH2 0x32C JUMP JUMPDEST POP DUP5 DUP3 LT ISZERO PUSH2 0x369 JUMPI DUP7 DUP5 ADD MLOAD PUSH0 NOT PUSH1 0x3 DUP8 SWAP1 SHL PUSH1 0xF8 AND SHR NOT AND DUP2 SSTORE JUMPDEST POP POP POP POP PUSH1 0x1 SWAP1 DUP2 SHL ADD SWAP1 SSTORE POP JUMP JUMPDEST PUSH1 0x80 MLOAD PUSH1 0xA0 MLOAD PUSH2 0xAC2 PUSH2 0x3AE PUSH0 CODECOPY PUSH0 DUP2 DUP2 PUSH2 0x19E ADD MSTORE DUP2 DUP2 PUSH2 0x280 ADD MSTORE PUSH2 0x3C9 ADD MSTORE PUSH0 DUP2 DUP2 PUSH2 0x178 ADD MSTORE PUSH2 0x1EF ADD MSTORE PUSH2 0xAC2 PUSH0 RETURN INVALID PUSH1 0x80 PUSH1 0x40 MSTORE CALLVALUE DUP1 ISZERO PUSH2 0xF JUMPI PUSH0 DUP1 REVERT JUMPDEST POP PUSH1 0x4 CALLDATASIZE LT PUSH2 0xE8 JUMPI PUSH0 CALLDATALOAD PUSH1 0xE0 SHR DUP1 PUSH4 0x70A08231 GT PUSH2 0x8F JUMPI DUP1 PUSH4 0x70A08231 EQ PUSH2 0x1C2 JUMPI DUP1 PUSH4 0x7FF9B596 EQ PUSH2 0x1EA JUMPI DUP1 PUSH4 0x8D75FE05 EQ PUSH2 0x211 JUMPI DUP1 PUSH4 0x95D89B41 EQ PUSH2 0x21A JUMPI DUP1 PUSH4 0x9DC29FAC EQ PUSH2 0x222 JUMPI DUP1 PUSH4 0xA9059CBB EQ PUSH2 0x235 JUMPI DUP1 PUSH4 0xB2BDFA7B EQ PUSH2 0x248 JUMPI DUP1 PUSH4 0xDD62ED3E EQ PUSH2 0x268 JUMPI DUP1 PUSH4 0xE8315742 EQ PUSH2 0x27B JUMPI PUSH0 DUP1 REVERT JUMPDEST DUP1 PUSH4 0x6FDDE03 EQ PUSH2 0xEC JUMPI DUP1 PUSH4 0x95EA7B3 EQ PUSH2 0x10A JUMPI DUP1 PUSH4 0x18160DDD EQ PUSH2 0x12D JUMPI DUP1 PUSH4 0x23B872DD EQ PUSH2 0x13F JUMPI DUP1 PUSH4 0x313CE567 EQ PUSH2 0x152 JUMPI DUP1 PUSH4 0x40C10F19 EQ PUSH2 0x161 JUMPI DUP1 PUSH4 0x4B94F50E EQ PUSH2 0x176 JUMPI DUP1 PUSH4 0x6ABCDED1 EQ PUSH2 0x19C JUMPI JUMPDEST PUSH0 DUP1 REVERT JUMPDEST PUSH2 0xF4 PUSH2 0x2A2 JUMP JUMPDEST PUSH1 0x40 MLOAD PUSH2 0x101 SWAP2 SWAP1 PUSH2 0x885 JUMP JUMPDEST PUSH1 0x40 MLOAD DUP1 SWAP2 SUB SWAP1 RETURN JUMPDEST PUSH2 0x11D PUSH2 0x118 CALLDATASIZE PUSH1 0x4 PUSH2 0x8D5 JUMP JUMPDEST PUSH2 0x332 JUMP JUMPDEST PUSH1 0x40 MLOAD SWAP1 ISZERO ISZERO DUP2 MSTORE PUSH1 0x20 ADD PUSH2 0x101 JUMP JUMPDEST PUSH1 0x2 SLOAD JUMPDEST PUSH1 0x40 MLOAD SWAP1 DUP2 MSTORE PUSH1 0x20 ADD PUSH2 0x101 JUMP JUMPDEST PUSH2 0x11D PUSH2 0x14D CALLDATASIZE PUSH1 0x4 PUSH2 0x8FD JUMP JUMPDEST PUSH2 0x34B JUMP JUMPDEST PUSH1 0x40 MLOAD PUSH1 0x12 DUP2 MSTORE PUSH1 0x20 ADD PUSH2 0x101 JUMP JUMPDEST PUSH2 0x174 PUSH2 0x16F CALLDATASIZE PUSH1 0x4 PUSH2 0x8D5 JUMP JUMPDEST PUSH2 0x36E JUMP JUMPDEST STOP JUMPDEST PUSH32 0x0 PUSH2 0x131 JUMP JUMPDEST PUSH32 0x0 PUSH2 0x131 JUMP JUMPDEST PUSH2 0x131 PUSH2 0x1D0 CALLDATASIZE PUSH1 0x4 PUSH2 0x937 JUMP JUMPDEST PUSH1 0x1 PUSH1 0x1 PUSH1 0xA0 SHL SUB AND PUSH0 SWAP1 DUP2 MSTORE PUSH1 0x20 DUP2 SWAP1 MSTORE PUSH1 0x40 SWAP1 KECCAK256 SLOAD SWAP1 JUMP JUMPDEST PUSH2 0x131 PUSH32 0x0 DUP2 JUMP JUMPDEST PUSH2 0x131 PUSH1 0x5 SLOAD DUP2 JUMP JUMPDEST PUSH2 0xF4 PUSH2 0x469 JUMP JUMPDEST PUSH2 0x174 PUSH2 0x230 CALLDATASIZE PUSH1 0x4 PUSH2 0x8D5 JUMP JUMPDEST PUSH2 0x478 JUMP JUMPDEST PUSH2 0x11D PUSH2 0x243 CALLDATASIZE PUSH1 0x4 PUSH2 0x8D5 JUMP JUMPDEST PUSH2 0x541 JUMP JUMPDEST PUSH1 0x6 SLOAD PUSH2 0x25B SWAP1 PUSH1 0x1 PUSH1 0x1 PUSH1 0xA0 SHL SUB AND DUP2 JUMP JUMPDEST PUSH1 0x40 MLOAD PUSH2 0x101 SWAP2 SWAP1 PUSH2 0x957 JUMP JUMPDEST PUSH2 0x131 PUSH2 0x276 CALLDATASIZE PUSH1 0x4 PUSH2 0x96B JUMP JUMPDEST PUSH2 0x54E JUMP JUMPDEST PUSH2 0x131 PUSH32 0x0 DUP2 JUMP JUMPDEST PUSH1 0x60 PUSH1 0x3 DUP1 SLOAD PUSH2 0x2B1 SWAP1 PUSH2 0x99C JUMP JUMPDEST DUP1 PUSH1 0x1F ADD PUSH1 0x20 DUP1 SWAP2 DIV MUL PUSH1 0x20 ADD PUSH1 0x40 MLOAD SWAP1 DUP2 ADD PUSH1 0x40 MSTORE DUP1 SWAP3 SWAP2 SWAP1 DUP2 DUP2 MSTORE PUSH1 0x20 ADD DUP3 DUP1 SLOAD PUSH2 0x2DD SWAP1 PUSH2 0x99C JUMP JUMPDEST DUP1 ISZERO PUSH2 0x328 JUMPI DUP1 PUSH1 0x1F LT PUSH2 0x2FF JUMPI PUSH2 0x100 DUP1 DUP4 SLOAD DIV MUL DUP4 MSTORE SWAP2 PUSH1 0x20 ADD SWAP2 PUSH2 0x328 JUMP JUMPDEST DUP3 ADD SWAP2 SWAP1 PUSH0 MSTORE PUSH1 0x20 PUSH0 KECCAK256 SWAP1 JUMPDEST DUP2 SLOAD DUP2 MSTORE SWAP1 PUSH1 0x1 ADD SWAP1 PUSH1 0x20 ADD DUP1 DUP4 GT PUSH2 0x30B JUMPI DUP3 SWAP1 SUB PUSH1 0x1F AND DUP3 ADD SWAP2 JUMPDEST POP POP POP POP POP SWAP1 POP SWAP1 JUMP JUMPDEST PUSH0 CALLER PUSH2 0x33F DUP2 DUP6 DUP6 PUSH2 0x578 JUMP JUMPDEST PUSH1 0x1 SWAP2 POP POP JUMPDEST SWAP3 SWAP2 POP POP JUMP JUMPDEST PUSH0 CALLER PUSH2 0x358 DUP6 DUP3 DUP6 PUSH2 0x58A JUMP JUMPDEST PUSH2 0x363 DUP6 DUP6 DUP6 PUSH2 0x5DB JUMP JUMPDEST POP PUSH1 0x1 SWAP5 SWAP4 POP POP POP POP JUMP JUMPDEST PUSH1 0x6 SLOAD PUSH1 0x1 PUSH1 0x1 PUSH1 0xA0 SHL SUB AND CALLER EQ PUSH2 0x3A1 JUMPI PUSH1 0x40 MLOAD PUSH3 0x461BCD PUSH1 0xE5 SHL DUP2 MSTORE PUSH1 0x4 ADD PUSH2 0x398 SWAP1 PUSH2 0x9D4 JUMP JUMPDEST PUSH1 0x40 MLOAD DUP1 SWAP2 SUB SWAP1 REVERT JUMPDEST PUSH1 0x1 PUSH1 0x1 PUSH1 0xA0 SHL SUB DUP3 AND PUSH2 0x3C7 JUMPI PUSH1 0x40 MLOAD PUSH3 0x461BCD PUSH1 0xE5 SHL DUP2 MSTORE PUSH1 0x4 ADD PUSH2 0x398 SWAP1 PUSH2 0xA0B JUMP JUMPDEST PUSH32 0x0 DUP2 PUSH1 0x5 SLOAD PUSH2 0x3F6 SWAP2 SWAP1 PUSH2 0xA4C JUMP JUMPDEST GT ISZERO PUSH2 0x444 JUMPI PUSH1 0x40 MLOAD PUSH3 0x461BCD PUSH1 0xE5 SHL DUP2 MSTORE PUSH1 0x20 PUSH1 0x4 DUP3 ADD MSTORE PUSH1 0x1F PUSH1 0x24 DUP3 ADD MSTORE PUSH32 0x4E6F2073652070756564656E20656D69746972206D617320746F6B656E732100 PUSH1 0x44 DUP3 ADD MSTORE PUSH1 0x64 ADD PUSH2 0x398 JUMP JUMPDEST DUP1 PUSH1 0x5 PUSH0 DUP3 DUP3 SLOAD PUSH2 0x455 SWAP2 SWAP1 PUSH2 0xA4C JUMP JUMPDEST SWAP1 SWAP2 SSTORE POP PUSH2 0x465 SWAP1 POP DUP3 DUP3 PUSH2 0x638 JUMP JUMPDEST POP POP JUMP JUMPDEST PUSH1 0x60 PUSH1 0x4 DUP1 SLOAD PUSH2 0x2B1 SWAP1 PUSH2 0x99C JUMP JUMPDEST PUSH1 0x6 SLOAD PUSH1 0x1 PUSH1 0x1 PUSH1 0xA0 SHL SUB AND CALLER EQ PUSH2 0x4A2 JUMPI PUSH1 0x40 MLOAD PUSH3 0x461BCD PUSH1 0xE5 SHL DUP2 MSTORE PUSH1 0x4 ADD PUSH2 0x398 SWAP1 PUSH2 0x9D4 JUMP JUMPDEST PUSH1 0x1 PUSH1 0x1 PUSH1 0xA0 SHL SUB DUP3 AND PUSH2 0x4C8 JUMPI PUSH1 0x40 MLOAD PUSH3 0x461BCD PUSH1 0xE5 SHL DUP2 MSTORE PUSH1 0x4 ADD PUSH2 0x398 SWAP1 PUSH2 0xA0B JUMP JUMPDEST PUSH0 DUP2 GT PUSH2 0x537 JUMPI PUSH1 0x40 MLOAD PUSH3 0x461BCD PUSH1 0xE5 SHL DUP2 MSTORE PUSH1 0x20 PUSH1 0x4 DUP3 ADD MSTORE PUSH1 0x37 PUSH1 0x24 DUP3 ADD MSTORE PUSH32 0x4E6F20736520707565646520656C696D696E61722030206E6920756E206E756D PUSH1 0x44 DUP3 ADD MSTORE PUSH23 0x32B937903732B3B0BA34BB37903232903A37B5B2B73997 PUSH1 0x49 SHL PUSH1 0x64 DUP3 ADD MSTORE PUSH1 0x84 ADD PUSH2 0x398 JUMP JUMPDEST PUSH2 0x465 DUP3 DUP3 PUSH2 0x66C JUMP JUMPDEST PUSH0 CALLER PUSH2 0x33F DUP2 DUP6 DUP6 PUSH2 0x5DB JUMP JUMPDEST PUSH1 0x1 PUSH1 0x1 PUSH1 0xA0 SHL SUB SWAP2 DUP3 AND PUSH0 SWAP1 DUP2 MSTORE PUSH1 0x1 PUSH1 0x20 SWAP1 DUP2 MSTORE PUSH1 0x40 DUP1 DUP4 KECCAK256 SWAP4 SWAP1 SWAP5 AND DUP3 MSTORE SWAP2 SWAP1 SWAP2 MSTORE KECCAK256 SLOAD SWAP1 JUMP JUMPDEST PUSH2 0x585 DUP4 DUP4 DUP4 PUSH1 0x1 PUSH2 0x6A0 JUMP JUMPDEST POP POP POP JUMP JUMPDEST PUSH0 PUSH2 0x595 DUP5 DUP5 PUSH2 0x54E JUMP JUMPDEST SWAP1 POP PUSH0 NOT DUP2 LT ISZERO PUSH2 0x5D5 JUMPI DUP2 DUP2 LT ISZERO PUSH2 0x5C7 JUMPI DUP3 DUP2 DUP4 PUSH1 0x40 MLOAD PUSH4 0x7DC7A0D9 PUSH1 0xE1 SHL DUP2 MSTORE PUSH1 0x4 ADD PUSH2 0x398 SWAP4 SWAP3 SWAP2 SWAP1 PUSH2 0xA6B JUMP JUMPDEST PUSH2 0x5D5 DUP5 DUP5 DUP5 DUP5 SUB PUSH0 PUSH2 0x6A0 JUMP JUMPDEST POP POP POP POP JUMP JUMPDEST PUSH1 0x1 PUSH1 0x1 PUSH1 0xA0 SHL SUB DUP4 AND PUSH2 0x604 JUMPI PUSH0 PUSH1 0x40 MLOAD PUSH4 0x4B637E8F PUSH1 0xE1 SHL DUP2 MSTORE PUSH1 0x4 ADD PUSH2 0x398 SWAP2 SWAP1 PUSH2 0x957 JUMP JUMPDEST PUSH1 0x1 PUSH1 0x1 PUSH1 0xA0 SHL SUB DUP3 AND PUSH2 0x62D JUMPI PUSH0 PUSH1 0x40 MLOAD PUSH4 0xEC442F05 PUSH1 0xE0 SHL DUP2 MSTORE PUSH1 0x4 ADD PUSH2 0x398 SWAP2 SWAP1 PUSH2 0x957 JUMP JUMPDEST PUSH2 0x585 DUP4 DUP4 DUP4 PUSH2 0x772 JUMP JUMPDEST PUSH1 0x1 PUSH1 0x1 PUSH1 0xA0 SHL SUB DUP3 AND PUSH2 0x661 JUMPI PUSH0 PUSH1 0x40 MLOAD PUSH4 0xEC442F05 PUSH1 0xE0 SHL DUP2 MSTORE PUSH1 0x4 ADD PUSH2 0x398 SWAP2 SWAP1 PUSH2 0x957 JUMP JUMPDEST PUSH2 0x465 PUSH0 DUP4 DUP4 PUSH2 0x772 JUMP JUMPDEST PUSH1 0x1 PUSH1 0x1 PUSH1 0xA0 SHL SUB DUP3 AND PUSH2 0x695 JUMPI PUSH0 PUSH1 0x40 MLOAD PUSH4 0x4B637E8F PUSH1 0xE1 SHL DUP2 MSTORE PUSH1 0x4 ADD PUSH2 0x398 SWAP2 SWAP1 PUSH2 0x957 JUMP JUMPDEST PUSH2 0x465 DUP3 PUSH0 DUP4 PUSH2 0x772 JUMP JUMPDEST PUSH1 0x1 PUSH1 0x1 PUSH1 0xA0 SHL SUB DUP5 AND PUSH2 0x6C9 JUMPI PUSH0 PUSH1 0x40 MLOAD PUSH4 0xE602DF05 PUSH1 0xE0 SHL DUP2 MSTORE PUSH1 0x4 ADD PUSH2 0x398 SWAP2 SWAP1 PUSH2 0x957 JUMP JUMPDEST PUSH1 0x1 PUSH1 0x1 PUSH1 0xA0 SHL SUB DUP4 AND PUSH2 0x6F2 JUMPI PUSH0 PUSH1 0x40 MLOAD PUSH4 0x4A1406B1 PUSH1 0xE1 SHL DUP2 MSTORE PUSH1 0x4 ADD PUSH2 0x398 SWAP2 SWAP1 PUSH2 0x957 JUMP JUMPDEST PUSH1 0x1 PUSH1 0x1 PUSH1 0xA0 SHL SUB DUP1 DUP6 AND PUSH0 SWAP1 DUP2 MSTORE PUSH1 0x1 PUSH1 0x20 SWAP1 DUP2 MSTORE PUSH1 0x40 DUP1 DUP4 KECCAK256 SWAP4 DUP8 AND DUP4 MSTORE SWAP3 SWAP1 MSTORE KECCAK256 DUP3 SWAP1 SSTORE DUP1 ISZERO PUSH2 0x5D5 JUMPI DUP3 PUSH1 0x1 PUSH1 0x1 PUSH1 0xA0 SHL SUB AND DUP5 PUSH1 0x1 PUSH1 0x1 PUSH1 0xA0 SHL SUB AND PUSH32 0x8C5BE1E5EBEC7D5BD14F71427D1E84F3DD0314C0F7B2291E5B200AC8C7C3B925 DUP5 PUSH1 0x40 MLOAD PUSH2 0x764 SWAP2 DUP2 MSTORE PUSH1 0x20 ADD SWAP1 JUMP JUMPDEST PUSH1 0x40 MLOAD DUP1 SWAP2 SUB SWAP1 LOG3 POP POP POP POP JUMP JUMPDEST PUSH1 0x1 PUSH1 0x1 PUSH1 0xA0 SHL SUB DUP4 AND PUSH2 0x79C JUMPI DUP1 PUSH1 0x2 PUSH0 DUP3 DUP3 SLOAD PUSH2 0x791 SWAP2 SWAP1 PUSH2 0xA4C JUMP JUMPDEST SWAP1 SWAP2 SSTORE POP PUSH2 0x7F9 SWAP1 POP JUMP JUMPDEST PUSH1 0x1 PUSH1 0x1 PUSH1 0xA0 SHL SUB DUP4 AND PUSH0 SWAP1 DUP2 MSTORE PUSH1 0x20 DUP2 SWAP1 MSTORE PUSH1 0x40 SWAP1 KECCAK256 SLOAD DUP2 DUP2 LT ISZERO PUSH2 0x7DB JUMPI DUP4 DUP2 DUP4 PUSH1 0x40 MLOAD PUSH4 0x391434E3 PUSH1 0xE2 SHL DUP2 MSTORE PUSH1 0x4 ADD PUSH2 0x398 SWAP4 SWAP3 SWAP2 SWAP1 PUSH2 0xA6B JUMP JUMPDEST PUSH1 0x1 PUSH1 0x1 PUSH1 0xA0 SHL SUB DUP5 AND PUSH0 SWAP1 DUP2 MSTORE PUSH1 0x20 DUP2 SWAP1 MSTORE PUSH1 0x40 SWAP1 KECCAK256 SWAP1 DUP3 SWAP1 SUB SWAP1 SSTORE JUMPDEST PUSH1 0x1 PUSH1 0x1 PUSH1 0xA0 SHL SUB DUP3 AND PUSH2 0x815 JUMPI PUSH1 0x2 DUP1 SLOAD DUP3 SWAP1 SUB SWAP1 SSTORE PUSH2 0x833 JUMP JUMPDEST PUSH1 0x1 PUSH1 0x1 PUSH1 0xA0 SHL SUB DUP3 AND PUSH0 SWAP1 DUP2 MSTORE PUSH1 0x20 DUP2 SWAP1 MSTORE PUSH1 0x40 SWAP1 KECCAK256 DUP1 SLOAD DUP3 ADD SWAP1 SSTORE JUMPDEST DUP2 PUSH1 0x1 PUSH1 0x1 PUSH1 0xA0 SHL SUB AND DUP4 PUSH1 0x1 PUSH1 0x1 PUSH1 0xA0 SHL SUB AND PUSH32 0xDDF252AD1BE2C89B69C2B068FC378DAA952BA7F163C4A11628F55A4DF523B3EF DUP4 PUSH1 0x40 MLOAD PUSH2 0x878 SWAP2 DUP2 MSTORE PUSH1 0x20 ADD SWAP1 JUMP JUMPDEST PUSH1 0x40 MLOAD DUP1 SWAP2 SUB SWAP1 LOG3 POP POP POP JUMP JUMPDEST PUSH1 0x20 DUP2 MSTORE PUSH0 DUP3 MLOAD DUP1 PUSH1 0x20 DUP5 ADD MSTORE DUP1 PUSH1 0x20 DUP6 ADD PUSH1 0x40 DUP6 ADD MCOPY PUSH0 PUSH1 0x40 DUP3 DUP6 ADD ADD MSTORE PUSH1 0x40 PUSH1 0x1F NOT PUSH1 0x1F DUP4 ADD AND DUP5 ADD ADD SWAP2 POP POP SWAP3 SWAP2 POP POP JUMP JUMPDEST DUP1 CALLDATALOAD PUSH1 0x1 PUSH1 0x1 PUSH1 0xA0 SHL SUB DUP2 AND DUP2 EQ PUSH2 0x8D0 JUMPI PUSH0 DUP1 REVERT JUMPDEST SWAP2 SWAP1 POP JUMP JUMPDEST PUSH0 DUP1 PUSH1 0x40 DUP4 DUP6 SUB SLT ISZERO PUSH2 0x8E6 JUMPI PUSH0 DUP1 REVERT JUMPDEST PUSH2 0x8EF DUP4 PUSH2 0x8BA JUMP JUMPDEST SWAP5 PUSH1 0x20 SWAP4 SWAP1 SWAP4 ADD CALLDATALOAD SWAP4 POP POP POP JUMP JUMPDEST PUSH0 DUP1 PUSH0 PUSH1 0x60 DUP5 DUP7 SUB SLT ISZERO PUSH2 0x90F JUMPI PUSH0 DUP1 REVERT JUMPDEST PUSH2 0x918 DUP5 PUSH2 0x8BA JUMP JUMPDEST SWAP3 POP PUSH2 0x926 PUSH1 0x20 DUP6 ADD PUSH2 0x8BA JUMP JUMPDEST SWAP3 SWAP6 SWAP3 SWAP5 POP POP POP PUSH1 0x40 SWAP2 SWAP1 SWAP2 ADD CALLDATALOAD SWAP1 JUMP JUMPDEST PUSH0 PUSH1 0x20 DUP3 DUP5 SUB SLT ISZERO PUSH2 0x947 JUMPI PUSH0 DUP1 REVERT JUMPDEST PUSH2 0x950 DUP3 PUSH2 0x8BA JUMP JUMPDEST SWAP4 SWAP3 POP POP POP JUMP JUMPDEST PUSH1 0x1 PUSH1 0x1 PUSH1 0xA0 SHL SUB SWAP2 SWAP1 SWAP2 AND DUP2 MSTORE PUSH1 0x20 ADD SWAP1 JUMP JUMPDEST PUSH0 DUP1 PUSH1 0x40 DUP4 DUP6 SUB SLT ISZERO PUSH2 0x97C JUMPI PUSH0 DUP1 REVERT JUMPDEST PUSH2 0x985 DUP4 PUSH2 0x8BA JUMP JUMPDEST SWAP2 POP PUSH2 0x993 PUSH1 0x20 DUP5 ADD PUSH2 0x8BA JUMP JUMPDEST SWAP1 POP SWAP3 POP SWAP3 SWAP1 POP JUMP JUMPDEST PUSH1 0x1 DUP2 DUP2 SHR SWAP1 DUP3 AND DUP1 PUSH2 0x9B0 JUMPI PUSH1 0x7F DUP3 AND SWAP2 POP JUMPDEST PUSH1 0x20 DUP3 LT DUP2 SUB PUSH2 0x9CE JUMPI PUSH4 0x4E487B71 PUSH1 0xE0 SHL PUSH0 MSTORE PUSH1 0x22 PUSH1 0x4 MSTORE PUSH1 0x24 PUSH0 REVERT JUMPDEST POP SWAP2 SWAP1 POP JUMP JUMPDEST PUSH1 0x20 DUP1 DUP3 MSTORE PUSH1 0x1A SWAP1 DUP3 ADD MSTORE PUSH32 0x536F6C6F207075656465206C6C616D617220656C206F776E6572000000000000 PUSH1 0x40 DUP3 ADD MSTORE PUSH1 0x60 ADD SWAP1 JUMP JUMPDEST PUSH1 0x20 DUP1 DUP3 MSTORE PUSH1 0x21 SWAP1 DUP3 ADD MSTORE PUSH32 0x4C6120646972656363696F6E2064657374696E6F206E6F2065732076616C6964 PUSH1 0x40 DUP3 ADD MSTORE PUSH1 0x61 PUSH1 0xF8 SHL PUSH1 0x60 DUP3 ADD MSTORE PUSH1 0x80 ADD SWAP1 JUMP JUMPDEST DUP1 DUP3 ADD DUP1 DUP3 GT ISZERO PUSH2 0x345 JUMPI PUSH4 0x4E487B71 PUSH1 0xE0 SHL PUSH0 MSTORE PUSH1 0x11 PUSH1 0x4 MSTORE PUSH1 0x24 PUSH0 REVERT JUMPDEST PUSH1 0x1 PUSH1 0x1 PUSH1 0xA0 SHL SUB SWAP4 SWAP1 SWAP4 AND DUP4 MSTORE PUSH1 0x20 DUP4 ADD SWAP2 SWAP1 SWAP2 MSTORE PUSH1 0x40 DUP3 ADD MSTORE PUSH1 0x60 ADD SWAP1 JUMP INVALID LOG2 PUSH5 0x6970667358 0x22 SLT KECCAK256 0xDF OR PUSH25 0xCDFD356823A83ADA8E335B09F46A78C7C9CFC565F9F06DA777 PUSH6 0x34276F64736F PUSH13 0x634300081A0033000000000000 "
		},
		"gasEstimates": {
			"creation": {
				"codeDepositCost": "2820200",
				"executionCost": "infinite",
				"totalCost": "infinite"
			},
			"external": {
				"_owner()": "infinite",
				"addParticipant()": "infinite",
				"addProposal(string,string,uint256,address)": "infinite",
				"buyTokens()": "infinite",
				"cancelProposal(uint256)": "infinite",
				"closeVoting()": "infinite",
				"getERC20()": "2409",
				"getProposalInfo(uint256)": "infinite",
				"numPendingProposals()": "2426",
				"numProposals()": "2339",
				"openVoting()": "infinite",
				"proposals(uint256)": "infinite",
				"removeParticipant()": "50919",
				"sellTokens(uint256)": "infinite",
				"stake(uint256,uint256)": "infinite",
				"votingContract()": "2425",
				"withdrawFromProposal(uint256,uint256)": "infinite"
			},
			"internal": {
				"_checkAndExecuteProposal(uint256)": "infinite",
				"calculateThresold(uint256)": "infinite",
				"getApprovedProposals()": "infinite",
				"getPendingProposals()": "infinite",
				"getSignalingProposals()": "infinite",
				"transferTokens(address,uint256)": "infinite"
			}
		},
		"methodIdentifiers": {
			"_owner()": "b2bdfa7b",
			"addParticipant()": "fffefd91",
			"addProposal(string,string,uint256,address)": "9ab3f7a6",
			"buyTokens()": "d0febe4c",
			"cancelProposal(uint256)": "e0a8f6f5",
			"closeVoting()": "c631b292",
			"getERC20()": "4ece90a8",
			"getProposalInfo(uint256)": "bc903cb8",
			"numPendingProposals()": "da52a95f",
			"numProposals()": "400e3949",
			"openVoting()": "affc0670",
			"proposals(uint256)": "013cf08b",
			"removeParticipant()": "3d571e97",
			"sellTokens(uint256)": "6c11bcd3",
			"stake(uint256,uint256)": "7b0472f0",
			"votingContract()": "c1fc006a",
			"withdrawFromProposal(uint256,uint256)": "649c649c"
		}
	},
	"abi": [
		{
			"inputs": [
				{
					"internalType": "uint256",
					"name": "_tokenPrice",
					"type": "uint256"
				},
				{
					"internalType": "uint256",
					"name": "_maxTokens",
					"type": "uint256"
				}
			],
			"stateMutability": "nonpayable",
			"type": "constructor"
		},
		{
			"anonymous": false,
			"inputs": [
				{
					"indexed": true,
					"internalType": "uint256",
					"name": "proposalId",
					"type": "uint256"
				}
			],
			"name": "NewProposal",
			"type": "event"
		},
		{
			"anonymous": false,
			"inputs": [
				{
					"indexed": true,
					"internalType": "uint256",
					"name": "proposalId",
					"type": "uint256"
				}
			],
			"name": "ProposalApproved",
			"type": "event"
		},
		{
			"anonymous": false,
			"inputs": [
				{
					"indexed": true,
					"internalType": "uint256",
					"name": "proposalId",
					"type": "uint256"
				}
			],
			"name": "ProposalCanceled",
			"type": "event"
		},
		{
			"anonymous": false,
			"inputs": [],
			"name": "VotingClosed",
			"type": "event"
		},
		{
			"anonymous": false,
			"inputs": [],
			"name": "VotingOpen",
			"type": "event"
		},
		{
			"inputs": [],
			"name": "_owner",
			"outputs": [
				{
					"internalType": "address",
					"name": "",
					"type": "address"
				}
			],
			"stateMutability": "view",
			"type": "function"
		},
		{
			"inputs": [],
			"name": "addParticipant",
			"outputs": [],
			"stateMutability": "payable",
			"type": "function"
		},
		{
			"inputs": [
				{
					"internalType": "string",
					"name": "title",
					"type": "string"
				},
				{
					"internalType": "string",
					"name": "description",
					"type": "string"
				},
				{
					"internalType": "uint256",
					"name": "budget",
					"type": "uint256"
				},
				{
					"internalType": "address",
					"name": "proposalContract",
					"type": "address"
				}
			],
			"name": "addProposal",
			"outputs": [
				{
					"internalType": "uint256",
					"name": "",
					"type": "uint256"
				}
			],
			"stateMutability": "nonpayable",
			"type": "function"
		},
		{
			"inputs": [],
			"name": "buyTokens",
			"outputs": [],
			"stateMutability": "payable",
			"type": "function"
		},
		{
			"inputs": [
				{
					"internalType": "uint256",
					"name": "idProposal",
					"type": "uint256"
				}
			],
			"name": "cancelProposal",
			"outputs": [],
			"stateMutability": "nonpayable",
			"type": "function"
		},
		{
			"inputs": [],
			"name": "closeVoting",
			"outputs": [],
			"stateMutability": "nonpayable",
			"type": "function"
		},
		{
			"inputs": [],
			"name": "getERC20",
			"outputs": [
				{
					"internalType": "address",
					"name": "",
					"type": "address"
				}
			],
			"stateMutability": "view",
			"type": "function"
		},
		{
			"inputs": [
				{
					"internalType": "uint256",
					"name": "idProposal",
					"type": "uint256"
				}
			],
			"name": "getProposalInfo",
			"outputs": [
				{
					"components": [
						{
							"internalType": "uint256",
							"name": "id",
							"type": "uint256"
						},
						{
							"internalType": "string",
							"name": "_title",
							"type": "string"
						},
						{
							"internalType": "string",
							"name": "_description",
							"type": "string"
						},
						{
							"internalType": "uint256",
							"name": "_budget",
							"type": "uint256"
						},
						{
							"internalType": "uint256",
							"name": "_votes",
							"type": "uint256"
						},
						{
							"internalType": "uint256",
							"name": "_umbral",
							"type": "uint256"
						},
						{
							"internalType": "address",
							"name": "_contractProposal",
							"type": "address"
						},
						{
							"internalType": "address",
							"name": "_creator",
							"type": "address"
						},
						{
							"internalType": "bool",
							"name": "_isSignaling",
							"type": "bool"
						},
						{
							"internalType": "bool",
							"name": "_isApproved",
							"type": "bool"
						},
						{
							"internalType": "bool",
							"name": "_isCanceled",
							"type": "bool"
						},
						{
							"internalType": "uint256",
							"name": "_numTokens",
							"type": "uint256"
						},
						{
							"internalType": "address[]",
							"name": "_voters",
							"type": "address[]"
						}
					],
					"internalType": "struct QuadraticVoting.Proposal",
					"name": "",
					"type": "tuple"
				}
			],
			"stateMutability": "view",
			"type": "function"
		},
		{
			"inputs": [],
			"name": "numPendingProposals",
			"outputs": [
				{
					"internalType": "uint256",
					"name": "",
					"type": "uint256"
				}
			],
			"stateMutability": "view",
			"type": "function"
		},
		{
			"inputs": [],
			"name": "numProposals",
			"outputs": [
				{
					"internalType": "uint256",
					"name": "",
					"type": "uint256"
				}
			],
			"stateMutability": "view",
			"type": "function"
		},
		{
			"inputs": [],
			"name": "openVoting",
			"outputs": [],
			"stateMutability": "payable",
			"type": "function"
		},
		{
			"inputs": [
				{
					"internalType": "uint256",
					"name": "",
					"type": "uint256"
				}
			],
			"name": "proposals",
			"outputs": [
				{
					"internalType": "uint256",
					"name": "id",
					"type": "uint256"
				},
				{
					"internalType": "string",
					"name": "_title",
					"type": "string"
				},
				{
					"internalType": "string",
					"name": "_description",
					"type": "string"
				},
				{
					"internalType": "uint256",
					"name": "_budget",
					"type": "uint256"
				},
				{
					"internalType": "uint256",
					"name": "_votes",
					"type": "uint256"
				},
				{
					"internalType": "uint256",
					"name": "_umbral",
					"type": "uint256"
				},
				{
					"internalType": "address",
					"name": "_contractProposal",
					"type": "address"
				},
				{
					"internalType": "address",
					"name": "_creator",
					"type": "address"
				},
				{
					"internalType": "bool",
					"name": "_isSignaling",
					"type": "bool"
				},
				{
					"internalType": "bool",
					"name": "_isApproved",
					"type": "bool"
				},
				{
					"internalType": "bool",
					"name": "_isCanceled",
					"type": "bool"
				},
				{
					"internalType": "uint256",
					"name": "_numTokens",
					"type": "uint256"
				}
			],
			"stateMutability": "view",
			"type": "function"
		},
		{
			"inputs": [],
			"name": "removeParticipant",
			"outputs": [],
			"stateMutability": "nonpayable",
			"type": "function"
		},
		{
			"inputs": [
				{
					"internalType": "uint256",
					"name": "tokensToReturn",
					"type": "uint256"
				}
			],
			"name": "sellTokens",
			"outputs": [],
			"stateMutability": "nonpayable",
			"type": "function"
		},
		{
			"inputs": [
				{
					"internalType": "uint256",
					"name": "idProposal",
					"type": "uint256"
				},
				{
					"internalType": "uint256",
					"name": "voteAmount",
					"type": "uint256"
				}
			],
			"name": "stake",
			"outputs": [],
			"stateMutability": "nonpayable",
			"type": "function"
		},
		{
			"inputs": [],
			"name": "votingContract",
			"outputs": [
				{
					"internalType": "contract VotingContract",
					"name": "",
					"type": "address"
				}
			],
			"stateMutability": "view",
			"type": "function"
		},
		{
			"inputs": [
				{
					"internalType": "uint256",
					"name": "voteAmount",
					"type": "uint256"
				},
				{
					"internalType": "uint256",
					"name": "idProposal",
					"type": "uint256"
				}
			],
			"name": "withdrawFromProposal",
			"outputs": [],
			"stateMutability": "nonpayable",
			"type": "function"
		}
	]
}