{
	"data": {
		"bytecode": {
			"linkReferences": {},
			"object": "6080604052348015600e575f80fd5b503360035f6101000a81548173ffffffffffffffffffffffffffffffffffffffff021916908373ffffffffffffffffffffffffffffffffffffffff1602179055505f60065f6101000a81548160ff0219169083151502179055505f6005819055506119428061007c5f395ff3fe6080604052600436106100fd575f3560e01c80639ab3f7a611610094578063c1fc006a11610063578063c1fc006a146102e2578063c631b2921461030c578063d0febe4c14610322578063e0a8f6f514610338578063fffefd9114610360576100fd565b80639ab3f7a61461022a578063a80db6fc14610266578063affc067014610290578063bc903cb8146102a6576100fd565b80634ece90a8116100d05780634ece90a81461019a578063649c649c146101c45780637b0472f0146101ec5780639904e17414610214576100fd565b8063013cf08b1461010157806312424e3f146101445780633ac0feac1461015a5780633d571e9714610184575b5f80fd5b34801561010c575f80fd5b5061012760048036038101906101229190610e01565b61036a565b60405161013b989796959493929190610eea565b60405180910390f35b34801561014f575f80fd5b506101586104d9565b005b348015610165575f80fd5b5061016e6104db565b60405161017b919061102b565b60405180910390f35b34801561018f575f80fd5b5061019861052e565b005b3480156101a5575f80fd5b506101ae610570565b6040516101bb919061104b565b60405180910390f35b3480156101cf575f80fd5b506101ea60048036038101906101e59190611064565b610574565b005b3480156101f7575f80fd5b50610212600480360381019061020d9190611064565b610578565b005b34801561021f575f80fd5b506102286105ca565b005b348015610235575f80fd5b50610250600480360381019061024b919061112d565b610614565b60405161025d91906111d0565b60405180910390f35b348015610271575f80fd5b5061027a61081e565b604051610287919061102b565b60405180910390f35b34801561029b575f80fd5b506102a4610871565b005b3480156102b1575f80fd5b506102cc60048036038101906102c79190610e01565b61091c565b6040516102d991906112f4565b60405180910390f35b3480156102ed575f80fd5b506102f6610b3c565b604051610303919061136f565b60405180910390f35b348015610317575f80fd5b50610320610b5f565b005b34801561032d575f80fd5b50610336610c09565b005b348015610343575f80fd5b5061035e60048036038101906103599190610e01565b610c8a565b005b610368610cdb565b005b6007602052805f5260405f205f91509050805f01549080600101805461038f906113b5565b80601f01602080910402602001604051908101604052809291908181526020018280546103bb906113b5565b80156104065780601f106103dd57610100808354040283529160200191610406565b820191905f5260205f20905b8154815290600101906020018083116103e957829003601f168201915b50505050509080600201805461041b906113b5565b80601f0160208091040260200160405190810160405280929190818152602001828054610447906113b5565b80156104925780601f1061046957610100808354040283529160200191610492565b820191905f5260205f20905b81548152906001019060200180831161047557829003601f168201915b505050505090806003015490806004015490806005015490806006015490806007015f9054906101000a900473ffffffffffffffffffffffffffffffffffffffff16905088565b565b606060065f9054906101000a900460ff1661052b576040517f08c379a00000000000000000000000000000000000000000000000000000000081526004016105229061142f565b60405180910390fd5b90565b60045f3373ffffffffffffffffffffffffffffffffffffffff1673ffffffffffffffffffffffffffffffffffffffff1681526020019081526020015f205f9055565b5f90565b5050565b60065f9054906101000a900460ff166105c6576040517f08c379a00000000000000000000000000000000000000000000000000000000081526004016105bd9061142f565b60405180910390fd5b5050565b5f60045f3373ffffffffffffffffffffffffffffffffffffffff1673ffffffffffffffffffffffffffffffffffffffff1681526020019081526020015f205403610612575f80fd5b565b5f60065f9054906101000a900460ff16610663576040517f08c379a000000000000000000000000000000000000000000000000000000000815260040161065a9061142f565b60405180910390fd5b60055f8154809291906106759061147a565b91905055505f604051806101000160405280600554815260200189898080601f0160208091040260200160405190810160405280939291908181526020018383808284375f81840152601f19601f82011690508083019250505050505050815260200187878080601f0160208091040260200160405190810160405280939291908181526020018383808284375f81840152601f19601f8201169050808301925050505050505081526020015f81526020018581526020015f81526020015f81526020018473ffffffffffffffffffffffffffffffffffffffff1681525090508060075f60055481526020019081526020015f205f820151815f015560208201518160010190816107869190611682565b50604082015181600201908161079c9190611682565b50606082015181600301556080820151816004015560a0820151816005015560c0820151816006015560e0820151816007015f6101000a81548173ffffffffffffffffffffffffffffffffffffffff021916908373ffffffffffffffffffffffffffffffffffffffff1602179055509050506005549150509695505050505050565b606060065f9054906101000a900460ff1661086e576040517f08c379a00000000000000000000000000000000000000000000000000000000081526004016108659061142f565b60405180910390fd5b90565b60035f9054906101000a900473ffffffffffffffffffffffffffffffffffffffff1673ffffffffffffffffffffffffffffffffffffffff163373ffffffffffffffffffffffffffffffffffffffff1614610900576040517f08c379a00000000000000000000000000000000000000000000000000000000081526004016108f79061179b565b60405180910390fd5b600160065f6101000a81548160ff021916908315150217905550565b610924610d71565b60065f9054906101000a900460ff16610972576040517f08c379a00000000000000000000000000000000000000000000000000000000081526004016109699061142f565b60405180910390fd5b60075f8381526020019081526020015f20604051806101000160405290815f82015481526020016001820180546109a8906113b5565b80601f01602080910402602001604051908101604052809291908181526020018280546109d4906113b5565b8015610a1f5780601f106109f657610100808354040283529160200191610a1f565b820191905f5260205f20905b815481529060010190602001808311610a0257829003601f168201915b50505050508152602001600282018054610a38906113b5565b80601f0160208091040260200160405190810160405280929190818152602001828054610a64906113b5565b8015610aaf5780601f10610a8657610100808354040283529160200191610aaf565b820191905f5260205f20905b815481529060010190602001808311610a9257829003601f168201915b5050505050815260200160038201548152602001600482015481526020016005820154815260200160068201548152602001600782015f9054906101000a900473ffffffffffffffffffffffffffffffffffffffff1673ffffffffffffffffffffffffffffffffffffffff1673ffffffffffffffffffffffffffffffffffffffff16815250509050919050565b5f8054906101000a900473ffffffffffffffffffffffffffffffffffffffff1681565b60035f9054906101000a900473ffffffffffffffffffffffffffffffffffffffff1673ffffffffffffffffffffffffffffffffffffffff163373ffffffffffffffffffffffffffffffffffffffff1614610bee576040517f08c379a0000000000000000000000000000000000000000000000000000000008152600401610be59061179b565b60405180910390fd5b5f60065f6101000a81548160ff021916908315150217905550565b5f60045f3373ffffffffffffffffffffffffffffffffffffffff1673ffffffffffffffffffffffffffffffffffffffff1681526020019081526020015f205403610c88576040517f08c379a0000000000000000000000000000000000000000000000000000000008152600401610c7f90611829565b60405180910390fd5b565b60065f9054906101000a900460ff16610cd8576040517f08c379a0000000000000000000000000000000000000000000000000000000008152600401610ccf9061142f565b60405180910390fd5b50565b600154341015610d20576040517f08c379a0000000000000000000000000000000000000000000000000000000008152600401610d1790611891565b60405180910390fd5b60015434610d2e91906118dc565b60045f3373ffffffffffffffffffffffffffffffffffffffff1673ffffffffffffffffffffffffffffffffffffffff1681526020019081526020015f2081905550565b6040518061010001604052805f815260200160608152602001606081526020015f81526020015f81526020015f81526020015f81526020015f73ffffffffffffffffffffffffffffffffffffffff1681525090565b5f80fd5b5f80fd5b5f819050919050565b610de081610dce565b8114610dea575f80fd5b50565b5f81359050610dfb81610dd7565b92915050565b5f60208284031215610e1657610e15610dc6565b5b5f610e2384828501610ded565b91505092915050565b610e3581610dce565b82525050565b5f81519050919050565b5f82825260208201905092915050565b8281835e5f83830152505050565b5f601f19601f8301169050919050565b5f610e7d82610e3b565b610e878185610e45565b9350610e97818560208601610e55565b610ea081610e63565b840191505092915050565b5f73ffffffffffffffffffffffffffffffffffffffff82169050919050565b5f610ed482610eab565b9050919050565b610ee481610eca565b82525050565b5f61010082019050610efe5f83018b610e2c565b8181036020830152610f10818a610e73565b90508181036040830152610f248189610e73565b9050610f336060830188610e2c565b610f406080830187610e2c565b610f4d60a0830186610e2c565b610f5a60c0830185610e2c565b610f6760e0830184610edb565b9998505050505050505050565b5f81519050919050565b5f82825260208201905092915050565b5f819050602082019050919050565b610fa681610dce565b82525050565b5f610fb78383610f9d565b60208301905092915050565b5f602082019050919050565b5f610fd982610f74565b610fe38185610f7e565b9350610fee83610f8e565b805f5b8381101561101e5781516110058882610fac565b975061101083610fc3565b925050600181019050610ff1565b5085935050505092915050565b5f6020820190508181035f8301526110438184610fcf565b905092915050565b5f60208201905061105e5f830184610edb565b92915050565b5f806040838503121561107a57611079610dc6565b5b5f61108785828601610ded565b925050602061109885828601610ded565b9150509250929050565b5f80fd5b5f80fd5b5f80fd5b5f8083601f8401126110c3576110c26110a2565b5b8235905067ffffffffffffffff8111156110e0576110df6110a6565b5b6020830191508360018202830111156110fc576110fb6110aa565b5b9250929050565b61110c81610eca565b8114611116575f80fd5b50565b5f8135905061112781611103565b92915050565b5f805f805f806080878903121561114757611146610dc6565b5b5f87013567ffffffffffffffff81111561116457611163610dca565b5b61117089828a016110ae565b9650965050602087013567ffffffffffffffff81111561119357611192610dca565b5b61119f89828a016110ae565b945094505060406111b289828a01610ded565b92505060606111c389828a01611119565b9150509295509295509295565b5f6020820190506111e35f830184610e2c565b92915050565b5f82825260208201905092915050565b5f61120382610e3b565b61120d81856111e9565b935061121d818560208601610e55565b61122681610e63565b840191505092915050565b61123a81610eca565b82525050565b5f61010083015f8301516112565f860182610f9d565b506020830151848203602086015261126e82826111f9565b9150506040830151848203604086015261128882826111f9565b915050606083015161129d6060860182610f9d565b5060808301516112b06080860182610f9d565b5060a08301516112c360a0860182610f9d565b5060c08301516112d660c0860182610f9d565b5060e08301516112e960e0860182611231565b508091505092915050565b5f6020820190508181035f83015261130c8184611240565b905092915050565b5f819050919050565b5f61133761133261132d84610eab565b611314565b610eab565b9050919050565b5f6113488261131d565b9050919050565b5f6113598261133e565b9050919050565b6113698161134f565b82525050565b5f6020820190506113825f830184611360565b92915050565b7f4e487b71000000000000000000000000000000000000000000000000000000005f52602260045260245ffd5b5f60028204905060018216806113cc57607f821691505b6020821081036113df576113de611388565b5b50919050565b7f566f74696e67206973206e6f74206f70656e65640000000000000000000000005f82015250565b5f611419601483610e45565b9150611424826113e5565b602082019050919050565b5f6020820190508181035f8301526114468161140d565b9050919050565b7f4e487b71000000000000000000000000000000000000000000000000000000005f52601160045260245ffd5b5f61148482610dce565b91507fffffffffffffffffffffffffffffffffffffffffffffffffffffffffffffffff82036114b6576114b561144d565b5b600182019050919050565b7f4e487b71000000000000000000000000000000000000000000000000000000005f52604160045260245ffd5b5f819050815f5260205f209050919050565b5f6020601f8301049050919050565b5f82821b905092915050565b5f6008830261154a7fffffffffffffffffffffffffffffffffffffffffffffffffffffffffffffffff8261150f565b611554868361150f565b95508019841693508086168417925050509392505050565b5f61158661158161157c84610dce565b611314565b610dce565b9050919050565b5f819050919050565b61159f8361156c565b6115b36115ab8261158d565b84845461151b565b825550505050565b5f90565b6115c76115bb565b6115d2818484611596565b505050565b5b818110156115f5576115ea5f826115bf565b6001810190506115d8565b5050565b601f82111561163a5761160b816114ee565b61161484611500565b81016020851015611623578190505b61163761162f85611500565b8301826115d7565b50505b505050565b5f82821c905092915050565b5f61165a5f198460080261163f565b1980831691505092915050565b5f611672838361164b565b9150826002028217905092915050565b61168b82610e3b565b67ffffffffffffffff8111156116a4576116a36114c1565b5b6116ae82546113b5565b6116b98282856115f9565b5f60209050601f8311600181146116ea575f84156116d8578287015190505b6116e28582611667565b865550611749565b601f1984166116f8866114ee565b5f5b8281101561171f578489015182556001820191506020850194506020810190506116fa565b8683101561173c5784890151611738601f89168261164b565b8355505b6001600288020188555050505b505050505050565b7f4e6f74206f776e657200000000000000000000000000000000000000000000005f82015250565b5f611785600983610e45565b915061179082611751565b602082019050919050565b5f6020820190508181035f8301526117b281611779565b9050919050565b7f45737465207061727469636970616e7465206e6f206573746120696e736372695f8201527f746f20656e206c6120766f746163696f6e000000000000000000000000000000602082015250565b5f611813603183610e45565b915061181e826117b9565b604082019050919050565b5f6020820190508181035f83015261184081611807565b9050919050565b7f4e6f20737566696369656e742066756e647300000000000000000000000000005f82015250565b5f61187b601283610e45565b915061188682611847565b602082019050919050565b5f6020820190508181035f8301526118a88161186f565b9050919050565b7f4e487b71000000000000000000000000000000000000000000000000000000005f52601260045260245ffd5b5f6118e682610dce565b91506118f183610dce565b925082611901576119006118af565b5b82820490509291505056fea26469706673582212200b293ae47a10a9a79c61e490f7c31404a08bea1ea4682900edbba633b3c2d02564736f6c634300081a0033",
			"opcodes": "PUSH1 0x80 PUSH1 0x40 MSTORE CALLVALUE DUP1 ISZERO PUSH1 0xE JUMPI PUSH0 DUP1 REVERT JUMPDEST POP CALLER PUSH1 0x3 PUSH0 PUSH2 0x100 EXP DUP2 SLOAD DUP2 PUSH20 0xFFFFFFFFFFFFFFFFFFFFFFFFFFFFFFFFFFFFFFFF MUL NOT AND SWAP1 DUP4 PUSH20 0xFFFFFFFFFFFFFFFFFFFFFFFFFFFFFFFFFFFFFFFF AND MUL OR SWAP1 SSTORE POP PUSH0 PUSH1 0x6 PUSH0 PUSH2 0x100 EXP DUP2 SLOAD DUP2 PUSH1 0xFF MUL NOT AND SWAP1 DUP4 ISZERO ISZERO MUL OR SWAP1 SSTORE POP PUSH0 PUSH1 0x5 DUP2 SWAP1 SSTORE POP PUSH2 0x1942 DUP1 PUSH2 0x7C PUSH0 CODECOPY PUSH0 RETURN INVALID PUSH1 0x80 PUSH1 0x40 MSTORE PUSH1 0x4 CALLDATASIZE LT PUSH2 0xFD JUMPI PUSH0 CALLDATALOAD PUSH1 0xE0 SHR DUP1 PUSH4 0x9AB3F7A6 GT PUSH2 0x94 JUMPI DUP1 PUSH4 0xC1FC006A GT PUSH2 0x63 JUMPI DUP1 PUSH4 0xC1FC006A EQ PUSH2 0x2E2 JUMPI DUP1 PUSH4 0xC631B292 EQ PUSH2 0x30C JUMPI DUP1 PUSH4 0xD0FEBE4C EQ PUSH2 0x322 JUMPI DUP1 PUSH4 0xE0A8F6F5 EQ PUSH2 0x338 JUMPI DUP1 PUSH4 0xFFFEFD91 EQ PUSH2 0x360 JUMPI PUSH2 0xFD JUMP JUMPDEST DUP1 PUSH4 0x9AB3F7A6 EQ PUSH2 0x22A JUMPI DUP1 PUSH4 0xA80DB6FC EQ PUSH2 0x266 JUMPI DUP1 PUSH4 0xAFFC0670 EQ PUSH2 0x290 JUMPI DUP1 PUSH4 0xBC903CB8 EQ PUSH2 0x2A6 JUMPI PUSH2 0xFD JUMP JUMPDEST DUP1 PUSH4 0x4ECE90A8 GT PUSH2 0xD0 JUMPI DUP1 PUSH4 0x4ECE90A8 EQ PUSH2 0x19A JUMPI DUP1 PUSH4 0x649C649C EQ PUSH2 0x1C4 JUMPI DUP1 PUSH4 0x7B0472F0 EQ PUSH2 0x1EC JUMPI DUP1 PUSH4 0x9904E174 EQ PUSH2 0x214 JUMPI PUSH2 0xFD JUMP JUMPDEST DUP1 PUSH4 0x13CF08B EQ PUSH2 0x101 JUMPI DUP1 PUSH4 0x12424E3F EQ PUSH2 0x144 JUMPI DUP1 PUSH4 0x3AC0FEAC EQ PUSH2 0x15A JUMPI DUP1 PUSH4 0x3D571E97 EQ PUSH2 0x184 JUMPI JUMPDEST PUSH0 DUP1 REVERT JUMPDEST CALLVALUE DUP1 ISZERO PUSH2 0x10C JUMPI PUSH0 DUP1 REVERT JUMPDEST POP PUSH2 0x127 PUSH1 0x4 DUP1 CALLDATASIZE SUB DUP2 ADD SWAP1 PUSH2 0x122 SWAP2 SWAP1 PUSH2 0xE01 JUMP JUMPDEST PUSH2 0x36A JUMP JUMPDEST PUSH1 0x40 MLOAD PUSH2 0x13B SWAP9 SWAP8 SWAP7 SWAP6 SWAP5 SWAP4 SWAP3 SWAP2 SWAP1 PUSH2 0xEEA JUMP JUMPDEST PUSH1 0x40 MLOAD DUP1 SWAP2 SUB SWAP1 RETURN JUMPDEST CALLVALUE DUP1 ISZERO PUSH2 0x14F JUMPI PUSH0 DUP1 REVERT JUMPDEST POP PUSH2 0x158 PUSH2 0x4D9 JUMP JUMPDEST STOP JUMPDEST CALLVALUE DUP1 ISZERO PUSH2 0x165 JUMPI PUSH0 DUP1 REVERT JUMPDEST POP PUSH2 0x16E PUSH2 0x4DB JUMP JUMPDEST PUSH1 0x40 MLOAD PUSH2 0x17B SWAP2 SWAP1 PUSH2 0x102B JUMP JUMPDEST PUSH1 0x40 MLOAD DUP1 SWAP2 SUB SWAP1 RETURN JUMPDEST CALLVALUE DUP1 ISZERO PUSH2 0x18F JUMPI PUSH0 DUP1 REVERT JUMPDEST POP PUSH2 0x198 PUSH2 0x52E JUMP JUMPDEST STOP JUMPDEST CALLVALUE DUP1 ISZERO PUSH2 0x1A5 JUMPI PUSH0 DUP1 REVERT JUMPDEST POP PUSH2 0x1AE PUSH2 0x570 JUMP JUMPDEST PUSH1 0x40 MLOAD PUSH2 0x1BB SWAP2 SWAP1 PUSH2 0x104B JUMP JUMPDEST PUSH1 0x40 MLOAD DUP1 SWAP2 SUB SWAP1 RETURN JUMPDEST CALLVALUE DUP1 ISZERO PUSH2 0x1CF JUMPI PUSH0 DUP1 REVERT JUMPDEST POP PUSH2 0x1EA PUSH1 0x4 DUP1 CALLDATASIZE SUB DUP2 ADD SWAP1 PUSH2 0x1E5 SWAP2 SWAP1 PUSH2 0x1064 JUMP JUMPDEST PUSH2 0x574 JUMP JUMPDEST STOP JUMPDEST CALLVALUE DUP1 ISZERO PUSH2 0x1F7 JUMPI PUSH0 DUP1 REVERT JUMPDEST POP PUSH2 0x212 PUSH1 0x4 DUP1 CALLDATASIZE SUB DUP2 ADD SWAP1 PUSH2 0x20D SWAP2 SWAP1 PUSH2 0x1064 JUMP JUMPDEST PUSH2 0x578 JUMP JUMPDEST STOP JUMPDEST CALLVALUE DUP1 ISZERO PUSH2 0x21F JUMPI PUSH0 DUP1 REVERT JUMPDEST POP PUSH2 0x228 PUSH2 0x5CA JUMP JUMPDEST STOP JUMPDEST CALLVALUE DUP1 ISZERO PUSH2 0x235 JUMPI PUSH0 DUP1 REVERT JUMPDEST POP PUSH2 0x250 PUSH1 0x4 DUP1 CALLDATASIZE SUB DUP2 ADD SWAP1 PUSH2 0x24B SWAP2 SWAP1 PUSH2 0x112D JUMP JUMPDEST PUSH2 0x614 JUMP JUMPDEST PUSH1 0x40 MLOAD PUSH2 0x25D SWAP2 SWAP1 PUSH2 0x11D0 JUMP JUMPDEST PUSH1 0x40 MLOAD DUP1 SWAP2 SUB SWAP1 RETURN JUMPDEST CALLVALUE DUP1 ISZERO PUSH2 0x271 JUMPI PUSH0 DUP1 REVERT JUMPDEST POP PUSH2 0x27A PUSH2 0x81E JUMP JUMPDEST PUSH1 0x40 MLOAD PUSH2 0x287 SWAP2 SWAP1 PUSH2 0x102B JUMP JUMPDEST PUSH1 0x40 MLOAD DUP1 SWAP2 SUB SWAP1 RETURN JUMPDEST CALLVALUE DUP1 ISZERO PUSH2 0x29B JUMPI PUSH0 DUP1 REVERT JUMPDEST POP PUSH2 0x2A4 PUSH2 0x871 JUMP JUMPDEST STOP JUMPDEST CALLVALUE DUP1 ISZERO PUSH2 0x2B1 JUMPI PUSH0 DUP1 REVERT JUMPDEST POP PUSH2 0x2CC PUSH1 0x4 DUP1 CALLDATASIZE SUB DUP2 ADD SWAP1 PUSH2 0x2C7 SWAP2 SWAP1 PUSH2 0xE01 JUMP JUMPDEST PUSH2 0x91C JUMP JUMPDEST PUSH1 0x40 MLOAD PUSH2 0x2D9 SWAP2 SWAP1 PUSH2 0x12F4 JUMP JUMPDEST PUSH1 0x40 MLOAD DUP1 SWAP2 SUB SWAP1 RETURN JUMPDEST CALLVALUE DUP1 ISZERO PUSH2 0x2ED JUMPI PUSH0 DUP1 REVERT JUMPDEST POP PUSH2 0x2F6 PUSH2 0xB3C JUMP JUMPDEST PUSH1 0x40 MLOAD PUSH2 0x303 SWAP2 SWAP1 PUSH2 0x136F JUMP JUMPDEST PUSH1 0x40 MLOAD DUP1 SWAP2 SUB SWAP1 RETURN JUMPDEST CALLVALUE DUP1 ISZERO PUSH2 0x317 JUMPI PUSH0 DUP1 REVERT JUMPDEST POP PUSH2 0x320 PUSH2 0xB5F JUMP JUMPDEST STOP JUMPDEST CALLVALUE DUP1 ISZERO PUSH2 0x32D JUMPI PUSH0 DUP1 REVERT JUMPDEST POP PUSH2 0x336 PUSH2 0xC09 JUMP JUMPDEST STOP JUMPDEST CALLVALUE DUP1 ISZERO PUSH2 0x343 JUMPI PUSH0 DUP1 REVERT JUMPDEST POP PUSH2 0x35E PUSH1 0x4 DUP1 CALLDATASIZE SUB DUP2 ADD SWAP1 PUSH2 0x359 SWAP2 SWAP1 PUSH2 0xE01 JUMP JUMPDEST PUSH2 0xC8A JUMP JUMPDEST STOP JUMPDEST PUSH2 0x368 PUSH2 0xCDB JUMP JUMPDEST STOP JUMPDEST PUSH1 0x7 PUSH1 0x20 MSTORE DUP1 PUSH0 MSTORE PUSH1 0x40 PUSH0 KECCAK256 PUSH0 SWAP2 POP SWAP1 POP DUP1 PUSH0 ADD SLOAD SWAP1 DUP1 PUSH1 0x1 ADD DUP1 SLOAD PUSH2 0x38F SWAP1 PUSH2 0x13B5 JUMP JUMPDEST DUP1 PUSH1 0x1F ADD PUSH1 0x20 DUP1 SWAP2 DIV MUL PUSH1 0x20 ADD PUSH1 0x40 MLOAD SWAP1 DUP2 ADD PUSH1 0x40 MSTORE DUP1 SWAP3 SWAP2 SWAP1 DUP2 DUP2 MSTORE PUSH1 0x20 ADD DUP3 DUP1 SLOAD PUSH2 0x3BB SWAP1 PUSH2 0x13B5 JUMP JUMPDEST DUP1 ISZERO PUSH2 0x406 JUMPI DUP1 PUSH1 0x1F LT PUSH2 0x3DD JUMPI PUSH2 0x100 DUP1 DUP4 SLOAD DIV MUL DUP4 MSTORE SWAP2 PUSH1 0x20 ADD SWAP2 PUSH2 0x406 JUMP JUMPDEST DUP3 ADD SWAP2 SWAP1 PUSH0 MSTORE PUSH1 0x20 PUSH0 KECCAK256 SWAP1 JUMPDEST DUP2 SLOAD DUP2 MSTORE SWAP1 PUSH1 0x1 ADD SWAP1 PUSH1 0x20 ADD DUP1 DUP4 GT PUSH2 0x3E9 JUMPI DUP3 SWAP1 SUB PUSH1 0x1F AND DUP3 ADD SWAP2 JUMPDEST POP POP POP POP POP SWAP1 DUP1 PUSH1 0x2 ADD DUP1 SLOAD PUSH2 0x41B SWAP1 PUSH2 0x13B5 JUMP JUMPDEST DUP1 PUSH1 0x1F ADD PUSH1 0x20 DUP1 SWAP2 DIV MUL PUSH1 0x20 ADD PUSH1 0x40 MLOAD SWAP1 DUP2 ADD PUSH1 0x40 MSTORE DUP1 SWAP3 SWAP2 SWAP1 DUP2 DUP2 MSTORE PUSH1 0x20 ADD DUP3 DUP1 SLOAD PUSH2 0x447 SWAP1 PUSH2 0x13B5 JUMP JUMPDEST DUP1 ISZERO PUSH2 0x492 JUMPI DUP1 PUSH1 0x1F LT PUSH2 0x469 JUMPI PUSH2 0x100 DUP1 DUP4 SLOAD DIV MUL DUP4 MSTORE SWAP2 PUSH1 0x20 ADD SWAP2 PUSH2 0x492 JUMP JUMPDEST DUP3 ADD SWAP2 SWAP1 PUSH0 MSTORE PUSH1 0x20 PUSH0 KECCAK256 SWAP1 JUMPDEST DUP2 SLOAD DUP2 MSTORE SWAP1 PUSH1 0x1 ADD SWAP1 PUSH1 0x20 ADD DUP1 DUP4 GT PUSH2 0x475 JUMPI DUP3 SWAP1 SUB PUSH1 0x1F AND DUP3 ADD SWAP2 JUMPDEST POP POP POP POP POP SWAP1 DUP1 PUSH1 0x3 ADD SLOAD SWAP1 DUP1 PUSH1 0x4 ADD SLOAD SWAP1 DUP1 PUSH1 0x5 ADD SLOAD SWAP1 DUP1 PUSH1 0x6 ADD SLOAD SWAP1 DUP1 PUSH1 0x7 ADD PUSH0 SWAP1 SLOAD SWAP1 PUSH2 0x100 EXP SWAP1 DIV PUSH20 0xFFFFFFFFFFFFFFFFFFFFFFFFFFFFFFFFFFFFFFFF AND SWAP1 POP DUP9 JUMP JUMPDEST JUMP JUMPDEST PUSH1 0x60 PUSH1 0x6 PUSH0 SWAP1 SLOAD SWAP1 PUSH2 0x100 EXP SWAP1 DIV PUSH1 0xFF AND PUSH2 0x52B JUMPI PUSH1 0x40 MLOAD PUSH32 0x8C379A000000000000000000000000000000000000000000000000000000000 DUP2 MSTORE PUSH1 0x4 ADD PUSH2 0x522 SWAP1 PUSH2 0x142F JUMP JUMPDEST PUSH1 0x40 MLOAD DUP1 SWAP2 SUB SWAP1 REVERT JUMPDEST SWAP1 JUMP JUMPDEST PUSH1 0x4 PUSH0 CALLER PUSH20 0xFFFFFFFFFFFFFFFFFFFFFFFFFFFFFFFFFFFFFFFF AND PUSH20 0xFFFFFFFFFFFFFFFFFFFFFFFFFFFFFFFFFFFFFFFF AND DUP2 MSTORE PUSH1 0x20 ADD SWAP1 DUP2 MSTORE PUSH1 0x20 ADD PUSH0 KECCAK256 PUSH0 SWAP1 SSTORE JUMP JUMPDEST PUSH0 SWAP1 JUMP JUMPDEST POP POP JUMP JUMPDEST PUSH1 0x6 PUSH0 SWAP1 SLOAD SWAP1 PUSH2 0x100 EXP SWAP1 DIV PUSH1 0xFF AND PUSH2 0x5C6 JUMPI PUSH1 0x40 MLOAD PUSH32 0x8C379A000000000000000000000000000000000000000000000000000000000 DUP2 MSTORE PUSH1 0x4 ADD PUSH2 0x5BD SWAP1 PUSH2 0x142F JUMP JUMPDEST PUSH1 0x40 MLOAD DUP1 SWAP2 SUB SWAP1 REVERT JUMPDEST POP POP JUMP JUMPDEST PUSH0 PUSH1 0x4 PUSH0 CALLER PUSH20 0xFFFFFFFFFFFFFFFFFFFFFFFFFFFFFFFFFFFFFFFF AND PUSH20 0xFFFFFFFFFFFFFFFFFFFFFFFFFFFFFFFFFFFFFFFF AND DUP2 MSTORE PUSH1 0x20 ADD SWAP1 DUP2 MSTORE PUSH1 0x20 ADD PUSH0 KECCAK256 SLOAD SUB PUSH2 0x612 JUMPI PUSH0 DUP1 REVERT JUMPDEST JUMP JUMPDEST PUSH0 PUSH1 0x6 PUSH0 SWAP1 SLOAD SWAP1 PUSH2 0x100 EXP SWAP1 DIV PUSH1 0xFF AND PUSH2 0x663 JUMPI PUSH1 0x40 MLOAD PUSH32 0x8C379A000000000000000000000000000000000000000000000000000000000 DUP2 MSTORE PUSH1 0x4 ADD PUSH2 0x65A SWAP1 PUSH2 0x142F JUMP JUMPDEST PUSH1 0x40 MLOAD DUP1 SWAP2 SUB SWAP1 REVERT JUMPDEST PUSH1 0x5 PUSH0 DUP2 SLOAD DUP1 SWAP3 SWAP2 SWAP1 PUSH2 0x675 SWAP1 PUSH2 0x147A JUMP JUMPDEST SWAP2 SWAP1 POP SSTORE POP PUSH0 PUSH1 0x40 MLOAD DUP1 PUSH2 0x100 ADD PUSH1 0x40 MSTORE DUP1 PUSH1 0x5 SLOAD DUP2 MSTORE PUSH1 0x20 ADD DUP10 DUP10 DUP1 DUP1 PUSH1 0x1F ADD PUSH1 0x20 DUP1 SWAP2 DIV MUL PUSH1 0x20 ADD PUSH1 0x40 MLOAD SWAP1 DUP2 ADD PUSH1 0x40 MSTORE DUP1 SWAP4 SWAP3 SWAP2 SWAP1 DUP2 DUP2 MSTORE PUSH1 0x20 ADD DUP4 DUP4 DUP1 DUP3 DUP5 CALLDATACOPY PUSH0 DUP2 DUP5 ADD MSTORE PUSH1 0x1F NOT PUSH1 0x1F DUP3 ADD AND SWAP1 POP DUP1 DUP4 ADD SWAP3 POP POP POP POP POP POP POP DUP2 MSTORE PUSH1 0x20 ADD DUP8 DUP8 DUP1 DUP1 PUSH1 0x1F ADD PUSH1 0x20 DUP1 SWAP2 DIV MUL PUSH1 0x20 ADD PUSH1 0x40 MLOAD SWAP1 DUP2 ADD PUSH1 0x40 MSTORE DUP1 SWAP4 SWAP3 SWAP2 SWAP1 DUP2 DUP2 MSTORE PUSH1 0x20 ADD DUP4 DUP4 DUP1 DUP3 DUP5 CALLDATACOPY PUSH0 DUP2 DUP5 ADD MSTORE PUSH1 0x1F NOT PUSH1 0x1F DUP3 ADD AND SWAP1 POP DUP1 DUP4 ADD SWAP3 POP POP POP POP POP POP POP DUP2 MSTORE PUSH1 0x20 ADD PUSH0 DUP2 MSTORE PUSH1 0x20 ADD DUP6 DUP2 MSTORE PUSH1 0x20 ADD PUSH0 DUP2 MSTORE PUSH1 0x20 ADD PUSH0 DUP2 MSTORE PUSH1 0x20 ADD DUP5 PUSH20 0xFFFFFFFFFFFFFFFFFFFFFFFFFFFFFFFFFFFFFFFF AND DUP2 MSTORE POP SWAP1 POP DUP1 PUSH1 0x7 PUSH0 PUSH1 0x5 SLOAD DUP2 MSTORE PUSH1 0x20 ADD SWAP1 DUP2 MSTORE PUSH1 0x20 ADD PUSH0 KECCAK256 PUSH0 DUP3 ADD MLOAD DUP2 PUSH0 ADD SSTORE PUSH1 0x20 DUP3 ADD MLOAD DUP2 PUSH1 0x1 ADD SWAP1 DUP2 PUSH2 0x786 SWAP2 SWAP1 PUSH2 0x1682 JUMP JUMPDEST POP PUSH1 0x40 DUP3 ADD MLOAD DUP2 PUSH1 0x2 ADD SWAP1 DUP2 PUSH2 0x79C SWAP2 SWAP1 PUSH2 0x1682 JUMP JUMPDEST POP PUSH1 0x60 DUP3 ADD MLOAD DUP2 PUSH1 0x3 ADD SSTORE PUSH1 0x80 DUP3 ADD MLOAD DUP2 PUSH1 0x4 ADD SSTORE PUSH1 0xA0 DUP3 ADD MLOAD DUP2 PUSH1 0x5 ADD SSTORE PUSH1 0xC0 DUP3 ADD MLOAD DUP2 PUSH1 0x6 ADD SSTORE PUSH1 0xE0 DUP3 ADD MLOAD DUP2 PUSH1 0x7 ADD PUSH0 PUSH2 0x100 EXP DUP2 SLOAD DUP2 PUSH20 0xFFFFFFFFFFFFFFFFFFFFFFFFFFFFFFFFFFFFFFFF MUL NOT AND SWAP1 DUP4 PUSH20 0xFFFFFFFFFFFFFFFFFFFFFFFFFFFFFFFFFFFFFFFF AND MUL OR SWAP1 SSTORE POP SWAP1 POP POP PUSH1 0x5 SLOAD SWAP2 POP POP SWAP7 SWAP6 POP POP POP POP POP POP JUMP JUMPDEST PUSH1 0x60 PUSH1 0x6 PUSH0 SWAP1 SLOAD SWAP1 PUSH2 0x100 EXP SWAP1 DIV PUSH1 0xFF AND PUSH2 0x86E JUMPI PUSH1 0x40 MLOAD PUSH32 0x8C379A000000000000000000000000000000000000000000000000000000000 DUP2 MSTORE PUSH1 0x4 ADD PUSH2 0x865 SWAP1 PUSH2 0x142F JUMP JUMPDEST PUSH1 0x40 MLOAD DUP1 SWAP2 SUB SWAP1 REVERT JUMPDEST SWAP1 JUMP JUMPDEST PUSH1 0x3 PUSH0 SWAP1 SLOAD SWAP1 PUSH2 0x100 EXP SWAP1 DIV PUSH20 0xFFFFFFFFFFFFFFFFFFFFFFFFFFFFFFFFFFFFFFFF AND PUSH20 0xFFFFFFFFFFFFFFFFFFFFFFFFFFFFFFFFFFFFFFFF AND CALLER PUSH20 0xFFFFFFFFFFFFFFFFFFFFFFFFFFFFFFFFFFFFFFFF AND EQ PUSH2 0x900 JUMPI PUSH1 0x40 MLOAD PUSH32 0x8C379A000000000000000000000000000000000000000000000000000000000 DUP2 MSTORE PUSH1 0x4 ADD PUSH2 0x8F7 SWAP1 PUSH2 0x179B JUMP JUMPDEST PUSH1 0x40 MLOAD DUP1 SWAP2 SUB SWAP1 REVERT JUMPDEST PUSH1 0x1 PUSH1 0x6 PUSH0 PUSH2 0x100 EXP DUP2 SLOAD DUP2 PUSH1 0xFF MUL NOT AND SWAP1 DUP4 ISZERO ISZERO MUL OR SWAP1 SSTORE POP JUMP JUMPDEST PUSH2 0x924 PUSH2 0xD71 JUMP JUMPDEST PUSH1 0x6 PUSH0 SWAP1 SLOAD SWAP1 PUSH2 0x100 EXP SWAP1 DIV PUSH1 0xFF AND PUSH2 0x972 JUMPI PUSH1 0x40 MLOAD PUSH32 0x8C379A000000000000000000000000000000000000000000000000000000000 DUP2 MSTORE PUSH1 0x4 ADD PUSH2 0x969 SWAP1 PUSH2 0x142F JUMP JUMPDEST PUSH1 0x40 MLOAD DUP1 SWAP2 SUB SWAP1 REVERT JUMPDEST PUSH1 0x7 PUSH0 DUP4 DUP2 MSTORE PUSH1 0x20 ADD SWAP1 DUP2 MSTORE PUSH1 0x20 ADD PUSH0 KECCAK256 PUSH1 0x40 MLOAD DUP1 PUSH2 0x100 ADD PUSH1 0x40 MSTORE SWAP1 DUP2 PUSH0 DUP3 ADD SLOAD DUP2 MSTORE PUSH1 0x20 ADD PUSH1 0x1 DUP3 ADD DUP1 SLOAD PUSH2 0x9A8 SWAP1 PUSH2 0x13B5 JUMP JUMPDEST DUP1 PUSH1 0x1F ADD PUSH1 0x20 DUP1 SWAP2 DIV MUL PUSH1 0x20 ADD PUSH1 0x40 MLOAD SWAP1 DUP2 ADD PUSH1 0x40 MSTORE DUP1 SWAP3 SWAP2 SWAP1 DUP2 DUP2 MSTORE PUSH1 0x20 ADD DUP3 DUP1 SLOAD PUSH2 0x9D4 SWAP1 PUSH2 0x13B5 JUMP JUMPDEST DUP1 ISZERO PUSH2 0xA1F JUMPI DUP1 PUSH1 0x1F LT PUSH2 0x9F6 JUMPI PUSH2 0x100 DUP1 DUP4 SLOAD DIV MUL DUP4 MSTORE SWAP2 PUSH1 0x20 ADD SWAP2 PUSH2 0xA1F JUMP JUMPDEST DUP3 ADD SWAP2 SWAP1 PUSH0 MSTORE PUSH1 0x20 PUSH0 KECCAK256 SWAP1 JUMPDEST DUP2 SLOAD DUP2 MSTORE SWAP1 PUSH1 0x1 ADD SWAP1 PUSH1 0x20 ADD DUP1 DUP4 GT PUSH2 0xA02 JUMPI DUP3 SWAP1 SUB PUSH1 0x1F AND DUP3 ADD SWAP2 JUMPDEST POP POP POP POP POP DUP2 MSTORE PUSH1 0x20 ADD PUSH1 0x2 DUP3 ADD DUP1 SLOAD PUSH2 0xA38 SWAP1 PUSH2 0x13B5 JUMP JUMPDEST DUP1 PUSH1 0x1F ADD PUSH1 0x20 DUP1 SWAP2 DIV MUL PUSH1 0x20 ADD PUSH1 0x40 MLOAD SWAP1 DUP2 ADD PUSH1 0x40 MSTORE DUP1 SWAP3 SWAP2 SWAP1 DUP2 DUP2 MSTORE PUSH1 0x20 ADD DUP3 DUP1 SLOAD PUSH2 0xA64 SWAP1 PUSH2 0x13B5 JUMP JUMPDEST DUP1 ISZERO PUSH2 0xAAF JUMPI DUP1 PUSH1 0x1F LT PUSH2 0xA86 JUMPI PUSH2 0x100 DUP1 DUP4 SLOAD DIV MUL DUP4 MSTORE SWAP2 PUSH1 0x20 ADD SWAP2 PUSH2 0xAAF JUMP JUMPDEST DUP3 ADD SWAP2 SWAP1 PUSH0 MSTORE PUSH1 0x20 PUSH0 KECCAK256 SWAP1 JUMPDEST DUP2 SLOAD DUP2 MSTORE SWAP1 PUSH1 0x1 ADD SWAP1 PUSH1 0x20 ADD DUP1 DUP4 GT PUSH2 0xA92 JUMPI DUP3 SWAP1 SUB PUSH1 0x1F AND DUP3 ADD SWAP2 JUMPDEST POP POP POP POP POP DUP2 MSTORE PUSH1 0x20 ADD PUSH1 0x3 DUP3 ADD SLOAD DUP2 MSTORE PUSH1 0x20 ADD PUSH1 0x4 DUP3 ADD SLOAD DUP2 MSTORE PUSH1 0x20 ADD PUSH1 0x5 DUP3 ADD SLOAD DUP2 MSTORE PUSH1 0x20 ADD PUSH1 0x6 DUP3 ADD SLOAD DUP2 MSTORE PUSH1 0x20 ADD PUSH1 0x7 DUP3 ADD PUSH0 SWAP1 SLOAD SWAP1 PUSH2 0x100 EXP SWAP1 DIV PUSH20 0xFFFFFFFFFFFFFFFFFFFFFFFFFFFFFFFFFFFFFFFF AND PUSH20 0xFFFFFFFFFFFFFFFFFFFFFFFFFFFFFFFFFFFFFFFF AND PUSH20 0xFFFFFFFFFFFFFFFFFFFFFFFFFFFFFFFFFFFFFFFF AND DUP2 MSTORE POP POP SWAP1 POP SWAP2 SWAP1 POP JUMP JUMPDEST PUSH0 DUP1 SLOAD SWAP1 PUSH2 0x100 EXP SWAP1 DIV PUSH20 0xFFFFFFFFFFFFFFFFFFFFFFFFFFFFFFFFFFFFFFFF AND DUP2 JUMP JUMPDEST PUSH1 0x3 PUSH0 SWAP1 SLOAD SWAP1 PUSH2 0x100 EXP SWAP1 DIV PUSH20 0xFFFFFFFFFFFFFFFFFFFFFFFFFFFFFFFFFFFFFFFF AND PUSH20 0xFFFFFFFFFFFFFFFFFFFFFFFFFFFFFFFFFFFFFFFF AND CALLER PUSH20 0xFFFFFFFFFFFFFFFFFFFFFFFFFFFFFFFFFFFFFFFF AND EQ PUSH2 0xBEE JUMPI PUSH1 0x40 MLOAD PUSH32 0x8C379A000000000000000000000000000000000000000000000000000000000 DUP2 MSTORE PUSH1 0x4 ADD PUSH2 0xBE5 SWAP1 PUSH2 0x179B JUMP JUMPDEST PUSH1 0x40 MLOAD DUP1 SWAP2 SUB SWAP1 REVERT JUMPDEST PUSH0 PUSH1 0x6 PUSH0 PUSH2 0x100 EXP DUP2 SLOAD DUP2 PUSH1 0xFF MUL NOT AND SWAP1 DUP4 ISZERO ISZERO MUL OR SWAP1 SSTORE POP JUMP JUMPDEST PUSH0 PUSH1 0x4 PUSH0 CALLER PUSH20 0xFFFFFFFFFFFFFFFFFFFFFFFFFFFFFFFFFFFFFFFF AND PUSH20 0xFFFFFFFFFFFFFFFFFFFFFFFFFFFFFFFFFFFFFFFF AND DUP2 MSTORE PUSH1 0x20 ADD SWAP1 DUP2 MSTORE PUSH1 0x20 ADD PUSH0 KECCAK256 SLOAD SUB PUSH2 0xC88 JUMPI PUSH1 0x40 MLOAD PUSH32 0x8C379A000000000000000000000000000000000000000000000000000000000 DUP2 MSTORE PUSH1 0x4 ADD PUSH2 0xC7F SWAP1 PUSH2 0x1829 JUMP JUMPDEST PUSH1 0x40 MLOAD DUP1 SWAP2 SUB SWAP1 REVERT JUMPDEST JUMP JUMPDEST PUSH1 0x6 PUSH0 SWAP1 SLOAD SWAP1 PUSH2 0x100 EXP SWAP1 DIV PUSH1 0xFF AND PUSH2 0xCD8 JUMPI PUSH1 0x40 MLOAD PUSH32 0x8C379A000000000000000000000000000000000000000000000000000000000 DUP2 MSTORE PUSH1 0x4 ADD PUSH2 0xCCF SWAP1 PUSH2 0x142F JUMP JUMPDEST PUSH1 0x40 MLOAD DUP1 SWAP2 SUB SWAP1 REVERT JUMPDEST POP JUMP JUMPDEST PUSH1 0x1 SLOAD CALLVALUE LT ISZERO PUSH2 0xD20 JUMPI PUSH1 0x40 MLOAD PUSH32 0x8C379A000000000000000000000000000000000000000000000000000000000 DUP2 MSTORE PUSH1 0x4 ADD PUSH2 0xD17 SWAP1 PUSH2 0x1891 JUMP JUMPDEST PUSH1 0x40 MLOAD DUP1 SWAP2 SUB SWAP1 REVERT JUMPDEST PUSH1 0x1 SLOAD CALLVALUE PUSH2 0xD2E SWAP2 SWAP1 PUSH2 0x18DC JUMP JUMPDEST PUSH1 0x4 PUSH0 CALLER PUSH20 0xFFFFFFFFFFFFFFFFFFFFFFFFFFFFFFFFFFFFFFFF AND PUSH20 0xFFFFFFFFFFFFFFFFFFFFFFFFFFFFFFFFFFFFFFFF AND DUP2 MSTORE PUSH1 0x20 ADD SWAP1 DUP2 MSTORE PUSH1 0x20 ADD PUSH0 KECCAK256 DUP2 SWAP1 SSTORE POP JUMP JUMPDEST PUSH1 0x40 MLOAD DUP1 PUSH2 0x100 ADD PUSH1 0x40 MSTORE DUP1 PUSH0 DUP2 MSTORE PUSH1 0x20 ADD PUSH1 0x60 DUP2 MSTORE PUSH1 0x20 ADD PUSH1 0x60 DUP2 MSTORE PUSH1 0x20 ADD PUSH0 DUP2 MSTORE PUSH1 0x20 ADD PUSH0 DUP2 MSTORE PUSH1 0x20 ADD PUSH0 DUP2 MSTORE PUSH1 0x20 ADD PUSH0 DUP2 MSTORE PUSH1 0x20 ADD PUSH0 PUSH20 0xFFFFFFFFFFFFFFFFFFFFFFFFFFFFFFFFFFFFFFFF AND DUP2 MSTORE POP SWAP1 JUMP JUMPDEST PUSH0 DUP1 REVERT JUMPDEST PUSH0 DUP1 REVERT JUMPDEST PUSH0 DUP2 SWAP1 POP SWAP2 SWAP1 POP JUMP JUMPDEST PUSH2 0xDE0 DUP2 PUSH2 0xDCE JUMP JUMPDEST DUP2 EQ PUSH2 0xDEA JUMPI PUSH0 DUP1 REVERT JUMPDEST POP JUMP JUMPDEST PUSH0 DUP2 CALLDATALOAD SWAP1 POP PUSH2 0xDFB DUP2 PUSH2 0xDD7 JUMP JUMPDEST SWAP3 SWAP2 POP POP JUMP JUMPDEST PUSH0 PUSH1 0x20 DUP3 DUP5 SUB SLT ISZERO PUSH2 0xE16 JUMPI PUSH2 0xE15 PUSH2 0xDC6 JUMP JUMPDEST JUMPDEST PUSH0 PUSH2 0xE23 DUP5 DUP3 DUP6 ADD PUSH2 0xDED JUMP JUMPDEST SWAP2 POP POP SWAP3 SWAP2 POP POP JUMP JUMPDEST PUSH2 0xE35 DUP2 PUSH2 0xDCE JUMP JUMPDEST DUP3 MSTORE POP POP JUMP JUMPDEST PUSH0 DUP2 MLOAD SWAP1 POP SWAP2 SWAP1 POP JUMP JUMPDEST PUSH0 DUP3 DUP3 MSTORE PUSH1 0x20 DUP3 ADD SWAP1 POP SWAP3 SWAP2 POP POP JUMP JUMPDEST DUP3 DUP2 DUP4 MCOPY PUSH0 DUP4 DUP4 ADD MSTORE POP POP POP JUMP JUMPDEST PUSH0 PUSH1 0x1F NOT PUSH1 0x1F DUP4 ADD AND SWAP1 POP SWAP2 SWAP1 POP JUMP JUMPDEST PUSH0 PUSH2 0xE7D DUP3 PUSH2 0xE3B JUMP JUMPDEST PUSH2 0xE87 DUP2 DUP6 PUSH2 0xE45 JUMP JUMPDEST SWAP4 POP PUSH2 0xE97 DUP2 DUP6 PUSH1 0x20 DUP7 ADD PUSH2 0xE55 JUMP JUMPDEST PUSH2 0xEA0 DUP2 PUSH2 0xE63 JUMP JUMPDEST DUP5 ADD SWAP2 POP POP SWAP3 SWAP2 POP POP JUMP JUMPDEST PUSH0 PUSH20 0xFFFFFFFFFFFFFFFFFFFFFFFFFFFFFFFFFFFFFFFF DUP3 AND SWAP1 POP SWAP2 SWAP1 POP JUMP JUMPDEST PUSH0 PUSH2 0xED4 DUP3 PUSH2 0xEAB JUMP JUMPDEST SWAP1 POP SWAP2 SWAP1 POP JUMP JUMPDEST PUSH2 0xEE4 DUP2 PUSH2 0xECA JUMP JUMPDEST DUP3 MSTORE POP POP JUMP JUMPDEST PUSH0 PUSH2 0x100 DUP3 ADD SWAP1 POP PUSH2 0xEFE PUSH0 DUP4 ADD DUP12 PUSH2 0xE2C JUMP JUMPDEST DUP2 DUP2 SUB PUSH1 0x20 DUP4 ADD MSTORE PUSH2 0xF10 DUP2 DUP11 PUSH2 0xE73 JUMP JUMPDEST SWAP1 POP DUP2 DUP2 SUB PUSH1 0x40 DUP4 ADD MSTORE PUSH2 0xF24 DUP2 DUP10 PUSH2 0xE73 JUMP JUMPDEST SWAP1 POP PUSH2 0xF33 PUSH1 0x60 DUP4 ADD DUP9 PUSH2 0xE2C JUMP JUMPDEST PUSH2 0xF40 PUSH1 0x80 DUP4 ADD DUP8 PUSH2 0xE2C JUMP JUMPDEST PUSH2 0xF4D PUSH1 0xA0 DUP4 ADD DUP7 PUSH2 0xE2C JUMP JUMPDEST PUSH2 0xF5A PUSH1 0xC0 DUP4 ADD DUP6 PUSH2 0xE2C JUMP JUMPDEST PUSH2 0xF67 PUSH1 0xE0 DUP4 ADD DUP5 PUSH2 0xEDB JUMP JUMPDEST SWAP10 SWAP9 POP POP POP POP POP POP POP POP POP JUMP JUMPDEST PUSH0 DUP2 MLOAD SWAP1 POP SWAP2 SWAP1 POP JUMP JUMPDEST PUSH0 DUP3 DUP3 MSTORE PUSH1 0x20 DUP3 ADD SWAP1 POP SWAP3 SWAP2 POP POP JUMP JUMPDEST PUSH0 DUP2 SWAP1 POP PUSH1 0x20 DUP3 ADD SWAP1 POP SWAP2 SWAP1 POP JUMP JUMPDEST PUSH2 0xFA6 DUP2 PUSH2 0xDCE JUMP JUMPDEST DUP3 MSTORE POP POP JUMP JUMPDEST PUSH0 PUSH2 0xFB7 DUP4 DUP4 PUSH2 0xF9D JUMP JUMPDEST PUSH1 0x20 DUP4 ADD SWAP1 POP SWAP3 SWAP2 POP POP JUMP JUMPDEST PUSH0 PUSH1 0x20 DUP3 ADD SWAP1 POP SWAP2 SWAP1 POP JUMP JUMPDEST PUSH0 PUSH2 0xFD9 DUP3 PUSH2 0xF74 JUMP JUMPDEST PUSH2 0xFE3 DUP2 DUP6 PUSH2 0xF7E JUMP JUMPDEST SWAP4 POP PUSH2 0xFEE DUP4 PUSH2 0xF8E JUMP JUMPDEST DUP1 PUSH0 JUMPDEST DUP4 DUP2 LT ISZERO PUSH2 0x101E JUMPI DUP2 MLOAD PUSH2 0x1005 DUP9 DUP3 PUSH2 0xFAC JUMP JUMPDEST SWAP8 POP PUSH2 0x1010 DUP4 PUSH2 0xFC3 JUMP JUMPDEST SWAP3 POP POP PUSH1 0x1 DUP2 ADD SWAP1 POP PUSH2 0xFF1 JUMP JUMPDEST POP DUP6 SWAP4 POP POP POP POP SWAP3 SWAP2 POP POP JUMP JUMPDEST PUSH0 PUSH1 0x20 DUP3 ADD SWAP1 POP DUP2 DUP2 SUB PUSH0 DUP4 ADD MSTORE PUSH2 0x1043 DUP2 DUP5 PUSH2 0xFCF JUMP JUMPDEST SWAP1 POP SWAP3 SWAP2 POP POP JUMP JUMPDEST PUSH0 PUSH1 0x20 DUP3 ADD SWAP1 POP PUSH2 0x105E PUSH0 DUP4 ADD DUP5 PUSH2 0xEDB JUMP JUMPDEST SWAP3 SWAP2 POP POP JUMP JUMPDEST PUSH0 DUP1 PUSH1 0x40 DUP4 DUP6 SUB SLT ISZERO PUSH2 0x107A JUMPI PUSH2 0x1079 PUSH2 0xDC6 JUMP JUMPDEST JUMPDEST PUSH0 PUSH2 0x1087 DUP6 DUP3 DUP7 ADD PUSH2 0xDED JUMP JUMPDEST SWAP3 POP POP PUSH1 0x20 PUSH2 0x1098 DUP6 DUP3 DUP7 ADD PUSH2 0xDED JUMP JUMPDEST SWAP2 POP POP SWAP3 POP SWAP3 SWAP1 POP JUMP JUMPDEST PUSH0 DUP1 REVERT JUMPDEST PUSH0 DUP1 REVERT JUMPDEST PUSH0 DUP1 REVERT JUMPDEST PUSH0 DUP1 DUP4 PUSH1 0x1F DUP5 ADD SLT PUSH2 0x10C3 JUMPI PUSH2 0x10C2 PUSH2 0x10A2 JUMP JUMPDEST JUMPDEST DUP3 CALLDATALOAD SWAP1 POP PUSH8 0xFFFFFFFFFFFFFFFF DUP2 GT ISZERO PUSH2 0x10E0 JUMPI PUSH2 0x10DF PUSH2 0x10A6 JUMP JUMPDEST JUMPDEST PUSH1 0x20 DUP4 ADD SWAP2 POP DUP4 PUSH1 0x1 DUP3 MUL DUP4 ADD GT ISZERO PUSH2 0x10FC JUMPI PUSH2 0x10FB PUSH2 0x10AA JUMP JUMPDEST JUMPDEST SWAP3 POP SWAP3 SWAP1 POP JUMP JUMPDEST PUSH2 0x110C DUP2 PUSH2 0xECA JUMP JUMPDEST DUP2 EQ PUSH2 0x1116 JUMPI PUSH0 DUP1 REVERT JUMPDEST POP JUMP JUMPDEST PUSH0 DUP2 CALLDATALOAD SWAP1 POP PUSH2 0x1127 DUP2 PUSH2 0x1103 JUMP JUMPDEST SWAP3 SWAP2 POP POP JUMP JUMPDEST PUSH0 DUP1 PUSH0 DUP1 PUSH0 DUP1 PUSH1 0x80 DUP8 DUP10 SUB SLT ISZERO PUSH2 0x1147 JUMPI PUSH2 0x1146 PUSH2 0xDC6 JUMP JUMPDEST JUMPDEST PUSH0 DUP8 ADD CALLDATALOAD PUSH8 0xFFFFFFFFFFFFFFFF DUP2 GT ISZERO PUSH2 0x1164 JUMPI PUSH2 0x1163 PUSH2 0xDCA JUMP JUMPDEST JUMPDEST PUSH2 0x1170 DUP10 DUP3 DUP11 ADD PUSH2 0x10AE JUMP JUMPDEST SWAP7 POP SWAP7 POP POP PUSH1 0x20 DUP8 ADD CALLDATALOAD PUSH8 0xFFFFFFFFFFFFFFFF DUP2 GT ISZERO PUSH2 0x1193 JUMPI PUSH2 0x1192 PUSH2 0xDCA JUMP JUMPDEST JUMPDEST PUSH2 0x119F DUP10 DUP3 DUP11 ADD PUSH2 0x10AE JUMP JUMPDEST SWAP5 POP SWAP5 POP POP PUSH1 0x40 PUSH2 0x11B2 DUP10 DUP3 DUP11 ADD PUSH2 0xDED JUMP JUMPDEST SWAP3 POP POP PUSH1 0x60 PUSH2 0x11C3 DUP10 DUP3 DUP11 ADD PUSH2 0x1119 JUMP JUMPDEST SWAP2 POP POP SWAP3 SWAP6 POP SWAP3 SWAP6 POP SWAP3 SWAP6 JUMP JUMPDEST PUSH0 PUSH1 0x20 DUP3 ADD SWAP1 POP PUSH2 0x11E3 PUSH0 DUP4 ADD DUP5 PUSH2 0xE2C JUMP JUMPDEST SWAP3 SWAP2 POP POP JUMP JUMPDEST PUSH0 DUP3 DUP3 MSTORE PUSH1 0x20 DUP3 ADD SWAP1 POP SWAP3 SWAP2 POP POP JUMP JUMPDEST PUSH0 PUSH2 0x1203 DUP3 PUSH2 0xE3B JUMP JUMPDEST PUSH2 0x120D DUP2 DUP6 PUSH2 0x11E9 JUMP JUMPDEST SWAP4 POP PUSH2 0x121D DUP2 DUP6 PUSH1 0x20 DUP7 ADD PUSH2 0xE55 JUMP JUMPDEST PUSH2 0x1226 DUP2 PUSH2 0xE63 JUMP JUMPDEST DUP5 ADD SWAP2 POP POP SWAP3 SWAP2 POP POP JUMP JUMPDEST PUSH2 0x123A DUP2 PUSH2 0xECA JUMP JUMPDEST DUP3 MSTORE POP POP JUMP JUMPDEST PUSH0 PUSH2 0x100 DUP4 ADD PUSH0 DUP4 ADD MLOAD PUSH2 0x1256 PUSH0 DUP7 ADD DUP3 PUSH2 0xF9D JUMP JUMPDEST POP PUSH1 0x20 DUP4 ADD MLOAD DUP5 DUP3 SUB PUSH1 0x20 DUP7 ADD MSTORE PUSH2 0x126E DUP3 DUP3 PUSH2 0x11F9 JUMP JUMPDEST SWAP2 POP POP PUSH1 0x40 DUP4 ADD MLOAD DUP5 DUP3 SUB PUSH1 0x40 DUP7 ADD MSTORE PUSH2 0x1288 DUP3 DUP3 PUSH2 0x11F9 JUMP JUMPDEST SWAP2 POP POP PUSH1 0x60 DUP4 ADD MLOAD PUSH2 0x129D PUSH1 0x60 DUP7 ADD DUP3 PUSH2 0xF9D JUMP JUMPDEST POP PUSH1 0x80 DUP4 ADD MLOAD PUSH2 0x12B0 PUSH1 0x80 DUP7 ADD DUP3 PUSH2 0xF9D JUMP JUMPDEST POP PUSH1 0xA0 DUP4 ADD MLOAD PUSH2 0x12C3 PUSH1 0xA0 DUP7 ADD DUP3 PUSH2 0xF9D JUMP JUMPDEST POP PUSH1 0xC0 DUP4 ADD MLOAD PUSH2 0x12D6 PUSH1 0xC0 DUP7 ADD DUP3 PUSH2 0xF9D JUMP JUMPDEST POP PUSH1 0xE0 DUP4 ADD MLOAD PUSH2 0x12E9 PUSH1 0xE0 DUP7 ADD DUP3 PUSH2 0x1231 JUMP JUMPDEST POP DUP1 SWAP2 POP POP SWAP3 SWAP2 POP POP JUMP JUMPDEST PUSH0 PUSH1 0x20 DUP3 ADD SWAP1 POP DUP2 DUP2 SUB PUSH0 DUP4 ADD MSTORE PUSH2 0x130C DUP2 DUP5 PUSH2 0x1240 JUMP JUMPDEST SWAP1 POP SWAP3 SWAP2 POP POP JUMP JUMPDEST PUSH0 DUP2 SWAP1 POP SWAP2 SWAP1 POP JUMP JUMPDEST PUSH0 PUSH2 0x1337 PUSH2 0x1332 PUSH2 0x132D DUP5 PUSH2 0xEAB JUMP JUMPDEST PUSH2 0x1314 JUMP JUMPDEST PUSH2 0xEAB JUMP JUMPDEST SWAP1 POP SWAP2 SWAP1 POP JUMP JUMPDEST PUSH0 PUSH2 0x1348 DUP3 PUSH2 0x131D JUMP JUMPDEST SWAP1 POP SWAP2 SWAP1 POP JUMP JUMPDEST PUSH0 PUSH2 0x1359 DUP3 PUSH2 0x133E JUMP JUMPDEST SWAP1 POP SWAP2 SWAP1 POP JUMP JUMPDEST PUSH2 0x1369 DUP2 PUSH2 0x134F JUMP JUMPDEST DUP3 MSTORE POP POP JUMP JUMPDEST PUSH0 PUSH1 0x20 DUP3 ADD SWAP1 POP PUSH2 0x1382 PUSH0 DUP4 ADD DUP5 PUSH2 0x1360 JUMP JUMPDEST SWAP3 SWAP2 POP POP JUMP JUMPDEST PUSH32 0x4E487B7100000000000000000000000000000000000000000000000000000000 PUSH0 MSTORE PUSH1 0x22 PUSH1 0x4 MSTORE PUSH1 0x24 PUSH0 REVERT JUMPDEST PUSH0 PUSH1 0x2 DUP3 DIV SWAP1 POP PUSH1 0x1 DUP3 AND DUP1 PUSH2 0x13CC JUMPI PUSH1 0x7F DUP3 AND SWAP2 POP JUMPDEST PUSH1 0x20 DUP3 LT DUP2 SUB PUSH2 0x13DF JUMPI PUSH2 0x13DE PUSH2 0x1388 JUMP JUMPDEST JUMPDEST POP SWAP2 SWAP1 POP JUMP JUMPDEST PUSH32 0x566F74696E67206973206E6F74206F70656E6564000000000000000000000000 PUSH0 DUP3 ADD MSTORE POP JUMP JUMPDEST PUSH0 PUSH2 0x1419 PUSH1 0x14 DUP4 PUSH2 0xE45 JUMP JUMPDEST SWAP2 POP PUSH2 0x1424 DUP3 PUSH2 0x13E5 JUMP JUMPDEST PUSH1 0x20 DUP3 ADD SWAP1 POP SWAP2 SWAP1 POP JUMP JUMPDEST PUSH0 PUSH1 0x20 DUP3 ADD SWAP1 POP DUP2 DUP2 SUB PUSH0 DUP4 ADD MSTORE PUSH2 0x1446 DUP2 PUSH2 0x140D JUMP JUMPDEST SWAP1 POP SWAP2 SWAP1 POP JUMP JUMPDEST PUSH32 0x4E487B7100000000000000000000000000000000000000000000000000000000 PUSH0 MSTORE PUSH1 0x11 PUSH1 0x4 MSTORE PUSH1 0x24 PUSH0 REVERT JUMPDEST PUSH0 PUSH2 0x1484 DUP3 PUSH2 0xDCE JUMP JUMPDEST SWAP2 POP PUSH32 0xFFFFFFFFFFFFFFFFFFFFFFFFFFFFFFFFFFFFFFFFFFFFFFFFFFFFFFFFFFFFFFFF DUP3 SUB PUSH2 0x14B6 JUMPI PUSH2 0x14B5 PUSH2 0x144D JUMP JUMPDEST JUMPDEST PUSH1 0x1 DUP3 ADD SWAP1 POP SWAP2 SWAP1 POP JUMP JUMPDEST PUSH32 0x4E487B7100000000000000000000000000000000000000000000000000000000 PUSH0 MSTORE PUSH1 0x41 PUSH1 0x4 MSTORE PUSH1 0x24 PUSH0 REVERT JUMPDEST PUSH0 DUP2 SWAP1 POP DUP2 PUSH0 MSTORE PUSH1 0x20 PUSH0 KECCAK256 SWAP1 POP SWAP2 SWAP1 POP JUMP JUMPDEST PUSH0 PUSH1 0x20 PUSH1 0x1F DUP4 ADD DIV SWAP1 POP SWAP2 SWAP1 POP JUMP JUMPDEST PUSH0 DUP3 DUP3 SHL SWAP1 POP SWAP3 SWAP2 POP POP JUMP JUMPDEST PUSH0 PUSH1 0x8 DUP4 MUL PUSH2 0x154A PUSH32 0xFFFFFFFFFFFFFFFFFFFFFFFFFFFFFFFFFFFFFFFFFFFFFFFFFFFFFFFFFFFFFFFF DUP3 PUSH2 0x150F JUMP JUMPDEST PUSH2 0x1554 DUP7 DUP4 PUSH2 0x150F JUMP JUMPDEST SWAP6 POP DUP1 NOT DUP5 AND SWAP4 POP DUP1 DUP7 AND DUP5 OR SWAP3 POP POP POP SWAP4 SWAP3 POP POP POP JUMP JUMPDEST PUSH0 PUSH2 0x1586 PUSH2 0x1581 PUSH2 0x157C DUP5 PUSH2 0xDCE JUMP JUMPDEST PUSH2 0x1314 JUMP JUMPDEST PUSH2 0xDCE JUMP JUMPDEST SWAP1 POP SWAP2 SWAP1 POP JUMP JUMPDEST PUSH0 DUP2 SWAP1 POP SWAP2 SWAP1 POP JUMP JUMPDEST PUSH2 0x159F DUP4 PUSH2 0x156C JUMP JUMPDEST PUSH2 0x15B3 PUSH2 0x15AB DUP3 PUSH2 0x158D JUMP JUMPDEST DUP5 DUP5 SLOAD PUSH2 0x151B JUMP JUMPDEST DUP3 SSTORE POP POP POP POP JUMP JUMPDEST PUSH0 SWAP1 JUMP JUMPDEST PUSH2 0x15C7 PUSH2 0x15BB JUMP JUMPDEST PUSH2 0x15D2 DUP2 DUP5 DUP5 PUSH2 0x1596 JUMP JUMPDEST POP POP POP JUMP JUMPDEST JUMPDEST DUP2 DUP2 LT ISZERO PUSH2 0x15F5 JUMPI PUSH2 0x15EA PUSH0 DUP3 PUSH2 0x15BF JUMP JUMPDEST PUSH1 0x1 DUP2 ADD SWAP1 POP PUSH2 0x15D8 JUMP JUMPDEST POP POP JUMP JUMPDEST PUSH1 0x1F DUP3 GT ISZERO PUSH2 0x163A JUMPI PUSH2 0x160B DUP2 PUSH2 0x14EE JUMP JUMPDEST PUSH2 0x1614 DUP5 PUSH2 0x1500 JUMP JUMPDEST DUP2 ADD PUSH1 0x20 DUP6 LT ISZERO PUSH2 0x1623 JUMPI DUP2 SWAP1 POP JUMPDEST PUSH2 0x1637 PUSH2 0x162F DUP6 PUSH2 0x1500 JUMP JUMPDEST DUP4 ADD DUP3 PUSH2 0x15D7 JUMP JUMPDEST POP POP JUMPDEST POP POP POP JUMP JUMPDEST PUSH0 DUP3 DUP3 SHR SWAP1 POP SWAP3 SWAP2 POP POP JUMP JUMPDEST PUSH0 PUSH2 0x165A PUSH0 NOT DUP5 PUSH1 0x8 MUL PUSH2 0x163F JUMP JUMPDEST NOT DUP1 DUP4 AND SWAP2 POP POP SWAP3 SWAP2 POP POP JUMP JUMPDEST PUSH0 PUSH2 0x1672 DUP4 DUP4 PUSH2 0x164B JUMP JUMPDEST SWAP2 POP DUP3 PUSH1 0x2 MUL DUP3 OR SWAP1 POP SWAP3 SWAP2 POP POP JUMP JUMPDEST PUSH2 0x168B DUP3 PUSH2 0xE3B JUMP JUMPDEST PUSH8 0xFFFFFFFFFFFFFFFF DUP2 GT ISZERO PUSH2 0x16A4 JUMPI PUSH2 0x16A3 PUSH2 0x14C1 JUMP JUMPDEST JUMPDEST PUSH2 0x16AE DUP3 SLOAD PUSH2 0x13B5 JUMP JUMPDEST PUSH2 0x16B9 DUP3 DUP3 DUP6 PUSH2 0x15F9 JUMP JUMPDEST PUSH0 PUSH1 0x20 SWAP1 POP PUSH1 0x1F DUP4 GT PUSH1 0x1 DUP2 EQ PUSH2 0x16EA JUMPI PUSH0 DUP5 ISZERO PUSH2 0x16D8 JUMPI DUP3 DUP8 ADD MLOAD SWAP1 POP JUMPDEST PUSH2 0x16E2 DUP6 DUP3 PUSH2 0x1667 JUMP JUMPDEST DUP7 SSTORE POP PUSH2 0x1749 JUMP JUMPDEST PUSH1 0x1F NOT DUP5 AND PUSH2 0x16F8 DUP7 PUSH2 0x14EE JUMP JUMPDEST PUSH0 JUMPDEST DUP3 DUP2 LT ISZERO PUSH2 0x171F JUMPI DUP5 DUP10 ADD MLOAD DUP3 SSTORE PUSH1 0x1 DUP3 ADD SWAP2 POP PUSH1 0x20 DUP6 ADD SWAP5 POP PUSH1 0x20 DUP2 ADD SWAP1 POP PUSH2 0x16FA JUMP JUMPDEST DUP7 DUP4 LT ISZERO PUSH2 0x173C JUMPI DUP5 DUP10 ADD MLOAD PUSH2 0x1738 PUSH1 0x1F DUP10 AND DUP3 PUSH2 0x164B JUMP JUMPDEST DUP4 SSTORE POP JUMPDEST PUSH1 0x1 PUSH1 0x2 DUP9 MUL ADD DUP9 SSTORE POP POP POP JUMPDEST POP POP POP POP POP POP JUMP JUMPDEST PUSH32 0x4E6F74206F776E65720000000000000000000000000000000000000000000000 PUSH0 DUP3 ADD MSTORE POP JUMP JUMPDEST PUSH0 PUSH2 0x1785 PUSH1 0x9 DUP4 PUSH2 0xE45 JUMP JUMPDEST SWAP2 POP PUSH2 0x1790 DUP3 PUSH2 0x1751 JUMP JUMPDEST PUSH1 0x20 DUP3 ADD SWAP1 POP SWAP2 SWAP1 POP JUMP JUMPDEST PUSH0 PUSH1 0x20 DUP3 ADD SWAP1 POP DUP2 DUP2 SUB PUSH0 DUP4 ADD MSTORE PUSH2 0x17B2 DUP2 PUSH2 0x1779 JUMP JUMPDEST SWAP1 POP SWAP2 SWAP1 POP JUMP JUMPDEST PUSH32 0x45737465207061727469636970616E7465206E6F206573746120696E73637269 PUSH0 DUP3 ADD MSTORE PUSH32 0x746F20656E206C6120766F746163696F6E000000000000000000000000000000 PUSH1 0x20 DUP3 ADD MSTORE POP JUMP JUMPDEST PUSH0 PUSH2 0x1813 PUSH1 0x31 DUP4 PUSH2 0xE45 JUMP JUMPDEST SWAP2 POP PUSH2 0x181E DUP3 PUSH2 0x17B9 JUMP JUMPDEST PUSH1 0x40 DUP3 ADD SWAP1 POP SWAP2 SWAP1 POP JUMP JUMPDEST PUSH0 PUSH1 0x20 DUP3 ADD SWAP1 POP DUP2 DUP2 SUB PUSH0 DUP4 ADD MSTORE PUSH2 0x1840 DUP2 PUSH2 0x1807 JUMP JUMPDEST SWAP1 POP SWAP2 SWAP1 POP JUMP JUMPDEST PUSH32 0x4E6F20737566696369656E742066756E64730000000000000000000000000000 PUSH0 DUP3 ADD MSTORE POP JUMP JUMPDEST PUSH0 PUSH2 0x187B PUSH1 0x12 DUP4 PUSH2 0xE45 JUMP JUMPDEST SWAP2 POP PUSH2 0x1886 DUP3 PUSH2 0x1847 JUMP JUMPDEST PUSH1 0x20 DUP3 ADD SWAP1 POP SWAP2 SWAP1 POP JUMP JUMPDEST PUSH0 PUSH1 0x20 DUP3 ADD SWAP1 POP DUP2 DUP2 SUB PUSH0 DUP4 ADD MSTORE PUSH2 0x18A8 DUP2 PUSH2 0x186F JUMP JUMPDEST SWAP1 POP SWAP2 SWAP1 POP JUMP JUMPDEST PUSH32 0x4E487B7100000000000000000000000000000000000000000000000000000000 PUSH0 MSTORE PUSH1 0x12 PUSH1 0x4 MSTORE PUSH1 0x24 PUSH0 REVERT JUMPDEST PUSH0 PUSH2 0x18E6 DUP3 PUSH2 0xDCE JUMP JUMPDEST SWAP2 POP PUSH2 0x18F1 DUP4 PUSH2 0xDCE JUMP JUMPDEST SWAP3 POP DUP3 PUSH2 0x1901 JUMPI PUSH2 0x1900 PUSH2 0x18AF JUMP JUMPDEST JUMPDEST DUP3 DUP3 DIV SWAP1 POP SWAP3 SWAP2 POP POP JUMP INVALID LOG2 PUSH5 0x6970667358 0x22 SLT KECCAK256 SIGNEXTEND 0x29 GASPRICE 0xE4 PUSH27 0x10A9A79C61E490F7C31404A08BEA1EA4682900EDBBA633B3C2D025 PUSH5 0x736F6C6343 STOP ADDMOD BYTE STOP CALLER "
		},
		"gasEstimates": {
			"creation": {
				"codeDepositCost": "1293200",
				"executionCost": "54890",
				"totalCost": "1348090"
			},
			"external": {
				"addParticipant()": "infinite",
				"addProposal(string,string,uint256,address)": "infinite",
				"approve()": "189",
				"buyTokens()": "2720",
				"cancelProposal(uint256)": "2923",
				"closeVoting()": "26621",
				"getApprovedProposals()": "infinite",
				"getERC20()": "395",
				"getPendingProposals()": "infinite",
				"getProposalInfo(uint256)": "infinite",
				"openVoting()": "26645",
				"proposals(uint256)": "infinite",
				"removeParticipant()": "5328",
				"sellTokens()": "2441",
				"stake(uint256,uint256)": "infinite",
				"votingContract()": "infinite",
				"withdrawFromProposal(uint256,uint256)": "infinite"
			},
			"internal": {
				"_checkAndExecuteProposal()": "infinite"
			}
		},
		"methodIdentifiers": {
			"addParticipant()": "fffefd91",
			"addProposal(string,string,uint256,address)": "9ab3f7a6",
			"approve()": "12424e3f",
			"buyTokens()": "d0febe4c",
			"cancelProposal(uint256)": "e0a8f6f5",
			"closeVoting()": "c631b292",
			"getApprovedProposals()": "3ac0feac",
			"getERC20()": "4ece90a8",
			"getPendingProposals()": "a80db6fc",
			"getProposalInfo(uint256)": "bc903cb8",
			"openVoting()": "affc0670",
			"proposals(uint256)": "013cf08b",
			"removeParticipant()": "3d571e97",
			"sellTokens()": "9904e174",
			"stake(uint256,uint256)": "7b0472f0",
			"votingContract()": "c1fc006a",
			"withdrawFromProposal(uint256,uint256)": "649c649c"
		}
	},
	"abi": [
		{
			"inputs": [],
			"stateMutability": "nonpayable",
			"type": "constructor"
		},
		{
			"inputs": [],
			"name": "addParticipant",
			"outputs": [],
			"stateMutability": "payable",
			"type": "function"
		},
		{
			"inputs": [
				{
					"internalType": "string",
					"name": "title",
					"type": "string"
				},
				{
					"internalType": "string",
					"name": "description",
					"type": "string"
				},
				{
					"internalType": "uint256",
					"name": "budget",
					"type": "uint256"
				},
				{
					"internalType": "address",
					"name": "contr",
					"type": "address"
				}
			],
			"name": "addProposal",
			"outputs": [
				{
					"internalType": "uint256",
					"name": "",
					"type": "uint256"
				}
			],
			"stateMutability": "nonpayable",
			"type": "function"
		},
		{
			"inputs": [],
			"name": "approve",
			"outputs": [],
			"stateMutability": "view",
			"type": "function"
		},
		{
			"inputs": [],
			"name": "buyTokens",
			"outputs": [],
			"stateMutability": "view",
			"type": "function"
		},
		{
			"inputs": [
				{
					"internalType": "uint256",
					"name": "idProposal",
					"type": "uint256"
				}
			],
			"name": "cancelProposal",
			"outputs": [],
			"stateMutability": "nonpayable",
			"type": "function"
		},
		{
			"inputs": [],
			"name": "closeVoting",
			"outputs": [],
			"stateMutability": "nonpayable",
			"type": "function"
		},
		{
			"inputs": [],
			"name": "getApprovedProposals",
			"outputs": [
				{
					"internalType": "uint256[]",
					"name": "approvedIdentifiers",
					"type": "uint256[]"
				}
			],
			"stateMutability": "view",
			"type": "function"
		},
		{
			"inputs": [],
			"name": "getERC20",
			"outputs": [
				{
					"internalType": "address",
					"name": "",
					"type": "address"
				}
			],
			"stateMutability": "nonpayable",
			"type": "function"
		},
		{
			"inputs": [],
			"name": "getPendingProposals",
			"outputs": [
				{
					"internalType": "uint256[]",
					"name": "pendingIdentifiers",
					"type": "uint256[]"
				}
			],
			"stateMutability": "view",
			"type": "function"
		},
		{
			"inputs": [
				{
					"internalType": "uint256",
					"name": "idProposal",
					"type": "uint256"
				}
			],
			"name": "getProposalInfo",
			"outputs": [
				{
					"components": [
						{
							"internalType": "uint256",
							"name": "id",
							"type": "uint256"
						},
						{
							"internalType": "string",
							"name": "_title",
							"type": "string"
						},
						{
							"internalType": "string",
							"name": "_description",
							"type": "string"
						},
						{
							"internalType": "uint256",
							"name": "_participants",
							"type": "uint256"
						},
						{
							"internalType": "uint256",
							"name": "_budget",
							"type": "uint256"
						},
						{
							"internalType": "uint256",
							"name": "_votes",
							"type": "uint256"
						},
						{
							"internalType": "uint256",
							"name": "_umbral",
							"type": "uint256"
						},
						{
							"internalType": "address",
							"name": "_contractProposal",
							"type": "address"
						}
					],
					"internalType": "struct QuadraticVoting.Proposal",
					"name": "p",
					"type": "tuple"
				}
			],
			"stateMutability": "view",
			"type": "function"
		},
		{
			"inputs": [],
			"name": "openVoting",
			"outputs": [],
			"stateMutability": "nonpayable",
			"type": "function"
		},
		{
			"inputs": [
				{
					"internalType": "uint256",
					"name": "",
					"type": "uint256"
				}
			],
			"name": "proposals",
			"outputs": [
				{
					"internalType": "uint256",
					"name": "id",
					"type": "uint256"
				},
				{
					"internalType": "string",
					"name": "_title",
					"type": "string"
				},
				{
					"internalType": "string",
					"name": "_description",
					"type": "string"
				},
				{
					"internalType": "uint256",
					"name": "_participants",
					"type": "uint256"
				},
				{
					"internalType": "uint256",
					"name": "_budget",
					"type": "uint256"
				},
				{
					"internalType": "uint256",
					"name": "_votes",
					"type": "uint256"
				},
				{
					"internalType": "uint256",
					"name": "_umbral",
					"type": "uint256"
				},
				{
					"internalType": "address",
					"name": "_contractProposal",
					"type": "address"
				}
			],
			"stateMutability": "view",
			"type": "function"
		},
		{
			"inputs": [],
			"name": "removeParticipant",
			"outputs": [],
			"stateMutability": "nonpayable",
			"type": "function"
		},
		{
			"inputs": [],
			"name": "sellTokens",
			"outputs": [],
			"stateMutability": "view",
			"type": "function"
		},
		{
			"inputs": [
				{
					"internalType": "uint256",
					"name": "idProposal",
					"type": "uint256"
				},
				{
					"internalType": "uint256",
					"name": "voteAmount",
					"type": "uint256"
				}
			],
			"name": "stake",
			"outputs": [],
			"stateMutability": "nonpayable",
			"type": "function"
		},
		{
			"inputs": [],
			"name": "votingContract",
			"outputs": [
				{
					"internalType": "contract VotingContract",
					"name": "",
					"type": "address"
				}
			],
			"stateMutability": "view",
			"type": "function"
		},
		{
			"inputs": [
				{
					"internalType": "uint256",
					"name": "voteAmount",
					"type": "uint256"
				},
				{
					"internalType": "uint256",
					"name": "idProposal",
					"type": "uint256"
				}
			],
			"name": "withdrawFromProposal",
			"outputs": [],
			"stateMutability": "nonpayable",
			"type": "function"
		}
	]
}