{
	"data": {
		"bytecode": {
			"linkReferences": {},
			"object": "60a06040525f600e5f6101000a81548160ff021916908315150217905550348015610028575f80fd5b50604051617f6a380380617f6a833981810160405281019061004a91906101d7565b5f821161008c576040517f08c379a00000000000000000000000000000000000000000000000000000000081526004016100839061026f565b60405180910390fd5b5f81116100ce576040517f08c379a00000000000000000000000000000000000000000000000000000000081526004016100c5906102d7565b60405180910390fd5b3373ffffffffffffffffffffffffffffffffffffffff1660808173ffffffffffffffffffffffffffffffffffffffff16815250505f60025f6101000a81548160ff021916908315150217905550818160405161012990610193565b610134929190610398565b604051809103905ff08015801561014d573d5f803e3d5ffd5b505f806101000a81548173ffffffffffffffffffffffffffffffffffffffff021916908373ffffffffffffffffffffffffffffffffffffffff16021790555050506103e5565b611da6806161c483390190565b5f80fd5b5f819050919050565b6101b6816101a4565b81146101c0575f80fd5b50565b5f815190506101d1816101ad565b92915050565b5f80604083850312156101ed576101ec6101a0565b5b5f6101fa858286016101c3565b925050602061020b858286016101c3565b9150509250929050565b5f82825260208201905092915050565b7f50726563696f20746f6b656e73206861206465207365723e30000000000000005f82015250565b5f610259601983610215565b915061026482610225565b602082019050919050565b5f6020820190508181035f8301526102868161024d565b9050919050565b7f546f6b656e73203e206365726f000000000000000000000000000000000000005f82015250565b5f6102c1600d83610215565b91506102cc8261028d565b602082019050919050565b5f6020820190508181035f8301526102ee816102b5565b9050919050565b7f44414f00000000000000000000000000000000000000000000000000000000005f82015250565b5f610329600383610215565b9150610334826102f5565b602082019050919050565b7f44565400000000000000000000000000000000000000000000000000000000005f82015250565b5f610373600383610215565b915061037e8261033f565b602082019050919050565b610392816101a4565b82525050565b5f6080820190508181035f8301526103af8161031d565b905081810360208301526103c281610367565b90506103d16040830185610389565b6103de6060830184610389565b9392505050565b608051615db961040b5f395f8181611d0b015281816122100152612b6c0152615db95ff3fe6080604052600436106100fd575f3560e01c8063973e9b8b11610094578063bc903cb811610063578063bc903cb8146102e3578063c631b2921461031f578063d0febe4c14610335578063e0a8f6f51461033f578063fffefd9114610367576100fd565b8063973e9b8b146102495780639ab3f7a614610273578063a80db6fc146102af578063affc0670146102d9576100fd565b8063649c649c116100d0578063649c649c146101a75780636c11bcd3146101cf5780637b0472f0146101f75780638e08a50b1461021f576100fd565b80633ac0feac146101015780633d571e971461012b5780634ece90a81461014157806352cb42bc1461016b575b5f80fd5b34801561010c575f80fd5b50610115610371565b604051610122919061428d565b60405180910390f35b348015610136575f80fd5b5061013f610415565b005b34801561014c575f80fd5b5061015561050b565b6040516101629190614327565b60405180910390f35b348015610176575f80fd5b50610191600480360381019061018c9190614383565b610532565b60405161019e91906143bd565b60405180910390f35b3480156101b2575f80fd5b506101cd60048036038101906101c89190614400565b61065a565b005b3480156101da575f80fd5b506101f560048036038101906101f0919061443e565b610d60565b005b348015610202575f80fd5b5061021d60048036038101906102189190614400565b611198565b005b34801561022a575f80fd5b506102336116e7565b604051610240919061428d565b60405180910390f35b348015610254575f80fd5b5061025d61178b565b60405161026a91906143bd565b60405180910390f35b34801561027e575f80fd5b50610299600480360381019061029491906144ca565b61182f565b6040516102a691906143bd565b60405180910390f35b3480156102ba575f80fd5b506102c3611c65565b6040516102d0919061428d565b60405180910390f35b6102e1611d09565b005b3480156102ee575f80fd5b506103096004803603810190610304919061443e565b611e77565b60405161031691906147d2565b60405180910390f35b34801561032a575f80fd5b5061033361220e565b005b61033d612c7b565b005b34801561034a575f80fd5b506103656004803603810190610360919061443e565b61305b565b005b61036f61348d565b005b606060025f9054906101000a900460ff166103c1576040517f08c379a00000000000000000000000000000000000000000000000000000000081526004016103b890614872565b60405180910390fd5b600c80548060200260200160405190810160405280929190818152602001828054801561040b57602002820191905f5260205f20905b8154815260200190600101908083116103f7575b5050505050905090565b60085f3373ffffffffffffffffffffffffffffffffffffffff1673ffffffffffffffffffffffffffffffffffffffff1681526020019081526020015f205f9054906101000a900460ff1661049e576040517f08c379a0000000000000000000000000000000000000000000000000000000008152600401610495906148da565b60405180910390fd5b5f60085f3373ffffffffffffffffffffffffffffffffffffffff1673ffffffffffffffffffffffffffffffffffffffff1681526020019081526020015f205f6101000a81548160ff02191690831515021790555060075f81548092919061050490614925565b9190505550565b5f805f9054906101000a900473ffffffffffffffffffffffffffffffffffffffff16905090565b5f60085f8373ffffffffffffffffffffffffffffffffffffffff1673ffffffffffffffffffffffffffffffffffffffff1681526020019081526020015f205f9054906101000a900460ff166105bc576040517f08c379a00000000000000000000000000000000000000000000000000000000081526004016105b390614996565b60405180910390fd5b5f8054906101000a900473ffffffffffffffffffffffffffffffffffffffff1673ffffffffffffffffffffffffffffffffffffffff166370a08231836040518263ffffffff1660e01b815260040161061491906149c3565b602060405180830381865afa15801561062f573d5f803e3d5ffd5b505050506040513d601f19601f8201168201806040525081019061065391906149f0565b9050919050565b60025f9054906101000a900460ff166106a8576040517f08c379a000000000000000000000000000000000000000000000000000000000815260040161069f90614872565b60405180910390fd5b80600a5481106106ed576040517f08c379a00000000000000000000000000000000000000000000000000000000081526004016106e490614a65565b60405180910390fd5b60085f3373ffffffffffffffffffffffffffffffffffffffff1673ffffffffffffffffffffffffffffffffffffffff1681526020019081526020015f205f9054906101000a900460ff16610776576040517f08c379a000000000000000000000000000000000000000000000000000000000815260040161076d906148da565b60405180910390fd5b8160095f8281526020019081526020015f2060070160169054906101000a900460ff16156107d9576040517f08c379a00000000000000000000000000000000000000000000000000000000081526004016107d090614acd565b60405180910390fd5b8260095f8281526020019081526020015f2060070160159054906101000a900460ff161561083c576040517f08c379a000000000000000000000000000000000000000000000000000000000815260040161083390614b35565b60405180910390fd5b600e5f9054906101000a900460ff1615610854575f80fd5b5f8511610896576040517f08c379a000000000000000000000000000000000000000000000000000000000815260040161088d90614b9d565b60405180910390fd5b8460035f8681526020019081526020015f205f3373ffffffffffffffffffffffffffffffffffffffff1673ffffffffffffffffffffffffffffffffffffffff1681526020019081526020015f20541015610925576040517f08c379a000000000000000000000000000000000000000000000000000000000815260040161091c90614c2b565b60405180910390fd5b5f60035f8681526020019081526020015f205f3373ffffffffffffffffffffffffffffffffffffffff1673ffffffffffffffffffffffffffffffffffffffff1681526020019081526020015f205490505f86826109829190614c49565b90505f81826109919190614c7c565b838461099d9190614c7c565b6109a79190614c49565b9050805f8054906101000a900473ffffffffffffffffffffffffffffffffffffffff1673ffffffffffffffffffffffffffffffffffffffff166370a08231306040518263ffffffff1660e01b8152600401610a0291906149c3565b602060405180830381865afa158015610a1d573d5f803e3d5ffd5b505050506040513d601f19601f82011682018060405250810190610a4191906149f0565b1015610a82576040517f08c379a0000000000000000000000000000000000000000000000000000000008152600401610a7990614d07565b60405180910390fd5b5f60095f8981526020019081526020015f2090508260035f8a81526020019081526020015f205f3373ffffffffffffffffffffffffffffffffffffffff1673ffffffffffffffffffffffffffffffffffffffff1681526020019081526020015f208190555088816004015f828254610afa9190614c49565b9250508190555081816008015f828254610b149190614c49565b925050819055505f8303610d18575f60045f8a81526020019081526020015f205f3373ffffffffffffffffffffffffffffffffffffffff1673ffffffffffffffffffffffffffffffffffffffff1681526020019081526020015f205490505f60018360090180549050610b879190614c49565b9050808214610c80575f836009018281548110610ba757610ba6614d25565b5b905f5260205f20015f9054906101000a900473ffffffffffffffffffffffffffffffffffffffff16905080846009018481548110610be857610be7614d25565b5b905f5260205f20015f6101000a81548173ffffffffffffffffffffffffffffffffffffffff021916908373ffffffffffffffffffffffffffffffffffffffff1602179055508260045f8d81526020019081526020015f205f8373ffffffffffffffffffffffffffffffffffffffff1673ffffffffffffffffffffffffffffffffffffffff1681526020019081526020015f2081905550505b82600901805480610c9457610c93614d52565b5b600190038181905f5260205f20015f6101000a81549073ffffffffffffffffffffffffffffffffffffffff0219169055905560045f8b81526020019081526020015f205f3373ffffffffffffffffffffffffffffffffffffffff1673ffffffffffffffffffffffffffffffffffffffff1681526020019081526020015f205f905550505b6001600e5f6101000a81548160ff021916908315150217905550610d3c3383613776565b5f600e5f6101000a81548160ff021916908315150217905550505050505050505050565b60085f3373ffffffffffffffffffffffffffffffffffffffff1673ffffffffffffffffffffffffffffffffffffffff1681526020019081526020015f205f9054906101000a900460ff16610de9576040517f08c379a0000000000000000000000000000000000000000000000000000000008152600401610de0906148da565b60405180910390fd5b600e5f9054906101000a900460ff1615610e38576040517f08c379a0000000000000000000000000000000000000000000000000000000008152600401610e2f90614dc9565b60405180910390fd5b5f8111610e7a576040517f08c379a0000000000000000000000000000000000000000000000000000000008152600401610e7190614e31565b60405180910390fd5b805f8054906101000a900473ffffffffffffffffffffffffffffffffffffffff1673ffffffffffffffffffffffffffffffffffffffff166370a08231336040518263ffffffff1660e01b8152600401610ed391906149c3565b602060405180830381865afa158015610eee573d5f803e3d5ffd5b505050506040513d601f19601f82011682018060405250810190610f1291906149f0565b1015610f53576040517f08c379a0000000000000000000000000000000000000000000000000000000008152600401610f4a90614e99565b60405180910390fd5b5f805f9054906101000a900473ffffffffffffffffffffffffffffffffffffffff1673ffffffffffffffffffffffffffffffffffffffff16634b94f50e6040518163ffffffff1660e01b8152600401602060405180830381865afa158015610fbd573d5f803e3d5ffd5b505050506040513d601f19601f82011682018060405250810190610fe191906149f0565b82610fec9190614c7c565b905080471015611031576040517f08c379a000000000000000000000000000000000000000000000000000000000815260040161102890614f01565b60405180910390fd5b5f8054906101000a900473ffffffffffffffffffffffffffffffffffffffff1673ffffffffffffffffffffffffffffffffffffffff16639dc29fac33846040518363ffffffff1660e01b815260040161108b929190614f1f565b5f604051808303815f87803b1580156110a2575f80fd5b505af11580156110b4573d5f803e3d5ffd5b505050506001600e5f6101000a81548160ff0219169083151502179055505f3373ffffffffffffffffffffffffffffffffffffffff16826040516110f790614f73565b5f6040518083038185875af1925050503d805f8114611131576040519150601f19603f3d011682016040523d82523d5f602084013e611136565b606091505b505090505f600e5f6101000a81548160ff02191690831515021790555080611193576040517f08c379a000000000000000000000000000000000000000000000000000000000815260040161118a90614fd1565b60405180910390fd5b505050565b60025f9054906101000a900460ff166111e6576040517f08c379a00000000000000000000000000000000000000000000000000000000081526004016111dd90614872565b60405180910390fd5b81600a54811061122b576040517f08c379a000000000000000000000000000000000000000000000000000000000815260040161122290614a65565b60405180910390fd5b60085f3373ffffffffffffffffffffffffffffffffffffffff1673ffffffffffffffffffffffffffffffffffffffff1681526020019081526020015f205f9054906101000a900460ff166112b4576040517f08c379a00000000000000000000000000000000000000000000000000000000081526004016112ab906148da565b60405180910390fd5b8260095f8281526020019081526020015f2060070160169054906101000a900460ff1615611317576040517f08c379a000000000000000000000000000000000000000000000000000000000815260040161130e90614acd565b60405180910390fd5b8360095f8281526020019081526020015f2060070160159054906101000a900460ff161561137a576040517f08c379a000000000000000000000000000000000000000000000000000000000815260040161137190614b35565b60405180910390fd5b5f84116113bc576040517f08c379a00000000000000000000000000000000000000000000000000000000081526004016113b390615039565b60405180910390fd5b5f60035f8781526020019081526020015f205f3373ffffffffffffffffffffffffffffffffffffffff1673ffffffffffffffffffffffffffffffffffffffff1681526020019081526020015f205490505f85826114199190615057565b90505f60095f8981526020019081526020015f2090505f838461143c9190614c7c565b83846114489190614c7c565b6114529190614c49565b90505f805f9054906101000a900473ffffffffffffffffffffffffffffffffffffffff1673ffffffffffffffffffffffffffffffffffffffff166323b872dd3330856040518463ffffffff1660e01b81526004016114b29392919061508a565b6020604051808303815f875af11580156114ce573d5f803e3d5ffd5b505050506040513d601f19601f820116820180604052508101906114f291906150e9565b905080611534576040517f08c379a000000000000000000000000000000000000000000000000000000000815260040161152b90614fd1565b60405180910390fd5b5f8503611602578260090133908060018154018082558091505060019003905f5260205f20015f9091909190916101000a81548173ffffffffffffffffffffffffffffffffffffffff021916908373ffffffffffffffffffffffffffffffffffffffff160217905550600183600901805490506115b19190614c49565b60045f8c81526020019081526020015f205f3373ffffffffffffffffffffffffffffffffffffffff1673ffffffffffffffffffffffffffffffffffffffff1681526020019081526020015f20819055505b8360035f8c81526020019081526020015f205f3373ffffffffffffffffffffffffffffffffffffffff1673ffffffffffffffffffffffffffffffffffffffff1681526020019081526020015f208190555088836004015f8282546116669190615057565b9250508190555081836008015f8282546116809190615057565b925050819055508260070160149054906101000a900460ff166116db576116a68a61396f565b8360050181905550826005015483600401541180156116cb5750826003015460015410155b156116da576116d98a613a2b565b5b5b50505050505050505050565b606060025f9054906101000a900460ff16611737576040517f08c379a000000000000000000000000000000000000000000000000000000000815260040161172e90614872565b60405180910390fd5b600d80548060200260200160405190810160405280929190818152602001828054801561178157602002820191905f5260205f20905b81548152602001906001019080831161176d575b5050505050905090565b5f805f8054906101000a900473ffffffffffffffffffffffffffffffffffffffff1673ffffffffffffffffffffffffffffffffffffffff1663dd62ed3e33306040518363ffffffff1660e01b81526004016117e7929190615114565b602060405180830381865afa158015611802573d5f803e3d5ffd5b505050506040513d601f19601f8201168201806040525081019061182691906149f0565b90508091505090565b5f60025f9054906101000a900460ff1661187e576040517f08c379a000000000000000000000000000000000000000000000000000000000815260040161187590614872565b60405180910390fd5b60085f3373ffffffffffffffffffffffffffffffffffffffff1673ffffffffffffffffffffffffffffffffffffffff1681526020019081526020015f205f9054906101000a900460ff16611907576040517f08c379a00000000000000000000000000000000000000000000000000000000081526004016118fe906148da565b60405180910390fd5b5f73ffffffffffffffffffffffffffffffffffffffff168273ffffffffffffffffffffffffffffffffffffffff1603611975576040517f08c379a000000000000000000000000000000000000000000000000000000000815260040161196c90615185565b60405180910390fd5b5f87879050116119ba576040517f08c379a00000000000000000000000000000000000000000000000000000000081526004016119b1906151ed565b60405180910390fd5b5f85859050116119ff576040517f08c379a00000000000000000000000000000000000000000000000000000000081526004016119f690615255565b60405180910390fd5b5f600a549050600a5f815480929190611a1790615273565b91905055505f60095f8381526020019081526020015f20905081815f01819055508888826001019182611a4b9291906154e2565b508686826002019182611a5f9291906154e2565b5084816003018190555083816006015f6101000a81548173ffffffffffffffffffffffffffffffffffffffff021916908373ffffffffffffffffffffffffffffffffffffffff16021790555033816007015f6101000a81548173ffffffffffffffffffffffffffffffffffffffff021916908373ffffffffffffffffffffffffffffffffffffffff1602179055505f851115611b74575f8160070160146101000a81548160ff021916908315150217905550600b82908060018154018082558091505060019003905f5260205f20015f90919091909150556001600b80549050611b499190614c49565b60055f8481526020019081526020015f2081905550611b678261396f565b8160050181905550611bdf565b60018160070160146101000a81548160ff021916908315150217905550600d82908060018154018082558091505060019003905f5260205f20015f90919091909150556001600d80549050611bc99190614c49565b60065f8481526020019081526020015f20819055505b5f81600401819055505f81600801819055505f8160070160156101000a81548160ff0219169083151502179055505f8160070160166101000a81548160ff021916908315150217905550817f9a863892f20a6b9c6cec64d611b5864be6373191ce2cacc3b05a299bce3bf80e60405160405180910390a281925050509695505050505050565b606060025f9054906101000a900460ff16611cb5576040517f08c379a0000000000000000000000000000000000000000000000000000000008152600401611cac90614872565b60405180910390fd5b600b805480602002602001604051908101604052809291908181526020018280548015611cff57602002820191905f5260205f20905b815481526020019060010190808311611ceb575b5050505050905090565b7f000000000000000000000000000000000000000000000000000000000000000073ffffffffffffffffffffffffffffffffffffffff163373ffffffffffffffffffffffffffffffffffffffff1614611d97576040517f08c379a0000000000000000000000000000000000000000000000000000000008152600401611d8e906155f9565b60405180910390fd5b60025f9054906101000a900460ff1615611de6576040517f08c379a0000000000000000000000000000000000000000000000000000000008152600401611ddd90615661565b60405180910390fd5b5f3411611e28576040517f08c379a0000000000000000000000000000000000000000000000000000000008152600401611e1f906156c9565b60405180910390fd5b34600181905550600160025f6101000a81548160ff0219169083151502179055507f8089789a86616a2428e26766961eaaa205ab084aac14a9cb98704e59af2b89e660405160405180910390a1565b611e7f6140b9565b60025f9054906101000a900460ff16611ecd576040517f08c379a0000000000000000000000000000000000000000000000000000000008152600401611ec490614872565b60405180910390fd5b81600a548110611f12576040517f08c379a0000000000000000000000000000000000000000000000000000000008152600401611f0990614a65565b60405180910390fd5b60095f8481526020019081526020015f20604051806101a00160405290815f8201548152602001600182018054611f489061531e565b80601f0160208091040260200160405190810160405280929190818152602001828054611f749061531e565b8015611fbf5780601f10611f9657610100808354040283529160200191611fbf565b820191905f5260205f20905b815481529060010190602001808311611fa257829003601f168201915b50505050508152602001600282018054611fd89061531e565b80601f01602080910402602001604051908101604052809291908181526020018280546120049061531e565b801561204f5780601f106120265761010080835404028352916020019161204f565b820191905f5260205f20905b81548152906001019060200180831161203257829003601f168201915b50505050508152602001600382015481526020016004820154815260200160058201548152602001600682015f9054906101000a900473ffffffffffffffffffffffffffffffffffffffff1673ffffffffffffffffffffffffffffffffffffffff1673ffffffffffffffffffffffffffffffffffffffff168152602001600782015f9054906101000a900473ffffffffffffffffffffffffffffffffffffffff1673ffffffffffffffffffffffffffffffffffffffff1673ffffffffffffffffffffffffffffffffffffffff1681526020016007820160149054906101000a900460ff161515151581526020016007820160159054906101000a900460ff161515151581526020016007820160169054906101000a900460ff1615151515815260200160088201548152602001600982018054806020026020016040519081016040528092919081815260200182805480156121fd57602002820191905f5260205f20905b815f9054906101000a900473ffffffffffffffffffffffffffffffffffffffff1673ffffffffffffffffffffffffffffffffffffffff16815260200190600101908083116121b4575b505050505081525050915050919050565b7f000000000000000000000000000000000000000000000000000000000000000073ffffffffffffffffffffffffffffffffffffffff163373ffffffffffffffffffffffffffffffffffffffff161461229c576040517f08c379a0000000000000000000000000000000000000000000000000000000008152600401612293906155f9565b60405180910390fd5b60025f9054906101000a900460ff166122ea576040517f08c379a00000000000000000000000000000000000000000000000000000000081526004016122e190614872565b60405180910390fd5b600e5f9054906101000a900460ff1615612339576040517f08c379a000000000000000000000000000000000000000000000000000000000815260040161233090615731565b60405180910390fd5b6001600e5f6101000a81548160ff0219169083151502179055505f5b600b8054905081101561260f575f600b828154811061237757612376614d25565b5b905f5260205f2001549050600160095f8381526020019081526020015f2060070160166101000a81548160ff0219169083151502179055505f5b60095f8381526020019081526020015f20600901805490508110156125af575f60095f8481526020019081526020015f2060090182815481106123f7576123f6614d25565b5b905f5260205f20015f9054906101000a900473ffffffffffffffffffffffffffffffffffffffff1690505f60035f8581526020019081526020015f205f8373ffffffffffffffffffffffffffffffffffffffff1673ffffffffffffffffffffffffffffffffffffffff1681526020019081526020015f205490505f8111156124ee575f81826124869190614c7c565b90505f60035f8781526020019081526020015f205f8573ffffffffffffffffffffffffffffffffffffffff1673ffffffffffffffffffffffffffffffffffffffff1681526020019081526020015f20819055505f8111156124ec576124eb8382613776565b5b505b60035f8581526020019081526020015f205f8373ffffffffffffffffffffffffffffffffffffffff1673ffffffffffffffffffffffffffffffffffffffff1681526020019081526020015f205f905560045f8581526020019081526020015f205f8373ffffffffffffffffffffffffffffffffffffffff1673ffffffffffffffffffffffffffffffffffffffff1681526020019081526020015f205f905560055f8581526020019081526020015f205f9055505080806001019150506123b1565b505f60095f8381526020019081526020015f20600401819055505f60095f8381526020019081526020015f206008018190555060095f8281526020019081526020015f206009015f6126019190614149565b508080600101915050612355565b505f5b600d80549050811015612a14575f600d828154811061263457612633614d25565b5b905f5260205f20015490505f60095f8381526020019081526020015f2090508060070160169054906101000a900460ff1615801561268157508060070160159054906101000a900460ff16155b15612a05575f73ffffffffffffffffffffffffffffffffffffffff16816006015f9054906101000a900473ffffffffffffffffffffffffffffffffffffffff1673ffffffffffffffffffffffffffffffffffffffff16146127f2575f816006015f9054906101000a900473ffffffffffffffffffffffffffffffffffffffff1673ffffffffffffffffffffffffffffffffffffffff165f620186a09063986cc31160e01b86866004015487600801546040516024016127429392919061574f565b604051602081830303815290604052907bffffffffffffffffffffffffffffffffffffffffffffffffffffffff19166020820180517bffffffffffffffffffffffffffffffffffffffffffffffffffffffff83818316178352505050506040516127ac91906157be565b5f60405180830381858888f193505050503d805f81146127e7576040519150601f19603f3d011682016040523d82523d5f602084013e6127ec565b606091505b50509050505b5f5b81600901805490508110156129be575f82600901828154811061281a57612819614d25565b5b905f5260205f20015f9054906101000a900473ffffffffffffffffffffffffffffffffffffffff1690505f60035f8681526020019081526020015f205f8373ffffffffffffffffffffffffffffffffffffffff1673ffffffffffffffffffffffffffffffffffffffff1681526020019081526020015f205490505f811115612911575f81826128a99190614c7c565b90505f60035f8881526020019081526020015f205f8573ffffffffffffffffffffffffffffffffffffffff1673ffffffffffffffffffffffffffffffffffffffff1681526020019081526020015f20819055505f81111561290f5761290e8382613776565b5b505b60035f8681526020019081526020015f205f8373ffffffffffffffffffffffffffffffffffffffff1673ffffffffffffffffffffffffffffffffffffffff1681526020019081526020015f205f905560045f8681526020019081526020015f205f8373ffffffffffffffffffffffffffffffffffffffff1673ffffffffffffffffffffffffffffffffffffffff1681526020019081526020015f205f9055505080806001019150506127f4565b505f81600401819055505f816008018190555060095f8381526020019081526020015f206009015f6129f09190614149565b60065f8381526020019081526020015f205f90555b50508080600101915050612612565b505f60025f6101000a81548160ff0219169083151502179055505f67ffffffffffffffff811115612a4857612a476152c4565b5b604051908082528060200260200182016040528015612a765781602001602082028036833780820191505090505b50600d9080519060200190612a8c929190614167565b505f67ffffffffffffffff811115612aa757612aa66152c4565b5b604051908082528060200260200182016040528015612ad55781602001602082028036833780820191505090505b50600b9080519060200190612aeb929190614167565b505f67ffffffffffffffff811115612b0657612b056152c4565b5b604051908082528060200260200182016040528015612b345781602001602082028036833780820191505090505b50600c9080519060200190612b4a929190614167565b505f600a819055505f6001541115612c34575f60015490505f6001819055505f7f000000000000000000000000000000000000000000000000000000000000000073ffffffffffffffffffffffffffffffffffffffff1682604051612bae90614f73565b5f6040518083038185875af1925050503d805f8114612be8576040519150601f19603f3d011682016040523d82523d5f602084013e612bed565b606091505b5050905080612c31576040517f08c379a0000000000000000000000000000000000000000000000000000000008152600401612c289061581e565b60405180910390fd5b50505b5f600e5f6101000a81548160ff0219169083151502179055507f66b6cb4a09abc3bf1cacc3c67420258856ffdad0deba9078cbd1658957b5021860405160405180910390a1565b60085f3373ffffffffffffffffffffffffffffffffffffffff1673ffffffffffffffffffffffffffffffffffffffff1681526020019081526020015f205f9054906101000a900460ff16612d04576040517f08c379a0000000000000000000000000000000000000000000000000000000008152600401612cfb906148da565b60405180910390fd5b600e5f9054906101000a900460ff1615612d53576040517f08c379a0000000000000000000000000000000000000000000000000000000008152600401612d4a90615731565b60405180910390fd5b5f8054906101000a900473ffffffffffffffffffffffffffffffffffffffff1673ffffffffffffffffffffffffffffffffffffffff16634b94f50e6040518163ffffffff1660e01b8152600401602060405180830381865afa158015612dbb573d5f803e3d5ffd5b505050506040513d601f19601f82011682018060405250810190612ddf91906149f0565b3410158015612ded57505f34115b612e2c576040517f08c379a0000000000000000000000000000000000000000000000000000000008152600401612e2390615886565b60405180910390fd5b5f805f9054906101000a900473ffffffffffffffffffffffffffffffffffffffff1673ffffffffffffffffffffffffffffffffffffffff16634b94f50e6040518163ffffffff1660e01b8152600401602060405180830381865afa158015612e96573d5f803e3d5ffd5b505050506040513d601f19601f82011682018060405250810190612eba91906149f0565b90505f8134612ec991906158d1565b90505f8282612ed89190614c7c565b90505f8134612ee79190614c49565b90505f8054906101000a900473ffffffffffffffffffffffffffffffffffffffff1673ffffffffffffffffffffffffffffffffffffffff166340c10f1933856040518363ffffffff1660e01b8152600401612f43929190614f1f565b5f604051808303815f87803b158015612f5a575f80fd5b505af1158015612f6c573d5f803e3d5ffd5b505050505f811115613055576001600e5f6101000a81548160ff0219169083151502179055505f3373ffffffffffffffffffffffffffffffffffffffff1682604051612fb790614f73565b5f6040518083038185875af1925050503d805f8114612ff1576040519150601f19603f3d011682016040523d82523d5f602084013e612ff6565b606091505b505090505f600e5f6101000a81548160ff02191690831515021790555080613053576040517f08c379a000000000000000000000000000000000000000000000000000000000815260040161304a9061594b565b60405180910390fd5b505b50505050565b60025f9054906101000a900460ff166130a9576040517f08c379a00000000000000000000000000000000000000000000000000000000081526004016130a090614872565b60405180910390fd5b80600a5481106130ee576040517f08c379a00000000000000000000000000000000000000000000000000000000081526004016130e590614a65565b60405180910390fd5b8160095f8281526020019081526020015f2060070160169054906101000a900460ff1615613151576040517f08c379a000000000000000000000000000000000000000000000000000000000815260040161314890614acd565b60405180910390fd5b8260095f8281526020019081526020015f2060070160159054906101000a900460ff16156131b4576040517f08c379a00000000000000000000000000000000000000000000000000000000081526004016131ab90614b35565b60405180910390fd5b60095f8581526020019081526020015f206007015f9054906101000a900473ffffffffffffffffffffffffffffffffffffffff1673ffffffffffffffffffffffffffffffffffffffff163373ffffffffffffffffffffffffffffffffffffffff1614613255576040517f08c379a000000000000000000000000000000000000000000000000000000000815260040161324c906159b3565b60405180910390fd5b5f60095f8681526020019081526020015f20905060018160070160166101000a81548160ff0219169083151502179055508060070160149054906101000a900460ff166132ae576132a9600b600587613ff6565b6132bc565b6132bb600d600687613ff6565b5b5f5b8160090180549050811015613437575f8260090182815481106132e4576132e3614d25565b5b905f5260205f20015f9054906101000a900473ffffffffffffffffffffffffffffffffffffffff1690505f60035f8981526020019081526020015f205f8373ffffffffffffffffffffffffffffffffffffffff1673ffffffffffffffffffffffffffffffffffffffff1681526020019081526020015f205490505f81111561338a575f81826133739190614c7c565b90505f811115613388576133878382613776565b5b505b60035f8981526020019081526020015f205f8373ffffffffffffffffffffffffffffffffffffffff1673ffffffffffffffffffffffffffffffffffffffff1681526020019081526020015f205f905560045f8981526020019081526020015f205f8373ffffffffffffffffffffffffffffffffffffffff1673ffffffffffffffffffffffffffffffffffffffff1681526020019081526020015f205f9055505080806001019150506132be565b505f81600401819055505f8160080181905550806009015f6134599190614149565b847f789cf55be980739dad1d0699b93b58e806b51c9d96619bfa8fe0a28abaa7b30c60405160405180910390a25050505050565b5f8054906101000a900473ffffffffffffffffffffffffffffffffffffffff1673ffffffffffffffffffffffffffffffffffffffff16634b94f50e6040518163ffffffff1660e01b8152600401602060405180830381865afa1580156134f5573d5f803e3d5ffd5b505050506040513d601f19601f8201168201806040525081019061351991906149f0565b34101561355b576040517f08c379a000000000000000000000000000000000000000000000000000000000815260040161355290615a1b565b60405180910390fd5b60085f3373ffffffffffffffffffffffffffffffffffffffff1673ffffffffffffffffffffffffffffffffffffffff1681526020019081526020015f205f9054906101000a900460ff16156135e5576040517f08c379a00000000000000000000000000000000000000000000000000000000081526004016135dc90615a83565b60405180910390fd5b5f805f9054906101000a900473ffffffffffffffffffffffffffffffffffffffff1673ffffffffffffffffffffffffffffffffffffffff16634b94f50e6040518163ffffffff1660e01b8152600401602060405180830381865afa15801561364f573d5f803e3d5ffd5b505050506040513d601f19601f8201168201806040525081019061367391906149f0565b3461367e91906158d1565b9050600160085f3373ffffffffffffffffffffffffffffffffffffffff1673ffffffffffffffffffffffffffffffffffffffff1681526020019081526020015f205f6101000a81548160ff02191690831515021790555060075f8154809291906136e790615273565b91905055505f8054906101000a900473ffffffffffffffffffffffffffffffffffffffff1673ffffffffffffffffffffffffffffffffffffffff166340c10f1933836040518363ffffffff1660e01b8152600401613746929190614f1f565b5f604051808303815f87803b15801561375d575f80fd5b505af115801561376f573d5f803e3d5ffd5b5050505050565b5f81116137b8576040517f08c379a00000000000000000000000000000000000000000000000000000000081526004016137af90615aeb565b60405180910390fd5b5f73ffffffffffffffffffffffffffffffffffffffff168273ffffffffffffffffffffffffffffffffffffffff1603613826576040517f08c379a000000000000000000000000000000000000000000000000000000000815260040161381d90615b53565b60405180910390fd5b5f805f9054906101000a900473ffffffffffffffffffffffffffffffffffffffff1673ffffffffffffffffffffffffffffffffffffffff16620186a063a9059cbb60e01b858560405160240161387d929190614f1f565b604051602081830303815290604052907bffffffffffffffffffffffffffffffffffffffffffffffffffffffff19166020820180517bffffffffffffffffffffffffffffffffffffffffffffffffffffffff83818316178352505050506040516138e791906157be565b5f604051808303815f8787f1925050503d805f8114613921576040519150601f19603f3d011682016040523d82523d5f602084013e613926565b606091505b505090508061396a576040517f08c379a000000000000000000000000000000000000000000000000000000000815260040161396190615be1565b60405180910390fd5b505050565b5f80600154036139a1577fffffffffffffffffffffffffffffffffffffffffffffffffffffffffffffffff9050613a26565b5f60095f8481526020019081526020015f2090505f670de0b6b3a7640000600754600154670de0b6b3a764000085600301546139dd9190614c7c565b6139e791906158d1565b6702c68af0bb1400006139fa9190615057565b613a049190614c7c565b613a0e91906158d1565b9050600b8054905081613a219190615057565b925050505b919050565b60025f9054906101000a900460ff16613a79576040517f08c379a0000000000000000000000000000000000000000000000000000000008152600401613a7090614872565b60405180910390fd5b80600a548110613abe576040517f08c379a0000000000000000000000000000000000000000000000000000000008152600401613ab590614a65565b60405180910390fd5b8160095f8281526020019081526020015f2060070160169054906101000a900460ff1615613b21576040517f08c379a0000000000000000000000000000000000000000000000000000000008152600401613b1890614acd565b60405180910390fd5b8260095f8281526020019081526020015f2060070160159054906101000a900460ff1615613b84576040517f08c379a0000000000000000000000000000000000000000000000000000000008152600401613b7b90614b35565b60405180910390fd5b600e5f9054906101000a900460ff1615613bd3576040517f08c379a0000000000000000000000000000000000000000000000000000000008152600401613bca90615731565b60405180910390fd5b5f60095f8681526020019081526020015f2090508060070160149054906101000a900460ff1615613c39576040517f08c379a0000000000000000000000000000000000000000000000000000000008152600401613c3090615c49565b60405180910390fd5b5f73ffffffffffffffffffffffffffffffffffffffff16816006015f9054906101000a900473ffffffffffffffffffffffffffffffffffffffff1673ffffffffffffffffffffffffffffffffffffffff1603613cca576040517f08c379a0000000000000000000000000000000000000000000000000000000008152600401613cc190615cd7565b60405180910390fd5b806003015460015411613d12576040517f08c379a0000000000000000000000000000000000000000000000000000000008152600401613d0990615d65565b60405180910390fd5b60018160070160156101000a81548160ff021916908315150217905550613d3c600b600587613ff6565b600c85908060018154018082558091505060019003905f5260205f20015f90919091909150555f805f9054906101000a900473ffffffffffffffffffffffffffffffffffffffff1673ffffffffffffffffffffffffffffffffffffffff16634b94f50e6040518163ffffffff1660e01b8152600401602060405180830381865afa158015613dcc573d5f803e3d5ffd5b505050506040513d601f19601f82011682018060405250810190613df091906149f0565b8260080154613dff9190614c7c565b90508060015f828254613e129190615057565b92505081905550816003015460015f828254613e2e9190614c49565b925050819055506001600e5f6101000a81548160ff0219169083151502179055505f826006015f9054906101000a900473ffffffffffffffffffffffffffffffffffffffff1673ffffffffffffffffffffffffffffffffffffffff168360030154620186a09063986cc31160e01b8a87600401548860080154604051602401613eb99392919061574f565b604051602081830303815290604052907bffffffffffffffffffffffffffffffffffffffffffffffffffffffff19166020820180517bffffffffffffffffffffffffffffffffffffffffffffffffffffffff8381831617835250505050604051613f2391906157be565b5f60405180830381858888f193505050503d805f8114613f5e576040519150601f19603f3d011682016040523d82523d5f602084013e613f63565b606091505b505090505f600e5f6101000a81548160ff02191690831515021790555080613fc0576040517f08c379a0000000000000000000000000000000000000000000000000000000008152600401613fb79061581e565b60405180910390fd5b867f28ec9e38ba73636ceb2f6c1574136f83bd46284a3c74734b711bf45e12f8d92960405160405180910390a250505050505050565b5f825f8381526020019081526020015f205490505f6001858054905061401c9190614c49565b905080821461407b575f85828154811061403957614038614d25565b5b905f5260205f20015490508086848154811061405857614057614d25565b5b905f5260205f20018190555082855f8381526020019081526020015f2081905550505b8480548061408c5761408b614d52565b5b600190038181905f5260205f20015f90559055835f8481526020019081526020015f205f90555050505050565b604051806101a001604052805f815260200160608152602001606081526020015f81526020015f81526020015f81526020015f73ffffffffffffffffffffffffffffffffffffffff1681526020015f73ffffffffffffffffffffffffffffffffffffffff1681526020015f151581526020015f151581526020015f151581526020015f8152602001606081525090565b5080545f8255905f5260205f209081019061416491906141b2565b50565b828054828255905f5260205f209081019282156141a1579160200282015b828111156141a0578251825591602001919060010190614185565b5b5090506141ae91906141b2565b5090565b5b808211156141c9575f815f9055506001016141b3565b5090565b5f81519050919050565b5f82825260208201905092915050565b5f819050602082019050919050565b5f819050919050565b614208816141f6565b82525050565b5f61421983836141ff565b60208301905092915050565b5f602082019050919050565b5f61423b826141cd565b61424581856141d7565b9350614250836141e7565b805f5b83811015614280578151614267888261420e565b975061427283614225565b925050600181019050614253565b5085935050505092915050565b5f6020820190508181035f8301526142a58184614231565b905092915050565b5f73ffffffffffffffffffffffffffffffffffffffff82169050919050565b5f819050919050565b5f6142ef6142ea6142e5846142ad565b6142cc565b6142ad565b9050919050565b5f614300826142d5565b9050919050565b5f614311826142f6565b9050919050565b61432181614307565b82525050565b5f60208201905061433a5f830184614318565b92915050565b5f80fd5b5f80fd5b5f614352826142ad565b9050919050565b61436281614348565b811461436c575f80fd5b50565b5f8135905061437d81614359565b92915050565b5f6020828403121561439857614397614340565b5b5f6143a58482850161436f565b91505092915050565b6143b7816141f6565b82525050565b5f6020820190506143d05f8301846143ae565b92915050565b6143df816141f6565b81146143e9575f80fd5b50565b5f813590506143fa816143d6565b92915050565b5f806040838503121561441657614415614340565b5b5f614423858286016143ec565b9250506020614434858286016143ec565b9150509250929050565b5f6020828403121561445357614452614340565b5b5f614460848285016143ec565b91505092915050565b5f80fd5b5f80fd5b5f80fd5b5f8083601f84011261448a57614489614469565b5b8235905067ffffffffffffffff8111156144a7576144a661446d565b5b6020830191508360018202830111156144c3576144c2614471565b5b9250929050565b5f805f805f80608087890312156144e4576144e3614340565b5b5f87013567ffffffffffffffff81111561450157614500614344565b5b61450d89828a01614475565b9650965050602087013567ffffffffffffffff8111156145305761452f614344565b5b61453c89828a01614475565b9450945050604061454f89828a016143ec565b925050606061456089828a0161436f565b9150509295509295509295565b5f81519050919050565b5f82825260208201905092915050565b8281835e5f83830152505050565b5f601f19601f8301169050919050565b5f6145af8261456d565b6145b98185614577565b93506145c9818560208601614587565b6145d281614595565b840191505092915050565b6145e681614348565b82525050565b5f8115159050919050565b614600816145ec565b82525050565b5f81519050919050565b5f82825260208201905092915050565b5f819050602082019050919050565b5f61463a83836145dd565b60208301905092915050565b5f602082019050919050565b5f61465c82614606565b6146668185614610565b935061467183614620565b805f5b838110156146a1578151614688888261462f565b975061469383614646565b925050600181019050614674565b5085935050505092915050565b5f6101a083015f8301516146c45f8601826141ff565b50602083015184820360208601526146dc82826145a5565b915050604083015184820360408601526146f682826145a5565b915050606083015161470b60608601826141ff565b50608083015161471e60808601826141ff565b5060a083015161473160a08601826141ff565b5060c083015161474460c08601826145dd565b5060e083015161475760e08601826145dd565b5061010083015161476c6101008601826145f7565b506101208301516147816101208601826145f7565b506101408301516147966101408601826145f7565b506101608301516147ab6101608601826141ff565b506101808301518482036101808601526147c58282614652565b9150508091505092915050565b5f6020820190508181035f8301526147ea81846146ae565b905092915050565b5f82825260208201905092915050565b7f4c6120766f746163696f6e207469656e652071756520657374617220616269655f8201527f7274610000000000000000000000000000000000000000000000000000000000602082015250565b5f61485c6023836147f2565b915061486782614802565b604082019050919050565b5f6020820190508181035f83015261488981614850565b9050919050565b7f4465626573206861626572746520696e73637269746f000000000000000000005f82015250565b5f6148c46016836147f2565b91506148cf82614890565b602082019050919050565b5f6020820190508181035f8301526148f1816148b8565b9050919050565b7f4e487b71000000000000000000000000000000000000000000000000000000005f52601160045260245ffd5b5f61492f826141f6565b91505f8203614941576149406148f8565b5b600182039050919050565b7f4661696c000000000000000000000000000000000000000000000000000000005f82015250565b5f6149806004836147f2565b915061498b8261494c565b602082019050919050565b5f6020820190508181035f8301526149ad81614974565b9050919050565b6149bd81614348565b82525050565b5f6020820190506149d65f8301846149b4565b92915050565b5f815190506149ea816143d6565b92915050565b5f60208284031215614a0557614a04614340565b5b5f614a12848285016149dc565b91505092915050565b7f4c612070726f707565737461206e6f20657869737465000000000000000000005f82015250565b5f614a4f6016836147f2565b9150614a5a82614a1b565b602082019050919050565b5f6020820190508181035f830152614a7c81614a43565b9050919050565b7f70726f7075657374612079612063616e63656c616461000000000000000000005f82015250565b5f614ab76016836147f2565b9150614ac282614a83565b602082019050919050565b5f6020820190508181035f830152614ae481614aab565b9050919050565b7f4c612070726f707565737461207961206861207369646f206170726f626164615f82015250565b5f614b1f6020836147f2565b9150614b2a82614aeb565b602082019050919050565b5f6020820190508181035f830152614b4c81614b13565b9050919050565b7f4e656365736974617320756e20766f746f20616c206d656e6f732e00000000005f82015250565b5f614b87601b836147f2565b9150614b9282614b53565b602082019050919050565b5f6020820190508181035f830152614bb481614b7b565b9050919050565b7f457374617320696e74656e74616e646f2072657469726172206d617320766f745f8201527f6f73000000000000000000000000000000000000000000000000000000000000602082015250565b5f614c156022836147f2565b9150614c2082614bbb565b604082019050919050565b5f6020820190508181035f830152614c4281614c09565b9050919050565b5f614c53826141f6565b9150614c5e836141f6565b9250828203905081811115614c7657614c756148f8565b5b92915050565b5f614c86826141f6565b9150614c91836141f6565b9250828202614c9f816141f6565b91508282048414831517614cb657614cb56148f8565b5b5092915050565b7f4e6f2073652070756564652072657469726172000000000000000000000000005f82015250565b5f614cf16013836147f2565b9150614cfc82614cbd565b602082019050919050565b5f6020820190508181035f830152614d1e81614ce5565b9050919050565b7f4e487b71000000000000000000000000000000000000000000000000000000005f52603260045260245ffd5b7f4e487b71000000000000000000000000000000000000000000000000000000005f52603160045260245ffd5b7f626c6f71756561646f00000000000000000000000000000000000000000000005f82015250565b5f614db36009836147f2565b9150614dbe82614d7f565b602082019050919050565b5f6020820190508181035f830152614de081614da7565b9050919050565b7f63616e746964616420696e666572696f722061203100000000000000000000005f82015250565b5f614e1b6015836147f2565b9150614e2682614de7565b602082019050919050565b5f6020820190508181035f830152614e4881614e0f565b9050919050565b7f4e6f207469656e657320746f6b656e7320737566696369656e746573000000005f82015250565b5f614e83601c836147f2565b9150614e8e82614e4f565b602082019050919050565b5f6020820190508181035f830152614eb081614e77565b9050919050565b7f456c20636f6e747261746f206e6f207469656e65207265637572736f730000005f82015250565b5f614eeb601d836147f2565b9150614ef682614eb7565b602082019050919050565b5f6020820190508181035f830152614f1881614edf565b9050919050565b5f604082019050614f325f8301856149b4565b614f3f60208301846143ae565b9392505050565b5f81905092915050565b50565b5f614f5e5f83614f46565b9150614f6982614f50565b5f82019050919050565b5f614f7d82614f53565b9150819050919050565b7f4c61207472616e73666572656e6369612066616c6c6f000000000000000000005f82015250565b5f614fbb6016836147f2565b9150614fc682614f87565b602082019050919050565b5f6020820190508181035f830152614fe881614faf565b9050919050565b7f4e6f206465706f7369746172206d656e6f73203120766f746f000000000000005f82015250565b5f6150236019836147f2565b915061502e82614fef565b602082019050919050565b5f6020820190508181035f83015261505081615017565b9050919050565b5f615061826141f6565b915061506c836141f6565b9250828201905080821115615084576150836148f8565b5b92915050565b5f60608201905061509d5f8301866149b4565b6150aa60208301856149b4565b6150b760408301846143ae565b949350505050565b6150c8816145ec565b81146150d2575f80fd5b50565b5f815190506150e3816150bf565b92915050565b5f602082840312156150fe576150fd614340565b5b5f61510b848285016150d5565b91505092915050565b5f6040820190506151275f8301856149b4565b61513460208301846149b4565b9392505050565b7f44697220636f6e747261746f206e6f2076616c696461000000000000000000005f82015250565b5f61516f6016836147f2565b915061517a8261513b565b602082019050919050565b5f6020820190508181035f83015261519c81615163565b9050919050565b7f546974756c6f206e6f20766163696f00000000000000000000000000000000005f82015250565b5f6151d7600f836147f2565b91506151e2826151a3565b602082019050919050565b5f6020820190508181035f830152615204816151cb565b9050919050565b7f4c61206465736372697063696f6e2076616369610000000000000000000000005f82015250565b5f61523f6014836147f2565b915061524a8261520b565b602082019050919050565b5f6020820190508181035f83015261526c81615233565b9050919050565b5f61527d826141f6565b91507fffffffffffffffffffffffffffffffffffffffffffffffffffffffffffffffff82036152af576152ae6148f8565b5b600182019050919050565b5f82905092915050565b7f4e487b71000000000000000000000000000000000000000000000000000000005f52604160045260245ffd5b7f4e487b71000000000000000000000000000000000000000000000000000000005f52602260045260245ffd5b5f600282049050600182168061533557607f821691505b602082108103615348576153476152f1565b5b50919050565b5f819050815f5260205f209050919050565b5f6020601f8301049050919050565b5f82821b905092915050565b5f600883026153aa7fffffffffffffffffffffffffffffffffffffffffffffffffffffffffffffffff8261536f565b6153b4868361536f565b95508019841693508086168417925050509392505050565b5f6153e66153e16153dc846141f6565b6142cc565b6141f6565b9050919050565b5f819050919050565b6153ff836153cc565b61541361540b826153ed565b84845461537b565b825550505050565b5f90565b61542761541b565b6154328184846153f6565b505050565b5b818110156154555761544a5f8261541f565b600181019050615438565b5050565b601f82111561549a5761546b8161534e565b61547484615360565b81016020851015615483578190505b61549761548f85615360565b830182615437565b50505b505050565b5f82821c905092915050565b5f6154ba5f198460080261549f565b1980831691505092915050565b5f6154d283836154ab565b9150826002028217905092915050565b6154ec83836152ba565b67ffffffffffffffff811115615505576155046152c4565b5b61550f825461531e565b61551a828285615459565b5f601f831160018114615547575f8415615535578287013590505b61553f85826154c7565b8655506155a6565b601f1984166155558661534e565b5f5b8281101561557c57848901358255600182019150602085019450602081019050615557565b868310156155995784890135615595601f8916826154ab565b8355505b6001600288020188555050505b50505050505050565b7f44656265732073657220656c206f776e657200000000000000000000000000005f82015250565b5f6155e36012836147f2565b91506155ee826155af565b602082019050919050565b5f6020820190508181035f830152615610816155d7565b9050919050565b7f4e6f2070756564657320766f6c76657220612061627269726c610000000000005f82015250565b5f61564b601a836147f2565b915061565682615617565b602082019050919050565b5f6020820190508181035f8301526156788161563f565b9050919050565b7f50726573757020696e6974203e206365726f00000000000000000000000000005f82015250565b5f6156b36012836147f2565b91506156be8261567f565b602082019050919050565b5f6020820190508181035f8301526156e0816156a7565b9050919050565b7f426c6f71756561646f00000000000000000000000000000000000000000000005f82015250565b5f61571b6009836147f2565b9150615726826156e7565b602082019050919050565b5f6020820190508181035f8301526157488161570f565b9050919050565b5f6060820190506157625f8301866143ae565b61576f60208301856143ae565b61577c60408301846143ae565b949350505050565b5f81519050919050565b5f61579882615784565b6157a28185614f46565b93506157b2818560208601614587565b80840191505092915050565b5f6157c9828461578e565b915081905092915050565b7f4572726f720000000000000000000000000000000000000000000000000000005f82015250565b5f6158086005836147f2565b9150615813826157d4565b602082019050919050565b5f6020820190508181035f830152615835816157fc565b9050919050565b7f446562657320656e766961204574686572206e656365736172696f00000000005f82015250565b5f615870601b836147f2565b915061587b8261583c565b602082019050919050565b5f6020820190508181035f83015261589d81615864565b9050919050565b7f4e487b71000000000000000000000000000000000000000000000000000000005f52601260045260245ffd5b5f6158db826141f6565b91506158e6836141f6565b9250826158f6576158f56158a4565b5b828204905092915050565b7f46616c6c6f0000000000000000000000000000000000000000000000000000005f82015250565b5f6159356005836147f2565b915061594082615901565b602082019050919050565b5f6020820190508181035f83015261596281615929565b9050919050565b7f44656265732068616265722063726561646f206c612070726f707565737461005f82015250565b5f61599d601f836147f2565b91506159a882615969565b602082019050919050565b5f6020820190508181035f8301526159ca81615991565b9050919050565b7f4e6f2061706f7274617320737566696369656e746520457468657200000000005f82015250565b5f615a05601b836147f2565b9150615a10826159d1565b602082019050919050565b5f6020820190508181035f830152615a32816159f9565b9050919050565b7f5061727469636970616e746520796120657374612061637469766f00000000005f82015250565b5f615a6d601b836147f2565b9150615a7882615a39565b602082019050919050565b5f6020820190508181035f830152615a9a81615a61565b9050919050565b7f43616e7469646164203e203000000000000000000000000000000000000000005f82015250565b5f615ad5600c836147f2565b9150615ae082615aa1565b602082019050919050565b5f6020820190508181035f830152615b0281615ac9565b9050919050565b7f456c2061646472657373206465626520657869737469720000000000000000005f82015250565b5f615b3d6017836147f2565b9150615b4882615b09565b602082019050919050565b5f6020820190508181035f830152615b6a81615b31565b9050919050565b7f4c61207472616e73666572656e63696120646520746f6b656e732068612066615f8201527f6c6c61646f2e0000000000000000000000000000000000000000000000000000602082015250565b5f615bcb6026836147f2565b9150615bd682615b71565b604082019050919050565b5f6020820190508181035f830152615bf881615bbf565b9050919050565b7f70726f707565737461207369676e616c696e67000000000000000000000000005f82015250565b5f615c336013836147f2565b9150615c3e82615bff565b602082019050919050565b5f6020820190508181035f830152615c6081615c27565b9050919050565b7f70726f7075657374612073696e20636f6e747261746f20646520766f746163695f8201527f6f6e000000000000000000000000000000000000000000000000000000000000602082015250565b5f615cc16022836147f2565b9150615ccc82615c67565b604082019050919050565b5f6020820190508181035f830152615cee81615cb5565b9050919050565b7f707265737570756573746f203c20616c2064656d616e6461646f20656e206c615f8201527f2070726f70756573746100000000000000000000000000000000000000000000602082015250565b5f615d4f602a836147f2565b9150615d5a82615cf5565b604082019050919050565b5f6020820190508181035f830152615d7c81615d43565b905091905056fea2646970667358221220f9bd4e18e522e6b05d13698cdd7a0b7e8f1c430292a212b2c46f114d7238e97d64736f6c634300081a003360c060405234801561000f575f80fd5b50604051611da6380380611da6833981810160405281019061003191906102b9565b838381600390816100429190610559565b5080600490816100529190610559565b5050505f8211610097576040517f08c379a000000000000000000000000000000000000000000000000000000000815260040161008e906106a8565b60405180910390fd5b5f81116100d9576040517f08c379a00000000000000000000000000000000000000000000000000000000081526004016100d090610736565b60405180910390fd5b81608081815250508060a081815250505f6005819055503360065f6101000a81548173ffffffffffffffffffffffffffffffffffffffff021916908373ffffffffffffffffffffffffffffffffffffffff16021790555050505050610754565b5f604051905090565b5f80fd5b5f80fd5b5f80fd5b5f80fd5b5f601f19601f8301169050919050565b7f4e487b71000000000000000000000000000000000000000000000000000000005f52604160045260245ffd5b61019882610152565b810181811067ffffffffffffffff821117156101b7576101b6610162565b5b80604052505050565b5f6101c9610139565b90506101d5828261018f565b919050565b5f67ffffffffffffffff8211156101f4576101f3610162565b5b6101fd82610152565b9050602081019050919050565b8281835e5f83830152505050565b5f61022a610225846101da565b6101c0565b9050828152602081018484840111156102465761024561014e565b5b61025184828561020a565b509392505050565b5f82601f83011261026d5761026c61014a565b5b815161027d848260208601610218565b91505092915050565b5f819050919050565b61029881610286565b81146102a2575f80fd5b50565b5f815190506102b38161028f565b92915050565b5f805f80608085870312156102d1576102d0610142565b5b5f85015167ffffffffffffffff8111156102ee576102ed610146565b5b6102fa87828801610259565b945050602085015167ffffffffffffffff81111561031b5761031a610146565b5b61032787828801610259565b9350506040610338878288016102a5565b9250506060610349878288016102a5565b91505092959194509250565b5f81519050919050565b7f4e487b71000000000000000000000000000000000000000000000000000000005f52602260045260245ffd5b5f60028204905060018216806103a357607f821691505b6020821081036103b6576103b561035f565b5b50919050565b5f819050815f5260205f209050919050565b5f6020601f8301049050919050565b5f82821b905092915050565b5f600883026104187fffffffffffffffffffffffffffffffffffffffffffffffffffffffffffffffff826103dd565b61042286836103dd565b95508019841693508086168417925050509392505050565b5f819050919050565b5f61045d61045861045384610286565b61043a565b610286565b9050919050565b5f819050919050565b61047683610443565b61048a61048282610464565b8484546103e9565b825550505050565b5f90565b61049e610492565b6104a981848461046d565b505050565b5b818110156104cc576104c15f82610496565b6001810190506104af565b5050565b601f821115610511576104e2816103bc565b6104eb846103ce565b810160208510156104fa578190505b61050e610506856103ce565b8301826104ae565b50505b505050565b5f82821c905092915050565b5f6105315f1984600802610516565b1980831691505092915050565b5f6105498383610522565b9150826002028217905092915050565b61056282610355565b67ffffffffffffffff81111561057b5761057a610162565b5b610585825461038c565b6105908282856104d0565b5f60209050601f8311600181146105c1575f84156105af578287015190505b6105b9858261053e565b865550610620565b601f1984166105cf866103bc565b5f5b828110156105f6578489015182556001820191506020850194506020810190506105d1565b86831015610613578489015161060f601f891682610522565b8355505b6001600288020188555050505b505050505050565b5f82825260208201905092915050565b7f456c2070726563696f206e6f20707565646520736572206d656e6f72207175655f8201527f206365726f000000000000000000000000000000000000000000000000000000602082015250565b5f610692602583610628565b915061069d82610638565b604082019050919050565b5f6020820190508181035f8301526106bf81610686565b9050919050565b7f456c206d6178696d6f20646520746f6b656e73206e6f207075656465207365725f8201527f206d656e6f7220717565206365726f0000000000000000000000000000000000602082015250565b5f610720602f83610628565b915061072b826106c6565b604082019050919050565b5f6020820190508181035f83015261074d81610714565b9050919050565b60805160a05161161c61078a5f395f81816105510152818161060f015261096201525f81816105e8015261067a015261161c5ff3fe608060405234801561000f575f80fd5b5060043610610109575f3560e01c806370a08231116100a05780639dc29fac1161006f5780639dc29fac146102a9578063a9059cbb146102c5578063b2bdfa7b146102f5578063dd62ed3e14610313578063e83157421461034357610109565b806370a082311461021f5780637ff9b5961461024f5780638d75fe051461026d57806395d89b411461028b57610109565b8063313ce567116100dc578063313ce567146101a957806340c10f19146101c75780634b94f50e146101e35780636abcded11461020157610109565b806306fdde031461010d578063095ea7b31461012b57806318160ddd1461015b57806323b872dd14610179575b5f80fd5b610115610361565b6040516101229190611076565b60405180910390f35b61014560048036038101906101409190611127565b6103f1565b604051610152919061117f565b60405180910390f35b610163610413565b60405161017091906111a7565b60405180910390f35b610193600480360381019061018e91906111c0565b61041c565b6040516101a0919061117f565b60405180910390f35b6101b161044a565b6040516101be919061122b565b60405180910390f35b6101e160048036038101906101dc9190611127565b610452565b005b6101eb6105e5565b6040516101f891906111a7565b60405180910390f35b61020961060c565b60405161021691906111a7565b60405180910390f35b61023960048036038101906102349190611244565b610633565b60405161024691906111a7565b60405180910390f35b610257610678565b60405161026491906111a7565b60405180910390f35b61027561069c565b60405161028291906111a7565b60405180910390f35b6102936106a2565b6040516102a09190611076565b60405180910390f35b6102c360048036038101906102be9190611127565b610732565b005b6102df60048036038101906102da9190611127565b610897565b6040516102ec919061117f565b60405180910390f35b6102fd6108b9565b60405161030a919061127e565b60405180910390f35b61032d60048036038101906103289190611297565b6108de565b60405161033a91906111a7565b60405180910390f35b61034b610960565b60405161035891906111a7565b60405180910390f35b60606003805461037090611302565b80601f016020809104026020016040519081016040528092919081815260200182805461039c90611302565b80156103e75780601f106103be576101008083540402835291602001916103e7565b820191905f5260205f20905b8154815290600101906020018083116103ca57829003601f168201915b5050505050905090565b5f806103fb610984565b905061040881858561098b565b600191505092915050565b5f600254905090565b5f80610426610984565b905061043385828561099d565b61043e858585610a30565b60019150509392505050565b5f6012905090565b60065f9054906101000a900473ffffffffffffffffffffffffffffffffffffffff1673ffffffffffffffffffffffffffffffffffffffff163373ffffffffffffffffffffffffffffffffffffffff16146104e1576040517f08c379a00000000000000000000000000000000000000000000000000000000081526004016104d89061137c565b60405180910390fd5b5f73ffffffffffffffffffffffffffffffffffffffff168273ffffffffffffffffffffffffffffffffffffffff160361054f576040517f08c379a00000000000000000000000000000000000000000000000000000000081526004016105469061140a565b60405180910390fd5b7f00000000000000000000000000000000000000000000000000000000000000008160055461057e9190611455565b11156105bf576040517f08c379a00000000000000000000000000000000000000000000000000000000081526004016105b6906114d2565b60405180910390fd5b8060055f8282546105d09190611455565b925050819055506105e18282610b20565b5050565b5f7f0000000000000000000000000000000000000000000000000000000000000000905090565b5f7f0000000000000000000000000000000000000000000000000000000000000000905090565b5f805f8373ffffffffffffffffffffffffffffffffffffffff1673ffffffffffffffffffffffffffffffffffffffff1681526020019081526020015f20549050919050565b7f000000000000000000000000000000000000000000000000000000000000000081565b60055481565b6060600480546106b190611302565b80601f01602080910402602001604051908101604052809291908181526020018280546106dd90611302565b80156107285780601f106106ff57610100808354040283529160200191610728565b820191905f5260205f20905b81548152906001019060200180831161070b57829003601f168201915b5050505050905090565b60065f9054906101000a900473ffffffffffffffffffffffffffffffffffffffff1673ffffffffffffffffffffffffffffffffffffffff163373ffffffffffffffffffffffffffffffffffffffff16146107c1576040517f08c379a00000000000000000000000000000000000000000000000000000000081526004016107b89061137c565b60405180910390fd5b5f73ffffffffffffffffffffffffffffffffffffffff168273ffffffffffffffffffffffffffffffffffffffff160361082f576040517f08c379a00000000000000000000000000000000000000000000000000000000081526004016108269061140a565b60405180910390fd5b5f8111610871576040517f08c379a000000000000000000000000000000000000000000000000000000000815260040161086890611560565b60405180910390fd5b8060055f828254610882919061157e565b925050819055506108938282610b9f565b5050565b5f806108a1610984565b90506108ae818585610a30565b600191505092915050565b60065f9054906101000a900473ffffffffffffffffffffffffffffffffffffffff1681565b5f60015f8473ffffffffffffffffffffffffffffffffffffffff1673ffffffffffffffffffffffffffffffffffffffff1681526020019081526020015f205f8373ffffffffffffffffffffffffffffffffffffffff1673ffffffffffffffffffffffffffffffffffffffff1681526020019081526020015f2054905092915050565b7f000000000000000000000000000000000000000000000000000000000000000081565b5f33905090565b6109988383836001610c1e565b505050565b5f6109a884846108de565b90507fffffffffffffffffffffffffffffffffffffffffffffffffffffffffffffffff811015610a2a5781811015610a1b578281836040517ffb8f41b2000000000000000000000000000000000000000000000000000000008152600401610a12939291906115b1565b60405180910390fd5b610a2984848484035f610c1e565b5b50505050565b5f73ffffffffffffffffffffffffffffffffffffffff168373ffffffffffffffffffffffffffffffffffffffff1603610aa0575f6040517f96c6fd1e000000000000000000000000000000000000000000000000000000008152600401610a97919061127e565b60405180910390fd5b5f73ffffffffffffffffffffffffffffffffffffffff168273ffffffffffffffffffffffffffffffffffffffff1603610b10575f6040517fec442f05000000000000000000000000000000000000000000000000000000008152600401610b07919061127e565b60405180910390fd5b610b1b838383610ded565b505050565b5f73ffffffffffffffffffffffffffffffffffffffff168273ffffffffffffffffffffffffffffffffffffffff1603610b90575f6040517fec442f05000000000000000000000000000000000000000000000000000000008152600401610b87919061127e565b60405180910390fd5b610b9b5f8383610ded565b5050565b5f73ffffffffffffffffffffffffffffffffffffffff168273ffffffffffffffffffffffffffffffffffffffff1603610c0f575f6040517f96c6fd1e000000000000000000000000000000000000000000000000000000008152600401610c06919061127e565b60405180910390fd5b610c1a825f83610ded565b5050565b5f73ffffffffffffffffffffffffffffffffffffffff168473ffffffffffffffffffffffffffffffffffffffff1603610c8e575f6040517fe602df05000000000000000000000000000000000000000000000000000000008152600401610c85919061127e565b60405180910390fd5b5f73ffffffffffffffffffffffffffffffffffffffff168373ffffffffffffffffffffffffffffffffffffffff1603610cfe575f6040517f94280d62000000000000000000000000000000000000000000000000000000008152600401610cf5919061127e565b60405180910390fd5b8160015f8673ffffffffffffffffffffffffffffffffffffffff1673ffffffffffffffffffffffffffffffffffffffff1681526020019081526020015f205f8573ffffffffffffffffffffffffffffffffffffffff1673ffffffffffffffffffffffffffffffffffffffff1681526020019081526020015f20819055508015610de7578273ffffffffffffffffffffffffffffffffffffffff168473ffffffffffffffffffffffffffffffffffffffff167f8c5be1e5ebec7d5bd14f71427d1e84f3dd0314c0f7b2291e5b200ac8c7c3b92584604051610dde91906111a7565b60405180910390a35b50505050565b5f73ffffffffffffffffffffffffffffffffffffffff168373ffffffffffffffffffffffffffffffffffffffff1603610e3d578060025f828254610e319190611455565b92505081905550610f0b565b5f805f8573ffffffffffffffffffffffffffffffffffffffff1673ffffffffffffffffffffffffffffffffffffffff1681526020019081526020015f2054905081811015610ec6578381836040517fe450d38c000000000000000000000000000000000000000000000000000000008152600401610ebd939291906115b1565b60405180910390fd5b8181035f808673ffffffffffffffffffffffffffffffffffffffff1673ffffffffffffffffffffffffffffffffffffffff1681526020019081526020015f2081905550505b5f73ffffffffffffffffffffffffffffffffffffffff168273ffffffffffffffffffffffffffffffffffffffff1603610f52578060025f8282540392505081905550610f9c565b805f808473ffffffffffffffffffffffffffffffffffffffff1673ffffffffffffffffffffffffffffffffffffffff1681526020019081526020015f205f82825401925050819055505b8173ffffffffffffffffffffffffffffffffffffffff168373ffffffffffffffffffffffffffffffffffffffff167fddf252ad1be2c89b69c2b068fc378daa952ba7f163c4a11628f55a4df523b3ef83604051610ff991906111a7565b60405180910390a3505050565b5f81519050919050565b5f82825260208201905092915050565b8281835e5f83830152505050565b5f601f19601f8301169050919050565b5f61104882611006565b6110528185611010565b9350611062818560208601611020565b61106b8161102e565b840191505092915050565b5f6020820190508181035f83015261108e818461103e565b905092915050565b5f80fd5b5f73ffffffffffffffffffffffffffffffffffffffff82169050919050565b5f6110c38261109a565b9050919050565b6110d3816110b9565b81146110dd575f80fd5b50565b5f813590506110ee816110ca565b92915050565b5f819050919050565b611106816110f4565b8114611110575f80fd5b50565b5f81359050611121816110fd565b92915050565b5f806040838503121561113d5761113c611096565b5b5f61114a858286016110e0565b925050602061115b85828601611113565b9150509250929050565b5f8115159050919050565b61117981611165565b82525050565b5f6020820190506111925f830184611170565b92915050565b6111a1816110f4565b82525050565b5f6020820190506111ba5f830184611198565b92915050565b5f805f606084860312156111d7576111d6611096565b5b5f6111e4868287016110e0565b93505060206111f5868287016110e0565b925050604061120686828701611113565b9150509250925092565b5f60ff82169050919050565b61122581611210565b82525050565b5f60208201905061123e5f83018461121c565b92915050565b5f6020828403121561125957611258611096565b5b5f611266848285016110e0565b91505092915050565b611278816110b9565b82525050565b5f6020820190506112915f83018461126f565b92915050565b5f80604083850312156112ad576112ac611096565b5b5f6112ba858286016110e0565b92505060206112cb858286016110e0565b9150509250929050565b7f4e487b71000000000000000000000000000000000000000000000000000000005f52602260045260245ffd5b5f600282049050600182168061131957607f821691505b60208210810361132c5761132b6112d5565b5b50919050565b7f536f6c6f207075656465206c6c616d617220656c206f776e65720000000000005f82015250565b5f611366601a83611010565b915061137182611332565b602082019050919050565b5f6020820190508181035f8301526113938161135a565b9050919050565b7f4c6120646972656363696f6e2064657374696e6f206e6f2065732076616c69645f8201527f6100000000000000000000000000000000000000000000000000000000000000602082015250565b5f6113f4602183611010565b91506113ff8261139a565b604082019050919050565b5f6020820190508181035f830152611421816113e8565b9050919050565b7f4e487b71000000000000000000000000000000000000000000000000000000005f52601160045260245ffd5b5f61145f826110f4565b915061146a836110f4565b925082820190508082111561148257611481611428565b5b92915050565b7f4e6f2073652070756564656e20656d69746972206d617320746f6b656e7321005f82015250565b5f6114bc601f83611010565b91506114c782611488565b602082019050919050565b5f6020820190508181035f8301526114e9816114b0565b9050919050565b7f4e6f20736520707565646520656c696d696e61722030206e6920756e206e756d5f8201527f65726f206e6567617469766f20646520746f6b656e732e000000000000000000602082015250565b5f61154a603783611010565b9150611555826114f0565b604082019050919050565b5f6020820190508181035f8301526115778161153e565b9050919050565b5f611588826110f4565b9150611593836110f4565b92508282039050818111156115ab576115aa611428565b5b92915050565b5f6060820190506115c45f83018661126f565b6115d16020830185611198565b6115de6040830184611198565b94935050505056fea26469706673582212202ed87b0d446a752e1ee263b563c78f435aeb327cb9aa07a9911055151aef73c464736f6c634300081a0033",
			"opcodes": "PUSH1 0xA0 PUSH1 0x40 MSTORE PUSH0 PUSH1 0xE PUSH0 PUSH2 0x100 EXP DUP2 SLOAD DUP2 PUSH1 0xFF MUL NOT AND SWAP1 DUP4 ISZERO ISZERO MUL OR SWAP1 SSTORE POP CALLVALUE DUP1 ISZERO PUSH2 0x28 JUMPI PUSH0 DUP1 REVERT JUMPDEST POP PUSH1 0x40 MLOAD PUSH2 0x7F6A CODESIZE SUB DUP1 PUSH2 0x7F6A DUP4 CODECOPY DUP2 DUP2 ADD PUSH1 0x40 MSTORE DUP2 ADD SWAP1 PUSH2 0x4A SWAP2 SWAP1 PUSH2 0x1D7 JUMP JUMPDEST PUSH0 DUP3 GT PUSH2 0x8C JUMPI PUSH1 0x40 MLOAD PUSH32 0x8C379A000000000000000000000000000000000000000000000000000000000 DUP2 MSTORE PUSH1 0x4 ADD PUSH2 0x83 SWAP1 PUSH2 0x26F JUMP JUMPDEST PUSH1 0x40 MLOAD DUP1 SWAP2 SUB SWAP1 REVERT JUMPDEST PUSH0 DUP2 GT PUSH2 0xCE JUMPI PUSH1 0x40 MLOAD PUSH32 0x8C379A000000000000000000000000000000000000000000000000000000000 DUP2 MSTORE PUSH1 0x4 ADD PUSH2 0xC5 SWAP1 PUSH2 0x2D7 JUMP JUMPDEST PUSH1 0x40 MLOAD DUP1 SWAP2 SUB SWAP1 REVERT JUMPDEST CALLER PUSH20 0xFFFFFFFFFFFFFFFFFFFFFFFFFFFFFFFFFFFFFFFF AND PUSH1 0x80 DUP2 PUSH20 0xFFFFFFFFFFFFFFFFFFFFFFFFFFFFFFFFFFFFFFFF AND DUP2 MSTORE POP POP PUSH0 PUSH1 0x2 PUSH0 PUSH2 0x100 EXP DUP2 SLOAD DUP2 PUSH1 0xFF MUL NOT AND SWAP1 DUP4 ISZERO ISZERO MUL OR SWAP1 SSTORE POP DUP2 DUP2 PUSH1 0x40 MLOAD PUSH2 0x129 SWAP1 PUSH2 0x193 JUMP JUMPDEST PUSH2 0x134 SWAP3 SWAP2 SWAP1 PUSH2 0x398 JUMP JUMPDEST PUSH1 0x40 MLOAD DUP1 SWAP2 SUB SWAP1 PUSH0 CREATE DUP1 ISZERO DUP1 ISZERO PUSH2 0x14D JUMPI RETURNDATASIZE PUSH0 DUP1 RETURNDATACOPY RETURNDATASIZE PUSH0 REVERT JUMPDEST POP PUSH0 DUP1 PUSH2 0x100 EXP DUP2 SLOAD DUP2 PUSH20 0xFFFFFFFFFFFFFFFFFFFFFFFFFFFFFFFFFFFFFFFF MUL NOT AND SWAP1 DUP4 PUSH20 0xFFFFFFFFFFFFFFFFFFFFFFFFFFFFFFFFFFFFFFFF AND MUL OR SWAP1 SSTORE POP POP POP PUSH2 0x3E5 JUMP JUMPDEST PUSH2 0x1DA6 DUP1 PUSH2 0x61C4 DUP4 CODECOPY ADD SWAP1 JUMP JUMPDEST PUSH0 DUP1 REVERT JUMPDEST PUSH0 DUP2 SWAP1 POP SWAP2 SWAP1 POP JUMP JUMPDEST PUSH2 0x1B6 DUP2 PUSH2 0x1A4 JUMP JUMPDEST DUP2 EQ PUSH2 0x1C0 JUMPI PUSH0 DUP1 REVERT JUMPDEST POP JUMP JUMPDEST PUSH0 DUP2 MLOAD SWAP1 POP PUSH2 0x1D1 DUP2 PUSH2 0x1AD JUMP JUMPDEST SWAP3 SWAP2 POP POP JUMP JUMPDEST PUSH0 DUP1 PUSH1 0x40 DUP4 DUP6 SUB SLT ISZERO PUSH2 0x1ED JUMPI PUSH2 0x1EC PUSH2 0x1A0 JUMP JUMPDEST JUMPDEST PUSH0 PUSH2 0x1FA DUP6 DUP3 DUP7 ADD PUSH2 0x1C3 JUMP JUMPDEST SWAP3 POP POP PUSH1 0x20 PUSH2 0x20B DUP6 DUP3 DUP7 ADD PUSH2 0x1C3 JUMP JUMPDEST SWAP2 POP POP SWAP3 POP SWAP3 SWAP1 POP JUMP JUMPDEST PUSH0 DUP3 DUP3 MSTORE PUSH1 0x20 DUP3 ADD SWAP1 POP SWAP3 SWAP2 POP POP JUMP JUMPDEST PUSH32 0x50726563696F20746F6B656E73206861206465207365723E3000000000000000 PUSH0 DUP3 ADD MSTORE POP JUMP JUMPDEST PUSH0 PUSH2 0x259 PUSH1 0x19 DUP4 PUSH2 0x215 JUMP JUMPDEST SWAP2 POP PUSH2 0x264 DUP3 PUSH2 0x225 JUMP JUMPDEST PUSH1 0x20 DUP3 ADD SWAP1 POP SWAP2 SWAP1 POP JUMP JUMPDEST PUSH0 PUSH1 0x20 DUP3 ADD SWAP1 POP DUP2 DUP2 SUB PUSH0 DUP4 ADD MSTORE PUSH2 0x286 DUP2 PUSH2 0x24D JUMP JUMPDEST SWAP1 POP SWAP2 SWAP1 POP JUMP JUMPDEST PUSH32 0x546F6B656E73203E206365726F00000000000000000000000000000000000000 PUSH0 DUP3 ADD MSTORE POP JUMP JUMPDEST PUSH0 PUSH2 0x2C1 PUSH1 0xD DUP4 PUSH2 0x215 JUMP JUMPDEST SWAP2 POP PUSH2 0x2CC DUP3 PUSH2 0x28D JUMP JUMPDEST PUSH1 0x20 DUP3 ADD SWAP1 POP SWAP2 SWAP1 POP JUMP JUMPDEST PUSH0 PUSH1 0x20 DUP3 ADD SWAP1 POP DUP2 DUP2 SUB PUSH0 DUP4 ADD MSTORE PUSH2 0x2EE DUP2 PUSH2 0x2B5 JUMP JUMPDEST SWAP1 POP SWAP2 SWAP1 POP JUMP JUMPDEST PUSH32 0x44414F0000000000000000000000000000000000000000000000000000000000 PUSH0 DUP3 ADD MSTORE POP JUMP JUMPDEST PUSH0 PUSH2 0x329 PUSH1 0x3 DUP4 PUSH2 0x215 JUMP JUMPDEST SWAP2 POP PUSH2 0x334 DUP3 PUSH2 0x2F5 JUMP JUMPDEST PUSH1 0x20 DUP3 ADD SWAP1 POP SWAP2 SWAP1 POP JUMP JUMPDEST PUSH32 0x4456540000000000000000000000000000000000000000000000000000000000 PUSH0 DUP3 ADD MSTORE POP JUMP JUMPDEST PUSH0 PUSH2 0x373 PUSH1 0x3 DUP4 PUSH2 0x215 JUMP JUMPDEST SWAP2 POP PUSH2 0x37E DUP3 PUSH2 0x33F JUMP JUMPDEST PUSH1 0x20 DUP3 ADD SWAP1 POP SWAP2 SWAP1 POP JUMP JUMPDEST PUSH2 0x392 DUP2 PUSH2 0x1A4 JUMP JUMPDEST DUP3 MSTORE POP POP JUMP JUMPDEST PUSH0 PUSH1 0x80 DUP3 ADD SWAP1 POP DUP2 DUP2 SUB PUSH0 DUP4 ADD MSTORE PUSH2 0x3AF DUP2 PUSH2 0x31D JUMP JUMPDEST SWAP1 POP DUP2 DUP2 SUB PUSH1 0x20 DUP4 ADD MSTORE PUSH2 0x3C2 DUP2 PUSH2 0x367 JUMP JUMPDEST SWAP1 POP PUSH2 0x3D1 PUSH1 0x40 DUP4 ADD DUP6 PUSH2 0x389 JUMP JUMPDEST PUSH2 0x3DE PUSH1 0x60 DUP4 ADD DUP5 PUSH2 0x389 JUMP JUMPDEST SWAP4 SWAP3 POP POP POP JUMP JUMPDEST PUSH1 0x80 MLOAD PUSH2 0x5DB9 PUSH2 0x40B PUSH0 CODECOPY PUSH0 DUP2 DUP2 PUSH2 0x1D0B ADD MSTORE DUP2 DUP2 PUSH2 0x2210 ADD MSTORE PUSH2 0x2B6C ADD MSTORE PUSH2 0x5DB9 PUSH0 RETURN INVALID PUSH1 0x80 PUSH1 0x40 MSTORE PUSH1 0x4 CALLDATASIZE LT PUSH2 0xFD JUMPI PUSH0 CALLDATALOAD PUSH1 0xE0 SHR DUP1 PUSH4 0x973E9B8B GT PUSH2 0x94 JUMPI DUP1 PUSH4 0xBC903CB8 GT PUSH2 0x63 JUMPI DUP1 PUSH4 0xBC903CB8 EQ PUSH2 0x2E3 JUMPI DUP1 PUSH4 0xC631B292 EQ PUSH2 0x31F JUMPI DUP1 PUSH4 0xD0FEBE4C EQ PUSH2 0x335 JUMPI DUP1 PUSH4 0xE0A8F6F5 EQ PUSH2 0x33F JUMPI DUP1 PUSH4 0xFFFEFD91 EQ PUSH2 0x367 JUMPI PUSH2 0xFD JUMP JUMPDEST DUP1 PUSH4 0x973E9B8B EQ PUSH2 0x249 JUMPI DUP1 PUSH4 0x9AB3F7A6 EQ PUSH2 0x273 JUMPI DUP1 PUSH4 0xA80DB6FC EQ PUSH2 0x2AF JUMPI DUP1 PUSH4 0xAFFC0670 EQ PUSH2 0x2D9 JUMPI PUSH2 0xFD JUMP JUMPDEST DUP1 PUSH4 0x649C649C GT PUSH2 0xD0 JUMPI DUP1 PUSH4 0x649C649C EQ PUSH2 0x1A7 JUMPI DUP1 PUSH4 0x6C11BCD3 EQ PUSH2 0x1CF JUMPI DUP1 PUSH4 0x7B0472F0 EQ PUSH2 0x1F7 JUMPI DUP1 PUSH4 0x8E08A50B EQ PUSH2 0x21F JUMPI PUSH2 0xFD JUMP JUMPDEST DUP1 PUSH4 0x3AC0FEAC EQ PUSH2 0x101 JUMPI DUP1 PUSH4 0x3D571E97 EQ PUSH2 0x12B JUMPI DUP1 PUSH4 0x4ECE90A8 EQ PUSH2 0x141 JUMPI DUP1 PUSH4 0x52CB42BC EQ PUSH2 0x16B JUMPI JUMPDEST PUSH0 DUP1 REVERT JUMPDEST CALLVALUE DUP1 ISZERO PUSH2 0x10C JUMPI PUSH0 DUP1 REVERT JUMPDEST POP PUSH2 0x115 PUSH2 0x371 JUMP JUMPDEST PUSH1 0x40 MLOAD PUSH2 0x122 SWAP2 SWAP1 PUSH2 0x428D JUMP JUMPDEST PUSH1 0x40 MLOAD DUP1 SWAP2 SUB SWAP1 RETURN JUMPDEST CALLVALUE DUP1 ISZERO PUSH2 0x136 JUMPI PUSH0 DUP1 REVERT JUMPDEST POP PUSH2 0x13F PUSH2 0x415 JUMP JUMPDEST STOP JUMPDEST CALLVALUE DUP1 ISZERO PUSH2 0x14C JUMPI PUSH0 DUP1 REVERT JUMPDEST POP PUSH2 0x155 PUSH2 0x50B JUMP JUMPDEST PUSH1 0x40 MLOAD PUSH2 0x162 SWAP2 SWAP1 PUSH2 0x4327 JUMP JUMPDEST PUSH1 0x40 MLOAD DUP1 SWAP2 SUB SWAP1 RETURN JUMPDEST CALLVALUE DUP1 ISZERO PUSH2 0x176 JUMPI PUSH0 DUP1 REVERT JUMPDEST POP PUSH2 0x191 PUSH1 0x4 DUP1 CALLDATASIZE SUB DUP2 ADD SWAP1 PUSH2 0x18C SWAP2 SWAP1 PUSH2 0x4383 JUMP JUMPDEST PUSH2 0x532 JUMP JUMPDEST PUSH1 0x40 MLOAD PUSH2 0x19E SWAP2 SWAP1 PUSH2 0x43BD JUMP JUMPDEST PUSH1 0x40 MLOAD DUP1 SWAP2 SUB SWAP1 RETURN JUMPDEST CALLVALUE DUP1 ISZERO PUSH2 0x1B2 JUMPI PUSH0 DUP1 REVERT JUMPDEST POP PUSH2 0x1CD PUSH1 0x4 DUP1 CALLDATASIZE SUB DUP2 ADD SWAP1 PUSH2 0x1C8 SWAP2 SWAP1 PUSH2 0x4400 JUMP JUMPDEST PUSH2 0x65A JUMP JUMPDEST STOP JUMPDEST CALLVALUE DUP1 ISZERO PUSH2 0x1DA JUMPI PUSH0 DUP1 REVERT JUMPDEST POP PUSH2 0x1F5 PUSH1 0x4 DUP1 CALLDATASIZE SUB DUP2 ADD SWAP1 PUSH2 0x1F0 SWAP2 SWAP1 PUSH2 0x443E JUMP JUMPDEST PUSH2 0xD60 JUMP JUMPDEST STOP JUMPDEST CALLVALUE DUP1 ISZERO PUSH2 0x202 JUMPI PUSH0 DUP1 REVERT JUMPDEST POP PUSH2 0x21D PUSH1 0x4 DUP1 CALLDATASIZE SUB DUP2 ADD SWAP1 PUSH2 0x218 SWAP2 SWAP1 PUSH2 0x4400 JUMP JUMPDEST PUSH2 0x1198 JUMP JUMPDEST STOP JUMPDEST CALLVALUE DUP1 ISZERO PUSH2 0x22A JUMPI PUSH0 DUP1 REVERT JUMPDEST POP PUSH2 0x233 PUSH2 0x16E7 JUMP JUMPDEST PUSH1 0x40 MLOAD PUSH2 0x240 SWAP2 SWAP1 PUSH2 0x428D JUMP JUMPDEST PUSH1 0x40 MLOAD DUP1 SWAP2 SUB SWAP1 RETURN JUMPDEST CALLVALUE DUP1 ISZERO PUSH2 0x254 JUMPI PUSH0 DUP1 REVERT JUMPDEST POP PUSH2 0x25D PUSH2 0x178B JUMP JUMPDEST PUSH1 0x40 MLOAD PUSH2 0x26A SWAP2 SWAP1 PUSH2 0x43BD JUMP JUMPDEST PUSH1 0x40 MLOAD DUP1 SWAP2 SUB SWAP1 RETURN JUMPDEST CALLVALUE DUP1 ISZERO PUSH2 0x27E JUMPI PUSH0 DUP1 REVERT JUMPDEST POP PUSH2 0x299 PUSH1 0x4 DUP1 CALLDATASIZE SUB DUP2 ADD SWAP1 PUSH2 0x294 SWAP2 SWAP1 PUSH2 0x44CA JUMP JUMPDEST PUSH2 0x182F JUMP JUMPDEST PUSH1 0x40 MLOAD PUSH2 0x2A6 SWAP2 SWAP1 PUSH2 0x43BD JUMP JUMPDEST PUSH1 0x40 MLOAD DUP1 SWAP2 SUB SWAP1 RETURN JUMPDEST CALLVALUE DUP1 ISZERO PUSH2 0x2BA JUMPI PUSH0 DUP1 REVERT JUMPDEST POP PUSH2 0x2C3 PUSH2 0x1C65 JUMP JUMPDEST PUSH1 0x40 MLOAD PUSH2 0x2D0 SWAP2 SWAP1 PUSH2 0x428D JUMP JUMPDEST PUSH1 0x40 MLOAD DUP1 SWAP2 SUB SWAP1 RETURN JUMPDEST PUSH2 0x2E1 PUSH2 0x1D09 JUMP JUMPDEST STOP JUMPDEST CALLVALUE DUP1 ISZERO PUSH2 0x2EE JUMPI PUSH0 DUP1 REVERT JUMPDEST POP PUSH2 0x309 PUSH1 0x4 DUP1 CALLDATASIZE SUB DUP2 ADD SWAP1 PUSH2 0x304 SWAP2 SWAP1 PUSH2 0x443E JUMP JUMPDEST PUSH2 0x1E77 JUMP JUMPDEST PUSH1 0x40 MLOAD PUSH2 0x316 SWAP2 SWAP1 PUSH2 0x47D2 JUMP JUMPDEST PUSH1 0x40 MLOAD DUP1 SWAP2 SUB SWAP1 RETURN JUMPDEST CALLVALUE DUP1 ISZERO PUSH2 0x32A JUMPI PUSH0 DUP1 REVERT JUMPDEST POP PUSH2 0x333 PUSH2 0x220E JUMP JUMPDEST STOP JUMPDEST PUSH2 0x33D PUSH2 0x2C7B JUMP JUMPDEST STOP JUMPDEST CALLVALUE DUP1 ISZERO PUSH2 0x34A JUMPI PUSH0 DUP1 REVERT JUMPDEST POP PUSH2 0x365 PUSH1 0x4 DUP1 CALLDATASIZE SUB DUP2 ADD SWAP1 PUSH2 0x360 SWAP2 SWAP1 PUSH2 0x443E JUMP JUMPDEST PUSH2 0x305B JUMP JUMPDEST STOP JUMPDEST PUSH2 0x36F PUSH2 0x348D JUMP JUMPDEST STOP JUMPDEST PUSH1 0x60 PUSH1 0x2 PUSH0 SWAP1 SLOAD SWAP1 PUSH2 0x100 EXP SWAP1 DIV PUSH1 0xFF AND PUSH2 0x3C1 JUMPI PUSH1 0x40 MLOAD PUSH32 0x8C379A000000000000000000000000000000000000000000000000000000000 DUP2 MSTORE PUSH1 0x4 ADD PUSH2 0x3B8 SWAP1 PUSH2 0x4872 JUMP JUMPDEST PUSH1 0x40 MLOAD DUP1 SWAP2 SUB SWAP1 REVERT JUMPDEST PUSH1 0xC DUP1 SLOAD DUP1 PUSH1 0x20 MUL PUSH1 0x20 ADD PUSH1 0x40 MLOAD SWAP1 DUP2 ADD PUSH1 0x40 MSTORE DUP1 SWAP3 SWAP2 SWAP1 DUP2 DUP2 MSTORE PUSH1 0x20 ADD DUP3 DUP1 SLOAD DUP1 ISZERO PUSH2 0x40B JUMPI PUSH1 0x20 MUL DUP3 ADD SWAP2 SWAP1 PUSH0 MSTORE PUSH1 0x20 PUSH0 KECCAK256 SWAP1 JUMPDEST DUP2 SLOAD DUP2 MSTORE PUSH1 0x20 ADD SWAP1 PUSH1 0x1 ADD SWAP1 DUP1 DUP4 GT PUSH2 0x3F7 JUMPI JUMPDEST POP POP POP POP POP SWAP1 POP SWAP1 JUMP JUMPDEST PUSH1 0x8 PUSH0 CALLER PUSH20 0xFFFFFFFFFFFFFFFFFFFFFFFFFFFFFFFFFFFFFFFF AND PUSH20 0xFFFFFFFFFFFFFFFFFFFFFFFFFFFFFFFFFFFFFFFF AND DUP2 MSTORE PUSH1 0x20 ADD SWAP1 DUP2 MSTORE PUSH1 0x20 ADD PUSH0 KECCAK256 PUSH0 SWAP1 SLOAD SWAP1 PUSH2 0x100 EXP SWAP1 DIV PUSH1 0xFF AND PUSH2 0x49E JUMPI PUSH1 0x40 MLOAD PUSH32 0x8C379A000000000000000000000000000000000000000000000000000000000 DUP2 MSTORE PUSH1 0x4 ADD PUSH2 0x495 SWAP1 PUSH2 0x48DA JUMP JUMPDEST PUSH1 0x40 MLOAD DUP1 SWAP2 SUB SWAP1 REVERT JUMPDEST PUSH0 PUSH1 0x8 PUSH0 CALLER PUSH20 0xFFFFFFFFFFFFFFFFFFFFFFFFFFFFFFFFFFFFFFFF AND PUSH20 0xFFFFFFFFFFFFFFFFFFFFFFFFFFFFFFFFFFFFFFFF AND DUP2 MSTORE PUSH1 0x20 ADD SWAP1 DUP2 MSTORE PUSH1 0x20 ADD PUSH0 KECCAK256 PUSH0 PUSH2 0x100 EXP DUP2 SLOAD DUP2 PUSH1 0xFF MUL NOT AND SWAP1 DUP4 ISZERO ISZERO MUL OR SWAP1 SSTORE POP PUSH1 0x7 PUSH0 DUP2 SLOAD DUP1 SWAP3 SWAP2 SWAP1 PUSH2 0x504 SWAP1 PUSH2 0x4925 JUMP JUMPDEST SWAP2 SWAP1 POP SSTORE POP JUMP JUMPDEST PUSH0 DUP1 PUSH0 SWAP1 SLOAD SWAP1 PUSH2 0x100 EXP SWAP1 DIV PUSH20 0xFFFFFFFFFFFFFFFFFFFFFFFFFFFFFFFFFFFFFFFF AND SWAP1 POP SWAP1 JUMP JUMPDEST PUSH0 PUSH1 0x8 PUSH0 DUP4 PUSH20 0xFFFFFFFFFFFFFFFFFFFFFFFFFFFFFFFFFFFFFFFF AND PUSH20 0xFFFFFFFFFFFFFFFFFFFFFFFFFFFFFFFFFFFFFFFF AND DUP2 MSTORE PUSH1 0x20 ADD SWAP1 DUP2 MSTORE PUSH1 0x20 ADD PUSH0 KECCAK256 PUSH0 SWAP1 SLOAD SWAP1 PUSH2 0x100 EXP SWAP1 DIV PUSH1 0xFF AND PUSH2 0x5BC JUMPI PUSH1 0x40 MLOAD PUSH32 0x8C379A000000000000000000000000000000000000000000000000000000000 DUP2 MSTORE PUSH1 0x4 ADD PUSH2 0x5B3 SWAP1 PUSH2 0x4996 JUMP JUMPDEST PUSH1 0x40 MLOAD DUP1 SWAP2 SUB SWAP1 REVERT JUMPDEST PUSH0 DUP1 SLOAD SWAP1 PUSH2 0x100 EXP SWAP1 DIV PUSH20 0xFFFFFFFFFFFFFFFFFFFFFFFFFFFFFFFFFFFFFFFF AND PUSH20 0xFFFFFFFFFFFFFFFFFFFFFFFFFFFFFFFFFFFFFFFF AND PUSH4 0x70A08231 DUP4 PUSH1 0x40 MLOAD DUP3 PUSH4 0xFFFFFFFF AND PUSH1 0xE0 SHL DUP2 MSTORE PUSH1 0x4 ADD PUSH2 0x614 SWAP2 SWAP1 PUSH2 0x49C3 JUMP JUMPDEST PUSH1 0x20 PUSH1 0x40 MLOAD DUP1 DUP4 SUB DUP2 DUP7 GAS STATICCALL ISZERO DUP1 ISZERO PUSH2 0x62F JUMPI RETURNDATASIZE PUSH0 DUP1 RETURNDATACOPY RETURNDATASIZE PUSH0 REVERT JUMPDEST POP POP POP POP PUSH1 0x40 MLOAD RETURNDATASIZE PUSH1 0x1F NOT PUSH1 0x1F DUP3 ADD AND DUP3 ADD DUP1 PUSH1 0x40 MSTORE POP DUP2 ADD SWAP1 PUSH2 0x653 SWAP2 SWAP1 PUSH2 0x49F0 JUMP JUMPDEST SWAP1 POP SWAP2 SWAP1 POP JUMP JUMPDEST PUSH1 0x2 PUSH0 SWAP1 SLOAD SWAP1 PUSH2 0x100 EXP SWAP1 DIV PUSH1 0xFF AND PUSH2 0x6A8 JUMPI PUSH1 0x40 MLOAD PUSH32 0x8C379A000000000000000000000000000000000000000000000000000000000 DUP2 MSTORE PUSH1 0x4 ADD PUSH2 0x69F SWAP1 PUSH2 0x4872 JUMP JUMPDEST PUSH1 0x40 MLOAD DUP1 SWAP2 SUB SWAP1 REVERT JUMPDEST DUP1 PUSH1 0xA SLOAD DUP2 LT PUSH2 0x6ED JUMPI PUSH1 0x40 MLOAD PUSH32 0x8C379A000000000000000000000000000000000000000000000000000000000 DUP2 MSTORE PUSH1 0x4 ADD PUSH2 0x6E4 SWAP1 PUSH2 0x4A65 JUMP JUMPDEST PUSH1 0x40 MLOAD DUP1 SWAP2 SUB SWAP1 REVERT JUMPDEST PUSH1 0x8 PUSH0 CALLER PUSH20 0xFFFFFFFFFFFFFFFFFFFFFFFFFFFFFFFFFFFFFFFF AND PUSH20 0xFFFFFFFFFFFFFFFFFFFFFFFFFFFFFFFFFFFFFFFF AND DUP2 MSTORE PUSH1 0x20 ADD SWAP1 DUP2 MSTORE PUSH1 0x20 ADD PUSH0 KECCAK256 PUSH0 SWAP1 SLOAD SWAP1 PUSH2 0x100 EXP SWAP1 DIV PUSH1 0xFF AND PUSH2 0x776 JUMPI PUSH1 0x40 MLOAD PUSH32 0x8C379A000000000000000000000000000000000000000000000000000000000 DUP2 MSTORE PUSH1 0x4 ADD PUSH2 0x76D SWAP1 PUSH2 0x48DA JUMP JUMPDEST PUSH1 0x40 MLOAD DUP1 SWAP2 SUB SWAP1 REVERT JUMPDEST DUP2 PUSH1 0x9 PUSH0 DUP3 DUP2 MSTORE PUSH1 0x20 ADD SWAP1 DUP2 MSTORE PUSH1 0x20 ADD PUSH0 KECCAK256 PUSH1 0x7 ADD PUSH1 0x16 SWAP1 SLOAD SWAP1 PUSH2 0x100 EXP SWAP1 DIV PUSH1 0xFF AND ISZERO PUSH2 0x7D9 JUMPI PUSH1 0x40 MLOAD PUSH32 0x8C379A000000000000000000000000000000000000000000000000000000000 DUP2 MSTORE PUSH1 0x4 ADD PUSH2 0x7D0 SWAP1 PUSH2 0x4ACD JUMP JUMPDEST PUSH1 0x40 MLOAD DUP1 SWAP2 SUB SWAP1 REVERT JUMPDEST DUP3 PUSH1 0x9 PUSH0 DUP3 DUP2 MSTORE PUSH1 0x20 ADD SWAP1 DUP2 MSTORE PUSH1 0x20 ADD PUSH0 KECCAK256 PUSH1 0x7 ADD PUSH1 0x15 SWAP1 SLOAD SWAP1 PUSH2 0x100 EXP SWAP1 DIV PUSH1 0xFF AND ISZERO PUSH2 0x83C JUMPI PUSH1 0x40 MLOAD PUSH32 0x8C379A000000000000000000000000000000000000000000000000000000000 DUP2 MSTORE PUSH1 0x4 ADD PUSH2 0x833 SWAP1 PUSH2 0x4B35 JUMP JUMPDEST PUSH1 0x40 MLOAD DUP1 SWAP2 SUB SWAP1 REVERT JUMPDEST PUSH1 0xE PUSH0 SWAP1 SLOAD SWAP1 PUSH2 0x100 EXP SWAP1 DIV PUSH1 0xFF AND ISZERO PUSH2 0x854 JUMPI PUSH0 DUP1 REVERT JUMPDEST PUSH0 DUP6 GT PUSH2 0x896 JUMPI PUSH1 0x40 MLOAD PUSH32 0x8C379A000000000000000000000000000000000000000000000000000000000 DUP2 MSTORE PUSH1 0x4 ADD PUSH2 0x88D SWAP1 PUSH2 0x4B9D JUMP JUMPDEST PUSH1 0x40 MLOAD DUP1 SWAP2 SUB SWAP1 REVERT JUMPDEST DUP5 PUSH1 0x3 PUSH0 DUP7 DUP2 MSTORE PUSH1 0x20 ADD SWAP1 DUP2 MSTORE PUSH1 0x20 ADD PUSH0 KECCAK256 PUSH0 CALLER PUSH20 0xFFFFFFFFFFFFFFFFFFFFFFFFFFFFFFFFFFFFFFFF AND PUSH20 0xFFFFFFFFFFFFFFFFFFFFFFFFFFFFFFFFFFFFFFFF AND DUP2 MSTORE PUSH1 0x20 ADD SWAP1 DUP2 MSTORE PUSH1 0x20 ADD PUSH0 KECCAK256 SLOAD LT ISZERO PUSH2 0x925 JUMPI PUSH1 0x40 MLOAD PUSH32 0x8C379A000000000000000000000000000000000000000000000000000000000 DUP2 MSTORE PUSH1 0x4 ADD PUSH2 0x91C SWAP1 PUSH2 0x4C2B JUMP JUMPDEST PUSH1 0x40 MLOAD DUP1 SWAP2 SUB SWAP1 REVERT JUMPDEST PUSH0 PUSH1 0x3 PUSH0 DUP7 DUP2 MSTORE PUSH1 0x20 ADD SWAP1 DUP2 MSTORE PUSH1 0x20 ADD PUSH0 KECCAK256 PUSH0 CALLER PUSH20 0xFFFFFFFFFFFFFFFFFFFFFFFFFFFFFFFFFFFFFFFF AND PUSH20 0xFFFFFFFFFFFFFFFFFFFFFFFFFFFFFFFFFFFFFFFF AND DUP2 MSTORE PUSH1 0x20 ADD SWAP1 DUP2 MSTORE PUSH1 0x20 ADD PUSH0 KECCAK256 SLOAD SWAP1 POP PUSH0 DUP7 DUP3 PUSH2 0x982 SWAP2 SWAP1 PUSH2 0x4C49 JUMP JUMPDEST SWAP1 POP PUSH0 DUP2 DUP3 PUSH2 0x991 SWAP2 SWAP1 PUSH2 0x4C7C JUMP JUMPDEST DUP4 DUP5 PUSH2 0x99D SWAP2 SWAP1 PUSH2 0x4C7C JUMP JUMPDEST PUSH2 0x9A7 SWAP2 SWAP1 PUSH2 0x4C49 JUMP JUMPDEST SWAP1 POP DUP1 PUSH0 DUP1 SLOAD SWAP1 PUSH2 0x100 EXP SWAP1 DIV PUSH20 0xFFFFFFFFFFFFFFFFFFFFFFFFFFFFFFFFFFFFFFFF AND PUSH20 0xFFFFFFFFFFFFFFFFFFFFFFFFFFFFFFFFFFFFFFFF AND PUSH4 0x70A08231 ADDRESS PUSH1 0x40 MLOAD DUP3 PUSH4 0xFFFFFFFF AND PUSH1 0xE0 SHL DUP2 MSTORE PUSH1 0x4 ADD PUSH2 0xA02 SWAP2 SWAP1 PUSH2 0x49C3 JUMP JUMPDEST PUSH1 0x20 PUSH1 0x40 MLOAD DUP1 DUP4 SUB DUP2 DUP7 GAS STATICCALL ISZERO DUP1 ISZERO PUSH2 0xA1D JUMPI RETURNDATASIZE PUSH0 DUP1 RETURNDATACOPY RETURNDATASIZE PUSH0 REVERT JUMPDEST POP POP POP POP PUSH1 0x40 MLOAD RETURNDATASIZE PUSH1 0x1F NOT PUSH1 0x1F DUP3 ADD AND DUP3 ADD DUP1 PUSH1 0x40 MSTORE POP DUP2 ADD SWAP1 PUSH2 0xA41 SWAP2 SWAP1 PUSH2 0x49F0 JUMP JUMPDEST LT ISZERO PUSH2 0xA82 JUMPI PUSH1 0x40 MLOAD PUSH32 0x8C379A000000000000000000000000000000000000000000000000000000000 DUP2 MSTORE PUSH1 0x4 ADD PUSH2 0xA79 SWAP1 PUSH2 0x4D07 JUMP JUMPDEST PUSH1 0x40 MLOAD DUP1 SWAP2 SUB SWAP1 REVERT JUMPDEST PUSH0 PUSH1 0x9 PUSH0 DUP10 DUP2 MSTORE PUSH1 0x20 ADD SWAP1 DUP2 MSTORE PUSH1 0x20 ADD PUSH0 KECCAK256 SWAP1 POP DUP3 PUSH1 0x3 PUSH0 DUP11 DUP2 MSTORE PUSH1 0x20 ADD SWAP1 DUP2 MSTORE PUSH1 0x20 ADD PUSH0 KECCAK256 PUSH0 CALLER PUSH20 0xFFFFFFFFFFFFFFFFFFFFFFFFFFFFFFFFFFFFFFFF AND PUSH20 0xFFFFFFFFFFFFFFFFFFFFFFFFFFFFFFFFFFFFFFFF AND DUP2 MSTORE PUSH1 0x20 ADD SWAP1 DUP2 MSTORE PUSH1 0x20 ADD PUSH0 KECCAK256 DUP2 SWAP1 SSTORE POP DUP9 DUP2 PUSH1 0x4 ADD PUSH0 DUP3 DUP3 SLOAD PUSH2 0xAFA SWAP2 SWAP1 PUSH2 0x4C49 JUMP JUMPDEST SWAP3 POP POP DUP2 SWAP1 SSTORE POP DUP2 DUP2 PUSH1 0x8 ADD PUSH0 DUP3 DUP3 SLOAD PUSH2 0xB14 SWAP2 SWAP1 PUSH2 0x4C49 JUMP JUMPDEST SWAP3 POP POP DUP2 SWAP1 SSTORE POP PUSH0 DUP4 SUB PUSH2 0xD18 JUMPI PUSH0 PUSH1 0x4 PUSH0 DUP11 DUP2 MSTORE PUSH1 0x20 ADD SWAP1 DUP2 MSTORE PUSH1 0x20 ADD PUSH0 KECCAK256 PUSH0 CALLER PUSH20 0xFFFFFFFFFFFFFFFFFFFFFFFFFFFFFFFFFFFFFFFF AND PUSH20 0xFFFFFFFFFFFFFFFFFFFFFFFFFFFFFFFFFFFFFFFF AND DUP2 MSTORE PUSH1 0x20 ADD SWAP1 DUP2 MSTORE PUSH1 0x20 ADD PUSH0 KECCAK256 SLOAD SWAP1 POP PUSH0 PUSH1 0x1 DUP4 PUSH1 0x9 ADD DUP1 SLOAD SWAP1 POP PUSH2 0xB87 SWAP2 SWAP1 PUSH2 0x4C49 JUMP JUMPDEST SWAP1 POP DUP1 DUP3 EQ PUSH2 0xC80 JUMPI PUSH0 DUP4 PUSH1 0x9 ADD DUP3 DUP2 SLOAD DUP2 LT PUSH2 0xBA7 JUMPI PUSH2 0xBA6 PUSH2 0x4D25 JUMP JUMPDEST JUMPDEST SWAP1 PUSH0 MSTORE PUSH1 0x20 PUSH0 KECCAK256 ADD PUSH0 SWAP1 SLOAD SWAP1 PUSH2 0x100 EXP SWAP1 DIV PUSH20 0xFFFFFFFFFFFFFFFFFFFFFFFFFFFFFFFFFFFFFFFF AND SWAP1 POP DUP1 DUP5 PUSH1 0x9 ADD DUP5 DUP2 SLOAD DUP2 LT PUSH2 0xBE8 JUMPI PUSH2 0xBE7 PUSH2 0x4D25 JUMP JUMPDEST JUMPDEST SWAP1 PUSH0 MSTORE PUSH1 0x20 PUSH0 KECCAK256 ADD PUSH0 PUSH2 0x100 EXP DUP2 SLOAD DUP2 PUSH20 0xFFFFFFFFFFFFFFFFFFFFFFFFFFFFFFFFFFFFFFFF MUL NOT AND SWAP1 DUP4 PUSH20 0xFFFFFFFFFFFFFFFFFFFFFFFFFFFFFFFFFFFFFFFF AND MUL OR SWAP1 SSTORE POP DUP3 PUSH1 0x4 PUSH0 DUP14 DUP2 MSTORE PUSH1 0x20 ADD SWAP1 DUP2 MSTORE PUSH1 0x20 ADD PUSH0 KECCAK256 PUSH0 DUP4 PUSH20 0xFFFFFFFFFFFFFFFFFFFFFFFFFFFFFFFFFFFFFFFF AND PUSH20 0xFFFFFFFFFFFFFFFFFFFFFFFFFFFFFFFFFFFFFFFF AND DUP2 MSTORE PUSH1 0x20 ADD SWAP1 DUP2 MSTORE PUSH1 0x20 ADD PUSH0 KECCAK256 DUP2 SWAP1 SSTORE POP POP JUMPDEST DUP3 PUSH1 0x9 ADD DUP1 SLOAD DUP1 PUSH2 0xC94 JUMPI PUSH2 0xC93 PUSH2 0x4D52 JUMP JUMPDEST JUMPDEST PUSH1 0x1 SWAP1 SUB DUP2 DUP2 SWAP1 PUSH0 MSTORE PUSH1 0x20 PUSH0 KECCAK256 ADD PUSH0 PUSH2 0x100 EXP DUP2 SLOAD SWAP1 PUSH20 0xFFFFFFFFFFFFFFFFFFFFFFFFFFFFFFFFFFFFFFFF MUL NOT AND SWAP1 SSTORE SWAP1 SSTORE PUSH1 0x4 PUSH0 DUP12 DUP2 MSTORE PUSH1 0x20 ADD SWAP1 DUP2 MSTORE PUSH1 0x20 ADD PUSH0 KECCAK256 PUSH0 CALLER PUSH20 0xFFFFFFFFFFFFFFFFFFFFFFFFFFFFFFFFFFFFFFFF AND PUSH20 0xFFFFFFFFFFFFFFFFFFFFFFFFFFFFFFFFFFFFFFFF AND DUP2 MSTORE PUSH1 0x20 ADD SWAP1 DUP2 MSTORE PUSH1 0x20 ADD PUSH0 KECCAK256 PUSH0 SWAP1 SSTORE POP POP JUMPDEST PUSH1 0x1 PUSH1 0xE PUSH0 PUSH2 0x100 EXP DUP2 SLOAD DUP2 PUSH1 0xFF MUL NOT AND SWAP1 DUP4 ISZERO ISZERO MUL OR SWAP1 SSTORE POP PUSH2 0xD3C CALLER DUP4 PUSH2 0x3776 JUMP JUMPDEST PUSH0 PUSH1 0xE PUSH0 PUSH2 0x100 EXP DUP2 SLOAD DUP2 PUSH1 0xFF MUL NOT AND SWAP1 DUP4 ISZERO ISZERO MUL OR SWAP1 SSTORE POP POP POP POP POP POP POP POP POP POP JUMP JUMPDEST PUSH1 0x8 PUSH0 CALLER PUSH20 0xFFFFFFFFFFFFFFFFFFFFFFFFFFFFFFFFFFFFFFFF AND PUSH20 0xFFFFFFFFFFFFFFFFFFFFFFFFFFFFFFFFFFFFFFFF AND DUP2 MSTORE PUSH1 0x20 ADD SWAP1 DUP2 MSTORE PUSH1 0x20 ADD PUSH0 KECCAK256 PUSH0 SWAP1 SLOAD SWAP1 PUSH2 0x100 EXP SWAP1 DIV PUSH1 0xFF AND PUSH2 0xDE9 JUMPI PUSH1 0x40 MLOAD PUSH32 0x8C379A000000000000000000000000000000000000000000000000000000000 DUP2 MSTORE PUSH1 0x4 ADD PUSH2 0xDE0 SWAP1 PUSH2 0x48DA JUMP JUMPDEST PUSH1 0x40 MLOAD DUP1 SWAP2 SUB SWAP1 REVERT JUMPDEST PUSH1 0xE PUSH0 SWAP1 SLOAD SWAP1 PUSH2 0x100 EXP SWAP1 DIV PUSH1 0xFF AND ISZERO PUSH2 0xE38 JUMPI PUSH1 0x40 MLOAD PUSH32 0x8C379A000000000000000000000000000000000000000000000000000000000 DUP2 MSTORE PUSH1 0x4 ADD PUSH2 0xE2F SWAP1 PUSH2 0x4DC9 JUMP JUMPDEST PUSH1 0x40 MLOAD DUP1 SWAP2 SUB SWAP1 REVERT JUMPDEST PUSH0 DUP2 GT PUSH2 0xE7A JUMPI PUSH1 0x40 MLOAD PUSH32 0x8C379A000000000000000000000000000000000000000000000000000000000 DUP2 MSTORE PUSH1 0x4 ADD PUSH2 0xE71 SWAP1 PUSH2 0x4E31 JUMP JUMPDEST PUSH1 0x40 MLOAD DUP1 SWAP2 SUB SWAP1 REVERT JUMPDEST DUP1 PUSH0 DUP1 SLOAD SWAP1 PUSH2 0x100 EXP SWAP1 DIV PUSH20 0xFFFFFFFFFFFFFFFFFFFFFFFFFFFFFFFFFFFFFFFF AND PUSH20 0xFFFFFFFFFFFFFFFFFFFFFFFFFFFFFFFFFFFFFFFF AND PUSH4 0x70A08231 CALLER PUSH1 0x40 MLOAD DUP3 PUSH4 0xFFFFFFFF AND PUSH1 0xE0 SHL DUP2 MSTORE PUSH1 0x4 ADD PUSH2 0xED3 SWAP2 SWAP1 PUSH2 0x49C3 JUMP JUMPDEST PUSH1 0x20 PUSH1 0x40 MLOAD DUP1 DUP4 SUB DUP2 DUP7 GAS STATICCALL ISZERO DUP1 ISZERO PUSH2 0xEEE JUMPI RETURNDATASIZE PUSH0 DUP1 RETURNDATACOPY RETURNDATASIZE PUSH0 REVERT JUMPDEST POP POP POP POP PUSH1 0x40 MLOAD RETURNDATASIZE PUSH1 0x1F NOT PUSH1 0x1F DUP3 ADD AND DUP3 ADD DUP1 PUSH1 0x40 MSTORE POP DUP2 ADD SWAP1 PUSH2 0xF12 SWAP2 SWAP1 PUSH2 0x49F0 JUMP JUMPDEST LT ISZERO PUSH2 0xF53 JUMPI PUSH1 0x40 MLOAD PUSH32 0x8C379A000000000000000000000000000000000000000000000000000000000 DUP2 MSTORE PUSH1 0x4 ADD PUSH2 0xF4A SWAP1 PUSH2 0x4E99 JUMP JUMPDEST PUSH1 0x40 MLOAD DUP1 SWAP2 SUB SWAP1 REVERT JUMPDEST PUSH0 DUP1 PUSH0 SWAP1 SLOAD SWAP1 PUSH2 0x100 EXP SWAP1 DIV PUSH20 0xFFFFFFFFFFFFFFFFFFFFFFFFFFFFFFFFFFFFFFFF AND PUSH20 0xFFFFFFFFFFFFFFFFFFFFFFFFFFFFFFFFFFFFFFFF AND PUSH4 0x4B94F50E PUSH1 0x40 MLOAD DUP2 PUSH4 0xFFFFFFFF AND PUSH1 0xE0 SHL DUP2 MSTORE PUSH1 0x4 ADD PUSH1 0x20 PUSH1 0x40 MLOAD DUP1 DUP4 SUB DUP2 DUP7 GAS STATICCALL ISZERO DUP1 ISZERO PUSH2 0xFBD JUMPI RETURNDATASIZE PUSH0 DUP1 RETURNDATACOPY RETURNDATASIZE PUSH0 REVERT JUMPDEST POP POP POP POP PUSH1 0x40 MLOAD RETURNDATASIZE PUSH1 0x1F NOT PUSH1 0x1F DUP3 ADD AND DUP3 ADD DUP1 PUSH1 0x40 MSTORE POP DUP2 ADD SWAP1 PUSH2 0xFE1 SWAP2 SWAP1 PUSH2 0x49F0 JUMP JUMPDEST DUP3 PUSH2 0xFEC SWAP2 SWAP1 PUSH2 0x4C7C JUMP JUMPDEST SWAP1 POP DUP1 SELFBALANCE LT ISZERO PUSH2 0x1031 JUMPI PUSH1 0x40 MLOAD PUSH32 0x8C379A000000000000000000000000000000000000000000000000000000000 DUP2 MSTORE PUSH1 0x4 ADD PUSH2 0x1028 SWAP1 PUSH2 0x4F01 JUMP JUMPDEST PUSH1 0x40 MLOAD DUP1 SWAP2 SUB SWAP1 REVERT JUMPDEST PUSH0 DUP1 SLOAD SWAP1 PUSH2 0x100 EXP SWAP1 DIV PUSH20 0xFFFFFFFFFFFFFFFFFFFFFFFFFFFFFFFFFFFFFFFF AND PUSH20 0xFFFFFFFFFFFFFFFFFFFFFFFFFFFFFFFFFFFFFFFF AND PUSH4 0x9DC29FAC CALLER DUP5 PUSH1 0x40 MLOAD DUP4 PUSH4 0xFFFFFFFF AND PUSH1 0xE0 SHL DUP2 MSTORE PUSH1 0x4 ADD PUSH2 0x108B SWAP3 SWAP2 SWAP1 PUSH2 0x4F1F JUMP JUMPDEST PUSH0 PUSH1 0x40 MLOAD DUP1 DUP4 SUB DUP2 PUSH0 DUP8 DUP1 EXTCODESIZE ISZERO DUP1 ISZERO PUSH2 0x10A2 JUMPI PUSH0 DUP1 REVERT JUMPDEST POP GAS CALL ISZERO DUP1 ISZERO PUSH2 0x10B4 JUMPI RETURNDATASIZE PUSH0 DUP1 RETURNDATACOPY RETURNDATASIZE PUSH0 REVERT JUMPDEST POP POP POP POP PUSH1 0x1 PUSH1 0xE PUSH0 PUSH2 0x100 EXP DUP2 SLOAD DUP2 PUSH1 0xFF MUL NOT AND SWAP1 DUP4 ISZERO ISZERO MUL OR SWAP1 SSTORE POP PUSH0 CALLER PUSH20 0xFFFFFFFFFFFFFFFFFFFFFFFFFFFFFFFFFFFFFFFF AND DUP3 PUSH1 0x40 MLOAD PUSH2 0x10F7 SWAP1 PUSH2 0x4F73 JUMP JUMPDEST PUSH0 PUSH1 0x40 MLOAD DUP1 DUP4 SUB DUP2 DUP6 DUP8 GAS CALL SWAP3 POP POP POP RETURNDATASIZE DUP1 PUSH0 DUP2 EQ PUSH2 0x1131 JUMPI PUSH1 0x40 MLOAD SWAP2 POP PUSH1 0x1F NOT PUSH1 0x3F RETURNDATASIZE ADD AND DUP3 ADD PUSH1 0x40 MSTORE RETURNDATASIZE DUP3 MSTORE RETURNDATASIZE PUSH0 PUSH1 0x20 DUP5 ADD RETURNDATACOPY PUSH2 0x1136 JUMP JUMPDEST PUSH1 0x60 SWAP2 POP JUMPDEST POP POP SWAP1 POP PUSH0 PUSH1 0xE PUSH0 PUSH2 0x100 EXP DUP2 SLOAD DUP2 PUSH1 0xFF MUL NOT AND SWAP1 DUP4 ISZERO ISZERO MUL OR SWAP1 SSTORE POP DUP1 PUSH2 0x1193 JUMPI PUSH1 0x40 MLOAD PUSH32 0x8C379A000000000000000000000000000000000000000000000000000000000 DUP2 MSTORE PUSH1 0x4 ADD PUSH2 0x118A SWAP1 PUSH2 0x4FD1 JUMP JUMPDEST PUSH1 0x40 MLOAD DUP1 SWAP2 SUB SWAP1 REVERT JUMPDEST POP POP POP JUMP JUMPDEST PUSH1 0x2 PUSH0 SWAP1 SLOAD SWAP1 PUSH2 0x100 EXP SWAP1 DIV PUSH1 0xFF AND PUSH2 0x11E6 JUMPI PUSH1 0x40 MLOAD PUSH32 0x8C379A000000000000000000000000000000000000000000000000000000000 DUP2 MSTORE PUSH1 0x4 ADD PUSH2 0x11DD SWAP1 PUSH2 0x4872 JUMP JUMPDEST PUSH1 0x40 MLOAD DUP1 SWAP2 SUB SWAP1 REVERT JUMPDEST DUP2 PUSH1 0xA SLOAD DUP2 LT PUSH2 0x122B JUMPI PUSH1 0x40 MLOAD PUSH32 0x8C379A000000000000000000000000000000000000000000000000000000000 DUP2 MSTORE PUSH1 0x4 ADD PUSH2 0x1222 SWAP1 PUSH2 0x4A65 JUMP JUMPDEST PUSH1 0x40 MLOAD DUP1 SWAP2 SUB SWAP1 REVERT JUMPDEST PUSH1 0x8 PUSH0 CALLER PUSH20 0xFFFFFFFFFFFFFFFFFFFFFFFFFFFFFFFFFFFFFFFF AND PUSH20 0xFFFFFFFFFFFFFFFFFFFFFFFFFFFFFFFFFFFFFFFF AND DUP2 MSTORE PUSH1 0x20 ADD SWAP1 DUP2 MSTORE PUSH1 0x20 ADD PUSH0 KECCAK256 PUSH0 SWAP1 SLOAD SWAP1 PUSH2 0x100 EXP SWAP1 DIV PUSH1 0xFF AND PUSH2 0x12B4 JUMPI PUSH1 0x40 MLOAD PUSH32 0x8C379A000000000000000000000000000000000000000000000000000000000 DUP2 MSTORE PUSH1 0x4 ADD PUSH2 0x12AB SWAP1 PUSH2 0x48DA JUMP JUMPDEST PUSH1 0x40 MLOAD DUP1 SWAP2 SUB SWAP1 REVERT JUMPDEST DUP3 PUSH1 0x9 PUSH0 DUP3 DUP2 MSTORE PUSH1 0x20 ADD SWAP1 DUP2 MSTORE PUSH1 0x20 ADD PUSH0 KECCAK256 PUSH1 0x7 ADD PUSH1 0x16 SWAP1 SLOAD SWAP1 PUSH2 0x100 EXP SWAP1 DIV PUSH1 0xFF AND ISZERO PUSH2 0x1317 JUMPI PUSH1 0x40 MLOAD PUSH32 0x8C379A000000000000000000000000000000000000000000000000000000000 DUP2 MSTORE PUSH1 0x4 ADD PUSH2 0x130E SWAP1 PUSH2 0x4ACD JUMP JUMPDEST PUSH1 0x40 MLOAD DUP1 SWAP2 SUB SWAP1 REVERT JUMPDEST DUP4 PUSH1 0x9 PUSH0 DUP3 DUP2 MSTORE PUSH1 0x20 ADD SWAP1 DUP2 MSTORE PUSH1 0x20 ADD PUSH0 KECCAK256 PUSH1 0x7 ADD PUSH1 0x15 SWAP1 SLOAD SWAP1 PUSH2 0x100 EXP SWAP1 DIV PUSH1 0xFF AND ISZERO PUSH2 0x137A JUMPI PUSH1 0x40 MLOAD PUSH32 0x8C379A000000000000000000000000000000000000000000000000000000000 DUP2 MSTORE PUSH1 0x4 ADD PUSH2 0x1371 SWAP1 PUSH2 0x4B35 JUMP JUMPDEST PUSH1 0x40 MLOAD DUP1 SWAP2 SUB SWAP1 REVERT JUMPDEST PUSH0 DUP5 GT PUSH2 0x13BC JUMPI PUSH1 0x40 MLOAD PUSH32 0x8C379A000000000000000000000000000000000000000000000000000000000 DUP2 MSTORE PUSH1 0x4 ADD PUSH2 0x13B3 SWAP1 PUSH2 0x5039 JUMP JUMPDEST PUSH1 0x40 MLOAD DUP1 SWAP2 SUB SWAP1 REVERT JUMPDEST PUSH0 PUSH1 0x3 PUSH0 DUP8 DUP2 MSTORE PUSH1 0x20 ADD SWAP1 DUP2 MSTORE PUSH1 0x20 ADD PUSH0 KECCAK256 PUSH0 CALLER PUSH20 0xFFFFFFFFFFFFFFFFFFFFFFFFFFFFFFFFFFFFFFFF AND PUSH20 0xFFFFFFFFFFFFFFFFFFFFFFFFFFFFFFFFFFFFFFFF AND DUP2 MSTORE PUSH1 0x20 ADD SWAP1 DUP2 MSTORE PUSH1 0x20 ADD PUSH0 KECCAK256 SLOAD SWAP1 POP PUSH0 DUP6 DUP3 PUSH2 0x1419 SWAP2 SWAP1 PUSH2 0x5057 JUMP JUMPDEST SWAP1 POP PUSH0 PUSH1 0x9 PUSH0 DUP10 DUP2 MSTORE PUSH1 0x20 ADD SWAP1 DUP2 MSTORE PUSH1 0x20 ADD PUSH0 KECCAK256 SWAP1 POP PUSH0 DUP4 DUP5 PUSH2 0x143C SWAP2 SWAP1 PUSH2 0x4C7C JUMP JUMPDEST DUP4 DUP5 PUSH2 0x1448 SWAP2 SWAP1 PUSH2 0x4C7C JUMP JUMPDEST PUSH2 0x1452 SWAP2 SWAP1 PUSH2 0x4C49 JUMP JUMPDEST SWAP1 POP PUSH0 DUP1 PUSH0 SWAP1 SLOAD SWAP1 PUSH2 0x100 EXP SWAP1 DIV PUSH20 0xFFFFFFFFFFFFFFFFFFFFFFFFFFFFFFFFFFFFFFFF AND PUSH20 0xFFFFFFFFFFFFFFFFFFFFFFFFFFFFFFFFFFFFFFFF AND PUSH4 0x23B872DD CALLER ADDRESS DUP6 PUSH1 0x40 MLOAD DUP5 PUSH4 0xFFFFFFFF AND PUSH1 0xE0 SHL DUP2 MSTORE PUSH1 0x4 ADD PUSH2 0x14B2 SWAP4 SWAP3 SWAP2 SWAP1 PUSH2 0x508A JUMP JUMPDEST PUSH1 0x20 PUSH1 0x40 MLOAD DUP1 DUP4 SUB DUP2 PUSH0 DUP8 GAS CALL ISZERO DUP1 ISZERO PUSH2 0x14CE JUMPI RETURNDATASIZE PUSH0 DUP1 RETURNDATACOPY RETURNDATASIZE PUSH0 REVERT JUMPDEST POP POP POP POP PUSH1 0x40 MLOAD RETURNDATASIZE PUSH1 0x1F NOT PUSH1 0x1F DUP3 ADD AND DUP3 ADD DUP1 PUSH1 0x40 MSTORE POP DUP2 ADD SWAP1 PUSH2 0x14F2 SWAP2 SWAP1 PUSH2 0x50E9 JUMP JUMPDEST SWAP1 POP DUP1 PUSH2 0x1534 JUMPI PUSH1 0x40 MLOAD PUSH32 0x8C379A000000000000000000000000000000000000000000000000000000000 DUP2 MSTORE PUSH1 0x4 ADD PUSH2 0x152B SWAP1 PUSH2 0x4FD1 JUMP JUMPDEST PUSH1 0x40 MLOAD DUP1 SWAP2 SUB SWAP1 REVERT JUMPDEST PUSH0 DUP6 SUB PUSH2 0x1602 JUMPI DUP3 PUSH1 0x9 ADD CALLER SWAP1 DUP1 PUSH1 0x1 DUP2 SLOAD ADD DUP1 DUP3 SSTORE DUP1 SWAP2 POP POP PUSH1 0x1 SWAP1 SUB SWAP1 PUSH0 MSTORE PUSH1 0x20 PUSH0 KECCAK256 ADD PUSH0 SWAP1 SWAP2 SWAP1 SWAP2 SWAP1 SWAP2 PUSH2 0x100 EXP DUP2 SLOAD DUP2 PUSH20 0xFFFFFFFFFFFFFFFFFFFFFFFFFFFFFFFFFFFFFFFF MUL NOT AND SWAP1 DUP4 PUSH20 0xFFFFFFFFFFFFFFFFFFFFFFFFFFFFFFFFFFFFFFFF AND MUL OR SWAP1 SSTORE POP PUSH1 0x1 DUP4 PUSH1 0x9 ADD DUP1 SLOAD SWAP1 POP PUSH2 0x15B1 SWAP2 SWAP1 PUSH2 0x4C49 JUMP JUMPDEST PUSH1 0x4 PUSH0 DUP13 DUP2 MSTORE PUSH1 0x20 ADD SWAP1 DUP2 MSTORE PUSH1 0x20 ADD PUSH0 KECCAK256 PUSH0 CALLER PUSH20 0xFFFFFFFFFFFFFFFFFFFFFFFFFFFFFFFFFFFFFFFF AND PUSH20 0xFFFFFFFFFFFFFFFFFFFFFFFFFFFFFFFFFFFFFFFF AND DUP2 MSTORE PUSH1 0x20 ADD SWAP1 DUP2 MSTORE PUSH1 0x20 ADD PUSH0 KECCAK256 DUP2 SWAP1 SSTORE POP JUMPDEST DUP4 PUSH1 0x3 PUSH0 DUP13 DUP2 MSTORE PUSH1 0x20 ADD SWAP1 DUP2 MSTORE PUSH1 0x20 ADD PUSH0 KECCAK256 PUSH0 CALLER PUSH20 0xFFFFFFFFFFFFFFFFFFFFFFFFFFFFFFFFFFFFFFFF AND PUSH20 0xFFFFFFFFFFFFFFFFFFFFFFFFFFFFFFFFFFFFFFFF AND DUP2 MSTORE PUSH1 0x20 ADD SWAP1 DUP2 MSTORE PUSH1 0x20 ADD PUSH0 KECCAK256 DUP2 SWAP1 SSTORE POP DUP9 DUP4 PUSH1 0x4 ADD PUSH0 DUP3 DUP3 SLOAD PUSH2 0x1666 SWAP2 SWAP1 PUSH2 0x5057 JUMP JUMPDEST SWAP3 POP POP DUP2 SWAP1 SSTORE POP DUP2 DUP4 PUSH1 0x8 ADD PUSH0 DUP3 DUP3 SLOAD PUSH2 0x1680 SWAP2 SWAP1 PUSH2 0x5057 JUMP JUMPDEST SWAP3 POP POP DUP2 SWAP1 SSTORE POP DUP3 PUSH1 0x7 ADD PUSH1 0x14 SWAP1 SLOAD SWAP1 PUSH2 0x100 EXP SWAP1 DIV PUSH1 0xFF AND PUSH2 0x16DB JUMPI PUSH2 0x16A6 DUP11 PUSH2 0x396F JUMP JUMPDEST DUP4 PUSH1 0x5 ADD DUP2 SWAP1 SSTORE POP DUP3 PUSH1 0x5 ADD SLOAD DUP4 PUSH1 0x4 ADD SLOAD GT DUP1 ISZERO PUSH2 0x16CB JUMPI POP DUP3 PUSH1 0x3 ADD SLOAD PUSH1 0x1 SLOAD LT ISZERO JUMPDEST ISZERO PUSH2 0x16DA JUMPI PUSH2 0x16D9 DUP11 PUSH2 0x3A2B JUMP JUMPDEST JUMPDEST JUMPDEST POP POP POP POP POP POP POP POP POP POP JUMP JUMPDEST PUSH1 0x60 PUSH1 0x2 PUSH0 SWAP1 SLOAD SWAP1 PUSH2 0x100 EXP SWAP1 DIV PUSH1 0xFF AND PUSH2 0x1737 JUMPI PUSH1 0x40 MLOAD PUSH32 0x8C379A000000000000000000000000000000000000000000000000000000000 DUP2 MSTORE PUSH1 0x4 ADD PUSH2 0x172E SWAP1 PUSH2 0x4872 JUMP JUMPDEST PUSH1 0x40 MLOAD DUP1 SWAP2 SUB SWAP1 REVERT JUMPDEST PUSH1 0xD DUP1 SLOAD DUP1 PUSH1 0x20 MUL PUSH1 0x20 ADD PUSH1 0x40 MLOAD SWAP1 DUP2 ADD PUSH1 0x40 MSTORE DUP1 SWAP3 SWAP2 SWAP1 DUP2 DUP2 MSTORE PUSH1 0x20 ADD DUP3 DUP1 SLOAD DUP1 ISZERO PUSH2 0x1781 JUMPI PUSH1 0x20 MUL DUP3 ADD SWAP2 SWAP1 PUSH0 MSTORE PUSH1 0x20 PUSH0 KECCAK256 SWAP1 JUMPDEST DUP2 SLOAD DUP2 MSTORE PUSH1 0x20 ADD SWAP1 PUSH1 0x1 ADD SWAP1 DUP1 DUP4 GT PUSH2 0x176D JUMPI JUMPDEST POP POP POP POP POP SWAP1 POP SWAP1 JUMP JUMPDEST PUSH0 DUP1 PUSH0 DUP1 SLOAD SWAP1 PUSH2 0x100 EXP SWAP1 DIV PUSH20 0xFFFFFFFFFFFFFFFFFFFFFFFFFFFFFFFFFFFFFFFF AND PUSH20 0xFFFFFFFFFFFFFFFFFFFFFFFFFFFFFFFFFFFFFFFF AND PUSH4 0xDD62ED3E CALLER ADDRESS PUSH1 0x40 MLOAD DUP4 PUSH4 0xFFFFFFFF AND PUSH1 0xE0 SHL DUP2 MSTORE PUSH1 0x4 ADD PUSH2 0x17E7 SWAP3 SWAP2 SWAP1 PUSH2 0x5114 JUMP JUMPDEST PUSH1 0x20 PUSH1 0x40 MLOAD DUP1 DUP4 SUB DUP2 DUP7 GAS STATICCALL ISZERO DUP1 ISZERO PUSH2 0x1802 JUMPI RETURNDATASIZE PUSH0 DUP1 RETURNDATACOPY RETURNDATASIZE PUSH0 REVERT JUMPDEST POP POP POP POP PUSH1 0x40 MLOAD RETURNDATASIZE PUSH1 0x1F NOT PUSH1 0x1F DUP3 ADD AND DUP3 ADD DUP1 PUSH1 0x40 MSTORE POP DUP2 ADD SWAP1 PUSH2 0x1826 SWAP2 SWAP1 PUSH2 0x49F0 JUMP JUMPDEST SWAP1 POP DUP1 SWAP2 POP POP SWAP1 JUMP JUMPDEST PUSH0 PUSH1 0x2 PUSH0 SWAP1 SLOAD SWAP1 PUSH2 0x100 EXP SWAP1 DIV PUSH1 0xFF AND PUSH2 0x187E JUMPI PUSH1 0x40 MLOAD PUSH32 0x8C379A000000000000000000000000000000000000000000000000000000000 DUP2 MSTORE PUSH1 0x4 ADD PUSH2 0x1875 SWAP1 PUSH2 0x4872 JUMP JUMPDEST PUSH1 0x40 MLOAD DUP1 SWAP2 SUB SWAP1 REVERT JUMPDEST PUSH1 0x8 PUSH0 CALLER PUSH20 0xFFFFFFFFFFFFFFFFFFFFFFFFFFFFFFFFFFFFFFFF AND PUSH20 0xFFFFFFFFFFFFFFFFFFFFFFFFFFFFFFFFFFFFFFFF AND DUP2 MSTORE PUSH1 0x20 ADD SWAP1 DUP2 MSTORE PUSH1 0x20 ADD PUSH0 KECCAK256 PUSH0 SWAP1 SLOAD SWAP1 PUSH2 0x100 EXP SWAP1 DIV PUSH1 0xFF AND PUSH2 0x1907 JUMPI PUSH1 0x40 MLOAD PUSH32 0x8C379A000000000000000000000000000000000000000000000000000000000 DUP2 MSTORE PUSH1 0x4 ADD PUSH2 0x18FE SWAP1 PUSH2 0x48DA JUMP JUMPDEST PUSH1 0x40 MLOAD DUP1 SWAP2 SUB SWAP1 REVERT JUMPDEST PUSH0 PUSH20 0xFFFFFFFFFFFFFFFFFFFFFFFFFFFFFFFFFFFFFFFF AND DUP3 PUSH20 0xFFFFFFFFFFFFFFFFFFFFFFFFFFFFFFFFFFFFFFFF AND SUB PUSH2 0x1975 JUMPI PUSH1 0x40 MLOAD PUSH32 0x8C379A000000000000000000000000000000000000000000000000000000000 DUP2 MSTORE PUSH1 0x4 ADD PUSH2 0x196C SWAP1 PUSH2 0x5185 JUMP JUMPDEST PUSH1 0x40 MLOAD DUP1 SWAP2 SUB SWAP1 REVERT JUMPDEST PUSH0 DUP8 DUP8 SWAP1 POP GT PUSH2 0x19BA JUMPI PUSH1 0x40 MLOAD PUSH32 0x8C379A000000000000000000000000000000000000000000000000000000000 DUP2 MSTORE PUSH1 0x4 ADD PUSH2 0x19B1 SWAP1 PUSH2 0x51ED JUMP JUMPDEST PUSH1 0x40 MLOAD DUP1 SWAP2 SUB SWAP1 REVERT JUMPDEST PUSH0 DUP6 DUP6 SWAP1 POP GT PUSH2 0x19FF JUMPI PUSH1 0x40 MLOAD PUSH32 0x8C379A000000000000000000000000000000000000000000000000000000000 DUP2 MSTORE PUSH1 0x4 ADD PUSH2 0x19F6 SWAP1 PUSH2 0x5255 JUMP JUMPDEST PUSH1 0x40 MLOAD DUP1 SWAP2 SUB SWAP1 REVERT JUMPDEST PUSH0 PUSH1 0xA SLOAD SWAP1 POP PUSH1 0xA PUSH0 DUP2 SLOAD DUP1 SWAP3 SWAP2 SWAP1 PUSH2 0x1A17 SWAP1 PUSH2 0x5273 JUMP JUMPDEST SWAP2 SWAP1 POP SSTORE POP PUSH0 PUSH1 0x9 PUSH0 DUP4 DUP2 MSTORE PUSH1 0x20 ADD SWAP1 DUP2 MSTORE PUSH1 0x20 ADD PUSH0 KECCAK256 SWAP1 POP DUP2 DUP2 PUSH0 ADD DUP2 SWAP1 SSTORE POP DUP9 DUP9 DUP3 PUSH1 0x1 ADD SWAP2 DUP3 PUSH2 0x1A4B SWAP3 SWAP2 SWAP1 PUSH2 0x54E2 JUMP JUMPDEST POP DUP7 DUP7 DUP3 PUSH1 0x2 ADD SWAP2 DUP3 PUSH2 0x1A5F SWAP3 SWAP2 SWAP1 PUSH2 0x54E2 JUMP JUMPDEST POP DUP5 DUP2 PUSH1 0x3 ADD DUP2 SWAP1 SSTORE POP DUP4 DUP2 PUSH1 0x6 ADD PUSH0 PUSH2 0x100 EXP DUP2 SLOAD DUP2 PUSH20 0xFFFFFFFFFFFFFFFFFFFFFFFFFFFFFFFFFFFFFFFF MUL NOT AND SWAP1 DUP4 PUSH20 0xFFFFFFFFFFFFFFFFFFFFFFFFFFFFFFFFFFFFFFFF AND MUL OR SWAP1 SSTORE POP CALLER DUP2 PUSH1 0x7 ADD PUSH0 PUSH2 0x100 EXP DUP2 SLOAD DUP2 PUSH20 0xFFFFFFFFFFFFFFFFFFFFFFFFFFFFFFFFFFFFFFFF MUL NOT AND SWAP1 DUP4 PUSH20 0xFFFFFFFFFFFFFFFFFFFFFFFFFFFFFFFFFFFFFFFF AND MUL OR SWAP1 SSTORE POP PUSH0 DUP6 GT ISZERO PUSH2 0x1B74 JUMPI PUSH0 DUP2 PUSH1 0x7 ADD PUSH1 0x14 PUSH2 0x100 EXP DUP2 SLOAD DUP2 PUSH1 0xFF MUL NOT AND SWAP1 DUP4 ISZERO ISZERO MUL OR SWAP1 SSTORE POP PUSH1 0xB DUP3 SWAP1 DUP1 PUSH1 0x1 DUP2 SLOAD ADD DUP1 DUP3 SSTORE DUP1 SWAP2 POP POP PUSH1 0x1 SWAP1 SUB SWAP1 PUSH0 MSTORE PUSH1 0x20 PUSH0 KECCAK256 ADD PUSH0 SWAP1 SWAP2 SWAP1 SWAP2 SWAP1 SWAP2 POP SSTORE PUSH1 0x1 PUSH1 0xB DUP1 SLOAD SWAP1 POP PUSH2 0x1B49 SWAP2 SWAP1 PUSH2 0x4C49 JUMP JUMPDEST PUSH1 0x5 PUSH0 DUP5 DUP2 MSTORE PUSH1 0x20 ADD SWAP1 DUP2 MSTORE PUSH1 0x20 ADD PUSH0 KECCAK256 DUP2 SWAP1 SSTORE POP PUSH2 0x1B67 DUP3 PUSH2 0x396F JUMP JUMPDEST DUP2 PUSH1 0x5 ADD DUP2 SWAP1 SSTORE POP PUSH2 0x1BDF JUMP JUMPDEST PUSH1 0x1 DUP2 PUSH1 0x7 ADD PUSH1 0x14 PUSH2 0x100 EXP DUP2 SLOAD DUP2 PUSH1 0xFF MUL NOT AND SWAP1 DUP4 ISZERO ISZERO MUL OR SWAP1 SSTORE POP PUSH1 0xD DUP3 SWAP1 DUP1 PUSH1 0x1 DUP2 SLOAD ADD DUP1 DUP3 SSTORE DUP1 SWAP2 POP POP PUSH1 0x1 SWAP1 SUB SWAP1 PUSH0 MSTORE PUSH1 0x20 PUSH0 KECCAK256 ADD PUSH0 SWAP1 SWAP2 SWAP1 SWAP2 SWAP1 SWAP2 POP SSTORE PUSH1 0x1 PUSH1 0xD DUP1 SLOAD SWAP1 POP PUSH2 0x1BC9 SWAP2 SWAP1 PUSH2 0x4C49 JUMP JUMPDEST PUSH1 0x6 PUSH0 DUP5 DUP2 MSTORE PUSH1 0x20 ADD SWAP1 DUP2 MSTORE PUSH1 0x20 ADD PUSH0 KECCAK256 DUP2 SWAP1 SSTORE POP JUMPDEST PUSH0 DUP2 PUSH1 0x4 ADD DUP2 SWAP1 SSTORE POP PUSH0 DUP2 PUSH1 0x8 ADD DUP2 SWAP1 SSTORE POP PUSH0 DUP2 PUSH1 0x7 ADD PUSH1 0x15 PUSH2 0x100 EXP DUP2 SLOAD DUP2 PUSH1 0xFF MUL NOT AND SWAP1 DUP4 ISZERO ISZERO MUL OR SWAP1 SSTORE POP PUSH0 DUP2 PUSH1 0x7 ADD PUSH1 0x16 PUSH2 0x100 EXP DUP2 SLOAD DUP2 PUSH1 0xFF MUL NOT AND SWAP1 DUP4 ISZERO ISZERO MUL OR SWAP1 SSTORE POP DUP2 PUSH32 0x9A863892F20A6B9C6CEC64D611B5864BE6373191CE2CACC3B05A299BCE3BF80E PUSH1 0x40 MLOAD PUSH1 0x40 MLOAD DUP1 SWAP2 SUB SWAP1 LOG2 DUP2 SWAP3 POP POP POP SWAP7 SWAP6 POP POP POP POP POP POP JUMP JUMPDEST PUSH1 0x60 PUSH1 0x2 PUSH0 SWAP1 SLOAD SWAP1 PUSH2 0x100 EXP SWAP1 DIV PUSH1 0xFF AND PUSH2 0x1CB5 JUMPI PUSH1 0x40 MLOAD PUSH32 0x8C379A000000000000000000000000000000000000000000000000000000000 DUP2 MSTORE PUSH1 0x4 ADD PUSH2 0x1CAC SWAP1 PUSH2 0x4872 JUMP JUMPDEST PUSH1 0x40 MLOAD DUP1 SWAP2 SUB SWAP1 REVERT JUMPDEST PUSH1 0xB DUP1 SLOAD DUP1 PUSH1 0x20 MUL PUSH1 0x20 ADD PUSH1 0x40 MLOAD SWAP1 DUP2 ADD PUSH1 0x40 MSTORE DUP1 SWAP3 SWAP2 SWAP1 DUP2 DUP2 MSTORE PUSH1 0x20 ADD DUP3 DUP1 SLOAD DUP1 ISZERO PUSH2 0x1CFF JUMPI PUSH1 0x20 MUL DUP3 ADD SWAP2 SWAP1 PUSH0 MSTORE PUSH1 0x20 PUSH0 KECCAK256 SWAP1 JUMPDEST DUP2 SLOAD DUP2 MSTORE PUSH1 0x20 ADD SWAP1 PUSH1 0x1 ADD SWAP1 DUP1 DUP4 GT PUSH2 0x1CEB JUMPI JUMPDEST POP POP POP POP POP SWAP1 POP SWAP1 JUMP JUMPDEST PUSH32 0x0 PUSH20 0xFFFFFFFFFFFFFFFFFFFFFFFFFFFFFFFFFFFFFFFF AND CALLER PUSH20 0xFFFFFFFFFFFFFFFFFFFFFFFFFFFFFFFFFFFFFFFF AND EQ PUSH2 0x1D97 JUMPI PUSH1 0x40 MLOAD PUSH32 0x8C379A000000000000000000000000000000000000000000000000000000000 DUP2 MSTORE PUSH1 0x4 ADD PUSH2 0x1D8E SWAP1 PUSH2 0x55F9 JUMP JUMPDEST PUSH1 0x40 MLOAD DUP1 SWAP2 SUB SWAP1 REVERT JUMPDEST PUSH1 0x2 PUSH0 SWAP1 SLOAD SWAP1 PUSH2 0x100 EXP SWAP1 DIV PUSH1 0xFF AND ISZERO PUSH2 0x1DE6 JUMPI PUSH1 0x40 MLOAD PUSH32 0x8C379A000000000000000000000000000000000000000000000000000000000 DUP2 MSTORE PUSH1 0x4 ADD PUSH2 0x1DDD SWAP1 PUSH2 0x5661 JUMP JUMPDEST PUSH1 0x40 MLOAD DUP1 SWAP2 SUB SWAP1 REVERT JUMPDEST PUSH0 CALLVALUE GT PUSH2 0x1E28 JUMPI PUSH1 0x40 MLOAD PUSH32 0x8C379A000000000000000000000000000000000000000000000000000000000 DUP2 MSTORE PUSH1 0x4 ADD PUSH2 0x1E1F SWAP1 PUSH2 0x56C9 JUMP JUMPDEST PUSH1 0x40 MLOAD DUP1 SWAP2 SUB SWAP1 REVERT JUMPDEST CALLVALUE PUSH1 0x1 DUP2 SWAP1 SSTORE POP PUSH1 0x1 PUSH1 0x2 PUSH0 PUSH2 0x100 EXP DUP2 SLOAD DUP2 PUSH1 0xFF MUL NOT AND SWAP1 DUP4 ISZERO ISZERO MUL OR SWAP1 SSTORE POP PUSH32 0x8089789A86616A2428E26766961EAAA205AB084AAC14A9CB98704E59AF2B89E6 PUSH1 0x40 MLOAD PUSH1 0x40 MLOAD DUP1 SWAP2 SUB SWAP1 LOG1 JUMP JUMPDEST PUSH2 0x1E7F PUSH2 0x40B9 JUMP JUMPDEST PUSH1 0x2 PUSH0 SWAP1 SLOAD SWAP1 PUSH2 0x100 EXP SWAP1 DIV PUSH1 0xFF AND PUSH2 0x1ECD JUMPI PUSH1 0x40 MLOAD PUSH32 0x8C379A000000000000000000000000000000000000000000000000000000000 DUP2 MSTORE PUSH1 0x4 ADD PUSH2 0x1EC4 SWAP1 PUSH2 0x4872 JUMP JUMPDEST PUSH1 0x40 MLOAD DUP1 SWAP2 SUB SWAP1 REVERT JUMPDEST DUP2 PUSH1 0xA SLOAD DUP2 LT PUSH2 0x1F12 JUMPI PUSH1 0x40 MLOAD PUSH32 0x8C379A000000000000000000000000000000000000000000000000000000000 DUP2 MSTORE PUSH1 0x4 ADD PUSH2 0x1F09 SWAP1 PUSH2 0x4A65 JUMP JUMPDEST PUSH1 0x40 MLOAD DUP1 SWAP2 SUB SWAP1 REVERT JUMPDEST PUSH1 0x9 PUSH0 DUP5 DUP2 MSTORE PUSH1 0x20 ADD SWAP1 DUP2 MSTORE PUSH1 0x20 ADD PUSH0 KECCAK256 PUSH1 0x40 MLOAD DUP1 PUSH2 0x1A0 ADD PUSH1 0x40 MSTORE SWAP1 DUP2 PUSH0 DUP3 ADD SLOAD DUP2 MSTORE PUSH1 0x20 ADD PUSH1 0x1 DUP3 ADD DUP1 SLOAD PUSH2 0x1F48 SWAP1 PUSH2 0x531E JUMP JUMPDEST DUP1 PUSH1 0x1F ADD PUSH1 0x20 DUP1 SWAP2 DIV MUL PUSH1 0x20 ADD PUSH1 0x40 MLOAD SWAP1 DUP2 ADD PUSH1 0x40 MSTORE DUP1 SWAP3 SWAP2 SWAP1 DUP2 DUP2 MSTORE PUSH1 0x20 ADD DUP3 DUP1 SLOAD PUSH2 0x1F74 SWAP1 PUSH2 0x531E JUMP JUMPDEST DUP1 ISZERO PUSH2 0x1FBF JUMPI DUP1 PUSH1 0x1F LT PUSH2 0x1F96 JUMPI PUSH2 0x100 DUP1 DUP4 SLOAD DIV MUL DUP4 MSTORE SWAP2 PUSH1 0x20 ADD SWAP2 PUSH2 0x1FBF JUMP JUMPDEST DUP3 ADD SWAP2 SWAP1 PUSH0 MSTORE PUSH1 0x20 PUSH0 KECCAK256 SWAP1 JUMPDEST DUP2 SLOAD DUP2 MSTORE SWAP1 PUSH1 0x1 ADD SWAP1 PUSH1 0x20 ADD DUP1 DUP4 GT PUSH2 0x1FA2 JUMPI DUP3 SWAP1 SUB PUSH1 0x1F AND DUP3 ADD SWAP2 JUMPDEST POP POP POP POP POP DUP2 MSTORE PUSH1 0x20 ADD PUSH1 0x2 DUP3 ADD DUP1 SLOAD PUSH2 0x1FD8 SWAP1 PUSH2 0x531E JUMP JUMPDEST DUP1 PUSH1 0x1F ADD PUSH1 0x20 DUP1 SWAP2 DIV MUL PUSH1 0x20 ADD PUSH1 0x40 MLOAD SWAP1 DUP2 ADD PUSH1 0x40 MSTORE DUP1 SWAP3 SWAP2 SWAP1 DUP2 DUP2 MSTORE PUSH1 0x20 ADD DUP3 DUP1 SLOAD PUSH2 0x2004 SWAP1 PUSH2 0x531E JUMP JUMPDEST DUP1 ISZERO PUSH2 0x204F JUMPI DUP1 PUSH1 0x1F LT PUSH2 0x2026 JUMPI PUSH2 0x100 DUP1 DUP4 SLOAD DIV MUL DUP4 MSTORE SWAP2 PUSH1 0x20 ADD SWAP2 PUSH2 0x204F JUMP JUMPDEST DUP3 ADD SWAP2 SWAP1 PUSH0 MSTORE PUSH1 0x20 PUSH0 KECCAK256 SWAP1 JUMPDEST DUP2 SLOAD DUP2 MSTORE SWAP1 PUSH1 0x1 ADD SWAP1 PUSH1 0x20 ADD DUP1 DUP4 GT PUSH2 0x2032 JUMPI DUP3 SWAP1 SUB PUSH1 0x1F AND DUP3 ADD SWAP2 JUMPDEST POP POP POP POP POP DUP2 MSTORE PUSH1 0x20 ADD PUSH1 0x3 DUP3 ADD SLOAD DUP2 MSTORE PUSH1 0x20 ADD PUSH1 0x4 DUP3 ADD SLOAD DUP2 MSTORE PUSH1 0x20 ADD PUSH1 0x5 DUP3 ADD SLOAD DUP2 MSTORE PUSH1 0x20 ADD PUSH1 0x6 DUP3 ADD PUSH0 SWAP1 SLOAD SWAP1 PUSH2 0x100 EXP SWAP1 DIV PUSH20 0xFFFFFFFFFFFFFFFFFFFFFFFFFFFFFFFFFFFFFFFF AND PUSH20 0xFFFFFFFFFFFFFFFFFFFFFFFFFFFFFFFFFFFFFFFF AND PUSH20 0xFFFFFFFFFFFFFFFFFFFFFFFFFFFFFFFFFFFFFFFF AND DUP2 MSTORE PUSH1 0x20 ADD PUSH1 0x7 DUP3 ADD PUSH0 SWAP1 SLOAD SWAP1 PUSH2 0x100 EXP SWAP1 DIV PUSH20 0xFFFFFFFFFFFFFFFFFFFFFFFFFFFFFFFFFFFFFFFF AND PUSH20 0xFFFFFFFFFFFFFFFFFFFFFFFFFFFFFFFFFFFFFFFF AND PUSH20 0xFFFFFFFFFFFFFFFFFFFFFFFFFFFFFFFFFFFFFFFF AND DUP2 MSTORE PUSH1 0x20 ADD PUSH1 0x7 DUP3 ADD PUSH1 0x14 SWAP1 SLOAD SWAP1 PUSH2 0x100 EXP SWAP1 DIV PUSH1 0xFF AND ISZERO ISZERO ISZERO ISZERO DUP2 MSTORE PUSH1 0x20 ADD PUSH1 0x7 DUP3 ADD PUSH1 0x15 SWAP1 SLOAD SWAP1 PUSH2 0x100 EXP SWAP1 DIV PUSH1 0xFF AND ISZERO ISZERO ISZERO ISZERO DUP2 MSTORE PUSH1 0x20 ADD PUSH1 0x7 DUP3 ADD PUSH1 0x16 SWAP1 SLOAD SWAP1 PUSH2 0x100 EXP SWAP1 DIV PUSH1 0xFF AND ISZERO ISZERO ISZERO ISZERO DUP2 MSTORE PUSH1 0x20 ADD PUSH1 0x8 DUP3 ADD SLOAD DUP2 MSTORE PUSH1 0x20 ADD PUSH1 0x9 DUP3 ADD DUP1 SLOAD DUP1 PUSH1 0x20 MUL PUSH1 0x20 ADD PUSH1 0x40 MLOAD SWAP1 DUP2 ADD PUSH1 0x40 MSTORE DUP1 SWAP3 SWAP2 SWAP1 DUP2 DUP2 MSTORE PUSH1 0x20 ADD DUP3 DUP1 SLOAD DUP1 ISZERO PUSH2 0x21FD JUMPI PUSH1 0x20 MUL DUP3 ADD SWAP2 SWAP1 PUSH0 MSTORE PUSH1 0x20 PUSH0 KECCAK256 SWAP1 JUMPDEST DUP2 PUSH0 SWAP1 SLOAD SWAP1 PUSH2 0x100 EXP SWAP1 DIV PUSH20 0xFFFFFFFFFFFFFFFFFFFFFFFFFFFFFFFFFFFFFFFF AND PUSH20 0xFFFFFFFFFFFFFFFFFFFFFFFFFFFFFFFFFFFFFFFF AND DUP2 MSTORE PUSH1 0x20 ADD SWAP1 PUSH1 0x1 ADD SWAP1 DUP1 DUP4 GT PUSH2 0x21B4 JUMPI JUMPDEST POP POP POP POP POP DUP2 MSTORE POP POP SWAP2 POP POP SWAP2 SWAP1 POP JUMP JUMPDEST PUSH32 0x0 PUSH20 0xFFFFFFFFFFFFFFFFFFFFFFFFFFFFFFFFFFFFFFFF AND CALLER PUSH20 0xFFFFFFFFFFFFFFFFFFFFFFFFFFFFFFFFFFFFFFFF AND EQ PUSH2 0x229C JUMPI PUSH1 0x40 MLOAD PUSH32 0x8C379A000000000000000000000000000000000000000000000000000000000 DUP2 MSTORE PUSH1 0x4 ADD PUSH2 0x2293 SWAP1 PUSH2 0x55F9 JUMP JUMPDEST PUSH1 0x40 MLOAD DUP1 SWAP2 SUB SWAP1 REVERT JUMPDEST PUSH1 0x2 PUSH0 SWAP1 SLOAD SWAP1 PUSH2 0x100 EXP SWAP1 DIV PUSH1 0xFF AND PUSH2 0x22EA JUMPI PUSH1 0x40 MLOAD PUSH32 0x8C379A000000000000000000000000000000000000000000000000000000000 DUP2 MSTORE PUSH1 0x4 ADD PUSH2 0x22E1 SWAP1 PUSH2 0x4872 JUMP JUMPDEST PUSH1 0x40 MLOAD DUP1 SWAP2 SUB SWAP1 REVERT JUMPDEST PUSH1 0xE PUSH0 SWAP1 SLOAD SWAP1 PUSH2 0x100 EXP SWAP1 DIV PUSH1 0xFF AND ISZERO PUSH2 0x2339 JUMPI PUSH1 0x40 MLOAD PUSH32 0x8C379A000000000000000000000000000000000000000000000000000000000 DUP2 MSTORE PUSH1 0x4 ADD PUSH2 0x2330 SWAP1 PUSH2 0x5731 JUMP JUMPDEST PUSH1 0x40 MLOAD DUP1 SWAP2 SUB SWAP1 REVERT JUMPDEST PUSH1 0x1 PUSH1 0xE PUSH0 PUSH2 0x100 EXP DUP2 SLOAD DUP2 PUSH1 0xFF MUL NOT AND SWAP1 DUP4 ISZERO ISZERO MUL OR SWAP1 SSTORE POP PUSH0 JUMPDEST PUSH1 0xB DUP1 SLOAD SWAP1 POP DUP2 LT ISZERO PUSH2 0x260F JUMPI PUSH0 PUSH1 0xB DUP3 DUP2 SLOAD DUP2 LT PUSH2 0x2377 JUMPI PUSH2 0x2376 PUSH2 0x4D25 JUMP JUMPDEST JUMPDEST SWAP1 PUSH0 MSTORE PUSH1 0x20 PUSH0 KECCAK256 ADD SLOAD SWAP1 POP PUSH1 0x1 PUSH1 0x9 PUSH0 DUP4 DUP2 MSTORE PUSH1 0x20 ADD SWAP1 DUP2 MSTORE PUSH1 0x20 ADD PUSH0 KECCAK256 PUSH1 0x7 ADD PUSH1 0x16 PUSH2 0x100 EXP DUP2 SLOAD DUP2 PUSH1 0xFF MUL NOT AND SWAP1 DUP4 ISZERO ISZERO MUL OR SWAP1 SSTORE POP PUSH0 JUMPDEST PUSH1 0x9 PUSH0 DUP4 DUP2 MSTORE PUSH1 0x20 ADD SWAP1 DUP2 MSTORE PUSH1 0x20 ADD PUSH0 KECCAK256 PUSH1 0x9 ADD DUP1 SLOAD SWAP1 POP DUP2 LT ISZERO PUSH2 0x25AF JUMPI PUSH0 PUSH1 0x9 PUSH0 DUP5 DUP2 MSTORE PUSH1 0x20 ADD SWAP1 DUP2 MSTORE PUSH1 0x20 ADD PUSH0 KECCAK256 PUSH1 0x9 ADD DUP3 DUP2 SLOAD DUP2 LT PUSH2 0x23F7 JUMPI PUSH2 0x23F6 PUSH2 0x4D25 JUMP JUMPDEST JUMPDEST SWAP1 PUSH0 MSTORE PUSH1 0x20 PUSH0 KECCAK256 ADD PUSH0 SWAP1 SLOAD SWAP1 PUSH2 0x100 EXP SWAP1 DIV PUSH20 0xFFFFFFFFFFFFFFFFFFFFFFFFFFFFFFFFFFFFFFFF AND SWAP1 POP PUSH0 PUSH1 0x3 PUSH0 DUP6 DUP2 MSTORE PUSH1 0x20 ADD SWAP1 DUP2 MSTORE PUSH1 0x20 ADD PUSH0 KECCAK256 PUSH0 DUP4 PUSH20 0xFFFFFFFFFFFFFFFFFFFFFFFFFFFFFFFFFFFFFFFF AND PUSH20 0xFFFFFFFFFFFFFFFFFFFFFFFFFFFFFFFFFFFFFFFF AND DUP2 MSTORE PUSH1 0x20 ADD SWAP1 DUP2 MSTORE PUSH1 0x20 ADD PUSH0 KECCAK256 SLOAD SWAP1 POP PUSH0 DUP2 GT ISZERO PUSH2 0x24EE JUMPI PUSH0 DUP2 DUP3 PUSH2 0x2486 SWAP2 SWAP1 PUSH2 0x4C7C JUMP JUMPDEST SWAP1 POP PUSH0 PUSH1 0x3 PUSH0 DUP8 DUP2 MSTORE PUSH1 0x20 ADD SWAP1 DUP2 MSTORE PUSH1 0x20 ADD PUSH0 KECCAK256 PUSH0 DUP6 PUSH20 0xFFFFFFFFFFFFFFFFFFFFFFFFFFFFFFFFFFFFFFFF AND PUSH20 0xFFFFFFFFFFFFFFFFFFFFFFFFFFFFFFFFFFFFFFFF AND DUP2 MSTORE PUSH1 0x20 ADD SWAP1 DUP2 MSTORE PUSH1 0x20 ADD PUSH0 KECCAK256 DUP2 SWAP1 SSTORE POP PUSH0 DUP2 GT ISZERO PUSH2 0x24EC JUMPI PUSH2 0x24EB DUP4 DUP3 PUSH2 0x3776 JUMP JUMPDEST JUMPDEST POP JUMPDEST PUSH1 0x3 PUSH0 DUP6 DUP2 MSTORE PUSH1 0x20 ADD SWAP1 DUP2 MSTORE PUSH1 0x20 ADD PUSH0 KECCAK256 PUSH0 DUP4 PUSH20 0xFFFFFFFFFFFFFFFFFFFFFFFFFFFFFFFFFFFFFFFF AND PUSH20 0xFFFFFFFFFFFFFFFFFFFFFFFFFFFFFFFFFFFFFFFF AND DUP2 MSTORE PUSH1 0x20 ADD SWAP1 DUP2 MSTORE PUSH1 0x20 ADD PUSH0 KECCAK256 PUSH0 SWAP1 SSTORE PUSH1 0x4 PUSH0 DUP6 DUP2 MSTORE PUSH1 0x20 ADD SWAP1 DUP2 MSTORE PUSH1 0x20 ADD PUSH0 KECCAK256 PUSH0 DUP4 PUSH20 0xFFFFFFFFFFFFFFFFFFFFFFFFFFFFFFFFFFFFFFFF AND PUSH20 0xFFFFFFFFFFFFFFFFFFFFFFFFFFFFFFFFFFFFFFFF AND DUP2 MSTORE PUSH1 0x20 ADD SWAP1 DUP2 MSTORE PUSH1 0x20 ADD PUSH0 KECCAK256 PUSH0 SWAP1 SSTORE PUSH1 0x5 PUSH0 DUP6 DUP2 MSTORE PUSH1 0x20 ADD SWAP1 DUP2 MSTORE PUSH1 0x20 ADD PUSH0 KECCAK256 PUSH0 SWAP1 SSTORE POP POP DUP1 DUP1 PUSH1 0x1 ADD SWAP2 POP POP PUSH2 0x23B1 JUMP JUMPDEST POP PUSH0 PUSH1 0x9 PUSH0 DUP4 DUP2 MSTORE PUSH1 0x20 ADD SWAP1 DUP2 MSTORE PUSH1 0x20 ADD PUSH0 KECCAK256 PUSH1 0x4 ADD DUP2 SWAP1 SSTORE POP PUSH0 PUSH1 0x9 PUSH0 DUP4 DUP2 MSTORE PUSH1 0x20 ADD SWAP1 DUP2 MSTORE PUSH1 0x20 ADD PUSH0 KECCAK256 PUSH1 0x8 ADD DUP2 SWAP1 SSTORE POP PUSH1 0x9 PUSH0 DUP3 DUP2 MSTORE PUSH1 0x20 ADD SWAP1 DUP2 MSTORE PUSH1 0x20 ADD PUSH0 KECCAK256 PUSH1 0x9 ADD PUSH0 PUSH2 0x2601 SWAP2 SWAP1 PUSH2 0x4149 JUMP JUMPDEST POP DUP1 DUP1 PUSH1 0x1 ADD SWAP2 POP POP PUSH2 0x2355 JUMP JUMPDEST POP PUSH0 JUMPDEST PUSH1 0xD DUP1 SLOAD SWAP1 POP DUP2 LT ISZERO PUSH2 0x2A14 JUMPI PUSH0 PUSH1 0xD DUP3 DUP2 SLOAD DUP2 LT PUSH2 0x2634 JUMPI PUSH2 0x2633 PUSH2 0x4D25 JUMP JUMPDEST JUMPDEST SWAP1 PUSH0 MSTORE PUSH1 0x20 PUSH0 KECCAK256 ADD SLOAD SWAP1 POP PUSH0 PUSH1 0x9 PUSH0 DUP4 DUP2 MSTORE PUSH1 0x20 ADD SWAP1 DUP2 MSTORE PUSH1 0x20 ADD PUSH0 KECCAK256 SWAP1 POP DUP1 PUSH1 0x7 ADD PUSH1 0x16 SWAP1 SLOAD SWAP1 PUSH2 0x100 EXP SWAP1 DIV PUSH1 0xFF AND ISZERO DUP1 ISZERO PUSH2 0x2681 JUMPI POP DUP1 PUSH1 0x7 ADD PUSH1 0x15 SWAP1 SLOAD SWAP1 PUSH2 0x100 EXP SWAP1 DIV PUSH1 0xFF AND ISZERO JUMPDEST ISZERO PUSH2 0x2A05 JUMPI PUSH0 PUSH20 0xFFFFFFFFFFFFFFFFFFFFFFFFFFFFFFFFFFFFFFFF AND DUP2 PUSH1 0x6 ADD PUSH0 SWAP1 SLOAD SWAP1 PUSH2 0x100 EXP SWAP1 DIV PUSH20 0xFFFFFFFFFFFFFFFFFFFFFFFFFFFFFFFFFFFFFFFF AND PUSH20 0xFFFFFFFFFFFFFFFFFFFFFFFFFFFFFFFFFFFFFFFF AND EQ PUSH2 0x27F2 JUMPI PUSH0 DUP2 PUSH1 0x6 ADD PUSH0 SWAP1 SLOAD SWAP1 PUSH2 0x100 EXP SWAP1 DIV PUSH20 0xFFFFFFFFFFFFFFFFFFFFFFFFFFFFFFFFFFFFFFFF AND PUSH20 0xFFFFFFFFFFFFFFFFFFFFFFFFFFFFFFFFFFFFFFFF AND PUSH0 PUSH3 0x186A0 SWAP1 PUSH4 0x986CC311 PUSH1 0xE0 SHL DUP7 DUP7 PUSH1 0x4 ADD SLOAD DUP8 PUSH1 0x8 ADD SLOAD PUSH1 0x40 MLOAD PUSH1 0x24 ADD PUSH2 0x2742 SWAP4 SWAP3 SWAP2 SWAP1 PUSH2 0x574F JUMP JUMPDEST PUSH1 0x40 MLOAD PUSH1 0x20 DUP2 DUP4 SUB SUB DUP2 MSTORE SWAP1 PUSH1 0x40 MSTORE SWAP1 PUSH28 0xFFFFFFFFFFFFFFFFFFFFFFFFFFFFFFFFFFFFFFFFFFFFFFFFFFFFFFFF NOT AND PUSH1 0x20 DUP3 ADD DUP1 MLOAD PUSH28 0xFFFFFFFFFFFFFFFFFFFFFFFFFFFFFFFFFFFFFFFFFFFFFFFFFFFFFFFF DUP4 DUP2 DUP4 AND OR DUP4 MSTORE POP POP POP POP PUSH1 0x40 MLOAD PUSH2 0x27AC SWAP2 SWAP1 PUSH2 0x57BE JUMP JUMPDEST PUSH0 PUSH1 0x40 MLOAD DUP1 DUP4 SUB DUP2 DUP6 DUP9 DUP9 CALL SWAP4 POP POP POP POP RETURNDATASIZE DUP1 PUSH0 DUP2 EQ PUSH2 0x27E7 JUMPI PUSH1 0x40 MLOAD SWAP2 POP PUSH1 0x1F NOT PUSH1 0x3F RETURNDATASIZE ADD AND DUP3 ADD PUSH1 0x40 MSTORE RETURNDATASIZE DUP3 MSTORE RETURNDATASIZE PUSH0 PUSH1 0x20 DUP5 ADD RETURNDATACOPY PUSH2 0x27EC JUMP JUMPDEST PUSH1 0x60 SWAP2 POP JUMPDEST POP POP SWAP1 POP POP JUMPDEST PUSH0 JUMPDEST DUP2 PUSH1 0x9 ADD DUP1 SLOAD SWAP1 POP DUP2 LT ISZERO PUSH2 0x29BE JUMPI PUSH0 DUP3 PUSH1 0x9 ADD DUP3 DUP2 SLOAD DUP2 LT PUSH2 0x281A JUMPI PUSH2 0x2819 PUSH2 0x4D25 JUMP JUMPDEST JUMPDEST SWAP1 PUSH0 MSTORE PUSH1 0x20 PUSH0 KECCAK256 ADD PUSH0 SWAP1 SLOAD SWAP1 PUSH2 0x100 EXP SWAP1 DIV PUSH20 0xFFFFFFFFFFFFFFFFFFFFFFFFFFFFFFFFFFFFFFFF AND SWAP1 POP PUSH0 PUSH1 0x3 PUSH0 DUP7 DUP2 MSTORE PUSH1 0x20 ADD SWAP1 DUP2 MSTORE PUSH1 0x20 ADD PUSH0 KECCAK256 PUSH0 DUP4 PUSH20 0xFFFFFFFFFFFFFFFFFFFFFFFFFFFFFFFFFFFFFFFF AND PUSH20 0xFFFFFFFFFFFFFFFFFFFFFFFFFFFFFFFFFFFFFFFF AND DUP2 MSTORE PUSH1 0x20 ADD SWAP1 DUP2 MSTORE PUSH1 0x20 ADD PUSH0 KECCAK256 SLOAD SWAP1 POP PUSH0 DUP2 GT ISZERO PUSH2 0x2911 JUMPI PUSH0 DUP2 DUP3 PUSH2 0x28A9 SWAP2 SWAP1 PUSH2 0x4C7C JUMP JUMPDEST SWAP1 POP PUSH0 PUSH1 0x3 PUSH0 DUP9 DUP2 MSTORE PUSH1 0x20 ADD SWAP1 DUP2 MSTORE PUSH1 0x20 ADD PUSH0 KECCAK256 PUSH0 DUP6 PUSH20 0xFFFFFFFFFFFFFFFFFFFFFFFFFFFFFFFFFFFFFFFF AND PUSH20 0xFFFFFFFFFFFFFFFFFFFFFFFFFFFFFFFFFFFFFFFF AND DUP2 MSTORE PUSH1 0x20 ADD SWAP1 DUP2 MSTORE PUSH1 0x20 ADD PUSH0 KECCAK256 DUP2 SWAP1 SSTORE POP PUSH0 DUP2 GT ISZERO PUSH2 0x290F JUMPI PUSH2 0x290E DUP4 DUP3 PUSH2 0x3776 JUMP JUMPDEST JUMPDEST POP JUMPDEST PUSH1 0x3 PUSH0 DUP7 DUP2 MSTORE PUSH1 0x20 ADD SWAP1 DUP2 MSTORE PUSH1 0x20 ADD PUSH0 KECCAK256 PUSH0 DUP4 PUSH20 0xFFFFFFFFFFFFFFFFFFFFFFFFFFFFFFFFFFFFFFFF AND PUSH20 0xFFFFFFFFFFFFFFFFFFFFFFFFFFFFFFFFFFFFFFFF AND DUP2 MSTORE PUSH1 0x20 ADD SWAP1 DUP2 MSTORE PUSH1 0x20 ADD PUSH0 KECCAK256 PUSH0 SWAP1 SSTORE PUSH1 0x4 PUSH0 DUP7 DUP2 MSTORE PUSH1 0x20 ADD SWAP1 DUP2 MSTORE PUSH1 0x20 ADD PUSH0 KECCAK256 PUSH0 DUP4 PUSH20 0xFFFFFFFFFFFFFFFFFFFFFFFFFFFFFFFFFFFFFFFF AND PUSH20 0xFFFFFFFFFFFFFFFFFFFFFFFFFFFFFFFFFFFFFFFF AND DUP2 MSTORE PUSH1 0x20 ADD SWAP1 DUP2 MSTORE PUSH1 0x20 ADD PUSH0 KECCAK256 PUSH0 SWAP1 SSTORE POP POP DUP1 DUP1 PUSH1 0x1 ADD SWAP2 POP POP PUSH2 0x27F4 JUMP JUMPDEST POP PUSH0 DUP2 PUSH1 0x4 ADD DUP2 SWAP1 SSTORE POP PUSH0 DUP2 PUSH1 0x8 ADD DUP2 SWAP1 SSTORE POP PUSH1 0x9 PUSH0 DUP4 DUP2 MSTORE PUSH1 0x20 ADD SWAP1 DUP2 MSTORE PUSH1 0x20 ADD PUSH0 KECCAK256 PUSH1 0x9 ADD PUSH0 PUSH2 0x29F0 SWAP2 SWAP1 PUSH2 0x4149 JUMP JUMPDEST PUSH1 0x6 PUSH0 DUP4 DUP2 MSTORE PUSH1 0x20 ADD SWAP1 DUP2 MSTORE PUSH1 0x20 ADD PUSH0 KECCAK256 PUSH0 SWAP1 SSTORE JUMPDEST POP POP DUP1 DUP1 PUSH1 0x1 ADD SWAP2 POP POP PUSH2 0x2612 JUMP JUMPDEST POP PUSH0 PUSH1 0x2 PUSH0 PUSH2 0x100 EXP DUP2 SLOAD DUP2 PUSH1 0xFF MUL NOT AND SWAP1 DUP4 ISZERO ISZERO MUL OR SWAP1 SSTORE POP PUSH0 PUSH8 0xFFFFFFFFFFFFFFFF DUP2 GT ISZERO PUSH2 0x2A48 JUMPI PUSH2 0x2A47 PUSH2 0x52C4 JUMP JUMPDEST JUMPDEST PUSH1 0x40 MLOAD SWAP1 DUP1 DUP3 MSTORE DUP1 PUSH1 0x20 MUL PUSH1 0x20 ADD DUP3 ADD PUSH1 0x40 MSTORE DUP1 ISZERO PUSH2 0x2A76 JUMPI DUP2 PUSH1 0x20 ADD PUSH1 0x20 DUP3 MUL DUP1 CALLDATASIZE DUP4 CALLDATACOPY DUP1 DUP3 ADD SWAP2 POP POP SWAP1 POP JUMPDEST POP PUSH1 0xD SWAP1 DUP1 MLOAD SWAP1 PUSH1 0x20 ADD SWAP1 PUSH2 0x2A8C SWAP3 SWAP2 SWAP1 PUSH2 0x4167 JUMP JUMPDEST POP PUSH0 PUSH8 0xFFFFFFFFFFFFFFFF DUP2 GT ISZERO PUSH2 0x2AA7 JUMPI PUSH2 0x2AA6 PUSH2 0x52C4 JUMP JUMPDEST JUMPDEST PUSH1 0x40 MLOAD SWAP1 DUP1 DUP3 MSTORE DUP1 PUSH1 0x20 MUL PUSH1 0x20 ADD DUP3 ADD PUSH1 0x40 MSTORE DUP1 ISZERO PUSH2 0x2AD5 JUMPI DUP2 PUSH1 0x20 ADD PUSH1 0x20 DUP3 MUL DUP1 CALLDATASIZE DUP4 CALLDATACOPY DUP1 DUP3 ADD SWAP2 POP POP SWAP1 POP JUMPDEST POP PUSH1 0xB SWAP1 DUP1 MLOAD SWAP1 PUSH1 0x20 ADD SWAP1 PUSH2 0x2AEB SWAP3 SWAP2 SWAP1 PUSH2 0x4167 JUMP JUMPDEST POP PUSH0 PUSH8 0xFFFFFFFFFFFFFFFF DUP2 GT ISZERO PUSH2 0x2B06 JUMPI PUSH2 0x2B05 PUSH2 0x52C4 JUMP JUMPDEST JUMPDEST PUSH1 0x40 MLOAD SWAP1 DUP1 DUP3 MSTORE DUP1 PUSH1 0x20 MUL PUSH1 0x20 ADD DUP3 ADD PUSH1 0x40 MSTORE DUP1 ISZERO PUSH2 0x2B34 JUMPI DUP2 PUSH1 0x20 ADD PUSH1 0x20 DUP3 MUL DUP1 CALLDATASIZE DUP4 CALLDATACOPY DUP1 DUP3 ADD SWAP2 POP POP SWAP1 POP JUMPDEST POP PUSH1 0xC SWAP1 DUP1 MLOAD SWAP1 PUSH1 0x20 ADD SWAP1 PUSH2 0x2B4A SWAP3 SWAP2 SWAP1 PUSH2 0x4167 JUMP JUMPDEST POP PUSH0 PUSH1 0xA DUP2 SWAP1 SSTORE POP PUSH0 PUSH1 0x1 SLOAD GT ISZERO PUSH2 0x2C34 JUMPI PUSH0 PUSH1 0x1 SLOAD SWAP1 POP PUSH0 PUSH1 0x1 DUP2 SWAP1 SSTORE POP PUSH0 PUSH32 0x0 PUSH20 0xFFFFFFFFFFFFFFFFFFFFFFFFFFFFFFFFFFFFFFFF AND DUP3 PUSH1 0x40 MLOAD PUSH2 0x2BAE SWAP1 PUSH2 0x4F73 JUMP JUMPDEST PUSH0 PUSH1 0x40 MLOAD DUP1 DUP4 SUB DUP2 DUP6 DUP8 GAS CALL SWAP3 POP POP POP RETURNDATASIZE DUP1 PUSH0 DUP2 EQ PUSH2 0x2BE8 JUMPI PUSH1 0x40 MLOAD SWAP2 POP PUSH1 0x1F NOT PUSH1 0x3F RETURNDATASIZE ADD AND DUP3 ADD PUSH1 0x40 MSTORE RETURNDATASIZE DUP3 MSTORE RETURNDATASIZE PUSH0 PUSH1 0x20 DUP5 ADD RETURNDATACOPY PUSH2 0x2BED JUMP JUMPDEST PUSH1 0x60 SWAP2 POP JUMPDEST POP POP SWAP1 POP DUP1 PUSH2 0x2C31 JUMPI PUSH1 0x40 MLOAD PUSH32 0x8C379A000000000000000000000000000000000000000000000000000000000 DUP2 MSTORE PUSH1 0x4 ADD PUSH2 0x2C28 SWAP1 PUSH2 0x581E JUMP JUMPDEST PUSH1 0x40 MLOAD DUP1 SWAP2 SUB SWAP1 REVERT JUMPDEST POP POP JUMPDEST PUSH0 PUSH1 0xE PUSH0 PUSH2 0x100 EXP DUP2 SLOAD DUP2 PUSH1 0xFF MUL NOT AND SWAP1 DUP4 ISZERO ISZERO MUL OR SWAP1 SSTORE POP PUSH32 0x66B6CB4A09ABC3BF1CACC3C67420258856FFDAD0DEBA9078CBD1658957B50218 PUSH1 0x40 MLOAD PUSH1 0x40 MLOAD DUP1 SWAP2 SUB SWAP1 LOG1 JUMP JUMPDEST PUSH1 0x8 PUSH0 CALLER PUSH20 0xFFFFFFFFFFFFFFFFFFFFFFFFFFFFFFFFFFFFFFFF AND PUSH20 0xFFFFFFFFFFFFFFFFFFFFFFFFFFFFFFFFFFFFFFFF AND DUP2 MSTORE PUSH1 0x20 ADD SWAP1 DUP2 MSTORE PUSH1 0x20 ADD PUSH0 KECCAK256 PUSH0 SWAP1 SLOAD SWAP1 PUSH2 0x100 EXP SWAP1 DIV PUSH1 0xFF AND PUSH2 0x2D04 JUMPI PUSH1 0x40 MLOAD PUSH32 0x8C379A000000000000000000000000000000000000000000000000000000000 DUP2 MSTORE PUSH1 0x4 ADD PUSH2 0x2CFB SWAP1 PUSH2 0x48DA JUMP JUMPDEST PUSH1 0x40 MLOAD DUP1 SWAP2 SUB SWAP1 REVERT JUMPDEST PUSH1 0xE PUSH0 SWAP1 SLOAD SWAP1 PUSH2 0x100 EXP SWAP1 DIV PUSH1 0xFF AND ISZERO PUSH2 0x2D53 JUMPI PUSH1 0x40 MLOAD PUSH32 0x8C379A000000000000000000000000000000000000000000000000000000000 DUP2 MSTORE PUSH1 0x4 ADD PUSH2 0x2D4A SWAP1 PUSH2 0x5731 JUMP JUMPDEST PUSH1 0x40 MLOAD DUP1 SWAP2 SUB SWAP1 REVERT JUMPDEST PUSH0 DUP1 SLOAD SWAP1 PUSH2 0x100 EXP SWAP1 DIV PUSH20 0xFFFFFFFFFFFFFFFFFFFFFFFFFFFFFFFFFFFFFFFF AND PUSH20 0xFFFFFFFFFFFFFFFFFFFFFFFFFFFFFFFFFFFFFFFF AND PUSH4 0x4B94F50E PUSH1 0x40 MLOAD DUP2 PUSH4 0xFFFFFFFF AND PUSH1 0xE0 SHL DUP2 MSTORE PUSH1 0x4 ADD PUSH1 0x20 PUSH1 0x40 MLOAD DUP1 DUP4 SUB DUP2 DUP7 GAS STATICCALL ISZERO DUP1 ISZERO PUSH2 0x2DBB JUMPI RETURNDATASIZE PUSH0 DUP1 RETURNDATACOPY RETURNDATASIZE PUSH0 REVERT JUMPDEST POP POP POP POP PUSH1 0x40 MLOAD RETURNDATASIZE PUSH1 0x1F NOT PUSH1 0x1F DUP3 ADD AND DUP3 ADD DUP1 PUSH1 0x40 MSTORE POP DUP2 ADD SWAP1 PUSH2 0x2DDF SWAP2 SWAP1 PUSH2 0x49F0 JUMP JUMPDEST CALLVALUE LT ISZERO DUP1 ISZERO PUSH2 0x2DED JUMPI POP PUSH0 CALLVALUE GT JUMPDEST PUSH2 0x2E2C JUMPI PUSH1 0x40 MLOAD PUSH32 0x8C379A000000000000000000000000000000000000000000000000000000000 DUP2 MSTORE PUSH1 0x4 ADD PUSH2 0x2E23 SWAP1 PUSH2 0x5886 JUMP JUMPDEST PUSH1 0x40 MLOAD DUP1 SWAP2 SUB SWAP1 REVERT JUMPDEST PUSH0 DUP1 PUSH0 SWAP1 SLOAD SWAP1 PUSH2 0x100 EXP SWAP1 DIV PUSH20 0xFFFFFFFFFFFFFFFFFFFFFFFFFFFFFFFFFFFFFFFF AND PUSH20 0xFFFFFFFFFFFFFFFFFFFFFFFFFFFFFFFFFFFFFFFF AND PUSH4 0x4B94F50E PUSH1 0x40 MLOAD DUP2 PUSH4 0xFFFFFFFF AND PUSH1 0xE0 SHL DUP2 MSTORE PUSH1 0x4 ADD PUSH1 0x20 PUSH1 0x40 MLOAD DUP1 DUP4 SUB DUP2 DUP7 GAS STATICCALL ISZERO DUP1 ISZERO PUSH2 0x2E96 JUMPI RETURNDATASIZE PUSH0 DUP1 RETURNDATACOPY RETURNDATASIZE PUSH0 REVERT JUMPDEST POP POP POP POP PUSH1 0x40 MLOAD RETURNDATASIZE PUSH1 0x1F NOT PUSH1 0x1F DUP3 ADD AND DUP3 ADD DUP1 PUSH1 0x40 MSTORE POP DUP2 ADD SWAP1 PUSH2 0x2EBA SWAP2 SWAP1 PUSH2 0x49F0 JUMP JUMPDEST SWAP1 POP PUSH0 DUP2 CALLVALUE PUSH2 0x2EC9 SWAP2 SWAP1 PUSH2 0x58D1 JUMP JUMPDEST SWAP1 POP PUSH0 DUP3 DUP3 PUSH2 0x2ED8 SWAP2 SWAP1 PUSH2 0x4C7C JUMP JUMPDEST SWAP1 POP PUSH0 DUP2 CALLVALUE PUSH2 0x2EE7 SWAP2 SWAP1 PUSH2 0x4C49 JUMP JUMPDEST SWAP1 POP PUSH0 DUP1 SLOAD SWAP1 PUSH2 0x100 EXP SWAP1 DIV PUSH20 0xFFFFFFFFFFFFFFFFFFFFFFFFFFFFFFFFFFFFFFFF AND PUSH20 0xFFFFFFFFFFFFFFFFFFFFFFFFFFFFFFFFFFFFFFFF AND PUSH4 0x40C10F19 CALLER DUP6 PUSH1 0x40 MLOAD DUP4 PUSH4 0xFFFFFFFF AND PUSH1 0xE0 SHL DUP2 MSTORE PUSH1 0x4 ADD PUSH2 0x2F43 SWAP3 SWAP2 SWAP1 PUSH2 0x4F1F JUMP JUMPDEST PUSH0 PUSH1 0x40 MLOAD DUP1 DUP4 SUB DUP2 PUSH0 DUP8 DUP1 EXTCODESIZE ISZERO DUP1 ISZERO PUSH2 0x2F5A JUMPI PUSH0 DUP1 REVERT JUMPDEST POP GAS CALL ISZERO DUP1 ISZERO PUSH2 0x2F6C JUMPI RETURNDATASIZE PUSH0 DUP1 RETURNDATACOPY RETURNDATASIZE PUSH0 REVERT JUMPDEST POP POP POP POP PUSH0 DUP2 GT ISZERO PUSH2 0x3055 JUMPI PUSH1 0x1 PUSH1 0xE PUSH0 PUSH2 0x100 EXP DUP2 SLOAD DUP2 PUSH1 0xFF MUL NOT AND SWAP1 DUP4 ISZERO ISZERO MUL OR SWAP1 SSTORE POP PUSH0 CALLER PUSH20 0xFFFFFFFFFFFFFFFFFFFFFFFFFFFFFFFFFFFFFFFF AND DUP3 PUSH1 0x40 MLOAD PUSH2 0x2FB7 SWAP1 PUSH2 0x4F73 JUMP JUMPDEST PUSH0 PUSH1 0x40 MLOAD DUP1 DUP4 SUB DUP2 DUP6 DUP8 GAS CALL SWAP3 POP POP POP RETURNDATASIZE DUP1 PUSH0 DUP2 EQ PUSH2 0x2FF1 JUMPI PUSH1 0x40 MLOAD SWAP2 POP PUSH1 0x1F NOT PUSH1 0x3F RETURNDATASIZE ADD AND DUP3 ADD PUSH1 0x40 MSTORE RETURNDATASIZE DUP3 MSTORE RETURNDATASIZE PUSH0 PUSH1 0x20 DUP5 ADD RETURNDATACOPY PUSH2 0x2FF6 JUMP JUMPDEST PUSH1 0x60 SWAP2 POP JUMPDEST POP POP SWAP1 POP PUSH0 PUSH1 0xE PUSH0 PUSH2 0x100 EXP DUP2 SLOAD DUP2 PUSH1 0xFF MUL NOT AND SWAP1 DUP4 ISZERO ISZERO MUL OR SWAP1 SSTORE POP DUP1 PUSH2 0x3053 JUMPI PUSH1 0x40 MLOAD PUSH32 0x8C379A000000000000000000000000000000000000000000000000000000000 DUP2 MSTORE PUSH1 0x4 ADD PUSH2 0x304A SWAP1 PUSH2 0x594B JUMP JUMPDEST PUSH1 0x40 MLOAD DUP1 SWAP2 SUB SWAP1 REVERT JUMPDEST POP JUMPDEST POP POP POP POP JUMP JUMPDEST PUSH1 0x2 PUSH0 SWAP1 SLOAD SWAP1 PUSH2 0x100 EXP SWAP1 DIV PUSH1 0xFF AND PUSH2 0x30A9 JUMPI PUSH1 0x40 MLOAD PUSH32 0x8C379A000000000000000000000000000000000000000000000000000000000 DUP2 MSTORE PUSH1 0x4 ADD PUSH2 0x30A0 SWAP1 PUSH2 0x4872 JUMP JUMPDEST PUSH1 0x40 MLOAD DUP1 SWAP2 SUB SWAP1 REVERT JUMPDEST DUP1 PUSH1 0xA SLOAD DUP2 LT PUSH2 0x30EE JUMPI PUSH1 0x40 MLOAD PUSH32 0x8C379A000000000000000000000000000000000000000000000000000000000 DUP2 MSTORE PUSH1 0x4 ADD PUSH2 0x30E5 SWAP1 PUSH2 0x4A65 JUMP JUMPDEST PUSH1 0x40 MLOAD DUP1 SWAP2 SUB SWAP1 REVERT JUMPDEST DUP2 PUSH1 0x9 PUSH0 DUP3 DUP2 MSTORE PUSH1 0x20 ADD SWAP1 DUP2 MSTORE PUSH1 0x20 ADD PUSH0 KECCAK256 PUSH1 0x7 ADD PUSH1 0x16 SWAP1 SLOAD SWAP1 PUSH2 0x100 EXP SWAP1 DIV PUSH1 0xFF AND ISZERO PUSH2 0x3151 JUMPI PUSH1 0x40 MLOAD PUSH32 0x8C379A000000000000000000000000000000000000000000000000000000000 DUP2 MSTORE PUSH1 0x4 ADD PUSH2 0x3148 SWAP1 PUSH2 0x4ACD JUMP JUMPDEST PUSH1 0x40 MLOAD DUP1 SWAP2 SUB SWAP1 REVERT JUMPDEST DUP3 PUSH1 0x9 PUSH0 DUP3 DUP2 MSTORE PUSH1 0x20 ADD SWAP1 DUP2 MSTORE PUSH1 0x20 ADD PUSH0 KECCAK256 PUSH1 0x7 ADD PUSH1 0x15 SWAP1 SLOAD SWAP1 PUSH2 0x100 EXP SWAP1 DIV PUSH1 0xFF AND ISZERO PUSH2 0x31B4 JUMPI PUSH1 0x40 MLOAD PUSH32 0x8C379A000000000000000000000000000000000000000000000000000000000 DUP2 MSTORE PUSH1 0x4 ADD PUSH2 0x31AB SWAP1 PUSH2 0x4B35 JUMP JUMPDEST PUSH1 0x40 MLOAD DUP1 SWAP2 SUB SWAP1 REVERT JUMPDEST PUSH1 0x9 PUSH0 DUP6 DUP2 MSTORE PUSH1 0x20 ADD SWAP1 DUP2 MSTORE PUSH1 0x20 ADD PUSH0 KECCAK256 PUSH1 0x7 ADD PUSH0 SWAP1 SLOAD SWAP1 PUSH2 0x100 EXP SWAP1 DIV PUSH20 0xFFFFFFFFFFFFFFFFFFFFFFFFFFFFFFFFFFFFFFFF AND PUSH20 0xFFFFFFFFFFFFFFFFFFFFFFFFFFFFFFFFFFFFFFFF AND CALLER PUSH20 0xFFFFFFFFFFFFFFFFFFFFFFFFFFFFFFFFFFFFFFFF AND EQ PUSH2 0x3255 JUMPI PUSH1 0x40 MLOAD PUSH32 0x8C379A000000000000000000000000000000000000000000000000000000000 DUP2 MSTORE PUSH1 0x4 ADD PUSH2 0x324C SWAP1 PUSH2 0x59B3 JUMP JUMPDEST PUSH1 0x40 MLOAD DUP1 SWAP2 SUB SWAP1 REVERT JUMPDEST PUSH0 PUSH1 0x9 PUSH0 DUP7 DUP2 MSTORE PUSH1 0x20 ADD SWAP1 DUP2 MSTORE PUSH1 0x20 ADD PUSH0 KECCAK256 SWAP1 POP PUSH1 0x1 DUP2 PUSH1 0x7 ADD PUSH1 0x16 PUSH2 0x100 EXP DUP2 SLOAD DUP2 PUSH1 0xFF MUL NOT AND SWAP1 DUP4 ISZERO ISZERO MUL OR SWAP1 SSTORE POP DUP1 PUSH1 0x7 ADD PUSH1 0x14 SWAP1 SLOAD SWAP1 PUSH2 0x100 EXP SWAP1 DIV PUSH1 0xFF AND PUSH2 0x32AE JUMPI PUSH2 0x32A9 PUSH1 0xB PUSH1 0x5 DUP8 PUSH2 0x3FF6 JUMP JUMPDEST PUSH2 0x32BC JUMP JUMPDEST PUSH2 0x32BB PUSH1 0xD PUSH1 0x6 DUP8 PUSH2 0x3FF6 JUMP JUMPDEST JUMPDEST PUSH0 JUMPDEST DUP2 PUSH1 0x9 ADD DUP1 SLOAD SWAP1 POP DUP2 LT ISZERO PUSH2 0x3437 JUMPI PUSH0 DUP3 PUSH1 0x9 ADD DUP3 DUP2 SLOAD DUP2 LT PUSH2 0x32E4 JUMPI PUSH2 0x32E3 PUSH2 0x4D25 JUMP JUMPDEST JUMPDEST SWAP1 PUSH0 MSTORE PUSH1 0x20 PUSH0 KECCAK256 ADD PUSH0 SWAP1 SLOAD SWAP1 PUSH2 0x100 EXP SWAP1 DIV PUSH20 0xFFFFFFFFFFFFFFFFFFFFFFFFFFFFFFFFFFFFFFFF AND SWAP1 POP PUSH0 PUSH1 0x3 PUSH0 DUP10 DUP2 MSTORE PUSH1 0x20 ADD SWAP1 DUP2 MSTORE PUSH1 0x20 ADD PUSH0 KECCAK256 PUSH0 DUP4 PUSH20 0xFFFFFFFFFFFFFFFFFFFFFFFFFFFFFFFFFFFFFFFF AND PUSH20 0xFFFFFFFFFFFFFFFFFFFFFFFFFFFFFFFFFFFFFFFF AND DUP2 MSTORE PUSH1 0x20 ADD SWAP1 DUP2 MSTORE PUSH1 0x20 ADD PUSH0 KECCAK256 SLOAD SWAP1 POP PUSH0 DUP2 GT ISZERO PUSH2 0x338A JUMPI PUSH0 DUP2 DUP3 PUSH2 0x3373 SWAP2 SWAP1 PUSH2 0x4C7C JUMP JUMPDEST SWAP1 POP PUSH0 DUP2 GT ISZERO PUSH2 0x3388 JUMPI PUSH2 0x3387 DUP4 DUP3 PUSH2 0x3776 JUMP JUMPDEST JUMPDEST POP JUMPDEST PUSH1 0x3 PUSH0 DUP10 DUP2 MSTORE PUSH1 0x20 ADD SWAP1 DUP2 MSTORE PUSH1 0x20 ADD PUSH0 KECCAK256 PUSH0 DUP4 PUSH20 0xFFFFFFFFFFFFFFFFFFFFFFFFFFFFFFFFFFFFFFFF AND PUSH20 0xFFFFFFFFFFFFFFFFFFFFFFFFFFFFFFFFFFFFFFFF AND DUP2 MSTORE PUSH1 0x20 ADD SWAP1 DUP2 MSTORE PUSH1 0x20 ADD PUSH0 KECCAK256 PUSH0 SWAP1 SSTORE PUSH1 0x4 PUSH0 DUP10 DUP2 MSTORE PUSH1 0x20 ADD SWAP1 DUP2 MSTORE PUSH1 0x20 ADD PUSH0 KECCAK256 PUSH0 DUP4 PUSH20 0xFFFFFFFFFFFFFFFFFFFFFFFFFFFFFFFFFFFFFFFF AND PUSH20 0xFFFFFFFFFFFFFFFFFFFFFFFFFFFFFFFFFFFFFFFF AND DUP2 MSTORE PUSH1 0x20 ADD SWAP1 DUP2 MSTORE PUSH1 0x20 ADD PUSH0 KECCAK256 PUSH0 SWAP1 SSTORE POP POP DUP1 DUP1 PUSH1 0x1 ADD SWAP2 POP POP PUSH2 0x32BE JUMP JUMPDEST POP PUSH0 DUP2 PUSH1 0x4 ADD DUP2 SWAP1 SSTORE POP PUSH0 DUP2 PUSH1 0x8 ADD DUP2 SWAP1 SSTORE POP DUP1 PUSH1 0x9 ADD PUSH0 PUSH2 0x3459 SWAP2 SWAP1 PUSH2 0x4149 JUMP JUMPDEST DUP5 PUSH32 0x789CF55BE980739DAD1D0699B93B58E806B51C9D96619BFA8FE0A28ABAA7B30C PUSH1 0x40 MLOAD PUSH1 0x40 MLOAD DUP1 SWAP2 SUB SWAP1 LOG2 POP POP POP POP POP JUMP JUMPDEST PUSH0 DUP1 SLOAD SWAP1 PUSH2 0x100 EXP SWAP1 DIV PUSH20 0xFFFFFFFFFFFFFFFFFFFFFFFFFFFFFFFFFFFFFFFF AND PUSH20 0xFFFFFFFFFFFFFFFFFFFFFFFFFFFFFFFFFFFFFFFF AND PUSH4 0x4B94F50E PUSH1 0x40 MLOAD DUP2 PUSH4 0xFFFFFFFF AND PUSH1 0xE0 SHL DUP2 MSTORE PUSH1 0x4 ADD PUSH1 0x20 PUSH1 0x40 MLOAD DUP1 DUP4 SUB DUP2 DUP7 GAS STATICCALL ISZERO DUP1 ISZERO PUSH2 0x34F5 JUMPI RETURNDATASIZE PUSH0 DUP1 RETURNDATACOPY RETURNDATASIZE PUSH0 REVERT JUMPDEST POP POP POP POP PUSH1 0x40 MLOAD RETURNDATASIZE PUSH1 0x1F NOT PUSH1 0x1F DUP3 ADD AND DUP3 ADD DUP1 PUSH1 0x40 MSTORE POP DUP2 ADD SWAP1 PUSH2 0x3519 SWAP2 SWAP1 PUSH2 0x49F0 JUMP JUMPDEST CALLVALUE LT ISZERO PUSH2 0x355B JUMPI PUSH1 0x40 MLOAD PUSH32 0x8C379A000000000000000000000000000000000000000000000000000000000 DUP2 MSTORE PUSH1 0x4 ADD PUSH2 0x3552 SWAP1 PUSH2 0x5A1B JUMP JUMPDEST PUSH1 0x40 MLOAD DUP1 SWAP2 SUB SWAP1 REVERT JUMPDEST PUSH1 0x8 PUSH0 CALLER PUSH20 0xFFFFFFFFFFFFFFFFFFFFFFFFFFFFFFFFFFFFFFFF AND PUSH20 0xFFFFFFFFFFFFFFFFFFFFFFFFFFFFFFFFFFFFFFFF AND DUP2 MSTORE PUSH1 0x20 ADD SWAP1 DUP2 MSTORE PUSH1 0x20 ADD PUSH0 KECCAK256 PUSH0 SWAP1 SLOAD SWAP1 PUSH2 0x100 EXP SWAP1 DIV PUSH1 0xFF AND ISZERO PUSH2 0x35E5 JUMPI PUSH1 0x40 MLOAD PUSH32 0x8C379A000000000000000000000000000000000000000000000000000000000 DUP2 MSTORE PUSH1 0x4 ADD PUSH2 0x35DC SWAP1 PUSH2 0x5A83 JUMP JUMPDEST PUSH1 0x40 MLOAD DUP1 SWAP2 SUB SWAP1 REVERT JUMPDEST PUSH0 DUP1 PUSH0 SWAP1 SLOAD SWAP1 PUSH2 0x100 EXP SWAP1 DIV PUSH20 0xFFFFFFFFFFFFFFFFFFFFFFFFFFFFFFFFFFFFFFFF AND PUSH20 0xFFFFFFFFFFFFFFFFFFFFFFFFFFFFFFFFFFFFFFFF AND PUSH4 0x4B94F50E PUSH1 0x40 MLOAD DUP2 PUSH4 0xFFFFFFFF AND PUSH1 0xE0 SHL DUP2 MSTORE PUSH1 0x4 ADD PUSH1 0x20 PUSH1 0x40 MLOAD DUP1 DUP4 SUB DUP2 DUP7 GAS STATICCALL ISZERO DUP1 ISZERO PUSH2 0x364F JUMPI RETURNDATASIZE PUSH0 DUP1 RETURNDATACOPY RETURNDATASIZE PUSH0 REVERT JUMPDEST POP POP POP POP PUSH1 0x40 MLOAD RETURNDATASIZE PUSH1 0x1F NOT PUSH1 0x1F DUP3 ADD AND DUP3 ADD DUP1 PUSH1 0x40 MSTORE POP DUP2 ADD SWAP1 PUSH2 0x3673 SWAP2 SWAP1 PUSH2 0x49F0 JUMP JUMPDEST CALLVALUE PUSH2 0x367E SWAP2 SWAP1 PUSH2 0x58D1 JUMP JUMPDEST SWAP1 POP PUSH1 0x1 PUSH1 0x8 PUSH0 CALLER PUSH20 0xFFFFFFFFFFFFFFFFFFFFFFFFFFFFFFFFFFFFFFFF AND PUSH20 0xFFFFFFFFFFFFFFFFFFFFFFFFFFFFFFFFFFFFFFFF AND DUP2 MSTORE PUSH1 0x20 ADD SWAP1 DUP2 MSTORE PUSH1 0x20 ADD PUSH0 KECCAK256 PUSH0 PUSH2 0x100 EXP DUP2 SLOAD DUP2 PUSH1 0xFF MUL NOT AND SWAP1 DUP4 ISZERO ISZERO MUL OR SWAP1 SSTORE POP PUSH1 0x7 PUSH0 DUP2 SLOAD DUP1 SWAP3 SWAP2 SWAP1 PUSH2 0x36E7 SWAP1 PUSH2 0x5273 JUMP JUMPDEST SWAP2 SWAP1 POP SSTORE POP PUSH0 DUP1 SLOAD SWAP1 PUSH2 0x100 EXP SWAP1 DIV PUSH20 0xFFFFFFFFFFFFFFFFFFFFFFFFFFFFFFFFFFFFFFFF AND PUSH20 0xFFFFFFFFFFFFFFFFFFFFFFFFFFFFFFFFFFFFFFFF AND PUSH4 0x40C10F19 CALLER DUP4 PUSH1 0x40 MLOAD DUP4 PUSH4 0xFFFFFFFF AND PUSH1 0xE0 SHL DUP2 MSTORE PUSH1 0x4 ADD PUSH2 0x3746 SWAP3 SWAP2 SWAP1 PUSH2 0x4F1F JUMP JUMPDEST PUSH0 PUSH1 0x40 MLOAD DUP1 DUP4 SUB DUP2 PUSH0 DUP8 DUP1 EXTCODESIZE ISZERO DUP1 ISZERO PUSH2 0x375D JUMPI PUSH0 DUP1 REVERT JUMPDEST POP GAS CALL ISZERO DUP1 ISZERO PUSH2 0x376F JUMPI RETURNDATASIZE PUSH0 DUP1 RETURNDATACOPY RETURNDATASIZE PUSH0 REVERT JUMPDEST POP POP POP POP POP JUMP JUMPDEST PUSH0 DUP2 GT PUSH2 0x37B8 JUMPI PUSH1 0x40 MLOAD PUSH32 0x8C379A000000000000000000000000000000000000000000000000000000000 DUP2 MSTORE PUSH1 0x4 ADD PUSH2 0x37AF SWAP1 PUSH2 0x5AEB JUMP JUMPDEST PUSH1 0x40 MLOAD DUP1 SWAP2 SUB SWAP1 REVERT JUMPDEST PUSH0 PUSH20 0xFFFFFFFFFFFFFFFFFFFFFFFFFFFFFFFFFFFFFFFF AND DUP3 PUSH20 0xFFFFFFFFFFFFFFFFFFFFFFFFFFFFFFFFFFFFFFFF AND SUB PUSH2 0x3826 JUMPI PUSH1 0x40 MLOAD PUSH32 0x8C379A000000000000000000000000000000000000000000000000000000000 DUP2 MSTORE PUSH1 0x4 ADD PUSH2 0x381D SWAP1 PUSH2 0x5B53 JUMP JUMPDEST PUSH1 0x40 MLOAD DUP1 SWAP2 SUB SWAP1 REVERT JUMPDEST PUSH0 DUP1 PUSH0 SWAP1 SLOAD SWAP1 PUSH2 0x100 EXP SWAP1 DIV PUSH20 0xFFFFFFFFFFFFFFFFFFFFFFFFFFFFFFFFFFFFFFFF AND PUSH20 0xFFFFFFFFFFFFFFFFFFFFFFFFFFFFFFFFFFFFFFFF AND PUSH3 0x186A0 PUSH4 0xA9059CBB PUSH1 0xE0 SHL DUP6 DUP6 PUSH1 0x40 MLOAD PUSH1 0x24 ADD PUSH2 0x387D SWAP3 SWAP2 SWAP1 PUSH2 0x4F1F JUMP JUMPDEST PUSH1 0x40 MLOAD PUSH1 0x20 DUP2 DUP4 SUB SUB DUP2 MSTORE SWAP1 PUSH1 0x40 MSTORE SWAP1 PUSH28 0xFFFFFFFFFFFFFFFFFFFFFFFFFFFFFFFFFFFFFFFFFFFFFFFFFFFFFFFF NOT AND PUSH1 0x20 DUP3 ADD DUP1 MLOAD PUSH28 0xFFFFFFFFFFFFFFFFFFFFFFFFFFFFFFFFFFFFFFFFFFFFFFFFFFFFFFFF DUP4 DUP2 DUP4 AND OR DUP4 MSTORE POP POP POP POP PUSH1 0x40 MLOAD PUSH2 0x38E7 SWAP2 SWAP1 PUSH2 0x57BE JUMP JUMPDEST PUSH0 PUSH1 0x40 MLOAD DUP1 DUP4 SUB DUP2 PUSH0 DUP8 DUP8 CALL SWAP3 POP POP POP RETURNDATASIZE DUP1 PUSH0 DUP2 EQ PUSH2 0x3921 JUMPI PUSH1 0x40 MLOAD SWAP2 POP PUSH1 0x1F NOT PUSH1 0x3F RETURNDATASIZE ADD AND DUP3 ADD PUSH1 0x40 MSTORE RETURNDATASIZE DUP3 MSTORE RETURNDATASIZE PUSH0 PUSH1 0x20 DUP5 ADD RETURNDATACOPY PUSH2 0x3926 JUMP JUMPDEST PUSH1 0x60 SWAP2 POP JUMPDEST POP POP SWAP1 POP DUP1 PUSH2 0x396A JUMPI PUSH1 0x40 MLOAD PUSH32 0x8C379A000000000000000000000000000000000000000000000000000000000 DUP2 MSTORE PUSH1 0x4 ADD PUSH2 0x3961 SWAP1 PUSH2 0x5BE1 JUMP JUMPDEST PUSH1 0x40 MLOAD DUP1 SWAP2 SUB SWAP1 REVERT JUMPDEST POP POP POP JUMP JUMPDEST PUSH0 DUP1 PUSH1 0x1 SLOAD SUB PUSH2 0x39A1 JUMPI PUSH32 0xFFFFFFFFFFFFFFFFFFFFFFFFFFFFFFFFFFFFFFFFFFFFFFFFFFFFFFFFFFFFFFFF SWAP1 POP PUSH2 0x3A26 JUMP JUMPDEST PUSH0 PUSH1 0x9 PUSH0 DUP5 DUP2 MSTORE PUSH1 0x20 ADD SWAP1 DUP2 MSTORE PUSH1 0x20 ADD PUSH0 KECCAK256 SWAP1 POP PUSH0 PUSH8 0xDE0B6B3A7640000 PUSH1 0x7 SLOAD PUSH1 0x1 SLOAD PUSH8 0xDE0B6B3A7640000 DUP6 PUSH1 0x3 ADD SLOAD PUSH2 0x39DD SWAP2 SWAP1 PUSH2 0x4C7C JUMP JUMPDEST PUSH2 0x39E7 SWAP2 SWAP1 PUSH2 0x58D1 JUMP JUMPDEST PUSH8 0x2C68AF0BB140000 PUSH2 0x39FA SWAP2 SWAP1 PUSH2 0x5057 JUMP JUMPDEST PUSH2 0x3A04 SWAP2 SWAP1 PUSH2 0x4C7C JUMP JUMPDEST PUSH2 0x3A0E SWAP2 SWAP1 PUSH2 0x58D1 JUMP JUMPDEST SWAP1 POP PUSH1 0xB DUP1 SLOAD SWAP1 POP DUP2 PUSH2 0x3A21 SWAP2 SWAP1 PUSH2 0x5057 JUMP JUMPDEST SWAP3 POP POP POP JUMPDEST SWAP2 SWAP1 POP JUMP JUMPDEST PUSH1 0x2 PUSH0 SWAP1 SLOAD SWAP1 PUSH2 0x100 EXP SWAP1 DIV PUSH1 0xFF AND PUSH2 0x3A79 JUMPI PUSH1 0x40 MLOAD PUSH32 0x8C379A000000000000000000000000000000000000000000000000000000000 DUP2 MSTORE PUSH1 0x4 ADD PUSH2 0x3A70 SWAP1 PUSH2 0x4872 JUMP JUMPDEST PUSH1 0x40 MLOAD DUP1 SWAP2 SUB SWAP1 REVERT JUMPDEST DUP1 PUSH1 0xA SLOAD DUP2 LT PUSH2 0x3ABE JUMPI PUSH1 0x40 MLOAD PUSH32 0x8C379A000000000000000000000000000000000000000000000000000000000 DUP2 MSTORE PUSH1 0x4 ADD PUSH2 0x3AB5 SWAP1 PUSH2 0x4A65 JUMP JUMPDEST PUSH1 0x40 MLOAD DUP1 SWAP2 SUB SWAP1 REVERT JUMPDEST DUP2 PUSH1 0x9 PUSH0 DUP3 DUP2 MSTORE PUSH1 0x20 ADD SWAP1 DUP2 MSTORE PUSH1 0x20 ADD PUSH0 KECCAK256 PUSH1 0x7 ADD PUSH1 0x16 SWAP1 SLOAD SWAP1 PUSH2 0x100 EXP SWAP1 DIV PUSH1 0xFF AND ISZERO PUSH2 0x3B21 JUMPI PUSH1 0x40 MLOAD PUSH32 0x8C379A000000000000000000000000000000000000000000000000000000000 DUP2 MSTORE PUSH1 0x4 ADD PUSH2 0x3B18 SWAP1 PUSH2 0x4ACD JUMP JUMPDEST PUSH1 0x40 MLOAD DUP1 SWAP2 SUB SWAP1 REVERT JUMPDEST DUP3 PUSH1 0x9 PUSH0 DUP3 DUP2 MSTORE PUSH1 0x20 ADD SWAP1 DUP2 MSTORE PUSH1 0x20 ADD PUSH0 KECCAK256 PUSH1 0x7 ADD PUSH1 0x15 SWAP1 SLOAD SWAP1 PUSH2 0x100 EXP SWAP1 DIV PUSH1 0xFF AND ISZERO PUSH2 0x3B84 JUMPI PUSH1 0x40 MLOAD PUSH32 0x8C379A000000000000000000000000000000000000000000000000000000000 DUP2 MSTORE PUSH1 0x4 ADD PUSH2 0x3B7B SWAP1 PUSH2 0x4B35 JUMP JUMPDEST PUSH1 0x40 MLOAD DUP1 SWAP2 SUB SWAP1 REVERT JUMPDEST PUSH1 0xE PUSH0 SWAP1 SLOAD SWAP1 PUSH2 0x100 EXP SWAP1 DIV PUSH1 0xFF AND ISZERO PUSH2 0x3BD3 JUMPI PUSH1 0x40 MLOAD PUSH32 0x8C379A000000000000000000000000000000000000000000000000000000000 DUP2 MSTORE PUSH1 0x4 ADD PUSH2 0x3BCA SWAP1 PUSH2 0x5731 JUMP JUMPDEST PUSH1 0x40 MLOAD DUP1 SWAP2 SUB SWAP1 REVERT JUMPDEST PUSH0 PUSH1 0x9 PUSH0 DUP7 DUP2 MSTORE PUSH1 0x20 ADD SWAP1 DUP2 MSTORE PUSH1 0x20 ADD PUSH0 KECCAK256 SWAP1 POP DUP1 PUSH1 0x7 ADD PUSH1 0x14 SWAP1 SLOAD SWAP1 PUSH2 0x100 EXP SWAP1 DIV PUSH1 0xFF AND ISZERO PUSH2 0x3C39 JUMPI PUSH1 0x40 MLOAD PUSH32 0x8C379A000000000000000000000000000000000000000000000000000000000 DUP2 MSTORE PUSH1 0x4 ADD PUSH2 0x3C30 SWAP1 PUSH2 0x5C49 JUMP JUMPDEST PUSH1 0x40 MLOAD DUP1 SWAP2 SUB SWAP1 REVERT JUMPDEST PUSH0 PUSH20 0xFFFFFFFFFFFFFFFFFFFFFFFFFFFFFFFFFFFFFFFF AND DUP2 PUSH1 0x6 ADD PUSH0 SWAP1 SLOAD SWAP1 PUSH2 0x100 EXP SWAP1 DIV PUSH20 0xFFFFFFFFFFFFFFFFFFFFFFFFFFFFFFFFFFFFFFFF AND PUSH20 0xFFFFFFFFFFFFFFFFFFFFFFFFFFFFFFFFFFFFFFFF AND SUB PUSH2 0x3CCA JUMPI PUSH1 0x40 MLOAD PUSH32 0x8C379A000000000000000000000000000000000000000000000000000000000 DUP2 MSTORE PUSH1 0x4 ADD PUSH2 0x3CC1 SWAP1 PUSH2 0x5CD7 JUMP JUMPDEST PUSH1 0x40 MLOAD DUP1 SWAP2 SUB SWAP1 REVERT JUMPDEST DUP1 PUSH1 0x3 ADD SLOAD PUSH1 0x1 SLOAD GT PUSH2 0x3D12 JUMPI PUSH1 0x40 MLOAD PUSH32 0x8C379A000000000000000000000000000000000000000000000000000000000 DUP2 MSTORE PUSH1 0x4 ADD PUSH2 0x3D09 SWAP1 PUSH2 0x5D65 JUMP JUMPDEST PUSH1 0x40 MLOAD DUP1 SWAP2 SUB SWAP1 REVERT JUMPDEST PUSH1 0x1 DUP2 PUSH1 0x7 ADD PUSH1 0x15 PUSH2 0x100 EXP DUP2 SLOAD DUP2 PUSH1 0xFF MUL NOT AND SWAP1 DUP4 ISZERO ISZERO MUL OR SWAP1 SSTORE POP PUSH2 0x3D3C PUSH1 0xB PUSH1 0x5 DUP8 PUSH2 0x3FF6 JUMP JUMPDEST PUSH1 0xC DUP6 SWAP1 DUP1 PUSH1 0x1 DUP2 SLOAD ADD DUP1 DUP3 SSTORE DUP1 SWAP2 POP POP PUSH1 0x1 SWAP1 SUB SWAP1 PUSH0 MSTORE PUSH1 0x20 PUSH0 KECCAK256 ADD PUSH0 SWAP1 SWAP2 SWAP1 SWAP2 SWAP1 SWAP2 POP SSTORE PUSH0 DUP1 PUSH0 SWAP1 SLOAD SWAP1 PUSH2 0x100 EXP SWAP1 DIV PUSH20 0xFFFFFFFFFFFFFFFFFFFFFFFFFFFFFFFFFFFFFFFF AND PUSH20 0xFFFFFFFFFFFFFFFFFFFFFFFFFFFFFFFFFFFFFFFF AND PUSH4 0x4B94F50E PUSH1 0x40 MLOAD DUP2 PUSH4 0xFFFFFFFF AND PUSH1 0xE0 SHL DUP2 MSTORE PUSH1 0x4 ADD PUSH1 0x20 PUSH1 0x40 MLOAD DUP1 DUP4 SUB DUP2 DUP7 GAS STATICCALL ISZERO DUP1 ISZERO PUSH2 0x3DCC JUMPI RETURNDATASIZE PUSH0 DUP1 RETURNDATACOPY RETURNDATASIZE PUSH0 REVERT JUMPDEST POP POP POP POP PUSH1 0x40 MLOAD RETURNDATASIZE PUSH1 0x1F NOT PUSH1 0x1F DUP3 ADD AND DUP3 ADD DUP1 PUSH1 0x40 MSTORE POP DUP2 ADD SWAP1 PUSH2 0x3DF0 SWAP2 SWAP1 PUSH2 0x49F0 JUMP JUMPDEST DUP3 PUSH1 0x8 ADD SLOAD PUSH2 0x3DFF SWAP2 SWAP1 PUSH2 0x4C7C JUMP JUMPDEST SWAP1 POP DUP1 PUSH1 0x1 PUSH0 DUP3 DUP3 SLOAD PUSH2 0x3E12 SWAP2 SWAP1 PUSH2 0x5057 JUMP JUMPDEST SWAP3 POP POP DUP2 SWAP1 SSTORE POP DUP2 PUSH1 0x3 ADD SLOAD PUSH1 0x1 PUSH0 DUP3 DUP3 SLOAD PUSH2 0x3E2E SWAP2 SWAP1 PUSH2 0x4C49 JUMP JUMPDEST SWAP3 POP POP DUP2 SWAP1 SSTORE POP PUSH1 0x1 PUSH1 0xE PUSH0 PUSH2 0x100 EXP DUP2 SLOAD DUP2 PUSH1 0xFF MUL NOT AND SWAP1 DUP4 ISZERO ISZERO MUL OR SWAP1 SSTORE POP PUSH0 DUP3 PUSH1 0x6 ADD PUSH0 SWAP1 SLOAD SWAP1 PUSH2 0x100 EXP SWAP1 DIV PUSH20 0xFFFFFFFFFFFFFFFFFFFFFFFFFFFFFFFFFFFFFFFF AND PUSH20 0xFFFFFFFFFFFFFFFFFFFFFFFFFFFFFFFFFFFFFFFF AND DUP4 PUSH1 0x3 ADD SLOAD PUSH3 0x186A0 SWAP1 PUSH4 0x986CC311 PUSH1 0xE0 SHL DUP11 DUP8 PUSH1 0x4 ADD SLOAD DUP9 PUSH1 0x8 ADD SLOAD PUSH1 0x40 MLOAD PUSH1 0x24 ADD PUSH2 0x3EB9 SWAP4 SWAP3 SWAP2 SWAP1 PUSH2 0x574F JUMP JUMPDEST PUSH1 0x40 MLOAD PUSH1 0x20 DUP2 DUP4 SUB SUB DUP2 MSTORE SWAP1 PUSH1 0x40 MSTORE SWAP1 PUSH28 0xFFFFFFFFFFFFFFFFFFFFFFFFFFFFFFFFFFFFFFFFFFFFFFFFFFFFFFFF NOT AND PUSH1 0x20 DUP3 ADD DUP1 MLOAD PUSH28 0xFFFFFFFFFFFFFFFFFFFFFFFFFFFFFFFFFFFFFFFFFFFFFFFFFFFFFFFF DUP4 DUP2 DUP4 AND OR DUP4 MSTORE POP POP POP POP PUSH1 0x40 MLOAD PUSH2 0x3F23 SWAP2 SWAP1 PUSH2 0x57BE JUMP JUMPDEST PUSH0 PUSH1 0x40 MLOAD DUP1 DUP4 SUB DUP2 DUP6 DUP9 DUP9 CALL SWAP4 POP POP POP POP RETURNDATASIZE DUP1 PUSH0 DUP2 EQ PUSH2 0x3F5E JUMPI PUSH1 0x40 MLOAD SWAP2 POP PUSH1 0x1F NOT PUSH1 0x3F RETURNDATASIZE ADD AND DUP3 ADD PUSH1 0x40 MSTORE RETURNDATASIZE DUP3 MSTORE RETURNDATASIZE PUSH0 PUSH1 0x20 DUP5 ADD RETURNDATACOPY PUSH2 0x3F63 JUMP JUMPDEST PUSH1 0x60 SWAP2 POP JUMPDEST POP POP SWAP1 POP PUSH0 PUSH1 0xE PUSH0 PUSH2 0x100 EXP DUP2 SLOAD DUP2 PUSH1 0xFF MUL NOT AND SWAP1 DUP4 ISZERO ISZERO MUL OR SWAP1 SSTORE POP DUP1 PUSH2 0x3FC0 JUMPI PUSH1 0x40 MLOAD PUSH32 0x8C379A000000000000000000000000000000000000000000000000000000000 DUP2 MSTORE PUSH1 0x4 ADD PUSH2 0x3FB7 SWAP1 PUSH2 0x581E JUMP JUMPDEST PUSH1 0x40 MLOAD DUP1 SWAP2 SUB SWAP1 REVERT JUMPDEST DUP7 PUSH32 0x28EC9E38BA73636CEB2F6C1574136F83BD46284A3C74734B711BF45E12F8D929 PUSH1 0x40 MLOAD PUSH1 0x40 MLOAD DUP1 SWAP2 SUB SWAP1 LOG2 POP POP POP POP POP POP POP JUMP JUMPDEST PUSH0 DUP3 PUSH0 DUP4 DUP2 MSTORE PUSH1 0x20 ADD SWAP1 DUP2 MSTORE PUSH1 0x20 ADD PUSH0 KECCAK256 SLOAD SWAP1 POP PUSH0 PUSH1 0x1 DUP6 DUP1 SLOAD SWAP1 POP PUSH2 0x401C SWAP2 SWAP1 PUSH2 0x4C49 JUMP JUMPDEST SWAP1 POP DUP1 DUP3 EQ PUSH2 0x407B JUMPI PUSH0 DUP6 DUP3 DUP2 SLOAD DUP2 LT PUSH2 0x4039 JUMPI PUSH2 0x4038 PUSH2 0x4D25 JUMP JUMPDEST JUMPDEST SWAP1 PUSH0 MSTORE PUSH1 0x20 PUSH0 KECCAK256 ADD SLOAD SWAP1 POP DUP1 DUP7 DUP5 DUP2 SLOAD DUP2 LT PUSH2 0x4058 JUMPI PUSH2 0x4057 PUSH2 0x4D25 JUMP JUMPDEST JUMPDEST SWAP1 PUSH0 MSTORE PUSH1 0x20 PUSH0 KECCAK256 ADD DUP2 SWAP1 SSTORE POP DUP3 DUP6 PUSH0 DUP4 DUP2 MSTORE PUSH1 0x20 ADD SWAP1 DUP2 MSTORE PUSH1 0x20 ADD PUSH0 KECCAK256 DUP2 SWAP1 SSTORE POP POP JUMPDEST DUP5 DUP1 SLOAD DUP1 PUSH2 0x408C JUMPI PUSH2 0x408B PUSH2 0x4D52 JUMP JUMPDEST JUMPDEST PUSH1 0x1 SWAP1 SUB DUP2 DUP2 SWAP1 PUSH0 MSTORE PUSH1 0x20 PUSH0 KECCAK256 ADD PUSH0 SWAP1 SSTORE SWAP1 SSTORE DUP4 PUSH0 DUP5 DUP2 MSTORE PUSH1 0x20 ADD SWAP1 DUP2 MSTORE PUSH1 0x20 ADD PUSH0 KECCAK256 PUSH0 SWAP1 SSTORE POP POP POP POP POP JUMP JUMPDEST PUSH1 0x40 MLOAD DUP1 PUSH2 0x1A0 ADD PUSH1 0x40 MSTORE DUP1 PUSH0 DUP2 MSTORE PUSH1 0x20 ADD PUSH1 0x60 DUP2 MSTORE PUSH1 0x20 ADD PUSH1 0x60 DUP2 MSTORE PUSH1 0x20 ADD PUSH0 DUP2 MSTORE PUSH1 0x20 ADD PUSH0 DUP2 MSTORE PUSH1 0x20 ADD PUSH0 DUP2 MSTORE PUSH1 0x20 ADD PUSH0 PUSH20 0xFFFFFFFFFFFFFFFFFFFFFFFFFFFFFFFFFFFFFFFF AND DUP2 MSTORE PUSH1 0x20 ADD PUSH0 PUSH20 0xFFFFFFFFFFFFFFFFFFFFFFFFFFFFFFFFFFFFFFFF AND DUP2 MSTORE PUSH1 0x20 ADD PUSH0 ISZERO ISZERO DUP2 MSTORE PUSH1 0x20 ADD PUSH0 ISZERO ISZERO DUP2 MSTORE PUSH1 0x20 ADD PUSH0 ISZERO ISZERO DUP2 MSTORE PUSH1 0x20 ADD PUSH0 DUP2 MSTORE PUSH1 0x20 ADD PUSH1 0x60 DUP2 MSTORE POP SWAP1 JUMP JUMPDEST POP DUP1 SLOAD PUSH0 DUP3 SSTORE SWAP1 PUSH0 MSTORE PUSH1 0x20 PUSH0 KECCAK256 SWAP1 DUP2 ADD SWAP1 PUSH2 0x4164 SWAP2 SWAP1 PUSH2 0x41B2 JUMP JUMPDEST POP JUMP JUMPDEST DUP3 DUP1 SLOAD DUP3 DUP3 SSTORE SWAP1 PUSH0 MSTORE PUSH1 0x20 PUSH0 KECCAK256 SWAP1 DUP2 ADD SWAP3 DUP3 ISZERO PUSH2 0x41A1 JUMPI SWAP2 PUSH1 0x20 MUL DUP3 ADD JUMPDEST DUP3 DUP2 GT ISZERO PUSH2 0x41A0 JUMPI DUP3 MLOAD DUP3 SSTORE SWAP2 PUSH1 0x20 ADD SWAP2 SWAP1 PUSH1 0x1 ADD SWAP1 PUSH2 0x4185 JUMP JUMPDEST JUMPDEST POP SWAP1 POP PUSH2 0x41AE SWAP2 SWAP1 PUSH2 0x41B2 JUMP JUMPDEST POP SWAP1 JUMP JUMPDEST JUMPDEST DUP1 DUP3 GT ISZERO PUSH2 0x41C9 JUMPI PUSH0 DUP2 PUSH0 SWAP1 SSTORE POP PUSH1 0x1 ADD PUSH2 0x41B3 JUMP JUMPDEST POP SWAP1 JUMP JUMPDEST PUSH0 DUP2 MLOAD SWAP1 POP SWAP2 SWAP1 POP JUMP JUMPDEST PUSH0 DUP3 DUP3 MSTORE PUSH1 0x20 DUP3 ADD SWAP1 POP SWAP3 SWAP2 POP POP JUMP JUMPDEST PUSH0 DUP2 SWAP1 POP PUSH1 0x20 DUP3 ADD SWAP1 POP SWAP2 SWAP1 POP JUMP JUMPDEST PUSH0 DUP2 SWAP1 POP SWAP2 SWAP1 POP JUMP JUMPDEST PUSH2 0x4208 DUP2 PUSH2 0x41F6 JUMP JUMPDEST DUP3 MSTORE POP POP JUMP JUMPDEST PUSH0 PUSH2 0x4219 DUP4 DUP4 PUSH2 0x41FF JUMP JUMPDEST PUSH1 0x20 DUP4 ADD SWAP1 POP SWAP3 SWAP2 POP POP JUMP JUMPDEST PUSH0 PUSH1 0x20 DUP3 ADD SWAP1 POP SWAP2 SWAP1 POP JUMP JUMPDEST PUSH0 PUSH2 0x423B DUP3 PUSH2 0x41CD JUMP JUMPDEST PUSH2 0x4245 DUP2 DUP6 PUSH2 0x41D7 JUMP JUMPDEST SWAP4 POP PUSH2 0x4250 DUP4 PUSH2 0x41E7 JUMP JUMPDEST DUP1 PUSH0 JUMPDEST DUP4 DUP2 LT ISZERO PUSH2 0x4280 JUMPI DUP2 MLOAD PUSH2 0x4267 DUP9 DUP3 PUSH2 0x420E JUMP JUMPDEST SWAP8 POP PUSH2 0x4272 DUP4 PUSH2 0x4225 JUMP JUMPDEST SWAP3 POP POP PUSH1 0x1 DUP2 ADD SWAP1 POP PUSH2 0x4253 JUMP JUMPDEST POP DUP6 SWAP4 POP POP POP POP SWAP3 SWAP2 POP POP JUMP JUMPDEST PUSH0 PUSH1 0x20 DUP3 ADD SWAP1 POP DUP2 DUP2 SUB PUSH0 DUP4 ADD MSTORE PUSH2 0x42A5 DUP2 DUP5 PUSH2 0x4231 JUMP JUMPDEST SWAP1 POP SWAP3 SWAP2 POP POP JUMP JUMPDEST PUSH0 PUSH20 0xFFFFFFFFFFFFFFFFFFFFFFFFFFFFFFFFFFFFFFFF DUP3 AND SWAP1 POP SWAP2 SWAP1 POP JUMP JUMPDEST PUSH0 DUP2 SWAP1 POP SWAP2 SWAP1 POP JUMP JUMPDEST PUSH0 PUSH2 0x42EF PUSH2 0x42EA PUSH2 0x42E5 DUP5 PUSH2 0x42AD JUMP JUMPDEST PUSH2 0x42CC JUMP JUMPDEST PUSH2 0x42AD JUMP JUMPDEST SWAP1 POP SWAP2 SWAP1 POP JUMP JUMPDEST PUSH0 PUSH2 0x4300 DUP3 PUSH2 0x42D5 JUMP JUMPDEST SWAP1 POP SWAP2 SWAP1 POP JUMP JUMPDEST PUSH0 PUSH2 0x4311 DUP3 PUSH2 0x42F6 JUMP JUMPDEST SWAP1 POP SWAP2 SWAP1 POP JUMP JUMPDEST PUSH2 0x4321 DUP2 PUSH2 0x4307 JUMP JUMPDEST DUP3 MSTORE POP POP JUMP JUMPDEST PUSH0 PUSH1 0x20 DUP3 ADD SWAP1 POP PUSH2 0x433A PUSH0 DUP4 ADD DUP5 PUSH2 0x4318 JUMP JUMPDEST SWAP3 SWAP2 POP POP JUMP JUMPDEST PUSH0 DUP1 REVERT JUMPDEST PUSH0 DUP1 REVERT JUMPDEST PUSH0 PUSH2 0x4352 DUP3 PUSH2 0x42AD JUMP JUMPDEST SWAP1 POP SWAP2 SWAP1 POP JUMP JUMPDEST PUSH2 0x4362 DUP2 PUSH2 0x4348 JUMP JUMPDEST DUP2 EQ PUSH2 0x436C JUMPI PUSH0 DUP1 REVERT JUMPDEST POP JUMP JUMPDEST PUSH0 DUP2 CALLDATALOAD SWAP1 POP PUSH2 0x437D DUP2 PUSH2 0x4359 JUMP JUMPDEST SWAP3 SWAP2 POP POP JUMP JUMPDEST PUSH0 PUSH1 0x20 DUP3 DUP5 SUB SLT ISZERO PUSH2 0x4398 JUMPI PUSH2 0x4397 PUSH2 0x4340 JUMP JUMPDEST JUMPDEST PUSH0 PUSH2 0x43A5 DUP5 DUP3 DUP6 ADD PUSH2 0x436F JUMP JUMPDEST SWAP2 POP POP SWAP3 SWAP2 POP POP JUMP JUMPDEST PUSH2 0x43B7 DUP2 PUSH2 0x41F6 JUMP JUMPDEST DUP3 MSTORE POP POP JUMP JUMPDEST PUSH0 PUSH1 0x20 DUP3 ADD SWAP1 POP PUSH2 0x43D0 PUSH0 DUP4 ADD DUP5 PUSH2 0x43AE JUMP JUMPDEST SWAP3 SWAP2 POP POP JUMP JUMPDEST PUSH2 0x43DF DUP2 PUSH2 0x41F6 JUMP JUMPDEST DUP2 EQ PUSH2 0x43E9 JUMPI PUSH0 DUP1 REVERT JUMPDEST POP JUMP JUMPDEST PUSH0 DUP2 CALLDATALOAD SWAP1 POP PUSH2 0x43FA DUP2 PUSH2 0x43D6 JUMP JUMPDEST SWAP3 SWAP2 POP POP JUMP JUMPDEST PUSH0 DUP1 PUSH1 0x40 DUP4 DUP6 SUB SLT ISZERO PUSH2 0x4416 JUMPI PUSH2 0x4415 PUSH2 0x4340 JUMP JUMPDEST JUMPDEST PUSH0 PUSH2 0x4423 DUP6 DUP3 DUP7 ADD PUSH2 0x43EC JUMP JUMPDEST SWAP3 POP POP PUSH1 0x20 PUSH2 0x4434 DUP6 DUP3 DUP7 ADD PUSH2 0x43EC JUMP JUMPDEST SWAP2 POP POP SWAP3 POP SWAP3 SWAP1 POP JUMP JUMPDEST PUSH0 PUSH1 0x20 DUP3 DUP5 SUB SLT ISZERO PUSH2 0x4453 JUMPI PUSH2 0x4452 PUSH2 0x4340 JUMP JUMPDEST JUMPDEST PUSH0 PUSH2 0x4460 DUP5 DUP3 DUP6 ADD PUSH2 0x43EC JUMP JUMPDEST SWAP2 POP POP SWAP3 SWAP2 POP POP JUMP JUMPDEST PUSH0 DUP1 REVERT JUMPDEST PUSH0 DUP1 REVERT JUMPDEST PUSH0 DUP1 REVERT JUMPDEST PUSH0 DUP1 DUP4 PUSH1 0x1F DUP5 ADD SLT PUSH2 0x448A JUMPI PUSH2 0x4489 PUSH2 0x4469 JUMP JUMPDEST JUMPDEST DUP3 CALLDATALOAD SWAP1 POP PUSH8 0xFFFFFFFFFFFFFFFF DUP2 GT ISZERO PUSH2 0x44A7 JUMPI PUSH2 0x44A6 PUSH2 0x446D JUMP JUMPDEST JUMPDEST PUSH1 0x20 DUP4 ADD SWAP2 POP DUP4 PUSH1 0x1 DUP3 MUL DUP4 ADD GT ISZERO PUSH2 0x44C3 JUMPI PUSH2 0x44C2 PUSH2 0x4471 JUMP JUMPDEST JUMPDEST SWAP3 POP SWAP3 SWAP1 POP JUMP JUMPDEST PUSH0 DUP1 PUSH0 DUP1 PUSH0 DUP1 PUSH1 0x80 DUP8 DUP10 SUB SLT ISZERO PUSH2 0x44E4 JUMPI PUSH2 0x44E3 PUSH2 0x4340 JUMP JUMPDEST JUMPDEST PUSH0 DUP8 ADD CALLDATALOAD PUSH8 0xFFFFFFFFFFFFFFFF DUP2 GT ISZERO PUSH2 0x4501 JUMPI PUSH2 0x4500 PUSH2 0x4344 JUMP JUMPDEST JUMPDEST PUSH2 0x450D DUP10 DUP3 DUP11 ADD PUSH2 0x4475 JUMP JUMPDEST SWAP7 POP SWAP7 POP POP PUSH1 0x20 DUP8 ADD CALLDATALOAD PUSH8 0xFFFFFFFFFFFFFFFF DUP2 GT ISZERO PUSH2 0x4530 JUMPI PUSH2 0x452F PUSH2 0x4344 JUMP JUMPDEST JUMPDEST PUSH2 0x453C DUP10 DUP3 DUP11 ADD PUSH2 0x4475 JUMP JUMPDEST SWAP5 POP SWAP5 POP POP PUSH1 0x40 PUSH2 0x454F DUP10 DUP3 DUP11 ADD PUSH2 0x43EC JUMP JUMPDEST SWAP3 POP POP PUSH1 0x60 PUSH2 0x4560 DUP10 DUP3 DUP11 ADD PUSH2 0x436F JUMP JUMPDEST SWAP2 POP POP SWAP3 SWAP6 POP SWAP3 SWAP6 POP SWAP3 SWAP6 JUMP JUMPDEST PUSH0 DUP2 MLOAD SWAP1 POP SWAP2 SWAP1 POP JUMP JUMPDEST PUSH0 DUP3 DUP3 MSTORE PUSH1 0x20 DUP3 ADD SWAP1 POP SWAP3 SWAP2 POP POP JUMP JUMPDEST DUP3 DUP2 DUP4 MCOPY PUSH0 DUP4 DUP4 ADD MSTORE POP POP POP JUMP JUMPDEST PUSH0 PUSH1 0x1F NOT PUSH1 0x1F DUP4 ADD AND SWAP1 POP SWAP2 SWAP1 POP JUMP JUMPDEST PUSH0 PUSH2 0x45AF DUP3 PUSH2 0x456D JUMP JUMPDEST PUSH2 0x45B9 DUP2 DUP6 PUSH2 0x4577 JUMP JUMPDEST SWAP4 POP PUSH2 0x45C9 DUP2 DUP6 PUSH1 0x20 DUP7 ADD PUSH2 0x4587 JUMP JUMPDEST PUSH2 0x45D2 DUP2 PUSH2 0x4595 JUMP JUMPDEST DUP5 ADD SWAP2 POP POP SWAP3 SWAP2 POP POP JUMP JUMPDEST PUSH2 0x45E6 DUP2 PUSH2 0x4348 JUMP JUMPDEST DUP3 MSTORE POP POP JUMP JUMPDEST PUSH0 DUP2 ISZERO ISZERO SWAP1 POP SWAP2 SWAP1 POP JUMP JUMPDEST PUSH2 0x4600 DUP2 PUSH2 0x45EC JUMP JUMPDEST DUP3 MSTORE POP POP JUMP JUMPDEST PUSH0 DUP2 MLOAD SWAP1 POP SWAP2 SWAP1 POP JUMP JUMPDEST PUSH0 DUP3 DUP3 MSTORE PUSH1 0x20 DUP3 ADD SWAP1 POP SWAP3 SWAP2 POP POP JUMP JUMPDEST PUSH0 DUP2 SWAP1 POP PUSH1 0x20 DUP3 ADD SWAP1 POP SWAP2 SWAP1 POP JUMP JUMPDEST PUSH0 PUSH2 0x463A DUP4 DUP4 PUSH2 0x45DD JUMP JUMPDEST PUSH1 0x20 DUP4 ADD SWAP1 POP SWAP3 SWAP2 POP POP JUMP JUMPDEST PUSH0 PUSH1 0x20 DUP3 ADD SWAP1 POP SWAP2 SWAP1 POP JUMP JUMPDEST PUSH0 PUSH2 0x465C DUP3 PUSH2 0x4606 JUMP JUMPDEST PUSH2 0x4666 DUP2 DUP6 PUSH2 0x4610 JUMP JUMPDEST SWAP4 POP PUSH2 0x4671 DUP4 PUSH2 0x4620 JUMP JUMPDEST DUP1 PUSH0 JUMPDEST DUP4 DUP2 LT ISZERO PUSH2 0x46A1 JUMPI DUP2 MLOAD PUSH2 0x4688 DUP9 DUP3 PUSH2 0x462F JUMP JUMPDEST SWAP8 POP PUSH2 0x4693 DUP4 PUSH2 0x4646 JUMP JUMPDEST SWAP3 POP POP PUSH1 0x1 DUP2 ADD SWAP1 POP PUSH2 0x4674 JUMP JUMPDEST POP DUP6 SWAP4 POP POP POP POP SWAP3 SWAP2 POP POP JUMP JUMPDEST PUSH0 PUSH2 0x1A0 DUP4 ADD PUSH0 DUP4 ADD MLOAD PUSH2 0x46C4 PUSH0 DUP7 ADD DUP3 PUSH2 0x41FF JUMP JUMPDEST POP PUSH1 0x20 DUP4 ADD MLOAD DUP5 DUP3 SUB PUSH1 0x20 DUP7 ADD MSTORE PUSH2 0x46DC DUP3 DUP3 PUSH2 0x45A5 JUMP JUMPDEST SWAP2 POP POP PUSH1 0x40 DUP4 ADD MLOAD DUP5 DUP3 SUB PUSH1 0x40 DUP7 ADD MSTORE PUSH2 0x46F6 DUP3 DUP3 PUSH2 0x45A5 JUMP JUMPDEST SWAP2 POP POP PUSH1 0x60 DUP4 ADD MLOAD PUSH2 0x470B PUSH1 0x60 DUP7 ADD DUP3 PUSH2 0x41FF JUMP JUMPDEST POP PUSH1 0x80 DUP4 ADD MLOAD PUSH2 0x471E PUSH1 0x80 DUP7 ADD DUP3 PUSH2 0x41FF JUMP JUMPDEST POP PUSH1 0xA0 DUP4 ADD MLOAD PUSH2 0x4731 PUSH1 0xA0 DUP7 ADD DUP3 PUSH2 0x41FF JUMP JUMPDEST POP PUSH1 0xC0 DUP4 ADD MLOAD PUSH2 0x4744 PUSH1 0xC0 DUP7 ADD DUP3 PUSH2 0x45DD JUMP JUMPDEST POP PUSH1 0xE0 DUP4 ADD MLOAD PUSH2 0x4757 PUSH1 0xE0 DUP7 ADD DUP3 PUSH2 0x45DD JUMP JUMPDEST POP PUSH2 0x100 DUP4 ADD MLOAD PUSH2 0x476C PUSH2 0x100 DUP7 ADD DUP3 PUSH2 0x45F7 JUMP JUMPDEST POP PUSH2 0x120 DUP4 ADD MLOAD PUSH2 0x4781 PUSH2 0x120 DUP7 ADD DUP3 PUSH2 0x45F7 JUMP JUMPDEST POP PUSH2 0x140 DUP4 ADD MLOAD PUSH2 0x4796 PUSH2 0x140 DUP7 ADD DUP3 PUSH2 0x45F7 JUMP JUMPDEST POP PUSH2 0x160 DUP4 ADD MLOAD PUSH2 0x47AB PUSH2 0x160 DUP7 ADD DUP3 PUSH2 0x41FF JUMP JUMPDEST POP PUSH2 0x180 DUP4 ADD MLOAD DUP5 DUP3 SUB PUSH2 0x180 DUP7 ADD MSTORE PUSH2 0x47C5 DUP3 DUP3 PUSH2 0x4652 JUMP JUMPDEST SWAP2 POP POP DUP1 SWAP2 POP POP SWAP3 SWAP2 POP POP JUMP JUMPDEST PUSH0 PUSH1 0x20 DUP3 ADD SWAP1 POP DUP2 DUP2 SUB PUSH0 DUP4 ADD MSTORE PUSH2 0x47EA DUP2 DUP5 PUSH2 0x46AE JUMP JUMPDEST SWAP1 POP SWAP3 SWAP2 POP POP JUMP JUMPDEST PUSH0 DUP3 DUP3 MSTORE PUSH1 0x20 DUP3 ADD SWAP1 POP SWAP3 SWAP2 POP POP JUMP JUMPDEST PUSH32 0x4C6120766F746163696F6E207469656E65207175652065737461722061626965 PUSH0 DUP3 ADD MSTORE PUSH32 0x7274610000000000000000000000000000000000000000000000000000000000 PUSH1 0x20 DUP3 ADD MSTORE POP JUMP JUMPDEST PUSH0 PUSH2 0x485C PUSH1 0x23 DUP4 PUSH2 0x47F2 JUMP JUMPDEST SWAP2 POP PUSH2 0x4867 DUP3 PUSH2 0x4802 JUMP JUMPDEST PUSH1 0x40 DUP3 ADD SWAP1 POP SWAP2 SWAP1 POP JUMP JUMPDEST PUSH0 PUSH1 0x20 DUP3 ADD SWAP1 POP DUP2 DUP2 SUB PUSH0 DUP4 ADD MSTORE PUSH2 0x4889 DUP2 PUSH2 0x4850 JUMP JUMPDEST SWAP1 POP SWAP2 SWAP1 POP JUMP JUMPDEST PUSH32 0x4465626573206861626572746520696E73637269746F00000000000000000000 PUSH0 DUP3 ADD MSTORE POP JUMP JUMPDEST PUSH0 PUSH2 0x48C4 PUSH1 0x16 DUP4 PUSH2 0x47F2 JUMP JUMPDEST SWAP2 POP PUSH2 0x48CF DUP3 PUSH2 0x4890 JUMP JUMPDEST PUSH1 0x20 DUP3 ADD SWAP1 POP SWAP2 SWAP1 POP JUMP JUMPDEST PUSH0 PUSH1 0x20 DUP3 ADD SWAP1 POP DUP2 DUP2 SUB PUSH0 DUP4 ADD MSTORE PUSH2 0x48F1 DUP2 PUSH2 0x48B8 JUMP JUMPDEST SWAP1 POP SWAP2 SWAP1 POP JUMP JUMPDEST PUSH32 0x4E487B7100000000000000000000000000000000000000000000000000000000 PUSH0 MSTORE PUSH1 0x11 PUSH1 0x4 MSTORE PUSH1 0x24 PUSH0 REVERT JUMPDEST PUSH0 PUSH2 0x492F DUP3 PUSH2 0x41F6 JUMP JUMPDEST SWAP2 POP PUSH0 DUP3 SUB PUSH2 0x4941 JUMPI PUSH2 0x4940 PUSH2 0x48F8 JUMP JUMPDEST JUMPDEST PUSH1 0x1 DUP3 SUB SWAP1 POP SWAP2 SWAP1 POP JUMP JUMPDEST PUSH32 0x4661696C00000000000000000000000000000000000000000000000000000000 PUSH0 DUP3 ADD MSTORE POP JUMP JUMPDEST PUSH0 PUSH2 0x4980 PUSH1 0x4 DUP4 PUSH2 0x47F2 JUMP JUMPDEST SWAP2 POP PUSH2 0x498B DUP3 PUSH2 0x494C JUMP JUMPDEST PUSH1 0x20 DUP3 ADD SWAP1 POP SWAP2 SWAP1 POP JUMP JUMPDEST PUSH0 PUSH1 0x20 DUP3 ADD SWAP1 POP DUP2 DUP2 SUB PUSH0 DUP4 ADD MSTORE PUSH2 0x49AD DUP2 PUSH2 0x4974 JUMP JUMPDEST SWAP1 POP SWAP2 SWAP1 POP JUMP JUMPDEST PUSH2 0x49BD DUP2 PUSH2 0x4348 JUMP JUMPDEST DUP3 MSTORE POP POP JUMP JUMPDEST PUSH0 PUSH1 0x20 DUP3 ADD SWAP1 POP PUSH2 0x49D6 PUSH0 DUP4 ADD DUP5 PUSH2 0x49B4 JUMP JUMPDEST SWAP3 SWAP2 POP POP JUMP JUMPDEST PUSH0 DUP2 MLOAD SWAP1 POP PUSH2 0x49EA DUP2 PUSH2 0x43D6 JUMP JUMPDEST SWAP3 SWAP2 POP POP JUMP JUMPDEST PUSH0 PUSH1 0x20 DUP3 DUP5 SUB SLT ISZERO PUSH2 0x4A05 JUMPI PUSH2 0x4A04 PUSH2 0x4340 JUMP JUMPDEST JUMPDEST PUSH0 PUSH2 0x4A12 DUP5 DUP3 DUP6 ADD PUSH2 0x49DC JUMP JUMPDEST SWAP2 POP POP SWAP3 SWAP2 POP POP JUMP JUMPDEST PUSH32 0x4C612070726F707565737461206E6F2065786973746500000000000000000000 PUSH0 DUP3 ADD MSTORE POP JUMP JUMPDEST PUSH0 PUSH2 0x4A4F PUSH1 0x16 DUP4 PUSH2 0x47F2 JUMP JUMPDEST SWAP2 POP PUSH2 0x4A5A DUP3 PUSH2 0x4A1B JUMP JUMPDEST PUSH1 0x20 DUP3 ADD SWAP1 POP SWAP2 SWAP1 POP JUMP JUMPDEST PUSH0 PUSH1 0x20 DUP3 ADD SWAP1 POP DUP2 DUP2 SUB PUSH0 DUP4 ADD MSTORE PUSH2 0x4A7C DUP2 PUSH2 0x4A43 JUMP JUMPDEST SWAP1 POP SWAP2 SWAP1 POP JUMP JUMPDEST PUSH32 0x70726F7075657374612079612063616E63656C61646100000000000000000000 PUSH0 DUP3 ADD MSTORE POP JUMP JUMPDEST PUSH0 PUSH2 0x4AB7 PUSH1 0x16 DUP4 PUSH2 0x47F2 JUMP JUMPDEST SWAP2 POP PUSH2 0x4AC2 DUP3 PUSH2 0x4A83 JUMP JUMPDEST PUSH1 0x20 DUP3 ADD SWAP1 POP SWAP2 SWAP1 POP JUMP JUMPDEST PUSH0 PUSH1 0x20 DUP3 ADD SWAP1 POP DUP2 DUP2 SUB PUSH0 DUP4 ADD MSTORE PUSH2 0x4AE4 DUP2 PUSH2 0x4AAB JUMP JUMPDEST SWAP1 POP SWAP2 SWAP1 POP JUMP JUMPDEST PUSH32 0x4C612070726F707565737461207961206861207369646F206170726F62616461 PUSH0 DUP3 ADD MSTORE POP JUMP JUMPDEST PUSH0 PUSH2 0x4B1F PUSH1 0x20 DUP4 PUSH2 0x47F2 JUMP JUMPDEST SWAP2 POP PUSH2 0x4B2A DUP3 PUSH2 0x4AEB JUMP JUMPDEST PUSH1 0x20 DUP3 ADD SWAP1 POP SWAP2 SWAP1 POP JUMP JUMPDEST PUSH0 PUSH1 0x20 DUP3 ADD SWAP1 POP DUP2 DUP2 SUB PUSH0 DUP4 ADD MSTORE PUSH2 0x4B4C DUP2 PUSH2 0x4B13 JUMP JUMPDEST SWAP1 POP SWAP2 SWAP1 POP JUMP JUMPDEST PUSH32 0x4E656365736974617320756E20766F746F20616C206D656E6F732E0000000000 PUSH0 DUP3 ADD MSTORE POP JUMP JUMPDEST PUSH0 PUSH2 0x4B87 PUSH1 0x1B DUP4 PUSH2 0x47F2 JUMP JUMPDEST SWAP2 POP PUSH2 0x4B92 DUP3 PUSH2 0x4B53 JUMP JUMPDEST PUSH1 0x20 DUP3 ADD SWAP1 POP SWAP2 SWAP1 POP JUMP JUMPDEST PUSH0 PUSH1 0x20 DUP3 ADD SWAP1 POP DUP2 DUP2 SUB PUSH0 DUP4 ADD MSTORE PUSH2 0x4BB4 DUP2 PUSH2 0x4B7B JUMP JUMPDEST SWAP1 POP SWAP2 SWAP1 POP JUMP JUMPDEST PUSH32 0x457374617320696E74656E74616E646F2072657469726172206D617320766F74 PUSH0 DUP3 ADD MSTORE PUSH32 0x6F73000000000000000000000000000000000000000000000000000000000000 PUSH1 0x20 DUP3 ADD MSTORE POP JUMP JUMPDEST PUSH0 PUSH2 0x4C15 PUSH1 0x22 DUP4 PUSH2 0x47F2 JUMP JUMPDEST SWAP2 POP PUSH2 0x4C20 DUP3 PUSH2 0x4BBB JUMP JUMPDEST PUSH1 0x40 DUP3 ADD SWAP1 POP SWAP2 SWAP1 POP JUMP JUMPDEST PUSH0 PUSH1 0x20 DUP3 ADD SWAP1 POP DUP2 DUP2 SUB PUSH0 DUP4 ADD MSTORE PUSH2 0x4C42 DUP2 PUSH2 0x4C09 JUMP JUMPDEST SWAP1 POP SWAP2 SWAP1 POP JUMP JUMPDEST PUSH0 PUSH2 0x4C53 DUP3 PUSH2 0x41F6 JUMP JUMPDEST SWAP2 POP PUSH2 0x4C5E DUP4 PUSH2 0x41F6 JUMP JUMPDEST SWAP3 POP DUP3 DUP3 SUB SWAP1 POP DUP2 DUP2 GT ISZERO PUSH2 0x4C76 JUMPI PUSH2 0x4C75 PUSH2 0x48F8 JUMP JUMPDEST JUMPDEST SWAP3 SWAP2 POP POP JUMP JUMPDEST PUSH0 PUSH2 0x4C86 DUP3 PUSH2 0x41F6 JUMP JUMPDEST SWAP2 POP PUSH2 0x4C91 DUP4 PUSH2 0x41F6 JUMP JUMPDEST SWAP3 POP DUP3 DUP3 MUL PUSH2 0x4C9F DUP2 PUSH2 0x41F6 JUMP JUMPDEST SWAP2 POP DUP3 DUP3 DIV DUP5 EQ DUP4 ISZERO OR PUSH2 0x4CB6 JUMPI PUSH2 0x4CB5 PUSH2 0x48F8 JUMP JUMPDEST JUMPDEST POP SWAP3 SWAP2 POP POP JUMP JUMPDEST PUSH32 0x4E6F207365207075656465207265746972617200000000000000000000000000 PUSH0 DUP3 ADD MSTORE POP JUMP JUMPDEST PUSH0 PUSH2 0x4CF1 PUSH1 0x13 DUP4 PUSH2 0x47F2 JUMP JUMPDEST SWAP2 POP PUSH2 0x4CFC DUP3 PUSH2 0x4CBD JUMP JUMPDEST PUSH1 0x20 DUP3 ADD SWAP1 POP SWAP2 SWAP1 POP JUMP JUMPDEST PUSH0 PUSH1 0x20 DUP3 ADD SWAP1 POP DUP2 DUP2 SUB PUSH0 DUP4 ADD MSTORE PUSH2 0x4D1E DUP2 PUSH2 0x4CE5 JUMP JUMPDEST SWAP1 POP SWAP2 SWAP1 POP JUMP JUMPDEST PUSH32 0x4E487B7100000000000000000000000000000000000000000000000000000000 PUSH0 MSTORE PUSH1 0x32 PUSH1 0x4 MSTORE PUSH1 0x24 PUSH0 REVERT JUMPDEST PUSH32 0x4E487B7100000000000000000000000000000000000000000000000000000000 PUSH0 MSTORE PUSH1 0x31 PUSH1 0x4 MSTORE PUSH1 0x24 PUSH0 REVERT JUMPDEST PUSH32 0x626C6F71756561646F0000000000000000000000000000000000000000000000 PUSH0 DUP3 ADD MSTORE POP JUMP JUMPDEST PUSH0 PUSH2 0x4DB3 PUSH1 0x9 DUP4 PUSH2 0x47F2 JUMP JUMPDEST SWAP2 POP PUSH2 0x4DBE DUP3 PUSH2 0x4D7F JUMP JUMPDEST PUSH1 0x20 DUP3 ADD SWAP1 POP SWAP2 SWAP1 POP JUMP JUMPDEST PUSH0 PUSH1 0x20 DUP3 ADD SWAP1 POP DUP2 DUP2 SUB PUSH0 DUP4 ADD MSTORE PUSH2 0x4DE0 DUP2 PUSH2 0x4DA7 JUMP JUMPDEST SWAP1 POP SWAP2 SWAP1 POP JUMP JUMPDEST PUSH32 0x63616E746964616420696E666572696F72206120310000000000000000000000 PUSH0 DUP3 ADD MSTORE POP JUMP JUMPDEST PUSH0 PUSH2 0x4E1B PUSH1 0x15 DUP4 PUSH2 0x47F2 JUMP JUMPDEST SWAP2 POP PUSH2 0x4E26 DUP3 PUSH2 0x4DE7 JUMP JUMPDEST PUSH1 0x20 DUP3 ADD SWAP1 POP SWAP2 SWAP1 POP JUMP JUMPDEST PUSH0 PUSH1 0x20 DUP3 ADD SWAP1 POP DUP2 DUP2 SUB PUSH0 DUP4 ADD MSTORE PUSH2 0x4E48 DUP2 PUSH2 0x4E0F JUMP JUMPDEST SWAP1 POP SWAP2 SWAP1 POP JUMP JUMPDEST PUSH32 0x4E6F207469656E657320746F6B656E7320737566696369656E74657300000000 PUSH0 DUP3 ADD MSTORE POP JUMP JUMPDEST PUSH0 PUSH2 0x4E83 PUSH1 0x1C DUP4 PUSH2 0x47F2 JUMP JUMPDEST SWAP2 POP PUSH2 0x4E8E DUP3 PUSH2 0x4E4F JUMP JUMPDEST PUSH1 0x20 DUP3 ADD SWAP1 POP SWAP2 SWAP1 POP JUMP JUMPDEST PUSH0 PUSH1 0x20 DUP3 ADD SWAP1 POP DUP2 DUP2 SUB PUSH0 DUP4 ADD MSTORE PUSH2 0x4EB0 DUP2 PUSH2 0x4E77 JUMP JUMPDEST SWAP1 POP SWAP2 SWAP1 POP JUMP JUMPDEST PUSH32 0x456C20636F6E747261746F206E6F207469656E65207265637572736F73000000 PUSH0 DUP3 ADD MSTORE POP JUMP JUMPDEST PUSH0 PUSH2 0x4EEB PUSH1 0x1D DUP4 PUSH2 0x47F2 JUMP JUMPDEST SWAP2 POP PUSH2 0x4EF6 DUP3 PUSH2 0x4EB7 JUMP JUMPDEST PUSH1 0x20 DUP3 ADD SWAP1 POP SWAP2 SWAP1 POP JUMP JUMPDEST PUSH0 PUSH1 0x20 DUP3 ADD SWAP1 POP DUP2 DUP2 SUB PUSH0 DUP4 ADD MSTORE PUSH2 0x4F18 DUP2 PUSH2 0x4EDF JUMP JUMPDEST SWAP1 POP SWAP2 SWAP1 POP JUMP JUMPDEST PUSH0 PUSH1 0x40 DUP3 ADD SWAP1 POP PUSH2 0x4F32 PUSH0 DUP4 ADD DUP6 PUSH2 0x49B4 JUMP JUMPDEST PUSH2 0x4F3F PUSH1 0x20 DUP4 ADD DUP5 PUSH2 0x43AE JUMP JUMPDEST SWAP4 SWAP3 POP POP POP JUMP JUMPDEST PUSH0 DUP2 SWAP1 POP SWAP3 SWAP2 POP POP JUMP JUMPDEST POP JUMP JUMPDEST PUSH0 PUSH2 0x4F5E PUSH0 DUP4 PUSH2 0x4F46 JUMP JUMPDEST SWAP2 POP PUSH2 0x4F69 DUP3 PUSH2 0x4F50 JUMP JUMPDEST PUSH0 DUP3 ADD SWAP1 POP SWAP2 SWAP1 POP JUMP JUMPDEST PUSH0 PUSH2 0x4F7D DUP3 PUSH2 0x4F53 JUMP JUMPDEST SWAP2 POP DUP2 SWAP1 POP SWAP2 SWAP1 POP JUMP JUMPDEST PUSH32 0x4C61207472616E73666572656E6369612066616C6C6F00000000000000000000 PUSH0 DUP3 ADD MSTORE POP JUMP JUMPDEST PUSH0 PUSH2 0x4FBB PUSH1 0x16 DUP4 PUSH2 0x47F2 JUMP JUMPDEST SWAP2 POP PUSH2 0x4FC6 DUP3 PUSH2 0x4F87 JUMP JUMPDEST PUSH1 0x20 DUP3 ADD SWAP1 POP SWAP2 SWAP1 POP JUMP JUMPDEST PUSH0 PUSH1 0x20 DUP3 ADD SWAP1 POP DUP2 DUP2 SUB PUSH0 DUP4 ADD MSTORE PUSH2 0x4FE8 DUP2 PUSH2 0x4FAF JUMP JUMPDEST SWAP1 POP SWAP2 SWAP1 POP JUMP JUMPDEST PUSH32 0x4E6F206465706F7369746172206D656E6F73203120766F746F00000000000000 PUSH0 DUP3 ADD MSTORE POP JUMP JUMPDEST PUSH0 PUSH2 0x5023 PUSH1 0x19 DUP4 PUSH2 0x47F2 JUMP JUMPDEST SWAP2 POP PUSH2 0x502E DUP3 PUSH2 0x4FEF JUMP JUMPDEST PUSH1 0x20 DUP3 ADD SWAP1 POP SWAP2 SWAP1 POP JUMP JUMPDEST PUSH0 PUSH1 0x20 DUP3 ADD SWAP1 POP DUP2 DUP2 SUB PUSH0 DUP4 ADD MSTORE PUSH2 0x5050 DUP2 PUSH2 0x5017 JUMP JUMPDEST SWAP1 POP SWAP2 SWAP1 POP JUMP JUMPDEST PUSH0 PUSH2 0x5061 DUP3 PUSH2 0x41F6 JUMP JUMPDEST SWAP2 POP PUSH2 0x506C DUP4 PUSH2 0x41F6 JUMP JUMPDEST SWAP3 POP DUP3 DUP3 ADD SWAP1 POP DUP1 DUP3 GT ISZERO PUSH2 0x5084 JUMPI PUSH2 0x5083 PUSH2 0x48F8 JUMP JUMPDEST JUMPDEST SWAP3 SWAP2 POP POP JUMP JUMPDEST PUSH0 PUSH1 0x60 DUP3 ADD SWAP1 POP PUSH2 0x509D PUSH0 DUP4 ADD DUP7 PUSH2 0x49B4 JUMP JUMPDEST PUSH2 0x50AA PUSH1 0x20 DUP4 ADD DUP6 PUSH2 0x49B4 JUMP JUMPDEST PUSH2 0x50B7 PUSH1 0x40 DUP4 ADD DUP5 PUSH2 0x43AE JUMP JUMPDEST SWAP5 SWAP4 POP POP POP POP JUMP JUMPDEST PUSH2 0x50C8 DUP2 PUSH2 0x45EC JUMP JUMPDEST DUP2 EQ PUSH2 0x50D2 JUMPI PUSH0 DUP1 REVERT JUMPDEST POP JUMP JUMPDEST PUSH0 DUP2 MLOAD SWAP1 POP PUSH2 0x50E3 DUP2 PUSH2 0x50BF JUMP JUMPDEST SWAP3 SWAP2 POP POP JUMP JUMPDEST PUSH0 PUSH1 0x20 DUP3 DUP5 SUB SLT ISZERO PUSH2 0x50FE JUMPI PUSH2 0x50FD PUSH2 0x4340 JUMP JUMPDEST JUMPDEST PUSH0 PUSH2 0x510B DUP5 DUP3 DUP6 ADD PUSH2 0x50D5 JUMP JUMPDEST SWAP2 POP POP SWAP3 SWAP2 POP POP JUMP JUMPDEST PUSH0 PUSH1 0x40 DUP3 ADD SWAP1 POP PUSH2 0x5127 PUSH0 DUP4 ADD DUP6 PUSH2 0x49B4 JUMP JUMPDEST PUSH2 0x5134 PUSH1 0x20 DUP4 ADD DUP5 PUSH2 0x49B4 JUMP JUMPDEST SWAP4 SWAP3 POP POP POP JUMP JUMPDEST PUSH32 0x44697220636F6E747261746F206E6F2076616C69646100000000000000000000 PUSH0 DUP3 ADD MSTORE POP JUMP JUMPDEST PUSH0 PUSH2 0x516F PUSH1 0x16 DUP4 PUSH2 0x47F2 JUMP JUMPDEST SWAP2 POP PUSH2 0x517A DUP3 PUSH2 0x513B JUMP JUMPDEST PUSH1 0x20 DUP3 ADD SWAP1 POP SWAP2 SWAP1 POP JUMP JUMPDEST PUSH0 PUSH1 0x20 DUP3 ADD SWAP1 POP DUP2 DUP2 SUB PUSH0 DUP4 ADD MSTORE PUSH2 0x519C DUP2 PUSH2 0x5163 JUMP JUMPDEST SWAP1 POP SWAP2 SWAP1 POP JUMP JUMPDEST PUSH32 0x546974756C6F206E6F20766163696F0000000000000000000000000000000000 PUSH0 DUP3 ADD MSTORE POP JUMP JUMPDEST PUSH0 PUSH2 0x51D7 PUSH1 0xF DUP4 PUSH2 0x47F2 JUMP JUMPDEST SWAP2 POP PUSH2 0x51E2 DUP3 PUSH2 0x51A3 JUMP JUMPDEST PUSH1 0x20 DUP3 ADD SWAP1 POP SWAP2 SWAP1 POP JUMP JUMPDEST PUSH0 PUSH1 0x20 DUP3 ADD SWAP1 POP DUP2 DUP2 SUB PUSH0 DUP4 ADD MSTORE PUSH2 0x5204 DUP2 PUSH2 0x51CB JUMP JUMPDEST SWAP1 POP SWAP2 SWAP1 POP JUMP JUMPDEST PUSH32 0x4C61206465736372697063696F6E207661636961000000000000000000000000 PUSH0 DUP3 ADD MSTORE POP JUMP JUMPDEST PUSH0 PUSH2 0x523F PUSH1 0x14 DUP4 PUSH2 0x47F2 JUMP JUMPDEST SWAP2 POP PUSH2 0x524A DUP3 PUSH2 0x520B JUMP JUMPDEST PUSH1 0x20 DUP3 ADD SWAP1 POP SWAP2 SWAP1 POP JUMP JUMPDEST PUSH0 PUSH1 0x20 DUP3 ADD SWAP1 POP DUP2 DUP2 SUB PUSH0 DUP4 ADD MSTORE PUSH2 0x526C DUP2 PUSH2 0x5233 JUMP JUMPDEST SWAP1 POP SWAP2 SWAP1 POP JUMP JUMPDEST PUSH0 PUSH2 0x527D DUP3 PUSH2 0x41F6 JUMP JUMPDEST SWAP2 POP PUSH32 0xFFFFFFFFFFFFFFFFFFFFFFFFFFFFFFFFFFFFFFFFFFFFFFFFFFFFFFFFFFFFFFFF DUP3 SUB PUSH2 0x52AF JUMPI PUSH2 0x52AE PUSH2 0x48F8 JUMP JUMPDEST JUMPDEST PUSH1 0x1 DUP3 ADD SWAP1 POP SWAP2 SWAP1 POP JUMP JUMPDEST PUSH0 DUP3 SWAP1 POP SWAP3 SWAP2 POP POP JUMP JUMPDEST PUSH32 0x4E487B7100000000000000000000000000000000000000000000000000000000 PUSH0 MSTORE PUSH1 0x41 PUSH1 0x4 MSTORE PUSH1 0x24 PUSH0 REVERT JUMPDEST PUSH32 0x4E487B7100000000000000000000000000000000000000000000000000000000 PUSH0 MSTORE PUSH1 0x22 PUSH1 0x4 MSTORE PUSH1 0x24 PUSH0 REVERT JUMPDEST PUSH0 PUSH1 0x2 DUP3 DIV SWAP1 POP PUSH1 0x1 DUP3 AND DUP1 PUSH2 0x5335 JUMPI PUSH1 0x7F DUP3 AND SWAP2 POP JUMPDEST PUSH1 0x20 DUP3 LT DUP2 SUB PUSH2 0x5348 JUMPI PUSH2 0x5347 PUSH2 0x52F1 JUMP JUMPDEST JUMPDEST POP SWAP2 SWAP1 POP JUMP JUMPDEST PUSH0 DUP2 SWAP1 POP DUP2 PUSH0 MSTORE PUSH1 0x20 PUSH0 KECCAK256 SWAP1 POP SWAP2 SWAP1 POP JUMP JUMPDEST PUSH0 PUSH1 0x20 PUSH1 0x1F DUP4 ADD DIV SWAP1 POP SWAP2 SWAP1 POP JUMP JUMPDEST PUSH0 DUP3 DUP3 SHL SWAP1 POP SWAP3 SWAP2 POP POP JUMP JUMPDEST PUSH0 PUSH1 0x8 DUP4 MUL PUSH2 0x53AA PUSH32 0xFFFFFFFFFFFFFFFFFFFFFFFFFFFFFFFFFFFFFFFFFFFFFFFFFFFFFFFFFFFFFFFF DUP3 PUSH2 0x536F JUMP JUMPDEST PUSH2 0x53B4 DUP7 DUP4 PUSH2 0x536F JUMP JUMPDEST SWAP6 POP DUP1 NOT DUP5 AND SWAP4 POP DUP1 DUP7 AND DUP5 OR SWAP3 POP POP POP SWAP4 SWAP3 POP POP POP JUMP JUMPDEST PUSH0 PUSH2 0x53E6 PUSH2 0x53E1 PUSH2 0x53DC DUP5 PUSH2 0x41F6 JUMP JUMPDEST PUSH2 0x42CC JUMP JUMPDEST PUSH2 0x41F6 JUMP JUMPDEST SWAP1 POP SWAP2 SWAP1 POP JUMP JUMPDEST PUSH0 DUP2 SWAP1 POP SWAP2 SWAP1 POP JUMP JUMPDEST PUSH2 0x53FF DUP4 PUSH2 0x53CC JUMP JUMPDEST PUSH2 0x5413 PUSH2 0x540B DUP3 PUSH2 0x53ED JUMP JUMPDEST DUP5 DUP5 SLOAD PUSH2 0x537B JUMP JUMPDEST DUP3 SSTORE POP POP POP POP JUMP JUMPDEST PUSH0 SWAP1 JUMP JUMPDEST PUSH2 0x5427 PUSH2 0x541B JUMP JUMPDEST PUSH2 0x5432 DUP2 DUP5 DUP5 PUSH2 0x53F6 JUMP JUMPDEST POP POP POP JUMP JUMPDEST JUMPDEST DUP2 DUP2 LT ISZERO PUSH2 0x5455 JUMPI PUSH2 0x544A PUSH0 DUP3 PUSH2 0x541F JUMP JUMPDEST PUSH1 0x1 DUP2 ADD SWAP1 POP PUSH2 0x5438 JUMP JUMPDEST POP POP JUMP JUMPDEST PUSH1 0x1F DUP3 GT ISZERO PUSH2 0x549A JUMPI PUSH2 0x546B DUP2 PUSH2 0x534E JUMP JUMPDEST PUSH2 0x5474 DUP5 PUSH2 0x5360 JUMP JUMPDEST DUP2 ADD PUSH1 0x20 DUP6 LT ISZERO PUSH2 0x5483 JUMPI DUP2 SWAP1 POP JUMPDEST PUSH2 0x5497 PUSH2 0x548F DUP6 PUSH2 0x5360 JUMP JUMPDEST DUP4 ADD DUP3 PUSH2 0x5437 JUMP JUMPDEST POP POP JUMPDEST POP POP POP JUMP JUMPDEST PUSH0 DUP3 DUP3 SHR SWAP1 POP SWAP3 SWAP2 POP POP JUMP JUMPDEST PUSH0 PUSH2 0x54BA PUSH0 NOT DUP5 PUSH1 0x8 MUL PUSH2 0x549F JUMP JUMPDEST NOT DUP1 DUP4 AND SWAP2 POP POP SWAP3 SWAP2 POP POP JUMP JUMPDEST PUSH0 PUSH2 0x54D2 DUP4 DUP4 PUSH2 0x54AB JUMP JUMPDEST SWAP2 POP DUP3 PUSH1 0x2 MUL DUP3 OR SWAP1 POP SWAP3 SWAP2 POP POP JUMP JUMPDEST PUSH2 0x54EC DUP4 DUP4 PUSH2 0x52BA JUMP JUMPDEST PUSH8 0xFFFFFFFFFFFFFFFF DUP2 GT ISZERO PUSH2 0x5505 JUMPI PUSH2 0x5504 PUSH2 0x52C4 JUMP JUMPDEST JUMPDEST PUSH2 0x550F DUP3 SLOAD PUSH2 0x531E JUMP JUMPDEST PUSH2 0x551A DUP3 DUP3 DUP6 PUSH2 0x5459 JUMP JUMPDEST PUSH0 PUSH1 0x1F DUP4 GT PUSH1 0x1 DUP2 EQ PUSH2 0x5547 JUMPI PUSH0 DUP5 ISZERO PUSH2 0x5535 JUMPI DUP3 DUP8 ADD CALLDATALOAD SWAP1 POP JUMPDEST PUSH2 0x553F DUP6 DUP3 PUSH2 0x54C7 JUMP JUMPDEST DUP7 SSTORE POP PUSH2 0x55A6 JUMP JUMPDEST PUSH1 0x1F NOT DUP5 AND PUSH2 0x5555 DUP7 PUSH2 0x534E JUMP JUMPDEST PUSH0 JUMPDEST DUP3 DUP2 LT ISZERO PUSH2 0x557C JUMPI DUP5 DUP10 ADD CALLDATALOAD DUP3 SSTORE PUSH1 0x1 DUP3 ADD SWAP2 POP PUSH1 0x20 DUP6 ADD SWAP5 POP PUSH1 0x20 DUP2 ADD SWAP1 POP PUSH2 0x5557 JUMP JUMPDEST DUP7 DUP4 LT ISZERO PUSH2 0x5599 JUMPI DUP5 DUP10 ADD CALLDATALOAD PUSH2 0x5595 PUSH1 0x1F DUP10 AND DUP3 PUSH2 0x54AB JUMP JUMPDEST DUP4 SSTORE POP JUMPDEST PUSH1 0x1 PUSH1 0x2 DUP9 MUL ADD DUP9 SSTORE POP POP POP JUMPDEST POP POP POP POP POP POP POP JUMP JUMPDEST PUSH32 0x44656265732073657220656C206F776E65720000000000000000000000000000 PUSH0 DUP3 ADD MSTORE POP JUMP JUMPDEST PUSH0 PUSH2 0x55E3 PUSH1 0x12 DUP4 PUSH2 0x47F2 JUMP JUMPDEST SWAP2 POP PUSH2 0x55EE DUP3 PUSH2 0x55AF JUMP JUMPDEST PUSH1 0x20 DUP3 ADD SWAP1 POP SWAP2 SWAP1 POP JUMP JUMPDEST PUSH0 PUSH1 0x20 DUP3 ADD SWAP1 POP DUP2 DUP2 SUB PUSH0 DUP4 ADD MSTORE PUSH2 0x5610 DUP2 PUSH2 0x55D7 JUMP JUMPDEST SWAP1 POP SWAP2 SWAP1 POP JUMP JUMPDEST PUSH32 0x4E6F2070756564657320766F6C76657220612061627269726C61000000000000 PUSH0 DUP3 ADD MSTORE POP JUMP JUMPDEST PUSH0 PUSH2 0x564B PUSH1 0x1A DUP4 PUSH2 0x47F2 JUMP JUMPDEST SWAP2 POP PUSH2 0x5656 DUP3 PUSH2 0x5617 JUMP JUMPDEST PUSH1 0x20 DUP3 ADD SWAP1 POP SWAP2 SWAP1 POP JUMP JUMPDEST PUSH0 PUSH1 0x20 DUP3 ADD SWAP1 POP DUP2 DUP2 SUB PUSH0 DUP4 ADD MSTORE PUSH2 0x5678 DUP2 PUSH2 0x563F JUMP JUMPDEST SWAP1 POP SWAP2 SWAP1 POP JUMP JUMPDEST PUSH32 0x50726573757020696E6974203E206365726F0000000000000000000000000000 PUSH0 DUP3 ADD MSTORE POP JUMP JUMPDEST PUSH0 PUSH2 0x56B3 PUSH1 0x12 DUP4 PUSH2 0x47F2 JUMP JUMPDEST SWAP2 POP PUSH2 0x56BE DUP3 PUSH2 0x567F JUMP JUMPDEST PUSH1 0x20 DUP3 ADD SWAP1 POP SWAP2 SWAP1 POP JUMP JUMPDEST PUSH0 PUSH1 0x20 DUP3 ADD SWAP1 POP DUP2 DUP2 SUB PUSH0 DUP4 ADD MSTORE PUSH2 0x56E0 DUP2 PUSH2 0x56A7 JUMP JUMPDEST SWAP1 POP SWAP2 SWAP1 POP JUMP JUMPDEST PUSH32 0x426C6F71756561646F0000000000000000000000000000000000000000000000 PUSH0 DUP3 ADD MSTORE POP JUMP JUMPDEST PUSH0 PUSH2 0x571B PUSH1 0x9 DUP4 PUSH2 0x47F2 JUMP JUMPDEST SWAP2 POP PUSH2 0x5726 DUP3 PUSH2 0x56E7 JUMP JUMPDEST PUSH1 0x20 DUP3 ADD SWAP1 POP SWAP2 SWAP1 POP JUMP JUMPDEST PUSH0 PUSH1 0x20 DUP3 ADD SWAP1 POP DUP2 DUP2 SUB PUSH0 DUP4 ADD MSTORE PUSH2 0x5748 DUP2 PUSH2 0x570F JUMP JUMPDEST SWAP1 POP SWAP2 SWAP1 POP JUMP JUMPDEST PUSH0 PUSH1 0x60 DUP3 ADD SWAP1 POP PUSH2 0x5762 PUSH0 DUP4 ADD DUP7 PUSH2 0x43AE JUMP JUMPDEST PUSH2 0x576F PUSH1 0x20 DUP4 ADD DUP6 PUSH2 0x43AE JUMP JUMPDEST PUSH2 0x577C PUSH1 0x40 DUP4 ADD DUP5 PUSH2 0x43AE JUMP JUMPDEST SWAP5 SWAP4 POP POP POP POP JUMP JUMPDEST PUSH0 DUP2 MLOAD SWAP1 POP SWAP2 SWAP1 POP JUMP JUMPDEST PUSH0 PUSH2 0x5798 DUP3 PUSH2 0x5784 JUMP JUMPDEST PUSH2 0x57A2 DUP2 DUP6 PUSH2 0x4F46 JUMP JUMPDEST SWAP4 POP PUSH2 0x57B2 DUP2 DUP6 PUSH1 0x20 DUP7 ADD PUSH2 0x4587 JUMP JUMPDEST DUP1 DUP5 ADD SWAP2 POP POP SWAP3 SWAP2 POP POP JUMP JUMPDEST PUSH0 PUSH2 0x57C9 DUP3 DUP5 PUSH2 0x578E JUMP JUMPDEST SWAP2 POP DUP2 SWAP1 POP SWAP3 SWAP2 POP POP JUMP JUMPDEST PUSH32 0x4572726F72000000000000000000000000000000000000000000000000000000 PUSH0 DUP3 ADD MSTORE POP JUMP JUMPDEST PUSH0 PUSH2 0x5808 PUSH1 0x5 DUP4 PUSH2 0x47F2 JUMP JUMPDEST SWAP2 POP PUSH2 0x5813 DUP3 PUSH2 0x57D4 JUMP JUMPDEST PUSH1 0x20 DUP3 ADD SWAP1 POP SWAP2 SWAP1 POP JUMP JUMPDEST PUSH0 PUSH1 0x20 DUP3 ADD SWAP1 POP DUP2 DUP2 SUB PUSH0 DUP4 ADD MSTORE PUSH2 0x5835 DUP2 PUSH2 0x57FC JUMP JUMPDEST SWAP1 POP SWAP2 SWAP1 POP JUMP JUMPDEST PUSH32 0x446562657320656E766961204574686572206E656365736172696F0000000000 PUSH0 DUP3 ADD MSTORE POP JUMP JUMPDEST PUSH0 PUSH2 0x5870 PUSH1 0x1B DUP4 PUSH2 0x47F2 JUMP JUMPDEST SWAP2 POP PUSH2 0x587B DUP3 PUSH2 0x583C JUMP JUMPDEST PUSH1 0x20 DUP3 ADD SWAP1 POP SWAP2 SWAP1 POP JUMP JUMPDEST PUSH0 PUSH1 0x20 DUP3 ADD SWAP1 POP DUP2 DUP2 SUB PUSH0 DUP4 ADD MSTORE PUSH2 0x589D DUP2 PUSH2 0x5864 JUMP JUMPDEST SWAP1 POP SWAP2 SWAP1 POP JUMP JUMPDEST PUSH32 0x4E487B7100000000000000000000000000000000000000000000000000000000 PUSH0 MSTORE PUSH1 0x12 PUSH1 0x4 MSTORE PUSH1 0x24 PUSH0 REVERT JUMPDEST PUSH0 PUSH2 0x58DB DUP3 PUSH2 0x41F6 JUMP JUMPDEST SWAP2 POP PUSH2 0x58E6 DUP4 PUSH2 0x41F6 JUMP JUMPDEST SWAP3 POP DUP3 PUSH2 0x58F6 JUMPI PUSH2 0x58F5 PUSH2 0x58A4 JUMP JUMPDEST JUMPDEST DUP3 DUP3 DIV SWAP1 POP SWAP3 SWAP2 POP POP JUMP JUMPDEST PUSH32 0x46616C6C6F000000000000000000000000000000000000000000000000000000 PUSH0 DUP3 ADD MSTORE POP JUMP JUMPDEST PUSH0 PUSH2 0x5935 PUSH1 0x5 DUP4 PUSH2 0x47F2 JUMP JUMPDEST SWAP2 POP PUSH2 0x5940 DUP3 PUSH2 0x5901 JUMP JUMPDEST PUSH1 0x20 DUP3 ADD SWAP1 POP SWAP2 SWAP1 POP JUMP JUMPDEST PUSH0 PUSH1 0x20 DUP3 ADD SWAP1 POP DUP2 DUP2 SUB PUSH0 DUP4 ADD MSTORE PUSH2 0x5962 DUP2 PUSH2 0x5929 JUMP JUMPDEST SWAP1 POP SWAP2 SWAP1 POP JUMP JUMPDEST PUSH32 0x44656265732068616265722063726561646F206C612070726F70756573746100 PUSH0 DUP3 ADD MSTORE POP JUMP JUMPDEST PUSH0 PUSH2 0x599D PUSH1 0x1F DUP4 PUSH2 0x47F2 JUMP JUMPDEST SWAP2 POP PUSH2 0x59A8 DUP3 PUSH2 0x5969 JUMP JUMPDEST PUSH1 0x20 DUP3 ADD SWAP1 POP SWAP2 SWAP1 POP JUMP JUMPDEST PUSH0 PUSH1 0x20 DUP3 ADD SWAP1 POP DUP2 DUP2 SUB PUSH0 DUP4 ADD MSTORE PUSH2 0x59CA DUP2 PUSH2 0x5991 JUMP JUMPDEST SWAP1 POP SWAP2 SWAP1 POP JUMP JUMPDEST PUSH32 0x4E6F2061706F7274617320737566696369656E74652045746865720000000000 PUSH0 DUP3 ADD MSTORE POP JUMP JUMPDEST PUSH0 PUSH2 0x5A05 PUSH1 0x1B DUP4 PUSH2 0x47F2 JUMP JUMPDEST SWAP2 POP PUSH2 0x5A10 DUP3 PUSH2 0x59D1 JUMP JUMPDEST PUSH1 0x20 DUP3 ADD SWAP1 POP SWAP2 SWAP1 POP JUMP JUMPDEST PUSH0 PUSH1 0x20 DUP3 ADD SWAP1 POP DUP2 DUP2 SUB PUSH0 DUP4 ADD MSTORE PUSH2 0x5A32 DUP2 PUSH2 0x59F9 JUMP JUMPDEST SWAP1 POP SWAP2 SWAP1 POP JUMP JUMPDEST PUSH32 0x5061727469636970616E746520796120657374612061637469766F0000000000 PUSH0 DUP3 ADD MSTORE POP JUMP JUMPDEST PUSH0 PUSH2 0x5A6D PUSH1 0x1B DUP4 PUSH2 0x47F2 JUMP JUMPDEST SWAP2 POP PUSH2 0x5A78 DUP3 PUSH2 0x5A39 JUMP JUMPDEST PUSH1 0x20 DUP3 ADD SWAP1 POP SWAP2 SWAP1 POP JUMP JUMPDEST PUSH0 PUSH1 0x20 DUP3 ADD SWAP1 POP DUP2 DUP2 SUB PUSH0 DUP4 ADD MSTORE PUSH2 0x5A9A DUP2 PUSH2 0x5A61 JUMP JUMPDEST SWAP1 POP SWAP2 SWAP1 POP JUMP JUMPDEST PUSH32 0x43616E7469646164203E20300000000000000000000000000000000000000000 PUSH0 DUP3 ADD MSTORE POP JUMP JUMPDEST PUSH0 PUSH2 0x5AD5 PUSH1 0xC DUP4 PUSH2 0x47F2 JUMP JUMPDEST SWAP2 POP PUSH2 0x5AE0 DUP3 PUSH2 0x5AA1 JUMP JUMPDEST PUSH1 0x20 DUP3 ADD SWAP1 POP SWAP2 SWAP1 POP JUMP JUMPDEST PUSH0 PUSH1 0x20 DUP3 ADD SWAP1 POP DUP2 DUP2 SUB PUSH0 DUP4 ADD MSTORE PUSH2 0x5B02 DUP2 PUSH2 0x5AC9 JUMP JUMPDEST SWAP1 POP SWAP2 SWAP1 POP JUMP JUMPDEST PUSH32 0x456C206164647265737320646562652065786973746972000000000000000000 PUSH0 DUP3 ADD MSTORE POP JUMP JUMPDEST PUSH0 PUSH2 0x5B3D PUSH1 0x17 DUP4 PUSH2 0x47F2 JUMP JUMPDEST SWAP2 POP PUSH2 0x5B48 DUP3 PUSH2 0x5B09 JUMP JUMPDEST PUSH1 0x20 DUP3 ADD SWAP1 POP SWAP2 SWAP1 POP JUMP JUMPDEST PUSH0 PUSH1 0x20 DUP3 ADD SWAP1 POP DUP2 DUP2 SUB PUSH0 DUP4 ADD MSTORE PUSH2 0x5B6A DUP2 PUSH2 0x5B31 JUMP JUMPDEST SWAP1 POP SWAP2 SWAP1 POP JUMP JUMPDEST PUSH32 0x4C61207472616E73666572656E63696120646520746F6B656E73206861206661 PUSH0 DUP3 ADD MSTORE PUSH32 0x6C6C61646F2E0000000000000000000000000000000000000000000000000000 PUSH1 0x20 DUP3 ADD MSTORE POP JUMP JUMPDEST PUSH0 PUSH2 0x5BCB PUSH1 0x26 DUP4 PUSH2 0x47F2 JUMP JUMPDEST SWAP2 POP PUSH2 0x5BD6 DUP3 PUSH2 0x5B71 JUMP JUMPDEST PUSH1 0x40 DUP3 ADD SWAP1 POP SWAP2 SWAP1 POP JUMP JUMPDEST PUSH0 PUSH1 0x20 DUP3 ADD SWAP1 POP DUP2 DUP2 SUB PUSH0 DUP4 ADD MSTORE PUSH2 0x5BF8 DUP2 PUSH2 0x5BBF JUMP JUMPDEST SWAP1 POP SWAP2 SWAP1 POP JUMP JUMPDEST PUSH32 0x70726F707565737461207369676E616C696E6700000000000000000000000000 PUSH0 DUP3 ADD MSTORE POP JUMP JUMPDEST PUSH0 PUSH2 0x5C33 PUSH1 0x13 DUP4 PUSH2 0x47F2 JUMP JUMPDEST SWAP2 POP PUSH2 0x5C3E DUP3 PUSH2 0x5BFF JUMP JUMPDEST PUSH1 0x20 DUP3 ADD SWAP1 POP SWAP2 SWAP1 POP JUMP JUMPDEST PUSH0 PUSH1 0x20 DUP3 ADD SWAP1 POP DUP2 DUP2 SUB PUSH0 DUP4 ADD MSTORE PUSH2 0x5C60 DUP2 PUSH2 0x5C27 JUMP JUMPDEST SWAP1 POP SWAP2 SWAP1 POP JUMP JUMPDEST PUSH32 0x70726F7075657374612073696E20636F6E747261746F20646520766F74616369 PUSH0 DUP3 ADD MSTORE PUSH32 0x6F6E000000000000000000000000000000000000000000000000000000000000 PUSH1 0x20 DUP3 ADD MSTORE POP JUMP JUMPDEST PUSH0 PUSH2 0x5CC1 PUSH1 0x22 DUP4 PUSH2 0x47F2 JUMP JUMPDEST SWAP2 POP PUSH2 0x5CCC DUP3 PUSH2 0x5C67 JUMP JUMPDEST PUSH1 0x40 DUP3 ADD SWAP1 POP SWAP2 SWAP1 POP JUMP JUMPDEST PUSH0 PUSH1 0x20 DUP3 ADD SWAP1 POP DUP2 DUP2 SUB PUSH0 DUP4 ADD MSTORE PUSH2 0x5CEE DUP2 PUSH2 0x5CB5 JUMP JUMPDEST SWAP1 POP SWAP2 SWAP1 POP JUMP JUMPDEST PUSH32 0x707265737570756573746F203C20616C2064656D616E6461646F20656E206C61 PUSH0 DUP3 ADD MSTORE PUSH32 0x2070726F70756573746100000000000000000000000000000000000000000000 PUSH1 0x20 DUP3 ADD MSTORE POP JUMP JUMPDEST PUSH0 PUSH2 0x5D4F PUSH1 0x2A DUP4 PUSH2 0x47F2 JUMP JUMPDEST SWAP2 POP PUSH2 0x5D5A DUP3 PUSH2 0x5CF5 JUMP JUMPDEST PUSH1 0x40 DUP3 ADD SWAP1 POP SWAP2 SWAP1 POP JUMP JUMPDEST PUSH0 PUSH1 0x20 DUP3 ADD SWAP1 POP DUP2 DUP2 SUB PUSH0 DUP4 ADD MSTORE PUSH2 0x5D7C DUP2 PUSH2 0x5D43 JUMP JUMPDEST SWAP1 POP SWAP2 SWAP1 POP JUMP INVALID LOG2 PUSH5 0x6970667358 0x22 SLT KECCAK256 0xF9 0xBD 0x4E XOR 0xE5 0x22 0xE6 0xB0 TSTORE SGT PUSH10 0x8CDD7A0B7E8F1C430292 LOG2 SLT 0xB2 0xC4 PUSH16 0x114D7238E97D64736F6C634300081A00 CALLER PUSH1 0xC0 PUSH1 0x40 MSTORE CALLVALUE DUP1 ISZERO PUSH2 0xF JUMPI PUSH0 DUP1 REVERT JUMPDEST POP PUSH1 0x40 MLOAD PUSH2 0x1DA6 CODESIZE SUB DUP1 PUSH2 0x1DA6 DUP4 CODECOPY DUP2 DUP2 ADD PUSH1 0x40 MSTORE DUP2 ADD SWAP1 PUSH2 0x31 SWAP2 SWAP1 PUSH2 0x2B9 JUMP JUMPDEST DUP4 DUP4 DUP2 PUSH1 0x3 SWAP1 DUP2 PUSH2 0x42 SWAP2 SWAP1 PUSH2 0x559 JUMP JUMPDEST POP DUP1 PUSH1 0x4 SWAP1 DUP2 PUSH2 0x52 SWAP2 SWAP1 PUSH2 0x559 JUMP JUMPDEST POP POP POP PUSH0 DUP3 GT PUSH2 0x97 JUMPI PUSH1 0x40 MLOAD PUSH32 0x8C379A000000000000000000000000000000000000000000000000000000000 DUP2 MSTORE PUSH1 0x4 ADD PUSH2 0x8E SWAP1 PUSH2 0x6A8 JUMP JUMPDEST PUSH1 0x40 MLOAD DUP1 SWAP2 SUB SWAP1 REVERT JUMPDEST PUSH0 DUP2 GT PUSH2 0xD9 JUMPI PUSH1 0x40 MLOAD PUSH32 0x8C379A000000000000000000000000000000000000000000000000000000000 DUP2 MSTORE PUSH1 0x4 ADD PUSH2 0xD0 SWAP1 PUSH2 0x736 JUMP JUMPDEST PUSH1 0x40 MLOAD DUP1 SWAP2 SUB SWAP1 REVERT JUMPDEST DUP2 PUSH1 0x80 DUP2 DUP2 MSTORE POP POP DUP1 PUSH1 0xA0 DUP2 DUP2 MSTORE POP POP PUSH0 PUSH1 0x5 DUP2 SWAP1 SSTORE POP CALLER PUSH1 0x6 PUSH0 PUSH2 0x100 EXP DUP2 SLOAD DUP2 PUSH20 0xFFFFFFFFFFFFFFFFFFFFFFFFFFFFFFFFFFFFFFFF MUL NOT AND SWAP1 DUP4 PUSH20 0xFFFFFFFFFFFFFFFFFFFFFFFFFFFFFFFFFFFFFFFF AND MUL OR SWAP1 SSTORE POP POP POP POP POP PUSH2 0x754 JUMP JUMPDEST PUSH0 PUSH1 0x40 MLOAD SWAP1 POP SWAP1 JUMP JUMPDEST PUSH0 DUP1 REVERT JUMPDEST PUSH0 DUP1 REVERT JUMPDEST PUSH0 DUP1 REVERT JUMPDEST PUSH0 DUP1 REVERT JUMPDEST PUSH0 PUSH1 0x1F NOT PUSH1 0x1F DUP4 ADD AND SWAP1 POP SWAP2 SWAP1 POP JUMP JUMPDEST PUSH32 0x4E487B7100000000000000000000000000000000000000000000000000000000 PUSH0 MSTORE PUSH1 0x41 PUSH1 0x4 MSTORE PUSH1 0x24 PUSH0 REVERT JUMPDEST PUSH2 0x198 DUP3 PUSH2 0x152 JUMP JUMPDEST DUP2 ADD DUP2 DUP2 LT PUSH8 0xFFFFFFFFFFFFFFFF DUP3 GT OR ISZERO PUSH2 0x1B7 JUMPI PUSH2 0x1B6 PUSH2 0x162 JUMP JUMPDEST JUMPDEST DUP1 PUSH1 0x40 MSTORE POP POP POP JUMP JUMPDEST PUSH0 PUSH2 0x1C9 PUSH2 0x139 JUMP JUMPDEST SWAP1 POP PUSH2 0x1D5 DUP3 DUP3 PUSH2 0x18F JUMP JUMPDEST SWAP2 SWAP1 POP JUMP JUMPDEST PUSH0 PUSH8 0xFFFFFFFFFFFFFFFF DUP3 GT ISZERO PUSH2 0x1F4 JUMPI PUSH2 0x1F3 PUSH2 0x162 JUMP JUMPDEST JUMPDEST PUSH2 0x1FD DUP3 PUSH2 0x152 JUMP JUMPDEST SWAP1 POP PUSH1 0x20 DUP2 ADD SWAP1 POP SWAP2 SWAP1 POP JUMP JUMPDEST DUP3 DUP2 DUP4 MCOPY PUSH0 DUP4 DUP4 ADD MSTORE POP POP POP JUMP JUMPDEST PUSH0 PUSH2 0x22A PUSH2 0x225 DUP5 PUSH2 0x1DA JUMP JUMPDEST PUSH2 0x1C0 JUMP JUMPDEST SWAP1 POP DUP3 DUP2 MSTORE PUSH1 0x20 DUP2 ADD DUP5 DUP5 DUP5 ADD GT ISZERO PUSH2 0x246 JUMPI PUSH2 0x245 PUSH2 0x14E JUMP JUMPDEST JUMPDEST PUSH2 0x251 DUP5 DUP3 DUP6 PUSH2 0x20A JUMP JUMPDEST POP SWAP4 SWAP3 POP POP POP JUMP JUMPDEST PUSH0 DUP3 PUSH1 0x1F DUP4 ADD SLT PUSH2 0x26D JUMPI PUSH2 0x26C PUSH2 0x14A JUMP JUMPDEST JUMPDEST DUP2 MLOAD PUSH2 0x27D DUP5 DUP3 PUSH1 0x20 DUP7 ADD PUSH2 0x218 JUMP JUMPDEST SWAP2 POP POP SWAP3 SWAP2 POP POP JUMP JUMPDEST PUSH0 DUP2 SWAP1 POP SWAP2 SWAP1 POP JUMP JUMPDEST PUSH2 0x298 DUP2 PUSH2 0x286 JUMP JUMPDEST DUP2 EQ PUSH2 0x2A2 JUMPI PUSH0 DUP1 REVERT JUMPDEST POP JUMP JUMPDEST PUSH0 DUP2 MLOAD SWAP1 POP PUSH2 0x2B3 DUP2 PUSH2 0x28F JUMP JUMPDEST SWAP3 SWAP2 POP POP JUMP JUMPDEST PUSH0 DUP1 PUSH0 DUP1 PUSH1 0x80 DUP6 DUP8 SUB SLT ISZERO PUSH2 0x2D1 JUMPI PUSH2 0x2D0 PUSH2 0x142 JUMP JUMPDEST JUMPDEST PUSH0 DUP6 ADD MLOAD PUSH8 0xFFFFFFFFFFFFFFFF DUP2 GT ISZERO PUSH2 0x2EE JUMPI PUSH2 0x2ED PUSH2 0x146 JUMP JUMPDEST JUMPDEST PUSH2 0x2FA DUP8 DUP3 DUP9 ADD PUSH2 0x259 JUMP JUMPDEST SWAP5 POP POP PUSH1 0x20 DUP6 ADD MLOAD PUSH8 0xFFFFFFFFFFFFFFFF DUP2 GT ISZERO PUSH2 0x31B JUMPI PUSH2 0x31A PUSH2 0x146 JUMP JUMPDEST JUMPDEST PUSH2 0x327 DUP8 DUP3 DUP9 ADD PUSH2 0x259 JUMP JUMPDEST SWAP4 POP POP PUSH1 0x40 PUSH2 0x338 DUP8 DUP3 DUP9 ADD PUSH2 0x2A5 JUMP JUMPDEST SWAP3 POP POP PUSH1 0x60 PUSH2 0x349 DUP8 DUP3 DUP9 ADD PUSH2 0x2A5 JUMP JUMPDEST SWAP2 POP POP SWAP3 SWAP6 SWAP2 SWAP5 POP SWAP3 POP JUMP JUMPDEST PUSH0 DUP2 MLOAD SWAP1 POP SWAP2 SWAP1 POP JUMP JUMPDEST PUSH32 0x4E487B7100000000000000000000000000000000000000000000000000000000 PUSH0 MSTORE PUSH1 0x22 PUSH1 0x4 MSTORE PUSH1 0x24 PUSH0 REVERT JUMPDEST PUSH0 PUSH1 0x2 DUP3 DIV SWAP1 POP PUSH1 0x1 DUP3 AND DUP1 PUSH2 0x3A3 JUMPI PUSH1 0x7F DUP3 AND SWAP2 POP JUMPDEST PUSH1 0x20 DUP3 LT DUP2 SUB PUSH2 0x3B6 JUMPI PUSH2 0x3B5 PUSH2 0x35F JUMP JUMPDEST JUMPDEST POP SWAP2 SWAP1 POP JUMP JUMPDEST PUSH0 DUP2 SWAP1 POP DUP2 PUSH0 MSTORE PUSH1 0x20 PUSH0 KECCAK256 SWAP1 POP SWAP2 SWAP1 POP JUMP JUMPDEST PUSH0 PUSH1 0x20 PUSH1 0x1F DUP4 ADD DIV SWAP1 POP SWAP2 SWAP1 POP JUMP JUMPDEST PUSH0 DUP3 DUP3 SHL SWAP1 POP SWAP3 SWAP2 POP POP JUMP JUMPDEST PUSH0 PUSH1 0x8 DUP4 MUL PUSH2 0x418 PUSH32 0xFFFFFFFFFFFFFFFFFFFFFFFFFFFFFFFFFFFFFFFFFFFFFFFFFFFFFFFFFFFFFFFF DUP3 PUSH2 0x3DD JUMP JUMPDEST PUSH2 0x422 DUP7 DUP4 PUSH2 0x3DD JUMP JUMPDEST SWAP6 POP DUP1 NOT DUP5 AND SWAP4 POP DUP1 DUP7 AND DUP5 OR SWAP3 POP POP POP SWAP4 SWAP3 POP POP POP JUMP JUMPDEST PUSH0 DUP2 SWAP1 POP SWAP2 SWAP1 POP JUMP JUMPDEST PUSH0 PUSH2 0x45D PUSH2 0x458 PUSH2 0x453 DUP5 PUSH2 0x286 JUMP JUMPDEST PUSH2 0x43A JUMP JUMPDEST PUSH2 0x286 JUMP JUMPDEST SWAP1 POP SWAP2 SWAP1 POP JUMP JUMPDEST PUSH0 DUP2 SWAP1 POP SWAP2 SWAP1 POP JUMP JUMPDEST PUSH2 0x476 DUP4 PUSH2 0x443 JUMP JUMPDEST PUSH2 0x48A PUSH2 0x482 DUP3 PUSH2 0x464 JUMP JUMPDEST DUP5 DUP5 SLOAD PUSH2 0x3E9 JUMP JUMPDEST DUP3 SSTORE POP POP POP POP JUMP JUMPDEST PUSH0 SWAP1 JUMP JUMPDEST PUSH2 0x49E PUSH2 0x492 JUMP JUMPDEST PUSH2 0x4A9 DUP2 DUP5 DUP5 PUSH2 0x46D JUMP JUMPDEST POP POP POP JUMP JUMPDEST JUMPDEST DUP2 DUP2 LT ISZERO PUSH2 0x4CC JUMPI PUSH2 0x4C1 PUSH0 DUP3 PUSH2 0x496 JUMP JUMPDEST PUSH1 0x1 DUP2 ADD SWAP1 POP PUSH2 0x4AF JUMP JUMPDEST POP POP JUMP JUMPDEST PUSH1 0x1F DUP3 GT ISZERO PUSH2 0x511 JUMPI PUSH2 0x4E2 DUP2 PUSH2 0x3BC JUMP JUMPDEST PUSH2 0x4EB DUP5 PUSH2 0x3CE JUMP JUMPDEST DUP2 ADD PUSH1 0x20 DUP6 LT ISZERO PUSH2 0x4FA JUMPI DUP2 SWAP1 POP JUMPDEST PUSH2 0x50E PUSH2 0x506 DUP6 PUSH2 0x3CE JUMP JUMPDEST DUP4 ADD DUP3 PUSH2 0x4AE JUMP JUMPDEST POP POP JUMPDEST POP POP POP JUMP JUMPDEST PUSH0 DUP3 DUP3 SHR SWAP1 POP SWAP3 SWAP2 POP POP JUMP JUMPDEST PUSH0 PUSH2 0x531 PUSH0 NOT DUP5 PUSH1 0x8 MUL PUSH2 0x516 JUMP JUMPDEST NOT DUP1 DUP4 AND SWAP2 POP POP SWAP3 SWAP2 POP POP JUMP JUMPDEST PUSH0 PUSH2 0x549 DUP4 DUP4 PUSH2 0x522 JUMP JUMPDEST SWAP2 POP DUP3 PUSH1 0x2 MUL DUP3 OR SWAP1 POP SWAP3 SWAP2 POP POP JUMP JUMPDEST PUSH2 0x562 DUP3 PUSH2 0x355 JUMP JUMPDEST PUSH8 0xFFFFFFFFFFFFFFFF DUP2 GT ISZERO PUSH2 0x57B JUMPI PUSH2 0x57A PUSH2 0x162 JUMP JUMPDEST JUMPDEST PUSH2 0x585 DUP3 SLOAD PUSH2 0x38C JUMP JUMPDEST PUSH2 0x590 DUP3 DUP3 DUP6 PUSH2 0x4D0 JUMP JUMPDEST PUSH0 PUSH1 0x20 SWAP1 POP PUSH1 0x1F DUP4 GT PUSH1 0x1 DUP2 EQ PUSH2 0x5C1 JUMPI PUSH0 DUP5 ISZERO PUSH2 0x5AF JUMPI DUP3 DUP8 ADD MLOAD SWAP1 POP JUMPDEST PUSH2 0x5B9 DUP6 DUP3 PUSH2 0x53E JUMP JUMPDEST DUP7 SSTORE POP PUSH2 0x620 JUMP JUMPDEST PUSH1 0x1F NOT DUP5 AND PUSH2 0x5CF DUP7 PUSH2 0x3BC JUMP JUMPDEST PUSH0 JUMPDEST DUP3 DUP2 LT ISZERO PUSH2 0x5F6 JUMPI DUP5 DUP10 ADD MLOAD DUP3 SSTORE PUSH1 0x1 DUP3 ADD SWAP2 POP PUSH1 0x20 DUP6 ADD SWAP5 POP PUSH1 0x20 DUP2 ADD SWAP1 POP PUSH2 0x5D1 JUMP JUMPDEST DUP7 DUP4 LT ISZERO PUSH2 0x613 JUMPI DUP5 DUP10 ADD MLOAD PUSH2 0x60F PUSH1 0x1F DUP10 AND DUP3 PUSH2 0x522 JUMP JUMPDEST DUP4 SSTORE POP JUMPDEST PUSH1 0x1 PUSH1 0x2 DUP9 MUL ADD DUP9 SSTORE POP POP POP JUMPDEST POP POP POP POP POP POP JUMP JUMPDEST PUSH0 DUP3 DUP3 MSTORE PUSH1 0x20 DUP3 ADD SWAP1 POP SWAP3 SWAP2 POP POP JUMP JUMPDEST PUSH32 0x456C2070726563696F206E6F20707565646520736572206D656E6F7220717565 PUSH0 DUP3 ADD MSTORE PUSH32 0x206365726F000000000000000000000000000000000000000000000000000000 PUSH1 0x20 DUP3 ADD MSTORE POP JUMP JUMPDEST PUSH0 PUSH2 0x692 PUSH1 0x25 DUP4 PUSH2 0x628 JUMP JUMPDEST SWAP2 POP PUSH2 0x69D DUP3 PUSH2 0x638 JUMP JUMPDEST PUSH1 0x40 DUP3 ADD SWAP1 POP SWAP2 SWAP1 POP JUMP JUMPDEST PUSH0 PUSH1 0x20 DUP3 ADD SWAP1 POP DUP2 DUP2 SUB PUSH0 DUP4 ADD MSTORE PUSH2 0x6BF DUP2 PUSH2 0x686 JUMP JUMPDEST SWAP1 POP SWAP2 SWAP1 POP JUMP JUMPDEST PUSH32 0x456C206D6178696D6F20646520746F6B656E73206E6F20707565646520736572 PUSH0 DUP3 ADD MSTORE PUSH32 0x206D656E6F7220717565206365726F0000000000000000000000000000000000 PUSH1 0x20 DUP3 ADD MSTORE POP JUMP JUMPDEST PUSH0 PUSH2 0x720 PUSH1 0x2F DUP4 PUSH2 0x628 JUMP JUMPDEST SWAP2 POP PUSH2 0x72B DUP3 PUSH2 0x6C6 JUMP JUMPDEST PUSH1 0x40 DUP3 ADD SWAP1 POP SWAP2 SWAP1 POP JUMP JUMPDEST PUSH0 PUSH1 0x20 DUP3 ADD SWAP1 POP DUP2 DUP2 SUB PUSH0 DUP4 ADD MSTORE PUSH2 0x74D DUP2 PUSH2 0x714 JUMP JUMPDEST SWAP1 POP SWAP2 SWAP1 POP JUMP JUMPDEST PUSH1 0x80 MLOAD PUSH1 0xA0 MLOAD PUSH2 0x161C PUSH2 0x78A PUSH0 CODECOPY PUSH0 DUP2 DUP2 PUSH2 0x551 ADD MSTORE DUP2 DUP2 PUSH2 0x60F ADD MSTORE PUSH2 0x962 ADD MSTORE PUSH0 DUP2 DUP2 PUSH2 0x5E8 ADD MSTORE PUSH2 0x67A ADD MSTORE PUSH2 0x161C PUSH0 RETURN INVALID PUSH1 0x80 PUSH1 0x40 MSTORE CALLVALUE DUP1 ISZERO PUSH2 0xF JUMPI PUSH0 DUP1 REVERT JUMPDEST POP PUSH1 0x4 CALLDATASIZE LT PUSH2 0x109 JUMPI PUSH0 CALLDATALOAD PUSH1 0xE0 SHR DUP1 PUSH4 0x70A08231 GT PUSH2 0xA0 JUMPI DUP1 PUSH4 0x9DC29FAC GT PUSH2 0x6F JUMPI DUP1 PUSH4 0x9DC29FAC EQ PUSH2 0x2A9 JUMPI DUP1 PUSH4 0xA9059CBB EQ PUSH2 0x2C5 JUMPI DUP1 PUSH4 0xB2BDFA7B EQ PUSH2 0x2F5 JUMPI DUP1 PUSH4 0xDD62ED3E EQ PUSH2 0x313 JUMPI DUP1 PUSH4 0xE8315742 EQ PUSH2 0x343 JUMPI PUSH2 0x109 JUMP JUMPDEST DUP1 PUSH4 0x70A08231 EQ PUSH2 0x21F JUMPI DUP1 PUSH4 0x7FF9B596 EQ PUSH2 0x24F JUMPI DUP1 PUSH4 0x8D75FE05 EQ PUSH2 0x26D JUMPI DUP1 PUSH4 0x95D89B41 EQ PUSH2 0x28B JUMPI PUSH2 0x109 JUMP JUMPDEST DUP1 PUSH4 0x313CE567 GT PUSH2 0xDC JUMPI DUP1 PUSH4 0x313CE567 EQ PUSH2 0x1A9 JUMPI DUP1 PUSH4 0x40C10F19 EQ PUSH2 0x1C7 JUMPI DUP1 PUSH4 0x4B94F50E EQ PUSH2 0x1E3 JUMPI DUP1 PUSH4 0x6ABCDED1 EQ PUSH2 0x201 JUMPI PUSH2 0x109 JUMP JUMPDEST DUP1 PUSH4 0x6FDDE03 EQ PUSH2 0x10D JUMPI DUP1 PUSH4 0x95EA7B3 EQ PUSH2 0x12B JUMPI DUP1 PUSH4 0x18160DDD EQ PUSH2 0x15B JUMPI DUP1 PUSH4 0x23B872DD EQ PUSH2 0x179 JUMPI JUMPDEST PUSH0 DUP1 REVERT JUMPDEST PUSH2 0x115 PUSH2 0x361 JUMP JUMPDEST PUSH1 0x40 MLOAD PUSH2 0x122 SWAP2 SWAP1 PUSH2 0x1076 JUMP JUMPDEST PUSH1 0x40 MLOAD DUP1 SWAP2 SUB SWAP1 RETURN JUMPDEST PUSH2 0x145 PUSH1 0x4 DUP1 CALLDATASIZE SUB DUP2 ADD SWAP1 PUSH2 0x140 SWAP2 SWAP1 PUSH2 0x1127 JUMP JUMPDEST PUSH2 0x3F1 JUMP JUMPDEST PUSH1 0x40 MLOAD PUSH2 0x152 SWAP2 SWAP1 PUSH2 0x117F JUMP JUMPDEST PUSH1 0x40 MLOAD DUP1 SWAP2 SUB SWAP1 RETURN JUMPDEST PUSH2 0x163 PUSH2 0x413 JUMP JUMPDEST PUSH1 0x40 MLOAD PUSH2 0x170 SWAP2 SWAP1 PUSH2 0x11A7 JUMP JUMPDEST PUSH1 0x40 MLOAD DUP1 SWAP2 SUB SWAP1 RETURN JUMPDEST PUSH2 0x193 PUSH1 0x4 DUP1 CALLDATASIZE SUB DUP2 ADD SWAP1 PUSH2 0x18E SWAP2 SWAP1 PUSH2 0x11C0 JUMP JUMPDEST PUSH2 0x41C JUMP JUMPDEST PUSH1 0x40 MLOAD PUSH2 0x1A0 SWAP2 SWAP1 PUSH2 0x117F JUMP JUMPDEST PUSH1 0x40 MLOAD DUP1 SWAP2 SUB SWAP1 RETURN JUMPDEST PUSH2 0x1B1 PUSH2 0x44A JUMP JUMPDEST PUSH1 0x40 MLOAD PUSH2 0x1BE SWAP2 SWAP1 PUSH2 0x122B JUMP JUMPDEST PUSH1 0x40 MLOAD DUP1 SWAP2 SUB SWAP1 RETURN JUMPDEST PUSH2 0x1E1 PUSH1 0x4 DUP1 CALLDATASIZE SUB DUP2 ADD SWAP1 PUSH2 0x1DC SWAP2 SWAP1 PUSH2 0x1127 JUMP JUMPDEST PUSH2 0x452 JUMP JUMPDEST STOP JUMPDEST PUSH2 0x1EB PUSH2 0x5E5 JUMP JUMPDEST PUSH1 0x40 MLOAD PUSH2 0x1F8 SWAP2 SWAP1 PUSH2 0x11A7 JUMP JUMPDEST PUSH1 0x40 MLOAD DUP1 SWAP2 SUB SWAP1 RETURN JUMPDEST PUSH2 0x209 PUSH2 0x60C JUMP JUMPDEST PUSH1 0x40 MLOAD PUSH2 0x216 SWAP2 SWAP1 PUSH2 0x11A7 JUMP JUMPDEST PUSH1 0x40 MLOAD DUP1 SWAP2 SUB SWAP1 RETURN JUMPDEST PUSH2 0x239 PUSH1 0x4 DUP1 CALLDATASIZE SUB DUP2 ADD SWAP1 PUSH2 0x234 SWAP2 SWAP1 PUSH2 0x1244 JUMP JUMPDEST PUSH2 0x633 JUMP JUMPDEST PUSH1 0x40 MLOAD PUSH2 0x246 SWAP2 SWAP1 PUSH2 0x11A7 JUMP JUMPDEST PUSH1 0x40 MLOAD DUP1 SWAP2 SUB SWAP1 RETURN JUMPDEST PUSH2 0x257 PUSH2 0x678 JUMP JUMPDEST PUSH1 0x40 MLOAD PUSH2 0x264 SWAP2 SWAP1 PUSH2 0x11A7 JUMP JUMPDEST PUSH1 0x40 MLOAD DUP1 SWAP2 SUB SWAP1 RETURN JUMPDEST PUSH2 0x275 PUSH2 0x69C JUMP JUMPDEST PUSH1 0x40 MLOAD PUSH2 0x282 SWAP2 SWAP1 PUSH2 0x11A7 JUMP JUMPDEST PUSH1 0x40 MLOAD DUP1 SWAP2 SUB SWAP1 RETURN JUMPDEST PUSH2 0x293 PUSH2 0x6A2 JUMP JUMPDEST PUSH1 0x40 MLOAD PUSH2 0x2A0 SWAP2 SWAP1 PUSH2 0x1076 JUMP JUMPDEST PUSH1 0x40 MLOAD DUP1 SWAP2 SUB SWAP1 RETURN JUMPDEST PUSH2 0x2C3 PUSH1 0x4 DUP1 CALLDATASIZE SUB DUP2 ADD SWAP1 PUSH2 0x2BE SWAP2 SWAP1 PUSH2 0x1127 JUMP JUMPDEST PUSH2 0x732 JUMP JUMPDEST STOP JUMPDEST PUSH2 0x2DF PUSH1 0x4 DUP1 CALLDATASIZE SUB DUP2 ADD SWAP1 PUSH2 0x2DA SWAP2 SWAP1 PUSH2 0x1127 JUMP JUMPDEST PUSH2 0x897 JUMP JUMPDEST PUSH1 0x40 MLOAD PUSH2 0x2EC SWAP2 SWAP1 PUSH2 0x117F JUMP JUMPDEST PUSH1 0x40 MLOAD DUP1 SWAP2 SUB SWAP1 RETURN JUMPDEST PUSH2 0x2FD PUSH2 0x8B9 JUMP JUMPDEST PUSH1 0x40 MLOAD PUSH2 0x30A SWAP2 SWAP1 PUSH2 0x127E JUMP JUMPDEST PUSH1 0x40 MLOAD DUP1 SWAP2 SUB SWAP1 RETURN JUMPDEST PUSH2 0x32D PUSH1 0x4 DUP1 CALLDATASIZE SUB DUP2 ADD SWAP1 PUSH2 0x328 SWAP2 SWAP1 PUSH2 0x1297 JUMP JUMPDEST PUSH2 0x8DE JUMP JUMPDEST PUSH1 0x40 MLOAD PUSH2 0x33A SWAP2 SWAP1 PUSH2 0x11A7 JUMP JUMPDEST PUSH1 0x40 MLOAD DUP1 SWAP2 SUB SWAP1 RETURN JUMPDEST PUSH2 0x34B PUSH2 0x960 JUMP JUMPDEST PUSH1 0x40 MLOAD PUSH2 0x358 SWAP2 SWAP1 PUSH2 0x11A7 JUMP JUMPDEST PUSH1 0x40 MLOAD DUP1 SWAP2 SUB SWAP1 RETURN JUMPDEST PUSH1 0x60 PUSH1 0x3 DUP1 SLOAD PUSH2 0x370 SWAP1 PUSH2 0x1302 JUMP JUMPDEST DUP1 PUSH1 0x1F ADD PUSH1 0x20 DUP1 SWAP2 DIV MUL PUSH1 0x20 ADD PUSH1 0x40 MLOAD SWAP1 DUP2 ADD PUSH1 0x40 MSTORE DUP1 SWAP3 SWAP2 SWAP1 DUP2 DUP2 MSTORE PUSH1 0x20 ADD DUP3 DUP1 SLOAD PUSH2 0x39C SWAP1 PUSH2 0x1302 JUMP JUMPDEST DUP1 ISZERO PUSH2 0x3E7 JUMPI DUP1 PUSH1 0x1F LT PUSH2 0x3BE JUMPI PUSH2 0x100 DUP1 DUP4 SLOAD DIV MUL DUP4 MSTORE SWAP2 PUSH1 0x20 ADD SWAP2 PUSH2 0x3E7 JUMP JUMPDEST DUP3 ADD SWAP2 SWAP1 PUSH0 MSTORE PUSH1 0x20 PUSH0 KECCAK256 SWAP1 JUMPDEST DUP2 SLOAD DUP2 MSTORE SWAP1 PUSH1 0x1 ADD SWAP1 PUSH1 0x20 ADD DUP1 DUP4 GT PUSH2 0x3CA JUMPI DUP3 SWAP1 SUB PUSH1 0x1F AND DUP3 ADD SWAP2 JUMPDEST POP POP POP POP POP SWAP1 POP SWAP1 JUMP JUMPDEST PUSH0 DUP1 PUSH2 0x3FB PUSH2 0x984 JUMP JUMPDEST SWAP1 POP PUSH2 0x408 DUP2 DUP6 DUP6 PUSH2 0x98B JUMP JUMPDEST PUSH1 0x1 SWAP2 POP POP SWAP3 SWAP2 POP POP JUMP JUMPDEST PUSH0 PUSH1 0x2 SLOAD SWAP1 POP SWAP1 JUMP JUMPDEST PUSH0 DUP1 PUSH2 0x426 PUSH2 0x984 JUMP JUMPDEST SWAP1 POP PUSH2 0x433 DUP6 DUP3 DUP6 PUSH2 0x99D JUMP JUMPDEST PUSH2 0x43E DUP6 DUP6 DUP6 PUSH2 0xA30 JUMP JUMPDEST PUSH1 0x1 SWAP2 POP POP SWAP4 SWAP3 POP POP POP JUMP JUMPDEST PUSH0 PUSH1 0x12 SWAP1 POP SWAP1 JUMP JUMPDEST PUSH1 0x6 PUSH0 SWAP1 SLOAD SWAP1 PUSH2 0x100 EXP SWAP1 DIV PUSH20 0xFFFFFFFFFFFFFFFFFFFFFFFFFFFFFFFFFFFFFFFF AND PUSH20 0xFFFFFFFFFFFFFFFFFFFFFFFFFFFFFFFFFFFFFFFF AND CALLER PUSH20 0xFFFFFFFFFFFFFFFFFFFFFFFFFFFFFFFFFFFFFFFF AND EQ PUSH2 0x4E1 JUMPI PUSH1 0x40 MLOAD PUSH32 0x8C379A000000000000000000000000000000000000000000000000000000000 DUP2 MSTORE PUSH1 0x4 ADD PUSH2 0x4D8 SWAP1 PUSH2 0x137C JUMP JUMPDEST PUSH1 0x40 MLOAD DUP1 SWAP2 SUB SWAP1 REVERT JUMPDEST PUSH0 PUSH20 0xFFFFFFFFFFFFFFFFFFFFFFFFFFFFFFFFFFFFFFFF AND DUP3 PUSH20 0xFFFFFFFFFFFFFFFFFFFFFFFFFFFFFFFFFFFFFFFF AND SUB PUSH2 0x54F JUMPI PUSH1 0x40 MLOAD PUSH32 0x8C379A000000000000000000000000000000000000000000000000000000000 DUP2 MSTORE PUSH1 0x4 ADD PUSH2 0x546 SWAP1 PUSH2 0x140A JUMP JUMPDEST PUSH1 0x40 MLOAD DUP1 SWAP2 SUB SWAP1 REVERT JUMPDEST PUSH32 0x0 DUP2 PUSH1 0x5 SLOAD PUSH2 0x57E SWAP2 SWAP1 PUSH2 0x1455 JUMP JUMPDEST GT ISZERO PUSH2 0x5BF JUMPI PUSH1 0x40 MLOAD PUSH32 0x8C379A000000000000000000000000000000000000000000000000000000000 DUP2 MSTORE PUSH1 0x4 ADD PUSH2 0x5B6 SWAP1 PUSH2 0x14D2 JUMP JUMPDEST PUSH1 0x40 MLOAD DUP1 SWAP2 SUB SWAP1 REVERT JUMPDEST DUP1 PUSH1 0x5 PUSH0 DUP3 DUP3 SLOAD PUSH2 0x5D0 SWAP2 SWAP1 PUSH2 0x1455 JUMP JUMPDEST SWAP3 POP POP DUP2 SWAP1 SSTORE POP PUSH2 0x5E1 DUP3 DUP3 PUSH2 0xB20 JUMP JUMPDEST POP POP JUMP JUMPDEST PUSH0 PUSH32 0x0 SWAP1 POP SWAP1 JUMP JUMPDEST PUSH0 PUSH32 0x0 SWAP1 POP SWAP1 JUMP JUMPDEST PUSH0 DUP1 PUSH0 DUP4 PUSH20 0xFFFFFFFFFFFFFFFFFFFFFFFFFFFFFFFFFFFFFFFF AND PUSH20 0xFFFFFFFFFFFFFFFFFFFFFFFFFFFFFFFFFFFFFFFF AND DUP2 MSTORE PUSH1 0x20 ADD SWAP1 DUP2 MSTORE PUSH1 0x20 ADD PUSH0 KECCAK256 SLOAD SWAP1 POP SWAP2 SWAP1 POP JUMP JUMPDEST PUSH32 0x0 DUP2 JUMP JUMPDEST PUSH1 0x5 SLOAD DUP2 JUMP JUMPDEST PUSH1 0x60 PUSH1 0x4 DUP1 SLOAD PUSH2 0x6B1 SWAP1 PUSH2 0x1302 JUMP JUMPDEST DUP1 PUSH1 0x1F ADD PUSH1 0x20 DUP1 SWAP2 DIV MUL PUSH1 0x20 ADD PUSH1 0x40 MLOAD SWAP1 DUP2 ADD PUSH1 0x40 MSTORE DUP1 SWAP3 SWAP2 SWAP1 DUP2 DUP2 MSTORE PUSH1 0x20 ADD DUP3 DUP1 SLOAD PUSH2 0x6DD SWAP1 PUSH2 0x1302 JUMP JUMPDEST DUP1 ISZERO PUSH2 0x728 JUMPI DUP1 PUSH1 0x1F LT PUSH2 0x6FF JUMPI PUSH2 0x100 DUP1 DUP4 SLOAD DIV MUL DUP4 MSTORE SWAP2 PUSH1 0x20 ADD SWAP2 PUSH2 0x728 JUMP JUMPDEST DUP3 ADD SWAP2 SWAP1 PUSH0 MSTORE PUSH1 0x20 PUSH0 KECCAK256 SWAP1 JUMPDEST DUP2 SLOAD DUP2 MSTORE SWAP1 PUSH1 0x1 ADD SWAP1 PUSH1 0x20 ADD DUP1 DUP4 GT PUSH2 0x70B JUMPI DUP3 SWAP1 SUB PUSH1 0x1F AND DUP3 ADD SWAP2 JUMPDEST POP POP POP POP POP SWAP1 POP SWAP1 JUMP JUMPDEST PUSH1 0x6 PUSH0 SWAP1 SLOAD SWAP1 PUSH2 0x100 EXP SWAP1 DIV PUSH20 0xFFFFFFFFFFFFFFFFFFFFFFFFFFFFFFFFFFFFFFFF AND PUSH20 0xFFFFFFFFFFFFFFFFFFFFFFFFFFFFFFFFFFFFFFFF AND CALLER PUSH20 0xFFFFFFFFFFFFFFFFFFFFFFFFFFFFFFFFFFFFFFFF AND EQ PUSH2 0x7C1 JUMPI PUSH1 0x40 MLOAD PUSH32 0x8C379A000000000000000000000000000000000000000000000000000000000 DUP2 MSTORE PUSH1 0x4 ADD PUSH2 0x7B8 SWAP1 PUSH2 0x137C JUMP JUMPDEST PUSH1 0x40 MLOAD DUP1 SWAP2 SUB SWAP1 REVERT JUMPDEST PUSH0 PUSH20 0xFFFFFFFFFFFFFFFFFFFFFFFFFFFFFFFFFFFFFFFF AND DUP3 PUSH20 0xFFFFFFFFFFFFFFFFFFFFFFFFFFFFFFFFFFFFFFFF AND SUB PUSH2 0x82F JUMPI PUSH1 0x40 MLOAD PUSH32 0x8C379A000000000000000000000000000000000000000000000000000000000 DUP2 MSTORE PUSH1 0x4 ADD PUSH2 0x826 SWAP1 PUSH2 0x140A JUMP JUMPDEST PUSH1 0x40 MLOAD DUP1 SWAP2 SUB SWAP1 REVERT JUMPDEST PUSH0 DUP2 GT PUSH2 0x871 JUMPI PUSH1 0x40 MLOAD PUSH32 0x8C379A000000000000000000000000000000000000000000000000000000000 DUP2 MSTORE PUSH1 0x4 ADD PUSH2 0x868 SWAP1 PUSH2 0x1560 JUMP JUMPDEST PUSH1 0x40 MLOAD DUP1 SWAP2 SUB SWAP1 REVERT JUMPDEST DUP1 PUSH1 0x5 PUSH0 DUP3 DUP3 SLOAD PUSH2 0x882 SWAP2 SWAP1 PUSH2 0x157E JUMP JUMPDEST SWAP3 POP POP DUP2 SWAP1 SSTORE POP PUSH2 0x893 DUP3 DUP3 PUSH2 0xB9F JUMP JUMPDEST POP POP JUMP JUMPDEST PUSH0 DUP1 PUSH2 0x8A1 PUSH2 0x984 JUMP JUMPDEST SWAP1 POP PUSH2 0x8AE DUP2 DUP6 DUP6 PUSH2 0xA30 JUMP JUMPDEST PUSH1 0x1 SWAP2 POP POP SWAP3 SWAP2 POP POP JUMP JUMPDEST PUSH1 0x6 PUSH0 SWAP1 SLOAD SWAP1 PUSH2 0x100 EXP SWAP1 DIV PUSH20 0xFFFFFFFFFFFFFFFFFFFFFFFFFFFFFFFFFFFFFFFF AND DUP2 JUMP JUMPDEST PUSH0 PUSH1 0x1 PUSH0 DUP5 PUSH20 0xFFFFFFFFFFFFFFFFFFFFFFFFFFFFFFFFFFFFFFFF AND PUSH20 0xFFFFFFFFFFFFFFFFFFFFFFFFFFFFFFFFFFFFFFFF AND DUP2 MSTORE PUSH1 0x20 ADD SWAP1 DUP2 MSTORE PUSH1 0x20 ADD PUSH0 KECCAK256 PUSH0 DUP4 PUSH20 0xFFFFFFFFFFFFFFFFFFFFFFFFFFFFFFFFFFFFFFFF AND PUSH20 0xFFFFFFFFFFFFFFFFFFFFFFFFFFFFFFFFFFFFFFFF AND DUP2 MSTORE PUSH1 0x20 ADD SWAP1 DUP2 MSTORE PUSH1 0x20 ADD PUSH0 KECCAK256 SLOAD SWAP1 POP SWAP3 SWAP2 POP POP JUMP JUMPDEST PUSH32 0x0 DUP2 JUMP JUMPDEST PUSH0 CALLER SWAP1 POP SWAP1 JUMP JUMPDEST PUSH2 0x998 DUP4 DUP4 DUP4 PUSH1 0x1 PUSH2 0xC1E JUMP JUMPDEST POP POP POP JUMP JUMPDEST PUSH0 PUSH2 0x9A8 DUP5 DUP5 PUSH2 0x8DE JUMP JUMPDEST SWAP1 POP PUSH32 0xFFFFFFFFFFFFFFFFFFFFFFFFFFFFFFFFFFFFFFFFFFFFFFFFFFFFFFFFFFFFFFFF DUP2 LT ISZERO PUSH2 0xA2A JUMPI DUP2 DUP2 LT ISZERO PUSH2 0xA1B JUMPI DUP3 DUP2 DUP4 PUSH1 0x40 MLOAD PUSH32 0xFB8F41B200000000000000000000000000000000000000000000000000000000 DUP2 MSTORE PUSH1 0x4 ADD PUSH2 0xA12 SWAP4 SWAP3 SWAP2 SWAP1 PUSH2 0x15B1 JUMP JUMPDEST PUSH1 0x40 MLOAD DUP1 SWAP2 SUB SWAP1 REVERT JUMPDEST PUSH2 0xA29 DUP5 DUP5 DUP5 DUP5 SUB PUSH0 PUSH2 0xC1E JUMP JUMPDEST JUMPDEST POP POP POP POP JUMP JUMPDEST PUSH0 PUSH20 0xFFFFFFFFFFFFFFFFFFFFFFFFFFFFFFFFFFFFFFFF AND DUP4 PUSH20 0xFFFFFFFFFFFFFFFFFFFFFFFFFFFFFFFFFFFFFFFF AND SUB PUSH2 0xAA0 JUMPI PUSH0 PUSH1 0x40 MLOAD PUSH32 0x96C6FD1E00000000000000000000000000000000000000000000000000000000 DUP2 MSTORE PUSH1 0x4 ADD PUSH2 0xA97 SWAP2 SWAP1 PUSH2 0x127E JUMP JUMPDEST PUSH1 0x40 MLOAD DUP1 SWAP2 SUB SWAP1 REVERT JUMPDEST PUSH0 PUSH20 0xFFFFFFFFFFFFFFFFFFFFFFFFFFFFFFFFFFFFFFFF AND DUP3 PUSH20 0xFFFFFFFFFFFFFFFFFFFFFFFFFFFFFFFFFFFFFFFF AND SUB PUSH2 0xB10 JUMPI PUSH0 PUSH1 0x40 MLOAD PUSH32 0xEC442F0500000000000000000000000000000000000000000000000000000000 DUP2 MSTORE PUSH1 0x4 ADD PUSH2 0xB07 SWAP2 SWAP1 PUSH2 0x127E JUMP JUMPDEST PUSH1 0x40 MLOAD DUP1 SWAP2 SUB SWAP1 REVERT JUMPDEST PUSH2 0xB1B DUP4 DUP4 DUP4 PUSH2 0xDED JUMP JUMPDEST POP POP POP JUMP JUMPDEST PUSH0 PUSH20 0xFFFFFFFFFFFFFFFFFFFFFFFFFFFFFFFFFFFFFFFF AND DUP3 PUSH20 0xFFFFFFFFFFFFFFFFFFFFFFFFFFFFFFFFFFFFFFFF AND SUB PUSH2 0xB90 JUMPI PUSH0 PUSH1 0x40 MLOAD PUSH32 0xEC442F0500000000000000000000000000000000000000000000000000000000 DUP2 MSTORE PUSH1 0x4 ADD PUSH2 0xB87 SWAP2 SWAP1 PUSH2 0x127E JUMP JUMPDEST PUSH1 0x40 MLOAD DUP1 SWAP2 SUB SWAP1 REVERT JUMPDEST PUSH2 0xB9B PUSH0 DUP4 DUP4 PUSH2 0xDED JUMP JUMPDEST POP POP JUMP JUMPDEST PUSH0 PUSH20 0xFFFFFFFFFFFFFFFFFFFFFFFFFFFFFFFFFFFFFFFF AND DUP3 PUSH20 0xFFFFFFFFFFFFFFFFFFFFFFFFFFFFFFFFFFFFFFFF AND SUB PUSH2 0xC0F JUMPI PUSH0 PUSH1 0x40 MLOAD PUSH32 0x96C6FD1E00000000000000000000000000000000000000000000000000000000 DUP2 MSTORE PUSH1 0x4 ADD PUSH2 0xC06 SWAP2 SWAP1 PUSH2 0x127E JUMP JUMPDEST PUSH1 0x40 MLOAD DUP1 SWAP2 SUB SWAP1 REVERT JUMPDEST PUSH2 0xC1A DUP3 PUSH0 DUP4 PUSH2 0xDED JUMP JUMPDEST POP POP JUMP JUMPDEST PUSH0 PUSH20 0xFFFFFFFFFFFFFFFFFFFFFFFFFFFFFFFFFFFFFFFF AND DUP5 PUSH20 0xFFFFFFFFFFFFFFFFFFFFFFFFFFFFFFFFFFFFFFFF AND SUB PUSH2 0xC8E JUMPI PUSH0 PUSH1 0x40 MLOAD PUSH32 0xE602DF0500000000000000000000000000000000000000000000000000000000 DUP2 MSTORE PUSH1 0x4 ADD PUSH2 0xC85 SWAP2 SWAP1 PUSH2 0x127E JUMP JUMPDEST PUSH1 0x40 MLOAD DUP1 SWAP2 SUB SWAP1 REVERT JUMPDEST PUSH0 PUSH20 0xFFFFFFFFFFFFFFFFFFFFFFFFFFFFFFFFFFFFFFFF AND DUP4 PUSH20 0xFFFFFFFFFFFFFFFFFFFFFFFFFFFFFFFFFFFFFFFF AND SUB PUSH2 0xCFE JUMPI PUSH0 PUSH1 0x40 MLOAD PUSH32 0x94280D6200000000000000000000000000000000000000000000000000000000 DUP2 MSTORE PUSH1 0x4 ADD PUSH2 0xCF5 SWAP2 SWAP1 PUSH2 0x127E JUMP JUMPDEST PUSH1 0x40 MLOAD DUP1 SWAP2 SUB SWAP1 REVERT JUMPDEST DUP2 PUSH1 0x1 PUSH0 DUP7 PUSH20 0xFFFFFFFFFFFFFFFFFFFFFFFFFFFFFFFFFFFFFFFF AND PUSH20 0xFFFFFFFFFFFFFFFFFFFFFFFFFFFFFFFFFFFFFFFF AND DUP2 MSTORE PUSH1 0x20 ADD SWAP1 DUP2 MSTORE PUSH1 0x20 ADD PUSH0 KECCAK256 PUSH0 DUP6 PUSH20 0xFFFFFFFFFFFFFFFFFFFFFFFFFFFFFFFFFFFFFFFF AND PUSH20 0xFFFFFFFFFFFFFFFFFFFFFFFFFFFFFFFFFFFFFFFF AND DUP2 MSTORE PUSH1 0x20 ADD SWAP1 DUP2 MSTORE PUSH1 0x20 ADD PUSH0 KECCAK256 DUP2 SWAP1 SSTORE POP DUP1 ISZERO PUSH2 0xDE7 JUMPI DUP3 PUSH20 0xFFFFFFFFFFFFFFFFFFFFFFFFFFFFFFFFFFFFFFFF AND DUP5 PUSH20 0xFFFFFFFFFFFFFFFFFFFFFFFFFFFFFFFFFFFFFFFF AND PUSH32 0x8C5BE1E5EBEC7D5BD14F71427D1E84F3DD0314C0F7B2291E5B200AC8C7C3B925 DUP5 PUSH1 0x40 MLOAD PUSH2 0xDDE SWAP2 SWAP1 PUSH2 0x11A7 JUMP JUMPDEST PUSH1 0x40 MLOAD DUP1 SWAP2 SUB SWAP1 LOG3 JUMPDEST POP POP POP POP JUMP JUMPDEST PUSH0 PUSH20 0xFFFFFFFFFFFFFFFFFFFFFFFFFFFFFFFFFFFFFFFF AND DUP4 PUSH20 0xFFFFFFFFFFFFFFFFFFFFFFFFFFFFFFFFFFFFFFFF AND SUB PUSH2 0xE3D JUMPI DUP1 PUSH1 0x2 PUSH0 DUP3 DUP3 SLOAD PUSH2 0xE31 SWAP2 SWAP1 PUSH2 0x1455 JUMP JUMPDEST SWAP3 POP POP DUP2 SWAP1 SSTORE POP PUSH2 0xF0B JUMP JUMPDEST PUSH0 DUP1 PUSH0 DUP6 PUSH20 0xFFFFFFFFFFFFFFFFFFFFFFFFFFFFFFFFFFFFFFFF AND PUSH20 0xFFFFFFFFFFFFFFFFFFFFFFFFFFFFFFFFFFFFFFFF AND DUP2 MSTORE PUSH1 0x20 ADD SWAP1 DUP2 MSTORE PUSH1 0x20 ADD PUSH0 KECCAK256 SLOAD SWAP1 POP DUP2 DUP2 LT ISZERO PUSH2 0xEC6 JUMPI DUP4 DUP2 DUP4 PUSH1 0x40 MLOAD PUSH32 0xE450D38C00000000000000000000000000000000000000000000000000000000 DUP2 MSTORE PUSH1 0x4 ADD PUSH2 0xEBD SWAP4 SWAP3 SWAP2 SWAP1 PUSH2 0x15B1 JUMP JUMPDEST PUSH1 0x40 MLOAD DUP1 SWAP2 SUB SWAP1 REVERT JUMPDEST DUP2 DUP2 SUB PUSH0 DUP1 DUP7 PUSH20 0xFFFFFFFFFFFFFFFFFFFFFFFFFFFFFFFFFFFFFFFF AND PUSH20 0xFFFFFFFFFFFFFFFFFFFFFFFFFFFFFFFFFFFFFFFF AND DUP2 MSTORE PUSH1 0x20 ADD SWAP1 DUP2 MSTORE PUSH1 0x20 ADD PUSH0 KECCAK256 DUP2 SWAP1 SSTORE POP POP JUMPDEST PUSH0 PUSH20 0xFFFFFFFFFFFFFFFFFFFFFFFFFFFFFFFFFFFFFFFF AND DUP3 PUSH20 0xFFFFFFFFFFFFFFFFFFFFFFFFFFFFFFFFFFFFFFFF AND SUB PUSH2 0xF52 JUMPI DUP1 PUSH1 0x2 PUSH0 DUP3 DUP3 SLOAD SUB SWAP3 POP POP DUP2 SWAP1 SSTORE POP PUSH2 0xF9C JUMP JUMPDEST DUP1 PUSH0 DUP1 DUP5 PUSH20 0xFFFFFFFFFFFFFFFFFFFFFFFFFFFFFFFFFFFFFFFF AND PUSH20 0xFFFFFFFFFFFFFFFFFFFFFFFFFFFFFFFFFFFFFFFF AND DUP2 MSTORE PUSH1 0x20 ADD SWAP1 DUP2 MSTORE PUSH1 0x20 ADD PUSH0 KECCAK256 PUSH0 DUP3 DUP3 SLOAD ADD SWAP3 POP POP DUP2 SWAP1 SSTORE POP JUMPDEST DUP2 PUSH20 0xFFFFFFFFFFFFFFFFFFFFFFFFFFFFFFFFFFFFFFFF AND DUP4 PUSH20 0xFFFFFFFFFFFFFFFFFFFFFFFFFFFFFFFFFFFFFFFF AND PUSH32 0xDDF252AD1BE2C89B69C2B068FC378DAA952BA7F163C4A11628F55A4DF523B3EF DUP4 PUSH1 0x40 MLOAD PUSH2 0xFF9 SWAP2 SWAP1 PUSH2 0x11A7 JUMP JUMPDEST PUSH1 0x40 MLOAD DUP1 SWAP2 SUB SWAP1 LOG3 POP POP POP JUMP JUMPDEST PUSH0 DUP2 MLOAD SWAP1 POP SWAP2 SWAP1 POP JUMP JUMPDEST PUSH0 DUP3 DUP3 MSTORE PUSH1 0x20 DUP3 ADD SWAP1 POP SWAP3 SWAP2 POP POP JUMP JUMPDEST DUP3 DUP2 DUP4 MCOPY PUSH0 DUP4 DUP4 ADD MSTORE POP POP POP JUMP JUMPDEST PUSH0 PUSH1 0x1F NOT PUSH1 0x1F DUP4 ADD AND SWAP1 POP SWAP2 SWAP1 POP JUMP JUMPDEST PUSH0 PUSH2 0x1048 DUP3 PUSH2 0x1006 JUMP JUMPDEST PUSH2 0x1052 DUP2 DUP6 PUSH2 0x1010 JUMP JUMPDEST SWAP4 POP PUSH2 0x1062 DUP2 DUP6 PUSH1 0x20 DUP7 ADD PUSH2 0x1020 JUMP JUMPDEST PUSH2 0x106B DUP2 PUSH2 0x102E JUMP JUMPDEST DUP5 ADD SWAP2 POP POP SWAP3 SWAP2 POP POP JUMP JUMPDEST PUSH0 PUSH1 0x20 DUP3 ADD SWAP1 POP DUP2 DUP2 SUB PUSH0 DUP4 ADD MSTORE PUSH2 0x108E DUP2 DUP5 PUSH2 0x103E JUMP JUMPDEST SWAP1 POP SWAP3 SWAP2 POP POP JUMP JUMPDEST PUSH0 DUP1 REVERT JUMPDEST PUSH0 PUSH20 0xFFFFFFFFFFFFFFFFFFFFFFFFFFFFFFFFFFFFFFFF DUP3 AND SWAP1 POP SWAP2 SWAP1 POP JUMP JUMPDEST PUSH0 PUSH2 0x10C3 DUP3 PUSH2 0x109A JUMP JUMPDEST SWAP1 POP SWAP2 SWAP1 POP JUMP JUMPDEST PUSH2 0x10D3 DUP2 PUSH2 0x10B9 JUMP JUMPDEST DUP2 EQ PUSH2 0x10DD JUMPI PUSH0 DUP1 REVERT JUMPDEST POP JUMP JUMPDEST PUSH0 DUP2 CALLDATALOAD SWAP1 POP PUSH2 0x10EE DUP2 PUSH2 0x10CA JUMP JUMPDEST SWAP3 SWAP2 POP POP JUMP JUMPDEST PUSH0 DUP2 SWAP1 POP SWAP2 SWAP1 POP JUMP JUMPDEST PUSH2 0x1106 DUP2 PUSH2 0x10F4 JUMP JUMPDEST DUP2 EQ PUSH2 0x1110 JUMPI PUSH0 DUP1 REVERT JUMPDEST POP JUMP JUMPDEST PUSH0 DUP2 CALLDATALOAD SWAP1 POP PUSH2 0x1121 DUP2 PUSH2 0x10FD JUMP JUMPDEST SWAP3 SWAP2 POP POP JUMP JUMPDEST PUSH0 DUP1 PUSH1 0x40 DUP4 DUP6 SUB SLT ISZERO PUSH2 0x113D JUMPI PUSH2 0x113C PUSH2 0x1096 JUMP JUMPDEST JUMPDEST PUSH0 PUSH2 0x114A DUP6 DUP3 DUP7 ADD PUSH2 0x10E0 JUMP JUMPDEST SWAP3 POP POP PUSH1 0x20 PUSH2 0x115B DUP6 DUP3 DUP7 ADD PUSH2 0x1113 JUMP JUMPDEST SWAP2 POP POP SWAP3 POP SWAP3 SWAP1 POP JUMP JUMPDEST PUSH0 DUP2 ISZERO ISZERO SWAP1 POP SWAP2 SWAP1 POP JUMP JUMPDEST PUSH2 0x1179 DUP2 PUSH2 0x1165 JUMP JUMPDEST DUP3 MSTORE POP POP JUMP JUMPDEST PUSH0 PUSH1 0x20 DUP3 ADD SWAP1 POP PUSH2 0x1192 PUSH0 DUP4 ADD DUP5 PUSH2 0x1170 JUMP JUMPDEST SWAP3 SWAP2 POP POP JUMP JUMPDEST PUSH2 0x11A1 DUP2 PUSH2 0x10F4 JUMP JUMPDEST DUP3 MSTORE POP POP JUMP JUMPDEST PUSH0 PUSH1 0x20 DUP3 ADD SWAP1 POP PUSH2 0x11BA PUSH0 DUP4 ADD DUP5 PUSH2 0x1198 JUMP JUMPDEST SWAP3 SWAP2 POP POP JUMP JUMPDEST PUSH0 DUP1 PUSH0 PUSH1 0x60 DUP5 DUP7 SUB SLT ISZERO PUSH2 0x11D7 JUMPI PUSH2 0x11D6 PUSH2 0x1096 JUMP JUMPDEST JUMPDEST PUSH0 PUSH2 0x11E4 DUP7 DUP3 DUP8 ADD PUSH2 0x10E0 JUMP JUMPDEST SWAP4 POP POP PUSH1 0x20 PUSH2 0x11F5 DUP7 DUP3 DUP8 ADD PUSH2 0x10E0 JUMP JUMPDEST SWAP3 POP POP PUSH1 0x40 PUSH2 0x1206 DUP7 DUP3 DUP8 ADD PUSH2 0x1113 JUMP JUMPDEST SWAP2 POP POP SWAP3 POP SWAP3 POP SWAP3 JUMP JUMPDEST PUSH0 PUSH1 0xFF DUP3 AND SWAP1 POP SWAP2 SWAP1 POP JUMP JUMPDEST PUSH2 0x1225 DUP2 PUSH2 0x1210 JUMP JUMPDEST DUP3 MSTORE POP POP JUMP JUMPDEST PUSH0 PUSH1 0x20 DUP3 ADD SWAP1 POP PUSH2 0x123E PUSH0 DUP4 ADD DUP5 PUSH2 0x121C JUMP JUMPDEST SWAP3 SWAP2 POP POP JUMP JUMPDEST PUSH0 PUSH1 0x20 DUP3 DUP5 SUB SLT ISZERO PUSH2 0x1259 JUMPI PUSH2 0x1258 PUSH2 0x1096 JUMP JUMPDEST JUMPDEST PUSH0 PUSH2 0x1266 DUP5 DUP3 DUP6 ADD PUSH2 0x10E0 JUMP JUMPDEST SWAP2 POP POP SWAP3 SWAP2 POP POP JUMP JUMPDEST PUSH2 0x1278 DUP2 PUSH2 0x10B9 JUMP JUMPDEST DUP3 MSTORE POP POP JUMP JUMPDEST PUSH0 PUSH1 0x20 DUP3 ADD SWAP1 POP PUSH2 0x1291 PUSH0 DUP4 ADD DUP5 PUSH2 0x126F JUMP JUMPDEST SWAP3 SWAP2 POP POP JUMP JUMPDEST PUSH0 DUP1 PUSH1 0x40 DUP4 DUP6 SUB SLT ISZERO PUSH2 0x12AD JUMPI PUSH2 0x12AC PUSH2 0x1096 JUMP JUMPDEST JUMPDEST PUSH0 PUSH2 0x12BA DUP6 DUP3 DUP7 ADD PUSH2 0x10E0 JUMP JUMPDEST SWAP3 POP POP PUSH1 0x20 PUSH2 0x12CB DUP6 DUP3 DUP7 ADD PUSH2 0x10E0 JUMP JUMPDEST SWAP2 POP POP SWAP3 POP SWAP3 SWAP1 POP JUMP JUMPDEST PUSH32 0x4E487B7100000000000000000000000000000000000000000000000000000000 PUSH0 MSTORE PUSH1 0x22 PUSH1 0x4 MSTORE PUSH1 0x24 PUSH0 REVERT JUMPDEST PUSH0 PUSH1 0x2 DUP3 DIV SWAP1 POP PUSH1 0x1 DUP3 AND DUP1 PUSH2 0x1319 JUMPI PUSH1 0x7F DUP3 AND SWAP2 POP JUMPDEST PUSH1 0x20 DUP3 LT DUP2 SUB PUSH2 0x132C JUMPI PUSH2 0x132B PUSH2 0x12D5 JUMP JUMPDEST JUMPDEST POP SWAP2 SWAP1 POP JUMP JUMPDEST PUSH32 0x536F6C6F207075656465206C6C616D617220656C206F776E6572000000000000 PUSH0 DUP3 ADD MSTORE POP JUMP JUMPDEST PUSH0 PUSH2 0x1366 PUSH1 0x1A DUP4 PUSH2 0x1010 JUMP JUMPDEST SWAP2 POP PUSH2 0x1371 DUP3 PUSH2 0x1332 JUMP JUMPDEST PUSH1 0x20 DUP3 ADD SWAP1 POP SWAP2 SWAP1 POP JUMP JUMPDEST PUSH0 PUSH1 0x20 DUP3 ADD SWAP1 POP DUP2 DUP2 SUB PUSH0 DUP4 ADD MSTORE PUSH2 0x1393 DUP2 PUSH2 0x135A JUMP JUMPDEST SWAP1 POP SWAP2 SWAP1 POP JUMP JUMPDEST PUSH32 0x4C6120646972656363696F6E2064657374696E6F206E6F2065732076616C6964 PUSH0 DUP3 ADD MSTORE PUSH32 0x6100000000000000000000000000000000000000000000000000000000000000 PUSH1 0x20 DUP3 ADD MSTORE POP JUMP JUMPDEST PUSH0 PUSH2 0x13F4 PUSH1 0x21 DUP4 PUSH2 0x1010 JUMP JUMPDEST SWAP2 POP PUSH2 0x13FF DUP3 PUSH2 0x139A JUMP JUMPDEST PUSH1 0x40 DUP3 ADD SWAP1 POP SWAP2 SWAP1 POP JUMP JUMPDEST PUSH0 PUSH1 0x20 DUP3 ADD SWAP1 POP DUP2 DUP2 SUB PUSH0 DUP4 ADD MSTORE PUSH2 0x1421 DUP2 PUSH2 0x13E8 JUMP JUMPDEST SWAP1 POP SWAP2 SWAP1 POP JUMP JUMPDEST PUSH32 0x4E487B7100000000000000000000000000000000000000000000000000000000 PUSH0 MSTORE PUSH1 0x11 PUSH1 0x4 MSTORE PUSH1 0x24 PUSH0 REVERT JUMPDEST PUSH0 PUSH2 0x145F DUP3 PUSH2 0x10F4 JUMP JUMPDEST SWAP2 POP PUSH2 0x146A DUP4 PUSH2 0x10F4 JUMP JUMPDEST SWAP3 POP DUP3 DUP3 ADD SWAP1 POP DUP1 DUP3 GT ISZERO PUSH2 0x1482 JUMPI PUSH2 0x1481 PUSH2 0x1428 JUMP JUMPDEST JUMPDEST SWAP3 SWAP2 POP POP JUMP JUMPDEST PUSH32 0x4E6F2073652070756564656E20656D69746972206D617320746F6B656E732100 PUSH0 DUP3 ADD MSTORE POP JUMP JUMPDEST PUSH0 PUSH2 0x14BC PUSH1 0x1F DUP4 PUSH2 0x1010 JUMP JUMPDEST SWAP2 POP PUSH2 0x14C7 DUP3 PUSH2 0x1488 JUMP JUMPDEST PUSH1 0x20 DUP3 ADD SWAP1 POP SWAP2 SWAP1 POP JUMP JUMPDEST PUSH0 PUSH1 0x20 DUP3 ADD SWAP1 POP DUP2 DUP2 SUB PUSH0 DUP4 ADD MSTORE PUSH2 0x14E9 DUP2 PUSH2 0x14B0 JUMP JUMPDEST SWAP1 POP SWAP2 SWAP1 POP JUMP JUMPDEST PUSH32 0x4E6F20736520707565646520656C696D696E61722030206E6920756E206E756D PUSH0 DUP3 ADD MSTORE PUSH32 0x65726F206E6567617469766F20646520746F6B656E732E000000000000000000 PUSH1 0x20 DUP3 ADD MSTORE POP JUMP JUMPDEST PUSH0 PUSH2 0x154A PUSH1 0x37 DUP4 PUSH2 0x1010 JUMP JUMPDEST SWAP2 POP PUSH2 0x1555 DUP3 PUSH2 0x14F0 JUMP JUMPDEST PUSH1 0x40 DUP3 ADD SWAP1 POP SWAP2 SWAP1 POP JUMP JUMPDEST PUSH0 PUSH1 0x20 DUP3 ADD SWAP1 POP DUP2 DUP2 SUB PUSH0 DUP4 ADD MSTORE PUSH2 0x1577 DUP2 PUSH2 0x153E JUMP JUMPDEST SWAP1 POP SWAP2 SWAP1 POP JUMP JUMPDEST PUSH0 PUSH2 0x1588 DUP3 PUSH2 0x10F4 JUMP JUMPDEST SWAP2 POP PUSH2 0x1593 DUP4 PUSH2 0x10F4 JUMP JUMPDEST SWAP3 POP DUP3 DUP3 SUB SWAP1 POP DUP2 DUP2 GT ISZERO PUSH2 0x15AB JUMPI PUSH2 0x15AA PUSH2 0x1428 JUMP JUMPDEST JUMPDEST SWAP3 SWAP2 POP POP JUMP JUMPDEST PUSH0 PUSH1 0x60 DUP3 ADD SWAP1 POP PUSH2 0x15C4 PUSH0 DUP4 ADD DUP7 PUSH2 0x126F JUMP JUMPDEST PUSH2 0x15D1 PUSH1 0x20 DUP4 ADD DUP6 PUSH2 0x1198 JUMP JUMPDEST PUSH2 0x15DE PUSH1 0x40 DUP4 ADD DUP5 PUSH2 0x1198 JUMP JUMPDEST SWAP5 SWAP4 POP POP POP POP JUMP INVALID LOG2 PUSH5 0x6970667358 0x22 SLT KECCAK256 0x2E 0xD8 PUSH28 0xD446A752E1EE263B563C78F435AEB327CB9AA07A9911055151AEF73 0xC4 PUSH5 0x736F6C6343 STOP ADDMOD BYTE STOP CALLER "
		},
		"gasEstimates": {
			"creation": {
				"codeDepositCost": "4798600",
				"executionCost": "infinite",
				"totalCost": "infinite"
			},
			"external": {
				"addParticipant()": "infinite",
				"addProposal(string,string,uint256,address)": "infinite",
				"buyTokens()": "infinite",
				"cancelProposal(uint256)": "infinite",
				"closeVoting()": "infinite",
				"getAllowance()": "infinite",
				"getApprovedProposals()": "infinite",
				"getBalanceParticipant(address)": "infinite",
				"getERC20()": "infinite",
				"getPendingProposals()": "infinite",
				"getProposalInfo(uint256)": "infinite",
				"getSignalingProposals()": "infinite",
				"openVoting()": "infinite",
				"removeParticipant()": "51133",
				"sellTokens(uint256)": "infinite",
				"stake(uint256,uint256)": "infinite",
				"withdrawFromProposal(uint256,uint256)": "infinite"
			},
			"internal": {
				"_checkAndExecuteProposal(uint256)": "infinite",
				"calculateThresold(uint256)": "infinite",
				"removeFromArrayAndMapping(uint256[] storage pointer,mapping(uint256 => uint256),uint256)": "infinite",
				"transferTokens(address,uint256)": "infinite"
			}
		},
		"methodIdentifiers": {
			"addParticipant()": "fffefd91",
			"addProposal(string,string,uint256,address)": "9ab3f7a6",
			"buyTokens()": "d0febe4c",
			"cancelProposal(uint256)": "e0a8f6f5",
			"closeVoting()": "c631b292",
			"getAllowance()": "973e9b8b",
			"getApprovedProposals()": "3ac0feac",
			"getBalanceParticipant(address)": "52cb42bc",
			"getERC20()": "4ece90a8",
			"getPendingProposals()": "a80db6fc",
			"getProposalInfo(uint256)": "bc903cb8",
			"getSignalingProposals()": "8e08a50b",
			"openVoting()": "affc0670",
			"removeParticipant()": "3d571e97",
			"sellTokens(uint256)": "6c11bcd3",
			"stake(uint256,uint256)": "7b0472f0",
			"withdrawFromProposal(uint256,uint256)": "649c649c"
		}
	},
	"abi": [
		{
			"inputs": [
				{
					"internalType": "uint256",
					"name": "_tokenPrice",
					"type": "uint256"
				},
				{
					"internalType": "uint256",
					"name": "_maxTokens",
					"type": "uint256"
				}
			],
			"stateMutability": "nonpayable",
			"type": "constructor"
		},
		{
			"anonymous": false,
			"inputs": [
				{
					"indexed": true,
					"internalType": "uint256",
					"name": "proposalId",
					"type": "uint256"
				}
			],
			"name": "NewProposal",
			"type": "event"
		},
		{
			"anonymous": false,
			"inputs": [
				{
					"indexed": true,
					"internalType": "uint256",
					"name": "proposalId",
					"type": "uint256"
				}
			],
			"name": "ProposalApproved",
			"type": "event"
		},
		{
			"anonymous": false,
			"inputs": [
				{
					"indexed": true,
					"internalType": "uint256",
					"name": "proposalId",
					"type": "uint256"
				}
			],
			"name": "ProposalCanceled",
			"type": "event"
		},
		{
			"anonymous": false,
			"inputs": [],
			"name": "VotingClosed",
			"type": "event"
		},
		{
			"anonymous": false,
			"inputs": [],
			"name": "VotingOpen",
			"type": "event"
		},
		{
			"inputs": [],
			"name": "addParticipant",
			"outputs": [],
			"stateMutability": "payable",
			"type": "function"
		},
		{
			"inputs": [
				{
					"internalType": "string",
					"name": "title",
					"type": "string"
				},
				{
					"internalType": "string",
					"name": "description",
					"type": "string"
				},
				{
					"internalType": "uint256",
					"name": "budget",
					"type": "uint256"
				},
				{
					"internalType": "address",
					"name": "proposalContract",
					"type": "address"
				}
			],
			"name": "addProposal",
			"outputs": [
				{
					"internalType": "uint256",
					"name": "",
					"type": "uint256"
				}
			],
			"stateMutability": "nonpayable",
			"type": "function"
		},
		{
			"inputs": [],
			"name": "buyTokens",
			"outputs": [],
			"stateMutability": "payable",
			"type": "function"
		},
		{
			"inputs": [
				{
					"internalType": "uint256",
					"name": "idProposal",
					"type": "uint256"
				}
			],
			"name": "cancelProposal",
			"outputs": [],
			"stateMutability": "nonpayable",
			"type": "function"
		},
		{
			"inputs": [],
			"name": "closeVoting",
			"outputs": [],
			"stateMutability": "nonpayable",
			"type": "function"
		},
		{
			"inputs": [],
			"name": "getAllowance",
			"outputs": [
				{
					"internalType": "uint256",
					"name": "",
					"type": "uint256"
				}
			],
			"stateMutability": "view",
			"type": "function"
		},
		{
			"inputs": [],
			"name": "getApprovedProposals",
			"outputs": [
				{
					"internalType": "uint256[]",
					"name": "",
					"type": "uint256[]"
				}
			],
			"stateMutability": "view",
			"type": "function"
		},
		{
			"inputs": [
				{
					"internalType": "address",
					"name": "p",
					"type": "address"
				}
			],
			"name": "getBalanceParticipant",
			"outputs": [
				{
					"internalType": "uint256",
					"name": "",
					"type": "uint256"
				}
			],
			"stateMutability": "view",
			"type": "function"
		},
		{
			"inputs": [],
			"name": "getERC20",
			"outputs": [
				{
					"internalType": "contract VotingContract",
					"name": "",
					"type": "address"
				}
			],
			"stateMutability": "view",
			"type": "function"
		},
		{
			"inputs": [],
			"name": "getPendingProposals",
			"outputs": [
				{
					"internalType": "uint256[]",
					"name": "",
					"type": "uint256[]"
				}
			],
			"stateMutability": "view",
			"type": "function"
		},
		{
			"inputs": [
				{
					"internalType": "uint256",
					"name": "idProposal",
					"type": "uint256"
				}
			],
			"name": "getProposalInfo",
			"outputs": [
				{
					"components": [
						{
							"internalType": "uint256",
							"name": "id",
							"type": "uint256"
						},
						{
							"internalType": "string",
							"name": "_title",
							"type": "string"
						},
						{
							"internalType": "string",
							"name": "_description",
							"type": "string"
						},
						{
							"internalType": "uint256",
							"name": "_budget",
							"type": "uint256"
						},
						{
							"internalType": "uint256",
							"name": "_votes",
							"type": "uint256"
						},
						{
							"internalType": "uint256",
							"name": "_umbral",
							"type": "uint256"
						},
						{
							"internalType": "address",
							"name": "_contractProposal",
							"type": "address"
						},
						{
							"internalType": "address",
							"name": "_creator",
							"type": "address"
						},
						{
							"internalType": "bool",
							"name": "_isSignaling",
							"type": "bool"
						},
						{
							"internalType": "bool",
							"name": "_isApproved",
							"type": "bool"
						},
						{
							"internalType": "bool",
							"name": "_isCanceled",
							"type": "bool"
						},
						{
							"internalType": "uint256",
							"name": "_numTokens",
							"type": "uint256"
						},
						{
							"internalType": "address[]",
							"name": "_voters",
							"type": "address[]"
						}
					],
					"internalType": "struct QuadraticVoting.Proposal",
					"name": "",
					"type": "tuple"
				}
			],
			"stateMutability": "view",
			"type": "function"
		},
		{
			"inputs": [],
			"name": "getSignalingProposals",
			"outputs": [
				{
					"internalType": "uint256[]",
					"name": "",
					"type": "uint256[]"
				}
			],
			"stateMutability": "view",
			"type": "function"
		},
		{
			"inputs": [],
			"name": "openVoting",
			"outputs": [],
			"stateMutability": "payable",
			"type": "function"
		},
		{
			"inputs": [],
			"name": "removeParticipant",
			"outputs": [],
			"stateMutability": "nonpayable",
			"type": "function"
		},
		{
			"inputs": [
				{
					"internalType": "uint256",
					"name": "tokensToSell",
					"type": "uint256"
				}
			],
			"name": "sellTokens",
			"outputs": [],
			"stateMutability": "nonpayable",
			"type": "function"
		},
		{
			"inputs": [
				{
					"internalType": "uint256",
					"name": "idProposal",
					"type": "uint256"
				},
				{
					"internalType": "uint256",
					"name": "voteAmount",
					"type": "uint256"
				}
			],
			"name": "stake",
			"outputs": [],
			"stateMutability": "nonpayable",
			"type": "function"
		},
		{
			"inputs": [
				{
					"internalType": "uint256",
					"name": "voteAmount",
					"type": "uint256"
				},
				{
					"internalType": "uint256",
					"name": "idProposal",
					"type": "uint256"
				}
			],
			"name": "withdrawFromProposal",
			"outputs": [],
			"stateMutability": "nonpayable",
			"type": "function"
		}
	]
}