{
	"PRACTICA 5/librerias_y_tokens.sol": {
		"MonsterTokens": {
			"abi": [
				{
					"inputs": [],
					"stateMutability": "nonpayable",
					"type": "constructor"
				},
				{
					"anonymous": false,
					"inputs": [
						{
							"indexed": true,
							"internalType": "address",
							"name": "_owner",
							"type": "address"
						},
						{
							"indexed": true,
							"internalType": "address",
							"name": "_approved",
							"type": "address"
						},
						{
							"indexed": true,
							"internalType": "uint256",
							"name": "_tokenId",
							"type": "uint256"
						}
					],
					"name": "Approval",
					"type": "event"
				},
				{
					"anonymous": false,
					"inputs": [
						{
							"indexed": true,
							"internalType": "address",
							"name": "_from",
							"type": "address"
						},
						{
							"indexed": true,
							"internalType": "address",
							"name": "_to",
							"type": "address"
						},
						{
							"indexed": true,
							"internalType": "uint256",
							"name": "_tokenId",
							"type": "uint256"
						}
					],
					"name": "Transfer",
					"type": "event"
				},
				{
					"inputs": [],
					"name": "WEIS_NECESARIOS",
					"outputs": [
						{
							"internalType": "uint256",
							"name": "",
							"type": "uint256"
						}
					],
					"stateMutability": "view",
					"type": "function"
				},
				{
					"inputs": [
						{
							"internalType": "uint256",
							"name": "character_tokenId",
							"type": "uint256"
						},
						{
							"internalType": "string",
							"name": "weapon_name",
							"type": "string"
						},
						{
							"internalType": "uint256",
							"name": "fire_power",
							"type": "uint256"
						}
					],
					"name": "addWeapon",
					"outputs": [],
					"stateMutability": "payable",
					"type": "function"
				},
				{
					"inputs": [
						{
							"internalType": "address",
							"name": "_approved",
							"type": "address"
						},
						{
							"internalType": "uint256",
							"name": "_tokenId",
							"type": "uint256"
						}
					],
					"name": "approve",
					"outputs": [],
					"stateMutability": "payable",
					"type": "function"
				},
				{
					"inputs": [
						{
							"internalType": "address",
							"name": "_owner",
							"type": "address"
						}
					],
					"name": "balanceOf",
					"outputs": [
						{
							"internalType": "uint256",
							"name": "",
							"type": "uint256"
						}
					],
					"stateMutability": "view",
					"type": "function"
				},
				{
					"inputs": [
						{
							"internalType": "uint256",
							"name": "",
							"type": "uint256"
						}
					],
					"name": "characters",
					"outputs": [
						{
							"internalType": "string",
							"name": "name",
							"type": "string"
						},
						{
							"components": [
								{
									"internalType": "string[]",
									"name": "names",
									"type": "string[]"
								},
								{
									"internalType": "uint256[]",
									"name": "firePowers",
									"type": "uint256[]"
								}
							],
							"internalType": "struct MonsterTokens.Weapons",
							"name": "weapons",
							"type": "tuple"
						},
						{
							"internalType": "address",
							"name": "tokenOwner",
							"type": "address"
						}
					],
					"stateMutability": "view",
					"type": "function"
				},
				{
					"inputs": [],
					"name": "collectProfits",
					"outputs": [],
					"stateMutability": "nonpayable",
					"type": "function"
				},
				{
					"inputs": [
						{
							"internalType": "string",
							"name": "character_name",
							"type": "string"
						}
					],
					"name": "createMonsterToken",
					"outputs": [
						{
							"internalType": "uint256",
							"name": "",
							"type": "uint256"
						}
					],
					"stateMutability": "payable",
					"type": "function"
				},
				{
					"inputs": [
						{
							"internalType": "uint256",
							"name": "_tokenId",
							"type": "uint256"
						}
					],
					"name": "getApproved",
					"outputs": [
						{
							"internalType": "address",
							"name": "",
							"type": "address"
						}
					],
					"stateMutability": "view",
					"type": "function"
				},
				{
					"inputs": [
						{
							"internalType": "uint256",
							"name": "character_tokenId",
							"type": "uint256"
						},
						{
							"internalType": "uint8",
							"name": "inc_per",
							"type": "uint8"
						}
					],
					"name": "incrementFirePower",
					"outputs": [],
					"stateMutability": "payable",
					"type": "function"
				},
				{
					"inputs": [
						{
							"internalType": "uint256",
							"name": "_tokenId",
							"type": "uint256"
						}
					],
					"name": "ownerOf",
					"outputs": [
						{
							"internalType": "address",
							"name": "",
							"type": "address"
						}
					],
					"stateMutability": "view",
					"type": "function"
				},
				{
					"inputs": [
						{
							"internalType": "uint256",
							"name": "token",
							"type": "uint256"
						}
					],
					"name": "removeMonsterToken",
					"outputs": [],
					"stateMutability": "nonpayable",
					"type": "function"
				},
				{
					"inputs": [
						{
							"internalType": "address",
							"name": "_from",
							"type": "address"
						},
						{
							"internalType": "address",
							"name": "_to",
							"type": "address"
						},
						{
							"internalType": "uint256",
							"name": "_tokenId",
							"type": "uint256"
						}
					],
					"name": "safeTransferFrom",
					"outputs": [],
					"stateMutability": "payable",
					"type": "function"
				},
				{
					"inputs": [
						{
							"internalType": "bytes4",
							"name": "interfaceID",
							"type": "bytes4"
						}
					],
					"name": "supportsInterface",
					"outputs": [
						{
							"internalType": "bool",
							"name": "",
							"type": "bool"
						}
					],
					"stateMutability": "pure",
					"type": "function"
				},
				{
					"inputs": [
						{
							"internalType": "address",
							"name": "_from",
							"type": "address"
						},
						{
							"internalType": "address",
							"name": "_to",
							"type": "address"
						},
						{
							"internalType": "uint256",
							"name": "_tokenId",
							"type": "uint256"
						}
					],
					"name": "transferFrom",
					"outputs": [],
					"stateMutability": "payable",
					"type": "function"
				}
			],
			"devdoc": {
				"kind": "dev",
				"methods": {},
				"version": 1
			},
			"evm": {
				"assembly": "    /* \"PRACTICA 5/librerias_y_tokens.sol\":1278:11948  contract MonsterTokens is ERC721simplified {... */\n  mstore(0x40, 0x80)\n    /* \"PRACTICA 5/librerias_y_tokens.sol\":1709:1714  10000 */\n  0x2710\n    /* \"PRACTICA 5/librerias_y_tokens.sol\":1688:1714  uint private tokenId=10000 */\n  0x00\n  sstore\n    /* \"PRACTICA 5/librerias_y_tokens.sol\":1957:1958  0 */\n  0x00\n    /* \"PRACTICA 5/librerias_y_tokens.sol\":1937:1958  uint num_characters=0 */\n  0x04\n  sstore\n    /* \"PRACTICA 5/librerias_y_tokens.sol\":2086:2142  constructor(){... */\n  callvalue\n  dup1\n  iszero\n  tag_1\n  jumpi\n  0x00\n  dup1\n  revert\ntag_1:\n  pop\n    /* \"PRACTICA 5/librerias_y_tokens.sol\":2124:2134  msg.sender */\n  caller\n    /* \"PRACTICA 5/librerias_y_tokens.sol\":2110:2123  contractOwner */\n  0x05\n  0x00\n    /* \"PRACTICA 5/librerias_y_tokens.sol\":2110:2134  contractOwner=msg.sender */\n  0x0100\n  exp\n  dup2\n  sload\n  dup2\n  0xffffffffffffffffffffffffffffffffffffffff\n  mul\n  not\n  and\n  swap1\n  dup4\n  0xffffffffffffffffffffffffffffffffffffffff\n  and\n  mul\n  or\n  swap1\n  sstore\n  pop\n    /* \"PRACTICA 5/librerias_y_tokens.sol\":1278:11948  contract MonsterTokens is ERC721simplified {... */\n  dataSize(sub_0)\n  dup1\n  dataOffset(sub_0)\n  0x00\n  codecopy\n  0x00\n  return\nstop\n\nsub_0: assembly {\n        /* \"PRACTICA 5/librerias_y_tokens.sol\":1278:11948  contract MonsterTokens is ERC721simplified {... */\n      mstore(0x40, 0x80)\n      jumpi(tag_1, lt(calldatasize, 0x04))\n      shr(0xe0, calldataload(0x00))\n      dup1\n      0x50fac4f1\n      gt\n      tag_16\n      jumpi\n      dup1\n      0xc958e0d6\n      gt\n      tag_17\n      jumpi\n      dup1\n      0xc958e0d6\n      eq\n      tag_12\n      jumpi\n      dup1\n      0xd6ad8a94\n      eq\n      tag_13\n      jumpi\n      dup1\n      0xe85e001b\n      eq\n      tag_14\n      jumpi\n      dup1\n      0xeb116756\n      eq\n      tag_15\n      jumpi\n      jump(tag_1)\n    tag_17:\n      dup1\n      0x50fac4f1\n      eq\n      tag_9\n      jumpi\n      dup1\n      0x6352211e\n      eq\n      tag_10\n      jumpi\n      dup1\n      0x70a08231\n      eq\n      tag_11\n      jumpi\n      jump(tag_1)\n    tag_16:\n      dup1\n      0x0a0eac29\n      gt\n      tag_18\n      jumpi\n      dup1\n      0x0a0eac29\n      eq\n      tag_5\n      jumpi\n      dup1\n      0x23b872dd\n      eq\n      tag_6\n      jumpi\n      dup1\n      0x42842e0e\n      eq\n      tag_7\n      jumpi\n      dup1\n      0x4810bc59\n      eq\n      tag_8\n      jumpi\n      jump(tag_1)\n    tag_18:\n      dup1\n      0x01ffc9a7\n      eq\n      tag_2\n      jumpi\n      dup1\n      0x081812fc\n      eq\n      tag_3\n      jumpi\n      dup1\n      0x095ea7b3\n      eq\n      tag_4\n      jumpi\n    tag_1:\n      0x00\n      dup1\n      revert\n        /* \"PRACTICA 5/librerias_y_tokens.sol\":11747:11941  function supportsInterface(bytes4 interfaceID) external pure returns (bool){... */\n    tag_2:\n      callvalue\n      dup1\n      iszero\n      tag_19\n      jumpi\n      0x00\n      dup1\n      revert\n    tag_19:\n      pop\n      tag_20\n      0x04\n      dup1\n      calldatasize\n      sub\n      dup2\n      add\n      swap1\n      tag_21\n      swap2\n      swap1\n      tag_22\n      jump\t// in\n    tag_21:\n      tag_23\n      jump\t// in\n    tag_20:\n      mload(0x40)\n      tag_24\n      swap2\n      swap1\n      tag_25\n      jump\t// in\n    tag_24:\n      mload(0x40)\n      dup1\n      swap2\n      sub\n      swap1\n      return\n        /* \"PRACTICA 5/librerias_y_tokens.sol\":11462:11737  function getApproved(uint256 _tokenId) external view returns (address){... */\n    tag_3:\n      callvalue\n      dup1\n      iszero\n      tag_26\n      jumpi\n      0x00\n      dup1\n      revert\n    tag_26:\n      pop\n      tag_27\n      0x04\n      dup1\n      calldatasize\n      sub\n      dup2\n      add\n      swap1\n      tag_28\n      swap2\n      swap1\n      tag_29\n      jump\t// in\n    tag_28:\n      tag_30\n      jump\t// in\n    tag_27:\n      mload(0x40)\n      tag_31\n      swap2\n      swap1\n      tag_32\n      jump\t// in\n    tag_31:\n      mload(0x40)\n      dup1\n      swap2\n      sub\n      swap1\n      return\n        /* \"PRACTICA 5/librerias_y_tokens.sol\":7367:8016  function approve(address _approved, uint256 _tokenId) external payable  {... */\n    tag_4:\n      tag_33\n      0x04\n      dup1\n      calldatasize\n      sub\n      dup2\n      add\n      swap1\n      tag_34\n      swap2\n      swap1\n      tag_35\n      jump\t// in\n    tag_34:\n      tag_36\n      jump\t// in\n    tag_33:\n      stop\n        /* \"PRACTICA 5/librerias_y_tokens.sol\":4375:5865  function addWeapon(uint character_tokenId, string calldata weapon_name, uint fire_power) external payable weapon_notExist(character_tokenId, weapon_name){... */\n    tag_5:\n      tag_37\n      0x04\n      dup1\n      calldatasize\n      sub\n      dup2\n      add\n      swap1\n      tag_38\n      swap2\n      swap1\n      tag_39\n      jump\t// in\n    tag_38:\n      tag_40\n      jump\t// in\n    tag_37:\n      stop\n        /* \"PRACTICA 5/librerias_y_tokens.sol\":8053:9300  function transferFrom(address _from, address _to, uint256 _tokenId) external payable{... */\n    tag_6:\n      tag_41\n      0x04\n      dup1\n      calldatasize\n      sub\n      dup2\n      add\n      swap1\n      tag_42\n      swap2\n      swap1\n      tag_43\n      jump\t// in\n    tag_42:\n      tag_44\n      jump\t// in\n    tag_41:\n      stop\n        /* \"PRACTICA 5/librerias_y_tokens.sol\":9510:10955  function safeTransferFrom(address _from, address _to, uint256 _tokenId) external payable{... */\n    tag_7:\n      tag_45\n      0x04\n      dup1\n      calldatasize\n      sub\n      dup2\n      add\n      swap1\n      tag_46\n      swap2\n      swap1\n      tag_43\n      jump\t// in\n    tag_46:\n      tag_47\n      jump\t// in\n    tag_45:\n      stop\n        /* \"PRACTICA 5/librerias_y_tokens.sol\":1721:1766  mapping (uint => Character) public characters */\n    tag_8:\n      callvalue\n      dup1\n      iszero\n      tag_48\n      jumpi\n      0x00\n      dup1\n      revert\n    tag_48:\n      pop\n      tag_49\n      0x04\n      dup1\n      calldatasize\n      sub\n      dup2\n      add\n      swap1\n      tag_50\n      swap2\n      swap1\n      tag_29\n      jump\t// in\n    tag_50:\n      tag_51\n      jump\t// in\n    tag_49:\n      mload(0x40)\n      tag_52\n      swap4\n      swap3\n      swap2\n      swap1\n      tag_53\n      jump\t// in\n    tag_52:\n      mload(0x40)\n      dup1\n      swap2\n      sub\n      swap1\n      return\n        /* \"PRACTICA 5/librerias_y_tokens.sol\":2942:3981  function removeMonsterToken(uint token) external {... */\n    tag_9:\n      callvalue\n      dup1\n      iszero\n      tag_54\n      jumpi\n      0x00\n      dup1\n      revert\n    tag_54:\n      pop\n      tag_55\n      0x04\n      dup1\n      calldatasize\n      sub\n      dup2\n      add\n      swap1\n      tag_56\n      swap2\n      swap1\n      tag_29\n      jump\t// in\n    tag_56:\n      tag_57\n      jump\t// in\n    tag_55:\n      stop\n        /* \"PRACTICA 5/librerias_y_tokens.sol\":11191:11456  function ownerOf(uint256 _tokenId) external view returns (address){... */\n    tag_10:\n      callvalue\n      dup1\n      iszero\n      tag_58\n      jumpi\n      0x00\n      dup1\n      revert\n    tag_58:\n      pop\n      tag_59\n      0x04\n      dup1\n      calldatasize\n      sub\n      dup2\n      add\n      swap1\n      tag_60\n      swap2\n      swap1\n      tag_29\n      jump\t// in\n    tag_60:\n      tag_61\n      jump\t// in\n    tag_59:\n      mload(0x40)\n      tag_62\n      swap2\n      swap1\n      tag_32\n      jump\t// in\n    tag_62:\n      mload(0x40)\n      dup1\n      swap2\n      sub\n      swap1\n      return\n        /* \"PRACTICA 5/librerias_y_tokens.sol\":10998:11181  function balanceOf(address _owner) external view returns (uint256){... */\n    tag_11:\n      callvalue\n      dup1\n      iszero\n      tag_63\n      jumpi\n      0x00\n      dup1\n      revert\n    tag_63:\n      pop\n      tag_64\n      0x04\n      dup1\n      calldatasize\n      sub\n      dup2\n      add\n      swap1\n      tag_65\n      swap2\n      swap1\n      tag_66\n      jump\t// in\n    tag_65:\n      tag_67\n      jump\t// in\n    tag_64:\n      mload(0x40)\n      tag_68\n      swap2\n      swap1\n      tag_69\n      jump\t// in\n    tag_68:\n      mload(0x40)\n      dup1\n      swap2\n      sub\n      swap1\n      return\n        /* \"PRACTICA 5/librerias_y_tokens.sol\":6756:7326  function collectProfits() external  {... */\n    tag_12:\n      callvalue\n      dup1\n      iszero\n      tag_70\n      jumpi\n      0x00\n      dup1\n      revert\n    tag_70:\n      pop\n      tag_71\n      tag_72\n      jump\t// in\n    tag_71:\n      stop\n        /* \"PRACTICA 5/librerias_y_tokens.sol\":5946:6746  function incrementFirePower(uint character_tokenId, uint8 inc_per) external payable {... */\n    tag_13:\n      tag_73\n      0x04\n      dup1\n      calldatasize\n      sub\n      dup2\n      add\n      swap1\n      tag_74\n      swap2\n      swap1\n      tag_75\n      jump\t// in\n    tag_74:\n      tag_76\n      jump\t// in\n    tag_73:\n      stop\n        /* \"PRACTICA 5/librerias_y_tokens.sol\":1630:1677  uint public constant WEIS_NECESARIOS = 1000 wei */\n    tag_14:\n      callvalue\n      dup1\n      iszero\n      tag_77\n      jumpi\n      0x00\n      dup1\n      revert\n    tag_77:\n      pop\n      tag_78\n      tag_79\n      jump\t// in\n    tag_78:\n      mload(0x40)\n      tag_80\n      swap2\n      swap1\n      tag_69\n      jump\t// in\n    tag_80:\n      mload(0x40)\n      dup1\n      swap2\n      sub\n      swap1\n      return\n        /* \"PRACTICA 5/librerias_y_tokens.sol\":2296:2928  function createMonsterToken(string calldata character_name)external payable returns (uint) {... */\n    tag_15:\n      tag_81\n      0x04\n      dup1\n      calldatasize\n      sub\n      dup2\n      add\n      swap1\n      tag_82\n      swap2\n      swap1\n      tag_83\n      jump\t// in\n    tag_82:\n      tag_84\n      jump\t// in\n    tag_81:\n      mload(0x40)\n      tag_85\n      swap2\n      swap1\n      tag_69\n      jump\t// in\n    tag_85:\n      mload(0x40)\n      dup1\n      swap2\n      sub\n      swap1\n      return\n        /* \"PRACTICA 5/librerias_y_tokens.sol\":11747:11941  function supportsInterface(bytes4 interfaceID) external pure returns (bool){... */\n    tag_23:\n        /* \"PRACTICA 5/librerias_y_tokens.sol\":11817:11821  bool */\n      0x00\n        /* \"PRACTICA 5/librerias_y_tokens.sol\":11855:11889  type(ERC721simplified).interfaceId */\n      0x73884ab300000000000000000000000000000000000000000000000000000000\n        /* \"PRACTICA 5/librerias_y_tokens.sol\":11840:11889  interfaceID == type(ERC721simplified).interfaceId */\n      not(0xffffffffffffffffffffffffffffffffffffffffffffffffffffffff)\n      and\n        /* \"PRACTICA 5/librerias_y_tokens.sol\":11840:11851  interfaceID */\n      dup3\n        /* \"PRACTICA 5/librerias_y_tokens.sol\":11840:11889  interfaceID == type(ERC721simplified).interfaceId */\n      not(0xffffffffffffffffffffffffffffffffffffffffffffffffffffffff)\n      and\n      eq\n        /* \"PRACTICA 5/librerias_y_tokens.sol\":11840:11932  interfaceID == type(ERC721simplified).interfaceId || interfaceID == type(ERC165).interfaceId */\n      dup1\n      tag_87\n      jumpi\n      pop\n        /* \"PRACTICA 5/librerias_y_tokens.sol\":11908:11932  type(ERC165).interfaceId */\n      0x01ffc9a700000000000000000000000000000000000000000000000000000000\n        /* \"PRACTICA 5/librerias_y_tokens.sol\":11893:11932  interfaceID == type(ERC165).interfaceId */\n      not(0xffffffffffffffffffffffffffffffffffffffffffffffffffffffff)\n      and\n        /* \"PRACTICA 5/librerias_y_tokens.sol\":11893:11904  interfaceID */\n      dup3\n        /* \"PRACTICA 5/librerias_y_tokens.sol\":11893:11932  interfaceID == type(ERC165).interfaceId */\n      not(0xffffffffffffffffffffffffffffffffffffffffffffffffffffffff)\n      and\n      eq\n        /* \"PRACTICA 5/librerias_y_tokens.sol\":11840:11932  interfaceID == type(ERC721simplified).interfaceId || interfaceID == type(ERC165).interfaceId */\n    tag_87:\n        /* \"PRACTICA 5/librerias_y_tokens.sol\":11833:11932  return interfaceID == type(ERC721simplified).interfaceId || interfaceID == type(ERC165).interfaceId */\n      swap1\n      pop\n        /* \"PRACTICA 5/librerias_y_tokens.sol\":11747:11941  function supportsInterface(bytes4 interfaceID) external pure returns (bool){... */\n      swap2\n      swap1\n      pop\n      jump\t// out\n        /* \"PRACTICA 5/librerias_y_tokens.sol\":11462:11737  function getApproved(uint256 _tokenId) external view returns (address){... */\n    tag_30:\n        /* \"PRACTICA 5/librerias_y_tokens.sol\":11524:11531  address */\n      0x00\n        /* \"PRACTICA 5/librerias_y_tokens.sol\":11560:11565  10000 */\n      0x2710\n        /* \"PRACTICA 5/librerias_y_tokens.sol\":11551:11559  _tokenId */\n      dup3\n        /* \"PRACTICA 5/librerias_y_tokens.sol\":11551:11565  _tokenId>10000 */\n      gt\n        /* \"PRACTICA 5/librerias_y_tokens.sol\":11551:11602  _tokenId>10000 && _tokenId <= 10000+ num_characters */\n      dup1\n      iszero\n      tag_89\n      jumpi\n      pop\n        /* \"PRACTICA 5/librerias_y_tokens.sol\":11588:11602  num_characters */\n      sload(0x04)\n        /* \"PRACTICA 5/librerias_y_tokens.sol\":11581:11586  10000 */\n      0x2710\n        /* \"PRACTICA 5/librerias_y_tokens.sol\":11581:11602  10000+ num_characters */\n      tag_90\n      swap2\n      swap1\n      tag_91\n      jump\t// in\n    tag_90:\n        /* \"PRACTICA 5/librerias_y_tokens.sol\":11569:11577  _tokenId */\n      dup3\n        /* \"PRACTICA 5/librerias_y_tokens.sol\":11569:11602  _tokenId <= 10000+ num_characters */\n      gt\n      iszero\n        /* \"PRACTICA 5/librerias_y_tokens.sol\":11551:11602  _tokenId>10000 && _tokenId <= 10000+ num_characters */\n    tag_89:\n        /* \"PRACTICA 5/librerias_y_tokens.sol\":11543:11630  require(_tokenId>10000 && _tokenId <= 10000+ num_characters, \"No hay ningun personaje\") */\n      tag_92\n      jumpi\n      mload(0x40)\n      0x08c379a000000000000000000000000000000000000000000000000000000000\n      dup2\n      mstore\n      0x04\n      add\n      tag_93\n      swap1\n      tag_94\n      jump\t// in\n    tag_93:\n      mload(0x40)\n      dup1\n      swap2\n      sub\n      swap1\n      revert\n    tag_92:\n        /* \"PRACTICA 5/librerias_y_tokens.sol\":11711:11719  approved */\n      0x02\n        /* \"PRACTICA 5/librerias_y_tokens.sol\":11711:11729  approved[_tokenId] */\n      0x00\n        /* \"PRACTICA 5/librerias_y_tokens.sol\":11720:11728  _tokenId */\n      dup4\n        /* \"PRACTICA 5/librerias_y_tokens.sol\":11711:11729  approved[_tokenId] */\n      dup2\n      mstore\n      0x20\n      add\n      swap1\n      dup2\n      mstore\n      0x20\n      add\n      0x00\n      keccak256\n      0x00\n      swap1\n      sload\n      swap1\n      0x0100\n      exp\n      swap1\n      div\n      0xffffffffffffffffffffffffffffffffffffffff\n      and\n        /* \"PRACTICA 5/librerias_y_tokens.sol\":11704:11729  return approved[_tokenId] */\n      swap1\n      pop\n        /* \"PRACTICA 5/librerias_y_tokens.sol\":11462:11737  function getApproved(uint256 _tokenId) external view returns (address){... */\n      swap2\n      swap1\n      pop\n      jump\t// out\n        /* \"PRACTICA 5/librerias_y_tokens.sol\":7367:8016  function approve(address _approved, uint256 _tokenId) external payable  {... */\n    tag_36:\n        /* \"PRACTICA 5/librerias_y_tokens.sol\":7472:7482  characters */\n      0x01\n        /* \"PRACTICA 5/librerias_y_tokens.sol\":7472:7492  characters[_tokenId] */\n      0x00\n        /* \"PRACTICA 5/librerias_y_tokens.sol\":7483:7491  _tokenId */\n      dup3\n        /* \"PRACTICA 5/librerias_y_tokens.sol\":7472:7492  characters[_tokenId] */\n      dup2\n      mstore\n      0x20\n      add\n      swap1\n      dup2\n      mstore\n      0x20\n      add\n      0x00\n      keccak256\n        /* \"PRACTICA 5/librerias_y_tokens.sol\":7472:7503  characters[_tokenId].tokenOwner */\n      0x03\n      add\n      0x00\n      swap1\n      sload\n      swap1\n      0x0100\n      exp\n      swap1\n      div\n      0xffffffffffffffffffffffffffffffffffffffff\n      and\n        /* \"PRACTICA 5/librerias_y_tokens.sol\":7458:7503  msg.sender == characters[_tokenId].tokenOwner */\n      0xffffffffffffffffffffffffffffffffffffffff\n      and\n        /* \"PRACTICA 5/librerias_y_tokens.sol\":7458:7468  msg.sender */\n      caller\n        /* \"PRACTICA 5/librerias_y_tokens.sol\":7458:7503  msg.sender == characters[_tokenId].tokenOwner */\n      0xffffffffffffffffffffffffffffffffffffffff\n      and\n      eq\n        /* \"PRACTICA 5/librerias_y_tokens.sol\":7450:7545  require(msg.sender == characters[_tokenId].tokenOwner, \"Emisor debe ser propietario del token\") */\n      tag_96\n      jumpi\n      mload(0x40)\n      0x08c379a000000000000000000000000000000000000000000000000000000000\n      dup2\n      mstore\n      0x04\n      add\n      tag_97\n      swap1\n      tag_98\n      jump\t// in\n    tag_97:\n      mload(0x40)\n      dup1\n      swap2\n      sub\n      swap1\n      revert\n    tag_96:\n        /* \"PRACTICA 5/librerias_y_tokens.sol\":7607:7608  0 */\n      0x00\n        /* \"PRACTICA 5/librerias_y_tokens.sol\":7564:7609  characters[_tokenId].tokenOwner != address(0) */\n      0xffffffffffffffffffffffffffffffffffffffff\n      and\n        /* \"PRACTICA 5/librerias_y_tokens.sol\":7564:7574  characters */\n      0x01\n        /* \"PRACTICA 5/librerias_y_tokens.sol\":7564:7584  characters[_tokenId] */\n      0x00\n        /* \"PRACTICA 5/librerias_y_tokens.sol\":7575:7583  _tokenId */\n      dup4\n        /* \"PRACTICA 5/librerias_y_tokens.sol\":7564:7584  characters[_tokenId] */\n      dup2\n      mstore\n      0x20\n      add\n      swap1\n      dup2\n      mstore\n      0x20\n      add\n      0x00\n      keccak256\n        /* \"PRACTICA 5/librerias_y_tokens.sol\":7564:7595  characters[_tokenId].tokenOwner */\n      0x03\n      add\n      0x00\n      swap1\n      sload\n      swap1\n      0x0100\n      exp\n      swap1\n      div\n      0xffffffffffffffffffffffffffffffffffffffff\n      and\n        /* \"PRACTICA 5/librerias_y_tokens.sol\":7564:7609  characters[_tokenId].tokenOwner != address(0) */\n      0xffffffffffffffffffffffffffffffffffffffff\n      and\n      sub\n        /* \"PRACTICA 5/librerias_y_tokens.sol\":7556:7629  require(characters[_tokenId].tokenOwner != address(0), \"Token no existe\") */\n      tag_99\n      jumpi\n      mload(0x40)\n      0x08c379a000000000000000000000000000000000000000000000000000000000\n      dup2\n      mstore\n      0x04\n      add\n      tag_100\n      swap1\n      tag_101\n      jump\t// in\n    tag_100:\n      mload(0x40)\n      dup1\n      swap2\n      sub\n      swap1\n      revert\n    tag_99:\n        /* \"PRACTICA 5/librerias_y_tokens.sol\":7653:7666  uint cantidad */\n      0x00\n        /* \"PRACTICA 5/librerias_y_tokens.sol\":7669:7724  ArrayUtils.sum(characters[_tokenId].weapons.firePowers) */\n      tag_102\n        /* \"PRACTICA 5/librerias_y_tokens.sol\":7684:7694  characters */\n      0x01\n        /* \"PRACTICA 5/librerias_y_tokens.sol\":7684:7704  characters[_tokenId] */\n      0x00\n        /* \"PRACTICA 5/librerias_y_tokens.sol\":7695:7703  _tokenId */\n      dup5\n        /* \"PRACTICA 5/librerias_y_tokens.sol\":7684:7704  characters[_tokenId] */\n      dup2\n      mstore\n      0x20\n      add\n      swap1\n      dup2\n      mstore\n      0x20\n      add\n      0x00\n      keccak256\n        /* \"PRACTICA 5/librerias_y_tokens.sol\":7684:7712  characters[_tokenId].weapons */\n      0x01\n      add\n        /* \"PRACTICA 5/librerias_y_tokens.sol\":7684:7723  characters[_tokenId].weapons.firePowers */\n      0x01\n      add\n        /* \"PRACTICA 5/librerias_y_tokens.sol\":7669:7724  ArrayUtils.sum(characters[_tokenId].weapons.firePowers) */\n      dup1\n      sload\n      dup1\n      0x20\n      mul\n      0x20\n      add\n      mload(0x40)\n      swap1\n      dup2\n      add\n      0x40\n      mstore\n      dup1\n      swap3\n      swap2\n      swap1\n      dup2\n      dup2\n      mstore\n      0x20\n      add\n      dup3\n      dup1\n      sload\n      dup1\n      iszero\n      tag_103\n      jumpi\n      0x20\n      mul\n      dup3\n      add\n      swap2\n      swap1\n      0x00\n      mstore\n      keccak256(0x00, 0x20)\n      swap1\n    tag_104:\n      dup2\n      sload\n      dup2\n      mstore\n      0x20\n      add\n      swap1\n      0x01\n      add\n      swap1\n      dup1\n      dup4\n      gt\n      tag_104\n      jumpi\n    tag_103:\n      pop\n      pop\n      pop\n      pop\n      pop\n        /* \"PRACTICA 5/librerias_y_tokens.sol\":7669:7683  ArrayUtils.sum */\n      tag_105\n        /* \"PRACTICA 5/librerias_y_tokens.sol\":7669:7724  ArrayUtils.sum(characters[_tokenId].weapons.firePowers) */\n      jump\t// in\n    tag_102:\n        /* \"PRACTICA 5/librerias_y_tokens.sol\":7653:7724  uint cantidad = ArrayUtils.sum(characters[_tokenId].weapons.firePowers) */\n      swap1\n      pop\n        /* \"PRACTICA 5/librerias_y_tokens.sol\":7760:7768  cantidad */\n      dup1\n        /* \"PRACTICA 5/librerias_y_tokens.sol\":7747:7756  msg.value */\n      callvalue\n        /* \"PRACTICA 5/librerias_y_tokens.sol\":7747:7768  msg.value >= cantidad */\n      lt\n      iszero\n        /* \"PRACTICA 5/librerias_y_tokens.sol\":7739:7835  require(msg.value >= cantidad, \"Debes enviar al menos la suma de las potencias de fuego en Wei\") */\n      tag_106\n      jumpi\n      mload(0x40)\n      0x08c379a000000000000000000000000000000000000000000000000000000000\n      dup2\n      mstore\n      0x04\n      add\n      tag_107\n      swap1\n      tag_108\n      jump\t// in\n    tag_107:\n      mload(0x40)\n      dup1\n      swap2\n      sub\n      swap1\n      revert\n    tag_106:\n        /* \"PRACTICA 5/librerias_y_tokens.sol\":7871:7880  _approved */\n      dup3\n        /* \"PRACTICA 5/librerias_y_tokens.sol\":7850:7858  approved */\n      0x02\n        /* \"PRACTICA 5/librerias_y_tokens.sol\":7850:7868  approved[_tokenId] */\n      0x00\n        /* \"PRACTICA 5/librerias_y_tokens.sol\":7859:7867  _tokenId */\n      dup5\n        /* \"PRACTICA 5/librerias_y_tokens.sol\":7850:7868  approved[_tokenId] */\n      dup2\n      mstore\n      0x20\n      add\n      swap1\n      dup2\n      mstore\n      0x20\n      add\n      0x00\n      keccak256\n      0x00\n        /* \"PRACTICA 5/librerias_y_tokens.sol\":7850:7880  approved[_tokenId] = _approved */\n      0x0100\n      exp\n      dup2\n      sload\n      dup2\n      0xffffffffffffffffffffffffffffffffffffffff\n      mul\n      not\n      and\n      swap1\n      dup4\n      0xffffffffffffffffffffffffffffffffffffffff\n      and\n      mul\n      or\n      swap1\n      sstore\n      pop\n        /* \"PRACTICA 5/librerias_y_tokens.sol\":7999:8007  _tokenId */\n      dup2\n        /* \"PRACTICA 5/librerias_y_tokens.sol\":7988:7997  _approved */\n      dup4\n        /* \"PRACTICA 5/librerias_y_tokens.sol\":7967:8008  Approval(msg.sender, _approved, _tokenId) */\n      0xffffffffffffffffffffffffffffffffffffffff\n      and\n        /* \"PRACTICA 5/librerias_y_tokens.sol\":7976:7986  msg.sender */\n      caller\n        /* \"PRACTICA 5/librerias_y_tokens.sol\":7967:8008  Approval(msg.sender, _approved, _tokenId) */\n      0xffffffffffffffffffffffffffffffffffffffff\n      and\n      0x8c5be1e5ebec7d5bd14f71427d1e84f3dd0314c0f7b2291e5b200ac8c7c3b925\n      mload(0x40)\n      mload(0x40)\n      dup1\n      swap2\n      sub\n      swap1\n      log4\n        /* \"PRACTICA 5/librerias_y_tokens.sol\":7439:8016  {... */\n      pop\n        /* \"PRACTICA 5/librerias_y_tokens.sol\":7367:8016  function approve(address _approved, uint256 _tokenId) external payable  {... */\n      pop\n      pop\n      jump\t// out\n        /* \"PRACTICA 5/librerias_y_tokens.sol\":4375:5865  function addWeapon(uint character_tokenId, string calldata weapon_name, uint fire_power) external payable weapon_notExist(character_tokenId, weapon_name){... */\n    tag_40:\n        /* \"PRACTICA 5/librerias_y_tokens.sol\":4497:4514  character_tokenId */\n      dup4\n        /* \"PRACTICA 5/librerias_y_tokens.sol\":4516:4527  weapon_name */\n      dup4\n      dup4\n        /* \"PRACTICA 5/librerias_y_tokens.sol\":4143:4144  0 */\n      0x00\n        /* \"PRACTICA 5/librerias_y_tokens.sol\":4091:4145  characters[character_tokenId].tokenOwner != address(0) */\n      0xffffffffffffffffffffffffffffffffffffffff\n      and\n        /* \"PRACTICA 5/librerias_y_tokens.sol\":4091:4101  characters */\n      0x01\n        /* \"PRACTICA 5/librerias_y_tokens.sol\":4091:4120  characters[character_tokenId] */\n      0x00\n        /* \"PRACTICA 5/librerias_y_tokens.sol\":4102:4119  character_tokenId */\n      dup6\n        /* \"PRACTICA 5/librerias_y_tokens.sol\":4091:4120  characters[character_tokenId] */\n      dup2\n      mstore\n      0x20\n      add\n      swap1\n      dup2\n      mstore\n      0x20\n      add\n      0x00\n      keccak256\n        /* \"PRACTICA 5/librerias_y_tokens.sol\":4091:4131  characters[character_tokenId].tokenOwner */\n      0x03\n      add\n      0x00\n      swap1\n      sload\n      swap1\n      0x0100\n      exp\n      swap1\n      div\n      0xffffffffffffffffffffffffffffffffffffffff\n      and\n        /* \"PRACTICA 5/librerias_y_tokens.sol\":4091:4145  characters[character_tokenId].tokenOwner != address(0) */\n      0xffffffffffffffffffffffffffffffffffffffff\n      and\n      sub\n        /* \"PRACTICA 5/librerias_y_tokens.sol\":4083:4200  require(characters[character_tokenId].tokenOwner != address(0), \"No puedes crear un arma a un personaje inexistente\") */\n      tag_110\n      jumpi\n      mload(0x40)\n      0x08c379a000000000000000000000000000000000000000000000000000000000\n      dup2\n      mstore\n      0x04\n      add\n      tag_111\n      swap1\n      tag_112\n      jump\t// in\n    tag_111:\n      mload(0x40)\n      dup1\n      swap2\n      sub\n      swap1\n      revert\n    tag_110:\n        /* \"PRACTICA 5/librerias_y_tokens.sol\":4220:4297  ArrayUtils.contains(characters[character_tokenId].weapons.names, weapon_name) */\n      tag_113\n        /* \"PRACTICA 5/librerias_y_tokens.sol\":4240:4250  characters */\n      0x01\n        /* \"PRACTICA 5/librerias_y_tokens.sol\":4240:4269  characters[character_tokenId] */\n      0x00\n        /* \"PRACTICA 5/librerias_y_tokens.sol\":4251:4268  character_tokenId */\n      dup6\n        /* \"PRACTICA 5/librerias_y_tokens.sol\":4240:4269  characters[character_tokenId] */\n      dup2\n      mstore\n      0x20\n      add\n      swap1\n      dup2\n      mstore\n      0x20\n      add\n      0x00\n      keccak256\n        /* \"PRACTICA 5/librerias_y_tokens.sol\":4240:4277  characters[character_tokenId].weapons */\n      0x01\n      add\n        /* \"PRACTICA 5/librerias_y_tokens.sol\":4240:4283  characters[character_tokenId].weapons.names */\n      0x00\n      add\n        /* \"PRACTICA 5/librerias_y_tokens.sol\":4220:4297  ArrayUtils.contains(characters[character_tokenId].weapons.names, weapon_name) */\n      dup1\n      sload\n      dup1\n      0x20\n      mul\n      0x20\n      add\n      mload(0x40)\n      swap1\n      dup2\n      add\n      0x40\n      mstore\n      dup1\n      swap3\n      swap2\n      swap1\n      dup2\n      dup2\n      mstore\n      0x20\n      add\n      0x00\n      swap1\n    tag_114:\n      dup3\n      dup3\n      lt\n      iszero\n      tag_115\n      jumpi\n      dup4\n      dup3\n      swap1\n      0x00\n      mstore\n      keccak256(0x00, 0x20)\n      add\n      dup1\n      sload\n      tag_117\n      swap1\n      tag_118\n      jump\t// in\n    tag_117:\n      dup1\n      0x1f\n      add\n      0x20\n      dup1\n      swap2\n      div\n      mul\n      0x20\n      add\n      mload(0x40)\n      swap1\n      dup2\n      add\n      0x40\n      mstore\n      dup1\n      swap3\n      swap2\n      swap1\n      dup2\n      dup2\n      mstore\n      0x20\n      add\n      dup3\n      dup1\n      sload\n      tag_119\n      swap1\n      tag_118\n      jump\t// in\n    tag_119:\n      dup1\n      iszero\n      tag_120\n      jumpi\n      dup1\n      0x1f\n      lt\n      tag_121\n      jumpi\n      0x0100\n      dup1\n      dup4\n      sload\n      div\n      mul\n      dup4\n      mstore\n      swap2\n      0x20\n      add\n      swap2\n      jump(tag_120)\n    tag_121:\n      dup3\n      add\n      swap2\n      swap1\n      0x00\n      mstore\n      keccak256(0x00, 0x20)\n      swap1\n    tag_122:\n      dup2\n      sload\n      dup2\n      mstore\n      swap1\n      0x01\n      add\n      swap1\n      0x20\n      add\n      dup1\n      dup4\n      gt\n      tag_122\n      jumpi\n      dup3\n      swap1\n      sub\n      0x1f\n      and\n      dup3\n      add\n      swap2\n    tag_120:\n      pop\n      pop\n      pop\n      pop\n      pop\n      dup2\n      mstore\n      0x20\n      add\n      swap1\n      0x01\n      add\n      swap1\n      jump(tag_114)\n    tag_115:\n      pop\n      pop\n      pop\n      pop\n        /* \"PRACTICA 5/librerias_y_tokens.sol\":4285:4296  weapon_name */\n      dup4\n      dup4\n        /* \"PRACTICA 5/librerias_y_tokens.sol\":4220:4239  ArrayUtils.contains */\n      tag_123\n        /* \"PRACTICA 5/librerias_y_tokens.sol\":4220:4297  ArrayUtils.contains(characters[character_tokenId].weapons.names, weapon_name) */\n      jump\t// in\n    tag_113:\n        /* \"PRACTICA 5/librerias_y_tokens.sol\":4219:4297  !ArrayUtils.contains(characters[character_tokenId].weapons.names, weapon_name) */\n      iszero\n        /* \"PRACTICA 5/librerias_y_tokens.sol\":4211:4345  require(!ArrayUtils.contains(characters[character_tokenId].weapons.names, weapon_name),\"El arma que estas intentando crear ya existe\") */\n      tag_124\n      jumpi\n      mload(0x40)\n      0x08c379a000000000000000000000000000000000000000000000000000000000\n      dup2\n      mstore\n      0x04\n      add\n      tag_125\n      swap1\n      tag_126\n      jump\t// in\n    tag_125:\n      mload(0x40)\n      dup1\n      swap2\n      sub\n      swap1\n      revert\n    tag_124:\n        /* \"PRACTICA 5/librerias_y_tokens.sol\":4678:4697  Character storage c */\n      0x00\n        /* \"PRACTICA 5/librerias_y_tokens.sol\":4700:4710  characters */\n      0x01\n        /* \"PRACTICA 5/librerias_y_tokens.sol\":4700:4729  characters[character_tokenId] */\n      0x00\n        /* \"PRACTICA 5/librerias_y_tokens.sol\":4711:4728  character_tokenId */\n      dup10\n        /* \"PRACTICA 5/librerias_y_tokens.sol\":4700:4729  characters[character_tokenId] */\n      dup2\n      mstore\n      0x20\n      add\n      swap1\n      dup2\n      mstore\n      0x20\n      add\n      0x00\n      keccak256\n        /* \"PRACTICA 5/librerias_y_tokens.sol\":4678:4729  Character storage c = characters[character_tokenId] */\n      swap1\n      pop\n        /* \"PRACTICA 5/librerias_y_tokens.sol\":4802:4812  msg.sender */\n      caller\n        /* \"PRACTICA 5/librerias_y_tokens.sol\":4786:4812  c.tokenOwner == msg.sender */\n      0xffffffffffffffffffffffffffffffffffffffff\n      and\n        /* \"PRACTICA 5/librerias_y_tokens.sol\":4786:4787  c */\n      dup2\n        /* \"PRACTICA 5/librerias_y_tokens.sol\":4786:4798  c.tokenOwner */\n      0x03\n      add\n      0x00\n      swap1\n      sload\n      swap1\n      0x0100\n      exp\n      swap1\n      div\n      0xffffffffffffffffffffffffffffffffffffffff\n      and\n        /* \"PRACTICA 5/librerias_y_tokens.sol\":4786:4812  c.tokenOwner == msg.sender */\n      0xffffffffffffffffffffffffffffffffffffffff\n      and\n      eq\n        /* \"PRACTICA 5/librerias_y_tokens.sol\":4786:4857  c.tokenOwner == msg.sender || msg.sender == approved[character_tokenId] */\n      dup1\n      tag_128\n      jumpi\n      pop\n        /* \"PRACTICA 5/librerias_y_tokens.sol\":4830:4838  approved */\n      0x02\n        /* \"PRACTICA 5/librerias_y_tokens.sol\":4830:4857  approved[character_tokenId] */\n      0x00\n        /* \"PRACTICA 5/librerias_y_tokens.sol\":4839:4856  character_tokenId */\n      dup10\n        /* \"PRACTICA 5/librerias_y_tokens.sol\":4830:4857  approved[character_tokenId] */\n      dup2\n      mstore\n      0x20\n      add\n      swap1\n      dup2\n      mstore\n      0x20\n      add\n      0x00\n      keccak256\n      0x00\n      swap1\n      sload\n      swap1\n      0x0100\n      exp\n      swap1\n      div\n      0xffffffffffffffffffffffffffffffffffffffff\n      and\n        /* \"PRACTICA 5/librerias_y_tokens.sol\":4816:4857  msg.sender == approved[character_tokenId] */\n      0xffffffffffffffffffffffffffffffffffffffff\n      and\n        /* \"PRACTICA 5/librerias_y_tokens.sol\":4816:4826  msg.sender */\n      caller\n        /* \"PRACTICA 5/librerias_y_tokens.sol\":4816:4857  msg.sender == approved[character_tokenId] */\n      0xffffffffffffffffffffffffffffffffffffffff\n      and\n      eq\n        /* \"PRACTICA 5/librerias_y_tokens.sol\":4786:4857  c.tokenOwner == msg.sender || msg.sender == approved[character_tokenId] */\n    tag_128:\n        /* \"PRACTICA 5/librerias_y_tokens.sol\":4778:4921  require(c.tokenOwner == msg.sender || msg.sender == approved[character_tokenId], \"Solo el propietario y aprobado pueden ejecutar esta funcion\") */\n      tag_129\n      jumpi\n      mload(0x40)\n      0x08c379a000000000000000000000000000000000000000000000000000000000\n      dup2\n      mstore\n      0x04\n      add\n      tag_130\n      swap1\n      tag_131\n      jump\t// in\n    tag_130:\n      mload(0x40)\n      dup1\n      swap2\n      sub\n      swap1\n      revert\n    tag_129:\n        /* \"PRACTICA 5/librerias_y_tokens.sol\":5083:5099  uint num_weapons */\n      0x00\n        /* \"PRACTICA 5/librerias_y_tokens.sol\":5101:5102  c */\n      dup2\n        /* \"PRACTICA 5/librerias_y_tokens.sol\":5101:5110  c.weapons */\n      0x01\n      add\n        /* \"PRACTICA 5/librerias_y_tokens.sol\":5101:5116  c.weapons.names */\n      0x00\n      add\n        /* \"PRACTICA 5/librerias_y_tokens.sol\":5101:5123  c.weapons.names.length */\n      dup1\n      sload\n      swap1\n      pop\n        /* \"PRACTICA 5/librerias_y_tokens.sol\":5083:5123  uint num_weapons= c.weapons.names.length */\n      swap1\n      pop\n        /* \"PRACTICA 5/librerias_y_tokens.sol\":5134:5143  uint cost */\n      0x00\n        /* \"PRACTICA 5/librerias_y_tokens.sol\":5165:5176  num_weapons */\n      dup2\n        /* \"PRACTICA 5/librerias_y_tokens.sol\":5160:5161  2 */\n      0x02\n        /* \"PRACTICA 5/librerias_y_tokens.sol\":5160:5176  2 ** num_weapons */\n      tag_132\n      swap2\n      swap1\n      tag_133\n      jump\t// in\n    tag_132:\n        /* \"PRACTICA 5/librerias_y_tokens.sol\":5146:5156  fire_power */\n      dup8\n        /* \"PRACTICA 5/librerias_y_tokens.sol\":5146:5177  fire_power * (2 ** num_weapons) */\n      tag_134\n      swap2\n      swap1\n      tag_135\n      jump\t// in\n    tag_134:\n        /* \"PRACTICA 5/librerias_y_tokens.sol\":5134:5177  uint cost = fire_power * (2 ** num_weapons) */\n      swap1\n      pop\n        /* \"PRACTICA 5/librerias_y_tokens.sol\":5411:5415  cost */\n      dup1\n        /* \"PRACTICA 5/librerias_y_tokens.sol\":5398:5407  msg.value */\n      callvalue\n        /* \"PRACTICA 5/librerias_y_tokens.sol\":5398:5415  msg.value >= cost */\n      lt\n      iszero\n        /* \"PRACTICA 5/librerias_y_tokens.sol\":5390:5467  require(msg.value >= cost, \"No tienes suficientes weis para agregar el arma\") */\n      tag_136\n      jumpi\n      mload(0x40)\n      0x08c379a000000000000000000000000000000000000000000000000000000000\n      dup2\n      mstore\n      0x04\n      add\n      tag_137\n      swap1\n      tag_138\n      jump\t// in\n    tag_137:\n      mload(0x40)\n      dup1\n      swap2\n      sub\n      swap1\n      revert\n    tag_136:\n        /* \"PRACTICA 5/librerias_y_tokens.sol\":5575:5585  characters */\n      0x01\n        /* \"PRACTICA 5/librerias_y_tokens.sol\":5575:5604  characters[character_tokenId] */\n      0x00\n        /* \"PRACTICA 5/librerias_y_tokens.sol\":5586:5603  character_tokenId */\n      dup12\n        /* \"PRACTICA 5/librerias_y_tokens.sol\":5575:5604  characters[character_tokenId] */\n      dup2\n      mstore\n      0x20\n      add\n      swap1\n      dup2\n      mstore\n      0x20\n      add\n      0x00\n      keccak256\n        /* \"PRACTICA 5/librerias_y_tokens.sol\":5575:5612  characters[character_tokenId].weapons */\n      0x01\n      add\n        /* \"PRACTICA 5/librerias_y_tokens.sol\":5575:5618  characters[character_tokenId].weapons.names */\n      0x00\n      add\n        /* \"PRACTICA 5/librerias_y_tokens.sol\":5624:5635  weapon_name */\n      dup10\n      dup10\n        /* \"PRACTICA 5/librerias_y_tokens.sol\":5575:5636  characters[character_tokenId].weapons.names.push(weapon_name) */\n      swap1\n      swap2\n      dup1\n      0x01\n      dup2\n      sload\n      add\n      dup1\n      dup3\n      sstore\n      dup1\n      swap2\n      pop\n      pop\n      0x01\n      swap1\n      sub\n      swap1\n      0x00\n      mstore\n      keccak256(0x00, 0x20)\n      add\n      0x00\n      swap1\n      swap2\n      swap3\n      swap1\n      swap2\n      swap3\n      swap1\n      swap2\n      swap3\n      swap1\n      swap2\n      swap3\n      pop\n      swap2\n      dup3\n      tag_140\n      swap3\n      swap2\n      swap1\n      tag_141\n      jump\t// in\n    tag_140:\n      pop\n        /* \"PRACTICA 5/librerias_y_tokens.sol\":5647:5657  characters */\n      0x01\n        /* \"PRACTICA 5/librerias_y_tokens.sol\":5647:5676  characters[character_tokenId] */\n      0x00\n        /* \"PRACTICA 5/librerias_y_tokens.sol\":5658:5675  character_tokenId */\n      dup12\n        /* \"PRACTICA 5/librerias_y_tokens.sol\":5647:5676  characters[character_tokenId] */\n      dup2\n      mstore\n      0x20\n      add\n      swap1\n      dup2\n      mstore\n      0x20\n      add\n      0x00\n      keccak256\n        /* \"PRACTICA 5/librerias_y_tokens.sol\":5647:5684  characters[character_tokenId].weapons */\n      0x01\n      add\n        /* \"PRACTICA 5/librerias_y_tokens.sol\":5647:5695  characters[character_tokenId].weapons.firePowers */\n      0x01\n      add\n        /* \"PRACTICA 5/librerias_y_tokens.sol\":5701:5711  fire_power */\n      dup8\n        /* \"PRACTICA 5/librerias_y_tokens.sol\":5647:5712  characters[character_tokenId].weapons.firePowers.push(fire_power) */\n      swap1\n      dup1\n      0x01\n      dup2\n      sload\n      add\n      dup1\n      dup3\n      sstore\n      dup1\n      swap2\n      pop\n      pop\n      0x01\n      swap1\n      sub\n      swap1\n      0x00\n      mstore\n      keccak256(0x00, 0x20)\n      add\n      0x00\n      swap1\n      swap2\n      swap1\n      swap2\n      swap1\n      swap2\n      pop\n      sstore\n        /* \"PRACTICA 5/librerias_y_tokens.sol\":4528:5865  {... */\n      pop\n      pop\n      pop\n        /* \"PRACTICA 5/librerias_y_tokens.sol\":4375:5865  function addWeapon(uint character_tokenId, string calldata weapon_name, uint fire_power) external payable weapon_notExist(character_tokenId, weapon_name){... */\n      pop\n      pop\n      pop\n      pop\n      pop\n      pop\n      pop\n      jump\t// out\n        /* \"PRACTICA 5/librerias_y_tokens.sol\":8053:9300  function transferFrom(address _from, address _to, uint256 _tokenId) external payable{... */\n    tag_44:\n        /* \"PRACTICA 5/librerias_y_tokens.sol\":8237:8247  characters */\n      0x01\n        /* \"PRACTICA 5/librerias_y_tokens.sol\":8237:8257  characters[_tokenId] */\n      0x00\n        /* \"PRACTICA 5/librerias_y_tokens.sol\":8248:8256  _tokenId */\n      dup3\n        /* \"PRACTICA 5/librerias_y_tokens.sol\":8237:8257  characters[_tokenId] */\n      dup2\n      mstore\n      0x20\n      add\n      swap1\n      dup2\n      mstore\n      0x20\n      add\n      0x00\n      keccak256\n        /* \"PRACTICA 5/librerias_y_tokens.sol\":8237:8268  characters[_tokenId].tokenOwner */\n      0x03\n      add\n      0x00\n      swap1\n      sload\n      swap1\n      0x0100\n      exp\n      swap1\n      div\n      0xffffffffffffffffffffffffffffffffffffffff\n      and\n        /* \"PRACTICA 5/librerias_y_tokens.sol\":8223:8268  msg.sender == characters[_tokenId].tokenOwner */\n      0xffffffffffffffffffffffffffffffffffffffff\n      and\n        /* \"PRACTICA 5/librerias_y_tokens.sol\":8223:8233  msg.sender */\n      caller\n        /* \"PRACTICA 5/librerias_y_tokens.sol\":8223:8268  msg.sender == characters[_tokenId].tokenOwner */\n      0xffffffffffffffffffffffffffffffffffffffff\n      and\n      eq\n        /* \"PRACTICA 5/librerias_y_tokens.sol\":8223:8304  msg.sender == characters[_tokenId].tokenOwner || msg.sender == approved[_tokenId] */\n      dup1\n      tag_144\n      jumpi\n      pop\n        /* \"PRACTICA 5/librerias_y_tokens.sol\":8286:8294  approved */\n      0x02\n        /* \"PRACTICA 5/librerias_y_tokens.sol\":8286:8304  approved[_tokenId] */\n      0x00\n        /* \"PRACTICA 5/librerias_y_tokens.sol\":8295:8303  _tokenId */\n      dup3\n        /* \"PRACTICA 5/librerias_y_tokens.sol\":8286:8304  approved[_tokenId] */\n      dup2\n      mstore\n      0x20\n      add\n      swap1\n      dup2\n      mstore\n      0x20\n      add\n      0x00\n      keccak256\n      0x00\n      swap1\n      sload\n      swap1\n      0x0100\n      exp\n      swap1\n      div\n      0xffffffffffffffffffffffffffffffffffffffff\n      and\n        /* \"PRACTICA 5/librerias_y_tokens.sol\":8272:8304  msg.sender == approved[_tokenId] */\n      0xffffffffffffffffffffffffffffffffffffffff\n      and\n        /* \"PRACTICA 5/librerias_y_tokens.sol\":8272:8282  msg.sender */\n      caller\n        /* \"PRACTICA 5/librerias_y_tokens.sol\":8272:8304  msg.sender == approved[_tokenId] */\n      0xffffffffffffffffffffffffffffffffffffffff\n      and\n      eq\n        /* \"PRACTICA 5/librerias_y_tokens.sol\":8223:8304  msg.sender == characters[_tokenId].tokenOwner || msg.sender == approved[_tokenId] */\n    tag_144:\n        /* \"PRACTICA 5/librerias_y_tokens.sol\":8215:8402  require(msg.sender == characters[_tokenId].tokenOwner || msg.sender == approved[_tokenId], \"Emisor debe ser el poseedor del token o el que tiene aprobacion para hacer cosas con el token\") */\n      tag_145\n      jumpi\n      mload(0x40)\n      0x08c379a000000000000000000000000000000000000000000000000000000000\n      dup2\n      mstore\n      0x04\n      add\n      tag_146\n      swap1\n      tag_147\n      jump\t// in\n    tag_146:\n      mload(0x40)\n      dup1\n      swap2\n      sub\n      swap1\n      revert\n    tag_145:\n        /* \"PRACTICA 5/librerias_y_tokens.sol\":8456:8461  _from */\n      dup3\n        /* \"PRACTICA 5/librerias_y_tokens.sol\":8421:8461  characters[_tokenId].tokenOwner == _from */\n      0xffffffffffffffffffffffffffffffffffffffff\n      and\n        /* \"PRACTICA 5/librerias_y_tokens.sol\":8421:8431  characters */\n      0x01\n        /* \"PRACTICA 5/librerias_y_tokens.sol\":8421:8441  characters[_tokenId] */\n      0x00\n        /* \"PRACTICA 5/librerias_y_tokens.sol\":8432:8440  _tokenId */\n      dup4\n        /* \"PRACTICA 5/librerias_y_tokens.sol\":8421:8441  characters[_tokenId] */\n      dup2\n      mstore\n      0x20\n      add\n      swap1\n      dup2\n      mstore\n      0x20\n      add\n      0x00\n      keccak256\n        /* \"PRACTICA 5/librerias_y_tokens.sol\":8421:8452  characters[_tokenId].tokenOwner */\n      0x03\n      add\n      0x00\n      swap1\n      sload\n      swap1\n      0x0100\n      exp\n      swap1\n      div\n      0xffffffffffffffffffffffffffffffffffffffff\n      and\n        /* \"PRACTICA 5/librerias_y_tokens.sol\":8421:8461  characters[_tokenId].tokenOwner == _from */\n      0xffffffffffffffffffffffffffffffffffffffff\n      and\n      eq\n        /* \"PRACTICA 5/librerias_y_tokens.sol\":8413:8604  require(characters[_tokenId].tokenOwner == _from, \"No lo dice el enunciado, pero creo que el from es siempre el que posee el token, sin necesidad de que sea este el que ejecuta la operacion\") */\n      tag_148\n      jumpi\n      mload(0x40)\n      0x08c379a000000000000000000000000000000000000000000000000000000000\n      dup2\n      mstore\n      0x04\n      add\n      tag_149\n      swap1\n      tag_150\n      jump\t// in\n    tag_149:\n      mload(0x40)\n      dup1\n      swap2\n      sub\n      swap1\n      revert\n    tag_148:\n        /* \"PRACTICA 5/librerias_y_tokens.sol\":8619:8632  uint cantidad */\n      0x00\n        /* \"PRACTICA 5/librerias_y_tokens.sol\":8635:8690  ArrayUtils.sum(characters[_tokenId].weapons.firePowers) */\n      tag_151\n        /* \"PRACTICA 5/librerias_y_tokens.sol\":8650:8660  characters */\n      0x01\n        /* \"PRACTICA 5/librerias_y_tokens.sol\":8650:8670  characters[_tokenId] */\n      0x00\n        /* \"PRACTICA 5/librerias_y_tokens.sol\":8661:8669  _tokenId */\n      dup5\n        /* \"PRACTICA 5/librerias_y_tokens.sol\":8650:8670  characters[_tokenId] */\n      dup2\n      mstore\n      0x20\n      add\n      swap1\n      dup2\n      mstore\n      0x20\n      add\n      0x00\n      keccak256\n        /* \"PRACTICA 5/librerias_y_tokens.sol\":8650:8678  characters[_tokenId].weapons */\n      0x01\n      add\n        /* \"PRACTICA 5/librerias_y_tokens.sol\":8650:8689  characters[_tokenId].weapons.firePowers */\n      0x01\n      add\n        /* \"PRACTICA 5/librerias_y_tokens.sol\":8635:8690  ArrayUtils.sum(characters[_tokenId].weapons.firePowers) */\n      dup1\n      sload\n      dup1\n      0x20\n      mul\n      0x20\n      add\n      mload(0x40)\n      swap1\n      dup2\n      add\n      0x40\n      mstore\n      dup1\n      swap3\n      swap2\n      swap1\n      dup2\n      dup2\n      mstore\n      0x20\n      add\n      dup3\n      dup1\n      sload\n      dup1\n      iszero\n      tag_152\n      jumpi\n      0x20\n      mul\n      dup3\n      add\n      swap2\n      swap1\n      0x00\n      mstore\n      keccak256(0x00, 0x20)\n      swap1\n    tag_153:\n      dup2\n      sload\n      dup2\n      mstore\n      0x20\n      add\n      swap1\n      0x01\n      add\n      swap1\n      dup1\n      dup4\n      gt\n      tag_153\n      jumpi\n    tag_152:\n      pop\n      pop\n      pop\n      pop\n      pop\n        /* \"PRACTICA 5/librerias_y_tokens.sol\":8635:8649  ArrayUtils.sum */\n      tag_105\n        /* \"PRACTICA 5/librerias_y_tokens.sol\":8635:8690  ArrayUtils.sum(characters[_tokenId].weapons.firePowers) */\n      jump\t// in\n    tag_151:\n        /* \"PRACTICA 5/librerias_y_tokens.sol\":8619:8690  uint cantidad = ArrayUtils.sum(characters[_tokenId].weapons.firePowers) */\n      swap1\n      pop\n        /* \"PRACTICA 5/librerias_y_tokens.sol\":8721:8729  cantidad */\n      dup1\n        /* \"PRACTICA 5/librerias_y_tokens.sol\":8709:8718  msg.value */\n      callvalue\n        /* \"PRACTICA 5/librerias_y_tokens.sol\":8709:8729  msg.value>= cantidad */\n      lt\n      iszero\n        /* \"PRACTICA 5/librerias_y_tokens.sol\":8701:8796  require(msg.value>= cantidad, \"Debes enviar al menos la suma de las potencias de fuego en Wei\") */\n      tag_154\n      jumpi\n      mload(0x40)\n      0x08c379a000000000000000000000000000000000000000000000000000000000\n      dup2\n      mstore\n      0x04\n      add\n      tag_155\n      swap1\n      tag_108\n      jump\t// in\n    tag_155:\n      mload(0x40)\n      dup1\n      swap2\n      sub\n      swap1\n      revert\n    tag_154:\n        /* \"PRACTICA 5/librerias_y_tokens.sol\":8885:8888  _to */\n      dup3\n        /* \"PRACTICA 5/librerias_y_tokens.sol\":8851:8861  characters */\n      0x01\n        /* \"PRACTICA 5/librerias_y_tokens.sol\":8851:8871  characters[_tokenId] */\n      0x00\n        /* \"PRACTICA 5/librerias_y_tokens.sol\":8862:8870  _tokenId */\n      dup5\n        /* \"PRACTICA 5/librerias_y_tokens.sol\":8851:8871  characters[_tokenId] */\n      dup2\n      mstore\n      0x20\n      add\n      swap1\n      dup2\n      mstore\n      0x20\n      add\n      0x00\n      keccak256\n        /* \"PRACTICA 5/librerias_y_tokens.sol\":8851:8882  characters[_tokenId].tokenOwner */\n      0x03\n      add\n      0x00\n        /* \"PRACTICA 5/librerias_y_tokens.sol\":8851:8888  characters[_tokenId].tokenOwner = _to */\n      0x0100\n      exp\n      dup2\n      sload\n      dup2\n      0xffffffffffffffffffffffffffffffffffffffff\n      mul\n      not\n      and\n      swap1\n      dup4\n      0xffffffffffffffffffffffffffffffffffffffff\n      and\n      mul\n      or\n      swap1\n      sstore\n      pop\n        /* \"PRACTICA 5/librerias_y_tokens.sol\":8899:8909  num_tokens */\n      0x03\n        /* \"PRACTICA 5/librerias_y_tokens.sol\":8899:8916  num_tokens[_from] */\n      0x00\n        /* \"PRACTICA 5/librerias_y_tokens.sol\":8910:8915  _from */\n      dup6\n        /* \"PRACTICA 5/librerias_y_tokens.sol\":8899:8916  num_tokens[_from] */\n      0xffffffffffffffffffffffffffffffffffffffff\n      and\n      0xffffffffffffffffffffffffffffffffffffffff\n      and\n      dup2\n      mstore\n      0x20\n      add\n      swap1\n      dup2\n      mstore\n      0x20\n      add\n      0x00\n      keccak256\n      0x00\n        /* \"PRACTICA 5/librerias_y_tokens.sol\":8899:8918  num_tokens[_from]-- */\n      dup2\n      sload\n      dup1\n      swap3\n      swap2\n      swap1\n      tag_156\n      swap1\n      tag_157\n      jump\t// in\n    tag_156:\n      swap2\n      swap1\n      pop\n      sstore\n      pop\n        /* \"PRACTICA 5/librerias_y_tokens.sol\":8929:8939  num_tokens */\n      0x03\n        /* \"PRACTICA 5/librerias_y_tokens.sol\":8929:8944  num_tokens[_to] */\n      0x00\n        /* \"PRACTICA 5/librerias_y_tokens.sol\":8940:8943  _to */\n      dup5\n        /* \"PRACTICA 5/librerias_y_tokens.sol\":8929:8944  num_tokens[_to] */\n      0xffffffffffffffffffffffffffffffffffffffff\n      and\n      0xffffffffffffffffffffffffffffffffffffffff\n      and\n      dup2\n      mstore\n      0x20\n      add\n      swap1\n      dup2\n      mstore\n      0x20\n      add\n      0x00\n      keccak256\n      0x00\n        /* \"PRACTICA 5/librerias_y_tokens.sol\":8929:8946  num_tokens[_to]++ */\n      dup2\n      sload\n      dup1\n      swap3\n      swap2\n      swap1\n      tag_158\n      swap1\n      tag_159\n      jump\t// in\n    tag_158:\n      swap2\n      swap1\n      pop\n      sstore\n      pop\n        /* \"PRACTICA 5/librerias_y_tokens.sol\":9076:9084  approved */\n      0x02\n        /* \"PRACTICA 5/librerias_y_tokens.sol\":9076:9094  approved[_tokenId] */\n      0x00\n        /* \"PRACTICA 5/librerias_y_tokens.sol\":9085:9093  _tokenId */\n      dup4\n        /* \"PRACTICA 5/librerias_y_tokens.sol\":9076:9094  approved[_tokenId] */\n      dup2\n      mstore\n      0x20\n      add\n      swap1\n      dup2\n      mstore\n      0x20\n      add\n      0x00\n      keccak256\n      0x00\n        /* \"PRACTICA 5/librerias_y_tokens.sol\":9069:9094  delete approved[_tokenId] */\n      0x0100\n      exp\n      dup2\n      sload\n      swap1\n      0xffffffffffffffffffffffffffffffffffffffff\n      mul\n      not\n      and\n      swap1\n      sstore\n        /* \"PRACTICA 5/librerias_y_tokens.sol\":9281:9289  _tokenId */\n      dup2\n        /* \"PRACTICA 5/librerias_y_tokens.sol\":9276:9279  _to */\n      dup4\n        /* \"PRACTICA 5/librerias_y_tokens.sol\":9260:9290  Transfer(_from, _to, _tokenId) */\n      0xffffffffffffffffffffffffffffffffffffffff\n      and\n        /* \"PRACTICA 5/librerias_y_tokens.sol\":9269:9274  _from */\n      dup6\n        /* \"PRACTICA 5/librerias_y_tokens.sol\":9260:9290  Transfer(_from, _to, _tokenId) */\n      0xffffffffffffffffffffffffffffffffffffffff\n      and\n      0xddf252ad1be2c89b69c2b068fc378daa952ba7f163c4a11628f55a4df523b3ef\n      mload(0x40)\n      mload(0x40)\n      dup1\n      swap2\n      sub\n      swap1\n      log4\n        /* \"PRACTICA 5/librerias_y_tokens.sol\":8137:9300  {... */\n      pop\n        /* \"PRACTICA 5/librerias_y_tokens.sol\":8053:9300  function transferFrom(address _from, address _to, uint256 _tokenId) external payable{... */\n      pop\n      pop\n      pop\n      jump\t// out\n        /* \"PRACTICA 5/librerias_y_tokens.sol\":9510:10955  function safeTransferFrom(address _from, address _to, uint256 _tokenId) external payable{... */\n    tag_47:\n        /* \"PRACTICA 5/librerias_y_tokens.sol\":9631:9641  characters */\n      0x01\n        /* \"PRACTICA 5/librerias_y_tokens.sol\":9631:9651  characters[_tokenId] */\n      0x00\n        /* \"PRACTICA 5/librerias_y_tokens.sol\":9642:9650  _tokenId */\n      dup3\n        /* \"PRACTICA 5/librerias_y_tokens.sol\":9631:9651  characters[_tokenId] */\n      dup2\n      mstore\n      0x20\n      add\n      swap1\n      dup2\n      mstore\n      0x20\n      add\n      0x00\n      keccak256\n        /* \"PRACTICA 5/librerias_y_tokens.sol\":9631:9662  characters[_tokenId].tokenOwner */\n      0x03\n      add\n      0x00\n      swap1\n      sload\n      swap1\n      0x0100\n      exp\n      swap1\n      div\n      0xffffffffffffffffffffffffffffffffffffffff\n      and\n        /* \"PRACTICA 5/librerias_y_tokens.sol\":9617:9662  msg.sender == characters[_tokenId].tokenOwner */\n      0xffffffffffffffffffffffffffffffffffffffff\n      and\n        /* \"PRACTICA 5/librerias_y_tokens.sol\":9617:9627  msg.sender */\n      caller\n        /* \"PRACTICA 5/librerias_y_tokens.sol\":9617:9662  msg.sender == characters[_tokenId].tokenOwner */\n      0xffffffffffffffffffffffffffffffffffffffff\n      and\n      eq\n        /* \"PRACTICA 5/librerias_y_tokens.sol\":9617:9698  msg.sender == characters[_tokenId].tokenOwner || msg.sender == approved[_tokenId] */\n      dup1\n      tag_161\n      jumpi\n      pop\n        /* \"PRACTICA 5/librerias_y_tokens.sol\":9680:9688  approved */\n      0x02\n        /* \"PRACTICA 5/librerias_y_tokens.sol\":9680:9698  approved[_tokenId] */\n      0x00\n        /* \"PRACTICA 5/librerias_y_tokens.sol\":9689:9697  _tokenId */\n      dup3\n        /* \"PRACTICA 5/librerias_y_tokens.sol\":9680:9698  approved[_tokenId] */\n      dup2\n      mstore\n      0x20\n      add\n      swap1\n      dup2\n      mstore\n      0x20\n      add\n      0x00\n      keccak256\n      0x00\n      swap1\n      sload\n      swap1\n      0x0100\n      exp\n      swap1\n      div\n      0xffffffffffffffffffffffffffffffffffffffff\n      and\n        /* \"PRACTICA 5/librerias_y_tokens.sol\":9666:9698  msg.sender == approved[_tokenId] */\n      0xffffffffffffffffffffffffffffffffffffffff\n      and\n        /* \"PRACTICA 5/librerias_y_tokens.sol\":9666:9676  msg.sender */\n      caller\n        /* \"PRACTICA 5/librerias_y_tokens.sol\":9666:9698  msg.sender == approved[_tokenId] */\n      0xffffffffffffffffffffffffffffffffffffffff\n      and\n      eq\n        /* \"PRACTICA 5/librerias_y_tokens.sol\":9617:9698  msg.sender == characters[_tokenId].tokenOwner || msg.sender == approved[_tokenId] */\n    tag_161:\n        /* \"PRACTICA 5/librerias_y_tokens.sol\":9609:9796  require(msg.sender == characters[_tokenId].tokenOwner || msg.sender == approved[_tokenId], \"Emisor debe ser el poseedor del token o el que tiene aprobacion para hacer cosas con el token\") */\n      tag_162\n      jumpi\n      mload(0x40)\n      0x08c379a000000000000000000000000000000000000000000000000000000000\n      dup2\n      mstore\n      0x04\n      add\n      tag_163\n      swap1\n      tag_147\n      jump\t// in\n    tag_163:\n      mload(0x40)\n      dup1\n      swap2\n      sub\n      swap1\n      revert\n    tag_162:\n        /* \"PRACTICA 5/librerias_y_tokens.sol\":9850:9855  _from */\n      dup3\n        /* \"PRACTICA 5/librerias_y_tokens.sol\":9815:9855  characters[_tokenId].tokenOwner == _from */\n      0xffffffffffffffffffffffffffffffffffffffff\n      and\n        /* \"PRACTICA 5/librerias_y_tokens.sol\":9815:9825  characters */\n      0x01\n        /* \"PRACTICA 5/librerias_y_tokens.sol\":9815:9835  characters[_tokenId] */\n      0x00\n        /* \"PRACTICA 5/librerias_y_tokens.sol\":9826:9834  _tokenId */\n      dup4\n        /* \"PRACTICA 5/librerias_y_tokens.sol\":9815:9835  characters[_tokenId] */\n      dup2\n      mstore\n      0x20\n      add\n      swap1\n      dup2\n      mstore\n      0x20\n      add\n      0x00\n      keccak256\n        /* \"PRACTICA 5/librerias_y_tokens.sol\":9815:9846  characters[_tokenId].tokenOwner */\n      0x03\n      add\n      0x00\n      swap1\n      sload\n      swap1\n      0x0100\n      exp\n      swap1\n      div\n      0xffffffffffffffffffffffffffffffffffffffff\n      and\n        /* \"PRACTICA 5/librerias_y_tokens.sol\":9815:9855  characters[_tokenId].tokenOwner == _from */\n      0xffffffffffffffffffffffffffffffffffffffff\n      and\n      eq\n        /* \"PRACTICA 5/librerias_y_tokens.sol\":9807:9998  require(characters[_tokenId].tokenOwner == _from, \"No lo dice el enunciado, pero creo que el from es siempre el que posee el token, sin necesidad de que sea este el que ejecuta la operacion\") */\n      tag_164\n      jumpi\n      mload(0x40)\n      0x08c379a000000000000000000000000000000000000000000000000000000000\n      dup2\n      mstore\n      0x04\n      add\n      tag_165\n      swap1\n      tag_150\n      jump\t// in\n    tag_165:\n      mload(0x40)\n      dup1\n      swap2\n      sub\n      swap1\n      revert\n    tag_164:\n        /* \"PRACTICA 5/librerias_y_tokens.sol\":10091:10104  uint cantidad */\n      0x00\n        /* \"PRACTICA 5/librerias_y_tokens.sol\":10107:10162  ArrayUtils.sum(characters[_tokenId].weapons.firePowers) */\n      tag_166\n        /* \"PRACTICA 5/librerias_y_tokens.sol\":10122:10132  characters */\n      0x01\n        /* \"PRACTICA 5/librerias_y_tokens.sol\":10122:10142  characters[_tokenId] */\n      0x00\n        /* \"PRACTICA 5/librerias_y_tokens.sol\":10133:10141  _tokenId */\n      dup5\n        /* \"PRACTICA 5/librerias_y_tokens.sol\":10122:10142  characters[_tokenId] */\n      dup2\n      mstore\n      0x20\n      add\n      swap1\n      dup2\n      mstore\n      0x20\n      add\n      0x00\n      keccak256\n        /* \"PRACTICA 5/librerias_y_tokens.sol\":10122:10150  characters[_tokenId].weapons */\n      0x01\n      add\n        /* \"PRACTICA 5/librerias_y_tokens.sol\":10122:10161  characters[_tokenId].weapons.firePowers */\n      0x01\n      add\n        /* \"PRACTICA 5/librerias_y_tokens.sol\":10107:10162  ArrayUtils.sum(characters[_tokenId].weapons.firePowers) */\n      dup1\n      sload\n      dup1\n      0x20\n      mul\n      0x20\n      add\n      mload(0x40)\n      swap1\n      dup2\n      add\n      0x40\n      mstore\n      dup1\n      swap3\n      swap2\n      swap1\n      dup2\n      dup2\n      mstore\n      0x20\n      add\n      dup3\n      dup1\n      sload\n      dup1\n      iszero\n      tag_167\n      jumpi\n      0x20\n      mul\n      dup3\n      add\n      swap2\n      swap1\n      0x00\n      mstore\n      keccak256(0x00, 0x20)\n      swap1\n    tag_168:\n      dup2\n      sload\n      dup2\n      mstore\n      0x20\n      add\n      swap1\n      0x01\n      add\n      swap1\n      dup1\n      dup4\n      gt\n      tag_168\n      jumpi\n    tag_167:\n      pop\n      pop\n      pop\n      pop\n      pop\n        /* \"PRACTICA 5/librerias_y_tokens.sol\":10107:10121  ArrayUtils.sum */\n      tag_105\n        /* \"PRACTICA 5/librerias_y_tokens.sol\":10107:10162  ArrayUtils.sum(characters[_tokenId].weapons.firePowers) */\n      jump\t// in\n    tag_166:\n        /* \"PRACTICA 5/librerias_y_tokens.sol\":10091:10162  uint cantidad = ArrayUtils.sum(characters[_tokenId].weapons.firePowers) */\n      swap1\n      pop\n        /* \"PRACTICA 5/librerias_y_tokens.sol\":10193:10201  cantidad */\n      dup1\n        /* \"PRACTICA 5/librerias_y_tokens.sol\":10181:10190  msg.value */\n      callvalue\n        /* \"PRACTICA 5/librerias_y_tokens.sol\":10181:10201  msg.value>= cantidad */\n      lt\n      iszero\n        /* \"PRACTICA 5/librerias_y_tokens.sol\":10173:10268  require(msg.value>= cantidad, \"Debes enviar al menos la suma de las potencias de fuego en Wei\") */\n      tag_169\n      jumpi\n      mload(0x40)\n      0x08c379a000000000000000000000000000000000000000000000000000000000\n      dup2\n      mstore\n      0x04\n      add\n      tag_170\n      swap1\n      tag_108\n      jump\t// in\n    tag_170:\n      mload(0x40)\n      dup1\n      swap2\n      sub\n      swap1\n      revert\n    tag_169:\n        /* \"PRACTICA 5/librerias_y_tokens.sol\":10305:10306  0 */\n      0x00\n        /* \"PRACTICA 5/librerias_y_tokens.sol\":10287:10290  _to */\n      dup4\n        /* \"PRACTICA 5/librerias_y_tokens.sol\":10287:10302  _to.code.length */\n      0xffffffffffffffffffffffffffffffffffffffff\n      and\n      extcodesize\n        /* \"PRACTICA 5/librerias_y_tokens.sol\":10287:10306  _to.code.length > 0 */\n      gt\n        /* \"PRACTICA 5/librerias_y_tokens.sol\":10283:10596  if (_to.code.length > 0) { // Si _to es un contrato... */\n      iszero\n      tag_171\n      jumpi\n        /* \"PRACTICA 5/librerias_y_tokens.sol\":10348:10361  bytes4 retval */\n      0x00\n        /* \"PRACTICA 5/librerias_y_tokens.sol\":10380:10383  _to */\n      dup4\n        /* \"PRACTICA 5/librerias_y_tokens.sol\":10364:10401  IERC721Receiver(_to).onERC721Received */\n      0xffffffffffffffffffffffffffffffffffffffff\n      and\n      0x150b7a02\n        /* \"PRACTICA 5/librerias_y_tokens.sol\":10402:10412  msg.sender */\n      caller\n        /* \"PRACTICA 5/librerias_y_tokens.sol\":10414:10419  _from */\n      dup8\n        /* \"PRACTICA 5/librerias_y_tokens.sol\":10421:10429  _tokenId */\n      dup7\n        /* \"PRACTICA 5/librerias_y_tokens.sol\":10364:10434  IERC721Receiver(_to).onERC721Received(msg.sender, _from, _tokenId, \"\") */\n      mload(0x40)\n      dup5\n      0xffffffff\n      and\n      0xe0\n      shl\n      dup2\n      mstore\n      0x04\n      add\n      tag_172\n      swap4\n      swap3\n      swap2\n      swap1\n      tag_173\n      jump\t// in\n    tag_172:\n      0x20\n      mload(0x40)\n      dup1\n      dup4\n      sub\n      dup2\n      0x00\n      dup8\n      gas\n      call\n      iszero\n      dup1\n      iszero\n      tag_175\n      jumpi\n      returndatasize\n      0x00\n      dup1\n      returndatacopy\n      revert(0x00, returndatasize)\n    tag_175:\n      pop\n      pop\n      pop\n      pop\n      mload(0x40)\n      returndatasize\n      not(0x1f)\n      0x1f\n      dup3\n      add\n      and\n      dup3\n      add\n      dup1\n      0x40\n      mstore\n      pop\n      dup2\n      add\n      swap1\n      tag_176\n      swap2\n      swap1\n      tag_177\n      jump\t// in\n    tag_176:\n        /* \"PRACTICA 5/librerias_y_tokens.sol\":10348:10434  bytes4 retval = IERC721Receiver(_to).onERC721Received(msg.sender, _from, _tokenId, \"\") */\n      swap1\n      pop\n        /* \"PRACTICA 5/librerias_y_tokens.sol\":10467:10513  IERC721Receiver(_to).onERC721Received.selector */\n      shl(0xe0, 0x150b7a02)\n        /* \"PRACTICA 5/librerias_y_tokens.sol\":10457:10513  retval == IERC721Receiver(_to).onERC721Received.selector */\n      not(0xffffffffffffffffffffffffffffffffffffffffffffffffffffffff)\n      and\n        /* \"PRACTICA 5/librerias_y_tokens.sol\":10457:10463  retval */\n      dup2\n        /* \"PRACTICA 5/librerias_y_tokens.sol\":10457:10513  retval == IERC721Receiver(_to).onERC721Received.selector */\n      not(0xffffffffffffffffffffffffffffffffffffffffffffffffffffffff)\n      and\n      eq\n        /* \"PRACTICA 5/librerias_y_tokens.sol\":10449:10584  require(retval == IERC721Receiver(_to).onERC721Received.selector, \"Esto te comprueba si el contrato esta preparado para recibir nfts.\") */\n      tag_178\n      jumpi\n      mload(0x40)\n      0x08c379a000000000000000000000000000000000000000000000000000000000\n      dup2\n      mstore\n      0x04\n      add\n      tag_179\n      swap1\n      tag_180\n      jump\t// in\n    tag_179:\n      mload(0x40)\n      dup1\n      swap2\n      sub\n      swap1\n      revert\n    tag_178:\n        /* \"PRACTICA 5/librerias_y_tokens.sol\":10308:10596  { // Si _to es un contrato... */\n      pop\n        /* \"PRACTICA 5/librerias_y_tokens.sol\":10283:10596  if (_to.code.length > 0) { // Si _to es un contrato... */\n    tag_171:\n        /* \"PRACTICA 5/librerias_y_tokens.sol\":10683:10686  _to */\n      dup3\n        /* \"PRACTICA 5/librerias_y_tokens.sol\":10649:10659  characters */\n      0x01\n        /* \"PRACTICA 5/librerias_y_tokens.sol\":10649:10669  characters[_tokenId] */\n      0x00\n        /* \"PRACTICA 5/librerias_y_tokens.sol\":10660:10668  _tokenId */\n      dup5\n        /* \"PRACTICA 5/librerias_y_tokens.sol\":10649:10669  characters[_tokenId] */\n      dup2\n      mstore\n      0x20\n      add\n      swap1\n      dup2\n      mstore\n      0x20\n      add\n      0x00\n      keccak256\n        /* \"PRACTICA 5/librerias_y_tokens.sol\":10649:10680  characters[_tokenId].tokenOwner */\n      0x03\n      add\n      0x00\n        /* \"PRACTICA 5/librerias_y_tokens.sol\":10649:10686  characters[_tokenId].tokenOwner = _to */\n      0x0100\n      exp\n      dup2\n      sload\n      dup2\n      0xffffffffffffffffffffffffffffffffffffffff\n      mul\n      not\n      and\n      swap1\n      dup4\n      0xffffffffffffffffffffffffffffffffffffffff\n      and\n      mul\n      or\n      swap1\n      sstore\n      pop\n        /* \"PRACTICA 5/librerias_y_tokens.sol\":10697:10707  num_tokens */\n      0x03\n        /* \"PRACTICA 5/librerias_y_tokens.sol\":10697:10714  num_tokens[_from] */\n      0x00\n        /* \"PRACTICA 5/librerias_y_tokens.sol\":10708:10713  _from */\n      dup6\n        /* \"PRACTICA 5/librerias_y_tokens.sol\":10697:10714  num_tokens[_from] */\n      0xffffffffffffffffffffffffffffffffffffffff\n      and\n      0xffffffffffffffffffffffffffffffffffffffff\n      and\n      dup2\n      mstore\n      0x20\n      add\n      swap1\n      dup2\n      mstore\n      0x20\n      add\n      0x00\n      keccak256\n      0x00\n        /* \"PRACTICA 5/librerias_y_tokens.sol\":10697:10716  num_tokens[_from]-- */\n      dup2\n      sload\n      dup1\n      swap3\n      swap2\n      swap1\n      tag_181\n      swap1\n      tag_157\n      jump\t// in\n    tag_181:\n      swap2\n      swap1\n      pop\n      sstore\n      pop\n        /* \"PRACTICA 5/librerias_y_tokens.sol\":10727:10737  num_tokens */\n      0x03\n        /* \"PRACTICA 5/librerias_y_tokens.sol\":10727:10742  num_tokens[_to] */\n      0x00\n        /* \"PRACTICA 5/librerias_y_tokens.sol\":10738:10741  _to */\n      dup5\n        /* \"PRACTICA 5/librerias_y_tokens.sol\":10727:10742  num_tokens[_to] */\n      0xffffffffffffffffffffffffffffffffffffffff\n      and\n      0xffffffffffffffffffffffffffffffffffffffff\n      and\n      dup2\n      mstore\n      0x20\n      add\n      swap1\n      dup2\n      mstore\n      0x20\n      add\n      0x00\n      keccak256\n      0x00\n        /* \"PRACTICA 5/librerias_y_tokens.sol\":10727:10744  num_tokens[_to]++ */\n      dup2\n      sload\n      dup1\n      swap3\n      swap2\n      swap1\n      tag_182\n      swap1\n      tag_159\n      jump\t// in\n    tag_182:\n      swap2\n      swap1\n      pop\n      sstore\n      pop\n        /* \"PRACTICA 5/librerias_y_tokens.sol\":10874:10882  approved */\n      0x02\n        /* \"PRACTICA 5/librerias_y_tokens.sol\":10874:10892  approved[_tokenId] */\n      0x00\n        /* \"PRACTICA 5/librerias_y_tokens.sol\":10883:10891  _tokenId */\n      dup4\n        /* \"PRACTICA 5/librerias_y_tokens.sol\":10874:10892  approved[_tokenId] */\n      dup2\n      mstore\n      0x20\n      add\n      swap1\n      dup2\n      mstore\n      0x20\n      add\n      0x00\n      keccak256\n      0x00\n        /* \"PRACTICA 5/librerias_y_tokens.sol\":10867:10892  delete approved[_tokenId] */\n      0x0100\n      exp\n      dup2\n      sload\n      swap1\n      0xffffffffffffffffffffffffffffffffffffffff\n      mul\n      not\n      and\n      swap1\n      sstore\n        /* \"PRACTICA 5/librerias_y_tokens.sol\":10938:10946  _tokenId */\n      dup2\n        /* \"PRACTICA 5/librerias_y_tokens.sol\":10933:10936  _to */\n      dup4\n        /* \"PRACTICA 5/librerias_y_tokens.sol\":10917:10947  Transfer(_from, _to, _tokenId) */\n      0xffffffffffffffffffffffffffffffffffffffff\n      and\n        /* \"PRACTICA 5/librerias_y_tokens.sol\":10926:10931  _from */\n      dup6\n        /* \"PRACTICA 5/librerias_y_tokens.sol\":10917:10947  Transfer(_from, _to, _tokenId) */\n      0xffffffffffffffffffffffffffffffffffffffff\n      and\n      0xddf252ad1be2c89b69c2b068fc378daa952ba7f163c4a11628f55a4df523b3ef\n      mload(0x40)\n      mload(0x40)\n      dup1\n      swap2\n      sub\n      swap1\n      log4\n        /* \"PRACTICA 5/librerias_y_tokens.sol\":9598:10955  {... */\n      pop\n        /* \"PRACTICA 5/librerias_y_tokens.sol\":9510:10955  function safeTransferFrom(address _from, address _to, uint256 _tokenId) external payable{... */\n      pop\n      pop\n      pop\n      jump\t// out\n        /* \"PRACTICA 5/librerias_y_tokens.sol\":1721:1766  mapping (uint => Character) public characters */\n    tag_51:\n      mstore(0x20, 0x01)\n      dup1\n      0x00\n      mstore\n      keccak256(0x00, 0x40)\n      0x00\n      swap2\n      pop\n      swap1\n      pop\n      dup1\n      0x00\n      add\n      dup1\n      sload\n      tag_183\n      swap1\n      tag_118\n      jump\t// in\n    tag_183:\n      dup1\n      0x1f\n      add\n      0x20\n      dup1\n      swap2\n      div\n      mul\n      0x20\n      add\n      mload(0x40)\n      swap1\n      dup2\n      add\n      0x40\n      mstore\n      dup1\n      swap3\n      swap2\n      swap1\n      dup2\n      dup2\n      mstore\n      0x20\n      add\n      dup3\n      dup1\n      sload\n      tag_184\n      swap1\n      tag_118\n      jump\t// in\n    tag_184:\n      dup1\n      iszero\n      tag_185\n      jumpi\n      dup1\n      0x1f\n      lt\n      tag_186\n      jumpi\n      0x0100\n      dup1\n      dup4\n      sload\n      div\n      mul\n      dup4\n      mstore\n      swap2\n      0x20\n      add\n      swap2\n      jump(tag_185)\n    tag_186:\n      dup3\n      add\n      swap2\n      swap1\n      0x00\n      mstore\n      keccak256(0x00, 0x20)\n      swap1\n    tag_187:\n      dup2\n      sload\n      dup2\n      mstore\n      swap1\n      0x01\n      add\n      swap1\n      0x20\n      add\n      dup1\n      dup4\n      gt\n      tag_187\n      jumpi\n      dup3\n      swap1\n      sub\n      0x1f\n      and\n      dup3\n      add\n      swap2\n    tag_185:\n      pop\n      pop\n      pop\n      pop\n      pop\n      swap1\n      dup1\n      0x01\n      add\n      mload(0x40)\n      dup1\n      0x40\n      add\n      0x40\n      mstore\n      swap1\n      dup2\n      0x00\n      dup3\n      add\n      dup1\n      sload\n      dup1\n      0x20\n      mul\n      0x20\n      add\n      mload(0x40)\n      swap1\n      dup2\n      add\n      0x40\n      mstore\n      dup1\n      swap3\n      swap2\n      swap1\n      dup2\n      dup2\n      mstore\n      0x20\n      add\n      0x00\n      swap1\n    tag_188:\n      dup3\n      dup3\n      lt\n      iszero\n      tag_189\n      jumpi\n      dup4\n      dup3\n      swap1\n      0x00\n      mstore\n      keccak256(0x00, 0x20)\n      add\n      dup1\n      sload\n      tag_191\n      swap1\n      tag_118\n      jump\t// in\n    tag_191:\n      dup1\n      0x1f\n      add\n      0x20\n      dup1\n      swap2\n      div\n      mul\n      0x20\n      add\n      mload(0x40)\n      swap1\n      dup2\n      add\n      0x40\n      mstore\n      dup1\n      swap3\n      swap2\n      swap1\n      dup2\n      dup2\n      mstore\n      0x20\n      add\n      dup3\n      dup1\n      sload\n      tag_192\n      swap1\n      tag_118\n      jump\t// in\n    tag_192:\n      dup1\n      iszero\n      tag_193\n      jumpi\n      dup1\n      0x1f\n      lt\n      tag_194\n      jumpi\n      0x0100\n      dup1\n      dup4\n      sload\n      div\n      mul\n      dup4\n      mstore\n      swap2\n      0x20\n      add\n      swap2\n      jump(tag_193)\n    tag_194:\n      dup3\n      add\n      swap2\n      swap1\n      0x00\n      mstore\n      keccak256(0x00, 0x20)\n      swap1\n    tag_195:\n      dup2\n      sload\n      dup2\n      mstore\n      swap1\n      0x01\n      add\n      swap1\n      0x20\n      add\n      dup1\n      dup4\n      gt\n      tag_195\n      jumpi\n      dup3\n      swap1\n      sub\n      0x1f\n      and\n      dup3\n      add\n      swap2\n    tag_193:\n      pop\n      pop\n      pop\n      pop\n      pop\n      dup2\n      mstore\n      0x20\n      add\n      swap1\n      0x01\n      add\n      swap1\n      jump(tag_188)\n    tag_189:\n      pop\n      pop\n      pop\n      pop\n      dup2\n      mstore\n      0x20\n      add\n      0x01\n      dup3\n      add\n      dup1\n      sload\n      dup1\n      0x20\n      mul\n      0x20\n      add\n      mload(0x40)\n      swap1\n      dup2\n      add\n      0x40\n      mstore\n      dup1\n      swap3\n      swap2\n      swap1\n      dup2\n      dup2\n      mstore\n      0x20\n      add\n      dup3\n      dup1\n      sload\n      dup1\n      iszero\n      tag_196\n      jumpi\n      0x20\n      mul\n      dup3\n      add\n      swap2\n      swap1\n      0x00\n      mstore\n      keccak256(0x00, 0x20)\n      swap1\n    tag_197:\n      dup2\n      sload\n      dup2\n      mstore\n      0x20\n      add\n      swap1\n      0x01\n      add\n      swap1\n      dup1\n      dup4\n      gt\n      tag_197\n      jumpi\n    tag_196:\n      pop\n      pop\n      pop\n      pop\n      pop\n      dup2\n      mstore\n      pop\n      pop\n      swap1\n      dup1\n      0x03\n      add\n      0x00\n      swap1\n      sload\n      swap1\n      0x0100\n      exp\n      swap1\n      div\n      0xffffffffffffffffffffffffffffffffffffffff\n      and\n      swap1\n      pop\n      dup4\n      jump\t// out\n        /* \"PRACTICA 5/librerias_y_tokens.sol\":2942:3981  function removeMonsterToken(uint token) external {... */\n    tag_57:\n        /* \"PRACTICA 5/librerias_y_tokens.sol\":3256:3266  msg.sender */\n      caller\n        /* \"PRACTICA 5/librerias_y_tokens.sol\":3224:3266  characters[token].tokenOwner == msg.sender */\n      0xffffffffffffffffffffffffffffffffffffffff\n      and\n        /* \"PRACTICA 5/librerias_y_tokens.sol\":3224:3234  characters */\n      0x01\n        /* \"PRACTICA 5/librerias_y_tokens.sol\":3224:3241  characters[token] */\n      0x00\n        /* \"PRACTICA 5/librerias_y_tokens.sol\":3235:3240  token */\n      dup4\n        /* \"PRACTICA 5/librerias_y_tokens.sol\":3224:3241  characters[token] */\n      dup2\n      mstore\n      0x20\n      add\n      swap1\n      dup2\n      mstore\n      0x20\n      add\n      0x00\n      keccak256\n        /* \"PRACTICA 5/librerias_y_tokens.sol\":3224:3252  characters[token].tokenOwner */\n      0x03\n      add\n      0x00\n      swap1\n      sload\n      swap1\n      0x0100\n      exp\n      swap1\n      div\n      0xffffffffffffffffffffffffffffffffffffffff\n      and\n        /* \"PRACTICA 5/librerias_y_tokens.sol\":3224:3266  characters[token].tokenOwner == msg.sender */\n      0xffffffffffffffffffffffffffffffffffffffff\n      and\n      eq\n        /* \"PRACTICA 5/librerias_y_tokens.sol\":3224:3299  characters[token].tokenOwner == msg.sender || msg.sender == approved[token] */\n      dup1\n      tag_199\n      jumpi\n      pop\n        /* \"PRACTICA 5/librerias_y_tokens.sol\":3284:3292  approved */\n      0x02\n        /* \"PRACTICA 5/librerias_y_tokens.sol\":3284:3299  approved[token] */\n      0x00\n        /* \"PRACTICA 5/librerias_y_tokens.sol\":3293:3298  token */\n      dup3\n        /* \"PRACTICA 5/librerias_y_tokens.sol\":3284:3299  approved[token] */\n      dup2\n      mstore\n      0x20\n      add\n      swap1\n      dup2\n      mstore\n      0x20\n      add\n      0x00\n      keccak256\n      0x00\n      swap1\n      sload\n      swap1\n      0x0100\n      exp\n      swap1\n      div\n      0xffffffffffffffffffffffffffffffffffffffff\n      and\n        /* \"PRACTICA 5/librerias_y_tokens.sol\":3270:3299  msg.sender == approved[token] */\n      0xffffffffffffffffffffffffffffffffffffffff\n      and\n        /* \"PRACTICA 5/librerias_y_tokens.sol\":3270:3280  msg.sender */\n      caller\n        /* \"PRACTICA 5/librerias_y_tokens.sol\":3270:3299  msg.sender == approved[token] */\n      0xffffffffffffffffffffffffffffffffffffffff\n      and\n      eq\n        /* \"PRACTICA 5/librerias_y_tokens.sol\":3224:3299  characters[token].tokenOwner == msg.sender || msg.sender == approved[token] */\n    tag_199:\n        /* \"PRACTICA 5/librerias_y_tokens.sol\":3216:3364  require(characters[token].tokenOwner == msg.sender || msg.sender == approved[token] , \"Solo el propietario y aprobado pueden ejecutar esta funcion\") */\n      tag_200\n      jumpi\n      mload(0x40)\n      0x08c379a000000000000000000000000000000000000000000000000000000000\n      dup2\n      mstore\n      0x04\n      add\n      tag_201\n      swap1\n      tag_131\n      jump\t// in\n    tag_201:\n      mload(0x40)\n      dup1\n      swap2\n      sub\n      swap1\n      revert\n    tag_200:\n        /* \"PRACTICA 5/librerias_y_tokens.sol\":3386:3396  characters */\n      0x01\n        /* \"PRACTICA 5/librerias_y_tokens.sol\":3386:3403  characters[token] */\n      0x00\n        /* \"PRACTICA 5/librerias_y_tokens.sol\":3397:3402  token */\n      dup3\n        /* \"PRACTICA 5/librerias_y_tokens.sol\":3386:3403  characters[token] */\n      dup2\n      mstore\n      0x20\n      add\n      swap1\n      dup2\n      mstore\n      0x20\n      add\n      0x00\n      keccak256\n      0x00\n        /* \"PRACTICA 5/librerias_y_tokens.sol\":3379:3403  delete characters[token] */\n      dup1\n      dup3\n      add\n      0x00\n      tag_202\n      swap2\n      swap1\n      tag_203\n      jump\t// in\n    tag_202:\n      0x01\n      dup3\n      add\n      0x00\n      dup1\n      dup3\n      add\n      0x00\n      tag_204\n      swap2\n      swap1\n      tag_205\n      jump\t// in\n    tag_204:\n      0x01\n      dup3\n      add\n      0x00\n      tag_206\n      swap2\n      swap1\n      tag_207\n      jump\t// in\n    tag_206:\n      pop\n      pop\n      0x03\n      dup3\n      add\n      exp(0x0100, 0x00)\n      dup2\n      sload\n      swap1\n      0xffffffffffffffffffffffffffffffffffffffff\n      mul\n      not\n      and\n      swap1\n      sstore\n      pop\n      pop\n        /* \"PRACTICA 5/librerias_y_tokens.sol\":3418:3432  num_characters */\n      0x04\n      0x00\n        /* \"PRACTICA 5/librerias_y_tokens.sol\":3418:3434  num_characters-- */\n      dup2\n      sload\n      dup1\n      swap3\n      swap2\n      swap1\n      tag_208\n      swap1\n      tag_157\n      jump\t// in\n    tag_208:\n      swap2\n      swap1\n      pop\n      sstore\n      pop\n        /* \"PRACTICA 5/librerias_y_tokens.sol\":3445:3455  num_tokens */\n      0x03\n        /* \"PRACTICA 5/librerias_y_tokens.sol\":3445:3485  num_tokens[characters[token].tokenOwner] */\n      0x00\n        /* \"PRACTICA 5/librerias_y_tokens.sol\":3456:3466  characters */\n      0x01\n        /* \"PRACTICA 5/librerias_y_tokens.sol\":3456:3473  characters[token] */\n      0x00\n        /* \"PRACTICA 5/librerias_y_tokens.sol\":3467:3472  token */\n      dup5\n        /* \"PRACTICA 5/librerias_y_tokens.sol\":3456:3473  characters[token] */\n      dup2\n      mstore\n      0x20\n      add\n      swap1\n      dup2\n      mstore\n      0x20\n      add\n      0x00\n      keccak256\n        /* \"PRACTICA 5/librerias_y_tokens.sol\":3456:3484  characters[token].tokenOwner */\n      0x03\n      add\n      0x00\n      swap1\n      sload\n      swap1\n      0x0100\n      exp\n      swap1\n      div\n      0xffffffffffffffffffffffffffffffffffffffff\n      and\n        /* \"PRACTICA 5/librerias_y_tokens.sol\":3445:3485  num_tokens[characters[token].tokenOwner] */\n      0xffffffffffffffffffffffffffffffffffffffff\n      and\n      0xffffffffffffffffffffffffffffffffffffffff\n      and\n      dup2\n      mstore\n      0x20\n      add\n      swap1\n      dup2\n      mstore\n      0x20\n      add\n      0x00\n      keccak256\n      0x00\n        /* \"PRACTICA 5/librerias_y_tokens.sol\":3445:3487  num_tokens[characters[token].tokenOwner]-- */\n      dup2\n      sload\n      dup1\n      swap3\n      swap2\n      swap1\n      tag_209\n      swap1\n      tag_157\n      jump\t// in\n    tag_209:\n      swap2\n      swap1\n      pop\n      sstore\n      pop\n        /* \"PRACTICA 5/librerias_y_tokens.sol\":3727:3735  approved */\n      0x02\n        /* \"PRACTICA 5/librerias_y_tokens.sol\":3727:3742  approved[token] */\n      0x00\n        /* \"PRACTICA 5/librerias_y_tokens.sol\":3736:3741  token */\n      dup3\n        /* \"PRACTICA 5/librerias_y_tokens.sol\":3727:3742  approved[token] */\n      dup2\n      mstore\n      0x20\n      add\n      swap1\n      dup2\n      mstore\n      0x20\n      add\n      0x00\n      keccak256\n      0x00\n        /* \"PRACTICA 5/librerias_y_tokens.sol\":3720:3742  delete approved[token] */\n      0x0100\n      exp\n      dup2\n      sload\n      swap1\n      0xffffffffffffffffffffffffffffffffffffffff\n      mul\n      not\n      and\n      swap1\n      sstore\n        /* \"PRACTICA 5/librerias_y_tokens.sol\":3763:3773  msg.sender */\n      caller\n        /* \"PRACTICA 5/librerias_y_tokens.sol\":3755:3783  payable(msg.sender).transfer */\n      0xffffffffffffffffffffffffffffffffffffffff\n      and\n        /* \"PRACTICA 5/librerias_y_tokens.sol\":3755:3800  payable(msg.sender).transfer(WEIS_NECESARIOS) */\n      0x08fc\n        /* \"PRACTICA 5/librerias_y_tokens.sol\":1669:1677  1000 wei */\n      0x03e8\n        /* \"PRACTICA 5/librerias_y_tokens.sol\":3755:3800  payable(msg.sender).transfer(WEIS_NECESARIOS) */\n      swap1\n      dup2\n      iszero\n      mul\n      swap1\n      mload(0x40)\n      0x00\n      mload(0x40)\n      dup1\n      dup4\n      sub\n      dup2\n      dup6\n      dup9\n      dup9\n      call\n      swap4\n      pop\n      pop\n      pop\n      pop\n      iszero\n      dup1\n      iszero\n      tag_211\n      jumpi\n      returndatasize\n      0x00\n      dup1\n      returndatacopy\n      revert(0x00, returndatasize)\n    tag_211:\n      pop\n        /* \"PRACTICA 5/librerias_y_tokens.sol\":3967:3972  token */\n      dup1\n        /* \"PRACTICA 5/librerias_y_tokens.sol\":3963:3964  0 */\n      0x00\n        /* \"PRACTICA 5/librerias_y_tokens.sol\":3934:3973  Transfer(msg.sender, address(0), token) */\n      0xffffffffffffffffffffffffffffffffffffffff\n      and\n        /* \"PRACTICA 5/librerias_y_tokens.sol\":3943:3953  msg.sender */\n      caller\n        /* \"PRACTICA 5/librerias_y_tokens.sol\":3934:3973  Transfer(msg.sender, address(0), token) */\n      0xffffffffffffffffffffffffffffffffffffffff\n      and\n      0xddf252ad1be2c89b69c2b068fc378daa952ba7f163c4a11628f55a4df523b3ef\n      mload(0x40)\n      mload(0x40)\n      dup1\n      swap2\n      sub\n      swap1\n      log4\n        /* \"PRACTICA 5/librerias_y_tokens.sol\":2942:3981  function removeMonsterToken(uint token) external {... */\n      pop\n      jump\t// out\n        /* \"PRACTICA 5/librerias_y_tokens.sol\":11191:11456  function ownerOf(uint256 _tokenId) external view returns (address){... */\n    tag_61:\n        /* \"PRACTICA 5/librerias_y_tokens.sol\":11249:11256  address */\n      0x00\n        /* \"PRACTICA 5/librerias_y_tokens.sol\":11319:11320  0 */\n      dup1\n        /* \"PRACTICA 5/librerias_y_tokens.sol\":11276:11321  characters[_tokenId].tokenOwner != address(0) */\n      0xffffffffffffffffffffffffffffffffffffffff\n      and\n        /* \"PRACTICA 5/librerias_y_tokens.sol\":11276:11286  characters */\n      0x01\n        /* \"PRACTICA 5/librerias_y_tokens.sol\":11276:11296  characters[_tokenId] */\n      0x00\n        /* \"PRACTICA 5/librerias_y_tokens.sol\":11287:11295  _tokenId */\n      dup5\n        /* \"PRACTICA 5/librerias_y_tokens.sol\":11276:11296  characters[_tokenId] */\n      dup2\n      mstore\n      0x20\n      add\n      swap1\n      dup2\n      mstore\n      0x20\n      add\n      0x00\n      keccak256\n        /* \"PRACTICA 5/librerias_y_tokens.sol\":11276:11307  characters[_tokenId].tokenOwner */\n      0x03\n      add\n      0x00\n      swap1\n      sload\n      swap1\n      0x0100\n      exp\n      swap1\n      div\n      0xffffffffffffffffffffffffffffffffffffffff\n      and\n        /* \"PRACTICA 5/librerias_y_tokens.sol\":11276:11321  characters[_tokenId].tokenOwner != address(0) */\n      0xffffffffffffffffffffffffffffffffffffffff\n      and\n      sub\n        /* \"PRACTICA 5/librerias_y_tokens.sol\":11268:11341  require(characters[_tokenId].tokenOwner != address(0), \"Token no existe\") */\n      tag_213\n      jumpi\n      mload(0x40)\n      0x08c379a000000000000000000000000000000000000000000000000000000000\n      dup2\n      mstore\n      0x04\n      add\n      tag_214\n      swap1\n      tag_101\n      jump\t// in\n    tag_214:\n      mload(0x40)\n      dup1\n      swap2\n      sub\n      swap1\n      revert\n    tag_213:\n        /* \"PRACTICA 5/librerias_y_tokens.sol\":11417:11427  characters */\n      0x01\n        /* \"PRACTICA 5/librerias_y_tokens.sol\":11417:11437  characters[_tokenId] */\n      0x00\n        /* \"PRACTICA 5/librerias_y_tokens.sol\":11428:11436  _tokenId */\n      dup4\n        /* \"PRACTICA 5/librerias_y_tokens.sol\":11417:11437  characters[_tokenId] */\n      dup2\n      mstore\n      0x20\n      add\n      swap1\n      dup2\n      mstore\n      0x20\n      add\n      0x00\n      keccak256\n        /* \"PRACTICA 5/librerias_y_tokens.sol\":11417:11448  characters[_tokenId].tokenOwner */\n      0x03\n      add\n      0x00\n      swap1\n      sload\n      swap1\n      0x0100\n      exp\n      swap1\n      div\n      0xffffffffffffffffffffffffffffffffffffffff\n      and\n        /* \"PRACTICA 5/librerias_y_tokens.sol\":11410:11448  return characters[_tokenId].tokenOwner */\n      swap1\n      pop\n        /* \"PRACTICA 5/librerias_y_tokens.sol\":11191:11456  function ownerOf(uint256 _tokenId) external view returns (address){... */\n      swap2\n      swap1\n      pop\n      jump\t// out\n        /* \"PRACTICA 5/librerias_y_tokens.sol\":10998:11181  function balanceOf(address _owner) external view returns (uint256){... */\n    tag_67:\n        /* \"PRACTICA 5/librerias_y_tokens.sol\":11056:11063  uint256 */\n      0x00\n        /* \"PRACTICA 5/librerias_y_tokens.sol\":11101:11102  0 */\n      dup1\n        /* \"PRACTICA 5/librerias_y_tokens.sol\":11083:11103  _owner != address(0) */\n      0xffffffffffffffffffffffffffffffffffffffff\n      and\n        /* \"PRACTICA 5/librerias_y_tokens.sol\":11083:11089  _owner */\n      dup3\n        /* \"PRACTICA 5/librerias_y_tokens.sol\":11083:11103  _owner != address(0) */\n      0xffffffffffffffffffffffffffffffffffffffff\n      and\n      sub\n        /* \"PRACTICA 5/librerias_y_tokens.sol\":11075:11137  require(_owner != address(0), \"El usuario debe tener balance\") */\n      tag_216\n      jumpi\n      mload(0x40)\n      0x08c379a000000000000000000000000000000000000000000000000000000000\n      dup2\n      mstore\n      0x04\n      add\n      tag_217\n      swap1\n      tag_218\n      jump\t// in\n    tag_217:\n      mload(0x40)\n      dup1\n      swap2\n      sub\n      swap1\n      revert\n    tag_216:\n        /* \"PRACTICA 5/librerias_y_tokens.sol\":11155:11165  num_tokens */\n      0x03\n        /* \"PRACTICA 5/librerias_y_tokens.sol\":11155:11173  num_tokens[_owner] */\n      0x00\n        /* \"PRACTICA 5/librerias_y_tokens.sol\":11166:11172  _owner */\n      dup4\n        /* \"PRACTICA 5/librerias_y_tokens.sol\":11155:11173  num_tokens[_owner] */\n      0xffffffffffffffffffffffffffffffffffffffff\n      and\n      0xffffffffffffffffffffffffffffffffffffffff\n      and\n      dup2\n      mstore\n      0x20\n      add\n      swap1\n      dup2\n      mstore\n      0x20\n      add\n      0x00\n      keccak256\n      sload\n        /* \"PRACTICA 5/librerias_y_tokens.sol\":11148:11173  return num_tokens[_owner] */\n      swap1\n      pop\n        /* \"PRACTICA 5/librerias_y_tokens.sol\":10998:11181  function balanceOf(address _owner) external view returns (uint256){... */\n      swap2\n      swap1\n      pop\n      jump\t// out\n        /* \"PRACTICA 5/librerias_y_tokens.sol\":6756:7326  function collectProfits() external  {... */\n    tag_72:\n        /* \"PRACTICA 5/librerias_y_tokens.sol\":6829:6842  contractOwner */\n      0x05\n      0x00\n      swap1\n      sload\n      swap1\n      0x0100\n      exp\n      swap1\n      div\n      0xffffffffffffffffffffffffffffffffffffffff\n      and\n        /* \"PRACTICA 5/librerias_y_tokens.sol\":6815:6842  msg.sender == contractOwner */\n      0xffffffffffffffffffffffffffffffffffffffff\n      and\n        /* \"PRACTICA 5/librerias_y_tokens.sol\":6815:6825  msg.sender */\n      caller\n        /* \"PRACTICA 5/librerias_y_tokens.sol\":6815:6842  msg.sender == contractOwner */\n      0xffffffffffffffffffffffffffffffffffffffff\n      and\n      eq\n        /* \"PRACTICA 5/librerias_y_tokens.sol\":6807:6928  require(msg.sender == contractOwner, \"Solo puedes recibir los profits de este contrato si eres el propietario del mismo\") */\n      tag_220\n      jumpi\n      mload(0x40)\n      0x08c379a000000000000000000000000000000000000000000000000000000000\n      dup2\n      mstore\n      0x04\n      add\n      tag_221\n      swap1\n      tag_222\n      jump\t// in\n    tag_221:\n      mload(0x40)\n      dup1\n      swap2\n      sub\n      swap1\n      revert\n    tag_220:\n        /* \"PRACTICA 5/librerias_y_tokens.sol\":6939:6957  uint totalDeposits */\n      0x00\n        /* \"PRACTICA 5/librerias_y_tokens.sol\":1669:1677  1000 wei */\n      0x03e8\n        /* \"PRACTICA 5/librerias_y_tokens.sol\":6960:6974  num_characters */\n      sload(0x04)\n        /* \"PRACTICA 5/librerias_y_tokens.sol\":6960:6991  num_characters *WEIS_NECESARIOS */\n      tag_223\n      swap2\n      swap1\n      tag_135\n      jump\t// in\n    tag_223:\n        /* \"PRACTICA 5/librerias_y_tokens.sol\":6939:6991  uint totalDeposits = num_characters *WEIS_NECESARIOS */\n      swap1\n      pop\n        /* \"PRACTICA 5/librerias_y_tokens.sol\":7055:7067  uint profits */\n      0x00\n        /* \"PRACTICA 5/librerias_y_tokens.sol\":7094:7107  totalDeposits */\n      dup2\n        /* \"PRACTICA 5/librerias_y_tokens.sol\":7070:7091  address(this).balance */\n      selfbalance\n        /* \"PRACTICA 5/librerias_y_tokens.sol\":7070:7107  address(this).balance - totalDeposits */\n      tag_224\n      swap2\n      swap1\n      tag_225\n      jump\t// in\n    tag_224:\n        /* \"PRACTICA 5/librerias_y_tokens.sol\":7055:7107  uint profits = address(this).balance - totalDeposits */\n      swap1\n      pop\n        /* \"PRACTICA 5/librerias_y_tokens.sol\":7174:7175  0 */\n      0x00\n        /* \"PRACTICA 5/librerias_y_tokens.sol\":7165:7172  profits */\n      dup2\n        /* \"PRACTICA 5/librerias_y_tokens.sol\":7165:7175  profits >0 */\n      gt\n        /* \"PRACTICA 5/librerias_y_tokens.sol\":7157:7210  require(profits >0, \"No hay beneficios para recoger\") */\n      tag_226\n      jumpi\n      mload(0x40)\n      0x08c379a000000000000000000000000000000000000000000000000000000000\n      dup2\n      mstore\n      0x04\n      add\n      tag_227\n      swap1\n      tag_228\n      jump\t// in\n    tag_227:\n      mload(0x40)\n      dup1\n      swap2\n      sub\n      swap1\n      revert\n    tag_226:\n        /* \"PRACTICA 5/librerias_y_tokens.sol\":7230:7243  contractOwner */\n      0x05\n      0x00\n      swap1\n      sload\n      swap1\n      0x0100\n      exp\n      swap1\n      div\n      0xffffffffffffffffffffffffffffffffffffffff\n      and\n        /* \"PRACTICA 5/librerias_y_tokens.sol\":7221:7253  payable (contractOwner).transfer */\n      0xffffffffffffffffffffffffffffffffffffffff\n      and\n        /* \"PRACTICA 5/librerias_y_tokens.sol\":7221:7262  payable (contractOwner).transfer(profits) */\n      0x08fc\n        /* \"PRACTICA 5/librerias_y_tokens.sol\":7254:7261  profits */\n      dup3\n        /* \"PRACTICA 5/librerias_y_tokens.sol\":7221:7262  payable (contractOwner).transfer(profits) */\n      swap1\n      dup2\n      iszero\n      mul\n      swap1\n      mload(0x40)\n      0x00\n      mload(0x40)\n      dup1\n      dup4\n      sub\n      dup2\n      dup6\n      dup9\n      dup9\n      call\n      swap4\n      pop\n      pop\n      pop\n      pop\n      iszero\n      dup1\n      iszero\n      tag_230\n      jumpi\n      returndatasize\n      0x00\n      dup1\n      returndatacopy\n      revert(0x00, returndatasize)\n    tag_230:\n      pop\n        /* \"PRACTICA 5/librerias_y_tokens.sol\":6792:7326  {... */\n      pop\n      pop\n        /* \"PRACTICA 5/librerias_y_tokens.sol\":6756:7326  function collectProfits() external  {... */\n      jump\t// out\n        /* \"PRACTICA 5/librerias_y_tokens.sol\":5946:6746  function incrementFirePower(uint character_tokenId, uint8 inc_per) external payable {... */\n    tag_76:\n        /* \"PRACTICA 5/librerias_y_tokens.sol\":6045:6064  Character storage c */\n      0x00\n        /* \"PRACTICA 5/librerias_y_tokens.sol\":6067:6077  characters */\n      0x01\n        /* \"PRACTICA 5/librerias_y_tokens.sol\":6067:6096  characters[character_tokenId] */\n      0x00\n        /* \"PRACTICA 5/librerias_y_tokens.sol\":6078:6095  character_tokenId */\n      dup5\n        /* \"PRACTICA 5/librerias_y_tokens.sol\":6067:6096  characters[character_tokenId] */\n      dup2\n      mstore\n      0x20\n      add\n      swap1\n      dup2\n      mstore\n      0x20\n      add\n      0x00\n      keccak256\n        /* \"PRACTICA 5/librerias_y_tokens.sol\":6045:6096  Character storage c = characters[character_tokenId] */\n      swap1\n      pop\n        /* \"PRACTICA 5/librerias_y_tokens.sol\":6207:6217  msg.sender */\n      caller\n        /* \"PRACTICA 5/librerias_y_tokens.sol\":6191:6217  c.tokenOwner == msg.sender */\n      0xffffffffffffffffffffffffffffffffffffffff\n      and\n        /* \"PRACTICA 5/librerias_y_tokens.sol\":6191:6192  c */\n      dup2\n        /* \"PRACTICA 5/librerias_y_tokens.sol\":6191:6203  c.tokenOwner */\n      0x03\n      add\n      0x00\n      swap1\n      sload\n      swap1\n      0x0100\n      exp\n      swap1\n      div\n      0xffffffffffffffffffffffffffffffffffffffff\n      and\n        /* \"PRACTICA 5/librerias_y_tokens.sol\":6191:6217  c.tokenOwner == msg.sender */\n      0xffffffffffffffffffffffffffffffffffffffff\n      and\n      eq\n        /* \"PRACTICA 5/librerias_y_tokens.sol\":6191:6260  c.tokenOwner == msg.sender||msg.sender == approved[character_tokenId] */\n      dup1\n      tag_232\n      jumpi\n      pop\n        /* \"PRACTICA 5/librerias_y_tokens.sol\":6233:6241  approved */\n      0x02\n        /* \"PRACTICA 5/librerias_y_tokens.sol\":6233:6260  approved[character_tokenId] */\n      0x00\n        /* \"PRACTICA 5/librerias_y_tokens.sol\":6242:6259  character_tokenId */\n      dup5\n        /* \"PRACTICA 5/librerias_y_tokens.sol\":6233:6260  approved[character_tokenId] */\n      dup2\n      mstore\n      0x20\n      add\n      swap1\n      dup2\n      mstore\n      0x20\n      add\n      0x00\n      keccak256\n      0x00\n      swap1\n      sload\n      swap1\n      0x0100\n      exp\n      swap1\n      div\n      0xffffffffffffffffffffffffffffffffffffffff\n      and\n        /* \"PRACTICA 5/librerias_y_tokens.sol\":6219:6260  msg.sender == approved[character_tokenId] */\n      0xffffffffffffffffffffffffffffffffffffffff\n      and\n        /* \"PRACTICA 5/librerias_y_tokens.sol\":6219:6229  msg.sender */\n      caller\n        /* \"PRACTICA 5/librerias_y_tokens.sol\":6219:6260  msg.sender == approved[character_tokenId] */\n      0xffffffffffffffffffffffffffffffffffffffff\n      and\n      eq\n        /* \"PRACTICA 5/librerias_y_tokens.sol\":6191:6260  c.tokenOwner == msg.sender||msg.sender == approved[character_tokenId] */\n    tag_232:\n        /* \"PRACTICA 5/librerias_y_tokens.sol\":6183:6324  require(c.tokenOwner == msg.sender||msg.sender == approved[character_tokenId], \"Solo el propietario y aprobado pueden ejecutar esta funcion\") */\n      tag_233\n      jumpi\n      mload(0x40)\n      0x08c379a000000000000000000000000000000000000000000000000000000000\n      dup2\n      mstore\n      0x04\n      add\n      tag_234\n      swap1\n      tag_131\n      jump\t// in\n    tag_234:\n      mload(0x40)\n      dup1\n      swap2\n      sub\n      swap1\n      revert\n    tag_233:\n        /* \"PRACTICA 5/librerias_y_tokens.sol\":6396:6405  uint cost */\n      0x00\n        /* \"PRACTICA 5/librerias_y_tokens.sol\":6418:6425  inc_per */\n      dup3\n        /* \"PRACTICA 5/librerias_y_tokens.sol\":6408:6415  inc_per */\n      dup4\n        /* \"PRACTICA 5/librerias_y_tokens.sol\":6408:6425  inc_per * inc_per */\n      tag_235\n      swap2\n      swap1\n      tag_236\n      jump\t// in\n    tag_235:\n        /* \"PRACTICA 5/librerias_y_tokens.sol\":6396:6425  uint cost = inc_per * inc_per */\n      0xff\n      and\n      swap1\n      pop\n        /* \"PRACTICA 5/librerias_y_tokens.sol\":6517:6521  cost */\n      dup1\n        /* \"PRACTICA 5/librerias_y_tokens.sol\":6504:6513  msg.value */\n      callvalue\n        /* \"PRACTICA 5/librerias_y_tokens.sol\":6504:6521  msg.value >= cost */\n      lt\n      iszero\n        /* \"PRACTICA 5/librerias_y_tokens.sol\":6496:6594  require(msg.value >= cost, \"No tienes suficientes weis para incrementar la potencia de tus armas\") */\n      tag_237\n      jumpi\n      mload(0x40)\n      0x08c379a000000000000000000000000000000000000000000000000000000000\n      dup2\n      mstore\n      0x04\n      add\n      tag_238\n      swap1\n      tag_239\n      jump\t// in\n    tag_238:\n      mload(0x40)\n      dup1\n      swap2\n      sub\n      swap1\n      revert\n    tag_237:\n        /* \"PRACTICA 5/librerias_y_tokens.sol\":6687:6738  ArrayUtils.increment(c.weapons.firePowers, inc_per) */\n      tag_240\n        /* \"PRACTICA 5/librerias_y_tokens.sol\":6708:6709  c */\n      dup3\n        /* \"PRACTICA 5/librerias_y_tokens.sol\":6708:6717  c.weapons */\n      0x01\n      add\n        /* \"PRACTICA 5/librerias_y_tokens.sol\":6708:6728  c.weapons.firePowers */\n      0x01\n      add\n        /* \"PRACTICA 5/librerias_y_tokens.sol\":6687:6738  ArrayUtils.increment(c.weapons.firePowers, inc_per) */\n      dup1\n      sload\n      dup1\n      0x20\n      mul\n      0x20\n      add\n      mload(0x40)\n      swap1\n      dup2\n      add\n      0x40\n      mstore\n      dup1\n      swap3\n      swap2\n      swap1\n      dup2\n      dup2\n      mstore\n      0x20\n      add\n      dup3\n      dup1\n      sload\n      dup1\n      iszero\n      tag_241\n      jumpi\n      0x20\n      mul\n      dup3\n      add\n      swap2\n      swap1\n      0x00\n      mstore\n      keccak256(0x00, 0x20)\n      swap1\n    tag_242:\n      dup2\n      sload\n      dup2\n      mstore\n      0x20\n      add\n      swap1\n      0x01\n      add\n      swap1\n      dup1\n      dup4\n      gt\n      tag_242\n      jumpi\n    tag_241:\n      pop\n      pop\n      pop\n      pop\n      pop\n        /* \"PRACTICA 5/librerias_y_tokens.sol\":6730:6737  inc_per */\n      dup5\n        /* \"PRACTICA 5/librerias_y_tokens.sol\":6687:6707  ArrayUtils.increment */\n      tag_243\n        /* \"PRACTICA 5/librerias_y_tokens.sol\":6687:6738  ArrayUtils.increment(c.weapons.firePowers, inc_per) */\n      jump\t// in\n    tag_240:\n        /* \"PRACTICA 5/librerias_y_tokens.sol\":6030:6746  {... */\n      pop\n      pop\n        /* \"PRACTICA 5/librerias_y_tokens.sol\":5946:6746  function incrementFirePower(uint character_tokenId, uint8 inc_per) external payable {... */\n      pop\n      pop\n      jump\t// out\n        /* \"PRACTICA 5/librerias_y_tokens.sol\":1630:1677  uint public constant WEIS_NECESARIOS = 1000 wei */\n    tag_79:\n        /* \"PRACTICA 5/librerias_y_tokens.sol\":1669:1677  1000 wei */\n      0x03e8\n        /* \"PRACTICA 5/librerias_y_tokens.sol\":1630:1677  uint public constant WEIS_NECESARIOS = 1000 wei */\n      dup2\n      jump\t// out\n        /* \"PRACTICA 5/librerias_y_tokens.sol\":2296:2928  function createMonsterToken(string calldata character_name)external payable returns (uint) {... */\n    tag_84:\n        /* \"PRACTICA 5/librerias_y_tokens.sol\":2381:2385  uint */\n      0x00\n        /* \"PRACTICA 5/librerias_y_tokens.sol\":1669:1677  1000 wei */\n      0x03e8\n        /* \"PRACTICA 5/librerias_y_tokens.sol\":2415:2424  msg.value */\n      callvalue\n        /* \"PRACTICA 5/librerias_y_tokens.sol\":2415:2443  msg.value == WEIS_NECESARIOS */\n      eq\n        /* \"PRACTICA 5/librerias_y_tokens.sol\":2407:2476  require(msg.value == WEIS_NECESARIOS, \"El importe a de ser mil weis\") */\n      tag_245\n      jumpi\n      mload(0x40)\n      0x08c379a000000000000000000000000000000000000000000000000000000000\n      dup2\n      mstore\n      0x04\n      add\n      tag_246\n      swap1\n      tag_247\n      jump\t// in\n    tag_246:\n      mload(0x40)\n      dup1\n      swap2\n      sub\n      swap1\n      revert\n    tag_245:\n        /* \"PRACTICA 5/librerias_y_tokens.sol\":2495:2502  tokenId */\n      0x00\n      dup1\n        /* \"PRACTICA 5/librerias_y_tokens.sol\":2495:2504  tokenId++ */\n      dup2\n      sload\n      dup1\n      swap3\n      swap2\n      swap1\n      tag_248\n      swap1\n      tag_159\n      jump\t// in\n    tag_248:\n      swap2\n      swap1\n      pop\n      sstore\n      pop\n        /* \"PRACTICA 5/librerias_y_tokens.sol\":2523:2541  Character memory c */\n      0x00\n        /* \"PRACTICA 5/librerias_y_tokens.sol\":2544:2621  Character(character_name,Weapons(new string[](0), new uint[](0)), msg.sender) */\n      mload(0x40)\n      dup1\n      0x60\n      add\n      0x40\n      mstore\n      dup1\n        /* \"PRACTICA 5/librerias_y_tokens.sol\":2554:2568  character_name */\n      dup6\n      dup6\n        /* \"PRACTICA 5/librerias_y_tokens.sol\":2544:2621  Character(character_name,Weapons(new string[](0), new uint[](0)), msg.sender) */\n      dup1\n      dup1\n      0x1f\n      add\n      0x20\n      dup1\n      swap2\n      div\n      mul\n      0x20\n      add\n      mload(0x40)\n      swap1\n      dup2\n      add\n      0x40\n      mstore\n      dup1\n      swap4\n      swap3\n      swap2\n      swap1\n      dup2\n      dup2\n      mstore\n      0x20\n      add\n      dup4\n      dup4\n      dup1\n      dup3\n      dup5\n      calldatacopy\n      0x00\n      dup2\n      dup5\n      add\n      mstore\n      not(0x1f)\n      0x1f\n      dup3\n      add\n      and\n      swap1\n      pop\n      dup1\n      dup4\n      add\n      swap3\n      pop\n      pop\n      pop\n      pop\n      pop\n      pop\n      pop\n      dup2\n      mstore\n      0x20\n      add\n        /* \"PRACTICA 5/librerias_y_tokens.sol\":2569:2608  Weapons(new string[](0), new uint[](0)) */\n      mload(0x40)\n      dup1\n      0x40\n      add\n      0x40\n      mstore\n      dup1\n        /* \"PRACTICA 5/librerias_y_tokens.sol\":2590:2591  0 */\n      0x00\n        /* \"PRACTICA 5/librerias_y_tokens.sol\":2577:2592  new string[](0) */\n      0xffffffffffffffff\n      dup2\n      gt\n      iszero\n      tag_249\n      jumpi\n      tag_250\n      tag_251\n      jump\t// in\n    tag_250:\n    tag_249:\n      mload(0x40)\n      swap1\n      dup1\n      dup3\n      mstore\n      dup1\n      0x20\n      mul\n      0x20\n      add\n      dup3\n      add\n      0x40\n      mstore\n      dup1\n      iszero\n      tag_252\n      jumpi\n      dup2\n      0x20\n      add\n    tag_253:\n      0x60\n      dup2\n      mstore\n      0x20\n      add\n      swap1\n      0x01\n      swap1\n      sub\n      swap1\n      dup2\n      tag_253\n      jumpi\n      swap1\n      pop\n    tag_252:\n      pop\n        /* \"PRACTICA 5/librerias_y_tokens.sol\":2569:2608  Weapons(new string[](0), new uint[](0)) */\n      dup2\n      mstore\n      0x20\n      add\n        /* \"PRACTICA 5/librerias_y_tokens.sol\":2605:2606  0 */\n      0x00\n        /* \"PRACTICA 5/librerias_y_tokens.sol\":2594:2607  new uint[](0) */\n      0xffffffffffffffff\n      dup2\n      gt\n      iszero\n      tag_254\n      jumpi\n      tag_255\n      tag_251\n      jump\t// in\n    tag_255:\n    tag_254:\n      mload(0x40)\n      swap1\n      dup1\n      dup3\n      mstore\n      dup1\n      0x20\n      mul\n      0x20\n      add\n      dup3\n      add\n      0x40\n      mstore\n      dup1\n      iszero\n      tag_256\n      jumpi\n      dup2\n      0x20\n      add\n      0x20\n      dup3\n      mul\n      dup1\n      calldatasize\n      dup4\n      calldatacopy\n      dup1\n      dup3\n      add\n      swap2\n      pop\n      pop\n      swap1\n      pop\n    tag_256:\n      pop\n        /* \"PRACTICA 5/librerias_y_tokens.sol\":2569:2608  Weapons(new string[](0), new uint[](0)) */\n      dup2\n      mstore\n      pop\n        /* \"PRACTICA 5/librerias_y_tokens.sol\":2544:2621  Character(character_name,Weapons(new string[](0), new uint[](0)), msg.sender) */\n      dup2\n      mstore\n      0x20\n      add\n        /* \"PRACTICA 5/librerias_y_tokens.sol\":2610:2620  msg.sender */\n      caller\n        /* \"PRACTICA 5/librerias_y_tokens.sol\":2544:2621  Character(character_name,Weapons(new string[](0), new uint[](0)), msg.sender) */\n      0xffffffffffffffffffffffffffffffffffffffff\n      and\n      dup2\n      mstore\n      pop\n        /* \"PRACTICA 5/librerias_y_tokens.sol\":2523:2621  Character memory c = Character(character_name,Weapons(new string[](0), new uint[](0)), msg.sender) */\n      swap1\n      pop\n        /* \"PRACTICA 5/librerias_y_tokens.sol\":2653:2654  c */\n      dup1\n        /* \"PRACTICA 5/librerias_y_tokens.sol\":2632:2642  characters */\n      0x01\n        /* \"PRACTICA 5/librerias_y_tokens.sol\":2632:2651  characters[tokenId] */\n      0x00\n        /* \"PRACTICA 5/librerias_y_tokens.sol\":2643:2650  tokenId */\n      dup1\n      sload\n        /* \"PRACTICA 5/librerias_y_tokens.sol\":2632:2651  characters[tokenId] */\n      dup2\n      mstore\n      0x20\n      add\n      swap1\n      dup2\n      mstore\n      0x20\n      add\n      0x00\n      keccak256\n        /* \"PRACTICA 5/librerias_y_tokens.sol\":2632:2654  characters[tokenId]= c */\n      0x00\n      dup3\n      add\n      mload\n      dup2\n      0x00\n      add\n      swap1\n      dup2\n      tag_257\n      swap2\n      swap1\n      tag_258\n      jump\t// in\n    tag_257:\n      pop\n      0x20\n      dup3\n      add\n      mload\n      dup2\n      0x01\n      add\n      0x00\n      dup3\n      add\n      mload\n      dup2\n      0x00\n      add\n      swap1\n      dup1\n      mload\n      swap1\n      0x20\n      add\n      swap1\n      tag_259\n      swap3\n      swap2\n      swap1\n      tag_260\n      jump\t// in\n    tag_259:\n      pop\n      0x20\n      dup3\n      add\n      mload\n      dup2\n      0x01\n      add\n      swap1\n      dup1\n      mload\n      swap1\n      0x20\n      add\n      swap1\n      tag_261\n      swap3\n      swap2\n      swap1\n      tag_262\n      jump\t// in\n    tag_261:\n      pop\n      pop\n      pop\n      0x40\n      dup3\n      add\n      mload\n      dup2\n      0x03\n      add\n      exp(0x0100, 0x00)\n      dup2\n      sload\n      dup2\n      0xffffffffffffffffffffffffffffffffffffffff\n      mul\n      not\n      and\n      swap1\n      dup4\n      0xffffffffffffffffffffffffffffffffffffffff\n      and\n      mul\n      or\n      swap1\n      sstore\n      pop\n      swap1\n      pop\n      pop\n        /* \"PRACTICA 5/librerias_y_tokens.sol\":2669:2683  num_characters */\n      0x04\n      0x00\n        /* \"PRACTICA 5/librerias_y_tokens.sol\":2669:2685  num_characters++ */\n      dup2\n      sload\n      dup1\n      swap3\n      swap2\n      swap1\n      tag_263\n      swap1\n      tag_159\n      jump\t// in\n    tag_263:\n      swap2\n      swap1\n      pop\n      sstore\n      pop\n        /* \"PRACTICA 5/librerias_y_tokens.sol\":2696:2706  num_tokens */\n      0x03\n        /* \"PRACTICA 5/librerias_y_tokens.sol\":2696:2718  num_tokens[msg.sender] */\n      0x00\n        /* \"PRACTICA 5/librerias_y_tokens.sol\":2707:2717  msg.sender */\n      caller\n        /* \"PRACTICA 5/librerias_y_tokens.sol\":2696:2718  num_tokens[msg.sender] */\n      0xffffffffffffffffffffffffffffffffffffffff\n      and\n      0xffffffffffffffffffffffffffffffffffffffff\n      and\n      dup2\n      mstore\n      0x20\n      add\n      swap1\n      dup2\n      mstore\n      0x20\n      add\n      0x00\n      keccak256\n      0x00\n        /* \"PRACTICA 5/librerias_y_tokens.sol\":2696:2720  num_tokens[msg.sender]++ */\n      dup2\n      sload\n      dup1\n      swap3\n      swap2\n      swap1\n      tag_264\n      swap1\n      tag_159\n      jump\t// in\n    tag_264:\n      swap2\n      swap1\n      pop\n      sstore\n      pop\n        /* \"PRACTICA 5/librerias_y_tokens.sol\":2887:2894  tokenId */\n      sload(0x00)\n        /* \"PRACTICA 5/librerias_y_tokens.sol\":2875:2885  msg.sender */\n      caller\n        /* \"PRACTICA 5/librerias_y_tokens.sol\":2854:2895  Transfer(address(0), msg.sender, tokenId) */\n      0xffffffffffffffffffffffffffffffffffffffff\n      and\n        /* \"PRACTICA 5/librerias_y_tokens.sol\":2871:2872  0 */\n      0x00\n        /* \"PRACTICA 5/librerias_y_tokens.sol\":2854:2895  Transfer(address(0), msg.sender, tokenId) */\n      0xffffffffffffffffffffffffffffffffffffffff\n      and\n      0xddf252ad1be2c89b69c2b068fc378daa952ba7f163c4a11628f55a4df523b3ef\n      mload(0x40)\n      mload(0x40)\n      dup1\n      swap2\n      sub\n      swap1\n      log4\n        /* \"PRACTICA 5/librerias_y_tokens.sol\":2913:2920  tokenId */\n      sload(0x00)\n        /* \"PRACTICA 5/librerias_y_tokens.sol\":2906:2920  return tokenId */\n      swap2\n      pop\n      pop\n        /* \"PRACTICA 5/librerias_y_tokens.sol\":2296:2928  function createMonsterToken(string calldata character_name)external payable returns (uint) {... */\n      swap3\n      swap2\n      pop\n      pop\n      jump\t// out\n        /* \"PRACTICA 5/ArrayUtils.sol\":761:987  function sum(uint[] memory arr) internal pure returns (uint){... */\n    tag_105:\n        /* \"PRACTICA 5/ArrayUtils.sol\":816:820  uint */\n      0x00\n        /* \"PRACTICA 5/ArrayUtils.sol\":836:845  uint suma */\n      dup1\n        /* \"PRACTICA 5/ArrayUtils.sol\":846:847  0 */\n      0x00\n        /* \"PRACTICA 5/ArrayUtils.sol\":836:847  uint suma=0 */\n      swap1\n      pop\n        /* \"PRACTICA 5/ArrayUtils.sol\":867:873  uint i */\n      0x00\n        /* \"PRACTICA 5/ArrayUtils.sol\":862:949  for (uint i=0; i< arr.length; i++)... */\n    tag_266:\n        /* \"PRACTICA 5/ArrayUtils.sol\":880:883  arr */\n      dup4\n        /* \"PRACTICA 5/ArrayUtils.sol\":880:890  arr.length */\n      mload\n        /* \"PRACTICA 5/ArrayUtils.sol\":877:878  i */\n      dup2\n        /* \"PRACTICA 5/ArrayUtils.sol\":877:890  i< arr.length */\n      lt\n        /* \"PRACTICA 5/ArrayUtils.sol\":862:949  for (uint i=0; i< arr.length; i++)... */\n      iszero\n      tag_267\n      jumpi\n        /* \"PRACTICA 5/ArrayUtils.sol\":929:932  arr */\n      dup4\n        /* \"PRACTICA 5/ArrayUtils.sol\":933:934  i */\n      dup2\n        /* \"PRACTICA 5/ArrayUtils.sol\":929:935  arr[i] */\n      dup2\n      mload\n      dup2\n      lt\n      tag_269\n      jumpi\n      tag_270\n      tag_271\n      jump\t// in\n    tag_270:\n    tag_269:\n      0x20\n      mul\n      0x20\n      add\n      add\n      mload\n        /* \"PRACTICA 5/ArrayUtils.sol\":921:935  suma += arr[i] */\n      dup3\n      tag_272\n      swap2\n      swap1\n      tag_91\n      jump\t// in\n    tag_272:\n      swap2\n      pop\n        /* \"PRACTICA 5/ArrayUtils.sol\":892:895  i++ */\n      dup1\n      dup1\n      0x01\n      add\n      swap2\n      pop\n      pop\n        /* \"PRACTICA 5/ArrayUtils.sol\":862:949  for (uint i=0; i< arr.length; i++)... */\n      jump(tag_266)\n    tag_267:\n      pop\n        /* \"PRACTICA 5/ArrayUtils.sol\":975:979  suma */\n      dup1\n        /* \"PRACTICA 5/ArrayUtils.sol\":968:979  return suma */\n      swap2\n      pop\n      pop\n        /* \"PRACTICA 5/ArrayUtils.sol\":761:987  function sum(uint[] memory arr) internal pure returns (uint){... */\n      swap2\n      swap1\n      pop\n      jump\t// out\n        /* \"PRACTICA 5/ArrayUtils.sol\":193:502  function contains(string[] memory arr, string calldata val) internal pure returns(bool){... */\n    tag_123:\n        /* \"PRACTICA 5/ArrayUtils.sol\":275:279  bool */\n      0x00\n        /* \"PRACTICA 5/ArrayUtils.sol\":300:306  uint i */\n      dup1\n        /* \"PRACTICA 5/ArrayUtils.sol\":308:309  0 */\n      0x00\n        /* \"PRACTICA 5/ArrayUtils.sol\":300:309  uint i =0 */\n      swap1\n      pop\n        /* \"PRACTICA 5/ArrayUtils.sol\":295:468  for (uint i =0; i < arr.length; i++)... */\n    tag_274:\n        /* \"PRACTICA 5/ArrayUtils.sol\":315:318  arr */\n      dup5\n        /* \"PRACTICA 5/ArrayUtils.sol\":315:325  arr.length */\n      mload\n        /* \"PRACTICA 5/ArrayUtils.sol\":311:312  i */\n      dup2\n        /* \"PRACTICA 5/ArrayUtils.sol\":311:325  i < arr.length */\n      lt\n        /* \"PRACTICA 5/ArrayUtils.sol\":295:468  for (uint i =0; i < arr.length; i++)... */\n      iszero\n      tag_275\n      jumpi\n        /* \"PRACTICA 5/ArrayUtils.sol\":404:407  val */\n      dup4\n      dup4\n        /* \"PRACTICA 5/ArrayUtils.sol\":388:409  keccak256(bytes(val)) */\n      mload(0x40)\n      tag_277\n      swap3\n      swap2\n      swap1\n      tag_278\n      jump\t// in\n    tag_277:\n      mload(0x40)\n      dup1\n      swap2\n      sub\n      swap1\n      keccak256\n        /* \"PRACTICA 5/ArrayUtils.sol\":376:379  arr */\n      dup6\n        /* \"PRACTICA 5/ArrayUtils.sol\":380:381  i */\n      dup3\n        /* \"PRACTICA 5/ArrayUtils.sol\":376:382  arr[i] */\n      dup2\n      mload\n      dup2\n      lt\n      tag_279\n      jumpi\n      tag_280\n      tag_271\n      jump\t// in\n    tag_280:\n    tag_279:\n      0x20\n      mul\n      0x20\n      add\n      add\n      mload\n        /* \"PRACTICA 5/ArrayUtils.sol\":360:384  keccak256(bytes(arr[i])) */\n      dup1\n      mload\n      swap1\n      0x20\n      add\n      keccak256\n        /* \"PRACTICA 5/ArrayUtils.sol\":360:409  keccak256(bytes(arr[i])) == keccak256(bytes(val)) */\n      sub\n        /* \"PRACTICA 5/ArrayUtils.sol\":356:457  if (keccak256(bytes(arr[i])) == keccak256(bytes(val))) {... */\n      tag_281\n      jumpi\n        /* \"PRACTICA 5/ArrayUtils.sol\":437:441  true */\n      0x01\n        /* \"PRACTICA 5/ArrayUtils.sol\":430:441  return true */\n      swap2\n      pop\n      pop\n      jump(tag_273)\n        /* \"PRACTICA 5/ArrayUtils.sol\":356:457  if (keccak256(bytes(arr[i])) == keccak256(bytes(val))) {... */\n    tag_281:\n        /* \"PRACTICA 5/ArrayUtils.sol\":327:330  i++ */\n      dup1\n      dup1\n      0x01\n      add\n      swap2\n      pop\n      pop\n        /* \"PRACTICA 5/ArrayUtils.sol\":295:468  for (uint i =0; i < arr.length; i++)... */\n      jump(tag_274)\n    tag_275:\n      pop\n        /* \"PRACTICA 5/ArrayUtils.sol\":489:494  false */\n      0x00\n        /* \"PRACTICA 5/ArrayUtils.sol\":482:494  return false */\n      swap1\n      pop\n        /* \"PRACTICA 5/ArrayUtils.sol\":193:502  function contains(string[] memory arr, string calldata val) internal pure returns(bool){... */\n    tag_273:\n      swap4\n      swap3\n      pop\n      pop\n      pop\n      jump\t// out\n        /* \"PRACTICA 5/ArrayUtils.sol\":564:751  function increment(uint[] memory arr, uint8  per) internal pure {... */\n    tag_243:\n        /* \"PRACTICA 5/ArrayUtils.sol\":648:654  uint i */\n      0x00\n        /* \"PRACTICA 5/ArrayUtils.sol\":643:744  for (uint i=0; i< arr.length; i++)... */\n    tag_283:\n        /* \"PRACTICA 5/ArrayUtils.sol\":661:664  arr */\n      dup3\n        /* \"PRACTICA 5/ArrayUtils.sol\":661:671  arr.length */\n      mload\n        /* \"PRACTICA 5/ArrayUtils.sol\":658:659  i */\n      dup2\n        /* \"PRACTICA 5/ArrayUtils.sol\":658:671  i< arr.length */\n      lt\n        /* \"PRACTICA 5/ArrayUtils.sol\":643:744  for (uint i=0; i< arr.length; i++)... */\n      iszero\n      tag_284\n      jumpi\n        /* \"PRACTICA 5/ArrayUtils.sol\":726:729  100 */\n      0x64\n        /* \"PRACTICA 5/ArrayUtils.sol\":722:725  per */\n      dup3\n        /* \"PRACTICA 5/ArrayUtils.sol\":722:729  per/100 */\n      tag_286\n      swap2\n      swap1\n      tag_287\n      jump\t// in\n    tag_286:\n        /* \"PRACTICA 5/ArrayUtils.sol\":712:730  arr[i] * (per/100) */\n      0xff\n      and\n        /* \"PRACTICA 5/ArrayUtils.sol\":712:715  arr */\n      dup4\n        /* \"PRACTICA 5/ArrayUtils.sol\":716:717  i */\n      dup3\n        /* \"PRACTICA 5/ArrayUtils.sol\":712:718  arr[i] */\n      dup2\n      mload\n      dup2\n      lt\n      tag_288\n      jumpi\n      tag_289\n      tag_271\n      jump\t// in\n    tag_289:\n    tag_288:\n      0x20\n      mul\n      0x20\n      add\n      add\n      mload\n        /* \"PRACTICA 5/ArrayUtils.sol\":712:730  arr[i] * (per/100) */\n      tag_290\n      swap2\n      swap1\n      tag_135\n      jump\t// in\n    tag_290:\n        /* \"PRACTICA 5/ArrayUtils.sol\":702:705  arr */\n      dup4\n        /* \"PRACTICA 5/ArrayUtils.sol\":706:707  i */\n      dup3\n        /* \"PRACTICA 5/ArrayUtils.sol\":702:708  arr[i] */\n      dup2\n      mload\n      dup2\n      lt\n      tag_291\n      jumpi\n      tag_292\n      tag_271\n      jump\t// in\n    tag_292:\n    tag_291:\n      0x20\n      mul\n      0x20\n      add\n      add\n        /* \"PRACTICA 5/ArrayUtils.sol\":702:730  arr[i] += arr[i] * (per/100) */\n      dup2\n      dup2\n      mload\n      tag_293\n      swap2\n      swap1\n      tag_91\n      jump\t// in\n    tag_293:\n      swap2\n      pop\n      dup2\n      dup2\n      mstore\n      pop\n      pop\n        /* \"PRACTICA 5/ArrayUtils.sol\":673:676  i++ */\n      dup1\n      dup1\n      0x01\n      add\n      swap2\n      pop\n      pop\n        /* \"PRACTICA 5/ArrayUtils.sol\":643:744  for (uint i=0; i< arr.length; i++)... */\n      jump(tag_283)\n    tag_284:\n      pop\n        /* \"PRACTICA 5/ArrayUtils.sol\":564:751  function increment(uint[] memory arr, uint8  per) internal pure {... */\n      pop\n      pop\n      jump\t// out\n    tag_203:\n      pop\n      dup1\n      sload\n      tag_294\n      swap1\n      tag_118\n      jump\t// in\n    tag_294:\n      0x00\n      dup3\n      sstore\n      dup1\n      0x1f\n      lt\n      tag_296\n      jumpi\n      pop\n      jump(tag_295)\n    tag_296:\n      0x1f\n      add\n      0x20\n      swap1\n      div\n      swap1\n      0x00\n      mstore\n      keccak256(0x00, 0x20)\n      swap1\n      dup2\n      add\n      swap1\n      tag_297\n      swap2\n      swap1\n      tag_298\n      jump\t// in\n    tag_297:\n    tag_295:\n      pop\n      jump\t// out\n    tag_205:\n      pop\n      dup1\n      sload\n      0x00\n      dup3\n      sstore\n      swap1\n      0x00\n      mstore\n      keccak256(0x00, 0x20)\n      swap1\n      dup2\n      add\n      swap1\n      tag_300\n      swap2\n      swap1\n      tag_301\n      jump\t// in\n    tag_300:\n      pop\n      jump\t// out\n    tag_207:\n      pop\n      dup1\n      sload\n      0x00\n      dup3\n      sstore\n      swap1\n      0x00\n      mstore\n      keccak256(0x00, 0x20)\n      swap1\n      dup2\n      add\n      swap1\n      tag_303\n      swap2\n      swap1\n      tag_298\n      jump\t// in\n    tag_303:\n      pop\n      jump\t// out\n    tag_260:\n      dup3\n      dup1\n      sload\n      dup3\n      dup3\n      sstore\n      swap1\n      0x00\n      mstore\n      keccak256(0x00, 0x20)\n      swap1\n      dup2\n      add\n      swap3\n      dup3\n      iszero\n      tag_304\n      jumpi\n      swap2\n      0x20\n      mul\n      dup3\n      add\n    tag_305:\n      dup3\n      dup2\n      gt\n      iszero\n      tag_306\n      jumpi\n      dup3\n      mload\n      dup3\n      swap1\n      dup2\n      tag_307\n      swap2\n      swap1\n      tag_258\n      jump\t// in\n    tag_307:\n      pop\n      swap2\n      0x20\n      add\n      swap2\n      swap1\n      0x01\n      add\n      swap1\n      jump(tag_305)\n    tag_306:\n    tag_304:\n      pop\n      swap1\n      pop\n      tag_308\n      swap2\n      swap1\n      tag_301\n      jump\t// in\n    tag_308:\n      pop\n      swap1\n      jump\t// out\n    tag_262:\n      dup3\n      dup1\n      sload\n      dup3\n      dup3\n      sstore\n      swap1\n      0x00\n      mstore\n      keccak256(0x00, 0x20)\n      swap1\n      dup2\n      add\n      swap3\n      dup3\n      iszero\n      tag_309\n      jumpi\n      swap2\n      0x20\n      mul\n      dup3\n      add\n    tag_310:\n      dup3\n      dup2\n      gt\n      iszero\n      tag_311\n      jumpi\n      dup3\n      mload\n      dup3\n      sstore\n      swap2\n      0x20\n      add\n      swap2\n      swap1\n      0x01\n      add\n      swap1\n      jump(tag_310)\n    tag_311:\n    tag_309:\n      pop\n      swap1\n      pop\n      tag_312\n      swap2\n      swap1\n      tag_298\n      jump\t// in\n    tag_312:\n      pop\n      swap1\n      jump\t// out\n    tag_298:\n    tag_313:\n      dup1\n      dup3\n      gt\n      iszero\n      tag_314\n      jumpi\n      0x00\n      dup2\n      0x00\n      swap1\n      sstore\n      pop\n      0x01\n      add\n      jump(tag_313)\n    tag_314:\n      pop\n      swap1\n      jump\t// out\n    tag_301:\n    tag_315:\n      dup1\n      dup3\n      gt\n      iszero\n      tag_316\n      jumpi\n      0x00\n      dup2\n      dup2\n      tag_317\n      swap2\n      swap1\n      tag_203\n      jump\t// in\n    tag_317:\n      pop\n      0x01\n      add\n      jump(tag_315)\n    tag_316:\n      pop\n      swap1\n      jump\t// out\n        /* \"#utility.yul\":88:205   */\n    tag_319:\n        /* \"#utility.yul\":197:198   */\n      0x00\n        /* \"#utility.yul\":194:195   */\n      dup1\n        /* \"#utility.yul\":187:199   */\n      revert\n        /* \"#utility.yul\":211:328   */\n    tag_320:\n        /* \"#utility.yul\":320:321   */\n      0x00\n        /* \"#utility.yul\":317:318   */\n      dup1\n        /* \"#utility.yul\":310:322   */\n      revert\n        /* \"#utility.yul\":334:483   */\n    tag_321:\n        /* \"#utility.yul\":370:377   */\n      0x00\n        /* \"#utility.yul\":410:476   */\n      0xffffffff00000000000000000000000000000000000000000000000000000000\n        /* \"#utility.yul\":403:408   */\n      dup3\n        /* \"#utility.yul\":399:477   */\n      and\n        /* \"#utility.yul\":388:477   */\n      swap1\n      pop\n        /* \"#utility.yul\":334:483   */\n      swap2\n      swap1\n      pop\n      jump\t// out\n        /* \"#utility.yul\":489:609   */\n    tag_322:\n        /* \"#utility.yul\":561:584   */\n      tag_430\n        /* \"#utility.yul\":578:583   */\n      dup2\n        /* \"#utility.yul\":561:584   */\n      tag_321\n      jump\t// in\n    tag_430:\n        /* \"#utility.yul\":554:559   */\n      dup2\n        /* \"#utility.yul\":551:585   */\n      eq\n        /* \"#utility.yul\":541:603   */\n      tag_431\n      jumpi\n        /* \"#utility.yul\":599:600   */\n      0x00\n        /* \"#utility.yul\":596:597   */\n      dup1\n        /* \"#utility.yul\":589:601   */\n      revert\n        /* \"#utility.yul\":541:603   */\n    tag_431:\n        /* \"#utility.yul\":489:609   */\n      pop\n      jump\t// out\n        /* \"#utility.yul\":615:752   */\n    tag_323:\n        /* \"#utility.yul\":660:665   */\n      0x00\n        /* \"#utility.yul\":698:704   */\n      dup2\n        /* \"#utility.yul\":685:705   */\n      calldataload\n        /* \"#utility.yul\":676:705   */\n      swap1\n      pop\n        /* \"#utility.yul\":714:746   */\n      tag_433\n        /* \"#utility.yul\":740:745   */\n      dup2\n        /* \"#utility.yul\":714:746   */\n      tag_322\n      jump\t// in\n    tag_433:\n        /* \"#utility.yul\":615:752   */\n      swap3\n      swap2\n      pop\n      pop\n      jump\t// out\n        /* \"#utility.yul\":758:1085   */\n    tag_22:\n        /* \"#utility.yul\":816:822   */\n      0x00\n        /* \"#utility.yul\":865:867   */\n      0x20\n        /* \"#utility.yul\":853:862   */\n      dup3\n        /* \"#utility.yul\":844:851   */\n      dup5\n        /* \"#utility.yul\":840:863   */\n      sub\n        /* \"#utility.yul\":836:868   */\n      slt\n        /* \"#utility.yul\":833:952   */\n      iszero\n      tag_435\n      jumpi\n        /* \"#utility.yul\":871:950   */\n      tag_436\n      tag_319\n      jump\t// in\n    tag_436:\n        /* \"#utility.yul\":833:952   */\n    tag_435:\n        /* \"#utility.yul\":991:992   */\n      0x00\n        /* \"#utility.yul\":1016:1068   */\n      tag_437\n        /* \"#utility.yul\":1060:1067   */\n      dup5\n        /* \"#utility.yul\":1051:1057   */\n      dup3\n        /* \"#utility.yul\":1040:1049   */\n      dup6\n        /* \"#utility.yul\":1036:1058   */\n      add\n        /* \"#utility.yul\":1016:1068   */\n      tag_323\n      jump\t// in\n    tag_437:\n        /* \"#utility.yul\":1006:1068   */\n      swap2\n      pop\n        /* \"#utility.yul\":962:1078   */\n      pop\n        /* \"#utility.yul\":758:1085   */\n      swap3\n      swap2\n      pop\n      pop\n      jump\t// out\n        /* \"#utility.yul\":1091:1181   */\n    tag_324:\n        /* \"#utility.yul\":1125:1132   */\n      0x00\n        /* \"#utility.yul\":1168:1173   */\n      dup2\n        /* \"#utility.yul\":1161:1174   */\n      iszero\n        /* \"#utility.yul\":1154:1175   */\n      iszero\n        /* \"#utility.yul\":1143:1175   */\n      swap1\n      pop\n        /* \"#utility.yul\":1091:1181   */\n      swap2\n      swap1\n      pop\n      jump\t// out\n        /* \"#utility.yul\":1187:1296   */\n    tag_325:\n        /* \"#utility.yul\":1268:1289   */\n      tag_440\n        /* \"#utility.yul\":1283:1288   */\n      dup2\n        /* \"#utility.yul\":1268:1289   */\n      tag_324\n      jump\t// in\n    tag_440:\n        /* \"#utility.yul\":1263:1266   */\n      dup3\n        /* \"#utility.yul\":1256:1290   */\n      mstore\n        /* \"#utility.yul\":1187:1296   */\n      pop\n      pop\n      jump\t// out\n        /* \"#utility.yul\":1302:1512   */\n    tag_25:\n        /* \"#utility.yul\":1389:1393   */\n      0x00\n        /* \"#utility.yul\":1427:1429   */\n      0x20\n        /* \"#utility.yul\":1416:1425   */\n      dup3\n        /* \"#utility.yul\":1412:1430   */\n      add\n        /* \"#utility.yul\":1404:1430   */\n      swap1\n      pop\n        /* \"#utility.yul\":1440:1505   */\n      tag_442\n        /* \"#utility.yul\":1502:1503   */\n      0x00\n        /* \"#utility.yul\":1491:1500   */\n      dup4\n        /* \"#utility.yul\":1487:1504   */\n      add\n        /* \"#utility.yul\":1478:1484   */\n      dup5\n        /* \"#utility.yul\":1440:1505   */\n      tag_325\n      jump\t// in\n    tag_442:\n        /* \"#utility.yul\":1302:1512   */\n      swap3\n      swap2\n      pop\n      pop\n      jump\t// out\n        /* \"#utility.yul\":1518:1595   */\n    tag_326:\n        /* \"#utility.yul\":1555:1562   */\n      0x00\n        /* \"#utility.yul\":1584:1589   */\n      dup2\n        /* \"#utility.yul\":1573:1589   */\n      swap1\n      pop\n        /* \"#utility.yul\":1518:1595   */\n      swap2\n      swap1\n      pop\n      jump\t// out\n        /* \"#utility.yul\":1601:1723   */\n    tag_327:\n        /* \"#utility.yul\":1674:1698   */\n      tag_445\n        /* \"#utility.yul\":1692:1697   */\n      dup2\n        /* \"#utility.yul\":1674:1698   */\n      tag_326\n      jump\t// in\n    tag_445:\n        /* \"#utility.yul\":1667:1672   */\n      dup2\n        /* \"#utility.yul\":1664:1699   */\n      eq\n        /* \"#utility.yul\":1654:1717   */\n      tag_446\n      jumpi\n        /* \"#utility.yul\":1713:1714   */\n      0x00\n        /* \"#utility.yul\":1710:1711   */\n      dup1\n        /* \"#utility.yul\":1703:1715   */\n      revert\n        /* \"#utility.yul\":1654:1717   */\n    tag_446:\n        /* \"#utility.yul\":1601:1723   */\n      pop\n      jump\t// out\n        /* \"#utility.yul\":1729:1868   */\n    tag_328:\n        /* \"#utility.yul\":1775:1780   */\n      0x00\n        /* \"#utility.yul\":1813:1819   */\n      dup2\n        /* \"#utility.yul\":1800:1820   */\n      calldataload\n        /* \"#utility.yul\":1791:1820   */\n      swap1\n      pop\n        /* \"#utility.yul\":1829:1862   */\n      tag_448\n        /* \"#utility.yul\":1856:1861   */\n      dup2\n        /* \"#utility.yul\":1829:1862   */\n      tag_327\n      jump\t// in\n    tag_448:\n        /* \"#utility.yul\":1729:1868   */\n      swap3\n      swap2\n      pop\n      pop\n      jump\t// out\n        /* \"#utility.yul\":1874:2203   */\n    tag_29:\n        /* \"#utility.yul\":1933:1939   */\n      0x00\n        /* \"#utility.yul\":1982:1984   */\n      0x20\n        /* \"#utility.yul\":1970:1979   */\n      dup3\n        /* \"#utility.yul\":1961:1968   */\n      dup5\n        /* \"#utility.yul\":1957:1980   */\n      sub\n        /* \"#utility.yul\":1953:1985   */\n      slt\n        /* \"#utility.yul\":1950:2069   */\n      iszero\n      tag_450\n      jumpi\n        /* \"#utility.yul\":1988:2067   */\n      tag_451\n      tag_319\n      jump\t// in\n    tag_451:\n        /* \"#utility.yul\":1950:2069   */\n    tag_450:\n        /* \"#utility.yul\":2108:2109   */\n      0x00\n        /* \"#utility.yul\":2133:2186   */\n      tag_452\n        /* \"#utility.yul\":2178:2185   */\n      dup5\n        /* \"#utility.yul\":2169:2175   */\n      dup3\n        /* \"#utility.yul\":2158:2167   */\n      dup6\n        /* \"#utility.yul\":2154:2176   */\n      add\n        /* \"#utility.yul\":2133:2186   */\n      tag_328\n      jump\t// in\n    tag_452:\n        /* \"#utility.yul\":2123:2186   */\n      swap2\n      pop\n        /* \"#utility.yul\":2079:2196   */\n      pop\n        /* \"#utility.yul\":1874:2203   */\n      swap3\n      swap2\n      pop\n      pop\n      jump\t// out\n        /* \"#utility.yul\":2209:2335   */\n    tag_329:\n        /* \"#utility.yul\":2246:2253   */\n      0x00\n        /* \"#utility.yul\":2286:2328   */\n      0xffffffffffffffffffffffffffffffffffffffff\n        /* \"#utility.yul\":2279:2284   */\n      dup3\n        /* \"#utility.yul\":2275:2329   */\n      and\n        /* \"#utility.yul\":2264:2329   */\n      swap1\n      pop\n        /* \"#utility.yul\":2209:2335   */\n      swap2\n      swap1\n      pop\n      jump\t// out\n        /* \"#utility.yul\":2341:2437   */\n    tag_330:\n        /* \"#utility.yul\":2378:2385   */\n      0x00\n        /* \"#utility.yul\":2407:2431   */\n      tag_455\n        /* \"#utility.yul\":2425:2430   */\n      dup3\n        /* \"#utility.yul\":2407:2431   */\n      tag_329\n      jump\t// in\n    tag_455:\n        /* \"#utility.yul\":2396:2431   */\n      swap1\n      pop\n        /* \"#utility.yul\":2341:2437   */\n      swap2\n      swap1\n      pop\n      jump\t// out\n        /* \"#utility.yul\":2443:2561   */\n    tag_331:\n        /* \"#utility.yul\":2530:2554   */\n      tag_457\n        /* \"#utility.yul\":2548:2553   */\n      dup2\n        /* \"#utility.yul\":2530:2554   */\n      tag_330\n      jump\t// in\n    tag_457:\n        /* \"#utility.yul\":2525:2528   */\n      dup3\n        /* \"#utility.yul\":2518:2555   */\n      mstore\n        /* \"#utility.yul\":2443:2561   */\n      pop\n      pop\n      jump\t// out\n        /* \"#utility.yul\":2567:2789   */\n    tag_32:\n        /* \"#utility.yul\":2660:2664   */\n      0x00\n        /* \"#utility.yul\":2698:2700   */\n      0x20\n        /* \"#utility.yul\":2687:2696   */\n      dup3\n        /* \"#utility.yul\":2683:2701   */\n      add\n        /* \"#utility.yul\":2675:2701   */\n      swap1\n      pop\n        /* \"#utility.yul\":2711:2782   */\n      tag_459\n        /* \"#utility.yul\":2779:2780   */\n      0x00\n        /* \"#utility.yul\":2768:2777   */\n      dup4\n        /* \"#utility.yul\":2764:2781   */\n      add\n        /* \"#utility.yul\":2755:2761   */\n      dup5\n        /* \"#utility.yul\":2711:2782   */\n      tag_331\n      jump\t// in\n    tag_459:\n        /* \"#utility.yul\":2567:2789   */\n      swap3\n      swap2\n      pop\n      pop\n      jump\t// out\n        /* \"#utility.yul\":2795:2917   */\n    tag_332:\n        /* \"#utility.yul\":2868:2892   */\n      tag_461\n        /* \"#utility.yul\":2886:2891   */\n      dup2\n        /* \"#utility.yul\":2868:2892   */\n      tag_330\n      jump\t// in\n    tag_461:\n        /* \"#utility.yul\":2861:2866   */\n      dup2\n        /* \"#utility.yul\":2858:2893   */\n      eq\n        /* \"#utility.yul\":2848:2911   */\n      tag_462\n      jumpi\n        /* \"#utility.yul\":2907:2908   */\n      0x00\n        /* \"#utility.yul\":2904:2905   */\n      dup1\n        /* \"#utility.yul\":2897:2909   */\n      revert\n        /* \"#utility.yul\":2848:2911   */\n    tag_462:\n        /* \"#utility.yul\":2795:2917   */\n      pop\n      jump\t// out\n        /* \"#utility.yul\":2923:3062   */\n    tag_333:\n        /* \"#utility.yul\":2969:2974   */\n      0x00\n        /* \"#utility.yul\":3007:3013   */\n      dup2\n        /* \"#utility.yul\":2994:3014   */\n      calldataload\n        /* \"#utility.yul\":2985:3014   */\n      swap1\n      pop\n        /* \"#utility.yul\":3023:3056   */\n      tag_464\n        /* \"#utility.yul\":3050:3055   */\n      dup2\n        /* \"#utility.yul\":3023:3056   */\n      tag_332\n      jump\t// in\n    tag_464:\n        /* \"#utility.yul\":2923:3062   */\n      swap3\n      swap2\n      pop\n      pop\n      jump\t// out\n        /* \"#utility.yul\":3068:3542   */\n    tag_35:\n        /* \"#utility.yul\":3136:3142   */\n      0x00\n        /* \"#utility.yul\":3144:3150   */\n      dup1\n        /* \"#utility.yul\":3193:3195   */\n      0x40\n        /* \"#utility.yul\":3181:3190   */\n      dup4\n        /* \"#utility.yul\":3172:3179   */\n      dup6\n        /* \"#utility.yul\":3168:3191   */\n      sub\n        /* \"#utility.yul\":3164:3196   */\n      slt\n        /* \"#utility.yul\":3161:3280   */\n      iszero\n      tag_466\n      jumpi\n        /* \"#utility.yul\":3199:3278   */\n      tag_467\n      tag_319\n      jump\t// in\n    tag_467:\n        /* \"#utility.yul\":3161:3280   */\n    tag_466:\n        /* \"#utility.yul\":3319:3320   */\n      0x00\n        /* \"#utility.yul\":3344:3397   */\n      tag_468\n        /* \"#utility.yul\":3389:3396   */\n      dup6\n        /* \"#utility.yul\":3380:3386   */\n      dup3\n        /* \"#utility.yul\":3369:3378   */\n      dup7\n        /* \"#utility.yul\":3365:3387   */\n      add\n        /* \"#utility.yul\":3344:3397   */\n      tag_333\n      jump\t// in\n    tag_468:\n        /* \"#utility.yul\":3334:3397   */\n      swap3\n      pop\n        /* \"#utility.yul\":3290:3407   */\n      pop\n        /* \"#utility.yul\":3446:3448   */\n      0x20\n        /* \"#utility.yul\":3472:3525   */\n      tag_469\n        /* \"#utility.yul\":3517:3524   */\n      dup6\n        /* \"#utility.yul\":3508:3514   */\n      dup3\n        /* \"#utility.yul\":3497:3506   */\n      dup7\n        /* \"#utility.yul\":3493:3515   */\n      add\n        /* \"#utility.yul\":3472:3525   */\n      tag_328\n      jump\t// in\n    tag_469:\n        /* \"#utility.yul\":3462:3525   */\n      swap2\n      pop\n        /* \"#utility.yul\":3417:3535   */\n      pop\n        /* \"#utility.yul\":3068:3542   */\n      swap3\n      pop\n      swap3\n      swap1\n      pop\n      jump\t// out\n        /* \"#utility.yul\":3548:3665   */\n    tag_334:\n        /* \"#utility.yul\":3657:3658   */\n      0x00\n        /* \"#utility.yul\":3654:3655   */\n      dup1\n        /* \"#utility.yul\":3647:3659   */\n      revert\n        /* \"#utility.yul\":3671:3788   */\n    tag_335:\n        /* \"#utility.yul\":3780:3781   */\n      0x00\n        /* \"#utility.yul\":3777:3778   */\n      dup1\n        /* \"#utility.yul\":3770:3782   */\n      revert\n        /* \"#utility.yul\":3794:3911   */\n    tag_336:\n        /* \"#utility.yul\":3903:3904   */\n      0x00\n        /* \"#utility.yul\":3900:3901   */\n      dup1\n        /* \"#utility.yul\":3893:3905   */\n      revert\n        /* \"#utility.yul\":3931:4484   */\n    tag_337:\n        /* \"#utility.yul\":3989:3997   */\n      0x00\n        /* \"#utility.yul\":3999:4005   */\n      dup1\n        /* \"#utility.yul\":4049:4052   */\n      dup4\n        /* \"#utility.yul\":4042:4046   */\n      0x1f\n        /* \"#utility.yul\":4034:4040   */\n      dup5\n        /* \"#utility.yul\":4030:4047   */\n      add\n        /* \"#utility.yul\":4026:4053   */\n      slt\n        /* \"#utility.yul\":4016:4138   */\n      tag_474\n      jumpi\n        /* \"#utility.yul\":4057:4136   */\n      tag_475\n      tag_334\n      jump\t// in\n    tag_475:\n        /* \"#utility.yul\":4016:4138   */\n    tag_474:\n        /* \"#utility.yul\":4170:4176   */\n      dup3\n        /* \"#utility.yul\":4157:4177   */\n      calldataload\n        /* \"#utility.yul\":4147:4177   */\n      swap1\n      pop\n        /* \"#utility.yul\":4200:4218   */\n      0xffffffffffffffff\n        /* \"#utility.yul\":4192:4198   */\n      dup2\n        /* \"#utility.yul\":4189:4219   */\n      gt\n        /* \"#utility.yul\":4186:4303   */\n      iszero\n      tag_476\n      jumpi\n        /* \"#utility.yul\":4222:4301   */\n      tag_477\n      tag_335\n      jump\t// in\n    tag_477:\n        /* \"#utility.yul\":4186:4303   */\n    tag_476:\n        /* \"#utility.yul\":4336:4340   */\n      0x20\n        /* \"#utility.yul\":4328:4334   */\n      dup4\n        /* \"#utility.yul\":4324:4341   */\n      add\n        /* \"#utility.yul\":4312:4341   */\n      swap2\n      pop\n        /* \"#utility.yul\":4390:4393   */\n      dup4\n        /* \"#utility.yul\":4382:4386   */\n      0x01\n        /* \"#utility.yul\":4374:4380   */\n      dup3\n        /* \"#utility.yul\":4370:4387   */\n      mul\n        /* \"#utility.yul\":4360:4368   */\n      dup4\n        /* \"#utility.yul\":4356:4388   */\n      add\n        /* \"#utility.yul\":4353:4394   */\n      gt\n        /* \"#utility.yul\":4350:4478   */\n      iszero\n      tag_478\n      jumpi\n        /* \"#utility.yul\":4397:4476   */\n      tag_479\n      tag_336\n      jump\t// in\n    tag_479:\n        /* \"#utility.yul\":4350:4478   */\n    tag_478:\n        /* \"#utility.yul\":3931:4484   */\n      swap3\n      pop\n      swap3\n      swap1\n      pop\n      jump\t// out\n        /* \"#utility.yul\":4490:5309   */\n    tag_39:\n        /* \"#utility.yul\":4579:4585   */\n      0x00\n        /* \"#utility.yul\":4587:4593   */\n      dup1\n        /* \"#utility.yul\":4595:4601   */\n      0x00\n        /* \"#utility.yul\":4603:4609   */\n      dup1\n        /* \"#utility.yul\":4652:4654   */\n      0x60\n        /* \"#utility.yul\":4640:4649   */\n      dup6\n        /* \"#utility.yul\":4631:4638   */\n      dup8\n        /* \"#utility.yul\":4627:4650   */\n      sub\n        /* \"#utility.yul\":4623:4655   */\n      slt\n        /* \"#utility.yul\":4620:4739   */\n      iszero\n      tag_481\n      jumpi\n        /* \"#utility.yul\":4658:4737   */\n      tag_482\n      tag_319\n      jump\t// in\n    tag_482:\n        /* \"#utility.yul\":4620:4739   */\n    tag_481:\n        /* \"#utility.yul\":4778:4779   */\n      0x00\n        /* \"#utility.yul\":4803:4856   */\n      tag_483\n        /* \"#utility.yul\":4848:4855   */\n      dup8\n        /* \"#utility.yul\":4839:4845   */\n      dup3\n        /* \"#utility.yul\":4828:4837   */\n      dup9\n        /* \"#utility.yul\":4824:4846   */\n      add\n        /* \"#utility.yul\":4803:4856   */\n      tag_328\n      jump\t// in\n    tag_483:\n        /* \"#utility.yul\":4793:4856   */\n      swap5\n      pop\n        /* \"#utility.yul\":4749:4866   */\n      pop\n        /* \"#utility.yul\":4933:4935   */\n      0x20\n        /* \"#utility.yul\":4922:4931   */\n      dup6\n        /* \"#utility.yul\":4918:4936   */\n      add\n        /* \"#utility.yul\":4905:4937   */\n      calldataload\n        /* \"#utility.yul\":4964:4982   */\n      0xffffffffffffffff\n        /* \"#utility.yul\":4956:4962   */\n      dup2\n        /* \"#utility.yul\":4953:4983   */\n      gt\n        /* \"#utility.yul\":4950:5067   */\n      iszero\n      tag_484\n      jumpi\n        /* \"#utility.yul\":4986:5065   */\n      tag_485\n      tag_320\n      jump\t// in\n    tag_485:\n        /* \"#utility.yul\":4950:5067   */\n    tag_484:\n        /* \"#utility.yul\":5099:5164   */\n      tag_486\n        /* \"#utility.yul\":5156:5163   */\n      dup8\n        /* \"#utility.yul\":5147:5153   */\n      dup3\n        /* \"#utility.yul\":5136:5145   */\n      dup9\n        /* \"#utility.yul\":5132:5154   */\n      add\n        /* \"#utility.yul\":5099:5164   */\n      tag_337\n      jump\t// in\n    tag_486:\n        /* \"#utility.yul\":5081:5164   */\n      swap4\n      pop\n      swap4\n      pop\n        /* \"#utility.yul\":4876:5174   */\n      pop\n        /* \"#utility.yul\":5213:5215   */\n      0x40\n        /* \"#utility.yul\":5239:5292   */\n      tag_487\n        /* \"#utility.yul\":5284:5291   */\n      dup8\n        /* \"#utility.yul\":5275:5281   */\n      dup3\n        /* \"#utility.yul\":5264:5273   */\n      dup9\n        /* \"#utility.yul\":5260:5282   */\n      add\n        /* \"#utility.yul\":5239:5292   */\n      tag_328\n      jump\t// in\n    tag_487:\n        /* \"#utility.yul\":5229:5292   */\n      swap2\n      pop\n        /* \"#utility.yul\":5184:5302   */\n      pop\n        /* \"#utility.yul\":4490:5309   */\n      swap3\n      swap6\n      swap2\n      swap5\n      pop\n      swap3\n      pop\n      jump\t// out\n        /* \"#utility.yul\":5315:5934   */\n    tag_43:\n        /* \"#utility.yul\":5392:5398   */\n      0x00\n        /* \"#utility.yul\":5400:5406   */\n      dup1\n        /* \"#utility.yul\":5408:5414   */\n      0x00\n        /* \"#utility.yul\":5457:5459   */\n      0x60\n        /* \"#utility.yul\":5445:5454   */\n      dup5\n        /* \"#utility.yul\":5436:5443   */\n      dup7\n        /* \"#utility.yul\":5432:5455   */\n      sub\n        /* \"#utility.yul\":5428:5460   */\n      slt\n        /* \"#utility.yul\":5425:5544   */\n      iszero\n      tag_489\n      jumpi\n        /* \"#utility.yul\":5463:5542   */\n      tag_490\n      tag_319\n      jump\t// in\n    tag_490:\n        /* \"#utility.yul\":5425:5544   */\n    tag_489:\n        /* \"#utility.yul\":5583:5584   */\n      0x00\n        /* \"#utility.yul\":5608:5661   */\n      tag_491\n        /* \"#utility.yul\":5653:5660   */\n      dup7\n        /* \"#utility.yul\":5644:5650   */\n      dup3\n        /* \"#utility.yul\":5633:5642   */\n      dup8\n        /* \"#utility.yul\":5629:5651   */\n      add\n        /* \"#utility.yul\":5608:5661   */\n      tag_333\n      jump\t// in\n    tag_491:\n        /* \"#utility.yul\":5598:5661   */\n      swap4\n      pop\n        /* \"#utility.yul\":5554:5671   */\n      pop\n        /* \"#utility.yul\":5710:5712   */\n      0x20\n        /* \"#utility.yul\":5736:5789   */\n      tag_492\n        /* \"#utility.yul\":5781:5788   */\n      dup7\n        /* \"#utility.yul\":5772:5778   */\n      dup3\n        /* \"#utility.yul\":5761:5770   */\n      dup8\n        /* \"#utility.yul\":5757:5779   */\n      add\n        /* \"#utility.yul\":5736:5789   */\n      tag_333\n      jump\t// in\n    tag_492:\n        /* \"#utility.yul\":5726:5789   */\n      swap3\n      pop\n        /* \"#utility.yul\":5681:5799   */\n      pop\n        /* \"#utility.yul\":5838:5840   */\n      0x40\n        /* \"#utility.yul\":5864:5917   */\n      tag_493\n        /* \"#utility.yul\":5909:5916   */\n      dup7\n        /* \"#utility.yul\":5900:5906   */\n      dup3\n        /* \"#utility.yul\":5889:5898   */\n      dup8\n        /* \"#utility.yul\":5885:5907   */\n      add\n        /* \"#utility.yul\":5864:5917   */\n      tag_328\n      jump\t// in\n    tag_493:\n        /* \"#utility.yul\":5854:5917   */\n      swap2\n      pop\n        /* \"#utility.yul\":5809:5927   */\n      pop\n        /* \"#utility.yul\":5315:5934   */\n      swap3\n      pop\n      swap3\n      pop\n      swap3\n      jump\t// out\n        /* \"#utility.yul\":5940:6039   */\n    tag_338:\n        /* \"#utility.yul\":5992:5998   */\n      0x00\n        /* \"#utility.yul\":6026:6031   */\n      dup2\n        /* \"#utility.yul\":6020:6032   */\n      mload\n        /* \"#utility.yul\":6010:6032   */\n      swap1\n      pop\n        /* \"#utility.yul\":5940:6039   */\n      swap2\n      swap1\n      pop\n      jump\t// out\n        /* \"#utility.yul\":6045:6214   */\n    tag_339:\n        /* \"#utility.yul\":6129:6140   */\n      0x00\n        /* \"#utility.yul\":6163:6169   */\n      dup3\n        /* \"#utility.yul\":6158:6161   */\n      dup3\n        /* \"#utility.yul\":6151:6170   */\n      mstore\n        /* \"#utility.yul\":6203:6207   */\n      0x20\n        /* \"#utility.yul\":6198:6201   */\n      dup3\n        /* \"#utility.yul\":6194:6208   */\n      add\n        /* \"#utility.yul\":6179:6208   */\n      swap1\n      pop\n        /* \"#utility.yul\":6045:6214   */\n      swap3\n      swap2\n      pop\n      pop\n      jump\t// out\n        /* \"#utility.yul\":6220:6359   */\n    tag_340:\n        /* \"#utility.yul\":6309:6315   */\n      dup3\n        /* \"#utility.yul\":6304:6307   */\n      dup2\n        /* \"#utility.yul\":6299:6302   */\n      dup4\n        /* \"#utility.yul\":6293:6316   */\n      mcopy\n        /* \"#utility.yul\":6350:6351   */\n      0x00\n        /* \"#utility.yul\":6341:6347   */\n      dup4\n        /* \"#utility.yul\":6336:6339   */\n      dup4\n        /* \"#utility.yul\":6332:6348   */\n      add\n        /* \"#utility.yul\":6325:6352   */\n      mstore\n        /* \"#utility.yul\":6220:6359   */\n      pop\n      pop\n      pop\n      jump\t// out\n        /* \"#utility.yul\":6365:6467   */\n    tag_341:\n        /* \"#utility.yul\":6406:6412   */\n      0x00\n        /* \"#utility.yul\":6457:6459   */\n      0x1f\n        /* \"#utility.yul\":6453:6460   */\n      not\n        /* \"#utility.yul\":6448:6450   */\n      0x1f\n        /* \"#utility.yul\":6441:6446   */\n      dup4\n        /* \"#utility.yul\":6437:6451   */\n      add\n        /* \"#utility.yul\":6433:6461   */\n      and\n        /* \"#utility.yul\":6423:6461   */\n      swap1\n      pop\n        /* \"#utility.yul\":6365:6467   */\n      swap2\n      swap1\n      pop\n      jump\t// out\n        /* \"#utility.yul\":6473:6850   */\n    tag_342:\n        /* \"#utility.yul\":6561:6564   */\n      0x00\n        /* \"#utility.yul\":6589:6628   */\n      tag_499\n        /* \"#utility.yul\":6622:6627   */\n      dup3\n        /* \"#utility.yul\":6589:6628   */\n      tag_338\n      jump\t// in\n    tag_499:\n        /* \"#utility.yul\":6644:6715   */\n      tag_500\n        /* \"#utility.yul\":6708:6714   */\n      dup2\n        /* \"#utility.yul\":6703:6706   */\n      dup6\n        /* \"#utility.yul\":6644:6715   */\n      tag_339\n      jump\t// in\n    tag_500:\n        /* \"#utility.yul\":6637:6715   */\n      swap4\n      pop\n        /* \"#utility.yul\":6724:6789   */\n      tag_501\n        /* \"#utility.yul\":6782:6788   */\n      dup2\n        /* \"#utility.yul\":6777:6780   */\n      dup6\n        /* \"#utility.yul\":6770:6774   */\n      0x20\n        /* \"#utility.yul\":6763:6768   */\n      dup7\n        /* \"#utility.yul\":6759:6775   */\n      add\n        /* \"#utility.yul\":6724:6789   */\n      tag_340\n      jump\t// in\n    tag_501:\n        /* \"#utility.yul\":6814:6843   */\n      tag_502\n        /* \"#utility.yul\":6836:6842   */\n      dup2\n        /* \"#utility.yul\":6814:6843   */\n      tag_341\n      jump\t// in\n    tag_502:\n        /* \"#utility.yul\":6809:6812   */\n      dup5\n        /* \"#utility.yul\":6805:6844   */\n      add\n        /* \"#utility.yul\":6798:6844   */\n      swap2\n      pop\n        /* \"#utility.yul\":6565:6850   */\n      pop\n        /* \"#utility.yul\":6473:6850   */\n      swap3\n      swap2\n      pop\n      pop\n      jump\t// out\n        /* \"#utility.yul\":6856:6980   */\n    tag_343:\n        /* \"#utility.yul\":6933:6939   */\n      0x00\n        /* \"#utility.yul\":6967:6972   */\n      dup2\n        /* \"#utility.yul\":6961:6973   */\n      mload\n        /* \"#utility.yul\":6951:6973   */\n      swap1\n      pop\n        /* \"#utility.yul\":6856:6980   */\n      swap2\n      swap1\n      pop\n      jump\t// out\n        /* \"#utility.yul\":6986:7170   */\n    tag_344:\n        /* \"#utility.yul\":7085:7096   */\n      0x00\n        /* \"#utility.yul\":7119:7125   */\n      dup3\n        /* \"#utility.yul\":7114:7117   */\n      dup3\n        /* \"#utility.yul\":7107:7126   */\n      mstore\n        /* \"#utility.yul\":7159:7163   */\n      0x20\n        /* \"#utility.yul\":7154:7157   */\n      dup3\n        /* \"#utility.yul\":7150:7164   */\n      add\n        /* \"#utility.yul\":7135:7164   */\n      swap1\n      pop\n        /* \"#utility.yul\":6986:7170   */\n      swap3\n      swap2\n      pop\n      pop\n      jump\t// out\n        /* \"#utility.yul\":7176:7318   */\n    tag_345:\n        /* \"#utility.yul\":7253:7257   */\n      0x00\n        /* \"#utility.yul\":7276:7279   */\n      dup2\n        /* \"#utility.yul\":7268:7279   */\n      swap1\n      pop\n        /* \"#utility.yul\":7306:7310   */\n      0x20\n        /* \"#utility.yul\":7301:7304   */\n      dup3\n        /* \"#utility.yul\":7297:7311   */\n      add\n        /* \"#utility.yul\":7289:7311   */\n      swap1\n      pop\n        /* \"#utility.yul\":7176:7318   */\n      swap2\n      swap1\n      pop\n      jump\t// out\n        /* \"#utility.yul\":7324:7483   */\n    tag_346:\n        /* \"#utility.yul\":7398:7409   */\n      0x00\n        /* \"#utility.yul\":7432:7438   */\n      dup3\n        /* \"#utility.yul\":7427:7430   */\n      dup3\n        /* \"#utility.yul\":7420:7439   */\n      mstore\n        /* \"#utility.yul\":7472:7476   */\n      0x20\n        /* \"#utility.yul\":7467:7470   */\n      dup3\n        /* \"#utility.yul\":7463:7477   */\n      add\n        /* \"#utility.yul\":7448:7477   */\n      swap1\n      pop\n        /* \"#utility.yul\":7324:7483   */\n      swap3\n      swap2\n      pop\n      pop\n      jump\t// out\n        /* \"#utility.yul\":7489:7846   */\n    tag_347:\n        /* \"#utility.yul\":7567:7570   */\n      0x00\n        /* \"#utility.yul\":7595:7634   */\n      tag_508\n        /* \"#utility.yul\":7628:7633   */\n      dup3\n        /* \"#utility.yul\":7595:7634   */\n      tag_338\n      jump\t// in\n    tag_508:\n        /* \"#utility.yul\":7650:7711   */\n      tag_509\n        /* \"#utility.yul\":7704:7710   */\n      dup2\n        /* \"#utility.yul\":7699:7702   */\n      dup6\n        /* \"#utility.yul\":7650:7711   */\n      tag_346\n      jump\t// in\n    tag_509:\n        /* \"#utility.yul\":7643:7711   */\n      swap4\n      pop\n        /* \"#utility.yul\":7720:7785   */\n      tag_510\n        /* \"#utility.yul\":7778:7784   */\n      dup2\n        /* \"#utility.yul\":7773:7776   */\n      dup6\n        /* \"#utility.yul\":7766:7770   */\n      0x20\n        /* \"#utility.yul\":7759:7764   */\n      dup7\n        /* \"#utility.yul\":7755:7771   */\n      add\n        /* \"#utility.yul\":7720:7785   */\n      tag_340\n      jump\t// in\n    tag_510:\n        /* \"#utility.yul\":7810:7839   */\n      tag_511\n        /* \"#utility.yul\":7832:7838   */\n      dup2\n        /* \"#utility.yul\":7810:7839   */\n      tag_341\n      jump\t// in\n    tag_511:\n        /* \"#utility.yul\":7805:7808   */\n      dup5\n        /* \"#utility.yul\":7801:7840   */\n      add\n        /* \"#utility.yul\":7794:7840   */\n      swap2\n      pop\n        /* \"#utility.yul\":7571:7846   */\n      pop\n        /* \"#utility.yul\":7489:7846   */\n      swap3\n      swap2\n      pop\n      pop\n      jump\t// out\n        /* \"#utility.yul\":7852:8048   */\n    tag_348:\n        /* \"#utility.yul\":7941:7951   */\n      0x00\n        /* \"#utility.yul\":7976:8042   */\n      tag_513\n        /* \"#utility.yul\":8038:8041   */\n      dup4\n        /* \"#utility.yul\":8030:8036   */\n      dup4\n        /* \"#utility.yul\":7976:8042   */\n      tag_347\n      jump\t// in\n    tag_513:\n        /* \"#utility.yul\":7962:8042   */\n      swap1\n      pop\n        /* \"#utility.yul\":7852:8048   */\n      swap3\n      swap2\n      pop\n      pop\n      jump\t// out\n        /* \"#utility.yul\":8054:8177   */\n    tag_349:\n        /* \"#utility.yul\":8134:8138   */\n      0x00\n        /* \"#utility.yul\":8166:8170   */\n      0x20\n        /* \"#utility.yul\":8161:8164   */\n      dup3\n        /* \"#utility.yul\":8157:8171   */\n      add\n        /* \"#utility.yul\":8149:8171   */\n      swap1\n      pop\n        /* \"#utility.yul\":8054:8177   */\n      swap2\n      swap1\n      pop\n      jump\t// out\n        /* \"#utility.yul\":8211:9182   */\n    tag_350:\n        /* \"#utility.yul\":8340:8343   */\n      0x00\n        /* \"#utility.yul\":8369:8433   */\n      tag_516\n        /* \"#utility.yul\":8427:8432   */\n      dup3\n        /* \"#utility.yul\":8369:8433   */\n      tag_343\n      jump\t// in\n    tag_516:\n        /* \"#utility.yul\":8449:8535   */\n      tag_517\n        /* \"#utility.yul\":8528:8534   */\n      dup2\n        /* \"#utility.yul\":8523:8526   */\n      dup6\n        /* \"#utility.yul\":8449:8535   */\n      tag_344\n      jump\t// in\n    tag_517:\n        /* \"#utility.yul\":8442:8535   */\n      swap4\n      pop\n        /* \"#utility.yul\":8561:8564   */\n      dup4\n        /* \"#utility.yul\":8606:8610   */\n      0x20\n        /* \"#utility.yul\":8598:8604   */\n      dup3\n        /* \"#utility.yul\":8594:8611   */\n      mul\n        /* \"#utility.yul\":8589:8592   */\n      dup6\n        /* \"#utility.yul\":8585:8612   */\n      add\n        /* \"#utility.yul\":8636:8702   */\n      tag_518\n        /* \"#utility.yul\":8696:8701   */\n      dup6\n        /* \"#utility.yul\":8636:8702   */\n      tag_345\n      jump\t// in\n    tag_518:\n        /* \"#utility.yul\":8725:8732   */\n      dup1\n        /* \"#utility.yul\":8756:8757   */\n      0x00\n        /* \"#utility.yul\":8741:9137   */\n    tag_519:\n        /* \"#utility.yul\":8766:8772   */\n      dup6\n        /* \"#utility.yul\":8763:8764   */\n      dup2\n        /* \"#utility.yul\":8760:8773   */\n      lt\n        /* \"#utility.yul\":8741:9137   */\n      iszero\n      tag_521\n      jumpi\n        /* \"#utility.yul\":8837:8846   */\n      dup5\n        /* \"#utility.yul\":8831:8835   */\n      dup5\n        /* \"#utility.yul\":8827:8847   */\n      sub\n        /* \"#utility.yul\":8822:8825   */\n      dup10\n        /* \"#utility.yul\":8815:8848   */\n      mstore\n        /* \"#utility.yul\":8888:8894   */\n      dup2\n        /* \"#utility.yul\":8882:8895   */\n      mload\n        /* \"#utility.yul\":8916:9000   */\n      tag_522\n        /* \"#utility.yul\":8995:8999   */\n      dup6\n        /* \"#utility.yul\":8980:8993   */\n      dup3\n        /* \"#utility.yul\":8916:9000   */\n      tag_348\n      jump\t// in\n    tag_522:\n        /* \"#utility.yul\":8908:9000   */\n      swap5\n      pop\n        /* \"#utility.yul\":9023:9093   */\n      tag_523\n        /* \"#utility.yul\":9086:9092   */\n      dup4\n        /* \"#utility.yul\":9023:9093   */\n      tag_349\n      jump\t// in\n    tag_523:\n        /* \"#utility.yul\":9013:9093   */\n      swap3\n      pop\n        /* \"#utility.yul\":9122:9126   */\n      0x20\n        /* \"#utility.yul\":9117:9120   */\n      dup11\n        /* \"#utility.yul\":9113:9127   */\n      add\n        /* \"#utility.yul\":9106:9127   */\n      swap10\n      pop\n        /* \"#utility.yul\":8801:9137   */\n      pop\n        /* \"#utility.yul\":8788:8789   */\n      0x01\n        /* \"#utility.yul\":8785:8786   */\n      dup2\n        /* \"#utility.yul\":8781:8790   */\n      add\n        /* \"#utility.yul\":8776:8790   */\n      swap1\n      pop\n        /* \"#utility.yul\":8741:9137   */\n      jump(tag_519)\n    tag_521:\n        /* \"#utility.yul\":8745:8759   */\n      pop\n        /* \"#utility.yul\":9153:9157   */\n      dup3\n        /* \"#utility.yul\":9146:9157   */\n      swap8\n      pop\n        /* \"#utility.yul\":9173:9176   */\n      dup8\n        /* \"#utility.yul\":9166:9176   */\n      swap6\n      pop\n        /* \"#utility.yul\":8345:9182   */\n      pop\n      pop\n      pop\n      pop\n      pop\n        /* \"#utility.yul\":8211:9182   */\n      swap3\n      swap2\n      pop\n      pop\n      jump\t// out\n        /* \"#utility.yul\":9188:9302   */\n    tag_351:\n        /* \"#utility.yul\":9255:9261   */\n      0x00\n        /* \"#utility.yul\":9289:9294   */\n      dup2\n        /* \"#utility.yul\":9283:9295   */\n      mload\n        /* \"#utility.yul\":9273:9295   */\n      swap1\n      pop\n        /* \"#utility.yul\":9188:9302   */\n      swap2\n      swap1\n      pop\n      jump\t// out\n        /* \"#utility.yul\":9308:9482   */\n    tag_352:\n        /* \"#utility.yul\":9397:9408   */\n      0x00\n        /* \"#utility.yul\":9431:9437   */\n      dup3\n        /* \"#utility.yul\":9426:9429   */\n      dup3\n        /* \"#utility.yul\":9419:9438   */\n      mstore\n        /* \"#utility.yul\":9471:9475   */\n      0x20\n        /* \"#utility.yul\":9466:9469   */\n      dup3\n        /* \"#utility.yul\":9462:9476   */\n      add\n        /* \"#utility.yul\":9447:9476   */\n      swap1\n      pop\n        /* \"#utility.yul\":9308:9482   */\n      swap3\n      swap2\n      pop\n      pop\n      jump\t// out\n        /* \"#utility.yul\":9488:9620   */\n    tag_353:\n        /* \"#utility.yul\":9555:9559   */\n      0x00\n        /* \"#utility.yul\":9578:9581   */\n      dup2\n        /* \"#utility.yul\":9570:9581   */\n      swap1\n      pop\n        /* \"#utility.yul\":9608:9612   */\n      0x20\n        /* \"#utility.yul\":9603:9606   */\n      dup3\n        /* \"#utility.yul\":9599:9613   */\n      add\n        /* \"#utility.yul\":9591:9613   */\n      swap1\n      pop\n        /* \"#utility.yul\":9488:9620   */\n      swap2\n      swap1\n      pop\n      jump\t// out\n        /* \"#utility.yul\":9626:9734   */\n    tag_354:\n        /* \"#utility.yul\":9703:9727   */\n      tag_528\n        /* \"#utility.yul\":9721:9726   */\n      dup2\n        /* \"#utility.yul\":9703:9727   */\n      tag_326\n      jump\t// in\n    tag_528:\n        /* \"#utility.yul\":9698:9701   */\n      dup3\n        /* \"#utility.yul\":9691:9728   */\n      mstore\n        /* \"#utility.yul\":9626:9734   */\n      pop\n      pop\n      jump\t// out\n        /* \"#utility.yul\":9740:9919   */\n    tag_355:\n        /* \"#utility.yul\":9809:9819   */\n      0x00\n        /* \"#utility.yul\":9830:9876   */\n      tag_530\n        /* \"#utility.yul\":9872:9875   */\n      dup4\n        /* \"#utility.yul\":9864:9870   */\n      dup4\n        /* \"#utility.yul\":9830:9876   */\n      tag_354\n      jump\t// in\n    tag_530:\n        /* \"#utility.yul\":9908:9912   */\n      0x20\n        /* \"#utility.yul\":9903:9906   */\n      dup4\n        /* \"#utility.yul\":9899:9913   */\n      add\n        /* \"#utility.yul\":9885:9913   */\n      swap1\n      pop\n        /* \"#utility.yul\":9740:9919   */\n      swap3\n      swap2\n      pop\n      pop\n      jump\t// out\n        /* \"#utility.yul\":9925:10038   */\n    tag_356:\n        /* \"#utility.yul\":9995:9999   */\n      0x00\n        /* \"#utility.yul\":10027:10031   */\n      0x20\n        /* \"#utility.yul\":10022:10025   */\n      dup3\n        /* \"#utility.yul\":10018:10032   */\n      add\n        /* \"#utility.yul\":10010:10032   */\n      swap1\n      pop\n        /* \"#utility.yul\":9925:10038   */\n      swap2\n      swap1\n      pop\n      jump\t// out\n        /* \"#utility.yul\":10074:10786   */\n    tag_357:\n        /* \"#utility.yul\":10183:10186   */\n      0x00\n        /* \"#utility.yul\":10212:10266   */\n      tag_533\n        /* \"#utility.yul\":10260:10265   */\n      dup3\n        /* \"#utility.yul\":10212:10266   */\n      tag_351\n      jump\t// in\n    tag_533:\n        /* \"#utility.yul\":10282:10358   */\n      tag_534\n        /* \"#utility.yul\":10351:10357   */\n      dup2\n        /* \"#utility.yul\":10346:10349   */\n      dup6\n        /* \"#utility.yul\":10282:10358   */\n      tag_352\n      jump\t// in\n    tag_534:\n        /* \"#utility.yul\":10275:10358   */\n      swap4\n      pop\n        /* \"#utility.yul\":10382:10438   */\n      tag_535\n        /* \"#utility.yul\":10432:10437   */\n      dup4\n        /* \"#utility.yul\":10382:10438   */\n      tag_353\n      jump\t// in\n    tag_535:\n        /* \"#utility.yul\":10461:10468   */\n      dup1\n        /* \"#utility.yul\":10492:10493   */\n      0x00\n        /* \"#utility.yul\":10477:10761   */\n    tag_536:\n        /* \"#utility.yul\":10502:10508   */\n      dup4\n        /* \"#utility.yul\":10499:10500   */\n      dup2\n        /* \"#utility.yul\":10496:10509   */\n      lt\n        /* \"#utility.yul\":10477:10761   */\n      iszero\n      tag_538\n      jumpi\n        /* \"#utility.yul\":10578:10584   */\n      dup2\n        /* \"#utility.yul\":10572:10585   */\n      mload\n        /* \"#utility.yul\":10605:10668   */\n      tag_539\n        /* \"#utility.yul\":10664:10667   */\n      dup9\n        /* \"#utility.yul\":10649:10662   */\n      dup3\n        /* \"#utility.yul\":10605:10668   */\n      tag_355\n      jump\t// in\n    tag_539:\n        /* \"#utility.yul\":10598:10668   */\n      swap8\n      pop\n        /* \"#utility.yul\":10691:10751   */\n      tag_540\n        /* \"#utility.yul\":10744:10750   */\n      dup4\n        /* \"#utility.yul\":10691:10751   */\n      tag_356\n      jump\t// in\n    tag_540:\n        /* \"#utility.yul\":10681:10751   */\n      swap3\n      pop\n        /* \"#utility.yul\":10537:10761   */\n      pop\n        /* \"#utility.yul\":10524:10525   */\n      0x01\n        /* \"#utility.yul\":10521:10522   */\n      dup2\n        /* \"#utility.yul\":10517:10526   */\n      add\n        /* \"#utility.yul\":10512:10526   */\n      swap1\n      pop\n        /* \"#utility.yul\":10477:10761   */\n      jump(tag_536)\n    tag_538:\n        /* \"#utility.yul\":10481:10495   */\n      pop\n        /* \"#utility.yul\":10777:10780   */\n      dup6\n        /* \"#utility.yul\":10770:10780   */\n      swap4\n      pop\n        /* \"#utility.yul\":10188:10786   */\n      pop\n      pop\n      pop\n        /* \"#utility.yul\":10074:10786   */\n      swap3\n      swap2\n      pop\n      pop\n      jump\t// out\n        /* \"#utility.yul\":10860:11622   */\n    tag_358:\n        /* \"#utility.yul\":10977:10980   */\n      0x00\n        /* \"#utility.yul\":11013:11017   */\n      0x40\n        /* \"#utility.yul\":11008:11011   */\n      dup4\n        /* \"#utility.yul\":11004:11018   */\n      add\n        /* \"#utility.yul\":11101:11105   */\n      0x00\n        /* \"#utility.yul\":11094:11099   */\n      dup4\n        /* \"#utility.yul\":11090:11106   */\n      add\n        /* \"#utility.yul\":11084:11107   */\n      mload\n        /* \"#utility.yul\":11154:11157   */\n      dup5\n        /* \"#utility.yul\":11148:11152   */\n      dup3\n        /* \"#utility.yul\":11144:11158   */\n      sub\n        /* \"#utility.yul\":11137:11141   */\n      0x00\n        /* \"#utility.yul\":11132:11135   */\n      dup7\n        /* \"#utility.yul\":11128:11142   */\n      add\n        /* \"#utility.yul\":11121:11159   */\n      mstore\n        /* \"#utility.yul\":11180:11303   */\n      tag_542\n        /* \"#utility.yul\":11298:11302   */\n      dup3\n        /* \"#utility.yul\":11284:11296   */\n      dup3\n        /* \"#utility.yul\":11180:11303   */\n      tag_350\n      jump\t// in\n    tag_542:\n        /* \"#utility.yul\":11172:11303   */\n      swap2\n      pop\n        /* \"#utility.yul\":11028:11314   */\n      pop\n        /* \"#utility.yul\":11402:11406   */\n      0x20\n        /* \"#utility.yul\":11395:11400   */\n      dup4\n        /* \"#utility.yul\":11391:11407   */\n      add\n        /* \"#utility.yul\":11385:11408   */\n      mload\n        /* \"#utility.yul\":11455:11458   */\n      dup5\n        /* \"#utility.yul\":11449:11453   */\n      dup3\n        /* \"#utility.yul\":11445:11459   */\n      sub\n        /* \"#utility.yul\":11438:11442   */\n      0x20\n        /* \"#utility.yul\":11433:11436   */\n      dup7\n        /* \"#utility.yul\":11429:11443   */\n      add\n        /* \"#utility.yul\":11422:11460   */\n      mstore\n        /* \"#utility.yul\":11481:11584   */\n      tag_543\n        /* \"#utility.yul\":11579:11583   */\n      dup3\n        /* \"#utility.yul\":11565:11577   */\n      dup3\n        /* \"#utility.yul\":11481:11584   */\n      tag_357\n      jump\t// in\n    tag_543:\n        /* \"#utility.yul\":11473:11584   */\n      swap2\n      pop\n        /* \"#utility.yul\":11324:11595   */\n      pop\n        /* \"#utility.yul\":11612:11616   */\n      dup1\n        /* \"#utility.yul\":11605:11616   */\n      swap2\n      pop\n        /* \"#utility.yul\":10982:11622   */\n      pop\n        /* \"#utility.yul\":10860:11622   */\n      swap3\n      swap2\n      pop\n      pop\n      jump\t// out\n        /* \"#utility.yul\":11628:12308   */\n    tag_53:\n        /* \"#utility.yul\":11845:11849   */\n      0x00\n        /* \"#utility.yul\":11883:11885   */\n      0x60\n        /* \"#utility.yul\":11872:11881   */\n      dup3\n        /* \"#utility.yul\":11868:11886   */\n      add\n        /* \"#utility.yul\":11860:11886   */\n      swap1\n      pop\n        /* \"#utility.yul\":11932:11941   */\n      dup2\n        /* \"#utility.yul\":11926:11930   */\n      dup2\n        /* \"#utility.yul\":11922:11942   */\n      sub\n        /* \"#utility.yul\":11918:11919   */\n      0x00\n        /* \"#utility.yul\":11907:11916   */\n      dup4\n        /* \"#utility.yul\":11903:11920   */\n      add\n        /* \"#utility.yul\":11896:11943   */\n      mstore\n        /* \"#utility.yul\":11960:12038   */\n      tag_545\n        /* \"#utility.yul\":12033:12037   */\n      dup2\n        /* \"#utility.yul\":12024:12030   */\n      dup7\n        /* \"#utility.yul\":11960:12038   */\n      tag_342\n      jump\t// in\n    tag_545:\n        /* \"#utility.yul\":11952:12038   */\n      swap1\n      pop\n        /* \"#utility.yul\":12085:12094   */\n      dup2\n        /* \"#utility.yul\":12079:12083   */\n      dup2\n        /* \"#utility.yul\":12075:12095   */\n      sub\n        /* \"#utility.yul\":12070:12072   */\n      0x20\n        /* \"#utility.yul\":12059:12068   */\n      dup4\n        /* \"#utility.yul\":12055:12073   */\n      add\n        /* \"#utility.yul\":12048:12096   */\n      mstore\n        /* \"#utility.yul\":12113:12219   */\n      tag_546\n        /* \"#utility.yul\":12214:12218   */\n      dup2\n        /* \"#utility.yul\":12205:12211   */\n      dup6\n        /* \"#utility.yul\":12113:12219   */\n      tag_358\n      jump\t// in\n    tag_546:\n        /* \"#utility.yul\":12105:12219   */\n      swap1\n      pop\n        /* \"#utility.yul\":12229:12301   */\n      tag_547\n        /* \"#utility.yul\":12297:12299   */\n      0x40\n        /* \"#utility.yul\":12286:12295   */\n      dup4\n        /* \"#utility.yul\":12282:12300   */\n      add\n        /* \"#utility.yul\":12273:12279   */\n      dup5\n        /* \"#utility.yul\":12229:12301   */\n      tag_331\n      jump\t// in\n    tag_547:\n        /* \"#utility.yul\":11628:12308   */\n      swap5\n      swap4\n      pop\n      pop\n      pop\n      pop\n      jump\t// out\n        /* \"#utility.yul\":12314:12643   */\n    tag_66:\n        /* \"#utility.yul\":12373:12379   */\n      0x00\n        /* \"#utility.yul\":12422:12424   */\n      0x20\n        /* \"#utility.yul\":12410:12419   */\n      dup3\n        /* \"#utility.yul\":12401:12408   */\n      dup5\n        /* \"#utility.yul\":12397:12420   */\n      sub\n        /* \"#utility.yul\":12393:12425   */\n      slt\n        /* \"#utility.yul\":12390:12509   */\n      iszero\n      tag_549\n      jumpi\n        /* \"#utility.yul\":12428:12507   */\n      tag_550\n      tag_319\n      jump\t// in\n    tag_550:\n        /* \"#utility.yul\":12390:12509   */\n    tag_549:\n        /* \"#utility.yul\":12548:12549   */\n      0x00\n        /* \"#utility.yul\":12573:12626   */\n      tag_551\n        /* \"#utility.yul\":12618:12625   */\n      dup5\n        /* \"#utility.yul\":12609:12615   */\n      dup3\n        /* \"#utility.yul\":12598:12607   */\n      dup6\n        /* \"#utility.yul\":12594:12616   */\n      add\n        /* \"#utility.yul\":12573:12626   */\n      tag_333\n      jump\t// in\n    tag_551:\n        /* \"#utility.yul\":12563:12626   */\n      swap2\n      pop\n        /* \"#utility.yul\":12519:12636   */\n      pop\n        /* \"#utility.yul\":12314:12643   */\n      swap3\n      swap2\n      pop\n      pop\n      jump\t// out\n        /* \"#utility.yul\":12649:12767   */\n    tag_359:\n        /* \"#utility.yul\":12736:12760   */\n      tag_553\n        /* \"#utility.yul\":12754:12759   */\n      dup2\n        /* \"#utility.yul\":12736:12760   */\n      tag_326\n      jump\t// in\n    tag_553:\n        /* \"#utility.yul\":12731:12734   */\n      dup3\n        /* \"#utility.yul\":12724:12761   */\n      mstore\n        /* \"#utility.yul\":12649:12767   */\n      pop\n      pop\n      jump\t// out\n        /* \"#utility.yul\":12773:12995   */\n    tag_69:\n        /* \"#utility.yul\":12866:12870   */\n      0x00\n        /* \"#utility.yul\":12904:12906   */\n      0x20\n        /* \"#utility.yul\":12893:12902   */\n      dup3\n        /* \"#utility.yul\":12889:12907   */\n      add\n        /* \"#utility.yul\":12881:12907   */\n      swap1\n      pop\n        /* \"#utility.yul\":12917:12988   */\n      tag_555\n        /* \"#utility.yul\":12985:12986   */\n      0x00\n        /* \"#utility.yul\":12974:12983   */\n      dup4\n        /* \"#utility.yul\":12970:12987   */\n      add\n        /* \"#utility.yul\":12961:12967   */\n      dup5\n        /* \"#utility.yul\":12917:12988   */\n      tag_359\n      jump\t// in\n    tag_555:\n        /* \"#utility.yul\":12773:12995   */\n      swap3\n      swap2\n      pop\n      pop\n      jump\t// out\n        /* \"#utility.yul\":13001:13087   */\n    tag_360:\n        /* \"#utility.yul\":13036:13043   */\n      0x00\n        /* \"#utility.yul\":13076:13080   */\n      0xff\n        /* \"#utility.yul\":13069:13074   */\n      dup3\n        /* \"#utility.yul\":13065:13081   */\n      and\n        /* \"#utility.yul\":13054:13081   */\n      swap1\n      pop\n        /* \"#utility.yul\":13001:13087   */\n      swap2\n      swap1\n      pop\n      jump\t// out\n        /* \"#utility.yul\":13093:13211   */\n    tag_361:\n        /* \"#utility.yul\":13164:13186   */\n      tag_558\n        /* \"#utility.yul\":13180:13185   */\n      dup2\n        /* \"#utility.yul\":13164:13186   */\n      tag_360\n      jump\t// in\n    tag_558:\n        /* \"#utility.yul\":13157:13162   */\n      dup2\n        /* \"#utility.yul\":13154:13187   */\n      eq\n        /* \"#utility.yul\":13144:13205   */\n      tag_559\n      jumpi\n        /* \"#utility.yul\":13201:13202   */\n      0x00\n        /* \"#utility.yul\":13198:13199   */\n      dup1\n        /* \"#utility.yul\":13191:13203   */\n      revert\n        /* \"#utility.yul\":13144:13205   */\n    tag_559:\n        /* \"#utility.yul\":13093:13211   */\n      pop\n      jump\t// out\n        /* \"#utility.yul\":13217:13352   */\n    tag_362:\n        /* \"#utility.yul\":13261:13266   */\n      0x00\n        /* \"#utility.yul\":13299:13305   */\n      dup2\n        /* \"#utility.yul\":13286:13306   */\n      calldataload\n        /* \"#utility.yul\":13277:13306   */\n      swap1\n      pop\n        /* \"#utility.yul\":13315:13346   */\n      tag_561\n        /* \"#utility.yul\":13340:13345   */\n      dup2\n        /* \"#utility.yul\":13315:13346   */\n      tag_361\n      jump\t// in\n    tag_561:\n        /* \"#utility.yul\":13217:13352   */\n      swap3\n      swap2\n      pop\n      pop\n      jump\t// out\n        /* \"#utility.yul\":13358:13828   */\n    tag_75:\n        /* \"#utility.yul\":13424:13430   */\n      0x00\n        /* \"#utility.yul\":13432:13438   */\n      dup1\n        /* \"#utility.yul\":13481:13483   */\n      0x40\n        /* \"#utility.yul\":13469:13478   */\n      dup4\n        /* \"#utility.yul\":13460:13467   */\n      dup6\n        /* \"#utility.yul\":13456:13479   */\n      sub\n        /* \"#utility.yul\":13452:13484   */\n      slt\n        /* \"#utility.yul\":13449:13568   */\n      iszero\n      tag_563\n      jumpi\n        /* \"#utility.yul\":13487:13566   */\n      tag_564\n      tag_319\n      jump\t// in\n    tag_564:\n        /* \"#utility.yul\":13449:13568   */\n    tag_563:\n        /* \"#utility.yul\":13607:13608   */\n      0x00\n        /* \"#utility.yul\":13632:13685   */\n      tag_565\n        /* \"#utility.yul\":13677:13684   */\n      dup6\n        /* \"#utility.yul\":13668:13674   */\n      dup3\n        /* \"#utility.yul\":13657:13666   */\n      dup7\n        /* \"#utility.yul\":13653:13675   */\n      add\n        /* \"#utility.yul\":13632:13685   */\n      tag_328\n      jump\t// in\n    tag_565:\n        /* \"#utility.yul\":13622:13685   */\n      swap3\n      pop\n        /* \"#utility.yul\":13578:13695   */\n      pop\n        /* \"#utility.yul\":13734:13736   */\n      0x20\n        /* \"#utility.yul\":13760:13811   */\n      tag_566\n        /* \"#utility.yul\":13803:13810   */\n      dup6\n        /* \"#utility.yul\":13794:13800   */\n      dup3\n        /* \"#utility.yul\":13783:13792   */\n      dup7\n        /* \"#utility.yul\":13779:13801   */\n      add\n        /* \"#utility.yul\":13760:13811   */\n      tag_362\n      jump\t// in\n    tag_566:\n        /* \"#utility.yul\":13750:13811   */\n      swap2\n      pop\n        /* \"#utility.yul\":13705:13821   */\n      pop\n        /* \"#utility.yul\":13358:13828   */\n      swap3\n      pop\n      swap3\n      swap1\n      pop\n      jump\t// out\n        /* \"#utility.yul\":13834:14363   */\n    tag_83:\n        /* \"#utility.yul\":13905:13911   */\n      0x00\n        /* \"#utility.yul\":13913:13919   */\n      dup1\n        /* \"#utility.yul\":13962:13964   */\n      0x20\n        /* \"#utility.yul\":13950:13959   */\n      dup4\n        /* \"#utility.yul\":13941:13948   */\n      dup6\n        /* \"#utility.yul\":13937:13960   */\n      sub\n        /* \"#utility.yul\":13933:13965   */\n      slt\n        /* \"#utility.yul\":13930:14049   */\n      iszero\n      tag_568\n      jumpi\n        /* \"#utility.yul\":13968:14047   */\n      tag_569\n      tag_319\n      jump\t// in\n    tag_569:\n        /* \"#utility.yul\":13930:14049   */\n    tag_568:\n        /* \"#utility.yul\":14116:14117   */\n      0x00\n        /* \"#utility.yul\":14105:14114   */\n      dup4\n        /* \"#utility.yul\":14101:14118   */\n      add\n        /* \"#utility.yul\":14088:14119   */\n      calldataload\n        /* \"#utility.yul\":14146:14164   */\n      0xffffffffffffffff\n        /* \"#utility.yul\":14138:14144   */\n      dup2\n        /* \"#utility.yul\":14135:14165   */\n      gt\n        /* \"#utility.yul\":14132:14249   */\n      iszero\n      tag_570\n      jumpi\n        /* \"#utility.yul\":14168:14247   */\n      tag_571\n      tag_320\n      jump\t// in\n    tag_571:\n        /* \"#utility.yul\":14132:14249   */\n    tag_570:\n        /* \"#utility.yul\":14281:14346   */\n      tag_572\n        /* \"#utility.yul\":14338:14345   */\n      dup6\n        /* \"#utility.yul\":14329:14335   */\n      dup3\n        /* \"#utility.yul\":14318:14327   */\n      dup7\n        /* \"#utility.yul\":14314:14336   */\n      add\n        /* \"#utility.yul\":14281:14346   */\n      tag_337\n      jump\t// in\n    tag_572:\n        /* \"#utility.yul\":14263:14346   */\n      swap3\n      pop\n      swap3\n      pop\n        /* \"#utility.yul\":14059:14356   */\n      pop\n        /* \"#utility.yul\":13834:14363   */\n      swap3\n      pop\n      swap3\n      swap1\n      pop\n      jump\t// out\n        /* \"#utility.yul\":14369:14549   */\n    tag_363:\n        /* \"#utility.yul\":14417:14494   */\n      0x4e487b7100000000000000000000000000000000000000000000000000000000\n        /* \"#utility.yul\":14414:14415   */\n      0x00\n        /* \"#utility.yul\":14407:14495   */\n      mstore\n        /* \"#utility.yul\":14514:14518   */\n      0x11\n        /* \"#utility.yul\":14511:14512   */\n      0x04\n        /* \"#utility.yul\":14504:14519   */\n      mstore\n        /* \"#utility.yul\":14538:14542   */\n      0x24\n        /* \"#utility.yul\":14535:14536   */\n      0x00\n        /* \"#utility.yul\":14528:14543   */\n      revert\n        /* \"#utility.yul\":14555:14746   */\n    tag_91:\n        /* \"#utility.yul\":14595:14598   */\n      0x00\n        /* \"#utility.yul\":14614:14634   */\n      tag_575\n        /* \"#utility.yul\":14632:14633   */\n      dup3\n        /* \"#utility.yul\":14614:14634   */\n      tag_326\n      jump\t// in\n    tag_575:\n        /* \"#utility.yul\":14609:14634   */\n      swap2\n      pop\n        /* \"#utility.yul\":14648:14668   */\n      tag_576\n        /* \"#utility.yul\":14666:14667   */\n      dup4\n        /* \"#utility.yul\":14648:14668   */\n      tag_326\n      jump\t// in\n    tag_576:\n        /* \"#utility.yul\":14643:14668   */\n      swap3\n      pop\n        /* \"#utility.yul\":14691:14692   */\n      dup3\n        /* \"#utility.yul\":14688:14689   */\n      dup3\n        /* \"#utility.yul\":14684:14693   */\n      add\n        /* \"#utility.yul\":14677:14693   */\n      swap1\n      pop\n        /* \"#utility.yul\":14712:14715   */\n      dup1\n        /* \"#utility.yul\":14709:14710   */\n      dup3\n        /* \"#utility.yul\":14706:14716   */\n      gt\n        /* \"#utility.yul\":14703:14739   */\n      iszero\n      tag_577\n      jumpi\n        /* \"#utility.yul\":14719:14737   */\n      tag_578\n      tag_363\n      jump\t// in\n    tag_578:\n        /* \"#utility.yul\":14703:14739   */\n    tag_577:\n        /* \"#utility.yul\":14555:14746   */\n      swap3\n      swap2\n      pop\n      pop\n      jump\t// out\n        /* \"#utility.yul\":14752:14925   */\n    tag_364:\n        /* \"#utility.yul\":14892:14917   */\n      0x4e6f20686179206e696e67756e20706572736f6e616a65000000000000000000\n        /* \"#utility.yul\":14888:14889   */\n      0x00\n        /* \"#utility.yul\":14880:14886   */\n      dup3\n        /* \"#utility.yul\":14876:14890   */\n      add\n        /* \"#utility.yul\":14869:14918   */\n      mstore\n        /* \"#utility.yul\":14752:14925   */\n      pop\n      jump\t// out\n        /* \"#utility.yul\":14931:15297   */\n    tag_365:\n        /* \"#utility.yul\":15073:15076   */\n      0x00\n        /* \"#utility.yul\":15094:15161   */\n      tag_581\n        /* \"#utility.yul\":15158:15160   */\n      0x17\n        /* \"#utility.yul\":15153:15156   */\n      dup4\n        /* \"#utility.yul\":15094:15161   */\n      tag_339\n      jump\t// in\n    tag_581:\n        /* \"#utility.yul\":15087:15161   */\n      swap2\n      pop\n        /* \"#utility.yul\":15170:15263   */\n      tag_582\n        /* \"#utility.yul\":15259:15262   */\n      dup3\n        /* \"#utility.yul\":15170:15263   */\n      tag_364\n      jump\t// in\n    tag_582:\n        /* \"#utility.yul\":15288:15290   */\n      0x20\n        /* \"#utility.yul\":15283:15286   */\n      dup3\n        /* \"#utility.yul\":15279:15291   */\n      add\n        /* \"#utility.yul\":15272:15291   */\n      swap1\n      pop\n        /* \"#utility.yul\":14931:15297   */\n      swap2\n      swap1\n      pop\n      jump\t// out\n        /* \"#utility.yul\":15303:15722   */\n    tag_94:\n        /* \"#utility.yul\":15469:15473   */\n      0x00\n        /* \"#utility.yul\":15507:15509   */\n      0x20\n        /* \"#utility.yul\":15496:15505   */\n      dup3\n        /* \"#utility.yul\":15492:15510   */\n      add\n        /* \"#utility.yul\":15484:15510   */\n      swap1\n      pop\n        /* \"#utility.yul\":15556:15565   */\n      dup2\n        /* \"#utility.yul\":15550:15554   */\n      dup2\n        /* \"#utility.yul\":15546:15566   */\n      sub\n        /* \"#utility.yul\":15542:15543   */\n      0x00\n        /* \"#utility.yul\":15531:15540   */\n      dup4\n        /* \"#utility.yul\":15527:15544   */\n      add\n        /* \"#utility.yul\":15520:15567   */\n      mstore\n        /* \"#utility.yul\":15584:15715   */\n      tag_584\n        /* \"#utility.yul\":15710:15714   */\n      dup2\n        /* \"#utility.yul\":15584:15715   */\n      tag_365\n      jump\t// in\n    tag_584:\n        /* \"#utility.yul\":15576:15715   */\n      swap1\n      pop\n        /* \"#utility.yul\":15303:15722   */\n      swap2\n      swap1\n      pop\n      jump\t// out\n        /* \"#utility.yul\":15728:15952   */\n    tag_366:\n        /* \"#utility.yul\":15868:15902   */\n      0x456d69736f722064656265207365722070726f706965746172696f2064656c20\n        /* \"#utility.yul\":15864:15865   */\n      0x00\n        /* \"#utility.yul\":15856:15862   */\n      dup3\n        /* \"#utility.yul\":15852:15866   */\n      add\n        /* \"#utility.yul\":15845:15903   */\n      mstore\n        /* \"#utility.yul\":15937:15944   */\n      0x746f6b656e000000000000000000000000000000000000000000000000000000\n        /* \"#utility.yul\":15932:15934   */\n      0x20\n        /* \"#utility.yul\":15924:15930   */\n      dup3\n        /* \"#utility.yul\":15920:15935   */\n      add\n        /* \"#utility.yul\":15913:15945   */\n      mstore\n        /* \"#utility.yul\":15728:15952   */\n      pop\n      jump\t// out\n        /* \"#utility.yul\":15958:16324   */\n    tag_367:\n        /* \"#utility.yul\":16100:16103   */\n      0x00\n        /* \"#utility.yul\":16121:16188   */\n      tag_587\n        /* \"#utility.yul\":16185:16187   */\n      0x25\n        /* \"#utility.yul\":16180:16183   */\n      dup4\n        /* \"#utility.yul\":16121:16188   */\n      tag_339\n      jump\t// in\n    tag_587:\n        /* \"#utility.yul\":16114:16188   */\n      swap2\n      pop\n        /* \"#utility.yul\":16197:16290   */\n      tag_588\n        /* \"#utility.yul\":16286:16289   */\n      dup3\n        /* \"#utility.yul\":16197:16290   */\n      tag_366\n      jump\t// in\n    tag_588:\n        /* \"#utility.yul\":16315:16317   */\n      0x40\n        /* \"#utility.yul\":16310:16313   */\n      dup3\n        /* \"#utility.yul\":16306:16318   */\n      add\n        /* \"#utility.yul\":16299:16318   */\n      swap1\n      pop\n        /* \"#utility.yul\":15958:16324   */\n      swap2\n      swap1\n      pop\n      jump\t// out\n        /* \"#utility.yul\":16330:16749   */\n    tag_98:\n        /* \"#utility.yul\":16496:16500   */\n      0x00\n        /* \"#utility.yul\":16534:16536   */\n      0x20\n        /* \"#utility.yul\":16523:16532   */\n      dup3\n        /* \"#utility.yul\":16519:16537   */\n      add\n        /* \"#utility.yul\":16511:16537   */\n      swap1\n      pop\n        /* \"#utility.yul\":16583:16592   */\n      dup2\n        /* \"#utility.yul\":16577:16581   */\n      dup2\n        /* \"#utility.yul\":16573:16593   */\n      sub\n        /* \"#utility.yul\":16569:16570   */\n      0x00\n        /* \"#utility.yul\":16558:16567   */\n      dup4\n        /* \"#utility.yul\":16554:16571   */\n      add\n        /* \"#utility.yul\":16547:16594   */\n      mstore\n        /* \"#utility.yul\":16611:16742   */\n      tag_590\n        /* \"#utility.yul\":16737:16741   */\n      dup2\n        /* \"#utility.yul\":16611:16742   */\n      tag_367\n      jump\t// in\n    tag_590:\n        /* \"#utility.yul\":16603:16742   */\n      swap1\n      pop\n        /* \"#utility.yul\":16330:16749   */\n      swap2\n      swap1\n      pop\n      jump\t// out\n        /* \"#utility.yul\":16755:16920   */\n    tag_368:\n        /* \"#utility.yul\":16895:16912   */\n      0x546f6b656e206e6f206578697374650000000000000000000000000000000000\n        /* \"#utility.yul\":16891:16892   */\n      0x00\n        /* \"#utility.yul\":16883:16889   */\n      dup3\n        /* \"#utility.yul\":16879:16893   */\n      add\n        /* \"#utility.yul\":16872:16913   */\n      mstore\n        /* \"#utility.yul\":16755:16920   */\n      pop\n      jump\t// out\n        /* \"#utility.yul\":16926:17292   */\n    tag_369:\n        /* \"#utility.yul\":17068:17071   */\n      0x00\n        /* \"#utility.yul\":17089:17156   */\n      tag_593\n        /* \"#utility.yul\":17153:17155   */\n      0x0f\n        /* \"#utility.yul\":17148:17151   */\n      dup4\n        /* \"#utility.yul\":17089:17156   */\n      tag_339\n      jump\t// in\n    tag_593:\n        /* \"#utility.yul\":17082:17156   */\n      swap2\n      pop\n        /* \"#utility.yul\":17165:17258   */\n      tag_594\n        /* \"#utility.yul\":17254:17257   */\n      dup3\n        /* \"#utility.yul\":17165:17258   */\n      tag_368\n      jump\t// in\n    tag_594:\n        /* \"#utility.yul\":17283:17285   */\n      0x20\n        /* \"#utility.yul\":17278:17281   */\n      dup3\n        /* \"#utility.yul\":17274:17286   */\n      add\n        /* \"#utility.yul\":17267:17286   */\n      swap1\n      pop\n        /* \"#utility.yul\":16926:17292   */\n      swap2\n      swap1\n      pop\n      jump\t// out\n        /* \"#utility.yul\":17298:17717   */\n    tag_101:\n        /* \"#utility.yul\":17464:17468   */\n      0x00\n        /* \"#utility.yul\":17502:17504   */\n      0x20\n        /* \"#utility.yul\":17491:17500   */\n      dup3\n        /* \"#utility.yul\":17487:17505   */\n      add\n        /* \"#utility.yul\":17479:17505   */\n      swap1\n      pop\n        /* \"#utility.yul\":17551:17560   */\n      dup2\n        /* \"#utility.yul\":17545:17549   */\n      dup2\n        /* \"#utility.yul\":17541:17561   */\n      sub\n        /* \"#utility.yul\":17537:17538   */\n      0x00\n        /* \"#utility.yul\":17526:17535   */\n      dup4\n        /* \"#utility.yul\":17522:17539   */\n      add\n        /* \"#utility.yul\":17515:17562   */\n      mstore\n        /* \"#utility.yul\":17579:17710   */\n      tag_596\n        /* \"#utility.yul\":17705:17709   */\n      dup2\n        /* \"#utility.yul\":17579:17710   */\n      tag_369\n      jump\t// in\n    tag_596:\n        /* \"#utility.yul\":17571:17710   */\n      swap1\n      pop\n        /* \"#utility.yul\":17298:17717   */\n      swap2\n      swap1\n      pop\n      jump\t// out\n        /* \"#utility.yul\":17723:17972   */\n    tag_370:\n        /* \"#utility.yul\":17863:17897   */\n      0x446562657320656e7669617220616c206d656e6f73206c612073756d61206465\n        /* \"#utility.yul\":17859:17860   */\n      0x00\n        /* \"#utility.yul\":17851:17857   */\n      dup3\n        /* \"#utility.yul\":17847:17861   */\n      add\n        /* \"#utility.yul\":17840:17898   */\n      mstore\n        /* \"#utility.yul\":17932:17964   */\n      0x206c617320706f74656e6369617320646520667565676f20656e205765690000\n        /* \"#utility.yul\":17927:17929   */\n      0x20\n        /* \"#utility.yul\":17919:17925   */\n      dup3\n        /* \"#utility.yul\":17915:17930   */\n      add\n        /* \"#utility.yul\":17908:17965   */\n      mstore\n        /* \"#utility.yul\":17723:17972   */\n      pop\n      jump\t// out\n        /* \"#utility.yul\":17978:18344   */\n    tag_371:\n        /* \"#utility.yul\":18120:18123   */\n      0x00\n        /* \"#utility.yul\":18141:18208   */\n      tag_599\n        /* \"#utility.yul\":18205:18207   */\n      0x3e\n        /* \"#utility.yul\":18200:18203   */\n      dup4\n        /* \"#utility.yul\":18141:18208   */\n      tag_339\n      jump\t// in\n    tag_599:\n        /* \"#utility.yul\":18134:18208   */\n      swap2\n      pop\n        /* \"#utility.yul\":18217:18310   */\n      tag_600\n        /* \"#utility.yul\":18306:18309   */\n      dup3\n        /* \"#utility.yul\":18217:18310   */\n      tag_370\n      jump\t// in\n    tag_600:\n        /* \"#utility.yul\":18335:18337   */\n      0x40\n        /* \"#utility.yul\":18330:18333   */\n      dup3\n        /* \"#utility.yul\":18326:18338   */\n      add\n        /* \"#utility.yul\":18319:18338   */\n      swap1\n      pop\n        /* \"#utility.yul\":17978:18344   */\n      swap2\n      swap1\n      pop\n      jump\t// out\n        /* \"#utility.yul\":18350:18769   */\n    tag_108:\n        /* \"#utility.yul\":18516:18520   */\n      0x00\n        /* \"#utility.yul\":18554:18556   */\n      0x20\n        /* \"#utility.yul\":18543:18552   */\n      dup3\n        /* \"#utility.yul\":18539:18557   */\n      add\n        /* \"#utility.yul\":18531:18557   */\n      swap1\n      pop\n        /* \"#utility.yul\":18603:18612   */\n      dup2\n        /* \"#utility.yul\":18597:18601   */\n      dup2\n        /* \"#utility.yul\":18593:18613   */\n      sub\n        /* \"#utility.yul\":18589:18590   */\n      0x00\n        /* \"#utility.yul\":18578:18587   */\n      dup4\n        /* \"#utility.yul\":18574:18591   */\n      add\n        /* \"#utility.yul\":18567:18614   */\n      mstore\n        /* \"#utility.yul\":18631:18762   */\n      tag_602\n        /* \"#utility.yul\":18757:18761   */\n      dup2\n        /* \"#utility.yul\":18631:18762   */\n      tag_371\n      jump\t// in\n    tag_602:\n        /* \"#utility.yul\":18623:18762   */\n      swap1\n      pop\n        /* \"#utility.yul\":18350:18769   */\n      swap2\n      swap1\n      pop\n      jump\t// out\n        /* \"#utility.yul\":18775:19012   */\n    tag_372:\n        /* \"#utility.yul\":18915:18949   */\n      0x4e6f2070756564657320637265617220756e2061726d61206120756e20706572\n        /* \"#utility.yul\":18911:18912   */\n      0x00\n        /* \"#utility.yul\":18903:18909   */\n      dup3\n        /* \"#utility.yul\":18899:18913   */\n      add\n        /* \"#utility.yul\":18892:18950   */\n      mstore\n        /* \"#utility.yul\":18984:19004   */\n      0x736f6e616a6520696e6578697374656e74650000000000000000000000000000\n        /* \"#utility.yul\":18979:18981   */\n      0x20\n        /* \"#utility.yul\":18971:18977   */\n      dup3\n        /* \"#utility.yul\":18967:18982   */\n      add\n        /* \"#utility.yul\":18960:19005   */\n      mstore\n        /* \"#utility.yul\":18775:19012   */\n      pop\n      jump\t// out\n        /* \"#utility.yul\":19018:19384   */\n    tag_373:\n        /* \"#utility.yul\":19160:19163   */\n      0x00\n        /* \"#utility.yul\":19181:19248   */\n      tag_605\n        /* \"#utility.yul\":19245:19247   */\n      0x32\n        /* \"#utility.yul\":19240:19243   */\n      dup4\n        /* \"#utility.yul\":19181:19248   */\n      tag_339\n      jump\t// in\n    tag_605:\n        /* \"#utility.yul\":19174:19248   */\n      swap2\n      pop\n        /* \"#utility.yul\":19257:19350   */\n      tag_606\n        /* \"#utility.yul\":19346:19349   */\n      dup3\n        /* \"#utility.yul\":19257:19350   */\n      tag_372\n      jump\t// in\n    tag_606:\n        /* \"#utility.yul\":19375:19377   */\n      0x40\n        /* \"#utility.yul\":19370:19373   */\n      dup3\n        /* \"#utility.yul\":19366:19378   */\n      add\n        /* \"#utility.yul\":19359:19378   */\n      swap1\n      pop\n        /* \"#utility.yul\":19018:19384   */\n      swap2\n      swap1\n      pop\n      jump\t// out\n        /* \"#utility.yul\":19390:19809   */\n    tag_112:\n        /* \"#utility.yul\":19556:19560   */\n      0x00\n        /* \"#utility.yul\":19594:19596   */\n      0x20\n        /* \"#utility.yul\":19583:19592   */\n      dup3\n        /* \"#utility.yul\":19579:19597   */\n      add\n        /* \"#utility.yul\":19571:19597   */\n      swap1\n      pop\n        /* \"#utility.yul\":19643:19652   */\n      dup2\n        /* \"#utility.yul\":19637:19641   */\n      dup2\n        /* \"#utility.yul\":19633:19653   */\n      sub\n        /* \"#utility.yul\":19629:19630   */\n      0x00\n        /* \"#utility.yul\":19618:19627   */\n      dup4\n        /* \"#utility.yul\":19614:19631   */\n      add\n        /* \"#utility.yul\":19607:19654   */\n      mstore\n        /* \"#utility.yul\":19671:19802   */\n      tag_608\n        /* \"#utility.yul\":19797:19801   */\n      dup2\n        /* \"#utility.yul\":19671:19802   */\n      tag_373\n      jump\t// in\n    tag_608:\n        /* \"#utility.yul\":19663:19802   */\n      swap1\n      pop\n        /* \"#utility.yul\":19390:19809   */\n      swap2\n      swap1\n      pop\n      jump\t// out\n        /* \"#utility.yul\":19815:19995   */\n    tag_374:\n        /* \"#utility.yul\":19863:19940   */\n      0x4e487b7100000000000000000000000000000000000000000000000000000000\n        /* \"#utility.yul\":19860:19861   */\n      0x00\n        /* \"#utility.yul\":19853:19941   */\n      mstore\n        /* \"#utility.yul\":19960:19964   */\n      0x22\n        /* \"#utility.yul\":19957:19958   */\n      0x04\n        /* \"#utility.yul\":19950:19965   */\n      mstore\n        /* \"#utility.yul\":19984:19988   */\n      0x24\n        /* \"#utility.yul\":19981:19982   */\n      0x00\n        /* \"#utility.yul\":19974:19989   */\n      revert\n        /* \"#utility.yul\":20001:20321   */\n    tag_118:\n        /* \"#utility.yul\":20045:20051   */\n      0x00\n        /* \"#utility.yul\":20082:20083   */\n      0x02\n        /* \"#utility.yul\":20076:20080   */\n      dup3\n        /* \"#utility.yul\":20072:20084   */\n      div\n        /* \"#utility.yul\":20062:20084   */\n      swap1\n      pop\n        /* \"#utility.yul\":20129:20130   */\n      0x01\n        /* \"#utility.yul\":20123:20127   */\n      dup3\n        /* \"#utility.yul\":20119:20131   */\n      and\n        /* \"#utility.yul\":20150:20168   */\n      dup1\n        /* \"#utility.yul\":20140:20221   */\n      tag_611\n      jumpi\n        /* \"#utility.yul\":20206:20210   */\n      0x7f\n        /* \"#utility.yul\":20198:20204   */\n      dup3\n        /* \"#utility.yul\":20194:20211   */\n      and\n        /* \"#utility.yul\":20184:20211   */\n      swap2\n      pop\n        /* \"#utility.yul\":20140:20221   */\n    tag_611:\n        /* \"#utility.yul\":20268:20270   */\n      0x20\n        /* \"#utility.yul\":20260:20266   */\n      dup3\n        /* \"#utility.yul\":20257:20271   */\n      lt\n        /* \"#utility.yul\":20237:20255   */\n      dup2\n        /* \"#utility.yul\":20234:20272   */\n      sub\n        /* \"#utility.yul\":20231:20315   */\n      tag_612\n      jumpi\n        /* \"#utility.yul\":20287:20305   */\n      tag_613\n      tag_374\n      jump\t// in\n    tag_613:\n        /* \"#utility.yul\":20231:20315   */\n    tag_612:\n        /* \"#utility.yul\":20052:20321   */\n      pop\n        /* \"#utility.yul\":20001:20321   */\n      swap2\n      swap1\n      pop\n      jump\t// out\n        /* \"#utility.yul\":20327:20558   */\n    tag_375:\n        /* \"#utility.yul\":20467:20501   */\n      0x456c2061726d612071756520657374617320696e74656e74616e646f20637265\n        /* \"#utility.yul\":20463:20464   */\n      0x00\n        /* \"#utility.yul\":20455:20461   */\n      dup3\n        /* \"#utility.yul\":20451:20465   */\n      add\n        /* \"#utility.yul\":20444:20502   */\n      mstore\n        /* \"#utility.yul\":20536:20550   */\n      0x6172207961206578697374650000000000000000000000000000000000000000\n        /* \"#utility.yul\":20531:20533   */\n      0x20\n        /* \"#utility.yul\":20523:20529   */\n      dup3\n        /* \"#utility.yul\":20519:20534   */\n      add\n        /* \"#utility.yul\":20512:20551   */\n      mstore\n        /* \"#utility.yul\":20327:20558   */\n      pop\n      jump\t// out\n        /* \"#utility.yul\":20564:20930   */\n    tag_376:\n        /* \"#utility.yul\":20706:20709   */\n      0x00\n        /* \"#utility.yul\":20727:20794   */\n      tag_616\n        /* \"#utility.yul\":20791:20793   */\n      0x2c\n        /* \"#utility.yul\":20786:20789   */\n      dup4\n        /* \"#utility.yul\":20727:20794   */\n      tag_339\n      jump\t// in\n    tag_616:\n        /* \"#utility.yul\":20720:20794   */\n      swap2\n      pop\n        /* \"#utility.yul\":20803:20896   */\n      tag_617\n        /* \"#utility.yul\":20892:20895   */\n      dup3\n        /* \"#utility.yul\":20803:20896   */\n      tag_375\n      jump\t// in\n    tag_617:\n        /* \"#utility.yul\":20921:20923   */\n      0x40\n        /* \"#utility.yul\":20916:20919   */\n      dup3\n        /* \"#utility.yul\":20912:20924   */\n      add\n        /* \"#utility.yul\":20905:20924   */\n      swap1\n      pop\n        /* \"#utility.yul\":20564:20930   */\n      swap2\n      swap1\n      pop\n      jump\t// out\n        /* \"#utility.yul\":20936:21355   */\n    tag_126:\n        /* \"#utility.yul\":21102:21106   */\n      0x00\n        /* \"#utility.yul\":21140:21142   */\n      0x20\n        /* \"#utility.yul\":21129:21138   */\n      dup3\n        /* \"#utility.yul\":21125:21143   */\n      add\n        /* \"#utility.yul\":21117:21143   */\n      swap1\n      pop\n        /* \"#utility.yul\":21189:21198   */\n      dup2\n        /* \"#utility.yul\":21183:21187   */\n      dup2\n        /* \"#utility.yul\":21179:21199   */\n      sub\n        /* \"#utility.yul\":21175:21176   */\n      0x00\n        /* \"#utility.yul\":21164:21173   */\n      dup4\n        /* \"#utility.yul\":21160:21177   */\n      add\n        /* \"#utility.yul\":21153:21200   */\n      mstore\n        /* \"#utility.yul\":21217:21348   */\n      tag_619\n        /* \"#utility.yul\":21343:21347   */\n      dup2\n        /* \"#utility.yul\":21217:21348   */\n      tag_376\n      jump\t// in\n    tag_619:\n        /* \"#utility.yul\":21209:21348   */\n      swap1\n      pop\n        /* \"#utility.yul\":20936:21355   */\n      swap2\n      swap1\n      pop\n      jump\t// out\n        /* \"#utility.yul\":21361:21607   */\n    tag_377:\n        /* \"#utility.yul\":21501:21535   */\n      0x536f6c6f20656c2070726f706965746172696f2079206170726f6261646f2070\n        /* \"#utility.yul\":21497:21498   */\n      0x00\n        /* \"#utility.yul\":21489:21495   */\n      dup3\n        /* \"#utility.yul\":21485:21499   */\n      add\n        /* \"#utility.yul\":21478:21536   */\n      mstore\n        /* \"#utility.yul\":21570:21599   */\n      0x756564656e20656a65637574617220657374612066756e63696f6e0000000000\n        /* \"#utility.yul\":21565:21567   */\n      0x20\n        /* \"#utility.yul\":21557:21563   */\n      dup3\n        /* \"#utility.yul\":21553:21568   */\n      add\n        /* \"#utility.yul\":21546:21600   */\n      mstore\n        /* \"#utility.yul\":21361:21607   */\n      pop\n      jump\t// out\n        /* \"#utility.yul\":21613:21979   */\n    tag_378:\n        /* \"#utility.yul\":21755:21758   */\n      0x00\n        /* \"#utility.yul\":21776:21843   */\n      tag_622\n        /* \"#utility.yul\":21840:21842   */\n      0x3b\n        /* \"#utility.yul\":21835:21838   */\n      dup4\n        /* \"#utility.yul\":21776:21843   */\n      tag_339\n      jump\t// in\n    tag_622:\n        /* \"#utility.yul\":21769:21843   */\n      swap2\n      pop\n        /* \"#utility.yul\":21852:21945   */\n      tag_623\n        /* \"#utility.yul\":21941:21944   */\n      dup3\n        /* \"#utility.yul\":21852:21945   */\n      tag_377\n      jump\t// in\n    tag_623:\n        /* \"#utility.yul\":21970:21972   */\n      0x40\n        /* \"#utility.yul\":21965:21968   */\n      dup3\n        /* \"#utility.yul\":21961:21973   */\n      add\n        /* \"#utility.yul\":21954:21973   */\n      swap1\n      pop\n        /* \"#utility.yul\":21613:21979   */\n      swap2\n      swap1\n      pop\n      jump\t// out\n        /* \"#utility.yul\":21985:22404   */\n    tag_131:\n        /* \"#utility.yul\":22151:22155   */\n      0x00\n        /* \"#utility.yul\":22189:22191   */\n      0x20\n        /* \"#utility.yul\":22178:22187   */\n      dup3\n        /* \"#utility.yul\":22174:22192   */\n      add\n        /* \"#utility.yul\":22166:22192   */\n      swap1\n      pop\n        /* \"#utility.yul\":22238:22247   */\n      dup2\n        /* \"#utility.yul\":22232:22236   */\n      dup2\n        /* \"#utility.yul\":22228:22248   */\n      sub\n        /* \"#utility.yul\":22224:22225   */\n      0x00\n        /* \"#utility.yul\":22213:22222   */\n      dup4\n        /* \"#utility.yul\":22209:22226   */\n      add\n        /* \"#utility.yul\":22202:22249   */\n      mstore\n        /* \"#utility.yul\":22266:22397   */\n      tag_625\n        /* \"#utility.yul\":22392:22396   */\n      dup2\n        /* \"#utility.yul\":22266:22397   */\n      tag_378\n      jump\t// in\n    tag_625:\n        /* \"#utility.yul\":22258:22397   */\n      swap1\n      pop\n        /* \"#utility.yul\":21985:22404   */\n      swap2\n      swap1\n      pop\n      jump\t// out\n        /* \"#utility.yul\":22410:22512   */\n    tag_379:\n        /* \"#utility.yul\":22452:22460   */\n      0x00\n        /* \"#utility.yul\":22499:22504   */\n      dup2\n        /* \"#utility.yul\":22496:22497   */\n      0x01\n        /* \"#utility.yul\":22492:22505   */\n      shr\n        /* \"#utility.yul\":22471:22505   */\n      swap1\n      pop\n        /* \"#utility.yul\":22410:22512   */\n      swap2\n      swap1\n      pop\n      jump\t// out\n        /* \"#utility.yul\":22518:23366   */\n    tag_380:\n        /* \"#utility.yul\":22579:22584   */\n      0x00\n        /* \"#utility.yul\":22586:22590   */\n      dup1\n        /* \"#utility.yul\":22610:22616   */\n      dup3\n        /* \"#utility.yul\":22601:22616   */\n      swap2\n      pop\n        /* \"#utility.yul\":22634:22639   */\n      dup4\n        /* \"#utility.yul\":22625:22639   */\n      swap1\n      pop\n        /* \"#utility.yul\":22648:23360   */\n    tag_628:\n        /* \"#utility.yul\":22669:22670   */\n      0x01\n        /* \"#utility.yul\":22659:22667   */\n      dup6\n        /* \"#utility.yul\":22656:22671   */\n      gt\n        /* \"#utility.yul\":22648:23360   */\n      iszero\n      tag_630\n      jumpi\n        /* \"#utility.yul\":22764:22768   */\n      dup1\n        /* \"#utility.yul\":22759:22762   */\n      dup7\n        /* \"#utility.yul\":22755:22769   */\n      div\n        /* \"#utility.yul\":22749:22753   */\n      dup2\n        /* \"#utility.yul\":22746:22770   */\n      gt\n        /* \"#utility.yul\":22743:22793   */\n      iszero\n      tag_631\n      jumpi\n        /* \"#utility.yul\":22773:22791   */\n      tag_632\n      tag_363\n      jump\t// in\n    tag_632:\n        /* \"#utility.yul\":22743:22793   */\n    tag_631:\n        /* \"#utility.yul\":22823:22824   */\n      0x01\n        /* \"#utility.yul\":22813:22821   */\n      dup6\n        /* \"#utility.yul\":22809:22825   */\n      and\n        /* \"#utility.yul\":22806:23257   */\n      iszero\n      tag_633\n      jumpi\n        /* \"#utility.yul\":23238:23242   */\n      dup1\n        /* \"#utility.yul\":23231:23236   */\n      dup3\n        /* \"#utility.yul\":23227:23243   */\n      mul\n        /* \"#utility.yul\":23218:23243   */\n      swap2\n      pop\n        /* \"#utility.yul\":22806:23257   */\n    tag_633:\n        /* \"#utility.yul\":23288:23292   */\n      dup1\n        /* \"#utility.yul\":23282:23286   */\n      dup2\n        /* \"#utility.yul\":23278:23293   */\n      mul\n        /* \"#utility.yul\":23270:23293   */\n      swap1\n      pop\n        /* \"#utility.yul\":23318:23350   */\n      tag_634\n        /* \"#utility.yul\":23341:23349   */\n      dup6\n        /* \"#utility.yul\":23318:23350   */\n      tag_379\n      jump\t// in\n    tag_634:\n        /* \"#utility.yul\":23306:23350   */\n      swap5\n      pop\n        /* \"#utility.yul\":22648:23360   */\n      jump(tag_628)\n    tag_630:\n        /* \"#utility.yul\":22518:23366   */\n      swap5\n      pop\n      swap5\n      swap3\n      pop\n      pop\n      pop\n      jump\t// out\n        /* \"#utility.yul\":23372:24445   */\n    tag_381:\n        /* \"#utility.yul\":23426:23431   */\n      0x00\n        /* \"#utility.yul\":23617:23625   */\n      dup3\n        /* \"#utility.yul\":23607:23647   */\n      tag_636\n      jumpi\n        /* \"#utility.yul\":23638:23639   */\n      0x01\n        /* \"#utility.yul\":23629:23639   */\n      swap1\n      pop\n        /* \"#utility.yul\":23640:23645   */\n      jump(tag_635)\n        /* \"#utility.yul\":23607:23647   */\n    tag_636:\n        /* \"#utility.yul\":23666:23670   */\n      dup2\n        /* \"#utility.yul\":23656:23692   */\n      tag_637\n      jumpi\n        /* \"#utility.yul\":23683:23684   */\n      0x00\n        /* \"#utility.yul\":23674:23684   */\n      swap1\n      pop\n        /* \"#utility.yul\":23685:23690   */\n      jump(tag_635)\n        /* \"#utility.yul\":23656:23692   */\n    tag_637:\n        /* \"#utility.yul\":23752:23756   */\n      dup2\n        /* \"#utility.yul\":23800:23801   */\n      0x01\n        /* \"#utility.yul\":23795:23822   */\n      dup2\n      eq\n      tag_639\n      jumpi\n        /* \"#utility.yul\":23836:23837   */\n      0x02\n        /* \"#utility.yul\":23831:24022   */\n      dup2\n      eq\n      tag_640\n      jumpi\n        /* \"#utility.yul\":23745:24022   */\n      jump(tag_638)\n        /* \"#utility.yul\":23795:23822   */\n    tag_639:\n        /* \"#utility.yul\":23813:23814   */\n      0x01\n        /* \"#utility.yul\":23804:23814   */\n      swap2\n      pop\n        /* \"#utility.yul\":23815:23820   */\n      pop\n      jump(tag_635)\n        /* \"#utility.yul\":23831:24022   */\n    tag_640:\n        /* \"#utility.yul\":23876:23879   */\n      0xff\n        /* \"#utility.yul\":23866:23874   */\n      dup5\n        /* \"#utility.yul\":23863:23880   */\n      gt\n        /* \"#utility.yul\":23860:23903   */\n      iszero\n      tag_641\n      jumpi\n        /* \"#utility.yul\":23883:23901   */\n      tag_642\n      tag_363\n      jump\t// in\n    tag_642:\n        /* \"#utility.yul\":23860:23903   */\n    tag_641:\n        /* \"#utility.yul\":23932:23940   */\n      dup4\n        /* \"#utility.yul\":23929:23930   */\n      0x02\n        /* \"#utility.yul\":23925:23941   */\n      exp\n        /* \"#utility.yul\":23916:23941   */\n      swap2\n      pop\n        /* \"#utility.yul\":23967:23970   */\n      dup5\n        /* \"#utility.yul\":23960:23965   */\n      dup3\n        /* \"#utility.yul\":23957:23971   */\n      gt\n        /* \"#utility.yul\":23954:23994   */\n      iszero\n      tag_643\n      jumpi\n        /* \"#utility.yul\":23974:23992   */\n      tag_644\n      tag_363\n      jump\t// in\n    tag_644:\n        /* \"#utility.yul\":23954:23994   */\n    tag_643:\n        /* \"#utility.yul\":24007:24012   */\n      pop\n      jump(tag_635)\n        /* \"#utility.yul\":23745:24022   */\n    tag_638:\n      pop\n        /* \"#utility.yul\":24131:24133   */\n      0x20\n        /* \"#utility.yul\":24121:24129   */\n      dup4\n        /* \"#utility.yul\":24118:24134   */\n      lt\n        /* \"#utility.yul\":24112:24115   */\n      0x0133\n        /* \"#utility.yul\":24106:24110   */\n      dup4\n        /* \"#utility.yul\":24103:24116   */\n      lt\n        /* \"#utility.yul\":24099:24135   */\n      and\n        /* \"#utility.yul\":24081:24083   */\n      0x4e\n        /* \"#utility.yul\":24071:24079   */\n      dup5\n        /* \"#utility.yul\":24068:24084   */\n      lt\n        /* \"#utility.yul\":24063:24065   */\n      0x0b\n        /* \"#utility.yul\":24057:24061   */\n      dup5\n        /* \"#utility.yul\":24054:24066   */\n      lt\n        /* \"#utility.yul\":24050:24085   */\n      and\n        /* \"#utility.yul\":24034:24145   */\n      or\n        /* \"#utility.yul\":24031:24277   */\n      iszero\n      tag_645\n      jumpi\n        /* \"#utility.yul\":24187:24195   */\n      dup3\n        /* \"#utility.yul\":24181:24185   */\n      dup3\n        /* \"#utility.yul\":24177:24196   */\n      exp\n        /* \"#utility.yul\":24168:24196   */\n      swap1\n      pop\n        /* \"#utility.yul\":24222:24225   */\n      dup4\n        /* \"#utility.yul\":24215:24220   */\n      dup2\n        /* \"#utility.yul\":24212:24226   */\n      gt\n        /* \"#utility.yul\":24209:24249   */\n      iszero\n      tag_646\n      jumpi\n        /* \"#utility.yul\":24229:24247   */\n      tag_647\n      tag_363\n      jump\t// in\n    tag_647:\n        /* \"#utility.yul\":24209:24249   */\n    tag_646:\n        /* \"#utility.yul\":24262:24267   */\n      jump(tag_635)\n        /* \"#utility.yul\":24031:24277   */\n    tag_645:\n        /* \"#utility.yul\":24302:24344   */\n      tag_648\n        /* \"#utility.yul\":24340:24343   */\n      dup5\n        /* \"#utility.yul\":24330:24338   */\n      dup5\n        /* \"#utility.yul\":24324:24328   */\n      dup5\n        /* \"#utility.yul\":24321:24322   */\n      0x01\n        /* \"#utility.yul\":24302:24344   */\n      tag_380\n      jump\t// in\n    tag_648:\n        /* \"#utility.yul\":24287:24344   */\n      swap3\n      pop\n      swap1\n      pop\n        /* \"#utility.yul\":24376:24380   */\n      dup2\n        /* \"#utility.yul\":24371:24374   */\n      dup5\n        /* \"#utility.yul\":24367:24381   */\n      div\n        /* \"#utility.yul\":24360:24365   */\n      dup2\n        /* \"#utility.yul\":24357:24382   */\n      gt\n        /* \"#utility.yul\":24354:24405   */\n      iszero\n      tag_649\n      jumpi\n        /* \"#utility.yul\":24385:24403   */\n      tag_650\n      tag_363\n      jump\t// in\n    tag_650:\n        /* \"#utility.yul\":24354:24405   */\n    tag_649:\n        /* \"#utility.yul\":24434:24438   */\n      dup2\n        /* \"#utility.yul\":24427:24432   */\n      dup2\n        /* \"#utility.yul\":24423:24439   */\n      mul\n        /* \"#utility.yul\":24414:24439   */\n      swap1\n      pop\n        /* \"#utility.yul\":23372:24445   */\n    tag_635:\n      swap4\n      swap3\n      pop\n      pop\n      pop\n      jump\t// out\n        /* \"#utility.yul\":24451:24736   */\n    tag_133:\n        /* \"#utility.yul\":24511:24516   */\n      0x00\n        /* \"#utility.yul\":24535:24558   */\n      tag_652\n        /* \"#utility.yul\":24553:24557   */\n      dup3\n        /* \"#utility.yul\":24535:24558   */\n      tag_326\n      jump\t// in\n    tag_652:\n        /* \"#utility.yul\":24527:24558   */\n      swap2\n      pop\n        /* \"#utility.yul\":24579:24606   */\n      tag_653\n        /* \"#utility.yul\":24597:24605   */\n      dup4\n        /* \"#utility.yul\":24579:24606   */\n      tag_326\n      jump\t// in\n    tag_653:\n        /* \"#utility.yul\":24567:24606   */\n      swap3\n      pop\n        /* \"#utility.yul\":24625:24729   */\n      tag_654\n        /* \"#utility.yul\":24662:24728   */\n      0xffffffffffffffffffffffffffffffffffffffffffffffffffffffffffffffff\n        /* \"#utility.yul\":24652:24660   */\n      dup5\n        /* \"#utility.yul\":24646:24650   */\n      dup5\n        /* \"#utility.yul\":24625:24729   */\n      tag_381\n      jump\t// in\n    tag_654:\n        /* \"#utility.yul\":24616:24729   */\n      swap1\n      pop\n        /* \"#utility.yul\":24451:24736   */\n      swap3\n      swap2\n      pop\n      pop\n      jump\t// out\n        /* \"#utility.yul\":24742:25152   */\n    tag_135:\n        /* \"#utility.yul\":24782:24789   */\n      0x00\n        /* \"#utility.yul\":24805:24825   */\n      tag_656\n        /* \"#utility.yul\":24823:24824   */\n      dup3\n        /* \"#utility.yul\":24805:24825   */\n      tag_326\n      jump\t// in\n    tag_656:\n        /* \"#utility.yul\":24800:24825   */\n      swap2\n      pop\n        /* \"#utility.yul\":24839:24859   */\n      tag_657\n        /* \"#utility.yul\":24857:24858   */\n      dup4\n        /* \"#utility.yul\":24839:24859   */\n      tag_326\n      jump\t// in\n    tag_657:\n        /* \"#utility.yul\":24834:24859   */\n      swap3\n      pop\n        /* \"#utility.yul\":24894:24895   */\n      dup3\n        /* \"#utility.yul\":24891:24892   */\n      dup3\n        /* \"#utility.yul\":24887:24896   */\n      mul\n        /* \"#utility.yul\":24916:24946   */\n      tag_658\n        /* \"#utility.yul\":24934:24945   */\n      dup2\n        /* \"#utility.yul\":24916:24946   */\n      tag_326\n      jump\t// in\n    tag_658:\n        /* \"#utility.yul\":24905:24946   */\n      swap2\n      pop\n        /* \"#utility.yul\":25095:25096   */\n      dup3\n        /* \"#utility.yul\":25086:25093   */\n      dup3\n        /* \"#utility.yul\":25082:25097   */\n      div\n        /* \"#utility.yul\":25079:25080   */\n      dup5\n        /* \"#utility.yul\":25076:25098   */\n      eq\n        /* \"#utility.yul\":25056:25057   */\n      dup4\n        /* \"#utility.yul\":25049:25058   */\n      iszero\n        /* \"#utility.yul\":25029:25112   */\n      or\n        /* \"#utility.yul\":25006:25145   */\n      tag_659\n      jumpi\n        /* \"#utility.yul\":25125:25143   */\n      tag_660\n      tag_363\n      jump\t// in\n    tag_660:\n        /* \"#utility.yul\":25006:25145   */\n    tag_659:\n        /* \"#utility.yul\":24790:25152   */\n      pop\n        /* \"#utility.yul\":24742:25152   */\n      swap3\n      swap2\n      pop\n      pop\n      jump\t// out\n        /* \"#utility.yul\":25158:25392   */\n    tag_382:\n        /* \"#utility.yul\":25298:25332   */\n      0x4e6f207469656e657320737566696369656e7465732077656973207061726120\n        /* \"#utility.yul\":25294:25295   */\n      0x00\n        /* \"#utility.yul\":25286:25292   */\n      dup3\n        /* \"#utility.yul\":25282:25296   */\n      add\n        /* \"#utility.yul\":25275:25333   */\n      mstore\n        /* \"#utility.yul\":25367:25384   */\n      0x6167726567617220656c2061726d610000000000000000000000000000000000\n        /* \"#utility.yul\":25362:25364   */\n      0x20\n        /* \"#utility.yul\":25354:25360   */\n      dup3\n        /* \"#utility.yul\":25350:25365   */\n      add\n        /* \"#utility.yul\":25343:25385   */\n      mstore\n        /* \"#utility.yul\":25158:25392   */\n      pop\n      jump\t// out\n        /* \"#utility.yul\":25398:25764   */\n    tag_383:\n        /* \"#utility.yul\":25540:25543   */\n      0x00\n        /* \"#utility.yul\":25561:25628   */\n      tag_663\n        /* \"#utility.yul\":25625:25627   */\n      0x2f\n        /* \"#utility.yul\":25620:25623   */\n      dup4\n        /* \"#utility.yul\":25561:25628   */\n      tag_339\n      jump\t// in\n    tag_663:\n        /* \"#utility.yul\":25554:25628   */\n      swap2\n      pop\n        /* \"#utility.yul\":25637:25730   */\n      tag_664\n        /* \"#utility.yul\":25726:25729   */\n      dup3\n        /* \"#utility.yul\":25637:25730   */\n      tag_382\n      jump\t// in\n    tag_664:\n        /* \"#utility.yul\":25755:25757   */\n      0x40\n        /* \"#utility.yul\":25750:25753   */\n      dup3\n        /* \"#utility.yul\":25746:25758   */\n      add\n        /* \"#utility.yul\":25739:25758   */\n      swap1\n      pop\n        /* \"#utility.yul\":25398:25764   */\n      swap2\n      swap1\n      pop\n      jump\t// out\n        /* \"#utility.yul\":25770:26189   */\n    tag_138:\n        /* \"#utility.yul\":25936:25940   */\n      0x00\n        /* \"#utility.yul\":25974:25976   */\n      0x20\n        /* \"#utility.yul\":25963:25972   */\n      dup3\n        /* \"#utility.yul\":25959:25977   */\n      add\n        /* \"#utility.yul\":25951:25977   */\n      swap1\n      pop\n        /* \"#utility.yul\":26023:26032   */\n      dup2\n        /* \"#utility.yul\":26017:26021   */\n      dup2\n        /* \"#utility.yul\":26013:26033   */\n      sub\n        /* \"#utility.yul\":26009:26010   */\n      0x00\n        /* \"#utility.yul\":25998:26007   */\n      dup4\n        /* \"#utility.yul\":25994:26011   */\n      add\n        /* \"#utility.yul\":25987:26034   */\n      mstore\n        /* \"#utility.yul\":26051:26182   */\n      tag_666\n        /* \"#utility.yul\":26177:26181   */\n      dup2\n        /* \"#utility.yul\":26051:26182   */\n      tag_383\n      jump\t// in\n    tag_666:\n        /* \"#utility.yul\":26043:26182   */\n      swap1\n      pop\n        /* \"#utility.yul\":25770:26189   */\n      swap2\n      swap1\n      pop\n      jump\t// out\n        /* \"#utility.yul\":26195:26292   */\n    tag_384:\n        /* \"#utility.yul\":26254:26260   */\n      0x00\n        /* \"#utility.yul\":26282:26285   */\n      dup3\n        /* \"#utility.yul\":26272:26285   */\n      swap1\n      pop\n        /* \"#utility.yul\":26195:26292   */\n      swap3\n      swap2\n      pop\n      pop\n      jump\t// out\n        /* \"#utility.yul\":26298:26478   */\n    tag_251:\n        /* \"#utility.yul\":26346:26423   */\n      0x4e487b7100000000000000000000000000000000000000000000000000000000\n        /* \"#utility.yul\":26343:26344   */\n      0x00\n        /* \"#utility.yul\":26336:26424   */\n      mstore\n        /* \"#utility.yul\":26443:26447   */\n      0x41\n        /* \"#utility.yul\":26440:26441   */\n      0x04\n        /* \"#utility.yul\":26433:26448   */\n      mstore\n        /* \"#utility.yul\":26467:26471   */\n      0x24\n        /* \"#utility.yul\":26464:26465   */\n      0x00\n        /* \"#utility.yul\":26457:26472   */\n      revert\n        /* \"#utility.yul\":26484:26625   */\n    tag_385:\n        /* \"#utility.yul\":26533:26537   */\n      0x00\n        /* \"#utility.yul\":26556:26559   */\n      dup2\n        /* \"#utility.yul\":26548:26559   */\n      swap1\n      pop\n        /* \"#utility.yul\":26579:26582   */\n      dup2\n        /* \"#utility.yul\":26576:26577   */\n      0x00\n        /* \"#utility.yul\":26569:26583   */\n      mstore\n        /* \"#utility.yul\":26613:26617   */\n      0x20\n        /* \"#utility.yul\":26610:26611   */\n      0x00\n        /* \"#utility.yul\":26600:26618   */\n      keccak256\n        /* \"#utility.yul\":26592:26618   */\n      swap1\n      pop\n        /* \"#utility.yul\":26484:26625   */\n      swap2\n      swap1\n      pop\n      jump\t// out\n        /* \"#utility.yul\":26631:26724   */\n    tag_386:\n        /* \"#utility.yul\":26668:26674   */\n      0x00\n        /* \"#utility.yul\":26715:26717   */\n      0x20\n        /* \"#utility.yul\":26710:26712   */\n      0x1f\n        /* \"#utility.yul\":26703:26708   */\n      dup4\n        /* \"#utility.yul\":26699:26713   */\n      add\n        /* \"#utility.yul\":26695:26718   */\n      div\n        /* \"#utility.yul\":26685:26718   */\n      swap1\n      pop\n        /* \"#utility.yul\":26631:26724   */\n      swap2\n      swap1\n      pop\n      jump\t// out\n        /* \"#utility.yul\":26730:26837   */\n    tag_387:\n        /* \"#utility.yul\":26774:26782   */\n      0x00\n        /* \"#utility.yul\":26824:26829   */\n      dup3\n        /* \"#utility.yul\":26818:26822   */\n      dup3\n        /* \"#utility.yul\":26814:26830   */\n      shl\n        /* \"#utility.yul\":26793:26830   */\n      swap1\n      pop\n        /* \"#utility.yul\":26730:26837   */\n      swap3\n      swap2\n      pop\n      pop\n      jump\t// out\n        /* \"#utility.yul\":26843:27236   */\n    tag_388:\n        /* \"#utility.yul\":26912:26918   */\n      0x00\n        /* \"#utility.yul\":26962:26963   */\n      0x08\n        /* \"#utility.yul\":26950:26960   */\n      dup4\n        /* \"#utility.yul\":26946:26964   */\n      mul\n        /* \"#utility.yul\":26985:27082   */\n      tag_673\n        /* \"#utility.yul\":27015:27081   */\n      0xffffffffffffffffffffffffffffffffffffffffffffffffffffffffffffffff\n        /* \"#utility.yul\":27004:27013   */\n      dup3\n        /* \"#utility.yul\":26985:27082   */\n      tag_387\n      jump\t// in\n    tag_673:\n        /* \"#utility.yul\":27103:27142   */\n      tag_674\n        /* \"#utility.yul\":27133:27141   */\n      dup7\n        /* \"#utility.yul\":27122:27131   */\n      dup4\n        /* \"#utility.yul\":27103:27142   */\n      tag_387\n      jump\t// in\n    tag_674:\n        /* \"#utility.yul\":27091:27142   */\n      swap6\n      pop\n        /* \"#utility.yul\":27175:27179   */\n      dup1\n        /* \"#utility.yul\":27171:27180   */\n      not\n        /* \"#utility.yul\":27164:27169   */\n      dup5\n        /* \"#utility.yul\":27160:27181   */\n      and\n        /* \"#utility.yul\":27151:27181   */\n      swap4\n      pop\n        /* \"#utility.yul\":27224:27228   */\n      dup1\n        /* \"#utility.yul\":27214:27222   */\n      dup7\n        /* \"#utility.yul\":27210:27229   */\n      and\n        /* \"#utility.yul\":27203:27208   */\n      dup5\n        /* \"#utility.yul\":27200:27230   */\n      or\n        /* \"#utility.yul\":27190:27230   */\n      swap3\n      pop\n        /* \"#utility.yul\":26919:27236   */\n      pop\n      pop\n        /* \"#utility.yul\":26843:27236   */\n      swap4\n      swap3\n      pop\n      pop\n      pop\n      jump\t// out\n        /* \"#utility.yul\":27242:27302   */\n    tag_389:\n        /* \"#utility.yul\":27270:27273   */\n      0x00\n        /* \"#utility.yul\":27291:27296   */\n      dup2\n        /* \"#utility.yul\":27284:27296   */\n      swap1\n      pop\n        /* \"#utility.yul\":27242:27302   */\n      swap2\n      swap1\n      pop\n      jump\t// out\n        /* \"#utility.yul\":27308:27450   */\n    tag_390:\n        /* \"#utility.yul\":27358:27367   */\n      0x00\n        /* \"#utility.yul\":27391:27444   */\n      tag_677\n        /* \"#utility.yul\":27409:27443   */\n      tag_678\n        /* \"#utility.yul\":27418:27442   */\n      tag_679\n        /* \"#utility.yul\":27436:27441   */\n      dup5\n        /* \"#utility.yul\":27418:27442   */\n      tag_326\n      jump\t// in\n    tag_679:\n        /* \"#utility.yul\":27409:27443   */\n      tag_389\n      jump\t// in\n    tag_678:\n        /* \"#utility.yul\":27391:27444   */\n      tag_326\n      jump\t// in\n    tag_677:\n        /* \"#utility.yul\":27378:27444   */\n      swap1\n      pop\n        /* \"#utility.yul\":27308:27450   */\n      swap2\n      swap1\n      pop\n      jump\t// out\n        /* \"#utility.yul\":27456:27531   */\n    tag_391:\n        /* \"#utility.yul\":27499:27502   */\n      0x00\n        /* \"#utility.yul\":27520:27525   */\n      dup2\n        /* \"#utility.yul\":27513:27525   */\n      swap1\n      pop\n        /* \"#utility.yul\":27456:27531   */\n      swap2\n      swap1\n      pop\n      jump\t// out\n        /* \"#utility.yul\":27537:27806   */\n    tag_392:\n        /* \"#utility.yul\":27647:27686   */\n      tag_682\n        /* \"#utility.yul\":27678:27685   */\n      dup4\n        /* \"#utility.yul\":27647:27686   */\n      tag_390\n      jump\t// in\n    tag_682:\n        /* \"#utility.yul\":27708:27799   */\n      tag_683\n        /* \"#utility.yul\":27757:27798   */\n      tag_684\n        /* \"#utility.yul\":27781:27797   */\n      dup3\n        /* \"#utility.yul\":27757:27798   */\n      tag_391\n      jump\t// in\n    tag_684:\n        /* \"#utility.yul\":27749:27755   */\n      dup5\n        /* \"#utility.yul\":27742:27746   */\n      dup5\n        /* \"#utility.yul\":27736:27747   */\n      sload\n        /* \"#utility.yul\":27708:27799   */\n      tag_388\n      jump\t// in\n    tag_683:\n        /* \"#utility.yul\":27702:27706   */\n      dup3\n        /* \"#utility.yul\":27695:27800   */\n      sstore\n        /* \"#utility.yul\":27613:27806   */\n      pop\n        /* \"#utility.yul\":27537:27806   */\n      pop\n      pop\n      pop\n      jump\t// out\n        /* \"#utility.yul\":27812:27885   */\n    tag_393:\n        /* \"#utility.yul\":27857:27860   */\n      0x00\n        /* \"#utility.yul\":27812:27885   */\n      swap1\n      jump\t// out\n        /* \"#utility.yul\":27891:28080   */\n    tag_394:\n        /* \"#utility.yul\":27968:28000   */\n      tag_687\n      tag_393\n      jump\t// in\n    tag_687:\n        /* \"#utility.yul\":28009:28074   */\n      tag_688\n        /* \"#utility.yul\":28067:28073   */\n      dup2\n        /* \"#utility.yul\":28059:28065   */\n      dup5\n        /* \"#utility.yul\":28053:28057   */\n      dup5\n        /* \"#utility.yul\":28009:28074   */\n      tag_392\n      jump\t// in\n    tag_688:\n        /* \"#utility.yul\":27944:28080   */\n      pop\n        /* \"#utility.yul\":27891:28080   */\n      pop\n      pop\n      jump\t// out\n        /* \"#utility.yul\":28086:28272   */\n    tag_395:\n        /* \"#utility.yul\":28146:28266   */\n    tag_690:\n        /* \"#utility.yul\":28163:28166   */\n      dup2\n        /* \"#utility.yul\":28156:28161   */\n      dup2\n        /* \"#utility.yul\":28153:28167   */\n      lt\n        /* \"#utility.yul\":28146:28266   */\n      iszero\n      tag_692\n      jumpi\n        /* \"#utility.yul\":28217:28256   */\n      tag_693\n        /* \"#utility.yul\":28254:28255   */\n      0x00\n        /* \"#utility.yul\":28247:28252   */\n      dup3\n        /* \"#utility.yul\":28217:28256   */\n      tag_394\n      jump\t// in\n    tag_693:\n        /* \"#utility.yul\":28190:28191   */\n      0x01\n        /* \"#utility.yul\":28183:28188   */\n      dup2\n        /* \"#utility.yul\":28179:28192   */\n      add\n        /* \"#utility.yul\":28170:28192   */\n      swap1\n      pop\n        /* \"#utility.yul\":28146:28266   */\n      jump(tag_690)\n    tag_692:\n        /* \"#utility.yul\":28086:28272   */\n      pop\n      pop\n      jump\t// out\n        /* \"#utility.yul\":28278:28821   */\n    tag_396:\n        /* \"#utility.yul\":28379:28381   */\n      0x1f\n        /* \"#utility.yul\":28374:28377   */\n      dup3\n        /* \"#utility.yul\":28371:28382   */\n      gt\n        /* \"#utility.yul\":28368:28814   */\n      iszero\n      tag_695\n      jumpi\n        /* \"#utility.yul\":28413:28451   */\n      tag_696\n        /* \"#utility.yul\":28445:28450   */\n      dup2\n        /* \"#utility.yul\":28413:28451   */\n      tag_385\n      jump\t// in\n    tag_696:\n        /* \"#utility.yul\":28497:28526   */\n      tag_697\n        /* \"#utility.yul\":28515:28525   */\n      dup5\n        /* \"#utility.yul\":28497:28526   */\n      tag_386\n      jump\t// in\n    tag_697:\n        /* \"#utility.yul\":28487:28495   */\n      dup2\n        /* \"#utility.yul\":28483:28527   */\n      add\n        /* \"#utility.yul\":28680:28682   */\n      0x20\n        /* \"#utility.yul\":28668:28678   */\n      dup6\n        /* \"#utility.yul\":28665:28683   */\n      lt\n        /* \"#utility.yul\":28662:28711   */\n      iszero\n      tag_698\n      jumpi\n        /* \"#utility.yul\":28701:28709   */\n      dup2\n        /* \"#utility.yul\":28686:28709   */\n      swap1\n      pop\n        /* \"#utility.yul\":28662:28711   */\n    tag_698:\n        /* \"#utility.yul\":28724:28804   */\n      tag_699\n        /* \"#utility.yul\":28780:28802   */\n      tag_700\n        /* \"#utility.yul\":28798:28801   */\n      dup6\n        /* \"#utility.yul\":28780:28802   */\n      tag_386\n      jump\t// in\n    tag_700:\n        /* \"#utility.yul\":28770:28778   */\n      dup4\n        /* \"#utility.yul\":28766:28803   */\n      add\n        /* \"#utility.yul\":28753:28764   */\n      dup3\n        /* \"#utility.yul\":28724:28804   */\n      tag_395\n      jump\t// in\n    tag_699:\n        /* \"#utility.yul\":28383:28814   */\n      pop\n      pop\n        /* \"#utility.yul\":28368:28814   */\n    tag_695:\n        /* \"#utility.yul\":28278:28821   */\n      pop\n      pop\n      pop\n      jump\t// out\n        /* \"#utility.yul\":28827:28944   */\n    tag_397:\n        /* \"#utility.yul\":28881:28889   */\n      0x00\n        /* \"#utility.yul\":28931:28936   */\n      dup3\n        /* \"#utility.yul\":28925:28929   */\n      dup3\n        /* \"#utility.yul\":28921:28937   */\n      shr\n        /* \"#utility.yul\":28900:28937   */\n      swap1\n      pop\n        /* \"#utility.yul\":28827:28944   */\n      swap3\n      swap2\n      pop\n      pop\n      jump\t// out\n        /* \"#utility.yul\":28950:29119   */\n    tag_398:\n        /* \"#utility.yul\":28994:29000   */\n      0x00\n        /* \"#utility.yul\":29027:29078   */\n      tag_703\n        /* \"#utility.yul\":29075:29076   */\n      0x00\n        /* \"#utility.yul\":29071:29077   */\n      not\n        /* \"#utility.yul\":29063:29068   */\n      dup5\n        /* \"#utility.yul\":29060:29061   */\n      0x08\n        /* \"#utility.yul\":29056:29069   */\n      mul\n        /* \"#utility.yul\":29027:29078   */\n      tag_397\n      jump\t// in\n    tag_703:\n        /* \"#utility.yul\":29023:29079   */\n      not\n        /* \"#utility.yul\":29108:29112   */\n      dup1\n        /* \"#utility.yul\":29102:29106   */\n      dup4\n        /* \"#utility.yul\":29098:29113   */\n      and\n        /* \"#utility.yul\":29088:29113   */\n      swap2\n      pop\n        /* \"#utility.yul\":29001:29119   */\n      pop\n        /* \"#utility.yul\":28950:29119   */\n      swap3\n      swap2\n      pop\n      pop\n      jump\t// out\n        /* \"#utility.yul\":29124:29419   */\n    tag_399:\n        /* \"#utility.yul\":29200:29204   */\n      0x00\n        /* \"#utility.yul\":29346:29375   */\n      tag_705\n        /* \"#utility.yul\":29371:29374   */\n      dup4\n        /* \"#utility.yul\":29365:29369   */\n      dup4\n        /* \"#utility.yul\":29346:29375   */\n      tag_398\n      jump\t// in\n    tag_705:\n        /* \"#utility.yul\":29338:29375   */\n      swap2\n      pop\n        /* \"#utility.yul\":29408:29411   */\n      dup3\n        /* \"#utility.yul\":29405:29406   */\n      0x02\n        /* \"#utility.yul\":29401:29412   */\n      mul\n        /* \"#utility.yul\":29395:29399   */\n      dup3\n        /* \"#utility.yul\":29392:29413   */\n      or\n        /* \"#utility.yul\":29384:29413   */\n      swap1\n      pop\n        /* \"#utility.yul\":29124:29419   */\n      swap3\n      swap2\n      pop\n      pop\n      jump\t// out\n        /* \"#utility.yul\":29424:30827   */\n    tag_141:\n        /* \"#utility.yul\":29548:29592   */\n      tag_707\n        /* \"#utility.yul\":29588:29591   */\n      dup4\n        /* \"#utility.yul\":29583:29586   */\n      dup4\n        /* \"#utility.yul\":29548:29592   */\n      tag_384\n      jump\t// in\n    tag_707:\n        /* \"#utility.yul\":29657:29675   */\n      0xffffffffffffffff\n        /* \"#utility.yul\":29649:29655   */\n      dup2\n        /* \"#utility.yul\":29646:29676   */\n      gt\n        /* \"#utility.yul\":29643:29699   */\n      iszero\n      tag_708\n      jumpi\n        /* \"#utility.yul\":29679:29697   */\n      tag_709\n      tag_251\n      jump\t// in\n    tag_709:\n        /* \"#utility.yul\":29643:29699   */\n    tag_708:\n        /* \"#utility.yul\":29723:29761   */\n      tag_710\n        /* \"#utility.yul\":29755:29759   */\n      dup3\n        /* \"#utility.yul\":29749:29760   */\n      sload\n        /* \"#utility.yul\":29723:29761   */\n      tag_118\n      jump\t// in\n    tag_710:\n        /* \"#utility.yul\":29808:29875   */\n      tag_711\n        /* \"#utility.yul\":29868:29874   */\n      dup3\n        /* \"#utility.yul\":29860:29866   */\n      dup3\n        /* \"#utility.yul\":29854:29858   */\n      dup6\n        /* \"#utility.yul\":29808:29875   */\n      tag_396\n      jump\t// in\n    tag_711:\n        /* \"#utility.yul\":29902:29903   */\n      0x00\n        /* \"#utility.yul\":29931:29933   */\n      0x1f\n        /* \"#utility.yul\":29923:29929   */\n      dup4\n        /* \"#utility.yul\":29920:29934   */\n      gt\n        /* \"#utility.yul\":29948:29949   */\n      0x01\n        /* \"#utility.yul\":29943:30575   */\n      dup2\n      eq\n      tag_713\n      jumpi\n        /* \"#utility.yul\":30619:30620   */\n      0x00\n        /* \"#utility.yul\":30636:30642   */\n      dup5\n        /* \"#utility.yul\":30633:30717   */\n      iszero\n      tag_714\n      jumpi\n        /* \"#utility.yul\":30692:30701   */\n      dup3\n        /* \"#utility.yul\":30687:30690   */\n      dup8\n        /* \"#utility.yul\":30683:30702   */\n      add\n        /* \"#utility.yul\":30670:30703   */\n      calldataload\n        /* \"#utility.yul\":30661:30703   */\n      swap1\n      pop\n        /* \"#utility.yul\":30633:30717   */\n    tag_714:\n        /* \"#utility.yul\":30743:30810   */\n      tag_715\n        /* \"#utility.yul\":30803:30809   */\n      dup6\n        /* \"#utility.yul\":30796:30801   */\n      dup3\n        /* \"#utility.yul\":30743:30810   */\n      tag_399\n      jump\t// in\n    tag_715:\n        /* \"#utility.yul\":30737:30741   */\n      dup7\n        /* \"#utility.yul\":30730:30811   */\n      sstore\n        /* \"#utility.yul\":30592:30821   */\n      pop\n        /* \"#utility.yul\":29913:30821   */\n      jump(tag_712)\n        /* \"#utility.yul\":29943:30575   */\n    tag_713:\n        /* \"#utility.yul\":29995:29999   */\n      0x1f\n        /* \"#utility.yul\":29991:30000   */\n      not\n        /* \"#utility.yul\":29983:29989   */\n      dup5\n        /* \"#utility.yul\":29979:30001   */\n      and\n        /* \"#utility.yul\":30029:30066   */\n      tag_716\n        /* \"#utility.yul\":30061:30065   */\n      dup7\n        /* \"#utility.yul\":30029:30066   */\n      tag_385\n      jump\t// in\n    tag_716:\n        /* \"#utility.yul\":30088:30089   */\n      0x00\n        /* \"#utility.yul\":30102:30317   */\n    tag_717:\n        /* \"#utility.yul\":30116:30123   */\n      dup3\n        /* \"#utility.yul\":30113:30114   */\n      dup2\n        /* \"#utility.yul\":30110:30124   */\n      lt\n        /* \"#utility.yul\":30102:30317   */\n      iszero\n      tag_719\n      jumpi\n        /* \"#utility.yul\":30202:30211   */\n      dup5\n        /* \"#utility.yul\":30197:30200   */\n      dup10\n        /* \"#utility.yul\":30193:30212   */\n      add\n        /* \"#utility.yul\":30180:30213   */\n      calldataload\n        /* \"#utility.yul\":30172:30178   */\n      dup3\n        /* \"#utility.yul\":30165:30214   */\n      sstore\n        /* \"#utility.yul\":30253:30254   */\n      0x01\n        /* \"#utility.yul\":30245:30251   */\n      dup3\n        /* \"#utility.yul\":30241:30255   */\n      add\n        /* \"#utility.yul\":30231:30255   */\n      swap2\n      pop\n        /* \"#utility.yul\":30300:30302   */\n      0x20\n        /* \"#utility.yul\":30289:30298   */\n      dup6\n        /* \"#utility.yul\":30285:30303   */\n      add\n        /* \"#utility.yul\":30272:30303   */\n      swap5\n      pop\n        /* \"#utility.yul\":30139:30143   */\n      0x20\n        /* \"#utility.yul\":30136:30137   */\n      dup2\n        /* \"#utility.yul\":30132:30144   */\n      add\n        /* \"#utility.yul\":30127:30144   */\n      swap1\n      pop\n        /* \"#utility.yul\":30102:30317   */\n      jump(tag_717)\n    tag_719:\n        /* \"#utility.yul\":30345:30351   */\n      dup7\n        /* \"#utility.yul\":30336:30343   */\n      dup4\n        /* \"#utility.yul\":30333:30352   */\n      lt\n        /* \"#utility.yul\":30330:30516   */\n      iszero\n      tag_720\n      jumpi\n        /* \"#utility.yul\":30410:30419   */\n      dup5\n        /* \"#utility.yul\":30405:30408   */\n      dup10\n        /* \"#utility.yul\":30401:30420   */\n      add\n        /* \"#utility.yul\":30388:30421   */\n      calldataload\n        /* \"#utility.yul\":30453:30501   */\n      tag_721\n        /* \"#utility.yul\":30495:30499   */\n      0x1f\n        /* \"#utility.yul\":30487:30493   */\n      dup10\n        /* \"#utility.yul\":30483:30500   */\n      and\n        /* \"#utility.yul\":30472:30481   */\n      dup3\n        /* \"#utility.yul\":30453:30501   */\n      tag_398\n      jump\t// in\n    tag_721:\n        /* \"#utility.yul\":30445:30451   */\n      dup4\n        /* \"#utility.yul\":30438:30502   */\n      sstore\n        /* \"#utility.yul\":30353:30516   */\n      pop\n        /* \"#utility.yul\":30330:30516   */\n    tag_720:\n        /* \"#utility.yul\":30562:30563   */\n      0x01\n        /* \"#utility.yul\":30558:30559   */\n      0x02\n        /* \"#utility.yul\":30550:30556   */\n      dup9\n        /* \"#utility.yul\":30546:30560   */\n      mul\n        /* \"#utility.yul\":30542:30564   */\n      add\n        /* \"#utility.yul\":30536:30540   */\n      dup9\n        /* \"#utility.yul\":30529:30565   */\n      sstore\n        /* \"#utility.yul\":29950:30575   */\n      pop\n      pop\n      pop\n        /* \"#utility.yul\":29913:30821   */\n    tag_712:\n      pop\n        /* \"#utility.yul\":29523:30827   */\n      pop\n      pop\n      pop\n        /* \"#utility.yul\":29424:30827   */\n      pop\n      pop\n      pop\n      jump\t// out\n        /* \"#utility.yul\":30833:31150   */\n    tag_400:\n        /* \"#utility.yul\":30973:31007   */\n      0x456d69736f7220646562652073657220656c20706f736565646f722064656c20\n        /* \"#utility.yul\":30969:30970   */\n      0x00\n        /* \"#utility.yul\":30961:30967   */\n      dup3\n        /* \"#utility.yul\":30957:30971   */\n      add\n        /* \"#utility.yul\":30950:31008   */\n      mstore\n        /* \"#utility.yul\":31042:31076   */\n      0x746f6b656e206f20656c20717565207469656e65206170726f626163696f6e20\n        /* \"#utility.yul\":31037:31039   */\n      0x20\n        /* \"#utility.yul\":31029:31035   */\n      dup3\n        /* \"#utility.yul\":31025:31040   */\n      add\n        /* \"#utility.yul\":31018:31077   */\n      mstore\n        /* \"#utility.yul\":31111:31142   */\n      0x7061726120686163657220636f73617320636f6e20656c20746f6b656e000000\n        /* \"#utility.yul\":31106:31108   */\n      0x40\n        /* \"#utility.yul\":31098:31104   */\n      dup3\n        /* \"#utility.yul\":31094:31109   */\n      add\n        /* \"#utility.yul\":31087:31143   */\n      mstore\n        /* \"#utility.yul\":30833:31150   */\n      pop\n      jump\t// out\n        /* \"#utility.yul\":31156:31522   */\n    tag_401:\n        /* \"#utility.yul\":31298:31301   */\n      0x00\n        /* \"#utility.yul\":31319:31386   */\n      tag_724\n        /* \"#utility.yul\":31383:31385   */\n      0x5d\n        /* \"#utility.yul\":31378:31381   */\n      dup4\n        /* \"#utility.yul\":31319:31386   */\n      tag_339\n      jump\t// in\n    tag_724:\n        /* \"#utility.yul\":31312:31386   */\n      swap2\n      pop\n        /* \"#utility.yul\":31395:31488   */\n      tag_725\n        /* \"#utility.yul\":31484:31487   */\n      dup3\n        /* \"#utility.yul\":31395:31488   */\n      tag_400\n      jump\t// in\n    tag_725:\n        /* \"#utility.yul\":31513:31515   */\n      0x60\n        /* \"#utility.yul\":31508:31511   */\n      dup3\n        /* \"#utility.yul\":31504:31516   */\n      add\n        /* \"#utility.yul\":31497:31516   */\n      swap1\n      pop\n        /* \"#utility.yul\":31156:31522   */\n      swap2\n      swap1\n      pop\n      jump\t// out\n        /* \"#utility.yul\":31528:31947   */\n    tag_147:\n        /* \"#utility.yul\":31694:31698   */\n      0x00\n        /* \"#utility.yul\":31732:31734   */\n      0x20\n        /* \"#utility.yul\":31721:31730   */\n      dup3\n        /* \"#utility.yul\":31717:31735   */\n      add\n        /* \"#utility.yul\":31709:31735   */\n      swap1\n      pop\n        /* \"#utility.yul\":31781:31790   */\n      dup2\n        /* \"#utility.yul\":31775:31779   */\n      dup2\n        /* \"#utility.yul\":31771:31791   */\n      sub\n        /* \"#utility.yul\":31767:31768   */\n      0x00\n        /* \"#utility.yul\":31756:31765   */\n      dup4\n        /* \"#utility.yul\":31752:31769   */\n      add\n        /* \"#utility.yul\":31745:31792   */\n      mstore\n        /* \"#utility.yul\":31809:31940   */\n      tag_727\n        /* \"#utility.yul\":31935:31939   */\n      dup2\n        /* \"#utility.yul\":31809:31940   */\n      tag_401\n      jump\t// in\n    tag_727:\n        /* \"#utility.yul\":31801:31940   */\n      swap1\n      pop\n        /* \"#utility.yul\":31528:31947   */\n      swap2\n      swap1\n      pop\n      jump\t// out\n        /* \"#utility.yul\":31953:32390   */\n    tag_402:\n        /* \"#utility.yul\":32093:32127   */\n      0x4e6f206c6f206469636520656c20656e756e636961646f2c207065726f206372\n        /* \"#utility.yul\":32089:32090   */\n      0x00\n        /* \"#utility.yul\":32081:32087   */\n      dup3\n        /* \"#utility.yul\":32077:32091   */\n      add\n        /* \"#utility.yul\":32070:32128   */\n      mstore\n        /* \"#utility.yul\":32162:32196   */\n      0x656f2071756520656c2066726f6d206573207369656d70726520656c20717565\n        /* \"#utility.yul\":32157:32159   */\n      0x20\n        /* \"#utility.yul\":32149:32155   */\n      dup3\n        /* \"#utility.yul\":32145:32160   */\n      add\n        /* \"#utility.yul\":32138:32197   */\n      mstore\n        /* \"#utility.yul\":32231:32265   */\n      0x20706f73656520656c20746f6b656e2c2073696e206e65636573696461642064\n        /* \"#utility.yul\":32226:32228   */\n      0x40\n        /* \"#utility.yul\":32218:32224   */\n      dup3\n        /* \"#utility.yul\":32214:32229   */\n      add\n        /* \"#utility.yul\":32207:32266   */\n      mstore\n        /* \"#utility.yul\":32300:32334   */\n      0x652071756520736561206573746520656c2071756520656a6563757461206c61\n        /* \"#utility.yul\":32295:32297   */\n      0x60\n        /* \"#utility.yul\":32287:32293   */\n      dup3\n        /* \"#utility.yul\":32283:32298   */\n      add\n        /* \"#utility.yul\":32276:32335   */\n      mstore\n        /* \"#utility.yul\":32370:32382   */\n      0x206f7065726163696f6e00000000000000000000000000000000000000000000\n        /* \"#utility.yul\":32364:32367   */\n      0x80\n        /* \"#utility.yul\":32356:32362   */\n      dup3\n        /* \"#utility.yul\":32352:32368   */\n      add\n        /* \"#utility.yul\":32345:32383   */\n      mstore\n        /* \"#utility.yul\":31953:32390   */\n      pop\n      jump\t// out\n        /* \"#utility.yul\":32396:32764   */\n    tag_403:\n        /* \"#utility.yul\":32538:32541   */\n      0x00\n        /* \"#utility.yul\":32559:32627   */\n      tag_730\n        /* \"#utility.yul\":32623:32626   */\n      0x8a\n        /* \"#utility.yul\":32618:32621   */\n      dup4\n        /* \"#utility.yul\":32559:32627   */\n      tag_339\n      jump\t// in\n    tag_730:\n        /* \"#utility.yul\":32552:32627   */\n      swap2\n      pop\n        /* \"#utility.yul\":32636:32729   */\n      tag_731\n        /* \"#utility.yul\":32725:32728   */\n      dup3\n        /* \"#utility.yul\":32636:32729   */\n      tag_402\n      jump\t// in\n    tag_731:\n        /* \"#utility.yul\":32754:32757   */\n      0xa0\n        /* \"#utility.yul\":32749:32752   */\n      dup3\n        /* \"#utility.yul\":32745:32758   */\n      add\n        /* \"#utility.yul\":32738:32758   */\n      swap1\n      pop\n        /* \"#utility.yul\":32396:32764   */\n      swap2\n      swap1\n      pop\n      jump\t// out\n        /* \"#utility.yul\":32770:33189   */\n    tag_150:\n        /* \"#utility.yul\":32936:32940   */\n      0x00\n        /* \"#utility.yul\":32974:32976   */\n      0x20\n        /* \"#utility.yul\":32963:32972   */\n      dup3\n        /* \"#utility.yul\":32959:32977   */\n      add\n        /* \"#utility.yul\":32951:32977   */\n      swap1\n      pop\n        /* \"#utility.yul\":33023:33032   */\n      dup2\n        /* \"#utility.yul\":33017:33021   */\n      dup2\n        /* \"#utility.yul\":33013:33033   */\n      sub\n        /* \"#utility.yul\":33009:33010   */\n      0x00\n        /* \"#utility.yul\":32998:33007   */\n      dup4\n        /* \"#utility.yul\":32994:33011   */\n      add\n        /* \"#utility.yul\":32987:33034   */\n      mstore\n        /* \"#utility.yul\":33051:33182   */\n      tag_733\n        /* \"#utility.yul\":33177:33181   */\n      dup2\n        /* \"#utility.yul\":33051:33182   */\n      tag_403\n      jump\t// in\n    tag_733:\n        /* \"#utility.yul\":33043:33182   */\n      swap1\n      pop\n        /* \"#utility.yul\":32770:33189   */\n      swap2\n      swap1\n      pop\n      jump\t// out\n        /* \"#utility.yul\":33195:33366   */\n    tag_157:\n        /* \"#utility.yul\":33234:33237   */\n      0x00\n        /* \"#utility.yul\":33257:33281   */\n      tag_735\n        /* \"#utility.yul\":33275:33280   */\n      dup3\n        /* \"#utility.yul\":33257:33281   */\n      tag_326\n      jump\t// in\n    tag_735:\n        /* \"#utility.yul\":33248:33281   */\n      swap2\n      pop\n        /* \"#utility.yul\":33303:33307   */\n      0x00\n        /* \"#utility.yul\":33296:33301   */\n      dup3\n        /* \"#utility.yul\":33293:33308   */\n      sub\n        /* \"#utility.yul\":33290:33331   */\n      tag_736\n      jumpi\n        /* \"#utility.yul\":33311:33329   */\n      tag_737\n      tag_363\n      jump\t// in\n    tag_737:\n        /* \"#utility.yul\":33290:33331   */\n    tag_736:\n        /* \"#utility.yul\":33358:33359   */\n      0x01\n        /* \"#utility.yul\":33351:33356   */\n      dup3\n        /* \"#utility.yul\":33347:33360   */\n      sub\n        /* \"#utility.yul\":33340:33360   */\n      swap1\n      pop\n        /* \"#utility.yul\":33195:33366   */\n      swap2\n      swap1\n      pop\n      jump\t// out\n        /* \"#utility.yul\":33372:33605   */\n    tag_159:\n        /* \"#utility.yul\":33411:33414   */\n      0x00\n        /* \"#utility.yul\":33434:33458   */\n      tag_739\n        /* \"#utility.yul\":33452:33457   */\n      dup3\n        /* \"#utility.yul\":33434:33458   */\n      tag_326\n      jump\t// in\n    tag_739:\n        /* \"#utility.yul\":33425:33458   */\n      swap2\n      pop\n        /* \"#utility.yul\":33480:33546   */\n      0xffffffffffffffffffffffffffffffffffffffffffffffffffffffffffffffff\n        /* \"#utility.yul\":33473:33478   */\n      dup3\n        /* \"#utility.yul\":33470:33547   */\n      sub\n        /* \"#utility.yul\":33467:33570   */\n      tag_740\n      jumpi\n        /* \"#utility.yul\":33550:33568   */\n      tag_741\n      tag_363\n      jump\t// in\n    tag_741:\n        /* \"#utility.yul\":33467:33570   */\n    tag_740:\n        /* \"#utility.yul\":33597:33598   */\n      0x01\n        /* \"#utility.yul\":33590:33595   */\n      dup3\n        /* \"#utility.yul\":33586:33599   */\n      add\n        /* \"#utility.yul\":33579:33599   */\n      swap1\n      pop\n        /* \"#utility.yul\":33372:33605   */\n      swap2\n      swap1\n      pop\n      jump\t// out\n        /* \"#utility.yul\":33611:33779   */\n    tag_404:\n        /* \"#utility.yul\":33694:33705   */\n      0x00\n        /* \"#utility.yul\":33728:33734   */\n      dup3\n        /* \"#utility.yul\":33723:33726   */\n      dup3\n        /* \"#utility.yul\":33716:33735   */\n      mstore\n        /* \"#utility.yul\":33768:33772   */\n      0x20\n        /* \"#utility.yul\":33763:33766   */\n      dup3\n        /* \"#utility.yul\":33759:33773   */\n      add\n        /* \"#utility.yul\":33744:33773   */\n      swap1\n      pop\n        /* \"#utility.yul\":33611:33779   */\n      swap3\n      swap2\n      pop\n      pop\n      jump\t// out\n        /* \"#utility.yul\":33785:33899   */\n    tag_405:\n      pop\n      jump\t// out\n        /* \"#utility.yul\":33905:34267   */\n    tag_406:\n        /* \"#utility.yul\":34046:34049   */\n      0x00\n        /* \"#utility.yul\":34067:34132   */\n      tag_745\n        /* \"#utility.yul\":34130:34131   */\n      0x00\n        /* \"#utility.yul\":34125:34128   */\n      dup4\n        /* \"#utility.yul\":34067:34132   */\n      tag_404\n      jump\t// in\n    tag_745:\n        /* \"#utility.yul\":34060:34132   */\n      swap2\n      pop\n        /* \"#utility.yul\":34141:34234   */\n      tag_746\n        /* \"#utility.yul\":34230:34233   */\n      dup3\n        /* \"#utility.yul\":34141:34234   */\n      tag_405\n      jump\t// in\n    tag_746:\n        /* \"#utility.yul\":34259:34260   */\n      0x00\n        /* \"#utility.yul\":34254:34257   */\n      dup3\n        /* \"#utility.yul\":34250:34261   */\n      add\n        /* \"#utility.yul\":34243:34261   */\n      swap1\n      pop\n        /* \"#utility.yul\":33905:34267   */\n      swap2\n      swap1\n      pop\n      jump\t// out\n        /* \"#utility.yul\":34273:35021   */\n    tag_173:\n        /* \"#utility.yul\":34522:34526   */\n      0x00\n        /* \"#utility.yul\":34560:34563   */\n      0x80\n        /* \"#utility.yul\":34549:34558   */\n      dup3\n        /* \"#utility.yul\":34545:34564   */\n      add\n        /* \"#utility.yul\":34537:34564   */\n      swap1\n      pop\n        /* \"#utility.yul\":34574:34645   */\n      tag_748\n        /* \"#utility.yul\":34642:34643   */\n      0x00\n        /* \"#utility.yul\":34631:34640   */\n      dup4\n        /* \"#utility.yul\":34627:34644   */\n      add\n        /* \"#utility.yul\":34618:34624   */\n      dup7\n        /* \"#utility.yul\":34574:34645   */\n      tag_331\n      jump\t// in\n    tag_748:\n        /* \"#utility.yul\":34655:34727   */\n      tag_749\n        /* \"#utility.yul\":34723:34725   */\n      0x20\n        /* \"#utility.yul\":34712:34721   */\n      dup4\n        /* \"#utility.yul\":34708:34726   */\n      add\n        /* \"#utility.yul\":34699:34705   */\n      dup6\n        /* \"#utility.yul\":34655:34727   */\n      tag_331\n      jump\t// in\n    tag_749:\n        /* \"#utility.yul\":34737:34809   */\n      tag_750\n        /* \"#utility.yul\":34805:34807   */\n      0x40\n        /* \"#utility.yul\":34794:34803   */\n      dup4\n        /* \"#utility.yul\":34790:34808   */\n      add\n        /* \"#utility.yul\":34781:34787   */\n      dup5\n        /* \"#utility.yul\":34737:34809   */\n      tag_359\n      jump\t// in\n    tag_750:\n        /* \"#utility.yul\":34856:34865   */\n      dup2\n        /* \"#utility.yul\":34850:34854   */\n      dup2\n        /* \"#utility.yul\":34846:34866   */\n      sub\n        /* \"#utility.yul\":34841:34843   */\n      0x60\n        /* \"#utility.yul\":34830:34839   */\n      dup4\n        /* \"#utility.yul\":34826:34844   */\n      add\n        /* \"#utility.yul\":34819:34867   */\n      mstore\n        /* \"#utility.yul\":34884:35014   */\n      tag_751\n        /* \"#utility.yul\":35009:35013   */\n      dup2\n        /* \"#utility.yul\":34884:35014   */\n      tag_406\n      jump\t// in\n    tag_751:\n        /* \"#utility.yul\":34876:35014   */\n      swap1\n      pop\n        /* \"#utility.yul\":34273:35021   */\n      swap5\n      swap4\n      pop\n      pop\n      pop\n      pop\n      jump\t// out\n        /* \"#utility.yul\":35027:35168   */\n    tag_407:\n        /* \"#utility.yul\":35083:35088   */\n      0x00\n        /* \"#utility.yul\":35114:35120   */\n      dup2\n        /* \"#utility.yul\":35108:35121   */\n      mload\n        /* \"#utility.yul\":35099:35121   */\n      swap1\n      pop\n        /* \"#utility.yul\":35130:35162   */\n      tag_753\n        /* \"#utility.yul\":35156:35161   */\n      dup2\n        /* \"#utility.yul\":35130:35162   */\n      tag_322\n      jump\t// in\n    tag_753:\n        /* \"#utility.yul\":35027:35168   */\n      swap3\n      swap2\n      pop\n      pop\n      jump\t// out\n        /* \"#utility.yul\":35174:35523   */\n    tag_177:\n        /* \"#utility.yul\":35243:35249   */\n      0x00\n        /* \"#utility.yul\":35292:35294   */\n      0x20\n        /* \"#utility.yul\":35280:35289   */\n      dup3\n        /* \"#utility.yul\":35271:35278   */\n      dup5\n        /* \"#utility.yul\":35267:35290   */\n      sub\n        /* \"#utility.yul\":35263:35295   */\n      slt\n        /* \"#utility.yul\":35260:35379   */\n      iszero\n      tag_755\n      jumpi\n        /* \"#utility.yul\":35298:35377   */\n      tag_756\n      tag_319\n      jump\t// in\n    tag_756:\n        /* \"#utility.yul\":35260:35379   */\n    tag_755:\n        /* \"#utility.yul\":35418:35419   */\n      0x00\n        /* \"#utility.yul\":35443:35506   */\n      tag_757\n        /* \"#utility.yul\":35498:35505   */\n      dup5\n        /* \"#utility.yul\":35489:35495   */\n      dup3\n        /* \"#utility.yul\":35478:35487   */\n      dup6\n        /* \"#utility.yul\":35474:35496   */\n      add\n        /* \"#utility.yul\":35443:35506   */\n      tag_407\n      jump\t// in\n    tag_757:\n        /* \"#utility.yul\":35433:35506   */\n      swap2\n      pop\n        /* \"#utility.yul\":35389:35516   */\n      pop\n        /* \"#utility.yul\":35174:35523   */\n      swap3\n      swap2\n      pop\n      pop\n      jump\t// out\n        /* \"#utility.yul\":35529:35819   */\n    tag_408:\n        /* \"#utility.yul\":35669:35703   */\n      0x4573746f20746520636f6d70727565626120736920656c20636f6e747261746f\n        /* \"#utility.yul\":35665:35666   */\n      0x00\n        /* \"#utility.yul\":35657:35663   */\n      dup3\n        /* \"#utility.yul\":35653:35667   */\n      add\n        /* \"#utility.yul\":35646:35704   */\n      mstore\n        /* \"#utility.yul\":35738:35772   */\n      0x20657374612070726570617261646f20706172612072656369626972206e6674\n        /* \"#utility.yul\":35733:35735   */\n      0x20\n        /* \"#utility.yul\":35725:35731   */\n      dup3\n        /* \"#utility.yul\":35721:35736   */\n      add\n        /* \"#utility.yul\":35714:35773   */\n      mstore\n        /* \"#utility.yul\":35807:35811   */\n      0x732e000000000000000000000000000000000000000000000000000000000000\n        /* \"#utility.yul\":35802:35804   */\n      0x40\n        /* \"#utility.yul\":35794:35800   */\n      dup3\n        /* \"#utility.yul\":35790:35805   */\n      add\n        /* \"#utility.yul\":35783:35812   */\n      mstore\n        /* \"#utility.yul\":35529:35819   */\n      pop\n      jump\t// out\n        /* \"#utility.yul\":35825:36191   */\n    tag_409:\n        /* \"#utility.yul\":35967:35970   */\n      0x00\n        /* \"#utility.yul\":35988:36055   */\n      tag_760\n        /* \"#utility.yul\":36052:36054   */\n      0x42\n        /* \"#utility.yul\":36047:36050   */\n      dup4\n        /* \"#utility.yul\":35988:36055   */\n      tag_339\n      jump\t// in\n    tag_760:\n        /* \"#utility.yul\":35981:36055   */\n      swap2\n      pop\n        /* \"#utility.yul\":36064:36157   */\n      tag_761\n        /* \"#utility.yul\":36153:36156   */\n      dup3\n        /* \"#utility.yul\":36064:36157   */\n      tag_408\n      jump\t// in\n    tag_761:\n        /* \"#utility.yul\":36182:36184   */\n      0x60\n        /* \"#utility.yul\":36177:36180   */\n      dup3\n        /* \"#utility.yul\":36173:36185   */\n      add\n        /* \"#utility.yul\":36166:36185   */\n      swap1\n      pop\n        /* \"#utility.yul\":35825:36191   */\n      swap2\n      swap1\n      pop\n      jump\t// out\n        /* \"#utility.yul\":36197:36616   */\n    tag_180:\n        /* \"#utility.yul\":36363:36367   */\n      0x00\n        /* \"#utility.yul\":36401:36403   */\n      0x20\n        /* \"#utility.yul\":36390:36399   */\n      dup3\n        /* \"#utility.yul\":36386:36404   */\n      add\n        /* \"#utility.yul\":36378:36404   */\n      swap1\n      pop\n        /* \"#utility.yul\":36450:36459   */\n      dup2\n        /* \"#utility.yul\":36444:36448   */\n      dup2\n        /* \"#utility.yul\":36440:36460   */\n      sub\n        /* \"#utility.yul\":36436:36437   */\n      0x00\n        /* \"#utility.yul\":36425:36434   */\n      dup4\n        /* \"#utility.yul\":36421:36438   */\n      add\n        /* \"#utility.yul\":36414:36461   */\n      mstore\n        /* \"#utility.yul\":36478:36609   */\n      tag_763\n        /* \"#utility.yul\":36604:36608   */\n      dup2\n        /* \"#utility.yul\":36478:36609   */\n      tag_409\n      jump\t// in\n    tag_763:\n        /* \"#utility.yul\":36470:36609   */\n      swap1\n      pop\n        /* \"#utility.yul\":36197:36616   */\n      swap2\n      swap1\n      pop\n      jump\t// out\n        /* \"#utility.yul\":36622:36801   */\n    tag_410:\n        /* \"#utility.yul\":36762:36793   */\n      0x456c207573756172696f20646562652074656e65722062616c616e6365000000\n        /* \"#utility.yul\":36758:36759   */\n      0x00\n        /* \"#utility.yul\":36750:36756   */\n      dup3\n        /* \"#utility.yul\":36746:36760   */\n      add\n        /* \"#utility.yul\":36739:36794   */\n      mstore\n        /* \"#utility.yul\":36622:36801   */\n      pop\n      jump\t// out\n        /* \"#utility.yul\":36807:37173   */\n    tag_411:\n        /* \"#utility.yul\":36949:36952   */\n      0x00\n        /* \"#utility.yul\":36970:37037   */\n      tag_766\n        /* \"#utility.yul\":37034:37036   */\n      0x1d\n        /* \"#utility.yul\":37029:37032   */\n      dup4\n        /* \"#utility.yul\":36970:37037   */\n      tag_339\n      jump\t// in\n    tag_766:\n        /* \"#utility.yul\":36963:37037   */\n      swap2\n      pop\n        /* \"#utility.yul\":37046:37139   */\n      tag_767\n        /* \"#utility.yul\":37135:37138   */\n      dup3\n        /* \"#utility.yul\":37046:37139   */\n      tag_410\n      jump\t// in\n    tag_767:\n        /* \"#utility.yul\":37164:37166   */\n      0x20\n        /* \"#utility.yul\":37159:37162   */\n      dup3\n        /* \"#utility.yul\":37155:37167   */\n      add\n        /* \"#utility.yul\":37148:37167   */\n      swap1\n      pop\n        /* \"#utility.yul\":36807:37173   */\n      swap2\n      swap1\n      pop\n      jump\t// out\n        /* \"#utility.yul\":37179:37598   */\n    tag_218:\n        /* \"#utility.yul\":37345:37349   */\n      0x00\n        /* \"#utility.yul\":37383:37385   */\n      0x20\n        /* \"#utility.yul\":37372:37381   */\n      dup3\n        /* \"#utility.yul\":37368:37386   */\n      add\n        /* \"#utility.yul\":37360:37386   */\n      swap1\n      pop\n        /* \"#utility.yul\":37432:37441   */\n      dup2\n        /* \"#utility.yul\":37426:37430   */\n      dup2\n        /* \"#utility.yul\":37422:37442   */\n      sub\n        /* \"#utility.yul\":37418:37419   */\n      0x00\n        /* \"#utility.yul\":37407:37416   */\n      dup4\n        /* \"#utility.yul\":37403:37420   */\n      add\n        /* \"#utility.yul\":37396:37443   */\n      mstore\n        /* \"#utility.yul\":37460:37591   */\n      tag_769\n        /* \"#utility.yul\":37586:37590   */\n      dup2\n        /* \"#utility.yul\":37460:37591   */\n      tag_411\n      jump\t// in\n    tag_769:\n        /* \"#utility.yul\":37452:37591   */\n      swap1\n      pop\n        /* \"#utility.yul\":37179:37598   */\n      swap2\n      swap1\n      pop\n      jump\t// out\n        /* \"#utility.yul\":37604:37909   */\n    tag_412:\n        /* \"#utility.yul\":37744:37778   */\n      0x536f6c6f207075656465732072656369626972206c6f732070726f6669747320\n        /* \"#utility.yul\":37740:37741   */\n      0x00\n        /* \"#utility.yul\":37732:37738   */\n      dup3\n        /* \"#utility.yul\":37728:37742   */\n      add\n        /* \"#utility.yul\":37721:37779   */\n      mstore\n        /* \"#utility.yul\":37813:37847   */\n      0x6465206573746520636f6e747261746f207369206572657320656c2070726f70\n        /* \"#utility.yul\":37808:37810   */\n      0x20\n        /* \"#utility.yul\":37800:37806   */\n      dup3\n        /* \"#utility.yul\":37796:37811   */\n      add\n        /* \"#utility.yul\":37789:37848   */\n      mstore\n        /* \"#utility.yul\":37882:37901   */\n      0x6965746172696f2064656c206d69736d6f000000000000000000000000000000\n        /* \"#utility.yul\":37877:37879   */\n      0x40\n        /* \"#utility.yul\":37869:37875   */\n      dup3\n        /* \"#utility.yul\":37865:37880   */\n      add\n        /* \"#utility.yul\":37858:37902   */\n      mstore\n        /* \"#utility.yul\":37604:37909   */\n      pop\n      jump\t// out\n        /* \"#utility.yul\":37915:38281   */\n    tag_413:\n        /* \"#utility.yul\":38057:38060   */\n      0x00\n        /* \"#utility.yul\":38078:38145   */\n      tag_772\n        /* \"#utility.yul\":38142:38144   */\n      0x51\n        /* \"#utility.yul\":38137:38140   */\n      dup4\n        /* \"#utility.yul\":38078:38145   */\n      tag_339\n      jump\t// in\n    tag_772:\n        /* \"#utility.yul\":38071:38145   */\n      swap2\n      pop\n        /* \"#utility.yul\":38154:38247   */\n      tag_773\n        /* \"#utility.yul\":38243:38246   */\n      dup3\n        /* \"#utility.yul\":38154:38247   */\n      tag_412\n      jump\t// in\n    tag_773:\n        /* \"#utility.yul\":38272:38274   */\n      0x60\n        /* \"#utility.yul\":38267:38270   */\n      dup3\n        /* \"#utility.yul\":38263:38275   */\n      add\n        /* \"#utility.yul\":38256:38275   */\n      swap1\n      pop\n        /* \"#utility.yul\":37915:38281   */\n      swap2\n      swap1\n      pop\n      jump\t// out\n        /* \"#utility.yul\":38287:38706   */\n    tag_222:\n        /* \"#utility.yul\":38453:38457   */\n      0x00\n        /* \"#utility.yul\":38491:38493   */\n      0x20\n        /* \"#utility.yul\":38480:38489   */\n      dup3\n        /* \"#utility.yul\":38476:38494   */\n      add\n        /* \"#utility.yul\":38468:38494   */\n      swap1\n      pop\n        /* \"#utility.yul\":38540:38549   */\n      dup2\n        /* \"#utility.yul\":38534:38538   */\n      dup2\n        /* \"#utility.yul\":38530:38550   */\n      sub\n        /* \"#utility.yul\":38526:38527   */\n      0x00\n        /* \"#utility.yul\":38515:38524   */\n      dup4\n        /* \"#utility.yul\":38511:38528   */\n      add\n        /* \"#utility.yul\":38504:38551   */\n      mstore\n        /* \"#utility.yul\":38568:38699   */\n      tag_775\n        /* \"#utility.yul\":38694:38698   */\n      dup2\n        /* \"#utility.yul\":38568:38699   */\n      tag_413\n      jump\t// in\n    tag_775:\n        /* \"#utility.yul\":38560:38699   */\n      swap1\n      pop\n        /* \"#utility.yul\":38287:38706   */\n      swap2\n      swap1\n      pop\n      jump\t// out\n        /* \"#utility.yul\":38712:38906   */\n    tag_225:\n        /* \"#utility.yul\":38752:38756   */\n      0x00\n        /* \"#utility.yul\":38772:38792   */\n      tag_777\n        /* \"#utility.yul\":38790:38791   */\n      dup3\n        /* \"#utility.yul\":38772:38792   */\n      tag_326\n      jump\t// in\n    tag_777:\n        /* \"#utility.yul\":38767:38792   */\n      swap2\n      pop\n        /* \"#utility.yul\":38806:38826   */\n      tag_778\n        /* \"#utility.yul\":38824:38825   */\n      dup4\n        /* \"#utility.yul\":38806:38826   */\n      tag_326\n      jump\t// in\n    tag_778:\n        /* \"#utility.yul\":38801:38826   */\n      swap3\n      pop\n        /* \"#utility.yul\":38850:38851   */\n      dup3\n        /* \"#utility.yul\":38847:38848   */\n      dup3\n        /* \"#utility.yul\":38843:38852   */\n      sub\n        /* \"#utility.yul\":38835:38852   */\n      swap1\n      pop\n        /* \"#utility.yul\":38874:38875   */\n      dup2\n        /* \"#utility.yul\":38868:38872   */\n      dup2\n        /* \"#utility.yul\":38865:38876   */\n      gt\n        /* \"#utility.yul\":38862:38899   */\n      iszero\n      tag_779\n      jumpi\n        /* \"#utility.yul\":38879:38897   */\n      tag_780\n      tag_363\n      jump\t// in\n    tag_780:\n        /* \"#utility.yul\":38862:38899   */\n    tag_779:\n        /* \"#utility.yul\":38712:38906   */\n      swap3\n      swap2\n      pop\n      pop\n      jump\t// out\n        /* \"#utility.yul\":38912:39092   */\n    tag_414:\n        /* \"#utility.yul\":39052:39084   */\n      0x4e6f206861792062656e65666963696f732070617261207265636f6765720000\n        /* \"#utility.yul\":39048:39049   */\n      0x00\n        /* \"#utility.yul\":39040:39046   */\n      dup3\n        /* \"#utility.yul\":39036:39050   */\n      add\n        /* \"#utility.yul\":39029:39085   */\n      mstore\n        /* \"#utility.yul\":38912:39092   */\n      pop\n      jump\t// out\n        /* \"#utility.yul\":39098:39464   */\n    tag_415:\n        /* \"#utility.yul\":39240:39243   */\n      0x00\n        /* \"#utility.yul\":39261:39328   */\n      tag_783\n        /* \"#utility.yul\":39325:39327   */\n      0x1e\n        /* \"#utility.yul\":39320:39323   */\n      dup4\n        /* \"#utility.yul\":39261:39328   */\n      tag_339\n      jump\t// in\n    tag_783:\n        /* \"#utility.yul\":39254:39328   */\n      swap2\n      pop\n        /* \"#utility.yul\":39337:39430   */\n      tag_784\n        /* \"#utility.yul\":39426:39429   */\n      dup3\n        /* \"#utility.yul\":39337:39430   */\n      tag_414\n      jump\t// in\n    tag_784:\n        /* \"#utility.yul\":39455:39457   */\n      0x20\n        /* \"#utility.yul\":39450:39453   */\n      dup3\n        /* \"#utility.yul\":39446:39458   */\n      add\n        /* \"#utility.yul\":39439:39458   */\n      swap1\n      pop\n        /* \"#utility.yul\":39098:39464   */\n      swap2\n      swap1\n      pop\n      jump\t// out\n        /* \"#utility.yul\":39470:39889   */\n    tag_228:\n        /* \"#utility.yul\":39636:39640   */\n      0x00\n        /* \"#utility.yul\":39674:39676   */\n      0x20\n        /* \"#utility.yul\":39663:39672   */\n      dup3\n        /* \"#utility.yul\":39659:39677   */\n      add\n        /* \"#utility.yul\":39651:39677   */\n      swap1\n      pop\n        /* \"#utility.yul\":39723:39732   */\n      dup2\n        /* \"#utility.yul\":39717:39721   */\n      dup2\n        /* \"#utility.yul\":39713:39733   */\n      sub\n        /* \"#utility.yul\":39709:39710   */\n      0x00\n        /* \"#utility.yul\":39698:39707   */\n      dup4\n        /* \"#utility.yul\":39694:39711   */\n      add\n        /* \"#utility.yul\":39687:39734   */\n      mstore\n        /* \"#utility.yul\":39751:39882   */\n      tag_786\n        /* \"#utility.yul\":39877:39881   */\n      dup2\n        /* \"#utility.yul\":39751:39882   */\n      tag_415\n      jump\t// in\n    tag_786:\n        /* \"#utility.yul\":39743:39882   */\n      swap1\n      pop\n        /* \"#utility.yul\":39470:39889   */\n      swap2\n      swap1\n      pop\n      jump\t// out\n        /* \"#utility.yul\":39895:40166   */\n    tag_236:\n        /* \"#utility.yul\":39933:39940   */\n      0x00\n        /* \"#utility.yul\":39956:39974   */\n      tag_788\n        /* \"#utility.yul\":39972:39973   */\n      dup3\n        /* \"#utility.yul\":39956:39974   */\n      tag_360\n      jump\t// in\n    tag_788:\n        /* \"#utility.yul\":39951:39974   */\n      swap2\n      pop\n        /* \"#utility.yul\":39988:40006   */\n      tag_789\n        /* \"#utility.yul\":40004:40005   */\n      dup4\n        /* \"#utility.yul\":39988:40006   */\n      tag_360\n      jump\t// in\n    tag_789:\n        /* \"#utility.yul\":39983:40006   */\n      swap3\n      pop\n        /* \"#utility.yul\":40041:40042   */\n      dup3\n        /* \"#utility.yul\":40038:40039   */\n      dup3\n        /* \"#utility.yul\":40034:40043   */\n      mul\n        /* \"#utility.yul\":40063:40091   */\n      tag_790\n        /* \"#utility.yul\":40079:40090   */\n      dup2\n        /* \"#utility.yul\":40063:40091   */\n      tag_360\n      jump\t// in\n    tag_790:\n        /* \"#utility.yul\":40052:40091   */\n      swap2\n      pop\n        /* \"#utility.yul\":40123:40134   */\n      dup1\n        /* \"#utility.yul\":40114:40121   */\n      dup3\n        /* \"#utility.yul\":40111:40135   */\n      eq\n        /* \"#utility.yul\":40101:40159   */\n      tag_791\n      jumpi\n        /* \"#utility.yul\":40139:40157   */\n      tag_792\n      tag_363\n      jump\t// in\n    tag_792:\n        /* \"#utility.yul\":40101:40159   */\n    tag_791:\n        /* \"#utility.yul\":39941:40166   */\n      pop\n        /* \"#utility.yul\":39895:40166   */\n      swap3\n      swap2\n      pop\n      pop\n      jump\t// out\n        /* \"#utility.yul\":40172:40464   */\n    tag_416:\n        /* \"#utility.yul\":40312:40346   */\n      0x4e6f207469656e657320737566696369656e7465732077656973207061726120\n        /* \"#utility.yul\":40308:40309   */\n      0x00\n        /* \"#utility.yul\":40300:40306   */\n      dup3\n        /* \"#utility.yul\":40296:40310   */\n      add\n        /* \"#utility.yul\":40289:40347   */\n      mstore\n        /* \"#utility.yul\":40381:40415   */\n      0x696e6372656d656e746172206c6120706f74656e636961206465207475732061\n        /* \"#utility.yul\":40376:40378   */\n      0x20\n        /* \"#utility.yul\":40368:40374   */\n      dup3\n        /* \"#utility.yul\":40364:40379   */\n      add\n        /* \"#utility.yul\":40357:40416   */\n      mstore\n        /* \"#utility.yul\":40450:40456   */\n      0x726d617300000000000000000000000000000000000000000000000000000000\n        /* \"#utility.yul\":40445:40447   */\n      0x40\n        /* \"#utility.yul\":40437:40443   */\n      dup3\n        /* \"#utility.yul\":40433:40448   */\n      add\n        /* \"#utility.yul\":40426:40457   */\n      mstore\n        /* \"#utility.yul\":40172:40464   */\n      pop\n      jump\t// out\n        /* \"#utility.yul\":40470:40836   */\n    tag_417:\n        /* \"#utility.yul\":40612:40615   */\n      0x00\n        /* \"#utility.yul\":40633:40700   */\n      tag_795\n        /* \"#utility.yul\":40697:40699   */\n      0x44\n        /* \"#utility.yul\":40692:40695   */\n      dup4\n        /* \"#utility.yul\":40633:40700   */\n      tag_339\n      jump\t// in\n    tag_795:\n        /* \"#utility.yul\":40626:40700   */\n      swap2\n      pop\n        /* \"#utility.yul\":40709:40802   */\n      tag_796\n        /* \"#utility.yul\":40798:40801   */\n      dup3\n        /* \"#utility.yul\":40709:40802   */\n      tag_416\n      jump\t// in\n    tag_796:\n        /* \"#utility.yul\":40827:40829   */\n      0x60\n        /* \"#utility.yul\":40822:40825   */\n      dup3\n        /* \"#utility.yul\":40818:40830   */\n      add\n        /* \"#utility.yul\":40811:40830   */\n      swap1\n      pop\n        /* \"#utility.yul\":40470:40836   */\n      swap2\n      swap1\n      pop\n      jump\t// out\n        /* \"#utility.yul\":40842:41261   */\n    tag_239:\n        /* \"#utility.yul\":41008:41012   */\n      0x00\n        /* \"#utility.yul\":41046:41048   */\n      0x20\n        /* \"#utility.yul\":41035:41044   */\n      dup3\n        /* \"#utility.yul\":41031:41049   */\n      add\n        /* \"#utility.yul\":41023:41049   */\n      swap1\n      pop\n        /* \"#utility.yul\":41095:41104   */\n      dup2\n        /* \"#utility.yul\":41089:41093   */\n      dup2\n        /* \"#utility.yul\":41085:41105   */\n      sub\n        /* \"#utility.yul\":41081:41082   */\n      0x00\n        /* \"#utility.yul\":41070:41079   */\n      dup4\n        /* \"#utility.yul\":41066:41083   */\n      add\n        /* \"#utility.yul\":41059:41106   */\n      mstore\n        /* \"#utility.yul\":41123:41254   */\n      tag_798\n        /* \"#utility.yul\":41249:41253   */\n      dup2\n        /* \"#utility.yul\":41123:41254   */\n      tag_417\n      jump\t// in\n    tag_798:\n        /* \"#utility.yul\":41115:41254   */\n      swap1\n      pop\n        /* \"#utility.yul\":40842:41261   */\n      swap2\n      swap1\n      pop\n      jump\t// out\n        /* \"#utility.yul\":41267:41445   */\n    tag_418:\n        /* \"#utility.yul\":41407:41437   */\n      0x456c20696d706f727465206120646520736572206d696c207765697300000000\n        /* \"#utility.yul\":41403:41404   */\n      0x00\n        /* \"#utility.yul\":41395:41401   */\n      dup3\n        /* \"#utility.yul\":41391:41405   */\n      add\n        /* \"#utility.yul\":41384:41438   */\n      mstore\n        /* \"#utility.yul\":41267:41445   */\n      pop\n      jump\t// out\n        /* \"#utility.yul\":41451:41817   */\n    tag_419:\n        /* \"#utility.yul\":41593:41596   */\n      0x00\n        /* \"#utility.yul\":41614:41681   */\n      tag_801\n        /* \"#utility.yul\":41678:41680   */\n      0x1c\n        /* \"#utility.yul\":41673:41676   */\n      dup4\n        /* \"#utility.yul\":41614:41681   */\n      tag_339\n      jump\t// in\n    tag_801:\n        /* \"#utility.yul\":41607:41681   */\n      swap2\n      pop\n        /* \"#utility.yul\":41690:41783   */\n      tag_802\n        /* \"#utility.yul\":41779:41782   */\n      dup3\n        /* \"#utility.yul\":41690:41783   */\n      tag_418\n      jump\t// in\n    tag_802:\n        /* \"#utility.yul\":41808:41810   */\n      0x20\n        /* \"#utility.yul\":41803:41806   */\n      dup3\n        /* \"#utility.yul\":41799:41811   */\n      add\n        /* \"#utility.yul\":41792:41811   */\n      swap1\n      pop\n        /* \"#utility.yul\":41451:41817   */\n      swap2\n      swap1\n      pop\n      jump\t// out\n        /* \"#utility.yul\":41823:42242   */\n    tag_247:\n        /* \"#utility.yul\":41989:41993   */\n      0x00\n        /* \"#utility.yul\":42027:42029   */\n      0x20\n        /* \"#utility.yul\":42016:42025   */\n      dup3\n        /* \"#utility.yul\":42012:42030   */\n      add\n        /* \"#utility.yul\":42004:42030   */\n      swap1\n      pop\n        /* \"#utility.yul\":42076:42085   */\n      dup2\n        /* \"#utility.yul\":42070:42074   */\n      dup2\n        /* \"#utility.yul\":42066:42086   */\n      sub\n        /* \"#utility.yul\":42062:42063   */\n      0x00\n        /* \"#utility.yul\":42051:42060   */\n      dup4\n        /* \"#utility.yul\":42047:42064   */\n      add\n        /* \"#utility.yul\":42040:42087   */\n      mstore\n        /* \"#utility.yul\":42104:42235   */\n      tag_804\n        /* \"#utility.yul\":42230:42234   */\n      dup2\n        /* \"#utility.yul\":42104:42235   */\n      tag_419\n      jump\t// in\n    tag_804:\n        /* \"#utility.yul\":42096:42235   */\n      swap1\n      pop\n        /* \"#utility.yul\":41823:42242   */\n      swap2\n      swap1\n      pop\n      jump\t// out\n        /* \"#utility.yul\":42248:43643   */\n    tag_258:\n        /* \"#utility.yul\":42365:42402   */\n      tag_806\n        /* \"#utility.yul\":42398:42401   */\n      dup3\n        /* \"#utility.yul\":42365:42402   */\n      tag_338\n      jump\t// in\n    tag_806:\n        /* \"#utility.yul\":42467:42485   */\n      0xffffffffffffffff\n        /* \"#utility.yul\":42459:42465   */\n      dup2\n        /* \"#utility.yul\":42456:42486   */\n      gt\n        /* \"#utility.yul\":42453:42509   */\n      iszero\n      tag_807\n      jumpi\n        /* \"#utility.yul\":42489:42507   */\n      tag_808\n      tag_251\n      jump\t// in\n    tag_808:\n        /* \"#utility.yul\":42453:42509   */\n    tag_807:\n        /* \"#utility.yul\":42533:42571   */\n      tag_809\n        /* \"#utility.yul\":42565:42569   */\n      dup3\n        /* \"#utility.yul\":42559:42570   */\n      sload\n        /* \"#utility.yul\":42533:42571   */\n      tag_118\n      jump\t// in\n    tag_809:\n        /* \"#utility.yul\":42618:42685   */\n      tag_810\n        /* \"#utility.yul\":42678:42684   */\n      dup3\n        /* \"#utility.yul\":42670:42676   */\n      dup3\n        /* \"#utility.yul\":42664:42668   */\n      dup6\n        /* \"#utility.yul\":42618:42685   */\n      tag_396\n      jump\t// in\n    tag_810:\n        /* \"#utility.yul\":42712:42713   */\n      0x00\n        /* \"#utility.yul\":42736:42740   */\n      0x20\n        /* \"#utility.yul\":42723:42740   */\n      swap1\n      pop\n        /* \"#utility.yul\":42768:42770   */\n      0x1f\n        /* \"#utility.yul\":42760:42766   */\n      dup4\n        /* \"#utility.yul\":42757:42771   */\n      gt\n        /* \"#utility.yul\":42785:42786   */\n      0x01\n        /* \"#utility.yul\":42780:43398   */\n      dup2\n      eq\n      tag_812\n      jumpi\n        /* \"#utility.yul\":43442:43443   */\n      0x00\n        /* \"#utility.yul\":43459:43465   */\n      dup5\n        /* \"#utility.yul\":43456:43533   */\n      iszero\n      tag_813\n      jumpi\n        /* \"#utility.yul\":43508:43517   */\n      dup3\n        /* \"#utility.yul\":43503:43506   */\n      dup8\n        /* \"#utility.yul\":43499:43518   */\n      add\n        /* \"#utility.yul\":43493:43519   */\n      mload\n        /* \"#utility.yul\":43484:43519   */\n      swap1\n      pop\n        /* \"#utility.yul\":43456:43533   */\n    tag_813:\n        /* \"#utility.yul\":43559:43626   */\n      tag_814\n        /* \"#utility.yul\":43619:43625   */\n      dup6\n        /* \"#utility.yul\":43612:43617   */\n      dup3\n        /* \"#utility.yul\":43559:43626   */\n      tag_399\n      jump\t// in\n    tag_814:\n        /* \"#utility.yul\":43553:43557   */\n      dup7\n        /* \"#utility.yul\":43546:43627   */\n      sstore\n        /* \"#utility.yul\":43415:43637   */\n      pop\n        /* \"#utility.yul\":42750:43637   */\n      jump(tag_811)\n        /* \"#utility.yul\":42780:43398   */\n    tag_812:\n        /* \"#utility.yul\":42832:42836   */\n      0x1f\n        /* \"#utility.yul\":42828:42837   */\n      not\n        /* \"#utility.yul\":42820:42826   */\n      dup5\n        /* \"#utility.yul\":42816:42838   */\n      and\n        /* \"#utility.yul\":42866:42903   */\n      tag_815\n        /* \"#utility.yul\":42898:42902   */\n      dup7\n        /* \"#utility.yul\":42866:42903   */\n      tag_385\n      jump\t// in\n    tag_815:\n        /* \"#utility.yul\":42925:42926   */\n      0x00\n        /* \"#utility.yul\":42939:43147   */\n    tag_816:\n        /* \"#utility.yul\":42953:42960   */\n      dup3\n        /* \"#utility.yul\":42950:42951   */\n      dup2\n        /* \"#utility.yul\":42947:42961   */\n      lt\n        /* \"#utility.yul\":42939:43147   */\n      iszero\n      tag_818\n      jumpi\n        /* \"#utility.yul\":43032:43041   */\n      dup5\n        /* \"#utility.yul\":43027:43030   */\n      dup10\n        /* \"#utility.yul\":43023:43042   */\n      add\n        /* \"#utility.yul\":43017:43043   */\n      mload\n        /* \"#utility.yul\":43009:43015   */\n      dup3\n        /* \"#utility.yul\":43002:43044   */\n      sstore\n        /* \"#utility.yul\":43083:43084   */\n      0x01\n        /* \"#utility.yul\":43075:43081   */\n      dup3\n        /* \"#utility.yul\":43071:43085   */\n      add\n        /* \"#utility.yul\":43061:43085   */\n      swap2\n      pop\n        /* \"#utility.yul\":43130:43132   */\n      0x20\n        /* \"#utility.yul\":43119:43128   */\n      dup6\n        /* \"#utility.yul\":43115:43133   */\n      add\n        /* \"#utility.yul\":43102:43133   */\n      swap5\n      pop\n        /* \"#utility.yul\":42976:42980   */\n      0x20\n        /* \"#utility.yul\":42973:42974   */\n      dup2\n        /* \"#utility.yul\":42969:42981   */\n      add\n        /* \"#utility.yul\":42964:42981   */\n      swap1\n      pop\n        /* \"#utility.yul\":42939:43147   */\n      jump(tag_816)\n    tag_818:\n        /* \"#utility.yul\":43175:43181   */\n      dup7\n        /* \"#utility.yul\":43166:43173   */\n      dup4\n        /* \"#utility.yul\":43163:43182   */\n      lt\n        /* \"#utility.yul\":43160:43339   */\n      iszero\n      tag_819\n      jumpi\n        /* \"#utility.yul\":43233:43242   */\n      dup5\n        /* \"#utility.yul\":43228:43231   */\n      dup10\n        /* \"#utility.yul\":43224:43243   */\n      add\n        /* \"#utility.yul\":43218:43244   */\n      mload\n        /* \"#utility.yul\":43276:43324   */\n      tag_820\n        /* \"#utility.yul\":43318:43322   */\n      0x1f\n        /* \"#utility.yul\":43310:43316   */\n      dup10\n        /* \"#utility.yul\":43306:43323   */\n      and\n        /* \"#utility.yul\":43295:43304   */\n      dup3\n        /* \"#utility.yul\":43276:43324   */\n      tag_398\n      jump\t// in\n    tag_820:\n        /* \"#utility.yul\":43268:43274   */\n      dup4\n        /* \"#utility.yul\":43261:43325   */\n      sstore\n        /* \"#utility.yul\":43183:43339   */\n      pop\n        /* \"#utility.yul\":43160:43339   */\n    tag_819:\n        /* \"#utility.yul\":43385:43386   */\n      0x01\n        /* \"#utility.yul\":43381:43382   */\n      0x02\n        /* \"#utility.yul\":43373:43379   */\n      dup9\n        /* \"#utility.yul\":43369:43383   */\n      mul\n        /* \"#utility.yul\":43365:43387   */\n      add\n        /* \"#utility.yul\":43359:43363   */\n      dup9\n        /* \"#utility.yul\":43352:43388   */\n      sstore\n        /* \"#utility.yul\":42787:43398   */\n      pop\n      pop\n      pop\n        /* \"#utility.yul\":42750:43637   */\n    tag_811:\n      pop\n        /* \"#utility.yul\":42340:43643   */\n      pop\n      pop\n      pop\n        /* \"#utility.yul\":42248:43643   */\n      pop\n      pop\n      jump\t// out\n        /* \"#utility.yul\":43649:43829   */\n    tag_271:\n        /* \"#utility.yul\":43697:43774   */\n      0x4e487b7100000000000000000000000000000000000000000000000000000000\n        /* \"#utility.yul\":43694:43695   */\n      0x00\n        /* \"#utility.yul\":43687:43775   */\n      mstore\n        /* \"#utility.yul\":43794:43798   */\n      0x32\n        /* \"#utility.yul\":43791:43792   */\n      0x04\n        /* \"#utility.yul\":43784:43799   */\n      mstore\n        /* \"#utility.yul\":43818:43822   */\n      0x24\n        /* \"#utility.yul\":43815:43816   */\n      0x00\n        /* \"#utility.yul\":43808:43823   */\n      revert\n        /* \"#utility.yul\":43835:43982   */\n    tag_420:\n        /* \"#utility.yul\":43936:43947   */\n      0x00\n        /* \"#utility.yul\":43973:43976   */\n      dup2\n        /* \"#utility.yul\":43958:43976   */\n      swap1\n      pop\n        /* \"#utility.yul\":43835:43982   */\n      swap3\n      swap2\n      pop\n      pop\n      jump\t// out\n        /* \"#utility.yul\":43988:44136   */\n    tag_421:\n        /* \"#utility.yul\":44086:44092   */\n      dup3\n        /* \"#utility.yul\":44081:44084   */\n      dup2\n        /* \"#utility.yul\":44076:44079   */\n      dup4\n        /* \"#utility.yul\":44063:44093   */\n      calldatacopy\n        /* \"#utility.yul\":44127:44128   */\n      0x00\n        /* \"#utility.yul\":44118:44124   */\n      dup4\n        /* \"#utility.yul\":44113:44116   */\n      dup4\n        /* \"#utility.yul\":44109:44125   */\n      add\n        /* \"#utility.yul\":44102:44129   */\n      mstore\n        /* \"#utility.yul\":43988:44136   */\n      pop\n      pop\n      pop\n      jump\t// out\n        /* \"#utility.yul\":44164:44491   */\n    tag_422:\n        /* \"#utility.yul\":44278:44281   */\n      0x00\n        /* \"#utility.yul\":44299:44387   */\n      tag_825\n        /* \"#utility.yul\":44380:44386   */\n      dup4\n        /* \"#utility.yul\":44375:44378   */\n      dup6\n        /* \"#utility.yul\":44299:44387   */\n      tag_420\n      jump\t// in\n    tag_825:\n        /* \"#utility.yul\":44292:44387   */\n      swap4\n      pop\n        /* \"#utility.yul\":44397:44453   */\n      tag_826\n        /* \"#utility.yul\":44446:44452   */\n      dup4\n        /* \"#utility.yul\":44441:44444   */\n      dup6\n        /* \"#utility.yul\":44434:44439   */\n      dup5\n        /* \"#utility.yul\":44397:44453   */\n      tag_421\n      jump\t// in\n    tag_826:\n        /* \"#utility.yul\":44478:44484   */\n      dup3\n        /* \"#utility.yul\":44473:44476   */\n      dup5\n        /* \"#utility.yul\":44469:44485   */\n      add\n        /* \"#utility.yul\":44462:44485   */\n      swap1\n      pop\n        /* \"#utility.yul\":44164:44491   */\n      swap4\n      swap3\n      pop\n      pop\n      pop\n      jump\t// out\n        /* \"#utility.yul\":44497:44788   */\n    tag_278:\n        /* \"#utility.yul\":44637:44640   */\n      0x00\n        /* \"#utility.yul\":44659:44762   */\n      tag_828\n        /* \"#utility.yul\":44758:44761   */\n      dup3\n        /* \"#utility.yul\":44749:44755   */\n      dup5\n        /* \"#utility.yul\":44741:44747   */\n      dup7\n        /* \"#utility.yul\":44659:44762   */\n      tag_422\n      jump\t// in\n    tag_828:\n        /* \"#utility.yul\":44652:44762   */\n      swap2\n      pop\n        /* \"#utility.yul\":44779:44782   */\n      dup2\n        /* \"#utility.yul\":44772:44782   */\n      swap1\n      pop\n        /* \"#utility.yul\":44497:44788   */\n      swap4\n      swap3\n      pop\n      pop\n      pop\n      jump\t// out\n        /* \"#utility.yul\":44794:44974   */\n    tag_423:\n        /* \"#utility.yul\":44842:44919   */\n      0x4e487b7100000000000000000000000000000000000000000000000000000000\n        /* \"#utility.yul\":44839:44840   */\n      0x00\n        /* \"#utility.yul\":44832:44920   */\n      mstore\n        /* \"#utility.yul\":44939:44943   */\n      0x12\n        /* \"#utility.yul\":44936:44937   */\n      0x04\n        /* \"#utility.yul\":44929:44944   */\n      mstore\n        /* \"#utility.yul\":44963:44967   */\n      0x24\n        /* \"#utility.yul\":44960:44961   */\n      0x00\n        /* \"#utility.yul\":44953:44968   */\n      revert\n        /* \"#utility.yul\":44980:45159   */\n    tag_287:\n        /* \"#utility.yul\":45018:45019   */\n      0x00\n        /* \"#utility.yul\":45035:45053   */\n      tag_831\n        /* \"#utility.yul\":45051:45052   */\n      dup3\n        /* \"#utility.yul\":45035:45053   */\n      tag_360\n      jump\t// in\n    tag_831:\n        /* \"#utility.yul\":45030:45053   */\n      swap2\n      pop\n        /* \"#utility.yul\":45067:45085   */\n      tag_832\n        /* \"#utility.yul\":45083:45084   */\n      dup4\n        /* \"#utility.yul\":45067:45085   */\n      tag_360\n      jump\t// in\n    tag_832:\n        /* \"#utility.yul\":45062:45085   */\n      swap3\n      pop\n        /* \"#utility.yul\":45104:45105   */\n      dup3\n        /* \"#utility.yul\":45094:45129   */\n      tag_833\n      jumpi\n        /* \"#utility.yul\":45109:45127   */\n      tag_834\n      tag_423\n      jump\t// in\n    tag_834:\n        /* \"#utility.yul\":45094:45129   */\n    tag_833:\n        /* \"#utility.yul\":45151:45152   */\n      dup3\n        /* \"#utility.yul\":45148:45149   */\n      dup3\n        /* \"#utility.yul\":45144:45153   */\n      div\n        /* \"#utility.yul\":45139:45153   */\n      swap1\n      pop\n        /* \"#utility.yul\":44980:45159   */\n      swap3\n      swap2\n      pop\n      pop\n      jump\t// out\n\n    auxdata: 0xa2646970667358221220d727afcb9ea4e0517768e275381e183b2dc775ab744319a37b036582bca51a1064736f6c634300081a0033\n}\n",
				"bytecode": {
					"linkReferences": {},
					"object": "60806040526127105f555f6004553480156017575f80fd5b503360055f6101000a81548173ffffffffffffffffffffffffffffffffffffffff021916908373ffffffffffffffffffffffffffffffffffffffff160217905550613bb3806100655f395ff3fe6080604052600436106100dc575f3560e01c806350fac4f11161007e578063c958e0d611610058578063c958e0d6146102a6578063d6ad8a94146102bc578063e85e001b146102d8578063eb11675614610302576100dc565b806350fac4f1146102065780636352211e1461022e57806370a082311461026a576100dc565b80630a0eac29116100ba5780630a0eac291461017457806323b872dd1461019057806342842e0e146101ac5780634810bc59146101c8576100dc565b806301ffc9a7146100e0578063081812fc1461011c578063095ea7b314610158575b5f80fd5b3480156100eb575f80fd5b5061010660048036038101906101019190612397565b610332565b60405161011391906123dc565b60405180910390f35b348015610127575f80fd5b50610142600480360381019061013d9190612428565b610403565b60405161014f9190612492565b60405180910390f35b610172600480360381019061016d91906124d5565b61049b565b005b61018e60048036038101906101899190612574565b61073e565b005b6101aa60048036038101906101a591906125e5565b610b19565b005b6101c660048036038101906101c191906125e5565b610efd565b005b3480156101d3575f80fd5b506101ee60048036038101906101e99190612428565b611409565b6040516101fd939291906128a0565b60405180910390f35b348015610211575f80fd5b5061022c60048036038101906102279190612428565b611607565b005b348015610239575f80fd5b50610254600480360381019061024f9190612428565b6118ed565b6040516102619190612492565b60405180910390f35b348015610275575f80fd5b50610290600480360381019061028b91906128e3565b6119ca565b60405161029d919061291d565b60405180910390f35b3480156102b1575f80fd5b506102ba611a7e565b005b6102d660048036038101906102d1919061296c565b611bda565b005b3480156102e3575f80fd5b506102ec611d9d565b6040516102f9919061291d565b60405180910390f35b61031c600480360381019061031791906129aa565b611da3565b604051610329919061291d565b60405180910390f35b5f7f73884ab3000000000000000000000000000000000000000000000000000000007bffffffffffffffffffffffffffffffffffffffffffffffffffffffff1916827bffffffffffffffffffffffffffffffffffffffffffffffffffffffff191614806103fc57507f01ffc9a7000000000000000000000000000000000000000000000000000000007bffffffffffffffffffffffffffffffffffffffffffffffffffffffff1916827bffffffffffffffffffffffffffffffffffffffffffffffffffffffff1916145b9050919050565b5f6127108211801561042457506004546127106104209190612a22565b8211155b610463576040517f08c379a000000000000000000000000000000000000000000000000000000000815260040161045a90612a9f565b60405180910390fd5b60025f8381526020019081526020015f205f9054906101000a900473ffffffffffffffffffffffffffffffffffffffff169050919050565b60015f8281526020019081526020015f206003015f9054906101000a900473ffffffffffffffffffffffffffffffffffffffff1673ffffffffffffffffffffffffffffffffffffffff163373ffffffffffffffffffffffffffffffffffffffff161461053c576040517f08c379a000000000000000000000000000000000000000000000000000000000815260040161053390612b2d565b60405180910390fd5b5f73ffffffffffffffffffffffffffffffffffffffff1660015f8381526020019081526020015f206003015f9054906101000a900473ffffffffffffffffffffffffffffffffffffffff1673ffffffffffffffffffffffffffffffffffffffff16036105dd576040517f08c379a00000000000000000000000000000000000000000000000000000000081526004016105d490612b95565b60405180910390fd5b5f61064a60015f8481526020019081526020015f2060010160010180548060200260200160405190810160405280929190818152602001828054801561064057602002820191905f5260205f20905b81548152602001906001019080831161062c575b50505050506120a1565b90508034101561068f576040517f08c379a000000000000000000000000000000000000000000000000000000000815260040161068690612c23565b60405180910390fd5b8260025f8481526020019081526020015f205f6101000a81548173ffffffffffffffffffffffffffffffffffffffff021916908373ffffffffffffffffffffffffffffffffffffffff160217905550818373ffffffffffffffffffffffffffffffffffffffff163373ffffffffffffffffffffffffffffffffffffffff167f8c5be1e5ebec7d5bd14f71427d1e84f3dd0314c0f7b2291e5b200ac8c7c3b92560405160405180910390a4505050565b8383835f73ffffffffffffffffffffffffffffffffffffffff1660015f8581526020019081526020015f206003015f9054906101000a900473ffffffffffffffffffffffffffffffffffffffff1673ffffffffffffffffffffffffffffffffffffffff16036107e2576040517f08c379a00000000000000000000000000000000000000000000000000000000081526004016107d990612cb1565b60405180910390fd5b6108cd60015f8581526020019081526020015f206001015f01805480602002602001604051908101604052809291908181526020015f905b828210156108c2578382905f5260205f2001805461083790612cfc565b80601f016020809104026020016040519081016040528092919081815260200182805461086390612cfc565b80156108ae5780601f10610885576101008083540402835291602001916108ae565b820191905f5260205f20905b81548152906001019060200180831161089157829003601f168201915b50505050508152602001906001019061081a565b5050505083836120f0565b1561090d576040517f08c379a000000000000000000000000000000000000000000000000000000000815260040161090490612d9c565b60405180910390fd5b5f60015f8981526020019081526020015f2090503373ffffffffffffffffffffffffffffffffffffffff16816003015f9054906101000a900473ffffffffffffffffffffffffffffffffffffffff1673ffffffffffffffffffffffffffffffffffffffff1614806109d9575060025f8981526020019081526020015f205f9054906101000a900473ffffffffffffffffffffffffffffffffffffffff1673ffffffffffffffffffffffffffffffffffffffff163373ffffffffffffffffffffffffffffffffffffffff16145b610a18576040517f08c379a0000000000000000000000000000000000000000000000000000000008152600401610a0f90612e2a565b60405180910390fd5b5f816001015f018054905090505f816002610a339190612f77565b87610a3e9190612fc1565b905080341015610a83576040517f08c379a0000000000000000000000000000000000000000000000000000000008152600401610a7a90613072565b60405180910390fd5b60015f8b81526020019081526020015f206001015f01898990918060018154018082558091505060019003905f5260205f20015f909192909192909192909192509182610ad1929190613264565b5060015f8b81526020019081526020015f2060010160010187908060018154018082558091505060019003905f5260205f20015f909190919091505550505050505050505050565b60015f8281526020019081526020015f206003015f9054906101000a900473ffffffffffffffffffffffffffffffffffffffff1673ffffffffffffffffffffffffffffffffffffffff163373ffffffffffffffffffffffffffffffffffffffff161480610be1575060025f8281526020019081526020015f205f9054906101000a900473ffffffffffffffffffffffffffffffffffffffff1673ffffffffffffffffffffffffffffffffffffffff163373ffffffffffffffffffffffffffffffffffffffff16145b610c20576040517f08c379a0000000000000000000000000000000000000000000000000000000008152600401610c17906133c7565b60405180910390fd5b8273ffffffffffffffffffffffffffffffffffffffff1660015f8381526020019081526020015f206003015f9054906101000a900473ffffffffffffffffffffffffffffffffffffffff1673ffffffffffffffffffffffffffffffffffffffff1614610cc1576040517f08c379a0000000000000000000000000000000000000000000000000000000008152600401610cb8906134c7565b60405180910390fd5b5f610d2e60015f8481526020019081526020015f20600101600101805480602002602001604051908101604052809291908181526020018280548015610d2457602002820191905f5260205f20905b815481526020019060010190808311610d10575b50505050506120a1565b905080341015610d73576040517f08c379a0000000000000000000000000000000000000000000000000000000008152600401610d6a90612c23565b60405180910390fd5b8260015f8481526020019081526020015f206003015f6101000a81548173ffffffffffffffffffffffffffffffffffffffff021916908373ffffffffffffffffffffffffffffffffffffffff16021790555060035f8573ffffffffffffffffffffffffffffffffffffffff1673ffffffffffffffffffffffffffffffffffffffff1681526020019081526020015f205f815480929190610e12906134e5565b919050555060035f8473ffffffffffffffffffffffffffffffffffffffff1673ffffffffffffffffffffffffffffffffffffffff1681526020019081526020015f205f815480929190610e649061350c565b919050555060025f8381526020019081526020015f205f6101000a81549073ffffffffffffffffffffffffffffffffffffffff0219169055818373ffffffffffffffffffffffffffffffffffffffff168573ffffffffffffffffffffffffffffffffffffffff167fddf252ad1be2c89b69c2b068fc378daa952ba7f163c4a11628f55a4df523b3ef60405160405180910390a450505050565b60015f8281526020019081526020015f206003015f9054906101000a900473ffffffffffffffffffffffffffffffffffffffff1673ffffffffffffffffffffffffffffffffffffffff163373ffffffffffffffffffffffffffffffffffffffff161480610fc5575060025f8281526020019081526020015f205f9054906101000a900473ffffffffffffffffffffffffffffffffffffffff1673ffffffffffffffffffffffffffffffffffffffff163373ffffffffffffffffffffffffffffffffffffffff16145b611004576040517f08c379a0000000000000000000000000000000000000000000000000000000008152600401610ffb906133c7565b60405180910390fd5b8273ffffffffffffffffffffffffffffffffffffffff1660015f8381526020019081526020015f206003015f9054906101000a900473ffffffffffffffffffffffffffffffffffffffff1673ffffffffffffffffffffffffffffffffffffffff16146110a5576040517f08c379a000000000000000000000000000000000000000000000000000000000815260040161109c906134c7565b60405180910390fd5b5f61111260015f8481526020019081526020015f2060010160010180548060200260200160405190810160405280929190818152602001828054801561110857602002820191905f5260205f20905b8154815260200190600101908083116110f4575b50505050506120a1565b905080341015611157576040517f08c379a000000000000000000000000000000000000000000000000000000000815260040161114e90612c23565b60405180910390fd5b5f8373ffffffffffffffffffffffffffffffffffffffff163b111561127f575f8373ffffffffffffffffffffffffffffffffffffffff1663150b7a023387866040518463ffffffff1660e01b81526004016111b493929190613586565b6020604051808303815f875af11580156111d0573d5f803e3d5ffd5b505050506040513d601f19601f820116820180604052508101906111f491906135e2565b905063150b7a0260e01b7bffffffffffffffffffffffffffffffffffffffffffffffffffffffff1916817bffffffffffffffffffffffffffffffffffffffffffffffffffffffff19161461127d576040517f08c379a0000000000000000000000000000000000000000000000000000000008152600401611274906136a3565b60405180910390fd5b505b8260015f8481526020019081526020015f206003015f6101000a81548173ffffffffffffffffffffffffffffffffffffffff021916908373ffffffffffffffffffffffffffffffffffffffff16021790555060035f8573ffffffffffffffffffffffffffffffffffffffff1673ffffffffffffffffffffffffffffffffffffffff1681526020019081526020015f205f81548092919061131e906134e5565b919050555060035f8473ffffffffffffffffffffffffffffffffffffffff1673ffffffffffffffffffffffffffffffffffffffff1681526020019081526020015f205f8154809291906113709061350c565b919050555060025f8381526020019081526020015f205f6101000a81549073ffffffffffffffffffffffffffffffffffffffff0219169055818373ffffffffffffffffffffffffffffffffffffffff168573ffffffffffffffffffffffffffffffffffffffff167fddf252ad1be2c89b69c2b068fc378daa952ba7f163c4a11628f55a4df523b3ef60405160405180910390a450505050565b6001602052805f5260405f205f91509050805f01805461142890612cfc565b80601f016020809104026020016040519081016040528092919081815260200182805461145490612cfc565b801561149f5780601f106114765761010080835404028352916020019161149f565b820191905f5260205f20905b81548152906001019060200180831161148257829003601f168201915b505050505090806001016040518060400160405290815f8201805480602002602001604051908101604052809291908181526020015f905b8282101561157f578382905f5260205f200180546114f490612cfc565b80601f016020809104026020016040519081016040528092919081815260200182805461152090612cfc565b801561156b5780601f106115425761010080835404028352916020019161156b565b820191905f5260205f20905b81548152906001019060200180831161154e57829003601f168201915b5050505050815260200190600101906114d7565b505050508152602001600182018054806020026020016040519081016040528092919081815260200182805480156115d457602002820191905f5260205f20905b8154815260200190600101908083116115c0575b50505050508152505090806003015f9054906101000a900473ffffffffffffffffffffffffffffffffffffffff16905083565b3373ffffffffffffffffffffffffffffffffffffffff1660015f8381526020019081526020015f206003015f9054906101000a900473ffffffffffffffffffffffffffffffffffffffff1673ffffffffffffffffffffffffffffffffffffffff1614806116cf575060025f8281526020019081526020015f205f9054906101000a900473ffffffffffffffffffffffffffffffffffffffff1673ffffffffffffffffffffffffffffffffffffffff163373ffffffffffffffffffffffffffffffffffffffff16145b61170e576040517f08c379a000000000000000000000000000000000000000000000000000000000815260040161170590612e2a565b60405180910390fd5b60015f8281526020019081526020015f205f8082015f61172e91906121e1565b600182015f8082015f611741919061221e565b600182015f611750919061223c565b5050600382015f6101000a81549073ffffffffffffffffffffffffffffffffffffffff0219169055505060045f81548092919061178c906134e5565b919050555060035f60015f8481526020019081526020015f206003015f9054906101000a900473ffffffffffffffffffffffffffffffffffffffff1673ffffffffffffffffffffffffffffffffffffffff1673ffffffffffffffffffffffffffffffffffffffff1681526020019081526020015f205f815480929190611811906134e5565b919050555060025f8281526020019081526020015f205f6101000a81549073ffffffffffffffffffffffffffffffffffffffff02191690553373ffffffffffffffffffffffffffffffffffffffff166108fc6103e890811502906040515f60405180830381858888f1935050505015801561188e573d5f803e3d5ffd5b50805f73ffffffffffffffffffffffffffffffffffffffff163373ffffffffffffffffffffffffffffffffffffffff167fddf252ad1be2c89b69c2b068fc378daa952ba7f163c4a11628f55a4df523b3ef60405160405180910390a450565b5f8073ffffffffffffffffffffffffffffffffffffffff1660015f8481526020019081526020015f206003015f9054906101000a900473ffffffffffffffffffffffffffffffffffffffff1673ffffffffffffffffffffffffffffffffffffffff160361198f576040517f08c379a000000000000000000000000000000000000000000000000000000000815260040161198690612b95565b60405180910390fd5b60015f8381526020019081526020015f206003015f9054906101000a900473ffffffffffffffffffffffffffffffffffffffff169050919050565b5f8073ffffffffffffffffffffffffffffffffffffffff168273ffffffffffffffffffffffffffffffffffffffff1603611a39576040517f08c379a0000000000000000000000000000000000000000000000000000000008152600401611a309061370b565b60405180910390fd5b60035f8373ffffffffffffffffffffffffffffffffffffffff1673ffffffffffffffffffffffffffffffffffffffff1681526020019081526020015f20549050919050565b60055f9054906101000a900473ffffffffffffffffffffffffffffffffffffffff1673ffffffffffffffffffffffffffffffffffffffff163373ffffffffffffffffffffffffffffffffffffffff1614611b0d576040517f08c379a0000000000000000000000000000000000000000000000000000000008152600401611b04906137bf565b60405180910390fd5b5f6103e8600454611b1e9190612fc1565b90505f8147611b2d91906137dd565b90505f8111611b71576040517f08c379a0000000000000000000000000000000000000000000000000000000008152600401611b689061385a565b60405180910390fd5b60055f9054906101000a900473ffffffffffffffffffffffffffffffffffffffff1673ffffffffffffffffffffffffffffffffffffffff166108fc8290811502906040515f60405180830381858888f19350505050158015611bd5573d5f803e3d5ffd5b505050565b5f60015f8481526020019081526020015f2090503373ffffffffffffffffffffffffffffffffffffffff16816003015f9054906101000a900473ffffffffffffffffffffffffffffffffffffffff1673ffffffffffffffffffffffffffffffffffffffff161480611ca6575060025f8481526020019081526020015f205f9054906101000a900473ffffffffffffffffffffffffffffffffffffffff1673ffffffffffffffffffffffffffffffffffffffff163373ffffffffffffffffffffffffffffffffffffffff16145b611ce5576040517f08c379a0000000000000000000000000000000000000000000000000000000008152600401611cdc90612e2a565b60405180910390fd5b5f8283611cf29190613878565b60ff16905080341015611d3a576040517f08c379a0000000000000000000000000000000000000000000000000000000008152600401611d319061394a565b60405180910390fd5b611d9782600101600101805480602002602001604051908101604052809291908181526020018280548015611d8c57602002820191905f5260205f20905b815481526020019060010190808311611d78575b505050505084612161565b50505050565b6103e881565b5f6103e83414611de8576040517f08c379a0000000000000000000000000000000000000000000000000000000008152600401611ddf906139b2565b60405180910390fd5b5f80815480929190611df99061350c565b91905055505f604051806060016040528085858080601f0160208091040260200160405190810160405280939291908181526020018383808284375f81840152601f19601f82011690508083019250505050505050815260200160405180604001604052805f67ffffffffffffffff811115611e7857611e7761309a565b5b604051908082528060200260200182016040528015611eab57816020015b6060815260200190600190039081611e965790505b5081526020015f67ffffffffffffffff811115611ecb57611eca61309a565b5b604051908082528060200260200182016040528015611ef95781602001602082028036833780820191505090505b5081525081526020013373ffffffffffffffffffffffffffffffffffffffff1681525090508060015f805481526020019081526020015f205f820151815f019081611f4491906139d0565b506020820151816001015f820151815f019080519060200190611f6892919061225a565b506020820151816001019080519060200190611f859291906122b1565b5050506040820151816003015f6101000a81548173ffffffffffffffffffffffffffffffffffffffff021916908373ffffffffffffffffffffffffffffffffffffffff16021790555090505060045f815480929190611fe39061350c565b919050555060035f3373ffffffffffffffffffffffffffffffffffffffff1673ffffffffffffffffffffffffffffffffffffffff1681526020019081526020015f205f8154809291906120359061350c565b91905055505f543373ffffffffffffffffffffffffffffffffffffffff165f73ffffffffffffffffffffffffffffffffffffffff167fddf252ad1be2c89b69c2b068fc378daa952ba7f163c4a11628f55a4df523b3ef60405160405180910390a45f5491505092915050565b5f805f90505f5b83518110156120e6578381815181106120c4576120c3613a9f565b5b6020026020010151826120d79190612a22565b915080806001019150506120a8565b5080915050919050565b5f805f90505b845181101561215557838360405161210f929190613b08565b604051809103902085828151811061212a57612129613a9f565b5b6020026020010151805190602001200361214857600191505061215a565b80806001019150506120f6565b505f90505b9392505050565b5f5b82518110156121dc576064826121799190613b4d565b60ff1683828151811061218f5761218e613a9f565b5b60200260200101516121a19190612fc1565b8382815181106121b4576121b3613a9f565b5b602002602001018181516121c89190612a22565b915081815250508080600101915050612163565b505050565b5080546121ed90612cfc565b5f825580601f106121fe575061221b565b601f0160209004905f5260205f209081019061221a91906122fc565b5b50565b5080545f8255905f5260205f20908101906122399190612317565b50565b5080545f8255905f5260205f209081019061225791906122fc565b50565b828054828255905f5260205f209081019282156122a0579160200282015b8281111561229f57825182908161228f91906139d0565b5091602001919060010190612278565b5b5090506122ad9190612317565b5090565b828054828255905f5260205f209081019282156122eb579160200282015b828111156122ea5782518255916020019190600101906122cf565b5b5090506122f891906122fc565b5090565b5b80821115612313575f815f9055506001016122fd565b5090565b5b80821115612336575f818161232d91906121e1565b50600101612318565b5090565b5f80fd5b5f80fd5b5f7fffffffff0000000000000000000000000000000000000000000000000000000082169050919050565b61237681612342565b8114612380575f80fd5b50565b5f813590506123918161236d565b92915050565b5f602082840312156123ac576123ab61233a565b5b5f6123b984828501612383565b91505092915050565b5f8115159050919050565b6123d6816123c2565b82525050565b5f6020820190506123ef5f8301846123cd565b92915050565b5f819050919050565b612407816123f5565b8114612411575f80fd5b50565b5f81359050612422816123fe565b92915050565b5f6020828403121561243d5761243c61233a565b5b5f61244a84828501612414565b91505092915050565b5f73ffffffffffffffffffffffffffffffffffffffff82169050919050565b5f61247c82612453565b9050919050565b61248c81612472565b82525050565b5f6020820190506124a55f830184612483565b92915050565b6124b481612472565b81146124be575f80fd5b50565b5f813590506124cf816124ab565b92915050565b5f80604083850312156124eb576124ea61233a565b5b5f6124f8858286016124c1565b925050602061250985828601612414565b9150509250929050565b5f80fd5b5f80fd5b5f80fd5b5f8083601f84011261253457612533612513565b5b8235905067ffffffffffffffff81111561255157612550612517565b5b60208301915083600182028301111561256d5761256c61251b565b5b9250929050565b5f805f806060858703121561258c5761258b61233a565b5b5f61259987828801612414565b945050602085013567ffffffffffffffff8111156125ba576125b961233e565b5b6125c68782880161251f565b935093505060406125d987828801612414565b91505092959194509250565b5f805f606084860312156125fc576125fb61233a565b5b5f612609868287016124c1565b935050602061261a868287016124c1565b925050604061262b86828701612414565b9150509250925092565b5f81519050919050565b5f82825260208201905092915050565b8281835e5f83830152505050565b5f601f19601f8301169050919050565b5f61267782612635565b612681818561263f565b935061269181856020860161264f565b61269a8161265d565b840191505092915050565b5f81519050919050565b5f82825260208201905092915050565b5f819050602082019050919050565b5f82825260208201905092915050565b5f6126e882612635565b6126f281856126ce565b935061270281856020860161264f565b61270b8161265d565b840191505092915050565b5f61272183836126de565b905092915050565b5f602082019050919050565b5f61273f826126a5565b61274981856126af565b93508360208202850161275b856126bf565b805f5b8581101561279657848403895281516127778582612716565b945061278283612729565b925060208a0199505060018101905061275e565b50829750879550505050505092915050565b5f81519050919050565b5f82825260208201905092915050565b5f819050602082019050919050565b6127da816123f5565b82525050565b5f6127eb83836127d1565b60208301905092915050565b5f602082019050919050565b5f61280d826127a8565b61281781856127b2565b9350612822836127c2565b805f5b8381101561285257815161283988826127e0565b9750612844836127f7565b925050600181019050612825565b5085935050505092915050565b5f604083015f8301518482035f8601526128798282612735565b915050602083015184820360208601526128938282612803565b9150508091505092915050565b5f6060820190508181035f8301526128b8818661266d565b905081810360208301526128cc818561285f565b90506128db6040830184612483565b949350505050565b5f602082840312156128f8576128f761233a565b5b5f612905848285016124c1565b91505092915050565b612917816123f5565b82525050565b5f6020820190506129305f83018461290e565b92915050565b5f60ff82169050919050565b61294b81612936565b8114612955575f80fd5b50565b5f8135905061296681612942565b92915050565b5f80604083850312156129825761298161233a565b5b5f61298f85828601612414565b92505060206129a085828601612958565b9150509250929050565b5f80602083850312156129c0576129bf61233a565b5b5f83013567ffffffffffffffff8111156129dd576129dc61233e565b5b6129e98582860161251f565b92509250509250929050565b7f4e487b71000000000000000000000000000000000000000000000000000000005f52601160045260245ffd5b5f612a2c826123f5565b9150612a37836123f5565b9250828201905080821115612a4f57612a4e6129f5565b5b92915050565b7f4e6f20686179206e696e67756e20706572736f6e616a650000000000000000005f82015250565b5f612a8960178361263f565b9150612a9482612a55565b602082019050919050565b5f6020820190508181035f830152612ab681612a7d565b9050919050565b7f456d69736f722064656265207365722070726f706965746172696f2064656c205f8201527f746f6b656e000000000000000000000000000000000000000000000000000000602082015250565b5f612b1760258361263f565b9150612b2282612abd565b604082019050919050565b5f6020820190508181035f830152612b4481612b0b565b9050919050565b7f546f6b656e206e6f2065786973746500000000000000000000000000000000005f82015250565b5f612b7f600f8361263f565b9150612b8a82612b4b565b602082019050919050565b5f6020820190508181035f830152612bac81612b73565b9050919050565b7f446562657320656e7669617220616c206d656e6f73206c612073756d612064655f8201527f206c617320706f74656e6369617320646520667565676f20656e205765690000602082015250565b5f612c0d603e8361263f565b9150612c1882612bb3565b604082019050919050565b5f6020820190508181035f830152612c3a81612c01565b9050919050565b7f4e6f2070756564657320637265617220756e2061726d61206120756e207065725f8201527f736f6e616a6520696e6578697374656e74650000000000000000000000000000602082015250565b5f612c9b60328361263f565b9150612ca682612c41565b604082019050919050565b5f6020820190508181035f830152612cc881612c8f565b9050919050565b7f4e487b71000000000000000000000000000000000000000000000000000000005f52602260045260245ffd5b5f6002820490506001821680612d1357607f821691505b602082108103612d2657612d25612ccf565b5b50919050565b7f456c2061726d612071756520657374617320696e74656e74616e646f206372655f8201527f6172207961206578697374650000000000000000000000000000000000000000602082015250565b5f612d86602c8361263f565b9150612d9182612d2c565b604082019050919050565b5f6020820190508181035f830152612db381612d7a565b9050919050565b7f536f6c6f20656c2070726f706965746172696f2079206170726f6261646f20705f8201527f756564656e20656a65637574617220657374612066756e63696f6e0000000000602082015250565b5f612e14603b8361263f565b9150612e1f82612dba565b604082019050919050565b5f6020820190508181035f830152612e4181612e08565b9050919050565b5f8160011c9050919050565b5f808291508390505b6001851115612e9d57808604811115612e7957612e786129f5565b5b6001851615612e885780820291505b8081029050612e9685612e48565b9450612e5d565b94509492505050565b5f82612eb55760019050612f70565b81612ec2575f9050612f70565b8160018114612ed85760028114612ee257612f11565b6001915050612f70565b60ff841115612ef457612ef36129f5565b5b8360020a915084821115612f0b57612f0a6129f5565b5b50612f70565b5060208310610133831016604e8410600b8410161715612f465782820a905083811115612f4157612f406129f5565b5b612f70565b612f538484846001612e54565b92509050818404811115612f6a57612f696129f5565b5b81810290505b9392505050565b5f612f81826123f5565b9150612f8c836123f5565b9250612fb97fffffffffffffffffffffffffffffffffffffffffffffffffffffffffffffffff8484612ea6565b905092915050565b5f612fcb826123f5565b9150612fd6836123f5565b9250828202612fe4816123f5565b91508282048414831517612ffb57612ffa6129f5565b5b5092915050565b7f4e6f207469656e657320737566696369656e74657320776569732070617261205f8201527f6167726567617220656c2061726d610000000000000000000000000000000000602082015250565b5f61305c602f8361263f565b915061306782613002565b604082019050919050565b5f6020820190508181035f83015261308981613050565b9050919050565b5f82905092915050565b7f4e487b71000000000000000000000000000000000000000000000000000000005f52604160045260245ffd5b5f819050815f5260205f209050919050565b5f6020601f8301049050919050565b5f82821b905092915050565b5f600883026131237fffffffffffffffffffffffffffffffffffffffffffffffffffffffffffffffff826130e8565b61312d86836130e8565b95508019841693508086168417925050509392505050565b5f819050919050565b5f61316861316361315e846123f5565b613145565b6123f5565b9050919050565b5f819050919050565b6131818361314e565b61319561318d8261316f565b8484546130f4565b825550505050565b5f90565b6131a961319d565b6131b4818484613178565b505050565b5b818110156131d7576131cc5f826131a1565b6001810190506131ba565b5050565b601f82111561321c576131ed816130c7565b6131f6846130d9565b81016020851015613205578190505b613219613211856130d9565b8301826131b9565b50505b505050565b5f82821c905092915050565b5f61323c5f1984600802613221565b1980831691505092915050565b5f613254838361322d565b9150826002028217905092915050565b61326e8383613090565b67ffffffffffffffff8111156132875761328661309a565b5b6132918254612cfc565b61329c8282856131db565b5f601f8311600181146132c9575f84156132b7578287013590505b6132c18582613249565b865550613328565b601f1984166132d7866130c7565b5f5b828110156132fe578489013582556001820191506020850194506020810190506132d9565b8683101561331b5784890135613317601f89168261322d565b8355505b6001600288020188555050505b50505050505050565b7f456d69736f7220646562652073657220656c20706f736565646f722064656c205f8201527f746f6b656e206f20656c20717565207469656e65206170726f626163696f6e2060208201527f7061726120686163657220636f73617320636f6e20656c20746f6b656e000000604082015250565b5f6133b1605d8361263f565b91506133bc82613331565b606082019050919050565b5f6020820190508181035f8301526133de816133a5565b9050919050565b7f4e6f206c6f206469636520656c20656e756e636961646f2c207065726f2063725f8201527f656f2071756520656c2066726f6d206573207369656d70726520656c2071756560208201527f20706f73656520656c20746f6b656e2c2073696e206e6563657369646164206460408201527f652071756520736561206573746520656c2071756520656a6563757461206c6160608201527f206f7065726163696f6e00000000000000000000000000000000000000000000608082015250565b5f6134b1608a8361263f565b91506134bc826133e5565b60a082019050919050565b5f6020820190508181035f8301526134de816134a5565b9050919050565b5f6134ef826123f5565b91505f8203613501576135006129f5565b5b600182039050919050565b5f613516826123f5565b91507fffffffffffffffffffffffffffffffffffffffffffffffffffffffffffffffff8203613548576135476129f5565b5b600182019050919050565b5f82825260208201905092915050565b50565b5f6135715f83613553565b915061357c82613563565b5f82019050919050565b5f6080820190506135995f830186612483565b6135a66020830185612483565b6135b3604083018461290e565b81810360608301526135c481613566565b9050949350505050565b5f815190506135dc8161236d565b92915050565b5f602082840312156135f7576135f661233a565b5b5f613604848285016135ce565b91505092915050565b7f4573746f20746520636f6d70727565626120736920656c20636f6e747261746f5f8201527f20657374612070726570617261646f20706172612072656369626972206e667460208201527f732e000000000000000000000000000000000000000000000000000000000000604082015250565b5f61368d60428361263f565b91506136988261360d565b606082019050919050565b5f6020820190508181035f8301526136ba81613681565b9050919050565b7f456c207573756172696f20646562652074656e65722062616c616e63650000005f82015250565b5f6136f5601d8361263f565b9150613700826136c1565b602082019050919050565b5f6020820190508181035f830152613722816136e9565b9050919050565b7f536f6c6f207075656465732072656369626972206c6f732070726f66697473205f8201527f6465206573746520636f6e747261746f207369206572657320656c2070726f7060208201527f6965746172696f2064656c206d69736d6f000000000000000000000000000000604082015250565b5f6137a960518361263f565b91506137b482613729565b606082019050919050565b5f6020820190508181035f8301526137d68161379d565b9050919050565b5f6137e7826123f5565b91506137f2836123f5565b925082820390508181111561380a576138096129f5565b5b92915050565b7f4e6f206861792062656e65666963696f732070617261207265636f67657200005f82015250565b5f613844601e8361263f565b915061384f82613810565b602082019050919050565b5f6020820190508181035f83015261387181613838565b9050919050565b5f61388282612936565b915061388d83612936565b925082820261389b81612936565b91508082146138ad576138ac6129f5565b5b5092915050565b7f4e6f207469656e657320737566696369656e74657320776569732070617261205f8201527f696e6372656d656e746172206c6120706f74656e63696120646520747573206160208201527f726d617300000000000000000000000000000000000000000000000000000000604082015250565b5f61393460448361263f565b915061393f826138b4565b606082019050919050565b5f6020820190508181035f83015261396181613928565b9050919050565b7f456c20696d706f727465206120646520736572206d696c2077656973000000005f82015250565b5f61399c601c8361263f565b91506139a782613968565b602082019050919050565b5f6020820190508181035f8301526139c981613990565b9050919050565b6139d982612635565b67ffffffffffffffff8111156139f2576139f161309a565b5b6139fc8254612cfc565b613a078282856131db565b5f60209050601f831160018114613a38575f8415613a26578287015190505b613a308582613249565b865550613a97565b601f198416613a46866130c7565b5f5b82811015613a6d57848901518255600182019150602085019450602081019050613a48565b86831015613a8a5784890151613a86601f89168261322d565b8355505b6001600288020188555050505b505050505050565b7f4e487b71000000000000000000000000000000000000000000000000000000005f52603260045260245ffd5b5f81905092915050565b828183375f83830152505050565b5f613aef8385613acc565b9350613afc838584613ad6565b82840190509392505050565b5f613b14828486613ae4565b91508190509392505050565b7f4e487b71000000000000000000000000000000000000000000000000000000005f52601260045260245ffd5b5f613b5782612936565b9150613b6283612936565b925082613b7257613b71613b20565b5b82820490509291505056fea2646970667358221220d727afcb9ea4e0517768e275381e183b2dc775ab744319a37b036582bca51a1064736f6c634300081a0033",
					"opcodes": "PUSH1 0x80 PUSH1 0x40 MSTORE PUSH2 0x2710 PUSH0 SSTORE PUSH0 PUSH1 0x4 SSTORE CALLVALUE DUP1 ISZERO PUSH1 0x17 JUMPI PUSH0 DUP1 REVERT JUMPDEST POP CALLER PUSH1 0x5 PUSH0 PUSH2 0x100 EXP DUP2 SLOAD DUP2 PUSH20 0xFFFFFFFFFFFFFFFFFFFFFFFFFFFFFFFFFFFFFFFF MUL NOT AND SWAP1 DUP4 PUSH20 0xFFFFFFFFFFFFFFFFFFFFFFFFFFFFFFFFFFFFFFFF AND MUL OR SWAP1 SSTORE POP PUSH2 0x3BB3 DUP1 PUSH2 0x65 PUSH0 CODECOPY PUSH0 RETURN INVALID PUSH1 0x80 PUSH1 0x40 MSTORE PUSH1 0x4 CALLDATASIZE LT PUSH2 0xDC JUMPI PUSH0 CALLDATALOAD PUSH1 0xE0 SHR DUP1 PUSH4 0x50FAC4F1 GT PUSH2 0x7E JUMPI DUP1 PUSH4 0xC958E0D6 GT PUSH2 0x58 JUMPI DUP1 PUSH4 0xC958E0D6 EQ PUSH2 0x2A6 JUMPI DUP1 PUSH4 0xD6AD8A94 EQ PUSH2 0x2BC JUMPI DUP1 PUSH4 0xE85E001B EQ PUSH2 0x2D8 JUMPI DUP1 PUSH4 0xEB116756 EQ PUSH2 0x302 JUMPI PUSH2 0xDC JUMP JUMPDEST DUP1 PUSH4 0x50FAC4F1 EQ PUSH2 0x206 JUMPI DUP1 PUSH4 0x6352211E EQ PUSH2 0x22E JUMPI DUP1 PUSH4 0x70A08231 EQ PUSH2 0x26A JUMPI PUSH2 0xDC JUMP JUMPDEST DUP1 PUSH4 0xA0EAC29 GT PUSH2 0xBA JUMPI DUP1 PUSH4 0xA0EAC29 EQ PUSH2 0x174 JUMPI DUP1 PUSH4 0x23B872DD EQ PUSH2 0x190 JUMPI DUP1 PUSH4 0x42842E0E EQ PUSH2 0x1AC JUMPI DUP1 PUSH4 0x4810BC59 EQ PUSH2 0x1C8 JUMPI PUSH2 0xDC JUMP JUMPDEST DUP1 PUSH4 0x1FFC9A7 EQ PUSH2 0xE0 JUMPI DUP1 PUSH4 0x81812FC EQ PUSH2 0x11C JUMPI DUP1 PUSH4 0x95EA7B3 EQ PUSH2 0x158 JUMPI JUMPDEST PUSH0 DUP1 REVERT JUMPDEST CALLVALUE DUP1 ISZERO PUSH2 0xEB JUMPI PUSH0 DUP1 REVERT JUMPDEST POP PUSH2 0x106 PUSH1 0x4 DUP1 CALLDATASIZE SUB DUP2 ADD SWAP1 PUSH2 0x101 SWAP2 SWAP1 PUSH2 0x2397 JUMP JUMPDEST PUSH2 0x332 JUMP JUMPDEST PUSH1 0x40 MLOAD PUSH2 0x113 SWAP2 SWAP1 PUSH2 0x23DC JUMP JUMPDEST PUSH1 0x40 MLOAD DUP1 SWAP2 SUB SWAP1 RETURN JUMPDEST CALLVALUE DUP1 ISZERO PUSH2 0x127 JUMPI PUSH0 DUP1 REVERT JUMPDEST POP PUSH2 0x142 PUSH1 0x4 DUP1 CALLDATASIZE SUB DUP2 ADD SWAP1 PUSH2 0x13D SWAP2 SWAP1 PUSH2 0x2428 JUMP JUMPDEST PUSH2 0x403 JUMP JUMPDEST PUSH1 0x40 MLOAD PUSH2 0x14F SWAP2 SWAP1 PUSH2 0x2492 JUMP JUMPDEST PUSH1 0x40 MLOAD DUP1 SWAP2 SUB SWAP1 RETURN JUMPDEST PUSH2 0x172 PUSH1 0x4 DUP1 CALLDATASIZE SUB DUP2 ADD SWAP1 PUSH2 0x16D SWAP2 SWAP1 PUSH2 0x24D5 JUMP JUMPDEST PUSH2 0x49B JUMP JUMPDEST STOP JUMPDEST PUSH2 0x18E PUSH1 0x4 DUP1 CALLDATASIZE SUB DUP2 ADD SWAP1 PUSH2 0x189 SWAP2 SWAP1 PUSH2 0x2574 JUMP JUMPDEST PUSH2 0x73E JUMP JUMPDEST STOP JUMPDEST PUSH2 0x1AA PUSH1 0x4 DUP1 CALLDATASIZE SUB DUP2 ADD SWAP1 PUSH2 0x1A5 SWAP2 SWAP1 PUSH2 0x25E5 JUMP JUMPDEST PUSH2 0xB19 JUMP JUMPDEST STOP JUMPDEST PUSH2 0x1C6 PUSH1 0x4 DUP1 CALLDATASIZE SUB DUP2 ADD SWAP1 PUSH2 0x1C1 SWAP2 SWAP1 PUSH2 0x25E5 JUMP JUMPDEST PUSH2 0xEFD JUMP JUMPDEST STOP JUMPDEST CALLVALUE DUP1 ISZERO PUSH2 0x1D3 JUMPI PUSH0 DUP1 REVERT JUMPDEST POP PUSH2 0x1EE PUSH1 0x4 DUP1 CALLDATASIZE SUB DUP2 ADD SWAP1 PUSH2 0x1E9 SWAP2 SWAP1 PUSH2 0x2428 JUMP JUMPDEST PUSH2 0x1409 JUMP JUMPDEST PUSH1 0x40 MLOAD PUSH2 0x1FD SWAP4 SWAP3 SWAP2 SWAP1 PUSH2 0x28A0 JUMP JUMPDEST PUSH1 0x40 MLOAD DUP1 SWAP2 SUB SWAP1 RETURN JUMPDEST CALLVALUE DUP1 ISZERO PUSH2 0x211 JUMPI PUSH0 DUP1 REVERT JUMPDEST POP PUSH2 0x22C PUSH1 0x4 DUP1 CALLDATASIZE SUB DUP2 ADD SWAP1 PUSH2 0x227 SWAP2 SWAP1 PUSH2 0x2428 JUMP JUMPDEST PUSH2 0x1607 JUMP JUMPDEST STOP JUMPDEST CALLVALUE DUP1 ISZERO PUSH2 0x239 JUMPI PUSH0 DUP1 REVERT JUMPDEST POP PUSH2 0x254 PUSH1 0x4 DUP1 CALLDATASIZE SUB DUP2 ADD SWAP1 PUSH2 0x24F SWAP2 SWAP1 PUSH2 0x2428 JUMP JUMPDEST PUSH2 0x18ED JUMP JUMPDEST PUSH1 0x40 MLOAD PUSH2 0x261 SWAP2 SWAP1 PUSH2 0x2492 JUMP JUMPDEST PUSH1 0x40 MLOAD DUP1 SWAP2 SUB SWAP1 RETURN JUMPDEST CALLVALUE DUP1 ISZERO PUSH2 0x275 JUMPI PUSH0 DUP1 REVERT JUMPDEST POP PUSH2 0x290 PUSH1 0x4 DUP1 CALLDATASIZE SUB DUP2 ADD SWAP1 PUSH2 0x28B SWAP2 SWAP1 PUSH2 0x28E3 JUMP JUMPDEST PUSH2 0x19CA JUMP JUMPDEST PUSH1 0x40 MLOAD PUSH2 0x29D SWAP2 SWAP1 PUSH2 0x291D JUMP JUMPDEST PUSH1 0x40 MLOAD DUP1 SWAP2 SUB SWAP1 RETURN JUMPDEST CALLVALUE DUP1 ISZERO PUSH2 0x2B1 JUMPI PUSH0 DUP1 REVERT JUMPDEST POP PUSH2 0x2BA PUSH2 0x1A7E JUMP JUMPDEST STOP JUMPDEST PUSH2 0x2D6 PUSH1 0x4 DUP1 CALLDATASIZE SUB DUP2 ADD SWAP1 PUSH2 0x2D1 SWAP2 SWAP1 PUSH2 0x296C JUMP JUMPDEST PUSH2 0x1BDA JUMP JUMPDEST STOP JUMPDEST CALLVALUE DUP1 ISZERO PUSH2 0x2E3 JUMPI PUSH0 DUP1 REVERT JUMPDEST POP PUSH2 0x2EC PUSH2 0x1D9D JUMP JUMPDEST PUSH1 0x40 MLOAD PUSH2 0x2F9 SWAP2 SWAP1 PUSH2 0x291D JUMP JUMPDEST PUSH1 0x40 MLOAD DUP1 SWAP2 SUB SWAP1 RETURN JUMPDEST PUSH2 0x31C PUSH1 0x4 DUP1 CALLDATASIZE SUB DUP2 ADD SWAP1 PUSH2 0x317 SWAP2 SWAP1 PUSH2 0x29AA JUMP JUMPDEST PUSH2 0x1DA3 JUMP JUMPDEST PUSH1 0x40 MLOAD PUSH2 0x329 SWAP2 SWAP1 PUSH2 0x291D JUMP JUMPDEST PUSH1 0x40 MLOAD DUP1 SWAP2 SUB SWAP1 RETURN JUMPDEST PUSH0 PUSH32 0x73884AB300000000000000000000000000000000000000000000000000000000 PUSH28 0xFFFFFFFFFFFFFFFFFFFFFFFFFFFFFFFFFFFFFFFFFFFFFFFFFFFFFFFF NOT AND DUP3 PUSH28 0xFFFFFFFFFFFFFFFFFFFFFFFFFFFFFFFFFFFFFFFFFFFFFFFFFFFFFFFF NOT AND EQ DUP1 PUSH2 0x3FC JUMPI POP PUSH32 0x1FFC9A700000000000000000000000000000000000000000000000000000000 PUSH28 0xFFFFFFFFFFFFFFFFFFFFFFFFFFFFFFFFFFFFFFFFFFFFFFFFFFFFFFFF NOT AND DUP3 PUSH28 0xFFFFFFFFFFFFFFFFFFFFFFFFFFFFFFFFFFFFFFFFFFFFFFFFFFFFFFFF NOT AND EQ JUMPDEST SWAP1 POP SWAP2 SWAP1 POP JUMP JUMPDEST PUSH0 PUSH2 0x2710 DUP3 GT DUP1 ISZERO PUSH2 0x424 JUMPI POP PUSH1 0x4 SLOAD PUSH2 0x2710 PUSH2 0x420 SWAP2 SWAP1 PUSH2 0x2A22 JUMP JUMPDEST DUP3 GT ISZERO JUMPDEST PUSH2 0x463 JUMPI PUSH1 0x40 MLOAD PUSH32 0x8C379A000000000000000000000000000000000000000000000000000000000 DUP2 MSTORE PUSH1 0x4 ADD PUSH2 0x45A SWAP1 PUSH2 0x2A9F JUMP JUMPDEST PUSH1 0x40 MLOAD DUP1 SWAP2 SUB SWAP1 REVERT JUMPDEST PUSH1 0x2 PUSH0 DUP4 DUP2 MSTORE PUSH1 0x20 ADD SWAP1 DUP2 MSTORE PUSH1 0x20 ADD PUSH0 KECCAK256 PUSH0 SWAP1 SLOAD SWAP1 PUSH2 0x100 EXP SWAP1 DIV PUSH20 0xFFFFFFFFFFFFFFFFFFFFFFFFFFFFFFFFFFFFFFFF AND SWAP1 POP SWAP2 SWAP1 POP JUMP JUMPDEST PUSH1 0x1 PUSH0 DUP3 DUP2 MSTORE PUSH1 0x20 ADD SWAP1 DUP2 MSTORE PUSH1 0x20 ADD PUSH0 KECCAK256 PUSH1 0x3 ADD PUSH0 SWAP1 SLOAD SWAP1 PUSH2 0x100 EXP SWAP1 DIV PUSH20 0xFFFFFFFFFFFFFFFFFFFFFFFFFFFFFFFFFFFFFFFF AND PUSH20 0xFFFFFFFFFFFFFFFFFFFFFFFFFFFFFFFFFFFFFFFF AND CALLER PUSH20 0xFFFFFFFFFFFFFFFFFFFFFFFFFFFFFFFFFFFFFFFF AND EQ PUSH2 0x53C JUMPI PUSH1 0x40 MLOAD PUSH32 0x8C379A000000000000000000000000000000000000000000000000000000000 DUP2 MSTORE PUSH1 0x4 ADD PUSH2 0x533 SWAP1 PUSH2 0x2B2D JUMP JUMPDEST PUSH1 0x40 MLOAD DUP1 SWAP2 SUB SWAP1 REVERT JUMPDEST PUSH0 PUSH20 0xFFFFFFFFFFFFFFFFFFFFFFFFFFFFFFFFFFFFFFFF AND PUSH1 0x1 PUSH0 DUP4 DUP2 MSTORE PUSH1 0x20 ADD SWAP1 DUP2 MSTORE PUSH1 0x20 ADD PUSH0 KECCAK256 PUSH1 0x3 ADD PUSH0 SWAP1 SLOAD SWAP1 PUSH2 0x100 EXP SWAP1 DIV PUSH20 0xFFFFFFFFFFFFFFFFFFFFFFFFFFFFFFFFFFFFFFFF AND PUSH20 0xFFFFFFFFFFFFFFFFFFFFFFFFFFFFFFFFFFFFFFFF AND SUB PUSH2 0x5DD JUMPI PUSH1 0x40 MLOAD PUSH32 0x8C379A000000000000000000000000000000000000000000000000000000000 DUP2 MSTORE PUSH1 0x4 ADD PUSH2 0x5D4 SWAP1 PUSH2 0x2B95 JUMP JUMPDEST PUSH1 0x40 MLOAD DUP1 SWAP2 SUB SWAP1 REVERT JUMPDEST PUSH0 PUSH2 0x64A PUSH1 0x1 PUSH0 DUP5 DUP2 MSTORE PUSH1 0x20 ADD SWAP1 DUP2 MSTORE PUSH1 0x20 ADD PUSH0 KECCAK256 PUSH1 0x1 ADD PUSH1 0x1 ADD DUP1 SLOAD DUP1 PUSH1 0x20 MUL PUSH1 0x20 ADD PUSH1 0x40 MLOAD SWAP1 DUP2 ADD PUSH1 0x40 MSTORE DUP1 SWAP3 SWAP2 SWAP1 DUP2 DUP2 MSTORE PUSH1 0x20 ADD DUP3 DUP1 SLOAD DUP1 ISZERO PUSH2 0x640 JUMPI PUSH1 0x20 MUL DUP3 ADD SWAP2 SWAP1 PUSH0 MSTORE PUSH1 0x20 PUSH0 KECCAK256 SWAP1 JUMPDEST DUP2 SLOAD DUP2 MSTORE PUSH1 0x20 ADD SWAP1 PUSH1 0x1 ADD SWAP1 DUP1 DUP4 GT PUSH2 0x62C JUMPI JUMPDEST POP POP POP POP POP PUSH2 0x20A1 JUMP JUMPDEST SWAP1 POP DUP1 CALLVALUE LT ISZERO PUSH2 0x68F JUMPI PUSH1 0x40 MLOAD PUSH32 0x8C379A000000000000000000000000000000000000000000000000000000000 DUP2 MSTORE PUSH1 0x4 ADD PUSH2 0x686 SWAP1 PUSH2 0x2C23 JUMP JUMPDEST PUSH1 0x40 MLOAD DUP1 SWAP2 SUB SWAP1 REVERT JUMPDEST DUP3 PUSH1 0x2 PUSH0 DUP5 DUP2 MSTORE PUSH1 0x20 ADD SWAP1 DUP2 MSTORE PUSH1 0x20 ADD PUSH0 KECCAK256 PUSH0 PUSH2 0x100 EXP DUP2 SLOAD DUP2 PUSH20 0xFFFFFFFFFFFFFFFFFFFFFFFFFFFFFFFFFFFFFFFF MUL NOT AND SWAP1 DUP4 PUSH20 0xFFFFFFFFFFFFFFFFFFFFFFFFFFFFFFFFFFFFFFFF AND MUL OR SWAP1 SSTORE POP DUP2 DUP4 PUSH20 0xFFFFFFFFFFFFFFFFFFFFFFFFFFFFFFFFFFFFFFFF AND CALLER PUSH20 0xFFFFFFFFFFFFFFFFFFFFFFFFFFFFFFFFFFFFFFFF AND PUSH32 0x8C5BE1E5EBEC7D5BD14F71427D1E84F3DD0314C0F7B2291E5B200AC8C7C3B925 PUSH1 0x40 MLOAD PUSH1 0x40 MLOAD DUP1 SWAP2 SUB SWAP1 LOG4 POP POP POP JUMP JUMPDEST DUP4 DUP4 DUP4 PUSH0 PUSH20 0xFFFFFFFFFFFFFFFFFFFFFFFFFFFFFFFFFFFFFFFF AND PUSH1 0x1 PUSH0 DUP6 DUP2 MSTORE PUSH1 0x20 ADD SWAP1 DUP2 MSTORE PUSH1 0x20 ADD PUSH0 KECCAK256 PUSH1 0x3 ADD PUSH0 SWAP1 SLOAD SWAP1 PUSH2 0x100 EXP SWAP1 DIV PUSH20 0xFFFFFFFFFFFFFFFFFFFFFFFFFFFFFFFFFFFFFFFF AND PUSH20 0xFFFFFFFFFFFFFFFFFFFFFFFFFFFFFFFFFFFFFFFF AND SUB PUSH2 0x7E2 JUMPI PUSH1 0x40 MLOAD PUSH32 0x8C379A000000000000000000000000000000000000000000000000000000000 DUP2 MSTORE PUSH1 0x4 ADD PUSH2 0x7D9 SWAP1 PUSH2 0x2CB1 JUMP JUMPDEST PUSH1 0x40 MLOAD DUP1 SWAP2 SUB SWAP1 REVERT JUMPDEST PUSH2 0x8CD PUSH1 0x1 PUSH0 DUP6 DUP2 MSTORE PUSH1 0x20 ADD SWAP1 DUP2 MSTORE PUSH1 0x20 ADD PUSH0 KECCAK256 PUSH1 0x1 ADD PUSH0 ADD DUP1 SLOAD DUP1 PUSH1 0x20 MUL PUSH1 0x20 ADD PUSH1 0x40 MLOAD SWAP1 DUP2 ADD PUSH1 0x40 MSTORE DUP1 SWAP3 SWAP2 SWAP1 DUP2 DUP2 MSTORE PUSH1 0x20 ADD PUSH0 SWAP1 JUMPDEST DUP3 DUP3 LT ISZERO PUSH2 0x8C2 JUMPI DUP4 DUP3 SWAP1 PUSH0 MSTORE PUSH1 0x20 PUSH0 KECCAK256 ADD DUP1 SLOAD PUSH2 0x837 SWAP1 PUSH2 0x2CFC JUMP JUMPDEST DUP1 PUSH1 0x1F ADD PUSH1 0x20 DUP1 SWAP2 DIV MUL PUSH1 0x20 ADD PUSH1 0x40 MLOAD SWAP1 DUP2 ADD PUSH1 0x40 MSTORE DUP1 SWAP3 SWAP2 SWAP1 DUP2 DUP2 MSTORE PUSH1 0x20 ADD DUP3 DUP1 SLOAD PUSH2 0x863 SWAP1 PUSH2 0x2CFC JUMP JUMPDEST DUP1 ISZERO PUSH2 0x8AE JUMPI DUP1 PUSH1 0x1F LT PUSH2 0x885 JUMPI PUSH2 0x100 DUP1 DUP4 SLOAD DIV MUL DUP4 MSTORE SWAP2 PUSH1 0x20 ADD SWAP2 PUSH2 0x8AE JUMP JUMPDEST DUP3 ADD SWAP2 SWAP1 PUSH0 MSTORE PUSH1 0x20 PUSH0 KECCAK256 SWAP1 JUMPDEST DUP2 SLOAD DUP2 MSTORE SWAP1 PUSH1 0x1 ADD SWAP1 PUSH1 0x20 ADD DUP1 DUP4 GT PUSH2 0x891 JUMPI DUP3 SWAP1 SUB PUSH1 0x1F AND DUP3 ADD SWAP2 JUMPDEST POP POP POP POP POP DUP2 MSTORE PUSH1 0x20 ADD SWAP1 PUSH1 0x1 ADD SWAP1 PUSH2 0x81A JUMP JUMPDEST POP POP POP POP DUP4 DUP4 PUSH2 0x20F0 JUMP JUMPDEST ISZERO PUSH2 0x90D JUMPI PUSH1 0x40 MLOAD PUSH32 0x8C379A000000000000000000000000000000000000000000000000000000000 DUP2 MSTORE PUSH1 0x4 ADD PUSH2 0x904 SWAP1 PUSH2 0x2D9C JUMP JUMPDEST PUSH1 0x40 MLOAD DUP1 SWAP2 SUB SWAP1 REVERT JUMPDEST PUSH0 PUSH1 0x1 PUSH0 DUP10 DUP2 MSTORE PUSH1 0x20 ADD SWAP1 DUP2 MSTORE PUSH1 0x20 ADD PUSH0 KECCAK256 SWAP1 POP CALLER PUSH20 0xFFFFFFFFFFFFFFFFFFFFFFFFFFFFFFFFFFFFFFFF AND DUP2 PUSH1 0x3 ADD PUSH0 SWAP1 SLOAD SWAP1 PUSH2 0x100 EXP SWAP1 DIV PUSH20 0xFFFFFFFFFFFFFFFFFFFFFFFFFFFFFFFFFFFFFFFF AND PUSH20 0xFFFFFFFFFFFFFFFFFFFFFFFFFFFFFFFFFFFFFFFF AND EQ DUP1 PUSH2 0x9D9 JUMPI POP PUSH1 0x2 PUSH0 DUP10 DUP2 MSTORE PUSH1 0x20 ADD SWAP1 DUP2 MSTORE PUSH1 0x20 ADD PUSH0 KECCAK256 PUSH0 SWAP1 SLOAD SWAP1 PUSH2 0x100 EXP SWAP1 DIV PUSH20 0xFFFFFFFFFFFFFFFFFFFFFFFFFFFFFFFFFFFFFFFF AND PUSH20 0xFFFFFFFFFFFFFFFFFFFFFFFFFFFFFFFFFFFFFFFF AND CALLER PUSH20 0xFFFFFFFFFFFFFFFFFFFFFFFFFFFFFFFFFFFFFFFF AND EQ JUMPDEST PUSH2 0xA18 JUMPI PUSH1 0x40 MLOAD PUSH32 0x8C379A000000000000000000000000000000000000000000000000000000000 DUP2 MSTORE PUSH1 0x4 ADD PUSH2 0xA0F SWAP1 PUSH2 0x2E2A JUMP JUMPDEST PUSH1 0x40 MLOAD DUP1 SWAP2 SUB SWAP1 REVERT JUMPDEST PUSH0 DUP2 PUSH1 0x1 ADD PUSH0 ADD DUP1 SLOAD SWAP1 POP SWAP1 POP PUSH0 DUP2 PUSH1 0x2 PUSH2 0xA33 SWAP2 SWAP1 PUSH2 0x2F77 JUMP JUMPDEST DUP8 PUSH2 0xA3E SWAP2 SWAP1 PUSH2 0x2FC1 JUMP JUMPDEST SWAP1 POP DUP1 CALLVALUE LT ISZERO PUSH2 0xA83 JUMPI PUSH1 0x40 MLOAD PUSH32 0x8C379A000000000000000000000000000000000000000000000000000000000 DUP2 MSTORE PUSH1 0x4 ADD PUSH2 0xA7A SWAP1 PUSH2 0x3072 JUMP JUMPDEST PUSH1 0x40 MLOAD DUP1 SWAP2 SUB SWAP1 REVERT JUMPDEST PUSH1 0x1 PUSH0 DUP12 DUP2 MSTORE PUSH1 0x20 ADD SWAP1 DUP2 MSTORE PUSH1 0x20 ADD PUSH0 KECCAK256 PUSH1 0x1 ADD PUSH0 ADD DUP10 DUP10 SWAP1 SWAP2 DUP1 PUSH1 0x1 DUP2 SLOAD ADD DUP1 DUP3 SSTORE DUP1 SWAP2 POP POP PUSH1 0x1 SWAP1 SUB SWAP1 PUSH0 MSTORE PUSH1 0x20 PUSH0 KECCAK256 ADD PUSH0 SWAP1 SWAP2 SWAP3 SWAP1 SWAP2 SWAP3 SWAP1 SWAP2 SWAP3 SWAP1 SWAP2 SWAP3 POP SWAP2 DUP3 PUSH2 0xAD1 SWAP3 SWAP2 SWAP1 PUSH2 0x3264 JUMP JUMPDEST POP PUSH1 0x1 PUSH0 DUP12 DUP2 MSTORE PUSH1 0x20 ADD SWAP1 DUP2 MSTORE PUSH1 0x20 ADD PUSH0 KECCAK256 PUSH1 0x1 ADD PUSH1 0x1 ADD DUP8 SWAP1 DUP1 PUSH1 0x1 DUP2 SLOAD ADD DUP1 DUP3 SSTORE DUP1 SWAP2 POP POP PUSH1 0x1 SWAP1 SUB SWAP1 PUSH0 MSTORE PUSH1 0x20 PUSH0 KECCAK256 ADD PUSH0 SWAP1 SWAP2 SWAP1 SWAP2 SWAP1 SWAP2 POP SSTORE POP POP POP POP POP POP POP POP POP POP JUMP JUMPDEST PUSH1 0x1 PUSH0 DUP3 DUP2 MSTORE PUSH1 0x20 ADD SWAP1 DUP2 MSTORE PUSH1 0x20 ADD PUSH0 KECCAK256 PUSH1 0x3 ADD PUSH0 SWAP1 SLOAD SWAP1 PUSH2 0x100 EXP SWAP1 DIV PUSH20 0xFFFFFFFFFFFFFFFFFFFFFFFFFFFFFFFFFFFFFFFF AND PUSH20 0xFFFFFFFFFFFFFFFFFFFFFFFFFFFFFFFFFFFFFFFF AND CALLER PUSH20 0xFFFFFFFFFFFFFFFFFFFFFFFFFFFFFFFFFFFFFFFF AND EQ DUP1 PUSH2 0xBE1 JUMPI POP PUSH1 0x2 PUSH0 DUP3 DUP2 MSTORE PUSH1 0x20 ADD SWAP1 DUP2 MSTORE PUSH1 0x20 ADD PUSH0 KECCAK256 PUSH0 SWAP1 SLOAD SWAP1 PUSH2 0x100 EXP SWAP1 DIV PUSH20 0xFFFFFFFFFFFFFFFFFFFFFFFFFFFFFFFFFFFFFFFF AND PUSH20 0xFFFFFFFFFFFFFFFFFFFFFFFFFFFFFFFFFFFFFFFF AND CALLER PUSH20 0xFFFFFFFFFFFFFFFFFFFFFFFFFFFFFFFFFFFFFFFF AND EQ JUMPDEST PUSH2 0xC20 JUMPI PUSH1 0x40 MLOAD PUSH32 0x8C379A000000000000000000000000000000000000000000000000000000000 DUP2 MSTORE PUSH1 0x4 ADD PUSH2 0xC17 SWAP1 PUSH2 0x33C7 JUMP JUMPDEST PUSH1 0x40 MLOAD DUP1 SWAP2 SUB SWAP1 REVERT JUMPDEST DUP3 PUSH20 0xFFFFFFFFFFFFFFFFFFFFFFFFFFFFFFFFFFFFFFFF AND PUSH1 0x1 PUSH0 DUP4 DUP2 MSTORE PUSH1 0x20 ADD SWAP1 DUP2 MSTORE PUSH1 0x20 ADD PUSH0 KECCAK256 PUSH1 0x3 ADD PUSH0 SWAP1 SLOAD SWAP1 PUSH2 0x100 EXP SWAP1 DIV PUSH20 0xFFFFFFFFFFFFFFFFFFFFFFFFFFFFFFFFFFFFFFFF AND PUSH20 0xFFFFFFFFFFFFFFFFFFFFFFFFFFFFFFFFFFFFFFFF AND EQ PUSH2 0xCC1 JUMPI PUSH1 0x40 MLOAD PUSH32 0x8C379A000000000000000000000000000000000000000000000000000000000 DUP2 MSTORE PUSH1 0x4 ADD PUSH2 0xCB8 SWAP1 PUSH2 0x34C7 JUMP JUMPDEST PUSH1 0x40 MLOAD DUP1 SWAP2 SUB SWAP1 REVERT JUMPDEST PUSH0 PUSH2 0xD2E PUSH1 0x1 PUSH0 DUP5 DUP2 MSTORE PUSH1 0x20 ADD SWAP1 DUP2 MSTORE PUSH1 0x20 ADD PUSH0 KECCAK256 PUSH1 0x1 ADD PUSH1 0x1 ADD DUP1 SLOAD DUP1 PUSH1 0x20 MUL PUSH1 0x20 ADD PUSH1 0x40 MLOAD SWAP1 DUP2 ADD PUSH1 0x40 MSTORE DUP1 SWAP3 SWAP2 SWAP1 DUP2 DUP2 MSTORE PUSH1 0x20 ADD DUP3 DUP1 SLOAD DUP1 ISZERO PUSH2 0xD24 JUMPI PUSH1 0x20 MUL DUP3 ADD SWAP2 SWAP1 PUSH0 MSTORE PUSH1 0x20 PUSH0 KECCAK256 SWAP1 JUMPDEST DUP2 SLOAD DUP2 MSTORE PUSH1 0x20 ADD SWAP1 PUSH1 0x1 ADD SWAP1 DUP1 DUP4 GT PUSH2 0xD10 JUMPI JUMPDEST POP POP POP POP POP PUSH2 0x20A1 JUMP JUMPDEST SWAP1 POP DUP1 CALLVALUE LT ISZERO PUSH2 0xD73 JUMPI PUSH1 0x40 MLOAD PUSH32 0x8C379A000000000000000000000000000000000000000000000000000000000 DUP2 MSTORE PUSH1 0x4 ADD PUSH2 0xD6A SWAP1 PUSH2 0x2C23 JUMP JUMPDEST PUSH1 0x40 MLOAD DUP1 SWAP2 SUB SWAP1 REVERT JUMPDEST DUP3 PUSH1 0x1 PUSH0 DUP5 DUP2 MSTORE PUSH1 0x20 ADD SWAP1 DUP2 MSTORE PUSH1 0x20 ADD PUSH0 KECCAK256 PUSH1 0x3 ADD PUSH0 PUSH2 0x100 EXP DUP2 SLOAD DUP2 PUSH20 0xFFFFFFFFFFFFFFFFFFFFFFFFFFFFFFFFFFFFFFFF MUL NOT AND SWAP1 DUP4 PUSH20 0xFFFFFFFFFFFFFFFFFFFFFFFFFFFFFFFFFFFFFFFF AND MUL OR SWAP1 SSTORE POP PUSH1 0x3 PUSH0 DUP6 PUSH20 0xFFFFFFFFFFFFFFFFFFFFFFFFFFFFFFFFFFFFFFFF AND PUSH20 0xFFFFFFFFFFFFFFFFFFFFFFFFFFFFFFFFFFFFFFFF AND DUP2 MSTORE PUSH1 0x20 ADD SWAP1 DUP2 MSTORE PUSH1 0x20 ADD PUSH0 KECCAK256 PUSH0 DUP2 SLOAD DUP1 SWAP3 SWAP2 SWAP1 PUSH2 0xE12 SWAP1 PUSH2 0x34E5 JUMP JUMPDEST SWAP2 SWAP1 POP SSTORE POP PUSH1 0x3 PUSH0 DUP5 PUSH20 0xFFFFFFFFFFFFFFFFFFFFFFFFFFFFFFFFFFFFFFFF AND PUSH20 0xFFFFFFFFFFFFFFFFFFFFFFFFFFFFFFFFFFFFFFFF AND DUP2 MSTORE PUSH1 0x20 ADD SWAP1 DUP2 MSTORE PUSH1 0x20 ADD PUSH0 KECCAK256 PUSH0 DUP2 SLOAD DUP1 SWAP3 SWAP2 SWAP1 PUSH2 0xE64 SWAP1 PUSH2 0x350C JUMP JUMPDEST SWAP2 SWAP1 POP SSTORE POP PUSH1 0x2 PUSH0 DUP4 DUP2 MSTORE PUSH1 0x20 ADD SWAP1 DUP2 MSTORE PUSH1 0x20 ADD PUSH0 KECCAK256 PUSH0 PUSH2 0x100 EXP DUP2 SLOAD SWAP1 PUSH20 0xFFFFFFFFFFFFFFFFFFFFFFFFFFFFFFFFFFFFFFFF MUL NOT AND SWAP1 SSTORE DUP2 DUP4 PUSH20 0xFFFFFFFFFFFFFFFFFFFFFFFFFFFFFFFFFFFFFFFF AND DUP6 PUSH20 0xFFFFFFFFFFFFFFFFFFFFFFFFFFFFFFFFFFFFFFFF AND PUSH32 0xDDF252AD1BE2C89B69C2B068FC378DAA952BA7F163C4A11628F55A4DF523B3EF PUSH1 0x40 MLOAD PUSH1 0x40 MLOAD DUP1 SWAP2 SUB SWAP1 LOG4 POP POP POP POP JUMP JUMPDEST PUSH1 0x1 PUSH0 DUP3 DUP2 MSTORE PUSH1 0x20 ADD SWAP1 DUP2 MSTORE PUSH1 0x20 ADD PUSH0 KECCAK256 PUSH1 0x3 ADD PUSH0 SWAP1 SLOAD SWAP1 PUSH2 0x100 EXP SWAP1 DIV PUSH20 0xFFFFFFFFFFFFFFFFFFFFFFFFFFFFFFFFFFFFFFFF AND PUSH20 0xFFFFFFFFFFFFFFFFFFFFFFFFFFFFFFFFFFFFFFFF AND CALLER PUSH20 0xFFFFFFFFFFFFFFFFFFFFFFFFFFFFFFFFFFFFFFFF AND EQ DUP1 PUSH2 0xFC5 JUMPI POP PUSH1 0x2 PUSH0 DUP3 DUP2 MSTORE PUSH1 0x20 ADD SWAP1 DUP2 MSTORE PUSH1 0x20 ADD PUSH0 KECCAK256 PUSH0 SWAP1 SLOAD SWAP1 PUSH2 0x100 EXP SWAP1 DIV PUSH20 0xFFFFFFFFFFFFFFFFFFFFFFFFFFFFFFFFFFFFFFFF AND PUSH20 0xFFFFFFFFFFFFFFFFFFFFFFFFFFFFFFFFFFFFFFFF AND CALLER PUSH20 0xFFFFFFFFFFFFFFFFFFFFFFFFFFFFFFFFFFFFFFFF AND EQ JUMPDEST PUSH2 0x1004 JUMPI PUSH1 0x40 MLOAD PUSH32 0x8C379A000000000000000000000000000000000000000000000000000000000 DUP2 MSTORE PUSH1 0x4 ADD PUSH2 0xFFB SWAP1 PUSH2 0x33C7 JUMP JUMPDEST PUSH1 0x40 MLOAD DUP1 SWAP2 SUB SWAP1 REVERT JUMPDEST DUP3 PUSH20 0xFFFFFFFFFFFFFFFFFFFFFFFFFFFFFFFFFFFFFFFF AND PUSH1 0x1 PUSH0 DUP4 DUP2 MSTORE PUSH1 0x20 ADD SWAP1 DUP2 MSTORE PUSH1 0x20 ADD PUSH0 KECCAK256 PUSH1 0x3 ADD PUSH0 SWAP1 SLOAD SWAP1 PUSH2 0x100 EXP SWAP1 DIV PUSH20 0xFFFFFFFFFFFFFFFFFFFFFFFFFFFFFFFFFFFFFFFF AND PUSH20 0xFFFFFFFFFFFFFFFFFFFFFFFFFFFFFFFFFFFFFFFF AND EQ PUSH2 0x10A5 JUMPI PUSH1 0x40 MLOAD PUSH32 0x8C379A000000000000000000000000000000000000000000000000000000000 DUP2 MSTORE PUSH1 0x4 ADD PUSH2 0x109C SWAP1 PUSH2 0x34C7 JUMP JUMPDEST PUSH1 0x40 MLOAD DUP1 SWAP2 SUB SWAP1 REVERT JUMPDEST PUSH0 PUSH2 0x1112 PUSH1 0x1 PUSH0 DUP5 DUP2 MSTORE PUSH1 0x20 ADD SWAP1 DUP2 MSTORE PUSH1 0x20 ADD PUSH0 KECCAK256 PUSH1 0x1 ADD PUSH1 0x1 ADD DUP1 SLOAD DUP1 PUSH1 0x20 MUL PUSH1 0x20 ADD PUSH1 0x40 MLOAD SWAP1 DUP2 ADD PUSH1 0x40 MSTORE DUP1 SWAP3 SWAP2 SWAP1 DUP2 DUP2 MSTORE PUSH1 0x20 ADD DUP3 DUP1 SLOAD DUP1 ISZERO PUSH2 0x1108 JUMPI PUSH1 0x20 MUL DUP3 ADD SWAP2 SWAP1 PUSH0 MSTORE PUSH1 0x20 PUSH0 KECCAK256 SWAP1 JUMPDEST DUP2 SLOAD DUP2 MSTORE PUSH1 0x20 ADD SWAP1 PUSH1 0x1 ADD SWAP1 DUP1 DUP4 GT PUSH2 0x10F4 JUMPI JUMPDEST POP POP POP POP POP PUSH2 0x20A1 JUMP JUMPDEST SWAP1 POP DUP1 CALLVALUE LT ISZERO PUSH2 0x1157 JUMPI PUSH1 0x40 MLOAD PUSH32 0x8C379A000000000000000000000000000000000000000000000000000000000 DUP2 MSTORE PUSH1 0x4 ADD PUSH2 0x114E SWAP1 PUSH2 0x2C23 JUMP JUMPDEST PUSH1 0x40 MLOAD DUP1 SWAP2 SUB SWAP1 REVERT JUMPDEST PUSH0 DUP4 PUSH20 0xFFFFFFFFFFFFFFFFFFFFFFFFFFFFFFFFFFFFFFFF AND EXTCODESIZE GT ISZERO PUSH2 0x127F JUMPI PUSH0 DUP4 PUSH20 0xFFFFFFFFFFFFFFFFFFFFFFFFFFFFFFFFFFFFFFFF AND PUSH4 0x150B7A02 CALLER DUP8 DUP7 PUSH1 0x40 MLOAD DUP5 PUSH4 0xFFFFFFFF AND PUSH1 0xE0 SHL DUP2 MSTORE PUSH1 0x4 ADD PUSH2 0x11B4 SWAP4 SWAP3 SWAP2 SWAP1 PUSH2 0x3586 JUMP JUMPDEST PUSH1 0x20 PUSH1 0x40 MLOAD DUP1 DUP4 SUB DUP2 PUSH0 DUP8 GAS CALL ISZERO DUP1 ISZERO PUSH2 0x11D0 JUMPI RETURNDATASIZE PUSH0 DUP1 RETURNDATACOPY RETURNDATASIZE PUSH0 REVERT JUMPDEST POP POP POP POP PUSH1 0x40 MLOAD RETURNDATASIZE PUSH1 0x1F NOT PUSH1 0x1F DUP3 ADD AND DUP3 ADD DUP1 PUSH1 0x40 MSTORE POP DUP2 ADD SWAP1 PUSH2 0x11F4 SWAP2 SWAP1 PUSH2 0x35E2 JUMP JUMPDEST SWAP1 POP PUSH4 0x150B7A02 PUSH1 0xE0 SHL PUSH28 0xFFFFFFFFFFFFFFFFFFFFFFFFFFFFFFFFFFFFFFFFFFFFFFFFFFFFFFFF NOT AND DUP2 PUSH28 0xFFFFFFFFFFFFFFFFFFFFFFFFFFFFFFFFFFFFFFFFFFFFFFFFFFFFFFFF NOT AND EQ PUSH2 0x127D JUMPI PUSH1 0x40 MLOAD PUSH32 0x8C379A000000000000000000000000000000000000000000000000000000000 DUP2 MSTORE PUSH1 0x4 ADD PUSH2 0x1274 SWAP1 PUSH2 0x36A3 JUMP JUMPDEST PUSH1 0x40 MLOAD DUP1 SWAP2 SUB SWAP1 REVERT JUMPDEST POP JUMPDEST DUP3 PUSH1 0x1 PUSH0 DUP5 DUP2 MSTORE PUSH1 0x20 ADD SWAP1 DUP2 MSTORE PUSH1 0x20 ADD PUSH0 KECCAK256 PUSH1 0x3 ADD PUSH0 PUSH2 0x100 EXP DUP2 SLOAD DUP2 PUSH20 0xFFFFFFFFFFFFFFFFFFFFFFFFFFFFFFFFFFFFFFFF MUL NOT AND SWAP1 DUP4 PUSH20 0xFFFFFFFFFFFFFFFFFFFFFFFFFFFFFFFFFFFFFFFF AND MUL OR SWAP1 SSTORE POP PUSH1 0x3 PUSH0 DUP6 PUSH20 0xFFFFFFFFFFFFFFFFFFFFFFFFFFFFFFFFFFFFFFFF AND PUSH20 0xFFFFFFFFFFFFFFFFFFFFFFFFFFFFFFFFFFFFFFFF AND DUP2 MSTORE PUSH1 0x20 ADD SWAP1 DUP2 MSTORE PUSH1 0x20 ADD PUSH0 KECCAK256 PUSH0 DUP2 SLOAD DUP1 SWAP3 SWAP2 SWAP1 PUSH2 0x131E SWAP1 PUSH2 0x34E5 JUMP JUMPDEST SWAP2 SWAP1 POP SSTORE POP PUSH1 0x3 PUSH0 DUP5 PUSH20 0xFFFFFFFFFFFFFFFFFFFFFFFFFFFFFFFFFFFFFFFF AND PUSH20 0xFFFFFFFFFFFFFFFFFFFFFFFFFFFFFFFFFFFFFFFF AND DUP2 MSTORE PUSH1 0x20 ADD SWAP1 DUP2 MSTORE PUSH1 0x20 ADD PUSH0 KECCAK256 PUSH0 DUP2 SLOAD DUP1 SWAP3 SWAP2 SWAP1 PUSH2 0x1370 SWAP1 PUSH2 0x350C JUMP JUMPDEST SWAP2 SWAP1 POP SSTORE POP PUSH1 0x2 PUSH0 DUP4 DUP2 MSTORE PUSH1 0x20 ADD SWAP1 DUP2 MSTORE PUSH1 0x20 ADD PUSH0 KECCAK256 PUSH0 PUSH2 0x100 EXP DUP2 SLOAD SWAP1 PUSH20 0xFFFFFFFFFFFFFFFFFFFFFFFFFFFFFFFFFFFFFFFF MUL NOT AND SWAP1 SSTORE DUP2 DUP4 PUSH20 0xFFFFFFFFFFFFFFFFFFFFFFFFFFFFFFFFFFFFFFFF AND DUP6 PUSH20 0xFFFFFFFFFFFFFFFFFFFFFFFFFFFFFFFFFFFFFFFF AND PUSH32 0xDDF252AD1BE2C89B69C2B068FC378DAA952BA7F163C4A11628F55A4DF523B3EF PUSH1 0x40 MLOAD PUSH1 0x40 MLOAD DUP1 SWAP2 SUB SWAP1 LOG4 POP POP POP POP JUMP JUMPDEST PUSH1 0x1 PUSH1 0x20 MSTORE DUP1 PUSH0 MSTORE PUSH1 0x40 PUSH0 KECCAK256 PUSH0 SWAP2 POP SWAP1 POP DUP1 PUSH0 ADD DUP1 SLOAD PUSH2 0x1428 SWAP1 PUSH2 0x2CFC JUMP JUMPDEST DUP1 PUSH1 0x1F ADD PUSH1 0x20 DUP1 SWAP2 DIV MUL PUSH1 0x20 ADD PUSH1 0x40 MLOAD SWAP1 DUP2 ADD PUSH1 0x40 MSTORE DUP1 SWAP3 SWAP2 SWAP1 DUP2 DUP2 MSTORE PUSH1 0x20 ADD DUP3 DUP1 SLOAD PUSH2 0x1454 SWAP1 PUSH2 0x2CFC JUMP JUMPDEST DUP1 ISZERO PUSH2 0x149F JUMPI DUP1 PUSH1 0x1F LT PUSH2 0x1476 JUMPI PUSH2 0x100 DUP1 DUP4 SLOAD DIV MUL DUP4 MSTORE SWAP2 PUSH1 0x20 ADD SWAP2 PUSH2 0x149F JUMP JUMPDEST DUP3 ADD SWAP2 SWAP1 PUSH0 MSTORE PUSH1 0x20 PUSH0 KECCAK256 SWAP1 JUMPDEST DUP2 SLOAD DUP2 MSTORE SWAP1 PUSH1 0x1 ADD SWAP1 PUSH1 0x20 ADD DUP1 DUP4 GT PUSH2 0x1482 JUMPI DUP3 SWAP1 SUB PUSH1 0x1F AND DUP3 ADD SWAP2 JUMPDEST POP POP POP POP POP SWAP1 DUP1 PUSH1 0x1 ADD PUSH1 0x40 MLOAD DUP1 PUSH1 0x40 ADD PUSH1 0x40 MSTORE SWAP1 DUP2 PUSH0 DUP3 ADD DUP1 SLOAD DUP1 PUSH1 0x20 MUL PUSH1 0x20 ADD PUSH1 0x40 MLOAD SWAP1 DUP2 ADD PUSH1 0x40 MSTORE DUP1 SWAP3 SWAP2 SWAP1 DUP2 DUP2 MSTORE PUSH1 0x20 ADD PUSH0 SWAP1 JUMPDEST DUP3 DUP3 LT ISZERO PUSH2 0x157F JUMPI DUP4 DUP3 SWAP1 PUSH0 MSTORE PUSH1 0x20 PUSH0 KECCAK256 ADD DUP1 SLOAD PUSH2 0x14F4 SWAP1 PUSH2 0x2CFC JUMP JUMPDEST DUP1 PUSH1 0x1F ADD PUSH1 0x20 DUP1 SWAP2 DIV MUL PUSH1 0x20 ADD PUSH1 0x40 MLOAD SWAP1 DUP2 ADD PUSH1 0x40 MSTORE DUP1 SWAP3 SWAP2 SWAP1 DUP2 DUP2 MSTORE PUSH1 0x20 ADD DUP3 DUP1 SLOAD PUSH2 0x1520 SWAP1 PUSH2 0x2CFC JUMP JUMPDEST DUP1 ISZERO PUSH2 0x156B JUMPI DUP1 PUSH1 0x1F LT PUSH2 0x1542 JUMPI PUSH2 0x100 DUP1 DUP4 SLOAD DIV MUL DUP4 MSTORE SWAP2 PUSH1 0x20 ADD SWAP2 PUSH2 0x156B JUMP JUMPDEST DUP3 ADD SWAP2 SWAP1 PUSH0 MSTORE PUSH1 0x20 PUSH0 KECCAK256 SWAP1 JUMPDEST DUP2 SLOAD DUP2 MSTORE SWAP1 PUSH1 0x1 ADD SWAP1 PUSH1 0x20 ADD DUP1 DUP4 GT PUSH2 0x154E JUMPI DUP3 SWAP1 SUB PUSH1 0x1F AND DUP3 ADD SWAP2 JUMPDEST POP POP POP POP POP DUP2 MSTORE PUSH1 0x20 ADD SWAP1 PUSH1 0x1 ADD SWAP1 PUSH2 0x14D7 JUMP JUMPDEST POP POP POP POP DUP2 MSTORE PUSH1 0x20 ADD PUSH1 0x1 DUP3 ADD DUP1 SLOAD DUP1 PUSH1 0x20 MUL PUSH1 0x20 ADD PUSH1 0x40 MLOAD SWAP1 DUP2 ADD PUSH1 0x40 MSTORE DUP1 SWAP3 SWAP2 SWAP1 DUP2 DUP2 MSTORE PUSH1 0x20 ADD DUP3 DUP1 SLOAD DUP1 ISZERO PUSH2 0x15D4 JUMPI PUSH1 0x20 MUL DUP3 ADD SWAP2 SWAP1 PUSH0 MSTORE PUSH1 0x20 PUSH0 KECCAK256 SWAP1 JUMPDEST DUP2 SLOAD DUP2 MSTORE PUSH1 0x20 ADD SWAP1 PUSH1 0x1 ADD SWAP1 DUP1 DUP4 GT PUSH2 0x15C0 JUMPI JUMPDEST POP POP POP POP POP DUP2 MSTORE POP POP SWAP1 DUP1 PUSH1 0x3 ADD PUSH0 SWAP1 SLOAD SWAP1 PUSH2 0x100 EXP SWAP1 DIV PUSH20 0xFFFFFFFFFFFFFFFFFFFFFFFFFFFFFFFFFFFFFFFF AND SWAP1 POP DUP4 JUMP JUMPDEST CALLER PUSH20 0xFFFFFFFFFFFFFFFFFFFFFFFFFFFFFFFFFFFFFFFF AND PUSH1 0x1 PUSH0 DUP4 DUP2 MSTORE PUSH1 0x20 ADD SWAP1 DUP2 MSTORE PUSH1 0x20 ADD PUSH0 KECCAK256 PUSH1 0x3 ADD PUSH0 SWAP1 SLOAD SWAP1 PUSH2 0x100 EXP SWAP1 DIV PUSH20 0xFFFFFFFFFFFFFFFFFFFFFFFFFFFFFFFFFFFFFFFF AND PUSH20 0xFFFFFFFFFFFFFFFFFFFFFFFFFFFFFFFFFFFFFFFF AND EQ DUP1 PUSH2 0x16CF JUMPI POP PUSH1 0x2 PUSH0 DUP3 DUP2 MSTORE PUSH1 0x20 ADD SWAP1 DUP2 MSTORE PUSH1 0x20 ADD PUSH0 KECCAK256 PUSH0 SWAP1 SLOAD SWAP1 PUSH2 0x100 EXP SWAP1 DIV PUSH20 0xFFFFFFFFFFFFFFFFFFFFFFFFFFFFFFFFFFFFFFFF AND PUSH20 0xFFFFFFFFFFFFFFFFFFFFFFFFFFFFFFFFFFFFFFFF AND CALLER PUSH20 0xFFFFFFFFFFFFFFFFFFFFFFFFFFFFFFFFFFFFFFFF AND EQ JUMPDEST PUSH2 0x170E JUMPI PUSH1 0x40 MLOAD PUSH32 0x8C379A000000000000000000000000000000000000000000000000000000000 DUP2 MSTORE PUSH1 0x4 ADD PUSH2 0x1705 SWAP1 PUSH2 0x2E2A JUMP JUMPDEST PUSH1 0x40 MLOAD DUP1 SWAP2 SUB SWAP1 REVERT JUMPDEST PUSH1 0x1 PUSH0 DUP3 DUP2 MSTORE PUSH1 0x20 ADD SWAP1 DUP2 MSTORE PUSH1 0x20 ADD PUSH0 KECCAK256 PUSH0 DUP1 DUP3 ADD PUSH0 PUSH2 0x172E SWAP2 SWAP1 PUSH2 0x21E1 JUMP JUMPDEST PUSH1 0x1 DUP3 ADD PUSH0 DUP1 DUP3 ADD PUSH0 PUSH2 0x1741 SWAP2 SWAP1 PUSH2 0x221E JUMP JUMPDEST PUSH1 0x1 DUP3 ADD PUSH0 PUSH2 0x1750 SWAP2 SWAP1 PUSH2 0x223C JUMP JUMPDEST POP POP PUSH1 0x3 DUP3 ADD PUSH0 PUSH2 0x100 EXP DUP2 SLOAD SWAP1 PUSH20 0xFFFFFFFFFFFFFFFFFFFFFFFFFFFFFFFFFFFFFFFF MUL NOT AND SWAP1 SSTORE POP POP PUSH1 0x4 PUSH0 DUP2 SLOAD DUP1 SWAP3 SWAP2 SWAP1 PUSH2 0x178C SWAP1 PUSH2 0x34E5 JUMP JUMPDEST SWAP2 SWAP1 POP SSTORE POP PUSH1 0x3 PUSH0 PUSH1 0x1 PUSH0 DUP5 DUP2 MSTORE PUSH1 0x20 ADD SWAP1 DUP2 MSTORE PUSH1 0x20 ADD PUSH0 KECCAK256 PUSH1 0x3 ADD PUSH0 SWAP1 SLOAD SWAP1 PUSH2 0x100 EXP SWAP1 DIV PUSH20 0xFFFFFFFFFFFFFFFFFFFFFFFFFFFFFFFFFFFFFFFF AND PUSH20 0xFFFFFFFFFFFFFFFFFFFFFFFFFFFFFFFFFFFFFFFF AND PUSH20 0xFFFFFFFFFFFFFFFFFFFFFFFFFFFFFFFFFFFFFFFF AND DUP2 MSTORE PUSH1 0x20 ADD SWAP1 DUP2 MSTORE PUSH1 0x20 ADD PUSH0 KECCAK256 PUSH0 DUP2 SLOAD DUP1 SWAP3 SWAP2 SWAP1 PUSH2 0x1811 SWAP1 PUSH2 0x34E5 JUMP JUMPDEST SWAP2 SWAP1 POP SSTORE POP PUSH1 0x2 PUSH0 DUP3 DUP2 MSTORE PUSH1 0x20 ADD SWAP1 DUP2 MSTORE PUSH1 0x20 ADD PUSH0 KECCAK256 PUSH0 PUSH2 0x100 EXP DUP2 SLOAD SWAP1 PUSH20 0xFFFFFFFFFFFFFFFFFFFFFFFFFFFFFFFFFFFFFFFF MUL NOT AND SWAP1 SSTORE CALLER PUSH20 0xFFFFFFFFFFFFFFFFFFFFFFFFFFFFFFFFFFFFFFFF AND PUSH2 0x8FC PUSH2 0x3E8 SWAP1 DUP2 ISZERO MUL SWAP1 PUSH1 0x40 MLOAD PUSH0 PUSH1 0x40 MLOAD DUP1 DUP4 SUB DUP2 DUP6 DUP9 DUP9 CALL SWAP4 POP POP POP POP ISZERO DUP1 ISZERO PUSH2 0x188E JUMPI RETURNDATASIZE PUSH0 DUP1 RETURNDATACOPY RETURNDATASIZE PUSH0 REVERT JUMPDEST POP DUP1 PUSH0 PUSH20 0xFFFFFFFFFFFFFFFFFFFFFFFFFFFFFFFFFFFFFFFF AND CALLER PUSH20 0xFFFFFFFFFFFFFFFFFFFFFFFFFFFFFFFFFFFFFFFF AND PUSH32 0xDDF252AD1BE2C89B69C2B068FC378DAA952BA7F163C4A11628F55A4DF523B3EF PUSH1 0x40 MLOAD PUSH1 0x40 MLOAD DUP1 SWAP2 SUB SWAP1 LOG4 POP JUMP JUMPDEST PUSH0 DUP1 PUSH20 0xFFFFFFFFFFFFFFFFFFFFFFFFFFFFFFFFFFFFFFFF AND PUSH1 0x1 PUSH0 DUP5 DUP2 MSTORE PUSH1 0x20 ADD SWAP1 DUP2 MSTORE PUSH1 0x20 ADD PUSH0 KECCAK256 PUSH1 0x3 ADD PUSH0 SWAP1 SLOAD SWAP1 PUSH2 0x100 EXP SWAP1 DIV PUSH20 0xFFFFFFFFFFFFFFFFFFFFFFFFFFFFFFFFFFFFFFFF AND PUSH20 0xFFFFFFFFFFFFFFFFFFFFFFFFFFFFFFFFFFFFFFFF AND SUB PUSH2 0x198F JUMPI PUSH1 0x40 MLOAD PUSH32 0x8C379A000000000000000000000000000000000000000000000000000000000 DUP2 MSTORE PUSH1 0x4 ADD PUSH2 0x1986 SWAP1 PUSH2 0x2B95 JUMP JUMPDEST PUSH1 0x40 MLOAD DUP1 SWAP2 SUB SWAP1 REVERT JUMPDEST PUSH1 0x1 PUSH0 DUP4 DUP2 MSTORE PUSH1 0x20 ADD SWAP1 DUP2 MSTORE PUSH1 0x20 ADD PUSH0 KECCAK256 PUSH1 0x3 ADD PUSH0 SWAP1 SLOAD SWAP1 PUSH2 0x100 EXP SWAP1 DIV PUSH20 0xFFFFFFFFFFFFFFFFFFFFFFFFFFFFFFFFFFFFFFFF AND SWAP1 POP SWAP2 SWAP1 POP JUMP JUMPDEST PUSH0 DUP1 PUSH20 0xFFFFFFFFFFFFFFFFFFFFFFFFFFFFFFFFFFFFFFFF AND DUP3 PUSH20 0xFFFFFFFFFFFFFFFFFFFFFFFFFFFFFFFFFFFFFFFF AND SUB PUSH2 0x1A39 JUMPI PUSH1 0x40 MLOAD PUSH32 0x8C379A000000000000000000000000000000000000000000000000000000000 DUP2 MSTORE PUSH1 0x4 ADD PUSH2 0x1A30 SWAP1 PUSH2 0x370B JUMP JUMPDEST PUSH1 0x40 MLOAD DUP1 SWAP2 SUB SWAP1 REVERT JUMPDEST PUSH1 0x3 PUSH0 DUP4 PUSH20 0xFFFFFFFFFFFFFFFFFFFFFFFFFFFFFFFFFFFFFFFF AND PUSH20 0xFFFFFFFFFFFFFFFFFFFFFFFFFFFFFFFFFFFFFFFF AND DUP2 MSTORE PUSH1 0x20 ADD SWAP1 DUP2 MSTORE PUSH1 0x20 ADD PUSH0 KECCAK256 SLOAD SWAP1 POP SWAP2 SWAP1 POP JUMP JUMPDEST PUSH1 0x5 PUSH0 SWAP1 SLOAD SWAP1 PUSH2 0x100 EXP SWAP1 DIV PUSH20 0xFFFFFFFFFFFFFFFFFFFFFFFFFFFFFFFFFFFFFFFF AND PUSH20 0xFFFFFFFFFFFFFFFFFFFFFFFFFFFFFFFFFFFFFFFF AND CALLER PUSH20 0xFFFFFFFFFFFFFFFFFFFFFFFFFFFFFFFFFFFFFFFF AND EQ PUSH2 0x1B0D JUMPI PUSH1 0x40 MLOAD PUSH32 0x8C379A000000000000000000000000000000000000000000000000000000000 DUP2 MSTORE PUSH1 0x4 ADD PUSH2 0x1B04 SWAP1 PUSH2 0x37BF JUMP JUMPDEST PUSH1 0x40 MLOAD DUP1 SWAP2 SUB SWAP1 REVERT JUMPDEST PUSH0 PUSH2 0x3E8 PUSH1 0x4 SLOAD PUSH2 0x1B1E SWAP2 SWAP1 PUSH2 0x2FC1 JUMP JUMPDEST SWAP1 POP PUSH0 DUP2 SELFBALANCE PUSH2 0x1B2D SWAP2 SWAP1 PUSH2 0x37DD JUMP JUMPDEST SWAP1 POP PUSH0 DUP2 GT PUSH2 0x1B71 JUMPI PUSH1 0x40 MLOAD PUSH32 0x8C379A000000000000000000000000000000000000000000000000000000000 DUP2 MSTORE PUSH1 0x4 ADD PUSH2 0x1B68 SWAP1 PUSH2 0x385A JUMP JUMPDEST PUSH1 0x40 MLOAD DUP1 SWAP2 SUB SWAP1 REVERT JUMPDEST PUSH1 0x5 PUSH0 SWAP1 SLOAD SWAP1 PUSH2 0x100 EXP SWAP1 DIV PUSH20 0xFFFFFFFFFFFFFFFFFFFFFFFFFFFFFFFFFFFFFFFF AND PUSH20 0xFFFFFFFFFFFFFFFFFFFFFFFFFFFFFFFFFFFFFFFF AND PUSH2 0x8FC DUP3 SWAP1 DUP2 ISZERO MUL SWAP1 PUSH1 0x40 MLOAD PUSH0 PUSH1 0x40 MLOAD DUP1 DUP4 SUB DUP2 DUP6 DUP9 DUP9 CALL SWAP4 POP POP POP POP ISZERO DUP1 ISZERO PUSH2 0x1BD5 JUMPI RETURNDATASIZE PUSH0 DUP1 RETURNDATACOPY RETURNDATASIZE PUSH0 REVERT JUMPDEST POP POP POP JUMP JUMPDEST PUSH0 PUSH1 0x1 PUSH0 DUP5 DUP2 MSTORE PUSH1 0x20 ADD SWAP1 DUP2 MSTORE PUSH1 0x20 ADD PUSH0 KECCAK256 SWAP1 POP CALLER PUSH20 0xFFFFFFFFFFFFFFFFFFFFFFFFFFFFFFFFFFFFFFFF AND DUP2 PUSH1 0x3 ADD PUSH0 SWAP1 SLOAD SWAP1 PUSH2 0x100 EXP SWAP1 DIV PUSH20 0xFFFFFFFFFFFFFFFFFFFFFFFFFFFFFFFFFFFFFFFF AND PUSH20 0xFFFFFFFFFFFFFFFFFFFFFFFFFFFFFFFFFFFFFFFF AND EQ DUP1 PUSH2 0x1CA6 JUMPI POP PUSH1 0x2 PUSH0 DUP5 DUP2 MSTORE PUSH1 0x20 ADD SWAP1 DUP2 MSTORE PUSH1 0x20 ADD PUSH0 KECCAK256 PUSH0 SWAP1 SLOAD SWAP1 PUSH2 0x100 EXP SWAP1 DIV PUSH20 0xFFFFFFFFFFFFFFFFFFFFFFFFFFFFFFFFFFFFFFFF AND PUSH20 0xFFFFFFFFFFFFFFFFFFFFFFFFFFFFFFFFFFFFFFFF AND CALLER PUSH20 0xFFFFFFFFFFFFFFFFFFFFFFFFFFFFFFFFFFFFFFFF AND EQ JUMPDEST PUSH2 0x1CE5 JUMPI PUSH1 0x40 MLOAD PUSH32 0x8C379A000000000000000000000000000000000000000000000000000000000 DUP2 MSTORE PUSH1 0x4 ADD PUSH2 0x1CDC SWAP1 PUSH2 0x2E2A JUMP JUMPDEST PUSH1 0x40 MLOAD DUP1 SWAP2 SUB SWAP1 REVERT JUMPDEST PUSH0 DUP3 DUP4 PUSH2 0x1CF2 SWAP2 SWAP1 PUSH2 0x3878 JUMP JUMPDEST PUSH1 0xFF AND SWAP1 POP DUP1 CALLVALUE LT ISZERO PUSH2 0x1D3A JUMPI PUSH1 0x40 MLOAD PUSH32 0x8C379A000000000000000000000000000000000000000000000000000000000 DUP2 MSTORE PUSH1 0x4 ADD PUSH2 0x1D31 SWAP1 PUSH2 0x394A JUMP JUMPDEST PUSH1 0x40 MLOAD DUP1 SWAP2 SUB SWAP1 REVERT JUMPDEST PUSH2 0x1D97 DUP3 PUSH1 0x1 ADD PUSH1 0x1 ADD DUP1 SLOAD DUP1 PUSH1 0x20 MUL PUSH1 0x20 ADD PUSH1 0x40 MLOAD SWAP1 DUP2 ADD PUSH1 0x40 MSTORE DUP1 SWAP3 SWAP2 SWAP1 DUP2 DUP2 MSTORE PUSH1 0x20 ADD DUP3 DUP1 SLOAD DUP1 ISZERO PUSH2 0x1D8C JUMPI PUSH1 0x20 MUL DUP3 ADD SWAP2 SWAP1 PUSH0 MSTORE PUSH1 0x20 PUSH0 KECCAK256 SWAP1 JUMPDEST DUP2 SLOAD DUP2 MSTORE PUSH1 0x20 ADD SWAP1 PUSH1 0x1 ADD SWAP1 DUP1 DUP4 GT PUSH2 0x1D78 JUMPI JUMPDEST POP POP POP POP POP DUP5 PUSH2 0x2161 JUMP JUMPDEST POP POP POP POP JUMP JUMPDEST PUSH2 0x3E8 DUP2 JUMP JUMPDEST PUSH0 PUSH2 0x3E8 CALLVALUE EQ PUSH2 0x1DE8 JUMPI PUSH1 0x40 MLOAD PUSH32 0x8C379A000000000000000000000000000000000000000000000000000000000 DUP2 MSTORE PUSH1 0x4 ADD PUSH2 0x1DDF SWAP1 PUSH2 0x39B2 JUMP JUMPDEST PUSH1 0x40 MLOAD DUP1 SWAP2 SUB SWAP1 REVERT JUMPDEST PUSH0 DUP1 DUP2 SLOAD DUP1 SWAP3 SWAP2 SWAP1 PUSH2 0x1DF9 SWAP1 PUSH2 0x350C JUMP JUMPDEST SWAP2 SWAP1 POP SSTORE POP PUSH0 PUSH1 0x40 MLOAD DUP1 PUSH1 0x60 ADD PUSH1 0x40 MSTORE DUP1 DUP6 DUP6 DUP1 DUP1 PUSH1 0x1F ADD PUSH1 0x20 DUP1 SWAP2 DIV MUL PUSH1 0x20 ADD PUSH1 0x40 MLOAD SWAP1 DUP2 ADD PUSH1 0x40 MSTORE DUP1 SWAP4 SWAP3 SWAP2 SWAP1 DUP2 DUP2 MSTORE PUSH1 0x20 ADD DUP4 DUP4 DUP1 DUP3 DUP5 CALLDATACOPY PUSH0 DUP2 DUP5 ADD MSTORE PUSH1 0x1F NOT PUSH1 0x1F DUP3 ADD AND SWAP1 POP DUP1 DUP4 ADD SWAP3 POP POP POP POP POP POP POP DUP2 MSTORE PUSH1 0x20 ADD PUSH1 0x40 MLOAD DUP1 PUSH1 0x40 ADD PUSH1 0x40 MSTORE DUP1 PUSH0 PUSH8 0xFFFFFFFFFFFFFFFF DUP2 GT ISZERO PUSH2 0x1E78 JUMPI PUSH2 0x1E77 PUSH2 0x309A JUMP JUMPDEST JUMPDEST PUSH1 0x40 MLOAD SWAP1 DUP1 DUP3 MSTORE DUP1 PUSH1 0x20 MUL PUSH1 0x20 ADD DUP3 ADD PUSH1 0x40 MSTORE DUP1 ISZERO PUSH2 0x1EAB JUMPI DUP2 PUSH1 0x20 ADD JUMPDEST PUSH1 0x60 DUP2 MSTORE PUSH1 0x20 ADD SWAP1 PUSH1 0x1 SWAP1 SUB SWAP1 DUP2 PUSH2 0x1E96 JUMPI SWAP1 POP JUMPDEST POP DUP2 MSTORE PUSH1 0x20 ADD PUSH0 PUSH8 0xFFFFFFFFFFFFFFFF DUP2 GT ISZERO PUSH2 0x1ECB JUMPI PUSH2 0x1ECA PUSH2 0x309A JUMP JUMPDEST JUMPDEST PUSH1 0x40 MLOAD SWAP1 DUP1 DUP3 MSTORE DUP1 PUSH1 0x20 MUL PUSH1 0x20 ADD DUP3 ADD PUSH1 0x40 MSTORE DUP1 ISZERO PUSH2 0x1EF9 JUMPI DUP2 PUSH1 0x20 ADD PUSH1 0x20 DUP3 MUL DUP1 CALLDATASIZE DUP4 CALLDATACOPY DUP1 DUP3 ADD SWAP2 POP POP SWAP1 POP JUMPDEST POP DUP2 MSTORE POP DUP2 MSTORE PUSH1 0x20 ADD CALLER PUSH20 0xFFFFFFFFFFFFFFFFFFFFFFFFFFFFFFFFFFFFFFFF AND DUP2 MSTORE POP SWAP1 POP DUP1 PUSH1 0x1 PUSH0 DUP1 SLOAD DUP2 MSTORE PUSH1 0x20 ADD SWAP1 DUP2 MSTORE PUSH1 0x20 ADD PUSH0 KECCAK256 PUSH0 DUP3 ADD MLOAD DUP2 PUSH0 ADD SWAP1 DUP2 PUSH2 0x1F44 SWAP2 SWAP1 PUSH2 0x39D0 JUMP JUMPDEST POP PUSH1 0x20 DUP3 ADD MLOAD DUP2 PUSH1 0x1 ADD PUSH0 DUP3 ADD MLOAD DUP2 PUSH0 ADD SWAP1 DUP1 MLOAD SWAP1 PUSH1 0x20 ADD SWAP1 PUSH2 0x1F68 SWAP3 SWAP2 SWAP1 PUSH2 0x225A JUMP JUMPDEST POP PUSH1 0x20 DUP3 ADD MLOAD DUP2 PUSH1 0x1 ADD SWAP1 DUP1 MLOAD SWAP1 PUSH1 0x20 ADD SWAP1 PUSH2 0x1F85 SWAP3 SWAP2 SWAP1 PUSH2 0x22B1 JUMP JUMPDEST POP POP POP PUSH1 0x40 DUP3 ADD MLOAD DUP2 PUSH1 0x3 ADD PUSH0 PUSH2 0x100 EXP DUP2 SLOAD DUP2 PUSH20 0xFFFFFFFFFFFFFFFFFFFFFFFFFFFFFFFFFFFFFFFF MUL NOT AND SWAP1 DUP4 PUSH20 0xFFFFFFFFFFFFFFFFFFFFFFFFFFFFFFFFFFFFFFFF AND MUL OR SWAP1 SSTORE POP SWAP1 POP POP PUSH1 0x4 PUSH0 DUP2 SLOAD DUP1 SWAP3 SWAP2 SWAP1 PUSH2 0x1FE3 SWAP1 PUSH2 0x350C JUMP JUMPDEST SWAP2 SWAP1 POP SSTORE POP PUSH1 0x3 PUSH0 CALLER PUSH20 0xFFFFFFFFFFFFFFFFFFFFFFFFFFFFFFFFFFFFFFFF AND PUSH20 0xFFFFFFFFFFFFFFFFFFFFFFFFFFFFFFFFFFFFFFFF AND DUP2 MSTORE PUSH1 0x20 ADD SWAP1 DUP2 MSTORE PUSH1 0x20 ADD PUSH0 KECCAK256 PUSH0 DUP2 SLOAD DUP1 SWAP3 SWAP2 SWAP1 PUSH2 0x2035 SWAP1 PUSH2 0x350C JUMP JUMPDEST SWAP2 SWAP1 POP SSTORE POP PUSH0 SLOAD CALLER PUSH20 0xFFFFFFFFFFFFFFFFFFFFFFFFFFFFFFFFFFFFFFFF AND PUSH0 PUSH20 0xFFFFFFFFFFFFFFFFFFFFFFFFFFFFFFFFFFFFFFFF AND PUSH32 0xDDF252AD1BE2C89B69C2B068FC378DAA952BA7F163C4A11628F55A4DF523B3EF PUSH1 0x40 MLOAD PUSH1 0x40 MLOAD DUP1 SWAP2 SUB SWAP1 LOG4 PUSH0 SLOAD SWAP2 POP POP SWAP3 SWAP2 POP POP JUMP JUMPDEST PUSH0 DUP1 PUSH0 SWAP1 POP PUSH0 JUMPDEST DUP4 MLOAD DUP2 LT ISZERO PUSH2 0x20E6 JUMPI DUP4 DUP2 DUP2 MLOAD DUP2 LT PUSH2 0x20C4 JUMPI PUSH2 0x20C3 PUSH2 0x3A9F JUMP JUMPDEST JUMPDEST PUSH1 0x20 MUL PUSH1 0x20 ADD ADD MLOAD DUP3 PUSH2 0x20D7 SWAP2 SWAP1 PUSH2 0x2A22 JUMP JUMPDEST SWAP2 POP DUP1 DUP1 PUSH1 0x1 ADD SWAP2 POP POP PUSH2 0x20A8 JUMP JUMPDEST POP DUP1 SWAP2 POP POP SWAP2 SWAP1 POP JUMP JUMPDEST PUSH0 DUP1 PUSH0 SWAP1 POP JUMPDEST DUP5 MLOAD DUP2 LT ISZERO PUSH2 0x2155 JUMPI DUP4 DUP4 PUSH1 0x40 MLOAD PUSH2 0x210F SWAP3 SWAP2 SWAP1 PUSH2 0x3B08 JUMP JUMPDEST PUSH1 0x40 MLOAD DUP1 SWAP2 SUB SWAP1 KECCAK256 DUP6 DUP3 DUP2 MLOAD DUP2 LT PUSH2 0x212A JUMPI PUSH2 0x2129 PUSH2 0x3A9F JUMP JUMPDEST JUMPDEST PUSH1 0x20 MUL PUSH1 0x20 ADD ADD MLOAD DUP1 MLOAD SWAP1 PUSH1 0x20 ADD KECCAK256 SUB PUSH2 0x2148 JUMPI PUSH1 0x1 SWAP2 POP POP PUSH2 0x215A JUMP JUMPDEST DUP1 DUP1 PUSH1 0x1 ADD SWAP2 POP POP PUSH2 0x20F6 JUMP JUMPDEST POP PUSH0 SWAP1 POP JUMPDEST SWAP4 SWAP3 POP POP POP JUMP JUMPDEST PUSH0 JUMPDEST DUP3 MLOAD DUP2 LT ISZERO PUSH2 0x21DC JUMPI PUSH1 0x64 DUP3 PUSH2 0x2179 SWAP2 SWAP1 PUSH2 0x3B4D JUMP JUMPDEST PUSH1 0xFF AND DUP4 DUP3 DUP2 MLOAD DUP2 LT PUSH2 0x218F JUMPI PUSH2 0x218E PUSH2 0x3A9F JUMP JUMPDEST JUMPDEST PUSH1 0x20 MUL PUSH1 0x20 ADD ADD MLOAD PUSH2 0x21A1 SWAP2 SWAP1 PUSH2 0x2FC1 JUMP JUMPDEST DUP4 DUP3 DUP2 MLOAD DUP2 LT PUSH2 0x21B4 JUMPI PUSH2 0x21B3 PUSH2 0x3A9F JUMP JUMPDEST JUMPDEST PUSH1 0x20 MUL PUSH1 0x20 ADD ADD DUP2 DUP2 MLOAD PUSH2 0x21C8 SWAP2 SWAP1 PUSH2 0x2A22 JUMP JUMPDEST SWAP2 POP DUP2 DUP2 MSTORE POP POP DUP1 DUP1 PUSH1 0x1 ADD SWAP2 POP POP PUSH2 0x2163 JUMP JUMPDEST POP POP POP JUMP JUMPDEST POP DUP1 SLOAD PUSH2 0x21ED SWAP1 PUSH2 0x2CFC JUMP JUMPDEST PUSH0 DUP3 SSTORE DUP1 PUSH1 0x1F LT PUSH2 0x21FE JUMPI POP PUSH2 0x221B JUMP JUMPDEST PUSH1 0x1F ADD PUSH1 0x20 SWAP1 DIV SWAP1 PUSH0 MSTORE PUSH1 0x20 PUSH0 KECCAK256 SWAP1 DUP2 ADD SWAP1 PUSH2 0x221A SWAP2 SWAP1 PUSH2 0x22FC JUMP JUMPDEST JUMPDEST POP JUMP JUMPDEST POP DUP1 SLOAD PUSH0 DUP3 SSTORE SWAP1 PUSH0 MSTORE PUSH1 0x20 PUSH0 KECCAK256 SWAP1 DUP2 ADD SWAP1 PUSH2 0x2239 SWAP2 SWAP1 PUSH2 0x2317 JUMP JUMPDEST POP JUMP JUMPDEST POP DUP1 SLOAD PUSH0 DUP3 SSTORE SWAP1 PUSH0 MSTORE PUSH1 0x20 PUSH0 KECCAK256 SWAP1 DUP2 ADD SWAP1 PUSH2 0x2257 SWAP2 SWAP1 PUSH2 0x22FC JUMP JUMPDEST POP JUMP JUMPDEST DUP3 DUP1 SLOAD DUP3 DUP3 SSTORE SWAP1 PUSH0 MSTORE PUSH1 0x20 PUSH0 KECCAK256 SWAP1 DUP2 ADD SWAP3 DUP3 ISZERO PUSH2 0x22A0 JUMPI SWAP2 PUSH1 0x20 MUL DUP3 ADD JUMPDEST DUP3 DUP2 GT ISZERO PUSH2 0x229F JUMPI DUP3 MLOAD DUP3 SWAP1 DUP2 PUSH2 0x228F SWAP2 SWAP1 PUSH2 0x39D0 JUMP JUMPDEST POP SWAP2 PUSH1 0x20 ADD SWAP2 SWAP1 PUSH1 0x1 ADD SWAP1 PUSH2 0x2278 JUMP JUMPDEST JUMPDEST POP SWAP1 POP PUSH2 0x22AD SWAP2 SWAP1 PUSH2 0x2317 JUMP JUMPDEST POP SWAP1 JUMP JUMPDEST DUP3 DUP1 SLOAD DUP3 DUP3 SSTORE SWAP1 PUSH0 MSTORE PUSH1 0x20 PUSH0 KECCAK256 SWAP1 DUP2 ADD SWAP3 DUP3 ISZERO PUSH2 0x22EB JUMPI SWAP2 PUSH1 0x20 MUL DUP3 ADD JUMPDEST DUP3 DUP2 GT ISZERO PUSH2 0x22EA JUMPI DUP3 MLOAD DUP3 SSTORE SWAP2 PUSH1 0x20 ADD SWAP2 SWAP1 PUSH1 0x1 ADD SWAP1 PUSH2 0x22CF JUMP JUMPDEST JUMPDEST POP SWAP1 POP PUSH2 0x22F8 SWAP2 SWAP1 PUSH2 0x22FC JUMP JUMPDEST POP SWAP1 JUMP JUMPDEST JUMPDEST DUP1 DUP3 GT ISZERO PUSH2 0x2313 JUMPI PUSH0 DUP2 PUSH0 SWAP1 SSTORE POP PUSH1 0x1 ADD PUSH2 0x22FD JUMP JUMPDEST POP SWAP1 JUMP JUMPDEST JUMPDEST DUP1 DUP3 GT ISZERO PUSH2 0x2336 JUMPI PUSH0 DUP2 DUP2 PUSH2 0x232D SWAP2 SWAP1 PUSH2 0x21E1 JUMP JUMPDEST POP PUSH1 0x1 ADD PUSH2 0x2318 JUMP JUMPDEST POP SWAP1 JUMP JUMPDEST PUSH0 DUP1 REVERT JUMPDEST PUSH0 DUP1 REVERT JUMPDEST PUSH0 PUSH32 0xFFFFFFFF00000000000000000000000000000000000000000000000000000000 DUP3 AND SWAP1 POP SWAP2 SWAP1 POP JUMP JUMPDEST PUSH2 0x2376 DUP2 PUSH2 0x2342 JUMP JUMPDEST DUP2 EQ PUSH2 0x2380 JUMPI PUSH0 DUP1 REVERT JUMPDEST POP JUMP JUMPDEST PUSH0 DUP2 CALLDATALOAD SWAP1 POP PUSH2 0x2391 DUP2 PUSH2 0x236D JUMP JUMPDEST SWAP3 SWAP2 POP POP JUMP JUMPDEST PUSH0 PUSH1 0x20 DUP3 DUP5 SUB SLT ISZERO PUSH2 0x23AC JUMPI PUSH2 0x23AB PUSH2 0x233A JUMP JUMPDEST JUMPDEST PUSH0 PUSH2 0x23B9 DUP5 DUP3 DUP6 ADD PUSH2 0x2383 JUMP JUMPDEST SWAP2 POP POP SWAP3 SWAP2 POP POP JUMP JUMPDEST PUSH0 DUP2 ISZERO ISZERO SWAP1 POP SWAP2 SWAP1 POP JUMP JUMPDEST PUSH2 0x23D6 DUP2 PUSH2 0x23C2 JUMP JUMPDEST DUP3 MSTORE POP POP JUMP JUMPDEST PUSH0 PUSH1 0x20 DUP3 ADD SWAP1 POP PUSH2 0x23EF PUSH0 DUP4 ADD DUP5 PUSH2 0x23CD JUMP JUMPDEST SWAP3 SWAP2 POP POP JUMP JUMPDEST PUSH0 DUP2 SWAP1 POP SWAP2 SWAP1 POP JUMP JUMPDEST PUSH2 0x2407 DUP2 PUSH2 0x23F5 JUMP JUMPDEST DUP2 EQ PUSH2 0x2411 JUMPI PUSH0 DUP1 REVERT JUMPDEST POP JUMP JUMPDEST PUSH0 DUP2 CALLDATALOAD SWAP1 POP PUSH2 0x2422 DUP2 PUSH2 0x23FE JUMP JUMPDEST SWAP3 SWAP2 POP POP JUMP JUMPDEST PUSH0 PUSH1 0x20 DUP3 DUP5 SUB SLT ISZERO PUSH2 0x243D JUMPI PUSH2 0x243C PUSH2 0x233A JUMP JUMPDEST JUMPDEST PUSH0 PUSH2 0x244A DUP5 DUP3 DUP6 ADD PUSH2 0x2414 JUMP JUMPDEST SWAP2 POP POP SWAP3 SWAP2 POP POP JUMP JUMPDEST PUSH0 PUSH20 0xFFFFFFFFFFFFFFFFFFFFFFFFFFFFFFFFFFFFFFFF DUP3 AND SWAP1 POP SWAP2 SWAP1 POP JUMP JUMPDEST PUSH0 PUSH2 0x247C DUP3 PUSH2 0x2453 JUMP JUMPDEST SWAP1 POP SWAP2 SWAP1 POP JUMP JUMPDEST PUSH2 0x248C DUP2 PUSH2 0x2472 JUMP JUMPDEST DUP3 MSTORE POP POP JUMP JUMPDEST PUSH0 PUSH1 0x20 DUP3 ADD SWAP1 POP PUSH2 0x24A5 PUSH0 DUP4 ADD DUP5 PUSH2 0x2483 JUMP JUMPDEST SWAP3 SWAP2 POP POP JUMP JUMPDEST PUSH2 0x24B4 DUP2 PUSH2 0x2472 JUMP JUMPDEST DUP2 EQ PUSH2 0x24BE JUMPI PUSH0 DUP1 REVERT JUMPDEST POP JUMP JUMPDEST PUSH0 DUP2 CALLDATALOAD SWAP1 POP PUSH2 0x24CF DUP2 PUSH2 0x24AB JUMP JUMPDEST SWAP3 SWAP2 POP POP JUMP JUMPDEST PUSH0 DUP1 PUSH1 0x40 DUP4 DUP6 SUB SLT ISZERO PUSH2 0x24EB JUMPI PUSH2 0x24EA PUSH2 0x233A JUMP JUMPDEST JUMPDEST PUSH0 PUSH2 0x24F8 DUP6 DUP3 DUP7 ADD PUSH2 0x24C1 JUMP JUMPDEST SWAP3 POP POP PUSH1 0x20 PUSH2 0x2509 DUP6 DUP3 DUP7 ADD PUSH2 0x2414 JUMP JUMPDEST SWAP2 POP POP SWAP3 POP SWAP3 SWAP1 POP JUMP JUMPDEST PUSH0 DUP1 REVERT JUMPDEST PUSH0 DUP1 REVERT JUMPDEST PUSH0 DUP1 REVERT JUMPDEST PUSH0 DUP1 DUP4 PUSH1 0x1F DUP5 ADD SLT PUSH2 0x2534 JUMPI PUSH2 0x2533 PUSH2 0x2513 JUMP JUMPDEST JUMPDEST DUP3 CALLDATALOAD SWAP1 POP PUSH8 0xFFFFFFFFFFFFFFFF DUP2 GT ISZERO PUSH2 0x2551 JUMPI PUSH2 0x2550 PUSH2 0x2517 JUMP JUMPDEST JUMPDEST PUSH1 0x20 DUP4 ADD SWAP2 POP DUP4 PUSH1 0x1 DUP3 MUL DUP4 ADD GT ISZERO PUSH2 0x256D JUMPI PUSH2 0x256C PUSH2 0x251B JUMP JUMPDEST JUMPDEST SWAP3 POP SWAP3 SWAP1 POP JUMP JUMPDEST PUSH0 DUP1 PUSH0 DUP1 PUSH1 0x60 DUP6 DUP8 SUB SLT ISZERO PUSH2 0x258C JUMPI PUSH2 0x258B PUSH2 0x233A JUMP JUMPDEST JUMPDEST PUSH0 PUSH2 0x2599 DUP8 DUP3 DUP9 ADD PUSH2 0x2414 JUMP JUMPDEST SWAP5 POP POP PUSH1 0x20 DUP6 ADD CALLDATALOAD PUSH8 0xFFFFFFFFFFFFFFFF DUP2 GT ISZERO PUSH2 0x25BA JUMPI PUSH2 0x25B9 PUSH2 0x233E JUMP JUMPDEST JUMPDEST PUSH2 0x25C6 DUP8 DUP3 DUP9 ADD PUSH2 0x251F JUMP JUMPDEST SWAP4 POP SWAP4 POP POP PUSH1 0x40 PUSH2 0x25D9 DUP8 DUP3 DUP9 ADD PUSH2 0x2414 JUMP JUMPDEST SWAP2 POP POP SWAP3 SWAP6 SWAP2 SWAP5 POP SWAP3 POP JUMP JUMPDEST PUSH0 DUP1 PUSH0 PUSH1 0x60 DUP5 DUP7 SUB SLT ISZERO PUSH2 0x25FC JUMPI PUSH2 0x25FB PUSH2 0x233A JUMP JUMPDEST JUMPDEST PUSH0 PUSH2 0x2609 DUP7 DUP3 DUP8 ADD PUSH2 0x24C1 JUMP JUMPDEST SWAP4 POP POP PUSH1 0x20 PUSH2 0x261A DUP7 DUP3 DUP8 ADD PUSH2 0x24C1 JUMP JUMPDEST SWAP3 POP POP PUSH1 0x40 PUSH2 0x262B DUP7 DUP3 DUP8 ADD PUSH2 0x2414 JUMP JUMPDEST SWAP2 POP POP SWAP3 POP SWAP3 POP SWAP3 JUMP JUMPDEST PUSH0 DUP2 MLOAD SWAP1 POP SWAP2 SWAP1 POP JUMP JUMPDEST PUSH0 DUP3 DUP3 MSTORE PUSH1 0x20 DUP3 ADD SWAP1 POP SWAP3 SWAP2 POP POP JUMP JUMPDEST DUP3 DUP2 DUP4 MCOPY PUSH0 DUP4 DUP4 ADD MSTORE POP POP POP JUMP JUMPDEST PUSH0 PUSH1 0x1F NOT PUSH1 0x1F DUP4 ADD AND SWAP1 POP SWAP2 SWAP1 POP JUMP JUMPDEST PUSH0 PUSH2 0x2677 DUP3 PUSH2 0x2635 JUMP JUMPDEST PUSH2 0x2681 DUP2 DUP6 PUSH2 0x263F JUMP JUMPDEST SWAP4 POP PUSH2 0x2691 DUP2 DUP6 PUSH1 0x20 DUP7 ADD PUSH2 0x264F JUMP JUMPDEST PUSH2 0x269A DUP2 PUSH2 0x265D JUMP JUMPDEST DUP5 ADD SWAP2 POP POP SWAP3 SWAP2 POP POP JUMP JUMPDEST PUSH0 DUP2 MLOAD SWAP1 POP SWAP2 SWAP1 POP JUMP JUMPDEST PUSH0 DUP3 DUP3 MSTORE PUSH1 0x20 DUP3 ADD SWAP1 POP SWAP3 SWAP2 POP POP JUMP JUMPDEST PUSH0 DUP2 SWAP1 POP PUSH1 0x20 DUP3 ADD SWAP1 POP SWAP2 SWAP1 POP JUMP JUMPDEST PUSH0 DUP3 DUP3 MSTORE PUSH1 0x20 DUP3 ADD SWAP1 POP SWAP3 SWAP2 POP POP JUMP JUMPDEST PUSH0 PUSH2 0x26E8 DUP3 PUSH2 0x2635 JUMP JUMPDEST PUSH2 0x26F2 DUP2 DUP6 PUSH2 0x26CE JUMP JUMPDEST SWAP4 POP PUSH2 0x2702 DUP2 DUP6 PUSH1 0x20 DUP7 ADD PUSH2 0x264F JUMP JUMPDEST PUSH2 0x270B DUP2 PUSH2 0x265D JUMP JUMPDEST DUP5 ADD SWAP2 POP POP SWAP3 SWAP2 POP POP JUMP JUMPDEST PUSH0 PUSH2 0x2721 DUP4 DUP4 PUSH2 0x26DE JUMP JUMPDEST SWAP1 POP SWAP3 SWAP2 POP POP JUMP JUMPDEST PUSH0 PUSH1 0x20 DUP3 ADD SWAP1 POP SWAP2 SWAP1 POP JUMP JUMPDEST PUSH0 PUSH2 0x273F DUP3 PUSH2 0x26A5 JUMP JUMPDEST PUSH2 0x2749 DUP2 DUP6 PUSH2 0x26AF JUMP JUMPDEST SWAP4 POP DUP4 PUSH1 0x20 DUP3 MUL DUP6 ADD PUSH2 0x275B DUP6 PUSH2 0x26BF JUMP JUMPDEST DUP1 PUSH0 JUMPDEST DUP6 DUP2 LT ISZERO PUSH2 0x2796 JUMPI DUP5 DUP5 SUB DUP10 MSTORE DUP2 MLOAD PUSH2 0x2777 DUP6 DUP3 PUSH2 0x2716 JUMP JUMPDEST SWAP5 POP PUSH2 0x2782 DUP4 PUSH2 0x2729 JUMP JUMPDEST SWAP3 POP PUSH1 0x20 DUP11 ADD SWAP10 POP POP PUSH1 0x1 DUP2 ADD SWAP1 POP PUSH2 0x275E JUMP JUMPDEST POP DUP3 SWAP8 POP DUP8 SWAP6 POP POP POP POP POP POP SWAP3 SWAP2 POP POP JUMP JUMPDEST PUSH0 DUP2 MLOAD SWAP1 POP SWAP2 SWAP1 POP JUMP JUMPDEST PUSH0 DUP3 DUP3 MSTORE PUSH1 0x20 DUP3 ADD SWAP1 POP SWAP3 SWAP2 POP POP JUMP JUMPDEST PUSH0 DUP2 SWAP1 POP PUSH1 0x20 DUP3 ADD SWAP1 POP SWAP2 SWAP1 POP JUMP JUMPDEST PUSH2 0x27DA DUP2 PUSH2 0x23F5 JUMP JUMPDEST DUP3 MSTORE POP POP JUMP JUMPDEST PUSH0 PUSH2 0x27EB DUP4 DUP4 PUSH2 0x27D1 JUMP JUMPDEST PUSH1 0x20 DUP4 ADD SWAP1 POP SWAP3 SWAP2 POP POP JUMP JUMPDEST PUSH0 PUSH1 0x20 DUP3 ADD SWAP1 POP SWAP2 SWAP1 POP JUMP JUMPDEST PUSH0 PUSH2 0x280D DUP3 PUSH2 0x27A8 JUMP JUMPDEST PUSH2 0x2817 DUP2 DUP6 PUSH2 0x27B2 JUMP JUMPDEST SWAP4 POP PUSH2 0x2822 DUP4 PUSH2 0x27C2 JUMP JUMPDEST DUP1 PUSH0 JUMPDEST DUP4 DUP2 LT ISZERO PUSH2 0x2852 JUMPI DUP2 MLOAD PUSH2 0x2839 DUP9 DUP3 PUSH2 0x27E0 JUMP JUMPDEST SWAP8 POP PUSH2 0x2844 DUP4 PUSH2 0x27F7 JUMP JUMPDEST SWAP3 POP POP PUSH1 0x1 DUP2 ADD SWAP1 POP PUSH2 0x2825 JUMP JUMPDEST POP DUP6 SWAP4 POP POP POP POP SWAP3 SWAP2 POP POP JUMP JUMPDEST PUSH0 PUSH1 0x40 DUP4 ADD PUSH0 DUP4 ADD MLOAD DUP5 DUP3 SUB PUSH0 DUP7 ADD MSTORE PUSH2 0x2879 DUP3 DUP3 PUSH2 0x2735 JUMP JUMPDEST SWAP2 POP POP PUSH1 0x20 DUP4 ADD MLOAD DUP5 DUP3 SUB PUSH1 0x20 DUP7 ADD MSTORE PUSH2 0x2893 DUP3 DUP3 PUSH2 0x2803 JUMP JUMPDEST SWAP2 POP POP DUP1 SWAP2 POP POP SWAP3 SWAP2 POP POP JUMP JUMPDEST PUSH0 PUSH1 0x60 DUP3 ADD SWAP1 POP DUP2 DUP2 SUB PUSH0 DUP4 ADD MSTORE PUSH2 0x28B8 DUP2 DUP7 PUSH2 0x266D JUMP JUMPDEST SWAP1 POP DUP2 DUP2 SUB PUSH1 0x20 DUP4 ADD MSTORE PUSH2 0x28CC DUP2 DUP6 PUSH2 0x285F JUMP JUMPDEST SWAP1 POP PUSH2 0x28DB PUSH1 0x40 DUP4 ADD DUP5 PUSH2 0x2483 JUMP JUMPDEST SWAP5 SWAP4 POP POP POP POP JUMP JUMPDEST PUSH0 PUSH1 0x20 DUP3 DUP5 SUB SLT ISZERO PUSH2 0x28F8 JUMPI PUSH2 0x28F7 PUSH2 0x233A JUMP JUMPDEST JUMPDEST PUSH0 PUSH2 0x2905 DUP5 DUP3 DUP6 ADD PUSH2 0x24C1 JUMP JUMPDEST SWAP2 POP POP SWAP3 SWAP2 POP POP JUMP JUMPDEST PUSH2 0x2917 DUP2 PUSH2 0x23F5 JUMP JUMPDEST DUP3 MSTORE POP POP JUMP JUMPDEST PUSH0 PUSH1 0x20 DUP3 ADD SWAP1 POP PUSH2 0x2930 PUSH0 DUP4 ADD DUP5 PUSH2 0x290E JUMP JUMPDEST SWAP3 SWAP2 POP POP JUMP JUMPDEST PUSH0 PUSH1 0xFF DUP3 AND SWAP1 POP SWAP2 SWAP1 POP JUMP JUMPDEST PUSH2 0x294B DUP2 PUSH2 0x2936 JUMP JUMPDEST DUP2 EQ PUSH2 0x2955 JUMPI PUSH0 DUP1 REVERT JUMPDEST POP JUMP JUMPDEST PUSH0 DUP2 CALLDATALOAD SWAP1 POP PUSH2 0x2966 DUP2 PUSH2 0x2942 JUMP JUMPDEST SWAP3 SWAP2 POP POP JUMP JUMPDEST PUSH0 DUP1 PUSH1 0x40 DUP4 DUP6 SUB SLT ISZERO PUSH2 0x2982 JUMPI PUSH2 0x2981 PUSH2 0x233A JUMP JUMPDEST JUMPDEST PUSH0 PUSH2 0x298F DUP6 DUP3 DUP7 ADD PUSH2 0x2414 JUMP JUMPDEST SWAP3 POP POP PUSH1 0x20 PUSH2 0x29A0 DUP6 DUP3 DUP7 ADD PUSH2 0x2958 JUMP JUMPDEST SWAP2 POP POP SWAP3 POP SWAP3 SWAP1 POP JUMP JUMPDEST PUSH0 DUP1 PUSH1 0x20 DUP4 DUP6 SUB SLT ISZERO PUSH2 0x29C0 JUMPI PUSH2 0x29BF PUSH2 0x233A JUMP JUMPDEST JUMPDEST PUSH0 DUP4 ADD CALLDATALOAD PUSH8 0xFFFFFFFFFFFFFFFF DUP2 GT ISZERO PUSH2 0x29DD JUMPI PUSH2 0x29DC PUSH2 0x233E JUMP JUMPDEST JUMPDEST PUSH2 0x29E9 DUP6 DUP3 DUP7 ADD PUSH2 0x251F JUMP JUMPDEST SWAP3 POP SWAP3 POP POP SWAP3 POP SWAP3 SWAP1 POP JUMP JUMPDEST PUSH32 0x4E487B7100000000000000000000000000000000000000000000000000000000 PUSH0 MSTORE PUSH1 0x11 PUSH1 0x4 MSTORE PUSH1 0x24 PUSH0 REVERT JUMPDEST PUSH0 PUSH2 0x2A2C DUP3 PUSH2 0x23F5 JUMP JUMPDEST SWAP2 POP PUSH2 0x2A37 DUP4 PUSH2 0x23F5 JUMP JUMPDEST SWAP3 POP DUP3 DUP3 ADD SWAP1 POP DUP1 DUP3 GT ISZERO PUSH2 0x2A4F JUMPI PUSH2 0x2A4E PUSH2 0x29F5 JUMP JUMPDEST JUMPDEST SWAP3 SWAP2 POP POP JUMP JUMPDEST PUSH32 0x4E6F20686179206E696E67756E20706572736F6E616A65000000000000000000 PUSH0 DUP3 ADD MSTORE POP JUMP JUMPDEST PUSH0 PUSH2 0x2A89 PUSH1 0x17 DUP4 PUSH2 0x263F JUMP JUMPDEST SWAP2 POP PUSH2 0x2A94 DUP3 PUSH2 0x2A55 JUMP JUMPDEST PUSH1 0x20 DUP3 ADD SWAP1 POP SWAP2 SWAP1 POP JUMP JUMPDEST PUSH0 PUSH1 0x20 DUP3 ADD SWAP1 POP DUP2 DUP2 SUB PUSH0 DUP4 ADD MSTORE PUSH2 0x2AB6 DUP2 PUSH2 0x2A7D JUMP JUMPDEST SWAP1 POP SWAP2 SWAP1 POP JUMP JUMPDEST PUSH32 0x456D69736F722064656265207365722070726F706965746172696F2064656C20 PUSH0 DUP3 ADD MSTORE PUSH32 0x746F6B656E000000000000000000000000000000000000000000000000000000 PUSH1 0x20 DUP3 ADD MSTORE POP JUMP JUMPDEST PUSH0 PUSH2 0x2B17 PUSH1 0x25 DUP4 PUSH2 0x263F JUMP JUMPDEST SWAP2 POP PUSH2 0x2B22 DUP3 PUSH2 0x2ABD JUMP JUMPDEST PUSH1 0x40 DUP3 ADD SWAP1 POP SWAP2 SWAP1 POP JUMP JUMPDEST PUSH0 PUSH1 0x20 DUP3 ADD SWAP1 POP DUP2 DUP2 SUB PUSH0 DUP4 ADD MSTORE PUSH2 0x2B44 DUP2 PUSH2 0x2B0B JUMP JUMPDEST SWAP1 POP SWAP2 SWAP1 POP JUMP JUMPDEST PUSH32 0x546F6B656E206E6F206578697374650000000000000000000000000000000000 PUSH0 DUP3 ADD MSTORE POP JUMP JUMPDEST PUSH0 PUSH2 0x2B7F PUSH1 0xF DUP4 PUSH2 0x263F JUMP JUMPDEST SWAP2 POP PUSH2 0x2B8A DUP3 PUSH2 0x2B4B JUMP JUMPDEST PUSH1 0x20 DUP3 ADD SWAP1 POP SWAP2 SWAP1 POP JUMP JUMPDEST PUSH0 PUSH1 0x20 DUP3 ADD SWAP1 POP DUP2 DUP2 SUB PUSH0 DUP4 ADD MSTORE PUSH2 0x2BAC DUP2 PUSH2 0x2B73 JUMP JUMPDEST SWAP1 POP SWAP2 SWAP1 POP JUMP JUMPDEST PUSH32 0x446562657320656E7669617220616C206D656E6F73206C612073756D61206465 PUSH0 DUP3 ADD MSTORE PUSH32 0x206C617320706F74656E6369617320646520667565676F20656E205765690000 PUSH1 0x20 DUP3 ADD MSTORE POP JUMP JUMPDEST PUSH0 PUSH2 0x2C0D PUSH1 0x3E DUP4 PUSH2 0x263F JUMP JUMPDEST SWAP2 POP PUSH2 0x2C18 DUP3 PUSH2 0x2BB3 JUMP JUMPDEST PUSH1 0x40 DUP3 ADD SWAP1 POP SWAP2 SWAP1 POP JUMP JUMPDEST PUSH0 PUSH1 0x20 DUP3 ADD SWAP1 POP DUP2 DUP2 SUB PUSH0 DUP4 ADD MSTORE PUSH2 0x2C3A DUP2 PUSH2 0x2C01 JUMP JUMPDEST SWAP1 POP SWAP2 SWAP1 POP JUMP JUMPDEST PUSH32 0x4E6F2070756564657320637265617220756E2061726D61206120756E20706572 PUSH0 DUP3 ADD MSTORE PUSH32 0x736F6E616A6520696E6578697374656E74650000000000000000000000000000 PUSH1 0x20 DUP3 ADD MSTORE POP JUMP JUMPDEST PUSH0 PUSH2 0x2C9B PUSH1 0x32 DUP4 PUSH2 0x263F JUMP JUMPDEST SWAP2 POP PUSH2 0x2CA6 DUP3 PUSH2 0x2C41 JUMP JUMPDEST PUSH1 0x40 DUP3 ADD SWAP1 POP SWAP2 SWAP1 POP JUMP JUMPDEST PUSH0 PUSH1 0x20 DUP3 ADD SWAP1 POP DUP2 DUP2 SUB PUSH0 DUP4 ADD MSTORE PUSH2 0x2CC8 DUP2 PUSH2 0x2C8F JUMP JUMPDEST SWAP1 POP SWAP2 SWAP1 POP JUMP JUMPDEST PUSH32 0x4E487B7100000000000000000000000000000000000000000000000000000000 PUSH0 MSTORE PUSH1 0x22 PUSH1 0x4 MSTORE PUSH1 0x24 PUSH0 REVERT JUMPDEST PUSH0 PUSH1 0x2 DUP3 DIV SWAP1 POP PUSH1 0x1 DUP3 AND DUP1 PUSH2 0x2D13 JUMPI PUSH1 0x7F DUP3 AND SWAP2 POP JUMPDEST PUSH1 0x20 DUP3 LT DUP2 SUB PUSH2 0x2D26 JUMPI PUSH2 0x2D25 PUSH2 0x2CCF JUMP JUMPDEST JUMPDEST POP SWAP2 SWAP1 POP JUMP JUMPDEST PUSH32 0x456C2061726D612071756520657374617320696E74656E74616E646F20637265 PUSH0 DUP3 ADD MSTORE PUSH32 0x6172207961206578697374650000000000000000000000000000000000000000 PUSH1 0x20 DUP3 ADD MSTORE POP JUMP JUMPDEST PUSH0 PUSH2 0x2D86 PUSH1 0x2C DUP4 PUSH2 0x263F JUMP JUMPDEST SWAP2 POP PUSH2 0x2D91 DUP3 PUSH2 0x2D2C JUMP JUMPDEST PUSH1 0x40 DUP3 ADD SWAP1 POP SWAP2 SWAP1 POP JUMP JUMPDEST PUSH0 PUSH1 0x20 DUP3 ADD SWAP1 POP DUP2 DUP2 SUB PUSH0 DUP4 ADD MSTORE PUSH2 0x2DB3 DUP2 PUSH2 0x2D7A JUMP JUMPDEST SWAP1 POP SWAP2 SWAP1 POP JUMP JUMPDEST PUSH32 0x536F6C6F20656C2070726F706965746172696F2079206170726F6261646F2070 PUSH0 DUP3 ADD MSTORE PUSH32 0x756564656E20656A65637574617220657374612066756E63696F6E0000000000 PUSH1 0x20 DUP3 ADD MSTORE POP JUMP JUMPDEST PUSH0 PUSH2 0x2E14 PUSH1 0x3B DUP4 PUSH2 0x263F JUMP JUMPDEST SWAP2 POP PUSH2 0x2E1F DUP3 PUSH2 0x2DBA JUMP JUMPDEST PUSH1 0x40 DUP3 ADD SWAP1 POP SWAP2 SWAP1 POP JUMP JUMPDEST PUSH0 PUSH1 0x20 DUP3 ADD SWAP1 POP DUP2 DUP2 SUB PUSH0 DUP4 ADD MSTORE PUSH2 0x2E41 DUP2 PUSH2 0x2E08 JUMP JUMPDEST SWAP1 POP SWAP2 SWAP1 POP JUMP JUMPDEST PUSH0 DUP2 PUSH1 0x1 SHR SWAP1 POP SWAP2 SWAP1 POP JUMP JUMPDEST PUSH0 DUP1 DUP3 SWAP2 POP DUP4 SWAP1 POP JUMPDEST PUSH1 0x1 DUP6 GT ISZERO PUSH2 0x2E9D JUMPI DUP1 DUP7 DIV DUP2 GT ISZERO PUSH2 0x2E79 JUMPI PUSH2 0x2E78 PUSH2 0x29F5 JUMP JUMPDEST JUMPDEST PUSH1 0x1 DUP6 AND ISZERO PUSH2 0x2E88 JUMPI DUP1 DUP3 MUL SWAP2 POP JUMPDEST DUP1 DUP2 MUL SWAP1 POP PUSH2 0x2E96 DUP6 PUSH2 0x2E48 JUMP JUMPDEST SWAP5 POP PUSH2 0x2E5D JUMP JUMPDEST SWAP5 POP SWAP5 SWAP3 POP POP POP JUMP JUMPDEST PUSH0 DUP3 PUSH2 0x2EB5 JUMPI PUSH1 0x1 SWAP1 POP PUSH2 0x2F70 JUMP JUMPDEST DUP2 PUSH2 0x2EC2 JUMPI PUSH0 SWAP1 POP PUSH2 0x2F70 JUMP JUMPDEST DUP2 PUSH1 0x1 DUP2 EQ PUSH2 0x2ED8 JUMPI PUSH1 0x2 DUP2 EQ PUSH2 0x2EE2 JUMPI PUSH2 0x2F11 JUMP JUMPDEST PUSH1 0x1 SWAP2 POP POP PUSH2 0x2F70 JUMP JUMPDEST PUSH1 0xFF DUP5 GT ISZERO PUSH2 0x2EF4 JUMPI PUSH2 0x2EF3 PUSH2 0x29F5 JUMP JUMPDEST JUMPDEST DUP4 PUSH1 0x2 EXP SWAP2 POP DUP5 DUP3 GT ISZERO PUSH2 0x2F0B JUMPI PUSH2 0x2F0A PUSH2 0x29F5 JUMP JUMPDEST JUMPDEST POP PUSH2 0x2F70 JUMP JUMPDEST POP PUSH1 0x20 DUP4 LT PUSH2 0x133 DUP4 LT AND PUSH1 0x4E DUP5 LT PUSH1 0xB DUP5 LT AND OR ISZERO PUSH2 0x2F46 JUMPI DUP3 DUP3 EXP SWAP1 POP DUP4 DUP2 GT ISZERO PUSH2 0x2F41 JUMPI PUSH2 0x2F40 PUSH2 0x29F5 JUMP JUMPDEST JUMPDEST PUSH2 0x2F70 JUMP JUMPDEST PUSH2 0x2F53 DUP5 DUP5 DUP5 PUSH1 0x1 PUSH2 0x2E54 JUMP JUMPDEST SWAP3 POP SWAP1 POP DUP2 DUP5 DIV DUP2 GT ISZERO PUSH2 0x2F6A JUMPI PUSH2 0x2F69 PUSH2 0x29F5 JUMP JUMPDEST JUMPDEST DUP2 DUP2 MUL SWAP1 POP JUMPDEST SWAP4 SWAP3 POP POP POP JUMP JUMPDEST PUSH0 PUSH2 0x2F81 DUP3 PUSH2 0x23F5 JUMP JUMPDEST SWAP2 POP PUSH2 0x2F8C DUP4 PUSH2 0x23F5 JUMP JUMPDEST SWAP3 POP PUSH2 0x2FB9 PUSH32 0xFFFFFFFFFFFFFFFFFFFFFFFFFFFFFFFFFFFFFFFFFFFFFFFFFFFFFFFFFFFFFFFF DUP5 DUP5 PUSH2 0x2EA6 JUMP JUMPDEST SWAP1 POP SWAP3 SWAP2 POP POP JUMP JUMPDEST PUSH0 PUSH2 0x2FCB DUP3 PUSH2 0x23F5 JUMP JUMPDEST SWAP2 POP PUSH2 0x2FD6 DUP4 PUSH2 0x23F5 JUMP JUMPDEST SWAP3 POP DUP3 DUP3 MUL PUSH2 0x2FE4 DUP2 PUSH2 0x23F5 JUMP JUMPDEST SWAP2 POP DUP3 DUP3 DIV DUP5 EQ DUP4 ISZERO OR PUSH2 0x2FFB JUMPI PUSH2 0x2FFA PUSH2 0x29F5 JUMP JUMPDEST JUMPDEST POP SWAP3 SWAP2 POP POP JUMP JUMPDEST PUSH32 0x4E6F207469656E657320737566696369656E7465732077656973207061726120 PUSH0 DUP3 ADD MSTORE PUSH32 0x6167726567617220656C2061726D610000000000000000000000000000000000 PUSH1 0x20 DUP3 ADD MSTORE POP JUMP JUMPDEST PUSH0 PUSH2 0x305C PUSH1 0x2F DUP4 PUSH2 0x263F JUMP JUMPDEST SWAP2 POP PUSH2 0x3067 DUP3 PUSH2 0x3002 JUMP JUMPDEST PUSH1 0x40 DUP3 ADD SWAP1 POP SWAP2 SWAP1 POP JUMP JUMPDEST PUSH0 PUSH1 0x20 DUP3 ADD SWAP1 POP DUP2 DUP2 SUB PUSH0 DUP4 ADD MSTORE PUSH2 0x3089 DUP2 PUSH2 0x3050 JUMP JUMPDEST SWAP1 POP SWAP2 SWAP1 POP JUMP JUMPDEST PUSH0 DUP3 SWAP1 POP SWAP3 SWAP2 POP POP JUMP JUMPDEST PUSH32 0x4E487B7100000000000000000000000000000000000000000000000000000000 PUSH0 MSTORE PUSH1 0x41 PUSH1 0x4 MSTORE PUSH1 0x24 PUSH0 REVERT JUMPDEST PUSH0 DUP2 SWAP1 POP DUP2 PUSH0 MSTORE PUSH1 0x20 PUSH0 KECCAK256 SWAP1 POP SWAP2 SWAP1 POP JUMP JUMPDEST PUSH0 PUSH1 0x20 PUSH1 0x1F DUP4 ADD DIV SWAP1 POP SWAP2 SWAP1 POP JUMP JUMPDEST PUSH0 DUP3 DUP3 SHL SWAP1 POP SWAP3 SWAP2 POP POP JUMP JUMPDEST PUSH0 PUSH1 0x8 DUP4 MUL PUSH2 0x3123 PUSH32 0xFFFFFFFFFFFFFFFFFFFFFFFFFFFFFFFFFFFFFFFFFFFFFFFFFFFFFFFFFFFFFFFF DUP3 PUSH2 0x30E8 JUMP JUMPDEST PUSH2 0x312D DUP7 DUP4 PUSH2 0x30E8 JUMP JUMPDEST SWAP6 POP DUP1 NOT DUP5 AND SWAP4 POP DUP1 DUP7 AND DUP5 OR SWAP3 POP POP POP SWAP4 SWAP3 POP POP POP JUMP JUMPDEST PUSH0 DUP2 SWAP1 POP SWAP2 SWAP1 POP JUMP JUMPDEST PUSH0 PUSH2 0x3168 PUSH2 0x3163 PUSH2 0x315E DUP5 PUSH2 0x23F5 JUMP JUMPDEST PUSH2 0x3145 JUMP JUMPDEST PUSH2 0x23F5 JUMP JUMPDEST SWAP1 POP SWAP2 SWAP1 POP JUMP JUMPDEST PUSH0 DUP2 SWAP1 POP SWAP2 SWAP1 POP JUMP JUMPDEST PUSH2 0x3181 DUP4 PUSH2 0x314E JUMP JUMPDEST PUSH2 0x3195 PUSH2 0x318D DUP3 PUSH2 0x316F JUMP JUMPDEST DUP5 DUP5 SLOAD PUSH2 0x30F4 JUMP JUMPDEST DUP3 SSTORE POP POP POP POP JUMP JUMPDEST PUSH0 SWAP1 JUMP JUMPDEST PUSH2 0x31A9 PUSH2 0x319D JUMP JUMPDEST PUSH2 0x31B4 DUP2 DUP5 DUP5 PUSH2 0x3178 JUMP JUMPDEST POP POP POP JUMP JUMPDEST JUMPDEST DUP2 DUP2 LT ISZERO PUSH2 0x31D7 JUMPI PUSH2 0x31CC PUSH0 DUP3 PUSH2 0x31A1 JUMP JUMPDEST PUSH1 0x1 DUP2 ADD SWAP1 POP PUSH2 0x31BA JUMP JUMPDEST POP POP JUMP JUMPDEST PUSH1 0x1F DUP3 GT ISZERO PUSH2 0x321C JUMPI PUSH2 0x31ED DUP2 PUSH2 0x30C7 JUMP JUMPDEST PUSH2 0x31F6 DUP5 PUSH2 0x30D9 JUMP JUMPDEST DUP2 ADD PUSH1 0x20 DUP6 LT ISZERO PUSH2 0x3205 JUMPI DUP2 SWAP1 POP JUMPDEST PUSH2 0x3219 PUSH2 0x3211 DUP6 PUSH2 0x30D9 JUMP JUMPDEST DUP4 ADD DUP3 PUSH2 0x31B9 JUMP JUMPDEST POP POP JUMPDEST POP POP POP JUMP JUMPDEST PUSH0 DUP3 DUP3 SHR SWAP1 POP SWAP3 SWAP2 POP POP JUMP JUMPDEST PUSH0 PUSH2 0x323C PUSH0 NOT DUP5 PUSH1 0x8 MUL PUSH2 0x3221 JUMP JUMPDEST NOT DUP1 DUP4 AND SWAP2 POP POP SWAP3 SWAP2 POP POP JUMP JUMPDEST PUSH0 PUSH2 0x3254 DUP4 DUP4 PUSH2 0x322D JUMP JUMPDEST SWAP2 POP DUP3 PUSH1 0x2 MUL DUP3 OR SWAP1 POP SWAP3 SWAP2 POP POP JUMP JUMPDEST PUSH2 0x326E DUP4 DUP4 PUSH2 0x3090 JUMP JUMPDEST PUSH8 0xFFFFFFFFFFFFFFFF DUP2 GT ISZERO PUSH2 0x3287 JUMPI PUSH2 0x3286 PUSH2 0x309A JUMP JUMPDEST JUMPDEST PUSH2 0x3291 DUP3 SLOAD PUSH2 0x2CFC JUMP JUMPDEST PUSH2 0x329C DUP3 DUP3 DUP6 PUSH2 0x31DB JUMP JUMPDEST PUSH0 PUSH1 0x1F DUP4 GT PUSH1 0x1 DUP2 EQ PUSH2 0x32C9 JUMPI PUSH0 DUP5 ISZERO PUSH2 0x32B7 JUMPI DUP3 DUP8 ADD CALLDATALOAD SWAP1 POP JUMPDEST PUSH2 0x32C1 DUP6 DUP3 PUSH2 0x3249 JUMP JUMPDEST DUP7 SSTORE POP PUSH2 0x3328 JUMP JUMPDEST PUSH1 0x1F NOT DUP5 AND PUSH2 0x32D7 DUP7 PUSH2 0x30C7 JUMP JUMPDEST PUSH0 JUMPDEST DUP3 DUP2 LT ISZERO PUSH2 0x32FE JUMPI DUP5 DUP10 ADD CALLDATALOAD DUP3 SSTORE PUSH1 0x1 DUP3 ADD SWAP2 POP PUSH1 0x20 DUP6 ADD SWAP5 POP PUSH1 0x20 DUP2 ADD SWAP1 POP PUSH2 0x32D9 JUMP JUMPDEST DUP7 DUP4 LT ISZERO PUSH2 0x331B JUMPI DUP5 DUP10 ADD CALLDATALOAD PUSH2 0x3317 PUSH1 0x1F DUP10 AND DUP3 PUSH2 0x322D JUMP JUMPDEST DUP4 SSTORE POP JUMPDEST PUSH1 0x1 PUSH1 0x2 DUP9 MUL ADD DUP9 SSTORE POP POP POP JUMPDEST POP POP POP POP POP POP POP JUMP JUMPDEST PUSH32 0x456D69736F7220646562652073657220656C20706F736565646F722064656C20 PUSH0 DUP3 ADD MSTORE PUSH32 0x746F6B656E206F20656C20717565207469656E65206170726F626163696F6E20 PUSH1 0x20 DUP3 ADD MSTORE PUSH32 0x7061726120686163657220636F73617320636F6E20656C20746F6B656E000000 PUSH1 0x40 DUP3 ADD MSTORE POP JUMP JUMPDEST PUSH0 PUSH2 0x33B1 PUSH1 0x5D DUP4 PUSH2 0x263F JUMP JUMPDEST SWAP2 POP PUSH2 0x33BC DUP3 PUSH2 0x3331 JUMP JUMPDEST PUSH1 0x60 DUP3 ADD SWAP1 POP SWAP2 SWAP1 POP JUMP JUMPDEST PUSH0 PUSH1 0x20 DUP3 ADD SWAP1 POP DUP2 DUP2 SUB PUSH0 DUP4 ADD MSTORE PUSH2 0x33DE DUP2 PUSH2 0x33A5 JUMP JUMPDEST SWAP1 POP SWAP2 SWAP1 POP JUMP JUMPDEST PUSH32 0x4E6F206C6F206469636520656C20656E756E636961646F2C207065726F206372 PUSH0 DUP3 ADD MSTORE PUSH32 0x656F2071756520656C2066726F6D206573207369656D70726520656C20717565 PUSH1 0x20 DUP3 ADD MSTORE PUSH32 0x20706F73656520656C20746F6B656E2C2073696E206E65636573696461642064 PUSH1 0x40 DUP3 ADD MSTORE PUSH32 0x652071756520736561206573746520656C2071756520656A6563757461206C61 PUSH1 0x60 DUP3 ADD MSTORE PUSH32 0x206F7065726163696F6E00000000000000000000000000000000000000000000 PUSH1 0x80 DUP3 ADD MSTORE POP JUMP JUMPDEST PUSH0 PUSH2 0x34B1 PUSH1 0x8A DUP4 PUSH2 0x263F JUMP JUMPDEST SWAP2 POP PUSH2 0x34BC DUP3 PUSH2 0x33E5 JUMP JUMPDEST PUSH1 0xA0 DUP3 ADD SWAP1 POP SWAP2 SWAP1 POP JUMP JUMPDEST PUSH0 PUSH1 0x20 DUP3 ADD SWAP1 POP DUP2 DUP2 SUB PUSH0 DUP4 ADD MSTORE PUSH2 0x34DE DUP2 PUSH2 0x34A5 JUMP JUMPDEST SWAP1 POP SWAP2 SWAP1 POP JUMP JUMPDEST PUSH0 PUSH2 0x34EF DUP3 PUSH2 0x23F5 JUMP JUMPDEST SWAP2 POP PUSH0 DUP3 SUB PUSH2 0x3501 JUMPI PUSH2 0x3500 PUSH2 0x29F5 JUMP JUMPDEST JUMPDEST PUSH1 0x1 DUP3 SUB SWAP1 POP SWAP2 SWAP1 POP JUMP JUMPDEST PUSH0 PUSH2 0x3516 DUP3 PUSH2 0x23F5 JUMP JUMPDEST SWAP2 POP PUSH32 0xFFFFFFFFFFFFFFFFFFFFFFFFFFFFFFFFFFFFFFFFFFFFFFFFFFFFFFFFFFFFFFFF DUP3 SUB PUSH2 0x3548 JUMPI PUSH2 0x3547 PUSH2 0x29F5 JUMP JUMPDEST JUMPDEST PUSH1 0x1 DUP3 ADD SWAP1 POP SWAP2 SWAP1 POP JUMP JUMPDEST PUSH0 DUP3 DUP3 MSTORE PUSH1 0x20 DUP3 ADD SWAP1 POP SWAP3 SWAP2 POP POP JUMP JUMPDEST POP JUMP JUMPDEST PUSH0 PUSH2 0x3571 PUSH0 DUP4 PUSH2 0x3553 JUMP JUMPDEST SWAP2 POP PUSH2 0x357C DUP3 PUSH2 0x3563 JUMP JUMPDEST PUSH0 DUP3 ADD SWAP1 POP SWAP2 SWAP1 POP JUMP JUMPDEST PUSH0 PUSH1 0x80 DUP3 ADD SWAP1 POP PUSH2 0x3599 PUSH0 DUP4 ADD DUP7 PUSH2 0x2483 JUMP JUMPDEST PUSH2 0x35A6 PUSH1 0x20 DUP4 ADD DUP6 PUSH2 0x2483 JUMP JUMPDEST PUSH2 0x35B3 PUSH1 0x40 DUP4 ADD DUP5 PUSH2 0x290E JUMP JUMPDEST DUP2 DUP2 SUB PUSH1 0x60 DUP4 ADD MSTORE PUSH2 0x35C4 DUP2 PUSH2 0x3566 JUMP JUMPDEST SWAP1 POP SWAP5 SWAP4 POP POP POP POP JUMP JUMPDEST PUSH0 DUP2 MLOAD SWAP1 POP PUSH2 0x35DC DUP2 PUSH2 0x236D JUMP JUMPDEST SWAP3 SWAP2 POP POP JUMP JUMPDEST PUSH0 PUSH1 0x20 DUP3 DUP5 SUB SLT ISZERO PUSH2 0x35F7 JUMPI PUSH2 0x35F6 PUSH2 0x233A JUMP JUMPDEST JUMPDEST PUSH0 PUSH2 0x3604 DUP5 DUP3 DUP6 ADD PUSH2 0x35CE JUMP JUMPDEST SWAP2 POP POP SWAP3 SWAP2 POP POP JUMP JUMPDEST PUSH32 0x4573746F20746520636F6D70727565626120736920656C20636F6E747261746F PUSH0 DUP3 ADD MSTORE PUSH32 0x20657374612070726570617261646F20706172612072656369626972206E6674 PUSH1 0x20 DUP3 ADD MSTORE PUSH32 0x732E000000000000000000000000000000000000000000000000000000000000 PUSH1 0x40 DUP3 ADD MSTORE POP JUMP JUMPDEST PUSH0 PUSH2 0x368D PUSH1 0x42 DUP4 PUSH2 0x263F JUMP JUMPDEST SWAP2 POP PUSH2 0x3698 DUP3 PUSH2 0x360D JUMP JUMPDEST PUSH1 0x60 DUP3 ADD SWAP1 POP SWAP2 SWAP1 POP JUMP JUMPDEST PUSH0 PUSH1 0x20 DUP3 ADD SWAP1 POP DUP2 DUP2 SUB PUSH0 DUP4 ADD MSTORE PUSH2 0x36BA DUP2 PUSH2 0x3681 JUMP JUMPDEST SWAP1 POP SWAP2 SWAP1 POP JUMP JUMPDEST PUSH32 0x456C207573756172696F20646562652074656E65722062616C616E6365000000 PUSH0 DUP3 ADD MSTORE POP JUMP JUMPDEST PUSH0 PUSH2 0x36F5 PUSH1 0x1D DUP4 PUSH2 0x263F JUMP JUMPDEST SWAP2 POP PUSH2 0x3700 DUP3 PUSH2 0x36C1 JUMP JUMPDEST PUSH1 0x20 DUP3 ADD SWAP1 POP SWAP2 SWAP1 POP JUMP JUMPDEST PUSH0 PUSH1 0x20 DUP3 ADD SWAP1 POP DUP2 DUP2 SUB PUSH0 DUP4 ADD MSTORE PUSH2 0x3722 DUP2 PUSH2 0x36E9 JUMP JUMPDEST SWAP1 POP SWAP2 SWAP1 POP JUMP JUMPDEST PUSH32 0x536F6C6F207075656465732072656369626972206C6F732070726F6669747320 PUSH0 DUP3 ADD MSTORE PUSH32 0x6465206573746520636F6E747261746F207369206572657320656C2070726F70 PUSH1 0x20 DUP3 ADD MSTORE PUSH32 0x6965746172696F2064656C206D69736D6F000000000000000000000000000000 PUSH1 0x40 DUP3 ADD MSTORE POP JUMP JUMPDEST PUSH0 PUSH2 0x37A9 PUSH1 0x51 DUP4 PUSH2 0x263F JUMP JUMPDEST SWAP2 POP PUSH2 0x37B4 DUP3 PUSH2 0x3729 JUMP JUMPDEST PUSH1 0x60 DUP3 ADD SWAP1 POP SWAP2 SWAP1 POP JUMP JUMPDEST PUSH0 PUSH1 0x20 DUP3 ADD SWAP1 POP DUP2 DUP2 SUB PUSH0 DUP4 ADD MSTORE PUSH2 0x37D6 DUP2 PUSH2 0x379D JUMP JUMPDEST SWAP1 POP SWAP2 SWAP1 POP JUMP JUMPDEST PUSH0 PUSH2 0x37E7 DUP3 PUSH2 0x23F5 JUMP JUMPDEST SWAP2 POP PUSH2 0x37F2 DUP4 PUSH2 0x23F5 JUMP JUMPDEST SWAP3 POP DUP3 DUP3 SUB SWAP1 POP DUP2 DUP2 GT ISZERO PUSH2 0x380A JUMPI PUSH2 0x3809 PUSH2 0x29F5 JUMP JUMPDEST JUMPDEST SWAP3 SWAP2 POP POP JUMP JUMPDEST PUSH32 0x4E6F206861792062656E65666963696F732070617261207265636F6765720000 PUSH0 DUP3 ADD MSTORE POP JUMP JUMPDEST PUSH0 PUSH2 0x3844 PUSH1 0x1E DUP4 PUSH2 0x263F JUMP JUMPDEST SWAP2 POP PUSH2 0x384F DUP3 PUSH2 0x3810 JUMP JUMPDEST PUSH1 0x20 DUP3 ADD SWAP1 POP SWAP2 SWAP1 POP JUMP JUMPDEST PUSH0 PUSH1 0x20 DUP3 ADD SWAP1 POP DUP2 DUP2 SUB PUSH0 DUP4 ADD MSTORE PUSH2 0x3871 DUP2 PUSH2 0x3838 JUMP JUMPDEST SWAP1 POP SWAP2 SWAP1 POP JUMP JUMPDEST PUSH0 PUSH2 0x3882 DUP3 PUSH2 0x2936 JUMP JUMPDEST SWAP2 POP PUSH2 0x388D DUP4 PUSH2 0x2936 JUMP JUMPDEST SWAP3 POP DUP3 DUP3 MUL PUSH2 0x389B DUP2 PUSH2 0x2936 JUMP JUMPDEST SWAP2 POP DUP1 DUP3 EQ PUSH2 0x38AD JUMPI PUSH2 0x38AC PUSH2 0x29F5 JUMP JUMPDEST JUMPDEST POP SWAP3 SWAP2 POP POP JUMP JUMPDEST PUSH32 0x4E6F207469656E657320737566696369656E7465732077656973207061726120 PUSH0 DUP3 ADD MSTORE PUSH32 0x696E6372656D656E746172206C6120706F74656E636961206465207475732061 PUSH1 0x20 DUP3 ADD MSTORE PUSH32 0x726D617300000000000000000000000000000000000000000000000000000000 PUSH1 0x40 DUP3 ADD MSTORE POP JUMP JUMPDEST PUSH0 PUSH2 0x3934 PUSH1 0x44 DUP4 PUSH2 0x263F JUMP JUMPDEST SWAP2 POP PUSH2 0x393F DUP3 PUSH2 0x38B4 JUMP JUMPDEST PUSH1 0x60 DUP3 ADD SWAP1 POP SWAP2 SWAP1 POP JUMP JUMPDEST PUSH0 PUSH1 0x20 DUP3 ADD SWAP1 POP DUP2 DUP2 SUB PUSH0 DUP4 ADD MSTORE PUSH2 0x3961 DUP2 PUSH2 0x3928 JUMP JUMPDEST SWAP1 POP SWAP2 SWAP1 POP JUMP JUMPDEST PUSH32 0x456C20696D706F727465206120646520736572206D696C207765697300000000 PUSH0 DUP3 ADD MSTORE POP JUMP JUMPDEST PUSH0 PUSH2 0x399C PUSH1 0x1C DUP4 PUSH2 0x263F JUMP JUMPDEST SWAP2 POP PUSH2 0x39A7 DUP3 PUSH2 0x3968 JUMP JUMPDEST PUSH1 0x20 DUP3 ADD SWAP1 POP SWAP2 SWAP1 POP JUMP JUMPDEST PUSH0 PUSH1 0x20 DUP3 ADD SWAP1 POP DUP2 DUP2 SUB PUSH0 DUP4 ADD MSTORE PUSH2 0x39C9 DUP2 PUSH2 0x3990 JUMP JUMPDEST SWAP1 POP SWAP2 SWAP1 POP JUMP JUMPDEST PUSH2 0x39D9 DUP3 PUSH2 0x2635 JUMP JUMPDEST PUSH8 0xFFFFFFFFFFFFFFFF DUP2 GT ISZERO PUSH2 0x39F2 JUMPI PUSH2 0x39F1 PUSH2 0x309A JUMP JUMPDEST JUMPDEST PUSH2 0x39FC DUP3 SLOAD PUSH2 0x2CFC JUMP JUMPDEST PUSH2 0x3A07 DUP3 DUP3 DUP6 PUSH2 0x31DB JUMP JUMPDEST PUSH0 PUSH1 0x20 SWAP1 POP PUSH1 0x1F DUP4 GT PUSH1 0x1 DUP2 EQ PUSH2 0x3A38 JUMPI PUSH0 DUP5 ISZERO PUSH2 0x3A26 JUMPI DUP3 DUP8 ADD MLOAD SWAP1 POP JUMPDEST PUSH2 0x3A30 DUP6 DUP3 PUSH2 0x3249 JUMP JUMPDEST DUP7 SSTORE POP PUSH2 0x3A97 JUMP JUMPDEST PUSH1 0x1F NOT DUP5 AND PUSH2 0x3A46 DUP7 PUSH2 0x30C7 JUMP JUMPDEST PUSH0 JUMPDEST DUP3 DUP2 LT ISZERO PUSH2 0x3A6D JUMPI DUP5 DUP10 ADD MLOAD DUP3 SSTORE PUSH1 0x1 DUP3 ADD SWAP2 POP PUSH1 0x20 DUP6 ADD SWAP5 POP PUSH1 0x20 DUP2 ADD SWAP1 POP PUSH2 0x3A48 JUMP JUMPDEST DUP7 DUP4 LT ISZERO PUSH2 0x3A8A JUMPI DUP5 DUP10 ADD MLOAD PUSH2 0x3A86 PUSH1 0x1F DUP10 AND DUP3 PUSH2 0x322D JUMP JUMPDEST DUP4 SSTORE POP JUMPDEST PUSH1 0x1 PUSH1 0x2 DUP9 MUL ADD DUP9 SSTORE POP POP POP JUMPDEST POP POP POP POP POP POP JUMP JUMPDEST PUSH32 0x4E487B7100000000000000000000000000000000000000000000000000000000 PUSH0 MSTORE PUSH1 0x32 PUSH1 0x4 MSTORE PUSH1 0x24 PUSH0 REVERT JUMPDEST PUSH0 DUP2 SWAP1 POP SWAP3 SWAP2 POP POP JUMP JUMPDEST DUP3 DUP2 DUP4 CALLDATACOPY PUSH0 DUP4 DUP4 ADD MSTORE POP POP POP JUMP JUMPDEST PUSH0 PUSH2 0x3AEF DUP4 DUP6 PUSH2 0x3ACC JUMP JUMPDEST SWAP4 POP PUSH2 0x3AFC DUP4 DUP6 DUP5 PUSH2 0x3AD6 JUMP JUMPDEST DUP3 DUP5 ADD SWAP1 POP SWAP4 SWAP3 POP POP POP JUMP JUMPDEST PUSH0 PUSH2 0x3B14 DUP3 DUP5 DUP7 PUSH2 0x3AE4 JUMP JUMPDEST SWAP2 POP DUP2 SWAP1 POP SWAP4 SWAP3 POP POP POP JUMP JUMPDEST PUSH32 0x4E487B7100000000000000000000000000000000000000000000000000000000 PUSH0 MSTORE PUSH1 0x12 PUSH1 0x4 MSTORE PUSH1 0x24 PUSH0 REVERT JUMPDEST PUSH0 PUSH2 0x3B57 DUP3 PUSH2 0x2936 JUMP JUMPDEST SWAP2 POP PUSH2 0x3B62 DUP4 PUSH2 0x2936 JUMP JUMPDEST SWAP3 POP DUP3 PUSH2 0x3B72 JUMPI PUSH2 0x3B71 PUSH2 0x3B20 JUMP JUMPDEST JUMPDEST DUP3 DUP3 DIV SWAP1 POP SWAP3 SWAP2 POP POP JUMP INVALID LOG2 PUSH5 0x6970667358 0x22 SLT KECCAK256 0xD7 0x27 0xAF 0xCB SWAP15 LOG4 0xE0 MLOAD PUSH24 0x68E275381E183B2DC775AB744319A37B036582BCA51A1064 PUSH20 0x6F6C634300081A00330000000000000000000000 "
				},
				"gasEstimates": {
					"creation": {
						"codeDepositCost": "3056600",
						"executionCost": "54738",
						"totalCost": "3111338"
					},
					"external": {
						"WEIS_NECESARIOS()": "391",
						"addWeapon(uint256,string,uint256)": "infinite",
						"approve(address,uint256)": "infinite",
						"balanceOf(address)": "2931",
						"characters(uint256)": "infinite",
						"collectProfits()": "infinite",
						"createMonsterToken(string)": "infinite",
						"getApproved(uint256)": "infinite",
						"incrementFirePower(uint256,uint8)": "infinite",
						"ownerOf(uint256)": "5155",
						"removeMonsterToken(uint256)": "infinite",
						"safeTransferFrom(address,address,uint256)": "infinite",
						"supportsInterface(bytes4)": "699",
						"transferFrom(address,address,uint256)": "infinite"
					}
				},
				"methodIdentifiers": {
					"WEIS_NECESARIOS()": "e85e001b",
					"addWeapon(uint256,string,uint256)": "0a0eac29",
					"approve(address,uint256)": "095ea7b3",
					"balanceOf(address)": "70a08231",
					"characters(uint256)": "4810bc59",
					"collectProfits()": "c958e0d6",
					"createMonsterToken(string)": "eb116756",
					"getApproved(uint256)": "081812fc",
					"incrementFirePower(uint256,uint8)": "d6ad8a94",
					"ownerOf(uint256)": "6352211e",
					"removeMonsterToken(uint256)": "50fac4f1",
					"safeTransferFrom(address,address,uint256)": "42842e0e",
					"supportsInterface(bytes4)": "01ffc9a7",
					"transferFrom(address,address,uint256)": "23b872dd"
				}
			},
			"storageLayout": {
				"storage": [
					{
						"astId": 229,
						"contract": "PRACTICA 5/librerias_y_tokens.sol:MonsterTokens",
						"label": "tokenId",
						"offset": 0,
						"slot": "0",
						"type": "t_uint256"
					},
					{
						"astId": 234,
						"contract": "PRACTICA 5/librerias_y_tokens.sol:MonsterTokens",
						"label": "characters",
						"offset": 0,
						"slot": "1",
						"type": "t_mapping(t_uint256,t_struct(Character)223_storage)"
					},
					{
						"astId": 238,
						"contract": "PRACTICA 5/librerias_y_tokens.sol:MonsterTokens",
						"label": "approved",
						"offset": 0,
						"slot": "2",
						"type": "t_mapping(t_uint256,t_address)"
					},
					{
						"astId": 242,
						"contract": "PRACTICA 5/librerias_y_tokens.sol:MonsterTokens",
						"label": "num_tokens",
						"offset": 0,
						"slot": "3",
						"type": "t_mapping(t_address,t_uint256)"
					},
					{
						"astId": 245,
						"contract": "PRACTICA 5/librerias_y_tokens.sol:MonsterTokens",
						"label": "num_characters",
						"offset": 0,
						"slot": "4",
						"type": "t_uint256"
					},
					{
						"astId": 247,
						"contract": "PRACTICA 5/librerias_y_tokens.sol:MonsterTokens",
						"label": "contractOwner",
						"offset": 0,
						"slot": "5",
						"type": "t_address"
					}
				],
				"types": {
					"t_address": {
						"encoding": "inplace",
						"label": "address",
						"numberOfBytes": "20"
					},
					"t_array(t_string_storage)dyn_storage": {
						"base": "t_string_storage",
						"encoding": "dynamic_array",
						"label": "string[]",
						"numberOfBytes": "32"
					},
					"t_array(t_uint256)dyn_storage": {
						"base": "t_uint256",
						"encoding": "dynamic_array",
						"label": "uint256[]",
						"numberOfBytes": "32"
					},
					"t_mapping(t_address,t_uint256)": {
						"encoding": "mapping",
						"key": "t_address",
						"label": "mapping(address => uint256)",
						"numberOfBytes": "32",
						"value": "t_uint256"
					},
					"t_mapping(t_uint256,t_address)": {
						"encoding": "mapping",
						"key": "t_uint256",
						"label": "mapping(uint256 => address)",
						"numberOfBytes": "32",
						"value": "t_address"
					},
					"t_mapping(t_uint256,t_struct(Character)223_storage)": {
						"encoding": "mapping",
						"key": "t_uint256",
						"label": "mapping(uint256 => struct MonsterTokens.Character)",
						"numberOfBytes": "32",
						"value": "t_struct(Character)223_storage"
					},
					"t_string_storage": {
						"encoding": "bytes",
						"label": "string",
						"numberOfBytes": "32"
					},
					"t_struct(Character)223_storage": {
						"encoding": "inplace",
						"label": "struct MonsterTokens.Character",
						"members": [
							{
								"astId": 217,
								"contract": "PRACTICA 5/librerias_y_tokens.sol:MonsterTokens",
								"label": "name",
								"offset": 0,
								"slot": "0",
								"type": "t_string_storage"
							},
							{
								"astId": 220,
								"contract": "PRACTICA 5/librerias_y_tokens.sol:MonsterTokens",
								"label": "weapons",
								"offset": 0,
								"slot": "1",
								"type": "t_struct(Weapons)215_storage"
							},
							{
								"astId": 222,
								"contract": "PRACTICA 5/librerias_y_tokens.sol:MonsterTokens",
								"label": "tokenOwner",
								"offset": 0,
								"slot": "3",
								"type": "t_address"
							}
						],
						"numberOfBytes": "128"
					},
					"t_struct(Weapons)215_storage": {
						"encoding": "inplace",
						"label": "struct MonsterTokens.Weapons",
						"members": [
							{
								"astId": 211,
								"contract": "PRACTICA 5/librerias_y_tokens.sol:MonsterTokens",
								"label": "names",
								"offset": 0,
								"slot": "0",
								"type": "t_array(t_string_storage)dyn_storage"
							},
							{
								"astId": 214,
								"contract": "PRACTICA 5/librerias_y_tokens.sol:MonsterTokens",
								"label": "firePowers",
								"offset": 0,
								"slot": "1",
								"type": "t_array(t_uint256)dyn_storage"
							}
						],
						"numberOfBytes": "64"
					},
					"t_uint256": {
						"encoding": "inplace",
						"label": "uint256",
						"numberOfBytes": "32"
					}
				}
			},
			"userdoc": {
				"kind": "user",
				"methods": {},
				"version": 1
			}
		}
	}
}