{
	"PRACTICA 5/librerias_y_tokens.sol": {
		"MonsterTokens": {
			"abi": [
				{
					"inputs": [],
					"stateMutability": "nonpayable",
					"type": "constructor"
				},
				{
					"inputs": [],
					"name": "WEIS_NECESARIOS",
					"outputs": [
						{
							"internalType": "uint256",
							"name": "",
							"type": "uint256"
						}
					],
					"stateMutability": "view",
					"type": "function"
				},
				{
					"inputs": [
						{
							"internalType": "uint256",
							"name": "character_tokenId",
							"type": "uint256"
						},
						{
							"internalType": "string",
							"name": "weapon_name",
							"type": "string"
						},
						{
							"internalType": "uint256",
							"name": "fire_power",
							"type": "uint256"
						}
					],
					"name": "addWeapon",
					"outputs": [],
					"stateMutability": "payable",
					"type": "function"
				},
				{
					"inputs": [
						{
							"internalType": "uint256",
							"name": "",
							"type": "uint256"
						}
					],
					"name": "characters",
					"outputs": [
						{
							"internalType": "string",
							"name": "name",
							"type": "string"
						},
						{
							"components": [
								{
									"internalType": "string[]",
									"name": "names",
									"type": "string[]"
								},
								{
									"internalType": "uint256[]",
									"name": "firePowers",
									"type": "uint256[]"
								}
							],
							"internalType": "struct MonsterTokens.Weapons",
							"name": "weapons",
							"type": "tuple"
						},
						{
							"internalType": "address",
							"name": "tokenOwner",
							"type": "address"
						}
					],
					"stateMutability": "view",
					"type": "function"
				},
				{
					"inputs": [],
					"name": "collectProfits",
					"outputs": [],
					"stateMutability": "nonpayable",
					"type": "function"
				},
				{
					"inputs": [
						{
							"internalType": "string",
							"name": "character_name",
							"type": "string"
						}
					],
					"name": "createMonsterToken",
					"outputs": [
						{
							"internalType": "uint256",
							"name": "",
							"type": "uint256"
						}
					],
					"stateMutability": "payable",
					"type": "function"
				},
				{
					"inputs": [
						{
							"internalType": "uint256",
							"name": "character_tokenId",
							"type": "uint256"
						},
						{
							"internalType": "uint8",
							"name": "inc_per",
							"type": "uint8"
						}
					],
					"name": "incrementFirePower",
					"outputs": [],
					"stateMutability": "payable",
					"type": "function"
				},
				{
					"inputs": [
						{
							"internalType": "uint256",
							"name": "token",
							"type": "uint256"
						}
					],
					"name": "removeMonsterToken",
					"outputs": [],
					"stateMutability": "nonpayable",
					"type": "function"
				}
			],
			"devdoc": {
				"kind": "dev",
				"methods": {},
				"version": 1
			},
			"evm": {
				"assembly": "    /* \"PRACTICA 5/librerias_y_tokens.sol\":1000:6022  contract MonsterTokens {... */\n  mstore(0x40, 0x80)\n    /* \"PRACTICA 5/librerias_y_tokens.sol\":1405:1410  10000 */\n  0x2710\n    /* \"PRACTICA 5/librerias_y_tokens.sol\":1384:1410  uint private tokenId=10000 */\n  0x00\n  sstore\n    /* \"PRACTICA 5/librerias_y_tokens.sol\":1489:1490  0 */\n  0x00\n    /* \"PRACTICA 5/librerias_y_tokens.sol\":1469:1490  uint num_characters=0 */\n  0x02\n  sstore\n    /* \"PRACTICA 5/librerias_y_tokens.sol\":1616:1672  constructor(){... */\n  callvalue\n  dup1\n  iszero\n  tag_1\n  jumpi\n  0x00\n  dup1\n  revert\ntag_1:\n  pop\n    /* \"PRACTICA 5/librerias_y_tokens.sol\":1654:1664  msg.sender */\n  caller\n    /* \"PRACTICA 5/librerias_y_tokens.sol\":1640:1653  contractOwner */\n  0x03\n  0x00\n    /* \"PRACTICA 5/librerias_y_tokens.sol\":1640:1664  contractOwner=msg.sender */\n  0x0100\n  exp\n  dup2\n  sload\n  dup2\n  0xffffffffffffffffffffffffffffffffffffffff\n  mul\n  not\n  and\n  swap1\n  dup4\n  0xffffffffffffffffffffffffffffffffffffffff\n  and\n  mul\n  or\n  swap1\n  sstore\n  pop\n    /* \"PRACTICA 5/librerias_y_tokens.sol\":1000:6022  contract MonsterTokens {... */\n  dataSize(sub_0)\n  dup1\n  dataOffset(sub_0)\n  0x00\n  codecopy\n  0x00\n  return\nstop\n\nsub_0: assembly {\n        /* \"PRACTICA 5/librerias_y_tokens.sol\":1000:6022  contract MonsterTokens {... */\n      mstore(0x40, 0x80)\n      jumpi(tag_1, lt(calldatasize, 0x04))\n      shr(0xe0, calldataload(0x00))\n      dup1\n      0xc958e0d6\n      gt\n      tag_9\n      jumpi\n      dup1\n      0xc958e0d6\n      eq\n      tag_5\n      jumpi\n      dup1\n      0xd6ad8a94\n      eq\n      tag_6\n      jumpi\n      dup1\n      0xe85e001b\n      eq\n      tag_7\n      jumpi\n      dup1\n      0xeb116756\n      eq\n      tag_8\n      jumpi\n      jump(tag_1)\n    tag_9:\n      dup1\n      0x0a0eac29\n      eq\n      tag_2\n      jumpi\n      dup1\n      0x4810bc59\n      eq\n      tag_3\n      jumpi\n      dup1\n      0x50fac4f1\n      eq\n      tag_4\n      jumpi\n    tag_1:\n      0x00\n      dup1\n      revert\n        /* \"PRACTICA 5/librerias_y_tokens.sol\":3155:4619  function addWeapon(uint character_tokenId, string calldata weapon_name, uint fire_power) external payable weapon_notExist(character_tokenId, weapon_name){... */\n    tag_2:\n      tag_10\n      0x04\n      dup1\n      calldatasize\n      sub\n      dup2\n      add\n      swap1\n      tag_11\n      swap2\n      swap1\n      tag_12\n      jump\t// in\n    tag_11:\n      tag_13\n      jump\t// in\n    tag_10:\n      stop\n        /* \"PRACTICA 5/librerias_y_tokens.sol\":1417:1462  mapping (uint => Character) public characters */\n    tag_3:\n      callvalue\n      dup1\n      iszero\n      tag_14\n      jumpi\n      0x00\n      dup1\n      revert\n    tag_14:\n      pop\n      tag_15\n      0x04\n      dup1\n      calldatasize\n      sub\n      dup2\n      add\n      swap1\n      tag_16\n      swap2\n      swap1\n      tag_17\n      jump\t// in\n    tag_16:\n      tag_18\n      jump\t// in\n    tag_15:\n      mload(0x40)\n      tag_19\n      swap4\n      swap3\n      swap2\n      swap1\n      tag_20\n      jump\t// in\n    tag_19:\n      mload(0x40)\n      dup1\n      swap2\n      sub\n      swap1\n      return\n        /* \"PRACTICA 5/librerias_y_tokens.sol\":2254:2766  function removeMonsterToken(uint token) external {... */\n    tag_4:\n      callvalue\n      dup1\n      iszero\n      tag_21\n      jumpi\n      0x00\n      dup1\n      revert\n    tag_21:\n      pop\n      tag_22\n      0x04\n      dup1\n      calldatasize\n      sub\n      dup2\n      add\n      swap1\n      tag_23\n      swap2\n      swap1\n      tag_17\n      jump\t// in\n    tag_23:\n      tag_24\n      jump\t// in\n    tag_22:\n      stop\n        /* \"PRACTICA 5/librerias_y_tokens.sol\":5451:6017  function collectProfits() external  {... */\n    tag_5:\n      callvalue\n      dup1\n      iszero\n      tag_25\n      jumpi\n      0x00\n      dup1\n      revert\n    tag_25:\n      pop\n      tag_26\n      tag_27\n      jump\t// in\n    tag_26:\n      stop\n        /* \"PRACTICA 5/librerias_y_tokens.sol\":4698:5443  function incrementFirePower(uint character_tokenId, uint8 inc_per) external payable {... */\n    tag_6:\n      tag_28\n      0x04\n      dup1\n      calldatasize\n      sub\n      dup2\n      add\n      swap1\n      tag_29\n      swap2\n      swap1\n      tag_30\n      jump\t// in\n    tag_29:\n      tag_31\n      jump\t// in\n    tag_28:\n      stop\n        /* \"PRACTICA 5/librerias_y_tokens.sol\":1328:1375  uint public constant WEIS_NECESARIOS = 1000 wei */\n    tag_7:\n      callvalue\n      dup1\n      iszero\n      tag_32\n      jumpi\n      0x00\n      dup1\n      revert\n    tag_32:\n      pop\n      tag_33\n      tag_34\n      jump\t// in\n    tag_33:\n      mload(0x40)\n      tag_35\n      swap2\n      swap1\n      tag_36\n      jump\t// in\n    tag_35:\n      mload(0x40)\n      dup1\n      swap2\n      sub\n      swap1\n      return\n        /* \"PRACTICA 5/librerias_y_tokens.sol\":1822:2244  function createMonsterToken(string calldata character_name)external payable returns (uint) {... */\n    tag_8:\n      tag_37\n      0x04\n      dup1\n      calldatasize\n      sub\n      dup2\n      add\n      swap1\n      tag_38\n      swap2\n      swap1\n      tag_39\n      jump\t// in\n    tag_38:\n      tag_40\n      jump\t// in\n    tag_37:\n      mload(0x40)\n      tag_41\n      swap2\n      swap1\n      tag_36\n      jump\t// in\n    tag_41:\n      mload(0x40)\n      dup1\n      swap2\n      sub\n      swap1\n      return\n        /* \"PRACTICA 5/librerias_y_tokens.sol\":3155:4619  function addWeapon(uint character_tokenId, string calldata weapon_name, uint fire_power) external payable weapon_notExist(character_tokenId, weapon_name){... */\n    tag_13:\n        /* \"PRACTICA 5/librerias_y_tokens.sol\":3277:3294  character_tokenId */\n      dup4\n        /* \"PRACTICA 5/librerias_y_tokens.sol\":3296:3307  weapon_name */\n      dup4\n      dup4\n        /* \"PRACTICA 5/librerias_y_tokens.sol\":2924:2925  0 */\n      0x00\n        /* \"PRACTICA 5/librerias_y_tokens.sol\":2872:2926  characters[character_tokenId].tokenOwner != address(0) */\n      0xffffffffffffffffffffffffffffffffffffffff\n      and\n        /* \"PRACTICA 5/librerias_y_tokens.sol\":2872:2882  characters */\n      0x01\n        /* \"PRACTICA 5/librerias_y_tokens.sol\":2872:2901  characters[character_tokenId] */\n      0x00\n        /* \"PRACTICA 5/librerias_y_tokens.sol\":2883:2900  character_tokenId */\n      dup6\n        /* \"PRACTICA 5/librerias_y_tokens.sol\":2872:2901  characters[character_tokenId] */\n      dup2\n      mstore\n      0x20\n      add\n      swap1\n      dup2\n      mstore\n      0x20\n      add\n      0x00\n      keccak256\n        /* \"PRACTICA 5/librerias_y_tokens.sol\":2872:2912  characters[character_tokenId].tokenOwner */\n      0x03\n      add\n      0x00\n      swap1\n      sload\n      swap1\n      0x0100\n      exp\n      swap1\n      div\n      0xffffffffffffffffffffffffffffffffffffffff\n      and\n        /* \"PRACTICA 5/librerias_y_tokens.sol\":2872:2926  characters[character_tokenId].tokenOwner != address(0) */\n      0xffffffffffffffffffffffffffffffffffffffff\n      and\n      sub\n        /* \"PRACTICA 5/librerias_y_tokens.sol\":2864:2981  require(characters[character_tokenId].tokenOwner != address(0), \"No puedes crear un arma a un personaje inexistente\") */\n      tag_43\n      jumpi\n      mload(0x40)\n      0x08c379a000000000000000000000000000000000000000000000000000000000\n      dup2\n      mstore\n      0x04\n      add\n      tag_44\n      swap1\n      tag_45\n      jump\t// in\n    tag_44:\n      mload(0x40)\n      dup1\n      swap2\n      sub\n      swap1\n      revert\n    tag_43:\n        /* \"PRACTICA 5/librerias_y_tokens.sol\":3001:3078  ArrayUtils.contains(characters[character_tokenId].weapons.names, weapon_name) */\n      tag_46\n        /* \"PRACTICA 5/librerias_y_tokens.sol\":3021:3031  characters */\n      0x01\n        /* \"PRACTICA 5/librerias_y_tokens.sol\":3021:3050  characters[character_tokenId] */\n      0x00\n        /* \"PRACTICA 5/librerias_y_tokens.sol\":3032:3049  character_tokenId */\n      dup6\n        /* \"PRACTICA 5/librerias_y_tokens.sol\":3021:3050  characters[character_tokenId] */\n      dup2\n      mstore\n      0x20\n      add\n      swap1\n      dup2\n      mstore\n      0x20\n      add\n      0x00\n      keccak256\n        /* \"PRACTICA 5/librerias_y_tokens.sol\":3021:3058  characters[character_tokenId].weapons */\n      0x01\n      add\n        /* \"PRACTICA 5/librerias_y_tokens.sol\":3021:3064  characters[character_tokenId].weapons.names */\n      0x00\n      add\n        /* \"PRACTICA 5/librerias_y_tokens.sol\":3001:3078  ArrayUtils.contains(characters[character_tokenId].weapons.names, weapon_name) */\n      dup1\n      sload\n      dup1\n      0x20\n      mul\n      0x20\n      add\n      mload(0x40)\n      swap1\n      dup2\n      add\n      0x40\n      mstore\n      dup1\n      swap3\n      swap2\n      swap1\n      dup2\n      dup2\n      mstore\n      0x20\n      add\n      0x00\n      swap1\n    tag_47:\n      dup3\n      dup3\n      lt\n      iszero\n      tag_48\n      jumpi\n      dup4\n      dup3\n      swap1\n      0x00\n      mstore\n      keccak256(0x00, 0x20)\n      add\n      dup1\n      sload\n      tag_50\n      swap1\n      tag_51\n      jump\t// in\n    tag_50:\n      dup1\n      0x1f\n      add\n      0x20\n      dup1\n      swap2\n      div\n      mul\n      0x20\n      add\n      mload(0x40)\n      swap1\n      dup2\n      add\n      0x40\n      mstore\n      dup1\n      swap3\n      swap2\n      swap1\n      dup2\n      dup2\n      mstore\n      0x20\n      add\n      dup3\n      dup1\n      sload\n      tag_52\n      swap1\n      tag_51\n      jump\t// in\n    tag_52:\n      dup1\n      iszero\n      tag_53\n      jumpi\n      dup1\n      0x1f\n      lt\n      tag_54\n      jumpi\n      0x0100\n      dup1\n      dup4\n      sload\n      div\n      mul\n      dup4\n      mstore\n      swap2\n      0x20\n      add\n      swap2\n      jump(tag_53)\n    tag_54:\n      dup3\n      add\n      swap2\n      swap1\n      0x00\n      mstore\n      keccak256(0x00, 0x20)\n      swap1\n    tag_55:\n      dup2\n      sload\n      dup2\n      mstore\n      swap1\n      0x01\n      add\n      swap1\n      0x20\n      add\n      dup1\n      dup4\n      gt\n      tag_55\n      jumpi\n      dup3\n      swap1\n      sub\n      0x1f\n      and\n      dup3\n      add\n      swap2\n    tag_53:\n      pop\n      pop\n      pop\n      pop\n      pop\n      dup2\n      mstore\n      0x20\n      add\n      swap1\n      0x01\n      add\n      swap1\n      jump(tag_47)\n    tag_48:\n      pop\n      pop\n      pop\n      pop\n        /* \"PRACTICA 5/librerias_y_tokens.sol\":3066:3077  weapon_name */\n      dup4\n      dup4\n        /* \"PRACTICA 5/librerias_y_tokens.sol\":3001:3020  ArrayUtils.contains */\n      tag_56\n        /* \"PRACTICA 5/librerias_y_tokens.sol\":3001:3078  ArrayUtils.contains(characters[character_tokenId].weapons.names, weapon_name) */\n      jump\t// in\n    tag_46:\n        /* \"PRACTICA 5/librerias_y_tokens.sol\":3000:3078  !ArrayUtils.contains(characters[character_tokenId].weapons.names, weapon_name) */\n      iszero\n        /* \"PRACTICA 5/librerias_y_tokens.sol\":2992:3127  require(!ArrayUtils.contains(characters[character_tokenId].weapons.names, weapon_name),\"El arma que estas intentandoc crear ya existe\") */\n      tag_57\n      jumpi\n      mload(0x40)\n      0x08c379a000000000000000000000000000000000000000000000000000000000\n      dup2\n      mstore\n      0x04\n      add\n      tag_58\n      swap1\n      tag_59\n      jump\t// in\n    tag_58:\n      mload(0x40)\n      dup1\n      swap2\n      sub\n      swap1\n      revert\n    tag_57:\n        /* \"PRACTICA 5/librerias_y_tokens.sol\":3459:3478  Character storage c */\n      0x00\n        /* \"PRACTICA 5/librerias_y_tokens.sol\":3481:3491  characters */\n      0x01\n        /* \"PRACTICA 5/librerias_y_tokens.sol\":3481:3510  characters[character_tokenId] */\n      0x00\n        /* \"PRACTICA 5/librerias_y_tokens.sol\":3492:3509  character_tokenId */\n      dup10\n        /* \"PRACTICA 5/librerias_y_tokens.sol\":3481:3510  characters[character_tokenId] */\n      dup2\n      mstore\n      0x20\n      add\n      swap1\n      dup2\n      mstore\n      0x20\n      add\n      0x00\n      keccak256\n        /* \"PRACTICA 5/librerias_y_tokens.sol\":3459:3510  Character storage c = characters[character_tokenId] */\n      swap1\n      pop\n        /* \"PRACTICA 5/librerias_y_tokens.sol\":3583:3593  msg.sender */\n      caller\n        /* \"PRACTICA 5/librerias_y_tokens.sol\":3567:3593  c.tokenOwner == msg.sender */\n      0xffffffffffffffffffffffffffffffffffffffff\n      and\n        /* \"PRACTICA 5/librerias_y_tokens.sol\":3567:3568  c */\n      dup2\n        /* \"PRACTICA 5/librerias_y_tokens.sol\":3567:3579  c.tokenOwner */\n      0x03\n      add\n      0x00\n      swap1\n      sload\n      swap1\n      0x0100\n      exp\n      swap1\n      div\n      0xffffffffffffffffffffffffffffffffffffffff\n      and\n        /* \"PRACTICA 5/librerias_y_tokens.sol\":3567:3593  c.tokenOwner == msg.sender */\n      0xffffffffffffffffffffffffffffffffffffffff\n      and\n      eq\n        /* \"PRACTICA 5/librerias_y_tokens.sol\":3559:3677  require(c.tokenOwner == msg.sender, \"De momento, solo el propietario del token puede agregar armas a sus personajes.\") */\n      tag_61\n      jumpi\n      mload(0x40)\n      0x08c379a000000000000000000000000000000000000000000000000000000000\n      dup2\n      mstore\n      0x04\n      add\n      tag_62\n      swap1\n      tag_63\n      jump\t// in\n    tag_62:\n      mload(0x40)\n      dup1\n      swap2\n      sub\n      swap1\n      revert\n    tag_61:\n        /* \"PRACTICA 5/librerias_y_tokens.sol\":3839:3855  uint num_weapons */\n      0x00\n        /* \"PRACTICA 5/librerias_y_tokens.sol\":3857:3858  c */\n      dup2\n        /* \"PRACTICA 5/librerias_y_tokens.sol\":3857:3866  c.weapons */\n      0x01\n      add\n        /* \"PRACTICA 5/librerias_y_tokens.sol\":3857:3872  c.weapons.names */\n      0x00\n      add\n        /* \"PRACTICA 5/librerias_y_tokens.sol\":3857:3879  c.weapons.names.length */\n      dup1\n      sload\n      swap1\n      pop\n        /* \"PRACTICA 5/librerias_y_tokens.sol\":3839:3879  uint num_weapons= c.weapons.names.length */\n      swap1\n      pop\n        /* \"PRACTICA 5/librerias_y_tokens.sol\":3890:3899  uint cost */\n      0x00\n        /* \"PRACTICA 5/librerias_y_tokens.sol\":3921:3932  num_weapons */\n      dup2\n        /* \"PRACTICA 5/librerias_y_tokens.sol\":3916:3917  2 */\n      0x02\n        /* \"PRACTICA 5/librerias_y_tokens.sol\":3916:3932  2 ** num_weapons */\n      tag_64\n      swap2\n      swap1\n      tag_65\n      jump\t// in\n    tag_64:\n        /* \"PRACTICA 5/librerias_y_tokens.sol\":3902:3912  fire_power */\n      dup8\n        /* \"PRACTICA 5/librerias_y_tokens.sol\":3902:3933  fire_power * (2 ** num_weapons) */\n      tag_66\n      swap2\n      swap1\n      tag_67\n      jump\t// in\n    tag_66:\n        /* \"PRACTICA 5/librerias_y_tokens.sol\":3890:3933  uint cost = fire_power * (2 ** num_weapons) */\n      swap1\n      pop\n        /* \"PRACTICA 5/librerias_y_tokens.sol\":4167:4171  cost */\n      dup1\n        /* \"PRACTICA 5/librerias_y_tokens.sol\":4154:4163  msg.value */\n      callvalue\n        /* \"PRACTICA 5/librerias_y_tokens.sol\":4154:4171  msg.value >= cost */\n      lt\n      iszero\n        /* \"PRACTICA 5/librerias_y_tokens.sol\":4146:4223  require(msg.value >= cost, \"No tienes suficientes weis para agregar el arma\") */\n      tag_68\n      jumpi\n      mload(0x40)\n      0x08c379a000000000000000000000000000000000000000000000000000000000\n      dup2\n      mstore\n      0x04\n      add\n      tag_69\n      swap1\n      tag_70\n      jump\t// in\n    tag_69:\n      mload(0x40)\n      dup1\n      swap2\n      sub\n      swap1\n      revert\n    tag_68:\n        /* \"PRACTICA 5/librerias_y_tokens.sol\":4329:4339  characters */\n      0x01\n        /* \"PRACTICA 5/librerias_y_tokens.sol\":4329:4358  characters[character_tokenId] */\n      0x00\n        /* \"PRACTICA 5/librerias_y_tokens.sol\":4340:4357  character_tokenId */\n      dup12\n        /* \"PRACTICA 5/librerias_y_tokens.sol\":4329:4358  characters[character_tokenId] */\n      dup2\n      mstore\n      0x20\n      add\n      swap1\n      dup2\n      mstore\n      0x20\n      add\n      0x00\n      keccak256\n        /* \"PRACTICA 5/librerias_y_tokens.sol\":4329:4366  characters[character_tokenId].weapons */\n      0x01\n      add\n        /* \"PRACTICA 5/librerias_y_tokens.sol\":4329:4372  characters[character_tokenId].weapons.names */\n      0x00\n      add\n        /* \"PRACTICA 5/librerias_y_tokens.sol\":4378:4389  weapon_name */\n      dup10\n      dup10\n        /* \"PRACTICA 5/librerias_y_tokens.sol\":4329:4390  characters[character_tokenId].weapons.names.push(weapon_name) */\n      swap1\n      swap2\n      dup1\n      0x01\n      dup2\n      sload\n      add\n      dup1\n      dup3\n      sstore\n      dup1\n      swap2\n      pop\n      pop\n      0x01\n      swap1\n      sub\n      swap1\n      0x00\n      mstore\n      keccak256(0x00, 0x20)\n      add\n      0x00\n      swap1\n      swap2\n      swap3\n      swap1\n      swap2\n      swap3\n      swap1\n      swap2\n      swap3\n      swap1\n      swap2\n      swap3\n      pop\n      swap2\n      dup3\n      tag_72\n      swap3\n      swap2\n      swap1\n      tag_73\n      jump\t// in\n    tag_72:\n      pop\n        /* \"PRACTICA 5/librerias_y_tokens.sol\":4401:4411  characters */\n      0x01\n        /* \"PRACTICA 5/librerias_y_tokens.sol\":4401:4430  characters[character_tokenId] */\n      0x00\n        /* \"PRACTICA 5/librerias_y_tokens.sol\":4412:4429  character_tokenId */\n      dup12\n        /* \"PRACTICA 5/librerias_y_tokens.sol\":4401:4430  characters[character_tokenId] */\n      dup2\n      mstore\n      0x20\n      add\n      swap1\n      dup2\n      mstore\n      0x20\n      add\n      0x00\n      keccak256\n        /* \"PRACTICA 5/librerias_y_tokens.sol\":4401:4438  characters[character_tokenId].weapons */\n      0x01\n      add\n        /* \"PRACTICA 5/librerias_y_tokens.sol\":4401:4449  characters[character_tokenId].weapons.firePowers */\n      0x01\n      add\n        /* \"PRACTICA 5/librerias_y_tokens.sol\":4455:4465  fire_power */\n      dup8\n        /* \"PRACTICA 5/librerias_y_tokens.sol\":4401:4466  characters[character_tokenId].weapons.firePowers.push(fire_power) */\n      swap1\n      dup1\n      0x01\n      dup2\n      sload\n      add\n      dup1\n      dup3\n      sstore\n      dup1\n      swap2\n      pop\n      pop\n      0x01\n      swap1\n      sub\n      swap1\n      0x00\n      mstore\n      keccak256(0x00, 0x20)\n      add\n      0x00\n      swap1\n      swap2\n      swap1\n      swap2\n      swap1\n      swap2\n      pop\n      sstore\n        /* \"PRACTICA 5/librerias_y_tokens.sol\":3308:4619  {... */\n      pop\n      pop\n      pop\n        /* \"PRACTICA 5/librerias_y_tokens.sol\":3155:4619  function addWeapon(uint character_tokenId, string calldata weapon_name, uint fire_power) external payable weapon_notExist(character_tokenId, weapon_name){... */\n      pop\n      pop\n      pop\n      pop\n      pop\n      pop\n      pop\n      jump\t// out\n        /* \"PRACTICA 5/librerias_y_tokens.sol\":1417:1462  mapping (uint => Character) public characters */\n    tag_18:\n      mstore(0x20, 0x01)\n      dup1\n      0x00\n      mstore\n      keccak256(0x00, 0x40)\n      0x00\n      swap2\n      pop\n      swap1\n      pop\n      dup1\n      0x00\n      add\n      dup1\n      sload\n      tag_75\n      swap1\n      tag_51\n      jump\t// in\n    tag_75:\n      dup1\n      0x1f\n      add\n      0x20\n      dup1\n      swap2\n      div\n      mul\n      0x20\n      add\n      mload(0x40)\n      swap1\n      dup2\n      add\n      0x40\n      mstore\n      dup1\n      swap3\n      swap2\n      swap1\n      dup2\n      dup2\n      mstore\n      0x20\n      add\n      dup3\n      dup1\n      sload\n      tag_76\n      swap1\n      tag_51\n      jump\t// in\n    tag_76:\n      dup1\n      iszero\n      tag_77\n      jumpi\n      dup1\n      0x1f\n      lt\n      tag_78\n      jumpi\n      0x0100\n      dup1\n      dup4\n      sload\n      div\n      mul\n      dup4\n      mstore\n      swap2\n      0x20\n      add\n      swap2\n      jump(tag_77)\n    tag_78:\n      dup3\n      add\n      swap2\n      swap1\n      0x00\n      mstore\n      keccak256(0x00, 0x20)\n      swap1\n    tag_79:\n      dup2\n      sload\n      dup2\n      mstore\n      swap1\n      0x01\n      add\n      swap1\n      0x20\n      add\n      dup1\n      dup4\n      gt\n      tag_79\n      jumpi\n      dup3\n      swap1\n      sub\n      0x1f\n      and\n      dup3\n      add\n      swap2\n    tag_77:\n      pop\n      pop\n      pop\n      pop\n      pop\n      swap1\n      dup1\n      0x01\n      add\n      mload(0x40)\n      dup1\n      0x40\n      add\n      0x40\n      mstore\n      swap1\n      dup2\n      0x00\n      dup3\n      add\n      dup1\n      sload\n      dup1\n      0x20\n      mul\n      0x20\n      add\n      mload(0x40)\n      swap1\n      dup2\n      add\n      0x40\n      mstore\n      dup1\n      swap3\n      swap2\n      swap1\n      dup2\n      dup2\n      mstore\n      0x20\n      add\n      0x00\n      swap1\n    tag_80:\n      dup3\n      dup3\n      lt\n      iszero\n      tag_81\n      jumpi\n      dup4\n      dup3\n      swap1\n      0x00\n      mstore\n      keccak256(0x00, 0x20)\n      add\n      dup1\n      sload\n      tag_83\n      swap1\n      tag_51\n      jump\t// in\n    tag_83:\n      dup1\n      0x1f\n      add\n      0x20\n      dup1\n      swap2\n      div\n      mul\n      0x20\n      add\n      mload(0x40)\n      swap1\n      dup2\n      add\n      0x40\n      mstore\n      dup1\n      swap3\n      swap2\n      swap1\n      dup2\n      dup2\n      mstore\n      0x20\n      add\n      dup3\n      dup1\n      sload\n      tag_84\n      swap1\n      tag_51\n      jump\t// in\n    tag_84:\n      dup1\n      iszero\n      tag_85\n      jumpi\n      dup1\n      0x1f\n      lt\n      tag_86\n      jumpi\n      0x0100\n      dup1\n      dup4\n      sload\n      div\n      mul\n      dup4\n      mstore\n      swap2\n      0x20\n      add\n      swap2\n      jump(tag_85)\n    tag_86:\n      dup3\n      add\n      swap2\n      swap1\n      0x00\n      mstore\n      keccak256(0x00, 0x20)\n      swap1\n    tag_87:\n      dup2\n      sload\n      dup2\n      mstore\n      swap1\n      0x01\n      add\n      swap1\n      0x20\n      add\n      dup1\n      dup4\n      gt\n      tag_87\n      jumpi\n      dup3\n      swap1\n      sub\n      0x1f\n      and\n      dup3\n      add\n      swap2\n    tag_85:\n      pop\n      pop\n      pop\n      pop\n      pop\n      dup2\n      mstore\n      0x20\n      add\n      swap1\n      0x01\n      add\n      swap1\n      jump(tag_80)\n    tag_81:\n      pop\n      pop\n      pop\n      pop\n      dup2\n      mstore\n      0x20\n      add\n      0x01\n      dup3\n      add\n      dup1\n      sload\n      dup1\n      0x20\n      mul\n      0x20\n      add\n      mload(0x40)\n      swap1\n      dup2\n      add\n      0x40\n      mstore\n      dup1\n      swap3\n      swap2\n      swap1\n      dup2\n      dup2\n      mstore\n      0x20\n      add\n      dup3\n      dup1\n      sload\n      dup1\n      iszero\n      tag_88\n      jumpi\n      0x20\n      mul\n      dup3\n      add\n      swap2\n      swap1\n      0x00\n      mstore\n      keccak256(0x00, 0x20)\n      swap1\n    tag_89:\n      dup2\n      sload\n      dup2\n      mstore\n      0x20\n      add\n      swap1\n      0x01\n      add\n      swap1\n      dup1\n      dup4\n      gt\n      tag_89\n      jumpi\n    tag_88:\n      pop\n      pop\n      pop\n      pop\n      pop\n      dup2\n      mstore\n      pop\n      pop\n      swap1\n      dup1\n      0x03\n      add\n      0x00\n      swap1\n      sload\n      swap1\n      0x0100\n      exp\n      swap1\n      div\n      0xffffffffffffffffffffffffffffffffffffffff\n      and\n      swap1\n      pop\n      dup4\n      jump\t// out\n        /* \"PRACTICA 5/librerias_y_tokens.sol\":2254:2766  function removeMonsterToken(uint token) external {... */\n    tag_24:\n        /* \"PRACTICA 5/librerias_y_tokens.sol\":2568:2578  msg.sender */\n      caller\n        /* \"PRACTICA 5/librerias_y_tokens.sol\":2536:2578  characters[token].tokenOwner == msg.sender */\n      0xffffffffffffffffffffffffffffffffffffffff\n      and\n        /* \"PRACTICA 5/librerias_y_tokens.sol\":2536:2546  characters */\n      0x01\n        /* \"PRACTICA 5/librerias_y_tokens.sol\":2536:2553  characters[token] */\n      0x00\n        /* \"PRACTICA 5/librerias_y_tokens.sol\":2547:2552  token */\n      dup4\n        /* \"PRACTICA 5/librerias_y_tokens.sol\":2536:2553  characters[token] */\n      dup2\n      mstore\n      0x20\n      add\n      swap1\n      dup2\n      mstore\n      0x20\n      add\n      0x00\n      keccak256\n        /* \"PRACTICA 5/librerias_y_tokens.sol\":2536:2564  characters[token].tokenOwner */\n      0x03\n      add\n      0x00\n      swap1\n      sload\n      swap1\n      0x0100\n      exp\n      swap1\n      div\n      0xffffffffffffffffffffffffffffffffffffffff\n      and\n        /* \"PRACTICA 5/librerias_y_tokens.sol\":2536:2578  characters[token].tokenOwner == msg.sender */\n      0xffffffffffffffffffffffffffffffffffffffff\n      and\n      eq\n        /* \"PRACTICA 5/librerias_y_tokens.sol\":2528:2634  require(characters[token].tokenOwner == msg.sender, \"Solo el propietario del token puede borrar el token\") */\n      tag_91\n      jumpi\n      mload(0x40)\n      0x08c379a000000000000000000000000000000000000000000000000000000000\n      dup2\n      mstore\n      0x04\n      add\n      tag_92\n      swap1\n      tag_93\n      jump\t// in\n    tag_92:\n      mload(0x40)\n      dup1\n      swap2\n      sub\n      swap1\n      revert\n    tag_91:\n        /* \"PRACTICA 5/librerias_y_tokens.sol\":2654:2664  characters */\n      0x01\n        /* \"PRACTICA 5/librerias_y_tokens.sol\":2654:2671  characters[token] */\n      0x00\n        /* \"PRACTICA 5/librerias_y_tokens.sol\":2665:2670  token */\n      dup3\n        /* \"PRACTICA 5/librerias_y_tokens.sol\":2654:2671  characters[token] */\n      dup2\n      mstore\n      0x20\n      add\n      swap1\n      dup2\n      mstore\n      0x20\n      add\n      0x00\n      keccak256\n      0x00\n        /* \"PRACTICA 5/librerias_y_tokens.sol\":2647:2671  delete characters[token] */\n      dup1\n      dup3\n      add\n      0x00\n      tag_94\n      swap2\n      swap1\n      tag_95\n      jump\t// in\n    tag_94:\n      0x01\n      dup3\n      add\n      0x00\n      dup1\n      dup3\n      add\n      0x00\n      tag_96\n      swap2\n      swap1\n      tag_97\n      jump\t// in\n    tag_96:\n      0x01\n      dup3\n      add\n      0x00\n      tag_98\n      swap2\n      swap1\n      tag_99\n      jump\t// in\n    tag_98:\n      pop\n      pop\n      0x03\n      dup3\n      add\n      exp(0x0100, 0x00)\n      dup2\n      sload\n      swap1\n      0xffffffffffffffffffffffffffffffffffffffff\n      mul\n      not\n      and\n      swap1\n      sstore\n      pop\n      pop\n        /* \"PRACTICA 5/librerias_y_tokens.sol\":2684:2698  num_characters */\n      0x02\n      0x00\n        /* \"PRACTICA 5/librerias_y_tokens.sol\":2684:2700  num_characters-- */\n      dup2\n      sload\n      dup1\n      swap3\n      swap2\n      swap1\n      tag_100\n      swap1\n      tag_101\n      jump\t// in\n    tag_100:\n      swap2\n      swap1\n      pop\n      sstore\n      pop\n        /* \"PRACTICA 5/librerias_y_tokens.sol\":2721:2731  msg.sender */\n      caller\n        /* \"PRACTICA 5/librerias_y_tokens.sol\":2713:2741  payable(msg.sender).transfer */\n      0xffffffffffffffffffffffffffffffffffffffff\n      and\n        /* \"PRACTICA 5/librerias_y_tokens.sol\":2713:2758  payable(msg.sender).transfer(WEIS_NECESARIOS) */\n      0x08fc\n        /* \"PRACTICA 5/librerias_y_tokens.sol\":1367:1375  1000 wei */\n      0x03e8\n        /* \"PRACTICA 5/librerias_y_tokens.sol\":2713:2758  payable(msg.sender).transfer(WEIS_NECESARIOS) */\n      swap1\n      dup2\n      iszero\n      mul\n      swap1\n      mload(0x40)\n      0x00\n      mload(0x40)\n      dup1\n      dup4\n      sub\n      dup2\n      dup6\n      dup9\n      dup9\n      call\n      swap4\n      pop\n      pop\n      pop\n      pop\n      iszero\n      dup1\n      iszero\n      tag_103\n      jumpi\n      returndatasize\n      0x00\n      dup1\n      returndatacopy\n      revert(0x00, returndatasize)\n    tag_103:\n      pop\n        /* \"PRACTICA 5/librerias_y_tokens.sol\":2254:2766  function removeMonsterToken(uint token) external {... */\n      pop\n      jump\t// out\n        /* \"PRACTICA 5/librerias_y_tokens.sol\":5451:6017  function collectProfits() external  {... */\n    tag_27:\n        /* \"PRACTICA 5/librerias_y_tokens.sol\":5522:5535  contractOwner */\n      0x03\n      0x00\n      swap1\n      sload\n      swap1\n      0x0100\n      exp\n      swap1\n      div\n      0xffffffffffffffffffffffffffffffffffffffff\n      and\n        /* \"PRACTICA 5/librerias_y_tokens.sol\":5508:5535  msg.sender == contractOwner */\n      0xffffffffffffffffffffffffffffffffffffffff\n      and\n        /* \"PRACTICA 5/librerias_y_tokens.sol\":5508:5518  msg.sender */\n      caller\n        /* \"PRACTICA 5/librerias_y_tokens.sol\":5508:5535  msg.sender == contractOwner */\n      0xffffffffffffffffffffffffffffffffffffffff\n      and\n      eq\n        /* \"PRACTICA 5/librerias_y_tokens.sol\":5500:5621  require(msg.sender == contractOwner, \"Solo puedes recibir los profits de este contrato si eres el propietario del mismo\") */\n      tag_105\n      jumpi\n      mload(0x40)\n      0x08c379a000000000000000000000000000000000000000000000000000000000\n      dup2\n      mstore\n      0x04\n      add\n      tag_106\n      swap1\n      tag_107\n      jump\t// in\n    tag_106:\n      mload(0x40)\n      dup1\n      swap2\n      sub\n      swap1\n      revert\n    tag_105:\n        /* \"PRACTICA 5/librerias_y_tokens.sol\":5632:5650  uint totalDeposits */\n      0x00\n        /* \"PRACTICA 5/librerias_y_tokens.sol\":1367:1375  1000 wei */\n      0x03e8\n        /* \"PRACTICA 5/librerias_y_tokens.sol\":5653:5667  num_characters */\n      sload(0x02)\n        /* \"PRACTICA 5/librerias_y_tokens.sol\":5653:5684  num_characters *WEIS_NECESARIOS */\n      tag_108\n      swap2\n      swap1\n      tag_67\n      jump\t// in\n    tag_108:\n        /* \"PRACTICA 5/librerias_y_tokens.sol\":5632:5684  uint totalDeposits = num_characters *WEIS_NECESARIOS */\n      swap1\n      pop\n        /* \"PRACTICA 5/librerias_y_tokens.sol\":5748:5760  uint profits */\n      0x00\n        /* \"PRACTICA 5/librerias_y_tokens.sol\":5787:5800  totalDeposits */\n      dup2\n        /* \"PRACTICA 5/librerias_y_tokens.sol\":5763:5784  address(this).balance */\n      selfbalance\n        /* \"PRACTICA 5/librerias_y_tokens.sol\":5763:5800  address(this).balance - totalDeposits */\n      tag_109\n      swap2\n      swap1\n      tag_110\n      jump\t// in\n    tag_109:\n        /* \"PRACTICA 5/librerias_y_tokens.sol\":5748:5800  uint profits = address(this).balance - totalDeposits */\n      swap1\n      pop\n        /* \"PRACTICA 5/librerias_y_tokens.sol\":5865:5866  0 */\n      0x00\n        /* \"PRACTICA 5/librerias_y_tokens.sol\":5856:5863  profits */\n      dup2\n        /* \"PRACTICA 5/librerias_y_tokens.sol\":5856:5866  profits >0 */\n      gt\n        /* \"PRACTICA 5/librerias_y_tokens.sol\":5848:5901  require(profits >0, \"No hay beneficios para recoger\") */\n      tag_111\n      jumpi\n      mload(0x40)\n      0x08c379a000000000000000000000000000000000000000000000000000000000\n      dup2\n      mstore\n      0x04\n      add\n      tag_112\n      swap1\n      tag_113\n      jump\t// in\n    tag_112:\n      mload(0x40)\n      dup1\n      swap2\n      sub\n      swap1\n      revert\n    tag_111:\n        /* \"PRACTICA 5/librerias_y_tokens.sol\":5921:5934  contractOwner */\n      0x03\n      0x00\n      swap1\n      sload\n      swap1\n      0x0100\n      exp\n      swap1\n      div\n      0xffffffffffffffffffffffffffffffffffffffff\n      and\n        /* \"PRACTICA 5/librerias_y_tokens.sol\":5912:5944  payable (contractOwner).transfer */\n      0xffffffffffffffffffffffffffffffffffffffff\n      and\n        /* \"PRACTICA 5/librerias_y_tokens.sol\":5912:5953  payable (contractOwner).transfer(profits) */\n      0x08fc\n        /* \"PRACTICA 5/librerias_y_tokens.sol\":5945:5952  profits */\n      dup3\n        /* \"PRACTICA 5/librerias_y_tokens.sol\":5912:5953  payable (contractOwner).transfer(profits) */\n      swap1\n      dup2\n      iszero\n      mul\n      swap1\n      mload(0x40)\n      0x00\n      mload(0x40)\n      dup1\n      dup4\n      sub\n      dup2\n      dup6\n      dup9\n      dup9\n      call\n      swap4\n      pop\n      pop\n      pop\n      pop\n      iszero\n      dup1\n      iszero\n      tag_115\n      jumpi\n      returndatasize\n      0x00\n      dup1\n      returndatacopy\n      revert(0x00, returndatasize)\n    tag_115:\n      pop\n        /* \"PRACTICA 5/librerias_y_tokens.sol\":5487:6017  {... */\n      pop\n      pop\n        /* \"PRACTICA 5/librerias_y_tokens.sol\":5451:6017  function collectProfits() external  {... */\n      jump\t// out\n        /* \"PRACTICA 5/librerias_y_tokens.sol\":4698:5443  function incrementFirePower(uint character_tokenId, uint8 inc_per) external payable {... */\n    tag_31:\n        /* \"PRACTICA 5/librerias_y_tokens.sol\":4795:4814  Character storage c */\n      0x00\n        /* \"PRACTICA 5/librerias_y_tokens.sol\":4817:4827  characters */\n      0x01\n        /* \"PRACTICA 5/librerias_y_tokens.sol\":4817:4846  characters[character_tokenId] */\n      0x00\n        /* \"PRACTICA 5/librerias_y_tokens.sol\":4828:4845  character_tokenId */\n      dup5\n        /* \"PRACTICA 5/librerias_y_tokens.sol\":4817:4846  characters[character_tokenId] */\n      dup2\n      mstore\n      0x20\n      add\n      swap1\n      dup2\n      mstore\n      0x20\n      add\n      0x00\n      keccak256\n        /* \"PRACTICA 5/librerias_y_tokens.sol\":4795:4846  Character storage c = characters[character_tokenId] */\n      swap1\n      pop\n        /* \"PRACTICA 5/librerias_y_tokens.sol\":4955:4965  msg.sender */\n      caller\n        /* \"PRACTICA 5/librerias_y_tokens.sol\":4939:4965  c.tokenOwner == msg.sender */\n      0xffffffffffffffffffffffffffffffffffffffff\n      and\n        /* \"PRACTICA 5/librerias_y_tokens.sol\":4939:4940  c */\n      dup2\n        /* \"PRACTICA 5/librerias_y_tokens.sol\":4939:4951  c.tokenOwner */\n      0x03\n      add\n      0x00\n      swap1\n      sload\n      swap1\n      0x0100\n      exp\n      swap1\n      div\n      0xffffffffffffffffffffffffffffffffffffffff\n      and\n        /* \"PRACTICA 5/librerias_y_tokens.sol\":4939:4965  c.tokenOwner == msg.sender */\n      0xffffffffffffffffffffffffffffffffffffffff\n      and\n      eq\n        /* \"PRACTICA 5/librerias_y_tokens.sol\":4931:5027  require(c.tokenOwner == msg.sender, \"Solo el propietario del token puede ejecutar esta accion.\") */\n      tag_117\n      jumpi\n      mload(0x40)\n      0x08c379a000000000000000000000000000000000000000000000000000000000\n      dup2\n      mstore\n      0x04\n      add\n      tag_118\n      swap1\n      tag_119\n      jump\t// in\n    tag_118:\n      mload(0x40)\n      dup1\n      swap2\n      sub\n      swap1\n      revert\n    tag_117:\n        /* \"PRACTICA 5/librerias_y_tokens.sol\":5097:5106  uint cost */\n      0x00\n        /* \"PRACTICA 5/librerias_y_tokens.sol\":5119:5126  inc_per */\n      dup3\n        /* \"PRACTICA 5/librerias_y_tokens.sol\":5109:5116  inc_per */\n      dup4\n        /* \"PRACTICA 5/librerias_y_tokens.sol\":5109:5126  inc_per * inc_per */\n      tag_120\n      swap2\n      swap1\n      tag_121\n      jump\t// in\n    tag_120:\n        /* \"PRACTICA 5/librerias_y_tokens.sol\":5097:5126  uint cost = inc_per * inc_per */\n      0xff\n      and\n      swap1\n      pop\n        /* \"PRACTICA 5/librerias_y_tokens.sol\":5216:5220  cost */\n      dup1\n        /* \"PRACTICA 5/librerias_y_tokens.sol\":5203:5212  msg.value */\n      callvalue\n        /* \"PRACTICA 5/librerias_y_tokens.sol\":5203:5220  msg.value >= cost */\n      lt\n      iszero\n        /* \"PRACTICA 5/librerias_y_tokens.sol\":5195:5293  require(msg.value >= cost, \"No tienes suficientes weis para incrementar la potencia de tus armas\") */\n      tag_122\n      jumpi\n      mload(0x40)\n      0x08c379a000000000000000000000000000000000000000000000000000000000\n      dup2\n      mstore\n      0x04\n      add\n      tag_123\n      swap1\n      tag_124\n      jump\t// in\n    tag_123:\n      mload(0x40)\n      dup1\n      swap2\n      sub\n      swap1\n      revert\n    tag_122:\n        /* \"PRACTICA 5/librerias_y_tokens.sol\":5384:5435  ArrayUtils.increment(c.weapons.firePowers, inc_per) */\n      tag_125\n        /* \"PRACTICA 5/librerias_y_tokens.sol\":5405:5406  c */\n      dup3\n        /* \"PRACTICA 5/librerias_y_tokens.sol\":5405:5414  c.weapons */\n      0x01\n      add\n        /* \"PRACTICA 5/librerias_y_tokens.sol\":5405:5425  c.weapons.firePowers */\n      0x01\n      add\n        /* \"PRACTICA 5/librerias_y_tokens.sol\":5384:5435  ArrayUtils.increment(c.weapons.firePowers, inc_per) */\n      dup1\n      sload\n      dup1\n      0x20\n      mul\n      0x20\n      add\n      mload(0x40)\n      swap1\n      dup2\n      add\n      0x40\n      mstore\n      dup1\n      swap3\n      swap2\n      swap1\n      dup2\n      dup2\n      mstore\n      0x20\n      add\n      dup3\n      dup1\n      sload\n      dup1\n      iszero\n      tag_126\n      jumpi\n      0x20\n      mul\n      dup3\n      add\n      swap2\n      swap1\n      0x00\n      mstore\n      keccak256(0x00, 0x20)\n      swap1\n    tag_127:\n      dup2\n      sload\n      dup2\n      mstore\n      0x20\n      add\n      swap1\n      0x01\n      add\n      swap1\n      dup1\n      dup4\n      gt\n      tag_127\n      jumpi\n    tag_126:\n      pop\n      pop\n      pop\n      pop\n      pop\n        /* \"PRACTICA 5/librerias_y_tokens.sol\":5427:5434  inc_per */\n      dup5\n        /* \"PRACTICA 5/librerias_y_tokens.sol\":5384:5404  ArrayUtils.increment */\n      tag_128\n        /* \"PRACTICA 5/librerias_y_tokens.sol\":5384:5435  ArrayUtils.increment(c.weapons.firePowers, inc_per) */\n      jump\t// in\n    tag_125:\n        /* \"PRACTICA 5/librerias_y_tokens.sol\":4782:5443  {... */\n      pop\n      pop\n        /* \"PRACTICA 5/librerias_y_tokens.sol\":4698:5443  function incrementFirePower(uint character_tokenId, uint8 inc_per) external payable {... */\n      pop\n      pop\n      jump\t// out\n        /* \"PRACTICA 5/librerias_y_tokens.sol\":1328:1375  uint public constant WEIS_NECESARIOS = 1000 wei */\n    tag_34:\n        /* \"PRACTICA 5/librerias_y_tokens.sol\":1367:1375  1000 wei */\n      0x03e8\n        /* \"PRACTICA 5/librerias_y_tokens.sol\":1328:1375  uint public constant WEIS_NECESARIOS = 1000 wei */\n      dup2\n      jump\t// out\n        /* \"PRACTICA 5/librerias_y_tokens.sol\":1822:2244  function createMonsterToken(string calldata character_name)external payable returns (uint) {... */\n    tag_40:\n        /* \"PRACTICA 5/librerias_y_tokens.sol\":1907:1911  uint */\n      0x00\n        /* \"PRACTICA 5/librerias_y_tokens.sol\":1367:1375  1000 wei */\n      0x03e8\n        /* \"PRACTICA 5/librerias_y_tokens.sol\":1941:1950  msg.value */\n      callvalue\n        /* \"PRACTICA 5/librerias_y_tokens.sol\":1941:1969  msg.value == WEIS_NECESARIOS */\n      eq\n        /* \"PRACTICA 5/librerias_y_tokens.sol\":1933:2002  require(msg.value == WEIS_NECESARIOS, \"El importe a de ser mil weis\") */\n      tag_130\n      jumpi\n      mload(0x40)\n      0x08c379a000000000000000000000000000000000000000000000000000000000\n      dup2\n      mstore\n      0x04\n      add\n      tag_131\n      swap1\n      tag_132\n      jump\t// in\n    tag_131:\n      mload(0x40)\n      dup1\n      swap2\n      sub\n      swap1\n      revert\n    tag_130:\n        /* \"PRACTICA 5/librerias_y_tokens.sol\":2021:2028  tokenId */\n      0x00\n      dup1\n        /* \"PRACTICA 5/librerias_y_tokens.sol\":2021:2030  tokenId++ */\n      dup2\n      sload\n      dup1\n      swap3\n      swap2\n      swap1\n      tag_133\n      swap1\n      tag_134\n      jump\t// in\n    tag_133:\n      swap2\n      swap1\n      pop\n      sstore\n      pop\n        /* \"PRACTICA 5/librerias_y_tokens.sol\":2045:2063  Character memory c */\n      0x00\n        /* \"PRACTICA 5/librerias_y_tokens.sol\":2066:2143  Character(character_name,Weapons(new string[](0), new uint[](0)), msg.sender) */\n      mload(0x40)\n      dup1\n      0x60\n      add\n      0x40\n      mstore\n      dup1\n        /* \"PRACTICA 5/librerias_y_tokens.sol\":2076:2090  character_name */\n      dup6\n      dup6\n        /* \"PRACTICA 5/librerias_y_tokens.sol\":2066:2143  Character(character_name,Weapons(new string[](0), new uint[](0)), msg.sender) */\n      dup1\n      dup1\n      0x1f\n      add\n      0x20\n      dup1\n      swap2\n      div\n      mul\n      0x20\n      add\n      mload(0x40)\n      swap1\n      dup2\n      add\n      0x40\n      mstore\n      dup1\n      swap4\n      swap3\n      swap2\n      swap1\n      dup2\n      dup2\n      mstore\n      0x20\n      add\n      dup4\n      dup4\n      dup1\n      dup3\n      dup5\n      calldatacopy\n      0x00\n      dup2\n      dup5\n      add\n      mstore\n      not(0x1f)\n      0x1f\n      dup3\n      add\n      and\n      swap1\n      pop\n      dup1\n      dup4\n      add\n      swap3\n      pop\n      pop\n      pop\n      pop\n      pop\n      pop\n      pop\n      dup2\n      mstore\n      0x20\n      add\n        /* \"PRACTICA 5/librerias_y_tokens.sol\":2091:2130  Weapons(new string[](0), new uint[](0)) */\n      mload(0x40)\n      dup1\n      0x40\n      add\n      0x40\n      mstore\n      dup1\n        /* \"PRACTICA 5/librerias_y_tokens.sol\":2112:2113  0 */\n      0x00\n        /* \"PRACTICA 5/librerias_y_tokens.sol\":2099:2114  new string[](0) */\n      0xffffffffffffffff\n      dup2\n      gt\n      iszero\n      tag_135\n      jumpi\n      tag_136\n      tag_137\n      jump\t// in\n    tag_136:\n    tag_135:\n      mload(0x40)\n      swap1\n      dup1\n      dup3\n      mstore\n      dup1\n      0x20\n      mul\n      0x20\n      add\n      dup3\n      add\n      0x40\n      mstore\n      dup1\n      iszero\n      tag_138\n      jumpi\n      dup2\n      0x20\n      add\n    tag_139:\n      0x60\n      dup2\n      mstore\n      0x20\n      add\n      swap1\n      0x01\n      swap1\n      sub\n      swap1\n      dup2\n      tag_139\n      jumpi\n      swap1\n      pop\n    tag_138:\n      pop\n        /* \"PRACTICA 5/librerias_y_tokens.sol\":2091:2130  Weapons(new string[](0), new uint[](0)) */\n      dup2\n      mstore\n      0x20\n      add\n        /* \"PRACTICA 5/librerias_y_tokens.sol\":2127:2128  0 */\n      0x00\n        /* \"PRACTICA 5/librerias_y_tokens.sol\":2116:2129  new uint[](0) */\n      0xffffffffffffffff\n      dup2\n      gt\n      iszero\n      tag_140\n      jumpi\n      tag_141\n      tag_137\n      jump\t// in\n    tag_141:\n    tag_140:\n      mload(0x40)\n      swap1\n      dup1\n      dup3\n      mstore\n      dup1\n      0x20\n      mul\n      0x20\n      add\n      dup3\n      add\n      0x40\n      mstore\n      dup1\n      iszero\n      tag_142\n      jumpi\n      dup2\n      0x20\n      add\n      0x20\n      dup3\n      mul\n      dup1\n      calldatasize\n      dup4\n      calldatacopy\n      dup1\n      dup3\n      add\n      swap2\n      pop\n      pop\n      swap1\n      pop\n    tag_142:\n      pop\n        /* \"PRACTICA 5/librerias_y_tokens.sol\":2091:2130  Weapons(new string[](0), new uint[](0)) */\n      dup2\n      mstore\n      pop\n        /* \"PRACTICA 5/librerias_y_tokens.sol\":2066:2143  Character(character_name,Weapons(new string[](0), new uint[](0)), msg.sender) */\n      dup2\n      mstore\n      0x20\n      add\n        /* \"PRACTICA 5/librerias_y_tokens.sol\":2132:2142  msg.sender */\n      caller\n        /* \"PRACTICA 5/librerias_y_tokens.sol\":2066:2143  Character(character_name,Weapons(new string[](0), new uint[](0)), msg.sender) */\n      0xffffffffffffffffffffffffffffffffffffffff\n      and\n      dup2\n      mstore\n      pop\n        /* \"PRACTICA 5/librerias_y_tokens.sol\":2045:2143  Character memory c = Character(character_name,Weapons(new string[](0), new uint[](0)), msg.sender) */\n      swap1\n      pop\n        /* \"PRACTICA 5/librerias_y_tokens.sol\":2175:2176  c */\n      dup1\n        /* \"PRACTICA 5/librerias_y_tokens.sol\":2154:2164  characters */\n      0x01\n        /* \"PRACTICA 5/librerias_y_tokens.sol\":2154:2173  characters[tokenId] */\n      0x00\n        /* \"PRACTICA 5/librerias_y_tokens.sol\":2165:2172  tokenId */\n      dup1\n      sload\n        /* \"PRACTICA 5/librerias_y_tokens.sol\":2154:2173  characters[tokenId] */\n      dup2\n      mstore\n      0x20\n      add\n      swap1\n      dup2\n      mstore\n      0x20\n      add\n      0x00\n      keccak256\n        /* \"PRACTICA 5/librerias_y_tokens.sol\":2154:2176  characters[tokenId]= c */\n      0x00\n      dup3\n      add\n      mload\n      dup2\n      0x00\n      add\n      swap1\n      dup2\n      tag_143\n      swap2\n      swap1\n      tag_144\n      jump\t// in\n    tag_143:\n      pop\n      0x20\n      dup3\n      add\n      mload\n      dup2\n      0x01\n      add\n      0x00\n      dup3\n      add\n      mload\n      dup2\n      0x00\n      add\n      swap1\n      dup1\n      mload\n      swap1\n      0x20\n      add\n      swap1\n      tag_145\n      swap3\n      swap2\n      swap1\n      tag_146\n      jump\t// in\n    tag_145:\n      pop\n      0x20\n      dup3\n      add\n      mload\n      dup2\n      0x01\n      add\n      swap1\n      dup1\n      mload\n      swap1\n      0x20\n      add\n      swap1\n      tag_147\n      swap3\n      swap2\n      swap1\n      tag_148\n      jump\t// in\n    tag_147:\n      pop\n      pop\n      pop\n      0x40\n      dup3\n      add\n      mload\n      dup2\n      0x03\n      add\n      exp(0x0100, 0x00)\n      dup2\n      sload\n      dup2\n      0xffffffffffffffffffffffffffffffffffffffff\n      mul\n      not\n      and\n      swap1\n      dup4\n      0xffffffffffffffffffffffffffffffffffffffff\n      and\n      mul\n      or\n      swap1\n      sstore\n      pop\n      swap1\n      pop\n      pop\n        /* \"PRACTICA 5/librerias_y_tokens.sol\":2191:2205  num_characters */\n      0x02\n      0x00\n        /* \"PRACTICA 5/librerias_y_tokens.sol\":2191:2207  num_characters++ */\n      dup2\n      sload\n      dup1\n      swap3\n      swap2\n      swap1\n      tag_149\n      swap1\n      tag_134\n      jump\t// in\n    tag_149:\n      swap2\n      swap1\n      pop\n      sstore\n      pop\n        /* \"PRACTICA 5/librerias_y_tokens.sol\":2229:2236  tokenId */\n      sload(0x00)\n        /* \"PRACTICA 5/librerias_y_tokens.sol\":2222:2236  return tokenId */\n      swap2\n      pop\n      pop\n        /* \"PRACTICA 5/librerias_y_tokens.sol\":1822:2244  function createMonsterToken(string calldata character_name)external payable returns (uint) {... */\n      swap3\n      swap2\n      pop\n      pop\n      jump\t// out\n        /* \"PRACTICA 5/librerias_y_tokens.sol\":195:504  function contains(string[] memory arr, string calldata val) internal pure returns(bool){... */\n    tag_56:\n        /* \"PRACTICA 5/librerias_y_tokens.sol\":277:281  bool */\n      0x00\n        /* \"PRACTICA 5/librerias_y_tokens.sol\":302:308  uint i */\n      dup1\n        /* \"PRACTICA 5/librerias_y_tokens.sol\":310:311  0 */\n      0x00\n        /* \"PRACTICA 5/librerias_y_tokens.sol\":302:311  uint i =0 */\n      swap1\n      pop\n        /* \"PRACTICA 5/librerias_y_tokens.sol\":297:470  for (uint i =0; i < arr.length; i++)... */\n    tag_151:\n        /* \"PRACTICA 5/librerias_y_tokens.sol\":317:320  arr */\n      dup5\n        /* \"PRACTICA 5/librerias_y_tokens.sol\":317:327  arr.length */\n      mload\n        /* \"PRACTICA 5/librerias_y_tokens.sol\":313:314  i */\n      dup2\n        /* \"PRACTICA 5/librerias_y_tokens.sol\":313:327  i < arr.length */\n      lt\n        /* \"PRACTICA 5/librerias_y_tokens.sol\":297:470  for (uint i =0; i < arr.length; i++)... */\n      iszero\n      tag_152\n      jumpi\n        /* \"PRACTICA 5/librerias_y_tokens.sol\":406:409  val */\n      dup4\n      dup4\n        /* \"PRACTICA 5/librerias_y_tokens.sol\":390:411  keccak256(bytes(val)) */\n      mload(0x40)\n      tag_154\n      swap3\n      swap2\n      swap1\n      tag_155\n      jump\t// in\n    tag_154:\n      mload(0x40)\n      dup1\n      swap2\n      sub\n      swap1\n      keccak256\n        /* \"PRACTICA 5/librerias_y_tokens.sol\":378:381  arr */\n      dup6\n        /* \"PRACTICA 5/librerias_y_tokens.sol\":382:383  i */\n      dup3\n        /* \"PRACTICA 5/librerias_y_tokens.sol\":378:384  arr[i] */\n      dup2\n      mload\n      dup2\n      lt\n      tag_156\n      jumpi\n      tag_157\n      tag_158\n      jump\t// in\n    tag_157:\n    tag_156:\n      0x20\n      mul\n      0x20\n      add\n      add\n      mload\n        /* \"PRACTICA 5/librerias_y_tokens.sol\":362:386  keccak256(bytes(arr[i])) */\n      dup1\n      mload\n      swap1\n      0x20\n      add\n      keccak256\n        /* \"PRACTICA 5/librerias_y_tokens.sol\":362:411  keccak256(bytes(arr[i])) == keccak256(bytes(val)) */\n      sub\n        /* \"PRACTICA 5/librerias_y_tokens.sol\":358:459  if (keccak256(bytes(arr[i])) == keccak256(bytes(val))) {... */\n      tag_159\n      jumpi\n        /* \"PRACTICA 5/librerias_y_tokens.sol\":439:443  true */\n      0x01\n        /* \"PRACTICA 5/librerias_y_tokens.sol\":432:443  return true */\n      swap2\n      pop\n      pop\n      jump(tag_150)\n        /* \"PRACTICA 5/librerias_y_tokens.sol\":358:459  if (keccak256(bytes(arr[i])) == keccak256(bytes(val))) {... */\n    tag_159:\n        /* \"PRACTICA 5/librerias_y_tokens.sol\":329:332  i++ */\n      dup1\n      dup1\n      0x01\n      add\n      swap2\n      pop\n      pop\n        /* \"PRACTICA 5/librerias_y_tokens.sol\":297:470  for (uint i =0; i < arr.length; i++)... */\n      jump(tag_151)\n    tag_152:\n      pop\n        /* \"PRACTICA 5/librerias_y_tokens.sol\":491:496  false */\n      0x00\n        /* \"PRACTICA 5/librerias_y_tokens.sol\":484:496  return false */\n      swap1\n      pop\n        /* \"PRACTICA 5/librerias_y_tokens.sol\":195:504  function contains(string[] memory arr, string calldata val) internal pure returns(bool){... */\n    tag_150:\n      swap4\n      swap3\n      pop\n      pop\n      pop\n      jump\t// out\n        /* \"PRACTICA 5/librerias_y_tokens.sol\":566:753  function increment(uint[] memory arr, uint8  per) internal pure {... */\n    tag_128:\n        /* \"PRACTICA 5/librerias_y_tokens.sol\":650:656  uint i */\n      0x00\n        /* \"PRACTICA 5/librerias_y_tokens.sol\":645:746  for (uint i=0; i< arr.length; i++)... */\n    tag_161:\n        /* \"PRACTICA 5/librerias_y_tokens.sol\":663:666  arr */\n      dup3\n        /* \"PRACTICA 5/librerias_y_tokens.sol\":663:673  arr.length */\n      mload\n        /* \"PRACTICA 5/librerias_y_tokens.sol\":660:661  i */\n      dup2\n        /* \"PRACTICA 5/librerias_y_tokens.sol\":660:673  i< arr.length */\n      lt\n        /* \"PRACTICA 5/librerias_y_tokens.sol\":645:746  for (uint i=0; i< arr.length; i++)... */\n      iszero\n      tag_162\n      jumpi\n        /* \"PRACTICA 5/librerias_y_tokens.sol\":728:731  100 */\n      0x64\n        /* \"PRACTICA 5/librerias_y_tokens.sol\":724:727  per */\n      dup3\n        /* \"PRACTICA 5/librerias_y_tokens.sol\":724:731  per/100 */\n      tag_164\n      swap2\n      swap1\n      tag_165\n      jump\t// in\n    tag_164:\n        /* \"PRACTICA 5/librerias_y_tokens.sol\":714:732  arr[i] * (per/100) */\n      0xff\n      and\n        /* \"PRACTICA 5/librerias_y_tokens.sol\":714:717  arr */\n      dup4\n        /* \"PRACTICA 5/librerias_y_tokens.sol\":718:719  i */\n      dup3\n        /* \"PRACTICA 5/librerias_y_tokens.sol\":714:720  arr[i] */\n      dup2\n      mload\n      dup2\n      lt\n      tag_166\n      jumpi\n      tag_167\n      tag_158\n      jump\t// in\n    tag_167:\n    tag_166:\n      0x20\n      mul\n      0x20\n      add\n      add\n      mload\n        /* \"PRACTICA 5/librerias_y_tokens.sol\":714:732  arr[i] * (per/100) */\n      tag_168\n      swap2\n      swap1\n      tag_67\n      jump\t// in\n    tag_168:\n        /* \"PRACTICA 5/librerias_y_tokens.sol\":704:707  arr */\n      dup4\n        /* \"PRACTICA 5/librerias_y_tokens.sol\":708:709  i */\n      dup3\n        /* \"PRACTICA 5/librerias_y_tokens.sol\":704:710  arr[i] */\n      dup2\n      mload\n      dup2\n      lt\n      tag_169\n      jumpi\n      tag_170\n      tag_158\n      jump\t// in\n    tag_170:\n    tag_169:\n      0x20\n      mul\n      0x20\n      add\n      add\n        /* \"PRACTICA 5/librerias_y_tokens.sol\":704:732  arr[i] += arr[i] * (per/100) */\n      dup2\n      dup2\n      mload\n      tag_171\n      swap2\n      swap1\n      tag_172\n      jump\t// in\n    tag_171:\n      swap2\n      pop\n      dup2\n      dup2\n      mstore\n      pop\n      pop\n        /* \"PRACTICA 5/librerias_y_tokens.sol\":675:678  i++ */\n      dup1\n      dup1\n      0x01\n      add\n      swap2\n      pop\n      pop\n        /* \"PRACTICA 5/librerias_y_tokens.sol\":645:746  for (uint i=0; i< arr.length; i++)... */\n      jump(tag_161)\n    tag_162:\n      pop\n        /* \"PRACTICA 5/librerias_y_tokens.sol\":566:753  function increment(uint[] memory arr, uint8  per) internal pure {... */\n      pop\n      pop\n      jump\t// out\n    tag_95:\n      pop\n      dup1\n      sload\n      tag_173\n      swap1\n      tag_51\n      jump\t// in\n    tag_173:\n      0x00\n      dup3\n      sstore\n      dup1\n      0x1f\n      lt\n      tag_175\n      jumpi\n      pop\n      jump(tag_174)\n    tag_175:\n      0x1f\n      add\n      0x20\n      swap1\n      div\n      swap1\n      0x00\n      mstore\n      keccak256(0x00, 0x20)\n      swap1\n      dup2\n      add\n      swap1\n      tag_176\n      swap2\n      swap1\n      tag_177\n      jump\t// in\n    tag_176:\n    tag_174:\n      pop\n      jump\t// out\n    tag_97:\n      pop\n      dup1\n      sload\n      0x00\n      dup3\n      sstore\n      swap1\n      0x00\n      mstore\n      keccak256(0x00, 0x20)\n      swap1\n      dup2\n      add\n      swap1\n      tag_179\n      swap2\n      swap1\n      tag_180\n      jump\t// in\n    tag_179:\n      pop\n      jump\t// out\n    tag_99:\n      pop\n      dup1\n      sload\n      0x00\n      dup3\n      sstore\n      swap1\n      0x00\n      mstore\n      keccak256(0x00, 0x20)\n      swap1\n      dup2\n      add\n      swap1\n      tag_182\n      swap2\n      swap1\n      tag_177\n      jump\t// in\n    tag_182:\n      pop\n      jump\t// out\n    tag_146:\n      dup3\n      dup1\n      sload\n      dup3\n      dup3\n      sstore\n      swap1\n      0x00\n      mstore\n      keccak256(0x00, 0x20)\n      swap1\n      dup2\n      add\n      swap3\n      dup3\n      iszero\n      tag_183\n      jumpi\n      swap2\n      0x20\n      mul\n      dup3\n      add\n    tag_184:\n      dup3\n      dup2\n      gt\n      iszero\n      tag_185\n      jumpi\n      dup3\n      mload\n      dup3\n      swap1\n      dup2\n      tag_186\n      swap2\n      swap1\n      tag_144\n      jump\t// in\n    tag_186:\n      pop\n      swap2\n      0x20\n      add\n      swap2\n      swap1\n      0x01\n      add\n      swap1\n      jump(tag_184)\n    tag_185:\n    tag_183:\n      pop\n      swap1\n      pop\n      tag_187\n      swap2\n      swap1\n      tag_180\n      jump\t// in\n    tag_187:\n      pop\n      swap1\n      jump\t// out\n    tag_148:\n      dup3\n      dup1\n      sload\n      dup3\n      dup3\n      sstore\n      swap1\n      0x00\n      mstore\n      keccak256(0x00, 0x20)\n      swap1\n      dup2\n      add\n      swap3\n      dup3\n      iszero\n      tag_188\n      jumpi\n      swap2\n      0x20\n      mul\n      dup3\n      add\n    tag_189:\n      dup3\n      dup2\n      gt\n      iszero\n      tag_190\n      jumpi\n      dup3\n      mload\n      dup3\n      sstore\n      swap2\n      0x20\n      add\n      swap2\n      swap1\n      0x01\n      add\n      swap1\n      jump(tag_189)\n    tag_190:\n    tag_188:\n      pop\n      swap1\n      pop\n      tag_191\n      swap2\n      swap1\n      tag_177\n      jump\t// in\n    tag_191:\n      pop\n      swap1\n      jump\t// out\n    tag_177:\n    tag_192:\n      dup1\n      dup3\n      gt\n      iszero\n      tag_193\n      jumpi\n      0x00\n      dup2\n      0x00\n      swap1\n      sstore\n      pop\n      0x01\n      add\n      jump(tag_192)\n    tag_193:\n      pop\n      swap1\n      jump\t// out\n    tag_180:\n    tag_194:\n      dup1\n      dup3\n      gt\n      iszero\n      tag_195\n      jumpi\n      0x00\n      dup2\n      dup2\n      tag_196\n      swap2\n      swap1\n      tag_95\n      jump\t// in\n    tag_196:\n      pop\n      0x01\n      add\n      jump(tag_194)\n    tag_195:\n      pop\n      swap1\n      jump\t// out\n        /* \"#utility.yul\":88:205   */\n    tag_198:\n        /* \"#utility.yul\":197:198   */\n      0x00\n        /* \"#utility.yul\":194:195   */\n      dup1\n        /* \"#utility.yul\":187:199   */\n      revert\n        /* \"#utility.yul\":211:328   */\n    tag_199:\n        /* \"#utility.yul\":320:321   */\n      0x00\n        /* \"#utility.yul\":317:318   */\n      dup1\n        /* \"#utility.yul\":310:322   */\n      revert\n        /* \"#utility.yul\":334:411   */\n    tag_200:\n        /* \"#utility.yul\":371:378   */\n      0x00\n        /* \"#utility.yul\":400:405   */\n      dup2\n        /* \"#utility.yul\":389:405   */\n      swap1\n      pop\n        /* \"#utility.yul\":334:411   */\n      swap2\n      swap1\n      pop\n      jump\t// out\n        /* \"#utility.yul\":417:539   */\n    tag_201:\n        /* \"#utility.yul\":490:514   */\n      tag_286\n        /* \"#utility.yul\":508:513   */\n      dup2\n        /* \"#utility.yul\":490:514   */\n      tag_200\n      jump\t// in\n    tag_286:\n        /* \"#utility.yul\":483:488   */\n      dup2\n        /* \"#utility.yul\":480:515   */\n      eq\n        /* \"#utility.yul\":470:533   */\n      tag_287\n      jumpi\n        /* \"#utility.yul\":529:530   */\n      0x00\n        /* \"#utility.yul\":526:527   */\n      dup1\n        /* \"#utility.yul\":519:531   */\n      revert\n        /* \"#utility.yul\":470:533   */\n    tag_287:\n        /* \"#utility.yul\":417:539   */\n      pop\n      jump\t// out\n        /* \"#utility.yul\":545:684   */\n    tag_202:\n        /* \"#utility.yul\":591:596   */\n      0x00\n        /* \"#utility.yul\":629:635   */\n      dup2\n        /* \"#utility.yul\":616:636   */\n      calldataload\n        /* \"#utility.yul\":607:636   */\n      swap1\n      pop\n        /* \"#utility.yul\":645:678   */\n      tag_289\n        /* \"#utility.yul\":672:677   */\n      dup2\n        /* \"#utility.yul\":645:678   */\n      tag_201\n      jump\t// in\n    tag_289:\n        /* \"#utility.yul\":545:684   */\n      swap3\n      swap2\n      pop\n      pop\n      jump\t// out\n        /* \"#utility.yul\":690:807   */\n    tag_203:\n        /* \"#utility.yul\":799:800   */\n      0x00\n        /* \"#utility.yul\":796:797   */\n      dup1\n        /* \"#utility.yul\":789:801   */\n      revert\n        /* \"#utility.yul\":813:930   */\n    tag_204:\n        /* \"#utility.yul\":922:923   */\n      0x00\n        /* \"#utility.yul\":919:920   */\n      dup1\n        /* \"#utility.yul\":912:924   */\n      revert\n        /* \"#utility.yul\":936:1053   */\n    tag_205:\n        /* \"#utility.yul\":1045:1046   */\n      0x00\n        /* \"#utility.yul\":1042:1043   */\n      dup1\n        /* \"#utility.yul\":1035:1047   */\n      revert\n        /* \"#utility.yul\":1073:1626   */\n    tag_206:\n        /* \"#utility.yul\":1131:1139   */\n      0x00\n        /* \"#utility.yul\":1141:1147   */\n      dup1\n        /* \"#utility.yul\":1191:1194   */\n      dup4\n        /* \"#utility.yul\":1184:1188   */\n      0x1f\n        /* \"#utility.yul\":1176:1182   */\n      dup5\n        /* \"#utility.yul\":1172:1189   */\n      add\n        /* \"#utility.yul\":1168:1195   */\n      slt\n        /* \"#utility.yul\":1158:1280   */\n      tag_294\n      jumpi\n        /* \"#utility.yul\":1199:1278   */\n      tag_295\n      tag_203\n      jump\t// in\n    tag_295:\n        /* \"#utility.yul\":1158:1280   */\n    tag_294:\n        /* \"#utility.yul\":1312:1318   */\n      dup3\n        /* \"#utility.yul\":1299:1319   */\n      calldataload\n        /* \"#utility.yul\":1289:1319   */\n      swap1\n      pop\n        /* \"#utility.yul\":1342:1360   */\n      0xffffffffffffffff\n        /* \"#utility.yul\":1334:1340   */\n      dup2\n        /* \"#utility.yul\":1331:1361   */\n      gt\n        /* \"#utility.yul\":1328:1445   */\n      iszero\n      tag_296\n      jumpi\n        /* \"#utility.yul\":1364:1443   */\n      tag_297\n      tag_204\n      jump\t// in\n    tag_297:\n        /* \"#utility.yul\":1328:1445   */\n    tag_296:\n        /* \"#utility.yul\":1478:1482   */\n      0x20\n        /* \"#utility.yul\":1470:1476   */\n      dup4\n        /* \"#utility.yul\":1466:1483   */\n      add\n        /* \"#utility.yul\":1454:1483   */\n      swap2\n      pop\n        /* \"#utility.yul\":1532:1535   */\n      dup4\n        /* \"#utility.yul\":1524:1528   */\n      0x01\n        /* \"#utility.yul\":1516:1522   */\n      dup3\n        /* \"#utility.yul\":1512:1529   */\n      mul\n        /* \"#utility.yul\":1502:1510   */\n      dup4\n        /* \"#utility.yul\":1498:1530   */\n      add\n        /* \"#utility.yul\":1495:1536   */\n      gt\n        /* \"#utility.yul\":1492:1620   */\n      iszero\n      tag_298\n      jumpi\n        /* \"#utility.yul\":1539:1618   */\n      tag_299\n      tag_205\n      jump\t// in\n    tag_299:\n        /* \"#utility.yul\":1492:1620   */\n    tag_298:\n        /* \"#utility.yul\":1073:1626   */\n      swap3\n      pop\n      swap3\n      swap1\n      pop\n      jump\t// out\n        /* \"#utility.yul\":1632:2451   */\n    tag_12:\n        /* \"#utility.yul\":1721:1727   */\n      0x00\n        /* \"#utility.yul\":1729:1735   */\n      dup1\n        /* \"#utility.yul\":1737:1743   */\n      0x00\n        /* \"#utility.yul\":1745:1751   */\n      dup1\n        /* \"#utility.yul\":1794:1796   */\n      0x60\n        /* \"#utility.yul\":1782:1791   */\n      dup6\n        /* \"#utility.yul\":1773:1780   */\n      dup8\n        /* \"#utility.yul\":1769:1792   */\n      sub\n        /* \"#utility.yul\":1765:1797   */\n      slt\n        /* \"#utility.yul\":1762:1881   */\n      iszero\n      tag_301\n      jumpi\n        /* \"#utility.yul\":1800:1879   */\n      tag_302\n      tag_198\n      jump\t// in\n    tag_302:\n        /* \"#utility.yul\":1762:1881   */\n    tag_301:\n        /* \"#utility.yul\":1920:1921   */\n      0x00\n        /* \"#utility.yul\":1945:1998   */\n      tag_303\n        /* \"#utility.yul\":1990:1997   */\n      dup8\n        /* \"#utility.yul\":1981:1987   */\n      dup3\n        /* \"#utility.yul\":1970:1979   */\n      dup9\n        /* \"#utility.yul\":1966:1988   */\n      add\n        /* \"#utility.yul\":1945:1998   */\n      tag_202\n      jump\t// in\n    tag_303:\n        /* \"#utility.yul\":1935:1998   */\n      swap5\n      pop\n        /* \"#utility.yul\":1891:2008   */\n      pop\n        /* \"#utility.yul\":2075:2077   */\n      0x20\n        /* \"#utility.yul\":2064:2073   */\n      dup6\n        /* \"#utility.yul\":2060:2078   */\n      add\n        /* \"#utility.yul\":2047:2079   */\n      calldataload\n        /* \"#utility.yul\":2106:2124   */\n      0xffffffffffffffff\n        /* \"#utility.yul\":2098:2104   */\n      dup2\n        /* \"#utility.yul\":2095:2125   */\n      gt\n        /* \"#utility.yul\":2092:2209   */\n      iszero\n      tag_304\n      jumpi\n        /* \"#utility.yul\":2128:2207   */\n      tag_305\n      tag_199\n      jump\t// in\n    tag_305:\n        /* \"#utility.yul\":2092:2209   */\n    tag_304:\n        /* \"#utility.yul\":2241:2306   */\n      tag_306\n        /* \"#utility.yul\":2298:2305   */\n      dup8\n        /* \"#utility.yul\":2289:2295   */\n      dup3\n        /* \"#utility.yul\":2278:2287   */\n      dup9\n        /* \"#utility.yul\":2274:2296   */\n      add\n        /* \"#utility.yul\":2241:2306   */\n      tag_206\n      jump\t// in\n    tag_306:\n        /* \"#utility.yul\":2223:2306   */\n      swap4\n      pop\n      swap4\n      pop\n        /* \"#utility.yul\":2018:2316   */\n      pop\n        /* \"#utility.yul\":2355:2357   */\n      0x40\n        /* \"#utility.yul\":2381:2434   */\n      tag_307\n        /* \"#utility.yul\":2426:2433   */\n      dup8\n        /* \"#utility.yul\":2417:2423   */\n      dup3\n        /* \"#utility.yul\":2406:2415   */\n      dup9\n        /* \"#utility.yul\":2402:2424   */\n      add\n        /* \"#utility.yul\":2381:2434   */\n      tag_202\n      jump\t// in\n    tag_307:\n        /* \"#utility.yul\":2371:2434   */\n      swap2\n      pop\n        /* \"#utility.yul\":2326:2444   */\n      pop\n        /* \"#utility.yul\":1632:2451   */\n      swap3\n      swap6\n      swap2\n      swap5\n      pop\n      swap3\n      pop\n      jump\t// out\n        /* \"#utility.yul\":2457:2786   */\n    tag_17:\n        /* \"#utility.yul\":2516:2522   */\n      0x00\n        /* \"#utility.yul\":2565:2567   */\n      0x20\n        /* \"#utility.yul\":2553:2562   */\n      dup3\n        /* \"#utility.yul\":2544:2551   */\n      dup5\n        /* \"#utility.yul\":2540:2563   */\n      sub\n        /* \"#utility.yul\":2536:2568   */\n      slt\n        /* \"#utility.yul\":2533:2652   */\n      iszero\n      tag_309\n      jumpi\n        /* \"#utility.yul\":2571:2650   */\n      tag_310\n      tag_198\n      jump\t// in\n    tag_310:\n        /* \"#utility.yul\":2533:2652   */\n    tag_309:\n        /* \"#utility.yul\":2691:2692   */\n      0x00\n        /* \"#utility.yul\":2716:2769   */\n      tag_311\n        /* \"#utility.yul\":2761:2768   */\n      dup5\n        /* \"#utility.yul\":2752:2758   */\n      dup3\n        /* \"#utility.yul\":2741:2750   */\n      dup6\n        /* \"#utility.yul\":2737:2759   */\n      add\n        /* \"#utility.yul\":2716:2769   */\n      tag_202\n      jump\t// in\n    tag_311:\n        /* \"#utility.yul\":2706:2769   */\n      swap2\n      pop\n        /* \"#utility.yul\":2662:2779   */\n      pop\n        /* \"#utility.yul\":2457:2786   */\n      swap3\n      swap2\n      pop\n      pop\n      jump\t// out\n        /* \"#utility.yul\":2792:2891   */\n    tag_207:\n        /* \"#utility.yul\":2844:2850   */\n      0x00\n        /* \"#utility.yul\":2878:2883   */\n      dup2\n        /* \"#utility.yul\":2872:2884   */\n      mload\n        /* \"#utility.yul\":2862:2884   */\n      swap1\n      pop\n        /* \"#utility.yul\":2792:2891   */\n      swap2\n      swap1\n      pop\n      jump\t// out\n        /* \"#utility.yul\":2897:3066   */\n    tag_208:\n        /* \"#utility.yul\":2981:2992   */\n      0x00\n        /* \"#utility.yul\":3015:3021   */\n      dup3\n        /* \"#utility.yul\":3010:3013   */\n      dup3\n        /* \"#utility.yul\":3003:3022   */\n      mstore\n        /* \"#utility.yul\":3055:3059   */\n      0x20\n        /* \"#utility.yul\":3050:3053   */\n      dup3\n        /* \"#utility.yul\":3046:3060   */\n      add\n        /* \"#utility.yul\":3031:3060   */\n      swap1\n      pop\n        /* \"#utility.yul\":2897:3066   */\n      swap3\n      swap2\n      pop\n      pop\n      jump\t// out\n        /* \"#utility.yul\":3072:3211   */\n    tag_209:\n        /* \"#utility.yul\":3161:3167   */\n      dup3\n        /* \"#utility.yul\":3156:3159   */\n      dup2\n        /* \"#utility.yul\":3151:3154   */\n      dup4\n        /* \"#utility.yul\":3145:3168   */\n      mcopy\n        /* \"#utility.yul\":3202:3203   */\n      0x00\n        /* \"#utility.yul\":3193:3199   */\n      dup4\n        /* \"#utility.yul\":3188:3191   */\n      dup4\n        /* \"#utility.yul\":3184:3200   */\n      add\n        /* \"#utility.yul\":3177:3204   */\n      mstore\n        /* \"#utility.yul\":3072:3211   */\n      pop\n      pop\n      pop\n      jump\t// out\n        /* \"#utility.yul\":3217:3319   */\n    tag_210:\n        /* \"#utility.yul\":3258:3264   */\n      0x00\n        /* \"#utility.yul\":3309:3311   */\n      0x1f\n        /* \"#utility.yul\":3305:3312   */\n      not\n        /* \"#utility.yul\":3300:3302   */\n      0x1f\n        /* \"#utility.yul\":3293:3298   */\n      dup4\n        /* \"#utility.yul\":3289:3303   */\n      add\n        /* \"#utility.yul\":3285:3313   */\n      and\n        /* \"#utility.yul\":3275:3313   */\n      swap1\n      pop\n        /* \"#utility.yul\":3217:3319   */\n      swap2\n      swap1\n      pop\n      jump\t// out\n        /* \"#utility.yul\":3325:3702   */\n    tag_211:\n        /* \"#utility.yul\":3413:3416   */\n      0x00\n        /* \"#utility.yul\":3441:3480   */\n      tag_317\n        /* \"#utility.yul\":3474:3479   */\n      dup3\n        /* \"#utility.yul\":3441:3480   */\n      tag_207\n      jump\t// in\n    tag_317:\n        /* \"#utility.yul\":3496:3567   */\n      tag_318\n        /* \"#utility.yul\":3560:3566   */\n      dup2\n        /* \"#utility.yul\":3555:3558   */\n      dup6\n        /* \"#utility.yul\":3496:3567   */\n      tag_208\n      jump\t// in\n    tag_318:\n        /* \"#utility.yul\":3489:3567   */\n      swap4\n      pop\n        /* \"#utility.yul\":3576:3641   */\n      tag_319\n        /* \"#utility.yul\":3634:3640   */\n      dup2\n        /* \"#utility.yul\":3629:3632   */\n      dup6\n        /* \"#utility.yul\":3622:3626   */\n      0x20\n        /* \"#utility.yul\":3615:3620   */\n      dup7\n        /* \"#utility.yul\":3611:3627   */\n      add\n        /* \"#utility.yul\":3576:3641   */\n      tag_209\n      jump\t// in\n    tag_319:\n        /* \"#utility.yul\":3666:3695   */\n      tag_320\n        /* \"#utility.yul\":3688:3694   */\n      dup2\n        /* \"#utility.yul\":3666:3695   */\n      tag_210\n      jump\t// in\n    tag_320:\n        /* \"#utility.yul\":3661:3664   */\n      dup5\n        /* \"#utility.yul\":3657:3696   */\n      add\n        /* \"#utility.yul\":3650:3696   */\n      swap2\n      pop\n        /* \"#utility.yul\":3417:3702   */\n      pop\n        /* \"#utility.yul\":3325:3702   */\n      swap3\n      swap2\n      pop\n      pop\n      jump\t// out\n        /* \"#utility.yul\":3708:3832   */\n    tag_212:\n        /* \"#utility.yul\":3785:3791   */\n      0x00\n        /* \"#utility.yul\":3819:3824   */\n      dup2\n        /* \"#utility.yul\":3813:3825   */\n      mload\n        /* \"#utility.yul\":3803:3825   */\n      swap1\n      pop\n        /* \"#utility.yul\":3708:3832   */\n      swap2\n      swap1\n      pop\n      jump\t// out\n        /* \"#utility.yul\":3838:4022   */\n    tag_213:\n        /* \"#utility.yul\":3937:3948   */\n      0x00\n        /* \"#utility.yul\":3971:3977   */\n      dup3\n        /* \"#utility.yul\":3966:3969   */\n      dup3\n        /* \"#utility.yul\":3959:3978   */\n      mstore\n        /* \"#utility.yul\":4011:4015   */\n      0x20\n        /* \"#utility.yul\":4006:4009   */\n      dup3\n        /* \"#utility.yul\":4002:4016   */\n      add\n        /* \"#utility.yul\":3987:4016   */\n      swap1\n      pop\n        /* \"#utility.yul\":3838:4022   */\n      swap3\n      swap2\n      pop\n      pop\n      jump\t// out\n        /* \"#utility.yul\":4028:4170   */\n    tag_214:\n        /* \"#utility.yul\":4105:4109   */\n      0x00\n        /* \"#utility.yul\":4128:4131   */\n      dup2\n        /* \"#utility.yul\":4120:4131   */\n      swap1\n      pop\n        /* \"#utility.yul\":4158:4162   */\n      0x20\n        /* \"#utility.yul\":4153:4156   */\n      dup3\n        /* \"#utility.yul\":4149:4163   */\n      add\n        /* \"#utility.yul\":4141:4163   */\n      swap1\n      pop\n        /* \"#utility.yul\":4028:4170   */\n      swap2\n      swap1\n      pop\n      jump\t// out\n        /* \"#utility.yul\":4176:4335   */\n    tag_215:\n        /* \"#utility.yul\":4250:4261   */\n      0x00\n        /* \"#utility.yul\":4284:4290   */\n      dup3\n        /* \"#utility.yul\":4279:4282   */\n      dup3\n        /* \"#utility.yul\":4272:4291   */\n      mstore\n        /* \"#utility.yul\":4324:4328   */\n      0x20\n        /* \"#utility.yul\":4319:4322   */\n      dup3\n        /* \"#utility.yul\":4315:4329   */\n      add\n        /* \"#utility.yul\":4300:4329   */\n      swap1\n      pop\n        /* \"#utility.yul\":4176:4335   */\n      swap3\n      swap2\n      pop\n      pop\n      jump\t// out\n        /* \"#utility.yul\":4341:4698   */\n    tag_216:\n        /* \"#utility.yul\":4419:4422   */\n      0x00\n        /* \"#utility.yul\":4447:4486   */\n      tag_326\n        /* \"#utility.yul\":4480:4485   */\n      dup3\n        /* \"#utility.yul\":4447:4486   */\n      tag_207\n      jump\t// in\n    tag_326:\n        /* \"#utility.yul\":4502:4563   */\n      tag_327\n        /* \"#utility.yul\":4556:4562   */\n      dup2\n        /* \"#utility.yul\":4551:4554   */\n      dup6\n        /* \"#utility.yul\":4502:4563   */\n      tag_215\n      jump\t// in\n    tag_327:\n        /* \"#utility.yul\":4495:4563   */\n      swap4\n      pop\n        /* \"#utility.yul\":4572:4637   */\n      tag_328\n        /* \"#utility.yul\":4630:4636   */\n      dup2\n        /* \"#utility.yul\":4625:4628   */\n      dup6\n        /* \"#utility.yul\":4618:4622   */\n      0x20\n        /* \"#utility.yul\":4611:4616   */\n      dup7\n        /* \"#utility.yul\":4607:4623   */\n      add\n        /* \"#utility.yul\":4572:4637   */\n      tag_209\n      jump\t// in\n    tag_328:\n        /* \"#utility.yul\":4662:4691   */\n      tag_329\n        /* \"#utility.yul\":4684:4690   */\n      dup2\n        /* \"#utility.yul\":4662:4691   */\n      tag_210\n      jump\t// in\n    tag_329:\n        /* \"#utility.yul\":4657:4660   */\n      dup5\n        /* \"#utility.yul\":4653:4692   */\n      add\n        /* \"#utility.yul\":4646:4692   */\n      swap2\n      pop\n        /* \"#utility.yul\":4423:4698   */\n      pop\n        /* \"#utility.yul\":4341:4698   */\n      swap3\n      swap2\n      pop\n      pop\n      jump\t// out\n        /* \"#utility.yul\":4704:4900   */\n    tag_217:\n        /* \"#utility.yul\":4793:4803   */\n      0x00\n        /* \"#utility.yul\":4828:4894   */\n      tag_331\n        /* \"#utility.yul\":4890:4893   */\n      dup4\n        /* \"#utility.yul\":4882:4888   */\n      dup4\n        /* \"#utility.yul\":4828:4894   */\n      tag_216\n      jump\t// in\n    tag_331:\n        /* \"#utility.yul\":4814:4894   */\n      swap1\n      pop\n        /* \"#utility.yul\":4704:4900   */\n      swap3\n      swap2\n      pop\n      pop\n      jump\t// out\n        /* \"#utility.yul\":4906:5029   */\n    tag_218:\n        /* \"#utility.yul\":4986:4990   */\n      0x00\n        /* \"#utility.yul\":5018:5022   */\n      0x20\n        /* \"#utility.yul\":5013:5016   */\n      dup3\n        /* \"#utility.yul\":5009:5023   */\n      add\n        /* \"#utility.yul\":5001:5023   */\n      swap1\n      pop\n        /* \"#utility.yul\":4906:5029   */\n      swap2\n      swap1\n      pop\n      jump\t// out\n        /* \"#utility.yul\":5063:6034   */\n    tag_219:\n        /* \"#utility.yul\":5192:5195   */\n      0x00\n        /* \"#utility.yul\":5221:5285   */\n      tag_334\n        /* \"#utility.yul\":5279:5284   */\n      dup3\n        /* \"#utility.yul\":5221:5285   */\n      tag_212\n      jump\t// in\n    tag_334:\n        /* \"#utility.yul\":5301:5387   */\n      tag_335\n        /* \"#utility.yul\":5380:5386   */\n      dup2\n        /* \"#utility.yul\":5375:5378   */\n      dup6\n        /* \"#utility.yul\":5301:5387   */\n      tag_213\n      jump\t// in\n    tag_335:\n        /* \"#utility.yul\":5294:5387   */\n      swap4\n      pop\n        /* \"#utility.yul\":5413:5416   */\n      dup4\n        /* \"#utility.yul\":5458:5462   */\n      0x20\n        /* \"#utility.yul\":5450:5456   */\n      dup3\n        /* \"#utility.yul\":5446:5463   */\n      mul\n        /* \"#utility.yul\":5441:5444   */\n      dup6\n        /* \"#utility.yul\":5437:5464   */\n      add\n        /* \"#utility.yul\":5488:5554   */\n      tag_336\n        /* \"#utility.yul\":5548:5553   */\n      dup6\n        /* \"#utility.yul\":5488:5554   */\n      tag_214\n      jump\t// in\n    tag_336:\n        /* \"#utility.yul\":5577:5584   */\n      dup1\n        /* \"#utility.yul\":5608:5609   */\n      0x00\n        /* \"#utility.yul\":5593:5989   */\n    tag_337:\n        /* \"#utility.yul\":5618:5624   */\n      dup6\n        /* \"#utility.yul\":5615:5616   */\n      dup2\n        /* \"#utility.yul\":5612:5625   */\n      lt\n        /* \"#utility.yul\":5593:5989   */\n      iszero\n      tag_339\n      jumpi\n        /* \"#utility.yul\":5689:5698   */\n      dup5\n        /* \"#utility.yul\":5683:5687   */\n      dup5\n        /* \"#utility.yul\":5679:5699   */\n      sub\n        /* \"#utility.yul\":5674:5677   */\n      dup10\n        /* \"#utility.yul\":5667:5700   */\n      mstore\n        /* \"#utility.yul\":5740:5746   */\n      dup2\n        /* \"#utility.yul\":5734:5747   */\n      mload\n        /* \"#utility.yul\":5768:5852   */\n      tag_340\n        /* \"#utility.yul\":5847:5851   */\n      dup6\n        /* \"#utility.yul\":5832:5845   */\n      dup3\n        /* \"#utility.yul\":5768:5852   */\n      tag_217\n      jump\t// in\n    tag_340:\n        /* \"#utility.yul\":5760:5852   */\n      swap5\n      pop\n        /* \"#utility.yul\":5875:5945   */\n      tag_341\n        /* \"#utility.yul\":5938:5944   */\n      dup4\n        /* \"#utility.yul\":5875:5945   */\n      tag_218\n      jump\t// in\n    tag_341:\n        /* \"#utility.yul\":5865:5945   */\n      swap3\n      pop\n        /* \"#utility.yul\":5974:5978   */\n      0x20\n        /* \"#utility.yul\":5969:5972   */\n      dup11\n        /* \"#utility.yul\":5965:5979   */\n      add\n        /* \"#utility.yul\":5958:5979   */\n      swap10\n      pop\n        /* \"#utility.yul\":5653:5989   */\n      pop\n        /* \"#utility.yul\":5640:5641   */\n      0x01\n        /* \"#utility.yul\":5637:5638   */\n      dup2\n        /* \"#utility.yul\":5633:5642   */\n      add\n        /* \"#utility.yul\":5628:5642   */\n      swap1\n      pop\n        /* \"#utility.yul\":5593:5989   */\n      jump(tag_337)\n    tag_339:\n        /* \"#utility.yul\":5597:5611   */\n      pop\n        /* \"#utility.yul\":6005:6009   */\n      dup3\n        /* \"#utility.yul\":5998:6009   */\n      swap8\n      pop\n        /* \"#utility.yul\":6025:6028   */\n      dup8\n        /* \"#utility.yul\":6018:6028   */\n      swap6\n      pop\n        /* \"#utility.yul\":5197:6034   */\n      pop\n      pop\n      pop\n      pop\n      pop\n        /* \"#utility.yul\":5063:6034   */\n      swap3\n      swap2\n      pop\n      pop\n      jump\t// out\n        /* \"#utility.yul\":6040:6154   */\n    tag_220:\n        /* \"#utility.yul\":6107:6113   */\n      0x00\n        /* \"#utility.yul\":6141:6146   */\n      dup2\n        /* \"#utility.yul\":6135:6147   */\n      mload\n        /* \"#utility.yul\":6125:6147   */\n      swap1\n      pop\n        /* \"#utility.yul\":6040:6154   */\n      swap2\n      swap1\n      pop\n      jump\t// out\n        /* \"#utility.yul\":6160:6334   */\n    tag_221:\n        /* \"#utility.yul\":6249:6260   */\n      0x00\n        /* \"#utility.yul\":6283:6289   */\n      dup3\n        /* \"#utility.yul\":6278:6281   */\n      dup3\n        /* \"#utility.yul\":6271:6290   */\n      mstore\n        /* \"#utility.yul\":6323:6327   */\n      0x20\n        /* \"#utility.yul\":6318:6321   */\n      dup3\n        /* \"#utility.yul\":6314:6328   */\n      add\n        /* \"#utility.yul\":6299:6328   */\n      swap1\n      pop\n        /* \"#utility.yul\":6160:6334   */\n      swap3\n      swap2\n      pop\n      pop\n      jump\t// out\n        /* \"#utility.yul\":6340:6472   */\n    tag_222:\n        /* \"#utility.yul\":6407:6411   */\n      0x00\n        /* \"#utility.yul\":6430:6433   */\n      dup2\n        /* \"#utility.yul\":6422:6433   */\n      swap1\n      pop\n        /* \"#utility.yul\":6460:6464   */\n      0x20\n        /* \"#utility.yul\":6455:6458   */\n      dup3\n        /* \"#utility.yul\":6451:6465   */\n      add\n        /* \"#utility.yul\":6443:6465   */\n      swap1\n      pop\n        /* \"#utility.yul\":6340:6472   */\n      swap2\n      swap1\n      pop\n      jump\t// out\n        /* \"#utility.yul\":6478:6586   */\n    tag_223:\n        /* \"#utility.yul\":6555:6579   */\n      tag_346\n        /* \"#utility.yul\":6573:6578   */\n      dup2\n        /* \"#utility.yul\":6555:6579   */\n      tag_200\n      jump\t// in\n    tag_346:\n        /* \"#utility.yul\":6550:6553   */\n      dup3\n        /* \"#utility.yul\":6543:6580   */\n      mstore\n        /* \"#utility.yul\":6478:6586   */\n      pop\n      pop\n      jump\t// out\n        /* \"#utility.yul\":6592:6771   */\n    tag_224:\n        /* \"#utility.yul\":6661:6671   */\n      0x00\n        /* \"#utility.yul\":6682:6728   */\n      tag_348\n        /* \"#utility.yul\":6724:6727   */\n      dup4\n        /* \"#utility.yul\":6716:6722   */\n      dup4\n        /* \"#utility.yul\":6682:6728   */\n      tag_223\n      jump\t// in\n    tag_348:\n        /* \"#utility.yul\":6760:6764   */\n      0x20\n        /* \"#utility.yul\":6755:6758   */\n      dup4\n        /* \"#utility.yul\":6751:6765   */\n      add\n        /* \"#utility.yul\":6737:6765   */\n      swap1\n      pop\n        /* \"#utility.yul\":6592:6771   */\n      swap3\n      swap2\n      pop\n      pop\n      jump\t// out\n        /* \"#utility.yul\":6777:6890   */\n    tag_225:\n        /* \"#utility.yul\":6847:6851   */\n      0x00\n        /* \"#utility.yul\":6879:6883   */\n      0x20\n        /* \"#utility.yul\":6874:6877   */\n      dup3\n        /* \"#utility.yul\":6870:6884   */\n      add\n        /* \"#utility.yul\":6862:6884   */\n      swap1\n      pop\n        /* \"#utility.yul\":6777:6890   */\n      swap2\n      swap1\n      pop\n      jump\t// out\n        /* \"#utility.yul\":6926:7638   */\n    tag_226:\n        /* \"#utility.yul\":7035:7038   */\n      0x00\n        /* \"#utility.yul\":7064:7118   */\n      tag_351\n        /* \"#utility.yul\":7112:7117   */\n      dup3\n        /* \"#utility.yul\":7064:7118   */\n      tag_220\n      jump\t// in\n    tag_351:\n        /* \"#utility.yul\":7134:7210   */\n      tag_352\n        /* \"#utility.yul\":7203:7209   */\n      dup2\n        /* \"#utility.yul\":7198:7201   */\n      dup6\n        /* \"#utility.yul\":7134:7210   */\n      tag_221\n      jump\t// in\n    tag_352:\n        /* \"#utility.yul\":7127:7210   */\n      swap4\n      pop\n        /* \"#utility.yul\":7234:7290   */\n      tag_353\n        /* \"#utility.yul\":7284:7289   */\n      dup4\n        /* \"#utility.yul\":7234:7290   */\n      tag_222\n      jump\t// in\n    tag_353:\n        /* \"#utility.yul\":7313:7320   */\n      dup1\n        /* \"#utility.yul\":7344:7345   */\n      0x00\n        /* \"#utility.yul\":7329:7613   */\n    tag_354:\n        /* \"#utility.yul\":7354:7360   */\n      dup4\n        /* \"#utility.yul\":7351:7352   */\n      dup2\n        /* \"#utility.yul\":7348:7361   */\n      lt\n        /* \"#utility.yul\":7329:7613   */\n      iszero\n      tag_356\n      jumpi\n        /* \"#utility.yul\":7430:7436   */\n      dup2\n        /* \"#utility.yul\":7424:7437   */\n      mload\n        /* \"#utility.yul\":7457:7520   */\n      tag_357\n        /* \"#utility.yul\":7516:7519   */\n      dup9\n        /* \"#utility.yul\":7501:7514   */\n      dup3\n        /* \"#utility.yul\":7457:7520   */\n      tag_224\n      jump\t// in\n    tag_357:\n        /* \"#utility.yul\":7450:7520   */\n      swap8\n      pop\n        /* \"#utility.yul\":7543:7603   */\n      tag_358\n        /* \"#utility.yul\":7596:7602   */\n      dup4\n        /* \"#utility.yul\":7543:7603   */\n      tag_225\n      jump\t// in\n    tag_358:\n        /* \"#utility.yul\":7533:7603   */\n      swap3\n      pop\n        /* \"#utility.yul\":7389:7613   */\n      pop\n        /* \"#utility.yul\":7376:7377   */\n      0x01\n        /* \"#utility.yul\":7373:7374   */\n      dup2\n        /* \"#utility.yul\":7369:7378   */\n      add\n        /* \"#utility.yul\":7364:7378   */\n      swap1\n      pop\n        /* \"#utility.yul\":7329:7613   */\n      jump(tag_354)\n    tag_356:\n        /* \"#utility.yul\":7333:7347   */\n      pop\n        /* \"#utility.yul\":7629:7632   */\n      dup6\n        /* \"#utility.yul\":7622:7632   */\n      swap4\n      pop\n        /* \"#utility.yul\":7040:7638   */\n      pop\n      pop\n      pop\n        /* \"#utility.yul\":6926:7638   */\n      swap3\n      swap2\n      pop\n      pop\n      jump\t// out\n        /* \"#utility.yul\":7712:8474   */\n    tag_227:\n        /* \"#utility.yul\":7829:7832   */\n      0x00\n        /* \"#utility.yul\":7865:7869   */\n      0x40\n        /* \"#utility.yul\":7860:7863   */\n      dup4\n        /* \"#utility.yul\":7856:7870   */\n      add\n        /* \"#utility.yul\":7953:7957   */\n      0x00\n        /* \"#utility.yul\":7946:7951   */\n      dup4\n        /* \"#utility.yul\":7942:7958   */\n      add\n        /* \"#utility.yul\":7936:7959   */\n      mload\n        /* \"#utility.yul\":8006:8009   */\n      dup5\n        /* \"#utility.yul\":8000:8004   */\n      dup3\n        /* \"#utility.yul\":7996:8010   */\n      sub\n        /* \"#utility.yul\":7989:7993   */\n      0x00\n        /* \"#utility.yul\":7984:7987   */\n      dup7\n        /* \"#utility.yul\":7980:7994   */\n      add\n        /* \"#utility.yul\":7973:8011   */\n      mstore\n        /* \"#utility.yul\":8032:8155   */\n      tag_360\n        /* \"#utility.yul\":8150:8154   */\n      dup3\n        /* \"#utility.yul\":8136:8148   */\n      dup3\n        /* \"#utility.yul\":8032:8155   */\n      tag_219\n      jump\t// in\n    tag_360:\n        /* \"#utility.yul\":8024:8155   */\n      swap2\n      pop\n        /* \"#utility.yul\":7880:8166   */\n      pop\n        /* \"#utility.yul\":8254:8258   */\n      0x20\n        /* \"#utility.yul\":8247:8252   */\n      dup4\n        /* \"#utility.yul\":8243:8259   */\n      add\n        /* \"#utility.yul\":8237:8260   */\n      mload\n        /* \"#utility.yul\":8307:8310   */\n      dup5\n        /* \"#utility.yul\":8301:8305   */\n      dup3\n        /* \"#utility.yul\":8297:8311   */\n      sub\n        /* \"#utility.yul\":8290:8294   */\n      0x20\n        /* \"#utility.yul\":8285:8288   */\n      dup7\n        /* \"#utility.yul\":8281:8295   */\n      add\n        /* \"#utility.yul\":8274:8312   */\n      mstore\n        /* \"#utility.yul\":8333:8436   */\n      tag_361\n        /* \"#utility.yul\":8431:8435   */\n      dup3\n        /* \"#utility.yul\":8417:8429   */\n      dup3\n        /* \"#utility.yul\":8333:8436   */\n      tag_226\n      jump\t// in\n    tag_361:\n        /* \"#utility.yul\":8325:8436   */\n      swap2\n      pop\n        /* \"#utility.yul\":8176:8447   */\n      pop\n        /* \"#utility.yul\":8464:8468   */\n      dup1\n        /* \"#utility.yul\":8457:8468   */\n      swap2\n      pop\n        /* \"#utility.yul\":7834:8474   */\n      pop\n        /* \"#utility.yul\":7712:8474   */\n      swap3\n      swap2\n      pop\n      pop\n      jump\t// out\n        /* \"#utility.yul\":8480:8606   */\n    tag_228:\n        /* \"#utility.yul\":8517:8524   */\n      0x00\n        /* \"#utility.yul\":8557:8599   */\n      0xffffffffffffffffffffffffffffffffffffffff\n        /* \"#utility.yul\":8550:8555   */\n      dup3\n        /* \"#utility.yul\":8546:8600   */\n      and\n        /* \"#utility.yul\":8535:8600   */\n      swap1\n      pop\n        /* \"#utility.yul\":8480:8606   */\n      swap2\n      swap1\n      pop\n      jump\t// out\n        /* \"#utility.yul\":8612:8708   */\n    tag_229:\n        /* \"#utility.yul\":8649:8656   */\n      0x00\n        /* \"#utility.yul\":8678:8702   */\n      tag_364\n        /* \"#utility.yul\":8696:8701   */\n      dup3\n        /* \"#utility.yul\":8678:8702   */\n      tag_228\n      jump\t// in\n    tag_364:\n        /* \"#utility.yul\":8667:8702   */\n      swap1\n      pop\n        /* \"#utility.yul\":8612:8708   */\n      swap2\n      swap1\n      pop\n      jump\t// out\n        /* \"#utility.yul\":8714:8832   */\n    tag_230:\n        /* \"#utility.yul\":8801:8825   */\n      tag_366\n        /* \"#utility.yul\":8819:8824   */\n      dup2\n        /* \"#utility.yul\":8801:8825   */\n      tag_229\n      jump\t// in\n    tag_366:\n        /* \"#utility.yul\":8796:8799   */\n      dup3\n        /* \"#utility.yul\":8789:8826   */\n      mstore\n        /* \"#utility.yul\":8714:8832   */\n      pop\n      pop\n      jump\t// out\n        /* \"#utility.yul\":8838:9518   */\n    tag_20:\n        /* \"#utility.yul\":9055:9059   */\n      0x00\n        /* \"#utility.yul\":9093:9095   */\n      0x60\n        /* \"#utility.yul\":9082:9091   */\n      dup3\n        /* \"#utility.yul\":9078:9096   */\n      add\n        /* \"#utility.yul\":9070:9096   */\n      swap1\n      pop\n        /* \"#utility.yul\":9142:9151   */\n      dup2\n        /* \"#utility.yul\":9136:9140   */\n      dup2\n        /* \"#utility.yul\":9132:9152   */\n      sub\n        /* \"#utility.yul\":9128:9129   */\n      0x00\n        /* \"#utility.yul\":9117:9126   */\n      dup4\n        /* \"#utility.yul\":9113:9130   */\n      add\n        /* \"#utility.yul\":9106:9153   */\n      mstore\n        /* \"#utility.yul\":9170:9248   */\n      tag_368\n        /* \"#utility.yul\":9243:9247   */\n      dup2\n        /* \"#utility.yul\":9234:9240   */\n      dup7\n        /* \"#utility.yul\":9170:9248   */\n      tag_211\n      jump\t// in\n    tag_368:\n        /* \"#utility.yul\":9162:9248   */\n      swap1\n      pop\n        /* \"#utility.yul\":9295:9304   */\n      dup2\n        /* \"#utility.yul\":9289:9293   */\n      dup2\n        /* \"#utility.yul\":9285:9305   */\n      sub\n        /* \"#utility.yul\":9280:9282   */\n      0x20\n        /* \"#utility.yul\":9269:9278   */\n      dup4\n        /* \"#utility.yul\":9265:9283   */\n      add\n        /* \"#utility.yul\":9258:9306   */\n      mstore\n        /* \"#utility.yul\":9323:9429   */\n      tag_369\n        /* \"#utility.yul\":9424:9428   */\n      dup2\n        /* \"#utility.yul\":9415:9421   */\n      dup6\n        /* \"#utility.yul\":9323:9429   */\n      tag_227\n      jump\t// in\n    tag_369:\n        /* \"#utility.yul\":9315:9429   */\n      swap1\n      pop\n        /* \"#utility.yul\":9439:9511   */\n      tag_370\n        /* \"#utility.yul\":9507:9509   */\n      0x40\n        /* \"#utility.yul\":9496:9505   */\n      dup4\n        /* \"#utility.yul\":9492:9510   */\n      add\n        /* \"#utility.yul\":9483:9489   */\n      dup5\n        /* \"#utility.yul\":9439:9511   */\n      tag_230\n      jump\t// in\n    tag_370:\n        /* \"#utility.yul\":8838:9518   */\n      swap5\n      swap4\n      pop\n      pop\n      pop\n      pop\n      jump\t// out\n        /* \"#utility.yul\":9524:9610   */\n    tag_231:\n        /* \"#utility.yul\":9559:9566   */\n      0x00\n        /* \"#utility.yul\":9599:9603   */\n      0xff\n        /* \"#utility.yul\":9592:9597   */\n      dup3\n        /* \"#utility.yul\":9588:9604   */\n      and\n        /* \"#utility.yul\":9577:9604   */\n      swap1\n      pop\n        /* \"#utility.yul\":9524:9610   */\n      swap2\n      swap1\n      pop\n      jump\t// out\n        /* \"#utility.yul\":9616:9734   */\n    tag_232:\n        /* \"#utility.yul\":9687:9709   */\n      tag_373\n        /* \"#utility.yul\":9703:9708   */\n      dup2\n        /* \"#utility.yul\":9687:9709   */\n      tag_231\n      jump\t// in\n    tag_373:\n        /* \"#utility.yul\":9680:9685   */\n      dup2\n        /* \"#utility.yul\":9677:9710   */\n      eq\n        /* \"#utility.yul\":9667:9728   */\n      tag_374\n      jumpi\n        /* \"#utility.yul\":9724:9725   */\n      0x00\n        /* \"#utility.yul\":9721:9722   */\n      dup1\n        /* \"#utility.yul\":9714:9726   */\n      revert\n        /* \"#utility.yul\":9667:9728   */\n    tag_374:\n        /* \"#utility.yul\":9616:9734   */\n      pop\n      jump\t// out\n        /* \"#utility.yul\":9740:9875   */\n    tag_233:\n        /* \"#utility.yul\":9784:9789   */\n      0x00\n        /* \"#utility.yul\":9822:9828   */\n      dup2\n        /* \"#utility.yul\":9809:9829   */\n      calldataload\n        /* \"#utility.yul\":9800:9829   */\n      swap1\n      pop\n        /* \"#utility.yul\":9838:9869   */\n      tag_376\n        /* \"#utility.yul\":9863:9868   */\n      dup2\n        /* \"#utility.yul\":9838:9869   */\n      tag_232\n      jump\t// in\n    tag_376:\n        /* \"#utility.yul\":9740:9875   */\n      swap3\n      swap2\n      pop\n      pop\n      jump\t// out\n        /* \"#utility.yul\":9881:10351   */\n    tag_30:\n        /* \"#utility.yul\":9947:9953   */\n      0x00\n        /* \"#utility.yul\":9955:9961   */\n      dup1\n        /* \"#utility.yul\":10004:10006   */\n      0x40\n        /* \"#utility.yul\":9992:10001   */\n      dup4\n        /* \"#utility.yul\":9983:9990   */\n      dup6\n        /* \"#utility.yul\":9979:10002   */\n      sub\n        /* \"#utility.yul\":9975:10007   */\n      slt\n        /* \"#utility.yul\":9972:10091   */\n      iszero\n      tag_378\n      jumpi\n        /* \"#utility.yul\":10010:10089   */\n      tag_379\n      tag_198\n      jump\t// in\n    tag_379:\n        /* \"#utility.yul\":9972:10091   */\n    tag_378:\n        /* \"#utility.yul\":10130:10131   */\n      0x00\n        /* \"#utility.yul\":10155:10208   */\n      tag_380\n        /* \"#utility.yul\":10200:10207   */\n      dup6\n        /* \"#utility.yul\":10191:10197   */\n      dup3\n        /* \"#utility.yul\":10180:10189   */\n      dup7\n        /* \"#utility.yul\":10176:10198   */\n      add\n        /* \"#utility.yul\":10155:10208   */\n      tag_202\n      jump\t// in\n    tag_380:\n        /* \"#utility.yul\":10145:10208   */\n      swap3\n      pop\n        /* \"#utility.yul\":10101:10218   */\n      pop\n        /* \"#utility.yul\":10257:10259   */\n      0x20\n        /* \"#utility.yul\":10283:10334   */\n      tag_381\n        /* \"#utility.yul\":10326:10333   */\n      dup6\n        /* \"#utility.yul\":10317:10323   */\n      dup3\n        /* \"#utility.yul\":10306:10315   */\n      dup7\n        /* \"#utility.yul\":10302:10324   */\n      add\n        /* \"#utility.yul\":10283:10334   */\n      tag_233\n      jump\t// in\n    tag_381:\n        /* \"#utility.yul\":10273:10334   */\n      swap2\n      pop\n        /* \"#utility.yul\":10228:10344   */\n      pop\n        /* \"#utility.yul\":9881:10351   */\n      swap3\n      pop\n      swap3\n      swap1\n      pop\n      jump\t// out\n        /* \"#utility.yul\":10357:10475   */\n    tag_234:\n        /* \"#utility.yul\":10444:10468   */\n      tag_383\n        /* \"#utility.yul\":10462:10467   */\n      dup2\n        /* \"#utility.yul\":10444:10468   */\n      tag_200\n      jump\t// in\n    tag_383:\n        /* \"#utility.yul\":10439:10442   */\n      dup3\n        /* \"#utility.yul\":10432:10469   */\n      mstore\n        /* \"#utility.yul\":10357:10475   */\n      pop\n      pop\n      jump\t// out\n        /* \"#utility.yul\":10481:10703   */\n    tag_36:\n        /* \"#utility.yul\":10574:10578   */\n      0x00\n        /* \"#utility.yul\":10612:10614   */\n      0x20\n        /* \"#utility.yul\":10601:10610   */\n      dup3\n        /* \"#utility.yul\":10597:10615   */\n      add\n        /* \"#utility.yul\":10589:10615   */\n      swap1\n      pop\n        /* \"#utility.yul\":10625:10696   */\n      tag_385\n        /* \"#utility.yul\":10693:10694   */\n      0x00\n        /* \"#utility.yul\":10682:10691   */\n      dup4\n        /* \"#utility.yul\":10678:10695   */\n      add\n        /* \"#utility.yul\":10669:10675   */\n      dup5\n        /* \"#utility.yul\":10625:10696   */\n      tag_234\n      jump\t// in\n    tag_385:\n        /* \"#utility.yul\":10481:10703   */\n      swap3\n      swap2\n      pop\n      pop\n      jump\t// out\n        /* \"#utility.yul\":10709:11238   */\n    tag_39:\n        /* \"#utility.yul\":10780:10786   */\n      0x00\n        /* \"#utility.yul\":10788:10794   */\n      dup1\n        /* \"#utility.yul\":10837:10839   */\n      0x20\n        /* \"#utility.yul\":10825:10834   */\n      dup4\n        /* \"#utility.yul\":10816:10823   */\n      dup6\n        /* \"#utility.yul\":10812:10835   */\n      sub\n        /* \"#utility.yul\":10808:10840   */\n      slt\n        /* \"#utility.yul\":10805:10924   */\n      iszero\n      tag_387\n      jumpi\n        /* \"#utility.yul\":10843:10922   */\n      tag_388\n      tag_198\n      jump\t// in\n    tag_388:\n        /* \"#utility.yul\":10805:10924   */\n    tag_387:\n        /* \"#utility.yul\":10991:10992   */\n      0x00\n        /* \"#utility.yul\":10980:10989   */\n      dup4\n        /* \"#utility.yul\":10976:10993   */\n      add\n        /* \"#utility.yul\":10963:10994   */\n      calldataload\n        /* \"#utility.yul\":11021:11039   */\n      0xffffffffffffffff\n        /* \"#utility.yul\":11013:11019   */\n      dup2\n        /* \"#utility.yul\":11010:11040   */\n      gt\n        /* \"#utility.yul\":11007:11124   */\n      iszero\n      tag_389\n      jumpi\n        /* \"#utility.yul\":11043:11122   */\n      tag_390\n      tag_199\n      jump\t// in\n    tag_390:\n        /* \"#utility.yul\":11007:11124   */\n    tag_389:\n        /* \"#utility.yul\":11156:11221   */\n      tag_391\n        /* \"#utility.yul\":11213:11220   */\n      dup6\n        /* \"#utility.yul\":11204:11210   */\n      dup3\n        /* \"#utility.yul\":11193:11202   */\n      dup7\n        /* \"#utility.yul\":11189:11211   */\n      add\n        /* \"#utility.yul\":11156:11221   */\n      tag_206\n      jump\t// in\n    tag_391:\n        /* \"#utility.yul\":11138:11221   */\n      swap3\n      pop\n      swap3\n      pop\n        /* \"#utility.yul\":10934:11231   */\n      pop\n        /* \"#utility.yul\":10709:11238   */\n      swap3\n      pop\n      swap3\n      swap1\n      pop\n      jump\t// out\n        /* \"#utility.yul\":11244:11481   */\n    tag_235:\n        /* \"#utility.yul\":11384:11418   */\n      0x4e6f2070756564657320637265617220756e2061726d61206120756e20706572\n        /* \"#utility.yul\":11380:11381   */\n      0x00\n        /* \"#utility.yul\":11372:11378   */\n      dup3\n        /* \"#utility.yul\":11368:11382   */\n      add\n        /* \"#utility.yul\":11361:11419   */\n      mstore\n        /* \"#utility.yul\":11453:11473   */\n      0x736f6e616a6520696e6578697374656e74650000000000000000000000000000\n        /* \"#utility.yul\":11448:11450   */\n      0x20\n        /* \"#utility.yul\":11440:11446   */\n      dup3\n        /* \"#utility.yul\":11436:11451   */\n      add\n        /* \"#utility.yul\":11429:11474   */\n      mstore\n        /* \"#utility.yul\":11244:11481   */\n      pop\n      jump\t// out\n        /* \"#utility.yul\":11487:11853   */\n    tag_236:\n        /* \"#utility.yul\":11629:11632   */\n      0x00\n        /* \"#utility.yul\":11650:11717   */\n      tag_394\n        /* \"#utility.yul\":11714:11716   */\n      0x32\n        /* \"#utility.yul\":11709:11712   */\n      dup4\n        /* \"#utility.yul\":11650:11717   */\n      tag_208\n      jump\t// in\n    tag_394:\n        /* \"#utility.yul\":11643:11717   */\n      swap2\n      pop\n        /* \"#utility.yul\":11726:11819   */\n      tag_395\n        /* \"#utility.yul\":11815:11818   */\n      dup3\n        /* \"#utility.yul\":11726:11819   */\n      tag_235\n      jump\t// in\n    tag_395:\n        /* \"#utility.yul\":11844:11846   */\n      0x40\n        /* \"#utility.yul\":11839:11842   */\n      dup3\n        /* \"#utility.yul\":11835:11847   */\n      add\n        /* \"#utility.yul\":11828:11847   */\n      swap1\n      pop\n        /* \"#utility.yul\":11487:11853   */\n      swap2\n      swap1\n      pop\n      jump\t// out\n        /* \"#utility.yul\":11859:12278   */\n    tag_45:\n        /* \"#utility.yul\":12025:12029   */\n      0x00\n        /* \"#utility.yul\":12063:12065   */\n      0x20\n        /* \"#utility.yul\":12052:12061   */\n      dup3\n        /* \"#utility.yul\":12048:12066   */\n      add\n        /* \"#utility.yul\":12040:12066   */\n      swap1\n      pop\n        /* \"#utility.yul\":12112:12121   */\n      dup2\n        /* \"#utility.yul\":12106:12110   */\n      dup2\n        /* \"#utility.yul\":12102:12122   */\n      sub\n        /* \"#utility.yul\":12098:12099   */\n      0x00\n        /* \"#utility.yul\":12087:12096   */\n      dup4\n        /* \"#utility.yul\":12083:12100   */\n      add\n        /* \"#utility.yul\":12076:12123   */\n      mstore\n        /* \"#utility.yul\":12140:12271   */\n      tag_397\n        /* \"#utility.yul\":12266:12270   */\n      dup2\n        /* \"#utility.yul\":12140:12271   */\n      tag_236\n      jump\t// in\n    tag_397:\n        /* \"#utility.yul\":12132:12271   */\n      swap1\n      pop\n        /* \"#utility.yul\":11859:12278   */\n      swap2\n      swap1\n      pop\n      jump\t// out\n        /* \"#utility.yul\":12284:12464   */\n    tag_237:\n        /* \"#utility.yul\":12332:12409   */\n      0x4e487b7100000000000000000000000000000000000000000000000000000000\n        /* \"#utility.yul\":12329:12330   */\n      0x00\n        /* \"#utility.yul\":12322:12410   */\n      mstore\n        /* \"#utility.yul\":12429:12433   */\n      0x22\n        /* \"#utility.yul\":12426:12427   */\n      0x04\n        /* \"#utility.yul\":12419:12434   */\n      mstore\n        /* \"#utility.yul\":12453:12457   */\n      0x24\n        /* \"#utility.yul\":12450:12451   */\n      0x00\n        /* \"#utility.yul\":12443:12458   */\n      revert\n        /* \"#utility.yul\":12470:12790   */\n    tag_51:\n        /* \"#utility.yul\":12514:12520   */\n      0x00\n        /* \"#utility.yul\":12551:12552   */\n      0x02\n        /* \"#utility.yul\":12545:12549   */\n      dup3\n        /* \"#utility.yul\":12541:12553   */\n      div\n        /* \"#utility.yul\":12531:12553   */\n      swap1\n      pop\n        /* \"#utility.yul\":12598:12599   */\n      0x01\n        /* \"#utility.yul\":12592:12596   */\n      dup3\n        /* \"#utility.yul\":12588:12600   */\n      and\n        /* \"#utility.yul\":12619:12637   */\n      dup1\n        /* \"#utility.yul\":12609:12690   */\n      tag_400\n      jumpi\n        /* \"#utility.yul\":12675:12679   */\n      0x7f\n        /* \"#utility.yul\":12667:12673   */\n      dup3\n        /* \"#utility.yul\":12663:12680   */\n      and\n        /* \"#utility.yul\":12653:12680   */\n      swap2\n      pop\n        /* \"#utility.yul\":12609:12690   */\n    tag_400:\n        /* \"#utility.yul\":12737:12739   */\n      0x20\n        /* \"#utility.yul\":12729:12735   */\n      dup3\n        /* \"#utility.yul\":12726:12740   */\n      lt\n        /* \"#utility.yul\":12706:12724   */\n      dup2\n        /* \"#utility.yul\":12703:12741   */\n      sub\n        /* \"#utility.yul\":12700:12784   */\n      tag_401\n      jumpi\n        /* \"#utility.yul\":12756:12774   */\n      tag_402\n      tag_237\n      jump\t// in\n    tag_402:\n        /* \"#utility.yul\":12700:12784   */\n    tag_401:\n        /* \"#utility.yul\":12521:12790   */\n      pop\n        /* \"#utility.yul\":12470:12790   */\n      swap2\n      swap1\n      pop\n      jump\t// out\n        /* \"#utility.yul\":12796:13028   */\n    tag_238:\n        /* \"#utility.yul\":12936:12970   */\n      0x456c2061726d612071756520657374617320696e74656e74616e646f63206372\n        /* \"#utility.yul\":12932:12933   */\n      0x00\n        /* \"#utility.yul\":12924:12930   */\n      dup3\n        /* \"#utility.yul\":12920:12934   */\n      add\n        /* \"#utility.yul\":12913:12971   */\n      mstore\n        /* \"#utility.yul\":13005:13020   */\n      0x6561722079612065786973746500000000000000000000000000000000000000\n        /* \"#utility.yul\":13000:13002   */\n      0x20\n        /* \"#utility.yul\":12992:12998   */\n      dup3\n        /* \"#utility.yul\":12988:13003   */\n      add\n        /* \"#utility.yul\":12981:13021   */\n      mstore\n        /* \"#utility.yul\":12796:13028   */\n      pop\n      jump\t// out\n        /* \"#utility.yul\":13034:13400   */\n    tag_239:\n        /* \"#utility.yul\":13176:13179   */\n      0x00\n        /* \"#utility.yul\":13197:13264   */\n      tag_405\n        /* \"#utility.yul\":13261:13263   */\n      0x2d\n        /* \"#utility.yul\":13256:13259   */\n      dup4\n        /* \"#utility.yul\":13197:13264   */\n      tag_208\n      jump\t// in\n    tag_405:\n        /* \"#utility.yul\":13190:13264   */\n      swap2\n      pop\n        /* \"#utility.yul\":13273:13366   */\n      tag_406\n        /* \"#utility.yul\":13362:13365   */\n      dup3\n        /* \"#utility.yul\":13273:13366   */\n      tag_238\n      jump\t// in\n    tag_406:\n        /* \"#utility.yul\":13391:13393   */\n      0x40\n        /* \"#utility.yul\":13386:13389   */\n      dup3\n        /* \"#utility.yul\":13382:13394   */\n      add\n        /* \"#utility.yul\":13375:13394   */\n      swap1\n      pop\n        /* \"#utility.yul\":13034:13400   */\n      swap2\n      swap1\n      pop\n      jump\t// out\n        /* \"#utility.yul\":13406:13825   */\n    tag_59:\n        /* \"#utility.yul\":13572:13576   */\n      0x00\n        /* \"#utility.yul\":13610:13612   */\n      0x20\n        /* \"#utility.yul\":13599:13608   */\n      dup3\n        /* \"#utility.yul\":13595:13613   */\n      add\n        /* \"#utility.yul\":13587:13613   */\n      swap1\n      pop\n        /* \"#utility.yul\":13659:13668   */\n      dup2\n        /* \"#utility.yul\":13653:13657   */\n      dup2\n        /* \"#utility.yul\":13649:13669   */\n      sub\n        /* \"#utility.yul\":13645:13646   */\n      0x00\n        /* \"#utility.yul\":13634:13643   */\n      dup4\n        /* \"#utility.yul\":13630:13647   */\n      add\n        /* \"#utility.yul\":13623:13670   */\n      mstore\n        /* \"#utility.yul\":13687:13818   */\n      tag_408\n        /* \"#utility.yul\":13813:13817   */\n      dup2\n        /* \"#utility.yul\":13687:13818   */\n      tag_239\n      jump\t// in\n    tag_408:\n        /* \"#utility.yul\":13679:13818   */\n      swap1\n      pop\n        /* \"#utility.yul\":13406:13825   */\n      swap2\n      swap1\n      pop\n      jump\t// out\n        /* \"#utility.yul\":13831:14134   */\n    tag_240:\n        /* \"#utility.yul\":13971:14005   */\n      0x4465206d6f6d656e746f2c20736f6c6f20656c2070726f706965746172696f20\n        /* \"#utility.yul\":13967:13968   */\n      0x00\n        /* \"#utility.yul\":13959:13965   */\n      dup3\n        /* \"#utility.yul\":13955:13969   */\n      add\n        /* \"#utility.yul\":13948:14006   */\n      mstore\n        /* \"#utility.yul\":14040:14074   */\n      0x64656c20746f6b656e20707565646520616772656761722061726d6173206120\n        /* \"#utility.yul\":14035:14037   */\n      0x20\n        /* \"#utility.yul\":14027:14033   */\n      dup3\n        /* \"#utility.yul\":14023:14038   */\n      add\n        /* \"#utility.yul\":14016:14075   */\n      mstore\n        /* \"#utility.yul\":14109:14126   */\n      0x73757320706572736f6e616a65732e0000000000000000000000000000000000\n        /* \"#utility.yul\":14104:14106   */\n      0x40\n        /* \"#utility.yul\":14096:14102   */\n      dup3\n        /* \"#utility.yul\":14092:14107   */\n      add\n        /* \"#utility.yul\":14085:14127   */\n      mstore\n        /* \"#utility.yul\":13831:14134   */\n      pop\n      jump\t// out\n        /* \"#utility.yul\":14140:14506   */\n    tag_241:\n        /* \"#utility.yul\":14282:14285   */\n      0x00\n        /* \"#utility.yul\":14303:14370   */\n      tag_411\n        /* \"#utility.yul\":14367:14369   */\n      0x4f\n        /* \"#utility.yul\":14362:14365   */\n      dup4\n        /* \"#utility.yul\":14303:14370   */\n      tag_208\n      jump\t// in\n    tag_411:\n        /* \"#utility.yul\":14296:14370   */\n      swap2\n      pop\n        /* \"#utility.yul\":14379:14472   */\n      tag_412\n        /* \"#utility.yul\":14468:14471   */\n      dup3\n        /* \"#utility.yul\":14379:14472   */\n      tag_240\n      jump\t// in\n    tag_412:\n        /* \"#utility.yul\":14497:14499   */\n      0x60\n        /* \"#utility.yul\":14492:14495   */\n      dup3\n        /* \"#utility.yul\":14488:14500   */\n      add\n        /* \"#utility.yul\":14481:14500   */\n      swap1\n      pop\n        /* \"#utility.yul\":14140:14506   */\n      swap2\n      swap1\n      pop\n      jump\t// out\n        /* \"#utility.yul\":14512:14931   */\n    tag_63:\n        /* \"#utility.yul\":14678:14682   */\n      0x00\n        /* \"#utility.yul\":14716:14718   */\n      0x20\n        /* \"#utility.yul\":14705:14714   */\n      dup3\n        /* \"#utility.yul\":14701:14719   */\n      add\n        /* \"#utility.yul\":14693:14719   */\n      swap1\n      pop\n        /* \"#utility.yul\":14765:14774   */\n      dup2\n        /* \"#utility.yul\":14759:14763   */\n      dup2\n        /* \"#utility.yul\":14755:14775   */\n      sub\n        /* \"#utility.yul\":14751:14752   */\n      0x00\n        /* \"#utility.yul\":14740:14749   */\n      dup4\n        /* \"#utility.yul\":14736:14753   */\n      add\n        /* \"#utility.yul\":14729:14776   */\n      mstore\n        /* \"#utility.yul\":14793:14924   */\n      tag_414\n        /* \"#utility.yul\":14919:14923   */\n      dup2\n        /* \"#utility.yul\":14793:14924   */\n      tag_241\n      jump\t// in\n    tag_414:\n        /* \"#utility.yul\":14785:14924   */\n      swap1\n      pop\n        /* \"#utility.yul\":14512:14931   */\n      swap2\n      swap1\n      pop\n      jump\t// out\n        /* \"#utility.yul\":14937:15117   */\n    tag_242:\n        /* \"#utility.yul\":14985:15062   */\n      0x4e487b7100000000000000000000000000000000000000000000000000000000\n        /* \"#utility.yul\":14982:14983   */\n      0x00\n        /* \"#utility.yul\":14975:15063   */\n      mstore\n        /* \"#utility.yul\":15082:15086   */\n      0x11\n        /* \"#utility.yul\":15079:15080   */\n      0x04\n        /* \"#utility.yul\":15072:15087   */\n      mstore\n        /* \"#utility.yul\":15106:15110   */\n      0x24\n        /* \"#utility.yul\":15103:15104   */\n      0x00\n        /* \"#utility.yul\":15096:15111   */\n      revert\n        /* \"#utility.yul\":15123:15225   */\n    tag_243:\n        /* \"#utility.yul\":15165:15173   */\n      0x00\n        /* \"#utility.yul\":15212:15217   */\n      dup2\n        /* \"#utility.yul\":15209:15210   */\n      0x01\n        /* \"#utility.yul\":15205:15218   */\n      shr\n        /* \"#utility.yul\":15184:15218   */\n      swap1\n      pop\n        /* \"#utility.yul\":15123:15225   */\n      swap2\n      swap1\n      pop\n      jump\t// out\n        /* \"#utility.yul\":15231:16079   */\n    tag_244:\n        /* \"#utility.yul\":15292:15297   */\n      0x00\n        /* \"#utility.yul\":15299:15303   */\n      dup1\n        /* \"#utility.yul\":15323:15329   */\n      dup3\n        /* \"#utility.yul\":15314:15329   */\n      swap2\n      pop\n        /* \"#utility.yul\":15347:15352   */\n      dup4\n        /* \"#utility.yul\":15338:15352   */\n      swap1\n      pop\n        /* \"#utility.yul\":15361:16073   */\n    tag_418:\n        /* \"#utility.yul\":15382:15383   */\n      0x01\n        /* \"#utility.yul\":15372:15380   */\n      dup6\n        /* \"#utility.yul\":15369:15384   */\n      gt\n        /* \"#utility.yul\":15361:16073   */\n      iszero\n      tag_420\n      jumpi\n        /* \"#utility.yul\":15477:15481   */\n      dup1\n        /* \"#utility.yul\":15472:15475   */\n      dup7\n        /* \"#utility.yul\":15468:15482   */\n      div\n        /* \"#utility.yul\":15462:15466   */\n      dup2\n        /* \"#utility.yul\":15459:15483   */\n      gt\n        /* \"#utility.yul\":15456:15506   */\n      iszero\n      tag_421\n      jumpi\n        /* \"#utility.yul\":15486:15504   */\n      tag_422\n      tag_242\n      jump\t// in\n    tag_422:\n        /* \"#utility.yul\":15456:15506   */\n    tag_421:\n        /* \"#utility.yul\":15536:15537   */\n      0x01\n        /* \"#utility.yul\":15526:15534   */\n      dup6\n        /* \"#utility.yul\":15522:15538   */\n      and\n        /* \"#utility.yul\":15519:15970   */\n      iszero\n      tag_423\n      jumpi\n        /* \"#utility.yul\":15951:15955   */\n      dup1\n        /* \"#utility.yul\":15944:15949   */\n      dup3\n        /* \"#utility.yul\":15940:15956   */\n      mul\n        /* \"#utility.yul\":15931:15956   */\n      swap2\n      pop\n        /* \"#utility.yul\":15519:15970   */\n    tag_423:\n        /* \"#utility.yul\":16001:16005   */\n      dup1\n        /* \"#utility.yul\":15995:15999   */\n      dup2\n        /* \"#utility.yul\":15991:16006   */\n      mul\n        /* \"#utility.yul\":15983:16006   */\n      swap1\n      pop\n        /* \"#utility.yul\":16031:16063   */\n      tag_424\n        /* \"#utility.yul\":16054:16062   */\n      dup6\n        /* \"#utility.yul\":16031:16063   */\n      tag_243\n      jump\t// in\n    tag_424:\n        /* \"#utility.yul\":16019:16063   */\n      swap5\n      pop\n        /* \"#utility.yul\":15361:16073   */\n      jump(tag_418)\n    tag_420:\n        /* \"#utility.yul\":15231:16079   */\n      swap5\n      pop\n      swap5\n      swap3\n      pop\n      pop\n      pop\n      jump\t// out\n        /* \"#utility.yul\":16085:17158   */\n    tag_245:\n        /* \"#utility.yul\":16139:16144   */\n      0x00\n        /* \"#utility.yul\":16330:16338   */\n      dup3\n        /* \"#utility.yul\":16320:16360   */\n      tag_426\n      jumpi\n        /* \"#utility.yul\":16351:16352   */\n      0x01\n        /* \"#utility.yul\":16342:16352   */\n      swap1\n      pop\n        /* \"#utility.yul\":16353:16358   */\n      jump(tag_425)\n        /* \"#utility.yul\":16320:16360   */\n    tag_426:\n        /* \"#utility.yul\":16379:16383   */\n      dup2\n        /* \"#utility.yul\":16369:16405   */\n      tag_427\n      jumpi\n        /* \"#utility.yul\":16396:16397   */\n      0x00\n        /* \"#utility.yul\":16387:16397   */\n      swap1\n      pop\n        /* \"#utility.yul\":16398:16403   */\n      jump(tag_425)\n        /* \"#utility.yul\":16369:16405   */\n    tag_427:\n        /* \"#utility.yul\":16465:16469   */\n      dup2\n        /* \"#utility.yul\":16513:16514   */\n      0x01\n        /* \"#utility.yul\":16508:16535   */\n      dup2\n      eq\n      tag_429\n      jumpi\n        /* \"#utility.yul\":16549:16550   */\n      0x02\n        /* \"#utility.yul\":16544:16735   */\n      dup2\n      eq\n      tag_430\n      jumpi\n        /* \"#utility.yul\":16458:16735   */\n      jump(tag_428)\n        /* \"#utility.yul\":16508:16535   */\n    tag_429:\n        /* \"#utility.yul\":16526:16527   */\n      0x01\n        /* \"#utility.yul\":16517:16527   */\n      swap2\n      pop\n        /* \"#utility.yul\":16528:16533   */\n      pop\n      jump(tag_425)\n        /* \"#utility.yul\":16544:16735   */\n    tag_430:\n        /* \"#utility.yul\":16589:16592   */\n      0xff\n        /* \"#utility.yul\":16579:16587   */\n      dup5\n        /* \"#utility.yul\":16576:16593   */\n      gt\n        /* \"#utility.yul\":16573:16616   */\n      iszero\n      tag_431\n      jumpi\n        /* \"#utility.yul\":16596:16614   */\n      tag_432\n      tag_242\n      jump\t// in\n    tag_432:\n        /* \"#utility.yul\":16573:16616   */\n    tag_431:\n        /* \"#utility.yul\":16645:16653   */\n      dup4\n        /* \"#utility.yul\":16642:16643   */\n      0x02\n        /* \"#utility.yul\":16638:16654   */\n      exp\n        /* \"#utility.yul\":16629:16654   */\n      swap2\n      pop\n        /* \"#utility.yul\":16680:16683   */\n      dup5\n        /* \"#utility.yul\":16673:16678   */\n      dup3\n        /* \"#utility.yul\":16670:16684   */\n      gt\n        /* \"#utility.yul\":16667:16707   */\n      iszero\n      tag_433\n      jumpi\n        /* \"#utility.yul\":16687:16705   */\n      tag_434\n      tag_242\n      jump\t// in\n    tag_434:\n        /* \"#utility.yul\":16667:16707   */\n    tag_433:\n        /* \"#utility.yul\":16720:16725   */\n      pop\n      jump(tag_425)\n        /* \"#utility.yul\":16458:16735   */\n    tag_428:\n      pop\n        /* \"#utility.yul\":16844:16846   */\n      0x20\n        /* \"#utility.yul\":16834:16842   */\n      dup4\n        /* \"#utility.yul\":16831:16847   */\n      lt\n        /* \"#utility.yul\":16825:16828   */\n      0x0133\n        /* \"#utility.yul\":16819:16823   */\n      dup4\n        /* \"#utility.yul\":16816:16829   */\n      lt\n        /* \"#utility.yul\":16812:16848   */\n      and\n        /* \"#utility.yul\":16794:16796   */\n      0x4e\n        /* \"#utility.yul\":16784:16792   */\n      dup5\n        /* \"#utility.yul\":16781:16797   */\n      lt\n        /* \"#utility.yul\":16776:16778   */\n      0x0b\n        /* \"#utility.yul\":16770:16774   */\n      dup5\n        /* \"#utility.yul\":16767:16779   */\n      lt\n        /* \"#utility.yul\":16763:16798   */\n      and\n        /* \"#utility.yul\":16747:16858   */\n      or\n        /* \"#utility.yul\":16744:16990   */\n      iszero\n      tag_435\n      jumpi\n        /* \"#utility.yul\":16900:16908   */\n      dup3\n        /* \"#utility.yul\":16894:16898   */\n      dup3\n        /* \"#utility.yul\":16890:16909   */\n      exp\n        /* \"#utility.yul\":16881:16909   */\n      swap1\n      pop\n        /* \"#utility.yul\":16935:16938   */\n      dup4\n        /* \"#utility.yul\":16928:16933   */\n      dup2\n        /* \"#utility.yul\":16925:16939   */\n      gt\n        /* \"#utility.yul\":16922:16962   */\n      iszero\n      tag_436\n      jumpi\n        /* \"#utility.yul\":16942:16960   */\n      tag_437\n      tag_242\n      jump\t// in\n    tag_437:\n        /* \"#utility.yul\":16922:16962   */\n    tag_436:\n        /* \"#utility.yul\":16975:16980   */\n      jump(tag_425)\n        /* \"#utility.yul\":16744:16990   */\n    tag_435:\n        /* \"#utility.yul\":17015:17057   */\n      tag_438\n        /* \"#utility.yul\":17053:17056   */\n      dup5\n        /* \"#utility.yul\":17043:17051   */\n      dup5\n        /* \"#utility.yul\":17037:17041   */\n      dup5\n        /* \"#utility.yul\":17034:17035   */\n      0x01\n        /* \"#utility.yul\":17015:17057   */\n      tag_244\n      jump\t// in\n    tag_438:\n        /* \"#utility.yul\":17000:17057   */\n      swap3\n      pop\n      swap1\n      pop\n        /* \"#utility.yul\":17089:17093   */\n      dup2\n        /* \"#utility.yul\":17084:17087   */\n      dup5\n        /* \"#utility.yul\":17080:17094   */\n      div\n        /* \"#utility.yul\":17073:17078   */\n      dup2\n        /* \"#utility.yul\":17070:17095   */\n      gt\n        /* \"#utility.yul\":17067:17118   */\n      iszero\n      tag_439\n      jumpi\n        /* \"#utility.yul\":17098:17116   */\n      tag_440\n      tag_242\n      jump\t// in\n    tag_440:\n        /* \"#utility.yul\":17067:17118   */\n    tag_439:\n        /* \"#utility.yul\":17147:17151   */\n      dup2\n        /* \"#utility.yul\":17140:17145   */\n      dup2\n        /* \"#utility.yul\":17136:17152   */\n      mul\n        /* \"#utility.yul\":17127:17152   */\n      swap1\n      pop\n        /* \"#utility.yul\":16085:17158   */\n    tag_425:\n      swap4\n      swap3\n      pop\n      pop\n      pop\n      jump\t// out\n        /* \"#utility.yul\":17164:17449   */\n    tag_65:\n        /* \"#utility.yul\":17224:17229   */\n      0x00\n        /* \"#utility.yul\":17248:17271   */\n      tag_442\n        /* \"#utility.yul\":17266:17270   */\n      dup3\n        /* \"#utility.yul\":17248:17271   */\n      tag_200\n      jump\t// in\n    tag_442:\n        /* \"#utility.yul\":17240:17271   */\n      swap2\n      pop\n        /* \"#utility.yul\":17292:17319   */\n      tag_443\n        /* \"#utility.yul\":17310:17318   */\n      dup4\n        /* \"#utility.yul\":17292:17319   */\n      tag_200\n      jump\t// in\n    tag_443:\n        /* \"#utility.yul\":17280:17319   */\n      swap3\n      pop\n        /* \"#utility.yul\":17338:17442   */\n      tag_444\n        /* \"#utility.yul\":17375:17441   */\n      0xffffffffffffffffffffffffffffffffffffffffffffffffffffffffffffffff\n        /* \"#utility.yul\":17365:17373   */\n      dup5\n        /* \"#utility.yul\":17359:17363   */\n      dup5\n        /* \"#utility.yul\":17338:17442   */\n      tag_245\n      jump\t// in\n    tag_444:\n        /* \"#utility.yul\":17329:17442   */\n      swap1\n      pop\n        /* \"#utility.yul\":17164:17449   */\n      swap3\n      swap2\n      pop\n      pop\n      jump\t// out\n        /* \"#utility.yul\":17455:17865   */\n    tag_67:\n        /* \"#utility.yul\":17495:17502   */\n      0x00\n        /* \"#utility.yul\":17518:17538   */\n      tag_446\n        /* \"#utility.yul\":17536:17537   */\n      dup3\n        /* \"#utility.yul\":17518:17538   */\n      tag_200\n      jump\t// in\n    tag_446:\n        /* \"#utility.yul\":17513:17538   */\n      swap2\n      pop\n        /* \"#utility.yul\":17552:17572   */\n      tag_447\n        /* \"#utility.yul\":17570:17571   */\n      dup4\n        /* \"#utility.yul\":17552:17572   */\n      tag_200\n      jump\t// in\n    tag_447:\n        /* \"#utility.yul\":17547:17572   */\n      swap3\n      pop\n        /* \"#utility.yul\":17607:17608   */\n      dup3\n        /* \"#utility.yul\":17604:17605   */\n      dup3\n        /* \"#utility.yul\":17600:17609   */\n      mul\n        /* \"#utility.yul\":17629:17659   */\n      tag_448\n        /* \"#utility.yul\":17647:17658   */\n      dup2\n        /* \"#utility.yul\":17629:17659   */\n      tag_200\n      jump\t// in\n    tag_448:\n        /* \"#utility.yul\":17618:17659   */\n      swap2\n      pop\n        /* \"#utility.yul\":17808:17809   */\n      dup3\n        /* \"#utility.yul\":17799:17806   */\n      dup3\n        /* \"#utility.yul\":17795:17810   */\n      div\n        /* \"#utility.yul\":17792:17793   */\n      dup5\n        /* \"#utility.yul\":17789:17811   */\n      eq\n        /* \"#utility.yul\":17769:17770   */\n      dup4\n        /* \"#utility.yul\":17762:17771   */\n      iszero\n        /* \"#utility.yul\":17742:17825   */\n      or\n        /* \"#utility.yul\":17719:17858   */\n      tag_449\n      jumpi\n        /* \"#utility.yul\":17838:17856   */\n      tag_450\n      tag_242\n      jump\t// in\n    tag_450:\n        /* \"#utility.yul\":17719:17858   */\n    tag_449:\n        /* \"#utility.yul\":17503:17865   */\n      pop\n        /* \"#utility.yul\":17455:17865   */\n      swap3\n      swap2\n      pop\n      pop\n      jump\t// out\n        /* \"#utility.yul\":17871:18105   */\n    tag_246:\n        /* \"#utility.yul\":18011:18045   */\n      0x4e6f207469656e657320737566696369656e7465732077656973207061726120\n        /* \"#utility.yul\":18007:18008   */\n      0x00\n        /* \"#utility.yul\":17999:18005   */\n      dup3\n        /* \"#utility.yul\":17995:18009   */\n      add\n        /* \"#utility.yul\":17988:18046   */\n      mstore\n        /* \"#utility.yul\":18080:18097   */\n      0x6167726567617220656c2061726d610000000000000000000000000000000000\n        /* \"#utility.yul\":18075:18077   */\n      0x20\n        /* \"#utility.yul\":18067:18073   */\n      dup3\n        /* \"#utility.yul\":18063:18078   */\n      add\n        /* \"#utility.yul\":18056:18098   */\n      mstore\n        /* \"#utility.yul\":17871:18105   */\n      pop\n      jump\t// out\n        /* \"#utility.yul\":18111:18477   */\n    tag_247:\n        /* \"#utility.yul\":18253:18256   */\n      0x00\n        /* \"#utility.yul\":18274:18341   */\n      tag_453\n        /* \"#utility.yul\":18338:18340   */\n      0x2f\n        /* \"#utility.yul\":18333:18336   */\n      dup4\n        /* \"#utility.yul\":18274:18341   */\n      tag_208\n      jump\t// in\n    tag_453:\n        /* \"#utility.yul\":18267:18341   */\n      swap2\n      pop\n        /* \"#utility.yul\":18350:18443   */\n      tag_454\n        /* \"#utility.yul\":18439:18442   */\n      dup3\n        /* \"#utility.yul\":18350:18443   */\n      tag_246\n      jump\t// in\n    tag_454:\n        /* \"#utility.yul\":18468:18470   */\n      0x40\n        /* \"#utility.yul\":18463:18466   */\n      dup3\n        /* \"#utility.yul\":18459:18471   */\n      add\n        /* \"#utility.yul\":18452:18471   */\n      swap1\n      pop\n        /* \"#utility.yul\":18111:18477   */\n      swap2\n      swap1\n      pop\n      jump\t// out\n        /* \"#utility.yul\":18483:18902   */\n    tag_70:\n        /* \"#utility.yul\":18649:18653   */\n      0x00\n        /* \"#utility.yul\":18687:18689   */\n      0x20\n        /* \"#utility.yul\":18676:18685   */\n      dup3\n        /* \"#utility.yul\":18672:18690   */\n      add\n        /* \"#utility.yul\":18664:18690   */\n      swap1\n      pop\n        /* \"#utility.yul\":18736:18745   */\n      dup2\n        /* \"#utility.yul\":18730:18734   */\n      dup2\n        /* \"#utility.yul\":18726:18746   */\n      sub\n        /* \"#utility.yul\":18722:18723   */\n      0x00\n        /* \"#utility.yul\":18711:18720   */\n      dup4\n        /* \"#utility.yul\":18707:18724   */\n      add\n        /* \"#utility.yul\":18700:18747   */\n      mstore\n        /* \"#utility.yul\":18764:18895   */\n      tag_456\n        /* \"#utility.yul\":18890:18894   */\n      dup2\n        /* \"#utility.yul\":18764:18895   */\n      tag_247\n      jump\t// in\n    tag_456:\n        /* \"#utility.yul\":18756:18895   */\n      swap1\n      pop\n        /* \"#utility.yul\":18483:18902   */\n      swap2\n      swap1\n      pop\n      jump\t// out\n        /* \"#utility.yul\":18908:19005   */\n    tag_248:\n        /* \"#utility.yul\":18967:18973   */\n      0x00\n        /* \"#utility.yul\":18995:18998   */\n      dup3\n        /* \"#utility.yul\":18985:18998   */\n      swap1\n      pop\n        /* \"#utility.yul\":18908:19005   */\n      swap3\n      swap2\n      pop\n      pop\n      jump\t// out\n        /* \"#utility.yul\":19011:19191   */\n    tag_137:\n        /* \"#utility.yul\":19059:19136   */\n      0x4e487b7100000000000000000000000000000000000000000000000000000000\n        /* \"#utility.yul\":19056:19057   */\n      0x00\n        /* \"#utility.yul\":19049:19137   */\n      mstore\n        /* \"#utility.yul\":19156:19160   */\n      0x41\n        /* \"#utility.yul\":19153:19154   */\n      0x04\n        /* \"#utility.yul\":19146:19161   */\n      mstore\n        /* \"#utility.yul\":19180:19184   */\n      0x24\n        /* \"#utility.yul\":19177:19178   */\n      0x00\n        /* \"#utility.yul\":19170:19185   */\n      revert\n        /* \"#utility.yul\":19197:19338   */\n    tag_249:\n        /* \"#utility.yul\":19246:19250   */\n      0x00\n        /* \"#utility.yul\":19269:19272   */\n      dup2\n        /* \"#utility.yul\":19261:19272   */\n      swap1\n      pop\n        /* \"#utility.yul\":19292:19295   */\n      dup2\n        /* \"#utility.yul\":19289:19290   */\n      0x00\n        /* \"#utility.yul\":19282:19296   */\n      mstore\n        /* \"#utility.yul\":19326:19330   */\n      0x20\n        /* \"#utility.yul\":19323:19324   */\n      0x00\n        /* \"#utility.yul\":19313:19331   */\n      keccak256\n        /* \"#utility.yul\":19305:19331   */\n      swap1\n      pop\n        /* \"#utility.yul\":19197:19338   */\n      swap2\n      swap1\n      pop\n      jump\t// out\n        /* \"#utility.yul\":19344:19437   */\n    tag_250:\n        /* \"#utility.yul\":19381:19387   */\n      0x00\n        /* \"#utility.yul\":19428:19430   */\n      0x20\n        /* \"#utility.yul\":19423:19425   */\n      0x1f\n        /* \"#utility.yul\":19416:19421   */\n      dup4\n        /* \"#utility.yul\":19412:19426   */\n      add\n        /* \"#utility.yul\":19408:19431   */\n      div\n        /* \"#utility.yul\":19398:19431   */\n      swap1\n      pop\n        /* \"#utility.yul\":19344:19437   */\n      swap2\n      swap1\n      pop\n      jump\t// out\n        /* \"#utility.yul\":19443:19550   */\n    tag_251:\n        /* \"#utility.yul\":19487:19495   */\n      0x00\n        /* \"#utility.yul\":19537:19542   */\n      dup3\n        /* \"#utility.yul\":19531:19535   */\n      dup3\n        /* \"#utility.yul\":19527:19543   */\n      shl\n        /* \"#utility.yul\":19506:19543   */\n      swap1\n      pop\n        /* \"#utility.yul\":19443:19550   */\n      swap3\n      swap2\n      pop\n      pop\n      jump\t// out\n        /* \"#utility.yul\":19556:19949   */\n    tag_252:\n        /* \"#utility.yul\":19625:19631   */\n      0x00\n        /* \"#utility.yul\":19675:19676   */\n      0x08\n        /* \"#utility.yul\":19663:19673   */\n      dup4\n        /* \"#utility.yul\":19659:19677   */\n      mul\n        /* \"#utility.yul\":19698:19795   */\n      tag_463\n        /* \"#utility.yul\":19728:19794   */\n      0xffffffffffffffffffffffffffffffffffffffffffffffffffffffffffffffff\n        /* \"#utility.yul\":19717:19726   */\n      dup3\n        /* \"#utility.yul\":19698:19795   */\n      tag_251\n      jump\t// in\n    tag_463:\n        /* \"#utility.yul\":19816:19855   */\n      tag_464\n        /* \"#utility.yul\":19846:19854   */\n      dup7\n        /* \"#utility.yul\":19835:19844   */\n      dup4\n        /* \"#utility.yul\":19816:19855   */\n      tag_251\n      jump\t// in\n    tag_464:\n        /* \"#utility.yul\":19804:19855   */\n      swap6\n      pop\n        /* \"#utility.yul\":19888:19892   */\n      dup1\n        /* \"#utility.yul\":19884:19893   */\n      not\n        /* \"#utility.yul\":19877:19882   */\n      dup5\n        /* \"#utility.yul\":19873:19894   */\n      and\n        /* \"#utility.yul\":19864:19894   */\n      swap4\n      pop\n        /* \"#utility.yul\":19937:19941   */\n      dup1\n        /* \"#utility.yul\":19927:19935   */\n      dup7\n        /* \"#utility.yul\":19923:19942   */\n      and\n        /* \"#utility.yul\":19916:19921   */\n      dup5\n        /* \"#utility.yul\":19913:19943   */\n      or\n        /* \"#utility.yul\":19903:19943   */\n      swap3\n      pop\n        /* \"#utility.yul\":19632:19949   */\n      pop\n      pop\n        /* \"#utility.yul\":19556:19949   */\n      swap4\n      swap3\n      pop\n      pop\n      pop\n      jump\t// out\n        /* \"#utility.yul\":19955:20015   */\n    tag_253:\n        /* \"#utility.yul\":19983:19986   */\n      0x00\n        /* \"#utility.yul\":20004:20009   */\n      dup2\n        /* \"#utility.yul\":19997:20009   */\n      swap1\n      pop\n        /* \"#utility.yul\":19955:20015   */\n      swap2\n      swap1\n      pop\n      jump\t// out\n        /* \"#utility.yul\":20021:20163   */\n    tag_254:\n        /* \"#utility.yul\":20071:20080   */\n      0x00\n        /* \"#utility.yul\":20104:20157   */\n      tag_467\n        /* \"#utility.yul\":20122:20156   */\n      tag_468\n        /* \"#utility.yul\":20131:20155   */\n      tag_469\n        /* \"#utility.yul\":20149:20154   */\n      dup5\n        /* \"#utility.yul\":20131:20155   */\n      tag_200\n      jump\t// in\n    tag_469:\n        /* \"#utility.yul\":20122:20156   */\n      tag_253\n      jump\t// in\n    tag_468:\n        /* \"#utility.yul\":20104:20157   */\n      tag_200\n      jump\t// in\n    tag_467:\n        /* \"#utility.yul\":20091:20157   */\n      swap1\n      pop\n        /* \"#utility.yul\":20021:20163   */\n      swap2\n      swap1\n      pop\n      jump\t// out\n        /* \"#utility.yul\":20169:20244   */\n    tag_255:\n        /* \"#utility.yul\":20212:20215   */\n      0x00\n        /* \"#utility.yul\":20233:20238   */\n      dup2\n        /* \"#utility.yul\":20226:20238   */\n      swap1\n      pop\n        /* \"#utility.yul\":20169:20244   */\n      swap2\n      swap1\n      pop\n      jump\t// out\n        /* \"#utility.yul\":20250:20519   */\n    tag_256:\n        /* \"#utility.yul\":20360:20399   */\n      tag_472\n        /* \"#utility.yul\":20391:20398   */\n      dup4\n        /* \"#utility.yul\":20360:20399   */\n      tag_254\n      jump\t// in\n    tag_472:\n        /* \"#utility.yul\":20421:20512   */\n      tag_473\n        /* \"#utility.yul\":20470:20511   */\n      tag_474\n        /* \"#utility.yul\":20494:20510   */\n      dup3\n        /* \"#utility.yul\":20470:20511   */\n      tag_255\n      jump\t// in\n    tag_474:\n        /* \"#utility.yul\":20462:20468   */\n      dup5\n        /* \"#utility.yul\":20455:20459   */\n      dup5\n        /* \"#utility.yul\":20449:20460   */\n      sload\n        /* \"#utility.yul\":20421:20512   */\n      tag_252\n      jump\t// in\n    tag_473:\n        /* \"#utility.yul\":20415:20419   */\n      dup3\n        /* \"#utility.yul\":20408:20513   */\n      sstore\n        /* \"#utility.yul\":20326:20519   */\n      pop\n        /* \"#utility.yul\":20250:20519   */\n      pop\n      pop\n      pop\n      jump\t// out\n        /* \"#utility.yul\":20525:20598   */\n    tag_257:\n        /* \"#utility.yul\":20570:20573   */\n      0x00\n        /* \"#utility.yul\":20525:20598   */\n      swap1\n      jump\t// out\n        /* \"#utility.yul\":20604:20793   */\n    tag_258:\n        /* \"#utility.yul\":20681:20713   */\n      tag_477\n      tag_257\n      jump\t// in\n    tag_477:\n        /* \"#utility.yul\":20722:20787   */\n      tag_478\n        /* \"#utility.yul\":20780:20786   */\n      dup2\n        /* \"#utility.yul\":20772:20778   */\n      dup5\n        /* \"#utility.yul\":20766:20770   */\n      dup5\n        /* \"#utility.yul\":20722:20787   */\n      tag_256\n      jump\t// in\n    tag_478:\n        /* \"#utility.yul\":20657:20793   */\n      pop\n        /* \"#utility.yul\":20604:20793   */\n      pop\n      pop\n      jump\t// out\n        /* \"#utility.yul\":20799:20985   */\n    tag_259:\n        /* \"#utility.yul\":20859:20979   */\n    tag_480:\n        /* \"#utility.yul\":20876:20879   */\n      dup2\n        /* \"#utility.yul\":20869:20874   */\n      dup2\n        /* \"#utility.yul\":20866:20880   */\n      lt\n        /* \"#utility.yul\":20859:20979   */\n      iszero\n      tag_482\n      jumpi\n        /* \"#utility.yul\":20930:20969   */\n      tag_483\n        /* \"#utility.yul\":20967:20968   */\n      0x00\n        /* \"#utility.yul\":20960:20965   */\n      dup3\n        /* \"#utility.yul\":20930:20969   */\n      tag_258\n      jump\t// in\n    tag_483:\n        /* \"#utility.yul\":20903:20904   */\n      0x01\n        /* \"#utility.yul\":20896:20901   */\n      dup2\n        /* \"#utility.yul\":20892:20905   */\n      add\n        /* \"#utility.yul\":20883:20905   */\n      swap1\n      pop\n        /* \"#utility.yul\":20859:20979   */\n      jump(tag_480)\n    tag_482:\n        /* \"#utility.yul\":20799:20985   */\n      pop\n      pop\n      jump\t// out\n        /* \"#utility.yul\":20991:21534   */\n    tag_260:\n        /* \"#utility.yul\":21092:21094   */\n      0x1f\n        /* \"#utility.yul\":21087:21090   */\n      dup3\n        /* \"#utility.yul\":21084:21095   */\n      gt\n        /* \"#utility.yul\":21081:21527   */\n      iszero\n      tag_485\n      jumpi\n        /* \"#utility.yul\":21126:21164   */\n      tag_486\n        /* \"#utility.yul\":21158:21163   */\n      dup2\n        /* \"#utility.yul\":21126:21164   */\n      tag_249\n      jump\t// in\n    tag_486:\n        /* \"#utility.yul\":21210:21239   */\n      tag_487\n        /* \"#utility.yul\":21228:21238   */\n      dup5\n        /* \"#utility.yul\":21210:21239   */\n      tag_250\n      jump\t// in\n    tag_487:\n        /* \"#utility.yul\":21200:21208   */\n      dup2\n        /* \"#utility.yul\":21196:21240   */\n      add\n        /* \"#utility.yul\":21393:21395   */\n      0x20\n        /* \"#utility.yul\":21381:21391   */\n      dup6\n        /* \"#utility.yul\":21378:21396   */\n      lt\n        /* \"#utility.yul\":21375:21424   */\n      iszero\n      tag_488\n      jumpi\n        /* \"#utility.yul\":21414:21422   */\n      dup2\n        /* \"#utility.yul\":21399:21422   */\n      swap1\n      pop\n        /* \"#utility.yul\":21375:21424   */\n    tag_488:\n        /* \"#utility.yul\":21437:21517   */\n      tag_489\n        /* \"#utility.yul\":21493:21515   */\n      tag_490\n        /* \"#utility.yul\":21511:21514   */\n      dup6\n        /* \"#utility.yul\":21493:21515   */\n      tag_250\n      jump\t// in\n    tag_490:\n        /* \"#utility.yul\":21483:21491   */\n      dup4\n        /* \"#utility.yul\":21479:21516   */\n      add\n        /* \"#utility.yul\":21466:21477   */\n      dup3\n        /* \"#utility.yul\":21437:21517   */\n      tag_259\n      jump\t// in\n    tag_489:\n        /* \"#utility.yul\":21096:21527   */\n      pop\n      pop\n        /* \"#utility.yul\":21081:21527   */\n    tag_485:\n        /* \"#utility.yul\":20991:21534   */\n      pop\n      pop\n      pop\n      jump\t// out\n        /* \"#utility.yul\":21540:21657   */\n    tag_261:\n        /* \"#utility.yul\":21594:21602   */\n      0x00\n        /* \"#utility.yul\":21644:21649   */\n      dup3\n        /* \"#utility.yul\":21638:21642   */\n      dup3\n        /* \"#utility.yul\":21634:21650   */\n      shr\n        /* \"#utility.yul\":21613:21650   */\n      swap1\n      pop\n        /* \"#utility.yul\":21540:21657   */\n      swap3\n      swap2\n      pop\n      pop\n      jump\t// out\n        /* \"#utility.yul\":21663:21832   */\n    tag_262:\n        /* \"#utility.yul\":21707:21713   */\n      0x00\n        /* \"#utility.yul\":21740:21791   */\n      tag_493\n        /* \"#utility.yul\":21788:21789   */\n      0x00\n        /* \"#utility.yul\":21784:21790   */\n      not\n        /* \"#utility.yul\":21776:21781   */\n      dup5\n        /* \"#utility.yul\":21773:21774   */\n      0x08\n        /* \"#utility.yul\":21769:21782   */\n      mul\n        /* \"#utility.yul\":21740:21791   */\n      tag_261\n      jump\t// in\n    tag_493:\n        /* \"#utility.yul\":21736:21792   */\n      not\n        /* \"#utility.yul\":21821:21825   */\n      dup1\n        /* \"#utility.yul\":21815:21819   */\n      dup4\n        /* \"#utility.yul\":21811:21826   */\n      and\n        /* \"#utility.yul\":21801:21826   */\n      swap2\n      pop\n        /* \"#utility.yul\":21714:21832   */\n      pop\n        /* \"#utility.yul\":21663:21832   */\n      swap3\n      swap2\n      pop\n      pop\n      jump\t// out\n        /* \"#utility.yul\":21837:22132   */\n    tag_263:\n        /* \"#utility.yul\":21913:21917   */\n      0x00\n        /* \"#utility.yul\":22059:22088   */\n      tag_495\n        /* \"#utility.yul\":22084:22087   */\n      dup4\n        /* \"#utility.yul\":22078:22082   */\n      dup4\n        /* \"#utility.yul\":22059:22088   */\n      tag_262\n      jump\t// in\n    tag_495:\n        /* \"#utility.yul\":22051:22088   */\n      swap2\n      pop\n        /* \"#utility.yul\":22121:22124   */\n      dup3\n        /* \"#utility.yul\":22118:22119   */\n      0x02\n        /* \"#utility.yul\":22114:22125   */\n      mul\n        /* \"#utility.yul\":22108:22112   */\n      dup3\n        /* \"#utility.yul\":22105:22126   */\n      or\n        /* \"#utility.yul\":22097:22126   */\n      swap1\n      pop\n        /* \"#utility.yul\":21837:22132   */\n      swap3\n      swap2\n      pop\n      pop\n      jump\t// out\n        /* \"#utility.yul\":22137:23540   */\n    tag_73:\n        /* \"#utility.yul\":22261:22305   */\n      tag_497\n        /* \"#utility.yul\":22301:22304   */\n      dup4\n        /* \"#utility.yul\":22296:22299   */\n      dup4\n        /* \"#utility.yul\":22261:22305   */\n      tag_248\n      jump\t// in\n    tag_497:\n        /* \"#utility.yul\":22370:22388   */\n      0xffffffffffffffff\n        /* \"#utility.yul\":22362:22368   */\n      dup2\n        /* \"#utility.yul\":22359:22389   */\n      gt\n        /* \"#utility.yul\":22356:22412   */\n      iszero\n      tag_498\n      jumpi\n        /* \"#utility.yul\":22392:22410   */\n      tag_499\n      tag_137\n      jump\t// in\n    tag_499:\n        /* \"#utility.yul\":22356:22412   */\n    tag_498:\n        /* \"#utility.yul\":22436:22474   */\n      tag_500\n        /* \"#utility.yul\":22468:22472   */\n      dup3\n        /* \"#utility.yul\":22462:22473   */\n      sload\n        /* \"#utility.yul\":22436:22474   */\n      tag_51\n      jump\t// in\n    tag_500:\n        /* \"#utility.yul\":22521:22588   */\n      tag_501\n        /* \"#utility.yul\":22581:22587   */\n      dup3\n        /* \"#utility.yul\":22573:22579   */\n      dup3\n        /* \"#utility.yul\":22567:22571   */\n      dup6\n        /* \"#utility.yul\":22521:22588   */\n      tag_260\n      jump\t// in\n    tag_501:\n        /* \"#utility.yul\":22615:22616   */\n      0x00\n        /* \"#utility.yul\":22644:22646   */\n      0x1f\n        /* \"#utility.yul\":22636:22642   */\n      dup4\n        /* \"#utility.yul\":22633:22647   */\n      gt\n        /* \"#utility.yul\":22661:22662   */\n      0x01\n        /* \"#utility.yul\":22656:23288   */\n      dup2\n      eq\n      tag_503\n      jumpi\n        /* \"#utility.yul\":23332:23333   */\n      0x00\n        /* \"#utility.yul\":23349:23355   */\n      dup5\n        /* \"#utility.yul\":23346:23430   */\n      iszero\n      tag_504\n      jumpi\n        /* \"#utility.yul\":23405:23414   */\n      dup3\n        /* \"#utility.yul\":23400:23403   */\n      dup8\n        /* \"#utility.yul\":23396:23415   */\n      add\n        /* \"#utility.yul\":23383:23416   */\n      calldataload\n        /* \"#utility.yul\":23374:23416   */\n      swap1\n      pop\n        /* \"#utility.yul\":23346:23430   */\n    tag_504:\n        /* \"#utility.yul\":23456:23523   */\n      tag_505\n        /* \"#utility.yul\":23516:23522   */\n      dup6\n        /* \"#utility.yul\":23509:23514   */\n      dup3\n        /* \"#utility.yul\":23456:23523   */\n      tag_263\n      jump\t// in\n    tag_505:\n        /* \"#utility.yul\":23450:23454   */\n      dup7\n        /* \"#utility.yul\":23443:23524   */\n      sstore\n        /* \"#utility.yul\":23305:23534   */\n      pop\n        /* \"#utility.yul\":22626:23534   */\n      jump(tag_502)\n        /* \"#utility.yul\":22656:23288   */\n    tag_503:\n        /* \"#utility.yul\":22708:22712   */\n      0x1f\n        /* \"#utility.yul\":22704:22713   */\n      not\n        /* \"#utility.yul\":22696:22702   */\n      dup5\n        /* \"#utility.yul\":22692:22714   */\n      and\n        /* \"#utility.yul\":22742:22779   */\n      tag_506\n        /* \"#utility.yul\":22774:22778   */\n      dup7\n        /* \"#utility.yul\":22742:22779   */\n      tag_249\n      jump\t// in\n    tag_506:\n        /* \"#utility.yul\":22801:22802   */\n      0x00\n        /* \"#utility.yul\":22815:23030   */\n    tag_507:\n        /* \"#utility.yul\":22829:22836   */\n      dup3\n        /* \"#utility.yul\":22826:22827   */\n      dup2\n        /* \"#utility.yul\":22823:22837   */\n      lt\n        /* \"#utility.yul\":22815:23030   */\n      iszero\n      tag_509\n      jumpi\n        /* \"#utility.yul\":22915:22924   */\n      dup5\n        /* \"#utility.yul\":22910:22913   */\n      dup10\n        /* \"#utility.yul\":22906:22925   */\n      add\n        /* \"#utility.yul\":22893:22926   */\n      calldataload\n        /* \"#utility.yul\":22885:22891   */\n      dup3\n        /* \"#utility.yul\":22878:22927   */\n      sstore\n        /* \"#utility.yul\":22966:22967   */\n      0x01\n        /* \"#utility.yul\":22958:22964   */\n      dup3\n        /* \"#utility.yul\":22954:22968   */\n      add\n        /* \"#utility.yul\":22944:22968   */\n      swap2\n      pop\n        /* \"#utility.yul\":23013:23015   */\n      0x20\n        /* \"#utility.yul\":23002:23011   */\n      dup6\n        /* \"#utility.yul\":22998:23016   */\n      add\n        /* \"#utility.yul\":22985:23016   */\n      swap5\n      pop\n        /* \"#utility.yul\":22852:22856   */\n      0x20\n        /* \"#utility.yul\":22849:22850   */\n      dup2\n        /* \"#utility.yul\":22845:22857   */\n      add\n        /* \"#utility.yul\":22840:22857   */\n      swap1\n      pop\n        /* \"#utility.yul\":22815:23030   */\n      jump(tag_507)\n    tag_509:\n        /* \"#utility.yul\":23058:23064   */\n      dup7\n        /* \"#utility.yul\":23049:23056   */\n      dup4\n        /* \"#utility.yul\":23046:23065   */\n      lt\n        /* \"#utility.yul\":23043:23229   */\n      iszero\n      tag_510\n      jumpi\n        /* \"#utility.yul\":23123:23132   */\n      dup5\n        /* \"#utility.yul\":23118:23121   */\n      dup10\n        /* \"#utility.yul\":23114:23133   */\n      add\n        /* \"#utility.yul\":23101:23134   */\n      calldataload\n        /* \"#utility.yul\":23166:23214   */\n      tag_511\n        /* \"#utility.yul\":23208:23212   */\n      0x1f\n        /* \"#utility.yul\":23200:23206   */\n      dup10\n        /* \"#utility.yul\":23196:23213   */\n      and\n        /* \"#utility.yul\":23185:23194   */\n      dup3\n        /* \"#utility.yul\":23166:23214   */\n      tag_262\n      jump\t// in\n    tag_511:\n        /* \"#utility.yul\":23158:23164   */\n      dup4\n        /* \"#utility.yul\":23151:23215   */\n      sstore\n        /* \"#utility.yul\":23066:23229   */\n      pop\n        /* \"#utility.yul\":23043:23229   */\n    tag_510:\n        /* \"#utility.yul\":23275:23276   */\n      0x01\n        /* \"#utility.yul\":23271:23272   */\n      0x02\n        /* \"#utility.yul\":23263:23269   */\n      dup9\n        /* \"#utility.yul\":23259:23273   */\n      mul\n        /* \"#utility.yul\":23255:23277   */\n      add\n        /* \"#utility.yul\":23249:23253   */\n      dup9\n        /* \"#utility.yul\":23242:23278   */\n      sstore\n        /* \"#utility.yul\":22663:23288   */\n      pop\n      pop\n      pop\n        /* \"#utility.yul\":22626:23534   */\n    tag_502:\n      pop\n        /* \"#utility.yul\":22236:23540   */\n      pop\n      pop\n      pop\n        /* \"#utility.yul\":22137:23540   */\n      pop\n      pop\n      pop\n      jump\t// out\n        /* \"#utility.yul\":23546:23784   */\n    tag_264:\n        /* \"#utility.yul\":23686:23720   */\n      0x536f6c6f20656c2070726f706965746172696f2064656c20746f6b656e207075\n        /* \"#utility.yul\":23682:23683   */\n      0x00\n        /* \"#utility.yul\":23674:23680   */\n      dup3\n        /* \"#utility.yul\":23670:23684   */\n      add\n        /* \"#utility.yul\":23663:23721   */\n      mstore\n        /* \"#utility.yul\":23755:23776   */\n      0x65646520626f7272617220656c20746f6b656e00000000000000000000000000\n        /* \"#utility.yul\":23750:23752   */\n      0x20\n        /* \"#utility.yul\":23742:23748   */\n      dup3\n        /* \"#utility.yul\":23738:23753   */\n      add\n        /* \"#utility.yul\":23731:23777   */\n      mstore\n        /* \"#utility.yul\":23546:23784   */\n      pop\n      jump\t// out\n        /* \"#utility.yul\":23790:24156   */\n    tag_265:\n        /* \"#utility.yul\":23932:23935   */\n      0x00\n        /* \"#utility.yul\":23953:24020   */\n      tag_514\n        /* \"#utility.yul\":24017:24019   */\n      0x33\n        /* \"#utility.yul\":24012:24015   */\n      dup4\n        /* \"#utility.yul\":23953:24020   */\n      tag_208\n      jump\t// in\n    tag_514:\n        /* \"#utility.yul\":23946:24020   */\n      swap2\n      pop\n        /* \"#utility.yul\":24029:24122   */\n      tag_515\n        /* \"#utility.yul\":24118:24121   */\n      dup3\n        /* \"#utility.yul\":24029:24122   */\n      tag_264\n      jump\t// in\n    tag_515:\n        /* \"#utility.yul\":24147:24149   */\n      0x40\n        /* \"#utility.yul\":24142:24145   */\n      dup3\n        /* \"#utility.yul\":24138:24150   */\n      add\n        /* \"#utility.yul\":24131:24150   */\n      swap1\n      pop\n        /* \"#utility.yul\":23790:24156   */\n      swap2\n      swap1\n      pop\n      jump\t// out\n        /* \"#utility.yul\":24162:24581   */\n    tag_93:\n        /* \"#utility.yul\":24328:24332   */\n      0x00\n        /* \"#utility.yul\":24366:24368   */\n      0x20\n        /* \"#utility.yul\":24355:24364   */\n      dup3\n        /* \"#utility.yul\":24351:24369   */\n      add\n        /* \"#utility.yul\":24343:24369   */\n      swap1\n      pop\n        /* \"#utility.yul\":24415:24424   */\n      dup2\n        /* \"#utility.yul\":24409:24413   */\n      dup2\n        /* \"#utility.yul\":24405:24425   */\n      sub\n        /* \"#utility.yul\":24401:24402   */\n      0x00\n        /* \"#utility.yul\":24390:24399   */\n      dup4\n        /* \"#utility.yul\":24386:24403   */\n      add\n        /* \"#utility.yul\":24379:24426   */\n      mstore\n        /* \"#utility.yul\":24443:24574   */\n      tag_517\n        /* \"#utility.yul\":24569:24573   */\n      dup2\n        /* \"#utility.yul\":24443:24574   */\n      tag_265\n      jump\t// in\n    tag_517:\n        /* \"#utility.yul\":24435:24574   */\n      swap1\n      pop\n        /* \"#utility.yul\":24162:24581   */\n      swap2\n      swap1\n      pop\n      jump\t// out\n        /* \"#utility.yul\":24587:24758   */\n    tag_101:\n        /* \"#utility.yul\":24626:24629   */\n      0x00\n        /* \"#utility.yul\":24649:24673   */\n      tag_519\n        /* \"#utility.yul\":24667:24672   */\n      dup3\n        /* \"#utility.yul\":24649:24673   */\n      tag_200\n      jump\t// in\n    tag_519:\n        /* \"#utility.yul\":24640:24673   */\n      swap2\n      pop\n        /* \"#utility.yul\":24695:24699   */\n      0x00\n        /* \"#utility.yul\":24688:24693   */\n      dup3\n        /* \"#utility.yul\":24685:24700   */\n      sub\n        /* \"#utility.yul\":24682:24723   */\n      tag_520\n      jumpi\n        /* \"#utility.yul\":24703:24721   */\n      tag_521\n      tag_242\n      jump\t// in\n    tag_521:\n        /* \"#utility.yul\":24682:24723   */\n    tag_520:\n        /* \"#utility.yul\":24750:24751   */\n      0x01\n        /* \"#utility.yul\":24743:24748   */\n      dup3\n        /* \"#utility.yul\":24739:24752   */\n      sub\n        /* \"#utility.yul\":24732:24752   */\n      swap1\n      pop\n        /* \"#utility.yul\":24587:24758   */\n      swap2\n      swap1\n      pop\n      jump\t// out\n        /* \"#utility.yul\":24764:25069   */\n    tag_266:\n        /* \"#utility.yul\":24904:24938   */\n      0x536f6c6f207075656465732072656369626972206c6f732070726f6669747320\n        /* \"#utility.yul\":24900:24901   */\n      0x00\n        /* \"#utility.yul\":24892:24898   */\n      dup3\n        /* \"#utility.yul\":24888:24902   */\n      add\n        /* \"#utility.yul\":24881:24939   */\n      mstore\n        /* \"#utility.yul\":24973:25007   */\n      0x6465206573746520636f6e747261746f207369206572657320656c2070726f70\n        /* \"#utility.yul\":24968:24970   */\n      0x20\n        /* \"#utility.yul\":24960:24966   */\n      dup3\n        /* \"#utility.yul\":24956:24971   */\n      add\n        /* \"#utility.yul\":24949:25008   */\n      mstore\n        /* \"#utility.yul\":25042:25061   */\n      0x6965746172696f2064656c206d69736d6f000000000000000000000000000000\n        /* \"#utility.yul\":25037:25039   */\n      0x40\n        /* \"#utility.yul\":25029:25035   */\n      dup3\n        /* \"#utility.yul\":25025:25040   */\n      add\n        /* \"#utility.yul\":25018:25062   */\n      mstore\n        /* \"#utility.yul\":24764:25069   */\n      pop\n      jump\t// out\n        /* \"#utility.yul\":25075:25441   */\n    tag_267:\n        /* \"#utility.yul\":25217:25220   */\n      0x00\n        /* \"#utility.yul\":25238:25305   */\n      tag_524\n        /* \"#utility.yul\":25302:25304   */\n      0x51\n        /* \"#utility.yul\":25297:25300   */\n      dup4\n        /* \"#utility.yul\":25238:25305   */\n      tag_208\n      jump\t// in\n    tag_524:\n        /* \"#utility.yul\":25231:25305   */\n      swap2\n      pop\n        /* \"#utility.yul\":25314:25407   */\n      tag_525\n        /* \"#utility.yul\":25403:25406   */\n      dup3\n        /* \"#utility.yul\":25314:25407   */\n      tag_266\n      jump\t// in\n    tag_525:\n        /* \"#utility.yul\":25432:25434   */\n      0x60\n        /* \"#utility.yul\":25427:25430   */\n      dup3\n        /* \"#utility.yul\":25423:25435   */\n      add\n        /* \"#utility.yul\":25416:25435   */\n      swap1\n      pop\n        /* \"#utility.yul\":25075:25441   */\n      swap2\n      swap1\n      pop\n      jump\t// out\n        /* \"#utility.yul\":25447:25866   */\n    tag_107:\n        /* \"#utility.yul\":25613:25617   */\n      0x00\n        /* \"#utility.yul\":25651:25653   */\n      0x20\n        /* \"#utility.yul\":25640:25649   */\n      dup3\n        /* \"#utility.yul\":25636:25654   */\n      add\n        /* \"#utility.yul\":25628:25654   */\n      swap1\n      pop\n        /* \"#utility.yul\":25700:25709   */\n      dup2\n        /* \"#utility.yul\":25694:25698   */\n      dup2\n        /* \"#utility.yul\":25690:25710   */\n      sub\n        /* \"#utility.yul\":25686:25687   */\n      0x00\n        /* \"#utility.yul\":25675:25684   */\n      dup4\n        /* \"#utility.yul\":25671:25688   */\n      add\n        /* \"#utility.yul\":25664:25711   */\n      mstore\n        /* \"#utility.yul\":25728:25859   */\n      tag_527\n        /* \"#utility.yul\":25854:25858   */\n      dup2\n        /* \"#utility.yul\":25728:25859   */\n      tag_267\n      jump\t// in\n    tag_527:\n        /* \"#utility.yul\":25720:25859   */\n      swap1\n      pop\n        /* \"#utility.yul\":25447:25866   */\n      swap2\n      swap1\n      pop\n      jump\t// out\n        /* \"#utility.yul\":25872:26066   */\n    tag_110:\n        /* \"#utility.yul\":25912:25916   */\n      0x00\n        /* \"#utility.yul\":25932:25952   */\n      tag_529\n        /* \"#utility.yul\":25950:25951   */\n      dup3\n        /* \"#utility.yul\":25932:25952   */\n      tag_200\n      jump\t// in\n    tag_529:\n        /* \"#utility.yul\":25927:25952   */\n      swap2\n      pop\n        /* \"#utility.yul\":25966:25986   */\n      tag_530\n        /* \"#utility.yul\":25984:25985   */\n      dup4\n        /* \"#utility.yul\":25966:25986   */\n      tag_200\n      jump\t// in\n    tag_530:\n        /* \"#utility.yul\":25961:25986   */\n      swap3\n      pop\n        /* \"#utility.yul\":26010:26011   */\n      dup3\n        /* \"#utility.yul\":26007:26008   */\n      dup3\n        /* \"#utility.yul\":26003:26012   */\n      sub\n        /* \"#utility.yul\":25995:26012   */\n      swap1\n      pop\n        /* \"#utility.yul\":26034:26035   */\n      dup2\n        /* \"#utility.yul\":26028:26032   */\n      dup2\n        /* \"#utility.yul\":26025:26036   */\n      gt\n        /* \"#utility.yul\":26022:26059   */\n      iszero\n      tag_531\n      jumpi\n        /* \"#utility.yul\":26039:26057   */\n      tag_532\n      tag_242\n      jump\t// in\n    tag_532:\n        /* \"#utility.yul\":26022:26059   */\n    tag_531:\n        /* \"#utility.yul\":25872:26066   */\n      swap3\n      swap2\n      pop\n      pop\n      jump\t// out\n        /* \"#utility.yul\":26072:26252   */\n    tag_268:\n        /* \"#utility.yul\":26212:26244   */\n      0x4e6f206861792062656e65666963696f732070617261207265636f6765720000\n        /* \"#utility.yul\":26208:26209   */\n      0x00\n        /* \"#utility.yul\":26200:26206   */\n      dup3\n        /* \"#utility.yul\":26196:26210   */\n      add\n        /* \"#utility.yul\":26189:26245   */\n      mstore\n        /* \"#utility.yul\":26072:26252   */\n      pop\n      jump\t// out\n        /* \"#utility.yul\":26258:26624   */\n    tag_269:\n        /* \"#utility.yul\":26400:26403   */\n      0x00\n        /* \"#utility.yul\":26421:26488   */\n      tag_535\n        /* \"#utility.yul\":26485:26487   */\n      0x1e\n        /* \"#utility.yul\":26480:26483   */\n      dup4\n        /* \"#utility.yul\":26421:26488   */\n      tag_208\n      jump\t// in\n    tag_535:\n        /* \"#utility.yul\":26414:26488   */\n      swap2\n      pop\n        /* \"#utility.yul\":26497:26590   */\n      tag_536\n        /* \"#utility.yul\":26586:26589   */\n      dup3\n        /* \"#utility.yul\":26497:26590   */\n      tag_268\n      jump\t// in\n    tag_536:\n        /* \"#utility.yul\":26615:26617   */\n      0x20\n        /* \"#utility.yul\":26610:26613   */\n      dup3\n        /* \"#utility.yul\":26606:26618   */\n      add\n        /* \"#utility.yul\":26599:26618   */\n      swap1\n      pop\n        /* \"#utility.yul\":26258:26624   */\n      swap2\n      swap1\n      pop\n      jump\t// out\n        /* \"#utility.yul\":26630:27049   */\n    tag_113:\n        /* \"#utility.yul\":26796:26800   */\n      0x00\n        /* \"#utility.yul\":26834:26836   */\n      0x20\n        /* \"#utility.yul\":26823:26832   */\n      dup3\n        /* \"#utility.yul\":26819:26837   */\n      add\n        /* \"#utility.yul\":26811:26837   */\n      swap1\n      pop\n        /* \"#utility.yul\":26883:26892   */\n      dup2\n        /* \"#utility.yul\":26877:26881   */\n      dup2\n        /* \"#utility.yul\":26873:26893   */\n      sub\n        /* \"#utility.yul\":26869:26870   */\n      0x00\n        /* \"#utility.yul\":26858:26867   */\n      dup4\n        /* \"#utility.yul\":26854:26871   */\n      add\n        /* \"#utility.yul\":26847:26894   */\n      mstore\n        /* \"#utility.yul\":26911:27042   */\n      tag_538\n        /* \"#utility.yul\":27037:27041   */\n      dup2\n        /* \"#utility.yul\":26911:27042   */\n      tag_269\n      jump\t// in\n    tag_538:\n        /* \"#utility.yul\":26903:27042   */\n      swap1\n      pop\n        /* \"#utility.yul\":26630:27049   */\n      swap2\n      swap1\n      pop\n      jump\t// out\n        /* \"#utility.yul\":27055:27299   */\n    tag_270:\n        /* \"#utility.yul\":27195:27229   */\n      0x536f6c6f20656c2070726f706965746172696f2064656c20746f6b656e207075\n        /* \"#utility.yul\":27191:27192   */\n      0x00\n        /* \"#utility.yul\":27183:27189   */\n      dup3\n        /* \"#utility.yul\":27179:27193   */\n      add\n        /* \"#utility.yul\":27172:27230   */\n      mstore\n        /* \"#utility.yul\":27264:27291   */\n      0x65646520656a656375746172206573746120616363696f6e2e00000000000000\n        /* \"#utility.yul\":27259:27261   */\n      0x20\n        /* \"#utility.yul\":27251:27257   */\n      dup3\n        /* \"#utility.yul\":27247:27262   */\n      add\n        /* \"#utility.yul\":27240:27292   */\n      mstore\n        /* \"#utility.yul\":27055:27299   */\n      pop\n      jump\t// out\n        /* \"#utility.yul\":27305:27671   */\n    tag_271:\n        /* \"#utility.yul\":27447:27450   */\n      0x00\n        /* \"#utility.yul\":27468:27535   */\n      tag_541\n        /* \"#utility.yul\":27532:27534   */\n      0x39\n        /* \"#utility.yul\":27527:27530   */\n      dup4\n        /* \"#utility.yul\":27468:27535   */\n      tag_208\n      jump\t// in\n    tag_541:\n        /* \"#utility.yul\":27461:27535   */\n      swap2\n      pop\n        /* \"#utility.yul\":27544:27637   */\n      tag_542\n        /* \"#utility.yul\":27633:27636   */\n      dup3\n        /* \"#utility.yul\":27544:27637   */\n      tag_270\n      jump\t// in\n    tag_542:\n        /* \"#utility.yul\":27662:27664   */\n      0x40\n        /* \"#utility.yul\":27657:27660   */\n      dup3\n        /* \"#utility.yul\":27653:27665   */\n      add\n        /* \"#utility.yul\":27646:27665   */\n      swap1\n      pop\n        /* \"#utility.yul\":27305:27671   */\n      swap2\n      swap1\n      pop\n      jump\t// out\n        /* \"#utility.yul\":27677:28096   */\n    tag_119:\n        /* \"#utility.yul\":27843:27847   */\n      0x00\n        /* \"#utility.yul\":27881:27883   */\n      0x20\n        /* \"#utility.yul\":27870:27879   */\n      dup3\n        /* \"#utility.yul\":27866:27884   */\n      add\n        /* \"#utility.yul\":27858:27884   */\n      swap1\n      pop\n        /* \"#utility.yul\":27930:27939   */\n      dup2\n        /* \"#utility.yul\":27924:27928   */\n      dup2\n        /* \"#utility.yul\":27920:27940   */\n      sub\n        /* \"#utility.yul\":27916:27917   */\n      0x00\n        /* \"#utility.yul\":27905:27914   */\n      dup4\n        /* \"#utility.yul\":27901:27918   */\n      add\n        /* \"#utility.yul\":27894:27941   */\n      mstore\n        /* \"#utility.yul\":27958:28089   */\n      tag_544\n        /* \"#utility.yul\":28084:28088   */\n      dup2\n        /* \"#utility.yul\":27958:28089   */\n      tag_271\n      jump\t// in\n    tag_544:\n        /* \"#utility.yul\":27950:28089   */\n      swap1\n      pop\n        /* \"#utility.yul\":27677:28096   */\n      swap2\n      swap1\n      pop\n      jump\t// out\n        /* \"#utility.yul\":28102:28373   */\n    tag_121:\n        /* \"#utility.yul\":28140:28147   */\n      0x00\n        /* \"#utility.yul\":28163:28181   */\n      tag_546\n        /* \"#utility.yul\":28179:28180   */\n      dup3\n        /* \"#utility.yul\":28163:28181   */\n      tag_231\n      jump\t// in\n    tag_546:\n        /* \"#utility.yul\":28158:28181   */\n      swap2\n      pop\n        /* \"#utility.yul\":28195:28213   */\n      tag_547\n        /* \"#utility.yul\":28211:28212   */\n      dup4\n        /* \"#utility.yul\":28195:28213   */\n      tag_231\n      jump\t// in\n    tag_547:\n        /* \"#utility.yul\":28190:28213   */\n      swap3\n      pop\n        /* \"#utility.yul\":28248:28249   */\n      dup3\n        /* \"#utility.yul\":28245:28246   */\n      dup3\n        /* \"#utility.yul\":28241:28250   */\n      mul\n        /* \"#utility.yul\":28270:28298   */\n      tag_548\n        /* \"#utility.yul\":28286:28297   */\n      dup2\n        /* \"#utility.yul\":28270:28298   */\n      tag_231\n      jump\t// in\n    tag_548:\n        /* \"#utility.yul\":28259:28298   */\n      swap2\n      pop\n        /* \"#utility.yul\":28330:28341   */\n      dup1\n        /* \"#utility.yul\":28321:28328   */\n      dup3\n        /* \"#utility.yul\":28318:28342   */\n      eq\n        /* \"#utility.yul\":28308:28366   */\n      tag_549\n      jumpi\n        /* \"#utility.yul\":28346:28364   */\n      tag_550\n      tag_242\n      jump\t// in\n    tag_550:\n        /* \"#utility.yul\":28308:28366   */\n    tag_549:\n        /* \"#utility.yul\":28148:28373   */\n      pop\n        /* \"#utility.yul\":28102:28373   */\n      swap3\n      swap2\n      pop\n      pop\n      jump\t// out\n        /* \"#utility.yul\":28379:28671   */\n    tag_272:\n        /* \"#utility.yul\":28519:28553   */\n      0x4e6f207469656e657320737566696369656e7465732077656973207061726120\n        /* \"#utility.yul\":28515:28516   */\n      0x00\n        /* \"#utility.yul\":28507:28513   */\n      dup3\n        /* \"#utility.yul\":28503:28517   */\n      add\n        /* \"#utility.yul\":28496:28554   */\n      mstore\n        /* \"#utility.yul\":28588:28622   */\n      0x696e6372656d656e746172206c6120706f74656e636961206465207475732061\n        /* \"#utility.yul\":28583:28585   */\n      0x20\n        /* \"#utility.yul\":28575:28581   */\n      dup3\n        /* \"#utility.yul\":28571:28586   */\n      add\n        /* \"#utility.yul\":28564:28623   */\n      mstore\n        /* \"#utility.yul\":28657:28663   */\n      0x726d617300000000000000000000000000000000000000000000000000000000\n        /* \"#utility.yul\":28652:28654   */\n      0x40\n        /* \"#utility.yul\":28644:28650   */\n      dup3\n        /* \"#utility.yul\":28640:28655   */\n      add\n        /* \"#utility.yul\":28633:28664   */\n      mstore\n        /* \"#utility.yul\":28379:28671   */\n      pop\n      jump\t// out\n        /* \"#utility.yul\":28677:29043   */\n    tag_273:\n        /* \"#utility.yul\":28819:28822   */\n      0x00\n        /* \"#utility.yul\":28840:28907   */\n      tag_553\n        /* \"#utility.yul\":28904:28906   */\n      0x44\n        /* \"#utility.yul\":28899:28902   */\n      dup4\n        /* \"#utility.yul\":28840:28907   */\n      tag_208\n      jump\t// in\n    tag_553:\n        /* \"#utility.yul\":28833:28907   */\n      swap2\n      pop\n        /* \"#utility.yul\":28916:29009   */\n      tag_554\n        /* \"#utility.yul\":29005:29008   */\n      dup3\n        /* \"#utility.yul\":28916:29009   */\n      tag_272\n      jump\t// in\n    tag_554:\n        /* \"#utility.yul\":29034:29036   */\n      0x60\n        /* \"#utility.yul\":29029:29032   */\n      dup3\n        /* \"#utility.yul\":29025:29037   */\n      add\n        /* \"#utility.yul\":29018:29037   */\n      swap1\n      pop\n        /* \"#utility.yul\":28677:29043   */\n      swap2\n      swap1\n      pop\n      jump\t// out\n        /* \"#utility.yul\":29049:29468   */\n    tag_124:\n        /* \"#utility.yul\":29215:29219   */\n      0x00\n        /* \"#utility.yul\":29253:29255   */\n      0x20\n        /* \"#utility.yul\":29242:29251   */\n      dup3\n        /* \"#utility.yul\":29238:29256   */\n      add\n        /* \"#utility.yul\":29230:29256   */\n      swap1\n      pop\n        /* \"#utility.yul\":29302:29311   */\n      dup2\n        /* \"#utility.yul\":29296:29300   */\n      dup2\n        /* \"#utility.yul\":29292:29312   */\n      sub\n        /* \"#utility.yul\":29288:29289   */\n      0x00\n        /* \"#utility.yul\":29277:29286   */\n      dup4\n        /* \"#utility.yul\":29273:29290   */\n      add\n        /* \"#utility.yul\":29266:29313   */\n      mstore\n        /* \"#utility.yul\":29330:29461   */\n      tag_556\n        /* \"#utility.yul\":29456:29460   */\n      dup2\n        /* \"#utility.yul\":29330:29461   */\n      tag_273\n      jump\t// in\n    tag_556:\n        /* \"#utility.yul\":29322:29461   */\n      swap1\n      pop\n        /* \"#utility.yul\":29049:29468   */\n      swap2\n      swap1\n      pop\n      jump\t// out\n        /* \"#utility.yul\":29474:29652   */\n    tag_274:\n        /* \"#utility.yul\":29614:29644   */\n      0x456c20696d706f727465206120646520736572206d696c207765697300000000\n        /* \"#utility.yul\":29610:29611   */\n      0x00\n        /* \"#utility.yul\":29602:29608   */\n      dup3\n        /* \"#utility.yul\":29598:29612   */\n      add\n        /* \"#utility.yul\":29591:29645   */\n      mstore\n        /* \"#utility.yul\":29474:29652   */\n      pop\n      jump\t// out\n        /* \"#utility.yul\":29658:30024   */\n    tag_275:\n        /* \"#utility.yul\":29800:29803   */\n      0x00\n        /* \"#utility.yul\":29821:29888   */\n      tag_559\n        /* \"#utility.yul\":29885:29887   */\n      0x1c\n        /* \"#utility.yul\":29880:29883   */\n      dup4\n        /* \"#utility.yul\":29821:29888   */\n      tag_208\n      jump\t// in\n    tag_559:\n        /* \"#utility.yul\":29814:29888   */\n      swap2\n      pop\n        /* \"#utility.yul\":29897:29990   */\n      tag_560\n        /* \"#utility.yul\":29986:29989   */\n      dup3\n        /* \"#utility.yul\":29897:29990   */\n      tag_274\n      jump\t// in\n    tag_560:\n        /* \"#utility.yul\":30015:30017   */\n      0x20\n        /* \"#utility.yul\":30010:30013   */\n      dup3\n        /* \"#utility.yul\":30006:30018   */\n      add\n        /* \"#utility.yul\":29999:30018   */\n      swap1\n      pop\n        /* \"#utility.yul\":29658:30024   */\n      swap2\n      swap1\n      pop\n      jump\t// out\n        /* \"#utility.yul\":30030:30449   */\n    tag_132:\n        /* \"#utility.yul\":30196:30200   */\n      0x00\n        /* \"#utility.yul\":30234:30236   */\n      0x20\n        /* \"#utility.yul\":30223:30232   */\n      dup3\n        /* \"#utility.yul\":30219:30237   */\n      add\n        /* \"#utility.yul\":30211:30237   */\n      swap1\n      pop\n        /* \"#utility.yul\":30283:30292   */\n      dup2\n        /* \"#utility.yul\":30277:30281   */\n      dup2\n        /* \"#utility.yul\":30273:30293   */\n      sub\n        /* \"#utility.yul\":30269:30270   */\n      0x00\n        /* \"#utility.yul\":30258:30267   */\n      dup4\n        /* \"#utility.yul\":30254:30271   */\n      add\n        /* \"#utility.yul\":30247:30294   */\n      mstore\n        /* \"#utility.yul\":30311:30442   */\n      tag_562\n        /* \"#utility.yul\":30437:30441   */\n      dup2\n        /* \"#utility.yul\":30311:30442   */\n      tag_275\n      jump\t// in\n    tag_562:\n        /* \"#utility.yul\":30303:30442   */\n      swap1\n      pop\n        /* \"#utility.yul\":30030:30449   */\n      swap2\n      swap1\n      pop\n      jump\t// out\n        /* \"#utility.yul\":30455:30688   */\n    tag_134:\n        /* \"#utility.yul\":30494:30497   */\n      0x00\n        /* \"#utility.yul\":30517:30541   */\n      tag_564\n        /* \"#utility.yul\":30535:30540   */\n      dup3\n        /* \"#utility.yul\":30517:30541   */\n      tag_200\n      jump\t// in\n    tag_564:\n        /* \"#utility.yul\":30508:30541   */\n      swap2\n      pop\n        /* \"#utility.yul\":30563:30629   */\n      0xffffffffffffffffffffffffffffffffffffffffffffffffffffffffffffffff\n        /* \"#utility.yul\":30556:30561   */\n      dup3\n        /* \"#utility.yul\":30553:30630   */\n      sub\n        /* \"#utility.yul\":30550:30653   */\n      tag_565\n      jumpi\n        /* \"#utility.yul\":30633:30651   */\n      tag_566\n      tag_242\n      jump\t// in\n    tag_566:\n        /* \"#utility.yul\":30550:30653   */\n    tag_565:\n        /* \"#utility.yul\":30680:30681   */\n      0x01\n        /* \"#utility.yul\":30673:30678   */\n      dup3\n        /* \"#utility.yul\":30669:30682   */\n      add\n        /* \"#utility.yul\":30662:30682   */\n      swap1\n      pop\n        /* \"#utility.yul\":30455:30688   */\n      swap2\n      swap1\n      pop\n      jump\t// out\n        /* \"#utility.yul\":30694:32089   */\n    tag_144:\n        /* \"#utility.yul\":30811:30848   */\n      tag_568\n        /* \"#utility.yul\":30844:30847   */\n      dup3\n        /* \"#utility.yul\":30811:30848   */\n      tag_207\n      jump\t// in\n    tag_568:\n        /* \"#utility.yul\":30913:30931   */\n      0xffffffffffffffff\n        /* \"#utility.yul\":30905:30911   */\n      dup2\n        /* \"#utility.yul\":30902:30932   */\n      gt\n        /* \"#utility.yul\":30899:30955   */\n      iszero\n      tag_569\n      jumpi\n        /* \"#utility.yul\":30935:30953   */\n      tag_570\n      tag_137\n      jump\t// in\n    tag_570:\n        /* \"#utility.yul\":30899:30955   */\n    tag_569:\n        /* \"#utility.yul\":30979:31017   */\n      tag_571\n        /* \"#utility.yul\":31011:31015   */\n      dup3\n        /* \"#utility.yul\":31005:31016   */\n      sload\n        /* \"#utility.yul\":30979:31017   */\n      tag_51\n      jump\t// in\n    tag_571:\n        /* \"#utility.yul\":31064:31131   */\n      tag_572\n        /* \"#utility.yul\":31124:31130   */\n      dup3\n        /* \"#utility.yul\":31116:31122   */\n      dup3\n        /* \"#utility.yul\":31110:31114   */\n      dup6\n        /* \"#utility.yul\":31064:31131   */\n      tag_260\n      jump\t// in\n    tag_572:\n        /* \"#utility.yul\":31158:31159   */\n      0x00\n        /* \"#utility.yul\":31182:31186   */\n      0x20\n        /* \"#utility.yul\":31169:31186   */\n      swap1\n      pop\n        /* \"#utility.yul\":31214:31216   */\n      0x1f\n        /* \"#utility.yul\":31206:31212   */\n      dup4\n        /* \"#utility.yul\":31203:31217   */\n      gt\n        /* \"#utility.yul\":31231:31232   */\n      0x01\n        /* \"#utility.yul\":31226:31844   */\n      dup2\n      eq\n      tag_574\n      jumpi\n        /* \"#utility.yul\":31888:31889   */\n      0x00\n        /* \"#utility.yul\":31905:31911   */\n      dup5\n        /* \"#utility.yul\":31902:31979   */\n      iszero\n      tag_575\n      jumpi\n        /* \"#utility.yul\":31954:31963   */\n      dup3\n        /* \"#utility.yul\":31949:31952   */\n      dup8\n        /* \"#utility.yul\":31945:31964   */\n      add\n        /* \"#utility.yul\":31939:31965   */\n      mload\n        /* \"#utility.yul\":31930:31965   */\n      swap1\n      pop\n        /* \"#utility.yul\":31902:31979   */\n    tag_575:\n        /* \"#utility.yul\":32005:32072   */\n      tag_576\n        /* \"#utility.yul\":32065:32071   */\n      dup6\n        /* \"#utility.yul\":32058:32063   */\n      dup3\n        /* \"#utility.yul\":32005:32072   */\n      tag_263\n      jump\t// in\n    tag_576:\n        /* \"#utility.yul\":31999:32003   */\n      dup7\n        /* \"#utility.yul\":31992:32073   */\n      sstore\n        /* \"#utility.yul\":31861:32083   */\n      pop\n        /* \"#utility.yul\":31196:32083   */\n      jump(tag_573)\n        /* \"#utility.yul\":31226:31844   */\n    tag_574:\n        /* \"#utility.yul\":31278:31282   */\n      0x1f\n        /* \"#utility.yul\":31274:31283   */\n      not\n        /* \"#utility.yul\":31266:31272   */\n      dup5\n        /* \"#utility.yul\":31262:31284   */\n      and\n        /* \"#utility.yul\":31312:31349   */\n      tag_577\n        /* \"#utility.yul\":31344:31348   */\n      dup7\n        /* \"#utility.yul\":31312:31349   */\n      tag_249\n      jump\t// in\n    tag_577:\n        /* \"#utility.yul\":31371:31372   */\n      0x00\n        /* \"#utility.yul\":31385:31593   */\n    tag_578:\n        /* \"#utility.yul\":31399:31406   */\n      dup3\n        /* \"#utility.yul\":31396:31397   */\n      dup2\n        /* \"#utility.yul\":31393:31407   */\n      lt\n        /* \"#utility.yul\":31385:31593   */\n      iszero\n      tag_580\n      jumpi\n        /* \"#utility.yul\":31478:31487   */\n      dup5\n        /* \"#utility.yul\":31473:31476   */\n      dup10\n        /* \"#utility.yul\":31469:31488   */\n      add\n        /* \"#utility.yul\":31463:31489   */\n      mload\n        /* \"#utility.yul\":31455:31461   */\n      dup3\n        /* \"#utility.yul\":31448:31490   */\n      sstore\n        /* \"#utility.yul\":31529:31530   */\n      0x01\n        /* \"#utility.yul\":31521:31527   */\n      dup3\n        /* \"#utility.yul\":31517:31531   */\n      add\n        /* \"#utility.yul\":31507:31531   */\n      swap2\n      pop\n        /* \"#utility.yul\":31576:31578   */\n      0x20\n        /* \"#utility.yul\":31565:31574   */\n      dup6\n        /* \"#utility.yul\":31561:31579   */\n      add\n        /* \"#utility.yul\":31548:31579   */\n      swap5\n      pop\n        /* \"#utility.yul\":31422:31426   */\n      0x20\n        /* \"#utility.yul\":31419:31420   */\n      dup2\n        /* \"#utility.yul\":31415:31427   */\n      add\n        /* \"#utility.yul\":31410:31427   */\n      swap1\n      pop\n        /* \"#utility.yul\":31385:31593   */\n      jump(tag_578)\n    tag_580:\n        /* \"#utility.yul\":31621:31627   */\n      dup7\n        /* \"#utility.yul\":31612:31619   */\n      dup4\n        /* \"#utility.yul\":31609:31628   */\n      lt\n        /* \"#utility.yul\":31606:31785   */\n      iszero\n      tag_581\n      jumpi\n        /* \"#utility.yul\":31679:31688   */\n      dup5\n        /* \"#utility.yul\":31674:31677   */\n      dup10\n        /* \"#utility.yul\":31670:31689   */\n      add\n        /* \"#utility.yul\":31664:31690   */\n      mload\n        /* \"#utility.yul\":31722:31770   */\n      tag_582\n        /* \"#utility.yul\":31764:31768   */\n      0x1f\n        /* \"#utility.yul\":31756:31762   */\n      dup10\n        /* \"#utility.yul\":31752:31769   */\n      and\n        /* \"#utility.yul\":31741:31750   */\n      dup3\n        /* \"#utility.yul\":31722:31770   */\n      tag_262\n      jump\t// in\n    tag_582:\n        /* \"#utility.yul\":31714:31720   */\n      dup4\n        /* \"#utility.yul\":31707:31771   */\n      sstore\n        /* \"#utility.yul\":31629:31785   */\n      pop\n        /* \"#utility.yul\":31606:31785   */\n    tag_581:\n        /* \"#utility.yul\":31831:31832   */\n      0x01\n        /* \"#utility.yul\":31827:31828   */\n      0x02\n        /* \"#utility.yul\":31819:31825   */\n      dup9\n        /* \"#utility.yul\":31815:31829   */\n      mul\n        /* \"#utility.yul\":31811:31833   */\n      add\n        /* \"#utility.yul\":31805:31809   */\n      dup9\n        /* \"#utility.yul\":31798:31834   */\n      sstore\n        /* \"#utility.yul\":31233:31844   */\n      pop\n      pop\n      pop\n        /* \"#utility.yul\":31196:32083   */\n    tag_573:\n      pop\n        /* \"#utility.yul\":30786:32089   */\n      pop\n      pop\n      pop\n        /* \"#utility.yul\":30694:32089   */\n      pop\n      pop\n      jump\t// out\n        /* \"#utility.yul\":32095:32242   */\n    tag_276:\n        /* \"#utility.yul\":32196:32207   */\n      0x00\n        /* \"#utility.yul\":32233:32236   */\n      dup2\n        /* \"#utility.yul\":32218:32236   */\n      swap1\n      pop\n        /* \"#utility.yul\":32095:32242   */\n      swap3\n      swap2\n      pop\n      pop\n      jump\t// out\n        /* \"#utility.yul\":32248:32396   */\n    tag_277:\n        /* \"#utility.yul\":32346:32352   */\n      dup3\n        /* \"#utility.yul\":32341:32344   */\n      dup2\n        /* \"#utility.yul\":32336:32339   */\n      dup4\n        /* \"#utility.yul\":32323:32353   */\n      calldatacopy\n        /* \"#utility.yul\":32387:32388   */\n      0x00\n        /* \"#utility.yul\":32378:32384   */\n      dup4\n        /* \"#utility.yul\":32373:32376   */\n      dup4\n        /* \"#utility.yul\":32369:32385   */\n      add\n        /* \"#utility.yul\":32362:32389   */\n      mstore\n        /* \"#utility.yul\":32248:32396   */\n      pop\n      pop\n      pop\n      jump\t// out\n        /* \"#utility.yul\":32424:32751   */\n    tag_278:\n        /* \"#utility.yul\":32538:32541   */\n      0x00\n        /* \"#utility.yul\":32559:32647   */\n      tag_586\n        /* \"#utility.yul\":32640:32646   */\n      dup4\n        /* \"#utility.yul\":32635:32638   */\n      dup6\n        /* \"#utility.yul\":32559:32647   */\n      tag_276\n      jump\t// in\n    tag_586:\n        /* \"#utility.yul\":32552:32647   */\n      swap4\n      pop\n        /* \"#utility.yul\":32657:32713   */\n      tag_587\n        /* \"#utility.yul\":32706:32712   */\n      dup4\n        /* \"#utility.yul\":32701:32704   */\n      dup6\n        /* \"#utility.yul\":32694:32699   */\n      dup5\n        /* \"#utility.yul\":32657:32713   */\n      tag_277\n      jump\t// in\n    tag_587:\n        /* \"#utility.yul\":32738:32744   */\n      dup3\n        /* \"#utility.yul\":32733:32736   */\n      dup5\n        /* \"#utility.yul\":32729:32745   */\n      add\n        /* \"#utility.yul\":32722:32745   */\n      swap1\n      pop\n        /* \"#utility.yul\":32424:32751   */\n      swap4\n      swap3\n      pop\n      pop\n      pop\n      jump\t// out\n        /* \"#utility.yul\":32757:33048   */\n    tag_155:\n        /* \"#utility.yul\":32897:32900   */\n      0x00\n        /* \"#utility.yul\":32919:33022   */\n      tag_589\n        /* \"#utility.yul\":33018:33021   */\n      dup3\n        /* \"#utility.yul\":33009:33015   */\n      dup5\n        /* \"#utility.yul\":33001:33007   */\n      dup7\n        /* \"#utility.yul\":32919:33022   */\n      tag_278\n      jump\t// in\n    tag_589:\n        /* \"#utility.yul\":32912:33022   */\n      swap2\n      pop\n        /* \"#utility.yul\":33039:33042   */\n      dup2\n        /* \"#utility.yul\":33032:33042   */\n      swap1\n      pop\n        /* \"#utility.yul\":32757:33048   */\n      swap4\n      swap3\n      pop\n      pop\n      pop\n      jump\t// out\n        /* \"#utility.yul\":33054:33234   */\n    tag_158:\n        /* \"#utility.yul\":33102:33179   */\n      0x4e487b7100000000000000000000000000000000000000000000000000000000\n        /* \"#utility.yul\":33099:33100   */\n      0x00\n        /* \"#utility.yul\":33092:33180   */\n      mstore\n        /* \"#utility.yul\":33199:33203   */\n      0x32\n        /* \"#utility.yul\":33196:33197   */\n      0x04\n        /* \"#utility.yul\":33189:33204   */\n      mstore\n        /* \"#utility.yul\":33223:33227   */\n      0x24\n        /* \"#utility.yul\":33220:33221   */\n      0x00\n        /* \"#utility.yul\":33213:33228   */\n      revert\n        /* \"#utility.yul\":33240:33420   */\n    tag_279:\n        /* \"#utility.yul\":33288:33365   */\n      0x4e487b7100000000000000000000000000000000000000000000000000000000\n        /* \"#utility.yul\":33285:33286   */\n      0x00\n        /* \"#utility.yul\":33278:33366   */\n      mstore\n        /* \"#utility.yul\":33385:33389   */\n      0x12\n        /* \"#utility.yul\":33382:33383   */\n      0x04\n        /* \"#utility.yul\":33375:33390   */\n      mstore\n        /* \"#utility.yul\":33409:33413   */\n      0x24\n        /* \"#utility.yul\":33406:33407   */\n      0x00\n        /* \"#utility.yul\":33399:33414   */\n      revert\n        /* \"#utility.yul\":33426:33605   */\n    tag_165:\n        /* \"#utility.yul\":33464:33465   */\n      0x00\n        /* \"#utility.yul\":33481:33499   */\n      tag_593\n        /* \"#utility.yul\":33497:33498   */\n      dup3\n        /* \"#utility.yul\":33481:33499   */\n      tag_231\n      jump\t// in\n    tag_593:\n        /* \"#utility.yul\":33476:33499   */\n      swap2\n      pop\n        /* \"#utility.yul\":33513:33531   */\n      tag_594\n        /* \"#utility.yul\":33529:33530   */\n      dup4\n        /* \"#utility.yul\":33513:33531   */\n      tag_231\n      jump\t// in\n    tag_594:\n        /* \"#utility.yul\":33508:33531   */\n      swap3\n      pop\n        /* \"#utility.yul\":33550:33551   */\n      dup3\n        /* \"#utility.yul\":33540:33575   */\n      tag_595\n      jumpi\n        /* \"#utility.yul\":33555:33573   */\n      tag_596\n      tag_279\n      jump\t// in\n    tag_596:\n        /* \"#utility.yul\":33540:33575   */\n    tag_595:\n        /* \"#utility.yul\":33597:33598   */\n      dup3\n        /* \"#utility.yul\":33594:33595   */\n      dup3\n        /* \"#utility.yul\":33590:33599   */\n      div\n        /* \"#utility.yul\":33585:33599   */\n      swap1\n      pop\n        /* \"#utility.yul\":33426:33605   */\n      swap3\n      swap2\n      pop\n      pop\n      jump\t// out\n        /* \"#utility.yul\":33611:33802   */\n    tag_172:\n        /* \"#utility.yul\":33651:33654   */\n      0x00\n        /* \"#utility.yul\":33670:33690   */\n      tag_598\n        /* \"#utility.yul\":33688:33689   */\n      dup3\n        /* \"#utility.yul\":33670:33690   */\n      tag_200\n      jump\t// in\n    tag_598:\n        /* \"#utility.yul\":33665:33690   */\n      swap2\n      pop\n        /* \"#utility.yul\":33704:33724   */\n      tag_599\n        /* \"#utility.yul\":33722:33723   */\n      dup4\n        /* \"#utility.yul\":33704:33724   */\n      tag_200\n      jump\t// in\n    tag_599:\n        /* \"#utility.yul\":33699:33724   */\n      swap3\n      pop\n        /* \"#utility.yul\":33747:33748   */\n      dup3\n        /* \"#utility.yul\":33744:33745   */\n      dup3\n        /* \"#utility.yul\":33740:33749   */\n      add\n        /* \"#utility.yul\":33733:33749   */\n      swap1\n      pop\n        /* \"#utility.yul\":33768:33771   */\n      dup1\n        /* \"#utility.yul\":33765:33766   */\n      dup3\n        /* \"#utility.yul\":33762:33772   */\n      gt\n        /* \"#utility.yul\":33759:33795   */\n      iszero\n      tag_600\n      jumpi\n        /* \"#utility.yul\":33775:33793   */\n      tag_601\n      tag_242\n      jump\t// in\n    tag_601:\n        /* \"#utility.yul\":33759:33795   */\n    tag_600:\n        /* \"#utility.yul\":33611:33802   */\n      swap3\n      swap2\n      pop\n      pop\n      jump\t// out\n\n    auxdata: 0xa2646970667358221220bdf9e0aaff2a36a9943a944269c48625b487bcc7437e1626d86fffbe6644efe564736f6c634300081a0033\n}\n",
				"bytecode": {
					"linkReferences": {},
					"object": "60806040526127105f555f6002553480156017575f80fd5b503360035f6101000a81548173ffffffffffffffffffffffffffffffffffffffff021916908373ffffffffffffffffffffffffffffffffffffffff160217905550612250806100655f395ff3fe60806040526004361061006f575f3560e01c8063c958e0d61161004d578063c958e0d6146100f5578063d6ad8a941461010b578063e85e001b14610127578063eb116756146101515761006f565b80630a0eac29146100735780634810bc591461008f57806350fac4f1146100cd575b5f80fd5b61008d60048036038101906100889190611056565b610181565b005b34801561009a575f80fd5b506100b560048036038101906100b091906110c7565b6104f6565b6040516100c49392919061139c565b60405180910390f35b3480156100d8575f80fd5b506100f360048036038101906100ee91906110c7565b6106f4565b005b348015610100575f80fd5b50610109610861565b005b61012560048036038101906101209190611415565b6109bd565b005b348015610132575f80fd5b5061013b610b1a565b6040516101489190611462565b60405180910390f35b61016b6004803603810190610166919061147b565b610b20565b6040516101789190611462565b60405180910390f35b8383835f73ffffffffffffffffffffffffffffffffffffffff1660015f8581526020019081526020015f206003015f9054906101000a900473ffffffffffffffffffffffffffffffffffffffff1673ffffffffffffffffffffffffffffffffffffffff1603610225576040517f08c379a000000000000000000000000000000000000000000000000000000000815260040161021c90611536565b60405180910390fd5b61031060015f8581526020019081526020015f206001015f01805480602002602001604051908101604052809291908181526020015f905b82821015610305578382905f5260205f2001805461027a90611581565b80601f01602080910402602001604051908101604052809291908181526020018280546102a690611581565b80156102f15780601f106102c8576101008083540402835291602001916102f1565b820191905f5260205f20905b8154815290600101906020018083116102d457829003601f168201915b50505050508152602001906001019061025d565b505050508383610d70565b15610350576040517f08c379a000000000000000000000000000000000000000000000000000000000815260040161034790611621565b60405180910390fd5b5f60015f8981526020019081526020015f2090503373ffffffffffffffffffffffffffffffffffffffff16816003015f9054906101000a900473ffffffffffffffffffffffffffffffffffffffff1673ffffffffffffffffffffffffffffffffffffffff16146103f5576040517f08c379a00000000000000000000000000000000000000000000000000000000081526004016103ec906116d5565b60405180910390fd5b5f816001015f018054905090505f816002610410919061184f565b8761041b9190611899565b905080341015610460576040517f08c379a00000000000000000000000000000000000000000000000000000000081526004016104579061194a565b60405180910390fd5b60015f8b81526020019081526020015f206001015f01898990918060018154018082558091505060019003905f5260205f20015f9091929091929091929091925091826104ae929190611b3c565b5060015f8b81526020019081526020015f2060010160010187908060018154018082558091505060019003905f5260205f20015f909190919091505550505050505050505050565b6001602052805f5260405f205f91509050805f01805461051590611581565b80601f016020809104026020016040519081016040528092919081815260200182805461054190611581565b801561058c5780601f106105635761010080835404028352916020019161058c565b820191905f5260205f20905b81548152906001019060200180831161056f57829003601f168201915b505050505090806001016040518060400160405290815f8201805480602002602001604051908101604052809291908181526020015f905b8282101561066c578382905f5260205f200180546105e190611581565b80601f016020809104026020016040519081016040528092919081815260200182805461060d90611581565b80156106585780601f1061062f57610100808354040283529160200191610658565b820191905f5260205f20905b81548152906001019060200180831161063b57829003601f168201915b5050505050815260200190600101906105c4565b505050508152602001600182018054806020026020016040519081016040528092919081815260200182805480156106c157602002820191905f5260205f20905b8154815260200190600101908083116106ad575b50505050508152505090806003015f9054906101000a900473ffffffffffffffffffffffffffffffffffffffff16905083565b3373ffffffffffffffffffffffffffffffffffffffff1660015f8381526020019081526020015f206003015f9054906101000a900473ffffffffffffffffffffffffffffffffffffffff1673ffffffffffffffffffffffffffffffffffffffff1614610795576040517f08c379a000000000000000000000000000000000000000000000000000000000815260040161078c90611c79565b60405180910390fd5b60015f8281526020019081526020015f205f8082015f6107b59190610e61565b600182015f8082015f6107c89190610e9e565b600182015f6107d79190610ebc565b5050600382015f6101000a81549073ffffffffffffffffffffffffffffffffffffffff0219169055505060025f81548092919061081390611c97565b91905055503373ffffffffffffffffffffffffffffffffffffffff166108fc6103e890811502906040515f60405180830381858888f1935050505015801561085d573d5f803e3d5ffd5b5050565b60035f9054906101000a900473ffffffffffffffffffffffffffffffffffffffff1673ffffffffffffffffffffffffffffffffffffffff163373ffffffffffffffffffffffffffffffffffffffff16146108f0576040517f08c379a00000000000000000000000000000000000000000000000000000000081526004016108e790611d54565b60405180910390fd5b5f6103e86002546109019190611899565b90505f81476109109190611d72565b90505f8111610954576040517f08c379a000000000000000000000000000000000000000000000000000000000815260040161094b90611def565b60405180910390fd5b60035f9054906101000a900473ffffffffffffffffffffffffffffffffffffffff1673ffffffffffffffffffffffffffffffffffffffff166108fc8290811502906040515f60405180830381858888f193505050501580156109b8573d5f803e3d5ffd5b505050565b5f60015f8481526020019081526020015f2090503373ffffffffffffffffffffffffffffffffffffffff16816003015f9054906101000a900473ffffffffffffffffffffffffffffffffffffffff1673ffffffffffffffffffffffffffffffffffffffff1614610a62576040517f08c379a0000000000000000000000000000000000000000000000000000000008152600401610a5990611e7d565b60405180910390fd5b5f8283610a6f9190611e9b565b60ff16905080341015610ab7576040517f08c379a0000000000000000000000000000000000000000000000000000000008152600401610aae90611f6d565b60405180910390fd5b610b1482600101600101805480602002602001604051908101604052809291908181526020018280548015610b0957602002820191905f5260205f20905b815481526020019060010190808311610af5575b505050505084610de1565b50505050565b6103e881565b5f6103e83414610b65576040517f08c379a0000000000000000000000000000000000000000000000000000000008152600401610b5c90611fd5565b60405180910390fd5b5f80815480929190610b7690611ff3565b91905055505f604051806060016040528085858080601f0160208091040260200160405190810160405280939291908181526020018383808284375f81840152601f19601f82011690508083019250505050505050815260200160405180604001604052805f67ffffffffffffffff811115610bf557610bf4611972565b5b604051908082528060200260200182016040528015610c2857816020015b6060815260200190600190039081610c135790505b5081526020015f67ffffffffffffffff811115610c4857610c47611972565b5b604051908082528060200260200182016040528015610c765781602001602082028036833780820191505090505b5081525081526020013373ffffffffffffffffffffffffffffffffffffffff1681525090508060015f805481526020019081526020015f205f820151815f019081610cc1919061203a565b506020820151816001015f820151815f019080519060200190610ce5929190610eda565b506020820151816001019080519060200190610d02929190610f31565b5050506040820151816003015f6101000a81548173ffffffffffffffffffffffffffffffffffffffff021916908373ffffffffffffffffffffffffffffffffffffffff16021790555090505060025f815480929190610d6090611ff3565b91905055505f5491505092915050565b5f805f90505b8451811015610dd5578383604051610d8f929190612145565b6040518091039020858281518110610daa57610da961215d565b5b60200260200101518051906020012003610dc8576001915050610dda565b8080600101915050610d76565b505f90505b9392505050565b5f5b8251811015610e5c57606482610df991906121b7565b60ff16838281518110610e0f57610e0e61215d565b5b6020026020010151610e219190611899565b838281518110610e3457610e3361215d565b5b60200260200101818151610e4891906121e7565b915081815250508080600101915050610de3565b505050565b508054610e6d90611581565b5f825580601f10610e7e5750610e9b565b601f0160209004905f5260205f2090810190610e9a9190610f7c565b5b50565b5080545f8255905f5260205f2090810190610eb99190610f97565b50565b5080545f8255905f5260205f2090810190610ed79190610f7c565b50565b828054828255905f5260205f20908101928215610f20579160200282015b82811115610f1f578251829081610f0f919061203a565b5091602001919060010190610ef8565b5b509050610f2d9190610f97565b5090565b828054828255905f5260205f20908101928215610f6b579160200282015b82811115610f6a578251825591602001919060010190610f4f565b5b509050610f789190610f7c565b5090565b5b80821115610f93575f815f905550600101610f7d565b5090565b5b80821115610fb6575f8181610fad9190610e61565b50600101610f98565b5090565b5f80fd5b5f80fd5b5f819050919050565b610fd481610fc2565b8114610fde575f80fd5b50565b5f81359050610fef81610fcb565b92915050565b5f80fd5b5f80fd5b5f80fd5b5f8083601f84011261101657611015610ff5565b5b8235905067ffffffffffffffff81111561103357611032610ff9565b5b60208301915083600182028301111561104f5761104e610ffd565b5b9250929050565b5f805f806060858703121561106e5761106d610fba565b5b5f61107b87828801610fe1565b945050602085013567ffffffffffffffff81111561109c5761109b610fbe565b5b6110a887828801611001565b935093505060406110bb87828801610fe1565b91505092959194509250565b5f602082840312156110dc576110db610fba565b5b5f6110e984828501610fe1565b91505092915050565b5f81519050919050565b5f82825260208201905092915050565b8281835e5f83830152505050565b5f601f19601f8301169050919050565b5f611134826110f2565b61113e81856110fc565b935061114e81856020860161110c565b6111578161111a565b840191505092915050565b5f81519050919050565b5f82825260208201905092915050565b5f819050602082019050919050565b5f82825260208201905092915050565b5f6111a5826110f2565b6111af818561118b565b93506111bf81856020860161110c565b6111c88161111a565b840191505092915050565b5f6111de838361119b565b905092915050565b5f602082019050919050565b5f6111fc82611162565b611206818561116c565b9350836020820285016112188561117c565b805f5b85811015611253578484038952815161123485826111d3565b945061123f836111e6565b925060208a0199505060018101905061121b565b50829750879550505050505092915050565b5f81519050919050565b5f82825260208201905092915050565b5f819050602082019050919050565b61129781610fc2565b82525050565b5f6112a8838361128e565b60208301905092915050565b5f602082019050919050565b5f6112ca82611265565b6112d4818561126f565b93506112df8361127f565b805f5b8381101561130f5781516112f6888261129d565b9750611301836112b4565b9250506001810190506112e2565b5085935050505092915050565b5f604083015f8301518482035f86015261133682826111f2565b9150506020830151848203602086015261135082826112c0565b9150508091505092915050565b5f73ffffffffffffffffffffffffffffffffffffffff82169050919050565b5f6113868261135d565b9050919050565b6113968161137c565b82525050565b5f6060820190508181035f8301526113b4818661112a565b905081810360208301526113c8818561131c565b90506113d7604083018461138d565b949350505050565b5f60ff82169050919050565b6113f4816113df565b81146113fe575f80fd5b50565b5f8135905061140f816113eb565b92915050565b5f806040838503121561142b5761142a610fba565b5b5f61143885828601610fe1565b925050602061144985828601611401565b9150509250929050565b61145c81610fc2565b82525050565b5f6020820190506114755f830184611453565b92915050565b5f806020838503121561149157611490610fba565b5b5f83013567ffffffffffffffff8111156114ae576114ad610fbe565b5b6114ba85828601611001565b92509250509250929050565b7f4e6f2070756564657320637265617220756e2061726d61206120756e207065725f8201527f736f6e616a6520696e6578697374656e74650000000000000000000000000000602082015250565b5f6115206032836110fc565b915061152b826114c6565b604082019050919050565b5f6020820190508181035f83015261154d81611514565b9050919050565b7f4e487b71000000000000000000000000000000000000000000000000000000005f52602260045260245ffd5b5f600282049050600182168061159857607f821691505b6020821081036115ab576115aa611554565b5b50919050565b7f456c2061726d612071756520657374617320696e74656e74616e646f632063725f8201527f6561722079612065786973746500000000000000000000000000000000000000602082015250565b5f61160b602d836110fc565b9150611616826115b1565b604082019050919050565b5f6020820190508181035f830152611638816115ff565b9050919050565b7f4465206d6f6d656e746f2c20736f6c6f20656c2070726f706965746172696f205f8201527f64656c20746f6b656e20707565646520616772656761722061726d617320612060208201527f73757320706572736f6e616a65732e0000000000000000000000000000000000604082015250565b5f6116bf604f836110fc565b91506116ca8261163f565b606082019050919050565b5f6020820190508181035f8301526116ec816116b3565b9050919050565b7f4e487b71000000000000000000000000000000000000000000000000000000005f52601160045260245ffd5b5f8160011c9050919050565b5f808291508390505b600185111561177557808604811115611751576117506116f3565b5b60018516156117605780820291505b808102905061176e85611720565b9450611735565b94509492505050565b5f8261178d5760019050611848565b8161179a575f9050611848565b81600181146117b057600281146117ba576117e9565b6001915050611848565b60ff8411156117cc576117cb6116f3565b5b8360020a9150848211156117e3576117e26116f3565b5b50611848565b5060208310610133831016604e8410600b841016171561181e5782820a905083811115611819576118186116f3565b5b611848565b61182b848484600161172c565b92509050818404811115611842576118416116f3565b5b81810290505b9392505050565b5f61185982610fc2565b915061186483610fc2565b92506118917fffffffffffffffffffffffffffffffffffffffffffffffffffffffffffffffff848461177e565b905092915050565b5f6118a382610fc2565b91506118ae83610fc2565b92508282026118bc81610fc2565b915082820484148315176118d3576118d26116f3565b5b5092915050565b7f4e6f207469656e657320737566696369656e74657320776569732070617261205f8201527f6167726567617220656c2061726d610000000000000000000000000000000000602082015250565b5f611934602f836110fc565b915061193f826118da565b604082019050919050565b5f6020820190508181035f83015261196181611928565b9050919050565b5f82905092915050565b7f4e487b71000000000000000000000000000000000000000000000000000000005f52604160045260245ffd5b5f819050815f5260205f209050919050565b5f6020601f8301049050919050565b5f82821b905092915050565b5f600883026119fb7fffffffffffffffffffffffffffffffffffffffffffffffffffffffffffffffff826119c0565b611a0586836119c0565b95508019841693508086168417925050509392505050565b5f819050919050565b5f611a40611a3b611a3684610fc2565b611a1d565b610fc2565b9050919050565b5f819050919050565b611a5983611a26565b611a6d611a6582611a47565b8484546119cc565b825550505050565b5f90565b611a81611a75565b611a8c818484611a50565b505050565b5b81811015611aaf57611aa45f82611a79565b600181019050611a92565b5050565b601f821115611af457611ac58161199f565b611ace846119b1565b81016020851015611add578190505b611af1611ae9856119b1565b830182611a91565b50505b505050565b5f82821c905092915050565b5f611b145f1984600802611af9565b1980831691505092915050565b5f611b2c8383611b05565b9150826002028217905092915050565b611b468383611968565b67ffffffffffffffff811115611b5f57611b5e611972565b5b611b698254611581565b611b74828285611ab3565b5f601f831160018114611ba1575f8415611b8f578287013590505b611b998582611b21565b865550611c00565b601f198416611baf8661199f565b5f5b82811015611bd657848901358255600182019150602085019450602081019050611bb1565b86831015611bf35784890135611bef601f891682611b05565b8355505b6001600288020188555050505b50505050505050565b7f536f6c6f20656c2070726f706965746172696f2064656c20746f6b656e2070755f8201527f65646520626f7272617220656c20746f6b656e00000000000000000000000000602082015250565b5f611c636033836110fc565b9150611c6e82611c09565b604082019050919050565b5f6020820190508181035f830152611c9081611c57565b9050919050565b5f611ca182610fc2565b91505f8203611cb357611cb26116f3565b5b600182039050919050565b7f536f6c6f207075656465732072656369626972206c6f732070726f66697473205f8201527f6465206573746520636f6e747261746f207369206572657320656c2070726f7060208201527f6965746172696f2064656c206d69736d6f000000000000000000000000000000604082015250565b5f611d3e6051836110fc565b9150611d4982611cbe565b606082019050919050565b5f6020820190508181035f830152611d6b81611d32565b9050919050565b5f611d7c82610fc2565b9150611d8783610fc2565b9250828203905081811115611d9f57611d9e6116f3565b5b92915050565b7f4e6f206861792062656e65666963696f732070617261207265636f67657200005f82015250565b5f611dd9601e836110fc565b9150611de482611da5565b602082019050919050565b5f6020820190508181035f830152611e0681611dcd565b9050919050565b7f536f6c6f20656c2070726f706965746172696f2064656c20746f6b656e2070755f8201527f65646520656a656375746172206573746120616363696f6e2e00000000000000602082015250565b5f611e676039836110fc565b9150611e7282611e0d565b604082019050919050565b5f6020820190508181035f830152611e9481611e5b565b9050919050565b5f611ea5826113df565b9150611eb0836113df565b9250828202611ebe816113df565b9150808214611ed057611ecf6116f3565b5b5092915050565b7f4e6f207469656e657320737566696369656e74657320776569732070617261205f8201527f696e6372656d656e746172206c6120706f74656e63696120646520747573206160208201527f726d617300000000000000000000000000000000000000000000000000000000604082015250565b5f611f576044836110fc565b9150611f6282611ed7565b606082019050919050565b5f6020820190508181035f830152611f8481611f4b565b9050919050565b7f456c20696d706f727465206120646520736572206d696c2077656973000000005f82015250565b5f611fbf601c836110fc565b9150611fca82611f8b565b602082019050919050565b5f6020820190508181035f830152611fec81611fb3565b9050919050565b5f611ffd82610fc2565b91507fffffffffffffffffffffffffffffffffffffffffffffffffffffffffffffffff820361202f5761202e6116f3565b5b600182019050919050565b612043826110f2565b67ffffffffffffffff81111561205c5761205b611972565b5b6120668254611581565b612071828285611ab3565b5f60209050601f8311600181146120a2575f8415612090578287015190505b61209a8582611b21565b865550612101565b601f1984166120b08661199f565b5f5b828110156120d7578489015182556001820191506020850194506020810190506120b2565b868310156120f457848901516120f0601f891682611b05565b8355505b6001600288020188555050505b505050505050565b5f81905092915050565b828183375f83830152505050565b5f61212c8385612109565b9350612139838584612113565b82840190509392505050565b5f612151828486612121565b91508190509392505050565b7f4e487b71000000000000000000000000000000000000000000000000000000005f52603260045260245ffd5b7f4e487b71000000000000000000000000000000000000000000000000000000005f52601260045260245ffd5b5f6121c1826113df565b91506121cc836113df565b9250826121dc576121db61218a565b5b828204905092915050565b5f6121f182610fc2565b91506121fc83610fc2565b9250828201905080821115612214576122136116f3565b5b9291505056fea2646970667358221220bdf9e0aaff2a36a9943a944269c48625b487bcc7437e1626d86fffbe6644efe564736f6c634300081a0033",
					"opcodes": "PUSH1 0x80 PUSH1 0x40 MSTORE PUSH2 0x2710 PUSH0 SSTORE PUSH0 PUSH1 0x2 SSTORE CALLVALUE DUP1 ISZERO PUSH1 0x17 JUMPI PUSH0 DUP1 REVERT JUMPDEST POP CALLER PUSH1 0x3 PUSH0 PUSH2 0x100 EXP DUP2 SLOAD DUP2 PUSH20 0xFFFFFFFFFFFFFFFFFFFFFFFFFFFFFFFFFFFFFFFF MUL NOT AND SWAP1 DUP4 PUSH20 0xFFFFFFFFFFFFFFFFFFFFFFFFFFFFFFFFFFFFFFFF AND MUL OR SWAP1 SSTORE POP PUSH2 0x2250 DUP1 PUSH2 0x65 PUSH0 CODECOPY PUSH0 RETURN INVALID PUSH1 0x80 PUSH1 0x40 MSTORE PUSH1 0x4 CALLDATASIZE LT PUSH2 0x6F JUMPI PUSH0 CALLDATALOAD PUSH1 0xE0 SHR DUP1 PUSH4 0xC958E0D6 GT PUSH2 0x4D JUMPI DUP1 PUSH4 0xC958E0D6 EQ PUSH2 0xF5 JUMPI DUP1 PUSH4 0xD6AD8A94 EQ PUSH2 0x10B JUMPI DUP1 PUSH4 0xE85E001B EQ PUSH2 0x127 JUMPI DUP1 PUSH4 0xEB116756 EQ PUSH2 0x151 JUMPI PUSH2 0x6F JUMP JUMPDEST DUP1 PUSH4 0xA0EAC29 EQ PUSH2 0x73 JUMPI DUP1 PUSH4 0x4810BC59 EQ PUSH2 0x8F JUMPI DUP1 PUSH4 0x50FAC4F1 EQ PUSH2 0xCD JUMPI JUMPDEST PUSH0 DUP1 REVERT JUMPDEST PUSH2 0x8D PUSH1 0x4 DUP1 CALLDATASIZE SUB DUP2 ADD SWAP1 PUSH2 0x88 SWAP2 SWAP1 PUSH2 0x1056 JUMP JUMPDEST PUSH2 0x181 JUMP JUMPDEST STOP JUMPDEST CALLVALUE DUP1 ISZERO PUSH2 0x9A JUMPI PUSH0 DUP1 REVERT JUMPDEST POP PUSH2 0xB5 PUSH1 0x4 DUP1 CALLDATASIZE SUB DUP2 ADD SWAP1 PUSH2 0xB0 SWAP2 SWAP1 PUSH2 0x10C7 JUMP JUMPDEST PUSH2 0x4F6 JUMP JUMPDEST PUSH1 0x40 MLOAD PUSH2 0xC4 SWAP4 SWAP3 SWAP2 SWAP1 PUSH2 0x139C JUMP JUMPDEST PUSH1 0x40 MLOAD DUP1 SWAP2 SUB SWAP1 RETURN JUMPDEST CALLVALUE DUP1 ISZERO PUSH2 0xD8 JUMPI PUSH0 DUP1 REVERT JUMPDEST POP PUSH2 0xF3 PUSH1 0x4 DUP1 CALLDATASIZE SUB DUP2 ADD SWAP1 PUSH2 0xEE SWAP2 SWAP1 PUSH2 0x10C7 JUMP JUMPDEST PUSH2 0x6F4 JUMP JUMPDEST STOP JUMPDEST CALLVALUE DUP1 ISZERO PUSH2 0x100 JUMPI PUSH0 DUP1 REVERT JUMPDEST POP PUSH2 0x109 PUSH2 0x861 JUMP JUMPDEST STOP JUMPDEST PUSH2 0x125 PUSH1 0x4 DUP1 CALLDATASIZE SUB DUP2 ADD SWAP1 PUSH2 0x120 SWAP2 SWAP1 PUSH2 0x1415 JUMP JUMPDEST PUSH2 0x9BD JUMP JUMPDEST STOP JUMPDEST CALLVALUE DUP1 ISZERO PUSH2 0x132 JUMPI PUSH0 DUP1 REVERT JUMPDEST POP PUSH2 0x13B PUSH2 0xB1A JUMP JUMPDEST PUSH1 0x40 MLOAD PUSH2 0x148 SWAP2 SWAP1 PUSH2 0x1462 JUMP JUMPDEST PUSH1 0x40 MLOAD DUP1 SWAP2 SUB SWAP1 RETURN JUMPDEST PUSH2 0x16B PUSH1 0x4 DUP1 CALLDATASIZE SUB DUP2 ADD SWAP1 PUSH2 0x166 SWAP2 SWAP1 PUSH2 0x147B JUMP JUMPDEST PUSH2 0xB20 JUMP JUMPDEST PUSH1 0x40 MLOAD PUSH2 0x178 SWAP2 SWAP1 PUSH2 0x1462 JUMP JUMPDEST PUSH1 0x40 MLOAD DUP1 SWAP2 SUB SWAP1 RETURN JUMPDEST DUP4 DUP4 DUP4 PUSH0 PUSH20 0xFFFFFFFFFFFFFFFFFFFFFFFFFFFFFFFFFFFFFFFF AND PUSH1 0x1 PUSH0 DUP6 DUP2 MSTORE PUSH1 0x20 ADD SWAP1 DUP2 MSTORE PUSH1 0x20 ADD PUSH0 KECCAK256 PUSH1 0x3 ADD PUSH0 SWAP1 SLOAD SWAP1 PUSH2 0x100 EXP SWAP1 DIV PUSH20 0xFFFFFFFFFFFFFFFFFFFFFFFFFFFFFFFFFFFFFFFF AND PUSH20 0xFFFFFFFFFFFFFFFFFFFFFFFFFFFFFFFFFFFFFFFF AND SUB PUSH2 0x225 JUMPI PUSH1 0x40 MLOAD PUSH32 0x8C379A000000000000000000000000000000000000000000000000000000000 DUP2 MSTORE PUSH1 0x4 ADD PUSH2 0x21C SWAP1 PUSH2 0x1536 JUMP JUMPDEST PUSH1 0x40 MLOAD DUP1 SWAP2 SUB SWAP1 REVERT JUMPDEST PUSH2 0x310 PUSH1 0x1 PUSH0 DUP6 DUP2 MSTORE PUSH1 0x20 ADD SWAP1 DUP2 MSTORE PUSH1 0x20 ADD PUSH0 KECCAK256 PUSH1 0x1 ADD PUSH0 ADD DUP1 SLOAD DUP1 PUSH1 0x20 MUL PUSH1 0x20 ADD PUSH1 0x40 MLOAD SWAP1 DUP2 ADD PUSH1 0x40 MSTORE DUP1 SWAP3 SWAP2 SWAP1 DUP2 DUP2 MSTORE PUSH1 0x20 ADD PUSH0 SWAP1 JUMPDEST DUP3 DUP3 LT ISZERO PUSH2 0x305 JUMPI DUP4 DUP3 SWAP1 PUSH0 MSTORE PUSH1 0x20 PUSH0 KECCAK256 ADD DUP1 SLOAD PUSH2 0x27A SWAP1 PUSH2 0x1581 JUMP JUMPDEST DUP1 PUSH1 0x1F ADD PUSH1 0x20 DUP1 SWAP2 DIV MUL PUSH1 0x20 ADD PUSH1 0x40 MLOAD SWAP1 DUP2 ADD PUSH1 0x40 MSTORE DUP1 SWAP3 SWAP2 SWAP1 DUP2 DUP2 MSTORE PUSH1 0x20 ADD DUP3 DUP1 SLOAD PUSH2 0x2A6 SWAP1 PUSH2 0x1581 JUMP JUMPDEST DUP1 ISZERO PUSH2 0x2F1 JUMPI DUP1 PUSH1 0x1F LT PUSH2 0x2C8 JUMPI PUSH2 0x100 DUP1 DUP4 SLOAD DIV MUL DUP4 MSTORE SWAP2 PUSH1 0x20 ADD SWAP2 PUSH2 0x2F1 JUMP JUMPDEST DUP3 ADD SWAP2 SWAP1 PUSH0 MSTORE PUSH1 0x20 PUSH0 KECCAK256 SWAP1 JUMPDEST DUP2 SLOAD DUP2 MSTORE SWAP1 PUSH1 0x1 ADD SWAP1 PUSH1 0x20 ADD DUP1 DUP4 GT PUSH2 0x2D4 JUMPI DUP3 SWAP1 SUB PUSH1 0x1F AND DUP3 ADD SWAP2 JUMPDEST POP POP POP POP POP DUP2 MSTORE PUSH1 0x20 ADD SWAP1 PUSH1 0x1 ADD SWAP1 PUSH2 0x25D JUMP JUMPDEST POP POP POP POP DUP4 DUP4 PUSH2 0xD70 JUMP JUMPDEST ISZERO PUSH2 0x350 JUMPI PUSH1 0x40 MLOAD PUSH32 0x8C379A000000000000000000000000000000000000000000000000000000000 DUP2 MSTORE PUSH1 0x4 ADD PUSH2 0x347 SWAP1 PUSH2 0x1621 JUMP JUMPDEST PUSH1 0x40 MLOAD DUP1 SWAP2 SUB SWAP1 REVERT JUMPDEST PUSH0 PUSH1 0x1 PUSH0 DUP10 DUP2 MSTORE PUSH1 0x20 ADD SWAP1 DUP2 MSTORE PUSH1 0x20 ADD PUSH0 KECCAK256 SWAP1 POP CALLER PUSH20 0xFFFFFFFFFFFFFFFFFFFFFFFFFFFFFFFFFFFFFFFF AND DUP2 PUSH1 0x3 ADD PUSH0 SWAP1 SLOAD SWAP1 PUSH2 0x100 EXP SWAP1 DIV PUSH20 0xFFFFFFFFFFFFFFFFFFFFFFFFFFFFFFFFFFFFFFFF AND PUSH20 0xFFFFFFFFFFFFFFFFFFFFFFFFFFFFFFFFFFFFFFFF AND EQ PUSH2 0x3F5 JUMPI PUSH1 0x40 MLOAD PUSH32 0x8C379A000000000000000000000000000000000000000000000000000000000 DUP2 MSTORE PUSH1 0x4 ADD PUSH2 0x3EC SWAP1 PUSH2 0x16D5 JUMP JUMPDEST PUSH1 0x40 MLOAD DUP1 SWAP2 SUB SWAP1 REVERT JUMPDEST PUSH0 DUP2 PUSH1 0x1 ADD PUSH0 ADD DUP1 SLOAD SWAP1 POP SWAP1 POP PUSH0 DUP2 PUSH1 0x2 PUSH2 0x410 SWAP2 SWAP1 PUSH2 0x184F JUMP JUMPDEST DUP8 PUSH2 0x41B SWAP2 SWAP1 PUSH2 0x1899 JUMP JUMPDEST SWAP1 POP DUP1 CALLVALUE LT ISZERO PUSH2 0x460 JUMPI PUSH1 0x40 MLOAD PUSH32 0x8C379A000000000000000000000000000000000000000000000000000000000 DUP2 MSTORE PUSH1 0x4 ADD PUSH2 0x457 SWAP1 PUSH2 0x194A JUMP JUMPDEST PUSH1 0x40 MLOAD DUP1 SWAP2 SUB SWAP1 REVERT JUMPDEST PUSH1 0x1 PUSH0 DUP12 DUP2 MSTORE PUSH1 0x20 ADD SWAP1 DUP2 MSTORE PUSH1 0x20 ADD PUSH0 KECCAK256 PUSH1 0x1 ADD PUSH0 ADD DUP10 DUP10 SWAP1 SWAP2 DUP1 PUSH1 0x1 DUP2 SLOAD ADD DUP1 DUP3 SSTORE DUP1 SWAP2 POP POP PUSH1 0x1 SWAP1 SUB SWAP1 PUSH0 MSTORE PUSH1 0x20 PUSH0 KECCAK256 ADD PUSH0 SWAP1 SWAP2 SWAP3 SWAP1 SWAP2 SWAP3 SWAP1 SWAP2 SWAP3 SWAP1 SWAP2 SWAP3 POP SWAP2 DUP3 PUSH2 0x4AE SWAP3 SWAP2 SWAP1 PUSH2 0x1B3C JUMP JUMPDEST POP PUSH1 0x1 PUSH0 DUP12 DUP2 MSTORE PUSH1 0x20 ADD SWAP1 DUP2 MSTORE PUSH1 0x20 ADD PUSH0 KECCAK256 PUSH1 0x1 ADD PUSH1 0x1 ADD DUP8 SWAP1 DUP1 PUSH1 0x1 DUP2 SLOAD ADD DUP1 DUP3 SSTORE DUP1 SWAP2 POP POP PUSH1 0x1 SWAP1 SUB SWAP1 PUSH0 MSTORE PUSH1 0x20 PUSH0 KECCAK256 ADD PUSH0 SWAP1 SWAP2 SWAP1 SWAP2 SWAP1 SWAP2 POP SSTORE POP POP POP POP POP POP POP POP POP POP JUMP JUMPDEST PUSH1 0x1 PUSH1 0x20 MSTORE DUP1 PUSH0 MSTORE PUSH1 0x40 PUSH0 KECCAK256 PUSH0 SWAP2 POP SWAP1 POP DUP1 PUSH0 ADD DUP1 SLOAD PUSH2 0x515 SWAP1 PUSH2 0x1581 JUMP JUMPDEST DUP1 PUSH1 0x1F ADD PUSH1 0x20 DUP1 SWAP2 DIV MUL PUSH1 0x20 ADD PUSH1 0x40 MLOAD SWAP1 DUP2 ADD PUSH1 0x40 MSTORE DUP1 SWAP3 SWAP2 SWAP1 DUP2 DUP2 MSTORE PUSH1 0x20 ADD DUP3 DUP1 SLOAD PUSH2 0x541 SWAP1 PUSH2 0x1581 JUMP JUMPDEST DUP1 ISZERO PUSH2 0x58C JUMPI DUP1 PUSH1 0x1F LT PUSH2 0x563 JUMPI PUSH2 0x100 DUP1 DUP4 SLOAD DIV MUL DUP4 MSTORE SWAP2 PUSH1 0x20 ADD SWAP2 PUSH2 0x58C JUMP JUMPDEST DUP3 ADD SWAP2 SWAP1 PUSH0 MSTORE PUSH1 0x20 PUSH0 KECCAK256 SWAP1 JUMPDEST DUP2 SLOAD DUP2 MSTORE SWAP1 PUSH1 0x1 ADD SWAP1 PUSH1 0x20 ADD DUP1 DUP4 GT PUSH2 0x56F JUMPI DUP3 SWAP1 SUB PUSH1 0x1F AND DUP3 ADD SWAP2 JUMPDEST POP POP POP POP POP SWAP1 DUP1 PUSH1 0x1 ADD PUSH1 0x40 MLOAD DUP1 PUSH1 0x40 ADD PUSH1 0x40 MSTORE SWAP1 DUP2 PUSH0 DUP3 ADD DUP1 SLOAD DUP1 PUSH1 0x20 MUL PUSH1 0x20 ADD PUSH1 0x40 MLOAD SWAP1 DUP2 ADD PUSH1 0x40 MSTORE DUP1 SWAP3 SWAP2 SWAP1 DUP2 DUP2 MSTORE PUSH1 0x20 ADD PUSH0 SWAP1 JUMPDEST DUP3 DUP3 LT ISZERO PUSH2 0x66C JUMPI DUP4 DUP3 SWAP1 PUSH0 MSTORE PUSH1 0x20 PUSH0 KECCAK256 ADD DUP1 SLOAD PUSH2 0x5E1 SWAP1 PUSH2 0x1581 JUMP JUMPDEST DUP1 PUSH1 0x1F ADD PUSH1 0x20 DUP1 SWAP2 DIV MUL PUSH1 0x20 ADD PUSH1 0x40 MLOAD SWAP1 DUP2 ADD PUSH1 0x40 MSTORE DUP1 SWAP3 SWAP2 SWAP1 DUP2 DUP2 MSTORE PUSH1 0x20 ADD DUP3 DUP1 SLOAD PUSH2 0x60D SWAP1 PUSH2 0x1581 JUMP JUMPDEST DUP1 ISZERO PUSH2 0x658 JUMPI DUP1 PUSH1 0x1F LT PUSH2 0x62F JUMPI PUSH2 0x100 DUP1 DUP4 SLOAD DIV MUL DUP4 MSTORE SWAP2 PUSH1 0x20 ADD SWAP2 PUSH2 0x658 JUMP JUMPDEST DUP3 ADD SWAP2 SWAP1 PUSH0 MSTORE PUSH1 0x20 PUSH0 KECCAK256 SWAP1 JUMPDEST DUP2 SLOAD DUP2 MSTORE SWAP1 PUSH1 0x1 ADD SWAP1 PUSH1 0x20 ADD DUP1 DUP4 GT PUSH2 0x63B JUMPI DUP3 SWAP1 SUB PUSH1 0x1F AND DUP3 ADD SWAP2 JUMPDEST POP POP POP POP POP DUP2 MSTORE PUSH1 0x20 ADD SWAP1 PUSH1 0x1 ADD SWAP1 PUSH2 0x5C4 JUMP JUMPDEST POP POP POP POP DUP2 MSTORE PUSH1 0x20 ADD PUSH1 0x1 DUP3 ADD DUP1 SLOAD DUP1 PUSH1 0x20 MUL PUSH1 0x20 ADD PUSH1 0x40 MLOAD SWAP1 DUP2 ADD PUSH1 0x40 MSTORE DUP1 SWAP3 SWAP2 SWAP1 DUP2 DUP2 MSTORE PUSH1 0x20 ADD DUP3 DUP1 SLOAD DUP1 ISZERO PUSH2 0x6C1 JUMPI PUSH1 0x20 MUL DUP3 ADD SWAP2 SWAP1 PUSH0 MSTORE PUSH1 0x20 PUSH0 KECCAK256 SWAP1 JUMPDEST DUP2 SLOAD DUP2 MSTORE PUSH1 0x20 ADD SWAP1 PUSH1 0x1 ADD SWAP1 DUP1 DUP4 GT PUSH2 0x6AD JUMPI JUMPDEST POP POP POP POP POP DUP2 MSTORE POP POP SWAP1 DUP1 PUSH1 0x3 ADD PUSH0 SWAP1 SLOAD SWAP1 PUSH2 0x100 EXP SWAP1 DIV PUSH20 0xFFFFFFFFFFFFFFFFFFFFFFFFFFFFFFFFFFFFFFFF AND SWAP1 POP DUP4 JUMP JUMPDEST CALLER PUSH20 0xFFFFFFFFFFFFFFFFFFFFFFFFFFFFFFFFFFFFFFFF AND PUSH1 0x1 PUSH0 DUP4 DUP2 MSTORE PUSH1 0x20 ADD SWAP1 DUP2 MSTORE PUSH1 0x20 ADD PUSH0 KECCAK256 PUSH1 0x3 ADD PUSH0 SWAP1 SLOAD SWAP1 PUSH2 0x100 EXP SWAP1 DIV PUSH20 0xFFFFFFFFFFFFFFFFFFFFFFFFFFFFFFFFFFFFFFFF AND PUSH20 0xFFFFFFFFFFFFFFFFFFFFFFFFFFFFFFFFFFFFFFFF AND EQ PUSH2 0x795 JUMPI PUSH1 0x40 MLOAD PUSH32 0x8C379A000000000000000000000000000000000000000000000000000000000 DUP2 MSTORE PUSH1 0x4 ADD PUSH2 0x78C SWAP1 PUSH2 0x1C79 JUMP JUMPDEST PUSH1 0x40 MLOAD DUP1 SWAP2 SUB SWAP1 REVERT JUMPDEST PUSH1 0x1 PUSH0 DUP3 DUP2 MSTORE PUSH1 0x20 ADD SWAP1 DUP2 MSTORE PUSH1 0x20 ADD PUSH0 KECCAK256 PUSH0 DUP1 DUP3 ADD PUSH0 PUSH2 0x7B5 SWAP2 SWAP1 PUSH2 0xE61 JUMP JUMPDEST PUSH1 0x1 DUP3 ADD PUSH0 DUP1 DUP3 ADD PUSH0 PUSH2 0x7C8 SWAP2 SWAP1 PUSH2 0xE9E JUMP JUMPDEST PUSH1 0x1 DUP3 ADD PUSH0 PUSH2 0x7D7 SWAP2 SWAP1 PUSH2 0xEBC JUMP JUMPDEST POP POP PUSH1 0x3 DUP3 ADD PUSH0 PUSH2 0x100 EXP DUP2 SLOAD SWAP1 PUSH20 0xFFFFFFFFFFFFFFFFFFFFFFFFFFFFFFFFFFFFFFFF MUL NOT AND SWAP1 SSTORE POP POP PUSH1 0x2 PUSH0 DUP2 SLOAD DUP1 SWAP3 SWAP2 SWAP1 PUSH2 0x813 SWAP1 PUSH2 0x1C97 JUMP JUMPDEST SWAP2 SWAP1 POP SSTORE POP CALLER PUSH20 0xFFFFFFFFFFFFFFFFFFFFFFFFFFFFFFFFFFFFFFFF AND PUSH2 0x8FC PUSH2 0x3E8 SWAP1 DUP2 ISZERO MUL SWAP1 PUSH1 0x40 MLOAD PUSH0 PUSH1 0x40 MLOAD DUP1 DUP4 SUB DUP2 DUP6 DUP9 DUP9 CALL SWAP4 POP POP POP POP ISZERO DUP1 ISZERO PUSH2 0x85D JUMPI RETURNDATASIZE PUSH0 DUP1 RETURNDATACOPY RETURNDATASIZE PUSH0 REVERT JUMPDEST POP POP JUMP JUMPDEST PUSH1 0x3 PUSH0 SWAP1 SLOAD SWAP1 PUSH2 0x100 EXP SWAP1 DIV PUSH20 0xFFFFFFFFFFFFFFFFFFFFFFFFFFFFFFFFFFFFFFFF AND PUSH20 0xFFFFFFFFFFFFFFFFFFFFFFFFFFFFFFFFFFFFFFFF AND CALLER PUSH20 0xFFFFFFFFFFFFFFFFFFFFFFFFFFFFFFFFFFFFFFFF AND EQ PUSH2 0x8F0 JUMPI PUSH1 0x40 MLOAD PUSH32 0x8C379A000000000000000000000000000000000000000000000000000000000 DUP2 MSTORE PUSH1 0x4 ADD PUSH2 0x8E7 SWAP1 PUSH2 0x1D54 JUMP JUMPDEST PUSH1 0x40 MLOAD DUP1 SWAP2 SUB SWAP1 REVERT JUMPDEST PUSH0 PUSH2 0x3E8 PUSH1 0x2 SLOAD PUSH2 0x901 SWAP2 SWAP1 PUSH2 0x1899 JUMP JUMPDEST SWAP1 POP PUSH0 DUP2 SELFBALANCE PUSH2 0x910 SWAP2 SWAP1 PUSH2 0x1D72 JUMP JUMPDEST SWAP1 POP PUSH0 DUP2 GT PUSH2 0x954 JUMPI PUSH1 0x40 MLOAD PUSH32 0x8C379A000000000000000000000000000000000000000000000000000000000 DUP2 MSTORE PUSH1 0x4 ADD PUSH2 0x94B SWAP1 PUSH2 0x1DEF JUMP JUMPDEST PUSH1 0x40 MLOAD DUP1 SWAP2 SUB SWAP1 REVERT JUMPDEST PUSH1 0x3 PUSH0 SWAP1 SLOAD SWAP1 PUSH2 0x100 EXP SWAP1 DIV PUSH20 0xFFFFFFFFFFFFFFFFFFFFFFFFFFFFFFFFFFFFFFFF AND PUSH20 0xFFFFFFFFFFFFFFFFFFFFFFFFFFFFFFFFFFFFFFFF AND PUSH2 0x8FC DUP3 SWAP1 DUP2 ISZERO MUL SWAP1 PUSH1 0x40 MLOAD PUSH0 PUSH1 0x40 MLOAD DUP1 DUP4 SUB DUP2 DUP6 DUP9 DUP9 CALL SWAP4 POP POP POP POP ISZERO DUP1 ISZERO PUSH2 0x9B8 JUMPI RETURNDATASIZE PUSH0 DUP1 RETURNDATACOPY RETURNDATASIZE PUSH0 REVERT JUMPDEST POP POP POP JUMP JUMPDEST PUSH0 PUSH1 0x1 PUSH0 DUP5 DUP2 MSTORE PUSH1 0x20 ADD SWAP1 DUP2 MSTORE PUSH1 0x20 ADD PUSH0 KECCAK256 SWAP1 POP CALLER PUSH20 0xFFFFFFFFFFFFFFFFFFFFFFFFFFFFFFFFFFFFFFFF AND DUP2 PUSH1 0x3 ADD PUSH0 SWAP1 SLOAD SWAP1 PUSH2 0x100 EXP SWAP1 DIV PUSH20 0xFFFFFFFFFFFFFFFFFFFFFFFFFFFFFFFFFFFFFFFF AND PUSH20 0xFFFFFFFFFFFFFFFFFFFFFFFFFFFFFFFFFFFFFFFF AND EQ PUSH2 0xA62 JUMPI PUSH1 0x40 MLOAD PUSH32 0x8C379A000000000000000000000000000000000000000000000000000000000 DUP2 MSTORE PUSH1 0x4 ADD PUSH2 0xA59 SWAP1 PUSH2 0x1E7D JUMP JUMPDEST PUSH1 0x40 MLOAD DUP1 SWAP2 SUB SWAP1 REVERT JUMPDEST PUSH0 DUP3 DUP4 PUSH2 0xA6F SWAP2 SWAP1 PUSH2 0x1E9B JUMP JUMPDEST PUSH1 0xFF AND SWAP1 POP DUP1 CALLVALUE LT ISZERO PUSH2 0xAB7 JUMPI PUSH1 0x40 MLOAD PUSH32 0x8C379A000000000000000000000000000000000000000000000000000000000 DUP2 MSTORE PUSH1 0x4 ADD PUSH2 0xAAE SWAP1 PUSH2 0x1F6D JUMP JUMPDEST PUSH1 0x40 MLOAD DUP1 SWAP2 SUB SWAP1 REVERT JUMPDEST PUSH2 0xB14 DUP3 PUSH1 0x1 ADD PUSH1 0x1 ADD DUP1 SLOAD DUP1 PUSH1 0x20 MUL PUSH1 0x20 ADD PUSH1 0x40 MLOAD SWAP1 DUP2 ADD PUSH1 0x40 MSTORE DUP1 SWAP3 SWAP2 SWAP1 DUP2 DUP2 MSTORE PUSH1 0x20 ADD DUP3 DUP1 SLOAD DUP1 ISZERO PUSH2 0xB09 JUMPI PUSH1 0x20 MUL DUP3 ADD SWAP2 SWAP1 PUSH0 MSTORE PUSH1 0x20 PUSH0 KECCAK256 SWAP1 JUMPDEST DUP2 SLOAD DUP2 MSTORE PUSH1 0x20 ADD SWAP1 PUSH1 0x1 ADD SWAP1 DUP1 DUP4 GT PUSH2 0xAF5 JUMPI JUMPDEST POP POP POP POP POP DUP5 PUSH2 0xDE1 JUMP JUMPDEST POP POP POP POP JUMP JUMPDEST PUSH2 0x3E8 DUP2 JUMP JUMPDEST PUSH0 PUSH2 0x3E8 CALLVALUE EQ PUSH2 0xB65 JUMPI PUSH1 0x40 MLOAD PUSH32 0x8C379A000000000000000000000000000000000000000000000000000000000 DUP2 MSTORE PUSH1 0x4 ADD PUSH2 0xB5C SWAP1 PUSH2 0x1FD5 JUMP JUMPDEST PUSH1 0x40 MLOAD DUP1 SWAP2 SUB SWAP1 REVERT JUMPDEST PUSH0 DUP1 DUP2 SLOAD DUP1 SWAP3 SWAP2 SWAP1 PUSH2 0xB76 SWAP1 PUSH2 0x1FF3 JUMP JUMPDEST SWAP2 SWAP1 POP SSTORE POP PUSH0 PUSH1 0x40 MLOAD DUP1 PUSH1 0x60 ADD PUSH1 0x40 MSTORE DUP1 DUP6 DUP6 DUP1 DUP1 PUSH1 0x1F ADD PUSH1 0x20 DUP1 SWAP2 DIV MUL PUSH1 0x20 ADD PUSH1 0x40 MLOAD SWAP1 DUP2 ADD PUSH1 0x40 MSTORE DUP1 SWAP4 SWAP3 SWAP2 SWAP1 DUP2 DUP2 MSTORE PUSH1 0x20 ADD DUP4 DUP4 DUP1 DUP3 DUP5 CALLDATACOPY PUSH0 DUP2 DUP5 ADD MSTORE PUSH1 0x1F NOT PUSH1 0x1F DUP3 ADD AND SWAP1 POP DUP1 DUP4 ADD SWAP3 POP POP POP POP POP POP POP DUP2 MSTORE PUSH1 0x20 ADD PUSH1 0x40 MLOAD DUP1 PUSH1 0x40 ADD PUSH1 0x40 MSTORE DUP1 PUSH0 PUSH8 0xFFFFFFFFFFFFFFFF DUP2 GT ISZERO PUSH2 0xBF5 JUMPI PUSH2 0xBF4 PUSH2 0x1972 JUMP JUMPDEST JUMPDEST PUSH1 0x40 MLOAD SWAP1 DUP1 DUP3 MSTORE DUP1 PUSH1 0x20 MUL PUSH1 0x20 ADD DUP3 ADD PUSH1 0x40 MSTORE DUP1 ISZERO PUSH2 0xC28 JUMPI DUP2 PUSH1 0x20 ADD JUMPDEST PUSH1 0x60 DUP2 MSTORE PUSH1 0x20 ADD SWAP1 PUSH1 0x1 SWAP1 SUB SWAP1 DUP2 PUSH2 0xC13 JUMPI SWAP1 POP JUMPDEST POP DUP2 MSTORE PUSH1 0x20 ADD PUSH0 PUSH8 0xFFFFFFFFFFFFFFFF DUP2 GT ISZERO PUSH2 0xC48 JUMPI PUSH2 0xC47 PUSH2 0x1972 JUMP JUMPDEST JUMPDEST PUSH1 0x40 MLOAD SWAP1 DUP1 DUP3 MSTORE DUP1 PUSH1 0x20 MUL PUSH1 0x20 ADD DUP3 ADD PUSH1 0x40 MSTORE DUP1 ISZERO PUSH2 0xC76 JUMPI DUP2 PUSH1 0x20 ADD PUSH1 0x20 DUP3 MUL DUP1 CALLDATASIZE DUP4 CALLDATACOPY DUP1 DUP3 ADD SWAP2 POP POP SWAP1 POP JUMPDEST POP DUP2 MSTORE POP DUP2 MSTORE PUSH1 0x20 ADD CALLER PUSH20 0xFFFFFFFFFFFFFFFFFFFFFFFFFFFFFFFFFFFFFFFF AND DUP2 MSTORE POP SWAP1 POP DUP1 PUSH1 0x1 PUSH0 DUP1 SLOAD DUP2 MSTORE PUSH1 0x20 ADD SWAP1 DUP2 MSTORE PUSH1 0x20 ADD PUSH0 KECCAK256 PUSH0 DUP3 ADD MLOAD DUP2 PUSH0 ADD SWAP1 DUP2 PUSH2 0xCC1 SWAP2 SWAP1 PUSH2 0x203A JUMP JUMPDEST POP PUSH1 0x20 DUP3 ADD MLOAD DUP2 PUSH1 0x1 ADD PUSH0 DUP3 ADD MLOAD DUP2 PUSH0 ADD SWAP1 DUP1 MLOAD SWAP1 PUSH1 0x20 ADD SWAP1 PUSH2 0xCE5 SWAP3 SWAP2 SWAP1 PUSH2 0xEDA JUMP JUMPDEST POP PUSH1 0x20 DUP3 ADD MLOAD DUP2 PUSH1 0x1 ADD SWAP1 DUP1 MLOAD SWAP1 PUSH1 0x20 ADD SWAP1 PUSH2 0xD02 SWAP3 SWAP2 SWAP1 PUSH2 0xF31 JUMP JUMPDEST POP POP POP PUSH1 0x40 DUP3 ADD MLOAD DUP2 PUSH1 0x3 ADD PUSH0 PUSH2 0x100 EXP DUP2 SLOAD DUP2 PUSH20 0xFFFFFFFFFFFFFFFFFFFFFFFFFFFFFFFFFFFFFFFF MUL NOT AND SWAP1 DUP4 PUSH20 0xFFFFFFFFFFFFFFFFFFFFFFFFFFFFFFFFFFFFFFFF AND MUL OR SWAP1 SSTORE POP SWAP1 POP POP PUSH1 0x2 PUSH0 DUP2 SLOAD DUP1 SWAP3 SWAP2 SWAP1 PUSH2 0xD60 SWAP1 PUSH2 0x1FF3 JUMP JUMPDEST SWAP2 SWAP1 POP SSTORE POP PUSH0 SLOAD SWAP2 POP POP SWAP3 SWAP2 POP POP JUMP JUMPDEST PUSH0 DUP1 PUSH0 SWAP1 POP JUMPDEST DUP5 MLOAD DUP2 LT ISZERO PUSH2 0xDD5 JUMPI DUP4 DUP4 PUSH1 0x40 MLOAD PUSH2 0xD8F SWAP3 SWAP2 SWAP1 PUSH2 0x2145 JUMP JUMPDEST PUSH1 0x40 MLOAD DUP1 SWAP2 SUB SWAP1 KECCAK256 DUP6 DUP3 DUP2 MLOAD DUP2 LT PUSH2 0xDAA JUMPI PUSH2 0xDA9 PUSH2 0x215D JUMP JUMPDEST JUMPDEST PUSH1 0x20 MUL PUSH1 0x20 ADD ADD MLOAD DUP1 MLOAD SWAP1 PUSH1 0x20 ADD KECCAK256 SUB PUSH2 0xDC8 JUMPI PUSH1 0x1 SWAP2 POP POP PUSH2 0xDDA JUMP JUMPDEST DUP1 DUP1 PUSH1 0x1 ADD SWAP2 POP POP PUSH2 0xD76 JUMP JUMPDEST POP PUSH0 SWAP1 POP JUMPDEST SWAP4 SWAP3 POP POP POP JUMP JUMPDEST PUSH0 JUMPDEST DUP3 MLOAD DUP2 LT ISZERO PUSH2 0xE5C JUMPI PUSH1 0x64 DUP3 PUSH2 0xDF9 SWAP2 SWAP1 PUSH2 0x21B7 JUMP JUMPDEST PUSH1 0xFF AND DUP4 DUP3 DUP2 MLOAD DUP2 LT PUSH2 0xE0F JUMPI PUSH2 0xE0E PUSH2 0x215D JUMP JUMPDEST JUMPDEST PUSH1 0x20 MUL PUSH1 0x20 ADD ADD MLOAD PUSH2 0xE21 SWAP2 SWAP1 PUSH2 0x1899 JUMP JUMPDEST DUP4 DUP3 DUP2 MLOAD DUP2 LT PUSH2 0xE34 JUMPI PUSH2 0xE33 PUSH2 0x215D JUMP JUMPDEST JUMPDEST PUSH1 0x20 MUL PUSH1 0x20 ADD ADD DUP2 DUP2 MLOAD PUSH2 0xE48 SWAP2 SWAP1 PUSH2 0x21E7 JUMP JUMPDEST SWAP2 POP DUP2 DUP2 MSTORE POP POP DUP1 DUP1 PUSH1 0x1 ADD SWAP2 POP POP PUSH2 0xDE3 JUMP JUMPDEST POP POP POP JUMP JUMPDEST POP DUP1 SLOAD PUSH2 0xE6D SWAP1 PUSH2 0x1581 JUMP JUMPDEST PUSH0 DUP3 SSTORE DUP1 PUSH1 0x1F LT PUSH2 0xE7E JUMPI POP PUSH2 0xE9B JUMP JUMPDEST PUSH1 0x1F ADD PUSH1 0x20 SWAP1 DIV SWAP1 PUSH0 MSTORE PUSH1 0x20 PUSH0 KECCAK256 SWAP1 DUP2 ADD SWAP1 PUSH2 0xE9A SWAP2 SWAP1 PUSH2 0xF7C JUMP JUMPDEST JUMPDEST POP JUMP JUMPDEST POP DUP1 SLOAD PUSH0 DUP3 SSTORE SWAP1 PUSH0 MSTORE PUSH1 0x20 PUSH0 KECCAK256 SWAP1 DUP2 ADD SWAP1 PUSH2 0xEB9 SWAP2 SWAP1 PUSH2 0xF97 JUMP JUMPDEST POP JUMP JUMPDEST POP DUP1 SLOAD PUSH0 DUP3 SSTORE SWAP1 PUSH0 MSTORE PUSH1 0x20 PUSH0 KECCAK256 SWAP1 DUP2 ADD SWAP1 PUSH2 0xED7 SWAP2 SWAP1 PUSH2 0xF7C JUMP JUMPDEST POP JUMP JUMPDEST DUP3 DUP1 SLOAD DUP3 DUP3 SSTORE SWAP1 PUSH0 MSTORE PUSH1 0x20 PUSH0 KECCAK256 SWAP1 DUP2 ADD SWAP3 DUP3 ISZERO PUSH2 0xF20 JUMPI SWAP2 PUSH1 0x20 MUL DUP3 ADD JUMPDEST DUP3 DUP2 GT ISZERO PUSH2 0xF1F JUMPI DUP3 MLOAD DUP3 SWAP1 DUP2 PUSH2 0xF0F SWAP2 SWAP1 PUSH2 0x203A JUMP JUMPDEST POP SWAP2 PUSH1 0x20 ADD SWAP2 SWAP1 PUSH1 0x1 ADD SWAP1 PUSH2 0xEF8 JUMP JUMPDEST JUMPDEST POP SWAP1 POP PUSH2 0xF2D SWAP2 SWAP1 PUSH2 0xF97 JUMP JUMPDEST POP SWAP1 JUMP JUMPDEST DUP3 DUP1 SLOAD DUP3 DUP3 SSTORE SWAP1 PUSH0 MSTORE PUSH1 0x20 PUSH0 KECCAK256 SWAP1 DUP2 ADD SWAP3 DUP3 ISZERO PUSH2 0xF6B JUMPI SWAP2 PUSH1 0x20 MUL DUP3 ADD JUMPDEST DUP3 DUP2 GT ISZERO PUSH2 0xF6A JUMPI DUP3 MLOAD DUP3 SSTORE SWAP2 PUSH1 0x20 ADD SWAP2 SWAP1 PUSH1 0x1 ADD SWAP1 PUSH2 0xF4F JUMP JUMPDEST JUMPDEST POP SWAP1 POP PUSH2 0xF78 SWAP2 SWAP1 PUSH2 0xF7C JUMP JUMPDEST POP SWAP1 JUMP JUMPDEST JUMPDEST DUP1 DUP3 GT ISZERO PUSH2 0xF93 JUMPI PUSH0 DUP2 PUSH0 SWAP1 SSTORE POP PUSH1 0x1 ADD PUSH2 0xF7D JUMP JUMPDEST POP SWAP1 JUMP JUMPDEST JUMPDEST DUP1 DUP3 GT ISZERO PUSH2 0xFB6 JUMPI PUSH0 DUP2 DUP2 PUSH2 0xFAD SWAP2 SWAP1 PUSH2 0xE61 JUMP JUMPDEST POP PUSH1 0x1 ADD PUSH2 0xF98 JUMP JUMPDEST POP SWAP1 JUMP JUMPDEST PUSH0 DUP1 REVERT JUMPDEST PUSH0 DUP1 REVERT JUMPDEST PUSH0 DUP2 SWAP1 POP SWAP2 SWAP1 POP JUMP JUMPDEST PUSH2 0xFD4 DUP2 PUSH2 0xFC2 JUMP JUMPDEST DUP2 EQ PUSH2 0xFDE JUMPI PUSH0 DUP1 REVERT JUMPDEST POP JUMP JUMPDEST PUSH0 DUP2 CALLDATALOAD SWAP1 POP PUSH2 0xFEF DUP2 PUSH2 0xFCB JUMP JUMPDEST SWAP3 SWAP2 POP POP JUMP JUMPDEST PUSH0 DUP1 REVERT JUMPDEST PUSH0 DUP1 REVERT JUMPDEST PUSH0 DUP1 REVERT JUMPDEST PUSH0 DUP1 DUP4 PUSH1 0x1F DUP5 ADD SLT PUSH2 0x1016 JUMPI PUSH2 0x1015 PUSH2 0xFF5 JUMP JUMPDEST JUMPDEST DUP3 CALLDATALOAD SWAP1 POP PUSH8 0xFFFFFFFFFFFFFFFF DUP2 GT ISZERO PUSH2 0x1033 JUMPI PUSH2 0x1032 PUSH2 0xFF9 JUMP JUMPDEST JUMPDEST PUSH1 0x20 DUP4 ADD SWAP2 POP DUP4 PUSH1 0x1 DUP3 MUL DUP4 ADD GT ISZERO PUSH2 0x104F JUMPI PUSH2 0x104E PUSH2 0xFFD JUMP JUMPDEST JUMPDEST SWAP3 POP SWAP3 SWAP1 POP JUMP JUMPDEST PUSH0 DUP1 PUSH0 DUP1 PUSH1 0x60 DUP6 DUP8 SUB SLT ISZERO PUSH2 0x106E JUMPI PUSH2 0x106D PUSH2 0xFBA JUMP JUMPDEST JUMPDEST PUSH0 PUSH2 0x107B DUP8 DUP3 DUP9 ADD PUSH2 0xFE1 JUMP JUMPDEST SWAP5 POP POP PUSH1 0x20 DUP6 ADD CALLDATALOAD PUSH8 0xFFFFFFFFFFFFFFFF DUP2 GT ISZERO PUSH2 0x109C JUMPI PUSH2 0x109B PUSH2 0xFBE JUMP JUMPDEST JUMPDEST PUSH2 0x10A8 DUP8 DUP3 DUP9 ADD PUSH2 0x1001 JUMP JUMPDEST SWAP4 POP SWAP4 POP POP PUSH1 0x40 PUSH2 0x10BB DUP8 DUP3 DUP9 ADD PUSH2 0xFE1 JUMP JUMPDEST SWAP2 POP POP SWAP3 SWAP6 SWAP2 SWAP5 POP SWAP3 POP JUMP JUMPDEST PUSH0 PUSH1 0x20 DUP3 DUP5 SUB SLT ISZERO PUSH2 0x10DC JUMPI PUSH2 0x10DB PUSH2 0xFBA JUMP JUMPDEST JUMPDEST PUSH0 PUSH2 0x10E9 DUP5 DUP3 DUP6 ADD PUSH2 0xFE1 JUMP JUMPDEST SWAP2 POP POP SWAP3 SWAP2 POP POP JUMP JUMPDEST PUSH0 DUP2 MLOAD SWAP1 POP SWAP2 SWAP1 POP JUMP JUMPDEST PUSH0 DUP3 DUP3 MSTORE PUSH1 0x20 DUP3 ADD SWAP1 POP SWAP3 SWAP2 POP POP JUMP JUMPDEST DUP3 DUP2 DUP4 MCOPY PUSH0 DUP4 DUP4 ADD MSTORE POP POP POP JUMP JUMPDEST PUSH0 PUSH1 0x1F NOT PUSH1 0x1F DUP4 ADD AND SWAP1 POP SWAP2 SWAP1 POP JUMP JUMPDEST PUSH0 PUSH2 0x1134 DUP3 PUSH2 0x10F2 JUMP JUMPDEST PUSH2 0x113E DUP2 DUP6 PUSH2 0x10FC JUMP JUMPDEST SWAP4 POP PUSH2 0x114E DUP2 DUP6 PUSH1 0x20 DUP7 ADD PUSH2 0x110C JUMP JUMPDEST PUSH2 0x1157 DUP2 PUSH2 0x111A JUMP JUMPDEST DUP5 ADD SWAP2 POP POP SWAP3 SWAP2 POP POP JUMP JUMPDEST PUSH0 DUP2 MLOAD SWAP1 POP SWAP2 SWAP1 POP JUMP JUMPDEST PUSH0 DUP3 DUP3 MSTORE PUSH1 0x20 DUP3 ADD SWAP1 POP SWAP3 SWAP2 POP POP JUMP JUMPDEST PUSH0 DUP2 SWAP1 POP PUSH1 0x20 DUP3 ADD SWAP1 POP SWAP2 SWAP1 POP JUMP JUMPDEST PUSH0 DUP3 DUP3 MSTORE PUSH1 0x20 DUP3 ADD SWAP1 POP SWAP3 SWAP2 POP POP JUMP JUMPDEST PUSH0 PUSH2 0x11A5 DUP3 PUSH2 0x10F2 JUMP JUMPDEST PUSH2 0x11AF DUP2 DUP6 PUSH2 0x118B JUMP JUMPDEST SWAP4 POP PUSH2 0x11BF DUP2 DUP6 PUSH1 0x20 DUP7 ADD PUSH2 0x110C JUMP JUMPDEST PUSH2 0x11C8 DUP2 PUSH2 0x111A JUMP JUMPDEST DUP5 ADD SWAP2 POP POP SWAP3 SWAP2 POP POP JUMP JUMPDEST PUSH0 PUSH2 0x11DE DUP4 DUP4 PUSH2 0x119B JUMP JUMPDEST SWAP1 POP SWAP3 SWAP2 POP POP JUMP JUMPDEST PUSH0 PUSH1 0x20 DUP3 ADD SWAP1 POP SWAP2 SWAP1 POP JUMP JUMPDEST PUSH0 PUSH2 0x11FC DUP3 PUSH2 0x1162 JUMP JUMPDEST PUSH2 0x1206 DUP2 DUP6 PUSH2 0x116C JUMP JUMPDEST SWAP4 POP DUP4 PUSH1 0x20 DUP3 MUL DUP6 ADD PUSH2 0x1218 DUP6 PUSH2 0x117C JUMP JUMPDEST DUP1 PUSH0 JUMPDEST DUP6 DUP2 LT ISZERO PUSH2 0x1253 JUMPI DUP5 DUP5 SUB DUP10 MSTORE DUP2 MLOAD PUSH2 0x1234 DUP6 DUP3 PUSH2 0x11D3 JUMP JUMPDEST SWAP5 POP PUSH2 0x123F DUP4 PUSH2 0x11E6 JUMP JUMPDEST SWAP3 POP PUSH1 0x20 DUP11 ADD SWAP10 POP POP PUSH1 0x1 DUP2 ADD SWAP1 POP PUSH2 0x121B JUMP JUMPDEST POP DUP3 SWAP8 POP DUP8 SWAP6 POP POP POP POP POP POP SWAP3 SWAP2 POP POP JUMP JUMPDEST PUSH0 DUP2 MLOAD SWAP1 POP SWAP2 SWAP1 POP JUMP JUMPDEST PUSH0 DUP3 DUP3 MSTORE PUSH1 0x20 DUP3 ADD SWAP1 POP SWAP3 SWAP2 POP POP JUMP JUMPDEST PUSH0 DUP2 SWAP1 POP PUSH1 0x20 DUP3 ADD SWAP1 POP SWAP2 SWAP1 POP JUMP JUMPDEST PUSH2 0x1297 DUP2 PUSH2 0xFC2 JUMP JUMPDEST DUP3 MSTORE POP POP JUMP JUMPDEST PUSH0 PUSH2 0x12A8 DUP4 DUP4 PUSH2 0x128E JUMP JUMPDEST PUSH1 0x20 DUP4 ADD SWAP1 POP SWAP3 SWAP2 POP POP JUMP JUMPDEST PUSH0 PUSH1 0x20 DUP3 ADD SWAP1 POP SWAP2 SWAP1 POP JUMP JUMPDEST PUSH0 PUSH2 0x12CA DUP3 PUSH2 0x1265 JUMP JUMPDEST PUSH2 0x12D4 DUP2 DUP6 PUSH2 0x126F JUMP JUMPDEST SWAP4 POP PUSH2 0x12DF DUP4 PUSH2 0x127F JUMP JUMPDEST DUP1 PUSH0 JUMPDEST DUP4 DUP2 LT ISZERO PUSH2 0x130F JUMPI DUP2 MLOAD PUSH2 0x12F6 DUP9 DUP3 PUSH2 0x129D JUMP JUMPDEST SWAP8 POP PUSH2 0x1301 DUP4 PUSH2 0x12B4 JUMP JUMPDEST SWAP3 POP POP PUSH1 0x1 DUP2 ADD SWAP1 POP PUSH2 0x12E2 JUMP JUMPDEST POP DUP6 SWAP4 POP POP POP POP SWAP3 SWAP2 POP POP JUMP JUMPDEST PUSH0 PUSH1 0x40 DUP4 ADD PUSH0 DUP4 ADD MLOAD DUP5 DUP3 SUB PUSH0 DUP7 ADD MSTORE PUSH2 0x1336 DUP3 DUP3 PUSH2 0x11F2 JUMP JUMPDEST SWAP2 POP POP PUSH1 0x20 DUP4 ADD MLOAD DUP5 DUP3 SUB PUSH1 0x20 DUP7 ADD MSTORE PUSH2 0x1350 DUP3 DUP3 PUSH2 0x12C0 JUMP JUMPDEST SWAP2 POP POP DUP1 SWAP2 POP POP SWAP3 SWAP2 POP POP JUMP JUMPDEST PUSH0 PUSH20 0xFFFFFFFFFFFFFFFFFFFFFFFFFFFFFFFFFFFFFFFF DUP3 AND SWAP1 POP SWAP2 SWAP1 POP JUMP JUMPDEST PUSH0 PUSH2 0x1386 DUP3 PUSH2 0x135D JUMP JUMPDEST SWAP1 POP SWAP2 SWAP1 POP JUMP JUMPDEST PUSH2 0x1396 DUP2 PUSH2 0x137C JUMP JUMPDEST DUP3 MSTORE POP POP JUMP JUMPDEST PUSH0 PUSH1 0x60 DUP3 ADD SWAP1 POP DUP2 DUP2 SUB PUSH0 DUP4 ADD MSTORE PUSH2 0x13B4 DUP2 DUP7 PUSH2 0x112A JUMP JUMPDEST SWAP1 POP DUP2 DUP2 SUB PUSH1 0x20 DUP4 ADD MSTORE PUSH2 0x13C8 DUP2 DUP6 PUSH2 0x131C JUMP JUMPDEST SWAP1 POP PUSH2 0x13D7 PUSH1 0x40 DUP4 ADD DUP5 PUSH2 0x138D JUMP JUMPDEST SWAP5 SWAP4 POP POP POP POP JUMP JUMPDEST PUSH0 PUSH1 0xFF DUP3 AND SWAP1 POP SWAP2 SWAP1 POP JUMP JUMPDEST PUSH2 0x13F4 DUP2 PUSH2 0x13DF JUMP JUMPDEST DUP2 EQ PUSH2 0x13FE JUMPI PUSH0 DUP1 REVERT JUMPDEST POP JUMP JUMPDEST PUSH0 DUP2 CALLDATALOAD SWAP1 POP PUSH2 0x140F DUP2 PUSH2 0x13EB JUMP JUMPDEST SWAP3 SWAP2 POP POP JUMP JUMPDEST PUSH0 DUP1 PUSH1 0x40 DUP4 DUP6 SUB SLT ISZERO PUSH2 0x142B JUMPI PUSH2 0x142A PUSH2 0xFBA JUMP JUMPDEST JUMPDEST PUSH0 PUSH2 0x1438 DUP6 DUP3 DUP7 ADD PUSH2 0xFE1 JUMP JUMPDEST SWAP3 POP POP PUSH1 0x20 PUSH2 0x1449 DUP6 DUP3 DUP7 ADD PUSH2 0x1401 JUMP JUMPDEST SWAP2 POP POP SWAP3 POP SWAP3 SWAP1 POP JUMP JUMPDEST PUSH2 0x145C DUP2 PUSH2 0xFC2 JUMP JUMPDEST DUP3 MSTORE POP POP JUMP JUMPDEST PUSH0 PUSH1 0x20 DUP3 ADD SWAP1 POP PUSH2 0x1475 PUSH0 DUP4 ADD DUP5 PUSH2 0x1453 JUMP JUMPDEST SWAP3 SWAP2 POP POP JUMP JUMPDEST PUSH0 DUP1 PUSH1 0x20 DUP4 DUP6 SUB SLT ISZERO PUSH2 0x1491 JUMPI PUSH2 0x1490 PUSH2 0xFBA JUMP JUMPDEST JUMPDEST PUSH0 DUP4 ADD CALLDATALOAD PUSH8 0xFFFFFFFFFFFFFFFF DUP2 GT ISZERO PUSH2 0x14AE JUMPI PUSH2 0x14AD PUSH2 0xFBE JUMP JUMPDEST JUMPDEST PUSH2 0x14BA DUP6 DUP3 DUP7 ADD PUSH2 0x1001 JUMP JUMPDEST SWAP3 POP SWAP3 POP POP SWAP3 POP SWAP3 SWAP1 POP JUMP JUMPDEST PUSH32 0x4E6F2070756564657320637265617220756E2061726D61206120756E20706572 PUSH0 DUP3 ADD MSTORE PUSH32 0x736F6E616A6520696E6578697374656E74650000000000000000000000000000 PUSH1 0x20 DUP3 ADD MSTORE POP JUMP JUMPDEST PUSH0 PUSH2 0x1520 PUSH1 0x32 DUP4 PUSH2 0x10FC JUMP JUMPDEST SWAP2 POP PUSH2 0x152B DUP3 PUSH2 0x14C6 JUMP JUMPDEST PUSH1 0x40 DUP3 ADD SWAP1 POP SWAP2 SWAP1 POP JUMP JUMPDEST PUSH0 PUSH1 0x20 DUP3 ADD SWAP1 POP DUP2 DUP2 SUB PUSH0 DUP4 ADD MSTORE PUSH2 0x154D DUP2 PUSH2 0x1514 JUMP JUMPDEST SWAP1 POP SWAP2 SWAP1 POP JUMP JUMPDEST PUSH32 0x4E487B7100000000000000000000000000000000000000000000000000000000 PUSH0 MSTORE PUSH1 0x22 PUSH1 0x4 MSTORE PUSH1 0x24 PUSH0 REVERT JUMPDEST PUSH0 PUSH1 0x2 DUP3 DIV SWAP1 POP PUSH1 0x1 DUP3 AND DUP1 PUSH2 0x1598 JUMPI PUSH1 0x7F DUP3 AND SWAP2 POP JUMPDEST PUSH1 0x20 DUP3 LT DUP2 SUB PUSH2 0x15AB JUMPI PUSH2 0x15AA PUSH2 0x1554 JUMP JUMPDEST JUMPDEST POP SWAP2 SWAP1 POP JUMP JUMPDEST PUSH32 0x456C2061726D612071756520657374617320696E74656E74616E646F63206372 PUSH0 DUP3 ADD MSTORE PUSH32 0x6561722079612065786973746500000000000000000000000000000000000000 PUSH1 0x20 DUP3 ADD MSTORE POP JUMP JUMPDEST PUSH0 PUSH2 0x160B PUSH1 0x2D DUP4 PUSH2 0x10FC JUMP JUMPDEST SWAP2 POP PUSH2 0x1616 DUP3 PUSH2 0x15B1 JUMP JUMPDEST PUSH1 0x40 DUP3 ADD SWAP1 POP SWAP2 SWAP1 POP JUMP JUMPDEST PUSH0 PUSH1 0x20 DUP3 ADD SWAP1 POP DUP2 DUP2 SUB PUSH0 DUP4 ADD MSTORE PUSH2 0x1638 DUP2 PUSH2 0x15FF JUMP JUMPDEST SWAP1 POP SWAP2 SWAP1 POP JUMP JUMPDEST PUSH32 0x4465206D6F6D656E746F2C20736F6C6F20656C2070726F706965746172696F20 PUSH0 DUP3 ADD MSTORE PUSH32 0x64656C20746F6B656E20707565646520616772656761722061726D6173206120 PUSH1 0x20 DUP3 ADD MSTORE PUSH32 0x73757320706572736F6E616A65732E0000000000000000000000000000000000 PUSH1 0x40 DUP3 ADD MSTORE POP JUMP JUMPDEST PUSH0 PUSH2 0x16BF PUSH1 0x4F DUP4 PUSH2 0x10FC JUMP JUMPDEST SWAP2 POP PUSH2 0x16CA DUP3 PUSH2 0x163F JUMP JUMPDEST PUSH1 0x60 DUP3 ADD SWAP1 POP SWAP2 SWAP1 POP JUMP JUMPDEST PUSH0 PUSH1 0x20 DUP3 ADD SWAP1 POP DUP2 DUP2 SUB PUSH0 DUP4 ADD MSTORE PUSH2 0x16EC DUP2 PUSH2 0x16B3 JUMP JUMPDEST SWAP1 POP SWAP2 SWAP1 POP JUMP JUMPDEST PUSH32 0x4E487B7100000000000000000000000000000000000000000000000000000000 PUSH0 MSTORE PUSH1 0x11 PUSH1 0x4 MSTORE PUSH1 0x24 PUSH0 REVERT JUMPDEST PUSH0 DUP2 PUSH1 0x1 SHR SWAP1 POP SWAP2 SWAP1 POP JUMP JUMPDEST PUSH0 DUP1 DUP3 SWAP2 POP DUP4 SWAP1 POP JUMPDEST PUSH1 0x1 DUP6 GT ISZERO PUSH2 0x1775 JUMPI DUP1 DUP7 DIV DUP2 GT ISZERO PUSH2 0x1751 JUMPI PUSH2 0x1750 PUSH2 0x16F3 JUMP JUMPDEST JUMPDEST PUSH1 0x1 DUP6 AND ISZERO PUSH2 0x1760 JUMPI DUP1 DUP3 MUL SWAP2 POP JUMPDEST DUP1 DUP2 MUL SWAP1 POP PUSH2 0x176E DUP6 PUSH2 0x1720 JUMP JUMPDEST SWAP5 POP PUSH2 0x1735 JUMP JUMPDEST SWAP5 POP SWAP5 SWAP3 POP POP POP JUMP JUMPDEST PUSH0 DUP3 PUSH2 0x178D JUMPI PUSH1 0x1 SWAP1 POP PUSH2 0x1848 JUMP JUMPDEST DUP2 PUSH2 0x179A JUMPI PUSH0 SWAP1 POP PUSH2 0x1848 JUMP JUMPDEST DUP2 PUSH1 0x1 DUP2 EQ PUSH2 0x17B0 JUMPI PUSH1 0x2 DUP2 EQ PUSH2 0x17BA JUMPI PUSH2 0x17E9 JUMP JUMPDEST PUSH1 0x1 SWAP2 POP POP PUSH2 0x1848 JUMP JUMPDEST PUSH1 0xFF DUP5 GT ISZERO PUSH2 0x17CC JUMPI PUSH2 0x17CB PUSH2 0x16F3 JUMP JUMPDEST JUMPDEST DUP4 PUSH1 0x2 EXP SWAP2 POP DUP5 DUP3 GT ISZERO PUSH2 0x17E3 JUMPI PUSH2 0x17E2 PUSH2 0x16F3 JUMP JUMPDEST JUMPDEST POP PUSH2 0x1848 JUMP JUMPDEST POP PUSH1 0x20 DUP4 LT PUSH2 0x133 DUP4 LT AND PUSH1 0x4E DUP5 LT PUSH1 0xB DUP5 LT AND OR ISZERO PUSH2 0x181E JUMPI DUP3 DUP3 EXP SWAP1 POP DUP4 DUP2 GT ISZERO PUSH2 0x1819 JUMPI PUSH2 0x1818 PUSH2 0x16F3 JUMP JUMPDEST JUMPDEST PUSH2 0x1848 JUMP JUMPDEST PUSH2 0x182B DUP5 DUP5 DUP5 PUSH1 0x1 PUSH2 0x172C JUMP JUMPDEST SWAP3 POP SWAP1 POP DUP2 DUP5 DIV DUP2 GT ISZERO PUSH2 0x1842 JUMPI PUSH2 0x1841 PUSH2 0x16F3 JUMP JUMPDEST JUMPDEST DUP2 DUP2 MUL SWAP1 POP JUMPDEST SWAP4 SWAP3 POP POP POP JUMP JUMPDEST PUSH0 PUSH2 0x1859 DUP3 PUSH2 0xFC2 JUMP JUMPDEST SWAP2 POP PUSH2 0x1864 DUP4 PUSH2 0xFC2 JUMP JUMPDEST SWAP3 POP PUSH2 0x1891 PUSH32 0xFFFFFFFFFFFFFFFFFFFFFFFFFFFFFFFFFFFFFFFFFFFFFFFFFFFFFFFFFFFFFFFF DUP5 DUP5 PUSH2 0x177E JUMP JUMPDEST SWAP1 POP SWAP3 SWAP2 POP POP JUMP JUMPDEST PUSH0 PUSH2 0x18A3 DUP3 PUSH2 0xFC2 JUMP JUMPDEST SWAP2 POP PUSH2 0x18AE DUP4 PUSH2 0xFC2 JUMP JUMPDEST SWAP3 POP DUP3 DUP3 MUL PUSH2 0x18BC DUP2 PUSH2 0xFC2 JUMP JUMPDEST SWAP2 POP DUP3 DUP3 DIV DUP5 EQ DUP4 ISZERO OR PUSH2 0x18D3 JUMPI PUSH2 0x18D2 PUSH2 0x16F3 JUMP JUMPDEST JUMPDEST POP SWAP3 SWAP2 POP POP JUMP JUMPDEST PUSH32 0x4E6F207469656E657320737566696369656E7465732077656973207061726120 PUSH0 DUP3 ADD MSTORE PUSH32 0x6167726567617220656C2061726D610000000000000000000000000000000000 PUSH1 0x20 DUP3 ADD MSTORE POP JUMP JUMPDEST PUSH0 PUSH2 0x1934 PUSH1 0x2F DUP4 PUSH2 0x10FC JUMP JUMPDEST SWAP2 POP PUSH2 0x193F DUP3 PUSH2 0x18DA JUMP JUMPDEST PUSH1 0x40 DUP3 ADD SWAP1 POP SWAP2 SWAP1 POP JUMP JUMPDEST PUSH0 PUSH1 0x20 DUP3 ADD SWAP1 POP DUP2 DUP2 SUB PUSH0 DUP4 ADD MSTORE PUSH2 0x1961 DUP2 PUSH2 0x1928 JUMP JUMPDEST SWAP1 POP SWAP2 SWAP1 POP JUMP JUMPDEST PUSH0 DUP3 SWAP1 POP SWAP3 SWAP2 POP POP JUMP JUMPDEST PUSH32 0x4E487B7100000000000000000000000000000000000000000000000000000000 PUSH0 MSTORE PUSH1 0x41 PUSH1 0x4 MSTORE PUSH1 0x24 PUSH0 REVERT JUMPDEST PUSH0 DUP2 SWAP1 POP DUP2 PUSH0 MSTORE PUSH1 0x20 PUSH0 KECCAK256 SWAP1 POP SWAP2 SWAP1 POP JUMP JUMPDEST PUSH0 PUSH1 0x20 PUSH1 0x1F DUP4 ADD DIV SWAP1 POP SWAP2 SWAP1 POP JUMP JUMPDEST PUSH0 DUP3 DUP3 SHL SWAP1 POP SWAP3 SWAP2 POP POP JUMP JUMPDEST PUSH0 PUSH1 0x8 DUP4 MUL PUSH2 0x19FB PUSH32 0xFFFFFFFFFFFFFFFFFFFFFFFFFFFFFFFFFFFFFFFFFFFFFFFFFFFFFFFFFFFFFFFF DUP3 PUSH2 0x19C0 JUMP JUMPDEST PUSH2 0x1A05 DUP7 DUP4 PUSH2 0x19C0 JUMP JUMPDEST SWAP6 POP DUP1 NOT DUP5 AND SWAP4 POP DUP1 DUP7 AND DUP5 OR SWAP3 POP POP POP SWAP4 SWAP3 POP POP POP JUMP JUMPDEST PUSH0 DUP2 SWAP1 POP SWAP2 SWAP1 POP JUMP JUMPDEST PUSH0 PUSH2 0x1A40 PUSH2 0x1A3B PUSH2 0x1A36 DUP5 PUSH2 0xFC2 JUMP JUMPDEST PUSH2 0x1A1D JUMP JUMPDEST PUSH2 0xFC2 JUMP JUMPDEST SWAP1 POP SWAP2 SWAP1 POP JUMP JUMPDEST PUSH0 DUP2 SWAP1 POP SWAP2 SWAP1 POP JUMP JUMPDEST PUSH2 0x1A59 DUP4 PUSH2 0x1A26 JUMP JUMPDEST PUSH2 0x1A6D PUSH2 0x1A65 DUP3 PUSH2 0x1A47 JUMP JUMPDEST DUP5 DUP5 SLOAD PUSH2 0x19CC JUMP JUMPDEST DUP3 SSTORE POP POP POP POP JUMP JUMPDEST PUSH0 SWAP1 JUMP JUMPDEST PUSH2 0x1A81 PUSH2 0x1A75 JUMP JUMPDEST PUSH2 0x1A8C DUP2 DUP5 DUP5 PUSH2 0x1A50 JUMP JUMPDEST POP POP POP JUMP JUMPDEST JUMPDEST DUP2 DUP2 LT ISZERO PUSH2 0x1AAF JUMPI PUSH2 0x1AA4 PUSH0 DUP3 PUSH2 0x1A79 JUMP JUMPDEST PUSH1 0x1 DUP2 ADD SWAP1 POP PUSH2 0x1A92 JUMP JUMPDEST POP POP JUMP JUMPDEST PUSH1 0x1F DUP3 GT ISZERO PUSH2 0x1AF4 JUMPI PUSH2 0x1AC5 DUP2 PUSH2 0x199F JUMP JUMPDEST PUSH2 0x1ACE DUP5 PUSH2 0x19B1 JUMP JUMPDEST DUP2 ADD PUSH1 0x20 DUP6 LT ISZERO PUSH2 0x1ADD JUMPI DUP2 SWAP1 POP JUMPDEST PUSH2 0x1AF1 PUSH2 0x1AE9 DUP6 PUSH2 0x19B1 JUMP JUMPDEST DUP4 ADD DUP3 PUSH2 0x1A91 JUMP JUMPDEST POP POP JUMPDEST POP POP POP JUMP JUMPDEST PUSH0 DUP3 DUP3 SHR SWAP1 POP SWAP3 SWAP2 POP POP JUMP JUMPDEST PUSH0 PUSH2 0x1B14 PUSH0 NOT DUP5 PUSH1 0x8 MUL PUSH2 0x1AF9 JUMP JUMPDEST NOT DUP1 DUP4 AND SWAP2 POP POP SWAP3 SWAP2 POP POP JUMP JUMPDEST PUSH0 PUSH2 0x1B2C DUP4 DUP4 PUSH2 0x1B05 JUMP JUMPDEST SWAP2 POP DUP3 PUSH1 0x2 MUL DUP3 OR SWAP1 POP SWAP3 SWAP2 POP POP JUMP JUMPDEST PUSH2 0x1B46 DUP4 DUP4 PUSH2 0x1968 JUMP JUMPDEST PUSH8 0xFFFFFFFFFFFFFFFF DUP2 GT ISZERO PUSH2 0x1B5F JUMPI PUSH2 0x1B5E PUSH2 0x1972 JUMP JUMPDEST JUMPDEST PUSH2 0x1B69 DUP3 SLOAD PUSH2 0x1581 JUMP JUMPDEST PUSH2 0x1B74 DUP3 DUP3 DUP6 PUSH2 0x1AB3 JUMP JUMPDEST PUSH0 PUSH1 0x1F DUP4 GT PUSH1 0x1 DUP2 EQ PUSH2 0x1BA1 JUMPI PUSH0 DUP5 ISZERO PUSH2 0x1B8F JUMPI DUP3 DUP8 ADD CALLDATALOAD SWAP1 POP JUMPDEST PUSH2 0x1B99 DUP6 DUP3 PUSH2 0x1B21 JUMP JUMPDEST DUP7 SSTORE POP PUSH2 0x1C00 JUMP JUMPDEST PUSH1 0x1F NOT DUP5 AND PUSH2 0x1BAF DUP7 PUSH2 0x199F JUMP JUMPDEST PUSH0 JUMPDEST DUP3 DUP2 LT ISZERO PUSH2 0x1BD6 JUMPI DUP5 DUP10 ADD CALLDATALOAD DUP3 SSTORE PUSH1 0x1 DUP3 ADD SWAP2 POP PUSH1 0x20 DUP6 ADD SWAP5 POP PUSH1 0x20 DUP2 ADD SWAP1 POP PUSH2 0x1BB1 JUMP JUMPDEST DUP7 DUP4 LT ISZERO PUSH2 0x1BF3 JUMPI DUP5 DUP10 ADD CALLDATALOAD PUSH2 0x1BEF PUSH1 0x1F DUP10 AND DUP3 PUSH2 0x1B05 JUMP JUMPDEST DUP4 SSTORE POP JUMPDEST PUSH1 0x1 PUSH1 0x2 DUP9 MUL ADD DUP9 SSTORE POP POP POP JUMPDEST POP POP POP POP POP POP POP JUMP JUMPDEST PUSH32 0x536F6C6F20656C2070726F706965746172696F2064656C20746F6B656E207075 PUSH0 DUP3 ADD MSTORE PUSH32 0x65646520626F7272617220656C20746F6B656E00000000000000000000000000 PUSH1 0x20 DUP3 ADD MSTORE POP JUMP JUMPDEST PUSH0 PUSH2 0x1C63 PUSH1 0x33 DUP4 PUSH2 0x10FC JUMP JUMPDEST SWAP2 POP PUSH2 0x1C6E DUP3 PUSH2 0x1C09 JUMP JUMPDEST PUSH1 0x40 DUP3 ADD SWAP1 POP SWAP2 SWAP1 POP JUMP JUMPDEST PUSH0 PUSH1 0x20 DUP3 ADD SWAP1 POP DUP2 DUP2 SUB PUSH0 DUP4 ADD MSTORE PUSH2 0x1C90 DUP2 PUSH2 0x1C57 JUMP JUMPDEST SWAP1 POP SWAP2 SWAP1 POP JUMP JUMPDEST PUSH0 PUSH2 0x1CA1 DUP3 PUSH2 0xFC2 JUMP JUMPDEST SWAP2 POP PUSH0 DUP3 SUB PUSH2 0x1CB3 JUMPI PUSH2 0x1CB2 PUSH2 0x16F3 JUMP JUMPDEST JUMPDEST PUSH1 0x1 DUP3 SUB SWAP1 POP SWAP2 SWAP1 POP JUMP JUMPDEST PUSH32 0x536F6C6F207075656465732072656369626972206C6F732070726F6669747320 PUSH0 DUP3 ADD MSTORE PUSH32 0x6465206573746520636F6E747261746F207369206572657320656C2070726F70 PUSH1 0x20 DUP3 ADD MSTORE PUSH32 0x6965746172696F2064656C206D69736D6F000000000000000000000000000000 PUSH1 0x40 DUP3 ADD MSTORE POP JUMP JUMPDEST PUSH0 PUSH2 0x1D3E PUSH1 0x51 DUP4 PUSH2 0x10FC JUMP JUMPDEST SWAP2 POP PUSH2 0x1D49 DUP3 PUSH2 0x1CBE JUMP JUMPDEST PUSH1 0x60 DUP3 ADD SWAP1 POP SWAP2 SWAP1 POP JUMP JUMPDEST PUSH0 PUSH1 0x20 DUP3 ADD SWAP1 POP DUP2 DUP2 SUB PUSH0 DUP4 ADD MSTORE PUSH2 0x1D6B DUP2 PUSH2 0x1D32 JUMP JUMPDEST SWAP1 POP SWAP2 SWAP1 POP JUMP JUMPDEST PUSH0 PUSH2 0x1D7C DUP3 PUSH2 0xFC2 JUMP JUMPDEST SWAP2 POP PUSH2 0x1D87 DUP4 PUSH2 0xFC2 JUMP JUMPDEST SWAP3 POP DUP3 DUP3 SUB SWAP1 POP DUP2 DUP2 GT ISZERO PUSH2 0x1D9F JUMPI PUSH2 0x1D9E PUSH2 0x16F3 JUMP JUMPDEST JUMPDEST SWAP3 SWAP2 POP POP JUMP JUMPDEST PUSH32 0x4E6F206861792062656E65666963696F732070617261207265636F6765720000 PUSH0 DUP3 ADD MSTORE POP JUMP JUMPDEST PUSH0 PUSH2 0x1DD9 PUSH1 0x1E DUP4 PUSH2 0x10FC JUMP JUMPDEST SWAP2 POP PUSH2 0x1DE4 DUP3 PUSH2 0x1DA5 JUMP JUMPDEST PUSH1 0x20 DUP3 ADD SWAP1 POP SWAP2 SWAP1 POP JUMP JUMPDEST PUSH0 PUSH1 0x20 DUP3 ADD SWAP1 POP DUP2 DUP2 SUB PUSH0 DUP4 ADD MSTORE PUSH2 0x1E06 DUP2 PUSH2 0x1DCD JUMP JUMPDEST SWAP1 POP SWAP2 SWAP1 POP JUMP JUMPDEST PUSH32 0x536F6C6F20656C2070726F706965746172696F2064656C20746F6B656E207075 PUSH0 DUP3 ADD MSTORE PUSH32 0x65646520656A656375746172206573746120616363696F6E2E00000000000000 PUSH1 0x20 DUP3 ADD MSTORE POP JUMP JUMPDEST PUSH0 PUSH2 0x1E67 PUSH1 0x39 DUP4 PUSH2 0x10FC JUMP JUMPDEST SWAP2 POP PUSH2 0x1E72 DUP3 PUSH2 0x1E0D JUMP JUMPDEST PUSH1 0x40 DUP3 ADD SWAP1 POP SWAP2 SWAP1 POP JUMP JUMPDEST PUSH0 PUSH1 0x20 DUP3 ADD SWAP1 POP DUP2 DUP2 SUB PUSH0 DUP4 ADD MSTORE PUSH2 0x1E94 DUP2 PUSH2 0x1E5B JUMP JUMPDEST SWAP1 POP SWAP2 SWAP1 POP JUMP JUMPDEST PUSH0 PUSH2 0x1EA5 DUP3 PUSH2 0x13DF JUMP JUMPDEST SWAP2 POP PUSH2 0x1EB0 DUP4 PUSH2 0x13DF JUMP JUMPDEST SWAP3 POP DUP3 DUP3 MUL PUSH2 0x1EBE DUP2 PUSH2 0x13DF JUMP JUMPDEST SWAP2 POP DUP1 DUP3 EQ PUSH2 0x1ED0 JUMPI PUSH2 0x1ECF PUSH2 0x16F3 JUMP JUMPDEST JUMPDEST POP SWAP3 SWAP2 POP POP JUMP JUMPDEST PUSH32 0x4E6F207469656E657320737566696369656E7465732077656973207061726120 PUSH0 DUP3 ADD MSTORE PUSH32 0x696E6372656D656E746172206C6120706F74656E636961206465207475732061 PUSH1 0x20 DUP3 ADD MSTORE PUSH32 0x726D617300000000000000000000000000000000000000000000000000000000 PUSH1 0x40 DUP3 ADD MSTORE POP JUMP JUMPDEST PUSH0 PUSH2 0x1F57 PUSH1 0x44 DUP4 PUSH2 0x10FC JUMP JUMPDEST SWAP2 POP PUSH2 0x1F62 DUP3 PUSH2 0x1ED7 JUMP JUMPDEST PUSH1 0x60 DUP3 ADD SWAP1 POP SWAP2 SWAP1 POP JUMP JUMPDEST PUSH0 PUSH1 0x20 DUP3 ADD SWAP1 POP DUP2 DUP2 SUB PUSH0 DUP4 ADD MSTORE PUSH2 0x1F84 DUP2 PUSH2 0x1F4B JUMP JUMPDEST SWAP1 POP SWAP2 SWAP1 POP JUMP JUMPDEST PUSH32 0x456C20696D706F727465206120646520736572206D696C207765697300000000 PUSH0 DUP3 ADD MSTORE POP JUMP JUMPDEST PUSH0 PUSH2 0x1FBF PUSH1 0x1C DUP4 PUSH2 0x10FC JUMP JUMPDEST SWAP2 POP PUSH2 0x1FCA DUP3 PUSH2 0x1F8B JUMP JUMPDEST PUSH1 0x20 DUP3 ADD SWAP1 POP SWAP2 SWAP1 POP JUMP JUMPDEST PUSH0 PUSH1 0x20 DUP3 ADD SWAP1 POP DUP2 DUP2 SUB PUSH0 DUP4 ADD MSTORE PUSH2 0x1FEC DUP2 PUSH2 0x1FB3 JUMP JUMPDEST SWAP1 POP SWAP2 SWAP1 POP JUMP JUMPDEST PUSH0 PUSH2 0x1FFD DUP3 PUSH2 0xFC2 JUMP JUMPDEST SWAP2 POP PUSH32 0xFFFFFFFFFFFFFFFFFFFFFFFFFFFFFFFFFFFFFFFFFFFFFFFFFFFFFFFFFFFFFFFF DUP3 SUB PUSH2 0x202F JUMPI PUSH2 0x202E PUSH2 0x16F3 JUMP JUMPDEST JUMPDEST PUSH1 0x1 DUP3 ADD SWAP1 POP SWAP2 SWAP1 POP JUMP JUMPDEST PUSH2 0x2043 DUP3 PUSH2 0x10F2 JUMP JUMPDEST PUSH8 0xFFFFFFFFFFFFFFFF DUP2 GT ISZERO PUSH2 0x205C JUMPI PUSH2 0x205B PUSH2 0x1972 JUMP JUMPDEST JUMPDEST PUSH2 0x2066 DUP3 SLOAD PUSH2 0x1581 JUMP JUMPDEST PUSH2 0x2071 DUP3 DUP3 DUP6 PUSH2 0x1AB3 JUMP JUMPDEST PUSH0 PUSH1 0x20 SWAP1 POP PUSH1 0x1F DUP4 GT PUSH1 0x1 DUP2 EQ PUSH2 0x20A2 JUMPI PUSH0 DUP5 ISZERO PUSH2 0x2090 JUMPI DUP3 DUP8 ADD MLOAD SWAP1 POP JUMPDEST PUSH2 0x209A DUP6 DUP3 PUSH2 0x1B21 JUMP JUMPDEST DUP7 SSTORE POP PUSH2 0x2101 JUMP JUMPDEST PUSH1 0x1F NOT DUP5 AND PUSH2 0x20B0 DUP7 PUSH2 0x199F JUMP JUMPDEST PUSH0 JUMPDEST DUP3 DUP2 LT ISZERO PUSH2 0x20D7 JUMPI DUP5 DUP10 ADD MLOAD DUP3 SSTORE PUSH1 0x1 DUP3 ADD SWAP2 POP PUSH1 0x20 DUP6 ADD SWAP5 POP PUSH1 0x20 DUP2 ADD SWAP1 POP PUSH2 0x20B2 JUMP JUMPDEST DUP7 DUP4 LT ISZERO PUSH2 0x20F4 JUMPI DUP5 DUP10 ADD MLOAD PUSH2 0x20F0 PUSH1 0x1F DUP10 AND DUP3 PUSH2 0x1B05 JUMP JUMPDEST DUP4 SSTORE POP JUMPDEST PUSH1 0x1 PUSH1 0x2 DUP9 MUL ADD DUP9 SSTORE POP POP POP JUMPDEST POP POP POP POP POP POP JUMP JUMPDEST PUSH0 DUP2 SWAP1 POP SWAP3 SWAP2 POP POP JUMP JUMPDEST DUP3 DUP2 DUP4 CALLDATACOPY PUSH0 DUP4 DUP4 ADD MSTORE POP POP POP JUMP JUMPDEST PUSH0 PUSH2 0x212C DUP4 DUP6 PUSH2 0x2109 JUMP JUMPDEST SWAP4 POP PUSH2 0x2139 DUP4 DUP6 DUP5 PUSH2 0x2113 JUMP JUMPDEST DUP3 DUP5 ADD SWAP1 POP SWAP4 SWAP3 POP POP POP JUMP JUMPDEST PUSH0 PUSH2 0x2151 DUP3 DUP5 DUP7 PUSH2 0x2121 JUMP JUMPDEST SWAP2 POP DUP2 SWAP1 POP SWAP4 SWAP3 POP POP POP JUMP JUMPDEST PUSH32 0x4E487B7100000000000000000000000000000000000000000000000000000000 PUSH0 MSTORE PUSH1 0x32 PUSH1 0x4 MSTORE PUSH1 0x24 PUSH0 REVERT JUMPDEST PUSH32 0x4E487B7100000000000000000000000000000000000000000000000000000000 PUSH0 MSTORE PUSH1 0x12 PUSH1 0x4 MSTORE PUSH1 0x24 PUSH0 REVERT JUMPDEST PUSH0 PUSH2 0x21C1 DUP3 PUSH2 0x13DF JUMP JUMPDEST SWAP2 POP PUSH2 0x21CC DUP4 PUSH2 0x13DF JUMP JUMPDEST SWAP3 POP DUP3 PUSH2 0x21DC JUMPI PUSH2 0x21DB PUSH2 0x218A JUMP JUMPDEST JUMPDEST DUP3 DUP3 DIV SWAP1 POP SWAP3 SWAP2 POP POP JUMP JUMPDEST PUSH0 PUSH2 0x21F1 DUP3 PUSH2 0xFC2 JUMP JUMPDEST SWAP2 POP PUSH2 0x21FC DUP4 PUSH2 0xFC2 JUMP JUMPDEST SWAP3 POP DUP3 DUP3 ADD SWAP1 POP DUP1 DUP3 GT ISZERO PUSH2 0x2214 JUMPI PUSH2 0x2213 PUSH2 0x16F3 JUMP JUMPDEST JUMPDEST SWAP3 SWAP2 POP POP JUMP INVALID LOG2 PUSH5 0x6970667358 0x22 SLT KECCAK256 0xBD 0xF9 0xE0 0xAA SELFDESTRUCT 0x2A CALLDATASIZE 0xA9 SWAP5 GASPRICE SWAP5 TIMESTAMP PUSH10 0xC48625B487BCC7437E16 0x26 0xD8 PUSH16 0xFFBE6644EFE564736F6C634300081A00 CALLER "
				},
				"gasEstimates": {
					"creation": {
						"codeDepositCost": "1756800",
						"executionCost": "53221",
						"totalCost": "1810021"
					},
					"external": {
						"WEIS_NECESARIOS()": "369",
						"addWeapon(uint256,string,uint256)": "infinite",
						"characters(uint256)": "infinite",
						"collectProfits()": "infinite",
						"createMonsterToken(string)": "infinite",
						"incrementFirePower(uint256,uint8)": "infinite",
						"removeMonsterToken(uint256)": "infinite"
					}
				},
				"methodIdentifiers": {
					"WEIS_NECESARIOS()": "e85e001b",
					"addWeapon(uint256,string,uint256)": "0a0eac29",
					"characters(uint256)": "4810bc59",
					"collectProfits()": "c958e0d6",
					"createMonsterToken(string)": "eb116756",
					"incrementFirePower(uint256,uint8)": "d6ad8a94",
					"removeMonsterToken(uint256)": "50fac4f1"
				}
			},
			"storageLayout": {
				"storage": [
					{
						"astId": 137,
						"contract": "PRACTICA 5/librerias_y_tokens.sol:MonsterTokens",
						"label": "tokenId",
						"offset": 0,
						"slot": "0",
						"type": "t_uint256"
					},
					{
						"astId": 142,
						"contract": "PRACTICA 5/librerias_y_tokens.sol:MonsterTokens",
						"label": "characters",
						"offset": 0,
						"slot": "1",
						"type": "t_mapping(t_uint256,t_struct(Character)131_storage)"
					},
					{
						"astId": 145,
						"contract": "PRACTICA 5/librerias_y_tokens.sol:MonsterTokens",
						"label": "num_characters",
						"offset": 0,
						"slot": "2",
						"type": "t_uint256"
					},
					{
						"astId": 147,
						"contract": "PRACTICA 5/librerias_y_tokens.sol:MonsterTokens",
						"label": "contractOwner",
						"offset": 0,
						"slot": "3",
						"type": "t_address"
					}
				],
				"types": {
					"t_address": {
						"encoding": "inplace",
						"label": "address",
						"numberOfBytes": "20"
					},
					"t_array(t_string_storage)dyn_storage": {
						"base": "t_string_storage",
						"encoding": "dynamic_array",
						"label": "string[]",
						"numberOfBytes": "32"
					},
					"t_array(t_uint256)dyn_storage": {
						"base": "t_uint256",
						"encoding": "dynamic_array",
						"label": "uint256[]",
						"numberOfBytes": "32"
					},
					"t_mapping(t_uint256,t_struct(Character)131_storage)": {
						"encoding": "mapping",
						"key": "t_uint256",
						"label": "mapping(uint256 => struct MonsterTokens.Character)",
						"numberOfBytes": "32",
						"value": "t_struct(Character)131_storage"
					},
					"t_string_storage": {
						"encoding": "bytes",
						"label": "string",
						"numberOfBytes": "32"
					},
					"t_struct(Character)131_storage": {
						"encoding": "inplace",
						"label": "struct MonsterTokens.Character",
						"members": [
							{
								"astId": 125,
								"contract": "PRACTICA 5/librerias_y_tokens.sol:MonsterTokens",
								"label": "name",
								"offset": 0,
								"slot": "0",
								"type": "t_string_storage"
							},
							{
								"astId": 128,
								"contract": "PRACTICA 5/librerias_y_tokens.sol:MonsterTokens",
								"label": "weapons",
								"offset": 0,
								"slot": "1",
								"type": "t_struct(Weapons)123_storage"
							},
							{
								"astId": 130,
								"contract": "PRACTICA 5/librerias_y_tokens.sol:MonsterTokens",
								"label": "tokenOwner",
								"offset": 0,
								"slot": "3",
								"type": "t_address"
							}
						],
						"numberOfBytes": "128"
					},
					"t_struct(Weapons)123_storage": {
						"encoding": "inplace",
						"label": "struct MonsterTokens.Weapons",
						"members": [
							{
								"astId": 119,
								"contract": "PRACTICA 5/librerias_y_tokens.sol:MonsterTokens",
								"label": "names",
								"offset": 0,
								"slot": "0",
								"type": "t_array(t_string_storage)dyn_storage"
							},
							{
								"astId": 122,
								"contract": "PRACTICA 5/librerias_y_tokens.sol:MonsterTokens",
								"label": "firePowers",
								"offset": 0,
								"slot": "1",
								"type": "t_array(t_uint256)dyn_storage"
							}
						],
						"numberOfBytes": "64"
					},
					"t_uint256": {
						"encoding": "inplace",
						"label": "uint256",
						"numberOfBytes": "32"
					}
				}
			},
			"userdoc": {
				"kind": "user",
				"methods": {},
				"version": 1
			}
		}
	}
}