{
	"PRACTICA 5/pruebaSupportsInterface.sol": {
		"PruebaSupportsInterface": {
			"abi": [
				{
					"inputs": [],
					"name": "ERC165_INTERFACE_ID",
					"outputs": [
						{
							"internalType": "bytes4",
							"name": "",
							"type": "bytes4"
						}
					],
					"stateMutability": "view",
					"type": "function"
				},
				{
					"inputs": [],
					"name": "ERC721_INTERFACE_ID",
					"outputs": [
						{
							"internalType": "bytes4",
							"name": "",
							"type": "bytes4"
						}
					],
					"stateMutability": "view",
					"type": "function"
				},
				{
					"inputs": [
						{
							"internalType": "address",
							"name": "monsterToken",
							"type": "address"
						}
					],
					"name": "pruebaSupportsInterface",
					"outputs": [
						{
							"internalType": "bool",
							"name": "",
							"type": "bool"
						},
						{
							"internalType": "bool",
							"name": "",
							"type": "bool"
						},
						{
							"internalType": "bool",
							"name": "",
							"type": "bool"
						}
					],
					"stateMutability": "pure",
					"type": "function"
				}
			],
			"devdoc": {
				"kind": "dev",
				"methods": {},
				"version": 1
			},
			"evm": {
				"assembly": "    /* \"PRACTICA 5/pruebaSupportsInterface.sol\":231:878  contract PruebaSupportsInterface{... */\n  mstore(0x40, 0x80)\n  callvalue\n  dup1\n  iszero\n  tag_1\n  jumpi\n  0x00\n  dup1\n  revert\ntag_1:\n  pop\n  dataSize(sub_0)\n  dup1\n  dataOffset(sub_0)\n  0x00\n  codecopy\n  0x00\n  return\nstop\n\nsub_0: assembly {\n        /* \"PRACTICA 5/pruebaSupportsInterface.sol\":231:878  contract PruebaSupportsInterface{... */\n      mstore(0x40, 0x80)\n      callvalue\n      dup1\n      iszero\n      tag_1\n      jumpi\n      0x00\n      dup1\n      revert\n    tag_1:\n      pop\n      jumpi(tag_2, lt(calldatasize, 0x04))\n      shr(0xe0, calldataload(0x00))\n      dup1\n      0x59f4a907\n      eq\n      tag_3\n      jumpi\n      dup1\n      0x950d7f6f\n      eq\n      tag_4\n      jumpi\n      dup1\n      0xd123a554\n      eq\n      tag_5\n      jumpi\n    tag_2:\n      0x00\n      dup1\n      revert\n        /* \"PRACTICA 5/pruebaSupportsInterface.sol\":334:389  bytes4 public constant ERC721_INTERFACE_ID = 0x80ac58cd */\n    tag_3:\n      tag_6\n      tag_7\n      jump\t// in\n    tag_6:\n      mload(0x40)\n      tag_8\n      swap2\n      swap1\n      tag_9\n      jump\t// in\n    tag_8:\n      mload(0x40)\n      dup1\n      swap2\n      sub\n      swap1\n      return\n        /* \"PRACTICA 5/pruebaSupportsInterface.sol\":272:327  bytes4 public constant ERC165_INTERFACE_ID = 0x01ffc9a7 */\n    tag_4:\n      tag_10\n      tag_11\n      jump\t// in\n    tag_10:\n      mload(0x40)\n      tag_12\n      swap2\n      swap1\n      tag_9\n      jump\t// in\n    tag_12:\n      mload(0x40)\n      dup1\n      swap2\n      sub\n      swap1\n      return\n        /* \"PRACTICA 5/pruebaSupportsInterface.sol\":399:871  function pruebaSupportsInterface(address monsterToken) external pure returns (bool, bool, bool) {... */\n    tag_5:\n      tag_13\n      0x04\n      dup1\n      calldatasize\n      sub\n      dup2\n      add\n      swap1\n      tag_14\n      swap2\n      swap1\n      tag_15\n      jump\t// in\n    tag_14:\n      tag_16\n      jump\t// in\n    tag_13:\n      mload(0x40)\n      tag_17\n      swap4\n      swap3\n      swap2\n      swap1\n      tag_18\n      jump\t// in\n    tag_17:\n      mload(0x40)\n      dup1\n      swap2\n      sub\n      swap1\n      return\n        /* \"PRACTICA 5/pruebaSupportsInterface.sol\":334:389  bytes4 public constant ERC721_INTERFACE_ID = 0x80ac58cd */\n    tag_7:\n        /* \"PRACTICA 5/pruebaSupportsInterface.sol\":379:389  0x80ac58cd */\n      0x80ac58cd\n        /* \"PRACTICA 5/pruebaSupportsInterface.sol\":334:389  bytes4 public constant ERC721_INTERFACE_ID = 0x80ac58cd */\n      0xe0\n      shl\n      dup2\n      jump\t// out\n        /* \"PRACTICA 5/pruebaSupportsInterface.sol\":272:327  bytes4 public constant ERC165_INTERFACE_ID = 0x01ffc9a7 */\n    tag_11:\n        /* \"PRACTICA 5/pruebaSupportsInterface.sol\":317:327  0x01ffc9a7 */\n      0x01ffc9a7\n        /* \"PRACTICA 5/pruebaSupportsInterface.sol\":272:327  bytes4 public constant ERC165_INTERFACE_ID = 0x01ffc9a7 */\n      0xe0\n      shl\n      dup2\n      jump\t// out\n        /* \"PRACTICA 5/pruebaSupportsInterface.sol\":399:871  function pruebaSupportsInterface(address monsterToken) external pure returns (bool, bool, bool) {... */\n    tag_16:\n        /* \"PRACTICA 5/pruebaSupportsInterface.sol\":477:481  bool */\n      0x00\n        /* \"PRACTICA 5/pruebaSupportsInterface.sol\":483:487  bool */\n      dup1\n        /* \"PRACTICA 5/pruebaSupportsInterface.sol\":489:493  bool */\n      0x00\n        /* \"PRACTICA 5/pruebaSupportsInterface.sol\":506:518  ERC165 token */\n      dup1\n        /* \"PRACTICA 5/pruebaSupportsInterface.sol\":528:540  monsterToken */\n      dup5\n        /* \"PRACTICA 5/pruebaSupportsInterface.sol\":506:541  ERC165 token = ERC165(monsterToken) */\n      swap1\n      pop\n        /* \"PRACTICA 5/pruebaSupportsInterface.sol\":552:571  bool supportsERC165 */\n      0x00\n        /* \"PRACTICA 5/pruebaSupportsInterface.sol\":574:579  token */\n      dup2\n        /* \"PRACTICA 5/pruebaSupportsInterface.sol\":574:597  token.supportsInterface */\n      0xffffffffffffffffffffffffffffffffffffffff\n      and\n      0x01ffc9a7\n        /* \"PRACTICA 5/pruebaSupportsInterface.sol\":317:327  0x01ffc9a7 */\n      dup1\n        /* \"PRACTICA 5/pruebaSupportsInterface.sol\":598:617  ERC165_INTERFACE_ID */\n      0xe0\n      shl\n        /* \"PRACTICA 5/pruebaSupportsInterface.sol\":574:618  token.supportsInterface(ERC165_INTERFACE_ID) */\n      mload(0x40)\n      dup3\n      0xffffffff\n      and\n      0xe0\n      shl\n      dup2\n      mstore\n      0x04\n      add\n      tag_20\n      swap2\n      swap1\n      tag_9\n      jump\t// in\n    tag_20:\n      0x20\n      mload(0x40)\n      dup1\n      dup4\n      sub\n      dup2\n      dup7\n      gas\n      staticcall\n      iszero\n      dup1\n      iszero\n      tag_22\n      jumpi\n      returndatasize\n      0x00\n      dup1\n      returndatacopy\n      revert(0x00, returndatasize)\n    tag_22:\n      pop\n      pop\n      pop\n      pop\n      mload(0x40)\n      returndatasize\n      not(0x1f)\n      0x1f\n      dup3\n      add\n      and\n      dup3\n      add\n      dup1\n      0x40\n      mstore\n      pop\n      dup2\n      add\n      swap1\n      tag_23\n      swap2\n      swap1\n      tag_24\n      jump\t// in\n    tag_23:\n        /* \"PRACTICA 5/pruebaSupportsInterface.sol\":552:618  bool supportsERC165 = token.supportsInterface(ERC165_INTERFACE_ID) */\n      swap1\n      pop\n        /* \"PRACTICA 5/pruebaSupportsInterface.sol\":629:648  bool supportsERC721 */\n      0x00\n        /* \"PRACTICA 5/pruebaSupportsInterface.sol\":651:656  token */\n      dup3\n        /* \"PRACTICA 5/pruebaSupportsInterface.sol\":651:674  token.supportsInterface */\n      0xffffffffffffffffffffffffffffffffffffffff\n      and\n      0x01ffc9a7\n        /* \"PRACTICA 5/pruebaSupportsInterface.sol\":379:389  0x80ac58cd */\n      0x80ac58cd\n        /* \"PRACTICA 5/pruebaSupportsInterface.sol\":675:694  ERC721_INTERFACE_ID */\n      0xe0\n      shl\n        /* \"PRACTICA 5/pruebaSupportsInterface.sol\":651:695  token.supportsInterface(ERC721_INTERFACE_ID) */\n      mload(0x40)\n      dup3\n      0xffffffff\n      and\n      0xe0\n      shl\n      dup2\n      mstore\n      0x04\n      add\n      tag_25\n      swap2\n      swap1\n      tag_9\n      jump\t// in\n    tag_25:\n      0x20\n      mload(0x40)\n      dup1\n      dup4\n      sub\n      dup2\n      dup7\n      gas\n      staticcall\n      iszero\n      dup1\n      iszero\n      tag_27\n      jumpi\n      returndatasize\n      0x00\n      dup1\n      returndatacopy\n      revert(0x00, returndatasize)\n    tag_27:\n      pop\n      pop\n      pop\n      pop\n      mload(0x40)\n      returndatasize\n      not(0x1f)\n      0x1f\n      dup3\n      add\n      and\n      dup3\n      add\n      dup1\n      0x40\n      mstore\n      pop\n      dup2\n      add\n      swap1\n      tag_28\n      swap2\n      swap1\n      tag_24\n      jump\t// in\n    tag_28:\n        /* \"PRACTICA 5/pruebaSupportsInterface.sol\":629:695  bool supportsERC721 = token.supportsInterface(ERC721_INTERFACE_ID) */\n      swap1\n      pop\n        /* \"PRACTICA 5/pruebaSupportsInterface.sol\":706:725  bool supportsRandom */\n      0x00\n        /* \"PRACTICA 5/pruebaSupportsInterface.sol\":728:733  token */\n      dup4\n        /* \"PRACTICA 5/pruebaSupportsInterface.sol\":728:751  token.supportsInterface */\n      0xffffffffffffffffffffffffffffffffffffffff\n      and\n      0x01ffc9a7\n        /* \"PRACTICA 5/pruebaSupportsInterface.sol\":752:762  0x12345678 */\n      0x12345678\n        /* \"PRACTICA 5/pruebaSupportsInterface.sol\":728:763  token.supportsInterface(0x12345678) */\n      mload(0x40)\n      dup3\n      0xffffffff\n      and\n      0xe0\n      shl\n      dup2\n      mstore\n      0x04\n      add\n      tag_29\n      swap2\n      swap1\n      tag_30\n      jump\t// in\n    tag_29:\n      0x20\n      mload(0x40)\n      dup1\n      dup4\n      sub\n      dup2\n      dup7\n      gas\n      staticcall\n      iszero\n      dup1\n      iszero\n      tag_32\n      jumpi\n      returndatasize\n      0x00\n      dup1\n      returndatacopy\n      revert(0x00, returndatasize)\n    tag_32:\n      pop\n      pop\n      pop\n      pop\n      mload(0x40)\n      returndatasize\n      not(0x1f)\n      0x1f\n      dup3\n      add\n      and\n      dup3\n      add\n      dup1\n      0x40\n      mstore\n      pop\n      dup2\n      add\n      swap1\n      tag_33\n      swap2\n      swap1\n      tag_24\n      jump\t// in\n    tag_33:\n        /* \"PRACTICA 5/pruebaSupportsInterface.sol\":706:763  bool supportsRandom = token.supportsInterface(0x12345678) */\n      swap1\n      pop\n        /* \"PRACTICA 5/pruebaSupportsInterface.sol\":816:830  supportsERC165 */\n      dup3\n        /* \"PRACTICA 5/pruebaSupportsInterface.sol\":832:846  supportsERC721 */\n      dup3\n        /* \"PRACTICA 5/pruebaSupportsInterface.sol\":848:862  supportsRandom */\n      dup3\n        /* \"PRACTICA 5/pruebaSupportsInterface.sol\":808:863  return (supportsERC165, supportsERC721, supportsRandom) */\n      swap7\n      pop\n      swap7\n      pop\n      swap7\n      pop\n      pop\n      pop\n      pop\n      pop\n        /* \"PRACTICA 5/pruebaSupportsInterface.sol\":399:871  function pruebaSupportsInterface(address monsterToken) external pure returns (bool, bool, bool) {... */\n      swap2\n      swap4\n      swap1\n      swap3\n      pop\n      jump\t// out\n        /* \"#utility.yul\":7:156   */\n    tag_34:\n        /* \"#utility.yul\":43:50   */\n      0x00\n        /* \"#utility.yul\":83:149   */\n      0xffffffff00000000000000000000000000000000000000000000000000000000\n        /* \"#utility.yul\":76:81   */\n      dup3\n        /* \"#utility.yul\":72:150   */\n      and\n        /* \"#utility.yul\":61:150   */\n      swap1\n      pop\n        /* \"#utility.yul\":7:156   */\n      swap2\n      swap1\n      pop\n      jump\t// out\n        /* \"#utility.yul\":162:277   */\n    tag_35:\n        /* \"#utility.yul\":247:270   */\n      tag_54\n        /* \"#utility.yul\":264:269   */\n      dup2\n        /* \"#utility.yul\":247:270   */\n      tag_34\n      jump\t// in\n    tag_54:\n        /* \"#utility.yul\":242:245   */\n      dup3\n        /* \"#utility.yul\":235:271   */\n      mstore\n        /* \"#utility.yul\":162:277   */\n      pop\n      pop\n      jump\t// out\n        /* \"#utility.yul\":283:501   */\n    tag_9:\n        /* \"#utility.yul\":374:378   */\n      0x00\n        /* \"#utility.yul\":412:414   */\n      0x20\n        /* \"#utility.yul\":401:410   */\n      dup3\n        /* \"#utility.yul\":397:415   */\n      add\n        /* \"#utility.yul\":389:415   */\n      swap1\n      pop\n        /* \"#utility.yul\":425:494   */\n      tag_56\n        /* \"#utility.yul\":491:492   */\n      0x00\n        /* \"#utility.yul\":480:489   */\n      dup4\n        /* \"#utility.yul\":476:493   */\n      add\n        /* \"#utility.yul\":467:473   */\n      dup5\n        /* \"#utility.yul\":425:494   */\n      tag_35\n      jump\t// in\n    tag_56:\n        /* \"#utility.yul\":283:501   */\n      swap3\n      swap2\n      pop\n      pop\n      jump\t// out\n        /* \"#utility.yul\":588:705   */\n    tag_37:\n        /* \"#utility.yul\":697:698   */\n      0x00\n        /* \"#utility.yul\":694:695   */\n      dup1\n        /* \"#utility.yul\":687:699   */\n      revert\n        /* \"#utility.yul\":834:960   */\n    tag_39:\n        /* \"#utility.yul\":871:878   */\n      0x00\n        /* \"#utility.yul\":911:953   */\n      0xffffffffffffffffffffffffffffffffffffffff\n        /* \"#utility.yul\":904:909   */\n      dup3\n        /* \"#utility.yul\":900:954   */\n      and\n        /* \"#utility.yul\":889:954   */\n      swap1\n      pop\n        /* \"#utility.yul\":834:960   */\n      swap2\n      swap1\n      pop\n      jump\t// out\n        /* \"#utility.yul\":966:1062   */\n    tag_40:\n        /* \"#utility.yul\":1003:1010   */\n      0x00\n        /* \"#utility.yul\":1032:1056   */\n      tag_62\n        /* \"#utility.yul\":1050:1055   */\n      dup3\n        /* \"#utility.yul\":1032:1056   */\n      tag_39\n      jump\t// in\n    tag_62:\n        /* \"#utility.yul\":1021:1056   */\n      swap1\n      pop\n        /* \"#utility.yul\":966:1062   */\n      swap2\n      swap1\n      pop\n      jump\t// out\n        /* \"#utility.yul\":1068:1190   */\n    tag_41:\n        /* \"#utility.yul\":1141:1165   */\n      tag_64\n        /* \"#utility.yul\":1159:1164   */\n      dup2\n        /* \"#utility.yul\":1141:1165   */\n      tag_40\n      jump\t// in\n    tag_64:\n        /* \"#utility.yul\":1134:1139   */\n      dup2\n        /* \"#utility.yul\":1131:1166   */\n      eq\n        /* \"#utility.yul\":1121:1184   */\n      tag_65\n      jumpi\n        /* \"#utility.yul\":1180:1181   */\n      0x00\n        /* \"#utility.yul\":1177:1178   */\n      dup1\n        /* \"#utility.yul\":1170:1182   */\n      revert\n        /* \"#utility.yul\":1121:1184   */\n    tag_65:\n        /* \"#utility.yul\":1068:1190   */\n      pop\n      jump\t// out\n        /* \"#utility.yul\":1196:1335   */\n    tag_42:\n        /* \"#utility.yul\":1242:1247   */\n      0x00\n        /* \"#utility.yul\":1280:1286   */\n      dup2\n        /* \"#utility.yul\":1267:1287   */\n      calldataload\n        /* \"#utility.yul\":1258:1287   */\n      swap1\n      pop\n        /* \"#utility.yul\":1296:1329   */\n      tag_67\n        /* \"#utility.yul\":1323:1328   */\n      dup2\n        /* \"#utility.yul\":1296:1329   */\n      tag_41\n      jump\t// in\n    tag_67:\n        /* \"#utility.yul\":1196:1335   */\n      swap3\n      swap2\n      pop\n      pop\n      jump\t// out\n        /* \"#utility.yul\":1341:1670   */\n    tag_15:\n        /* \"#utility.yul\":1400:1406   */\n      0x00\n        /* \"#utility.yul\":1449:1451   */\n      0x20\n        /* \"#utility.yul\":1437:1446   */\n      dup3\n        /* \"#utility.yul\":1428:1435   */\n      dup5\n        /* \"#utility.yul\":1424:1447   */\n      sub\n        /* \"#utility.yul\":1420:1452   */\n      slt\n        /* \"#utility.yul\":1417:1536   */\n      iszero\n      tag_69\n      jumpi\n        /* \"#utility.yul\":1455:1534   */\n      tag_70\n      tag_37\n      jump\t// in\n    tag_70:\n        /* \"#utility.yul\":1417:1536   */\n    tag_69:\n        /* \"#utility.yul\":1575:1576   */\n      0x00\n        /* \"#utility.yul\":1600:1653   */\n      tag_71\n        /* \"#utility.yul\":1645:1652   */\n      dup5\n        /* \"#utility.yul\":1636:1642   */\n      dup3\n        /* \"#utility.yul\":1625:1634   */\n      dup6\n        /* \"#utility.yul\":1621:1643   */\n      add\n        /* \"#utility.yul\":1600:1653   */\n      tag_42\n      jump\t// in\n    tag_71:\n        /* \"#utility.yul\":1590:1653   */\n      swap2\n      pop\n        /* \"#utility.yul\":1546:1663   */\n      pop\n        /* \"#utility.yul\":1341:1670   */\n      swap3\n      swap2\n      pop\n      pop\n      jump\t// out\n        /* \"#utility.yul\":1676:1766   */\n    tag_43:\n        /* \"#utility.yul\":1710:1717   */\n      0x00\n        /* \"#utility.yul\":1753:1758   */\n      dup2\n        /* \"#utility.yul\":1746:1759   */\n      iszero\n        /* \"#utility.yul\":1739:1760   */\n      iszero\n        /* \"#utility.yul\":1728:1760   */\n      swap1\n      pop\n        /* \"#utility.yul\":1676:1766   */\n      swap2\n      swap1\n      pop\n      jump\t// out\n        /* \"#utility.yul\":1772:1881   */\n    tag_44:\n        /* \"#utility.yul\":1853:1874   */\n      tag_74\n        /* \"#utility.yul\":1868:1873   */\n      dup2\n        /* \"#utility.yul\":1853:1874   */\n      tag_43\n      jump\t// in\n    tag_74:\n        /* \"#utility.yul\":1848:1851   */\n      dup3\n        /* \"#utility.yul\":1841:1875   */\n      mstore\n        /* \"#utility.yul\":1772:1881   */\n      pop\n      pop\n      jump\t// out\n        /* \"#utility.yul\":1887:2293   */\n    tag_18:\n        /* \"#utility.yul\":2018:2022   */\n      0x00\n        /* \"#utility.yul\":2056:2058   */\n      0x60\n        /* \"#utility.yul\":2045:2054   */\n      dup3\n        /* \"#utility.yul\":2041:2059   */\n      add\n        /* \"#utility.yul\":2033:2059   */\n      swap1\n      pop\n        /* \"#utility.yul\":2069:2134   */\n      tag_76\n        /* \"#utility.yul\":2131:2132   */\n      0x00\n        /* \"#utility.yul\":2120:2129   */\n      dup4\n        /* \"#utility.yul\":2116:2133   */\n      add\n        /* \"#utility.yul\":2107:2113   */\n      dup7\n        /* \"#utility.yul\":2069:2134   */\n      tag_44\n      jump\t// in\n    tag_76:\n        /* \"#utility.yul\":2144:2210   */\n      tag_77\n        /* \"#utility.yul\":2206:2208   */\n      0x20\n        /* \"#utility.yul\":2195:2204   */\n      dup4\n        /* \"#utility.yul\":2191:2209   */\n      add\n        /* \"#utility.yul\":2182:2188   */\n      dup6\n        /* \"#utility.yul\":2144:2210   */\n      tag_44\n      jump\t// in\n    tag_77:\n        /* \"#utility.yul\":2220:2286   */\n      tag_78\n        /* \"#utility.yul\":2282:2284   */\n      0x40\n        /* \"#utility.yul\":2271:2280   */\n      dup4\n        /* \"#utility.yul\":2267:2285   */\n      add\n        /* \"#utility.yul\":2258:2264   */\n      dup5\n        /* \"#utility.yul\":2220:2286   */\n      tag_44\n      jump\t// in\n    tag_78:\n        /* \"#utility.yul\":1887:2293   */\n      swap5\n      swap4\n      pop\n      pop\n      pop\n      pop\n      jump\t// out\n        /* \"#utility.yul\":2299:2415   */\n    tag_45:\n        /* \"#utility.yul\":2369:2390   */\n      tag_80\n        /* \"#utility.yul\":2384:2389   */\n      dup2\n        /* \"#utility.yul\":2369:2390   */\n      tag_43\n      jump\t// in\n    tag_80:\n        /* \"#utility.yul\":2362:2367   */\n      dup2\n        /* \"#utility.yul\":2359:2391   */\n      eq\n        /* \"#utility.yul\":2349:2409   */\n      tag_81\n      jumpi\n        /* \"#utility.yul\":2405:2406   */\n      0x00\n        /* \"#utility.yul\":2402:2403   */\n      dup1\n        /* \"#utility.yul\":2395:2407   */\n      revert\n        /* \"#utility.yul\":2349:2409   */\n    tag_81:\n        /* \"#utility.yul\":2299:2415   */\n      pop\n      jump\t// out\n        /* \"#utility.yul\":2421:2558   */\n    tag_46:\n        /* \"#utility.yul\":2475:2480   */\n      0x00\n        /* \"#utility.yul\":2506:2512   */\n      dup2\n        /* \"#utility.yul\":2500:2513   */\n      mload\n        /* \"#utility.yul\":2491:2513   */\n      swap1\n      pop\n        /* \"#utility.yul\":2522:2552   */\n      tag_83\n        /* \"#utility.yul\":2546:2551   */\n      dup2\n        /* \"#utility.yul\":2522:2552   */\n      tag_45\n      jump\t// in\n    tag_83:\n        /* \"#utility.yul\":2421:2558   */\n      swap3\n      swap2\n      pop\n      pop\n      jump\t// out\n        /* \"#utility.yul\":2564:2909   */\n    tag_24:\n        /* \"#utility.yul\":2631:2637   */\n      0x00\n        /* \"#utility.yul\":2680:2682   */\n      0x20\n        /* \"#utility.yul\":2668:2677   */\n      dup3\n        /* \"#utility.yul\":2659:2666   */\n      dup5\n        /* \"#utility.yul\":2655:2678   */\n      sub\n        /* \"#utility.yul\":2651:2683   */\n      slt\n        /* \"#utility.yul\":2648:2767   */\n      iszero\n      tag_85\n      jumpi\n        /* \"#utility.yul\":2686:2765   */\n      tag_86\n      tag_37\n      jump\t// in\n    tag_86:\n        /* \"#utility.yul\":2648:2767   */\n    tag_85:\n        /* \"#utility.yul\":2806:2807   */\n      0x00\n        /* \"#utility.yul\":2831:2892   */\n      tag_87\n        /* \"#utility.yul\":2884:2891   */\n      dup5\n        /* \"#utility.yul\":2875:2881   */\n      dup3\n        /* \"#utility.yul\":2864:2873   */\n      dup6\n        /* \"#utility.yul\":2860:2882   */\n      add\n        /* \"#utility.yul\":2831:2892   */\n      tag_46\n      jump\t// in\n    tag_87:\n        /* \"#utility.yul\":2821:2892   */\n      swap2\n      pop\n        /* \"#utility.yul\":2777:2902   */\n      pop\n        /* \"#utility.yul\":2564:2909   */\n      swap3\n      swap2\n      pop\n      pop\n      jump\t// out\n        /* \"#utility.yul\":2915:3008   */\n    tag_47:\n        /* \"#utility.yul\":2968:2975   */\n      0x00\n        /* \"#utility.yul\":2997:3002   */\n      dup2\n        /* \"#utility.yul\":2986:3002   */\n      swap1\n      pop\n        /* \"#utility.yul\":2915:3008   */\n      swap2\n      swap1\n      pop\n      jump\t// out\n        /* \"#utility.yul\":3014:3110   */\n    tag_48:\n        /* \"#utility.yul\":3048:3056   */\n      0x00\n        /* \"#utility.yul\":3097:3102   */\n      dup2\n        /* \"#utility.yul\":3092:3095   */\n      0xe0\n        /* \"#utility.yul\":3088:3103   */\n      shl\n        /* \"#utility.yul\":3067:3103   */\n      swap1\n      pop\n        /* \"#utility.yul\":3014:3110   */\n      swap2\n      swap1\n      pop\n      jump\t// out\n        /* \"#utility.yul\":3116:3294   */\n    tag_49:\n        /* \"#utility.yul\":3181:3190   */\n      0x00\n        /* \"#utility.yul\":3214:3288   */\n      tag_91\n        /* \"#utility.yul\":3231:3287   */\n      tag_92\n        /* \"#utility.yul\":3246:3286   */\n      tag_93\n        /* \"#utility.yul\":3280:3285   */\n      dup5\n        /* \"#utility.yul\":3246:3286   */\n      tag_47\n      jump\t// in\n    tag_93:\n        /* \"#utility.yul\":3231:3287   */\n      tag_48\n      jump\t// in\n    tag_92:\n        /* \"#utility.yul\":3214:3288   */\n      tag_34\n      jump\t// in\n    tag_91:\n        /* \"#utility.yul\":3201:3288   */\n      swap1\n      pop\n        /* \"#utility.yul\":3116:3294   */\n      swap2\n      swap1\n      pop\n      jump\t// out\n        /* \"#utility.yul\":3300:3461   */\n    tag_50:\n        /* \"#utility.yul\":3402:3454   */\n      tag_95\n        /* \"#utility.yul\":3448:3453   */\n      dup2\n        /* \"#utility.yul\":3402:3454   */\n      tag_49\n      jump\t// in\n    tag_95:\n        /* \"#utility.yul\":3397:3400   */\n      dup3\n        /* \"#utility.yul\":3390:3455   */\n      mstore\n        /* \"#utility.yul\":3300:3461   */\n      pop\n      pop\n      jump\t// out\n        /* \"#utility.yul\":3467:3719   */\n    tag_30:\n        /* \"#utility.yul\":3575:3579   */\n      0x00\n        /* \"#utility.yul\":3613:3615   */\n      0x20\n        /* \"#utility.yul\":3602:3611   */\n      dup3\n        /* \"#utility.yul\":3598:3616   */\n      add\n        /* \"#utility.yul\":3590:3616   */\n      swap1\n      pop\n        /* \"#utility.yul\":3626:3712   */\n      tag_97\n        /* \"#utility.yul\":3709:3710   */\n      0x00\n        /* \"#utility.yul\":3698:3707   */\n      dup4\n        /* \"#utility.yul\":3694:3711   */\n      add\n        /* \"#utility.yul\":3685:3691   */\n      dup5\n        /* \"#utility.yul\":3626:3712   */\n      tag_50\n      jump\t// in\n    tag_97:\n        /* \"#utility.yul\":3467:3719   */\n      swap3\n      swap2\n      pop\n      pop\n      jump\t// out\n\n    auxdata: 0xa2646970667358221220c5add4caa06937dbf154eb9d2068fe6e2344ca9ac59513995b8dde348033e64664736f6c634300081a0033\n}\n",
				"bytecode": {
					"linkReferences": {},
					"object": "6080604052348015600e575f80fd5b506104758061001c5f395ff3fe608060405234801561000f575f80fd5b506004361061003f575f3560e01c806359f4a90714610043578063950d7f6f14610061578063d123a5541461007f575b5f80fd5b61004b6100b1565b604051610058919061029b565b60405180910390f35b6100696100bc565b604051610076919061029b565b60405180910390f35b61009960048036038101906100949190610312565b6100c7565b6040516100a893929190610357565b60405180910390f35b6380ac58cd60e01b81565b6301ffc9a760e01b81565b5f805f808490505f8173ffffffffffffffffffffffffffffffffffffffff166301ffc9a78060e01b6040518263ffffffff1660e01b815260040161010b919061029b565b602060405180830381865afa158015610126573d5f803e3d5ffd5b505050506040513d601f19601f8201168201806040525081019061014a91906103b6565b90505f8273ffffffffffffffffffffffffffffffffffffffff166301ffc9a76380ac58cd60e01b6040518263ffffffff1660e01b815260040161018d919061029b565b602060405180830381865afa1580156101a8573d5f803e3d5ffd5b505050506040513d601f19601f820116820180604052508101906101cc91906103b6565b90505f8373ffffffffffffffffffffffffffffffffffffffff166301ffc9a763123456786040518263ffffffff1660e01b815260040161020c9190610426565b602060405180830381865afa158015610227573d5f803e3d5ffd5b505050506040513d601f19601f8201168201806040525081019061024b91906103b6565b9050828282965096509650505050509193909250565b5f7fffffffff0000000000000000000000000000000000000000000000000000000082169050919050565b61029581610261565b82525050565b5f6020820190506102ae5f83018461028c565b92915050565b5f80fd5b5f73ffffffffffffffffffffffffffffffffffffffff82169050919050565b5f6102e1826102b8565b9050919050565b6102f1816102d7565b81146102fb575f80fd5b50565b5f8135905061030c816102e8565b92915050565b5f60208284031215610327576103266102b4565b5b5f610334848285016102fe565b91505092915050565b5f8115159050919050565b6103518161033d565b82525050565b5f60608201905061036a5f830186610348565b6103776020830185610348565b6103846040830184610348565b949350505050565b6103958161033d565b811461039f575f80fd5b50565b5f815190506103b08161038c565b92915050565b5f602082840312156103cb576103ca6102b4565b5b5f6103d8848285016103a2565b91505092915050565b5f819050919050565b5f8160e01b9050919050565b5f61041061040b610406846103e1565b6103ea565b610261565b9050919050565b610420816103f6565b82525050565b5f6020820190506104395f830184610417565b9291505056fea2646970667358221220c5add4caa06937dbf154eb9d2068fe6e2344ca9ac59513995b8dde348033e64664736f6c634300081a0033",
					"opcodes": "PUSH1 0x80 PUSH1 0x40 MSTORE CALLVALUE DUP1 ISZERO PUSH1 0xE JUMPI PUSH0 DUP1 REVERT JUMPDEST POP PUSH2 0x475 DUP1 PUSH2 0x1C PUSH0 CODECOPY PUSH0 RETURN INVALID PUSH1 0x80 PUSH1 0x40 MSTORE CALLVALUE DUP1 ISZERO PUSH2 0xF JUMPI PUSH0 DUP1 REVERT JUMPDEST POP PUSH1 0x4 CALLDATASIZE LT PUSH2 0x3F JUMPI PUSH0 CALLDATALOAD PUSH1 0xE0 SHR DUP1 PUSH4 0x59F4A907 EQ PUSH2 0x43 JUMPI DUP1 PUSH4 0x950D7F6F EQ PUSH2 0x61 JUMPI DUP1 PUSH4 0xD123A554 EQ PUSH2 0x7F JUMPI JUMPDEST PUSH0 DUP1 REVERT JUMPDEST PUSH2 0x4B PUSH2 0xB1 JUMP JUMPDEST PUSH1 0x40 MLOAD PUSH2 0x58 SWAP2 SWAP1 PUSH2 0x29B JUMP JUMPDEST PUSH1 0x40 MLOAD DUP1 SWAP2 SUB SWAP1 RETURN JUMPDEST PUSH2 0x69 PUSH2 0xBC JUMP JUMPDEST PUSH1 0x40 MLOAD PUSH2 0x76 SWAP2 SWAP1 PUSH2 0x29B JUMP JUMPDEST PUSH1 0x40 MLOAD DUP1 SWAP2 SUB SWAP1 RETURN JUMPDEST PUSH2 0x99 PUSH1 0x4 DUP1 CALLDATASIZE SUB DUP2 ADD SWAP1 PUSH2 0x94 SWAP2 SWAP1 PUSH2 0x312 JUMP JUMPDEST PUSH2 0xC7 JUMP JUMPDEST PUSH1 0x40 MLOAD PUSH2 0xA8 SWAP4 SWAP3 SWAP2 SWAP1 PUSH2 0x357 JUMP JUMPDEST PUSH1 0x40 MLOAD DUP1 SWAP2 SUB SWAP1 RETURN JUMPDEST PUSH4 0x80AC58CD PUSH1 0xE0 SHL DUP2 JUMP JUMPDEST PUSH4 0x1FFC9A7 PUSH1 0xE0 SHL DUP2 JUMP JUMPDEST PUSH0 DUP1 PUSH0 DUP1 DUP5 SWAP1 POP PUSH0 DUP2 PUSH20 0xFFFFFFFFFFFFFFFFFFFFFFFFFFFFFFFFFFFFFFFF AND PUSH4 0x1FFC9A7 DUP1 PUSH1 0xE0 SHL PUSH1 0x40 MLOAD DUP3 PUSH4 0xFFFFFFFF AND PUSH1 0xE0 SHL DUP2 MSTORE PUSH1 0x4 ADD PUSH2 0x10B SWAP2 SWAP1 PUSH2 0x29B JUMP JUMPDEST PUSH1 0x20 PUSH1 0x40 MLOAD DUP1 DUP4 SUB DUP2 DUP7 GAS STATICCALL ISZERO DUP1 ISZERO PUSH2 0x126 JUMPI RETURNDATASIZE PUSH0 DUP1 RETURNDATACOPY RETURNDATASIZE PUSH0 REVERT JUMPDEST POP POP POP POP PUSH1 0x40 MLOAD RETURNDATASIZE PUSH1 0x1F NOT PUSH1 0x1F DUP3 ADD AND DUP3 ADD DUP1 PUSH1 0x40 MSTORE POP DUP2 ADD SWAP1 PUSH2 0x14A SWAP2 SWAP1 PUSH2 0x3B6 JUMP JUMPDEST SWAP1 POP PUSH0 DUP3 PUSH20 0xFFFFFFFFFFFFFFFFFFFFFFFFFFFFFFFFFFFFFFFF AND PUSH4 0x1FFC9A7 PUSH4 0x80AC58CD PUSH1 0xE0 SHL PUSH1 0x40 MLOAD DUP3 PUSH4 0xFFFFFFFF AND PUSH1 0xE0 SHL DUP2 MSTORE PUSH1 0x4 ADD PUSH2 0x18D SWAP2 SWAP1 PUSH2 0x29B JUMP JUMPDEST PUSH1 0x20 PUSH1 0x40 MLOAD DUP1 DUP4 SUB DUP2 DUP7 GAS STATICCALL ISZERO DUP1 ISZERO PUSH2 0x1A8 JUMPI RETURNDATASIZE PUSH0 DUP1 RETURNDATACOPY RETURNDATASIZE PUSH0 REVERT JUMPDEST POP POP POP POP PUSH1 0x40 MLOAD RETURNDATASIZE PUSH1 0x1F NOT PUSH1 0x1F DUP3 ADD AND DUP3 ADD DUP1 PUSH1 0x40 MSTORE POP DUP2 ADD SWAP1 PUSH2 0x1CC SWAP2 SWAP1 PUSH2 0x3B6 JUMP JUMPDEST SWAP1 POP PUSH0 DUP4 PUSH20 0xFFFFFFFFFFFFFFFFFFFFFFFFFFFFFFFFFFFFFFFF AND PUSH4 0x1FFC9A7 PUSH4 0x12345678 PUSH1 0x40 MLOAD DUP3 PUSH4 0xFFFFFFFF AND PUSH1 0xE0 SHL DUP2 MSTORE PUSH1 0x4 ADD PUSH2 0x20C SWAP2 SWAP1 PUSH2 0x426 JUMP JUMPDEST PUSH1 0x20 PUSH1 0x40 MLOAD DUP1 DUP4 SUB DUP2 DUP7 GAS STATICCALL ISZERO DUP1 ISZERO PUSH2 0x227 JUMPI RETURNDATASIZE PUSH0 DUP1 RETURNDATACOPY RETURNDATASIZE PUSH0 REVERT JUMPDEST POP POP POP POP PUSH1 0x40 MLOAD RETURNDATASIZE PUSH1 0x1F NOT PUSH1 0x1F DUP3 ADD AND DUP3 ADD DUP1 PUSH1 0x40 MSTORE POP DUP2 ADD SWAP1 PUSH2 0x24B SWAP2 SWAP1 PUSH2 0x3B6 JUMP JUMPDEST SWAP1 POP DUP3 DUP3 DUP3 SWAP7 POP SWAP7 POP SWAP7 POP POP POP POP POP SWAP2 SWAP4 SWAP1 SWAP3 POP JUMP JUMPDEST PUSH0 PUSH32 0xFFFFFFFF00000000000000000000000000000000000000000000000000000000 DUP3 AND SWAP1 POP SWAP2 SWAP1 POP JUMP JUMPDEST PUSH2 0x295 DUP2 PUSH2 0x261 JUMP JUMPDEST DUP3 MSTORE POP POP JUMP JUMPDEST PUSH0 PUSH1 0x20 DUP3 ADD SWAP1 POP PUSH2 0x2AE PUSH0 DUP4 ADD DUP5 PUSH2 0x28C JUMP JUMPDEST SWAP3 SWAP2 POP POP JUMP JUMPDEST PUSH0 DUP1 REVERT JUMPDEST PUSH0 PUSH20 0xFFFFFFFFFFFFFFFFFFFFFFFFFFFFFFFFFFFFFFFF DUP3 AND SWAP1 POP SWAP2 SWAP1 POP JUMP JUMPDEST PUSH0 PUSH2 0x2E1 DUP3 PUSH2 0x2B8 JUMP JUMPDEST SWAP1 POP SWAP2 SWAP1 POP JUMP JUMPDEST PUSH2 0x2F1 DUP2 PUSH2 0x2D7 JUMP JUMPDEST DUP2 EQ PUSH2 0x2FB JUMPI PUSH0 DUP1 REVERT JUMPDEST POP JUMP JUMPDEST PUSH0 DUP2 CALLDATALOAD SWAP1 POP PUSH2 0x30C DUP2 PUSH2 0x2E8 JUMP JUMPDEST SWAP3 SWAP2 POP POP JUMP JUMPDEST PUSH0 PUSH1 0x20 DUP3 DUP5 SUB SLT ISZERO PUSH2 0x327 JUMPI PUSH2 0x326 PUSH2 0x2B4 JUMP JUMPDEST JUMPDEST PUSH0 PUSH2 0x334 DUP5 DUP3 DUP6 ADD PUSH2 0x2FE JUMP JUMPDEST SWAP2 POP POP SWAP3 SWAP2 POP POP JUMP JUMPDEST PUSH0 DUP2 ISZERO ISZERO SWAP1 POP SWAP2 SWAP1 POP JUMP JUMPDEST PUSH2 0x351 DUP2 PUSH2 0x33D JUMP JUMPDEST DUP3 MSTORE POP POP JUMP JUMPDEST PUSH0 PUSH1 0x60 DUP3 ADD SWAP1 POP PUSH2 0x36A PUSH0 DUP4 ADD DUP7 PUSH2 0x348 JUMP JUMPDEST PUSH2 0x377 PUSH1 0x20 DUP4 ADD DUP6 PUSH2 0x348 JUMP JUMPDEST PUSH2 0x384 PUSH1 0x40 DUP4 ADD DUP5 PUSH2 0x348 JUMP JUMPDEST SWAP5 SWAP4 POP POP POP POP JUMP JUMPDEST PUSH2 0x395 DUP2 PUSH2 0x33D JUMP JUMPDEST DUP2 EQ PUSH2 0x39F JUMPI PUSH0 DUP1 REVERT JUMPDEST POP JUMP JUMPDEST PUSH0 DUP2 MLOAD SWAP1 POP PUSH2 0x3B0 DUP2 PUSH2 0x38C JUMP JUMPDEST SWAP3 SWAP2 POP POP JUMP JUMPDEST PUSH0 PUSH1 0x20 DUP3 DUP5 SUB SLT ISZERO PUSH2 0x3CB JUMPI PUSH2 0x3CA PUSH2 0x2B4 JUMP JUMPDEST JUMPDEST PUSH0 PUSH2 0x3D8 DUP5 DUP3 DUP6 ADD PUSH2 0x3A2 JUMP JUMPDEST SWAP2 POP POP SWAP3 SWAP2 POP POP JUMP JUMPDEST PUSH0 DUP2 SWAP1 POP SWAP2 SWAP1 POP JUMP JUMPDEST PUSH0 DUP2 PUSH1 0xE0 SHL SWAP1 POP SWAP2 SWAP1 POP JUMP JUMPDEST PUSH0 PUSH2 0x410 PUSH2 0x40B PUSH2 0x406 DUP5 PUSH2 0x3E1 JUMP JUMPDEST PUSH2 0x3EA JUMP JUMPDEST PUSH2 0x261 JUMP JUMPDEST SWAP1 POP SWAP2 SWAP1 POP JUMP JUMPDEST PUSH2 0x420 DUP2 PUSH2 0x3F6 JUMP JUMPDEST DUP3 MSTORE POP POP JUMP JUMPDEST PUSH0 PUSH1 0x20 DUP3 ADD SWAP1 POP PUSH2 0x439 PUSH0 DUP4 ADD DUP5 PUSH2 0x417 JUMP JUMPDEST SWAP3 SWAP2 POP POP JUMP INVALID LOG2 PUSH5 0x6970667358 0x22 SLT KECCAK256 0xC5 0xAD 0xD4 0xCA LOG0 PUSH10 0x37DBF154EB9D2068FE6E 0x23 PREVRANDAO 0xCA SWAP11 0xC5 SWAP6 SGT SWAP10 JUMPDEST DUP14 0xDE CALLVALUE DUP1 CALLER 0xE6 CHAINID PUSH5 0x736F6C6343 STOP ADDMOD BYTE STOP CALLER "
				},
				"gasEstimates": {
					"creation": {
						"codeDepositCost": "228200",
						"executionCost": "267",
						"totalCost": "228467"
					},
					"external": {
						"ERC165_INTERFACE_ID()": "337",
						"ERC721_INTERFACE_ID()": "315",
						"pruebaSupportsInterface(address)": "infinite"
					}
				},
				"methodIdentifiers": {
					"ERC165_INTERFACE_ID()": "950d7f6f",
					"ERC721_INTERFACE_ID()": "59f4a907",
					"pruebaSupportsInterface(address)": "d123a554"
				}
			},
			"storageLayout": {
				"storage": [],
				"types": null
			},
			"userdoc": {
				"kind": "user",
				"methods": {},
				"version": 1
			}
		}
	}
}