{
	"data": {
		"bytecode": {
			"linkReferences": {},
			"object": "60806040526127105f555f6004553480156017575f80fd5b503360055f6101000a81548173ffffffffffffffffffffffffffffffffffffffff021916908373ffffffffffffffffffffffffffffffffffffffff160217905550613bb2806100655f395ff3fe6080604052600436106100dc575f3560e01c806350fac4f11161007e578063c958e0d611610058578063c958e0d6146102a6578063d6ad8a94146102bc578063e85e001b146102d8578063eb11675614610302576100dc565b806350fac4f1146102065780636352211e1461022e57806370a082311461026a576100dc565b80630a0eac29116100ba5780630a0eac291461017457806323b872dd1461019057806342842e0e146101ac5780634810bc59146101c8576100dc565b806301ffc9a7146100e0578063081812fc1461011c578063095ea7b314610158575b5f80fd5b3480156100eb575f80fd5b5061010660048036038101906101019190612396565b610332565b60405161011391906123db565b60405180910390f35b348015610127575f80fd5b50610142600480360381019061013d9190612427565b610403565b60405161014f9190612491565b60405180910390f35b610172600480360381019061016d91906124d4565b61049a565b005b61018e60048036038101906101899190612573565b61073d565b005b6101aa60048036038101906101a591906125e4565b610b18565b005b6101c660048036038101906101c191906125e4565b610efc565b005b3480156101d3575f80fd5b506101ee60048036038101906101e99190612427565b611408565b6040516101fd9392919061289f565b60405180910390f35b348015610211575f80fd5b5061022c60048036038101906102279190612427565b611606565b005b348015610239575f80fd5b50610254600480360381019061024f9190612427565b6118ec565b6040516102619190612491565b60405180910390f35b348015610275575f80fd5b50610290600480360381019061028b91906128e2565b6119c9565b60405161029d919061291c565b60405180910390f35b3480156102b1575f80fd5b506102ba611a7d565b005b6102d660048036038101906102d1919061296b565b611bd9565b005b3480156102e3575f80fd5b506102ec611d9c565b6040516102f9919061291c565b60405180910390f35b61031c600480360381019061031791906129a9565b611da2565b604051610329919061291c565b60405180910390f35b5f7f73884ab3000000000000000000000000000000000000000000000000000000007bffffffffffffffffffffffffffffffffffffffffffffffffffffffff1916827bffffffffffffffffffffffffffffffffffffffffffffffffffffffff191614806103fc57507f01ffc9a7000000000000000000000000000000000000000000000000000000007bffffffffffffffffffffffffffffffffffffffffffffffffffffffff1916827bffffffffffffffffffffffffffffffffffffffffffffffffffffffff1916145b9050919050565b5f6127108211801561042357506004546127106104209190612a21565b82105b610462576040517f08c379a000000000000000000000000000000000000000000000000000000000815260040161045990612a9e565b60405180910390fd5b60025f8381526020019081526020015f205f9054906101000a900473ffffffffffffffffffffffffffffffffffffffff169050919050565b60015f8281526020019081526020015f206003015f9054906101000a900473ffffffffffffffffffffffffffffffffffffffff1673ffffffffffffffffffffffffffffffffffffffff163373ffffffffffffffffffffffffffffffffffffffff161461053b576040517f08c379a000000000000000000000000000000000000000000000000000000000815260040161053290612b2c565b60405180910390fd5b5f73ffffffffffffffffffffffffffffffffffffffff1660015f8381526020019081526020015f206003015f9054906101000a900473ffffffffffffffffffffffffffffffffffffffff1673ffffffffffffffffffffffffffffffffffffffff16036105dc576040517f08c379a00000000000000000000000000000000000000000000000000000000081526004016105d390612b94565b60405180910390fd5b5f61064960015f8481526020019081526020015f2060010160010180548060200260200160405190810160405280929190818152602001828054801561063f57602002820191905f5260205f20905b81548152602001906001019080831161062b575b50505050506120a0565b90508034101561068e576040517f08c379a000000000000000000000000000000000000000000000000000000000815260040161068590612c22565b60405180910390fd5b8260025f8481526020019081526020015f205f6101000a81548173ffffffffffffffffffffffffffffffffffffffff021916908373ffffffffffffffffffffffffffffffffffffffff160217905550818373ffffffffffffffffffffffffffffffffffffffff163373ffffffffffffffffffffffffffffffffffffffff167f8c5be1e5ebec7d5bd14f71427d1e84f3dd0314c0f7b2291e5b200ac8c7c3b92560405160405180910390a4505050565b8383835f73ffffffffffffffffffffffffffffffffffffffff1660015f8581526020019081526020015f206003015f9054906101000a900473ffffffffffffffffffffffffffffffffffffffff1673ffffffffffffffffffffffffffffffffffffffff16036107e1576040517f08c379a00000000000000000000000000000000000000000000000000000000081526004016107d890612cb0565b60405180910390fd5b6108cc60015f8581526020019081526020015f206001015f01805480602002602001604051908101604052809291908181526020015f905b828210156108c1578382905f5260205f2001805461083690612cfb565b80601f016020809104026020016040519081016040528092919081815260200182805461086290612cfb565b80156108ad5780601f10610884576101008083540402835291602001916108ad565b820191905f5260205f20905b81548152906001019060200180831161089057829003601f168201915b505050505081526020019060010190610819565b5050505083836120ef565b1561090c576040517f08c379a000000000000000000000000000000000000000000000000000000000815260040161090390612d9b565b60405180910390fd5b5f60015f8981526020019081526020015f2090503373ffffffffffffffffffffffffffffffffffffffff16816003015f9054906101000a900473ffffffffffffffffffffffffffffffffffffffff1673ffffffffffffffffffffffffffffffffffffffff1614806109d8575060025f8981526020019081526020015f205f9054906101000a900473ffffffffffffffffffffffffffffffffffffffff1673ffffffffffffffffffffffffffffffffffffffff163373ffffffffffffffffffffffffffffffffffffffff16145b610a17576040517f08c379a0000000000000000000000000000000000000000000000000000000008152600401610a0e90612e29565b60405180910390fd5b5f816001015f018054905090505f816002610a329190612f76565b87610a3d9190612fc0565b905080341015610a82576040517f08c379a0000000000000000000000000000000000000000000000000000000008152600401610a7990613071565b60405180910390fd5b60015f8b81526020019081526020015f206001015f01898990918060018154018082558091505060019003905f5260205f20015f909192909192909192909192509182610ad0929190613263565b5060015f8b81526020019081526020015f2060010160010187908060018154018082558091505060019003905f5260205f20015f909190919091505550505050505050505050565b60015f8281526020019081526020015f206003015f9054906101000a900473ffffffffffffffffffffffffffffffffffffffff1673ffffffffffffffffffffffffffffffffffffffff163373ffffffffffffffffffffffffffffffffffffffff161480610be0575060025f8281526020019081526020015f205f9054906101000a900473ffffffffffffffffffffffffffffffffffffffff1673ffffffffffffffffffffffffffffffffffffffff163373ffffffffffffffffffffffffffffffffffffffff16145b610c1f576040517f08c379a0000000000000000000000000000000000000000000000000000000008152600401610c16906133c6565b60405180910390fd5b8273ffffffffffffffffffffffffffffffffffffffff1660015f8381526020019081526020015f206003015f9054906101000a900473ffffffffffffffffffffffffffffffffffffffff1673ffffffffffffffffffffffffffffffffffffffff1614610cc0576040517f08c379a0000000000000000000000000000000000000000000000000000000008152600401610cb7906134c6565b60405180910390fd5b5f610d2d60015f8481526020019081526020015f20600101600101805480602002602001604051908101604052809291908181526020018280548015610d2357602002820191905f5260205f20905b815481526020019060010190808311610d0f575b50505050506120a0565b905080341015610d72576040517f08c379a0000000000000000000000000000000000000000000000000000000008152600401610d6990612c22565b60405180910390fd5b8260015f8481526020019081526020015f206003015f6101000a81548173ffffffffffffffffffffffffffffffffffffffff021916908373ffffffffffffffffffffffffffffffffffffffff16021790555060035f8573ffffffffffffffffffffffffffffffffffffffff1673ffffffffffffffffffffffffffffffffffffffff1681526020019081526020015f205f815480929190610e11906134e4565b919050555060035f8473ffffffffffffffffffffffffffffffffffffffff1673ffffffffffffffffffffffffffffffffffffffff1681526020019081526020015f205f815480929190610e639061350b565b919050555060025f8381526020019081526020015f205f6101000a81549073ffffffffffffffffffffffffffffffffffffffff0219169055818373ffffffffffffffffffffffffffffffffffffffff168573ffffffffffffffffffffffffffffffffffffffff167fddf252ad1be2c89b69c2b068fc378daa952ba7f163c4a11628f55a4df523b3ef60405160405180910390a450505050565b60015f8281526020019081526020015f206003015f9054906101000a900473ffffffffffffffffffffffffffffffffffffffff1673ffffffffffffffffffffffffffffffffffffffff163373ffffffffffffffffffffffffffffffffffffffff161480610fc4575060025f8281526020019081526020015f205f9054906101000a900473ffffffffffffffffffffffffffffffffffffffff1673ffffffffffffffffffffffffffffffffffffffff163373ffffffffffffffffffffffffffffffffffffffff16145b611003576040517f08c379a0000000000000000000000000000000000000000000000000000000008152600401610ffa906133c6565b60405180910390fd5b8273ffffffffffffffffffffffffffffffffffffffff1660015f8381526020019081526020015f206003015f9054906101000a900473ffffffffffffffffffffffffffffffffffffffff1673ffffffffffffffffffffffffffffffffffffffff16146110a4576040517f08c379a000000000000000000000000000000000000000000000000000000000815260040161109b906134c6565b60405180910390fd5b5f61111160015f8481526020019081526020015f2060010160010180548060200260200160405190810160405280929190818152602001828054801561110757602002820191905f5260205f20905b8154815260200190600101908083116110f3575b50505050506120a0565b905080341015611156576040517f08c379a000000000000000000000000000000000000000000000000000000000815260040161114d90612c22565b60405180910390fd5b5f8373ffffffffffffffffffffffffffffffffffffffff163b111561127e575f8373ffffffffffffffffffffffffffffffffffffffff1663150b7a023387866040518463ffffffff1660e01b81526004016111b393929190613585565b6020604051808303815f875af11580156111cf573d5f803e3d5ffd5b505050506040513d601f19601f820116820180604052508101906111f391906135e1565b905063150b7a0260e01b7bffffffffffffffffffffffffffffffffffffffffffffffffffffffff1916817bffffffffffffffffffffffffffffffffffffffffffffffffffffffff19161461127c576040517f08c379a0000000000000000000000000000000000000000000000000000000008152600401611273906136a2565b60405180910390fd5b505b8260015f8481526020019081526020015f206003015f6101000a81548173ffffffffffffffffffffffffffffffffffffffff021916908373ffffffffffffffffffffffffffffffffffffffff16021790555060035f8573ffffffffffffffffffffffffffffffffffffffff1673ffffffffffffffffffffffffffffffffffffffff1681526020019081526020015f205f81548092919061131d906134e4565b919050555060035f8473ffffffffffffffffffffffffffffffffffffffff1673ffffffffffffffffffffffffffffffffffffffff1681526020019081526020015f205f81548092919061136f9061350b565b919050555060025f8381526020019081526020015f205f6101000a81549073ffffffffffffffffffffffffffffffffffffffff0219169055818373ffffffffffffffffffffffffffffffffffffffff168573ffffffffffffffffffffffffffffffffffffffff167fddf252ad1be2c89b69c2b068fc378daa952ba7f163c4a11628f55a4df523b3ef60405160405180910390a450505050565b6001602052805f5260405f205f91509050805f01805461142790612cfb565b80601f016020809104026020016040519081016040528092919081815260200182805461145390612cfb565b801561149e5780601f106114755761010080835404028352916020019161149e565b820191905f5260205f20905b81548152906001019060200180831161148157829003601f168201915b505050505090806001016040518060400160405290815f8201805480602002602001604051908101604052809291908181526020015f905b8282101561157e578382905f5260205f200180546114f390612cfb565b80601f016020809104026020016040519081016040528092919081815260200182805461151f90612cfb565b801561156a5780601f106115415761010080835404028352916020019161156a565b820191905f5260205f20905b81548152906001019060200180831161154d57829003601f168201915b5050505050815260200190600101906114d6565b505050508152602001600182018054806020026020016040519081016040528092919081815260200182805480156115d357602002820191905f5260205f20905b8154815260200190600101908083116115bf575b50505050508152505090806003015f9054906101000a900473ffffffffffffffffffffffffffffffffffffffff16905083565b3373ffffffffffffffffffffffffffffffffffffffff1660015f8381526020019081526020015f206003015f9054906101000a900473ffffffffffffffffffffffffffffffffffffffff1673ffffffffffffffffffffffffffffffffffffffff1614806116ce575060025f8281526020019081526020015f205f9054906101000a900473ffffffffffffffffffffffffffffffffffffffff1673ffffffffffffffffffffffffffffffffffffffff163373ffffffffffffffffffffffffffffffffffffffff16145b61170d576040517f08c379a000000000000000000000000000000000000000000000000000000000815260040161170490612e29565b60405180910390fd5b60015f8281526020019081526020015f205f8082015f61172d91906121e0565b600182015f8082015f611740919061221d565b600182015f61174f919061223b565b5050600382015f6101000a81549073ffffffffffffffffffffffffffffffffffffffff0219169055505060045f81548092919061178b906134e4565b919050555060035f60015f8481526020019081526020015f206003015f9054906101000a900473ffffffffffffffffffffffffffffffffffffffff1673ffffffffffffffffffffffffffffffffffffffff1673ffffffffffffffffffffffffffffffffffffffff1681526020019081526020015f205f815480929190611810906134e4565b919050555060025f8281526020019081526020015f205f6101000a81549073ffffffffffffffffffffffffffffffffffffffff02191690553373ffffffffffffffffffffffffffffffffffffffff166108fc6103e890811502906040515f60405180830381858888f1935050505015801561188d573d5f803e3d5ffd5b50805f73ffffffffffffffffffffffffffffffffffffffff163373ffffffffffffffffffffffffffffffffffffffff167fddf252ad1be2c89b69c2b068fc378daa952ba7f163c4a11628f55a4df523b3ef60405160405180910390a450565b5f8073ffffffffffffffffffffffffffffffffffffffff1660015f8481526020019081526020015f206003015f9054906101000a900473ffffffffffffffffffffffffffffffffffffffff1673ffffffffffffffffffffffffffffffffffffffff160361198e576040517f08c379a000000000000000000000000000000000000000000000000000000000815260040161198590612b94565b60405180910390fd5b60015f8381526020019081526020015f206003015f9054906101000a900473ffffffffffffffffffffffffffffffffffffffff169050919050565b5f8073ffffffffffffffffffffffffffffffffffffffff168273ffffffffffffffffffffffffffffffffffffffff1603611a38576040517f08c379a0000000000000000000000000000000000000000000000000000000008152600401611a2f9061370a565b60405180910390fd5b60035f8373ffffffffffffffffffffffffffffffffffffffff1673ffffffffffffffffffffffffffffffffffffffff1681526020019081526020015f20549050919050565b60055f9054906101000a900473ffffffffffffffffffffffffffffffffffffffff1673ffffffffffffffffffffffffffffffffffffffff163373ffffffffffffffffffffffffffffffffffffffff1614611b0c576040517f08c379a0000000000000000000000000000000000000000000000000000000008152600401611b03906137be565b60405180910390fd5b5f6103e8600454611b1d9190612fc0565b90505f8147611b2c91906137dc565b90505f8111611b70576040517f08c379a0000000000000000000000000000000000000000000000000000000008152600401611b6790613859565b60405180910390fd5b60055f9054906101000a900473ffffffffffffffffffffffffffffffffffffffff1673ffffffffffffffffffffffffffffffffffffffff166108fc8290811502906040515f60405180830381858888f19350505050158015611bd4573d5f803e3d5ffd5b505050565b5f60015f8481526020019081526020015f2090503373ffffffffffffffffffffffffffffffffffffffff16816003015f9054906101000a900473ffffffffffffffffffffffffffffffffffffffff1673ffffffffffffffffffffffffffffffffffffffff161480611ca5575060025f8481526020019081526020015f205f9054906101000a900473ffffffffffffffffffffffffffffffffffffffff1673ffffffffffffffffffffffffffffffffffffffff163373ffffffffffffffffffffffffffffffffffffffff16145b611ce4576040517f08c379a0000000000000000000000000000000000000000000000000000000008152600401611cdb90612e29565b60405180910390fd5b5f8283611cf19190613877565b60ff16905080341015611d39576040517f08c379a0000000000000000000000000000000000000000000000000000000008152600401611d3090613949565b60405180910390fd5b611d9682600101600101805480602002602001604051908101604052809291908181526020018280548015611d8b57602002820191905f5260205f20905b815481526020019060010190808311611d77575b505050505084612160565b50505050565b6103e881565b5f6103e83414611de7576040517f08c379a0000000000000000000000000000000000000000000000000000000008152600401611dde906139b1565b60405180910390fd5b5f80815480929190611df89061350b565b91905055505f604051806060016040528085858080601f0160208091040260200160405190810160405280939291908181526020018383808284375f81840152601f19601f82011690508083019250505050505050815260200160405180604001604052805f67ffffffffffffffff811115611e7757611e76613099565b5b604051908082528060200260200182016040528015611eaa57816020015b6060815260200190600190039081611e955790505b5081526020015f67ffffffffffffffff811115611eca57611ec9613099565b5b604051908082528060200260200182016040528015611ef85781602001602082028036833780820191505090505b5081525081526020013373ffffffffffffffffffffffffffffffffffffffff1681525090508060015f805481526020019081526020015f205f820151815f019081611f4391906139cf565b506020820151816001015f820151815f019080519060200190611f67929190612259565b506020820151816001019080519060200190611f849291906122b0565b5050506040820151816003015f6101000a81548173ffffffffffffffffffffffffffffffffffffffff021916908373ffffffffffffffffffffffffffffffffffffffff16021790555090505060045f815480929190611fe29061350b565b919050555060035f3373ffffffffffffffffffffffffffffffffffffffff1673ffffffffffffffffffffffffffffffffffffffff1681526020019081526020015f205f8154809291906120349061350b565b91905055505f543373ffffffffffffffffffffffffffffffffffffffff165f73ffffffffffffffffffffffffffffffffffffffff167fddf252ad1be2c89b69c2b068fc378daa952ba7f163c4a11628f55a4df523b3ef60405160405180910390a45f5491505092915050565b5f805f90505f5b83518110156120e5578381815181106120c3576120c2613a9e565b5b6020026020010151826120d69190612a21565b915080806001019150506120a7565b5080915050919050565b5f805f90505b845181101561215457838360405161210e929190613b07565b604051809103902085828151811061212957612128613a9e565b5b60200260200101518051906020012003612147576001915050612159565b80806001019150506120f5565b505f90505b9392505050565b5f5b82518110156121db576064826121789190613b4c565b60ff1683828151811061218e5761218d613a9e565b5b60200260200101516121a09190612fc0565b8382815181106121b3576121b2613a9e565b5b602002602001018181516121c79190612a21565b915081815250508080600101915050612162565b505050565b5080546121ec90612cfb565b5f825580601f106121fd575061221a565b601f0160209004905f5260205f209081019061221991906122fb565b5b50565b5080545f8255905f5260205f20908101906122389190612316565b50565b5080545f8255905f5260205f209081019061225691906122fb565b50565b828054828255905f5260205f2090810192821561229f579160200282015b8281111561229e57825182908161228e91906139cf565b5091602001919060010190612277565b5b5090506122ac9190612316565b5090565b828054828255905f5260205f209081019282156122ea579160200282015b828111156122e95782518255916020019190600101906122ce565b5b5090506122f791906122fb565b5090565b5b80821115612312575f815f9055506001016122fc565b5090565b5b80821115612335575f818161232c91906121e0565b50600101612317565b5090565b5f80fd5b5f80fd5b5f7fffffffff0000000000000000000000000000000000000000000000000000000082169050919050565b61237581612341565b811461237f575f80fd5b50565b5f813590506123908161236c565b92915050565b5f602082840312156123ab576123aa612339565b5b5f6123b884828501612382565b91505092915050565b5f8115159050919050565b6123d5816123c1565b82525050565b5f6020820190506123ee5f8301846123cc565b92915050565b5f819050919050565b612406816123f4565b8114612410575f80fd5b50565b5f81359050612421816123fd565b92915050565b5f6020828403121561243c5761243b612339565b5b5f61244984828501612413565b91505092915050565b5f73ffffffffffffffffffffffffffffffffffffffff82169050919050565b5f61247b82612452565b9050919050565b61248b81612471565b82525050565b5f6020820190506124a45f830184612482565b92915050565b6124b381612471565b81146124bd575f80fd5b50565b5f813590506124ce816124aa565b92915050565b5f80604083850312156124ea576124e9612339565b5b5f6124f7858286016124c0565b925050602061250885828601612413565b9150509250929050565b5f80fd5b5f80fd5b5f80fd5b5f8083601f84011261253357612532612512565b5b8235905067ffffffffffffffff8111156125505761254f612516565b5b60208301915083600182028301111561256c5761256b61251a565b5b9250929050565b5f805f806060858703121561258b5761258a612339565b5b5f61259887828801612413565b945050602085013567ffffffffffffffff8111156125b9576125b861233d565b5b6125c58782880161251e565b935093505060406125d887828801612413565b91505092959194509250565b5f805f606084860312156125fb576125fa612339565b5b5f612608868287016124c0565b9350506020612619868287016124c0565b925050604061262a86828701612413565b9150509250925092565b5f81519050919050565b5f82825260208201905092915050565b8281835e5f83830152505050565b5f601f19601f8301169050919050565b5f61267682612634565b612680818561263e565b935061269081856020860161264e565b6126998161265c565b840191505092915050565b5f81519050919050565b5f82825260208201905092915050565b5f819050602082019050919050565b5f82825260208201905092915050565b5f6126e782612634565b6126f181856126cd565b935061270181856020860161264e565b61270a8161265c565b840191505092915050565b5f61272083836126dd565b905092915050565b5f602082019050919050565b5f61273e826126a4565b61274881856126ae565b93508360208202850161275a856126be565b805f5b8581101561279557848403895281516127768582612715565b945061278183612728565b925060208a0199505060018101905061275d565b50829750879550505050505092915050565b5f81519050919050565b5f82825260208201905092915050565b5f819050602082019050919050565b6127d9816123f4565b82525050565b5f6127ea83836127d0565b60208301905092915050565b5f602082019050919050565b5f61280c826127a7565b61281681856127b1565b9350612821836127c1565b805f5b8381101561285157815161283888826127df565b9750612843836127f6565b925050600181019050612824565b5085935050505092915050565b5f604083015f8301518482035f8601526128788282612734565b915050602083015184820360208601526128928282612802565b9150508091505092915050565b5f6060820190508181035f8301526128b7818661266c565b905081810360208301526128cb818561285e565b90506128da6040830184612482565b949350505050565b5f602082840312156128f7576128f6612339565b5b5f612904848285016124c0565b91505092915050565b612916816123f4565b82525050565b5f60208201905061292f5f83018461290d565b92915050565b5f60ff82169050919050565b61294a81612935565b8114612954575f80fd5b50565b5f8135905061296581612941565b92915050565b5f806040838503121561298157612980612339565b5b5f61298e85828601612413565b925050602061299f85828601612957565b9150509250929050565b5f80602083850312156129bf576129be612339565b5b5f83013567ffffffffffffffff8111156129dc576129db61233d565b5b6129e88582860161251e565b92509250509250929050565b7f4e487b71000000000000000000000000000000000000000000000000000000005f52601160045260245ffd5b5f612a2b826123f4565b9150612a36836123f4565b9250828201905080821115612a4e57612a4d6129f4565b5b92915050565b7f4e6f20686179206e696e67756e20706572736f6e616a650000000000000000005f82015250565b5f612a8860178361263e565b9150612a9382612a54565b602082019050919050565b5f6020820190508181035f830152612ab581612a7c565b9050919050565b7f456d69736f722064656265207365722070726f706965746172696f2064656c205f8201527f746f6b656e000000000000000000000000000000000000000000000000000000602082015250565b5f612b1660258361263e565b9150612b2182612abc565b604082019050919050565b5f6020820190508181035f830152612b4381612b0a565b9050919050565b7f546f6b656e206e6f2065786973746500000000000000000000000000000000005f82015250565b5f612b7e600f8361263e565b9150612b8982612b4a565b602082019050919050565b5f6020820190508181035f830152612bab81612b72565b9050919050565b7f446562657320656e7669617220616c206d656e6f73206c612073756d612064655f8201527f206c617320706f74656e6369617320646520667565676f20656e205765690000602082015250565b5f612c0c603e8361263e565b9150612c1782612bb2565b604082019050919050565b5f6020820190508181035f830152612c3981612c00565b9050919050565b7f4e6f2070756564657320637265617220756e2061726d61206120756e207065725f8201527f736f6e616a6520696e6578697374656e74650000000000000000000000000000602082015250565b5f612c9a60328361263e565b9150612ca582612c40565b604082019050919050565b5f6020820190508181035f830152612cc781612c8e565b9050919050565b7f4e487b71000000000000000000000000000000000000000000000000000000005f52602260045260245ffd5b5f6002820490506001821680612d1257607f821691505b602082108103612d2557612d24612cce565b5b50919050565b7f456c2061726d612071756520657374617320696e74656e74616e646f206372655f8201527f6172207961206578697374650000000000000000000000000000000000000000602082015250565b5f612d85602c8361263e565b9150612d9082612d2b565b604082019050919050565b5f6020820190508181035f830152612db281612d79565b9050919050565b7f536f6c6f20656c2070726f706965746172696f2079206170726f6261646f20705f8201527f756564656e20656a65637574617220657374612066756e63696f6e0000000000602082015250565b5f612e13603b8361263e565b9150612e1e82612db9565b604082019050919050565b5f6020820190508181035f830152612e4081612e07565b9050919050565b5f8160011c9050919050565b5f808291508390505b6001851115612e9c57808604811115612e7857612e776129f4565b5b6001851615612e875780820291505b8081029050612e9585612e47565b9450612e5c565b94509492505050565b5f82612eb45760019050612f6f565b81612ec1575f9050612f6f565b8160018114612ed75760028114612ee157612f10565b6001915050612f6f565b60ff841115612ef357612ef26129f4565b5b8360020a915084821115612f0a57612f096129f4565b5b50612f6f565b5060208310610133831016604e8410600b8410161715612f455782820a905083811115612f4057612f3f6129f4565b5b612f6f565b612f528484846001612e53565b92509050818404811115612f6957612f686129f4565b5b81810290505b9392505050565b5f612f80826123f4565b9150612f8b836123f4565b9250612fb87fffffffffffffffffffffffffffffffffffffffffffffffffffffffffffffffff8484612ea5565b905092915050565b5f612fca826123f4565b9150612fd5836123f4565b9250828202612fe3816123f4565b91508282048414831517612ffa57612ff96129f4565b5b5092915050565b7f4e6f207469656e657320737566696369656e74657320776569732070617261205f8201527f6167726567617220656c2061726d610000000000000000000000000000000000602082015250565b5f61305b602f8361263e565b915061306682613001565b604082019050919050565b5f6020820190508181035f8301526130888161304f565b9050919050565b5f82905092915050565b7f4e487b71000000000000000000000000000000000000000000000000000000005f52604160045260245ffd5b5f819050815f5260205f209050919050565b5f6020601f8301049050919050565b5f82821b905092915050565b5f600883026131227fffffffffffffffffffffffffffffffffffffffffffffffffffffffffffffffff826130e7565b61312c86836130e7565b95508019841693508086168417925050509392505050565b5f819050919050565b5f61316761316261315d846123f4565b613144565b6123f4565b9050919050565b5f819050919050565b6131808361314d565b61319461318c8261316e565b8484546130f3565b825550505050565b5f90565b6131a861319c565b6131b3818484613177565b505050565b5b818110156131d6576131cb5f826131a0565b6001810190506131b9565b5050565b601f82111561321b576131ec816130c6565b6131f5846130d8565b81016020851015613204578190505b613218613210856130d8565b8301826131b8565b50505b505050565b5f82821c905092915050565b5f61323b5f1984600802613220565b1980831691505092915050565b5f613253838361322c565b9150826002028217905092915050565b61326d838361308f565b67ffffffffffffffff81111561328657613285613099565b5b6132908254612cfb565b61329b8282856131da565b5f601f8311600181146132c8575f84156132b6578287013590505b6132c08582613248565b865550613327565b601f1984166132d6866130c6565b5f5b828110156132fd578489013582556001820191506020850194506020810190506132d8565b8683101561331a5784890135613316601f89168261322c565b8355505b6001600288020188555050505b50505050505050565b7f456d69736f7220646562652073657220656c20706f736565646f722064656c205f8201527f746f6b656e206f20656c20717565207469656e65206170726f626163696f6e2060208201527f7061726120686163657220636f73617320636f6e20656c20746f6b656e000000604082015250565b5f6133b0605d8361263e565b91506133bb82613330565b606082019050919050565b5f6020820190508181035f8301526133dd816133a4565b9050919050565b7f4e6f206c6f206469636520656c20656e756e636961646f2c207065726f2063725f8201527f656f2071756520656c2066726f6d206573207369656d70726520656c2071756560208201527f20706f73656520656c20746f6b656e2c2073696e206e6563657369646164206460408201527f652071756520736561206573746520656c2071756520656a6563757461206c6160608201527f206f7065726163696f6e00000000000000000000000000000000000000000000608082015250565b5f6134b0608a8361263e565b91506134bb826133e4565b60a082019050919050565b5f6020820190508181035f8301526134dd816134a4565b9050919050565b5f6134ee826123f4565b91505f8203613500576134ff6129f4565b5b600182039050919050565b5f613515826123f4565b91507fffffffffffffffffffffffffffffffffffffffffffffffffffffffffffffffff8203613547576135466129f4565b5b600182019050919050565b5f82825260208201905092915050565b50565b5f6135705f83613552565b915061357b82613562565b5f82019050919050565b5f6080820190506135985f830186612482565b6135a56020830185612482565b6135b2604083018461290d565b81810360608301526135c381613565565b9050949350505050565b5f815190506135db8161236c565b92915050565b5f602082840312156135f6576135f5612339565b5b5f613603848285016135cd565b91505092915050565b7f4573746f20746520636f6d70727565626120736920656c20636f6e747261746f5f8201527f20657374612070726570617261646f20706172612072656369626972206e667460208201527f732e000000000000000000000000000000000000000000000000000000000000604082015250565b5f61368c60428361263e565b91506136978261360c565b606082019050919050565b5f6020820190508181035f8301526136b981613680565b9050919050565b7f456c207573756172696f20646562652074656e65722062616c616e63650000005f82015250565b5f6136f4601d8361263e565b91506136ff826136c0565b602082019050919050565b5f6020820190508181035f830152613721816136e8565b9050919050565b7f536f6c6f207075656465732072656369626972206c6f732070726f66697473205f8201527f6465206573746520636f6e747261746f207369206572657320656c2070726f7060208201527f6965746172696f2064656c206d69736d6f000000000000000000000000000000604082015250565b5f6137a860518361263e565b91506137b382613728565b606082019050919050565b5f6020820190508181035f8301526137d58161379c565b9050919050565b5f6137e6826123f4565b91506137f1836123f4565b9250828203905081811115613809576138086129f4565b5b92915050565b7f4e6f206861792062656e65666963696f732070617261207265636f67657200005f82015250565b5f613843601e8361263e565b915061384e8261380f565b602082019050919050565b5f6020820190508181035f83015261387081613837565b9050919050565b5f61388182612935565b915061388c83612935565b925082820261389a81612935565b91508082146138ac576138ab6129f4565b5b5092915050565b7f4e6f207469656e657320737566696369656e74657320776569732070617261205f8201527f696e6372656d656e746172206c6120706f74656e63696120646520747573206160208201527f726d617300000000000000000000000000000000000000000000000000000000604082015250565b5f61393360448361263e565b915061393e826138b3565b606082019050919050565b5f6020820190508181035f83015261396081613927565b9050919050565b7f456c20696d706f727465206120646520736572206d696c2077656973000000005f82015250565b5f61399b601c8361263e565b91506139a682613967565b602082019050919050565b5f6020820190508181035f8301526139c88161398f565b9050919050565b6139d882612634565b67ffffffffffffffff8111156139f1576139f0613099565b5b6139fb8254612cfb565b613a068282856131da565b5f60209050601f831160018114613a37575f8415613a25578287015190505b613a2f8582613248565b865550613a96565b601f198416613a45866130c6565b5f5b82811015613a6c57848901518255600182019150602085019450602081019050613a47565b86831015613a895784890151613a85601f89168261322c565b8355505b6001600288020188555050505b505050505050565b7f4e487b71000000000000000000000000000000000000000000000000000000005f52603260045260245ffd5b5f81905092915050565b828183375f83830152505050565b5f613aee8385613acb565b9350613afb838584613ad5565b82840190509392505050565b5f613b13828486613ae3565b91508190509392505050565b7f4e487b71000000000000000000000000000000000000000000000000000000005f52601260045260245ffd5b5f613b5682612935565b9150613b6183612935565b925082613b7157613b70613b1f565b5b82820490509291505056fea2646970667358221220f1fc4617331b89a5bb5da9f47020f740ca7dc299b41876a85f75ad3fa78a1d8e64736f6c634300081a0033",
			"opcodes": "PUSH1 0x80 PUSH1 0x40 MSTORE PUSH2 0x2710 PUSH0 SSTORE PUSH0 PUSH1 0x4 SSTORE CALLVALUE DUP1 ISZERO PUSH1 0x17 JUMPI PUSH0 DUP1 REVERT JUMPDEST POP CALLER PUSH1 0x5 PUSH0 PUSH2 0x100 EXP DUP2 SLOAD DUP2 PUSH20 0xFFFFFFFFFFFFFFFFFFFFFFFFFFFFFFFFFFFFFFFF MUL NOT AND SWAP1 DUP4 PUSH20 0xFFFFFFFFFFFFFFFFFFFFFFFFFFFFFFFFFFFFFFFF AND MUL OR SWAP1 SSTORE POP PUSH2 0x3BB2 DUP1 PUSH2 0x65 PUSH0 CODECOPY PUSH0 RETURN INVALID PUSH1 0x80 PUSH1 0x40 MSTORE PUSH1 0x4 CALLDATASIZE LT PUSH2 0xDC JUMPI PUSH0 CALLDATALOAD PUSH1 0xE0 SHR DUP1 PUSH4 0x50FAC4F1 GT PUSH2 0x7E JUMPI DUP1 PUSH4 0xC958E0D6 GT PUSH2 0x58 JUMPI DUP1 PUSH4 0xC958E0D6 EQ PUSH2 0x2A6 JUMPI DUP1 PUSH4 0xD6AD8A94 EQ PUSH2 0x2BC JUMPI DUP1 PUSH4 0xE85E001B EQ PUSH2 0x2D8 JUMPI DUP1 PUSH4 0xEB116756 EQ PUSH2 0x302 JUMPI PUSH2 0xDC JUMP JUMPDEST DUP1 PUSH4 0x50FAC4F1 EQ PUSH2 0x206 JUMPI DUP1 PUSH4 0x6352211E EQ PUSH2 0x22E JUMPI DUP1 PUSH4 0x70A08231 EQ PUSH2 0x26A JUMPI PUSH2 0xDC JUMP JUMPDEST DUP1 PUSH4 0xA0EAC29 GT PUSH2 0xBA JUMPI DUP1 PUSH4 0xA0EAC29 EQ PUSH2 0x174 JUMPI DUP1 PUSH4 0x23B872DD EQ PUSH2 0x190 JUMPI DUP1 PUSH4 0x42842E0E EQ PUSH2 0x1AC JUMPI DUP1 PUSH4 0x4810BC59 EQ PUSH2 0x1C8 JUMPI PUSH2 0xDC JUMP JUMPDEST DUP1 PUSH4 0x1FFC9A7 EQ PUSH2 0xE0 JUMPI DUP1 PUSH4 0x81812FC EQ PUSH2 0x11C JUMPI DUP1 PUSH4 0x95EA7B3 EQ PUSH2 0x158 JUMPI JUMPDEST PUSH0 DUP1 REVERT JUMPDEST CALLVALUE DUP1 ISZERO PUSH2 0xEB JUMPI PUSH0 DUP1 REVERT JUMPDEST POP PUSH2 0x106 PUSH1 0x4 DUP1 CALLDATASIZE SUB DUP2 ADD SWAP1 PUSH2 0x101 SWAP2 SWAP1 PUSH2 0x2396 JUMP JUMPDEST PUSH2 0x332 JUMP JUMPDEST PUSH1 0x40 MLOAD PUSH2 0x113 SWAP2 SWAP1 PUSH2 0x23DB JUMP JUMPDEST PUSH1 0x40 MLOAD DUP1 SWAP2 SUB SWAP1 RETURN JUMPDEST CALLVALUE DUP1 ISZERO PUSH2 0x127 JUMPI PUSH0 DUP1 REVERT JUMPDEST POP PUSH2 0x142 PUSH1 0x4 DUP1 CALLDATASIZE SUB DUP2 ADD SWAP1 PUSH2 0x13D SWAP2 SWAP1 PUSH2 0x2427 JUMP JUMPDEST PUSH2 0x403 JUMP JUMPDEST PUSH1 0x40 MLOAD PUSH2 0x14F SWAP2 SWAP1 PUSH2 0x2491 JUMP JUMPDEST PUSH1 0x40 MLOAD DUP1 SWAP2 SUB SWAP1 RETURN JUMPDEST PUSH2 0x172 PUSH1 0x4 DUP1 CALLDATASIZE SUB DUP2 ADD SWAP1 PUSH2 0x16D SWAP2 SWAP1 PUSH2 0x24D4 JUMP JUMPDEST PUSH2 0x49A JUMP JUMPDEST STOP JUMPDEST PUSH2 0x18E PUSH1 0x4 DUP1 CALLDATASIZE SUB DUP2 ADD SWAP1 PUSH2 0x189 SWAP2 SWAP1 PUSH2 0x2573 JUMP JUMPDEST PUSH2 0x73D JUMP JUMPDEST STOP JUMPDEST PUSH2 0x1AA PUSH1 0x4 DUP1 CALLDATASIZE SUB DUP2 ADD SWAP1 PUSH2 0x1A5 SWAP2 SWAP1 PUSH2 0x25E4 JUMP JUMPDEST PUSH2 0xB18 JUMP JUMPDEST STOP JUMPDEST PUSH2 0x1C6 PUSH1 0x4 DUP1 CALLDATASIZE SUB DUP2 ADD SWAP1 PUSH2 0x1C1 SWAP2 SWAP1 PUSH2 0x25E4 JUMP JUMPDEST PUSH2 0xEFC JUMP JUMPDEST STOP JUMPDEST CALLVALUE DUP1 ISZERO PUSH2 0x1D3 JUMPI PUSH0 DUP1 REVERT JUMPDEST POP PUSH2 0x1EE PUSH1 0x4 DUP1 CALLDATASIZE SUB DUP2 ADD SWAP1 PUSH2 0x1E9 SWAP2 SWAP1 PUSH2 0x2427 JUMP JUMPDEST PUSH2 0x1408 JUMP JUMPDEST PUSH1 0x40 MLOAD PUSH2 0x1FD SWAP4 SWAP3 SWAP2 SWAP1 PUSH2 0x289F JUMP JUMPDEST PUSH1 0x40 MLOAD DUP1 SWAP2 SUB SWAP1 RETURN JUMPDEST CALLVALUE DUP1 ISZERO PUSH2 0x211 JUMPI PUSH0 DUP1 REVERT JUMPDEST POP PUSH2 0x22C PUSH1 0x4 DUP1 CALLDATASIZE SUB DUP2 ADD SWAP1 PUSH2 0x227 SWAP2 SWAP1 PUSH2 0x2427 JUMP JUMPDEST PUSH2 0x1606 JUMP JUMPDEST STOP JUMPDEST CALLVALUE DUP1 ISZERO PUSH2 0x239 JUMPI PUSH0 DUP1 REVERT JUMPDEST POP PUSH2 0x254 PUSH1 0x4 DUP1 CALLDATASIZE SUB DUP2 ADD SWAP1 PUSH2 0x24F SWAP2 SWAP1 PUSH2 0x2427 JUMP JUMPDEST PUSH2 0x18EC JUMP JUMPDEST PUSH1 0x40 MLOAD PUSH2 0x261 SWAP2 SWAP1 PUSH2 0x2491 JUMP JUMPDEST PUSH1 0x40 MLOAD DUP1 SWAP2 SUB SWAP1 RETURN JUMPDEST CALLVALUE DUP1 ISZERO PUSH2 0x275 JUMPI PUSH0 DUP1 REVERT JUMPDEST POP PUSH2 0x290 PUSH1 0x4 DUP1 CALLDATASIZE SUB DUP2 ADD SWAP1 PUSH2 0x28B SWAP2 SWAP1 PUSH2 0x28E2 JUMP JUMPDEST PUSH2 0x19C9 JUMP JUMPDEST PUSH1 0x40 MLOAD PUSH2 0x29D SWAP2 SWAP1 PUSH2 0x291C JUMP JUMPDEST PUSH1 0x40 MLOAD DUP1 SWAP2 SUB SWAP1 RETURN JUMPDEST CALLVALUE DUP1 ISZERO PUSH2 0x2B1 JUMPI PUSH0 DUP1 REVERT JUMPDEST POP PUSH2 0x2BA PUSH2 0x1A7D JUMP JUMPDEST STOP JUMPDEST PUSH2 0x2D6 PUSH1 0x4 DUP1 CALLDATASIZE SUB DUP2 ADD SWAP1 PUSH2 0x2D1 SWAP2 SWAP1 PUSH2 0x296B JUMP JUMPDEST PUSH2 0x1BD9 JUMP JUMPDEST STOP JUMPDEST CALLVALUE DUP1 ISZERO PUSH2 0x2E3 JUMPI PUSH0 DUP1 REVERT JUMPDEST POP PUSH2 0x2EC PUSH2 0x1D9C JUMP JUMPDEST PUSH1 0x40 MLOAD PUSH2 0x2F9 SWAP2 SWAP1 PUSH2 0x291C JUMP JUMPDEST PUSH1 0x40 MLOAD DUP1 SWAP2 SUB SWAP1 RETURN JUMPDEST PUSH2 0x31C PUSH1 0x4 DUP1 CALLDATASIZE SUB DUP2 ADD SWAP1 PUSH2 0x317 SWAP2 SWAP1 PUSH2 0x29A9 JUMP JUMPDEST PUSH2 0x1DA2 JUMP JUMPDEST PUSH1 0x40 MLOAD PUSH2 0x329 SWAP2 SWAP1 PUSH2 0x291C JUMP JUMPDEST PUSH1 0x40 MLOAD DUP1 SWAP2 SUB SWAP1 RETURN JUMPDEST PUSH0 PUSH32 0x73884AB300000000000000000000000000000000000000000000000000000000 PUSH28 0xFFFFFFFFFFFFFFFFFFFFFFFFFFFFFFFFFFFFFFFFFFFFFFFFFFFFFFFF NOT AND DUP3 PUSH28 0xFFFFFFFFFFFFFFFFFFFFFFFFFFFFFFFFFFFFFFFFFFFFFFFFFFFFFFFF NOT AND EQ DUP1 PUSH2 0x3FC JUMPI POP PUSH32 0x1FFC9A700000000000000000000000000000000000000000000000000000000 PUSH28 0xFFFFFFFFFFFFFFFFFFFFFFFFFFFFFFFFFFFFFFFFFFFFFFFFFFFFFFFF NOT AND DUP3 PUSH28 0xFFFFFFFFFFFFFFFFFFFFFFFFFFFFFFFFFFFFFFFFFFFFFFFFFFFFFFFF NOT AND EQ JUMPDEST SWAP1 POP SWAP2 SWAP1 POP JUMP JUMPDEST PUSH0 PUSH2 0x2710 DUP3 GT DUP1 ISZERO PUSH2 0x423 JUMPI POP PUSH1 0x4 SLOAD PUSH2 0x2710 PUSH2 0x420 SWAP2 SWAP1 PUSH2 0x2A21 JUMP JUMPDEST DUP3 LT JUMPDEST PUSH2 0x462 JUMPI PUSH1 0x40 MLOAD PUSH32 0x8C379A000000000000000000000000000000000000000000000000000000000 DUP2 MSTORE PUSH1 0x4 ADD PUSH2 0x459 SWAP1 PUSH2 0x2A9E JUMP JUMPDEST PUSH1 0x40 MLOAD DUP1 SWAP2 SUB SWAP1 REVERT JUMPDEST PUSH1 0x2 PUSH0 DUP4 DUP2 MSTORE PUSH1 0x20 ADD SWAP1 DUP2 MSTORE PUSH1 0x20 ADD PUSH0 KECCAK256 PUSH0 SWAP1 SLOAD SWAP1 PUSH2 0x100 EXP SWAP1 DIV PUSH20 0xFFFFFFFFFFFFFFFFFFFFFFFFFFFFFFFFFFFFFFFF AND SWAP1 POP SWAP2 SWAP1 POP JUMP JUMPDEST PUSH1 0x1 PUSH0 DUP3 DUP2 MSTORE PUSH1 0x20 ADD SWAP1 DUP2 MSTORE PUSH1 0x20 ADD PUSH0 KECCAK256 PUSH1 0x3 ADD PUSH0 SWAP1 SLOAD SWAP1 PUSH2 0x100 EXP SWAP1 DIV PUSH20 0xFFFFFFFFFFFFFFFFFFFFFFFFFFFFFFFFFFFFFFFF AND PUSH20 0xFFFFFFFFFFFFFFFFFFFFFFFFFFFFFFFFFFFFFFFF AND CALLER PUSH20 0xFFFFFFFFFFFFFFFFFFFFFFFFFFFFFFFFFFFFFFFF AND EQ PUSH2 0x53B JUMPI PUSH1 0x40 MLOAD PUSH32 0x8C379A000000000000000000000000000000000000000000000000000000000 DUP2 MSTORE PUSH1 0x4 ADD PUSH2 0x532 SWAP1 PUSH2 0x2B2C JUMP JUMPDEST PUSH1 0x40 MLOAD DUP1 SWAP2 SUB SWAP1 REVERT JUMPDEST PUSH0 PUSH20 0xFFFFFFFFFFFFFFFFFFFFFFFFFFFFFFFFFFFFFFFF AND PUSH1 0x1 PUSH0 DUP4 DUP2 MSTORE PUSH1 0x20 ADD SWAP1 DUP2 MSTORE PUSH1 0x20 ADD PUSH0 KECCAK256 PUSH1 0x3 ADD PUSH0 SWAP1 SLOAD SWAP1 PUSH2 0x100 EXP SWAP1 DIV PUSH20 0xFFFFFFFFFFFFFFFFFFFFFFFFFFFFFFFFFFFFFFFF AND PUSH20 0xFFFFFFFFFFFFFFFFFFFFFFFFFFFFFFFFFFFFFFFF AND SUB PUSH2 0x5DC JUMPI PUSH1 0x40 MLOAD PUSH32 0x8C379A000000000000000000000000000000000000000000000000000000000 DUP2 MSTORE PUSH1 0x4 ADD PUSH2 0x5D3 SWAP1 PUSH2 0x2B94 JUMP JUMPDEST PUSH1 0x40 MLOAD DUP1 SWAP2 SUB SWAP1 REVERT JUMPDEST PUSH0 PUSH2 0x649 PUSH1 0x1 PUSH0 DUP5 DUP2 MSTORE PUSH1 0x20 ADD SWAP1 DUP2 MSTORE PUSH1 0x20 ADD PUSH0 KECCAK256 PUSH1 0x1 ADD PUSH1 0x1 ADD DUP1 SLOAD DUP1 PUSH1 0x20 MUL PUSH1 0x20 ADD PUSH1 0x40 MLOAD SWAP1 DUP2 ADD PUSH1 0x40 MSTORE DUP1 SWAP3 SWAP2 SWAP1 DUP2 DUP2 MSTORE PUSH1 0x20 ADD DUP3 DUP1 SLOAD DUP1 ISZERO PUSH2 0x63F JUMPI PUSH1 0x20 MUL DUP3 ADD SWAP2 SWAP1 PUSH0 MSTORE PUSH1 0x20 PUSH0 KECCAK256 SWAP1 JUMPDEST DUP2 SLOAD DUP2 MSTORE PUSH1 0x20 ADD SWAP1 PUSH1 0x1 ADD SWAP1 DUP1 DUP4 GT PUSH2 0x62B JUMPI JUMPDEST POP POP POP POP POP PUSH2 0x20A0 JUMP JUMPDEST SWAP1 POP DUP1 CALLVALUE LT ISZERO PUSH2 0x68E JUMPI PUSH1 0x40 MLOAD PUSH32 0x8C379A000000000000000000000000000000000000000000000000000000000 DUP2 MSTORE PUSH1 0x4 ADD PUSH2 0x685 SWAP1 PUSH2 0x2C22 JUMP JUMPDEST PUSH1 0x40 MLOAD DUP1 SWAP2 SUB SWAP1 REVERT JUMPDEST DUP3 PUSH1 0x2 PUSH0 DUP5 DUP2 MSTORE PUSH1 0x20 ADD SWAP1 DUP2 MSTORE PUSH1 0x20 ADD PUSH0 KECCAK256 PUSH0 PUSH2 0x100 EXP DUP2 SLOAD DUP2 PUSH20 0xFFFFFFFFFFFFFFFFFFFFFFFFFFFFFFFFFFFFFFFF MUL NOT AND SWAP1 DUP4 PUSH20 0xFFFFFFFFFFFFFFFFFFFFFFFFFFFFFFFFFFFFFFFF AND MUL OR SWAP1 SSTORE POP DUP2 DUP4 PUSH20 0xFFFFFFFFFFFFFFFFFFFFFFFFFFFFFFFFFFFFFFFF AND CALLER PUSH20 0xFFFFFFFFFFFFFFFFFFFFFFFFFFFFFFFFFFFFFFFF AND PUSH32 0x8C5BE1E5EBEC7D5BD14F71427D1E84F3DD0314C0F7B2291E5B200AC8C7C3B925 PUSH1 0x40 MLOAD PUSH1 0x40 MLOAD DUP1 SWAP2 SUB SWAP1 LOG4 POP POP POP JUMP JUMPDEST DUP4 DUP4 DUP4 PUSH0 PUSH20 0xFFFFFFFFFFFFFFFFFFFFFFFFFFFFFFFFFFFFFFFF AND PUSH1 0x1 PUSH0 DUP6 DUP2 MSTORE PUSH1 0x20 ADD SWAP1 DUP2 MSTORE PUSH1 0x20 ADD PUSH0 KECCAK256 PUSH1 0x3 ADD PUSH0 SWAP1 SLOAD SWAP1 PUSH2 0x100 EXP SWAP1 DIV PUSH20 0xFFFFFFFFFFFFFFFFFFFFFFFFFFFFFFFFFFFFFFFF AND PUSH20 0xFFFFFFFFFFFFFFFFFFFFFFFFFFFFFFFFFFFFFFFF AND SUB PUSH2 0x7E1 JUMPI PUSH1 0x40 MLOAD PUSH32 0x8C379A000000000000000000000000000000000000000000000000000000000 DUP2 MSTORE PUSH1 0x4 ADD PUSH2 0x7D8 SWAP1 PUSH2 0x2CB0 JUMP JUMPDEST PUSH1 0x40 MLOAD DUP1 SWAP2 SUB SWAP1 REVERT JUMPDEST PUSH2 0x8CC PUSH1 0x1 PUSH0 DUP6 DUP2 MSTORE PUSH1 0x20 ADD SWAP1 DUP2 MSTORE PUSH1 0x20 ADD PUSH0 KECCAK256 PUSH1 0x1 ADD PUSH0 ADD DUP1 SLOAD DUP1 PUSH1 0x20 MUL PUSH1 0x20 ADD PUSH1 0x40 MLOAD SWAP1 DUP2 ADD PUSH1 0x40 MSTORE DUP1 SWAP3 SWAP2 SWAP1 DUP2 DUP2 MSTORE PUSH1 0x20 ADD PUSH0 SWAP1 JUMPDEST DUP3 DUP3 LT ISZERO PUSH2 0x8C1 JUMPI DUP4 DUP3 SWAP1 PUSH0 MSTORE PUSH1 0x20 PUSH0 KECCAK256 ADD DUP1 SLOAD PUSH2 0x836 SWAP1 PUSH2 0x2CFB JUMP JUMPDEST DUP1 PUSH1 0x1F ADD PUSH1 0x20 DUP1 SWAP2 DIV MUL PUSH1 0x20 ADD PUSH1 0x40 MLOAD SWAP1 DUP2 ADD PUSH1 0x40 MSTORE DUP1 SWAP3 SWAP2 SWAP1 DUP2 DUP2 MSTORE PUSH1 0x20 ADD DUP3 DUP1 SLOAD PUSH2 0x862 SWAP1 PUSH2 0x2CFB JUMP JUMPDEST DUP1 ISZERO PUSH2 0x8AD JUMPI DUP1 PUSH1 0x1F LT PUSH2 0x884 JUMPI PUSH2 0x100 DUP1 DUP4 SLOAD DIV MUL DUP4 MSTORE SWAP2 PUSH1 0x20 ADD SWAP2 PUSH2 0x8AD JUMP JUMPDEST DUP3 ADD SWAP2 SWAP1 PUSH0 MSTORE PUSH1 0x20 PUSH0 KECCAK256 SWAP1 JUMPDEST DUP2 SLOAD DUP2 MSTORE SWAP1 PUSH1 0x1 ADD SWAP1 PUSH1 0x20 ADD DUP1 DUP4 GT PUSH2 0x890 JUMPI DUP3 SWAP1 SUB PUSH1 0x1F AND DUP3 ADD SWAP2 JUMPDEST POP POP POP POP POP DUP2 MSTORE PUSH1 0x20 ADD SWAP1 PUSH1 0x1 ADD SWAP1 PUSH2 0x819 JUMP JUMPDEST POP POP POP POP DUP4 DUP4 PUSH2 0x20EF JUMP JUMPDEST ISZERO PUSH2 0x90C JUMPI PUSH1 0x40 MLOAD PUSH32 0x8C379A000000000000000000000000000000000000000000000000000000000 DUP2 MSTORE PUSH1 0x4 ADD PUSH2 0x903 SWAP1 PUSH2 0x2D9B JUMP JUMPDEST PUSH1 0x40 MLOAD DUP1 SWAP2 SUB SWAP1 REVERT JUMPDEST PUSH0 PUSH1 0x1 PUSH0 DUP10 DUP2 MSTORE PUSH1 0x20 ADD SWAP1 DUP2 MSTORE PUSH1 0x20 ADD PUSH0 KECCAK256 SWAP1 POP CALLER PUSH20 0xFFFFFFFFFFFFFFFFFFFFFFFFFFFFFFFFFFFFFFFF AND DUP2 PUSH1 0x3 ADD PUSH0 SWAP1 SLOAD SWAP1 PUSH2 0x100 EXP SWAP1 DIV PUSH20 0xFFFFFFFFFFFFFFFFFFFFFFFFFFFFFFFFFFFFFFFF AND PUSH20 0xFFFFFFFFFFFFFFFFFFFFFFFFFFFFFFFFFFFFFFFF AND EQ DUP1 PUSH2 0x9D8 JUMPI POP PUSH1 0x2 PUSH0 DUP10 DUP2 MSTORE PUSH1 0x20 ADD SWAP1 DUP2 MSTORE PUSH1 0x20 ADD PUSH0 KECCAK256 PUSH0 SWAP1 SLOAD SWAP1 PUSH2 0x100 EXP SWAP1 DIV PUSH20 0xFFFFFFFFFFFFFFFFFFFFFFFFFFFFFFFFFFFFFFFF AND PUSH20 0xFFFFFFFFFFFFFFFFFFFFFFFFFFFFFFFFFFFFFFFF AND CALLER PUSH20 0xFFFFFFFFFFFFFFFFFFFFFFFFFFFFFFFFFFFFFFFF AND EQ JUMPDEST PUSH2 0xA17 JUMPI PUSH1 0x40 MLOAD PUSH32 0x8C379A000000000000000000000000000000000000000000000000000000000 DUP2 MSTORE PUSH1 0x4 ADD PUSH2 0xA0E SWAP1 PUSH2 0x2E29 JUMP JUMPDEST PUSH1 0x40 MLOAD DUP1 SWAP2 SUB SWAP1 REVERT JUMPDEST PUSH0 DUP2 PUSH1 0x1 ADD PUSH0 ADD DUP1 SLOAD SWAP1 POP SWAP1 POP PUSH0 DUP2 PUSH1 0x2 PUSH2 0xA32 SWAP2 SWAP1 PUSH2 0x2F76 JUMP JUMPDEST DUP8 PUSH2 0xA3D SWAP2 SWAP1 PUSH2 0x2FC0 JUMP JUMPDEST SWAP1 POP DUP1 CALLVALUE LT ISZERO PUSH2 0xA82 JUMPI PUSH1 0x40 MLOAD PUSH32 0x8C379A000000000000000000000000000000000000000000000000000000000 DUP2 MSTORE PUSH1 0x4 ADD PUSH2 0xA79 SWAP1 PUSH2 0x3071 JUMP JUMPDEST PUSH1 0x40 MLOAD DUP1 SWAP2 SUB SWAP1 REVERT JUMPDEST PUSH1 0x1 PUSH0 DUP12 DUP2 MSTORE PUSH1 0x20 ADD SWAP1 DUP2 MSTORE PUSH1 0x20 ADD PUSH0 KECCAK256 PUSH1 0x1 ADD PUSH0 ADD DUP10 DUP10 SWAP1 SWAP2 DUP1 PUSH1 0x1 DUP2 SLOAD ADD DUP1 DUP3 SSTORE DUP1 SWAP2 POP POP PUSH1 0x1 SWAP1 SUB SWAP1 PUSH0 MSTORE PUSH1 0x20 PUSH0 KECCAK256 ADD PUSH0 SWAP1 SWAP2 SWAP3 SWAP1 SWAP2 SWAP3 SWAP1 SWAP2 SWAP3 SWAP1 SWAP2 SWAP3 POP SWAP2 DUP3 PUSH2 0xAD0 SWAP3 SWAP2 SWAP1 PUSH2 0x3263 JUMP JUMPDEST POP PUSH1 0x1 PUSH0 DUP12 DUP2 MSTORE PUSH1 0x20 ADD SWAP1 DUP2 MSTORE PUSH1 0x20 ADD PUSH0 KECCAK256 PUSH1 0x1 ADD PUSH1 0x1 ADD DUP8 SWAP1 DUP1 PUSH1 0x1 DUP2 SLOAD ADD DUP1 DUP3 SSTORE DUP1 SWAP2 POP POP PUSH1 0x1 SWAP1 SUB SWAP1 PUSH0 MSTORE PUSH1 0x20 PUSH0 KECCAK256 ADD PUSH0 SWAP1 SWAP2 SWAP1 SWAP2 SWAP1 SWAP2 POP SSTORE POP POP POP POP POP POP POP POP POP POP JUMP JUMPDEST PUSH1 0x1 PUSH0 DUP3 DUP2 MSTORE PUSH1 0x20 ADD SWAP1 DUP2 MSTORE PUSH1 0x20 ADD PUSH0 KECCAK256 PUSH1 0x3 ADD PUSH0 SWAP1 SLOAD SWAP1 PUSH2 0x100 EXP SWAP1 DIV PUSH20 0xFFFFFFFFFFFFFFFFFFFFFFFFFFFFFFFFFFFFFFFF AND PUSH20 0xFFFFFFFFFFFFFFFFFFFFFFFFFFFFFFFFFFFFFFFF AND CALLER PUSH20 0xFFFFFFFFFFFFFFFFFFFFFFFFFFFFFFFFFFFFFFFF AND EQ DUP1 PUSH2 0xBE0 JUMPI POP PUSH1 0x2 PUSH0 DUP3 DUP2 MSTORE PUSH1 0x20 ADD SWAP1 DUP2 MSTORE PUSH1 0x20 ADD PUSH0 KECCAK256 PUSH0 SWAP1 SLOAD SWAP1 PUSH2 0x100 EXP SWAP1 DIV PUSH20 0xFFFFFFFFFFFFFFFFFFFFFFFFFFFFFFFFFFFFFFFF AND PUSH20 0xFFFFFFFFFFFFFFFFFFFFFFFFFFFFFFFFFFFFFFFF AND CALLER PUSH20 0xFFFFFFFFFFFFFFFFFFFFFFFFFFFFFFFFFFFFFFFF AND EQ JUMPDEST PUSH2 0xC1F JUMPI PUSH1 0x40 MLOAD PUSH32 0x8C379A000000000000000000000000000000000000000000000000000000000 DUP2 MSTORE PUSH1 0x4 ADD PUSH2 0xC16 SWAP1 PUSH2 0x33C6 JUMP JUMPDEST PUSH1 0x40 MLOAD DUP1 SWAP2 SUB SWAP1 REVERT JUMPDEST DUP3 PUSH20 0xFFFFFFFFFFFFFFFFFFFFFFFFFFFFFFFFFFFFFFFF AND PUSH1 0x1 PUSH0 DUP4 DUP2 MSTORE PUSH1 0x20 ADD SWAP1 DUP2 MSTORE PUSH1 0x20 ADD PUSH0 KECCAK256 PUSH1 0x3 ADD PUSH0 SWAP1 SLOAD SWAP1 PUSH2 0x100 EXP SWAP1 DIV PUSH20 0xFFFFFFFFFFFFFFFFFFFFFFFFFFFFFFFFFFFFFFFF AND PUSH20 0xFFFFFFFFFFFFFFFFFFFFFFFFFFFFFFFFFFFFFFFF AND EQ PUSH2 0xCC0 JUMPI PUSH1 0x40 MLOAD PUSH32 0x8C379A000000000000000000000000000000000000000000000000000000000 DUP2 MSTORE PUSH1 0x4 ADD PUSH2 0xCB7 SWAP1 PUSH2 0x34C6 JUMP JUMPDEST PUSH1 0x40 MLOAD DUP1 SWAP2 SUB SWAP1 REVERT JUMPDEST PUSH0 PUSH2 0xD2D PUSH1 0x1 PUSH0 DUP5 DUP2 MSTORE PUSH1 0x20 ADD SWAP1 DUP2 MSTORE PUSH1 0x20 ADD PUSH0 KECCAK256 PUSH1 0x1 ADD PUSH1 0x1 ADD DUP1 SLOAD DUP1 PUSH1 0x20 MUL PUSH1 0x20 ADD PUSH1 0x40 MLOAD SWAP1 DUP2 ADD PUSH1 0x40 MSTORE DUP1 SWAP3 SWAP2 SWAP1 DUP2 DUP2 MSTORE PUSH1 0x20 ADD DUP3 DUP1 SLOAD DUP1 ISZERO PUSH2 0xD23 JUMPI PUSH1 0x20 MUL DUP3 ADD SWAP2 SWAP1 PUSH0 MSTORE PUSH1 0x20 PUSH0 KECCAK256 SWAP1 JUMPDEST DUP2 SLOAD DUP2 MSTORE PUSH1 0x20 ADD SWAP1 PUSH1 0x1 ADD SWAP1 DUP1 DUP4 GT PUSH2 0xD0F JUMPI JUMPDEST POP POP POP POP POP PUSH2 0x20A0 JUMP JUMPDEST SWAP1 POP DUP1 CALLVALUE LT ISZERO PUSH2 0xD72 JUMPI PUSH1 0x40 MLOAD PUSH32 0x8C379A000000000000000000000000000000000000000000000000000000000 DUP2 MSTORE PUSH1 0x4 ADD PUSH2 0xD69 SWAP1 PUSH2 0x2C22 JUMP JUMPDEST PUSH1 0x40 MLOAD DUP1 SWAP2 SUB SWAP1 REVERT JUMPDEST DUP3 PUSH1 0x1 PUSH0 DUP5 DUP2 MSTORE PUSH1 0x20 ADD SWAP1 DUP2 MSTORE PUSH1 0x20 ADD PUSH0 KECCAK256 PUSH1 0x3 ADD PUSH0 PUSH2 0x100 EXP DUP2 SLOAD DUP2 PUSH20 0xFFFFFFFFFFFFFFFFFFFFFFFFFFFFFFFFFFFFFFFF MUL NOT AND SWAP1 DUP4 PUSH20 0xFFFFFFFFFFFFFFFFFFFFFFFFFFFFFFFFFFFFFFFF AND MUL OR SWAP1 SSTORE POP PUSH1 0x3 PUSH0 DUP6 PUSH20 0xFFFFFFFFFFFFFFFFFFFFFFFFFFFFFFFFFFFFFFFF AND PUSH20 0xFFFFFFFFFFFFFFFFFFFFFFFFFFFFFFFFFFFFFFFF AND DUP2 MSTORE PUSH1 0x20 ADD SWAP1 DUP2 MSTORE PUSH1 0x20 ADD PUSH0 KECCAK256 PUSH0 DUP2 SLOAD DUP1 SWAP3 SWAP2 SWAP1 PUSH2 0xE11 SWAP1 PUSH2 0x34E4 JUMP JUMPDEST SWAP2 SWAP1 POP SSTORE POP PUSH1 0x3 PUSH0 DUP5 PUSH20 0xFFFFFFFFFFFFFFFFFFFFFFFFFFFFFFFFFFFFFFFF AND PUSH20 0xFFFFFFFFFFFFFFFFFFFFFFFFFFFFFFFFFFFFFFFF AND DUP2 MSTORE PUSH1 0x20 ADD SWAP1 DUP2 MSTORE PUSH1 0x20 ADD PUSH0 KECCAK256 PUSH0 DUP2 SLOAD DUP1 SWAP3 SWAP2 SWAP1 PUSH2 0xE63 SWAP1 PUSH2 0x350B JUMP JUMPDEST SWAP2 SWAP1 POP SSTORE POP PUSH1 0x2 PUSH0 DUP4 DUP2 MSTORE PUSH1 0x20 ADD SWAP1 DUP2 MSTORE PUSH1 0x20 ADD PUSH0 KECCAK256 PUSH0 PUSH2 0x100 EXP DUP2 SLOAD SWAP1 PUSH20 0xFFFFFFFFFFFFFFFFFFFFFFFFFFFFFFFFFFFFFFFF MUL NOT AND SWAP1 SSTORE DUP2 DUP4 PUSH20 0xFFFFFFFFFFFFFFFFFFFFFFFFFFFFFFFFFFFFFFFF AND DUP6 PUSH20 0xFFFFFFFFFFFFFFFFFFFFFFFFFFFFFFFFFFFFFFFF AND PUSH32 0xDDF252AD1BE2C89B69C2B068FC378DAA952BA7F163C4A11628F55A4DF523B3EF PUSH1 0x40 MLOAD PUSH1 0x40 MLOAD DUP1 SWAP2 SUB SWAP1 LOG4 POP POP POP POP JUMP JUMPDEST PUSH1 0x1 PUSH0 DUP3 DUP2 MSTORE PUSH1 0x20 ADD SWAP1 DUP2 MSTORE PUSH1 0x20 ADD PUSH0 KECCAK256 PUSH1 0x3 ADD PUSH0 SWAP1 SLOAD SWAP1 PUSH2 0x100 EXP SWAP1 DIV PUSH20 0xFFFFFFFFFFFFFFFFFFFFFFFFFFFFFFFFFFFFFFFF AND PUSH20 0xFFFFFFFFFFFFFFFFFFFFFFFFFFFFFFFFFFFFFFFF AND CALLER PUSH20 0xFFFFFFFFFFFFFFFFFFFFFFFFFFFFFFFFFFFFFFFF AND EQ DUP1 PUSH2 0xFC4 JUMPI POP PUSH1 0x2 PUSH0 DUP3 DUP2 MSTORE PUSH1 0x20 ADD SWAP1 DUP2 MSTORE PUSH1 0x20 ADD PUSH0 KECCAK256 PUSH0 SWAP1 SLOAD SWAP1 PUSH2 0x100 EXP SWAP1 DIV PUSH20 0xFFFFFFFFFFFFFFFFFFFFFFFFFFFFFFFFFFFFFFFF AND PUSH20 0xFFFFFFFFFFFFFFFFFFFFFFFFFFFFFFFFFFFFFFFF AND CALLER PUSH20 0xFFFFFFFFFFFFFFFFFFFFFFFFFFFFFFFFFFFFFFFF AND EQ JUMPDEST PUSH2 0x1003 JUMPI PUSH1 0x40 MLOAD PUSH32 0x8C379A000000000000000000000000000000000000000000000000000000000 DUP2 MSTORE PUSH1 0x4 ADD PUSH2 0xFFA SWAP1 PUSH2 0x33C6 JUMP JUMPDEST PUSH1 0x40 MLOAD DUP1 SWAP2 SUB SWAP1 REVERT JUMPDEST DUP3 PUSH20 0xFFFFFFFFFFFFFFFFFFFFFFFFFFFFFFFFFFFFFFFF AND PUSH1 0x1 PUSH0 DUP4 DUP2 MSTORE PUSH1 0x20 ADD SWAP1 DUP2 MSTORE PUSH1 0x20 ADD PUSH0 KECCAK256 PUSH1 0x3 ADD PUSH0 SWAP1 SLOAD SWAP1 PUSH2 0x100 EXP SWAP1 DIV PUSH20 0xFFFFFFFFFFFFFFFFFFFFFFFFFFFFFFFFFFFFFFFF AND PUSH20 0xFFFFFFFFFFFFFFFFFFFFFFFFFFFFFFFFFFFFFFFF AND EQ PUSH2 0x10A4 JUMPI PUSH1 0x40 MLOAD PUSH32 0x8C379A000000000000000000000000000000000000000000000000000000000 DUP2 MSTORE PUSH1 0x4 ADD PUSH2 0x109B SWAP1 PUSH2 0x34C6 JUMP JUMPDEST PUSH1 0x40 MLOAD DUP1 SWAP2 SUB SWAP1 REVERT JUMPDEST PUSH0 PUSH2 0x1111 PUSH1 0x1 PUSH0 DUP5 DUP2 MSTORE PUSH1 0x20 ADD SWAP1 DUP2 MSTORE PUSH1 0x20 ADD PUSH0 KECCAK256 PUSH1 0x1 ADD PUSH1 0x1 ADD DUP1 SLOAD DUP1 PUSH1 0x20 MUL PUSH1 0x20 ADD PUSH1 0x40 MLOAD SWAP1 DUP2 ADD PUSH1 0x40 MSTORE DUP1 SWAP3 SWAP2 SWAP1 DUP2 DUP2 MSTORE PUSH1 0x20 ADD DUP3 DUP1 SLOAD DUP1 ISZERO PUSH2 0x1107 JUMPI PUSH1 0x20 MUL DUP3 ADD SWAP2 SWAP1 PUSH0 MSTORE PUSH1 0x20 PUSH0 KECCAK256 SWAP1 JUMPDEST DUP2 SLOAD DUP2 MSTORE PUSH1 0x20 ADD SWAP1 PUSH1 0x1 ADD SWAP1 DUP1 DUP4 GT PUSH2 0x10F3 JUMPI JUMPDEST POP POP POP POP POP PUSH2 0x20A0 JUMP JUMPDEST SWAP1 POP DUP1 CALLVALUE LT ISZERO PUSH2 0x1156 JUMPI PUSH1 0x40 MLOAD PUSH32 0x8C379A000000000000000000000000000000000000000000000000000000000 DUP2 MSTORE PUSH1 0x4 ADD PUSH2 0x114D SWAP1 PUSH2 0x2C22 JUMP JUMPDEST PUSH1 0x40 MLOAD DUP1 SWAP2 SUB SWAP1 REVERT JUMPDEST PUSH0 DUP4 PUSH20 0xFFFFFFFFFFFFFFFFFFFFFFFFFFFFFFFFFFFFFFFF AND EXTCODESIZE GT ISZERO PUSH2 0x127E JUMPI PUSH0 DUP4 PUSH20 0xFFFFFFFFFFFFFFFFFFFFFFFFFFFFFFFFFFFFFFFF AND PUSH4 0x150B7A02 CALLER DUP8 DUP7 PUSH1 0x40 MLOAD DUP5 PUSH4 0xFFFFFFFF AND PUSH1 0xE0 SHL DUP2 MSTORE PUSH1 0x4 ADD PUSH2 0x11B3 SWAP4 SWAP3 SWAP2 SWAP1 PUSH2 0x3585 JUMP JUMPDEST PUSH1 0x20 PUSH1 0x40 MLOAD DUP1 DUP4 SUB DUP2 PUSH0 DUP8 GAS CALL ISZERO DUP1 ISZERO PUSH2 0x11CF JUMPI RETURNDATASIZE PUSH0 DUP1 RETURNDATACOPY RETURNDATASIZE PUSH0 REVERT JUMPDEST POP POP POP POP PUSH1 0x40 MLOAD RETURNDATASIZE PUSH1 0x1F NOT PUSH1 0x1F DUP3 ADD AND DUP3 ADD DUP1 PUSH1 0x40 MSTORE POP DUP2 ADD SWAP1 PUSH2 0x11F3 SWAP2 SWAP1 PUSH2 0x35E1 JUMP JUMPDEST SWAP1 POP PUSH4 0x150B7A02 PUSH1 0xE0 SHL PUSH28 0xFFFFFFFFFFFFFFFFFFFFFFFFFFFFFFFFFFFFFFFFFFFFFFFFFFFFFFFF NOT AND DUP2 PUSH28 0xFFFFFFFFFFFFFFFFFFFFFFFFFFFFFFFFFFFFFFFFFFFFFFFFFFFFFFFF NOT AND EQ PUSH2 0x127C JUMPI PUSH1 0x40 MLOAD PUSH32 0x8C379A000000000000000000000000000000000000000000000000000000000 DUP2 MSTORE PUSH1 0x4 ADD PUSH2 0x1273 SWAP1 PUSH2 0x36A2 JUMP JUMPDEST PUSH1 0x40 MLOAD DUP1 SWAP2 SUB SWAP1 REVERT JUMPDEST POP JUMPDEST DUP3 PUSH1 0x1 PUSH0 DUP5 DUP2 MSTORE PUSH1 0x20 ADD SWAP1 DUP2 MSTORE PUSH1 0x20 ADD PUSH0 KECCAK256 PUSH1 0x3 ADD PUSH0 PUSH2 0x100 EXP DUP2 SLOAD DUP2 PUSH20 0xFFFFFFFFFFFFFFFFFFFFFFFFFFFFFFFFFFFFFFFF MUL NOT AND SWAP1 DUP4 PUSH20 0xFFFFFFFFFFFFFFFFFFFFFFFFFFFFFFFFFFFFFFFF AND MUL OR SWAP1 SSTORE POP PUSH1 0x3 PUSH0 DUP6 PUSH20 0xFFFFFFFFFFFFFFFFFFFFFFFFFFFFFFFFFFFFFFFF AND PUSH20 0xFFFFFFFFFFFFFFFFFFFFFFFFFFFFFFFFFFFFFFFF AND DUP2 MSTORE PUSH1 0x20 ADD SWAP1 DUP2 MSTORE PUSH1 0x20 ADD PUSH0 KECCAK256 PUSH0 DUP2 SLOAD DUP1 SWAP3 SWAP2 SWAP1 PUSH2 0x131D SWAP1 PUSH2 0x34E4 JUMP JUMPDEST SWAP2 SWAP1 POP SSTORE POP PUSH1 0x3 PUSH0 DUP5 PUSH20 0xFFFFFFFFFFFFFFFFFFFFFFFFFFFFFFFFFFFFFFFF AND PUSH20 0xFFFFFFFFFFFFFFFFFFFFFFFFFFFFFFFFFFFFFFFF AND DUP2 MSTORE PUSH1 0x20 ADD SWAP1 DUP2 MSTORE PUSH1 0x20 ADD PUSH0 KECCAK256 PUSH0 DUP2 SLOAD DUP1 SWAP3 SWAP2 SWAP1 PUSH2 0x136F SWAP1 PUSH2 0x350B JUMP JUMPDEST SWAP2 SWAP1 POP SSTORE POP PUSH1 0x2 PUSH0 DUP4 DUP2 MSTORE PUSH1 0x20 ADD SWAP1 DUP2 MSTORE PUSH1 0x20 ADD PUSH0 KECCAK256 PUSH0 PUSH2 0x100 EXP DUP2 SLOAD SWAP1 PUSH20 0xFFFFFFFFFFFFFFFFFFFFFFFFFFFFFFFFFFFFFFFF MUL NOT AND SWAP1 SSTORE DUP2 DUP4 PUSH20 0xFFFFFFFFFFFFFFFFFFFFFFFFFFFFFFFFFFFFFFFF AND DUP6 PUSH20 0xFFFFFFFFFFFFFFFFFFFFFFFFFFFFFFFFFFFFFFFF AND PUSH32 0xDDF252AD1BE2C89B69C2B068FC378DAA952BA7F163C4A11628F55A4DF523B3EF PUSH1 0x40 MLOAD PUSH1 0x40 MLOAD DUP1 SWAP2 SUB SWAP1 LOG4 POP POP POP POP JUMP JUMPDEST PUSH1 0x1 PUSH1 0x20 MSTORE DUP1 PUSH0 MSTORE PUSH1 0x40 PUSH0 KECCAK256 PUSH0 SWAP2 POP SWAP1 POP DUP1 PUSH0 ADD DUP1 SLOAD PUSH2 0x1427 SWAP1 PUSH2 0x2CFB JUMP JUMPDEST DUP1 PUSH1 0x1F ADD PUSH1 0x20 DUP1 SWAP2 DIV MUL PUSH1 0x20 ADD PUSH1 0x40 MLOAD SWAP1 DUP2 ADD PUSH1 0x40 MSTORE DUP1 SWAP3 SWAP2 SWAP1 DUP2 DUP2 MSTORE PUSH1 0x20 ADD DUP3 DUP1 SLOAD PUSH2 0x1453 SWAP1 PUSH2 0x2CFB JUMP JUMPDEST DUP1 ISZERO PUSH2 0x149E JUMPI DUP1 PUSH1 0x1F LT PUSH2 0x1475 JUMPI PUSH2 0x100 DUP1 DUP4 SLOAD DIV MUL DUP4 MSTORE SWAP2 PUSH1 0x20 ADD SWAP2 PUSH2 0x149E JUMP JUMPDEST DUP3 ADD SWAP2 SWAP1 PUSH0 MSTORE PUSH1 0x20 PUSH0 KECCAK256 SWAP1 JUMPDEST DUP2 SLOAD DUP2 MSTORE SWAP1 PUSH1 0x1 ADD SWAP1 PUSH1 0x20 ADD DUP1 DUP4 GT PUSH2 0x1481 JUMPI DUP3 SWAP1 SUB PUSH1 0x1F AND DUP3 ADD SWAP2 JUMPDEST POP POP POP POP POP SWAP1 DUP1 PUSH1 0x1 ADD PUSH1 0x40 MLOAD DUP1 PUSH1 0x40 ADD PUSH1 0x40 MSTORE SWAP1 DUP2 PUSH0 DUP3 ADD DUP1 SLOAD DUP1 PUSH1 0x20 MUL PUSH1 0x20 ADD PUSH1 0x40 MLOAD SWAP1 DUP2 ADD PUSH1 0x40 MSTORE DUP1 SWAP3 SWAP2 SWAP1 DUP2 DUP2 MSTORE PUSH1 0x20 ADD PUSH0 SWAP1 JUMPDEST DUP3 DUP3 LT ISZERO PUSH2 0x157E JUMPI DUP4 DUP3 SWAP1 PUSH0 MSTORE PUSH1 0x20 PUSH0 KECCAK256 ADD DUP1 SLOAD PUSH2 0x14F3 SWAP1 PUSH2 0x2CFB JUMP JUMPDEST DUP1 PUSH1 0x1F ADD PUSH1 0x20 DUP1 SWAP2 DIV MUL PUSH1 0x20 ADD PUSH1 0x40 MLOAD SWAP1 DUP2 ADD PUSH1 0x40 MSTORE DUP1 SWAP3 SWAP2 SWAP1 DUP2 DUP2 MSTORE PUSH1 0x20 ADD DUP3 DUP1 SLOAD PUSH2 0x151F SWAP1 PUSH2 0x2CFB JUMP JUMPDEST DUP1 ISZERO PUSH2 0x156A JUMPI DUP1 PUSH1 0x1F LT PUSH2 0x1541 JUMPI PUSH2 0x100 DUP1 DUP4 SLOAD DIV MUL DUP4 MSTORE SWAP2 PUSH1 0x20 ADD SWAP2 PUSH2 0x156A JUMP JUMPDEST DUP3 ADD SWAP2 SWAP1 PUSH0 MSTORE PUSH1 0x20 PUSH0 KECCAK256 SWAP1 JUMPDEST DUP2 SLOAD DUP2 MSTORE SWAP1 PUSH1 0x1 ADD SWAP1 PUSH1 0x20 ADD DUP1 DUP4 GT PUSH2 0x154D JUMPI DUP3 SWAP1 SUB PUSH1 0x1F AND DUP3 ADD SWAP2 JUMPDEST POP POP POP POP POP DUP2 MSTORE PUSH1 0x20 ADD SWAP1 PUSH1 0x1 ADD SWAP1 PUSH2 0x14D6 JUMP JUMPDEST POP POP POP POP DUP2 MSTORE PUSH1 0x20 ADD PUSH1 0x1 DUP3 ADD DUP1 SLOAD DUP1 PUSH1 0x20 MUL PUSH1 0x20 ADD PUSH1 0x40 MLOAD SWAP1 DUP2 ADD PUSH1 0x40 MSTORE DUP1 SWAP3 SWAP2 SWAP1 DUP2 DUP2 MSTORE PUSH1 0x20 ADD DUP3 DUP1 SLOAD DUP1 ISZERO PUSH2 0x15D3 JUMPI PUSH1 0x20 MUL DUP3 ADD SWAP2 SWAP1 PUSH0 MSTORE PUSH1 0x20 PUSH0 KECCAK256 SWAP1 JUMPDEST DUP2 SLOAD DUP2 MSTORE PUSH1 0x20 ADD SWAP1 PUSH1 0x1 ADD SWAP1 DUP1 DUP4 GT PUSH2 0x15BF JUMPI JUMPDEST POP POP POP POP POP DUP2 MSTORE POP POP SWAP1 DUP1 PUSH1 0x3 ADD PUSH0 SWAP1 SLOAD SWAP1 PUSH2 0x100 EXP SWAP1 DIV PUSH20 0xFFFFFFFFFFFFFFFFFFFFFFFFFFFFFFFFFFFFFFFF AND SWAP1 POP DUP4 JUMP JUMPDEST CALLER PUSH20 0xFFFFFFFFFFFFFFFFFFFFFFFFFFFFFFFFFFFFFFFF AND PUSH1 0x1 PUSH0 DUP4 DUP2 MSTORE PUSH1 0x20 ADD SWAP1 DUP2 MSTORE PUSH1 0x20 ADD PUSH0 KECCAK256 PUSH1 0x3 ADD PUSH0 SWAP1 SLOAD SWAP1 PUSH2 0x100 EXP SWAP1 DIV PUSH20 0xFFFFFFFFFFFFFFFFFFFFFFFFFFFFFFFFFFFFFFFF AND PUSH20 0xFFFFFFFFFFFFFFFFFFFFFFFFFFFFFFFFFFFFFFFF AND EQ DUP1 PUSH2 0x16CE JUMPI POP PUSH1 0x2 PUSH0 DUP3 DUP2 MSTORE PUSH1 0x20 ADD SWAP1 DUP2 MSTORE PUSH1 0x20 ADD PUSH0 KECCAK256 PUSH0 SWAP1 SLOAD SWAP1 PUSH2 0x100 EXP SWAP1 DIV PUSH20 0xFFFFFFFFFFFFFFFFFFFFFFFFFFFFFFFFFFFFFFFF AND PUSH20 0xFFFFFFFFFFFFFFFFFFFFFFFFFFFFFFFFFFFFFFFF AND CALLER PUSH20 0xFFFFFFFFFFFFFFFFFFFFFFFFFFFFFFFFFFFFFFFF AND EQ JUMPDEST PUSH2 0x170D JUMPI PUSH1 0x40 MLOAD PUSH32 0x8C379A000000000000000000000000000000000000000000000000000000000 DUP2 MSTORE PUSH1 0x4 ADD PUSH2 0x1704 SWAP1 PUSH2 0x2E29 JUMP JUMPDEST PUSH1 0x40 MLOAD DUP1 SWAP2 SUB SWAP1 REVERT JUMPDEST PUSH1 0x1 PUSH0 DUP3 DUP2 MSTORE PUSH1 0x20 ADD SWAP1 DUP2 MSTORE PUSH1 0x20 ADD PUSH0 KECCAK256 PUSH0 DUP1 DUP3 ADD PUSH0 PUSH2 0x172D SWAP2 SWAP1 PUSH2 0x21E0 JUMP JUMPDEST PUSH1 0x1 DUP3 ADD PUSH0 DUP1 DUP3 ADD PUSH0 PUSH2 0x1740 SWAP2 SWAP1 PUSH2 0x221D JUMP JUMPDEST PUSH1 0x1 DUP3 ADD PUSH0 PUSH2 0x174F SWAP2 SWAP1 PUSH2 0x223B JUMP JUMPDEST POP POP PUSH1 0x3 DUP3 ADD PUSH0 PUSH2 0x100 EXP DUP2 SLOAD SWAP1 PUSH20 0xFFFFFFFFFFFFFFFFFFFFFFFFFFFFFFFFFFFFFFFF MUL NOT AND SWAP1 SSTORE POP POP PUSH1 0x4 PUSH0 DUP2 SLOAD DUP1 SWAP3 SWAP2 SWAP1 PUSH2 0x178B SWAP1 PUSH2 0x34E4 JUMP JUMPDEST SWAP2 SWAP1 POP SSTORE POP PUSH1 0x3 PUSH0 PUSH1 0x1 PUSH0 DUP5 DUP2 MSTORE PUSH1 0x20 ADD SWAP1 DUP2 MSTORE PUSH1 0x20 ADD PUSH0 KECCAK256 PUSH1 0x3 ADD PUSH0 SWAP1 SLOAD SWAP1 PUSH2 0x100 EXP SWAP1 DIV PUSH20 0xFFFFFFFFFFFFFFFFFFFFFFFFFFFFFFFFFFFFFFFF AND PUSH20 0xFFFFFFFFFFFFFFFFFFFFFFFFFFFFFFFFFFFFFFFF AND PUSH20 0xFFFFFFFFFFFFFFFFFFFFFFFFFFFFFFFFFFFFFFFF AND DUP2 MSTORE PUSH1 0x20 ADD SWAP1 DUP2 MSTORE PUSH1 0x20 ADD PUSH0 KECCAK256 PUSH0 DUP2 SLOAD DUP1 SWAP3 SWAP2 SWAP1 PUSH2 0x1810 SWAP1 PUSH2 0x34E4 JUMP JUMPDEST SWAP2 SWAP1 POP SSTORE POP PUSH1 0x2 PUSH0 DUP3 DUP2 MSTORE PUSH1 0x20 ADD SWAP1 DUP2 MSTORE PUSH1 0x20 ADD PUSH0 KECCAK256 PUSH0 PUSH2 0x100 EXP DUP2 SLOAD SWAP1 PUSH20 0xFFFFFFFFFFFFFFFFFFFFFFFFFFFFFFFFFFFFFFFF MUL NOT AND SWAP1 SSTORE CALLER PUSH20 0xFFFFFFFFFFFFFFFFFFFFFFFFFFFFFFFFFFFFFFFF AND PUSH2 0x8FC PUSH2 0x3E8 SWAP1 DUP2 ISZERO MUL SWAP1 PUSH1 0x40 MLOAD PUSH0 PUSH1 0x40 MLOAD DUP1 DUP4 SUB DUP2 DUP6 DUP9 DUP9 CALL SWAP4 POP POP POP POP ISZERO DUP1 ISZERO PUSH2 0x188D JUMPI RETURNDATASIZE PUSH0 DUP1 RETURNDATACOPY RETURNDATASIZE PUSH0 REVERT JUMPDEST POP DUP1 PUSH0 PUSH20 0xFFFFFFFFFFFFFFFFFFFFFFFFFFFFFFFFFFFFFFFF AND CALLER PUSH20 0xFFFFFFFFFFFFFFFFFFFFFFFFFFFFFFFFFFFFFFFF AND PUSH32 0xDDF252AD1BE2C89B69C2B068FC378DAA952BA7F163C4A11628F55A4DF523B3EF PUSH1 0x40 MLOAD PUSH1 0x40 MLOAD DUP1 SWAP2 SUB SWAP1 LOG4 POP JUMP JUMPDEST PUSH0 DUP1 PUSH20 0xFFFFFFFFFFFFFFFFFFFFFFFFFFFFFFFFFFFFFFFF AND PUSH1 0x1 PUSH0 DUP5 DUP2 MSTORE PUSH1 0x20 ADD SWAP1 DUP2 MSTORE PUSH1 0x20 ADD PUSH0 KECCAK256 PUSH1 0x3 ADD PUSH0 SWAP1 SLOAD SWAP1 PUSH2 0x100 EXP SWAP1 DIV PUSH20 0xFFFFFFFFFFFFFFFFFFFFFFFFFFFFFFFFFFFFFFFF AND PUSH20 0xFFFFFFFFFFFFFFFFFFFFFFFFFFFFFFFFFFFFFFFF AND SUB PUSH2 0x198E JUMPI PUSH1 0x40 MLOAD PUSH32 0x8C379A000000000000000000000000000000000000000000000000000000000 DUP2 MSTORE PUSH1 0x4 ADD PUSH2 0x1985 SWAP1 PUSH2 0x2B94 JUMP JUMPDEST PUSH1 0x40 MLOAD DUP1 SWAP2 SUB SWAP1 REVERT JUMPDEST PUSH1 0x1 PUSH0 DUP4 DUP2 MSTORE PUSH1 0x20 ADD SWAP1 DUP2 MSTORE PUSH1 0x20 ADD PUSH0 KECCAK256 PUSH1 0x3 ADD PUSH0 SWAP1 SLOAD SWAP1 PUSH2 0x100 EXP SWAP1 DIV PUSH20 0xFFFFFFFFFFFFFFFFFFFFFFFFFFFFFFFFFFFFFFFF AND SWAP1 POP SWAP2 SWAP1 POP JUMP JUMPDEST PUSH0 DUP1 PUSH20 0xFFFFFFFFFFFFFFFFFFFFFFFFFFFFFFFFFFFFFFFF AND DUP3 PUSH20 0xFFFFFFFFFFFFFFFFFFFFFFFFFFFFFFFFFFFFFFFF AND SUB PUSH2 0x1A38 JUMPI PUSH1 0x40 MLOAD PUSH32 0x8C379A000000000000000000000000000000000000000000000000000000000 DUP2 MSTORE PUSH1 0x4 ADD PUSH2 0x1A2F SWAP1 PUSH2 0x370A JUMP JUMPDEST PUSH1 0x40 MLOAD DUP1 SWAP2 SUB SWAP1 REVERT JUMPDEST PUSH1 0x3 PUSH0 DUP4 PUSH20 0xFFFFFFFFFFFFFFFFFFFFFFFFFFFFFFFFFFFFFFFF AND PUSH20 0xFFFFFFFFFFFFFFFFFFFFFFFFFFFFFFFFFFFFFFFF AND DUP2 MSTORE PUSH1 0x20 ADD SWAP1 DUP2 MSTORE PUSH1 0x20 ADD PUSH0 KECCAK256 SLOAD SWAP1 POP SWAP2 SWAP1 POP JUMP JUMPDEST PUSH1 0x5 PUSH0 SWAP1 SLOAD SWAP1 PUSH2 0x100 EXP SWAP1 DIV PUSH20 0xFFFFFFFFFFFFFFFFFFFFFFFFFFFFFFFFFFFFFFFF AND PUSH20 0xFFFFFFFFFFFFFFFFFFFFFFFFFFFFFFFFFFFFFFFF AND CALLER PUSH20 0xFFFFFFFFFFFFFFFFFFFFFFFFFFFFFFFFFFFFFFFF AND EQ PUSH2 0x1B0C JUMPI PUSH1 0x40 MLOAD PUSH32 0x8C379A000000000000000000000000000000000000000000000000000000000 DUP2 MSTORE PUSH1 0x4 ADD PUSH2 0x1B03 SWAP1 PUSH2 0x37BE JUMP JUMPDEST PUSH1 0x40 MLOAD DUP1 SWAP2 SUB SWAP1 REVERT JUMPDEST PUSH0 PUSH2 0x3E8 PUSH1 0x4 SLOAD PUSH2 0x1B1D SWAP2 SWAP1 PUSH2 0x2FC0 JUMP JUMPDEST SWAP1 POP PUSH0 DUP2 SELFBALANCE PUSH2 0x1B2C SWAP2 SWAP1 PUSH2 0x37DC JUMP JUMPDEST SWAP1 POP PUSH0 DUP2 GT PUSH2 0x1B70 JUMPI PUSH1 0x40 MLOAD PUSH32 0x8C379A000000000000000000000000000000000000000000000000000000000 DUP2 MSTORE PUSH1 0x4 ADD PUSH2 0x1B67 SWAP1 PUSH2 0x3859 JUMP JUMPDEST PUSH1 0x40 MLOAD DUP1 SWAP2 SUB SWAP1 REVERT JUMPDEST PUSH1 0x5 PUSH0 SWAP1 SLOAD SWAP1 PUSH2 0x100 EXP SWAP1 DIV PUSH20 0xFFFFFFFFFFFFFFFFFFFFFFFFFFFFFFFFFFFFFFFF AND PUSH20 0xFFFFFFFFFFFFFFFFFFFFFFFFFFFFFFFFFFFFFFFF AND PUSH2 0x8FC DUP3 SWAP1 DUP2 ISZERO MUL SWAP1 PUSH1 0x40 MLOAD PUSH0 PUSH1 0x40 MLOAD DUP1 DUP4 SUB DUP2 DUP6 DUP9 DUP9 CALL SWAP4 POP POP POP POP ISZERO DUP1 ISZERO PUSH2 0x1BD4 JUMPI RETURNDATASIZE PUSH0 DUP1 RETURNDATACOPY RETURNDATASIZE PUSH0 REVERT JUMPDEST POP POP POP JUMP JUMPDEST PUSH0 PUSH1 0x1 PUSH0 DUP5 DUP2 MSTORE PUSH1 0x20 ADD SWAP1 DUP2 MSTORE PUSH1 0x20 ADD PUSH0 KECCAK256 SWAP1 POP CALLER PUSH20 0xFFFFFFFFFFFFFFFFFFFFFFFFFFFFFFFFFFFFFFFF AND DUP2 PUSH1 0x3 ADD PUSH0 SWAP1 SLOAD SWAP1 PUSH2 0x100 EXP SWAP1 DIV PUSH20 0xFFFFFFFFFFFFFFFFFFFFFFFFFFFFFFFFFFFFFFFF AND PUSH20 0xFFFFFFFFFFFFFFFFFFFFFFFFFFFFFFFFFFFFFFFF AND EQ DUP1 PUSH2 0x1CA5 JUMPI POP PUSH1 0x2 PUSH0 DUP5 DUP2 MSTORE PUSH1 0x20 ADD SWAP1 DUP2 MSTORE PUSH1 0x20 ADD PUSH0 KECCAK256 PUSH0 SWAP1 SLOAD SWAP1 PUSH2 0x100 EXP SWAP1 DIV PUSH20 0xFFFFFFFFFFFFFFFFFFFFFFFFFFFFFFFFFFFFFFFF AND PUSH20 0xFFFFFFFFFFFFFFFFFFFFFFFFFFFFFFFFFFFFFFFF AND CALLER PUSH20 0xFFFFFFFFFFFFFFFFFFFFFFFFFFFFFFFFFFFFFFFF AND EQ JUMPDEST PUSH2 0x1CE4 JUMPI PUSH1 0x40 MLOAD PUSH32 0x8C379A000000000000000000000000000000000000000000000000000000000 DUP2 MSTORE PUSH1 0x4 ADD PUSH2 0x1CDB SWAP1 PUSH2 0x2E29 JUMP JUMPDEST PUSH1 0x40 MLOAD DUP1 SWAP2 SUB SWAP1 REVERT JUMPDEST PUSH0 DUP3 DUP4 PUSH2 0x1CF1 SWAP2 SWAP1 PUSH2 0x3877 JUMP JUMPDEST PUSH1 0xFF AND SWAP1 POP DUP1 CALLVALUE LT ISZERO PUSH2 0x1D39 JUMPI PUSH1 0x40 MLOAD PUSH32 0x8C379A000000000000000000000000000000000000000000000000000000000 DUP2 MSTORE PUSH1 0x4 ADD PUSH2 0x1D30 SWAP1 PUSH2 0x3949 JUMP JUMPDEST PUSH1 0x40 MLOAD DUP1 SWAP2 SUB SWAP1 REVERT JUMPDEST PUSH2 0x1D96 DUP3 PUSH1 0x1 ADD PUSH1 0x1 ADD DUP1 SLOAD DUP1 PUSH1 0x20 MUL PUSH1 0x20 ADD PUSH1 0x40 MLOAD SWAP1 DUP2 ADD PUSH1 0x40 MSTORE DUP1 SWAP3 SWAP2 SWAP1 DUP2 DUP2 MSTORE PUSH1 0x20 ADD DUP3 DUP1 SLOAD DUP1 ISZERO PUSH2 0x1D8B JUMPI PUSH1 0x20 MUL DUP3 ADD SWAP2 SWAP1 PUSH0 MSTORE PUSH1 0x20 PUSH0 KECCAK256 SWAP1 JUMPDEST DUP2 SLOAD DUP2 MSTORE PUSH1 0x20 ADD SWAP1 PUSH1 0x1 ADD SWAP1 DUP1 DUP4 GT PUSH2 0x1D77 JUMPI JUMPDEST POP POP POP POP POP DUP5 PUSH2 0x2160 JUMP JUMPDEST POP POP POP POP JUMP JUMPDEST PUSH2 0x3E8 DUP2 JUMP JUMPDEST PUSH0 PUSH2 0x3E8 CALLVALUE EQ PUSH2 0x1DE7 JUMPI PUSH1 0x40 MLOAD PUSH32 0x8C379A000000000000000000000000000000000000000000000000000000000 DUP2 MSTORE PUSH1 0x4 ADD PUSH2 0x1DDE SWAP1 PUSH2 0x39B1 JUMP JUMPDEST PUSH1 0x40 MLOAD DUP1 SWAP2 SUB SWAP1 REVERT JUMPDEST PUSH0 DUP1 DUP2 SLOAD DUP1 SWAP3 SWAP2 SWAP1 PUSH2 0x1DF8 SWAP1 PUSH2 0x350B JUMP JUMPDEST SWAP2 SWAP1 POP SSTORE POP PUSH0 PUSH1 0x40 MLOAD DUP1 PUSH1 0x60 ADD PUSH1 0x40 MSTORE DUP1 DUP6 DUP6 DUP1 DUP1 PUSH1 0x1F ADD PUSH1 0x20 DUP1 SWAP2 DIV MUL PUSH1 0x20 ADD PUSH1 0x40 MLOAD SWAP1 DUP2 ADD PUSH1 0x40 MSTORE DUP1 SWAP4 SWAP3 SWAP2 SWAP1 DUP2 DUP2 MSTORE PUSH1 0x20 ADD DUP4 DUP4 DUP1 DUP3 DUP5 CALLDATACOPY PUSH0 DUP2 DUP5 ADD MSTORE PUSH1 0x1F NOT PUSH1 0x1F DUP3 ADD AND SWAP1 POP DUP1 DUP4 ADD SWAP3 POP POP POP POP POP POP POP DUP2 MSTORE PUSH1 0x20 ADD PUSH1 0x40 MLOAD DUP1 PUSH1 0x40 ADD PUSH1 0x40 MSTORE DUP1 PUSH0 PUSH8 0xFFFFFFFFFFFFFFFF DUP2 GT ISZERO PUSH2 0x1E77 JUMPI PUSH2 0x1E76 PUSH2 0x3099 JUMP JUMPDEST JUMPDEST PUSH1 0x40 MLOAD SWAP1 DUP1 DUP3 MSTORE DUP1 PUSH1 0x20 MUL PUSH1 0x20 ADD DUP3 ADD PUSH1 0x40 MSTORE DUP1 ISZERO PUSH2 0x1EAA JUMPI DUP2 PUSH1 0x20 ADD JUMPDEST PUSH1 0x60 DUP2 MSTORE PUSH1 0x20 ADD SWAP1 PUSH1 0x1 SWAP1 SUB SWAP1 DUP2 PUSH2 0x1E95 JUMPI SWAP1 POP JUMPDEST POP DUP2 MSTORE PUSH1 0x20 ADD PUSH0 PUSH8 0xFFFFFFFFFFFFFFFF DUP2 GT ISZERO PUSH2 0x1ECA JUMPI PUSH2 0x1EC9 PUSH2 0x3099 JUMP JUMPDEST JUMPDEST PUSH1 0x40 MLOAD SWAP1 DUP1 DUP3 MSTORE DUP1 PUSH1 0x20 MUL PUSH1 0x20 ADD DUP3 ADD PUSH1 0x40 MSTORE DUP1 ISZERO PUSH2 0x1EF8 JUMPI DUP2 PUSH1 0x20 ADD PUSH1 0x20 DUP3 MUL DUP1 CALLDATASIZE DUP4 CALLDATACOPY DUP1 DUP3 ADD SWAP2 POP POP SWAP1 POP JUMPDEST POP DUP2 MSTORE POP DUP2 MSTORE PUSH1 0x20 ADD CALLER PUSH20 0xFFFFFFFFFFFFFFFFFFFFFFFFFFFFFFFFFFFFFFFF AND DUP2 MSTORE POP SWAP1 POP DUP1 PUSH1 0x1 PUSH0 DUP1 SLOAD DUP2 MSTORE PUSH1 0x20 ADD SWAP1 DUP2 MSTORE PUSH1 0x20 ADD PUSH0 KECCAK256 PUSH0 DUP3 ADD MLOAD DUP2 PUSH0 ADD SWAP1 DUP2 PUSH2 0x1F43 SWAP2 SWAP1 PUSH2 0x39CF JUMP JUMPDEST POP PUSH1 0x20 DUP3 ADD MLOAD DUP2 PUSH1 0x1 ADD PUSH0 DUP3 ADD MLOAD DUP2 PUSH0 ADD SWAP1 DUP1 MLOAD SWAP1 PUSH1 0x20 ADD SWAP1 PUSH2 0x1F67 SWAP3 SWAP2 SWAP1 PUSH2 0x2259 JUMP JUMPDEST POP PUSH1 0x20 DUP3 ADD MLOAD DUP2 PUSH1 0x1 ADD SWAP1 DUP1 MLOAD SWAP1 PUSH1 0x20 ADD SWAP1 PUSH2 0x1F84 SWAP3 SWAP2 SWAP1 PUSH2 0x22B0 JUMP JUMPDEST POP POP POP PUSH1 0x40 DUP3 ADD MLOAD DUP2 PUSH1 0x3 ADD PUSH0 PUSH2 0x100 EXP DUP2 SLOAD DUP2 PUSH20 0xFFFFFFFFFFFFFFFFFFFFFFFFFFFFFFFFFFFFFFFF MUL NOT AND SWAP1 DUP4 PUSH20 0xFFFFFFFFFFFFFFFFFFFFFFFFFFFFFFFFFFFFFFFF AND MUL OR SWAP1 SSTORE POP SWAP1 POP POP PUSH1 0x4 PUSH0 DUP2 SLOAD DUP1 SWAP3 SWAP2 SWAP1 PUSH2 0x1FE2 SWAP1 PUSH2 0x350B JUMP JUMPDEST SWAP2 SWAP1 POP SSTORE POP PUSH1 0x3 PUSH0 CALLER PUSH20 0xFFFFFFFFFFFFFFFFFFFFFFFFFFFFFFFFFFFFFFFF AND PUSH20 0xFFFFFFFFFFFFFFFFFFFFFFFFFFFFFFFFFFFFFFFF AND DUP2 MSTORE PUSH1 0x20 ADD SWAP1 DUP2 MSTORE PUSH1 0x20 ADD PUSH0 KECCAK256 PUSH0 DUP2 SLOAD DUP1 SWAP3 SWAP2 SWAP1 PUSH2 0x2034 SWAP1 PUSH2 0x350B JUMP JUMPDEST SWAP2 SWAP1 POP SSTORE POP PUSH0 SLOAD CALLER PUSH20 0xFFFFFFFFFFFFFFFFFFFFFFFFFFFFFFFFFFFFFFFF AND PUSH0 PUSH20 0xFFFFFFFFFFFFFFFFFFFFFFFFFFFFFFFFFFFFFFFF AND PUSH32 0xDDF252AD1BE2C89B69C2B068FC378DAA952BA7F163C4A11628F55A4DF523B3EF PUSH1 0x40 MLOAD PUSH1 0x40 MLOAD DUP1 SWAP2 SUB SWAP1 LOG4 PUSH0 SLOAD SWAP2 POP POP SWAP3 SWAP2 POP POP JUMP JUMPDEST PUSH0 DUP1 PUSH0 SWAP1 POP PUSH0 JUMPDEST DUP4 MLOAD DUP2 LT ISZERO PUSH2 0x20E5 JUMPI DUP4 DUP2 DUP2 MLOAD DUP2 LT PUSH2 0x20C3 JUMPI PUSH2 0x20C2 PUSH2 0x3A9E JUMP JUMPDEST JUMPDEST PUSH1 0x20 MUL PUSH1 0x20 ADD ADD MLOAD DUP3 PUSH2 0x20D6 SWAP2 SWAP1 PUSH2 0x2A21 JUMP JUMPDEST SWAP2 POP DUP1 DUP1 PUSH1 0x1 ADD SWAP2 POP POP PUSH2 0x20A7 JUMP JUMPDEST POP DUP1 SWAP2 POP POP SWAP2 SWAP1 POP JUMP JUMPDEST PUSH0 DUP1 PUSH0 SWAP1 POP JUMPDEST DUP5 MLOAD DUP2 LT ISZERO PUSH2 0x2154 JUMPI DUP4 DUP4 PUSH1 0x40 MLOAD PUSH2 0x210E SWAP3 SWAP2 SWAP1 PUSH2 0x3B07 JUMP JUMPDEST PUSH1 0x40 MLOAD DUP1 SWAP2 SUB SWAP1 KECCAK256 DUP6 DUP3 DUP2 MLOAD DUP2 LT PUSH2 0x2129 JUMPI PUSH2 0x2128 PUSH2 0x3A9E JUMP JUMPDEST JUMPDEST PUSH1 0x20 MUL PUSH1 0x20 ADD ADD MLOAD DUP1 MLOAD SWAP1 PUSH1 0x20 ADD KECCAK256 SUB PUSH2 0x2147 JUMPI PUSH1 0x1 SWAP2 POP POP PUSH2 0x2159 JUMP JUMPDEST DUP1 DUP1 PUSH1 0x1 ADD SWAP2 POP POP PUSH2 0x20F5 JUMP JUMPDEST POP PUSH0 SWAP1 POP JUMPDEST SWAP4 SWAP3 POP POP POP JUMP JUMPDEST PUSH0 JUMPDEST DUP3 MLOAD DUP2 LT ISZERO PUSH2 0x21DB JUMPI PUSH1 0x64 DUP3 PUSH2 0x2178 SWAP2 SWAP1 PUSH2 0x3B4C JUMP JUMPDEST PUSH1 0xFF AND DUP4 DUP3 DUP2 MLOAD DUP2 LT PUSH2 0x218E JUMPI PUSH2 0x218D PUSH2 0x3A9E JUMP JUMPDEST JUMPDEST PUSH1 0x20 MUL PUSH1 0x20 ADD ADD MLOAD PUSH2 0x21A0 SWAP2 SWAP1 PUSH2 0x2FC0 JUMP JUMPDEST DUP4 DUP3 DUP2 MLOAD DUP2 LT PUSH2 0x21B3 JUMPI PUSH2 0x21B2 PUSH2 0x3A9E JUMP JUMPDEST JUMPDEST PUSH1 0x20 MUL PUSH1 0x20 ADD ADD DUP2 DUP2 MLOAD PUSH2 0x21C7 SWAP2 SWAP1 PUSH2 0x2A21 JUMP JUMPDEST SWAP2 POP DUP2 DUP2 MSTORE POP POP DUP1 DUP1 PUSH1 0x1 ADD SWAP2 POP POP PUSH2 0x2162 JUMP JUMPDEST POP POP POP JUMP JUMPDEST POP DUP1 SLOAD PUSH2 0x21EC SWAP1 PUSH2 0x2CFB JUMP JUMPDEST PUSH0 DUP3 SSTORE DUP1 PUSH1 0x1F LT PUSH2 0x21FD JUMPI POP PUSH2 0x221A JUMP JUMPDEST PUSH1 0x1F ADD PUSH1 0x20 SWAP1 DIV SWAP1 PUSH0 MSTORE PUSH1 0x20 PUSH0 KECCAK256 SWAP1 DUP2 ADD SWAP1 PUSH2 0x2219 SWAP2 SWAP1 PUSH2 0x22FB JUMP JUMPDEST JUMPDEST POP JUMP JUMPDEST POP DUP1 SLOAD PUSH0 DUP3 SSTORE SWAP1 PUSH0 MSTORE PUSH1 0x20 PUSH0 KECCAK256 SWAP1 DUP2 ADD SWAP1 PUSH2 0x2238 SWAP2 SWAP1 PUSH2 0x2316 JUMP JUMPDEST POP JUMP JUMPDEST POP DUP1 SLOAD PUSH0 DUP3 SSTORE SWAP1 PUSH0 MSTORE PUSH1 0x20 PUSH0 KECCAK256 SWAP1 DUP2 ADD SWAP1 PUSH2 0x2256 SWAP2 SWAP1 PUSH2 0x22FB JUMP JUMPDEST POP JUMP JUMPDEST DUP3 DUP1 SLOAD DUP3 DUP3 SSTORE SWAP1 PUSH0 MSTORE PUSH1 0x20 PUSH0 KECCAK256 SWAP1 DUP2 ADD SWAP3 DUP3 ISZERO PUSH2 0x229F JUMPI SWAP2 PUSH1 0x20 MUL DUP3 ADD JUMPDEST DUP3 DUP2 GT ISZERO PUSH2 0x229E JUMPI DUP3 MLOAD DUP3 SWAP1 DUP2 PUSH2 0x228E SWAP2 SWAP1 PUSH2 0x39CF JUMP JUMPDEST POP SWAP2 PUSH1 0x20 ADD SWAP2 SWAP1 PUSH1 0x1 ADD SWAP1 PUSH2 0x2277 JUMP JUMPDEST JUMPDEST POP SWAP1 POP PUSH2 0x22AC SWAP2 SWAP1 PUSH2 0x2316 JUMP JUMPDEST POP SWAP1 JUMP JUMPDEST DUP3 DUP1 SLOAD DUP3 DUP3 SSTORE SWAP1 PUSH0 MSTORE PUSH1 0x20 PUSH0 KECCAK256 SWAP1 DUP2 ADD SWAP3 DUP3 ISZERO PUSH2 0x22EA JUMPI SWAP2 PUSH1 0x20 MUL DUP3 ADD JUMPDEST DUP3 DUP2 GT ISZERO PUSH2 0x22E9 JUMPI DUP3 MLOAD DUP3 SSTORE SWAP2 PUSH1 0x20 ADD SWAP2 SWAP1 PUSH1 0x1 ADD SWAP1 PUSH2 0x22CE JUMP JUMPDEST JUMPDEST POP SWAP1 POP PUSH2 0x22F7 SWAP2 SWAP1 PUSH2 0x22FB JUMP JUMPDEST POP SWAP1 JUMP JUMPDEST JUMPDEST DUP1 DUP3 GT ISZERO PUSH2 0x2312 JUMPI PUSH0 DUP2 PUSH0 SWAP1 SSTORE POP PUSH1 0x1 ADD PUSH2 0x22FC JUMP JUMPDEST POP SWAP1 JUMP JUMPDEST JUMPDEST DUP1 DUP3 GT ISZERO PUSH2 0x2335 JUMPI PUSH0 DUP2 DUP2 PUSH2 0x232C SWAP2 SWAP1 PUSH2 0x21E0 JUMP JUMPDEST POP PUSH1 0x1 ADD PUSH2 0x2317 JUMP JUMPDEST POP SWAP1 JUMP JUMPDEST PUSH0 DUP1 REVERT JUMPDEST PUSH0 DUP1 REVERT JUMPDEST PUSH0 PUSH32 0xFFFFFFFF00000000000000000000000000000000000000000000000000000000 DUP3 AND SWAP1 POP SWAP2 SWAP1 POP JUMP JUMPDEST PUSH2 0x2375 DUP2 PUSH2 0x2341 JUMP JUMPDEST DUP2 EQ PUSH2 0x237F JUMPI PUSH0 DUP1 REVERT JUMPDEST POP JUMP JUMPDEST PUSH0 DUP2 CALLDATALOAD SWAP1 POP PUSH2 0x2390 DUP2 PUSH2 0x236C JUMP JUMPDEST SWAP3 SWAP2 POP POP JUMP JUMPDEST PUSH0 PUSH1 0x20 DUP3 DUP5 SUB SLT ISZERO PUSH2 0x23AB JUMPI PUSH2 0x23AA PUSH2 0x2339 JUMP JUMPDEST JUMPDEST PUSH0 PUSH2 0x23B8 DUP5 DUP3 DUP6 ADD PUSH2 0x2382 JUMP JUMPDEST SWAP2 POP POP SWAP3 SWAP2 POP POP JUMP JUMPDEST PUSH0 DUP2 ISZERO ISZERO SWAP1 POP SWAP2 SWAP1 POP JUMP JUMPDEST PUSH2 0x23D5 DUP2 PUSH2 0x23C1 JUMP JUMPDEST DUP3 MSTORE POP POP JUMP JUMPDEST PUSH0 PUSH1 0x20 DUP3 ADD SWAP1 POP PUSH2 0x23EE PUSH0 DUP4 ADD DUP5 PUSH2 0x23CC JUMP JUMPDEST SWAP3 SWAP2 POP POP JUMP JUMPDEST PUSH0 DUP2 SWAP1 POP SWAP2 SWAP1 POP JUMP JUMPDEST PUSH2 0x2406 DUP2 PUSH2 0x23F4 JUMP JUMPDEST DUP2 EQ PUSH2 0x2410 JUMPI PUSH0 DUP1 REVERT JUMPDEST POP JUMP JUMPDEST PUSH0 DUP2 CALLDATALOAD SWAP1 POP PUSH2 0x2421 DUP2 PUSH2 0x23FD JUMP JUMPDEST SWAP3 SWAP2 POP POP JUMP JUMPDEST PUSH0 PUSH1 0x20 DUP3 DUP5 SUB SLT ISZERO PUSH2 0x243C JUMPI PUSH2 0x243B PUSH2 0x2339 JUMP JUMPDEST JUMPDEST PUSH0 PUSH2 0x2449 DUP5 DUP3 DUP6 ADD PUSH2 0x2413 JUMP JUMPDEST SWAP2 POP POP SWAP3 SWAP2 POP POP JUMP JUMPDEST PUSH0 PUSH20 0xFFFFFFFFFFFFFFFFFFFFFFFFFFFFFFFFFFFFFFFF DUP3 AND SWAP1 POP SWAP2 SWAP1 POP JUMP JUMPDEST PUSH0 PUSH2 0x247B DUP3 PUSH2 0x2452 JUMP JUMPDEST SWAP1 POP SWAP2 SWAP1 POP JUMP JUMPDEST PUSH2 0x248B DUP2 PUSH2 0x2471 JUMP JUMPDEST DUP3 MSTORE POP POP JUMP JUMPDEST PUSH0 PUSH1 0x20 DUP3 ADD SWAP1 POP PUSH2 0x24A4 PUSH0 DUP4 ADD DUP5 PUSH2 0x2482 JUMP JUMPDEST SWAP3 SWAP2 POP POP JUMP JUMPDEST PUSH2 0x24B3 DUP2 PUSH2 0x2471 JUMP JUMPDEST DUP2 EQ PUSH2 0x24BD JUMPI PUSH0 DUP1 REVERT JUMPDEST POP JUMP JUMPDEST PUSH0 DUP2 CALLDATALOAD SWAP1 POP PUSH2 0x24CE DUP2 PUSH2 0x24AA JUMP JUMPDEST SWAP3 SWAP2 POP POP JUMP JUMPDEST PUSH0 DUP1 PUSH1 0x40 DUP4 DUP6 SUB SLT ISZERO PUSH2 0x24EA JUMPI PUSH2 0x24E9 PUSH2 0x2339 JUMP JUMPDEST JUMPDEST PUSH0 PUSH2 0x24F7 DUP6 DUP3 DUP7 ADD PUSH2 0x24C0 JUMP JUMPDEST SWAP3 POP POP PUSH1 0x20 PUSH2 0x2508 DUP6 DUP3 DUP7 ADD PUSH2 0x2413 JUMP JUMPDEST SWAP2 POP POP SWAP3 POP SWAP3 SWAP1 POP JUMP JUMPDEST PUSH0 DUP1 REVERT JUMPDEST PUSH0 DUP1 REVERT JUMPDEST PUSH0 DUP1 REVERT JUMPDEST PUSH0 DUP1 DUP4 PUSH1 0x1F DUP5 ADD SLT PUSH2 0x2533 JUMPI PUSH2 0x2532 PUSH2 0x2512 JUMP JUMPDEST JUMPDEST DUP3 CALLDATALOAD SWAP1 POP PUSH8 0xFFFFFFFFFFFFFFFF DUP2 GT ISZERO PUSH2 0x2550 JUMPI PUSH2 0x254F PUSH2 0x2516 JUMP JUMPDEST JUMPDEST PUSH1 0x20 DUP4 ADD SWAP2 POP DUP4 PUSH1 0x1 DUP3 MUL DUP4 ADD GT ISZERO PUSH2 0x256C JUMPI PUSH2 0x256B PUSH2 0x251A JUMP JUMPDEST JUMPDEST SWAP3 POP SWAP3 SWAP1 POP JUMP JUMPDEST PUSH0 DUP1 PUSH0 DUP1 PUSH1 0x60 DUP6 DUP8 SUB SLT ISZERO PUSH2 0x258B JUMPI PUSH2 0x258A PUSH2 0x2339 JUMP JUMPDEST JUMPDEST PUSH0 PUSH2 0x2598 DUP8 DUP3 DUP9 ADD PUSH2 0x2413 JUMP JUMPDEST SWAP5 POP POP PUSH1 0x20 DUP6 ADD CALLDATALOAD PUSH8 0xFFFFFFFFFFFFFFFF DUP2 GT ISZERO PUSH2 0x25B9 JUMPI PUSH2 0x25B8 PUSH2 0x233D JUMP JUMPDEST JUMPDEST PUSH2 0x25C5 DUP8 DUP3 DUP9 ADD PUSH2 0x251E JUMP JUMPDEST SWAP4 POP SWAP4 POP POP PUSH1 0x40 PUSH2 0x25D8 DUP8 DUP3 DUP9 ADD PUSH2 0x2413 JUMP JUMPDEST SWAP2 POP POP SWAP3 SWAP6 SWAP2 SWAP5 POP SWAP3 POP JUMP JUMPDEST PUSH0 DUP1 PUSH0 PUSH1 0x60 DUP5 DUP7 SUB SLT ISZERO PUSH2 0x25FB JUMPI PUSH2 0x25FA PUSH2 0x2339 JUMP JUMPDEST JUMPDEST PUSH0 PUSH2 0x2608 DUP7 DUP3 DUP8 ADD PUSH2 0x24C0 JUMP JUMPDEST SWAP4 POP POP PUSH1 0x20 PUSH2 0x2619 DUP7 DUP3 DUP8 ADD PUSH2 0x24C0 JUMP JUMPDEST SWAP3 POP POP PUSH1 0x40 PUSH2 0x262A DUP7 DUP3 DUP8 ADD PUSH2 0x2413 JUMP JUMPDEST SWAP2 POP POP SWAP3 POP SWAP3 POP SWAP3 JUMP JUMPDEST PUSH0 DUP2 MLOAD SWAP1 POP SWAP2 SWAP1 POP JUMP JUMPDEST PUSH0 DUP3 DUP3 MSTORE PUSH1 0x20 DUP3 ADD SWAP1 POP SWAP3 SWAP2 POP POP JUMP JUMPDEST DUP3 DUP2 DUP4 MCOPY PUSH0 DUP4 DUP4 ADD MSTORE POP POP POP JUMP JUMPDEST PUSH0 PUSH1 0x1F NOT PUSH1 0x1F DUP4 ADD AND SWAP1 POP SWAP2 SWAP1 POP JUMP JUMPDEST PUSH0 PUSH2 0x2676 DUP3 PUSH2 0x2634 JUMP JUMPDEST PUSH2 0x2680 DUP2 DUP6 PUSH2 0x263E JUMP JUMPDEST SWAP4 POP PUSH2 0x2690 DUP2 DUP6 PUSH1 0x20 DUP7 ADD PUSH2 0x264E JUMP JUMPDEST PUSH2 0x2699 DUP2 PUSH2 0x265C JUMP JUMPDEST DUP5 ADD SWAP2 POP POP SWAP3 SWAP2 POP POP JUMP JUMPDEST PUSH0 DUP2 MLOAD SWAP1 POP SWAP2 SWAP1 POP JUMP JUMPDEST PUSH0 DUP3 DUP3 MSTORE PUSH1 0x20 DUP3 ADD SWAP1 POP SWAP3 SWAP2 POP POP JUMP JUMPDEST PUSH0 DUP2 SWAP1 POP PUSH1 0x20 DUP3 ADD SWAP1 POP SWAP2 SWAP1 POP JUMP JUMPDEST PUSH0 DUP3 DUP3 MSTORE PUSH1 0x20 DUP3 ADD SWAP1 POP SWAP3 SWAP2 POP POP JUMP JUMPDEST PUSH0 PUSH2 0x26E7 DUP3 PUSH2 0x2634 JUMP JUMPDEST PUSH2 0x26F1 DUP2 DUP6 PUSH2 0x26CD JUMP JUMPDEST SWAP4 POP PUSH2 0x2701 DUP2 DUP6 PUSH1 0x20 DUP7 ADD PUSH2 0x264E JUMP JUMPDEST PUSH2 0x270A DUP2 PUSH2 0x265C JUMP JUMPDEST DUP5 ADD SWAP2 POP POP SWAP3 SWAP2 POP POP JUMP JUMPDEST PUSH0 PUSH2 0x2720 DUP4 DUP4 PUSH2 0x26DD JUMP JUMPDEST SWAP1 POP SWAP3 SWAP2 POP POP JUMP JUMPDEST PUSH0 PUSH1 0x20 DUP3 ADD SWAP1 POP SWAP2 SWAP1 POP JUMP JUMPDEST PUSH0 PUSH2 0x273E DUP3 PUSH2 0x26A4 JUMP JUMPDEST PUSH2 0x2748 DUP2 DUP6 PUSH2 0x26AE JUMP JUMPDEST SWAP4 POP DUP4 PUSH1 0x20 DUP3 MUL DUP6 ADD PUSH2 0x275A DUP6 PUSH2 0x26BE JUMP JUMPDEST DUP1 PUSH0 JUMPDEST DUP6 DUP2 LT ISZERO PUSH2 0x2795 JUMPI DUP5 DUP5 SUB DUP10 MSTORE DUP2 MLOAD PUSH2 0x2776 DUP6 DUP3 PUSH2 0x2715 JUMP JUMPDEST SWAP5 POP PUSH2 0x2781 DUP4 PUSH2 0x2728 JUMP JUMPDEST SWAP3 POP PUSH1 0x20 DUP11 ADD SWAP10 POP POP PUSH1 0x1 DUP2 ADD SWAP1 POP PUSH2 0x275D JUMP JUMPDEST POP DUP3 SWAP8 POP DUP8 SWAP6 POP POP POP POP POP POP SWAP3 SWAP2 POP POP JUMP JUMPDEST PUSH0 DUP2 MLOAD SWAP1 POP SWAP2 SWAP1 POP JUMP JUMPDEST PUSH0 DUP3 DUP3 MSTORE PUSH1 0x20 DUP3 ADD SWAP1 POP SWAP3 SWAP2 POP POP JUMP JUMPDEST PUSH0 DUP2 SWAP1 POP PUSH1 0x20 DUP3 ADD SWAP1 POP SWAP2 SWAP1 POP JUMP JUMPDEST PUSH2 0x27D9 DUP2 PUSH2 0x23F4 JUMP JUMPDEST DUP3 MSTORE POP POP JUMP JUMPDEST PUSH0 PUSH2 0x27EA DUP4 DUP4 PUSH2 0x27D0 JUMP JUMPDEST PUSH1 0x20 DUP4 ADD SWAP1 POP SWAP3 SWAP2 POP POP JUMP JUMPDEST PUSH0 PUSH1 0x20 DUP3 ADD SWAP1 POP SWAP2 SWAP1 POP JUMP JUMPDEST PUSH0 PUSH2 0x280C DUP3 PUSH2 0x27A7 JUMP JUMPDEST PUSH2 0x2816 DUP2 DUP6 PUSH2 0x27B1 JUMP JUMPDEST SWAP4 POP PUSH2 0x2821 DUP4 PUSH2 0x27C1 JUMP JUMPDEST DUP1 PUSH0 JUMPDEST DUP4 DUP2 LT ISZERO PUSH2 0x2851 JUMPI DUP2 MLOAD PUSH2 0x2838 DUP9 DUP3 PUSH2 0x27DF JUMP JUMPDEST SWAP8 POP PUSH2 0x2843 DUP4 PUSH2 0x27F6 JUMP JUMPDEST SWAP3 POP POP PUSH1 0x1 DUP2 ADD SWAP1 POP PUSH2 0x2824 JUMP JUMPDEST POP DUP6 SWAP4 POP POP POP POP SWAP3 SWAP2 POP POP JUMP JUMPDEST PUSH0 PUSH1 0x40 DUP4 ADD PUSH0 DUP4 ADD MLOAD DUP5 DUP3 SUB PUSH0 DUP7 ADD MSTORE PUSH2 0x2878 DUP3 DUP3 PUSH2 0x2734 JUMP JUMPDEST SWAP2 POP POP PUSH1 0x20 DUP4 ADD MLOAD DUP5 DUP3 SUB PUSH1 0x20 DUP7 ADD MSTORE PUSH2 0x2892 DUP3 DUP3 PUSH2 0x2802 JUMP JUMPDEST SWAP2 POP POP DUP1 SWAP2 POP POP SWAP3 SWAP2 POP POP JUMP JUMPDEST PUSH0 PUSH1 0x60 DUP3 ADD SWAP1 POP DUP2 DUP2 SUB PUSH0 DUP4 ADD MSTORE PUSH2 0x28B7 DUP2 DUP7 PUSH2 0x266C JUMP JUMPDEST SWAP1 POP DUP2 DUP2 SUB PUSH1 0x20 DUP4 ADD MSTORE PUSH2 0x28CB DUP2 DUP6 PUSH2 0x285E JUMP JUMPDEST SWAP1 POP PUSH2 0x28DA PUSH1 0x40 DUP4 ADD DUP5 PUSH2 0x2482 JUMP JUMPDEST SWAP5 SWAP4 POP POP POP POP JUMP JUMPDEST PUSH0 PUSH1 0x20 DUP3 DUP5 SUB SLT ISZERO PUSH2 0x28F7 JUMPI PUSH2 0x28F6 PUSH2 0x2339 JUMP JUMPDEST JUMPDEST PUSH0 PUSH2 0x2904 DUP5 DUP3 DUP6 ADD PUSH2 0x24C0 JUMP JUMPDEST SWAP2 POP POP SWAP3 SWAP2 POP POP JUMP JUMPDEST PUSH2 0x2916 DUP2 PUSH2 0x23F4 JUMP JUMPDEST DUP3 MSTORE POP POP JUMP JUMPDEST PUSH0 PUSH1 0x20 DUP3 ADD SWAP1 POP PUSH2 0x292F PUSH0 DUP4 ADD DUP5 PUSH2 0x290D JUMP JUMPDEST SWAP3 SWAP2 POP POP JUMP JUMPDEST PUSH0 PUSH1 0xFF DUP3 AND SWAP1 POP SWAP2 SWAP1 POP JUMP JUMPDEST PUSH2 0x294A DUP2 PUSH2 0x2935 JUMP JUMPDEST DUP2 EQ PUSH2 0x2954 JUMPI PUSH0 DUP1 REVERT JUMPDEST POP JUMP JUMPDEST PUSH0 DUP2 CALLDATALOAD SWAP1 POP PUSH2 0x2965 DUP2 PUSH2 0x2941 JUMP JUMPDEST SWAP3 SWAP2 POP POP JUMP JUMPDEST PUSH0 DUP1 PUSH1 0x40 DUP4 DUP6 SUB SLT ISZERO PUSH2 0x2981 JUMPI PUSH2 0x2980 PUSH2 0x2339 JUMP JUMPDEST JUMPDEST PUSH0 PUSH2 0x298E DUP6 DUP3 DUP7 ADD PUSH2 0x2413 JUMP JUMPDEST SWAP3 POP POP PUSH1 0x20 PUSH2 0x299F DUP6 DUP3 DUP7 ADD PUSH2 0x2957 JUMP JUMPDEST SWAP2 POP POP SWAP3 POP SWAP3 SWAP1 POP JUMP JUMPDEST PUSH0 DUP1 PUSH1 0x20 DUP4 DUP6 SUB SLT ISZERO PUSH2 0x29BF JUMPI PUSH2 0x29BE PUSH2 0x2339 JUMP JUMPDEST JUMPDEST PUSH0 DUP4 ADD CALLDATALOAD PUSH8 0xFFFFFFFFFFFFFFFF DUP2 GT ISZERO PUSH2 0x29DC JUMPI PUSH2 0x29DB PUSH2 0x233D JUMP JUMPDEST JUMPDEST PUSH2 0x29E8 DUP6 DUP3 DUP7 ADD PUSH2 0x251E JUMP JUMPDEST SWAP3 POP SWAP3 POP POP SWAP3 POP SWAP3 SWAP1 POP JUMP JUMPDEST PUSH32 0x4E487B7100000000000000000000000000000000000000000000000000000000 PUSH0 MSTORE PUSH1 0x11 PUSH1 0x4 MSTORE PUSH1 0x24 PUSH0 REVERT JUMPDEST PUSH0 PUSH2 0x2A2B DUP3 PUSH2 0x23F4 JUMP JUMPDEST SWAP2 POP PUSH2 0x2A36 DUP4 PUSH2 0x23F4 JUMP JUMPDEST SWAP3 POP DUP3 DUP3 ADD SWAP1 POP DUP1 DUP3 GT ISZERO PUSH2 0x2A4E JUMPI PUSH2 0x2A4D PUSH2 0x29F4 JUMP JUMPDEST JUMPDEST SWAP3 SWAP2 POP POP JUMP JUMPDEST PUSH32 0x4E6F20686179206E696E67756E20706572736F6E616A65000000000000000000 PUSH0 DUP3 ADD MSTORE POP JUMP JUMPDEST PUSH0 PUSH2 0x2A88 PUSH1 0x17 DUP4 PUSH2 0x263E JUMP JUMPDEST SWAP2 POP PUSH2 0x2A93 DUP3 PUSH2 0x2A54 JUMP JUMPDEST PUSH1 0x20 DUP3 ADD SWAP1 POP SWAP2 SWAP1 POP JUMP JUMPDEST PUSH0 PUSH1 0x20 DUP3 ADD SWAP1 POP DUP2 DUP2 SUB PUSH0 DUP4 ADD MSTORE PUSH2 0x2AB5 DUP2 PUSH2 0x2A7C JUMP JUMPDEST SWAP1 POP SWAP2 SWAP1 POP JUMP JUMPDEST PUSH32 0x456D69736F722064656265207365722070726F706965746172696F2064656C20 PUSH0 DUP3 ADD MSTORE PUSH32 0x746F6B656E000000000000000000000000000000000000000000000000000000 PUSH1 0x20 DUP3 ADD MSTORE POP JUMP JUMPDEST PUSH0 PUSH2 0x2B16 PUSH1 0x25 DUP4 PUSH2 0x263E JUMP JUMPDEST SWAP2 POP PUSH2 0x2B21 DUP3 PUSH2 0x2ABC JUMP JUMPDEST PUSH1 0x40 DUP3 ADD SWAP1 POP SWAP2 SWAP1 POP JUMP JUMPDEST PUSH0 PUSH1 0x20 DUP3 ADD SWAP1 POP DUP2 DUP2 SUB PUSH0 DUP4 ADD MSTORE PUSH2 0x2B43 DUP2 PUSH2 0x2B0A JUMP JUMPDEST SWAP1 POP SWAP2 SWAP1 POP JUMP JUMPDEST PUSH32 0x546F6B656E206E6F206578697374650000000000000000000000000000000000 PUSH0 DUP3 ADD MSTORE POP JUMP JUMPDEST PUSH0 PUSH2 0x2B7E PUSH1 0xF DUP4 PUSH2 0x263E JUMP JUMPDEST SWAP2 POP PUSH2 0x2B89 DUP3 PUSH2 0x2B4A JUMP JUMPDEST PUSH1 0x20 DUP3 ADD SWAP1 POP SWAP2 SWAP1 POP JUMP JUMPDEST PUSH0 PUSH1 0x20 DUP3 ADD SWAP1 POP DUP2 DUP2 SUB PUSH0 DUP4 ADD MSTORE PUSH2 0x2BAB DUP2 PUSH2 0x2B72 JUMP JUMPDEST SWAP1 POP SWAP2 SWAP1 POP JUMP JUMPDEST PUSH32 0x446562657320656E7669617220616C206D656E6F73206C612073756D61206465 PUSH0 DUP3 ADD MSTORE PUSH32 0x206C617320706F74656E6369617320646520667565676F20656E205765690000 PUSH1 0x20 DUP3 ADD MSTORE POP JUMP JUMPDEST PUSH0 PUSH2 0x2C0C PUSH1 0x3E DUP4 PUSH2 0x263E JUMP JUMPDEST SWAP2 POP PUSH2 0x2C17 DUP3 PUSH2 0x2BB2 JUMP JUMPDEST PUSH1 0x40 DUP3 ADD SWAP1 POP SWAP2 SWAP1 POP JUMP JUMPDEST PUSH0 PUSH1 0x20 DUP3 ADD SWAP1 POP DUP2 DUP2 SUB PUSH0 DUP4 ADD MSTORE PUSH2 0x2C39 DUP2 PUSH2 0x2C00 JUMP JUMPDEST SWAP1 POP SWAP2 SWAP1 POP JUMP JUMPDEST PUSH32 0x4E6F2070756564657320637265617220756E2061726D61206120756E20706572 PUSH0 DUP3 ADD MSTORE PUSH32 0x736F6E616A6520696E6578697374656E74650000000000000000000000000000 PUSH1 0x20 DUP3 ADD MSTORE POP JUMP JUMPDEST PUSH0 PUSH2 0x2C9A PUSH1 0x32 DUP4 PUSH2 0x263E JUMP JUMPDEST SWAP2 POP PUSH2 0x2CA5 DUP3 PUSH2 0x2C40 JUMP JUMPDEST PUSH1 0x40 DUP3 ADD SWAP1 POP SWAP2 SWAP1 POP JUMP JUMPDEST PUSH0 PUSH1 0x20 DUP3 ADD SWAP1 POP DUP2 DUP2 SUB PUSH0 DUP4 ADD MSTORE PUSH2 0x2CC7 DUP2 PUSH2 0x2C8E JUMP JUMPDEST SWAP1 POP SWAP2 SWAP1 POP JUMP JUMPDEST PUSH32 0x4E487B7100000000000000000000000000000000000000000000000000000000 PUSH0 MSTORE PUSH1 0x22 PUSH1 0x4 MSTORE PUSH1 0x24 PUSH0 REVERT JUMPDEST PUSH0 PUSH1 0x2 DUP3 DIV SWAP1 POP PUSH1 0x1 DUP3 AND DUP1 PUSH2 0x2D12 JUMPI PUSH1 0x7F DUP3 AND SWAP2 POP JUMPDEST PUSH1 0x20 DUP3 LT DUP2 SUB PUSH2 0x2D25 JUMPI PUSH2 0x2D24 PUSH2 0x2CCE JUMP JUMPDEST JUMPDEST POP SWAP2 SWAP1 POP JUMP JUMPDEST PUSH32 0x456C2061726D612071756520657374617320696E74656E74616E646F20637265 PUSH0 DUP3 ADD MSTORE PUSH32 0x6172207961206578697374650000000000000000000000000000000000000000 PUSH1 0x20 DUP3 ADD MSTORE POP JUMP JUMPDEST PUSH0 PUSH2 0x2D85 PUSH1 0x2C DUP4 PUSH2 0x263E JUMP JUMPDEST SWAP2 POP PUSH2 0x2D90 DUP3 PUSH2 0x2D2B JUMP JUMPDEST PUSH1 0x40 DUP3 ADD SWAP1 POP SWAP2 SWAP1 POP JUMP JUMPDEST PUSH0 PUSH1 0x20 DUP3 ADD SWAP1 POP DUP2 DUP2 SUB PUSH0 DUP4 ADD MSTORE PUSH2 0x2DB2 DUP2 PUSH2 0x2D79 JUMP JUMPDEST SWAP1 POP SWAP2 SWAP1 POP JUMP JUMPDEST PUSH32 0x536F6C6F20656C2070726F706965746172696F2079206170726F6261646F2070 PUSH0 DUP3 ADD MSTORE PUSH32 0x756564656E20656A65637574617220657374612066756E63696F6E0000000000 PUSH1 0x20 DUP3 ADD MSTORE POP JUMP JUMPDEST PUSH0 PUSH2 0x2E13 PUSH1 0x3B DUP4 PUSH2 0x263E JUMP JUMPDEST SWAP2 POP PUSH2 0x2E1E DUP3 PUSH2 0x2DB9 JUMP JUMPDEST PUSH1 0x40 DUP3 ADD SWAP1 POP SWAP2 SWAP1 POP JUMP JUMPDEST PUSH0 PUSH1 0x20 DUP3 ADD SWAP1 POP DUP2 DUP2 SUB PUSH0 DUP4 ADD MSTORE PUSH2 0x2E40 DUP2 PUSH2 0x2E07 JUMP JUMPDEST SWAP1 POP SWAP2 SWAP1 POP JUMP JUMPDEST PUSH0 DUP2 PUSH1 0x1 SHR SWAP1 POP SWAP2 SWAP1 POP JUMP JUMPDEST PUSH0 DUP1 DUP3 SWAP2 POP DUP4 SWAP1 POP JUMPDEST PUSH1 0x1 DUP6 GT ISZERO PUSH2 0x2E9C JUMPI DUP1 DUP7 DIV DUP2 GT ISZERO PUSH2 0x2E78 JUMPI PUSH2 0x2E77 PUSH2 0x29F4 JUMP JUMPDEST JUMPDEST PUSH1 0x1 DUP6 AND ISZERO PUSH2 0x2E87 JUMPI DUP1 DUP3 MUL SWAP2 POP JUMPDEST DUP1 DUP2 MUL SWAP1 POP PUSH2 0x2E95 DUP6 PUSH2 0x2E47 JUMP JUMPDEST SWAP5 POP PUSH2 0x2E5C JUMP JUMPDEST SWAP5 POP SWAP5 SWAP3 POP POP POP JUMP JUMPDEST PUSH0 DUP3 PUSH2 0x2EB4 JUMPI PUSH1 0x1 SWAP1 POP PUSH2 0x2F6F JUMP JUMPDEST DUP2 PUSH2 0x2EC1 JUMPI PUSH0 SWAP1 POP PUSH2 0x2F6F JUMP JUMPDEST DUP2 PUSH1 0x1 DUP2 EQ PUSH2 0x2ED7 JUMPI PUSH1 0x2 DUP2 EQ PUSH2 0x2EE1 JUMPI PUSH2 0x2F10 JUMP JUMPDEST PUSH1 0x1 SWAP2 POP POP PUSH2 0x2F6F JUMP JUMPDEST PUSH1 0xFF DUP5 GT ISZERO PUSH2 0x2EF3 JUMPI PUSH2 0x2EF2 PUSH2 0x29F4 JUMP JUMPDEST JUMPDEST DUP4 PUSH1 0x2 EXP SWAP2 POP DUP5 DUP3 GT ISZERO PUSH2 0x2F0A JUMPI PUSH2 0x2F09 PUSH2 0x29F4 JUMP JUMPDEST JUMPDEST POP PUSH2 0x2F6F JUMP JUMPDEST POP PUSH1 0x20 DUP4 LT PUSH2 0x133 DUP4 LT AND PUSH1 0x4E DUP5 LT PUSH1 0xB DUP5 LT AND OR ISZERO PUSH2 0x2F45 JUMPI DUP3 DUP3 EXP SWAP1 POP DUP4 DUP2 GT ISZERO PUSH2 0x2F40 JUMPI PUSH2 0x2F3F PUSH2 0x29F4 JUMP JUMPDEST JUMPDEST PUSH2 0x2F6F JUMP JUMPDEST PUSH2 0x2F52 DUP5 DUP5 DUP5 PUSH1 0x1 PUSH2 0x2E53 JUMP JUMPDEST SWAP3 POP SWAP1 POP DUP2 DUP5 DIV DUP2 GT ISZERO PUSH2 0x2F69 JUMPI PUSH2 0x2F68 PUSH2 0x29F4 JUMP JUMPDEST JUMPDEST DUP2 DUP2 MUL SWAP1 POP JUMPDEST SWAP4 SWAP3 POP POP POP JUMP JUMPDEST PUSH0 PUSH2 0x2F80 DUP3 PUSH2 0x23F4 JUMP JUMPDEST SWAP2 POP PUSH2 0x2F8B DUP4 PUSH2 0x23F4 JUMP JUMPDEST SWAP3 POP PUSH2 0x2FB8 PUSH32 0xFFFFFFFFFFFFFFFFFFFFFFFFFFFFFFFFFFFFFFFFFFFFFFFFFFFFFFFFFFFFFFFF DUP5 DUP5 PUSH2 0x2EA5 JUMP JUMPDEST SWAP1 POP SWAP3 SWAP2 POP POP JUMP JUMPDEST PUSH0 PUSH2 0x2FCA DUP3 PUSH2 0x23F4 JUMP JUMPDEST SWAP2 POP PUSH2 0x2FD5 DUP4 PUSH2 0x23F4 JUMP JUMPDEST SWAP3 POP DUP3 DUP3 MUL PUSH2 0x2FE3 DUP2 PUSH2 0x23F4 JUMP JUMPDEST SWAP2 POP DUP3 DUP3 DIV DUP5 EQ DUP4 ISZERO OR PUSH2 0x2FFA JUMPI PUSH2 0x2FF9 PUSH2 0x29F4 JUMP JUMPDEST JUMPDEST POP SWAP3 SWAP2 POP POP JUMP JUMPDEST PUSH32 0x4E6F207469656E657320737566696369656E7465732077656973207061726120 PUSH0 DUP3 ADD MSTORE PUSH32 0x6167726567617220656C2061726D610000000000000000000000000000000000 PUSH1 0x20 DUP3 ADD MSTORE POP JUMP JUMPDEST PUSH0 PUSH2 0x305B PUSH1 0x2F DUP4 PUSH2 0x263E JUMP JUMPDEST SWAP2 POP PUSH2 0x3066 DUP3 PUSH2 0x3001 JUMP JUMPDEST PUSH1 0x40 DUP3 ADD SWAP1 POP SWAP2 SWAP1 POP JUMP JUMPDEST PUSH0 PUSH1 0x20 DUP3 ADD SWAP1 POP DUP2 DUP2 SUB PUSH0 DUP4 ADD MSTORE PUSH2 0x3088 DUP2 PUSH2 0x304F JUMP JUMPDEST SWAP1 POP SWAP2 SWAP1 POP JUMP JUMPDEST PUSH0 DUP3 SWAP1 POP SWAP3 SWAP2 POP POP JUMP JUMPDEST PUSH32 0x4E487B7100000000000000000000000000000000000000000000000000000000 PUSH0 MSTORE PUSH1 0x41 PUSH1 0x4 MSTORE PUSH1 0x24 PUSH0 REVERT JUMPDEST PUSH0 DUP2 SWAP1 POP DUP2 PUSH0 MSTORE PUSH1 0x20 PUSH0 KECCAK256 SWAP1 POP SWAP2 SWAP1 POP JUMP JUMPDEST PUSH0 PUSH1 0x20 PUSH1 0x1F DUP4 ADD DIV SWAP1 POP SWAP2 SWAP1 POP JUMP JUMPDEST PUSH0 DUP3 DUP3 SHL SWAP1 POP SWAP3 SWAP2 POP POP JUMP JUMPDEST PUSH0 PUSH1 0x8 DUP4 MUL PUSH2 0x3122 PUSH32 0xFFFFFFFFFFFFFFFFFFFFFFFFFFFFFFFFFFFFFFFFFFFFFFFFFFFFFFFFFFFFFFFF DUP3 PUSH2 0x30E7 JUMP JUMPDEST PUSH2 0x312C DUP7 DUP4 PUSH2 0x30E7 JUMP JUMPDEST SWAP6 POP DUP1 NOT DUP5 AND SWAP4 POP DUP1 DUP7 AND DUP5 OR SWAP3 POP POP POP SWAP4 SWAP3 POP POP POP JUMP JUMPDEST PUSH0 DUP2 SWAP1 POP SWAP2 SWAP1 POP JUMP JUMPDEST PUSH0 PUSH2 0x3167 PUSH2 0x3162 PUSH2 0x315D DUP5 PUSH2 0x23F4 JUMP JUMPDEST PUSH2 0x3144 JUMP JUMPDEST PUSH2 0x23F4 JUMP JUMPDEST SWAP1 POP SWAP2 SWAP1 POP JUMP JUMPDEST PUSH0 DUP2 SWAP1 POP SWAP2 SWAP1 POP JUMP JUMPDEST PUSH2 0x3180 DUP4 PUSH2 0x314D JUMP JUMPDEST PUSH2 0x3194 PUSH2 0x318C DUP3 PUSH2 0x316E JUMP JUMPDEST DUP5 DUP5 SLOAD PUSH2 0x30F3 JUMP JUMPDEST DUP3 SSTORE POP POP POP POP JUMP JUMPDEST PUSH0 SWAP1 JUMP JUMPDEST PUSH2 0x31A8 PUSH2 0x319C JUMP JUMPDEST PUSH2 0x31B3 DUP2 DUP5 DUP5 PUSH2 0x3177 JUMP JUMPDEST POP POP POP JUMP JUMPDEST JUMPDEST DUP2 DUP2 LT ISZERO PUSH2 0x31D6 JUMPI PUSH2 0x31CB PUSH0 DUP3 PUSH2 0x31A0 JUMP JUMPDEST PUSH1 0x1 DUP2 ADD SWAP1 POP PUSH2 0x31B9 JUMP JUMPDEST POP POP JUMP JUMPDEST PUSH1 0x1F DUP3 GT ISZERO PUSH2 0x321B JUMPI PUSH2 0x31EC DUP2 PUSH2 0x30C6 JUMP JUMPDEST PUSH2 0x31F5 DUP5 PUSH2 0x30D8 JUMP JUMPDEST DUP2 ADD PUSH1 0x20 DUP6 LT ISZERO PUSH2 0x3204 JUMPI DUP2 SWAP1 POP JUMPDEST PUSH2 0x3218 PUSH2 0x3210 DUP6 PUSH2 0x30D8 JUMP JUMPDEST DUP4 ADD DUP3 PUSH2 0x31B8 JUMP JUMPDEST POP POP JUMPDEST POP POP POP JUMP JUMPDEST PUSH0 DUP3 DUP3 SHR SWAP1 POP SWAP3 SWAP2 POP POP JUMP JUMPDEST PUSH0 PUSH2 0x323B PUSH0 NOT DUP5 PUSH1 0x8 MUL PUSH2 0x3220 JUMP JUMPDEST NOT DUP1 DUP4 AND SWAP2 POP POP SWAP3 SWAP2 POP POP JUMP JUMPDEST PUSH0 PUSH2 0x3253 DUP4 DUP4 PUSH2 0x322C JUMP JUMPDEST SWAP2 POP DUP3 PUSH1 0x2 MUL DUP3 OR SWAP1 POP SWAP3 SWAP2 POP POP JUMP JUMPDEST PUSH2 0x326D DUP4 DUP4 PUSH2 0x308F JUMP JUMPDEST PUSH8 0xFFFFFFFFFFFFFFFF DUP2 GT ISZERO PUSH2 0x3286 JUMPI PUSH2 0x3285 PUSH2 0x3099 JUMP JUMPDEST JUMPDEST PUSH2 0x3290 DUP3 SLOAD PUSH2 0x2CFB JUMP JUMPDEST PUSH2 0x329B DUP3 DUP3 DUP6 PUSH2 0x31DA JUMP JUMPDEST PUSH0 PUSH1 0x1F DUP4 GT PUSH1 0x1 DUP2 EQ PUSH2 0x32C8 JUMPI PUSH0 DUP5 ISZERO PUSH2 0x32B6 JUMPI DUP3 DUP8 ADD CALLDATALOAD SWAP1 POP JUMPDEST PUSH2 0x32C0 DUP6 DUP3 PUSH2 0x3248 JUMP JUMPDEST DUP7 SSTORE POP PUSH2 0x3327 JUMP JUMPDEST PUSH1 0x1F NOT DUP5 AND PUSH2 0x32D6 DUP7 PUSH2 0x30C6 JUMP JUMPDEST PUSH0 JUMPDEST DUP3 DUP2 LT ISZERO PUSH2 0x32FD JUMPI DUP5 DUP10 ADD CALLDATALOAD DUP3 SSTORE PUSH1 0x1 DUP3 ADD SWAP2 POP PUSH1 0x20 DUP6 ADD SWAP5 POP PUSH1 0x20 DUP2 ADD SWAP1 POP PUSH2 0x32D8 JUMP JUMPDEST DUP7 DUP4 LT ISZERO PUSH2 0x331A JUMPI DUP5 DUP10 ADD CALLDATALOAD PUSH2 0x3316 PUSH1 0x1F DUP10 AND DUP3 PUSH2 0x322C JUMP JUMPDEST DUP4 SSTORE POP JUMPDEST PUSH1 0x1 PUSH1 0x2 DUP9 MUL ADD DUP9 SSTORE POP POP POP JUMPDEST POP POP POP POP POP POP POP JUMP JUMPDEST PUSH32 0x456D69736F7220646562652073657220656C20706F736565646F722064656C20 PUSH0 DUP3 ADD MSTORE PUSH32 0x746F6B656E206F20656C20717565207469656E65206170726F626163696F6E20 PUSH1 0x20 DUP3 ADD MSTORE PUSH32 0x7061726120686163657220636F73617320636F6E20656C20746F6B656E000000 PUSH1 0x40 DUP3 ADD MSTORE POP JUMP JUMPDEST PUSH0 PUSH2 0x33B0 PUSH1 0x5D DUP4 PUSH2 0x263E JUMP JUMPDEST SWAP2 POP PUSH2 0x33BB DUP3 PUSH2 0x3330 JUMP JUMPDEST PUSH1 0x60 DUP3 ADD SWAP1 POP SWAP2 SWAP1 POP JUMP JUMPDEST PUSH0 PUSH1 0x20 DUP3 ADD SWAP1 POP DUP2 DUP2 SUB PUSH0 DUP4 ADD MSTORE PUSH2 0x33DD DUP2 PUSH2 0x33A4 JUMP JUMPDEST SWAP1 POP SWAP2 SWAP1 POP JUMP JUMPDEST PUSH32 0x4E6F206C6F206469636520656C20656E756E636961646F2C207065726F206372 PUSH0 DUP3 ADD MSTORE PUSH32 0x656F2071756520656C2066726F6D206573207369656D70726520656C20717565 PUSH1 0x20 DUP3 ADD MSTORE PUSH32 0x20706F73656520656C20746F6B656E2C2073696E206E65636573696461642064 PUSH1 0x40 DUP3 ADD MSTORE PUSH32 0x652071756520736561206573746520656C2071756520656A6563757461206C61 PUSH1 0x60 DUP3 ADD MSTORE PUSH32 0x206F7065726163696F6E00000000000000000000000000000000000000000000 PUSH1 0x80 DUP3 ADD MSTORE POP JUMP JUMPDEST PUSH0 PUSH2 0x34B0 PUSH1 0x8A DUP4 PUSH2 0x263E JUMP JUMPDEST SWAP2 POP PUSH2 0x34BB DUP3 PUSH2 0x33E4 JUMP JUMPDEST PUSH1 0xA0 DUP3 ADD SWAP1 POP SWAP2 SWAP1 POP JUMP JUMPDEST PUSH0 PUSH1 0x20 DUP3 ADD SWAP1 POP DUP2 DUP2 SUB PUSH0 DUP4 ADD MSTORE PUSH2 0x34DD DUP2 PUSH2 0x34A4 JUMP JUMPDEST SWAP1 POP SWAP2 SWAP1 POP JUMP JUMPDEST PUSH0 PUSH2 0x34EE DUP3 PUSH2 0x23F4 JUMP JUMPDEST SWAP2 POP PUSH0 DUP3 SUB PUSH2 0x3500 JUMPI PUSH2 0x34FF PUSH2 0x29F4 JUMP JUMPDEST JUMPDEST PUSH1 0x1 DUP3 SUB SWAP1 POP SWAP2 SWAP1 POP JUMP JUMPDEST PUSH0 PUSH2 0x3515 DUP3 PUSH2 0x23F4 JUMP JUMPDEST SWAP2 POP PUSH32 0xFFFFFFFFFFFFFFFFFFFFFFFFFFFFFFFFFFFFFFFFFFFFFFFFFFFFFFFFFFFFFFFF DUP3 SUB PUSH2 0x3547 JUMPI PUSH2 0x3546 PUSH2 0x29F4 JUMP JUMPDEST JUMPDEST PUSH1 0x1 DUP3 ADD SWAP1 POP SWAP2 SWAP1 POP JUMP JUMPDEST PUSH0 DUP3 DUP3 MSTORE PUSH1 0x20 DUP3 ADD SWAP1 POP SWAP3 SWAP2 POP POP JUMP JUMPDEST POP JUMP JUMPDEST PUSH0 PUSH2 0x3570 PUSH0 DUP4 PUSH2 0x3552 JUMP JUMPDEST SWAP2 POP PUSH2 0x357B DUP3 PUSH2 0x3562 JUMP JUMPDEST PUSH0 DUP3 ADD SWAP1 POP SWAP2 SWAP1 POP JUMP JUMPDEST PUSH0 PUSH1 0x80 DUP3 ADD SWAP1 POP PUSH2 0x3598 PUSH0 DUP4 ADD DUP7 PUSH2 0x2482 JUMP JUMPDEST PUSH2 0x35A5 PUSH1 0x20 DUP4 ADD DUP6 PUSH2 0x2482 JUMP JUMPDEST PUSH2 0x35B2 PUSH1 0x40 DUP4 ADD DUP5 PUSH2 0x290D JUMP JUMPDEST DUP2 DUP2 SUB PUSH1 0x60 DUP4 ADD MSTORE PUSH2 0x35C3 DUP2 PUSH2 0x3565 JUMP JUMPDEST SWAP1 POP SWAP5 SWAP4 POP POP POP POP JUMP JUMPDEST PUSH0 DUP2 MLOAD SWAP1 POP PUSH2 0x35DB DUP2 PUSH2 0x236C JUMP JUMPDEST SWAP3 SWAP2 POP POP JUMP JUMPDEST PUSH0 PUSH1 0x20 DUP3 DUP5 SUB SLT ISZERO PUSH2 0x35F6 JUMPI PUSH2 0x35F5 PUSH2 0x2339 JUMP JUMPDEST JUMPDEST PUSH0 PUSH2 0x3603 DUP5 DUP3 DUP6 ADD PUSH2 0x35CD JUMP JUMPDEST SWAP2 POP POP SWAP3 SWAP2 POP POP JUMP JUMPDEST PUSH32 0x4573746F20746520636F6D70727565626120736920656C20636F6E747261746F PUSH0 DUP3 ADD MSTORE PUSH32 0x20657374612070726570617261646F20706172612072656369626972206E6674 PUSH1 0x20 DUP3 ADD MSTORE PUSH32 0x732E000000000000000000000000000000000000000000000000000000000000 PUSH1 0x40 DUP3 ADD MSTORE POP JUMP JUMPDEST PUSH0 PUSH2 0x368C PUSH1 0x42 DUP4 PUSH2 0x263E JUMP JUMPDEST SWAP2 POP PUSH2 0x3697 DUP3 PUSH2 0x360C JUMP JUMPDEST PUSH1 0x60 DUP3 ADD SWAP1 POP SWAP2 SWAP1 POP JUMP JUMPDEST PUSH0 PUSH1 0x20 DUP3 ADD SWAP1 POP DUP2 DUP2 SUB PUSH0 DUP4 ADD MSTORE PUSH2 0x36B9 DUP2 PUSH2 0x3680 JUMP JUMPDEST SWAP1 POP SWAP2 SWAP1 POP JUMP JUMPDEST PUSH32 0x456C207573756172696F20646562652074656E65722062616C616E6365000000 PUSH0 DUP3 ADD MSTORE POP JUMP JUMPDEST PUSH0 PUSH2 0x36F4 PUSH1 0x1D DUP4 PUSH2 0x263E JUMP JUMPDEST SWAP2 POP PUSH2 0x36FF DUP3 PUSH2 0x36C0 JUMP JUMPDEST PUSH1 0x20 DUP3 ADD SWAP1 POP SWAP2 SWAP1 POP JUMP JUMPDEST PUSH0 PUSH1 0x20 DUP3 ADD SWAP1 POP DUP2 DUP2 SUB PUSH0 DUP4 ADD MSTORE PUSH2 0x3721 DUP2 PUSH2 0x36E8 JUMP JUMPDEST SWAP1 POP SWAP2 SWAP1 POP JUMP JUMPDEST PUSH32 0x536F6C6F207075656465732072656369626972206C6F732070726F6669747320 PUSH0 DUP3 ADD MSTORE PUSH32 0x6465206573746520636F6E747261746F207369206572657320656C2070726F70 PUSH1 0x20 DUP3 ADD MSTORE PUSH32 0x6965746172696F2064656C206D69736D6F000000000000000000000000000000 PUSH1 0x40 DUP3 ADD MSTORE POP JUMP JUMPDEST PUSH0 PUSH2 0x37A8 PUSH1 0x51 DUP4 PUSH2 0x263E JUMP JUMPDEST SWAP2 POP PUSH2 0x37B3 DUP3 PUSH2 0x3728 JUMP JUMPDEST PUSH1 0x60 DUP3 ADD SWAP1 POP SWAP2 SWAP1 POP JUMP JUMPDEST PUSH0 PUSH1 0x20 DUP3 ADD SWAP1 POP DUP2 DUP2 SUB PUSH0 DUP4 ADD MSTORE PUSH2 0x37D5 DUP2 PUSH2 0x379C JUMP JUMPDEST SWAP1 POP SWAP2 SWAP1 POP JUMP JUMPDEST PUSH0 PUSH2 0x37E6 DUP3 PUSH2 0x23F4 JUMP JUMPDEST SWAP2 POP PUSH2 0x37F1 DUP4 PUSH2 0x23F4 JUMP JUMPDEST SWAP3 POP DUP3 DUP3 SUB SWAP1 POP DUP2 DUP2 GT ISZERO PUSH2 0x3809 JUMPI PUSH2 0x3808 PUSH2 0x29F4 JUMP JUMPDEST JUMPDEST SWAP3 SWAP2 POP POP JUMP JUMPDEST PUSH32 0x4E6F206861792062656E65666963696F732070617261207265636F6765720000 PUSH0 DUP3 ADD MSTORE POP JUMP JUMPDEST PUSH0 PUSH2 0x3843 PUSH1 0x1E DUP4 PUSH2 0x263E JUMP JUMPDEST SWAP2 POP PUSH2 0x384E DUP3 PUSH2 0x380F JUMP JUMPDEST PUSH1 0x20 DUP3 ADD SWAP1 POP SWAP2 SWAP1 POP JUMP JUMPDEST PUSH0 PUSH1 0x20 DUP3 ADD SWAP1 POP DUP2 DUP2 SUB PUSH0 DUP4 ADD MSTORE PUSH2 0x3870 DUP2 PUSH2 0x3837 JUMP JUMPDEST SWAP1 POP SWAP2 SWAP1 POP JUMP JUMPDEST PUSH0 PUSH2 0x3881 DUP3 PUSH2 0x2935 JUMP JUMPDEST SWAP2 POP PUSH2 0x388C DUP4 PUSH2 0x2935 JUMP JUMPDEST SWAP3 POP DUP3 DUP3 MUL PUSH2 0x389A DUP2 PUSH2 0x2935 JUMP JUMPDEST SWAP2 POP DUP1 DUP3 EQ PUSH2 0x38AC JUMPI PUSH2 0x38AB PUSH2 0x29F4 JUMP JUMPDEST JUMPDEST POP SWAP3 SWAP2 POP POP JUMP JUMPDEST PUSH32 0x4E6F207469656E657320737566696369656E7465732077656973207061726120 PUSH0 DUP3 ADD MSTORE PUSH32 0x696E6372656D656E746172206C6120706F74656E636961206465207475732061 PUSH1 0x20 DUP3 ADD MSTORE PUSH32 0x726D617300000000000000000000000000000000000000000000000000000000 PUSH1 0x40 DUP3 ADD MSTORE POP JUMP JUMPDEST PUSH0 PUSH2 0x3933 PUSH1 0x44 DUP4 PUSH2 0x263E JUMP JUMPDEST SWAP2 POP PUSH2 0x393E DUP3 PUSH2 0x38B3 JUMP JUMPDEST PUSH1 0x60 DUP3 ADD SWAP1 POP SWAP2 SWAP1 POP JUMP JUMPDEST PUSH0 PUSH1 0x20 DUP3 ADD SWAP1 POP DUP2 DUP2 SUB PUSH0 DUP4 ADD MSTORE PUSH2 0x3960 DUP2 PUSH2 0x3927 JUMP JUMPDEST SWAP1 POP SWAP2 SWAP1 POP JUMP JUMPDEST PUSH32 0x456C20696D706F727465206120646520736572206D696C207765697300000000 PUSH0 DUP3 ADD MSTORE POP JUMP JUMPDEST PUSH0 PUSH2 0x399B PUSH1 0x1C DUP4 PUSH2 0x263E JUMP JUMPDEST SWAP2 POP PUSH2 0x39A6 DUP3 PUSH2 0x3967 JUMP JUMPDEST PUSH1 0x20 DUP3 ADD SWAP1 POP SWAP2 SWAP1 POP JUMP JUMPDEST PUSH0 PUSH1 0x20 DUP3 ADD SWAP1 POP DUP2 DUP2 SUB PUSH0 DUP4 ADD MSTORE PUSH2 0x39C8 DUP2 PUSH2 0x398F JUMP JUMPDEST SWAP1 POP SWAP2 SWAP1 POP JUMP JUMPDEST PUSH2 0x39D8 DUP3 PUSH2 0x2634 JUMP JUMPDEST PUSH8 0xFFFFFFFFFFFFFFFF DUP2 GT ISZERO PUSH2 0x39F1 JUMPI PUSH2 0x39F0 PUSH2 0x3099 JUMP JUMPDEST JUMPDEST PUSH2 0x39FB DUP3 SLOAD PUSH2 0x2CFB JUMP JUMPDEST PUSH2 0x3A06 DUP3 DUP3 DUP6 PUSH2 0x31DA JUMP JUMPDEST PUSH0 PUSH1 0x20 SWAP1 POP PUSH1 0x1F DUP4 GT PUSH1 0x1 DUP2 EQ PUSH2 0x3A37 JUMPI PUSH0 DUP5 ISZERO PUSH2 0x3A25 JUMPI DUP3 DUP8 ADD MLOAD SWAP1 POP JUMPDEST PUSH2 0x3A2F DUP6 DUP3 PUSH2 0x3248 JUMP JUMPDEST DUP7 SSTORE POP PUSH2 0x3A96 JUMP JUMPDEST PUSH1 0x1F NOT DUP5 AND PUSH2 0x3A45 DUP7 PUSH2 0x30C6 JUMP JUMPDEST PUSH0 JUMPDEST DUP3 DUP2 LT ISZERO PUSH2 0x3A6C JUMPI DUP5 DUP10 ADD MLOAD DUP3 SSTORE PUSH1 0x1 DUP3 ADD SWAP2 POP PUSH1 0x20 DUP6 ADD SWAP5 POP PUSH1 0x20 DUP2 ADD SWAP1 POP PUSH2 0x3A47 JUMP JUMPDEST DUP7 DUP4 LT ISZERO PUSH2 0x3A89 JUMPI DUP5 DUP10 ADD MLOAD PUSH2 0x3A85 PUSH1 0x1F DUP10 AND DUP3 PUSH2 0x322C JUMP JUMPDEST DUP4 SSTORE POP JUMPDEST PUSH1 0x1 PUSH1 0x2 DUP9 MUL ADD DUP9 SSTORE POP POP POP JUMPDEST POP POP POP POP POP POP JUMP JUMPDEST PUSH32 0x4E487B7100000000000000000000000000000000000000000000000000000000 PUSH0 MSTORE PUSH1 0x32 PUSH1 0x4 MSTORE PUSH1 0x24 PUSH0 REVERT JUMPDEST PUSH0 DUP2 SWAP1 POP SWAP3 SWAP2 POP POP JUMP JUMPDEST DUP3 DUP2 DUP4 CALLDATACOPY PUSH0 DUP4 DUP4 ADD MSTORE POP POP POP JUMP JUMPDEST PUSH0 PUSH2 0x3AEE DUP4 DUP6 PUSH2 0x3ACB JUMP JUMPDEST SWAP4 POP PUSH2 0x3AFB DUP4 DUP6 DUP5 PUSH2 0x3AD5 JUMP JUMPDEST DUP3 DUP5 ADD SWAP1 POP SWAP4 SWAP3 POP POP POP JUMP JUMPDEST PUSH0 PUSH2 0x3B13 DUP3 DUP5 DUP7 PUSH2 0x3AE3 JUMP JUMPDEST SWAP2 POP DUP2 SWAP1 POP SWAP4 SWAP3 POP POP POP JUMP JUMPDEST PUSH32 0x4E487B7100000000000000000000000000000000000000000000000000000000 PUSH0 MSTORE PUSH1 0x12 PUSH1 0x4 MSTORE PUSH1 0x24 PUSH0 REVERT JUMPDEST PUSH0 PUSH2 0x3B56 DUP3 PUSH2 0x2935 JUMP JUMPDEST SWAP2 POP PUSH2 0x3B61 DUP4 PUSH2 0x2935 JUMP JUMPDEST SWAP3 POP DUP3 PUSH2 0x3B71 JUMPI PUSH2 0x3B70 PUSH2 0x3B1F JUMP JUMPDEST JUMPDEST DUP3 DUP3 DIV SWAP1 POP SWAP3 SWAP2 POP POP JUMP INVALID LOG2 PUSH5 0x6970667358 0x22 SLT KECCAK256 CALL 0xFC CHAINID OR CALLER SHL DUP10 0xA5 0xBB TSTORE 0xA9 DELEGATECALL PUSH17 0x20F740CA7DC299B41876A85F75AD3FA78A SAR DUP15 PUSH5 0x736F6C6343 STOP ADDMOD BYTE STOP CALLER "
		},
		"gasEstimates": {
			"creation": {
				"codeDepositCost": "3056400",
				"executionCost": "54738",
				"totalCost": "3111138"
			},
			"external": {
				"WEIS_NECESARIOS()": "391",
				"addWeapon(uint256,string,uint256)": "infinite",
				"approve(address,uint256)": "infinite",
				"balanceOf(address)": "2931",
				"characters(uint256)": "infinite",
				"collectProfits()": "infinite",
				"createMonsterToken(string)": "infinite",
				"getApproved(uint256)": "infinite",
				"incrementFirePower(uint256,uint8)": "infinite",
				"ownerOf(uint256)": "5155",
				"removeMonsterToken(uint256)": "infinite",
				"safeTransferFrom(address,address,uint256)": "infinite",
				"supportsInterface(bytes4)": "699",
				"transferFrom(address,address,uint256)": "infinite"
			}
		},
		"methodIdentifiers": {
			"WEIS_NECESARIOS()": "e85e001b",
			"addWeapon(uint256,string,uint256)": "0a0eac29",
			"approve(address,uint256)": "095ea7b3",
			"balanceOf(address)": "70a08231",
			"characters(uint256)": "4810bc59",
			"collectProfits()": "c958e0d6",
			"createMonsterToken(string)": "eb116756",
			"getApproved(uint256)": "081812fc",
			"incrementFirePower(uint256,uint8)": "d6ad8a94",
			"ownerOf(uint256)": "6352211e",
			"removeMonsterToken(uint256)": "50fac4f1",
			"safeTransferFrom(address,address,uint256)": "42842e0e",
			"supportsInterface(bytes4)": "01ffc9a7",
			"transferFrom(address,address,uint256)": "23b872dd"
		}
	},
	"abi": [
		{
			"inputs": [],
			"stateMutability": "nonpayable",
			"type": "constructor"
		},
		{
			"anonymous": false,
			"inputs": [
				{
					"indexed": true,
					"internalType": "address",
					"name": "_owner",
					"type": "address"
				},
				{
					"indexed": true,
					"internalType": "address",
					"name": "_approved",
					"type": "address"
				},
				{
					"indexed": true,
					"internalType": "uint256",
					"name": "_tokenId",
					"type": "uint256"
				}
			],
			"name": "Approval",
			"type": "event"
		},
		{
			"anonymous": false,
			"inputs": [
				{
					"indexed": true,
					"internalType": "address",
					"name": "_from",
					"type": "address"
				},
				{
					"indexed": true,
					"internalType": "address",
					"name": "_to",
					"type": "address"
				},
				{
					"indexed": true,
					"internalType": "uint256",
					"name": "_tokenId",
					"type": "uint256"
				}
			],
			"name": "Transfer",
			"type": "event"
		},
		{
			"inputs": [],
			"name": "WEIS_NECESARIOS",
			"outputs": [
				{
					"internalType": "uint256",
					"name": "",
					"type": "uint256"
				}
			],
			"stateMutability": "view",
			"type": "function"
		},
		{
			"inputs": [
				{
					"internalType": "uint256",
					"name": "character_tokenId",
					"type": "uint256"
				},
				{
					"internalType": "string",
					"name": "weapon_name",
					"type": "string"
				},
				{
					"internalType": "uint256",
					"name": "fire_power",
					"type": "uint256"
				}
			],
			"name": "addWeapon",
			"outputs": [],
			"stateMutability": "payable",
			"type": "function"
		},
		{
			"inputs": [
				{
					"internalType": "address",
					"name": "_approved",
					"type": "address"
				},
				{
					"internalType": "uint256",
					"name": "_tokenId",
					"type": "uint256"
				}
			],
			"name": "approve",
			"outputs": [],
			"stateMutability": "payable",
			"type": "function"
		},
		{
			"inputs": [
				{
					"internalType": "address",
					"name": "_owner",
					"type": "address"
				}
			],
			"name": "balanceOf",
			"outputs": [
				{
					"internalType": "uint256",
					"name": "",
					"type": "uint256"
				}
			],
			"stateMutability": "view",
			"type": "function"
		},
		{
			"inputs": [
				{
					"internalType": "uint256",
					"name": "",
					"type": "uint256"
				}
			],
			"name": "characters",
			"outputs": [
				{
					"internalType": "string",
					"name": "name",
					"type": "string"
				},
				{
					"components": [
						{
							"internalType": "string[]",
							"name": "names",
							"type": "string[]"
						},
						{
							"internalType": "uint256[]",
							"name": "firePowers",
							"type": "uint256[]"
						}
					],
					"internalType": "struct MonsterTokens.Weapons",
					"name": "weapons",
					"type": "tuple"
				},
				{
					"internalType": "address",
					"name": "tokenOwner",
					"type": "address"
				}
			],
			"stateMutability": "view",
			"type": "function"
		},
		{
			"inputs": [],
			"name": "collectProfits",
			"outputs": [],
			"stateMutability": "nonpayable",
			"type": "function"
		},
		{
			"inputs": [
				{
					"internalType": "string",
					"name": "character_name",
					"type": "string"
				}
			],
			"name": "createMonsterToken",
			"outputs": [
				{
					"internalType": "uint256",
					"name": "",
					"type": "uint256"
				}
			],
			"stateMutability": "payable",
			"type": "function"
		},
		{
			"inputs": [
				{
					"internalType": "uint256",
					"name": "_tokenId",
					"type": "uint256"
				}
			],
			"name": "getApproved",
			"outputs": [
				{
					"internalType": "address",
					"name": "",
					"type": "address"
				}
			],
			"stateMutability": "view",
			"type": "function"
		},
		{
			"inputs": [
				{
					"internalType": "uint256",
					"name": "character_tokenId",
					"type": "uint256"
				},
				{
					"internalType": "uint8",
					"name": "inc_per",
					"type": "uint8"
				}
			],
			"name": "incrementFirePower",
			"outputs": [],
			"stateMutability": "payable",
			"type": "function"
		},
		{
			"inputs": [
				{
					"internalType": "uint256",
					"name": "_tokenId",
					"type": "uint256"
				}
			],
			"name": "ownerOf",
			"outputs": [
				{
					"internalType": "address",
					"name": "",
					"type": "address"
				}
			],
			"stateMutability": "view",
			"type": "function"
		},
		{
			"inputs": [
				{
					"internalType": "uint256",
					"name": "token",
					"type": "uint256"
				}
			],
			"name": "removeMonsterToken",
			"outputs": [],
			"stateMutability": "nonpayable",
			"type": "function"
		},
		{
			"inputs": [
				{
					"internalType": "address",
					"name": "_from",
					"type": "address"
				},
				{
					"internalType": "address",
					"name": "_to",
					"type": "address"
				},
				{
					"internalType": "uint256",
					"name": "_tokenId",
					"type": "uint256"
				}
			],
			"name": "safeTransferFrom",
			"outputs": [],
			"stateMutability": "payable",
			"type": "function"
		},
		{
			"inputs": [
				{
					"internalType": "bytes4",
					"name": "interfaceID",
					"type": "bytes4"
				}
			],
			"name": "supportsInterface",
			"outputs": [
				{
					"internalType": "bool",
					"name": "",
					"type": "bool"
				}
			],
			"stateMutability": "pure",
			"type": "function"
		},
		{
			"inputs": [
				{
					"internalType": "address",
					"name": "_from",
					"type": "address"
				},
				{
					"internalType": "address",
					"name": "_to",
					"type": "address"
				},
				{
					"internalType": "uint256",
					"name": "_tokenId",
					"type": "uint256"
				}
			],
			"name": "transferFrom",
			"outputs": [],
			"stateMutability": "payable",
			"type": "function"
		}
	]
}